{
  "abi": [
    {
      "inputs": [
        {
          "internalType": "contract LiquidityToken",
          "name": "_liquidityToken",
          "type": "address"
        },
        {
          "internalType": "contract ProjectToken",
          "name": "_projectToken",
          "type": "address"
        }
      ],
      "stateMutability": "nonpayable",
      "type": "constructor"
    },
    {
      "anonymous": false,
      "inputs": [
        {
          "indexed": false,
          "internalType": "address",
          "name": "_user",
          "type": "address"
        },
        {
          "indexed": false,
          "internalType": "uint256",
          "name": "_value",
          "type": "uint256"
        },
        {
          "indexed": false,
          "internalType": "uint256",
          "name": "_valueProjectToken",
          "type": "uint256"
        },
        {
          "indexed": false,
          "internalType": "uint256",
          "name": "_hodlRewards",
          "type": "uint256"
        }
      ],
      "name": "LTRecharged",
      "type": "event"
    },
    {
      "anonymous": false,
      "inputs": [
        {
          "indexed": true,
          "internalType": "address",
          "name": "previousOwner",
          "type": "address"
        },
        {
          "indexed": true,
          "internalType": "address",
          "name": "newOwner",
          "type": "address"
        }
      ],
      "name": "OwnershipTransferred",
      "type": "event"
    },
    {
      "anonymous": false,
      "inputs": [
        {
          "indexed": false,
          "internalType": "address",
          "name": "_user",
          "type": "address"
        },
        {
          "indexed": false,
          "internalType": "uint256",
          "name": "_value",
          "type": "uint256"
        },
        {
          "indexed": false,
          "internalType": "uint256",
          "name": "_fees",
          "type": "uint256"
        },
        {
          "indexed": false,
          "internalType": "uint256",
          "name": "_hodlRewards",
          "type": "uint256"
        }
      ],
      "name": "ProjectTokenReceived",
      "type": "event"
    },
    {
      "anonymous": false,
      "inputs": [
        {
          "indexed": false,
          "internalType": "uint256",
          "name": "_dateLaunch",
          "type": "uint256"
        },
        {
          "indexed": false,
          "internalType": "uint256",
          "name": "_dateEndCliff",
          "type": "uint256"
        }
      ],
      "name": "StartSet",
      "type": "event"
    },
    {
      "inputs": [],
      "name": "claimFeesPerThousandForPT",
      "outputs": [
        {
          "internalType": "uint256",
          "name": "",
          "type": "uint256"
        }
      ],
      "stateMutability": "view",
      "type": "function"
    },
    {
      "inputs": [],
      "name": "claimProjectToken",
      "outputs": [],
      "stateMutability": "nonpayable",
      "type": "function"
    },
    {
      "inputs": [],
      "name": "dateEndCliff",
      "outputs": [
        {
          "internalType": "uint256",
          "name": "",
          "type": "uint256"
        }
      ],
      "stateMutability": "view",
      "type": "function"
    },
    {
      "inputs": [],
      "name": "dateLaunch",
      "outputs": [
        {
          "internalType": "uint256",
          "name": "",
          "type": "uint256"
        }
      ],
      "stateMutability": "view",
      "type": "function"
    },
    {
      "inputs": [
        {
          "internalType": "uint256",
          "name": "_balance",
          "type": "uint256"
        },
        {
          "internalType": "uint256",
          "name": "_blockTime",
          "type": "uint256"
        },
        {
          "internalType": "uint256",
          "name": "_dateStart",
          "type": "uint256"
        },
        {
          "internalType": "bool",
          "name": "_addInitialUnlock",
          "type": "bool"
        }
      ],
      "name": "getValueProjectTokenPerVestingSchedule",
      "outputs": [
        {
          "internalType": "uint256",
          "name": "_valueProjectToken",
          "type": "uint256"
        }
      ],
      "stateMutability": "view",
      "type": "function"
    },
    {
      "inputs": [],
      "name": "liquidityToken",
      "outputs": [
        {
          "internalType": "contract LiquidityToken",
          "name": "",
          "type": "address"
        }
      ],
      "stateMutability": "view",
      "type": "function"
    },
    {
      "inputs": [],
      "name": "multiplier1K",
      "outputs": [
        {
          "internalType": "uint256",
          "name": "",
          "type": "uint256"
        }
      ],
      "stateMutability": "view",
      "type": "function"
    },
    {
      "inputs": [],
      "name": "owner",
      "outputs": [
        {
          "internalType": "address",
          "name": "",
          "type": "address"
        }
      ],
      "stateMutability": "view",
      "type": "function"
    },
    {
      "inputs": [],
      "name": "projectToken",
      "outputs": [
        {
          "internalType": "contract ProjectToken",
          "name": "",
          "type": "address"
        }
      ],
      "stateMutability": "view",
      "type": "function"
    },
    {
      "inputs": [
        {
          "internalType": "uint256",
          "name": "_valueProjectToken",
          "type": "uint256"
        }
      ],
      "name": "rechargeLT",
      "outputs": [],
      "stateMutability": "nonpayable",
      "type": "function"
    },
    {
      "inputs": [],
      "name": "renounceOwnership",
      "outputs": [],
      "stateMutability": "nonpayable",
      "type": "function"
    },
    {
      "inputs": [
        {
          "internalType": "uint256",
          "name": "_dateLaunch",
          "type": "uint256"
        }
      ],
      "name": "setStart",
      "outputs": [],
      "stateMutability": "nonpayable",
      "type": "function"
    },
    {
      "inputs": [
        {
          "internalType": "address",
          "name": "newOwner",
          "type": "address"
        }
      ],
      "name": "transferOwnership",
      "outputs": [],
      "stateMutability": "nonpayable",
      "type": "function"
    },
    {
      "inputs": [
        {
          "internalType": "uint256",
          "name": "_valuePerThousand",
          "type": "uint256"
        }
      ],
      "name": "updateClaimFeesForPT",
      "outputs": [],
      "stateMutability": "nonpayable",
      "type": "function"
    },
    {
      "inputs": [
        {
          "internalType": "address",
          "name": "",
          "type": "address"
        }
      ],
      "name": "valueProjectTokenToFullRecharge",
      "outputs": [
        {
          "internalType": "uint256",
          "name": "",
          "type": "uint256"
        }
      ],
      "stateMutability": "view",
      "type": "function"
    }
  ],
  "devdoc": {
    "kind": "dev",
    "methods": {
      "owner()": {
        "details": "Returns the address of the current owner."
      },
      "renounceOwnership()": {
        "details": "Leaves the contract without owner. It will not be possible to call `onlyOwner` functions anymore. Can only be called by the current owner. NOTE: Renouncing ownership will leave the contract without an owner, thereby removing any functionality that is only available to the owner."
      },
      "transferOwnership(address)": {
        "details": "Transfers ownership of the contract to a new account (`newOwner`). Can only be called by the current owner."
      }
    },
    "version": 1
  },
  "evm": {
    "assembly": "    /* \"InterfaceProjectToken.sol\":352:7477  contract InterfaceProjectToken is Ownable {... */\n  mstore(0x40, 0x80)\n    /* \"InterfaceProjectToken.sol\":1124:1507  constructor(LiquidityToken _liquidityToken, ProjectToken _projectToken) {... */\n  callvalue\n  dup1\n  iszero\n  tag_1\n  jumpi\n  0x00\n  dup1\n  revert\ntag_1:\n  pop\n  mload(0x40)\n  sub(codesize, bytecodeSize)\n  dup1\n  bytecodeSize\n  dup4\n  codecopy\n  dup2\n  dup2\n  add\n  0x40\n  mstore\n  0x40\n  dup2\n  lt\n  iszero\n  tag_2\n  jumpi\n  0x00\n  dup1\n  revert\ntag_2:\n  dup2\n  add\n  swap1\n  dup1\n  dup1\n  mload\n  swap1\n  0x20\n  add\n  swap1\n  swap3\n  swap2\n  swap1\n  dup1\n  mload\n  swap1\n  0x20\n  add\n  swap1\n  swap3\n  swap2\n  swap1\n  pop\n  pop\n  pop\n    /* \"https://github.com/OpenZeppelin/openzeppelin-contracts/blob/v3.4.2-solc-0.7/contracts/access/Ownable.sol\":867:884   */\n  0x00\n    /* \"https://github.com/OpenZeppelin/openzeppelin-contracts/blob/v3.4.2-solc-0.7/contracts/access/Ownable.sol\":887:899   */\n  tag_6\n    /* \"https://github.com/OpenZeppelin/openzeppelin-contracts/blob/v3.4.2-solc-0.7/contracts/access/Ownable.sol\":887:897   */\n  shl(0x20, tag_7)\n    /* \"https://github.com/OpenZeppelin/openzeppelin-contracts/blob/v3.4.2-solc-0.7/contracts/access/Ownable.sol\":887:899   */\n  0x20\n  shr\n  jump\t// in\ntag_6:\n    /* \"https://github.com/OpenZeppelin/openzeppelin-contracts/blob/v3.4.2-solc-0.7/contracts/access/Ownable.sol\":867:899   */\n  swap1\n  pop\n    /* \"https://github.com/OpenZeppelin/openzeppelin-contracts/blob/v3.4.2-solc-0.7/contracts/access/Ownable.sol\":918:927   */\n  dup1\n    /* \"https://github.com/OpenZeppelin/openzeppelin-contracts/blob/v3.4.2-solc-0.7/contracts/access/Ownable.sol\":909:915   */\n  0x00\n  dup1\n    /* \"https://github.com/OpenZeppelin/openzeppelin-contracts/blob/v3.4.2-solc-0.7/contracts/access/Ownable.sol\":909:927   */\n  0x0100\n  exp\n  dup2\n  sload\n  dup2\n  0xffffffffffffffffffffffffffffffffffffffff\n  mul\n  not\n  and\n  swap1\n  dup4\n  0xffffffffffffffffffffffffffffffffffffffff\n  and\n  mul\n  or\n  swap1\n  sstore\n  pop\n    /* \"https://github.com/OpenZeppelin/openzeppelin-contracts/blob/v3.4.2-solc-0.7/contracts/access/Ownable.sol\":975:984   */\n  dup1\n    /* \"https://github.com/OpenZeppelin/openzeppelin-contracts/blob/v3.4.2-solc-0.7/contracts/access/Ownable.sol\":942:985   */\n  0xffffffffffffffffffffffffffffffffffffffff\n  and\n    /* \"https://github.com/OpenZeppelin/openzeppelin-contracts/blob/v3.4.2-solc-0.7/contracts/access/Ownable.sol\":971:972   */\n  0x00\n    /* \"https://github.com/OpenZeppelin/openzeppelin-contracts/blob/v3.4.2-solc-0.7/contracts/access/Ownable.sol\":942:985   */\n  0xffffffffffffffffffffffffffffffffffffffff\n  and\n  0x8be0079c531659141344cd1fd0a4f28419497f9722a3daafe3b4186f6b6457e0\n  mload(0x40)\n  mload(0x40)\n  dup1\n  swap2\n  sub\n  swap1\n  log3\n    /* \"https://github.com/OpenZeppelin/openzeppelin-contracts/blob/v3.4.2-solc-0.7/contracts/access/Ownable.sol\":842:992   */\n  pop\n    /* \"InterfaceProjectToken.sol\":1253:1256  0x0 */\n  0x00\n    /* \"InterfaceProjectToken.sol\":1217:1257  address(_liquidityToken) != address(0x0) */\n  0xffffffffffffffffffffffffffffffffffffffff\n  and\n    /* \"InterfaceProjectToken.sol\":1225:1240  _liquidityToken */\n  dup3\n    /* \"InterfaceProjectToken.sol\":1217:1257  address(_liquidityToken) != address(0x0) */\n  0xffffffffffffffffffffffffffffffffffffffff\n  and\n  eq\n  iszero\n    /* \"InterfaceProjectToken.sol\":1202:1315  require(... */\n  tag_9\n  jumpi\n  mload(0x40)\n  0x08c379a000000000000000000000000000000000000000000000000000000000\n  dup2\n  mstore\n  0x04\n  add\n  dup1\n  dup1\n  0x20\n  add\n  dup3\n  dup2\n  sub\n  dup3\n  mstore\n  0x2f\n  dup2\n  mstore\n  0x20\n  add\n  dup1\n  data_3ad708f66276b39ad2ce4233357faab27b29020e0e4092e2564e4c119e661a66\n  0x2f\n  swap2\n  codecopy\n  0x40\n  add\n  swap2\n  pop\n  pop\n  mload(0x40)\n  dup1\n  swap2\n  sub\n  swap1\n  revert\ntag_9:\n    /* \"InterfaceProjectToken.sol\":1370:1373  0x0 */\n  0x00\n    /* \"InterfaceProjectToken.sol\":1336:1374  address(_projectToken) != address(0x0) */\n  0xffffffffffffffffffffffffffffffffffffffff\n  and\n    /* \"InterfaceProjectToken.sol\":1344:1357  _projectToken */\n  dup2\n    /* \"InterfaceProjectToken.sol\":1336:1374  address(_projectToken) != address(0x0) */\n  0xffffffffffffffffffffffffffffffffffffffff\n  and\n  eq\n  iszero\n    /* \"InterfaceProjectToken.sol\":1321:1430  require(... */\n  tag_10\n  jumpi\n  mload(0x40)\n  0x08c379a000000000000000000000000000000000000000000000000000000000\n  dup2\n  mstore\n  0x04\n  add\n  dup1\n  dup1\n  0x20\n  add\n  dup3\n  dup2\n  sub\n  dup3\n  mstore\n  0x2d\n  dup2\n  mstore\n  0x20\n  add\n  dup1\n  data_438ad27a17119c6a9f32fc756c31b9136d303ad98ce3393c8001dc27f2cc1c19\n  0x2d\n  swap2\n  codecopy\n  0x40\n  add\n  swap2\n  pop\n  pop\n  mload(0x40)\n  dup1\n  swap2\n  sub\n  swap1\n  revert\ntag_10:\n    /* \"InterfaceProjectToken.sol\":1453:1468  _liquidityToken */\n  dup2\n    /* \"InterfaceProjectToken.sol\":1436:1450  liquidityToken */\n  0x01\n  0x00\n    /* \"InterfaceProjectToken.sol\":1436:1468  liquidityToken = _liquidityToken */\n  0x0100\n  exp\n  dup2\n  sload\n  dup2\n  0xffffffffffffffffffffffffffffffffffffffff\n  mul\n  not\n  and\n  swap1\n  dup4\n  0xffffffffffffffffffffffffffffffffffffffff\n  and\n  mul\n  or\n  swap1\n  sstore\n  pop\n    /* \"InterfaceProjectToken.sol\":1489:1502  _projectToken */\n  dup1\n    /* \"InterfaceProjectToken.sol\":1474:1486  projectToken */\n  0x02\n  0x00\n    /* \"InterfaceProjectToken.sol\":1474:1502  projectToken = _projectToken */\n  0x0100\n  exp\n  dup2\n  sload\n  dup2\n  0xffffffffffffffffffffffffffffffffffffffff\n  mul\n  not\n  and\n  swap1\n  dup4\n  0xffffffffffffffffffffffffffffffffffffffff\n  and\n  mul\n  or\n  swap1\n  sstore\n  pop\n    /* \"InterfaceProjectToken.sol\":1124:1507  constructor(LiquidityToken _liquidityToken, ProjectToken _projectToken) {... */\n  pop\n  pop\n    /* \"InterfaceProjectToken.sol\":352:7477  contract InterfaceProjectToken is Ownable {... */\n  jump(tag_11)\n    /* \"https://github.com/OpenZeppelin/openzeppelin-contracts/blob/v3.4.2-solc-0.7/contracts/utils/Context.sol\":598:702   */\ntag_7:\n    /* \"https://github.com/OpenZeppelin/openzeppelin-contracts/blob/v3.4.2-solc-0.7/contracts/utils/Context.sol\":651:666   */\n  0x00\n    /* \"https://github.com/OpenZeppelin/openzeppelin-contracts/blob/v3.4.2-solc-0.7/contracts/utils/Context.sol\":685:695   */\n  caller\n    /* \"https://github.com/OpenZeppelin/openzeppelin-contracts/blob/v3.4.2-solc-0.7/contracts/utils/Context.sol\":678:695   */\n  swap1\n  pop\n    /* \"https://github.com/OpenZeppelin/openzeppelin-contracts/blob/v3.4.2-solc-0.7/contracts/utils/Context.sol\":598:702   */\n  swap1\n  jump\t// out\n    /* \"InterfaceProjectToken.sol\":352:7477  contract InterfaceProjectToken is Ownable {... */\ntag_11:\n  dataSize(sub_0)\n  dup1\n  dataOffset(sub_0)\n  0x00\n  codecopy\n  0x00\n  return\nstop\ndata_3ad708f66276b39ad2ce4233357faab27b29020e0e4092e2564e4c119e661a66 53657420612076616c6964206164647265737320666f72204c6971756964697479546f6b656e20436f6e7472616374\ndata_438ad27a17119c6a9f32fc756c31b9136d303ad98ce3393c8001dc27f2cc1c19 53657420612076616c6964206164647265737320666f722050726f6a656374546f6b656e20436f6e7472616374\n\nsub_0: assembly {\n        /* \"InterfaceProjectToken.sol\":352:7477  contract InterfaceProjectToken is Ownable {... */\n      mstore(0x40, 0x80)\n      callvalue\n      dup1\n      iszero\n      tag_1\n      jumpi\n      0x00\n      dup1\n      revert\n    tag_1:\n      pop\n      jumpi(tag_2, lt(calldatasize, 0x04))\n      shr(0xe0, calldataload(0x00))\n      dup1\n      0x7e267f39\n      gt\n      tag_18\n      jumpi\n      dup1\n      0xba01ecef\n      gt\n      tag_19\n      jumpi\n      dup1\n      0xba01ecef\n      eq\n      tag_14\n      jumpi\n      dup1\n      0xf2fde38b\n      eq\n      tag_15\n      jumpi\n      dup1\n      0xf6a03ebf\n      eq\n      tag_16\n      jumpi\n      dup1\n      0xfd726827\n      eq\n      tag_17\n      jumpi\n      jump(tag_2)\n    tag_19:\n      dup1\n      0x7e267f39\n      eq\n      tag_10\n      jumpi\n      dup1\n      0x8da5cb5b\n      eq\n      tag_11\n      jumpi\n      dup1\n      0x95544746\n      eq\n      tag_12\n      jumpi\n      dup1\n      0xa9e18b68\n      eq\n      tag_13\n      jumpi\n      jump(tag_2)\n    tag_18:\n      dup1\n      0x43cd8f7e\n      gt\n      tag_20\n      jumpi\n      dup1\n      0x43cd8f7e\n      eq\n      tag_6\n      jumpi\n      dup1\n      0x4b60ce77\n      eq\n      tag_7\n      jumpi\n      dup1\n      0x618c6cd1\n      eq\n      tag_8\n      jumpi\n      dup1\n      0x715018a6\n      eq\n      tag_9\n      jumpi\n      jump(tag_2)\n    tag_20:\n      dup1\n      0x13239b8a\n      eq\n      tag_3\n      jumpi\n      dup1\n      0x176f0889\n      eq\n      tag_4\n      jumpi\n      dup1\n      0x365d4708\n      eq\n      tag_5\n      jumpi\n    tag_2:\n      0x00\n      dup1\n      revert\n        /* \"InterfaceProjectToken.sol\":2350:3405  function claimProjectToken() public {... */\n    tag_3:\n      tag_21\n      tag_22\n      jump\t// in\n    tag_21:\n      stop\n        /* \"InterfaceProjectToken.sol\":601:638  uint public claimFeesPerThousandForPT */\n    tag_4:\n      tag_23\n      tag_24\n      jump\t// in\n    tag_23:\n      mload(0x40)\n      dup1\n      dup3\n      dup2\n      mstore\n      0x20\n      add\n      swap2\n      pop\n      pop\n      mload(0x40)\n      dup1\n      swap2\n      sub\n      swap1\n      return\n        /* \"InterfaceProjectToken.sol\":573:597  uint public dateEndCliff */\n    tag_5:\n      tag_25\n      tag_26\n      jump\t// in\n    tag_25:\n      mload(0x40)\n      dup1\n      dup3\n      dup2\n      mstore\n      0x20\n      add\n      swap2\n      pop\n      pop\n      mload(0x40)\n      dup1\n      swap2\n      sub\n      swap1\n      return\n        /* \"InterfaceProjectToken.sol\":426:462  LiquidityToken public liquidityToken */\n    tag_6:\n      tag_27\n      tag_28\n      jump\t// in\n    tag_27:\n      mload(0x40)\n      dup1\n      dup3\n      0xffffffffffffffffffffffffffffffffffffffff\n      and\n      dup2\n      mstore\n      0x20\n      add\n      swap2\n      pop\n      pop\n      mload(0x40)\n      dup1\n      swap2\n      sub\n      swap1\n      return\n        /* \"InterfaceProjectToken.sol\":466:498  ProjectToken public projectToken */\n    tag_7:\n      tag_29\n      tag_30\n      jump\t// in\n    tag_29:\n      mload(0x40)\n      dup1\n      dup3\n      0xffffffffffffffffffffffffffffffffffffffff\n      and\n      dup2\n      mstore\n      0x20\n      add\n      swap2\n      pop\n      pop\n      mload(0x40)\n      dup1\n      swap2\n      sub\n      swap1\n      return\n        /* \"InterfaceProjectToken.sol\":5060:5870  function getValueProjectTokenPerVestingSchedule(uint _balance, uint _blockTime, uint _dateStart, bool _addInitialUnlock)... */\n    tag_8:\n      tag_31\n      0x04\n      dup1\n      calldatasize\n      sub\n      0x80\n      dup2\n      lt\n      iszero\n      tag_32\n      jumpi\n      0x00\n      dup1\n      revert\n    tag_32:\n      dup2\n      add\n      swap1\n      dup1\n      dup1\n      calldataload\n      swap1\n      0x20\n      add\n      swap1\n      swap3\n      swap2\n      swap1\n      dup1\n      calldataload\n      swap1\n      0x20\n      add\n      swap1\n      swap3\n      swap2\n      swap1\n      dup1\n      calldataload\n      swap1\n      0x20\n      add\n      swap1\n      swap3\n      swap2\n      swap1\n      dup1\n      calldataload\n      iszero\n      iszero\n      swap1\n      0x20\n      add\n      swap1\n      swap3\n      swap2\n      swap1\n      pop\n      pop\n      pop\n      tag_33\n      jump\t// in\n    tag_31:\n      mload(0x40)\n      dup1\n      dup3\n      dup2\n      mstore\n      0x20\n      add\n      swap2\n      pop\n      pop\n      mload(0x40)\n      dup1\n      swap2\n      sub\n      swap1\n      return\n        /* \"https://github.com/OpenZeppelin/openzeppelin-contracts/blob/v3.4.2-solc-0.7/contracts/access/Ownable.sol\":1700:1845   */\n    tag_9:\n      tag_34\n      tag_35\n      jump\t// in\n    tag_34:\n      stop\n        /* \"InterfaceProjectToken.sol\":503:543  uint public constant multiplier1K = 1000 */\n    tag_10:\n      tag_36\n      tag_37\n      jump\t// in\n    tag_36:\n      mload(0x40)\n      dup1\n      dup3\n      dup2\n      mstore\n      0x20\n      add\n      swap2\n      pop\n      pop\n      mload(0x40)\n      dup1\n      swap2\n      sub\n      swap1\n      return\n        /* \"https://github.com/OpenZeppelin/openzeppelin-contracts/blob/v3.4.2-solc-0.7/contracts/access/Ownable.sol\":1068:1153   */\n    tag_11:\n      tag_38\n      tag_39\n      jump\t// in\n    tag_38:\n      mload(0x40)\n      dup1\n      dup3\n      0xffffffffffffffffffffffffffffffffffffffff\n      and\n      dup2\n      mstore\n      0x20\n      add\n      swap2\n      pop\n      pop\n      mload(0x40)\n      dup1\n      swap2\n      sub\n      swap1\n      return\n        /* \"InterfaceProjectToken.sol\":5874:7239  function rechargeLT(uint _valueProjectToken) public {... */\n    tag_12:\n      tag_40\n      0x04\n      dup1\n      calldatasize\n      sub\n      0x20\n      dup2\n      lt\n      iszero\n      tag_41\n      jumpi\n      0x00\n      dup1\n      revert\n    tag_41:\n      dup2\n      add\n      swap1\n      dup1\n      dup1\n      calldataload\n      swap1\n      0x20\n      add\n      swap1\n      swap3\n      swap2\n      swap1\n      pop\n      pop\n      pop\n      tag_42\n      jump\t// in\n    tag_40:\n      stop\n        /* \"InterfaceProjectToken.sol\":7243:7474  function updateClaimFeesForPT(uint _valuePerThousand) public onlyOwner() {... */\n    tag_13:\n      tag_43\n      0x04\n      dup1\n      calldatasize\n      sub\n      0x20\n      dup2\n      lt\n      iszero\n      tag_44\n      jumpi\n      0x00\n      dup1\n      revert\n    tag_44:\n      dup2\n      add\n      swap1\n      dup1\n      dup1\n      calldataload\n      swap1\n      0x20\n      add\n      swap1\n      swap3\n      swap2\n      swap1\n      pop\n      pop\n      pop\n      tag_45\n      jump\t// in\n    tag_43:\n      stop\n        /* \"InterfaceProjectToken.sol\":642:706  mapping (address => uint) public valueProjectTokenToFullRecharge */\n    tag_14:\n      tag_46\n      0x04\n      dup1\n      calldatasize\n      sub\n      0x20\n      dup2\n      lt\n      iszero\n      tag_47\n      jumpi\n      0x00\n      dup1\n      revert\n    tag_47:\n      dup2\n      add\n      swap1\n      dup1\n      dup1\n      calldataload\n      0xffffffffffffffffffffffffffffffffffffffff\n      and\n      swap1\n      0x20\n      add\n      swap1\n      swap3\n      swap2\n      swap1\n      pop\n      pop\n      pop\n      tag_48\n      jump\t// in\n    tag_46:\n      mload(0x40)\n      dup1\n      dup3\n      dup2\n      mstore\n      0x20\n      add\n      swap2\n      pop\n      pop\n      mload(0x40)\n      dup1\n      swap2\n      sub\n      swap1\n      return\n        /* \"https://github.com/OpenZeppelin/openzeppelin-contracts/blob/v3.4.2-solc-0.7/contracts/access/Ownable.sol\":1994:2234   */\n    tag_15:\n      tag_49\n      0x04\n      dup1\n      calldatasize\n      sub\n      0x20\n      dup2\n      lt\n      iszero\n      tag_50\n      jumpi\n      0x00\n      dup1\n      revert\n    tag_50:\n      dup2\n      add\n      swap1\n      dup1\n      dup1\n      calldataload\n      0xffffffffffffffffffffffffffffffffffffffff\n      and\n      swap1\n      0x20\n      add\n      swap1\n      swap3\n      swap2\n      swap1\n      pop\n      pop\n      pop\n      tag_51\n      jump\t// in\n    tag_49:\n      stop\n        /* \"InterfaceProjectToken.sol\":1716:2264  function setStart(uint _dateLaunch) public onlyOwner() {... */\n    tag_16:\n      tag_52\n      0x04\n      dup1\n      calldatasize\n      sub\n      0x20\n      dup2\n      lt\n      iszero\n      tag_53\n      jumpi\n      0x00\n      dup1\n      revert\n    tag_53:\n      dup2\n      add\n      swap1\n      dup1\n      dup1\n      calldataload\n      swap1\n      0x20\n      add\n      swap1\n      swap3\n      swap2\n      swap1\n      pop\n      pop\n      pop\n      tag_54\n      jump\t// in\n    tag_52:\n      stop\n        /* \"InterfaceProjectToken.sol\":547:569  uint public dateLaunch */\n    tag_17:\n      tag_55\n      tag_56\n      jump\t// in\n    tag_55:\n      mload(0x40)\n      dup1\n      dup3\n      dup2\n      mstore\n      0x20\n      add\n      swap2\n      pop\n      pop\n      mload(0x40)\n      dup1\n      swap2\n      sub\n      swap1\n      return\n        /* \"InterfaceProjectToken.sol\":2350:3405  function claimProjectToken() public {... */\n    tag_22:\n        /* \"InterfaceProjectToken.sol\":2393:2428  ensureUserFunctionsAreNotDisabled() */\n      tag_58\n        /* \"InterfaceProjectToken.sol\":2393:2426  ensureUserFunctionsAreNotDisabled */\n      tag_59\n        /* \"InterfaceProjectToken.sol\":2393:2428  ensureUserFunctionsAreNotDisabled() */\n      jump\t// in\n    tag_58:\n        /* \"InterfaceProjectToken.sol\":2435:2450  uint _blockTime */\n      0x00\n        /* \"InterfaceProjectToken.sol\":2453:2468  block.timestamp */\n      timestamp\n        /* \"InterfaceProjectToken.sol\":2435:2468  uint _blockTime = block.timestamp */\n      swap1\n      pop\n        /* \"InterfaceProjectToken.sol\":2474:2490  uint _dateLaunch */\n      0x00\n        /* \"InterfaceProjectToken.sol\":2493:2503  dateLaunch */\n      sload(0x03)\n        /* \"InterfaceProjectToken.sol\":2474:2503  uint _dateLaunch = dateLaunch */\n      swap1\n      pop\n        /* \"InterfaceProjectToken.sol\":2543:2544  0 */\n      0x00\n        /* \"InterfaceProjectToken.sol\":2529:2540  _dateLaunch */\n      dup2\n        /* \"InterfaceProjectToken.sol\":2529:2544  _dateLaunch > 0 */\n      gt\n        /* \"InterfaceProjectToken.sol\":2529:2579  _dateLaunch > 0... */\n      dup1\n      iszero\n      tag_60\n      jumpi\n      pop\n        /* \"InterfaceProjectToken.sol\":2569:2579  _blockTime */\n      dup2\n        /* \"InterfaceProjectToken.sol\":2554:2565  _dateLaunch */\n      dup2\n        /* \"InterfaceProjectToken.sol\":2554:2579  _dateLaunch <= _blockTime */\n      gt\n      iszero\n        /* \"InterfaceProjectToken.sol\":2529:2579  _dateLaunch > 0... */\n    tag_60:\n        /* \"InterfaceProjectToken.sol\":2514:2611  require(... */\n      tag_61\n      jumpi\n      mload(0x40)\n      0x08c379a000000000000000000000000000000000000000000000000000000000\n      dup2\n      mstore\n      0x04\n      add\n      dup1\n      dup1\n      0x20\n      add\n      dup3\n      dup2\n      sub\n      dup3\n      mstore\n      0x15\n      dup2\n      mstore\n      0x20\n      add\n      dup1\n      0x4e6f20746f6b656e20746f20636c61696d207965740000000000000000000000\n      dup2\n      mstore\n      pop\n      0x20\n      add\n      swap2\n      pop\n      pop\n      mload(0x40)\n      dup1\n      swap2\n      sub\n      swap1\n      revert\n    tag_61:\n        /* \"InterfaceProjectToken.sol\":2622:2639  uint _hodlRewards */\n      0x00\n        /* \"InterfaceProjectToken.sol\":2642:2656  liquidityToken */\n      0x01\n      0x00\n      swap1\n      sload\n      swap1\n      0x0100\n      exp\n      swap1\n      div\n      0xffffffffffffffffffffffffffffffffffffffff\n      and\n        /* \"InterfaceProjectToken.sol\":2642:2700  liquidityToken.updateStakingAndGetHodlRewardsByInterfacePT */\n      0xffffffffffffffffffffffffffffffffffffffff\n      and\n      0xefb5c2f3\n        /* \"InterfaceProjectToken.sol\":2701:2711  msg.sender */\n      caller\n        /* \"InterfaceProjectToken.sol\":2642:2712  liquidityToken.updateStakingAndGetHodlRewardsByInterfacePT(msg.sender) */\n      mload(0x40)\n      dup3\n      0xffffffff\n      and\n      0xe0\n      shl\n      dup2\n      mstore\n      0x04\n      add\n      dup1\n      dup3\n      0xffffffffffffffffffffffffffffffffffffffff\n      and\n      dup2\n      mstore\n      0x20\n      add\n      swap2\n      pop\n      pop\n      0x20\n      mload(0x40)\n      dup1\n      dup4\n      sub\n      dup2\n      0x00\n      dup8\n      dup1\n      extcodesize\n      iszero\n      dup1\n      iszero\n      tag_62\n      jumpi\n      0x00\n      dup1\n      revert\n    tag_62:\n      pop\n      gas\n      call\n      iszero\n      dup1\n      iszero\n      tag_64\n      jumpi\n      returndatasize\n      0x00\n      dup1\n      returndatacopy\n      revert(0x00, returndatasize)\n    tag_64:\n      pop\n      pop\n      pop\n      pop\n      mload(0x40)\n      returndatasize\n      0x20\n      dup2\n      lt\n      iszero\n      tag_65\n      jumpi\n      0x00\n      dup1\n      revert\n    tag_65:\n      dup2\n      add\n      swap1\n      dup1\n      dup1\n      mload\n      swap1\n      0x20\n      add\n      swap1\n      swap3\n      swap2\n      swap1\n      pop\n      pop\n      pop\n        /* \"InterfaceProjectToken.sol\":2622:2712  uint _hodlRewards = liquidityToken.updateStakingAndGetHodlRewardsByInterfacePT(msg.sender) */\n      swap1\n      pop\n        /* \"InterfaceProjectToken.sol\":2719:2748  uint _valueProjectTokenVested */\n      0x00\n        /* \"InterfaceProjectToken.sol\":2751:2820  getValueProjectTokenVestedAndUpdateLTBalances(msg.sender, _blockTime) */\n      tag_66\n        /* \"InterfaceProjectToken.sol\":2797:2807  msg.sender */\n      caller\n        /* \"InterfaceProjectToken.sol\":2809:2819  _blockTime */\n      dup6\n        /* \"InterfaceProjectToken.sol\":2751:2796  getValueProjectTokenVestedAndUpdateLTBalances */\n      tag_67\n        /* \"InterfaceProjectToken.sol\":2751:2820  getValueProjectTokenVestedAndUpdateLTBalances(msg.sender, _blockTime) */\n      jump\t// in\n    tag_66:\n        /* \"InterfaceProjectToken.sol\":2719:2820  uint _valueProjectTokenVested = getValueProjectTokenVestedAndUpdateLTBalances(msg.sender, _blockTime) */\n      swap1\n      pop\n        /* \"InterfaceProjectToken.sol\":2826:2836  uint _fees */\n      0x00\n        /* \"InterfaceProjectToken.sol\":2879:2880  0 */\n      dup1\n        /* \"InterfaceProjectToken.sol\":2851:2865  liquidityToken */\n      0x01\n      0x00\n      swap1\n      sload\n      swap1\n      0x0100\n      exp\n      swap1\n      div\n      0xffffffffffffffffffffffffffffffffffffffff\n      and\n        /* \"InterfaceProjectToken.sol\":2851:2874  liquidityToken.stakedLT */\n      0xffffffffffffffffffffffffffffffffffffffff\n      and\n      0xc96877a2\n        /* \"InterfaceProjectToken.sol\":2851:2876  liquidityToken.stakedLT() */\n      mload(0x40)\n      dup2\n      0xffffffff\n      and\n      0xe0\n      shl\n      dup2\n      mstore\n      0x04\n      add\n      0x20\n      mload(0x40)\n      dup1\n      dup4\n      sub\n      dup2\n      dup7\n      dup1\n      extcodesize\n      iszero\n      dup1\n      iszero\n      tag_68\n      jumpi\n      0x00\n      dup1\n      revert\n    tag_68:\n      pop\n      gas\n      staticcall\n      iszero\n      dup1\n      iszero\n      tag_70\n      jumpi\n      returndatasize\n      0x00\n      dup1\n      returndatacopy\n      revert(0x00, returndatasize)\n    tag_70:\n      pop\n      pop\n      pop\n      pop\n      mload(0x40)\n      returndatasize\n      0x20\n      dup2\n      lt\n      iszero\n      tag_71\n      jumpi\n      0x00\n      dup1\n      revert\n    tag_71:\n      dup2\n      add\n      swap1\n      dup1\n      dup1\n      mload\n      swap1\n      0x20\n      add\n      swap1\n      swap3\n      swap2\n      swap1\n      pop\n      pop\n      pop\n        /* \"InterfaceProjectToken.sol\":2851:2880  liquidityToken.stakedLT() > 0 */\n      gt\n        /* \"InterfaceProjectToken.sol\":2847:2963  if (liquidityToken.stakedLT() > 0) _fees = _valueProjectTokenVested.mul(claimFeesPerThousandForPT).div(multiplier1K) */\n      iszero\n      tag_72\n      jumpi\n        /* \"InterfaceProjectToken.sol\":2890:2963  _valueProjectTokenVested.mul(claimFeesPerThousandForPT).div(multiplier1K) */\n      tag_73\n        /* \"InterfaceProjectToken.sol\":539:543  1000 */\n      0x03e8\n        /* \"InterfaceProjectToken.sol\":2890:2945  _valueProjectTokenVested.mul(claimFeesPerThousandForPT) */\n      tag_74\n        /* \"InterfaceProjectToken.sol\":2919:2944  claimFeesPerThousandForPT */\n      sload(0x05)\n        /* \"InterfaceProjectToken.sol\":2890:2914  _valueProjectTokenVested */\n      dup6\n        /* \"InterfaceProjectToken.sol\":2890:2918  _valueProjectTokenVested.mul */\n      tag_75\n      swap1\n        /* \"InterfaceProjectToken.sol\":2890:2945  _valueProjectTokenVested.mul(claimFeesPerThousandForPT) */\n      swap2\n      swap1\n      0xffffffff\n      and\n      jump\t// in\n    tag_74:\n        /* \"InterfaceProjectToken.sol\":2890:2949  _valueProjectTokenVested.mul(claimFeesPerThousandForPT).div */\n      tag_76\n      swap1\n        /* \"InterfaceProjectToken.sol\":2890:2963  _valueProjectTokenVested.mul(claimFeesPerThousandForPT).div(multiplier1K) */\n      swap2\n      swap1\n      0xffffffff\n      and\n      jump\t// in\n    tag_73:\n        /* \"InterfaceProjectToken.sol\":2882:2963  _fees = _valueProjectTokenVested.mul(claimFeesPerThousandForPT).div(multiplier1K) */\n      swap1\n      pop\n        /* \"InterfaceProjectToken.sol\":2847:2963  if (liquidityToken.stakedLT() > 0) _fees = _valueProjectTokenVested.mul(claimFeesPerThousandForPT).div(multiplier1K) */\n    tag_72:\n        /* \"InterfaceProjectToken.sol\":2970:2998  uint _valueProjectTokenToGet */\n      0x00\n        /* \"InterfaceProjectToken.sol\":3001:3054  _valueProjectTokenVested.add(_hodlRewards).sub(_fees) */\n      tag_77\n        /* \"InterfaceProjectToken.sol\":3048:3053  _fees */\n      dup3\n        /* \"InterfaceProjectToken.sol\":3001:3043  _valueProjectTokenVested.add(_hodlRewards) */\n      tag_78\n        /* \"InterfaceProjectToken.sol\":3030:3042  _hodlRewards */\n      dup7\n        /* \"InterfaceProjectToken.sol\":3001:3025  _valueProjectTokenVested */\n      dup7\n        /* \"InterfaceProjectToken.sol\":3001:3029  _valueProjectTokenVested.add */\n      tag_79\n      swap1\n        /* \"InterfaceProjectToken.sol\":3001:3043  _valueProjectTokenVested.add(_hodlRewards) */\n      swap2\n      swap1\n      0xffffffff\n      and\n      jump\t// in\n    tag_78:\n        /* \"InterfaceProjectToken.sol\":3001:3047  _valueProjectTokenVested.add(_hodlRewards).sub */\n      tag_80\n      swap1\n        /* \"InterfaceProjectToken.sol\":3001:3054  _valueProjectTokenVested.add(_hodlRewards).sub(_fees) */\n      swap2\n      swap1\n      0xffffffff\n      and\n      jump\t// in\n    tag_77:\n        /* \"InterfaceProjectToken.sol\":2970:3054  uint _valueProjectTokenToGet = _valueProjectTokenVested.add(_hodlRewards).sub(_fees) */\n      swap1\n      pop\n        /* \"InterfaceProjectToken.sol\":3067:3079  projectToken */\n      0x02\n      0x00\n      swap1\n      sload\n      swap1\n      0x0100\n      exp\n      swap1\n      div\n      0xffffffffffffffffffffffffffffffffffffffff\n      and\n        /* \"InterfaceProjectToken.sol\":3067:3107  projectToken.mintByInterfaceProjectToken */\n      0xffffffffffffffffffffffffffffffffffffffff\n      and\n      0x751cfd5d\n        /* \"InterfaceProjectToken.sol\":3108:3118  msg.sender */\n      caller\n        /* \"InterfaceProjectToken.sol\":3120:3143  _valueProjectTokenToGet */\n      dup4\n        /* \"InterfaceProjectToken.sol\":3067:3144  projectToken.mintByInterfaceProjectToken(msg.sender, _valueProjectTokenToGet) */\n      mload(0x40)\n      dup4\n      0xffffffff\n      and\n      0xe0\n      shl\n      dup2\n      mstore\n      0x04\n      add\n      dup1\n      dup4\n      0xffffffffffffffffffffffffffffffffffffffff\n      and\n      dup2\n      mstore\n      0x20\n      add\n      dup3\n      dup2\n      mstore\n      0x20\n      add\n      swap3\n      pop\n      pop\n      pop\n      0x00\n      mload(0x40)\n      dup1\n      dup4\n      sub\n      dup2\n      0x00\n      dup8\n      dup1\n      extcodesize\n      iszero\n      dup1\n      iszero\n      tag_81\n      jumpi\n      0x00\n      dup1\n      revert\n    tag_81:\n      pop\n      gas\n      call\n      iszero\n      dup1\n      iszero\n      tag_83\n      jumpi\n      returndatasize\n      0x00\n      dup1\n      returndatacopy\n      revert(0x00, returndatasize)\n    tag_83:\n      pop\n      pop\n      pop\n      pop\n        /* \"InterfaceProjectToken.sol\":3150:3164  liquidityToken */\n      0x01\n      0x00\n      swap1\n      sload\n      swap1\n      0x0100\n      exp\n      swap1\n      div\n      0xffffffffffffffffffffffffffffffffffffffff\n      and\n        /* \"InterfaceProjectToken.sol\":3150:3192  liquidityToken.burnByInterfaceProjectToken */\n      0xffffffffffffffffffffffffffffffffffffffff\n      and\n      0x6d69847d\n        /* \"InterfaceProjectToken.sol\":3193:3216  _valueProjectTokenToGet */\n      dup3\n        /* \"InterfaceProjectToken.sol\":3150:3217  liquidityToken.burnByInterfaceProjectToken(_valueProjectTokenToGet) */\n      mload(0x40)\n      dup3\n      0xffffffff\n      and\n      0xe0\n      shl\n      dup2\n      mstore\n      0x04\n      add\n      dup1\n      dup3\n      dup2\n      mstore\n      0x20\n      add\n      swap2\n      pop\n      pop\n      0x00\n      mload(0x40)\n      dup1\n      dup4\n      sub\n      dup2\n      0x00\n      dup8\n      dup1\n      extcodesize\n      iszero\n      dup1\n      iszero\n      tag_84\n      jumpi\n      0x00\n      dup1\n      revert\n    tag_84:\n      pop\n      gas\n      call\n      iszero\n      dup1\n      iszero\n      tag_86\n      jumpi\n      returndatasize\n      0x00\n      dup1\n      returndatacopy\n      revert(0x00, returndatasize)\n    tag_86:\n      pop\n      pop\n      pop\n      pop\n        /* \"InterfaceProjectToken.sol\":3241:3242  0 */\n      0x00\n        /* \"InterfaceProjectToken.sol\":3233:3238  _fees */\n      dup3\n        /* \"InterfaceProjectToken.sol\":3233:3242  _fees > 0 */\n      gt\n        /* \"InterfaceProjectToken.sol\":3229:3306  if (_fees > 0) liquidityToken.updateRewardsAfterFeesPaymentByInterface(_fees) */\n      iszero\n      tag_87\n      jumpi\n        /* \"InterfaceProjectToken.sol\":3244:3258  liquidityToken */\n      0x01\n      0x00\n      swap1\n      sload\n      swap1\n      0x0100\n      exp\n      swap1\n      div\n      0xffffffffffffffffffffffffffffffffffffffff\n      and\n        /* \"InterfaceProjectToken.sol\":3244:3299  liquidityToken.updateRewardsAfterFeesPaymentByInterface */\n      0xffffffffffffffffffffffffffffffffffffffff\n      and\n      0xf331a867\n        /* \"InterfaceProjectToken.sol\":3300:3305  _fees */\n      dup4\n        /* \"InterfaceProjectToken.sol\":3244:3306  liquidityToken.updateRewardsAfterFeesPaymentByInterface(_fees) */\n      mload(0x40)\n      dup3\n      0xffffffff\n      and\n      0xe0\n      shl\n      dup2\n      mstore\n      0x04\n      add\n      dup1\n      dup3\n      dup2\n      mstore\n      0x20\n      add\n      swap2\n      pop\n      pop\n      0x00\n      mload(0x40)\n      dup1\n      dup4\n      sub\n      dup2\n      0x00\n      dup8\n      dup1\n      extcodesize\n      iszero\n      dup1\n      iszero\n      tag_88\n      jumpi\n      0x00\n      dup1\n      revert\n    tag_88:\n      pop\n      gas\n      call\n      iszero\n      dup1\n      iszero\n      tag_90\n      jumpi\n      returndatasize\n      0x00\n      dup1\n      returndatacopy\n      revert(0x00, returndatasize)\n    tag_90:\n      pop\n      pop\n      pop\n      pop\n        /* \"InterfaceProjectToken.sol\":3229:3306  if (_fees > 0) liquidityToken.updateRewardsAfterFeesPaymentByInterface(_fees) */\n    tag_87:\n        /* \"InterfaceProjectToken.sol\":3322:3400  ProjectTokenReceived(msg.sender, _valueProjectTokenToGet, _fees, _hodlRewards) */\n      0x5632e016b41e9b0ca62072624c56193ad6dec6c3160bb3a67f52299efb72d51a\n        /* \"InterfaceProjectToken.sol\":3343:3353  msg.sender */\n      caller\n        /* \"InterfaceProjectToken.sol\":3355:3378  _valueProjectTokenToGet */\n      dup3\n        /* \"InterfaceProjectToken.sol\":3380:3385  _fees */\n      dup5\n        /* \"InterfaceProjectToken.sol\":3387:3399  _hodlRewards */\n      dup8\n        /* \"InterfaceProjectToken.sol\":3322:3400  ProjectTokenReceived(msg.sender, _valueProjectTokenToGet, _fees, _hodlRewards) */\n      mload(0x40)\n      dup1\n      dup6\n      0xffffffffffffffffffffffffffffffffffffffff\n      and\n      dup2\n      mstore\n      0x20\n      add\n      dup5\n      dup2\n      mstore\n      0x20\n      add\n      dup4\n      dup2\n      mstore\n      0x20\n      add\n      dup3\n      dup2\n      mstore\n      0x20\n      add\n      swap5\n      pop\n      pop\n      pop\n      pop\n      pop\n      mload(0x40)\n      dup1\n      swap2\n      sub\n      swap1\n      log1\n        /* \"InterfaceProjectToken.sol\":2350:3405  function claimProjectToken() public {... */\n      pop\n      pop\n      pop\n      pop\n      pop\n      pop\n      jump\t// out\n        /* \"InterfaceProjectToken.sol\":601:638  uint public claimFeesPerThousandForPT */\n    tag_24:\n      sload(0x05)\n      dup2\n      jump\t// out\n        /* \"InterfaceProjectToken.sol\":573:597  uint public dateEndCliff */\n    tag_26:\n      sload(0x04)\n      dup2\n      jump\t// out\n        /* \"InterfaceProjectToken.sol\":426:462  LiquidityToken public liquidityToken */\n    tag_28:\n      0x01\n      0x00\n      swap1\n      sload\n      swap1\n      0x0100\n      exp\n      swap1\n      div\n      0xffffffffffffffffffffffffffffffffffffffff\n      and\n      dup2\n      jump\t// out\n        /* \"InterfaceProjectToken.sol\":466:498  ProjectToken public projectToken */\n    tag_30:\n      0x02\n      0x00\n      swap1\n      sload\n      swap1\n      0x0100\n      exp\n      swap1\n      div\n      0xffffffffffffffffffffffffffffffffffffffff\n      and\n      dup2\n      jump\t// out\n        /* \"InterfaceProjectToken.sol\":5060:5870  function getValueProjectTokenPerVestingSchedule(uint _balance, uint _blockTime, uint _dateStart, bool _addInitialUnlock)... */\n    tag_33:\n        /* \"InterfaceProjectToken.sol\":5206:5229  uint _valueProjectToken */\n      0x00\n        /* \"InterfaceProjectToken.sol\":5238:5276  uint _fractionInitialUnlockPerThousand */\n      dup1\n        /* \"InterfaceProjectToken.sol\":5285:5299  liquidityToken */\n      0x01\n      0x00\n      swap1\n      sload\n      swap1\n      0x0100\n      exp\n      swap1\n      div\n      0xffffffffffffffffffffffffffffffffffffffff\n      and\n        /* \"InterfaceProjectToken.sol\":5285:5332  liquidityToken.fractionInitialUnlockPerThousand */\n      0xffffffffffffffffffffffffffffffffffffffff\n      and\n      0x2945ac68\n        /* \"InterfaceProjectToken.sol\":5285:5334  liquidityToken.fractionInitialUnlockPerThousand() */\n      mload(0x40)\n      dup2\n      0xffffffff\n      and\n      0xe0\n      shl\n      dup2\n      mstore\n      0x04\n      add\n      0x20\n      mload(0x40)\n      dup1\n      dup4\n      sub\n      dup2\n      dup7\n      dup1\n      extcodesize\n      iszero\n      dup1\n      iszero\n      tag_92\n      jumpi\n      0x00\n      dup1\n      revert\n    tag_92:\n      pop\n      gas\n      staticcall\n      iszero\n      dup1\n      iszero\n      tag_94\n      jumpi\n      returndatasize\n      0x00\n      dup1\n      returndatacopy\n      revert(0x00, returndatasize)\n    tag_94:\n      pop\n      pop\n      pop\n      pop\n      mload(0x40)\n      returndatasize\n      0x20\n      dup2\n      lt\n      iszero\n      tag_95\n      jumpi\n      0x00\n      dup1\n      revert\n    tag_95:\n      dup2\n      add\n      swap1\n      dup1\n      dup1\n      mload\n      swap1\n      0x20\n      add\n      swap1\n      swap3\n      swap2\n      swap1\n      pop\n      pop\n      pop\n        /* \"InterfaceProjectToken.sol\":5238:5334  uint _fractionInitialUnlockPerThousand =... */\n      swap1\n      pop\n        /* \"InterfaceProjectToken.sol\":5345:5372  uint _durationLinearVesting */\n      0x00\n        /* \"InterfaceProjectToken.sol\":5375:5389  liquidityToken */\n      0x01\n      0x00\n      swap1\n      sload\n      swap1\n      0x0100\n      exp\n      swap1\n      div\n      0xffffffffffffffffffffffffffffffffffffffff\n      and\n        /* \"InterfaceProjectToken.sol\":5375:5411  liquidityToken.durationLinearVesting */\n      0xffffffffffffffffffffffffffffffffffffffff\n      and\n      0xe54dd98a\n        /* \"InterfaceProjectToken.sol\":5375:5413  liquidityToken.durationLinearVesting() */\n      mload(0x40)\n      dup2\n      0xffffffff\n      and\n      0xe0\n      shl\n      dup2\n      mstore\n      0x04\n      add\n      0x20\n      mload(0x40)\n      dup1\n      dup4\n      sub\n      dup2\n      dup7\n      dup1\n      extcodesize\n      iszero\n      dup1\n      iszero\n      tag_96\n      jumpi\n      0x00\n      dup1\n      revert\n    tag_96:\n      pop\n      gas\n      staticcall\n      iszero\n      dup1\n      iszero\n      tag_98\n      jumpi\n      returndatasize\n      0x00\n      dup1\n      returndatacopy\n      revert(0x00, returndatasize)\n    tag_98:\n      pop\n      pop\n      pop\n      pop\n      mload(0x40)\n      returndatasize\n      0x20\n      dup2\n      lt\n      iszero\n      tag_99\n      jumpi\n      0x00\n      dup1\n      revert\n    tag_99:\n      dup2\n      add\n      swap1\n      dup1\n      dup1\n      mload\n      swap1\n      0x20\n      add\n      swap1\n      swap3\n      swap2\n      swap1\n      pop\n      pop\n      pop\n        /* \"InterfaceProjectToken.sol\":5345:5413  uint _durationLinearVesting = liquidityToken.durationLinearVesting() */\n      swap1\n      pop\n        /* \"InterfaceProjectToken.sol\":5424:5441  _addInitialUnlock */\n      dup4\n        /* \"InterfaceProjectToken.sol\":5420:5535  if (_addInitialUnlock)... */\n      iszero\n      tag_100\n      jumpi\n        /* \"InterfaceProjectToken.sol\":5470:5535  _balance.mul(_fractionInitialUnlockPerThousand).div(multiplier1K) */\n      tag_101\n        /* \"InterfaceProjectToken.sol\":539:543  1000 */\n      0x03e8\n        /* \"InterfaceProjectToken.sol\":5470:5517  _balance.mul(_fractionInitialUnlockPerThousand) */\n      tag_102\n        /* \"InterfaceProjectToken.sol\":5483:5516  _fractionInitialUnlockPerThousand */\n      dup5\n        /* \"InterfaceProjectToken.sol\":5470:5478  _balance */\n      dup11\n        /* \"InterfaceProjectToken.sol\":5470:5482  _balance.mul */\n      tag_75\n      swap1\n        /* \"InterfaceProjectToken.sol\":5470:5517  _balance.mul(_fractionInitialUnlockPerThousand) */\n      swap2\n      swap1\n      0xffffffff\n      and\n      jump\t// in\n    tag_102:\n        /* \"InterfaceProjectToken.sol\":5470:5521  _balance.mul(_fractionInitialUnlockPerThousand).div */\n      tag_76\n      swap1\n        /* \"InterfaceProjectToken.sol\":5470:5535  _balance.mul(_fractionInitialUnlockPerThousand).div(multiplier1K) */\n      swap2\n      swap1\n      0xffffffff\n      and\n      jump\t// in\n    tag_101:\n        /* \"InterfaceProjectToken.sol\":5449:5535  _valueProjectToken = _balance.mul(_fractionInitialUnlockPerThousand).div(multiplier1K) */\n      swap3\n      pop\n        /* \"InterfaceProjectToken.sol\":5420:5535  if (_addInitialUnlock)... */\n    tag_100:\n        /* \"InterfaceProjectToken.sol\":5559:5569  _dateStart */\n      dup5\n        /* \"InterfaceProjectToken.sol\":5546:5556  _blockTime */\n      dup7\n        /* \"InterfaceProjectToken.sol\":5546:5569  _blockTime > _dateStart */\n      gt\n        /* \"InterfaceProjectToken.sol\":5546:5599  _blockTime > _dateStart && _durationLinearVesting > 0 */\n      dup1\n      iszero\n      tag_103\n      jumpi\n      pop\n        /* \"InterfaceProjectToken.sol\":5598:5599  0 */\n      0x00\n        /* \"InterfaceProjectToken.sol\":5573:5595  _durationLinearVesting */\n      dup2\n        /* \"InterfaceProjectToken.sol\":5573:5599  _durationLinearVesting > 0 */\n      gt\n        /* \"InterfaceProjectToken.sol\":5546:5599  _blockTime > _dateStart && _durationLinearVesting > 0 */\n    tag_103:\n        /* \"InterfaceProjectToken.sol\":5542:5866  if (_blockTime > _dateStart && _durationLinearVesting > 0) {... */\n      iszero\n      tag_104\n      jumpi\n        /* \"InterfaceProjectToken.sol\":5630:5859  _valueProjectToken... */\n      tag_105\n        /* \"InterfaceProjectToken.sol\":5673:5849  _balance... */\n      tag_106\n        /* \"InterfaceProjectToken.sol\":5808:5848  _durationLinearVesting.mul(multiplier1K) */\n      tag_107\n        /* \"InterfaceProjectToken.sol\":539:543  1000 */\n      0x03e8\n        /* \"InterfaceProjectToken.sol\":5808:5830  _durationLinearVesting */\n      dup5\n        /* \"InterfaceProjectToken.sol\":5808:5834  _durationLinearVesting.mul */\n      tag_75\n      swap1\n        /* \"InterfaceProjectToken.sol\":5808:5848  _durationLinearVesting.mul(multiplier1K) */\n      swap2\n      swap1\n      0xffffffff\n      and\n      jump\t// in\n    tag_107:\n        /* \"InterfaceProjectToken.sol\":5673:5792  _balance... */\n      tag_108\n        /* \"InterfaceProjectToken.sol\":5765:5791  _blockTime.sub(_dateStart) */\n      tag_109\n        /* \"InterfaceProjectToken.sol\":5780:5790  _dateStart */\n      dup10\n        /* \"InterfaceProjectToken.sol\":5765:5775  _blockTime */\n      dup12\n        /* \"InterfaceProjectToken.sol\":5765:5779  _blockTime.sub */\n      tag_80\n      swap1\n        /* \"InterfaceProjectToken.sol\":5765:5791  _blockTime.sub(_dateStart) */\n      swap2\n      swap1\n      0xffffffff\n      and\n      jump\t// in\n    tag_109:\n        /* \"InterfaceProjectToken.sol\":5673:5749  _balance... */\n      tag_110\n        /* \"InterfaceProjectToken.sol\":5697:5748  multiplier1K.sub(_fractionInitialUnlockPerThousand) */\n      tag_111\n        /* \"InterfaceProjectToken.sol\":5714:5747  _fractionInitialUnlockPerThousand */\n      dup9\n        /* \"InterfaceProjectToken.sol\":539:543  1000 */\n      0x03e8\n        /* \"InterfaceProjectToken.sol\":5697:5713  multiplier1K.sub */\n      tag_80\n      swap1\n        /* \"InterfaceProjectToken.sol\":5697:5748  multiplier1K.sub(_fractionInitialUnlockPerThousand) */\n      swap2\n      swap1\n      0xffffffff\n      and\n      jump\t// in\n    tag_111:\n        /* \"InterfaceProjectToken.sol\":5673:5681  _balance */\n      dup14\n        /* \"InterfaceProjectToken.sol\":5673:5696  _balance... */\n      tag_75\n      swap1\n        /* \"InterfaceProjectToken.sol\":5673:5749  _balance... */\n      swap2\n      swap1\n      0xffffffff\n      and\n      jump\t// in\n    tag_110:\n        /* \"InterfaceProjectToken.sol\":5673:5764  _balance... */\n      tag_75\n      swap1\n        /* \"InterfaceProjectToken.sol\":5673:5792  _balance... */\n      swap2\n      swap1\n      0xffffffff\n      and\n      jump\t// in\n    tag_108:\n        /* \"InterfaceProjectToken.sol\":5673:5807  _balance... */\n      tag_76\n      swap1\n        /* \"InterfaceProjectToken.sol\":5673:5849  _balance... */\n      swap2\n      swap1\n      0xffffffff\n      and\n      jump\t// in\n    tag_106:\n        /* \"InterfaceProjectToken.sol\":5630:5648  _valueProjectToken */\n      dup5\n        /* \"InterfaceProjectToken.sol\":5630:5661  _valueProjectToken... */\n      tag_79\n      swap1\n        /* \"InterfaceProjectToken.sol\":5630:5859  _valueProjectToken... */\n      swap2\n      swap1\n      0xffffffff\n      and\n      jump\t// in\n    tag_105:\n        /* \"InterfaceProjectToken.sol\":5609:5859  _valueProjectToken = _valueProjectToken... */\n      swap3\n      pop\n        /* \"InterfaceProjectToken.sol\":5542:5866  if (_blockTime > _dateStart && _durationLinearVesting > 0) {... */\n    tag_104:\n        /* \"InterfaceProjectToken.sol\":5060:5870  function getValueProjectTokenPerVestingSchedule(uint _balance, uint _blockTime, uint _dateStart, bool _addInitialUnlock)... */\n      pop\n      pop\n      swap5\n      swap4\n      pop\n      pop\n      pop\n      pop\n      jump\t// out\n        /* \"https://github.com/OpenZeppelin/openzeppelin-contracts/blob/v3.4.2-solc-0.7/contracts/access/Ownable.sol\":1700:1845   */\n    tag_35:\n        /* \"https://github.com/OpenZeppelin/openzeppelin-contracts/blob/v3.4.2-solc-0.7/contracts/access/Ownable.sol\":1291:1303   */\n      tag_113\n        /* \"https://github.com/OpenZeppelin/openzeppelin-contracts/blob/v3.4.2-solc-0.7/contracts/access/Ownable.sol\":1291:1301   */\n      tag_114\n        /* \"https://github.com/OpenZeppelin/openzeppelin-contracts/blob/v3.4.2-solc-0.7/contracts/access/Ownable.sol\":1291:1303   */\n      jump\t// in\n    tag_113:\n        /* \"https://github.com/OpenZeppelin/openzeppelin-contracts/blob/v3.4.2-solc-0.7/contracts/access/Ownable.sol\":1280:1303   */\n      0xffffffffffffffffffffffffffffffffffffffff\n      and\n        /* \"https://github.com/OpenZeppelin/openzeppelin-contracts/blob/v3.4.2-solc-0.7/contracts/access/Ownable.sol\":1280:1287   */\n      tag_115\n        /* \"https://github.com/OpenZeppelin/openzeppelin-contracts/blob/v3.4.2-solc-0.7/contracts/access/Ownable.sol\":1280:1285   */\n      tag_39\n        /* \"https://github.com/OpenZeppelin/openzeppelin-contracts/blob/v3.4.2-solc-0.7/contracts/access/Ownable.sol\":1280:1287   */\n      jump\t// in\n    tag_115:\n        /* \"https://github.com/OpenZeppelin/openzeppelin-contracts/blob/v3.4.2-solc-0.7/contracts/access/Ownable.sol\":1280:1303   */\n      0xffffffffffffffffffffffffffffffffffffffff\n      and\n      eq\n        /* \"https://github.com/OpenZeppelin/openzeppelin-contracts/blob/v3.4.2-solc-0.7/contracts/access/Ownable.sol\":1272:1340   */\n      tag_116\n      jumpi\n      mload(0x40)\n      0x08c379a000000000000000000000000000000000000000000000000000000000\n      dup2\n      mstore\n      0x04\n      add\n      dup1\n      dup1\n      0x20\n      add\n      dup3\n      dup2\n      sub\n      dup3\n      mstore\n      0x20\n      dup2\n      mstore\n      0x20\n      add\n      dup1\n      0x4f776e61626c653a2063616c6c6572206973206e6f7420746865206f776e6572\n      dup2\n      mstore\n      pop\n      0x20\n      add\n      swap2\n      pop\n      pop\n      mload(0x40)\n      dup1\n      swap2\n      sub\n      swap1\n      revert\n    tag_116:\n        /* \"https://github.com/OpenZeppelin/openzeppelin-contracts/blob/v3.4.2-solc-0.7/contracts/access/Ownable.sol\":1806:1807   */\n      0x00\n        /* \"https://github.com/OpenZeppelin/openzeppelin-contracts/blob/v3.4.2-solc-0.7/contracts/access/Ownable.sol\":1769:1809   */\n      0xffffffffffffffffffffffffffffffffffffffff\n      and\n        /* \"https://github.com/OpenZeppelin/openzeppelin-contracts/blob/v3.4.2-solc-0.7/contracts/access/Ownable.sol\":1790:1796   */\n      0x00\n      dup1\n      sload\n      swap1\n      0x0100\n      exp\n      swap1\n      div\n      0xffffffffffffffffffffffffffffffffffffffff\n      and\n        /* \"https://github.com/OpenZeppelin/openzeppelin-contracts/blob/v3.4.2-solc-0.7/contracts/access/Ownable.sol\":1769:1809   */\n      0xffffffffffffffffffffffffffffffffffffffff\n      and\n      0x8be0079c531659141344cd1fd0a4f28419497f9722a3daafe3b4186f6b6457e0\n      mload(0x40)\n      mload(0x40)\n      dup1\n      swap2\n      sub\n      swap1\n      log3\n        /* \"https://github.com/OpenZeppelin/openzeppelin-contracts/blob/v3.4.2-solc-0.7/contracts/access/Ownable.sol\":1836:1837   */\n      0x00\n        /* \"https://github.com/OpenZeppelin/openzeppelin-contracts/blob/v3.4.2-solc-0.7/contracts/access/Ownable.sol\":1819:1825   */\n      dup1\n      0x00\n        /* \"https://github.com/OpenZeppelin/openzeppelin-contracts/blob/v3.4.2-solc-0.7/contracts/access/Ownable.sol\":1819:1838   */\n      0x0100\n      exp\n      dup2\n      sload\n      dup2\n      0xffffffffffffffffffffffffffffffffffffffff\n      mul\n      not\n      and\n      swap1\n      dup4\n      0xffffffffffffffffffffffffffffffffffffffff\n      and\n      mul\n      or\n      swap1\n      sstore\n      pop\n        /* \"https://github.com/OpenZeppelin/openzeppelin-contracts/blob/v3.4.2-solc-0.7/contracts/access/Ownable.sol\":1700:1845   */\n      jump\t// out\n        /* \"InterfaceProjectToken.sol\":503:543  uint public constant multiplier1K = 1000 */\n    tag_37:\n        /* \"InterfaceProjectToken.sol\":539:543  1000 */\n      0x03e8\n        /* \"InterfaceProjectToken.sol\":503:543  uint public constant multiplier1K = 1000 */\n      dup2\n      jump\t// out\n        /* \"https://github.com/OpenZeppelin/openzeppelin-contracts/blob/v3.4.2-solc-0.7/contracts/access/Ownable.sol\":1068:1153   */\n    tag_39:\n        /* \"https://github.com/OpenZeppelin/openzeppelin-contracts/blob/v3.4.2-solc-0.7/contracts/access/Ownable.sol\":1114:1121   */\n      0x00\n        /* \"https://github.com/OpenZeppelin/openzeppelin-contracts/blob/v3.4.2-solc-0.7/contracts/access/Ownable.sol\":1140:1146   */\n      dup1\n      0x00\n      swap1\n      sload\n      swap1\n      0x0100\n      exp\n      swap1\n      div\n      0xffffffffffffffffffffffffffffffffffffffff\n      and\n        /* \"https://github.com/OpenZeppelin/openzeppelin-contracts/blob/v3.4.2-solc-0.7/contracts/access/Ownable.sol\":1133:1146   */\n      swap1\n      pop\n        /* \"https://github.com/OpenZeppelin/openzeppelin-contracts/blob/v3.4.2-solc-0.7/contracts/access/Ownable.sol\":1068:1153   */\n      swap1\n      jump\t// out\n        /* \"InterfaceProjectToken.sol\":5874:7239  function rechargeLT(uint _valueProjectToken) public {... */\n    tag_42:\n        /* \"InterfaceProjectToken.sol\":5933:5968  ensureUserFunctionsAreNotDisabled() */\n      tag_120\n        /* \"InterfaceProjectToken.sol\":5933:5966  ensureUserFunctionsAreNotDisabled */\n      tag_59\n        /* \"InterfaceProjectToken.sol\":5933:5968  ensureUserFunctionsAreNotDisabled() */\n      jump\t// in\n    tag_120:\n        /* \"InterfaceProjectToken.sol\":6012:6024  projectToken */\n      0x02\n      0x00\n      swap1\n      sload\n      swap1\n      0x0100\n      exp\n      swap1\n      div\n      0xffffffffffffffffffffffffffffffffffffffff\n      and\n        /* \"InterfaceProjectToken.sol\":6012:6034  projectToken.balanceOf */\n      0xffffffffffffffffffffffffffffffffffffffff\n      and\n      0x70a08231\n        /* \"InterfaceProjectToken.sol\":6035:6045  msg.sender */\n      caller\n        /* \"InterfaceProjectToken.sol\":6012:6046  projectToken.balanceOf(msg.sender) */\n      mload(0x40)\n      dup3\n      0xffffffff\n      and\n      0xe0\n      shl\n      dup2\n      mstore\n      0x04\n      add\n      dup1\n      dup3\n      0xffffffffffffffffffffffffffffffffffffffff\n      and\n      dup2\n      mstore\n      0x20\n      add\n      swap2\n      pop\n      pop\n      0x20\n      mload(0x40)\n      dup1\n      dup4\n      sub\n      dup2\n      dup7\n      dup1\n      extcodesize\n      iszero\n      dup1\n      iszero\n      tag_121\n      jumpi\n      0x00\n      dup1\n      revert\n    tag_121:\n      pop\n      gas\n      staticcall\n      iszero\n      dup1\n      iszero\n      tag_123\n      jumpi\n      returndatasize\n      0x00\n      dup1\n      returndatacopy\n      revert(0x00, returndatasize)\n    tag_123:\n      pop\n      pop\n      pop\n      pop\n      mload(0x40)\n      returndatasize\n      0x20\n      dup2\n      lt\n      iszero\n      tag_124\n      jumpi\n      0x00\n      dup1\n      revert\n    tag_124:\n      dup2\n      add\n      swap1\n      dup1\n      dup1\n      mload\n      swap1\n      0x20\n      add\n      swap1\n      swap3\n      swap2\n      swap1\n      pop\n      pop\n      pop\n        /* \"InterfaceProjectToken.sol\":5990:6008  _valueProjectToken */\n      dup2\n        /* \"InterfaceProjectToken.sol\":5990:6046  _valueProjectToken <= projectToken.balanceOf(msg.sender) */\n      gt\n      iszero\n        /* \"InterfaceProjectToken.sol\":5975:6089  require(... */\n      tag_125\n      jumpi\n      mload(0x40)\n      0x08c379a000000000000000000000000000000000000000000000000000000000\n      dup2\n      mstore\n      0x04\n      add\n      dup1\n      dup1\n      0x20\n      add\n      dup3\n      dup2\n      sub\n      dup3\n      mstore\n      0x20\n      dup2\n      mstore\n      0x20\n      add\n      dup1\n      0x416d6f756e74206578636565647320617661696c61626c652062616c616e6365\n      dup2\n      mstore\n      pop\n      0x20\n      add\n      swap2\n      pop\n      pop\n      mload(0x40)\n      dup1\n      swap2\n      sub\n      swap1\n      revert\n    tag_125:\n        /* \"InterfaceProjectToken.sol\":6096:6133  uint _valueProjectTokenToFullRecharge */\n      0x00\n        /* \"InterfaceProjectToken.sol\":6136:6167  valueProjectTokenToFullRecharge */\n      0x06\n        /* \"InterfaceProjectToken.sol\":6136:6179  valueProjectTokenToFullRecharge[msg.sender] */\n      0x00\n        /* \"InterfaceProjectToken.sol\":6168:6178  msg.sender */\n      caller\n        /* \"InterfaceProjectToken.sol\":6136:6179  valueProjectTokenToFullRecharge[msg.sender] */\n      0xffffffffffffffffffffffffffffffffffffffff\n      and\n      0xffffffffffffffffffffffffffffffffffffffff\n      and\n      dup2\n      mstore\n      0x20\n      add\n      swap1\n      dup2\n      mstore\n      0x20\n      add\n      0x00\n      keccak256\n      sload\n        /* \"InterfaceProjectToken.sol\":6096:6179  uint _valueProjectTokenToFullRecharge = valueProjectTokenToFullRecharge[msg.sender] */\n      swap1\n      pop\n        /* \"InterfaceProjectToken.sol\":6223:6255  _valueProjectTokenToFullRecharge */\n      dup1\n        /* \"InterfaceProjectToken.sol\":6201:6219  _valueProjectToken */\n      dup3\n        /* \"InterfaceProjectToken.sol\":6201:6255  _valueProjectToken <= _valueProjectTokenToFullRecharge */\n      gt\n      iszero\n        /* \"InterfaceProjectToken.sol\":6186:6313  require(... */\n      tag_126\n      jumpi\n      mload(0x40)\n      0x08c379a000000000000000000000000000000000000000000000000000000000\n      dup2\n      mstore\n      0x04\n      add\n      dup1\n      dup1\n      0x20\n      add\n      dup3\n      dup2\n      sub\n      dup3\n      mstore\n      0x2f\n      dup2\n      mstore\n      0x20\n      add\n      dup1\n      data_b020066eaffa68ab0351b2bad5360c029cd8fe4b638c919d719365a251cdd481\n      0x2f\n      swap2\n      codecopy\n      0x40\n      add\n      swap2\n      pop\n      pop\n      mload(0x40)\n      dup1\n      swap2\n      sub\n      swap1\n      revert\n    tag_126:\n        /* \"InterfaceProjectToken.sol\":6374:6375  0 */\n      0x00\n        /* \"InterfaceProjectToken.sol\":6339:6371  _valueProjectTokenToFullRecharge */\n      dup2\n        /* \"InterfaceProjectToken.sol\":6339:6375  _valueProjectTokenToFullRecharge > 0 */\n      gt\n        /* \"InterfaceProjectToken.sol\":6324:6417  require(... */\n      tag_127\n      jumpi\n      mload(0x40)\n      0x08c379a000000000000000000000000000000000000000000000000000000000\n      dup2\n      mstore\n      0x04\n      add\n      dup1\n      dup1\n      0x20\n      add\n      dup3\n      dup2\n      sub\n      dup3\n      mstore\n      0x1f\n      dup2\n      mstore\n      0x20\n      add\n      dup1\n      0x546865726520617265206e6f20546f6b656e7320746f20726563686172676500\n      dup2\n      mstore\n      pop\n      0x20\n      add\n      swap2\n      pop\n      pop\n      mload(0x40)\n      dup1\n      swap2\n      sub\n      swap1\n      revert\n    tag_127:\n        /* \"InterfaceProjectToken.sol\":6428:6445  uint _hodlRewards */\n      0x00\n        /* \"InterfaceProjectToken.sol\":6448:6462  liquidityToken */\n      0x01\n      0x00\n      swap1\n      sload\n      swap1\n      0x0100\n      exp\n      swap1\n      div\n      0xffffffffffffffffffffffffffffffffffffffff\n      and\n        /* \"InterfaceProjectToken.sol\":6448:6506  liquidityToken.updateStakingAndGetHodlRewardsByInterfacePT */\n      0xffffffffffffffffffffffffffffffffffffffff\n      and\n      0xefb5c2f3\n        /* \"InterfaceProjectToken.sol\":6507:6517  msg.sender */\n      caller\n        /* \"InterfaceProjectToken.sol\":6448:6518  liquidityToken.updateStakingAndGetHodlRewardsByInterfacePT(msg.sender) */\n      mload(0x40)\n      dup3\n      0xffffffff\n      and\n      0xe0\n      shl\n      dup2\n      mstore\n      0x04\n      add\n      dup1\n      dup3\n      0xffffffffffffffffffffffffffffffffffffffff\n      and\n      dup2\n      mstore\n      0x20\n      add\n      swap2\n      pop\n      pop\n      0x20\n      mload(0x40)\n      dup1\n      dup4\n      sub\n      dup2\n      0x00\n      dup8\n      dup1\n      extcodesize\n      iszero\n      dup1\n      iszero\n      tag_128\n      jumpi\n      0x00\n      dup1\n      revert\n    tag_128:\n      pop\n      gas\n      call\n      iszero\n      dup1\n      iszero\n      tag_130\n      jumpi\n      returndatasize\n      0x00\n      dup1\n      returndatacopy\n      revert(0x00, returndatasize)\n    tag_130:\n      pop\n      pop\n      pop\n      pop\n      mload(0x40)\n      returndatasize\n      0x20\n      dup2\n      lt\n      iszero\n      tag_131\n      jumpi\n      0x00\n      dup1\n      revert\n    tag_131:\n      dup2\n      add\n      swap1\n      dup1\n      dup1\n      mload\n      swap1\n      0x20\n      add\n      swap1\n      swap3\n      swap2\n      swap1\n      pop\n      pop\n      pop\n        /* \"InterfaceProjectToken.sol\":6428:6518  uint _hodlRewards = liquidityToken.updateStakingAndGetHodlRewardsByInterfacePT(msg.sender) */\n      swap1\n      pop\n        /* \"InterfaceProjectToken.sol\":6529:6554  uint _valueLiquidityToken */\n      0x00\n        /* \"InterfaceProjectToken.sol\":6557:6707  _valueProjectToken.mul(... */\n      tag_132\n        /* \"InterfaceProjectToken.sol\":6674:6706  _valueProjectTokenToFullRecharge */\n      dup4\n        /* \"InterfaceProjectToken.sol\":6557:6662  _valueProjectToken.mul(... */\n      tag_133\n        /* \"InterfaceProjectToken.sol\":6587:6601  liquidityToken */\n      0x01\n      0x00\n      swap1\n      sload\n      swap1\n      0x0100\n      exp\n      swap1\n      div\n      0xffffffffffffffffffffffffffffffffffffffff\n      and\n        /* \"InterfaceProjectToken.sol\":6587:6642  liquidityToken.getUserPartiallyChargedBalanceLiquiToken */\n      0xffffffffffffffffffffffffffffffffffffffff\n      and\n      0x9f65ffb0\n        /* \"InterfaceProjectToken.sol\":6643:6653  msg.sender */\n      caller\n        /* \"InterfaceProjectToken.sol\":6587:6654  liquidityToken.getUserPartiallyChargedBalanceLiquiToken(msg.sender) */\n      mload(0x40)\n      dup3\n      0xffffffff\n      and\n      0xe0\n      shl\n      dup2\n      mstore\n      0x04\n      add\n      dup1\n      dup3\n      0xffffffffffffffffffffffffffffffffffffffff\n      and\n      dup2\n      mstore\n      0x20\n      add\n      swap2\n      pop\n      pop\n      0x20\n      mload(0x40)\n      dup1\n      dup4\n      sub\n      dup2\n      dup7\n      dup1\n      extcodesize\n      iszero\n      dup1\n      iszero\n      tag_134\n      jumpi\n      0x00\n      dup1\n      revert\n    tag_134:\n      pop\n      gas\n      staticcall\n      iszero\n      dup1\n      iszero\n      tag_136\n      jumpi\n      returndatasize\n      0x00\n      dup1\n      returndatacopy\n      revert(0x00, returndatasize)\n    tag_136:\n      pop\n      pop\n      pop\n      pop\n      mload(0x40)\n      returndatasize\n      0x20\n      dup2\n      lt\n      iszero\n      tag_137\n      jumpi\n      0x00\n      dup1\n      revert\n    tag_137:\n      dup2\n      add\n      swap1\n      dup1\n      dup1\n      mload\n      swap1\n      0x20\n      add\n      swap1\n      swap3\n      swap2\n      swap1\n      pop\n      pop\n      pop\n        /* \"InterfaceProjectToken.sol\":6557:6575  _valueProjectToken */\n      dup8\n        /* \"InterfaceProjectToken.sol\":6557:6579  _valueProjectToken.mul */\n      tag_75\n      swap1\n        /* \"InterfaceProjectToken.sol\":6557:6662  _valueProjectToken.mul(... */\n      swap2\n      swap1\n      0xffffffff\n      and\n      jump\t// in\n    tag_133:\n        /* \"InterfaceProjectToken.sol\":6557:6673  _valueProjectToken.mul(... */\n      tag_76\n      swap1\n        /* \"InterfaceProjectToken.sol\":6557:6707  _valueProjectToken.mul(... */\n      swap2\n      swap1\n      0xffffffff\n      and\n      jump\t// in\n    tag_132:\n        /* \"InterfaceProjectToken.sol\":6529:6707  uint _valueLiquidityToken = _valueProjectToken.mul(... */\n      swap1\n      pop\n        /* \"InterfaceProjectToken.sol\":6714:6726  projectToken */\n      0x02\n      0x00\n      swap1\n      sload\n      swap1\n      0x0100\n      exp\n      swap1\n      div\n      0xffffffffffffffffffffffffffffffffffffffff\n      and\n        /* \"InterfaceProjectToken.sol\":6714:6754  projectToken.burnByInterfaceProjectToken */\n      0xffffffffffffffffffffffffffffffffffffffff\n      and\n      0x8f676b81\n        /* \"InterfaceProjectToken.sol\":6755:6765  msg.sender */\n      caller\n        /* \"InterfaceProjectToken.sol\":6767:6785  _valueProjectToken */\n      dup7\n        /* \"InterfaceProjectToken.sol\":6714:6786  projectToken.burnByInterfaceProjectToken(msg.sender, _valueProjectToken) */\n      mload(0x40)\n      dup4\n      0xffffffff\n      and\n      0xe0\n      shl\n      dup2\n      mstore\n      0x04\n      add\n      dup1\n      dup4\n      0xffffffffffffffffffffffffffffffffffffffff\n      and\n      dup2\n      mstore\n      0x20\n      add\n      dup3\n      dup2\n      mstore\n      0x20\n      add\n      swap3\n      pop\n      pop\n      pop\n      0x00\n      mload(0x40)\n      dup1\n      dup4\n      sub\n      dup2\n      0x00\n      dup8\n      dup1\n      extcodesize\n      iszero\n      dup1\n      iszero\n      tag_138\n      jumpi\n      0x00\n      dup1\n      revert\n    tag_138:\n      pop\n      gas\n      call\n      iszero\n      dup1\n      iszero\n      tag_140\n      jumpi\n      returndatasize\n      0x00\n      dup1\n      returndatacopy\n      revert(0x00, returndatasize)\n    tag_140:\n      pop\n      pop\n      pop\n      pop\n        /* \"InterfaceProjectToken.sol\":6792:6806  liquidityToken */\n      0x01\n      0x00\n      swap1\n      sload\n      swap1\n      0x0100\n      exp\n      swap1\n      div\n      0xffffffffffffffffffffffffffffffffffffffff\n      and\n        /* \"InterfaceProjectToken.sol\":6792:6834  liquidityToken.mintByInterfaceProjectToken */\n      0xffffffffffffffffffffffffffffffffffffffff\n      and\n      0xda3a5936\n        /* \"InterfaceProjectToken.sol\":6835:6853  _valueProjectToken */\n      dup6\n        /* \"InterfaceProjectToken.sol\":6792:6854  liquidityToken.mintByInterfaceProjectToken(_valueProjectToken) */\n      mload(0x40)\n      dup3\n      0xffffffff\n      and\n      0xe0\n      shl\n      dup2\n      mstore\n      0x04\n      add\n      dup1\n      dup3\n      dup2\n      mstore\n      0x20\n      add\n      swap2\n      pop\n      pop\n      0x00\n      mload(0x40)\n      dup1\n      dup4\n      sub\n      dup2\n      0x00\n      dup8\n      dup1\n      extcodesize\n      iszero\n      dup1\n      iszero\n      tag_141\n      jumpi\n      0x00\n      dup1\n      revert\n    tag_141:\n      pop\n      gas\n      call\n      iszero\n      dup1\n      iszero\n      tag_143\n      jumpi\n      returndatasize\n      0x00\n      dup1\n      returndatacopy\n      revert(0x00, returndatasize)\n    tag_143:\n      pop\n      pop\n      pop\n      pop\n        /* \"InterfaceProjectToken.sol\":6861:6875  liquidityToken */\n      0x01\n      0x00\n      swap1\n      sload\n      swap1\n      0x0100\n      exp\n      swap1\n      div\n      0xffffffffffffffffffffffffffffffffffffffff\n      and\n        /* \"InterfaceProjectToken.sol\":6861:6894  liquidityToken.rechargeUserTokens */\n      0xffffffffffffffffffffffffffffffffffffffff\n      and\n      0x740c3495\n        /* \"InterfaceProjectToken.sol\":6902:6912  msg.sender */\n      caller\n        /* \"InterfaceProjectToken.sol\":6914:6952  _valueLiquidityToken.add(_hodlRewards) */\n      tag_144\n        /* \"InterfaceProjectToken.sol\":6939:6951  _hodlRewards */\n      dup6\n        /* \"InterfaceProjectToken.sol\":6914:6934  _valueLiquidityToken */\n      dup6\n        /* \"InterfaceProjectToken.sol\":6914:6938  _valueLiquidityToken.add */\n      tag_79\n      swap1\n        /* \"InterfaceProjectToken.sol\":6914:6952  _valueLiquidityToken.add(_hodlRewards) */\n      swap2\n      swap1\n      0xffffffff\n      and\n      jump\t// in\n    tag_144:\n        /* \"InterfaceProjectToken.sol\":6954:6974  _valueLiquidityToken */\n      dup5\n        /* \"InterfaceProjectToken.sol\":6976:7012  _valueProjectToken.add(_hodlRewards) */\n      tag_145\n        /* \"InterfaceProjectToken.sol\":6999:7011  _hodlRewards */\n      dup8\n        /* \"InterfaceProjectToken.sol\":6976:6994  _valueProjectToken */\n      dup11\n        /* \"InterfaceProjectToken.sol\":6976:6998  _valueProjectToken.add */\n      tag_79\n      swap1\n        /* \"InterfaceProjectToken.sol\":6976:7012  _valueProjectToken.add(_hodlRewards) */\n      swap2\n      swap1\n      0xffffffff\n      and\n      jump\t// in\n    tag_145:\n        /* \"InterfaceProjectToken.sol\":6861:7020  liquidityToken.rechargeUserTokens(... */\n      mload(0x40)\n      dup6\n      0xffffffff\n      and\n      0xe0\n      shl\n      dup2\n      mstore\n      0x04\n      add\n      dup1\n      dup6\n      0xffffffffffffffffffffffffffffffffffffffff\n      and\n      dup2\n      mstore\n      0x20\n      add\n      dup5\n      dup2\n      mstore\n      0x20\n      add\n      dup4\n      dup2\n      mstore\n      0x20\n      add\n      dup3\n      dup2\n      mstore\n      0x20\n      add\n      swap5\n      pop\n      pop\n      pop\n      pop\n      pop\n      0x00\n      mload(0x40)\n      dup1\n      dup4\n      sub\n      dup2\n      0x00\n      dup8\n      dup1\n      extcodesize\n      iszero\n      dup1\n      iszero\n      tag_146\n      jumpi\n      0x00\n      dup1\n      revert\n    tag_146:\n      pop\n      gas\n      call\n      iszero\n      dup1\n      iszero\n      tag_148\n      jumpi\n      returndatasize\n      0x00\n      dup1\n      returndatacopy\n      revert(0x00, returndatasize)\n    tag_148:\n      pop\n      pop\n      pop\n      pop\n        /* \"InterfaceProjectToken.sol\":7072:7139  valueProjectTokenToFullRecharge[msg.sender].sub(_valueProjectToken) */\n      tag_149\n        /* \"InterfaceProjectToken.sol\":7120:7138  _valueProjectToken */\n      dup5\n        /* \"InterfaceProjectToken.sol\":7072:7103  valueProjectTokenToFullRecharge */\n      0x06\n        /* \"InterfaceProjectToken.sol\":7072:7115  valueProjectTokenToFullRecharge[msg.sender] */\n      0x00\n        /* \"InterfaceProjectToken.sol\":7104:7114  msg.sender */\n      caller\n        /* \"InterfaceProjectToken.sol\":7072:7115  valueProjectTokenToFullRecharge[msg.sender] */\n      0xffffffffffffffffffffffffffffffffffffffff\n      and\n      0xffffffffffffffffffffffffffffffffffffffff\n      and\n      dup2\n      mstore\n      0x20\n      add\n      swap1\n      dup2\n      mstore\n      0x20\n      add\n      0x00\n      keccak256\n      sload\n        /* \"InterfaceProjectToken.sol\":7072:7119  valueProjectTokenToFullRecharge[msg.sender].sub */\n      tag_80\n      swap1\n        /* \"InterfaceProjectToken.sol\":7072:7139  valueProjectTokenToFullRecharge[msg.sender].sub(_valueProjectToken) */\n      swap2\n      swap1\n      0xffffffff\n      and\n      jump\t// in\n    tag_149:\n        /* \"InterfaceProjectToken.sol\":7026:7057  valueProjectTokenToFullRecharge */\n      0x06\n        /* \"InterfaceProjectToken.sol\":7026:7069  valueProjectTokenToFullRecharge[msg.sender] */\n      0x00\n        /* \"InterfaceProjectToken.sol\":7058:7068  msg.sender */\n      caller\n        /* \"InterfaceProjectToken.sol\":7026:7069  valueProjectTokenToFullRecharge[msg.sender] */\n      0xffffffffffffffffffffffffffffffffffffffff\n      and\n      0xffffffffffffffffffffffffffffffffffffffff\n      and\n      dup2\n      mstore\n      0x20\n      add\n      swap1\n      dup2\n      mstore\n      0x20\n      add\n      0x00\n      keccak256\n        /* \"InterfaceProjectToken.sol\":7026:7139  valueProjectTokenToFullRecharge[msg.sender] = valueProjectTokenToFullRecharge[msg.sender].sub(_valueProjectToken) */\n      dup2\n      swap1\n      sstore\n      pop\n        /* \"InterfaceProjectToken.sol\":7155:7234  LTRecharged(msg.sender, _valueLiquidityToken, _valueProjectToken, _hodlRewards) */\n      0xe1cc0aa27606726a365e40c503310731e7b9e139e1deb0fb16433c0b92cd161d\n        /* \"InterfaceProjectToken.sol\":7167:7177  msg.sender */\n      caller\n        /* \"InterfaceProjectToken.sol\":7179:7199  _valueLiquidityToken */\n      dup3\n        /* \"InterfaceProjectToken.sol\":7201:7219  _valueProjectToken */\n      dup7\n        /* \"InterfaceProjectToken.sol\":7221:7233  _hodlRewards */\n      dup6\n        /* \"InterfaceProjectToken.sol\":7155:7234  LTRecharged(msg.sender, _valueLiquidityToken, _valueProjectToken, _hodlRewards) */\n      mload(0x40)\n      dup1\n      dup6\n      0xffffffffffffffffffffffffffffffffffffffff\n      and\n      dup2\n      mstore\n      0x20\n      add\n      dup5\n      dup2\n      mstore\n      0x20\n      add\n      dup4\n      dup2\n      mstore\n      0x20\n      add\n      dup3\n      dup2\n      mstore\n      0x20\n      add\n      swap5\n      pop\n      pop\n      pop\n      pop\n      pop\n      mload(0x40)\n      dup1\n      swap2\n      sub\n      swap1\n      log1\n        /* \"InterfaceProjectToken.sol\":5874:7239  function rechargeLT(uint _valueProjectToken) public {... */\n      pop\n      pop\n      pop\n      pop\n      jump\t// out\n        /* \"InterfaceProjectToken.sol\":7243:7474  function updateClaimFeesForPT(uint _valuePerThousand) public onlyOwner() {... */\n    tag_45:\n        /* \"https://github.com/OpenZeppelin/openzeppelin-contracts/blob/v3.4.2-solc-0.7/contracts/access/Ownable.sol\":1291:1303   */\n      tag_151\n        /* \"https://github.com/OpenZeppelin/openzeppelin-contracts/blob/v3.4.2-solc-0.7/contracts/access/Ownable.sol\":1291:1301   */\n      tag_114\n        /* \"https://github.com/OpenZeppelin/openzeppelin-contracts/blob/v3.4.2-solc-0.7/contracts/access/Ownable.sol\":1291:1303   */\n      jump\t// in\n    tag_151:\n        /* \"https://github.com/OpenZeppelin/openzeppelin-contracts/blob/v3.4.2-solc-0.7/contracts/access/Ownable.sol\":1280:1303   */\n      0xffffffffffffffffffffffffffffffffffffffff\n      and\n        /* \"https://github.com/OpenZeppelin/openzeppelin-contracts/blob/v3.4.2-solc-0.7/contracts/access/Ownable.sol\":1280:1287   */\n      tag_152\n        /* \"https://github.com/OpenZeppelin/openzeppelin-contracts/blob/v3.4.2-solc-0.7/contracts/access/Ownable.sol\":1280:1285   */\n      tag_39\n        /* \"https://github.com/OpenZeppelin/openzeppelin-contracts/blob/v3.4.2-solc-0.7/contracts/access/Ownable.sol\":1280:1287   */\n      jump\t// in\n    tag_152:\n        /* \"https://github.com/OpenZeppelin/openzeppelin-contracts/blob/v3.4.2-solc-0.7/contracts/access/Ownable.sol\":1280:1303   */\n      0xffffffffffffffffffffffffffffffffffffffff\n      and\n      eq\n        /* \"https://github.com/OpenZeppelin/openzeppelin-contracts/blob/v3.4.2-solc-0.7/contracts/access/Ownable.sol\":1272:1340   */\n      tag_153\n      jumpi\n      mload(0x40)\n      0x08c379a000000000000000000000000000000000000000000000000000000000\n      dup2\n      mstore\n      0x04\n      add\n      dup1\n      dup1\n      0x20\n      add\n      dup3\n      dup2\n      sub\n      dup3\n      mstore\n      0x20\n      dup2\n      mstore\n      0x20\n      add\n      dup1\n      0x4f776e61626c653a2063616c6c6572206973206e6f7420746865206f776e6572\n      dup2\n      mstore\n      pop\n      0x20\n      add\n      swap2\n      pop\n      pop\n      mload(0x40)\n      dup1\n      swap2\n      sub\n      swap1\n      revert\n    tag_153:\n        /* \"InterfaceProjectToken.sol\":7351:7365  liquidityToken */\n      0x01\n      0x00\n      swap1\n      sload\n      swap1\n      0x0100\n      exp\n      swap1\n      div\n      0xffffffffffffffffffffffffffffffffffffffff\n      and\n        /* \"InterfaceProjectToken.sol\":7351:7394  liquidityToken.maxClaimFeesPerThousandForPT */\n      0xffffffffffffffffffffffffffffffffffffffff\n      and\n      0x78e104da\n        /* \"InterfaceProjectToken.sol\":7351:7396  liquidityToken.maxClaimFeesPerThousandForPT() */\n      mload(0x40)\n      dup2\n      0xffffffff\n      and\n      0xe0\n      shl\n      dup2\n      mstore\n      0x04\n      add\n      0x20\n      mload(0x40)\n      dup1\n      dup4\n      sub\n      dup2\n      dup7\n      dup1\n      extcodesize\n      iszero\n      dup1\n      iszero\n      tag_155\n      jumpi\n      0x00\n      dup1\n      revert\n    tag_155:\n      pop\n      gas\n      staticcall\n      iszero\n      dup1\n      iszero\n      tag_157\n      jumpi\n      returndatasize\n      0x00\n      dup1\n      returndatacopy\n      revert(0x00, returndatasize)\n    tag_157:\n      pop\n      pop\n      pop\n      pop\n      mload(0x40)\n      returndatasize\n      0x20\n      dup2\n      lt\n      iszero\n      tag_158\n      jumpi\n      0x00\n      dup1\n      revert\n    tag_158:\n      dup2\n      add\n      swap1\n      dup1\n      dup1\n      mload\n      swap1\n      0x20\n      add\n      swap1\n      swap3\n      swap2\n      swap1\n      pop\n      pop\n      pop\n        /* \"InterfaceProjectToken.sol\":7330:7347  _valuePerThousand */\n      dup2\n        /* \"InterfaceProjectToken.sol\":7330:7396  _valuePerThousand <= liquidityToken.maxClaimFeesPerThousandForPT() */\n      gt\n      iszero\n        /* \"InterfaceProjectToken.sol\":7322:7414  require(_valuePerThousand <= liquidityToken.maxClaimFeesPerThousandForPT(), \"Invalid value\") */\n      tag_159\n      jumpi\n      mload(0x40)\n      0x08c379a000000000000000000000000000000000000000000000000000000000\n      dup2\n      mstore\n      0x04\n      add\n      dup1\n      dup1\n      0x20\n      add\n      dup3\n      dup2\n      sub\n      dup3\n      mstore\n      0x0d\n      dup2\n      mstore\n      0x20\n      add\n      dup1\n      0x496e76616c69642076616c756500000000000000000000000000000000000000\n      dup2\n      mstore\n      pop\n      0x20\n      add\n      swap2\n      pop\n      pop\n      mload(0x40)\n      dup1\n      swap2\n      sub\n      swap1\n      revert\n    tag_159:\n        /* \"InterfaceProjectToken.sol\":7448:7465  _valuePerThousand */\n      dup1\n        /* \"InterfaceProjectToken.sol\":7420:7445  claimFeesPerThousandForPT */\n      0x05\n        /* \"InterfaceProjectToken.sol\":7420:7465  claimFeesPerThousandForPT = _valuePerThousand */\n      dup2\n      swap1\n      sstore\n      pop\n        /* \"InterfaceProjectToken.sol\":7243:7474  function updateClaimFeesForPT(uint _valuePerThousand) public onlyOwner() {... */\n      pop\n      jump\t// out\n        /* \"InterfaceProjectToken.sol\":642:706  mapping (address => uint) public valueProjectTokenToFullRecharge */\n    tag_48:\n      mstore(0x20, 0x06)\n      dup1\n      0x00\n      mstore\n      keccak256(0x00, 0x40)\n      0x00\n      swap2\n      pop\n      swap1\n      pop\n      sload\n      dup2\n      jump\t// out\n        /* \"https://github.com/OpenZeppelin/openzeppelin-contracts/blob/v3.4.2-solc-0.7/contracts/access/Ownable.sol\":1994:2234   */\n    tag_51:\n        /* \"https://github.com/OpenZeppelin/openzeppelin-contracts/blob/v3.4.2-solc-0.7/contracts/access/Ownable.sol\":1291:1303   */\n      tag_161\n        /* \"https://github.com/OpenZeppelin/openzeppelin-contracts/blob/v3.4.2-solc-0.7/contracts/access/Ownable.sol\":1291:1301   */\n      tag_114\n        /* \"https://github.com/OpenZeppelin/openzeppelin-contracts/blob/v3.4.2-solc-0.7/contracts/access/Ownable.sol\":1291:1303   */\n      jump\t// in\n    tag_161:\n        /* \"https://github.com/OpenZeppelin/openzeppelin-contracts/blob/v3.4.2-solc-0.7/contracts/access/Ownable.sol\":1280:1303   */\n      0xffffffffffffffffffffffffffffffffffffffff\n      and\n        /* \"https://github.com/OpenZeppelin/openzeppelin-contracts/blob/v3.4.2-solc-0.7/contracts/access/Ownable.sol\":1280:1287   */\n      tag_162\n        /* \"https://github.com/OpenZeppelin/openzeppelin-contracts/blob/v3.4.2-solc-0.7/contracts/access/Ownable.sol\":1280:1285   */\n      tag_39\n        /* \"https://github.com/OpenZeppelin/openzeppelin-contracts/blob/v3.4.2-solc-0.7/contracts/access/Ownable.sol\":1280:1287   */\n      jump\t// in\n    tag_162:\n        /* \"https://github.com/OpenZeppelin/openzeppelin-contracts/blob/v3.4.2-solc-0.7/contracts/access/Ownable.sol\":1280:1303   */\n      0xffffffffffffffffffffffffffffffffffffffff\n      and\n      eq\n        /* \"https://github.com/OpenZeppelin/openzeppelin-contracts/blob/v3.4.2-solc-0.7/contracts/access/Ownable.sol\":1272:1340   */\n      tag_163\n      jumpi\n      mload(0x40)\n      0x08c379a000000000000000000000000000000000000000000000000000000000\n      dup2\n      mstore\n      0x04\n      add\n      dup1\n      dup1\n      0x20\n      add\n      dup3\n      dup2\n      sub\n      dup3\n      mstore\n      0x20\n      dup2\n      mstore\n      0x20\n      add\n      dup1\n      0x4f776e61626c653a2063616c6c6572206973206e6f7420746865206f776e6572\n      dup2\n      mstore\n      pop\n      0x20\n      add\n      swap2\n      pop\n      pop\n      mload(0x40)\n      dup1\n      swap2\n      sub\n      swap1\n      revert\n    tag_163:\n        /* \"https://github.com/OpenZeppelin/openzeppelin-contracts/blob/v3.4.2-solc-0.7/contracts/access/Ownable.sol\":2102:2103   */\n      0x00\n        /* \"https://github.com/OpenZeppelin/openzeppelin-contracts/blob/v3.4.2-solc-0.7/contracts/access/Ownable.sol\":2082:2104   */\n      0xffffffffffffffffffffffffffffffffffffffff\n      and\n        /* \"https://github.com/OpenZeppelin/openzeppelin-contracts/blob/v3.4.2-solc-0.7/contracts/access/Ownable.sol\":2082:2090   */\n      dup2\n        /* \"https://github.com/OpenZeppelin/openzeppelin-contracts/blob/v3.4.2-solc-0.7/contracts/access/Ownable.sol\":2082:2104   */\n      0xffffffffffffffffffffffffffffffffffffffff\n      and\n      eq\n      iszero\n        /* \"https://github.com/OpenZeppelin/openzeppelin-contracts/blob/v3.4.2-solc-0.7/contracts/access/Ownable.sol\":2074:2147   */\n      tag_165\n      jumpi\n      mload(0x40)\n      0x08c379a000000000000000000000000000000000000000000000000000000000\n      dup2\n      mstore\n      0x04\n      add\n      dup1\n      dup1\n      0x20\n      add\n      dup3\n      dup2\n      sub\n      dup3\n      mstore\n      0x26\n      dup2\n      mstore\n      0x20\n      add\n      dup1\n      data_245f15ff17f551913a7a18385165551503906a406f905ac1c2437281a7cd0cfe\n      0x26\n      swap2\n      codecopy\n      0x40\n      add\n      swap2\n      pop\n      pop\n      mload(0x40)\n      dup1\n      swap2\n      sub\n      swap1\n      revert\n    tag_165:\n        /* \"https://github.com/OpenZeppelin/openzeppelin-contracts/blob/v3.4.2-solc-0.7/contracts/access/Ownable.sol\":2191:2199   */\n      dup1\n        /* \"https://github.com/OpenZeppelin/openzeppelin-contracts/blob/v3.4.2-solc-0.7/contracts/access/Ownable.sol\":2162:2200   */\n      0xffffffffffffffffffffffffffffffffffffffff\n      and\n        /* \"https://github.com/OpenZeppelin/openzeppelin-contracts/blob/v3.4.2-solc-0.7/contracts/access/Ownable.sol\":2183:2189   */\n      0x00\n      dup1\n      sload\n      swap1\n      0x0100\n      exp\n      swap1\n      div\n      0xffffffffffffffffffffffffffffffffffffffff\n      and\n        /* \"https://github.com/OpenZeppelin/openzeppelin-contracts/blob/v3.4.2-solc-0.7/contracts/access/Ownable.sol\":2162:2200   */\n      0xffffffffffffffffffffffffffffffffffffffff\n      and\n      0x8be0079c531659141344cd1fd0a4f28419497f9722a3daafe3b4186f6b6457e0\n      mload(0x40)\n      mload(0x40)\n      dup1\n      swap2\n      sub\n      swap1\n      log3\n        /* \"https://github.com/OpenZeppelin/openzeppelin-contracts/blob/v3.4.2-solc-0.7/contracts/access/Ownable.sol\":2219:2227   */\n      dup1\n        /* \"https://github.com/OpenZeppelin/openzeppelin-contracts/blob/v3.4.2-solc-0.7/contracts/access/Ownable.sol\":2210:2216   */\n      0x00\n      dup1\n        /* \"https://github.com/OpenZeppelin/openzeppelin-contracts/blob/v3.4.2-solc-0.7/contracts/access/Ownable.sol\":2210:2227   */\n      0x0100\n      exp\n      dup2\n      sload\n      dup2\n      0xffffffffffffffffffffffffffffffffffffffff\n      mul\n      not\n      and\n      swap1\n      dup4\n      0xffffffffffffffffffffffffffffffffffffffff\n      and\n      mul\n      or\n      swap1\n      sstore\n      pop\n        /* \"https://github.com/OpenZeppelin/openzeppelin-contracts/blob/v3.4.2-solc-0.7/contracts/access/Ownable.sol\":1994:2234   */\n      pop\n      jump\t// out\n        /* \"InterfaceProjectToken.sol\":1716:2264  function setStart(uint _dateLaunch) public onlyOwner() {... */\n    tag_54:\n        /* \"https://github.com/OpenZeppelin/openzeppelin-contracts/blob/v3.4.2-solc-0.7/contracts/access/Ownable.sol\":1291:1303   */\n      tag_167\n        /* \"https://github.com/OpenZeppelin/openzeppelin-contracts/blob/v3.4.2-solc-0.7/contracts/access/Ownable.sol\":1291:1301   */\n      tag_114\n        /* \"https://github.com/OpenZeppelin/openzeppelin-contracts/blob/v3.4.2-solc-0.7/contracts/access/Ownable.sol\":1291:1303   */\n      jump\t// in\n    tag_167:\n        /* \"https://github.com/OpenZeppelin/openzeppelin-contracts/blob/v3.4.2-solc-0.7/contracts/access/Ownable.sol\":1280:1303   */\n      0xffffffffffffffffffffffffffffffffffffffff\n      and\n        /* \"https://github.com/OpenZeppelin/openzeppelin-contracts/blob/v3.4.2-solc-0.7/contracts/access/Ownable.sol\":1280:1287   */\n      tag_168\n        /* \"https://github.com/OpenZeppelin/openzeppelin-contracts/blob/v3.4.2-solc-0.7/contracts/access/Ownable.sol\":1280:1285   */\n      tag_39\n        /* \"https://github.com/OpenZeppelin/openzeppelin-contracts/blob/v3.4.2-solc-0.7/contracts/access/Ownable.sol\":1280:1287   */\n      jump\t// in\n    tag_168:\n        /* \"https://github.com/OpenZeppelin/openzeppelin-contracts/blob/v3.4.2-solc-0.7/contracts/access/Ownable.sol\":1280:1303   */\n      0xffffffffffffffffffffffffffffffffffffffff\n      and\n      eq\n        /* \"https://github.com/OpenZeppelin/openzeppelin-contracts/blob/v3.4.2-solc-0.7/contracts/access/Ownable.sol\":1272:1340   */\n      tag_169\n      jumpi\n      mload(0x40)\n      0x08c379a000000000000000000000000000000000000000000000000000000000\n      dup2\n      mstore\n      0x04\n      add\n      dup1\n      dup1\n      0x20\n      add\n      dup3\n      dup2\n      sub\n      dup3\n      mstore\n      0x20\n      dup2\n      mstore\n      0x20\n      add\n      dup1\n      0x4f776e61626c653a2063616c6c6572206973206e6f7420746865206f776e6572\n      dup2\n      mstore\n      pop\n      0x20\n      add\n      swap2\n      pop\n      pop\n      mload(0x40)\n      dup1\n      swap2\n      sub\n      swap1\n      revert\n    tag_169:\n        /* \"InterfaceProjectToken.sol\":1777:1799  uint _dateLaunchStored */\n      0x00\n        /* \"InterfaceProjectToken.sol\":1802:1812  dateLaunch */\n      sload(0x03)\n        /* \"InterfaceProjectToken.sol\":1777:1812  uint _dateLaunchStored = dateLaunch */\n      swap1\n      pop\n        /* \"InterfaceProjectToken.sol\":1847:1848  0 */\n      0x00\n        /* \"InterfaceProjectToken.sol\":1827:1844  _dateLaunchStored */\n      dup2\n        /* \"InterfaceProjectToken.sol\":1827:1848  _dateLaunchStored > 0 */\n      gt\n        /* \"InterfaceProjectToken.sol\":1823:1960  if (_dateLaunchStored > 0) {... */\n      iszero\n      tag_171\n      jumpi\n        /* \"InterfaceProjectToken.sol\":1893:1910  _dateLaunchStored */\n      dup1\n        /* \"InterfaceProjectToken.sol\":1875:1890  block.timestamp */\n      timestamp\n        /* \"InterfaceProjectToken.sol\":1875:1910  block.timestamp < _dateLaunchStored */\n      lt\n        /* \"InterfaceProjectToken.sol\":1858:1953  require(... */\n      tag_172\n      jumpi\n      mload(0x40)\n      0x08c379a000000000000000000000000000000000000000000000000000000000\n      dup2\n      mstore\n      0x04\n      add\n      dup1\n      dup1\n      0x20\n      add\n      dup3\n      dup2\n      sub\n      dup3\n      mstore\n      0x1e\n      dup2\n      mstore\n      0x20\n      add\n      dup1\n      0x4c61756e636820646174652068617320616c7265616479207061737365640000\n      dup2\n      mstore\n      pop\n      0x20\n      add\n      swap2\n      pop\n      pop\n      mload(0x40)\n      dup1\n      swap2\n      sub\n      swap1\n      revert\n    tag_172:\n        /* \"InterfaceProjectToken.sol\":1823:1960  if (_dateLaunchStored > 0) {... */\n    tag_171:\n        /* \"InterfaceProjectToken.sol\":1998:2009  _dateLaunch */\n      dup2\n        /* \"InterfaceProjectToken.sol\":1980:1995  block.timestamp */\n      timestamp\n        /* \"InterfaceProjectToken.sol\":1980:2009  block.timestamp < _dateLaunch */\n      lt\n        /* \"InterfaceProjectToken.sol\":1965:2059  require(... */\n      tag_173\n      jumpi\n      mload(0x40)\n      0x08c379a000000000000000000000000000000000000000000000000000000000\n      dup2\n      mstore\n      0x04\n      add\n      dup1\n      dup1\n      0x20\n      add\n      dup3\n      dup2\n      sub\n      dup3\n      mstore\n      0x27\n      dup2\n      mstore\n      0x20\n      add\n      dup1\n      data_dbac1ebb97302732c33c408b5388c8d8754b68224e78fe965741a199709eacae\n      0x27\n      swap2\n      codecopy\n      0x40\n      add\n      swap2\n      pop\n      pop\n      mload(0x40)\n      dup1\n      swap2\n      sub\n      swap1\n      revert\n    tag_173:\n        /* \"InterfaceProjectToken.sol\":2079:2090  _dateLaunch */\n      dup2\n        /* \"InterfaceProjectToken.sol\":2066:2076  dateLaunch */\n      0x03\n        /* \"InterfaceProjectToken.sol\":2066:2090  dateLaunch = _dateLaunch */\n      dup2\n      swap1\n      sstore\n      pop\n        /* \"InterfaceProjectToken.sol\":2096:2114  uint _dateEndCliff */\n      0x00\n        /* \"InterfaceProjectToken.sol\":2117:2178  _dateLaunch.add(... */\n      tag_174\n        /* \"InterfaceProjectToken.sol\":2140:2154  liquidityToken */\n      0x01\n      0x00\n      swap1\n      sload\n      swap1\n      0x0100\n      exp\n      swap1\n      div\n      0xffffffffffffffffffffffffffffffffffffffff\n      and\n        /* \"InterfaceProjectToken.sol\":2140:2168  liquidityToken.durationCliff */\n      0xffffffffffffffffffffffffffffffffffffffff\n      and\n      0x3f2b437d\n        /* \"InterfaceProjectToken.sol\":2140:2170  liquidityToken.durationCliff() */\n      mload(0x40)\n      dup2\n      0xffffffff\n      and\n      0xe0\n      shl\n      dup2\n      mstore\n      0x04\n      add\n      0x20\n      mload(0x40)\n      dup1\n      dup4\n      sub\n      dup2\n      dup7\n      dup1\n      extcodesize\n      iszero\n      dup1\n      iszero\n      tag_175\n      jumpi\n      0x00\n      dup1\n      revert\n    tag_175:\n      pop\n      gas\n      staticcall\n      iszero\n      dup1\n      iszero\n      tag_177\n      jumpi\n      returndatasize\n      0x00\n      dup1\n      returndatacopy\n      revert(0x00, returndatasize)\n    tag_177:\n      pop\n      pop\n      pop\n      pop\n      mload(0x40)\n      returndatasize\n      0x20\n      dup2\n      lt\n      iszero\n      tag_178\n      jumpi\n      0x00\n      dup1\n      revert\n    tag_178:\n      dup2\n      add\n      swap1\n      dup1\n      dup1\n      mload\n      swap1\n      0x20\n      add\n      swap1\n      swap3\n      swap2\n      swap1\n      pop\n      pop\n      pop\n        /* \"InterfaceProjectToken.sol\":2117:2128  _dateLaunch */\n      dup5\n        /* \"InterfaceProjectToken.sol\":2117:2132  _dateLaunch.add */\n      tag_79\n      swap1\n        /* \"InterfaceProjectToken.sol\":2117:2178  _dateLaunch.add(... */\n      swap2\n      swap1\n      0xffffffff\n      and\n      jump\t// in\n    tag_174:\n        /* \"InterfaceProjectToken.sol\":2096:2178  uint _dateEndCliff = _dateLaunch.add(... */\n      swap1\n      pop\n        /* \"InterfaceProjectToken.sol\":2199:2212  _dateEndCliff */\n      dup1\n        /* \"InterfaceProjectToken.sol\":2184:2196  dateEndCliff */\n      0x04\n        /* \"InterfaceProjectToken.sol\":2184:2212  dateEndCliff = _dateEndCliff */\n      dup2\n      swap1\n      sstore\n      pop\n        /* \"InterfaceProjectToken.sol\":2223:2259  StartSet(_dateLaunch, _dateEndCliff) */\n      0x55d35b4292da305a0db36555001d795d3dfc81bae423612f33afc0869d36fef6\n        /* \"InterfaceProjectToken.sol\":2232:2243  _dateLaunch */\n      dup4\n        /* \"InterfaceProjectToken.sol\":2245:2258  _dateEndCliff */\n      dup3\n        /* \"InterfaceProjectToken.sol\":2223:2259  StartSet(_dateLaunch, _dateEndCliff) */\n      mload(0x40)\n      dup1\n      dup4\n      dup2\n      mstore\n      0x20\n      add\n      dup3\n      dup2\n      mstore\n      0x20\n      add\n      swap3\n      pop\n      pop\n      pop\n      mload(0x40)\n      dup1\n      swap2\n      sub\n      swap1\n      log1\n        /* \"https://github.com/OpenZeppelin/openzeppelin-contracts/blob/v3.4.2-solc-0.7/contracts/access/Ownable.sol\":1350:1351   */\n      pop\n      pop\n        /* \"InterfaceProjectToken.sol\":1716:2264  function setStart(uint _dateLaunch) public onlyOwner() {... */\n      pop\n      jump\t// out\n        /* \"InterfaceProjectToken.sol\":547:569  uint public dateLaunch */\n    tag_56:\n      sload(0x03)\n      dup2\n      jump\t// out\n        /* \"InterfaceProjectToken.sol\":1511:1630  function ensureUserFunctionsAreNotDisabled() private view {... */\n    tag_59:\n        /* \"InterfaceProjectToken.sol\":1575:1589  liquidityToken */\n      0x01\n      0x00\n      swap1\n      sload\n      swap1\n      0x0100\n      exp\n      swap1\n      div\n      0xffffffffffffffffffffffffffffffffffffffff\n      and\n        /* \"InterfaceProjectToken.sol\":1575:1623  liquidityToken.ensureUserFunctionsAreNotDisabled */\n      0xffffffffffffffffffffffffffffffffffffffff\n      and\n      0x1f93abd4\n        /* \"InterfaceProjectToken.sol\":1575:1625  liquidityToken.ensureUserFunctionsAreNotDisabled() */\n      mload(0x40)\n      dup2\n      0xffffffff\n      and\n      0xe0\n      shl\n      dup2\n      mstore\n      0x04\n      add\n      0x00\n      mload(0x40)\n      dup1\n      dup4\n      sub\n      dup2\n      dup7\n      dup1\n      extcodesize\n      iszero\n      dup1\n      iszero\n      tag_180\n      jumpi\n      0x00\n      dup1\n      revert\n    tag_180:\n      pop\n      gas\n      staticcall\n      iszero\n      dup1\n      iszero\n      tag_182\n      jumpi\n      returndatasize\n      0x00\n      dup1\n      returndatacopy\n      revert(0x00, returndatasize)\n    tag_182:\n      pop\n      pop\n      pop\n      pop\n        /* \"InterfaceProjectToken.sol\":1511:1630  function ensureUserFunctionsAreNotDisabled() private view {... */\n      jump\t// out\n        /* \"InterfaceProjectToken.sol\":3409:4949  function getValueProjectTokenVestedAndUpdateLTBalances(address _user, uint _blockTime) ... */\n    tag_67:\n        /* \"InterfaceProjectToken.sol\":3517:3540  uint _valueProjectToken */\n      0x00\n        /* \"InterfaceProjectToken.sol\":3553:3571  uint _dateEndCliff */\n      dup1\n        /* \"InterfaceProjectToken.sol\":3574:3586  dateEndCliff */\n      sload(0x04)\n        /* \"InterfaceProjectToken.sol\":3553:3586  uint _dateEndCliff = dateEndCliff */\n      swap1\n      pop\n        /* \"InterfaceProjectToken.sol\":3593:3618  uint _balanceFullyCharged */\n      0x00\n        /* \"InterfaceProjectToken.sol\":3627:3641  liquidityToken */\n      0x01\n      0x00\n      swap1\n      sload\n      swap1\n      0x0100\n      exp\n      swap1\n      div\n      0xffffffffffffffffffffffffffffffffffffffff\n      and\n        /* \"InterfaceProjectToken.sol\":3627:3678  liquidityToken.getUserFullyChargedBalanceLiquiToken */\n      0xffffffffffffffffffffffffffffffffffffffff\n      and\n      0x7561ea9a\n        /* \"InterfaceProjectToken.sol\":3679:3684  _user */\n      dup7\n        /* \"InterfaceProjectToken.sol\":3627:3685  liquidityToken.getUserFullyChargedBalanceLiquiToken(_user) */\n      mload(0x40)\n      dup3\n      0xffffffff\n      and\n      0xe0\n      shl\n      dup2\n      mstore\n      0x04\n      add\n      dup1\n      dup3\n      0xffffffffffffffffffffffffffffffffffffffff\n      and\n      dup2\n      mstore\n      0x20\n      add\n      swap2\n      pop\n      pop\n      0x20\n      mload(0x40)\n      dup1\n      dup4\n      sub\n      dup2\n      dup7\n      dup1\n      extcodesize\n      iszero\n      dup1\n      iszero\n      tag_184\n      jumpi\n      0x00\n      dup1\n      revert\n    tag_184:\n      pop\n      gas\n      staticcall\n      iszero\n      dup1\n      iszero\n      tag_186\n      jumpi\n      returndatasize\n      0x00\n      dup1\n      returndatacopy\n      revert(0x00, returndatasize)\n    tag_186:\n      pop\n      pop\n      pop\n      pop\n      mload(0x40)\n      returndatasize\n      0x20\n      dup2\n      lt\n      iszero\n      tag_187\n      jumpi\n      0x00\n      dup1\n      revert\n    tag_187:\n      dup2\n      add\n      swap1\n      dup1\n      dup1\n      mload\n      swap1\n      0x20\n      add\n      swap1\n      swap3\n      swap2\n      swap1\n      pop\n      pop\n      pop\n        /* \"InterfaceProjectToken.sol\":3593:3685  uint _balanceFullyCharged =... */\n      swap1\n      pop\n        /* \"InterfaceProjectToken.sol\":3692:3721  uint _balancePartiallyCharged */\n      0x00\n        /* \"InterfaceProjectToken.sol\":3730:3744  liquidityToken */\n      0x01\n      0x00\n      swap1\n      sload\n      swap1\n      0x0100\n      exp\n      swap1\n      div\n      0xffffffffffffffffffffffffffffffffffffffff\n      and\n        /* \"InterfaceProjectToken.sol\":3730:3785  liquidityToken.getUserPartiallyChargedBalanceLiquiToken */\n      0xffffffffffffffffffffffffffffffffffffffff\n      and\n      0x9f65ffb0\n        /* \"InterfaceProjectToken.sol\":3786:3791  _user */\n      dup8\n        /* \"InterfaceProjectToken.sol\":3730:3792  liquidityToken.getUserPartiallyChargedBalanceLiquiToken(_user) */\n      mload(0x40)\n      dup3\n      0xffffffff\n      and\n      0xe0\n      shl\n      dup2\n      mstore\n      0x04\n      add\n      dup1\n      dup3\n      0xffffffffffffffffffffffffffffffffffffffff\n      and\n      dup2\n      mstore\n      0x20\n      add\n      swap2\n      pop\n      pop\n      0x20\n      mload(0x40)\n      dup1\n      dup4\n      sub\n      dup2\n      dup7\n      dup1\n      extcodesize\n      iszero\n      dup1\n      iszero\n      tag_188\n      jumpi\n      0x00\n      dup1\n      revert\n    tag_188:\n      pop\n      gas\n      staticcall\n      iszero\n      dup1\n      iszero\n      tag_190\n      jumpi\n      returndatasize\n      0x00\n      dup1\n      returndatacopy\n      revert(0x00, returndatasize)\n    tag_190:\n      pop\n      pop\n      pop\n      pop\n      mload(0x40)\n      returndatasize\n      0x20\n      dup2\n      lt\n      iszero\n      tag_191\n      jumpi\n      0x00\n      dup1\n      revert\n    tag_191:\n      dup2\n      add\n      swap1\n      dup1\n      dup1\n      mload\n      swap1\n      0x20\n      add\n      swap1\n      swap3\n      swap2\n      swap1\n      pop\n      pop\n      pop\n        /* \"InterfaceProjectToken.sol\":3692:3792  uint _balancePartiallyCharged =... */\n      swap1\n      pop\n        /* \"InterfaceProjectToken.sol\":3799:3819  uint _dateEndVesting */\n      0x00\n        /* \"InterfaceProjectToken.sol\":3828:3885  _dateEndCliff.add(liquidityToken.durationLinearVesting()) */\n      tag_192\n        /* \"InterfaceProjectToken.sol\":3846:3860  liquidityToken */\n      0x01\n      0x00\n      swap1\n      sload\n      swap1\n      0x0100\n      exp\n      swap1\n      div\n      0xffffffffffffffffffffffffffffffffffffffff\n      and\n        /* \"InterfaceProjectToken.sol\":3846:3882  liquidityToken.durationLinearVesting */\n      0xffffffffffffffffffffffffffffffffffffffff\n      and\n      0xe54dd98a\n        /* \"InterfaceProjectToken.sol\":3846:3884  liquidityToken.durationLinearVesting() */\n      mload(0x40)\n      dup2\n      0xffffffff\n      and\n      0xe0\n      shl\n      dup2\n      mstore\n      0x04\n      add\n      0x20\n      mload(0x40)\n      dup1\n      dup4\n      sub\n      dup2\n      dup7\n      dup1\n      extcodesize\n      iszero\n      dup1\n      iszero\n      tag_193\n      jumpi\n      0x00\n      dup1\n      revert\n    tag_193:\n      pop\n      gas\n      staticcall\n      iszero\n      dup1\n      iszero\n      tag_195\n      jumpi\n      returndatasize\n      0x00\n      dup1\n      returndatacopy\n      revert(0x00, returndatasize)\n    tag_195:\n      pop\n      pop\n      pop\n      pop\n      mload(0x40)\n      returndatasize\n      0x20\n      dup2\n      lt\n      iszero\n      tag_196\n      jumpi\n      0x00\n      dup1\n      revert\n    tag_196:\n      dup2\n      add\n      swap1\n      dup1\n      dup1\n      mload\n      swap1\n      0x20\n      add\n      swap1\n      swap3\n      swap2\n      swap1\n      pop\n      pop\n      pop\n        /* \"InterfaceProjectToken.sol\":3828:3841  _dateEndCliff */\n      dup6\n        /* \"InterfaceProjectToken.sol\":3828:3845  _dateEndCliff.add */\n      tag_79\n      swap1\n        /* \"InterfaceProjectToken.sol\":3828:3885  _dateEndCliff.add(liquidityToken.durationLinearVesting()) */\n      swap2\n      swap1\n      0xffffffff\n      and\n      jump\t// in\n    tag_192:\n        /* \"InterfaceProjectToken.sol\":3799:3885  uint _dateEndVesting =... */\n      swap1\n      pop\n        /* \"InterfaceProjectToken.sol\":3892:3929  uint _valueProjectTokenToFullRecharge */\n      0x00\n        /* \"InterfaceProjectToken.sol\":3932:3963  valueProjectTokenToFullRecharge */\n      0x06\n        /* \"InterfaceProjectToken.sol\":3932:3970  valueProjectTokenToFullRecharge[_user] */\n      0x00\n        /* \"InterfaceProjectToken.sol\":3964:3969  _user */\n      dup10\n        /* \"InterfaceProjectToken.sol\":3932:3970  valueProjectTokenToFullRecharge[_user] */\n      0xffffffffffffffffffffffffffffffffffffffff\n      and\n      0xffffffffffffffffffffffffffffffffffffffff\n      and\n      dup2\n      mstore\n      0x20\n      add\n      swap1\n      dup2\n      mstore\n      0x20\n      add\n      0x00\n      keccak256\n      sload\n        /* \"InterfaceProjectToken.sol\":3892:3970  uint _valueProjectTokenToFullRecharge = valueProjectTokenToFullRecharge[_user] */\n      swap1\n      pop\n        /* \"InterfaceProjectToken.sol\":3995:4010  _dateEndVesting */\n      dup2\n        /* \"InterfaceProjectToken.sol\":3981:3991  _blockTime */\n      dup8\n        /* \"InterfaceProjectToken.sol\":3981:4010  _blockTime >= _dateEndVesting */\n      lt\n        /* \"InterfaceProjectToken.sol\":3977:4736  if (_blockTime >= _dateEndVesting) ... */\n      tag_197\n      jumpi\n        /* \"InterfaceProjectToken.sol\":4040:4128  _balanceFullyCharged.add(_balancePartiallyCharged).sub(_valueProjectTokenToFullRecharge) */\n      tag_198\n        /* \"InterfaceProjectToken.sol\":4095:4127  _valueProjectTokenToFullRecharge */\n      dup2\n        /* \"InterfaceProjectToken.sol\":4040:4090  _balanceFullyCharged.add(_balancePartiallyCharged) */\n      tag_199\n        /* \"InterfaceProjectToken.sol\":4065:4089  _balancePartiallyCharged */\n      dup6\n        /* \"InterfaceProjectToken.sol\":4040:4060  _balanceFullyCharged */\n      dup8\n        /* \"InterfaceProjectToken.sol\":4040:4064  _balanceFullyCharged.add */\n      tag_79\n      swap1\n        /* \"InterfaceProjectToken.sol\":4040:4090  _balanceFullyCharged.add(_balancePartiallyCharged) */\n      swap2\n      swap1\n      0xffffffff\n      and\n      jump\t// in\n    tag_199:\n        /* \"InterfaceProjectToken.sol\":4040:4094  _balanceFullyCharged.add(_balancePartiallyCharged).sub */\n      tag_80\n      swap1\n        /* \"InterfaceProjectToken.sol\":4040:4128  _balanceFullyCharged.add(_balancePartiallyCharged).sub(_valueProjectTokenToFullRecharge) */\n      swap2\n      swap1\n      0xffffffff\n      and\n      jump\t// in\n    tag_198:\n        /* \"InterfaceProjectToken.sol\":4019:4128  _valueProjectToken = _balanceFullyCharged.add(_balancePartiallyCharged).sub(_valueProjectTokenToFullRecharge) */\n      swap6\n      pop\n        /* \"InterfaceProjectToken.sol\":3977:4736  if (_blockTime >= _dateEndVesting) ... */\n      jump(tag_200)\n    tag_197:\n        /* \"InterfaceProjectToken.sol\":4184:4185  0 */\n      0x00\n        /* \"InterfaceProjectToken.sol\":4157:4181  _balancePartiallyCharged */\n      dup4\n        /* \"InterfaceProjectToken.sol\":4157:4185  _balancePartiallyCharged > 0 */\n      gt\n        /* \"InterfaceProjectToken.sol\":4153:4511  if (_balancePartiallyCharged > 0) {... */\n      iszero\n      tag_201\n      jumpi\n        /* \"InterfaceProjectToken.sol\":4195:4216  uint _vestingDateUser */\n      0x00\n        /* \"InterfaceProjectToken.sol\":4219:4233  liquidityToken */\n      0x01\n      0x00\n      swap1\n      sload\n      swap1\n      0x0100\n      exp\n      swap1\n      div\n      0xffffffffffffffffffffffffffffffffffffffff\n      and\n        /* \"InterfaceProjectToken.sol\":4219:4268  liquidityToken.getUserDateOfPartiallyChargedToken */\n      0xffffffffffffffffffffffffffffffffffffffff\n      and\n      0x305e2daf\n        /* \"InterfaceProjectToken.sol\":4269:4274  _user */\n      dup11\n        /* \"InterfaceProjectToken.sol\":4219:4275  liquidityToken.getUserDateOfPartiallyChargedToken(_user) */\n      mload(0x40)\n      dup3\n      0xffffffff\n      and\n      0xe0\n      shl\n      dup2\n      mstore\n      0x04\n      add\n      dup1\n      dup3\n      0xffffffffffffffffffffffffffffffffffffffff\n      and\n      dup2\n      mstore\n      0x20\n      add\n      swap2\n      pop\n      pop\n      0x20\n      mload(0x40)\n      dup1\n      dup4\n      sub\n      dup2\n      dup7\n      dup1\n      extcodesize\n      iszero\n      dup1\n      iszero\n      tag_202\n      jumpi\n      0x00\n      dup1\n      revert\n    tag_202:\n      pop\n      gas\n      staticcall\n      iszero\n      dup1\n      iszero\n      tag_204\n      jumpi\n      returndatasize\n      0x00\n      dup1\n      returndatacopy\n      revert(0x00, returndatasize)\n    tag_204:\n      pop\n      pop\n      pop\n      pop\n      mload(0x40)\n      returndatasize\n      0x20\n      dup2\n      lt\n      iszero\n      tag_205\n      jumpi\n      0x00\n      dup1\n      revert\n    tag_205:\n      dup2\n      add\n      swap1\n      dup1\n      dup1\n      mload\n      swap1\n      0x20\n      add\n      swap1\n      swap3\n      swap2\n      swap1\n      pop\n      pop\n      pop\n        /* \"InterfaceProjectToken.sol\":4195:4275  uint _vestingDateUser = liquidityToken.getUserDateOfPartiallyChargedToken(_user) */\n      swap1\n      pop\n        /* \"InterfaceProjectToken.sol\":4307:4320  _dateEndCliff */\n      dup6\n        /* \"InterfaceProjectToken.sol\":4288:4304  _vestingDateUser */\n      dup2\n        /* \"InterfaceProjectToken.sol\":4288:4320  _vestingDateUser < _dateEndCliff */\n      lt\n        /* \"InterfaceProjectToken.sol\":4284:4362  if (_vestingDateUser < _dateEndCliff)... */\n      iszero\n      tag_206\n      jumpi\n        /* \"InterfaceProjectToken.sol\":4349:4362  _dateEndCliff */\n      dup6\n        /* \"InterfaceProjectToken.sol\":4330:4362  _vestingDateUser = _dateEndCliff */\n      swap1\n      pop\n        /* \"InterfaceProjectToken.sol\":4284:4362  if (_vestingDateUser < _dateEndCliff)... */\n    tag_206:\n        /* \"InterfaceProjectToken.sol\":4392:4502  getValueProjectTokenPerVestingSchedule(... */\n      tag_207\n        /* \"InterfaceProjectToken.sol\":4440:4464  _balancePartiallyCharged */\n      dup5\n        /* \"InterfaceProjectToken.sol\":4466:4476  _blockTime */\n      dup10\n        /* \"InterfaceProjectToken.sol\":4478:4494  _vestingDateUser */\n      dup4\n        /* \"InterfaceProjectToken.sol\":4496:4501  false */\n      0x00\n        /* \"InterfaceProjectToken.sol\":4392:4430  getValueProjectTokenPerVestingSchedule */\n      tag_33\n        /* \"InterfaceProjectToken.sol\":4392:4502  getValueProjectTokenPerVestingSchedule(... */\n      jump\t// in\n    tag_207:\n        /* \"InterfaceProjectToken.sol\":4371:4502  _valueProjectToken = getValueProjectTokenPerVestingSchedule(... */\n      swap7\n      pop\n        /* \"InterfaceProjectToken.sol\":4153:4511  if (_balancePartiallyCharged > 0) {... */\n      pop\n    tag_201:\n        /* \"InterfaceProjectToken.sol\":4546:4547  0 */\n      0x00\n        /* \"InterfaceProjectToken.sol\":4523:4543  _balanceFullyCharged */\n      dup5\n        /* \"InterfaceProjectToken.sol\":4523:4547  _balanceFullyCharged > 0 */\n      gt\n        /* \"InterfaceProjectToken.sol\":4519:4729  if (_balanceFullyCharged > 0) ... */\n      iszero\n      tag_208\n      jumpi\n        /* \"InterfaceProjectToken.sol\":4579:4729  _valueProjectToken.add(... */\n      tag_209\n        /* \"InterfaceProjectToken.sol\":4613:4717  getValueProjectTokenPerVestingSchedule(... */\n      tag_210\n        /* \"InterfaceProjectToken.sol\":4663:4683  _balanceFullyCharged */\n      dup6\n        /* \"InterfaceProjectToken.sol\":4685:4695  _blockTime */\n      dup10\n        /* \"InterfaceProjectToken.sol\":4697:4710  _dateEndCliff */\n      dup9\n        /* \"InterfaceProjectToken.sol\":4712:4716  true */\n      0x01\n        /* \"InterfaceProjectToken.sol\":4613:4651  getValueProjectTokenPerVestingSchedule */\n      tag_33\n        /* \"InterfaceProjectToken.sol\":4613:4717  getValueProjectTokenPerVestingSchedule(... */\n      jump\t// in\n    tag_210:\n        /* \"InterfaceProjectToken.sol\":4579:4597  _valueProjectToken */\n      dup8\n        /* \"InterfaceProjectToken.sol\":4579:4601  _valueProjectToken.add */\n      tag_79\n      swap1\n        /* \"InterfaceProjectToken.sol\":4579:4729  _valueProjectToken.add(... */\n      swap2\n      swap1\n      0xffffffff\n      and\n      jump\t// in\n    tag_209:\n        /* \"InterfaceProjectToken.sol\":4558:4729  _valueProjectToken = _valueProjectToken.add(... */\n      swap6\n      pop\n        /* \"InterfaceProjectToken.sol\":4519:4729  if (_balanceFullyCharged > 0) ... */\n    tag_208:\n        /* \"InterfaceProjectToken.sol\":3977:4736  if (_blockTime >= _dateEndVesting) ... */\n    tag_200:\n        /* \"InterfaceProjectToken.sol\":4782:4838  _valueProjectTokenToFullRecharge.add(_valueProjectToken) */\n      tag_211\n        /* \"InterfaceProjectToken.sol\":4819:4837  _valueProjectToken */\n      dup7\n        /* \"InterfaceProjectToken.sol\":4782:4814  _valueProjectTokenToFullRecharge */\n      dup3\n        /* \"InterfaceProjectToken.sol\":4782:4818  _valueProjectTokenToFullRecharge.add */\n      tag_79\n      swap1\n        /* \"InterfaceProjectToken.sol\":4782:4838  _valueProjectTokenToFullRecharge.add(_valueProjectToken) */\n      swap2\n      swap1\n      0xffffffff\n      and\n      jump\t// in\n    tag_211:\n        /* \"InterfaceProjectToken.sol\":4741:4772  valueProjectTokenToFullRecharge */\n      0x06\n        /* \"InterfaceProjectToken.sol\":4741:4779  valueProjectTokenToFullRecharge[_user] */\n      0x00\n        /* \"InterfaceProjectToken.sol\":4773:4778  _user */\n      dup11\n        /* \"InterfaceProjectToken.sol\":4741:4779  valueProjectTokenToFullRecharge[_user] */\n      0xffffffffffffffffffffffffffffffffffffffff\n      and\n      0xffffffffffffffffffffffffffffffffffffffff\n      and\n      dup2\n      mstore\n      0x20\n      add\n      swap1\n      dup2\n      mstore\n      0x20\n      add\n      0x00\n      keccak256\n        /* \"InterfaceProjectToken.sol\":4741:4838  valueProjectTokenToFullRecharge[_user] = _valueProjectTokenToFullRecharge.add(_valueProjectToken) */\n      dup2\n      swap1\n      sstore\n      pop\n        /* \"InterfaceProjectToken.sol\":4874:4875  0 */\n      0x00\n        /* \"InterfaceProjectToken.sol\":4853:4871  _valueProjectToken */\n      dup7\n        /* \"InterfaceProjectToken.sol\":4853:4875  _valueProjectToken > 0 */\n      gt\n        /* \"InterfaceProjectToken.sol\":4849:4944  if (_valueProjectToken > 0)... */\n      iszero\n      tag_212\n      jumpi\n        /* \"InterfaceProjectToken.sol\":4883:4897  liquidityToken */\n      0x01\n      0x00\n      swap1\n      sload\n      swap1\n      0x0100\n      exp\n      swap1\n      div\n      0xffffffffffffffffffffffffffffffffffffffff\n      and\n        /* \"InterfaceProjectToken.sol\":4883:4917  liquidityToken.dischargeUserTokens */\n      0xffffffffffffffffffffffffffffffffffffffff\n      and\n      0x82af7d39\n        /* \"InterfaceProjectToken.sol\":4918:4923  _user */\n      dup10\n        /* \"InterfaceProjectToken.sol\":4925:4943  _valueProjectToken */\n      dup9\n        /* \"InterfaceProjectToken.sol\":4883:4944  liquidityToken.dischargeUserTokens(_user, _valueProjectToken) */\n      mload(0x40)\n      dup4\n      0xffffffff\n      and\n      0xe0\n      shl\n      dup2\n      mstore\n      0x04\n      add\n      dup1\n      dup4\n      0xffffffffffffffffffffffffffffffffffffffff\n      and\n      dup2\n      mstore\n      0x20\n      add\n      dup3\n      dup2\n      mstore\n      0x20\n      add\n      swap3\n      pop\n      pop\n      pop\n      0x00\n      mload(0x40)\n      dup1\n      dup4\n      sub\n      dup2\n      0x00\n      dup8\n      dup1\n      extcodesize\n      iszero\n      dup1\n      iszero\n      tag_213\n      jumpi\n      0x00\n      dup1\n      revert\n    tag_213:\n      pop\n      gas\n      call\n      iszero\n      dup1\n      iszero\n      tag_215\n      jumpi\n      returndatasize\n      0x00\n      dup1\n      returndatacopy\n      revert(0x00, returndatasize)\n    tag_215:\n      pop\n      pop\n      pop\n      pop\n        /* \"InterfaceProjectToken.sol\":4849:4944  if (_valueProjectToken > 0)... */\n    tag_212:\n        /* \"InterfaceProjectToken.sol\":3409:4949  function getValueProjectTokenVestedAndUpdateLTBalances(address _user, uint _blockTime) ... */\n      pop\n      pop\n      pop\n      pop\n      pop\n      swap3\n      swap2\n      pop\n      pop\n      jump\t// out\n        /* \"https://github.com/OpenZeppelin/openzeppelin-contracts/blob/v3.4.2-solc-0.7/contracts/math/SafeMath.sol\":3530:3745   */\n    tag_75:\n        /* \"https://github.com/OpenZeppelin/openzeppelin-contracts/blob/v3.4.2-solc-0.7/contracts/math/SafeMath.sol\":3588:3595   */\n      0x00\n        /* \"https://github.com/OpenZeppelin/openzeppelin-contracts/blob/v3.4.2-solc-0.7/contracts/math/SafeMath.sol\":3616:3617   */\n      dup1\n        /* \"https://github.com/OpenZeppelin/openzeppelin-contracts/blob/v3.4.2-solc-0.7/contracts/math/SafeMath.sol\":3611:3612   */\n      dup4\n        /* \"https://github.com/OpenZeppelin/openzeppelin-contracts/blob/v3.4.2-solc-0.7/contracts/math/SafeMath.sol\":3611:3617   */\n      eq\n        /* \"https://github.com/OpenZeppelin/openzeppelin-contracts/blob/v3.4.2-solc-0.7/contracts/math/SafeMath.sol\":3607:3627   */\n      iszero\n      tag_217\n      jumpi\n        /* \"https://github.com/OpenZeppelin/openzeppelin-contracts/blob/v3.4.2-solc-0.7/contracts/math/SafeMath.sol\":3626:3627   */\n      0x00\n        /* \"https://github.com/OpenZeppelin/openzeppelin-contracts/blob/v3.4.2-solc-0.7/contracts/math/SafeMath.sol\":3619:3627   */\n      swap1\n      pop\n      jump(tag_216)\n        /* \"https://github.com/OpenZeppelin/openzeppelin-contracts/blob/v3.4.2-solc-0.7/contracts/math/SafeMath.sol\":3607:3627   */\n    tag_217:\n        /* \"https://github.com/OpenZeppelin/openzeppelin-contracts/blob/v3.4.2-solc-0.7/contracts/math/SafeMath.sol\":3637:3646   */\n      0x00\n        /* \"https://github.com/OpenZeppelin/openzeppelin-contracts/blob/v3.4.2-solc-0.7/contracts/math/SafeMath.sol\":3653:3654   */\n      dup3\n        /* \"https://github.com/OpenZeppelin/openzeppelin-contracts/blob/v3.4.2-solc-0.7/contracts/math/SafeMath.sol\":3649:3650   */\n      dup5\n        /* \"https://github.com/OpenZeppelin/openzeppelin-contracts/blob/v3.4.2-solc-0.7/contracts/math/SafeMath.sol\":3649:3654   */\n      mul\n        /* \"https://github.com/OpenZeppelin/openzeppelin-contracts/blob/v3.4.2-solc-0.7/contracts/math/SafeMath.sol\":3637:3654   */\n      swap1\n      pop\n        /* \"https://github.com/OpenZeppelin/openzeppelin-contracts/blob/v3.4.2-solc-0.7/contracts/math/SafeMath.sol\":3681:3682   */\n      dup3\n        /* \"https://github.com/OpenZeppelin/openzeppelin-contracts/blob/v3.4.2-solc-0.7/contracts/math/SafeMath.sol\":3676:3677   */\n      dup5\n        /* \"https://github.com/OpenZeppelin/openzeppelin-contracts/blob/v3.4.2-solc-0.7/contracts/math/SafeMath.sol\":3672:3673   */\n      dup3\n        /* \"https://github.com/OpenZeppelin/openzeppelin-contracts/blob/v3.4.2-solc-0.7/contracts/math/SafeMath.sol\":3672:3677   */\n      dup2\n      tag_218\n      jumpi\n      invalid\n    tag_218:\n      div\n        /* \"https://github.com/OpenZeppelin/openzeppelin-contracts/blob/v3.4.2-solc-0.7/contracts/math/SafeMath.sol\":3672:3682   */\n      eq\n        /* \"https://github.com/OpenZeppelin/openzeppelin-contracts/blob/v3.4.2-solc-0.7/contracts/math/SafeMath.sol\":3664:3720   */\n      tag_219\n      jumpi\n      mload(0x40)\n      0x08c379a000000000000000000000000000000000000000000000000000000000\n      dup2\n      mstore\n      0x04\n      add\n      dup1\n      dup1\n      0x20\n      add\n      dup3\n      dup2\n      sub\n      dup3\n      mstore\n      0x21\n      dup2\n      mstore\n      0x20\n      add\n      dup1\n      data_9113bb53c2876a3805b2c9242029423fc540a728243ce887ab24c82cf119fba3\n      0x21\n      swap2\n      codecopy\n      0x40\n      add\n      swap2\n      pop\n      pop\n      mload(0x40)\n      dup1\n      swap2\n      sub\n      swap1\n      revert\n    tag_219:\n        /* \"https://github.com/OpenZeppelin/openzeppelin-contracts/blob/v3.4.2-solc-0.7/contracts/math/SafeMath.sol\":3737:3738   */\n      dup1\n        /* \"https://github.com/OpenZeppelin/openzeppelin-contracts/blob/v3.4.2-solc-0.7/contracts/math/SafeMath.sol\":3730:3738   */\n      swap2\n      pop\n      pop\n        /* \"https://github.com/OpenZeppelin/openzeppelin-contracts/blob/v3.4.2-solc-0.7/contracts/math/SafeMath.sol\":3530:3745   */\n    tag_216:\n      swap3\n      swap2\n      pop\n      pop\n      jump\t// out\n        /* \"https://github.com/OpenZeppelin/openzeppelin-contracts/blob/v3.4.2-solc-0.7/contracts/math/SafeMath.sol\":4209:4359   */\n    tag_76:\n        /* \"https://github.com/OpenZeppelin/openzeppelin-contracts/blob/v3.4.2-solc-0.7/contracts/math/SafeMath.sol\":4267:4274   */\n      0x00\n        /* \"https://github.com/OpenZeppelin/openzeppelin-contracts/blob/v3.4.2-solc-0.7/contracts/math/SafeMath.sol\":4298:4299   */\n      dup1\n        /* \"https://github.com/OpenZeppelin/openzeppelin-contracts/blob/v3.4.2-solc-0.7/contracts/math/SafeMath.sol\":4294:4295   */\n      dup3\n        /* \"https://github.com/OpenZeppelin/openzeppelin-contracts/blob/v3.4.2-solc-0.7/contracts/math/SafeMath.sol\":4294:4299   */\n      gt\n        /* \"https://github.com/OpenZeppelin/openzeppelin-contracts/blob/v3.4.2-solc-0.7/contracts/math/SafeMath.sol\":4286:4330   */\n      tag_221\n      jumpi\n      mload(0x40)\n      0x08c379a000000000000000000000000000000000000000000000000000000000\n      dup2\n      mstore\n      0x04\n      add\n      dup1\n      dup1\n      0x20\n      add\n      dup3\n      dup2\n      sub\n      dup3\n      mstore\n      0x1a\n      dup2\n      mstore\n      0x20\n      add\n      dup1\n      0x536166654d6174683a206469766973696f6e206279207a65726f000000000000\n      dup2\n      mstore\n      pop\n      0x20\n      add\n      swap2\n      pop\n      pop\n      mload(0x40)\n      dup1\n      swap2\n      sub\n      swap1\n      revert\n    tag_221:\n        /* \"https://github.com/OpenZeppelin/openzeppelin-contracts/blob/v3.4.2-solc-0.7/contracts/math/SafeMath.sol\":4351:4352   */\n      dup2\n        /* \"https://github.com/OpenZeppelin/openzeppelin-contracts/blob/v3.4.2-solc-0.7/contracts/math/SafeMath.sol\":4347:4348   */\n      dup4\n        /* \"https://github.com/OpenZeppelin/openzeppelin-contracts/blob/v3.4.2-solc-0.7/contracts/math/SafeMath.sol\":4347:4352   */\n      dup2\n      tag_222\n      jumpi\n      invalid\n    tag_222:\n      div\n        /* \"https://github.com/OpenZeppelin/openzeppelin-contracts/blob/v3.4.2-solc-0.7/contracts/math/SafeMath.sol\":4340:4352   */\n      swap1\n      pop\n        /* \"https://github.com/OpenZeppelin/openzeppelin-contracts/blob/v3.4.2-solc-0.7/contracts/math/SafeMath.sol\":4209:4359   */\n      swap3\n      swap2\n      pop\n      pop\n      jump\t// out\n        /* \"https://github.com/OpenZeppelin/openzeppelin-contracts/blob/v3.4.2-solc-0.7/contracts/math/SafeMath.sol\":2682:2857   */\n    tag_79:\n        /* \"https://github.com/OpenZeppelin/openzeppelin-contracts/blob/v3.4.2-solc-0.7/contracts/math/SafeMath.sol\":2740:2747   */\n      0x00\n        /* \"https://github.com/OpenZeppelin/openzeppelin-contracts/blob/v3.4.2-solc-0.7/contracts/math/SafeMath.sol\":2759:2768   */\n      dup1\n        /* \"https://github.com/OpenZeppelin/openzeppelin-contracts/blob/v3.4.2-solc-0.7/contracts/math/SafeMath.sol\":2775:2776   */\n      dup3\n        /* \"https://github.com/OpenZeppelin/openzeppelin-contracts/blob/v3.4.2-solc-0.7/contracts/math/SafeMath.sol\":2771:2772   */\n      dup5\n        /* \"https://github.com/OpenZeppelin/openzeppelin-contracts/blob/v3.4.2-solc-0.7/contracts/math/SafeMath.sol\":2771:2776   */\n      add\n        /* \"https://github.com/OpenZeppelin/openzeppelin-contracts/blob/v3.4.2-solc-0.7/contracts/math/SafeMath.sol\":2759:2776   */\n      swap1\n      pop\n        /* \"https://github.com/OpenZeppelin/openzeppelin-contracts/blob/v3.4.2-solc-0.7/contracts/math/SafeMath.sol\":2799:2800   */\n      dup4\n        /* \"https://github.com/OpenZeppelin/openzeppelin-contracts/blob/v3.4.2-solc-0.7/contracts/math/SafeMath.sol\":2794:2795   */\n      dup2\n        /* \"https://github.com/OpenZeppelin/openzeppelin-contracts/blob/v3.4.2-solc-0.7/contracts/math/SafeMath.sol\":2794:2800   */\n      lt\n      iszero\n        /* \"https://github.com/OpenZeppelin/openzeppelin-contracts/blob/v3.4.2-solc-0.7/contracts/math/SafeMath.sol\":2786:2832   */\n      tag_224\n      jumpi\n      mload(0x40)\n      0x08c379a000000000000000000000000000000000000000000000000000000000\n      dup2\n      mstore\n      0x04\n      add\n      dup1\n      dup1\n      0x20\n      add\n      dup3\n      dup2\n      sub\n      dup3\n      mstore\n      0x1b\n      dup2\n      mstore\n      0x20\n      add\n      dup1\n      0x536166654d6174683a206164646974696f6e206f766572666c6f770000000000\n      dup2\n      mstore\n      pop\n      0x20\n      add\n      swap2\n      pop\n      pop\n      mload(0x40)\n      dup1\n      swap2\n      sub\n      swap1\n      revert\n    tag_224:\n        /* \"https://github.com/OpenZeppelin/openzeppelin-contracts/blob/v3.4.2-solc-0.7/contracts/math/SafeMath.sol\":2849:2850   */\n      dup1\n        /* \"https://github.com/OpenZeppelin/openzeppelin-contracts/blob/v3.4.2-solc-0.7/contracts/math/SafeMath.sol\":2842:2850   */\n      swap2\n      pop\n      pop\n        /* \"https://github.com/OpenZeppelin/openzeppelin-contracts/blob/v3.4.2-solc-0.7/contracts/math/SafeMath.sol\":2682:2857   */\n      swap3\n      swap2\n      pop\n      pop\n      jump\t// out\n        /* \"https://github.com/OpenZeppelin/openzeppelin-contracts/blob/v3.4.2-solc-0.7/contracts/math/SafeMath.sol\":3128:3283   */\n    tag_80:\n        /* \"https://github.com/OpenZeppelin/openzeppelin-contracts/blob/v3.4.2-solc-0.7/contracts/math/SafeMath.sol\":3186:3193   */\n      0x00\n        /* \"https://github.com/OpenZeppelin/openzeppelin-contracts/blob/v3.4.2-solc-0.7/contracts/math/SafeMath.sol\":3218:3219   */\n      dup3\n        /* \"https://github.com/OpenZeppelin/openzeppelin-contracts/blob/v3.4.2-solc-0.7/contracts/math/SafeMath.sol\":3213:3214   */\n      dup3\n        /* \"https://github.com/OpenZeppelin/openzeppelin-contracts/blob/v3.4.2-solc-0.7/contracts/math/SafeMath.sol\":3213:3219   */\n      gt\n      iszero\n        /* \"https://github.com/OpenZeppelin/openzeppelin-contracts/blob/v3.4.2-solc-0.7/contracts/math/SafeMath.sol\":3205:3254   */\n      tag_226\n      jumpi\n      mload(0x40)\n      0x08c379a000000000000000000000000000000000000000000000000000000000\n      dup2\n      mstore\n      0x04\n      add\n      dup1\n      dup1\n      0x20\n      add\n      dup3\n      dup2\n      sub\n      dup3\n      mstore\n      0x1e\n      dup2\n      mstore\n      0x20\n      add\n      dup1\n      0x536166654d6174683a207375627472616374696f6e206f766572666c6f770000\n      dup2\n      mstore\n      pop\n      0x20\n      add\n      swap2\n      pop\n      pop\n      mload(0x40)\n      dup1\n      swap2\n      sub\n      swap1\n      revert\n    tag_226:\n        /* \"https://github.com/OpenZeppelin/openzeppelin-contracts/blob/v3.4.2-solc-0.7/contracts/math/SafeMath.sol\":3275:3276   */\n      dup2\n        /* \"https://github.com/OpenZeppelin/openzeppelin-contracts/blob/v3.4.2-solc-0.7/contracts/math/SafeMath.sol\":3271:3272   */\n      dup4\n        /* \"https://github.com/OpenZeppelin/openzeppelin-contracts/blob/v3.4.2-solc-0.7/contracts/math/SafeMath.sol\":3271:3276   */\n      sub\n        /* \"https://github.com/OpenZeppelin/openzeppelin-contracts/blob/v3.4.2-solc-0.7/contracts/math/SafeMath.sol\":3264:3276   */\n      swap1\n      pop\n        /* \"https://github.com/OpenZeppelin/openzeppelin-contracts/blob/v3.4.2-solc-0.7/contracts/math/SafeMath.sol\":3128:3283   */\n      swap3\n      swap2\n      pop\n      pop\n      jump\t// out\n        /* \"https://github.com/OpenZeppelin/openzeppelin-contracts/blob/v3.4.2-solc-0.7/contracts/utils/Context.sol\":598:702   */\n    tag_114:\n        /* \"https://github.com/OpenZeppelin/openzeppelin-contracts/blob/v3.4.2-solc-0.7/contracts/utils/Context.sol\":651:666   */\n      0x00\n        /* \"https://github.com/OpenZeppelin/openzeppelin-contracts/blob/v3.4.2-solc-0.7/contracts/utils/Context.sol\":685:695   */\n      caller\n        /* \"https://github.com/OpenZeppelin/openzeppelin-contracts/blob/v3.4.2-solc-0.7/contracts/utils/Context.sol\":678:695   */\n      swap1\n      pop\n        /* \"https://github.com/OpenZeppelin/openzeppelin-contracts/blob/v3.4.2-solc-0.7/contracts/utils/Context.sol\":598:702   */\n      swap1\n      jump\t// out\n    stop\n    data_245f15ff17f551913a7a18385165551503906a406f905ac1c2437281a7cd0cfe 4f776e61626c653a206e6577206f776e657220697320746865207a65726f2061646472657373\n    data_9113bb53c2876a3805b2c9242029423fc540a728243ce887ab24c82cf119fba3 536166654d6174683a206d756c7469706c69636174696f6e206f766572666c6f77\n    data_b020066eaffa68ab0351b2bad5360c029cd8fe4b638c919d719365a251cdd481 416d6f756e742070726f766964656420657863656564732076616c756520666f722066756c6c207265636861726765\n    data_dbac1ebb97302732c33c408b5388c8d8754b68224e78fe965741a199709eacae 50726f7669646564206c61756e636820646174652068617320616c726561647920706173736564\n\n    auxdata: 0xa264697066735822122005c4ffd0f868c63360b8eef61a7c9a5d1b4971c81cb1e46e6915fdc85833b0e164736f6c63430007060033\n}\n",
    "bytecode": {
      "linkReferences": {},
      "object": "60806040523480156200001157600080fd5b506040516200258538038062002585833981810160405260408110156200003757600080fd5b8101908080519060200190929190805190602001909291905050506000620000646200029c60201b60201c565b9050806000806101000a81548173ffffffffffffffffffffffffffffffffffffffff021916908373ffffffffffffffffffffffffffffffffffffffff1602179055508073ffffffffffffffffffffffffffffffffffffffff16600073ffffffffffffffffffffffffffffffffffffffff167f8be0079c531659141344cd1fd0a4f28419497f9722a3daafe3b4186f6b6457e060405160405180910390a350600073ffffffffffffffffffffffffffffffffffffffff168273ffffffffffffffffffffffffffffffffffffffff1614156200018a576040517f08c379a000000000000000000000000000000000000000000000000000000000815260040180806020018281038252602f81526020018062002529602f913960400191505060405180910390fd5b600073ffffffffffffffffffffffffffffffffffffffff168173ffffffffffffffffffffffffffffffffffffffff16141562000212576040517f08c379a000000000000000000000000000000000000000000000000000000000815260040180806020018281038252602d81526020018062002558602d913960400191505060405180910390fd5b81600160006101000a81548173ffffffffffffffffffffffffffffffffffffffff021916908373ffffffffffffffffffffffffffffffffffffffff16021790555080600260006101000a81548173ffffffffffffffffffffffffffffffffffffffff021916908373ffffffffffffffffffffffffffffffffffffffff1602179055505050620002a4565b600033905090565b61227580620002b46000396000f3fe608060405234801561001057600080fd5b50600436106100f55760003560e01c80637e267f3911610097578063ba01ecef11610066578063ba01ecef146102c2578063f2fde38b1461031a578063f6a03ebf1461035e578063fd7268271461038c576100f5565b80637e267f39146102145780638da5cb5b146102325780639554474614610266578063a9e18b6814610294576100f5565b806343cd8f7e116100d357806343cd8f7e146101405780634b60ce7714610174578063618c6cd1146101a8578063715018a61461020a576100f5565b806313239b8a146100fa578063176f088914610104578063365d470814610122575b600080fd5b6101026103aa565b005b61010c610855565b6040518082815260200191505060405180910390f35b61012a61085b565b6040518082815260200191505060405180910390f35b610148610861565b604051808273ffffffffffffffffffffffffffffffffffffffff16815260200191505060405180910390f35b61017c610887565b604051808273ffffffffffffffffffffffffffffffffffffffff16815260200191505060405180910390f35b6101f4600480360360808110156101be57600080fd5b810190808035906020019092919080359060200190929190803590602001909291908035151590602001909291905050506108ad565b6040518082815260200191505060405180910390f35b610212610ad0565b005b61021c610c3d565b6040518082815260200191505060405180910390f35b61023a610c43565b604051808273ffffffffffffffffffffffffffffffffffffffff16815260200191505060405180910390f35b6102926004803603602081101561027c57600080fd5b8101908080359060200190929190505050610c6c565b005b6102c0600480360360208110156102aa57600080fd5b810190808035906020019092919050505061138d565b005b610304600480360360208110156102d857600080fd5b81019080803573ffffffffffffffffffffffffffffffffffffffff16906020019092919050505061155e565b6040518082815260200191505060405180910390f35b61035c6004803603602081101561033057600080fd5b81019080803573ffffffffffffffffffffffffffffffffffffffff169060200190929190505050611576565b005b61038a6004803603602081101561037457600080fd5b8101908080359060200190929190505050611768565b005b610394611a00565b6040518082815260200191505060405180910390f35b6103b2611a06565b6000429050600060035490506000811180156103ce5750818111155b610440576040517f08c379a00000000000000000000000000000000000000000000000000000000081526004018080602001828103825260158152602001807f4e6f20746f6b656e20746f20636c61696d20796574000000000000000000000081525060200191505060405180910390fd5b6000600160009054906101000a900473ffffffffffffffffffffffffffffffffffffffff1673ffffffffffffffffffffffffffffffffffffffff1663efb5c2f3336040518263ffffffff1660e01b8152600401808273ffffffffffffffffffffffffffffffffffffffff168152602001915050602060405180830381600087803b1580156104cd57600080fd5b505af11580156104e1573d6000803e3d6000fd5b505050506040513d60208110156104f757600080fd5b8101908080519060200190929190505050905060006105163385611a88565b9050600080600160009054906101000a900473ffffffffffffffffffffffffffffffffffffffff1673ffffffffffffffffffffffffffffffffffffffff1663c96877a26040518163ffffffff1660e01b815260040160206040518083038186803b15801561058357600080fd5b505afa158015610597573d6000803e3d6000fd5b505050506040513d60208110156105ad57600080fd5b810190808051906020019092919050505011156105f0576105ed6103e86105df60055485611f8090919063ffffffff16565b61200690919063ffffffff16565b90505b600061061782610609868661208f90919063ffffffff16565b61211790919063ffffffff16565b9050600260009054906101000a900473ffffffffffffffffffffffffffffffffffffffff1673ffffffffffffffffffffffffffffffffffffffff1663751cfd5d33836040518363ffffffff1660e01b8152600401808373ffffffffffffffffffffffffffffffffffffffff16815260200182815260200192505050600060405180830381600087803b1580156106ac57600080fd5b505af11580156106c0573d6000803e3d6000fd5b50505050600160009054906101000a900473ffffffffffffffffffffffffffffffffffffffff1673ffffffffffffffffffffffffffffffffffffffff16636d69847d826040518263ffffffff1660e01b815260040180828152602001915050600060405180830381600087803b15801561073957600080fd5b505af115801561074d573d6000803e3d6000fd5b5050505060008211156107e857600160009054906101000a900473ffffffffffffffffffffffffffffffffffffffff1673ffffffffffffffffffffffffffffffffffffffff1663f331a867836040518263ffffffff1660e01b815260040180828152602001915050600060405180830381600087803b1580156107cf57600080fd5b505af11580156107e3573d6000803e3d6000fd5b505050505b7f5632e016b41e9b0ca62072624c56193ad6dec6c3160bb3a67f52299efb72d51a33828487604051808573ffffffffffffffffffffffffffffffffffffffff16815260200184815260200183815260200182815260200194505050505060405180910390a1505050505050565b60055481565b60045481565b600160009054906101000a900473ffffffffffffffffffffffffffffffffffffffff1681565b600260009054906101000a900473ffffffffffffffffffffffffffffffffffffffff1681565b600080600160009054906101000a900473ffffffffffffffffffffffffffffffffffffffff1673ffffffffffffffffffffffffffffffffffffffff16632945ac686040518163ffffffff1660e01b815260040160206040518083038186803b15801561091857600080fd5b505afa15801561092c573d6000803e3d6000fd5b505050506040513d602081101561094257600080fd5b810190808051906020019092919050505090506000600160009054906101000a900473ffffffffffffffffffffffffffffffffffffffff1673ffffffffffffffffffffffffffffffffffffffff1663e54dd98a6040518163ffffffff1660e01b815260040160206040518083038186803b1580156109bf57600080fd5b505afa1580156109d3573d6000803e3d6000fd5b505050506040513d60208110156109e957600080fd5b810190808051906020019092919050505090508315610a2c57610a296103e8610a1b848a611f8090919063ffffffff16565b61200690919063ffffffff16565b92505b8486118015610a3b5750600081115b15610ac657610ac3610ab4610a5b6103e884611f8090919063ffffffff16565b610aa6610a71898b61211790919063ffffffff16565b610a98610a89886103e861211790919063ffffffff16565b8d611f8090919063ffffffff16565b611f8090919063ffffffff16565b61200690919063ffffffff16565b8461208f90919063ffffffff16565b92505b5050949350505050565b610ad861219a565b73ffffffffffffffffffffffffffffffffffffffff16610af6610c43565b73ffffffffffffffffffffffffffffffffffffffff1614610b7f576040517f08c379a00000000000000000000000000000000000000000000000000000000081526004018080602001828103825260208152602001807f4f776e61626c653a2063616c6c6572206973206e6f7420746865206f776e657281525060200191505060405180910390fd5b600073ffffffffffffffffffffffffffffffffffffffff1660008054906101000a900473ffffffffffffffffffffffffffffffffffffffff1673ffffffffffffffffffffffffffffffffffffffff167f8be0079c531659141344cd1fd0a4f28419497f9722a3daafe3b4186f6b6457e060405160405180910390a360008060006101000a81548173ffffffffffffffffffffffffffffffffffffffff021916908373ffffffffffffffffffffffffffffffffffffffff160217905550565b6103e881565b60008060009054906101000a900473ffffffffffffffffffffffffffffffffffffffff16905090565b610c74611a06565b600260009054906101000a900473ffffffffffffffffffffffffffffffffffffffff1673ffffffffffffffffffffffffffffffffffffffff166370a08231336040518263ffffffff1660e01b8152600401808273ffffffffffffffffffffffffffffffffffffffff16815260200191505060206040518083038186803b158015610cfd57600080fd5b505afa158015610d11573d6000803e3d6000fd5b505050506040513d6020811015610d2757600080fd5b8101908080519060200190929190505050811115610dad576040517f08c379a00000000000000000000000000000000000000000000000000000000081526004018080602001828103825260208152602001807f416d6f756e74206578636565647320617661696c61626c652062616c616e636581525060200191505060405180910390fd5b6000600660003373ffffffffffffffffffffffffffffffffffffffff1673ffffffffffffffffffffffffffffffffffffffff16815260200190815260200160002054905080821115610e4a576040517f08c379a000000000000000000000000000000000000000000000000000000000815260040180806020018281038252602f8152602001806121ea602f913960400191505060405180910390fd5b60008111610ec0576040517f08c379a000000000000000000000000000000000000000000000000000000000815260040180806020018281038252601f8152602001807f546865726520617265206e6f20546f6b656e7320746f2072656368617267650081525060200191505060405180910390fd5b6000600160009054906101000a900473ffffffffffffffffffffffffffffffffffffffff1673ffffffffffffffffffffffffffffffffffffffff1663efb5c2f3336040518263ffffffff1660e01b8152600401808273ffffffffffffffffffffffffffffffffffffffff168152602001915050602060405180830381600087803b158015610f4d57600080fd5b505af1158015610f61573d6000803e3d6000fd5b505050506040513d6020811015610f7757600080fd5b81019080805190602001909291905050509050600061107483611066600160009054906101000a900473ffffffffffffffffffffffffffffffffffffffff1673ffffffffffffffffffffffffffffffffffffffff16639f65ffb0336040518263ffffffff1660e01b8152600401808273ffffffffffffffffffffffffffffffffffffffff16815260200191505060206040518083038186803b15801561101c57600080fd5b505afa158015611030573d6000803e3d6000fd5b505050506040513d602081101561104657600080fd5b810190808051906020019092919050505087611f8090919063ffffffff16565b61200690919063ffffffff16565b9050600260009054906101000a900473ffffffffffffffffffffffffffffffffffffffff1673ffffffffffffffffffffffffffffffffffffffff16638f676b8133866040518363ffffffff1660e01b8152600401808373ffffffffffffffffffffffffffffffffffffffff16815260200182815260200192505050600060405180830381600087803b15801561110957600080fd5b505af115801561111d573d6000803e3d6000fd5b50505050600160009054906101000a900473ffffffffffffffffffffffffffffffffffffffff1673ffffffffffffffffffffffffffffffffffffffff1663da3a5936856040518263ffffffff1660e01b815260040180828152602001915050600060405180830381600087803b15801561119657600080fd5b505af11580156111aa573d6000803e3d6000fd5b50505050600160009054906101000a900473ffffffffffffffffffffffffffffffffffffffff1673ffffffffffffffffffffffffffffffffffffffff1663740c349533611200858561208f90919063ffffffff16565b84611214878a61208f90919063ffffffff16565b6040518563ffffffff1660e01b8152600401808573ffffffffffffffffffffffffffffffffffffffff168152602001848152602001838152602001828152602001945050505050600060405180830381600087803b15801561127557600080fd5b505af1158015611289573d6000803e3d6000fd5b505050506112df84600660003373ffffffffffffffffffffffffffffffffffffffff1673ffffffffffffffffffffffffffffffffffffffff1681526020019081526020016000205461211790919063ffffffff16565b600660003373ffffffffffffffffffffffffffffffffffffffff1673ffffffffffffffffffffffffffffffffffffffff168152602001908152602001600020819055507fe1cc0aa27606726a365e40c503310731e7b9e139e1deb0fb16433c0b92cd161d33828685604051808573ffffffffffffffffffffffffffffffffffffffff16815260200184815260200183815260200182815260200194505050505060405180910390a150505050565b61139561219a565b73ffffffffffffffffffffffffffffffffffffffff166113b3610c43565b73ffffffffffffffffffffffffffffffffffffffff161461143c576040517f08c379a00000000000000000000000000000000000000000000000000000000081526004018080602001828103825260208152602001807f4f776e61626c653a2063616c6c6572206973206e6f7420746865206f776e657281525060200191505060405180910390fd5b600160009054906101000a900473ffffffffffffffffffffffffffffffffffffffff1673ffffffffffffffffffffffffffffffffffffffff166378e104da6040518163ffffffff1660e01b815260040160206040518083038186803b1580156114a457600080fd5b505afa1580156114b8573d6000803e3d6000fd5b505050506040513d60208110156114ce57600080fd5b8101908080519060200190929190505050811115611554576040517f08c379a000000000000000000000000000000000000000000000000000000000815260040180806020018281038252600d8152602001807f496e76616c69642076616c75650000000000000000000000000000000000000081525060200191505060405180910390fd5b8060058190555050565b60066020528060005260406000206000915090505481565b61157e61219a565b73ffffffffffffffffffffffffffffffffffffffff1661159c610c43565b73ffffffffffffffffffffffffffffffffffffffff1614611625576040517f08c379a00000000000000000000000000000000000000000000000000000000081526004018080602001828103825260208152602001807f4f776e61626c653a2063616c6c6572206973206e6f7420746865206f776e657281525060200191505060405180910390fd5b600073ffffffffffffffffffffffffffffffffffffffff168173ffffffffffffffffffffffffffffffffffffffff1614156116ab576040517f08c379a00000000000000000000000000000000000000000000000000000000081526004018080602001828103825260268152602001806121a36026913960400191505060405180910390fd5b8073ffffffffffffffffffffffffffffffffffffffff1660008054906101000a900473ffffffffffffffffffffffffffffffffffffffff1673ffffffffffffffffffffffffffffffffffffffff167f8be0079c531659141344cd1fd0a4f28419497f9722a3daafe3b4186f6b6457e060405160405180910390a3806000806101000a81548173ffffffffffffffffffffffffffffffffffffffff021916908373ffffffffffffffffffffffffffffffffffffffff16021790555050565b61177061219a565b73ffffffffffffffffffffffffffffffffffffffff1661178e610c43565b73ffffffffffffffffffffffffffffffffffffffff1614611817576040517f08c379a00000000000000000000000000000000000000000000000000000000081526004018080602001828103825260208152602001807f4f776e61626c653a2063616c6c6572206973206e6f7420746865206f776e657281525060200191505060405180910390fd5b60006003549050600081111561189d5780421061189c576040517f08c379a000000000000000000000000000000000000000000000000000000000815260040180806020018281038252601e8152602001807f4c61756e636820646174652068617320616c726561647920706173736564000081525060200191505060405180910390fd5b5b8142106118f5576040517f08c379a00000000000000000000000000000000000000000000000000000000081526004018080602001828103825260278152602001806122196027913960400191505060405180910390fd5b8160038190555060006119b3600160009054906101000a900473ffffffffffffffffffffffffffffffffffffffff1673ffffffffffffffffffffffffffffffffffffffff16633f2b437d6040518163ffffffff1660e01b815260040160206040518083038186803b15801561196957600080fd5b505afa15801561197d573d6000803e3d6000fd5b505050506040513d602081101561199357600080fd5b81019080805190602001909291905050508461208f90919063ffffffff16565b9050806004819055507f55d35b4292da305a0db36555001d795d3dfc81bae423612f33afc0869d36fef68382604051808381526020018281526020019250505060405180910390a1505050565b60035481565b600160009054906101000a900473ffffffffffffffffffffffffffffffffffffffff1673ffffffffffffffffffffffffffffffffffffffff16631f93abd46040518163ffffffff1660e01b815260040160006040518083038186803b158015611a6e57600080fd5b505afa158015611a82573d6000803e3d6000fd5b50505050565b60008060045490506000600160009054906101000a900473ffffffffffffffffffffffffffffffffffffffff1673ffffffffffffffffffffffffffffffffffffffff16637561ea9a866040518263ffffffff1660e01b8152600401808273ffffffffffffffffffffffffffffffffffffffff16815260200191505060206040518083038186803b158015611b1b57600080fd5b505afa158015611b2f573d6000803e3d6000fd5b505050506040513d6020811015611b4557600080fd5b810190808051906020019092919050505090506000600160009054906101000a900473ffffffffffffffffffffffffffffffffffffffff1673ffffffffffffffffffffffffffffffffffffffff16639f65ffb0876040518263ffffffff1660e01b8152600401808273ffffffffffffffffffffffffffffffffffffffff16815260200191505060206040518083038186803b158015611be357600080fd5b505afa158015611bf7573d6000803e3d6000fd5b505050506040513d6020811015611c0d57600080fd5b810190808051906020019092919050505090506000611cd7600160009054906101000a900473ffffffffffffffffffffffffffffffffffffffff1673ffffffffffffffffffffffffffffffffffffffff1663e54dd98a6040518163ffffffff1660e01b815260040160206040518083038186803b158015611c8d57600080fd5b505afa158015611ca1573d6000803e3d6000fd5b505050506040513d6020811015611cb757600080fd5b81019080805190602001909291905050508561208f90919063ffffffff16565b90506000600660008973ffffffffffffffffffffffffffffffffffffffff1673ffffffffffffffffffffffffffffffffffffffff168152602001908152602001600020549050818710611d5057611d4981611d3b858761208f90919063ffffffff16565b61211790919063ffffffff16565b9550611e6a565b6000831115611e3e576000600160009054906101000a900473ffffffffffffffffffffffffffffffffffffffff1673ffffffffffffffffffffffffffffffffffffffff1663305e2daf8a6040518263ffffffff1660e01b8152600401808273ffffffffffffffffffffffffffffffffffffffff16815260200191505060206040518083038186803b158015611de457600080fd5b505afa158015611df8573d6000803e3d6000fd5b505050506040513d6020811015611e0e57600080fd5b8101908080519060200190929190505050905085811015611e2d578590505b611e3a84898360006108ad565b9650505b6000841115611e6957611e66611e5785898860016108ad565b8761208f90919063ffffffff16565b95505b5b611e7d868261208f90919063ffffffff16565b600660008a73ffffffffffffffffffffffffffffffffffffffff1673ffffffffffffffffffffffffffffffffffffffff168152602001908152602001600020819055506000861115611f7557600160009054906101000a900473ffffffffffffffffffffffffffffffffffffffff1673ffffffffffffffffffffffffffffffffffffffff166382af7d3989886040518363ffffffff1660e01b8152600401808373ffffffffffffffffffffffffffffffffffffffff16815260200182815260200192505050600060405180830381600087803b158015611f5c57600080fd5b505af1158015611f70573d6000803e3d6000fd5b505050505b505050505092915050565b600080831415611f935760009050612000565b6000828402905082848281611fa457fe5b0414611ffb576040517f08c379a00000000000000000000000000000000000000000000000000000000081526004018080602001828103825260218152602001806121c96021913960400191505060405180910390fd5b809150505b92915050565b600080821161207d576040517f08c379a000000000000000000000000000000000000000000000000000000000815260040180806020018281038252601a8152602001807f536166654d6174683a206469766973696f6e206279207a65726f00000000000081525060200191505060405180910390fd5b81838161208657fe5b04905092915050565b60008082840190508381101561210d576040517f08c379a000000000000000000000000000000000000000000000000000000000815260040180806020018281038252601b8152602001807f536166654d6174683a206164646974696f6e206f766572666c6f77000000000081525060200191505060405180910390fd5b8091505092915050565b60008282111561218f576040517f08c379a000000000000000000000000000000000000000000000000000000000815260040180806020018281038252601e8152602001807f536166654d6174683a207375627472616374696f6e206f766572666c6f77000081525060200191505060405180910390fd5b818303905092915050565b60003390509056fe4f776e61626c653a206e6577206f776e657220697320746865207a65726f2061646472657373536166654d6174683a206d756c7469706c69636174696f6e206f766572666c6f77416d6f756e742070726f766964656420657863656564732076616c756520666f722066756c6c20726563686172676550726f7669646564206c61756e636820646174652068617320616c726561647920706173736564a264697066735822122005c4ffd0f868c63360b8eef61a7c9a5d1b4971c81cb1e46e6915fdc85833b0e164736f6c6343000706003353657420612076616c6964206164647265737320666f72204c6971756964697479546f6b656e20436f6e747261637453657420612076616c6964206164647265737320666f722050726f6a656374546f6b656e20436f6e7472616374",
      "opcodes": "PUSH1 0x80 PUSH1 0x40 MSTORE CALLVALUE DUP1 ISZERO PUSH3 0x11 JUMPI PUSH1 0x0 DUP1 REVERT JUMPDEST POP PUSH1 0x40 MLOAD PUSH3 0x2585 CODESIZE SUB DUP1 PUSH3 0x2585 DUP4 CODECOPY DUP2 DUP2 ADD PUSH1 0x40 MSTORE PUSH1 0x40 DUP2 LT ISZERO PUSH3 0x37 JUMPI PUSH1 0x0 DUP1 REVERT JUMPDEST DUP2 ADD SWAP1 DUP1 DUP1 MLOAD SWAP1 PUSH1 0x20 ADD SWAP1 SWAP3 SWAP2 SWAP1 DUP1 MLOAD SWAP1 PUSH1 0x20 ADD SWAP1 SWAP3 SWAP2 SWAP1 POP POP POP PUSH1 0x0 PUSH3 0x64 PUSH3 0x29C PUSH1 0x20 SHL PUSH1 0x20 SHR JUMP JUMPDEST SWAP1 POP DUP1 PUSH1 0x0 DUP1 PUSH2 0x100 EXP DUP2 SLOAD DUP2 PUSH20 0xFFFFFFFFFFFFFFFFFFFFFFFFFFFFFFFFFFFFFFFF MUL NOT AND SWAP1 DUP4 PUSH20 0xFFFFFFFFFFFFFFFFFFFFFFFFFFFFFFFFFFFFFFFF AND MUL OR SWAP1 SSTORE POP DUP1 PUSH20 0xFFFFFFFFFFFFFFFFFFFFFFFFFFFFFFFFFFFFFFFF AND PUSH1 0x0 PUSH20 0xFFFFFFFFFFFFFFFFFFFFFFFFFFFFFFFFFFFFFFFF AND PUSH32 0x8BE0079C531659141344CD1FD0A4F28419497F9722A3DAAFE3B4186F6B6457E0 PUSH1 0x40 MLOAD PUSH1 0x40 MLOAD DUP1 SWAP2 SUB SWAP1 LOG3 POP PUSH1 0x0 PUSH20 0xFFFFFFFFFFFFFFFFFFFFFFFFFFFFFFFFFFFFFFFF AND DUP3 PUSH20 0xFFFFFFFFFFFFFFFFFFFFFFFFFFFFFFFFFFFFFFFF AND EQ ISZERO PUSH3 0x18A JUMPI PUSH1 0x40 MLOAD PUSH32 0x8C379A000000000000000000000000000000000000000000000000000000000 DUP2 MSTORE PUSH1 0x4 ADD DUP1 DUP1 PUSH1 0x20 ADD DUP3 DUP2 SUB DUP3 MSTORE PUSH1 0x2F DUP2 MSTORE PUSH1 0x20 ADD DUP1 PUSH3 0x2529 PUSH1 0x2F SWAP2 CODECOPY PUSH1 0x40 ADD SWAP2 POP POP PUSH1 0x40 MLOAD DUP1 SWAP2 SUB SWAP1 REVERT JUMPDEST PUSH1 0x0 PUSH20 0xFFFFFFFFFFFFFFFFFFFFFFFFFFFFFFFFFFFFFFFF AND DUP2 PUSH20 0xFFFFFFFFFFFFFFFFFFFFFFFFFFFFFFFFFFFFFFFF AND EQ ISZERO PUSH3 0x212 JUMPI PUSH1 0x40 MLOAD PUSH32 0x8C379A000000000000000000000000000000000000000000000000000000000 DUP2 MSTORE PUSH1 0x4 ADD DUP1 DUP1 PUSH1 0x20 ADD DUP3 DUP2 SUB DUP3 MSTORE PUSH1 0x2D DUP2 MSTORE PUSH1 0x20 ADD DUP1 PUSH3 0x2558 PUSH1 0x2D SWAP2 CODECOPY PUSH1 0x40 ADD SWAP2 POP POP PUSH1 0x40 MLOAD DUP1 SWAP2 SUB SWAP1 REVERT JUMPDEST DUP2 PUSH1 0x1 PUSH1 0x0 PUSH2 0x100 EXP DUP2 SLOAD DUP2 PUSH20 0xFFFFFFFFFFFFFFFFFFFFFFFFFFFFFFFFFFFFFFFF MUL NOT AND SWAP1 DUP4 PUSH20 0xFFFFFFFFFFFFFFFFFFFFFFFFFFFFFFFFFFFFFFFF AND MUL OR SWAP1 SSTORE POP DUP1 PUSH1 0x2 PUSH1 0x0 PUSH2 0x100 EXP DUP2 SLOAD DUP2 PUSH20 0xFFFFFFFFFFFFFFFFFFFFFFFFFFFFFFFFFFFFFFFF MUL NOT AND SWAP1 DUP4 PUSH20 0xFFFFFFFFFFFFFFFFFFFFFFFFFFFFFFFFFFFFFFFF AND MUL OR SWAP1 SSTORE POP POP POP PUSH3 0x2A4 JUMP JUMPDEST PUSH1 0x0 CALLER SWAP1 POP SWAP1 JUMP JUMPDEST PUSH2 0x2275 DUP1 PUSH3 0x2B4 PUSH1 0x0 CODECOPY PUSH1 0x0 RETURN INVALID PUSH1 0x80 PUSH1 0x40 MSTORE CALLVALUE DUP1 ISZERO PUSH2 0x10 JUMPI PUSH1 0x0 DUP1 REVERT JUMPDEST POP PUSH1 0x4 CALLDATASIZE LT PUSH2 0xF5 JUMPI PUSH1 0x0 CALLDATALOAD PUSH1 0xE0 SHR DUP1 PUSH4 0x7E267F39 GT PUSH2 0x97 JUMPI DUP1 PUSH4 0xBA01ECEF GT PUSH2 0x66 JUMPI DUP1 PUSH4 0xBA01ECEF EQ PUSH2 0x2C2 JUMPI DUP1 PUSH4 0xF2FDE38B EQ PUSH2 0x31A JUMPI DUP1 PUSH4 0xF6A03EBF EQ PUSH2 0x35E JUMPI DUP1 PUSH4 0xFD726827 EQ PUSH2 0x38C JUMPI PUSH2 0xF5 JUMP JUMPDEST DUP1 PUSH4 0x7E267F39 EQ PUSH2 0x214 JUMPI DUP1 PUSH4 0x8DA5CB5B EQ PUSH2 0x232 JUMPI DUP1 PUSH4 0x95544746 EQ PUSH2 0x266 JUMPI DUP1 PUSH4 0xA9E18B68 EQ PUSH2 0x294 JUMPI PUSH2 0xF5 JUMP JUMPDEST DUP1 PUSH4 0x43CD8F7E GT PUSH2 0xD3 JUMPI DUP1 PUSH4 0x43CD8F7E EQ PUSH2 0x140 JUMPI DUP1 PUSH4 0x4B60CE77 EQ PUSH2 0x174 JUMPI DUP1 PUSH4 0x618C6CD1 EQ PUSH2 0x1A8 JUMPI DUP1 PUSH4 0x715018A6 EQ PUSH2 0x20A JUMPI PUSH2 0xF5 JUMP JUMPDEST DUP1 PUSH4 0x13239B8A EQ PUSH2 0xFA JUMPI DUP1 PUSH4 0x176F0889 EQ PUSH2 0x104 JUMPI DUP1 PUSH4 0x365D4708 EQ PUSH2 0x122 JUMPI JUMPDEST PUSH1 0x0 DUP1 REVERT JUMPDEST PUSH2 0x102 PUSH2 0x3AA JUMP JUMPDEST STOP JUMPDEST PUSH2 0x10C PUSH2 0x855 JUMP JUMPDEST PUSH1 0x40 MLOAD DUP1 DUP3 DUP2 MSTORE PUSH1 0x20 ADD SWAP2 POP POP PUSH1 0x40 MLOAD DUP1 SWAP2 SUB SWAP1 RETURN JUMPDEST PUSH2 0x12A PUSH2 0x85B JUMP JUMPDEST PUSH1 0x40 MLOAD DUP1 DUP3 DUP2 MSTORE PUSH1 0x20 ADD SWAP2 POP POP PUSH1 0x40 MLOAD DUP1 SWAP2 SUB SWAP1 RETURN JUMPDEST PUSH2 0x148 PUSH2 0x861 JUMP JUMPDEST PUSH1 0x40 MLOAD DUP1 DUP3 PUSH20 0xFFFFFFFFFFFFFFFFFFFFFFFFFFFFFFFFFFFFFFFF AND DUP2 MSTORE PUSH1 0x20 ADD SWAP2 POP POP PUSH1 0x40 MLOAD DUP1 SWAP2 SUB SWAP1 RETURN JUMPDEST PUSH2 0x17C PUSH2 0x887 JUMP JUMPDEST PUSH1 0x40 MLOAD DUP1 DUP3 PUSH20 0xFFFFFFFFFFFFFFFFFFFFFFFFFFFFFFFFFFFFFFFF AND DUP2 MSTORE PUSH1 0x20 ADD SWAP2 POP POP PUSH1 0x40 MLOAD DUP1 SWAP2 SUB SWAP1 RETURN JUMPDEST PUSH2 0x1F4 PUSH1 0x4 DUP1 CALLDATASIZE SUB PUSH1 0x80 DUP2 LT ISZERO PUSH2 0x1BE JUMPI PUSH1 0x0 DUP1 REVERT JUMPDEST DUP2 ADD SWAP1 DUP1 DUP1 CALLDATALOAD SWAP1 PUSH1 0x20 ADD SWAP1 SWAP3 SWAP2 SWAP1 DUP1 CALLDATALOAD SWAP1 PUSH1 0x20 ADD SWAP1 SWAP3 SWAP2 SWAP1 DUP1 CALLDATALOAD SWAP1 PUSH1 0x20 ADD SWAP1 SWAP3 SWAP2 SWAP1 DUP1 CALLDATALOAD ISZERO ISZERO SWAP1 PUSH1 0x20 ADD SWAP1 SWAP3 SWAP2 SWAP1 POP POP POP PUSH2 0x8AD JUMP JUMPDEST PUSH1 0x40 MLOAD DUP1 DUP3 DUP2 MSTORE PUSH1 0x20 ADD SWAP2 POP POP PUSH1 0x40 MLOAD DUP1 SWAP2 SUB SWAP1 RETURN JUMPDEST PUSH2 0x212 PUSH2 0xAD0 JUMP JUMPDEST STOP JUMPDEST PUSH2 0x21C PUSH2 0xC3D JUMP JUMPDEST PUSH1 0x40 MLOAD DUP1 DUP3 DUP2 MSTORE PUSH1 0x20 ADD SWAP2 POP POP PUSH1 0x40 MLOAD DUP1 SWAP2 SUB SWAP1 RETURN JUMPDEST PUSH2 0x23A PUSH2 0xC43 JUMP JUMPDEST PUSH1 0x40 MLOAD DUP1 DUP3 PUSH20 0xFFFFFFFFFFFFFFFFFFFFFFFFFFFFFFFFFFFFFFFF AND DUP2 MSTORE PUSH1 0x20 ADD SWAP2 POP POP PUSH1 0x40 MLOAD DUP1 SWAP2 SUB SWAP1 RETURN JUMPDEST PUSH2 0x292 PUSH1 0x4 DUP1 CALLDATASIZE SUB PUSH1 0x20 DUP2 LT ISZERO PUSH2 0x27C JUMPI PUSH1 0x0 DUP1 REVERT JUMPDEST DUP2 ADD SWAP1 DUP1 DUP1 CALLDATALOAD SWAP1 PUSH1 0x20 ADD SWAP1 SWAP3 SWAP2 SWAP1 POP POP POP PUSH2 0xC6C JUMP JUMPDEST STOP JUMPDEST PUSH2 0x2C0 PUSH1 0x4 DUP1 CALLDATASIZE SUB PUSH1 0x20 DUP2 LT ISZERO PUSH2 0x2AA JUMPI PUSH1 0x0 DUP1 REVERT JUMPDEST DUP2 ADD SWAP1 DUP1 DUP1 CALLDATALOAD SWAP1 PUSH1 0x20 ADD SWAP1 SWAP3 SWAP2 SWAP1 POP POP POP PUSH2 0x138D JUMP JUMPDEST STOP JUMPDEST PUSH2 0x304 PUSH1 0x4 DUP1 CALLDATASIZE SUB PUSH1 0x20 DUP2 LT ISZERO PUSH2 0x2D8 JUMPI PUSH1 0x0 DUP1 REVERT JUMPDEST DUP2 ADD SWAP1 DUP1 DUP1 CALLDATALOAD PUSH20 0xFFFFFFFFFFFFFFFFFFFFFFFFFFFFFFFFFFFFFFFF AND SWAP1 PUSH1 0x20 ADD SWAP1 SWAP3 SWAP2 SWAP1 POP POP POP PUSH2 0x155E JUMP JUMPDEST PUSH1 0x40 MLOAD DUP1 DUP3 DUP2 MSTORE PUSH1 0x20 ADD SWAP2 POP POP PUSH1 0x40 MLOAD DUP1 SWAP2 SUB SWAP1 RETURN JUMPDEST PUSH2 0x35C PUSH1 0x4 DUP1 CALLDATASIZE SUB PUSH1 0x20 DUP2 LT ISZERO PUSH2 0x330 JUMPI PUSH1 0x0 DUP1 REVERT JUMPDEST DUP2 ADD SWAP1 DUP1 DUP1 CALLDATALOAD PUSH20 0xFFFFFFFFFFFFFFFFFFFFFFFFFFFFFFFFFFFFFFFF AND SWAP1 PUSH1 0x20 ADD SWAP1 SWAP3 SWAP2 SWAP1 POP POP POP PUSH2 0x1576 JUMP JUMPDEST STOP JUMPDEST PUSH2 0x38A PUSH1 0x4 DUP1 CALLDATASIZE SUB PUSH1 0x20 DUP2 LT ISZERO PUSH2 0x374 JUMPI PUSH1 0x0 DUP1 REVERT JUMPDEST DUP2 ADD SWAP1 DUP1 DUP1 CALLDATALOAD SWAP1 PUSH1 0x20 ADD SWAP1 SWAP3 SWAP2 SWAP1 POP POP POP PUSH2 0x1768 JUMP JUMPDEST STOP JUMPDEST PUSH2 0x394 PUSH2 0x1A00 JUMP JUMPDEST PUSH1 0x40 MLOAD DUP1 DUP3 DUP2 MSTORE PUSH1 0x20 ADD SWAP2 POP POP PUSH1 0x40 MLOAD DUP1 SWAP2 SUB SWAP1 RETURN JUMPDEST PUSH2 0x3B2 PUSH2 0x1A06 JUMP JUMPDEST PUSH1 0x0 TIMESTAMP SWAP1 POP PUSH1 0x0 PUSH1 0x3 SLOAD SWAP1 POP PUSH1 0x0 DUP2 GT DUP1 ISZERO PUSH2 0x3CE JUMPI POP DUP2 DUP2 GT ISZERO JUMPDEST PUSH2 0x440 JUMPI PUSH1 0x40 MLOAD PUSH32 0x8C379A000000000000000000000000000000000000000000000000000000000 DUP2 MSTORE PUSH1 0x4 ADD DUP1 DUP1 PUSH1 0x20 ADD DUP3 DUP2 SUB DUP3 MSTORE PUSH1 0x15 DUP2 MSTORE PUSH1 0x20 ADD DUP1 PUSH32 0x4E6F20746F6B656E20746F20636C61696D207965740000000000000000000000 DUP2 MSTORE POP PUSH1 0x20 ADD SWAP2 POP POP PUSH1 0x40 MLOAD DUP1 SWAP2 SUB SWAP1 REVERT JUMPDEST PUSH1 0x0 PUSH1 0x1 PUSH1 0x0 SWAP1 SLOAD SWAP1 PUSH2 0x100 EXP SWAP1 DIV PUSH20 0xFFFFFFFFFFFFFFFFFFFFFFFFFFFFFFFFFFFFFFFF AND PUSH20 0xFFFFFFFFFFFFFFFFFFFFFFFFFFFFFFFFFFFFFFFF AND PUSH4 0xEFB5C2F3 CALLER PUSH1 0x40 MLOAD DUP3 PUSH4 0xFFFFFFFF AND PUSH1 0xE0 SHL DUP2 MSTORE PUSH1 0x4 ADD DUP1 DUP3 PUSH20 0xFFFFFFFFFFFFFFFFFFFFFFFFFFFFFFFFFFFFFFFF AND DUP2 MSTORE PUSH1 0x20 ADD SWAP2 POP POP PUSH1 0x20 PUSH1 0x40 MLOAD DUP1 DUP4 SUB DUP2 PUSH1 0x0 DUP8 DUP1 EXTCODESIZE ISZERO DUP1 ISZERO PUSH2 0x4CD JUMPI PUSH1 0x0 DUP1 REVERT JUMPDEST POP GAS CALL ISZERO DUP1 ISZERO PUSH2 0x4E1 JUMPI RETURNDATASIZE PUSH1 0x0 DUP1 RETURNDATACOPY RETURNDATASIZE PUSH1 0x0 REVERT JUMPDEST POP POP POP POP PUSH1 0x40 MLOAD RETURNDATASIZE PUSH1 0x20 DUP2 LT ISZERO PUSH2 0x4F7 JUMPI PUSH1 0x0 DUP1 REVERT JUMPDEST DUP2 ADD SWAP1 DUP1 DUP1 MLOAD SWAP1 PUSH1 0x20 ADD SWAP1 SWAP3 SWAP2 SWAP1 POP POP POP SWAP1 POP PUSH1 0x0 PUSH2 0x516 CALLER DUP6 PUSH2 0x1A88 JUMP JUMPDEST SWAP1 POP PUSH1 0x0 DUP1 PUSH1 0x1 PUSH1 0x0 SWAP1 SLOAD SWAP1 PUSH2 0x100 EXP SWAP1 DIV PUSH20 0xFFFFFFFFFFFFFFFFFFFFFFFFFFFFFFFFFFFFFFFF AND PUSH20 0xFFFFFFFFFFFFFFFFFFFFFFFFFFFFFFFFFFFFFFFF AND PUSH4 0xC96877A2 PUSH1 0x40 MLOAD DUP2 PUSH4 0xFFFFFFFF AND PUSH1 0xE0 SHL DUP2 MSTORE PUSH1 0x4 ADD PUSH1 0x20 PUSH1 0x40 MLOAD DUP1 DUP4 SUB DUP2 DUP7 DUP1 EXTCODESIZE ISZERO DUP1 ISZERO PUSH2 0x583 JUMPI PUSH1 0x0 DUP1 REVERT JUMPDEST POP GAS STATICCALL ISZERO DUP1 ISZERO PUSH2 0x597 JUMPI RETURNDATASIZE PUSH1 0x0 DUP1 RETURNDATACOPY RETURNDATASIZE PUSH1 0x0 REVERT JUMPDEST POP POP POP POP PUSH1 0x40 MLOAD RETURNDATASIZE PUSH1 0x20 DUP2 LT ISZERO PUSH2 0x5AD JUMPI PUSH1 0x0 DUP1 REVERT JUMPDEST DUP2 ADD SWAP1 DUP1 DUP1 MLOAD SWAP1 PUSH1 0x20 ADD SWAP1 SWAP3 SWAP2 SWAP1 POP POP POP GT ISZERO PUSH2 0x5F0 JUMPI PUSH2 0x5ED PUSH2 0x3E8 PUSH2 0x5DF PUSH1 0x5 SLOAD DUP6 PUSH2 0x1F80 SWAP1 SWAP2 SWAP1 PUSH4 0xFFFFFFFF AND JUMP JUMPDEST PUSH2 0x2006 SWAP1 SWAP2 SWAP1 PUSH4 0xFFFFFFFF AND JUMP JUMPDEST SWAP1 POP JUMPDEST PUSH1 0x0 PUSH2 0x617 DUP3 PUSH2 0x609 DUP7 DUP7 PUSH2 0x208F SWAP1 SWAP2 SWAP1 PUSH4 0xFFFFFFFF AND JUMP JUMPDEST PUSH2 0x2117 SWAP1 SWAP2 SWAP1 PUSH4 0xFFFFFFFF AND JUMP JUMPDEST SWAP1 POP PUSH1 0x2 PUSH1 0x0 SWAP1 SLOAD SWAP1 PUSH2 0x100 EXP SWAP1 DIV PUSH20 0xFFFFFFFFFFFFFFFFFFFFFFFFFFFFFFFFFFFFFFFF AND PUSH20 0xFFFFFFFFFFFFFFFFFFFFFFFFFFFFFFFFFFFFFFFF AND PUSH4 0x751CFD5D CALLER DUP4 PUSH1 0x40 MLOAD DUP4 PUSH4 0xFFFFFFFF AND PUSH1 0xE0 SHL DUP2 MSTORE PUSH1 0x4 ADD DUP1 DUP4 PUSH20 0xFFFFFFFFFFFFFFFFFFFFFFFFFFFFFFFFFFFFFFFF AND DUP2 MSTORE PUSH1 0x20 ADD DUP3 DUP2 MSTORE PUSH1 0x20 ADD SWAP3 POP POP POP PUSH1 0x0 PUSH1 0x40 MLOAD DUP1 DUP4 SUB DUP2 PUSH1 0x0 DUP8 DUP1 EXTCODESIZE ISZERO DUP1 ISZERO PUSH2 0x6AC JUMPI PUSH1 0x0 DUP1 REVERT JUMPDEST POP GAS CALL ISZERO DUP1 ISZERO PUSH2 0x6C0 JUMPI RETURNDATASIZE PUSH1 0x0 DUP1 RETURNDATACOPY RETURNDATASIZE PUSH1 0x0 REVERT JUMPDEST POP POP POP POP PUSH1 0x1 PUSH1 0x0 SWAP1 SLOAD SWAP1 PUSH2 0x100 EXP SWAP1 DIV PUSH20 0xFFFFFFFFFFFFFFFFFFFFFFFFFFFFFFFFFFFFFFFF AND PUSH20 0xFFFFFFFFFFFFFFFFFFFFFFFFFFFFFFFFFFFFFFFF AND PUSH4 0x6D69847D DUP3 PUSH1 0x40 MLOAD DUP3 PUSH4 0xFFFFFFFF AND PUSH1 0xE0 SHL DUP2 MSTORE PUSH1 0x4 ADD DUP1 DUP3 DUP2 MSTORE PUSH1 0x20 ADD SWAP2 POP POP PUSH1 0x0 PUSH1 0x40 MLOAD DUP1 DUP4 SUB DUP2 PUSH1 0x0 DUP8 DUP1 EXTCODESIZE ISZERO DUP1 ISZERO PUSH2 0x739 JUMPI PUSH1 0x0 DUP1 REVERT JUMPDEST POP GAS CALL ISZERO DUP1 ISZERO PUSH2 0x74D JUMPI RETURNDATASIZE PUSH1 0x0 DUP1 RETURNDATACOPY RETURNDATASIZE PUSH1 0x0 REVERT JUMPDEST POP POP POP POP PUSH1 0x0 DUP3 GT ISZERO PUSH2 0x7E8 JUMPI PUSH1 0x1 PUSH1 0x0 SWAP1 SLOAD SWAP1 PUSH2 0x100 EXP SWAP1 DIV PUSH20 0xFFFFFFFFFFFFFFFFFFFFFFFFFFFFFFFFFFFFFFFF AND PUSH20 0xFFFFFFFFFFFFFFFFFFFFFFFFFFFFFFFFFFFFFFFF AND PUSH4 0xF331A867 DUP4 PUSH1 0x40 MLOAD DUP3 PUSH4 0xFFFFFFFF AND PUSH1 0xE0 SHL DUP2 MSTORE PUSH1 0x4 ADD DUP1 DUP3 DUP2 MSTORE PUSH1 0x20 ADD SWAP2 POP POP PUSH1 0x0 PUSH1 0x40 MLOAD DUP1 DUP4 SUB DUP2 PUSH1 0x0 DUP8 DUP1 EXTCODESIZE ISZERO DUP1 ISZERO PUSH2 0x7CF JUMPI PUSH1 0x0 DUP1 REVERT JUMPDEST POP GAS CALL ISZERO DUP1 ISZERO PUSH2 0x7E3 JUMPI RETURNDATASIZE PUSH1 0x0 DUP1 RETURNDATACOPY RETURNDATASIZE PUSH1 0x0 REVERT JUMPDEST POP POP POP POP JUMPDEST PUSH32 0x5632E016B41E9B0CA62072624C56193AD6DEC6C3160BB3A67F52299EFB72D51A CALLER DUP3 DUP5 DUP8 PUSH1 0x40 MLOAD DUP1 DUP6 PUSH20 0xFFFFFFFFFFFFFFFFFFFFFFFFFFFFFFFFFFFFFFFF AND DUP2 MSTORE PUSH1 0x20 ADD DUP5 DUP2 MSTORE PUSH1 0x20 ADD DUP4 DUP2 MSTORE PUSH1 0x20 ADD DUP3 DUP2 MSTORE PUSH1 0x20 ADD SWAP5 POP POP POP POP POP PUSH1 0x40 MLOAD DUP1 SWAP2 SUB SWAP1 LOG1 POP POP POP POP POP POP JUMP JUMPDEST PUSH1 0x5 SLOAD DUP2 JUMP JUMPDEST PUSH1 0x4 SLOAD DUP2 JUMP JUMPDEST PUSH1 0x1 PUSH1 0x0 SWAP1 SLOAD SWAP1 PUSH2 0x100 EXP SWAP1 DIV PUSH20 0xFFFFFFFFFFFFFFFFFFFFFFFFFFFFFFFFFFFFFFFF AND DUP2 JUMP JUMPDEST PUSH1 0x2 PUSH1 0x0 SWAP1 SLOAD SWAP1 PUSH2 0x100 EXP SWAP1 DIV PUSH20 0xFFFFFFFFFFFFFFFFFFFFFFFFFFFFFFFFFFFFFFFF AND DUP2 JUMP JUMPDEST PUSH1 0x0 DUP1 PUSH1 0x1 PUSH1 0x0 SWAP1 SLOAD SWAP1 PUSH2 0x100 EXP SWAP1 DIV PUSH20 0xFFFFFFFFFFFFFFFFFFFFFFFFFFFFFFFFFFFFFFFF AND PUSH20 0xFFFFFFFFFFFFFFFFFFFFFFFFFFFFFFFFFFFFFFFF AND PUSH4 0x2945AC68 PUSH1 0x40 MLOAD DUP2 PUSH4 0xFFFFFFFF AND PUSH1 0xE0 SHL DUP2 MSTORE PUSH1 0x4 ADD PUSH1 0x20 PUSH1 0x40 MLOAD DUP1 DUP4 SUB DUP2 DUP7 DUP1 EXTCODESIZE ISZERO DUP1 ISZERO PUSH2 0x918 JUMPI PUSH1 0x0 DUP1 REVERT JUMPDEST POP GAS STATICCALL ISZERO DUP1 ISZERO PUSH2 0x92C JUMPI RETURNDATASIZE PUSH1 0x0 DUP1 RETURNDATACOPY RETURNDATASIZE PUSH1 0x0 REVERT JUMPDEST POP POP POP POP PUSH1 0x40 MLOAD RETURNDATASIZE PUSH1 0x20 DUP2 LT ISZERO PUSH2 0x942 JUMPI PUSH1 0x0 DUP1 REVERT JUMPDEST DUP2 ADD SWAP1 DUP1 DUP1 MLOAD SWAP1 PUSH1 0x20 ADD SWAP1 SWAP3 SWAP2 SWAP1 POP POP POP SWAP1 POP PUSH1 0x0 PUSH1 0x1 PUSH1 0x0 SWAP1 SLOAD SWAP1 PUSH2 0x100 EXP SWAP1 DIV PUSH20 0xFFFFFFFFFFFFFFFFFFFFFFFFFFFFFFFFFFFFFFFF AND PUSH20 0xFFFFFFFFFFFFFFFFFFFFFFFFFFFFFFFFFFFFFFFF AND PUSH4 0xE54DD98A PUSH1 0x40 MLOAD DUP2 PUSH4 0xFFFFFFFF AND PUSH1 0xE0 SHL DUP2 MSTORE PUSH1 0x4 ADD PUSH1 0x20 PUSH1 0x40 MLOAD DUP1 DUP4 SUB DUP2 DUP7 DUP1 EXTCODESIZE ISZERO DUP1 ISZERO PUSH2 0x9BF JUMPI PUSH1 0x0 DUP1 REVERT JUMPDEST POP GAS STATICCALL ISZERO DUP1 ISZERO PUSH2 0x9D3 JUMPI RETURNDATASIZE PUSH1 0x0 DUP1 RETURNDATACOPY RETURNDATASIZE PUSH1 0x0 REVERT JUMPDEST POP POP POP POP PUSH1 0x40 MLOAD RETURNDATASIZE PUSH1 0x20 DUP2 LT ISZERO PUSH2 0x9E9 JUMPI PUSH1 0x0 DUP1 REVERT JUMPDEST DUP2 ADD SWAP1 DUP1 DUP1 MLOAD SWAP1 PUSH1 0x20 ADD SWAP1 SWAP3 SWAP2 SWAP1 POP POP POP SWAP1 POP DUP4 ISZERO PUSH2 0xA2C JUMPI PUSH2 0xA29 PUSH2 0x3E8 PUSH2 0xA1B DUP5 DUP11 PUSH2 0x1F80 SWAP1 SWAP2 SWAP1 PUSH4 0xFFFFFFFF AND JUMP JUMPDEST PUSH2 0x2006 SWAP1 SWAP2 SWAP1 PUSH4 0xFFFFFFFF AND JUMP JUMPDEST SWAP3 POP JUMPDEST DUP5 DUP7 GT DUP1 ISZERO PUSH2 0xA3B JUMPI POP PUSH1 0x0 DUP2 GT JUMPDEST ISZERO PUSH2 0xAC6 JUMPI PUSH2 0xAC3 PUSH2 0xAB4 PUSH2 0xA5B PUSH2 0x3E8 DUP5 PUSH2 0x1F80 SWAP1 SWAP2 SWAP1 PUSH4 0xFFFFFFFF AND JUMP JUMPDEST PUSH2 0xAA6 PUSH2 0xA71 DUP10 DUP12 PUSH2 0x2117 SWAP1 SWAP2 SWAP1 PUSH4 0xFFFFFFFF AND JUMP JUMPDEST PUSH2 0xA98 PUSH2 0xA89 DUP9 PUSH2 0x3E8 PUSH2 0x2117 SWAP1 SWAP2 SWAP1 PUSH4 0xFFFFFFFF AND JUMP JUMPDEST DUP14 PUSH2 0x1F80 SWAP1 SWAP2 SWAP1 PUSH4 0xFFFFFFFF AND JUMP JUMPDEST PUSH2 0x1F80 SWAP1 SWAP2 SWAP1 PUSH4 0xFFFFFFFF AND JUMP JUMPDEST PUSH2 0x2006 SWAP1 SWAP2 SWAP1 PUSH4 0xFFFFFFFF AND JUMP JUMPDEST DUP5 PUSH2 0x208F SWAP1 SWAP2 SWAP1 PUSH4 0xFFFFFFFF AND JUMP JUMPDEST SWAP3 POP JUMPDEST POP POP SWAP5 SWAP4 POP POP POP POP JUMP JUMPDEST PUSH2 0xAD8 PUSH2 0x219A JUMP JUMPDEST PUSH20 0xFFFFFFFFFFFFFFFFFFFFFFFFFFFFFFFFFFFFFFFF AND PUSH2 0xAF6 PUSH2 0xC43 JUMP JUMPDEST PUSH20 0xFFFFFFFFFFFFFFFFFFFFFFFFFFFFFFFFFFFFFFFF AND EQ PUSH2 0xB7F JUMPI PUSH1 0x40 MLOAD PUSH32 0x8C379A000000000000000000000000000000000000000000000000000000000 DUP2 MSTORE PUSH1 0x4 ADD DUP1 DUP1 PUSH1 0x20 ADD DUP3 DUP2 SUB DUP3 MSTORE PUSH1 0x20 DUP2 MSTORE PUSH1 0x20 ADD DUP1 PUSH32 0x4F776E61626C653A2063616C6C6572206973206E6F7420746865206F776E6572 DUP2 MSTORE POP PUSH1 0x20 ADD SWAP2 POP POP PUSH1 0x40 MLOAD DUP1 SWAP2 SUB SWAP1 REVERT JUMPDEST PUSH1 0x0 PUSH20 0xFFFFFFFFFFFFFFFFFFFFFFFFFFFFFFFFFFFFFFFF AND PUSH1 0x0 DUP1 SLOAD SWAP1 PUSH2 0x100 EXP SWAP1 DIV PUSH20 0xFFFFFFFFFFFFFFFFFFFFFFFFFFFFFFFFFFFFFFFF AND PUSH20 0xFFFFFFFFFFFFFFFFFFFFFFFFFFFFFFFFFFFFFFFF AND PUSH32 0x8BE0079C531659141344CD1FD0A4F28419497F9722A3DAAFE3B4186F6B6457E0 PUSH1 0x40 MLOAD PUSH1 0x40 MLOAD DUP1 SWAP2 SUB SWAP1 LOG3 PUSH1 0x0 DUP1 PUSH1 0x0 PUSH2 0x100 EXP DUP2 SLOAD DUP2 PUSH20 0xFFFFFFFFFFFFFFFFFFFFFFFFFFFFFFFFFFFFFFFF MUL NOT AND SWAP1 DUP4 PUSH20 0xFFFFFFFFFFFFFFFFFFFFFFFFFFFFFFFFFFFFFFFF AND MUL OR SWAP1 SSTORE POP JUMP JUMPDEST PUSH2 0x3E8 DUP2 JUMP JUMPDEST PUSH1 0x0 DUP1 PUSH1 0x0 SWAP1 SLOAD SWAP1 PUSH2 0x100 EXP SWAP1 DIV PUSH20 0xFFFFFFFFFFFFFFFFFFFFFFFFFFFFFFFFFFFFFFFF AND SWAP1 POP SWAP1 JUMP JUMPDEST PUSH2 0xC74 PUSH2 0x1A06 JUMP JUMPDEST PUSH1 0x2 PUSH1 0x0 SWAP1 SLOAD SWAP1 PUSH2 0x100 EXP SWAP1 DIV PUSH20 0xFFFFFFFFFFFFFFFFFFFFFFFFFFFFFFFFFFFFFFFF AND PUSH20 0xFFFFFFFFFFFFFFFFFFFFFFFFFFFFFFFFFFFFFFFF AND PUSH4 0x70A08231 CALLER PUSH1 0x40 MLOAD DUP3 PUSH4 0xFFFFFFFF AND PUSH1 0xE0 SHL DUP2 MSTORE PUSH1 0x4 ADD DUP1 DUP3 PUSH20 0xFFFFFFFFFFFFFFFFFFFFFFFFFFFFFFFFFFFFFFFF AND DUP2 MSTORE PUSH1 0x20 ADD SWAP2 POP POP PUSH1 0x20 PUSH1 0x40 MLOAD DUP1 DUP4 SUB DUP2 DUP7 DUP1 EXTCODESIZE ISZERO DUP1 ISZERO PUSH2 0xCFD JUMPI PUSH1 0x0 DUP1 REVERT JUMPDEST POP GAS STATICCALL ISZERO DUP1 ISZERO PUSH2 0xD11 JUMPI RETURNDATASIZE PUSH1 0x0 DUP1 RETURNDATACOPY RETURNDATASIZE PUSH1 0x0 REVERT JUMPDEST POP POP POP POP PUSH1 0x40 MLOAD RETURNDATASIZE PUSH1 0x20 DUP2 LT ISZERO PUSH2 0xD27 JUMPI PUSH1 0x0 DUP1 REVERT JUMPDEST DUP2 ADD SWAP1 DUP1 DUP1 MLOAD SWAP1 PUSH1 0x20 ADD SWAP1 SWAP3 SWAP2 SWAP1 POP POP POP DUP2 GT ISZERO PUSH2 0xDAD JUMPI PUSH1 0x40 MLOAD PUSH32 0x8C379A000000000000000000000000000000000000000000000000000000000 DUP2 MSTORE PUSH1 0x4 ADD DUP1 DUP1 PUSH1 0x20 ADD DUP3 DUP2 SUB DUP3 MSTORE PUSH1 0x20 DUP2 MSTORE PUSH1 0x20 ADD DUP1 PUSH32 0x416D6F756E74206578636565647320617661696C61626C652062616C616E6365 DUP2 MSTORE POP PUSH1 0x20 ADD SWAP2 POP POP PUSH1 0x40 MLOAD DUP1 SWAP2 SUB SWAP1 REVERT JUMPDEST PUSH1 0x0 PUSH1 0x6 PUSH1 0x0 CALLER PUSH20 0xFFFFFFFFFFFFFFFFFFFFFFFFFFFFFFFFFFFFFFFF AND PUSH20 0xFFFFFFFFFFFFFFFFFFFFFFFFFFFFFFFFFFFFFFFF AND DUP2 MSTORE PUSH1 0x20 ADD SWAP1 DUP2 MSTORE PUSH1 0x20 ADD PUSH1 0x0 KECCAK256 SLOAD SWAP1 POP DUP1 DUP3 GT ISZERO PUSH2 0xE4A JUMPI PUSH1 0x40 MLOAD PUSH32 0x8C379A000000000000000000000000000000000000000000000000000000000 DUP2 MSTORE PUSH1 0x4 ADD DUP1 DUP1 PUSH1 0x20 ADD DUP3 DUP2 SUB DUP3 MSTORE PUSH1 0x2F DUP2 MSTORE PUSH1 0x20 ADD DUP1 PUSH2 0x21EA PUSH1 0x2F SWAP2 CODECOPY PUSH1 0x40 ADD SWAP2 POP POP PUSH1 0x40 MLOAD DUP1 SWAP2 SUB SWAP1 REVERT JUMPDEST PUSH1 0x0 DUP2 GT PUSH2 0xEC0 JUMPI PUSH1 0x40 MLOAD PUSH32 0x8C379A000000000000000000000000000000000000000000000000000000000 DUP2 MSTORE PUSH1 0x4 ADD DUP1 DUP1 PUSH1 0x20 ADD DUP3 DUP2 SUB DUP3 MSTORE PUSH1 0x1F DUP2 MSTORE PUSH1 0x20 ADD DUP1 PUSH32 0x546865726520617265206E6F20546F6B656E7320746F20726563686172676500 DUP2 MSTORE POP PUSH1 0x20 ADD SWAP2 POP POP PUSH1 0x40 MLOAD DUP1 SWAP2 SUB SWAP1 REVERT JUMPDEST PUSH1 0x0 PUSH1 0x1 PUSH1 0x0 SWAP1 SLOAD SWAP1 PUSH2 0x100 EXP SWAP1 DIV PUSH20 0xFFFFFFFFFFFFFFFFFFFFFFFFFFFFFFFFFFFFFFFF AND PUSH20 0xFFFFFFFFFFFFFFFFFFFFFFFFFFFFFFFFFFFFFFFF AND PUSH4 0xEFB5C2F3 CALLER PUSH1 0x40 MLOAD DUP3 PUSH4 0xFFFFFFFF AND PUSH1 0xE0 SHL DUP2 MSTORE PUSH1 0x4 ADD DUP1 DUP3 PUSH20 0xFFFFFFFFFFFFFFFFFFFFFFFFFFFFFFFFFFFFFFFF AND DUP2 MSTORE PUSH1 0x20 ADD SWAP2 POP POP PUSH1 0x20 PUSH1 0x40 MLOAD DUP1 DUP4 SUB DUP2 PUSH1 0x0 DUP8 DUP1 EXTCODESIZE ISZERO DUP1 ISZERO PUSH2 0xF4D JUMPI PUSH1 0x0 DUP1 REVERT JUMPDEST POP GAS CALL ISZERO DUP1 ISZERO PUSH2 0xF61 JUMPI RETURNDATASIZE PUSH1 0x0 DUP1 RETURNDATACOPY RETURNDATASIZE PUSH1 0x0 REVERT JUMPDEST POP POP POP POP PUSH1 0x40 MLOAD RETURNDATASIZE PUSH1 0x20 DUP2 LT ISZERO PUSH2 0xF77 JUMPI PUSH1 0x0 DUP1 REVERT JUMPDEST DUP2 ADD SWAP1 DUP1 DUP1 MLOAD SWAP1 PUSH1 0x20 ADD SWAP1 SWAP3 SWAP2 SWAP1 POP POP POP SWAP1 POP PUSH1 0x0 PUSH2 0x1074 DUP4 PUSH2 0x1066 PUSH1 0x1 PUSH1 0x0 SWAP1 SLOAD SWAP1 PUSH2 0x100 EXP SWAP1 DIV PUSH20 0xFFFFFFFFFFFFFFFFFFFFFFFFFFFFFFFFFFFFFFFF AND PUSH20 0xFFFFFFFFFFFFFFFFFFFFFFFFFFFFFFFFFFFFFFFF AND PUSH4 0x9F65FFB0 CALLER PUSH1 0x40 MLOAD DUP3 PUSH4 0xFFFFFFFF AND PUSH1 0xE0 SHL DUP2 MSTORE PUSH1 0x4 ADD DUP1 DUP3 PUSH20 0xFFFFFFFFFFFFFFFFFFFFFFFFFFFFFFFFFFFFFFFF AND DUP2 MSTORE PUSH1 0x20 ADD SWAP2 POP POP PUSH1 0x20 PUSH1 0x40 MLOAD DUP1 DUP4 SUB DUP2 DUP7 DUP1 EXTCODESIZE ISZERO DUP1 ISZERO PUSH2 0x101C JUMPI PUSH1 0x0 DUP1 REVERT JUMPDEST POP GAS STATICCALL ISZERO DUP1 ISZERO PUSH2 0x1030 JUMPI RETURNDATASIZE PUSH1 0x0 DUP1 RETURNDATACOPY RETURNDATASIZE PUSH1 0x0 REVERT JUMPDEST POP POP POP POP PUSH1 0x40 MLOAD RETURNDATASIZE PUSH1 0x20 DUP2 LT ISZERO PUSH2 0x1046 JUMPI PUSH1 0x0 DUP1 REVERT JUMPDEST DUP2 ADD SWAP1 DUP1 DUP1 MLOAD SWAP1 PUSH1 0x20 ADD SWAP1 SWAP3 SWAP2 SWAP1 POP POP POP DUP8 PUSH2 0x1F80 SWAP1 SWAP2 SWAP1 PUSH4 0xFFFFFFFF AND JUMP JUMPDEST PUSH2 0x2006 SWAP1 SWAP2 SWAP1 PUSH4 0xFFFFFFFF AND JUMP JUMPDEST SWAP1 POP PUSH1 0x2 PUSH1 0x0 SWAP1 SLOAD SWAP1 PUSH2 0x100 EXP SWAP1 DIV PUSH20 0xFFFFFFFFFFFFFFFFFFFFFFFFFFFFFFFFFFFFFFFF AND PUSH20 0xFFFFFFFFFFFFFFFFFFFFFFFFFFFFFFFFFFFFFFFF AND PUSH4 0x8F676B81 CALLER DUP7 PUSH1 0x40 MLOAD DUP4 PUSH4 0xFFFFFFFF AND PUSH1 0xE0 SHL DUP2 MSTORE PUSH1 0x4 ADD DUP1 DUP4 PUSH20 0xFFFFFFFFFFFFFFFFFFFFFFFFFFFFFFFFFFFFFFFF AND DUP2 MSTORE PUSH1 0x20 ADD DUP3 DUP2 MSTORE PUSH1 0x20 ADD SWAP3 POP POP POP PUSH1 0x0 PUSH1 0x40 MLOAD DUP1 DUP4 SUB DUP2 PUSH1 0x0 DUP8 DUP1 EXTCODESIZE ISZERO DUP1 ISZERO PUSH2 0x1109 JUMPI PUSH1 0x0 DUP1 REVERT JUMPDEST POP GAS CALL ISZERO DUP1 ISZERO PUSH2 0x111D JUMPI RETURNDATASIZE PUSH1 0x0 DUP1 RETURNDATACOPY RETURNDATASIZE PUSH1 0x0 REVERT JUMPDEST POP POP POP POP PUSH1 0x1 PUSH1 0x0 SWAP1 SLOAD SWAP1 PUSH2 0x100 EXP SWAP1 DIV PUSH20 0xFFFFFFFFFFFFFFFFFFFFFFFFFFFFFFFFFFFFFFFF AND PUSH20 0xFFFFFFFFFFFFFFFFFFFFFFFFFFFFFFFFFFFFFFFF AND PUSH4 0xDA3A5936 DUP6 PUSH1 0x40 MLOAD DUP3 PUSH4 0xFFFFFFFF AND PUSH1 0xE0 SHL DUP2 MSTORE PUSH1 0x4 ADD DUP1 DUP3 DUP2 MSTORE PUSH1 0x20 ADD SWAP2 POP POP PUSH1 0x0 PUSH1 0x40 MLOAD DUP1 DUP4 SUB DUP2 PUSH1 0x0 DUP8 DUP1 EXTCODESIZE ISZERO DUP1 ISZERO PUSH2 0x1196 JUMPI PUSH1 0x0 DUP1 REVERT JUMPDEST POP GAS CALL ISZERO DUP1 ISZERO PUSH2 0x11AA JUMPI RETURNDATASIZE PUSH1 0x0 DUP1 RETURNDATACOPY RETURNDATASIZE PUSH1 0x0 REVERT JUMPDEST POP POP POP POP PUSH1 0x1 PUSH1 0x0 SWAP1 SLOAD SWAP1 PUSH2 0x100 EXP SWAP1 DIV PUSH20 0xFFFFFFFFFFFFFFFFFFFFFFFFFFFFFFFFFFFFFFFF AND PUSH20 0xFFFFFFFFFFFFFFFFFFFFFFFFFFFFFFFFFFFFFFFF AND PUSH4 0x740C3495 CALLER PUSH2 0x1200 DUP6 DUP6 PUSH2 0x208F SWAP1 SWAP2 SWAP1 PUSH4 0xFFFFFFFF AND JUMP JUMPDEST DUP5 PUSH2 0x1214 DUP8 DUP11 PUSH2 0x208F SWAP1 SWAP2 SWAP1 PUSH4 0xFFFFFFFF AND JUMP JUMPDEST PUSH1 0x40 MLOAD DUP6 PUSH4 0xFFFFFFFF AND PUSH1 0xE0 SHL DUP2 MSTORE PUSH1 0x4 ADD DUP1 DUP6 PUSH20 0xFFFFFFFFFFFFFFFFFFFFFFFFFFFFFFFFFFFFFFFF AND DUP2 MSTORE PUSH1 0x20 ADD DUP5 DUP2 MSTORE PUSH1 0x20 ADD DUP4 DUP2 MSTORE PUSH1 0x20 ADD DUP3 DUP2 MSTORE PUSH1 0x20 ADD SWAP5 POP POP POP POP POP PUSH1 0x0 PUSH1 0x40 MLOAD DUP1 DUP4 SUB DUP2 PUSH1 0x0 DUP8 DUP1 EXTCODESIZE ISZERO DUP1 ISZERO PUSH2 0x1275 JUMPI PUSH1 0x0 DUP1 REVERT JUMPDEST POP GAS CALL ISZERO DUP1 ISZERO PUSH2 0x1289 JUMPI RETURNDATASIZE PUSH1 0x0 DUP1 RETURNDATACOPY RETURNDATASIZE PUSH1 0x0 REVERT JUMPDEST POP POP POP POP PUSH2 0x12DF DUP5 PUSH1 0x6 PUSH1 0x0 CALLER PUSH20 0xFFFFFFFFFFFFFFFFFFFFFFFFFFFFFFFFFFFFFFFF AND PUSH20 0xFFFFFFFFFFFFFFFFFFFFFFFFFFFFFFFFFFFFFFFF AND DUP2 MSTORE PUSH1 0x20 ADD SWAP1 DUP2 MSTORE PUSH1 0x20 ADD PUSH1 0x0 KECCAK256 SLOAD PUSH2 0x2117 SWAP1 SWAP2 SWAP1 PUSH4 0xFFFFFFFF AND JUMP JUMPDEST PUSH1 0x6 PUSH1 0x0 CALLER PUSH20 0xFFFFFFFFFFFFFFFFFFFFFFFFFFFFFFFFFFFFFFFF AND PUSH20 0xFFFFFFFFFFFFFFFFFFFFFFFFFFFFFFFFFFFFFFFF AND DUP2 MSTORE PUSH1 0x20 ADD SWAP1 DUP2 MSTORE PUSH1 0x20 ADD PUSH1 0x0 KECCAK256 DUP2 SWAP1 SSTORE POP PUSH32 0xE1CC0AA27606726A365E40C503310731E7B9E139E1DEB0FB16433C0B92CD161D CALLER DUP3 DUP7 DUP6 PUSH1 0x40 MLOAD DUP1 DUP6 PUSH20 0xFFFFFFFFFFFFFFFFFFFFFFFFFFFFFFFFFFFFFFFF AND DUP2 MSTORE PUSH1 0x20 ADD DUP5 DUP2 MSTORE PUSH1 0x20 ADD DUP4 DUP2 MSTORE PUSH1 0x20 ADD DUP3 DUP2 MSTORE PUSH1 0x20 ADD SWAP5 POP POP POP POP POP PUSH1 0x40 MLOAD DUP1 SWAP2 SUB SWAP1 LOG1 POP POP POP POP JUMP JUMPDEST PUSH2 0x1395 PUSH2 0x219A JUMP JUMPDEST PUSH20 0xFFFFFFFFFFFFFFFFFFFFFFFFFFFFFFFFFFFFFFFF AND PUSH2 0x13B3 PUSH2 0xC43 JUMP JUMPDEST PUSH20 0xFFFFFFFFFFFFFFFFFFFFFFFFFFFFFFFFFFFFFFFF AND EQ PUSH2 0x143C JUMPI PUSH1 0x40 MLOAD PUSH32 0x8C379A000000000000000000000000000000000000000000000000000000000 DUP2 MSTORE PUSH1 0x4 ADD DUP1 DUP1 PUSH1 0x20 ADD DUP3 DUP2 SUB DUP3 MSTORE PUSH1 0x20 DUP2 MSTORE PUSH1 0x20 ADD DUP1 PUSH32 0x4F776E61626C653A2063616C6C6572206973206E6F7420746865206F776E6572 DUP2 MSTORE POP PUSH1 0x20 ADD SWAP2 POP POP PUSH1 0x40 MLOAD DUP1 SWAP2 SUB SWAP1 REVERT JUMPDEST PUSH1 0x1 PUSH1 0x0 SWAP1 SLOAD SWAP1 PUSH2 0x100 EXP SWAP1 DIV PUSH20 0xFFFFFFFFFFFFFFFFFFFFFFFFFFFFFFFFFFFFFFFF AND PUSH20 0xFFFFFFFFFFFFFFFFFFFFFFFFFFFFFFFFFFFFFFFF AND PUSH4 0x78E104DA PUSH1 0x40 MLOAD DUP2 PUSH4 0xFFFFFFFF AND PUSH1 0xE0 SHL DUP2 MSTORE PUSH1 0x4 ADD PUSH1 0x20 PUSH1 0x40 MLOAD DUP1 DUP4 SUB DUP2 DUP7 DUP1 EXTCODESIZE ISZERO DUP1 ISZERO PUSH2 0x14A4 JUMPI PUSH1 0x0 DUP1 REVERT JUMPDEST POP GAS STATICCALL ISZERO DUP1 ISZERO PUSH2 0x14B8 JUMPI RETURNDATASIZE PUSH1 0x0 DUP1 RETURNDATACOPY RETURNDATASIZE PUSH1 0x0 REVERT JUMPDEST POP POP POP POP PUSH1 0x40 MLOAD RETURNDATASIZE PUSH1 0x20 DUP2 LT ISZERO PUSH2 0x14CE JUMPI PUSH1 0x0 DUP1 REVERT JUMPDEST DUP2 ADD SWAP1 DUP1 DUP1 MLOAD SWAP1 PUSH1 0x20 ADD SWAP1 SWAP3 SWAP2 SWAP1 POP POP POP DUP2 GT ISZERO PUSH2 0x1554 JUMPI PUSH1 0x40 MLOAD PUSH32 0x8C379A000000000000000000000000000000000000000000000000000000000 DUP2 MSTORE PUSH1 0x4 ADD DUP1 DUP1 PUSH1 0x20 ADD DUP3 DUP2 SUB DUP3 MSTORE PUSH1 0xD DUP2 MSTORE PUSH1 0x20 ADD DUP1 PUSH32 0x496E76616C69642076616C756500000000000000000000000000000000000000 DUP2 MSTORE POP PUSH1 0x20 ADD SWAP2 POP POP PUSH1 0x40 MLOAD DUP1 SWAP2 SUB SWAP1 REVERT JUMPDEST DUP1 PUSH1 0x5 DUP2 SWAP1 SSTORE POP POP JUMP JUMPDEST PUSH1 0x6 PUSH1 0x20 MSTORE DUP1 PUSH1 0x0 MSTORE PUSH1 0x40 PUSH1 0x0 KECCAK256 PUSH1 0x0 SWAP2 POP SWAP1 POP SLOAD DUP2 JUMP JUMPDEST PUSH2 0x157E PUSH2 0x219A JUMP JUMPDEST PUSH20 0xFFFFFFFFFFFFFFFFFFFFFFFFFFFFFFFFFFFFFFFF AND PUSH2 0x159C PUSH2 0xC43 JUMP JUMPDEST PUSH20 0xFFFFFFFFFFFFFFFFFFFFFFFFFFFFFFFFFFFFFFFF AND EQ PUSH2 0x1625 JUMPI PUSH1 0x40 MLOAD PUSH32 0x8C379A000000000000000000000000000000000000000000000000000000000 DUP2 MSTORE PUSH1 0x4 ADD DUP1 DUP1 PUSH1 0x20 ADD DUP3 DUP2 SUB DUP3 MSTORE PUSH1 0x20 DUP2 MSTORE PUSH1 0x20 ADD DUP1 PUSH32 0x4F776E61626C653A2063616C6C6572206973206E6F7420746865206F776E6572 DUP2 MSTORE POP PUSH1 0x20 ADD SWAP2 POP POP PUSH1 0x40 MLOAD DUP1 SWAP2 SUB SWAP1 REVERT JUMPDEST PUSH1 0x0 PUSH20 0xFFFFFFFFFFFFFFFFFFFFFFFFFFFFFFFFFFFFFFFF AND DUP2 PUSH20 0xFFFFFFFFFFFFFFFFFFFFFFFFFFFFFFFFFFFFFFFF AND EQ ISZERO PUSH2 0x16AB JUMPI PUSH1 0x40 MLOAD PUSH32 0x8C379A000000000000000000000000000000000000000000000000000000000 DUP2 MSTORE PUSH1 0x4 ADD DUP1 DUP1 PUSH1 0x20 ADD DUP3 DUP2 SUB DUP3 MSTORE PUSH1 0x26 DUP2 MSTORE PUSH1 0x20 ADD DUP1 PUSH2 0x21A3 PUSH1 0x26 SWAP2 CODECOPY PUSH1 0x40 ADD SWAP2 POP POP PUSH1 0x40 MLOAD DUP1 SWAP2 SUB SWAP1 REVERT JUMPDEST DUP1 PUSH20 0xFFFFFFFFFFFFFFFFFFFFFFFFFFFFFFFFFFFFFFFF AND PUSH1 0x0 DUP1 SLOAD SWAP1 PUSH2 0x100 EXP SWAP1 DIV PUSH20 0xFFFFFFFFFFFFFFFFFFFFFFFFFFFFFFFFFFFFFFFF AND PUSH20 0xFFFFFFFFFFFFFFFFFFFFFFFFFFFFFFFFFFFFFFFF AND PUSH32 0x8BE0079C531659141344CD1FD0A4F28419497F9722A3DAAFE3B4186F6B6457E0 PUSH1 0x40 MLOAD PUSH1 0x40 MLOAD DUP1 SWAP2 SUB SWAP1 LOG3 DUP1 PUSH1 0x0 DUP1 PUSH2 0x100 EXP DUP2 SLOAD DUP2 PUSH20 0xFFFFFFFFFFFFFFFFFFFFFFFFFFFFFFFFFFFFFFFF MUL NOT AND SWAP1 DUP4 PUSH20 0xFFFFFFFFFFFFFFFFFFFFFFFFFFFFFFFFFFFFFFFF AND MUL OR SWAP1 SSTORE POP POP JUMP JUMPDEST PUSH2 0x1770 PUSH2 0x219A JUMP JUMPDEST PUSH20 0xFFFFFFFFFFFFFFFFFFFFFFFFFFFFFFFFFFFFFFFF AND PUSH2 0x178E PUSH2 0xC43 JUMP JUMPDEST PUSH20 0xFFFFFFFFFFFFFFFFFFFFFFFFFFFFFFFFFFFFFFFF AND EQ PUSH2 0x1817 JUMPI PUSH1 0x40 MLOAD PUSH32 0x8C379A000000000000000000000000000000000000000000000000000000000 DUP2 MSTORE PUSH1 0x4 ADD DUP1 DUP1 PUSH1 0x20 ADD DUP3 DUP2 SUB DUP3 MSTORE PUSH1 0x20 DUP2 MSTORE PUSH1 0x20 ADD DUP1 PUSH32 0x4F776E61626C653A2063616C6C6572206973206E6F7420746865206F776E6572 DUP2 MSTORE POP PUSH1 0x20 ADD SWAP2 POP POP PUSH1 0x40 MLOAD DUP1 SWAP2 SUB SWAP1 REVERT JUMPDEST PUSH1 0x0 PUSH1 0x3 SLOAD SWAP1 POP PUSH1 0x0 DUP2 GT ISZERO PUSH2 0x189D JUMPI DUP1 TIMESTAMP LT PUSH2 0x189C JUMPI PUSH1 0x40 MLOAD PUSH32 0x8C379A000000000000000000000000000000000000000000000000000000000 DUP2 MSTORE PUSH1 0x4 ADD DUP1 DUP1 PUSH1 0x20 ADD DUP3 DUP2 SUB DUP3 MSTORE PUSH1 0x1E DUP2 MSTORE PUSH1 0x20 ADD DUP1 PUSH32 0x4C61756E636820646174652068617320616C7265616479207061737365640000 DUP2 MSTORE POP PUSH1 0x20 ADD SWAP2 POP POP PUSH1 0x40 MLOAD DUP1 SWAP2 SUB SWAP1 REVERT JUMPDEST JUMPDEST DUP2 TIMESTAMP LT PUSH2 0x18F5 JUMPI PUSH1 0x40 MLOAD PUSH32 0x8C379A000000000000000000000000000000000000000000000000000000000 DUP2 MSTORE PUSH1 0x4 ADD DUP1 DUP1 PUSH1 0x20 ADD DUP3 DUP2 SUB DUP3 MSTORE PUSH1 0x27 DUP2 MSTORE PUSH1 0x20 ADD DUP1 PUSH2 0x2219 PUSH1 0x27 SWAP2 CODECOPY PUSH1 0x40 ADD SWAP2 POP POP PUSH1 0x40 MLOAD DUP1 SWAP2 SUB SWAP1 REVERT JUMPDEST DUP2 PUSH1 0x3 DUP2 SWAP1 SSTORE POP PUSH1 0x0 PUSH2 0x19B3 PUSH1 0x1 PUSH1 0x0 SWAP1 SLOAD SWAP1 PUSH2 0x100 EXP SWAP1 DIV PUSH20 0xFFFFFFFFFFFFFFFFFFFFFFFFFFFFFFFFFFFFFFFF AND PUSH20 0xFFFFFFFFFFFFFFFFFFFFFFFFFFFFFFFFFFFFFFFF AND PUSH4 0x3F2B437D PUSH1 0x40 MLOAD DUP2 PUSH4 0xFFFFFFFF AND PUSH1 0xE0 SHL DUP2 MSTORE PUSH1 0x4 ADD PUSH1 0x20 PUSH1 0x40 MLOAD DUP1 DUP4 SUB DUP2 DUP7 DUP1 EXTCODESIZE ISZERO DUP1 ISZERO PUSH2 0x1969 JUMPI PUSH1 0x0 DUP1 REVERT JUMPDEST POP GAS STATICCALL ISZERO DUP1 ISZERO PUSH2 0x197D JUMPI RETURNDATASIZE PUSH1 0x0 DUP1 RETURNDATACOPY RETURNDATASIZE PUSH1 0x0 REVERT JUMPDEST POP POP POP POP PUSH1 0x40 MLOAD RETURNDATASIZE PUSH1 0x20 DUP2 LT ISZERO PUSH2 0x1993 JUMPI PUSH1 0x0 DUP1 REVERT JUMPDEST DUP2 ADD SWAP1 DUP1 DUP1 MLOAD SWAP1 PUSH1 0x20 ADD SWAP1 SWAP3 SWAP2 SWAP1 POP POP POP DUP5 PUSH2 0x208F SWAP1 SWAP2 SWAP1 PUSH4 0xFFFFFFFF AND JUMP JUMPDEST SWAP1 POP DUP1 PUSH1 0x4 DUP2 SWAP1 SSTORE POP PUSH32 0x55D35B4292DA305A0DB36555001D795D3DFC81BAE423612F33AFC0869D36FEF6 DUP4 DUP3 PUSH1 0x40 MLOAD DUP1 DUP4 DUP2 MSTORE PUSH1 0x20 ADD DUP3 DUP2 MSTORE PUSH1 0x20 ADD SWAP3 POP POP POP PUSH1 0x40 MLOAD DUP1 SWAP2 SUB SWAP1 LOG1 POP POP POP JUMP JUMPDEST PUSH1 0x3 SLOAD DUP2 JUMP JUMPDEST PUSH1 0x1 PUSH1 0x0 SWAP1 SLOAD SWAP1 PUSH2 0x100 EXP SWAP1 DIV PUSH20 0xFFFFFFFFFFFFFFFFFFFFFFFFFFFFFFFFFFFFFFFF AND PUSH20 0xFFFFFFFFFFFFFFFFFFFFFFFFFFFFFFFFFFFFFFFF AND PUSH4 0x1F93ABD4 PUSH1 0x40 MLOAD DUP2 PUSH4 0xFFFFFFFF AND PUSH1 0xE0 SHL DUP2 MSTORE PUSH1 0x4 ADD PUSH1 0x0 PUSH1 0x40 MLOAD DUP1 DUP4 SUB DUP2 DUP7 DUP1 EXTCODESIZE ISZERO DUP1 ISZERO PUSH2 0x1A6E JUMPI PUSH1 0x0 DUP1 REVERT JUMPDEST POP GAS STATICCALL ISZERO DUP1 ISZERO PUSH2 0x1A82 JUMPI RETURNDATASIZE PUSH1 0x0 DUP1 RETURNDATACOPY RETURNDATASIZE PUSH1 0x0 REVERT JUMPDEST POP POP POP POP JUMP JUMPDEST PUSH1 0x0 DUP1 PUSH1 0x4 SLOAD SWAP1 POP PUSH1 0x0 PUSH1 0x1 PUSH1 0x0 SWAP1 SLOAD SWAP1 PUSH2 0x100 EXP SWAP1 DIV PUSH20 0xFFFFFFFFFFFFFFFFFFFFFFFFFFFFFFFFFFFFFFFF AND PUSH20 0xFFFFFFFFFFFFFFFFFFFFFFFFFFFFFFFFFFFFFFFF AND PUSH4 0x7561EA9A DUP7 PUSH1 0x40 MLOAD DUP3 PUSH4 0xFFFFFFFF AND PUSH1 0xE0 SHL DUP2 MSTORE PUSH1 0x4 ADD DUP1 DUP3 PUSH20 0xFFFFFFFFFFFFFFFFFFFFFFFFFFFFFFFFFFFFFFFF AND DUP2 MSTORE PUSH1 0x20 ADD SWAP2 POP POP PUSH1 0x20 PUSH1 0x40 MLOAD DUP1 DUP4 SUB DUP2 DUP7 DUP1 EXTCODESIZE ISZERO DUP1 ISZERO PUSH2 0x1B1B JUMPI PUSH1 0x0 DUP1 REVERT JUMPDEST POP GAS STATICCALL ISZERO DUP1 ISZERO PUSH2 0x1B2F JUMPI RETURNDATASIZE PUSH1 0x0 DUP1 RETURNDATACOPY RETURNDATASIZE PUSH1 0x0 REVERT JUMPDEST POP POP POP POP PUSH1 0x40 MLOAD RETURNDATASIZE PUSH1 0x20 DUP2 LT ISZERO PUSH2 0x1B45 JUMPI PUSH1 0x0 DUP1 REVERT JUMPDEST DUP2 ADD SWAP1 DUP1 DUP1 MLOAD SWAP1 PUSH1 0x20 ADD SWAP1 SWAP3 SWAP2 SWAP1 POP POP POP SWAP1 POP PUSH1 0x0 PUSH1 0x1 PUSH1 0x0 SWAP1 SLOAD SWAP1 PUSH2 0x100 EXP SWAP1 DIV PUSH20 0xFFFFFFFFFFFFFFFFFFFFFFFFFFFFFFFFFFFFFFFF AND PUSH20 0xFFFFFFFFFFFFFFFFFFFFFFFFFFFFFFFFFFFFFFFF AND PUSH4 0x9F65FFB0 DUP8 PUSH1 0x40 MLOAD DUP3 PUSH4 0xFFFFFFFF AND PUSH1 0xE0 SHL DUP2 MSTORE PUSH1 0x4 ADD DUP1 DUP3 PUSH20 0xFFFFFFFFFFFFFFFFFFFFFFFFFFFFFFFFFFFFFFFF AND DUP2 MSTORE PUSH1 0x20 ADD SWAP2 POP POP PUSH1 0x20 PUSH1 0x40 MLOAD DUP1 DUP4 SUB DUP2 DUP7 DUP1 EXTCODESIZE ISZERO DUP1 ISZERO PUSH2 0x1BE3 JUMPI PUSH1 0x0 DUP1 REVERT JUMPDEST POP GAS STATICCALL ISZERO DUP1 ISZERO PUSH2 0x1BF7 JUMPI RETURNDATASIZE PUSH1 0x0 DUP1 RETURNDATACOPY RETURNDATASIZE PUSH1 0x0 REVERT JUMPDEST POP POP POP POP PUSH1 0x40 MLOAD RETURNDATASIZE PUSH1 0x20 DUP2 LT ISZERO PUSH2 0x1C0D JUMPI PUSH1 0x0 DUP1 REVERT JUMPDEST DUP2 ADD SWAP1 DUP1 DUP1 MLOAD SWAP1 PUSH1 0x20 ADD SWAP1 SWAP3 SWAP2 SWAP1 POP POP POP SWAP1 POP PUSH1 0x0 PUSH2 0x1CD7 PUSH1 0x1 PUSH1 0x0 SWAP1 SLOAD SWAP1 PUSH2 0x100 EXP SWAP1 DIV PUSH20 0xFFFFFFFFFFFFFFFFFFFFFFFFFFFFFFFFFFFFFFFF AND PUSH20 0xFFFFFFFFFFFFFFFFFFFFFFFFFFFFFFFFFFFFFFFF AND PUSH4 0xE54DD98A PUSH1 0x40 MLOAD DUP2 PUSH4 0xFFFFFFFF AND PUSH1 0xE0 SHL DUP2 MSTORE PUSH1 0x4 ADD PUSH1 0x20 PUSH1 0x40 MLOAD DUP1 DUP4 SUB DUP2 DUP7 DUP1 EXTCODESIZE ISZERO DUP1 ISZERO PUSH2 0x1C8D JUMPI PUSH1 0x0 DUP1 REVERT JUMPDEST POP GAS STATICCALL ISZERO DUP1 ISZERO PUSH2 0x1CA1 JUMPI RETURNDATASIZE PUSH1 0x0 DUP1 RETURNDATACOPY RETURNDATASIZE PUSH1 0x0 REVERT JUMPDEST POP POP POP POP PUSH1 0x40 MLOAD RETURNDATASIZE PUSH1 0x20 DUP2 LT ISZERO PUSH2 0x1CB7 JUMPI PUSH1 0x0 DUP1 REVERT JUMPDEST DUP2 ADD SWAP1 DUP1 DUP1 MLOAD SWAP1 PUSH1 0x20 ADD SWAP1 SWAP3 SWAP2 SWAP1 POP POP POP DUP6 PUSH2 0x208F SWAP1 SWAP2 SWAP1 PUSH4 0xFFFFFFFF AND JUMP JUMPDEST SWAP1 POP PUSH1 0x0 PUSH1 0x6 PUSH1 0x0 DUP10 PUSH20 0xFFFFFFFFFFFFFFFFFFFFFFFFFFFFFFFFFFFFFFFF AND PUSH20 0xFFFFFFFFFFFFFFFFFFFFFFFFFFFFFFFFFFFFFFFF AND DUP2 MSTORE PUSH1 0x20 ADD SWAP1 DUP2 MSTORE PUSH1 0x20 ADD PUSH1 0x0 KECCAK256 SLOAD SWAP1 POP DUP2 DUP8 LT PUSH2 0x1D50 JUMPI PUSH2 0x1D49 DUP2 PUSH2 0x1D3B DUP6 DUP8 PUSH2 0x208F SWAP1 SWAP2 SWAP1 PUSH4 0xFFFFFFFF AND JUMP JUMPDEST PUSH2 0x2117 SWAP1 SWAP2 SWAP1 PUSH4 0xFFFFFFFF AND JUMP JUMPDEST SWAP6 POP PUSH2 0x1E6A JUMP JUMPDEST PUSH1 0x0 DUP4 GT ISZERO PUSH2 0x1E3E JUMPI PUSH1 0x0 PUSH1 0x1 PUSH1 0x0 SWAP1 SLOAD SWAP1 PUSH2 0x100 EXP SWAP1 DIV PUSH20 0xFFFFFFFFFFFFFFFFFFFFFFFFFFFFFFFFFFFFFFFF AND PUSH20 0xFFFFFFFFFFFFFFFFFFFFFFFFFFFFFFFFFFFFFFFF AND PUSH4 0x305E2DAF DUP11 PUSH1 0x40 MLOAD DUP3 PUSH4 0xFFFFFFFF AND PUSH1 0xE0 SHL DUP2 MSTORE PUSH1 0x4 ADD DUP1 DUP3 PUSH20 0xFFFFFFFFFFFFFFFFFFFFFFFFFFFFFFFFFFFFFFFF AND DUP2 MSTORE PUSH1 0x20 ADD SWAP2 POP POP PUSH1 0x20 PUSH1 0x40 MLOAD DUP1 DUP4 SUB DUP2 DUP7 DUP1 EXTCODESIZE ISZERO DUP1 ISZERO PUSH2 0x1DE4 JUMPI PUSH1 0x0 DUP1 REVERT JUMPDEST POP GAS STATICCALL ISZERO DUP1 ISZERO PUSH2 0x1DF8 JUMPI RETURNDATASIZE PUSH1 0x0 DUP1 RETURNDATACOPY RETURNDATASIZE PUSH1 0x0 REVERT JUMPDEST POP POP POP POP PUSH1 0x40 MLOAD RETURNDATASIZE PUSH1 0x20 DUP2 LT ISZERO PUSH2 0x1E0E JUMPI PUSH1 0x0 DUP1 REVERT JUMPDEST DUP2 ADD SWAP1 DUP1 DUP1 MLOAD SWAP1 PUSH1 0x20 ADD SWAP1 SWAP3 SWAP2 SWAP1 POP POP POP SWAP1 POP DUP6 DUP2 LT ISZERO PUSH2 0x1E2D JUMPI DUP6 SWAP1 POP JUMPDEST PUSH2 0x1E3A DUP5 DUP10 DUP4 PUSH1 0x0 PUSH2 0x8AD JUMP JUMPDEST SWAP7 POP POP JUMPDEST PUSH1 0x0 DUP5 GT ISZERO PUSH2 0x1E69 JUMPI PUSH2 0x1E66 PUSH2 0x1E57 DUP6 DUP10 DUP9 PUSH1 0x1 PUSH2 0x8AD JUMP JUMPDEST DUP8 PUSH2 0x208F SWAP1 SWAP2 SWAP1 PUSH4 0xFFFFFFFF AND JUMP JUMPDEST SWAP6 POP JUMPDEST JUMPDEST PUSH2 0x1E7D DUP7 DUP3 PUSH2 0x208F SWAP1 SWAP2 SWAP1 PUSH4 0xFFFFFFFF AND JUMP JUMPDEST PUSH1 0x6 PUSH1 0x0 DUP11 PUSH20 0xFFFFFFFFFFFFFFFFFFFFFFFFFFFFFFFFFFFFFFFF AND PUSH20 0xFFFFFFFFFFFFFFFFFFFFFFFFFFFFFFFFFFFFFFFF AND DUP2 MSTORE PUSH1 0x20 ADD SWAP1 DUP2 MSTORE PUSH1 0x20 ADD PUSH1 0x0 KECCAK256 DUP2 SWAP1 SSTORE POP PUSH1 0x0 DUP7 GT ISZERO PUSH2 0x1F75 JUMPI PUSH1 0x1 PUSH1 0x0 SWAP1 SLOAD SWAP1 PUSH2 0x100 EXP SWAP1 DIV PUSH20 0xFFFFFFFFFFFFFFFFFFFFFFFFFFFFFFFFFFFFFFFF AND PUSH20 0xFFFFFFFFFFFFFFFFFFFFFFFFFFFFFFFFFFFFFFFF AND PUSH4 0x82AF7D39 DUP10 DUP9 PUSH1 0x40 MLOAD DUP4 PUSH4 0xFFFFFFFF AND PUSH1 0xE0 SHL DUP2 MSTORE PUSH1 0x4 ADD DUP1 DUP4 PUSH20 0xFFFFFFFFFFFFFFFFFFFFFFFFFFFFFFFFFFFFFFFF AND DUP2 MSTORE PUSH1 0x20 ADD DUP3 DUP2 MSTORE PUSH1 0x20 ADD SWAP3 POP POP POP PUSH1 0x0 PUSH1 0x40 MLOAD DUP1 DUP4 SUB DUP2 PUSH1 0x0 DUP8 DUP1 EXTCODESIZE ISZERO DUP1 ISZERO PUSH2 0x1F5C JUMPI PUSH1 0x0 DUP1 REVERT JUMPDEST POP GAS CALL ISZERO DUP1 ISZERO PUSH2 0x1F70 JUMPI RETURNDATASIZE PUSH1 0x0 DUP1 RETURNDATACOPY RETURNDATASIZE PUSH1 0x0 REVERT JUMPDEST POP POP POP POP JUMPDEST POP POP POP POP POP SWAP3 SWAP2 POP POP JUMP JUMPDEST PUSH1 0x0 DUP1 DUP4 EQ ISZERO PUSH2 0x1F93 JUMPI PUSH1 0x0 SWAP1 POP PUSH2 0x2000 JUMP JUMPDEST PUSH1 0x0 DUP3 DUP5 MUL SWAP1 POP DUP3 DUP5 DUP3 DUP2 PUSH2 0x1FA4 JUMPI INVALID JUMPDEST DIV EQ PUSH2 0x1FFB JUMPI PUSH1 0x40 MLOAD PUSH32 0x8C379A000000000000000000000000000000000000000000000000000000000 DUP2 MSTORE PUSH1 0x4 ADD DUP1 DUP1 PUSH1 0x20 ADD DUP3 DUP2 SUB DUP3 MSTORE PUSH1 0x21 DUP2 MSTORE PUSH1 0x20 ADD DUP1 PUSH2 0x21C9 PUSH1 0x21 SWAP2 CODECOPY PUSH1 0x40 ADD SWAP2 POP POP PUSH1 0x40 MLOAD DUP1 SWAP2 SUB SWAP1 REVERT JUMPDEST DUP1 SWAP2 POP POP JUMPDEST SWAP3 SWAP2 POP POP JUMP JUMPDEST PUSH1 0x0 DUP1 DUP3 GT PUSH2 0x207D JUMPI PUSH1 0x40 MLOAD PUSH32 0x8C379A000000000000000000000000000000000000000000000000000000000 DUP2 MSTORE PUSH1 0x4 ADD DUP1 DUP1 PUSH1 0x20 ADD DUP3 DUP2 SUB DUP3 MSTORE PUSH1 0x1A DUP2 MSTORE PUSH1 0x20 ADD DUP1 PUSH32 0x536166654D6174683A206469766973696F6E206279207A65726F000000000000 DUP2 MSTORE POP PUSH1 0x20 ADD SWAP2 POP POP PUSH1 0x40 MLOAD DUP1 SWAP2 SUB SWAP1 REVERT JUMPDEST DUP2 DUP4 DUP2 PUSH2 0x2086 JUMPI INVALID JUMPDEST DIV SWAP1 POP SWAP3 SWAP2 POP POP JUMP JUMPDEST PUSH1 0x0 DUP1 DUP3 DUP5 ADD SWAP1 POP DUP4 DUP2 LT ISZERO PUSH2 0x210D JUMPI PUSH1 0x40 MLOAD PUSH32 0x8C379A000000000000000000000000000000000000000000000000000000000 DUP2 MSTORE PUSH1 0x4 ADD DUP1 DUP1 PUSH1 0x20 ADD DUP3 DUP2 SUB DUP3 MSTORE PUSH1 0x1B DUP2 MSTORE PUSH1 0x20 ADD DUP1 PUSH32 0x536166654D6174683A206164646974696F6E206F766572666C6F770000000000 DUP2 MSTORE POP PUSH1 0x20 ADD SWAP2 POP POP PUSH1 0x40 MLOAD DUP1 SWAP2 SUB SWAP1 REVERT JUMPDEST DUP1 SWAP2 POP POP SWAP3 SWAP2 POP POP JUMP JUMPDEST PUSH1 0x0 DUP3 DUP3 GT ISZERO PUSH2 0x218F JUMPI PUSH1 0x40 MLOAD PUSH32 0x8C379A000000000000000000000000000000000000000000000000000000000 DUP2 MSTORE PUSH1 0x4 ADD DUP1 DUP1 PUSH1 0x20 ADD DUP3 DUP2 SUB DUP3 MSTORE PUSH1 0x1E DUP2 MSTORE PUSH1 0x20 ADD DUP1 PUSH32 0x536166654D6174683A207375627472616374696F6E206F766572666C6F770000 DUP2 MSTORE POP PUSH1 0x20 ADD SWAP2 POP POP PUSH1 0x40 MLOAD DUP1 SWAP2 SUB SWAP1 REVERT JUMPDEST DUP2 DUP4 SUB SWAP1 POP SWAP3 SWAP2 POP POP JUMP JUMPDEST PUSH1 0x0 CALLER SWAP1 POP SWAP1 JUMP INVALID 0x4F PUSH24 0x6E61626C653A206E6577206F776E65722069732074686520 PUSH27 0x65726F2061646472657373536166654D6174683A206D756C746970 PUSH13 0x69636174696F6E206F76657266 PUSH13 0x6F77416D6F756E742070726F76 PUSH10 0x64656420657863656564 PUSH20 0x2076616C756520666F722066756C6C2072656368 PUSH2 0x7267 PUSH6 0x50726F766964 PUSH6 0x64206C61756E PUSH4 0x68206461 PUSH21 0x652068617320616C726561647920706173736564A2 PUSH5 0x6970667358 0x22 SLT KECCAK256 SDIV 0xC4 SELFDESTRUCT 0xD0 0xF8 PUSH9 0xC63360B8EEF61A7C9A 0x5D SHL 0x49 PUSH18 0xC81CB1E46E6915FDC85833B0E164736F6C63 NUMBER STOP SMOD MOD STOP CALLER MSTORE8 PUSH6 0x742061207661 PUSH13 0x6964206164647265737320666F PUSH19 0x204C6971756964697479546F6B656E20436F6E PUSH21 0x7261637453657420612076616C6964206164647265 PUSH20 0x7320666F722050726F6A656374546F6B656E2043 PUSH16 0x6E747261637400000000000000000000 "
    },
    "gasEstimates": {
      "creation": {
        "codeDepositCost": "1764200",
        "executionCost": "infinite",
        "totalCost": "infinite"
      },
      "external": {
        "claimFeesPerThousandForPT()": "1051",
        "claimProjectToken()": "infinite",
        "dateEndCliff()": "1073",
        "dateLaunch()": "1093",
        "getValueProjectTokenPerVestingSchedule(uint256,uint256,uint256,bool)": "infinite",
        "liquidityToken()": "1070",
        "multiplier1K()": "228",
        "owner()": "1100",
        "projectToken()": "1092",
        "rechargeLT(uint256)": "infinite",
        "renounceOwnership()": "24418",
        "setStart(uint256)": "infinite",
        "transferOwnership(address)": "infinite",
        "updateClaimFeesForPT(uint256)": "infinite",
        "valueProjectTokenToFullRecharge(address)": "1191"
      },
      "internal": {
        "ensureUserFunctionsAreNotDisabled()": "infinite",
        "getValueProjectTokenVestedAndUpdateLTBalances(address,uint256)": "infinite"
      }
    },
    "methodIdentifiers": {
      "claimFeesPerThousandForPT()": "176f0889",
      "claimProjectToken()": "13239b8a",
      "dateEndCliff()": "365d4708",
      "dateLaunch()": "fd726827",
      "getValueProjectTokenPerVestingSchedule(uint256,uint256,uint256,bool)": "618c6cd1",
      "liquidityToken()": "43cd8f7e",
      "multiplier1K()": "7e267f39",
      "owner()": "8da5cb5b",
      "projectToken()": "4b60ce77",
      "rechargeLT(uint256)": "95544746",
      "renounceOwnership()": "715018a6",
      "setStart(uint256)": "f6a03ebf",
      "transferOwnership(address)": "f2fde38b",
      "updateClaimFeesForPT(uint256)": "a9e18b68",
      "valueProjectTokenToFullRecharge(address)": "ba01ecef"
    }
  },
  "storageLayout": {
    "storage": [
      {
        "astId": 2485,
        "contract": "InterfaceProjectToken.sol:InterfaceProjectToken",
        "label": "_owner",
        "offset": 0,
        "slot": "0",
        "type": "t_address"
      },
      {
        "astId": 619,
        "contract": "InterfaceProjectToken.sol:InterfaceProjectToken",
        "label": "liquidityToken",
        "offset": 0,
        "slot": "1",
        "type": "t_contract(LiquidityToken)2459"
      },
      {
        "astId": 621,
        "contract": "InterfaceProjectToken.sol:InterfaceProjectToken",
        "label": "projectToken",
        "offset": 0,
        "slot": "2",
        "type": "t_contract(ProjectToken)2477"
      },
      {
        "astId": 626,
        "contract": "InterfaceProjectToken.sol:InterfaceProjectToken",
        "label": "dateLaunch",
        "offset": 0,
        "slot": "3",
        "type": "t_uint256"
      },
      {
        "astId": 628,
        "contract": "InterfaceProjectToken.sol:InterfaceProjectToken",
        "label": "dateEndCliff",
        "offset": 0,
        "slot": "4",
        "type": "t_uint256"
      },
      {
        "astId": 630,
        "contract": "InterfaceProjectToken.sol:InterfaceProjectToken",
        "label": "claimFeesPerThousandForPT",
        "offset": 0,
        "slot": "5",
        "type": "t_uint256"
      },
      {
        "astId": 634,
        "contract": "InterfaceProjectToken.sol:InterfaceProjectToken",
        "label": "valueProjectTokenToFullRecharge",
        "offset": 0,
        "slot": "6",
        "type": "t_mapping(t_address,t_uint256)"
      }
    ],
    "types": {
      "t_address": {
        "encoding": "inplace",
        "label": "address",
        "numberOfBytes": "20"
      },
      "t_contract(LiquidityToken)2459": {
        "encoding": "inplace",
        "label": "contract LiquidityToken",
        "numberOfBytes": "20"
      },
      "t_contract(ProjectToken)2477": {
        "encoding": "inplace",
        "label": "contract ProjectToken",
        "numberOfBytes": "20"
      },
      "t_mapping(t_address,t_uint256)": {
        "encoding": "mapping",
        "key": "t_address",
        "label": "mapping(address => uint256)",
        "numberOfBytes": "32",
        "value": "t_uint256"
      },
      "t_uint256": {
        "encoding": "inplace",
        "label": "uint256",
        "numberOfBytes": "32"
      }
    }
  },
  "userdoc": {
    "events": {
      "StartSet(uint256,uint256)": {
        "notice": "Events ///////////////////////////////////////////////////////////////////"
      }
    },
    "kind": "user",
    "methods": {
      "setStart(uint256)": {
        "notice": "Transaction by Owner to set up variables of the contract /////////////////"
      }
    },
    "version": 1
  }
}