{
  "abi": [
    {
      "inputs": [
        {
          "internalType": "string",
          "name": "_name",
          "type": "string"
        },
        {
          "internalType": "string",
          "name": "_symbol",
          "type": "string"
        },
        {
          "internalType": "uint256",
          "name": "_fractionInitialUnlockPerThousand",
          "type": "uint256"
        },
        {
          "internalType": "uint256",
          "name": "_durationCliff",
          "type": "uint256"
        },
        {
          "internalType": "uint256",
          "name": "_durationLinearVesting",
          "type": "uint256"
        },
        {
          "internalType": "uint256",
          "name": "_maxWithdrawFeesPerThousandForLT",
          "type": "uint256"
        },
        {
          "internalType": "uint256",
          "name": "_maxClaimFeesPerThousandForPT",
          "type": "uint256"
        }
      ],
      "stateMutability": "nonpayable",
      "type": "constructor"
    },
    {
      "anonymous": false,
      "inputs": [
        {
          "indexed": true,
          "internalType": "address",
          "name": "owner",
          "type": "address"
        },
        {
          "indexed": true,
          "internalType": "address",
          "name": "spender",
          "type": "address"
        },
        {
          "indexed": false,
          "internalType": "uint256",
          "name": "value",
          "type": "uint256"
        }
      ],
      "name": "Approval",
      "type": "event"
    },
    {
      "anonymous": false,
      "inputs": [
        {
          "indexed": false,
          "internalType": "address",
          "name": "_user",
          "type": "address"
        },
        {
          "indexed": false,
          "internalType": "uint256",
          "name": "_value",
          "type": "uint256"
        },
        {
          "indexed": false,
          "internalType": "uint256",
          "name": "_hodlRewards",
          "type": "uint256"
        },
        {
          "indexed": false,
          "internalType": "bool",
          "name": "_isAllocationStaked",
          "type": "bool"
        }
      ],
      "name": "LTAllocatedByOwner",
      "type": "event"
    },
    {
      "anonymous": false,
      "inputs": [
        {
          "indexed": false,
          "internalType": "address",
          "name": "_user",
          "type": "address"
        },
        {
          "indexed": false,
          "internalType": "uint256",
          "name": "_valueLT",
          "type": "uint256"
        },
        {
          "indexed": false,
          "internalType": "uint256",
          "name": "_valuePayment",
          "type": "uint256"
        },
        {
          "indexed": false,
          "internalType": "uint256",
          "name": "_hodlRewards",
          "type": "uint256"
        }
      ],
      "name": "LTAllocatedThroughSale",
      "type": "event"
    },
    {
      "anonymous": false,
      "inputs": [
        {
          "indexed": false,
          "internalType": "address",
          "name": "_user",
          "type": "address"
        },
        {
          "indexed": false,
          "internalType": "uint256",
          "name": "_value",
          "type": "uint256"
        },
        {
          "indexed": false,
          "internalType": "uint256",
          "name": "_hodlRewards",
          "type": "uint256"
        }
      ],
      "name": "LTDeposited",
      "type": "event"
    },
    {
      "anonymous": false,
      "inputs": [
        {
          "indexed": false,
          "internalType": "address",
          "name": "_user",
          "type": "address"
        },
        {
          "indexed": false,
          "internalType": "uint256",
          "name": "_value",
          "type": "uint256"
        },
        {
          "indexed": false,
          "internalType": "uint256",
          "name": "_totalFees",
          "type": "uint256"
        },
        {
          "indexed": false,
          "internalType": "uint256",
          "name": "_feesToRewardHodlers",
          "type": "uint256"
        },
        {
          "indexed": false,
          "internalType": "uint256",
          "name": "_hodlRewards",
          "type": "uint256"
        }
      ],
      "name": "LTReceived",
      "type": "event"
    },
    {
      "anonymous": false,
      "inputs": [
        {
          "indexed": true,
          "internalType": "address",
          "name": "previousOwner",
          "type": "address"
        },
        {
          "indexed": true,
          "internalType": "address",
          "name": "newOwner",
          "type": "address"
        }
      ],
      "name": "OwnershipTransferred",
      "type": "event"
    },
    {
      "anonymous": false,
      "inputs": [
        {
          "indexed": true,
          "internalType": "address",
          "name": "from",
          "type": "address"
        },
        {
          "indexed": true,
          "internalType": "address",
          "name": "to",
          "type": "address"
        },
        {
          "indexed": false,
          "internalType": "uint256",
          "name": "value",
          "type": "uint256"
        }
      ],
      "name": "Transfer",
      "type": "event"
    },
    {
      "inputs": [
        {
          "internalType": "address[]",
          "name": "_users",
          "type": "address[]"
        },
        {
          "internalType": "uint256[]",
          "name": "_values",
          "type": "uint256[]"
        },
        {
          "internalType": "bool",
          "name": "_areAllocationsToBeStaked",
          "type": "bool"
        }
      ],
      "name": "allocateLTByOwner",
      "outputs": [],
      "stateMutability": "nonpayable",
      "type": "function"
    },
    {
      "inputs": [
        {
          "internalType": "address",
          "name": "owner",
          "type": "address"
        },
        {
          "internalType": "address",
          "name": "spender",
          "type": "address"
        }
      ],
      "name": "allowance",
      "outputs": [
        {
          "internalType": "uint256",
          "name": "",
          "type": "uint256"
        }
      ],
      "stateMutability": "view",
      "type": "function"
    },
    {
      "inputs": [
        {
          "internalType": "address",
          "name": "spender",
          "type": "address"
        },
        {
          "internalType": "uint256",
          "name": "amount",
          "type": "uint256"
        }
      ],
      "name": "approve",
      "outputs": [
        {
          "internalType": "bool",
          "name": "",
          "type": "bool"
        }
      ],
      "stateMutability": "nonpayable",
      "type": "function"
    },
    {
      "inputs": [],
      "name": "areUserFunctionsDisabled",
      "outputs": [
        {
          "internalType": "bool",
          "name": "",
          "type": "bool"
        }
      ],
      "stateMutability": "view",
      "type": "function"
    },
    {
      "inputs": [
        {
          "internalType": "address",
          "name": "account",
          "type": "address"
        }
      ],
      "name": "balanceOf",
      "outputs": [
        {
          "internalType": "uint256",
          "name": "",
          "type": "uint256"
        }
      ],
      "stateMutability": "view",
      "type": "function"
    },
    {
      "inputs": [
        {
          "internalType": "uint256",
          "name": "_value",
          "type": "uint256"
        }
      ],
      "name": "burnByInterfaceProjectToken",
      "outputs": [],
      "stateMutability": "nonpayable",
      "type": "function"
    },
    {
      "inputs": [],
      "name": "campaignStakingRewards",
      "outputs": [
        {
          "internalType": "uint256",
          "name": "",
          "type": "uint256"
        }
      ],
      "stateMutability": "view",
      "type": "function"
    },
    {
      "inputs": [
        {
          "internalType": "address",
          "name": "",
          "type": "address"
        }
      ],
      "name": "claimedRewardPerShare1e18",
      "outputs": [
        {
          "internalType": "uint256",
          "name": "",
          "type": "uint256"
        }
      ],
      "stateMutability": "view",
      "type": "function"
    },
    {
      "inputs": [],
      "name": "currentRewardPerShare1e18",
      "outputs": [
        {
          "internalType": "uint256",
          "name": "",
          "type": "uint256"
        }
      ],
      "stateMutability": "view",
      "type": "function"
    },
    {
      "inputs": [],
      "name": "decimals",
      "outputs": [
        {
          "internalType": "uint8",
          "name": "",
          "type": "uint8"
        }
      ],
      "stateMutability": "view",
      "type": "function"
    },
    {
      "inputs": [
        {
          "internalType": "address",
          "name": "spender",
          "type": "address"
        },
        {
          "internalType": "uint256",
          "name": "subtractedValue",
          "type": "uint256"
        }
      ],
      "name": "decreaseAllowance",
      "outputs": [
        {
          "internalType": "bool",
          "name": "",
          "type": "bool"
        }
      ],
      "stateMutability": "nonpayable",
      "type": "function"
    },
    {
      "inputs": [
        {
          "internalType": "uint256",
          "name": "_value",
          "type": "uint256"
        }
      ],
      "name": "depositLT",
      "outputs": [],
      "stateMutability": "nonpayable",
      "type": "function"
    },
    {
      "inputs": [
        {
          "internalType": "address",
          "name": "_user",
          "type": "address"
        },
        {
          "internalType": "uint256",
          "name": "_valueProjectToken",
          "type": "uint256"
        }
      ],
      "name": "dischargeUserTokens",
      "outputs": [],
      "stateMutability": "nonpayable",
      "type": "function"
    },
    {
      "inputs": [],
      "name": "durationCliff",
      "outputs": [
        {
          "internalType": "uint256",
          "name": "",
          "type": "uint256"
        }
      ],
      "stateMutability": "view",
      "type": "function"
    },
    {
      "inputs": [],
      "name": "durationLinearVesting",
      "outputs": [
        {
          "internalType": "uint256",
          "name": "",
          "type": "uint256"
        }
      ],
      "stateMutability": "view",
      "type": "function"
    },
    {
      "inputs": [],
      "name": "enableOrDisableUserFunctions",
      "outputs": [],
      "stateMutability": "nonpayable",
      "type": "function"
    },
    {
      "inputs": [],
      "name": "ensureUserFunctionsAreNotDisabled",
      "outputs": [],
      "stateMutability": "view",
      "type": "function"
    },
    {
      "inputs": [],
      "name": "fractionInitialUnlockPerThousand",
      "outputs": [
        {
          "internalType": "uint256",
          "name": "",
          "type": "uint256"
        }
      ],
      "stateMutability": "view",
      "type": "function"
    },
    {
      "inputs": [
        {
          "internalType": "address",
          "name": "_user",
          "type": "address"
        },
        {
          "internalType": "uint256",
          "name": "_currentRewardPerShare1e18",
          "type": "uint256"
        }
      ],
      "name": "getHodlRewards",
      "outputs": [
        {
          "internalType": "uint256",
          "name": "_hodlRewards",
          "type": "uint256"
        }
      ],
      "stateMutability": "view",
      "type": "function"
    },
    {
      "inputs": [
        {
          "internalType": "uint256",
          "name": "_blockTime",
          "type": "uint256"
        }
      ],
      "name": "getUpdatedRewardPerShare1e18",
      "outputs": [
        {
          "internalType": "uint256",
          "name": "_updatedRewardPerShare1e18",
          "type": "uint256"
        }
      ],
      "stateMutability": "view",
      "type": "function"
    },
    {
      "inputs": [
        {
          "internalType": "address",
          "name": "_user",
          "type": "address"
        }
      ],
      "name": "getUserDateOfPartiallyChargedToken",
      "outputs": [
        {
          "internalType": "uint256",
          "name": "_dateOfPartiallyCharged",
          "type": "uint256"
        }
      ],
      "stateMutability": "view",
      "type": "function"
    },
    {
      "inputs": [
        {
          "internalType": "address",
          "name": "_user",
          "type": "address"
        }
      ],
      "name": "getUserFullyChargedBalanceLiquiToken",
      "outputs": [
        {
          "internalType": "uint256",
          "name": "_fullyChargedBalance",
          "type": "uint256"
        }
      ],
      "stateMutability": "view",
      "type": "function"
    },
    {
      "inputs": [
        {
          "internalType": "address",
          "name": "_user",
          "type": "address"
        }
      ],
      "name": "getUserPartiallyChargedBalanceLiquiToken",
      "outputs": [
        {
          "internalType": "uint256",
          "name": "_partiallyChargedBalance",
          "type": "uint256"
        }
      ],
      "stateMutability": "view",
      "type": "function"
    },
    {
      "inputs": [
        {
          "internalType": "address",
          "name": "spender",
          "type": "address"
        },
        {
          "internalType": "uint256",
          "name": "addedValue",
          "type": "uint256"
        }
      ],
      "name": "increaseAllowance",
      "outputs": [
        {
          "internalType": "bool",
          "name": "",
          "type": "bool"
        }
      ],
      "stateMutability": "nonpayable",
      "type": "function"
    },
    {
      "inputs": [],
      "name": "interfaceProjectToken",
      "outputs": [
        {
          "internalType": "contract InterfaceProjectToken",
          "name": "",
          "type": "address"
        }
      ],
      "stateMutability": "view",
      "type": "function"
    },
    {
      "inputs": [],
      "name": "maxClaimFeesPerThousandForPT",
      "outputs": [
        {
          "internalType": "uint256",
          "name": "",
          "type": "uint256"
        }
      ],
      "stateMutability": "view",
      "type": "function"
    },
    {
      "inputs": [],
      "name": "maxInitialTokenAllocation",
      "outputs": [
        {
          "internalType": "uint256",
          "name": "",
          "type": "uint256"
        }
      ],
      "stateMutability": "view",
      "type": "function"
    },
    {
      "inputs": [],
      "name": "maxWithdrawFeesPerThousandForLT",
      "outputs": [
        {
          "internalType": "uint256",
          "name": "",
          "type": "uint256"
        }
      ],
      "stateMutability": "view",
      "type": "function"
    },
    {
      "inputs": [
        {
          "internalType": "uint256",
          "name": "_value",
          "type": "uint256"
        }
      ],
      "name": "mintByInterfaceProjectToken",
      "outputs": [],
      "stateMutability": "nonpayable",
      "type": "function"
    },
    {
      "inputs": [],
      "name": "multiplier1K",
      "outputs": [
        {
          "internalType": "uint256",
          "name": "",
          "type": "uint256"
        }
      ],
      "stateMutability": "view",
      "type": "function"
    },
    {
      "inputs": [],
      "name": "name",
      "outputs": [
        {
          "internalType": "string",
          "name": "",
          "type": "string"
        }
      ],
      "stateMutability": "view",
      "type": "function"
    },
    {
      "inputs": [],
      "name": "owner",
      "outputs": [
        {
          "internalType": "address",
          "name": "",
          "type": "address"
        }
      ],
      "stateMutability": "view",
      "type": "function"
    },
    {
      "inputs": [],
      "name": "ratioFeesToRewardHodlersPerThousand",
      "outputs": [
        {
          "internalType": "uint256",
          "name": "",
          "type": "uint256"
        }
      ],
      "stateMutability": "view",
      "type": "function"
    },
    {
      "inputs": [
        {
          "internalType": "address",
          "name": "_user",
          "type": "address"
        },
        {
          "internalType": "uint256",
          "name": "_valueFullyChargedToIncrease",
          "type": "uint256"
        },
        {
          "internalType": "uint256",
          "name": "_valuePartiallyChargedToDecrease",
          "type": "uint256"
        },
        {
          "internalType": "uint256",
          "name": "_valueProjectTokenWithRewards",
          "type": "uint256"
        }
      ],
      "name": "rechargeUserTokens",
      "outputs": [],
      "stateMutability": "nonpayable",
      "type": "function"
    },
    {
      "inputs": [],
      "name": "renounceOwnership",
      "outputs": [],
      "stateMutability": "nonpayable",
      "type": "function"
    },
    {
      "inputs": [
        {
          "internalType": "contract InterfaceProjectToken",
          "name": "_interfaceProjectToken",
          "type": "address"
        }
      ],
      "name": "setInterfaceProjectToken",
      "outputs": [],
      "stateMutability": "nonpayable",
      "type": "function"
    },
    {
      "inputs": [
        {
          "internalType": "uint256",
          "name": "_stakingStartDate",
          "type": "uint256"
        },
        {
          "internalType": "uint256",
          "name": "_stakingDuration",
          "type": "uint256"
        },
        {
          "internalType": "uint256",
          "name": "_campaignStakingRewards",
          "type": "uint256"
        }
      ],
      "name": "setStakingRewards",
      "outputs": [],
      "stateMutability": "nonpayable",
      "type": "function"
    },
    {
      "inputs": [],
      "name": "stakedLT",
      "outputs": [
        {
          "internalType": "uint256",
          "name": "",
          "type": "uint256"
        }
      ],
      "stateMutability": "view",
      "type": "function"
    },
    {
      "inputs": [],
      "name": "stakingDateLastCheckpoint",
      "outputs": [
        {
          "internalType": "uint256",
          "name": "",
          "type": "uint256"
        }
      ],
      "stateMutability": "view",
      "type": "function"
    },
    {
      "inputs": [],
      "name": "stakingDuration",
      "outputs": [
        {
          "internalType": "uint256",
          "name": "",
          "type": "uint256"
        }
      ],
      "stateMutability": "view",
      "type": "function"
    },
    {
      "inputs": [],
      "name": "stakingStartDate",
      "outputs": [
        {
          "internalType": "uint256",
          "name": "",
          "type": "uint256"
        }
      ],
      "stateMutability": "view",
      "type": "function"
    },
    {
      "inputs": [],
      "name": "symbol",
      "outputs": [
        {
          "internalType": "string",
          "name": "",
          "type": "string"
        }
      ],
      "stateMutability": "view",
      "type": "function"
    },
    {
      "inputs": [],
      "name": "totalStakingRewards",
      "outputs": [
        {
          "internalType": "uint256",
          "name": "",
          "type": "uint256"
        }
      ],
      "stateMutability": "view",
      "type": "function"
    },
    {
      "inputs": [],
      "name": "totalSupply",
      "outputs": [
        {
          "internalType": "uint256",
          "name": "",
          "type": "uint256"
        }
      ],
      "stateMutability": "view",
      "type": "function"
    },
    {
      "inputs": [],
      "name": "totalTokenAllocated",
      "outputs": [
        {
          "internalType": "uint256",
          "name": "",
          "type": "uint256"
        }
      ],
      "stateMutability": "view",
      "type": "function"
    },
    {
      "inputs": [],
      "name": "totalTokenSold",
      "outputs": [
        {
          "internalType": "uint256",
          "name": "",
          "type": "uint256"
        }
      ],
      "stateMutability": "view",
      "type": "function"
    },
    {
      "inputs": [
        {
          "internalType": "address",
          "name": "recipient",
          "type": "address"
        },
        {
          "internalType": "uint256",
          "name": "amount",
          "type": "uint256"
        }
      ],
      "name": "transfer",
      "outputs": [
        {
          "internalType": "bool",
          "name": "",
          "type": "bool"
        }
      ],
      "stateMutability": "nonpayable",
      "type": "function"
    },
    {
      "inputs": [
        {
          "internalType": "address",
          "name": "sender",
          "type": "address"
        },
        {
          "internalType": "address",
          "name": "recipient",
          "type": "address"
        },
        {
          "internalType": "uint256",
          "name": "amount",
          "type": "uint256"
        }
      ],
      "name": "transferFrom",
      "outputs": [
        {
          "internalType": "bool",
          "name": "",
          "type": "bool"
        }
      ],
      "stateMutability": "nonpayable",
      "type": "function"
    },
    {
      "inputs": [
        {
          "internalType": "address",
          "name": "newOwner",
          "type": "address"
        }
      ],
      "name": "transferOwnership",
      "outputs": [],
      "stateMutability": "nonpayable",
      "type": "function"
    },
    {
      "inputs": [
        {
          "internalType": "uint256",
          "name": "_valuePerThousand",
          "type": "uint256"
        }
      ],
      "name": "updateRatioFeesToRewardHodlers",
      "outputs": [],
      "stateMutability": "nonpayable",
      "type": "function"
    },
    {
      "inputs": [
        {
          "internalType": "uint256",
          "name": "_fees",
          "type": "uint256"
        }
      ],
      "name": "updateRewardsAfterFeesPaymentByInterface",
      "outputs": [],
      "stateMutability": "nonpayable",
      "type": "function"
    },
    {
      "inputs": [
        {
          "internalType": "address",
          "name": "_user",
          "type": "address"
        }
      ],
      "name": "updateStakingAndGetHodlRewardsByInterfacePT",
      "outputs": [
        {
          "internalType": "uint256",
          "name": "",
          "type": "uint256"
        }
      ],
      "stateMutability": "nonpayable",
      "type": "function"
    },
    {
      "inputs": [
        {
          "internalType": "uint256",
          "name": "_valuePerThousand",
          "type": "uint256"
        }
      ],
      "name": "updateWithdrawalFeesForLT",
      "outputs": [],
      "stateMutability": "nonpayable",
      "type": "function"
    },
    {
      "inputs": [
        {
          "internalType": "address",
          "name": "",
          "type": "address"
        }
      ],
      "name": "userLiquiToken",
      "outputs": [
        {
          "internalType": "uint256",
          "name": "fullyChargedBalance",
          "type": "uint256"
        },
        {
          "internalType": "uint256",
          "name": "partiallyChargedBalance",
          "type": "uint256"
        },
        {
          "internalType": "uint256",
          "name": "dateOfPartiallyCharged",
          "type": "uint256"
        }
      ],
      "stateMutability": "view",
      "type": "function"
    },
    {
      "inputs": [],
      "name": "withdrawFeesPerThousandForLT",
      "outputs": [
        {
          "internalType": "uint256",
          "name": "",
          "type": "uint256"
        }
      ],
      "stateMutability": "view",
      "type": "function"
    },
    {
      "inputs": [
        {
          "internalType": "uint256",
          "name": "_value",
          "type": "uint256"
        }
      ],
      "name": "withdrawLT",
      "outputs": [],
      "stateMutability": "nonpayable",
      "type": "function"
    }
  ],
  "devdoc": {
    "kind": "dev",
    "methods": {
      "allowance(address,address)": {
        "details": "See {IERC20-allowance}."
      },
      "approve(address,uint256)": {
        "details": "See {IERC20-approve}. Requirements: - `spender` cannot be the zero address."
      },
      "balanceOf(address)": {
        "details": "See {IERC20-balanceOf}."
      },
      "decimals()": {
        "details": "Returns the number of decimals used to get its user representation. For example, if `decimals` equals `2`, a balance of `505` tokens should be displayed to a user as `5,05` (`505 / 10 ** 2`). Tokens usually opt for a value of 18, imitating the relationship between Ether and Wei. This is the value {ERC20} uses, unless {_setupDecimals} is called. NOTE: This information is only used for _display_ purposes: it in no way affects any of the arithmetic of the contract, including {IERC20-balanceOf} and {IERC20-transfer}."
      },
      "decreaseAllowance(address,uint256)": {
        "details": "Atomically decreases the allowance granted to `spender` by the caller. This is an alternative to {approve} that can be used as a mitigation for problems described in {IERC20-approve}. Emits an {Approval} event indicating the updated allowance. Requirements: - `spender` cannot be the zero address. - `spender` must have allowance for the caller of at least `subtractedValue`."
      },
      "increaseAllowance(address,uint256)": {
        "details": "Atomically increases the allowance granted to `spender` by the caller. This is an alternative to {approve} that can be used as a mitigation for problems described in {IERC20-approve}. Emits an {Approval} event indicating the updated allowance. Requirements: - `spender` cannot be the zero address."
      },
      "name()": {
        "details": "Returns the name of the token."
      },
      "owner()": {
        "details": "Returns the address of the current owner."
      },
      "renounceOwnership()": {
        "details": "Leaves the contract without owner. It will not be possible to call `onlyOwner` functions anymore. Can only be called by the current owner. NOTE: Renouncing ownership will leave the contract without an owner, thereby removing any functionality that is only available to the owner."
      },
      "symbol()": {
        "details": "Returns the symbol of the token, usually a shorter version of the name."
      },
      "totalSupply()": {
        "details": "See {IERC20-totalSupply}."
      },
      "transfer(address,uint256)": {
        "details": "See {IERC20-transfer}. Requirements: - `recipient` cannot be the zero address. - the caller must have a balance of at least `amount`."
      },
      "transferFrom(address,address,uint256)": {
        "details": "See {IERC20-transferFrom}. Emits an {Approval} event indicating the updated allowance. This is not required by the EIP. See the note at the beginning of {ERC20}. Requirements: - `sender` and `recipient` cannot be the zero address. - `sender` must have a balance of at least `amount`. - the caller must have allowance for ``sender``'s tokens of at least `amount`."
      },
      "transferOwnership(address)": {
        "details": "Transfers ownership of the contract to a new account (`newOwner`). Can only be called by the current owner."
      }
    },
    "version": 1
  },
  "evm": {
    "assembly": "    /* \"LiquidityToken.sol\":449:13682  contract LiquidityToken is ERC20, Ownable {... */\n  mstore(0x40, 0x80)\n    /* \"LiquidityToken.sol\":849:853  1000 */\n  0x03e8\n    /* \"LiquidityToken.sol\":799:853  uint public ratioFeesToRewardHodlersPerThousand = 1000 */\n  0x0c\n  sstore\n    /* \"LiquidityToken.sol\":2111:3220  constructor(string memory _name, string memory _symbol, uint _fractionInitialUnlockPerThousand, uint _durationCliff, ... */\n  callvalue\n  dup1\n  iszero\n  tag_1\n  jumpi\n  0x00\n  dup1\n  revert\ntag_1:\n  pop\n  mload(0x40)\n  sub(codesize, bytecodeSize)\n  dup1\n  bytecodeSize\n  dup4\n  codecopy\n  dup2\n  dup2\n  add\n  0x40\n  mstore\n  0xe0\n  dup2\n  lt\n  iszero\n  tag_2\n  jumpi\n  0x00\n  dup1\n  revert\ntag_2:\n  dup2\n  add\n  swap1\n  dup1\n  dup1\n  mload\n  mload(0x40)\n  swap4\n  swap3\n  swap2\n  swap1\n  dup5\n  0x0100000000\n  dup3\n  gt\n  iszero\n  tag_3\n  jumpi\n  0x00\n  dup1\n  revert\ntag_3:\n  dup4\n  dup3\n  add\n  swap2\n  pop\n  0x20\n  dup3\n  add\n  dup6\n  dup2\n  gt\n  iszero\n  tag_4\n  jumpi\n  0x00\n  dup1\n  revert\ntag_4:\n  dup3\n  mload\n  dup7\n  0x01\n  dup3\n  mul\n  dup4\n  add\n  gt\n  0x0100000000\n  dup3\n  gt\n  or\n  iszero\n  tag_5\n  jumpi\n  0x00\n  dup1\n  revert\ntag_5:\n  dup1\n  dup4\n  mstore\n  0x20\n  dup4\n  add\n  swap3\n  pop\n  pop\n  pop\n  swap1\n  dup1\n  mload\n  swap1\n  0x20\n  add\n  swap1\n  dup1\n  dup4\n  dup4\n  0x00\ntag_6:\n  dup4\n  dup2\n  lt\n  iszero\n  tag_8\n  jumpi\n  dup1\n  dup3\n  add\n  mload\n  dup2\n  dup5\n  add\n  mstore\n  0x20\n  dup2\n  add\n  swap1\n  pop\n  jump(tag_6)\ntag_8:\n  pop\n  pop\n  pop\n  pop\n  swap1\n  pop\n  swap1\n  dup2\n  add\n  swap1\n  0x1f\n  and\n  dup1\n  iszero\n  tag_9\n  jumpi\n  dup1\n  dup3\n  sub\n  dup1\n  mload\n  0x01\n  dup4\n  0x20\n  sub\n  0x0100\n  exp\n  sub\n  not\n  and\n  dup2\n  mstore\n  0x20\n  add\n  swap2\n  pop\ntag_9:\n  pop\n  0x40\n  mstore\n  0x20\n  add\n  dup1\n  mload\n  mload(0x40)\n  swap4\n  swap3\n  swap2\n  swap1\n  dup5\n  0x0100000000\n  dup3\n  gt\n  iszero\n  tag_10\n  jumpi\n  0x00\n  dup1\n  revert\ntag_10:\n  dup4\n  dup3\n  add\n  swap2\n  pop\n  0x20\n  dup3\n  add\n  dup6\n  dup2\n  gt\n  iszero\n  tag_11\n  jumpi\n  0x00\n  dup1\n  revert\ntag_11:\n  dup3\n  mload\n  dup7\n  0x01\n  dup3\n  mul\n  dup4\n  add\n  gt\n  0x0100000000\n  dup3\n  gt\n  or\n  iszero\n  tag_12\n  jumpi\n  0x00\n  dup1\n  revert\ntag_12:\n  dup1\n  dup4\n  mstore\n  0x20\n  dup4\n  add\n  swap3\n  pop\n  pop\n  pop\n  swap1\n  dup1\n  mload\n  swap1\n  0x20\n  add\n  swap1\n  dup1\n  dup4\n  dup4\n  0x00\ntag_13:\n  dup4\n  dup2\n  lt\n  iszero\n  tag_15\n  jumpi\n  dup1\n  dup3\n  add\n  mload\n  dup2\n  dup5\n  add\n  mstore\n  0x20\n  dup2\n  add\n  swap1\n  pop\n  jump(tag_13)\ntag_15:\n  pop\n  pop\n  pop\n  pop\n  swap1\n  pop\n  swap1\n  dup2\n  add\n  swap1\n  0x1f\n  and\n  dup1\n  iszero\n  tag_16\n  jumpi\n  dup1\n  dup3\n  sub\n  dup1\n  mload\n  0x01\n  dup4\n  0x20\n  sub\n  0x0100\n  exp\n  sub\n  not\n  and\n  dup2\n  mstore\n  0x20\n  add\n  swap2\n  pop\ntag_16:\n  pop\n  0x40\n  mstore\n  0x20\n  add\n  dup1\n  mload\n  swap1\n  0x20\n  add\n  swap1\n  swap3\n  swap2\n  swap1\n  dup1\n  mload\n  swap1\n  0x20\n  add\n  swap1\n  swap3\n  swap2\n  swap1\n  dup1\n  mload\n  swap1\n  0x20\n  add\n  swap1\n  swap3\n  swap2\n  swap1\n  dup1\n  mload\n  swap1\n  0x20\n  add\n  swap1\n  swap3\n  swap2\n  swap1\n  dup1\n  mload\n  swap1\n  0x20\n  add\n  swap1\n  swap3\n  swap2\n  swap1\n  pop\n  pop\n  pop\n    /* \"LiquidityToken.sol\":2343:2348  _name */\n  dup7\n    /* \"LiquidityToken.sol\":2350:2357  _symbol */\n  dup7\n    /* \"https://github.com/OpenZeppelin/openzeppelin-contracts/blob/v3.4.2-solc-0.7/contracts/token/ERC20/ERC20.sol\":2025:2030   */\n  dup2\n    /* \"https://github.com/OpenZeppelin/openzeppelin-contracts/blob/v3.4.2-solc-0.7/contracts/token/ERC20/ERC20.sol\":2017:2022   */\n  0x03\n    /* \"https://github.com/OpenZeppelin/openzeppelin-contracts/blob/v3.4.2-solc-0.7/contracts/token/ERC20/ERC20.sol\":2017:2030   */\n  swap1\n  dup1\n  mload\n  swap1\n  0x20\n  add\n  swap1\n  tag_21\n  swap3\n  swap2\n  swap1\n  tag_22\n  jump\t// in\ntag_21:\n  pop\n    /* \"https://github.com/OpenZeppelin/openzeppelin-contracts/blob/v3.4.2-solc-0.7/contracts/token/ERC20/ERC20.sol\":2050:2057   */\n  dup1\n    /* \"https://github.com/OpenZeppelin/openzeppelin-contracts/blob/v3.4.2-solc-0.7/contracts/token/ERC20/ERC20.sol\":2040:2047   */\n  0x04\n    /* \"https://github.com/OpenZeppelin/openzeppelin-contracts/blob/v3.4.2-solc-0.7/contracts/token/ERC20/ERC20.sol\":2040:2057   */\n  swap1\n  dup1\n  mload\n  swap1\n  0x20\n  add\n  swap1\n  tag_23\n  swap3\n  swap2\n  swap1\n  tag_22\n  jump\t// in\ntag_23:\n  pop\n    /* \"https://github.com/OpenZeppelin/openzeppelin-contracts/blob/v3.4.2-solc-0.7/contracts/token/ERC20/ERC20.sol\":2079:2081   */\n  0x12\n    /* \"https://github.com/OpenZeppelin/openzeppelin-contracts/blob/v3.4.2-solc-0.7/contracts/token/ERC20/ERC20.sol\":2067:2076   */\n  0x05\n  0x00\n    /* \"https://github.com/OpenZeppelin/openzeppelin-contracts/blob/v3.4.2-solc-0.7/contracts/token/ERC20/ERC20.sol\":2067:2081   */\n  0x0100\n  exp\n  dup2\n  sload\n  dup2\n  0xff\n  mul\n  not\n  and\n  swap1\n  dup4\n  0xff\n  and\n  mul\n  or\n  swap1\n  sstore\n  pop\n    /* \"https://github.com/OpenZeppelin/openzeppelin-contracts/blob/v3.4.2-solc-0.7/contracts/token/ERC20/ERC20.sol\":1950:2088   */\n  pop\n  pop\n    /* \"https://github.com/OpenZeppelin/openzeppelin-contracts/blob/v3.4.2-solc-0.7/contracts/access/Ownable.sol\":867:884   */\n  0x00\n    /* \"https://github.com/OpenZeppelin/openzeppelin-contracts/blob/v3.4.2-solc-0.7/contracts/access/Ownable.sol\":887:899   */\n  tag_25\n    /* \"https://github.com/OpenZeppelin/openzeppelin-contracts/blob/v3.4.2-solc-0.7/contracts/access/Ownable.sol\":887:897   */\n  shl(0x20, tag_26)\n    /* \"https://github.com/OpenZeppelin/openzeppelin-contracts/blob/v3.4.2-solc-0.7/contracts/access/Ownable.sol\":887:899   */\n  0x20\n  shr\n  jump\t// in\ntag_25:\n    /* \"https://github.com/OpenZeppelin/openzeppelin-contracts/blob/v3.4.2-solc-0.7/contracts/access/Ownable.sol\":867:899   */\n  swap1\n  pop\n    /* \"https://github.com/OpenZeppelin/openzeppelin-contracts/blob/v3.4.2-solc-0.7/contracts/access/Ownable.sol\":918:927   */\n  dup1\n    /* \"https://github.com/OpenZeppelin/openzeppelin-contracts/blob/v3.4.2-solc-0.7/contracts/access/Ownable.sol\":909:915   */\n  0x05\n  0x01\n    /* \"https://github.com/OpenZeppelin/openzeppelin-contracts/blob/v3.4.2-solc-0.7/contracts/access/Ownable.sol\":909:927   */\n  0x0100\n  exp\n  dup2\n  sload\n  dup2\n  0xffffffffffffffffffffffffffffffffffffffff\n  mul\n  not\n  and\n  swap1\n  dup4\n  0xffffffffffffffffffffffffffffffffffffffff\n  and\n  mul\n  or\n  swap1\n  sstore\n  pop\n    /* \"https://github.com/OpenZeppelin/openzeppelin-contracts/blob/v3.4.2-solc-0.7/contracts/access/Ownable.sol\":975:984   */\n  dup1\n    /* \"https://github.com/OpenZeppelin/openzeppelin-contracts/blob/v3.4.2-solc-0.7/contracts/access/Ownable.sol\":942:985   */\n  0xffffffffffffffffffffffffffffffffffffffff\n  and\n    /* \"https://github.com/OpenZeppelin/openzeppelin-contracts/blob/v3.4.2-solc-0.7/contracts/access/Ownable.sol\":971:972   */\n  0x00\n    /* \"https://github.com/OpenZeppelin/openzeppelin-contracts/blob/v3.4.2-solc-0.7/contracts/access/Ownable.sol\":942:985   */\n  0xffffffffffffffffffffffffffffffffffffffff\n  and\n  0x8be0079c531659141344cd1fd0a4f28419497f9722a3daafe3b4186f6b6457e0\n  mload(0x40)\n  mload(0x40)\n  dup1\n  swap2\n  sub\n  swap1\n  log3\n    /* \"https://github.com/OpenZeppelin/openzeppelin-contracts/blob/v3.4.2-solc-0.7/contracts/access/Ownable.sol\":842:992   */\n  pop\n    /* \"LiquidityToken.sol\":2400:2401  0 */\n  0x00\n    /* \"LiquidityToken.sol\":2374:2396  _durationLinearVesting */\n  dup4\n    /* \"LiquidityToken.sol\":2374:2401  _durationLinearVesting == 0 */\n  eq\n    /* \"LiquidityToken.sol\":2370:2666  if (_durationLinearVesting == 0)... */\n  iszero\n  tag_28\n  jumpi\n    /* \"LiquidityToken.sol\":614:618  1000 */\n  0x03e8\n    /* \"LiquidityToken.sol\":2424:2457  _fractionInitialUnlockPerThousand */\n  dup6\n    /* \"LiquidityToken.sol\":2424:2473  _fractionInitialUnlockPerThousand == multiplier1K */\n  eq\n    /* \"LiquidityToken.sol\":2409:2536  require(... */\n  tag_29\n  jumpi\n  mload(0x40)\n  0x08c379a000000000000000000000000000000000000000000000000000000000\n  dup2\n  mstore\n  0x04\n  add\n  dup1\n  dup1\n  0x20\n  add\n  dup3\n  dup2\n  sub\n  dup3\n  mstore\n  0x34\n  dup2\n  mstore\n  0x20\n  add\n  dup1\n  data_7e81b32fd927359169ccb1edb0414674e72762a5e9e15a268cac5f3f749362cb\n  0x34\n  swap2\n  codecopy\n  0x40\n  add\n  swap2\n  pop\n  pop\n  mload(0x40)\n  dup1\n  swap2\n  sub\n  swap1\n  revert\ntag_29:\n    /* \"LiquidityToken.sol\":2370:2666  if (_durationLinearVesting == 0)... */\n  jump(tag_30)\ntag_28:\n    /* \"LiquidityToken.sol\":614:618  1000 */\n  0x03e8\n    /* \"LiquidityToken.sol\":2569:2602  _fractionInitialUnlockPerThousand */\n  dup6\n    /* \"LiquidityToken.sol\":2569:2617  _fractionInitialUnlockPerThousand < multiplier1K */\n  lt\n    /* \"LiquidityToken.sol\":2554:2666  require(... */\n  tag_31\n  jumpi\n  mload(0x40)\n  0x08c379a000000000000000000000000000000000000000000000000000000000\n  dup2\n  mstore\n  0x04\n  add\n  dup1\n  dup1\n  0x20\n  add\n  dup3\n  dup2\n  sub\n  dup3\n  mstore\n  0x26\n  dup2\n  mstore\n  0x20\n  add\n  dup1\n  data_7356afc65ac6923f056e171fb9d08bfe0fb95d5cb1f933201fa19a5844645158\n  0x26\n  swap2\n  codecopy\n  0x40\n  add\n  swap2\n  pop\n  pop\n  mload(0x40)\n  dup1\n  swap2\n  sub\n  swap1\n  revert\ntag_31:\n    /* \"LiquidityToken.sol\":2370:2666  if (_durationLinearVesting == 0)... */\ntag_30:\n    /* \"LiquidityToken.sol\":614:618  1000 */\n  0x03e8\n    /* \"LiquidityToken.sol\":2692:2724  _maxWithdrawFeesPerThousandForLT */\n  dup3\n    /* \"LiquidityToken.sol\":2692:2739  _maxWithdrawFeesPerThousandForLT < multiplier1K */\n  lt\n    /* \"LiquidityToken.sol\":2677:2796  require(... */\n  tag_32\n  jumpi\n  mload(0x40)\n  0x08c379a000000000000000000000000000000000000000000000000000000000\n  dup2\n  mstore\n  0x04\n  add\n  dup1\n  dup1\n  0x20\n  add\n  dup3\n  dup2\n  sub\n  dup3\n  mstore\n  0x2e\n  dup2\n  mstore\n  0x20\n  add\n  dup1\n  data_cca22e2ee1b442009fb59574a1023c1bac949e370b49ec9f67b31b9c2628f401\n  0x2e\n  swap2\n  codecopy\n  0x40\n  add\n  swap2\n  pop\n  pop\n  mload(0x40)\n  dup1\n  swap2\n  sub\n  swap1\n  revert\ntag_32:\n    /* \"LiquidityToken.sol\":614:618  1000 */\n  0x03e8\n    /* \"LiquidityToken.sol\":2818:2847  _maxClaimFeesPerThousandForPT */\n  dup2\n    /* \"LiquidityToken.sol\":2818:2862  _maxClaimFeesPerThousandForPT < multiplier1K */\n  lt\n    /* \"LiquidityToken.sol\":2803:2914  require(... */\n  tag_33\n  jumpi\n  mload(0x40)\n  0x08c379a000000000000000000000000000000000000000000000000000000000\n  dup2\n  mstore\n  0x04\n  add\n  dup1\n  dup1\n  0x20\n  add\n  dup3\n  dup2\n  sub\n  dup3\n  mstore\n  0x29\n  dup2\n  mstore\n  0x20\n  add\n  dup1\n  data_6fed3b276f0e592ceeab63ae6aba848f584543b6a54de015b93869f771efc447\n  0x29\n  swap2\n  codecopy\n  0x40\n  add\n  swap2\n  pop\n  pop\n  mload(0x40)\n  dup1\n  swap2\n  sub\n  swap1\n  revert\ntag_33:\n    /* \"LiquidityToken.sol\":2937:2951  _durationCliff */\n  dup4\n    /* \"LiquidityToken.sol\":2921:2934  durationCliff */\n  0x11\n    /* \"LiquidityToken.sol\":2921:2951  durationCliff = _durationCliff */\n  dup2\n  swap1\n  sstore\n  pop\n    /* \"LiquidityToken.sol\":2981:3003  _durationLinearVesting */\n  dup3\n    /* \"LiquidityToken.sol\":2957:2978  durationLinearVesting */\n  0x12\n    /* \"LiquidityToken.sol\":2957:3003  durationLinearVesting = _durationLinearVesting */\n  dup2\n  swap1\n  sstore\n  pop\n    /* \"LiquidityToken.sol\":3044:3077  _fractionInitialUnlockPerThousand */\n  dup5\n    /* \"LiquidityToken.sol\":3009:3041  fractionInitialUnlockPerThousand */\n  0x15\n    /* \"LiquidityToken.sol\":3009:3077  fractionInitialUnlockPerThousand = _fractionInitialUnlockPerThousand */\n  dup2\n  swap1\n  sstore\n  pop\n    /* \"LiquidityToken.sol\":3117:3149  _maxWithdrawFeesPerThousandForLT */\n  dup2\n    /* \"LiquidityToken.sol\":3083:3114  maxWithdrawFeesPerThousandForLT */\n  0x17\n    /* \"LiquidityToken.sol\":3083:3149  maxWithdrawFeesPerThousandForLT = _maxWithdrawFeesPerThousandForLT */\n  dup2\n  swap1\n  sstore\n  pop\n    /* \"LiquidityToken.sol\":3186:3215  _maxClaimFeesPerThousandForPT */\n  dup1\n    /* \"LiquidityToken.sol\":3155:3183  maxClaimFeesPerThousandForPT */\n  0x18\n    /* \"LiquidityToken.sol\":3155:3215  maxClaimFeesPerThousandForPT = _maxClaimFeesPerThousandForPT */\n  dup2\n  swap1\n  sstore\n  pop\n    /* \"LiquidityToken.sol\":2111:3220  constructor(string memory _name, string memory _symbol, uint _fractionInitialUnlockPerThousand, uint _durationCliff, ... */\n  pop\n  pop\n  pop\n  pop\n  pop\n  pop\n  pop\n    /* \"LiquidityToken.sol\":449:13682  contract LiquidityToken is ERC20, Ownable {... */\n  jump(tag_34)\n    /* \"https://github.com/OpenZeppelin/openzeppelin-contracts/blob/v3.4.2-solc-0.7/contracts/utils/Context.sol\":598:702   */\ntag_26:\n    /* \"https://github.com/OpenZeppelin/openzeppelin-contracts/blob/v3.4.2-solc-0.7/contracts/utils/Context.sol\":651:666   */\n  0x00\n    /* \"https://github.com/OpenZeppelin/openzeppelin-contracts/blob/v3.4.2-solc-0.7/contracts/utils/Context.sol\":685:695   */\n  caller\n    /* \"https://github.com/OpenZeppelin/openzeppelin-contracts/blob/v3.4.2-solc-0.7/contracts/utils/Context.sol\":678:695   */\n  swap1\n  pop\n    /* \"https://github.com/OpenZeppelin/openzeppelin-contracts/blob/v3.4.2-solc-0.7/contracts/utils/Context.sol\":598:702   */\n  swap1\n  jump\t// out\n    /* \"LiquidityToken.sol\":449:13682  contract LiquidityToken is ERC20, Ownable {... */\ntag_22:\n  dup3\n  dup1\n  sload\n  0x01\n  dup2\n  0x01\n  and\n  iszero\n  0x0100\n  mul\n  sub\n  and\n  0x02\n  swap1\n  div\n  swap1\n  0x00\n  mstore\n  keccak256(0x00, 0x20)\n  swap1\n  0x1f\n  add\n  0x20\n  swap1\n  div\n  dup2\n  add\n  swap3\n  dup3\n  tag_37\n  jumpi\n  0x00\n  dup6\n  sstore\n  jump(tag_36)\ntag_37:\n  dup3\n  0x1f\n  lt\n  tag_38\n  jumpi\n  dup1\n  mload\n  not(0xff)\n  and\n  dup4\n  dup1\n  add\n  or\n  dup6\n  sstore\n  jump(tag_36)\ntag_38:\n  dup3\n  dup1\n  add\n  0x01\n  add\n  dup6\n  sstore\n  dup3\n  iszero\n  tag_36\n  jumpi\n  swap2\n  dup3\n  add\ntag_39:\n  dup3\n  dup2\n  gt\n  iszero\n  tag_40\n  jumpi\n  dup3\n  mload\n  dup3\n  sstore\n  swap2\n  0x20\n  add\n  swap2\n  swap1\n  0x01\n  add\n  swap1\n  jump(tag_39)\ntag_40:\ntag_36:\n  pop\n  swap1\n  pop\n  tag_41\n  swap2\n  swap1\n  tag_42\n  jump\t// in\ntag_41:\n  pop\n  swap1\n  jump\t// out\ntag_42:\ntag_43:\n  dup1\n  dup3\n  gt\n  iszero\n  tag_44\n  jumpi\n  0x00\n  dup2\n  0x00\n  swap1\n  sstore\n  pop\n  0x01\n  add\n  jump(tag_43)\ntag_44:\n  pop\n  swap1\n  jump\t// out\ntag_34:\n  dataSize(sub_0)\n  dup1\n  dataOffset(sub_0)\n  0x00\n  codecopy\n  0x00\n  return\nstop\ndata_6fed3b276f0e592ceeab63ae6aba848f584543b6a54de015b93869f771efc447 4d6178696d756d20636c61696d20666565206d757374206265206c6f776572207468616e2031303025\ndata_7356afc65ac6923f056e171fb9d08bfe0fb95d5cb1f933201fa19a5844645158 496e697469616c20756e6c6f636b206d757374206265206c6f776572207468616e2031303025\ndata_7e81b32fd927359169ccb1edb0414674e72762a5e9e15a268cac5f3f749362cb 4966206e6f2076657374696e672c20616c6c20746f6b656e73206d7573742062652072656c6561736564206174206c61756e6368\ndata_cca22e2ee1b442009fb59574a1023c1bac949e370b49ec9f67b31b9c2628f401 4d6178696d756d207769746864726177616c20666565206d757374206265206c6f776572207468616e2031303025\n\nsub_0: assembly {\n        /* \"LiquidityToken.sol\":449:13682  contract LiquidityToken is ERC20, Ownable {... */\n      mstore(0x40, 0x80)\n      callvalue\n      dup1\n      iszero\n      tag_1\n      jumpi\n      0x00\n      dup1\n      revert\n    tag_1:\n      pop\n      jumpi(tag_2, lt(calldatasize, 0x04))\n      shr(0xe0, calldataload(0x00))\n      dup1\n      0x82af7d39\n      gt\n      tag_59\n      jumpi\n      dup1\n      0xb5f7f636\n      gt\n      tag_60\n      jumpi\n      dup1\n      0xdf910817\n      gt\n      tag_61\n      jumpi\n      dup1\n      0xefb5c2f3\n      gt\n      tag_62\n      jumpi\n      dup1\n      0xefb5c2f3\n      eq\n      tag_55\n      jumpi\n      dup1\n      0xf2fde38b\n      eq\n      tag_56\n      jumpi\n      dup1\n      0xf331a867\n      eq\n      tag_57\n      jumpi\n      dup1\n      0xfb3da545\n      eq\n      tag_58\n      jumpi\n      jump(tag_2)\n    tag_62:\n      dup1\n      0xdf910817\n      eq\n      tag_52\n      jumpi\n      dup1\n      0xe0d0c567\n      eq\n      tag_53\n      jumpi\n      dup1\n      0xe54dd98a\n      eq\n      tag_54\n      jumpi\n      jump(tag_2)\n    tag_61:\n      dup1\n      0xd49d18d6\n      gt\n      tag_63\n      jumpi\n      dup1\n      0xd49d18d6\n      eq\n      tag_48\n      jumpi\n      dup1\n      0xda3a5936\n      eq\n      tag_49\n      jumpi\n      dup1\n      0xdccdc995\n      eq\n      tag_50\n      jumpi\n      dup1\n      0xdd62ed3e\n      eq\n      tag_51\n      jumpi\n      jump(tag_2)\n    tag_63:\n      dup1\n      0xb5f7f636\n      eq\n      tag_45\n      jumpi\n      dup1\n      0xbf777f82\n      eq\n      tag_46\n      jumpi\n      dup1\n      0xc96877a2\n      eq\n      tag_47\n      jumpi\n      jump(tag_2)\n    tag_60:\n      dup1\n      0x95d89b41\n      gt\n      tag_64\n      jumpi\n      dup1\n      0xa457c2d7\n      gt\n      tag_65\n      jumpi\n      dup1\n      0xa457c2d7\n      eq\n      tag_41\n      jumpi\n      dup1\n      0xa74536e0\n      eq\n      tag_42\n      jumpi\n      dup1\n      0xa9059cbb\n      eq\n      tag_43\n      jumpi\n      dup1\n      0xabfdce2c\n      eq\n      tag_44\n      jumpi\n      jump(tag_2)\n    tag_65:\n      dup1\n      0x95d89b41\n      eq\n      tag_38\n      jumpi\n      dup1\n      0x9f65ffb0\n      eq\n      tag_39\n      jumpi\n      dup1\n      0xa1b0c412\n      eq\n      tag_40\n      jumpi\n      jump(tag_2)\n    tag_64:\n      dup1\n      0x8da5cb5b\n      gt\n      tag_66\n      jumpi\n      dup1\n      0x8da5cb5b\n      eq\n      tag_34\n      jumpi\n      dup1\n      0x908a6bf0\n      eq\n      tag_35\n      jumpi\n      dup1\n      0x93ef357a\n      eq\n      tag_36\n      jumpi\n      dup1\n      0x95230a80\n      eq\n      tag_37\n      jumpi\n      jump(tag_2)\n    tag_66:\n      dup1\n      0x82af7d39\n      eq\n      tag_31\n      jumpi\n      dup1\n      0x86982e61\n      eq\n      tag_32\n      jumpi\n      dup1\n      0x8aa03a3c\n      eq\n      tag_33\n      jumpi\n      jump(tag_2)\n    tag_59:\n      dup1\n      0x63cf3cff\n      gt\n      tag_67\n      jumpi\n      dup1\n      0x740c3495\n      gt\n      tag_68\n      jumpi\n      dup1\n      0x78e104da\n      gt\n      tag_69\n      jumpi\n      dup1\n      0x78e104da\n      eq\n      tag_27\n      jumpi\n      dup1\n      0x7ccf0226\n      eq\n      tag_28\n      jumpi\n      dup1\n      0x7e267f39\n      eq\n      tag_29\n      jumpi\n      dup1\n      0x8005a7de\n      eq\n      tag_30\n      jumpi\n      jump(tag_2)\n    tag_69:\n      dup1\n      0x740c3495\n      eq\n      tag_24\n      jumpi\n      dup1\n      0x74ddcd1d\n      eq\n      tag_25\n      jumpi\n      dup1\n      0x7561ea9a\n      eq\n      tag_26\n      jumpi\n      jump(tag_2)\n    tag_68:\n      dup1\n      0x6d69847d\n      gt\n      tag_70\n      jumpi\n      dup1\n      0x6d69847d\n      eq\n      tag_20\n      jumpi\n      dup1\n      0x70a08231\n      eq\n      tag_21\n      jumpi\n      dup1\n      0x715018a6\n      eq\n      tag_22\n      jumpi\n      dup1\n      0x72b990b5\n      eq\n      tag_23\n      jumpi\n      jump(tag_2)\n    tag_70:\n      dup1\n      0x63cf3cff\n      eq\n      tag_17\n      jumpi\n      dup1\n      0x6a4bd5a6\n      eq\n      tag_18\n      jumpi\n      dup1\n      0x6c1f89ed\n      eq\n      tag_19\n      jumpi\n      jump(tag_2)\n    tag_67:\n      dup1\n      0x30400a86\n      gt\n      tag_71\n      jumpi\n      dup1\n      0x39509351\n      gt\n      tag_72\n      jumpi\n      dup1\n      0x39509351\n      eq\n      tag_13\n      jumpi\n      dup1\n      0x3e332f16\n      eq\n      tag_14\n      jumpi\n      dup1\n      0x3f2b437d\n      eq\n      tag_15\n      jumpi\n      dup1\n      0x483f3ac7\n      eq\n      tag_16\n      jumpi\n      jump(tag_2)\n    tag_72:\n      dup1\n      0x30400a86\n      eq\n      tag_10\n      jumpi\n      dup1\n      0x305e2daf\n      eq\n      tag_11\n      jumpi\n      dup1\n      0x313ce567\n      eq\n      tag_12\n      jumpi\n      jump(tag_2)\n    tag_71:\n      dup1\n      0x18160ddd\n      gt\n      tag_73\n      jumpi\n      dup1\n      0x18160ddd\n      eq\n      tag_6\n      jumpi\n      dup1\n      0x1f93abd4\n      eq\n      tag_7\n      jumpi\n      dup1\n      0x23b872dd\n      eq\n      tag_8\n      jumpi\n      dup1\n      0x2945ac68\n      eq\n      tag_9\n      jumpi\n      jump(tag_2)\n    tag_73:\n      dup1\n      0x03ff8e88\n      eq\n      tag_3\n      jumpi\n      dup1\n      0x06fdde03\n      eq\n      tag_4\n      jumpi\n      dup1\n      0x095ea7b3\n      eq\n      tag_5\n      jumpi\n    tag_2:\n      0x00\n      dup1\n      revert\n        /* \"LiquidityToken.sol\":726:760  uint public campaignStakingRewards */\n    tag_3:\n      tag_74\n      tag_75\n      jump\t// in\n    tag_74:\n      mload(0x40)\n      dup1\n      dup3\n      dup2\n      mstore\n      0x20\n      add\n      swap2\n      pop\n      pop\n      mload(0x40)\n      dup1\n      swap2\n      sub\n      swap1\n      return\n        /* \"https://github.com/OpenZeppelin/openzeppelin-contracts/blob/v3.4.2-solc-0.7/contracts/token/ERC20/ERC20.sol\":2153:2242   */\n    tag_4:\n      tag_76\n      tag_77\n      jump\t// in\n    tag_76:\n      mload(0x40)\n      dup1\n      dup1\n      0x20\n      add\n      dup3\n      dup2\n      sub\n      dup3\n      mstore\n      dup4\n      dup2\n      dup2\n      mload\n      dup2\n      mstore\n      0x20\n      add\n      swap2\n      pop\n      dup1\n      mload\n      swap1\n      0x20\n      add\n      swap1\n      dup1\n      dup4\n      dup4\n      0x00\n    tag_78:\n      dup4\n      dup2\n      lt\n      iszero\n      tag_80\n      jumpi\n      dup1\n      dup3\n      add\n      mload\n      dup2\n      dup5\n      add\n      mstore\n      0x20\n      dup2\n      add\n      swap1\n      pop\n      jump(tag_78)\n    tag_80:\n      pop\n      pop\n      pop\n      pop\n      swap1\n      pop\n      swap1\n      dup2\n      add\n      swap1\n      0x1f\n      and\n      dup1\n      iszero\n      tag_81\n      jumpi\n      dup1\n      dup3\n      sub\n      dup1\n      mload\n      0x01\n      dup4\n      0x20\n      sub\n      0x0100\n      exp\n      sub\n      not\n      and\n      dup2\n      mstore\n      0x20\n      add\n      swap2\n      pop\n    tag_81:\n      pop\n      swap3\n      pop\n      pop\n      pop\n      mload(0x40)\n      dup1\n      swap2\n      sub\n      swap1\n      return\n        /* \"https://github.com/OpenZeppelin/openzeppelin-contracts/blob/v3.4.2-solc-0.7/contracts/token/ERC20/ERC20.sol\":4229:4395   */\n    tag_5:\n      tag_82\n      0x04\n      dup1\n      calldatasize\n      sub\n      0x40\n      dup2\n      lt\n      iszero\n      tag_83\n      jumpi\n      0x00\n      dup1\n      revert\n    tag_83:\n      dup2\n      add\n      swap1\n      dup1\n      dup1\n      calldataload\n      0xffffffffffffffffffffffffffffffffffffffff\n      and\n      swap1\n      0x20\n      add\n      swap1\n      swap3\n      swap2\n      swap1\n      dup1\n      calldataload\n      swap1\n      0x20\n      add\n      swap1\n      swap3\n      swap2\n      swap1\n      pop\n      pop\n      pop\n      tag_84\n      jump\t// in\n    tag_82:\n      mload(0x40)\n      dup1\n      dup3\n      iszero\n      iszero\n      dup2\n      mstore\n      0x20\n      add\n      swap2\n      pop\n      pop\n      mload(0x40)\n      dup1\n      swap2\n      sub\n      swap1\n      return\n        /* \"https://github.com/OpenZeppelin/openzeppelin-contracts/blob/v3.4.2-solc-0.7/contracts/token/ERC20/ERC20.sol\":3220:3326   */\n    tag_6:\n      tag_85\n      tag_86\n      jump\t// in\n    tag_85:\n      mload(0x40)\n      dup1\n      dup3\n      dup2\n      mstore\n      0x20\n      add\n      swap2\n      pop\n      pop\n      mload(0x40)\n      dup1\n      swap2\n      sub\n      swap1\n      return\n        /* \"LiquidityToken.sol\":3350:3519  function ensureUserFunctionsAreNotDisabled() public view {... */\n    tag_7:\n      tag_87\n      tag_88\n      jump\t// in\n    tag_87:\n      stop\n        /* \"https://github.com/OpenZeppelin/openzeppelin-contracts/blob/v3.4.2-solc-0.7/contracts/token/ERC20/ERC20.sol\":4862:5179   */\n    tag_8:\n      tag_89\n      0x04\n      dup1\n      calldatasize\n      sub\n      0x60\n      dup2\n      lt\n      iszero\n      tag_90\n      jumpi\n      0x00\n      dup1\n      revert\n    tag_90:\n      dup2\n      add\n      swap1\n      dup1\n      dup1\n      calldataload\n      0xffffffffffffffffffffffffffffffffffffffff\n      and\n      swap1\n      0x20\n      add\n      swap1\n      swap3\n      swap2\n      swap1\n      dup1\n      calldataload\n      0xffffffffffffffffffffffffffffffffffffffff\n      and\n      swap1\n      0x20\n      add\n      swap1\n      swap3\n      swap2\n      swap1\n      dup1\n      calldataload\n      swap1\n      0x20\n      add\n      swap1\n      swap3\n      swap2\n      swap1\n      pop\n      pop\n      pop\n      tag_91\n      jump\t// in\n    tag_89:\n      mload(0x40)\n      dup1\n      dup3\n      iszero\n      iszero\n      dup2\n      mstore\n      0x20\n      add\n      swap2\n      pop\n      pop\n      mload(0x40)\n      dup1\n      swap2\n      sub\n      swap1\n      return\n        /* \"LiquidityToken.sol\":1157:1201  uint public fractionInitialUnlockPerThousand */\n    tag_9:\n      tag_92\n      tag_93\n      jump\t// in\n    tag_92:\n      mload(0x40)\n      dup1\n      dup3\n      dup2\n      mstore\n      0x20\n      add\n      swap2\n      pop\n      pop\n      mload(0x40)\n      dup1\n      swap2\n      sub\n      swap1\n      return\n        /* \"LiquidityToken.sol\":1505:1558  mapping (address => LiquiToken) public userLiquiToken */\n    tag_10:\n      tag_94\n      0x04\n      dup1\n      calldatasize\n      sub\n      0x20\n      dup2\n      lt\n      iszero\n      tag_95\n      jumpi\n      0x00\n      dup1\n      revert\n    tag_95:\n      dup2\n      add\n      swap1\n      dup1\n      dup1\n      calldataload\n      0xffffffffffffffffffffffffffffffffffffffff\n      and\n      swap1\n      0x20\n      add\n      swap1\n      swap3\n      swap2\n      swap1\n      pop\n      pop\n      pop\n      tag_96\n      jump\t// in\n    tag_94:\n      mload(0x40)\n      dup1\n      dup5\n      dup2\n      mstore\n      0x20\n      add\n      dup4\n      dup2\n      mstore\n      0x20\n      add\n      dup3\n      dup2\n      mstore\n      0x20\n      add\n      swap4\n      pop\n      pop\n      pop\n      pop\n      mload(0x40)\n      dup1\n      swap2\n      sub\n      swap1\n      return\n        /* \"LiquidityToken.sol\":13484:13679  function getUserDateOfPartiallyChargedToken(address _user) public view... */\n    tag_11:\n      tag_97\n      0x04\n      dup1\n      calldatasize\n      sub\n      0x20\n      dup2\n      lt\n      iszero\n      tag_98\n      jumpi\n      0x00\n      dup1\n      revert\n    tag_98:\n      dup2\n      add\n      swap1\n      dup1\n      dup1\n      calldataload\n      0xffffffffffffffffffffffffffffffffffffffff\n      and\n      swap1\n      0x20\n      add\n      swap1\n      swap3\n      swap2\n      swap1\n      pop\n      pop\n      pop\n      tag_99\n      jump\t// in\n    tag_97:\n      mload(0x40)\n      dup1\n      dup3\n      dup2\n      mstore\n      0x20\n      add\n      swap2\n      pop\n      pop\n      mload(0x40)\n      dup1\n      swap2\n      sub\n      swap1\n      return\n        /* \"https://github.com/OpenZeppelin/openzeppelin-contracts/blob/v3.4.2-solc-0.7/contracts/token/ERC20/ERC20.sol\":3071:3160   */\n    tag_12:\n      tag_100\n      tag_101\n      jump\t// in\n    tag_100:\n      mload(0x40)\n      dup1\n      dup3\n      0xff\n      and\n      dup2\n      mstore\n      0x20\n      add\n      swap2\n      pop\n      pop\n      mload(0x40)\n      dup1\n      swap2\n      sub\n      swap1\n      return\n        /* \"https://github.com/OpenZeppelin/openzeppelin-contracts/blob/v3.4.2-solc-0.7/contracts/token/ERC20/ERC20.sol\":5574:5789   */\n    tag_13:\n      tag_102\n      0x04\n      dup1\n      calldatasize\n      sub\n      0x40\n      dup2\n      lt\n      iszero\n      tag_103\n      jumpi\n      0x00\n      dup1\n      revert\n    tag_103:\n      dup2\n      add\n      swap1\n      dup1\n      dup1\n      calldataload\n      0xffffffffffffffffffffffffffffffffffffffff\n      and\n      swap1\n      0x20\n      add\n      swap1\n      swap3\n      swap2\n      swap1\n      dup1\n      calldataload\n      swap1\n      0x20\n      add\n      swap1\n      swap3\n      swap2\n      swap1\n      pop\n      pop\n      pop\n      tag_104\n      jump\t// in\n    tag_102:\n      mload(0x40)\n      dup1\n      dup3\n      iszero\n      iszero\n      dup2\n      mstore\n      0x20\n      add\n      swap2\n      pop\n      pop\n      mload(0x40)\n      dup1\n      swap2\n      sub\n      swap1\n      return\n        /* \"LiquidityToken.sol\":523:573  InterfaceProjectToken public interfaceProjectToken */\n    tag_14:\n      tag_105\n      tag_106\n      jump\t// in\n    tag_105:\n      mload(0x40)\n      dup1\n      dup3\n      0xffffffffffffffffffffffffffffffffffffffff\n      and\n      dup2\n      mstore\n      0x20\n      add\n      swap2\n      pop\n      pop\n      mload(0x40)\n      dup1\n      swap2\n      sub\n      swap1\n      return\n        /* \"LiquidityToken.sol\":1015:1040  uint public durationCliff */\n    tag_15:\n      tag_107\n      tag_108\n      jump\t// in\n    tag_107:\n      mload(0x40)\n      dup1\n      dup3\n      dup2\n      mstore\n      0x20\n      add\n      swap2\n      pop\n      pop\n      mload(0x40)\n      dup1\n      swap2\n      sub\n      swap1\n      return\n        /* \"LiquidityToken.sol\":5586:6632  function withdrawLT(uint _value) public {... */\n    tag_16:\n      tag_109\n      0x04\n      dup1\n      calldatasize\n      sub\n      0x20\n      dup2\n      lt\n      iszero\n      tag_110\n      jumpi\n      0x00\n      dup1\n      revert\n    tag_110:\n      dup2\n      add\n      swap1\n      dup1\n      dup1\n      calldataload\n      swap1\n      0x20\n      add\n      swap1\n      swap3\n      swap2\n      swap1\n      pop\n      pop\n      pop\n      tag_111\n      jump\t// in\n    tag_109:\n      stop\n        /* \"LiquidityToken.sol\":1340:1376  bool public areUserFunctionsDisabled */\n    tag_17:\n      tag_112\n      tag_113\n      jump\t// in\n    tag_112:\n      mload(0x40)\n      dup1\n      dup3\n      iszero\n      iszero\n      dup2\n      mstore\n      0x20\n      add\n      swap2\n      pop\n      pop\n      mload(0x40)\n      dup1\n      swap2\n      sub\n      swap1\n      return\n        /* \"LiquidityToken.sol\":1122:1153  uint public totalTokenAllocated */\n    tag_18:\n      tag_114\n      tag_115\n      jump\t// in\n    tag_114:\n      mload(0x40)\n      dup1\n      dup3\n      dup2\n      mstore\n      0x20\n      add\n      swap2\n      pop\n      pop\n      mload(0x40)\n      dup1\n      swap2\n      sub\n      swap1\n      return\n        /* \"LiquidityToken.sol\":685:722  uint public stakingDateLastCheckpoint */\n    tag_19:\n      tag_116\n      tag_117\n      jump\t// in\n    tag_116:\n      mload(0x40)\n      dup1\n      dup3\n      dup2\n      mstore\n      0x20\n      add\n      swap2\n      pop\n      pop\n      mload(0x40)\n      dup1\n      swap2\n      sub\n      swap1\n      return\n        /* \"LiquidityToken.sol\":12643:12770  function burnByInterfaceProjectToken(uint _value) public onlyInterfaceProjectToken() {... */\n    tag_20:\n      tag_118\n      0x04\n      dup1\n      calldatasize\n      sub\n      0x20\n      dup2\n      lt\n      iszero\n      tag_119\n      jumpi\n      0x00\n      dup1\n      revert\n    tag_119:\n      dup2\n      add\n      swap1\n      dup1\n      dup1\n      calldataload\n      swap1\n      0x20\n      add\n      swap1\n      swap3\n      swap2\n      swap1\n      pop\n      pop\n      pop\n      tag_120\n      jump\t// in\n    tag_118:\n      stop\n        /* \"https://github.com/OpenZeppelin/openzeppelin-contracts/blob/v3.4.2-solc-0.7/contracts/token/ERC20/ERC20.sol\":3384:3509   */\n    tag_21:\n      tag_121\n      0x04\n      dup1\n      calldatasize\n      sub\n      0x20\n      dup2\n      lt\n      iszero\n      tag_122\n      jumpi\n      0x00\n      dup1\n      revert\n    tag_122:\n      dup2\n      add\n      swap1\n      dup1\n      dup1\n      calldataload\n      0xffffffffffffffffffffffffffffffffffffffff\n      and\n      swap1\n      0x20\n      add\n      swap1\n      swap3\n      swap2\n      swap1\n      pop\n      pop\n      pop\n      tag_123\n      jump\t// in\n    tag_121:\n      mload(0x40)\n      dup1\n      dup3\n      dup2\n      mstore\n      0x20\n      add\n      swap2\n      pop\n      pop\n      mload(0x40)\n      dup1\n      swap2\n      sub\n      swap1\n      return\n        /* \"https://github.com/OpenZeppelin/openzeppelin-contracts/blob/v3.4.2-solc-0.7/contracts/access/Ownable.sol\":1700:1845   */\n    tag_22:\n      tag_124\n      tag_125\n      jump\t// in\n    tag_124:\n      stop\n        /* \"LiquidityToken.sol\":10675:10889  function updateRatioFeesToRewardHodlers(uint _valuePerThousand) public onlyOwner() {... */\n    tag_23:\n      tag_126\n      0x04\n      dup1\n      calldatasize\n      sub\n      0x20\n      dup2\n      lt\n      iszero\n      tag_127\n      jumpi\n      0x00\n      dup1\n      revert\n    tag_127:\n      dup2\n      add\n      swap1\n      dup1\n      dup1\n      calldataload\n      swap1\n      0x20\n      add\n      swap1\n      swap3\n      swap2\n      swap1\n      pop\n      pop\n      pop\n      tag_128\n      jump\t// in\n    tag_126:\n      stop\n        /* \"LiquidityToken.sol\":11453:11986  function rechargeUserTokens(address _user, uint _valueFullyChargedToIncrease, uint _valuePartiallyChargedToDecrease, ... */\n    tag_24:\n      tag_129\n      0x04\n      dup1\n      calldatasize\n      sub\n      0x80\n      dup2\n      lt\n      iszero\n      tag_130\n      jumpi\n      0x00\n      dup1\n      revert\n    tag_130:\n      dup2\n      add\n      swap1\n      dup1\n      dup1\n      calldataload\n      0xffffffffffffffffffffffffffffffffffffffff\n      and\n      swap1\n      0x20\n      add\n      swap1\n      swap3\n      swap2\n      swap1\n      dup1\n      calldataload\n      swap1\n      0x20\n      add\n      swap1\n      swap3\n      swap2\n      swap1\n      dup1\n      calldataload\n      swap1\n      0x20\n      add\n      swap1\n      swap3\n      swap2\n      swap1\n      dup1\n      calldataload\n      swap1\n      0x20\n      add\n      swap1\n      swap3\n      swap2\n      swap1\n      pop\n      pop\n      pop\n      tag_131\n      jump\t// in\n    tag_129:\n      stop\n        /* \"LiquidityToken.sol\":799:853  uint public ratioFeesToRewardHodlersPerThousand = 1000 */\n    tag_25:\n      tag_132\n      tag_133\n      jump\t// in\n    tag_132:\n      mload(0x40)\n      dup1\n      dup3\n      dup2\n      mstore\n      0x20\n      add\n      swap2\n      pop\n      pop\n      mload(0x40)\n      dup1\n      swap2\n      sub\n      swap1\n      return\n        /* \"LiquidityToken.sol\":13084:13272  function getUserFullyChargedBalanceLiquiToken(address _user) public view... */\n    tag_26:\n      tag_134\n      0x04\n      dup1\n      calldatasize\n      sub\n      0x20\n      dup2\n      lt\n      iszero\n      tag_135\n      jumpi\n      0x00\n      dup1\n      revert\n    tag_135:\n      dup2\n      add\n      swap1\n      dup1\n      dup1\n      calldataload\n      0xffffffffffffffffffffffffffffffffffffffff\n      and\n      swap1\n      0x20\n      add\n      swap1\n      swap3\n      swap2\n      swap1\n      pop\n      pop\n      pop\n      tag_136\n      jump\t// in\n    tag_134:\n      mload(0x40)\n      dup1\n      dup3\n      dup2\n      mstore\n      0x20\n      add\n      swap2\n      pop\n      pop\n      mload(0x40)\n      dup1\n      swap2\n      sub\n      swap1\n      return\n        /* \"LiquidityToken.sol\":1296:1336  uint public maxClaimFeesPerThousandForPT */\n    tag_27:\n      tag_137\n      tag_138\n      jump\t// in\n    tag_137:\n      mload(0x40)\n      dup1\n      dup3\n      dup2\n      mstore\n      0x20\n      add\n      swap2\n      pop\n      pop\n      mload(0x40)\n      dup1\n      swap2\n      sub\n      swap1\n      return\n        /* \"LiquidityToken.sol\":622:650  uint public stakingStartDate */\n    tag_28:\n      tag_139\n      tag_140\n      jump\t// in\n    tag_139:\n      mload(0x40)\n      dup1\n      dup3\n      dup2\n      mstore\n      0x20\n      add\n      swap2\n      pop\n      pop\n      mload(0x40)\n      dup1\n      swap2\n      sub\n      swap1\n      return\n        /* \"LiquidityToken.sol\":578:618  uint public constant multiplier1K = 1000 */\n    tag_29:\n      tag_141\n      tag_142\n      jump\t// in\n    tag_141:\n      mload(0x40)\n      dup1\n      dup3\n      dup2\n      mstore\n      0x20\n      add\n      swap2\n      pop\n      pop\n      mload(0x40)\n      dup1\n      swap2\n      sub\n      swap1\n      return\n        /* \"LiquidityToken.sol\":654:681  uint public stakingDuration */\n    tag_30:\n      tag_143\n      tag_144\n      jump\t// in\n    tag_143:\n      mload(0x40)\n      dup1\n      dup3\n      dup2\n      mstore\n      0x20\n      add\n      swap2\n      pop\n      pop\n      mload(0x40)\n      dup1\n      swap2\n      sub\n      swap1\n      return\n        /* \"LiquidityToken.sol\":11990:12511  function dischargeUserTokens(address _user, uint _valueProjectToken) public onlyInterfaceProjectToken() {... */\n    tag_31:\n      tag_145\n      0x04\n      dup1\n      calldatasize\n      sub\n      0x40\n      dup2\n      lt\n      iszero\n      tag_146\n      jumpi\n      0x00\n      dup1\n      revert\n    tag_146:\n      dup2\n      add\n      swap1\n      dup1\n      dup1\n      calldataload\n      0xffffffffffffffffffffffffffffffffffffffff\n      and\n      swap1\n      0x20\n      add\n      swap1\n      swap3\n      swap2\n      swap1\n      dup1\n      calldataload\n      swap1\n      0x20\n      add\n      swap1\n      swap3\n      swap2\n      swap1\n      pop\n      pop\n      pop\n      tag_147\n      jump\t// in\n    tag_145:\n      stop\n        /* \"LiquidityToken.sol\":1081:1118  uint public maxInitialTokenAllocation */\n    tag_32:\n      tag_148\n      tag_149\n      jump\t// in\n    tag_148:\n      mload(0x40)\n      dup1\n      dup3\n      dup2\n      mstore\n      0x20\n      add\n      swap2\n      pop\n      pop\n      mload(0x40)\n      dup1\n      swap2\n      sub\n      swap1\n      return\n        /* \"LiquidityToken.sol\":1249:1292  uint public maxWithdrawFeesPerThousandForLT */\n    tag_33:\n      tag_150\n      tag_151\n      jump\t// in\n    tag_150:\n      mload(0x40)\n      dup1\n      dup3\n      dup2\n      mstore\n      0x20\n      add\n      swap2\n      pop\n      pop\n      mload(0x40)\n      dup1\n      swap2\n      sub\n      swap1\n      return\n        /* \"https://github.com/OpenZeppelin/openzeppelin-contracts/blob/v3.4.2-solc-0.7/contracts/access/Ownable.sol\":1068:1153   */\n    tag_34:\n      tag_152\n      tag_153\n      jump\t// in\n    tag_152:\n      mload(0x40)\n      dup1\n      dup3\n      0xffffffffffffffffffffffffffffffffffffffff\n      and\n      dup2\n      mstore\n      0x20\n      add\n      swap2\n      pop\n      pop\n      mload(0x40)\n      dup1\n      swap2\n      sub\n      swap1\n      return\n        /* \"LiquidityToken.sol\":7250:7941  function getUpdatedRewardPerShare1e18(uint _blockTime) public view returns(uint _updatedRewardPerShare1e18) {  ... */\n    tag_35:\n      tag_154\n      0x04\n      dup1\n      calldatasize\n      sub\n      0x20\n      dup2\n      lt\n      iszero\n      tag_155\n      jumpi\n      0x00\n      dup1\n      revert\n    tag_155:\n      dup2\n      add\n      swap1\n      dup1\n      dup1\n      calldataload\n      swap1\n      0x20\n      add\n      swap1\n      swap3\n      swap2\n      swap1\n      pop\n      pop\n      pop\n      tag_156\n      jump\t// in\n    tag_154:\n      mload(0x40)\n      dup1\n      dup3\n      dup2\n      mstore\n      0x20\n      add\n      swap2\n      pop\n      pop\n      mload(0x40)\n      dup1\n      swap2\n      sub\n      swap1\n      return\n        /* \"LiquidityToken.sol\":764:795  uint public totalStakingRewards */\n    tag_36:\n      tag_157\n      tag_158\n      jump\t// in\n    tag_157:\n      mload(0x40)\n      dup1\n      dup3\n      dup2\n      mstore\n      0x20\n      add\n      swap2\n      pop\n      pop\n      mload(0x40)\n      dup1\n      swap2\n      sub\n      swap1\n      return\n        /* \"LiquidityToken.sol\":952:1010  mapping (address => uint) public claimedRewardPerShare1e18 */\n    tag_37:\n      tag_159\n      0x04\n      dup1\n      calldatasize\n      sub\n      0x20\n      dup2\n      lt\n      iszero\n      tag_160\n      jumpi\n      0x00\n      dup1\n      revert\n    tag_160:\n      dup2\n      add\n      swap1\n      dup1\n      dup1\n      calldataload\n      0xffffffffffffffffffffffffffffffffffffffff\n      and\n      swap1\n      0x20\n      add\n      swap1\n      swap3\n      swap2\n      swap1\n      pop\n      pop\n      pop\n      tag_161\n      jump\t// in\n    tag_159:\n      mload(0x40)\n      dup1\n      dup3\n      dup2\n      mstore\n      0x20\n      add\n      swap2\n      pop\n      pop\n      mload(0x40)\n      dup1\n      swap2\n      sub\n      swap1\n      return\n        /* \"https://github.com/OpenZeppelin/openzeppelin-contracts/blob/v3.4.2-solc-0.7/contracts/token/ERC20/ERC20.sol\":2355:2448   */\n    tag_38:\n      tag_162\n      tag_163\n      jump\t// in\n    tag_162:\n      mload(0x40)\n      dup1\n      dup1\n      0x20\n      add\n      dup3\n      dup2\n      sub\n      dup3\n      mstore\n      dup4\n      dup2\n      dup2\n      mload\n      dup2\n      mstore\n      0x20\n      add\n      swap2\n      pop\n      dup1\n      mload\n      swap1\n      0x20\n      add\n      swap1\n      dup1\n      dup4\n      dup4\n      0x00\n    tag_164:\n      dup4\n      dup2\n      lt\n      iszero\n      tag_166\n      jumpi\n      dup1\n      dup3\n      add\n      mload\n      dup2\n      dup5\n      add\n      mstore\n      0x20\n      dup2\n      add\n      swap1\n      pop\n      jump(tag_164)\n    tag_166:\n      pop\n      pop\n      pop\n      pop\n      swap1\n      pop\n      swap1\n      dup2\n      add\n      swap1\n      0x1f\n      and\n      dup1\n      iszero\n      tag_167\n      jumpi\n      dup1\n      dup3\n      sub\n      dup1\n      mload\n      0x01\n      dup4\n      0x20\n      sub\n      0x0100\n      exp\n      sub\n      not\n      and\n      dup2\n      mstore\n      0x20\n      add\n      swap2\n      pop\n    tag_167:\n      pop\n      swap3\n      pop\n      pop\n      pop\n      mload(0x40)\n      dup1\n      swap2\n      sub\n      swap1\n      return\n        /* \"LiquidityToken.sol\":13276:13480  function getUserPartiallyChargedBalanceLiquiToken(address _user) public view... */\n    tag_39:\n      tag_168\n      0x04\n      dup1\n      calldatasize\n      sub\n      0x20\n      dup2\n      lt\n      iszero\n      tag_169\n      jumpi\n      0x00\n      dup1\n      revert\n    tag_169:\n      dup2\n      add\n      swap1\n      dup1\n      dup1\n      calldataload\n      0xffffffffffffffffffffffffffffffffffffffff\n      and\n      swap1\n      0x20\n      add\n      swap1\n      swap3\n      swap2\n      swap1\n      pop\n      pop\n      pop\n      tag_170\n      jump\t// in\n    tag_168:\n      mload(0x40)\n      dup1\n      dup3\n      dup2\n      mstore\n      0x20\n      add\n      swap2\n      pop\n      pop\n      mload(0x40)\n      dup1\n      swap2\n      sub\n      swap1\n      return\n        /* \"LiquidityToken.sol\":9415:10440  function setStakingRewards(uint _stakingStartDate, uint _stakingDuration, uint _campaignStakingRewards) ... */\n    tag_40:\n      tag_171\n      0x04\n      dup1\n      calldatasize\n      sub\n      0x60\n      dup2\n      lt\n      iszero\n      tag_172\n      jumpi\n      0x00\n      dup1\n      revert\n    tag_172:\n      dup2\n      add\n      swap1\n      dup1\n      dup1\n      calldataload\n      swap1\n      0x20\n      add\n      swap1\n      swap3\n      swap2\n      swap1\n      dup1\n      calldataload\n      swap1\n      0x20\n      add\n      swap1\n      swap3\n      swap2\n      swap1\n      dup1\n      calldataload\n      swap1\n      0x20\n      add\n      swap1\n      swap3\n      swap2\n      swap1\n      pop\n      pop\n      pop\n      tag_173\n      jump\t// in\n    tag_171:\n      stop\n        /* \"https://github.com/OpenZeppelin/openzeppelin-contracts/blob/v3.4.2-solc-0.7/contracts/token/ERC20/ERC20.sol\":6276:6542   */\n    tag_41:\n      tag_174\n      0x04\n      dup1\n      calldatasize\n      sub\n      0x40\n      dup2\n      lt\n      iszero\n      tag_175\n      jumpi\n      0x00\n      dup1\n      revert\n    tag_175:\n      dup2\n      add\n      swap1\n      dup1\n      dup1\n      calldataload\n      0xffffffffffffffffffffffffffffffffffffffff\n      and\n      swap1\n      0x20\n      add\n      swap1\n      swap3\n      swap2\n      swap1\n      dup1\n      calldataload\n      swap1\n      0x20\n      add\n      swap1\n      swap3\n      swap2\n      swap1\n      pop\n      pop\n      pop\n      tag_176\n      jump\t// in\n    tag_174:\n      mload(0x40)\n      dup1\n      dup3\n      iszero\n      iszero\n      dup2\n      mstore\n      0x20\n      add\n      swap2\n      pop\n      pop\n      mload(0x40)\n      dup1\n      swap2\n      sub\n      swap1\n      return\n        /* \"LiquidityToken.sol\":3224:3346  function enableOrDisableUserFunctions() public onlyOwner() {... */\n    tag_42:\n      tag_177\n      tag_178\n      jump\t// in\n    tag_177:\n      stop\n        /* \"https://github.com/OpenZeppelin/openzeppelin-contracts/blob/v3.4.2-solc-0.7/contracts/token/ERC20/ERC20.sol\":3712:3884   */\n    tag_43:\n      tag_179\n      0x04\n      dup1\n      calldatasize\n      sub\n      0x40\n      dup2\n      lt\n      iszero\n      tag_180\n      jumpi\n      0x00\n      dup1\n      revert\n    tag_180:\n      dup2\n      add\n      swap1\n      dup1\n      dup1\n      calldataload\n      0xffffffffffffffffffffffffffffffffffffffff\n      and\n      swap1\n      0x20\n      add\n      swap1\n      swap3\n      swap2\n      swap1\n      dup1\n      calldataload\n      swap1\n      0x20\n      add\n      swap1\n      swap3\n      swap2\n      swap1\n      pop\n      pop\n      pop\n      tag_181\n      jump\t// in\n    tag_179:\n      mload(0x40)\n      dup1\n      dup3\n      iszero\n      iszero\n      dup2\n      mstore\n      0x20\n      add\n      swap2\n      pop\n      pop\n      mload(0x40)\n      dup1\n      swap2\n      sub\n      swap1\n      return\n        /* \"LiquidityToken.sol\":1205:1245  uint public withdrawFeesPerThousandForLT */\n    tag_44:\n      tag_182\n      tag_183\n      jump\t// in\n    tag_182:\n      mload(0x40)\n      dup1\n      dup3\n      dup2\n      mstore\n      0x20\n      add\n      swap2\n      pop\n      pop\n      mload(0x40)\n      dup1\n      swap2\n      sub\n      swap1\n      return\n        /* \"LiquidityToken.sol\":922:948  uint public totalTokenSold */\n    tag_45:\n      tag_184\n      tag_185\n      jump\t// in\n    tag_184:\n      mload(0x40)\n      dup1\n      dup3\n      dup2\n      mstore\n      0x20\n      add\n      swap2\n      pop\n      pop\n      mload(0x40)\n      dup1\n      swap2\n      sub\n      swap1\n      return\n        /* \"LiquidityToken.sol\":10446:10671  function updateWithdrawalFeesForLT(uint _valuePerThousand) public onlyOwner() {... */\n    tag_46:\n      tag_186\n      0x04\n      dup1\n      calldatasize\n      sub\n      0x20\n      dup2\n      lt\n      iszero\n      tag_187\n      jumpi\n      0x00\n      dup1\n      revert\n    tag_187:\n      dup2\n      add\n      swap1\n      dup1\n      dup1\n      calldataload\n      swap1\n      0x20\n      add\n      swap1\n      swap3\n      swap2\n      swap1\n      pop\n      pop\n      pop\n      tag_188\n      jump\t// in\n    tag_186:\n      stop\n        /* \"LiquidityToken.sol\":898:918  uint public stakedLT */\n    tag_47:\n      tag_189\n      tag_190\n      jump\t// in\n    tag_189:\n      mload(0x40)\n      dup1\n      dup3\n      dup2\n      mstore\n      0x20\n      add\n      swap2\n      pop\n      pop\n      mload(0x40)\n      dup1\n      swap2\n      sub\n      swap1\n      return\n        /* \"LiquidityToken.sol\":8803:9411  function depositLT(uint _value) public {... */\n    tag_48:\n      tag_191\n      0x04\n      dup1\n      calldatasize\n      sub\n      0x20\n      dup2\n      lt\n      iszero\n      tag_192\n      jumpi\n      0x00\n      dup1\n      revert\n    tag_192:\n      dup2\n      add\n      swap1\n      dup1\n      dup1\n      calldataload\n      swap1\n      0x20\n      add\n      swap1\n      swap3\n      swap2\n      swap1\n      pop\n      pop\n      pop\n      tag_193\n      jump\t// in\n    tag_191:\n      stop\n        /* \"LiquidityToken.sol\":12515:12639  function mintByInterfaceProjectToken(uint _value) public onlyInterfaceProjectToken() {... */\n    tag_49:\n      tag_194\n      0x04\n      dup1\n      calldatasize\n      sub\n      0x20\n      dup2\n      lt\n      iszero\n      tag_195\n      jumpi\n      0x00\n      dup1\n      revert\n    tag_195:\n      dup2\n      add\n      swap1\n      dup1\n      dup1\n      calldataload\n      swap1\n      0x20\n      add\n      swap1\n      swap3\n      swap2\n      swap1\n      pop\n      pop\n      pop\n      tag_196\n      jump\t// in\n    tag_194:\n      stop\n        /* \"LiquidityToken.sol\":3523:3783  function setInterfaceProjectToken(InterfaceProjectToken _interfaceProjectToken)... */\n    tag_50:\n      tag_197\n      0x04\n      dup1\n      calldatasize\n      sub\n      0x20\n      dup2\n      lt\n      iszero\n      tag_198\n      jumpi\n      0x00\n      dup1\n      revert\n    tag_198:\n      dup2\n      add\n      swap1\n      dup1\n      dup1\n      calldataload\n      0xffffffffffffffffffffffffffffffffffffffff\n      and\n      swap1\n      0x20\n      add\n      swap1\n      swap3\n      swap2\n      swap1\n      pop\n      pop\n      pop\n      tag_199\n      jump\t// in\n    tag_197:\n      stop\n        /* \"https://github.com/OpenZeppelin/openzeppelin-contracts/blob/v3.4.2-solc-0.7/contracts/token/ERC20/ERC20.sol\":3942:4091   */\n    tag_51:\n      tag_200\n      0x04\n      dup1\n      calldatasize\n      sub\n      0x40\n      dup2\n      lt\n      iszero\n      tag_201\n      jumpi\n      0x00\n      dup1\n      revert\n    tag_201:\n      dup2\n      add\n      swap1\n      dup1\n      dup1\n      calldataload\n      0xffffffffffffffffffffffffffffffffffffffff\n      and\n      swap1\n      0x20\n      add\n      swap1\n      swap3\n      swap2\n      swap1\n      dup1\n      calldataload\n      0xffffffffffffffffffffffffffffffffffffffff\n      and\n      swap1\n      0x20\n      add\n      swap1\n      swap3\n      swap2\n      swap1\n      pop\n      pop\n      pop\n      tag_202\n      jump\t// in\n    tag_200:\n      mload(0x40)\n      dup1\n      dup3\n      dup2\n      mstore\n      0x20\n      add\n      swap2\n      pop\n      pop\n      mload(0x40)\n      dup1\n      swap2\n      sub\n      swap1\n      return\n        /* \"LiquidityToken.sol\":3875:5179  function allocateLTByOwner(address[] memory _users, uint[] memory _values, bool _areAllocationsToBeStaked)... */\n    tag_52:\n      tag_203\n      0x04\n      dup1\n      calldatasize\n      sub\n      0x60\n      dup2\n      lt\n      iszero\n      tag_204\n      jumpi\n      0x00\n      dup1\n      revert\n    tag_204:\n      dup2\n      add\n      swap1\n      dup1\n      dup1\n      calldataload\n      swap1\n      0x20\n      add\n      swap1\n      0x0100000000\n      dup2\n      gt\n      iszero\n      tag_205\n      jumpi\n      0x00\n      dup1\n      revert\n    tag_205:\n      dup3\n      add\n      dup4\n      0x20\n      dup3\n      add\n      gt\n      iszero\n      tag_206\n      jumpi\n      0x00\n      dup1\n      revert\n    tag_206:\n      dup1\n      calldataload\n      swap1\n      0x20\n      add\n      swap2\n      dup5\n      0x20\n      dup4\n      mul\n      dup5\n      add\n      gt\n      0x0100000000\n      dup4\n      gt\n      or\n      iszero\n      tag_207\n      jumpi\n      0x00\n      dup1\n      revert\n    tag_207:\n      swap2\n      swap1\n      dup1\n      dup1\n      0x20\n      mul\n      0x20\n      add\n      mload(0x40)\n      swap1\n      dup2\n      add\n      0x40\n      mstore\n      dup1\n      swap4\n      swap3\n      swap2\n      swap1\n      dup2\n      dup2\n      mstore\n      0x20\n      add\n      dup4\n      dup4\n      0x20\n      mul\n      dup1\n      dup3\n      dup5\n      calldatacopy\n      0x00\n      dup2\n      dup5\n      add\n      mstore\n      not(0x1f)\n      0x1f\n      dup3\n      add\n      and\n      swap1\n      pop\n      dup1\n      dup4\n      add\n      swap3\n      pop\n      pop\n      pop\n      pop\n      pop\n      pop\n      pop\n      swap2\n      swap3\n      swap2\n      swap3\n      swap1\n      dup1\n      calldataload\n      swap1\n      0x20\n      add\n      swap1\n      0x0100000000\n      dup2\n      gt\n      iszero\n      tag_208\n      jumpi\n      0x00\n      dup1\n      revert\n    tag_208:\n      dup3\n      add\n      dup4\n      0x20\n      dup3\n      add\n      gt\n      iszero\n      tag_209\n      jumpi\n      0x00\n      dup1\n      revert\n    tag_209:\n      dup1\n      calldataload\n      swap1\n      0x20\n      add\n      swap2\n      dup5\n      0x20\n      dup4\n      mul\n      dup5\n      add\n      gt\n      0x0100000000\n      dup4\n      gt\n      or\n      iszero\n      tag_210\n      jumpi\n      0x00\n      dup1\n      revert\n    tag_210:\n      swap2\n      swap1\n      dup1\n      dup1\n      0x20\n      mul\n      0x20\n      add\n      mload(0x40)\n      swap1\n      dup2\n      add\n      0x40\n      mstore\n      dup1\n      swap4\n      swap3\n      swap2\n      swap1\n      dup2\n      dup2\n      mstore\n      0x20\n      add\n      dup4\n      dup4\n      0x20\n      mul\n      dup1\n      dup3\n      dup5\n      calldatacopy\n      0x00\n      dup2\n      dup5\n      add\n      mstore\n      not(0x1f)\n      0x1f\n      dup3\n      add\n      and\n      swap1\n      pop\n      dup1\n      dup4\n      add\n      swap3\n      pop\n      pop\n      pop\n      pop\n      pop\n      pop\n      pop\n      swap2\n      swap3\n      swap2\n      swap3\n      swap1\n      dup1\n      calldataload\n      iszero\n      iszero\n      swap1\n      0x20\n      add\n      swap1\n      swap3\n      swap2\n      swap1\n      pop\n      pop\n      pop\n      tag_211\n      jump\t// in\n    tag_203:\n      stop\n        /* \"LiquidityToken.sol\":857:894  uint public currentRewardPerShare1e18 */\n    tag_53:\n      tag_212\n      tag_213\n      jump\t// in\n    tag_212:\n      mload(0x40)\n      dup1\n      dup3\n      dup2\n      mstore\n      0x20\n      add\n      swap2\n      pop\n      pop\n      mload(0x40)\n      dup1\n      swap2\n      sub\n      swap1\n      return\n        /* \"LiquidityToken.sol\":1044:1077  uint public durationLinearVesting */\n    tag_54:\n      tag_214\n      tag_215\n      jump\t// in\n    tag_214:\n      mload(0x40)\n      dup1\n      dup3\n      dup2\n      mstore\n      0x20\n      add\n      swap2\n      pop\n      pop\n      mload(0x40)\n      dup1\n      swap2\n      sub\n      swap1\n      return\n        /* \"LiquidityToken.sol\":11259:11449  function updateStakingAndGetHodlRewardsByInterfacePT(address _user) public onlyInterfaceProjectToken() returns (uint) {... */\n    tag_55:\n      tag_216\n      0x04\n      dup1\n      calldatasize\n      sub\n      0x20\n      dup2\n      lt\n      iszero\n      tag_217\n      jumpi\n      0x00\n      dup1\n      revert\n    tag_217:\n      dup2\n      add\n      swap1\n      dup1\n      dup1\n      calldataload\n      0xffffffffffffffffffffffffffffffffffffffff\n      and\n      swap1\n      0x20\n      add\n      swap1\n      swap3\n      swap2\n      swap1\n      pop\n      pop\n      pop\n      tag_218\n      jump\t// in\n    tag_216:\n      mload(0x40)\n      dup1\n      dup3\n      dup2\n      mstore\n      0x20\n      add\n      swap2\n      pop\n      pop\n      mload(0x40)\n      dup1\n      swap2\n      sub\n      swap1\n      return\n        /* \"https://github.com/OpenZeppelin/openzeppelin-contracts/blob/v3.4.2-solc-0.7/contracts/access/Ownable.sol\":1994:2234   */\n    tag_56:\n      tag_219\n      0x04\n      dup1\n      calldatasize\n      sub\n      0x20\n      dup2\n      lt\n      iszero\n      tag_220\n      jumpi\n      0x00\n      dup1\n      revert\n    tag_220:\n      dup2\n      add\n      swap1\n      dup1\n      dup1\n      calldataload\n      0xffffffffffffffffffffffffffffffffffffffff\n      and\n      swap1\n      0x20\n      add\n      swap1\n      swap3\n      swap2\n      swap1\n      pop\n      pop\n      pop\n      tag_221\n      jump\t// in\n    tag_219:\n      stop\n        /* \"LiquidityToken.sol\":12774:12918  function updateRewardsAfterFeesPaymentByInterface(uint _fees) public onlyInterfaceProjectToken() {... */\n    tag_57:\n      tag_222\n      0x04\n      dup1\n      calldatasize\n      sub\n      0x20\n      dup2\n      lt\n      iszero\n      tag_223\n      jumpi\n      0x00\n      dup1\n      revert\n    tag_223:\n      dup2\n      add\n      swap1\n      dup1\n      dup1\n      calldataload\n      swap1\n      0x20\n      add\n      swap1\n      swap3\n      swap2\n      swap1\n      pop\n      pop\n      pop\n      tag_224\n      jump\t// in\n    tag_222:\n      stop\n        /* \"LiquidityToken.sol\":7945:8500  function getHodlRewards(address _user, uint _currentRewardPerShare1e18) public view returns(uint _hodlRewards) {... */\n    tag_58:\n      tag_225\n      0x04\n      dup1\n      calldatasize\n      sub\n      0x40\n      dup2\n      lt\n      iszero\n      tag_226\n      jumpi\n      0x00\n      dup1\n      revert\n    tag_226:\n      dup2\n      add\n      swap1\n      dup1\n      dup1\n      calldataload\n      0xffffffffffffffffffffffffffffffffffffffff\n      and\n      swap1\n      0x20\n      add\n      swap1\n      swap3\n      swap2\n      swap1\n      dup1\n      calldataload\n      swap1\n      0x20\n      add\n      swap1\n      swap3\n      swap2\n      swap1\n      pop\n      pop\n      pop\n      tag_227\n      jump\t// in\n    tag_225:\n      mload(0x40)\n      dup1\n      dup3\n      dup2\n      mstore\n      0x20\n      add\n      swap2\n      pop\n      pop\n      mload(0x40)\n      dup1\n      swap2\n      sub\n      swap1\n      return\n        /* \"LiquidityToken.sol\":726:760  uint public campaignStakingRewards */\n    tag_75:\n      sload(0x0a)\n      dup2\n      jump\t// out\n        /* \"https://github.com/OpenZeppelin/openzeppelin-contracts/blob/v3.4.2-solc-0.7/contracts/token/ERC20/ERC20.sol\":2153:2242   */\n    tag_77:\n        /* \"https://github.com/OpenZeppelin/openzeppelin-contracts/blob/v3.4.2-solc-0.7/contracts/token/ERC20/ERC20.sol\":2198:2211   */\n      0x60\n        /* \"https://github.com/OpenZeppelin/openzeppelin-contracts/blob/v3.4.2-solc-0.7/contracts/token/ERC20/ERC20.sol\":2230:2235   */\n      0x03\n        /* \"https://github.com/OpenZeppelin/openzeppelin-contracts/blob/v3.4.2-solc-0.7/contracts/token/ERC20/ERC20.sol\":2223:2235   */\n      dup1\n      sload\n      0x01\n      dup2\n      0x01\n      and\n      iszero\n      0x0100\n      mul\n      sub\n      and\n      0x02\n      swap1\n      div\n      dup1\n      0x1f\n      add\n      0x20\n      dup1\n      swap2\n      div\n      mul\n      0x20\n      add\n      mload(0x40)\n      swap1\n      dup2\n      add\n      0x40\n      mstore\n      dup1\n      swap3\n      swap2\n      swap1\n      dup2\n      dup2\n      mstore\n      0x20\n      add\n      dup3\n      dup1\n      sload\n      0x01\n      dup2\n      0x01\n      and\n      iszero\n      0x0100\n      mul\n      sub\n      and\n      0x02\n      swap1\n      div\n      dup1\n      iszero\n      tag_229\n      jumpi\n      dup1\n      0x1f\n      lt\n      tag_230\n      jumpi\n      0x0100\n      dup1\n      dup4\n      sload\n      div\n      mul\n      dup4\n      mstore\n      swap2\n      0x20\n      add\n      swap2\n      jump(tag_229)\n    tag_230:\n      dup3\n      add\n      swap2\n      swap1\n      0x00\n      mstore\n      keccak256(0x00, 0x20)\n      swap1\n    tag_231:\n      dup2\n      sload\n      dup2\n      mstore\n      swap1\n      0x01\n      add\n      swap1\n      0x20\n      add\n      dup1\n      dup4\n      gt\n      tag_231\n      jumpi\n      dup3\n      swap1\n      sub\n      0x1f\n      and\n      dup3\n      add\n      swap2\n    tag_229:\n      pop\n      pop\n      pop\n      pop\n      pop\n      swap1\n      pop\n        /* \"https://github.com/OpenZeppelin/openzeppelin-contracts/blob/v3.4.2-solc-0.7/contracts/token/ERC20/ERC20.sol\":2153:2242   */\n      swap1\n      jump\t// out\n        /* \"https://github.com/OpenZeppelin/openzeppelin-contracts/blob/v3.4.2-solc-0.7/contracts/token/ERC20/ERC20.sol\":4229:4395   */\n    tag_84:\n        /* \"https://github.com/OpenZeppelin/openzeppelin-contracts/blob/v3.4.2-solc-0.7/contracts/token/ERC20/ERC20.sol\":4312:4316   */\n      0x00\n        /* \"https://github.com/OpenZeppelin/openzeppelin-contracts/blob/v3.4.2-solc-0.7/contracts/token/ERC20/ERC20.sol\":4328:4367   */\n      tag_233\n        /* \"https://github.com/OpenZeppelin/openzeppelin-contracts/blob/v3.4.2-solc-0.7/contracts/token/ERC20/ERC20.sol\":4337:4349   */\n      tag_234\n        /* \"https://github.com/OpenZeppelin/openzeppelin-contracts/blob/v3.4.2-solc-0.7/contracts/token/ERC20/ERC20.sol\":4337:4347   */\n      tag_235\n        /* \"https://github.com/OpenZeppelin/openzeppelin-contracts/blob/v3.4.2-solc-0.7/contracts/token/ERC20/ERC20.sol\":4337:4349   */\n      jump\t// in\n    tag_234:\n        /* \"https://github.com/OpenZeppelin/openzeppelin-contracts/blob/v3.4.2-solc-0.7/contracts/token/ERC20/ERC20.sol\":4351:4358   */\n      dup5\n        /* \"https://github.com/OpenZeppelin/openzeppelin-contracts/blob/v3.4.2-solc-0.7/contracts/token/ERC20/ERC20.sol\":4360:4366   */\n      dup5\n        /* \"https://github.com/OpenZeppelin/openzeppelin-contracts/blob/v3.4.2-solc-0.7/contracts/token/ERC20/ERC20.sol\":4328:4336   */\n      tag_236\n        /* \"https://github.com/OpenZeppelin/openzeppelin-contracts/blob/v3.4.2-solc-0.7/contracts/token/ERC20/ERC20.sol\":4328:4367   */\n      jump\t// in\n    tag_233:\n        /* \"https://github.com/OpenZeppelin/openzeppelin-contracts/blob/v3.4.2-solc-0.7/contracts/token/ERC20/ERC20.sol\":4384:4388   */\n      0x01\n        /* \"https://github.com/OpenZeppelin/openzeppelin-contracts/blob/v3.4.2-solc-0.7/contracts/token/ERC20/ERC20.sol\":4377:4388   */\n      swap1\n      pop\n        /* \"https://github.com/OpenZeppelin/openzeppelin-contracts/blob/v3.4.2-solc-0.7/contracts/token/ERC20/ERC20.sol\":4229:4395   */\n      swap3\n      swap2\n      pop\n      pop\n      jump\t// out\n        /* \"https://github.com/OpenZeppelin/openzeppelin-contracts/blob/v3.4.2-solc-0.7/contracts/token/ERC20/ERC20.sol\":3220:3326   */\n    tag_86:\n        /* \"https://github.com/OpenZeppelin/openzeppelin-contracts/blob/v3.4.2-solc-0.7/contracts/token/ERC20/ERC20.sol\":3281:3288   */\n      0x00\n        /* \"https://github.com/OpenZeppelin/openzeppelin-contracts/blob/v3.4.2-solc-0.7/contracts/token/ERC20/ERC20.sol\":3307:3319   */\n      sload(0x02)\n        /* \"https://github.com/OpenZeppelin/openzeppelin-contracts/blob/v3.4.2-solc-0.7/contracts/token/ERC20/ERC20.sol\":3300:3319   */\n      swap1\n      pop\n        /* \"https://github.com/OpenZeppelin/openzeppelin-contracts/blob/v3.4.2-solc-0.7/contracts/token/ERC20/ERC20.sol\":3220:3326   */\n      swap1\n      jump\t// out\n        /* \"LiquidityToken.sol\":3350:3519  function ensureUserFunctionsAreNotDisabled() public view {... */\n    tag_88:\n        /* \"LiquidityToken.sol\":3456:3461  false */\n      0x00\n        /* \"LiquidityToken.sol\":3428:3461  areUserFunctionsDisabled == false */\n      iszero\n      iszero\n        /* \"LiquidityToken.sol\":3428:3452  areUserFunctionsDisabled */\n      0x19\n      0x00\n      swap1\n      sload\n      swap1\n      0x0100\n      exp\n      swap1\n      div\n      0xff\n      and\n        /* \"LiquidityToken.sol\":3428:3461  areUserFunctionsDisabled == false */\n      iszero\n      iszero\n      eq\n        /* \"LiquidityToken.sol\":3413:3514  require(... */\n      tag_239\n      jumpi\n      mload(0x40)\n      0x08c379a000000000000000000000000000000000000000000000000000000000\n      dup2\n      mstore\n      0x04\n      add\n      dup1\n      dup1\n      0x20\n      add\n      dup3\n      dup2\n      sub\n      dup3\n      mstore\n      0x23\n      dup2\n      mstore\n      0x20\n      add\n      dup1\n      data_8e91a5b1272f4e4f61e64b47d7c1a5143a07d7fd64ea1b240af506d9edc55eeb\n      0x23\n      swap2\n      codecopy\n      0x40\n      add\n      swap2\n      pop\n      pop\n      mload(0x40)\n      dup1\n      swap2\n      sub\n      swap1\n      revert\n    tag_239:\n        /* \"LiquidityToken.sol\":3350:3519  function ensureUserFunctionsAreNotDisabled() public view {... */\n      jump\t// out\n        /* \"https://github.com/OpenZeppelin/openzeppelin-contracts/blob/v3.4.2-solc-0.7/contracts/token/ERC20/ERC20.sol\":4862:5179   */\n    tag_91:\n        /* \"https://github.com/OpenZeppelin/openzeppelin-contracts/blob/v3.4.2-solc-0.7/contracts/token/ERC20/ERC20.sol\":4968:4972   */\n      0x00\n        /* \"https://github.com/OpenZeppelin/openzeppelin-contracts/blob/v3.4.2-solc-0.7/contracts/token/ERC20/ERC20.sol\":4984:5020   */\n      tag_241\n        /* \"https://github.com/OpenZeppelin/openzeppelin-contracts/blob/v3.4.2-solc-0.7/contracts/token/ERC20/ERC20.sol\":4994:5000   */\n      dup5\n        /* \"https://github.com/OpenZeppelin/openzeppelin-contracts/blob/v3.4.2-solc-0.7/contracts/token/ERC20/ERC20.sol\":5002:5011   */\n      dup5\n        /* \"https://github.com/OpenZeppelin/openzeppelin-contracts/blob/v3.4.2-solc-0.7/contracts/token/ERC20/ERC20.sol\":5013:5019   */\n      dup5\n        /* \"https://github.com/OpenZeppelin/openzeppelin-contracts/blob/v3.4.2-solc-0.7/contracts/token/ERC20/ERC20.sol\":4984:4993   */\n      tag_242\n        /* \"https://github.com/OpenZeppelin/openzeppelin-contracts/blob/v3.4.2-solc-0.7/contracts/token/ERC20/ERC20.sol\":4984:5020   */\n      jump\t// in\n    tag_241:\n        /* \"https://github.com/OpenZeppelin/openzeppelin-contracts/blob/v3.4.2-solc-0.7/contracts/token/ERC20/ERC20.sol\":5030:5151   */\n      tag_243\n        /* \"https://github.com/OpenZeppelin/openzeppelin-contracts/blob/v3.4.2-solc-0.7/contracts/token/ERC20/ERC20.sol\":5039:5045   */\n      dup5\n        /* \"https://github.com/OpenZeppelin/openzeppelin-contracts/blob/v3.4.2-solc-0.7/contracts/token/ERC20/ERC20.sol\":5047:5059   */\n      tag_244\n        /* \"https://github.com/OpenZeppelin/openzeppelin-contracts/blob/v3.4.2-solc-0.7/contracts/token/ERC20/ERC20.sol\":5047:5057   */\n      tag_235\n        /* \"https://github.com/OpenZeppelin/openzeppelin-contracts/blob/v3.4.2-solc-0.7/contracts/token/ERC20/ERC20.sol\":5047:5059   */\n      jump\t// in\n    tag_244:\n        /* \"https://github.com/OpenZeppelin/openzeppelin-contracts/blob/v3.4.2-solc-0.7/contracts/token/ERC20/ERC20.sol\":5061:5150   */\n      tag_245\n        /* \"https://github.com/OpenZeppelin/openzeppelin-contracts/blob/v3.4.2-solc-0.7/contracts/token/ERC20/ERC20.sol\":5099:5105   */\n      dup6\n        /* \"https://github.com/OpenZeppelin/openzeppelin-contracts/blob/v3.4.2-solc-0.7/contracts/token/ERC20/ERC20.sol\":5061:5150   */\n      mload(0x40)\n      dup1\n      0x60\n      add\n      0x40\n      mstore\n      dup1\n      0x28\n      dup2\n      mstore\n      0x20\n      add\n      data_974d1b4421da69cc60b481194f0dad36a5bb4e23da810da7a7fb30cdba178330\n      0x28\n      swap2\n      codecopy\n        /* \"https://github.com/OpenZeppelin/openzeppelin-contracts/blob/v3.4.2-solc-0.7/contracts/token/ERC20/ERC20.sol\":5061:5072   */\n      0x01\n        /* \"https://github.com/OpenZeppelin/openzeppelin-contracts/blob/v3.4.2-solc-0.7/contracts/token/ERC20/ERC20.sol\":5061:5080   */\n      0x00\n        /* \"https://github.com/OpenZeppelin/openzeppelin-contracts/blob/v3.4.2-solc-0.7/contracts/token/ERC20/ERC20.sol\":5073:5079   */\n      dup12\n        /* \"https://github.com/OpenZeppelin/openzeppelin-contracts/blob/v3.4.2-solc-0.7/contracts/token/ERC20/ERC20.sol\":5061:5080   */\n      0xffffffffffffffffffffffffffffffffffffffff\n      and\n      0xffffffffffffffffffffffffffffffffffffffff\n      and\n      dup2\n      mstore\n      0x20\n      add\n      swap1\n      dup2\n      mstore\n      0x20\n      add\n      0x00\n      keccak256\n        /* \"https://github.com/OpenZeppelin/openzeppelin-contracts/blob/v3.4.2-solc-0.7/contracts/token/ERC20/ERC20.sol\":5061:5094   */\n      0x00\n        /* \"https://github.com/OpenZeppelin/openzeppelin-contracts/blob/v3.4.2-solc-0.7/contracts/token/ERC20/ERC20.sol\":5081:5093   */\n      tag_246\n        /* \"https://github.com/OpenZeppelin/openzeppelin-contracts/blob/v3.4.2-solc-0.7/contracts/token/ERC20/ERC20.sol\":5081:5091   */\n      tag_235\n        /* \"https://github.com/OpenZeppelin/openzeppelin-contracts/blob/v3.4.2-solc-0.7/contracts/token/ERC20/ERC20.sol\":5081:5093   */\n      jump\t// in\n    tag_246:\n        /* \"https://github.com/OpenZeppelin/openzeppelin-contracts/blob/v3.4.2-solc-0.7/contracts/token/ERC20/ERC20.sol\":5061:5094   */\n      0xffffffffffffffffffffffffffffffffffffffff\n      and\n      0xffffffffffffffffffffffffffffffffffffffff\n      and\n      dup2\n      mstore\n      0x20\n      add\n      swap1\n      dup2\n      mstore\n      0x20\n      add\n      0x00\n      keccak256\n      sload\n        /* \"https://github.com/OpenZeppelin/openzeppelin-contracts/blob/v3.4.2-solc-0.7/contracts/token/ERC20/ERC20.sol\":5061:5098   */\n      tag_247\n      swap1\n        /* \"https://github.com/OpenZeppelin/openzeppelin-contracts/blob/v3.4.2-solc-0.7/contracts/token/ERC20/ERC20.sol\":5061:5150   */\n      swap3\n      swap2\n      swap1\n      0xffffffff\n      and\n      jump\t// in\n    tag_245:\n        /* \"https://github.com/OpenZeppelin/openzeppelin-contracts/blob/v3.4.2-solc-0.7/contracts/token/ERC20/ERC20.sol\":5030:5038   */\n      tag_236\n        /* \"https://github.com/OpenZeppelin/openzeppelin-contracts/blob/v3.4.2-solc-0.7/contracts/token/ERC20/ERC20.sol\":5030:5151   */\n      jump\t// in\n    tag_243:\n        /* \"https://github.com/OpenZeppelin/openzeppelin-contracts/blob/v3.4.2-solc-0.7/contracts/token/ERC20/ERC20.sol\":5168:5172   */\n      0x01\n        /* \"https://github.com/OpenZeppelin/openzeppelin-contracts/blob/v3.4.2-solc-0.7/contracts/token/ERC20/ERC20.sol\":5161:5172   */\n      swap1\n      pop\n        /* \"https://github.com/OpenZeppelin/openzeppelin-contracts/blob/v3.4.2-solc-0.7/contracts/token/ERC20/ERC20.sol\":4862:5179   */\n      swap4\n      swap3\n      pop\n      pop\n      pop\n      jump\t// out\n        /* \"LiquidityToken.sol\":1157:1201  uint public fractionInitialUnlockPerThousand */\n    tag_93:\n      sload(0x15)\n      dup2\n      jump\t// out\n        /* \"LiquidityToken.sol\":1505:1558  mapping (address => LiquiToken) public userLiquiToken */\n    tag_96:\n      mstore(0x20, 0x1a)\n      dup1\n      0x00\n      mstore\n      keccak256(0x00, 0x40)\n      0x00\n      swap2\n      pop\n      swap1\n      pop\n      dup1\n      0x00\n      add\n      sload\n      swap1\n      dup1\n      0x01\n      add\n      sload\n      swap1\n      dup1\n      0x02\n      add\n      sload\n      swap1\n      pop\n      dup4\n      jump\t// out\n        /* \"LiquidityToken.sol\":13484:13679  function getUserDateOfPartiallyChargedToken(address _user) public view... */\n    tag_99:\n        /* \"LiquidityToken.sol\":13567:13595  uint _dateOfPartiallyCharged */\n      0x00\n        /* \"LiquidityToken.sol\":13630:13644  userLiquiToken */\n      0x1a\n        /* \"LiquidityToken.sol\":13630:13651  userLiquiToken[_user] */\n      0x00\n        /* \"LiquidityToken.sol\":13645:13650  _user */\n      dup4\n        /* \"LiquidityToken.sol\":13630:13651  userLiquiToken[_user] */\n      0xffffffffffffffffffffffffffffffffffffffff\n      and\n      0xffffffffffffffffffffffffffffffffffffffff\n      and\n      dup2\n      mstore\n      0x20\n      add\n      swap1\n      dup2\n      mstore\n      0x20\n      add\n      0x00\n      keccak256\n        /* \"LiquidityToken.sol\":13630:13674  userLiquiToken[_user].dateOfPartiallyCharged */\n      0x02\n      add\n      sload\n        /* \"LiquidityToken.sol\":13604:13674  _dateOfPartiallyCharged = userLiquiToken[_user].dateOfPartiallyCharged */\n      swap1\n      pop\n        /* \"LiquidityToken.sol\":13484:13679  function getUserDateOfPartiallyChargedToken(address _user) public view... */\n      swap2\n      swap1\n      pop\n      jump\t// out\n        /* \"https://github.com/OpenZeppelin/openzeppelin-contracts/blob/v3.4.2-solc-0.7/contracts/token/ERC20/ERC20.sol\":3071:3160   */\n    tag_101:\n        /* \"https://github.com/OpenZeppelin/openzeppelin-contracts/blob/v3.4.2-solc-0.7/contracts/token/ERC20/ERC20.sol\":3120:3125   */\n      0x00\n        /* \"https://github.com/OpenZeppelin/openzeppelin-contracts/blob/v3.4.2-solc-0.7/contracts/token/ERC20/ERC20.sol\":3144:3153   */\n      0x05\n      0x00\n      swap1\n      sload\n      swap1\n      0x0100\n      exp\n      swap1\n      div\n      0xff\n      and\n        /* \"https://github.com/OpenZeppelin/openzeppelin-contracts/blob/v3.4.2-solc-0.7/contracts/token/ERC20/ERC20.sol\":3137:3153   */\n      swap1\n      pop\n        /* \"https://github.com/OpenZeppelin/openzeppelin-contracts/blob/v3.4.2-solc-0.7/contracts/token/ERC20/ERC20.sol\":3071:3160   */\n      swap1\n      jump\t// out\n        /* \"https://github.com/OpenZeppelin/openzeppelin-contracts/blob/v3.4.2-solc-0.7/contracts/token/ERC20/ERC20.sol\":5574:5789   */\n    tag_104:\n        /* \"https://github.com/OpenZeppelin/openzeppelin-contracts/blob/v3.4.2-solc-0.7/contracts/token/ERC20/ERC20.sol\":5662:5666   */\n      0x00\n        /* \"https://github.com/OpenZeppelin/openzeppelin-contracts/blob/v3.4.2-solc-0.7/contracts/token/ERC20/ERC20.sol\":5678:5761   */\n      tag_251\n        /* \"https://github.com/OpenZeppelin/openzeppelin-contracts/blob/v3.4.2-solc-0.7/contracts/token/ERC20/ERC20.sol\":5687:5699   */\n      tag_252\n        /* \"https://github.com/OpenZeppelin/openzeppelin-contracts/blob/v3.4.2-solc-0.7/contracts/token/ERC20/ERC20.sol\":5687:5697   */\n      tag_235\n        /* \"https://github.com/OpenZeppelin/openzeppelin-contracts/blob/v3.4.2-solc-0.7/contracts/token/ERC20/ERC20.sol\":5687:5699   */\n      jump\t// in\n    tag_252:\n        /* \"https://github.com/OpenZeppelin/openzeppelin-contracts/blob/v3.4.2-solc-0.7/contracts/token/ERC20/ERC20.sol\":5701:5708   */\n      dup5\n        /* \"https://github.com/OpenZeppelin/openzeppelin-contracts/blob/v3.4.2-solc-0.7/contracts/token/ERC20/ERC20.sol\":5710:5760   */\n      tag_253\n        /* \"https://github.com/OpenZeppelin/openzeppelin-contracts/blob/v3.4.2-solc-0.7/contracts/token/ERC20/ERC20.sol\":5749:5759   */\n      dup6\n        /* \"https://github.com/OpenZeppelin/openzeppelin-contracts/blob/v3.4.2-solc-0.7/contracts/token/ERC20/ERC20.sol\":5710:5721   */\n      0x01\n        /* \"https://github.com/OpenZeppelin/openzeppelin-contracts/blob/v3.4.2-solc-0.7/contracts/token/ERC20/ERC20.sol\":5710:5735   */\n      0x00\n        /* \"https://github.com/OpenZeppelin/openzeppelin-contracts/blob/v3.4.2-solc-0.7/contracts/token/ERC20/ERC20.sol\":5722:5734   */\n      tag_254\n        /* \"https://github.com/OpenZeppelin/openzeppelin-contracts/blob/v3.4.2-solc-0.7/contracts/token/ERC20/ERC20.sol\":5722:5732   */\n      tag_235\n        /* \"https://github.com/OpenZeppelin/openzeppelin-contracts/blob/v3.4.2-solc-0.7/contracts/token/ERC20/ERC20.sol\":5722:5734   */\n      jump\t// in\n    tag_254:\n        /* \"https://github.com/OpenZeppelin/openzeppelin-contracts/blob/v3.4.2-solc-0.7/contracts/token/ERC20/ERC20.sol\":5710:5735   */\n      0xffffffffffffffffffffffffffffffffffffffff\n      and\n      0xffffffffffffffffffffffffffffffffffffffff\n      and\n      dup2\n      mstore\n      0x20\n      add\n      swap1\n      dup2\n      mstore\n      0x20\n      add\n      0x00\n      keccak256\n        /* \"https://github.com/OpenZeppelin/openzeppelin-contracts/blob/v3.4.2-solc-0.7/contracts/token/ERC20/ERC20.sol\":5710:5744   */\n      0x00\n        /* \"https://github.com/OpenZeppelin/openzeppelin-contracts/blob/v3.4.2-solc-0.7/contracts/token/ERC20/ERC20.sol\":5736:5743   */\n      dup10\n        /* \"https://github.com/OpenZeppelin/openzeppelin-contracts/blob/v3.4.2-solc-0.7/contracts/token/ERC20/ERC20.sol\":5710:5744   */\n      0xffffffffffffffffffffffffffffffffffffffff\n      and\n      0xffffffffffffffffffffffffffffffffffffffff\n      and\n      dup2\n      mstore\n      0x20\n      add\n      swap1\n      dup2\n      mstore\n      0x20\n      add\n      0x00\n      keccak256\n      sload\n        /* \"https://github.com/OpenZeppelin/openzeppelin-contracts/blob/v3.4.2-solc-0.7/contracts/token/ERC20/ERC20.sol\":5710:5748   */\n      tag_255\n      swap1\n        /* \"https://github.com/OpenZeppelin/openzeppelin-contracts/blob/v3.4.2-solc-0.7/contracts/token/ERC20/ERC20.sol\":5710:5760   */\n      swap2\n      swap1\n      0xffffffff\n      and\n      jump\t// in\n    tag_253:\n        /* \"https://github.com/OpenZeppelin/openzeppelin-contracts/blob/v3.4.2-solc-0.7/contracts/token/ERC20/ERC20.sol\":5678:5686   */\n      tag_236\n        /* \"https://github.com/OpenZeppelin/openzeppelin-contracts/blob/v3.4.2-solc-0.7/contracts/token/ERC20/ERC20.sol\":5678:5761   */\n      jump\t// in\n    tag_251:\n        /* \"https://github.com/OpenZeppelin/openzeppelin-contracts/blob/v3.4.2-solc-0.7/contracts/token/ERC20/ERC20.sol\":5778:5782   */\n      0x01\n        /* \"https://github.com/OpenZeppelin/openzeppelin-contracts/blob/v3.4.2-solc-0.7/contracts/token/ERC20/ERC20.sol\":5771:5782   */\n      swap1\n      pop\n        /* \"https://github.com/OpenZeppelin/openzeppelin-contracts/blob/v3.4.2-solc-0.7/contracts/token/ERC20/ERC20.sol\":5574:5789   */\n      swap3\n      swap2\n      pop\n      pop\n      jump\t// out\n        /* \"LiquidityToken.sol\":523:573  InterfaceProjectToken public interfaceProjectToken */\n    tag_106:\n      0x06\n      0x00\n      swap1\n      sload\n      swap1\n      0x0100\n      exp\n      swap1\n      div\n      0xffffffffffffffffffffffffffffffffffffffff\n      and\n      dup2\n      jump\t// out\n        /* \"LiquidityToken.sol\":1015:1040  uint public durationCliff */\n    tag_108:\n      sload(0x11)\n      dup2\n      jump\t// out\n        /* \"LiquidityToken.sol\":5586:6632  function withdrawLT(uint _value) public {... */\n    tag_111:\n        /* \"LiquidityToken.sol\":5637:5672  ensureUserFunctionsAreNotDisabled() */\n      tag_257\n        /* \"LiquidityToken.sol\":5637:5670  ensureUserFunctionsAreNotDisabled */\n      tag_88\n        /* \"LiquidityToken.sol\":5637:5672  ensureUserFunctionsAreNotDisabled() */\n      jump\t// in\n    tag_257:\n        /* \"LiquidityToken.sol\":5708:5722  userLiquiToken */\n      0x1a\n        /* \"LiquidityToken.sol\":5708:5734  userLiquiToken[msg.sender] */\n      0x00\n        /* \"LiquidityToken.sol\":5723:5733  msg.sender */\n      caller\n        /* \"LiquidityToken.sol\":5708:5734  userLiquiToken[msg.sender] */\n      0xffffffffffffffffffffffffffffffffffffffff\n      and\n      0xffffffffffffffffffffffffffffffffffffffff\n      and\n      dup2\n      mstore\n      0x20\n      add\n      swap1\n      dup2\n      mstore\n      0x20\n      add\n      0x00\n      keccak256\n        /* \"LiquidityToken.sol\":5708:5754  userLiquiToken[msg.sender].fullyChargedBalance */\n      0x00\n      add\n      sload\n        /* \"LiquidityToken.sol\":5698:5704  _value */\n      dup2\n        /* \"LiquidityToken.sol\":5698:5754  _value <= userLiquiToken[msg.sender].fullyChargedBalance */\n      gt\n      iszero\n        /* \"LiquidityToken.sol\":5683:5797  require(... */\n      tag_258\n      jumpi\n      mload(0x40)\n      0x08c379a000000000000000000000000000000000000000000000000000000000\n      dup2\n      mstore\n      0x04\n      add\n      dup1\n      dup1\n      0x20\n      add\n      dup3\n      dup2\n      sub\n      dup3\n      mstore\n      0x20\n      dup2\n      mstore\n      0x20\n      add\n      dup1\n      0x416d6f756e74206578636565647320617661696c61626c652062616c616e6365\n      dup2\n      mstore\n      pop\n      0x20\n      add\n      swap2\n      pop\n      pop\n      mload(0x40)\n      dup1\n      swap2\n      sub\n      swap1\n      revert\n    tag_258:\n        /* \"LiquidityToken.sol\":5804:5821  uint _hodlRewards */\n      0x00\n        /* \"LiquidityToken.sol\":5824:5866  updateStakingAndGetHodlRewards(msg.sender) */\n      tag_259\n        /* \"LiquidityToken.sol\":5855:5865  msg.sender */\n      caller\n        /* \"LiquidityToken.sol\":5824:5854  updateStakingAndGetHodlRewards */\n      tag_260\n        /* \"LiquidityToken.sol\":5824:5866  updateStakingAndGetHodlRewards(msg.sender) */\n      jump\t// in\n    tag_259:\n        /* \"LiquidityToken.sol\":5804:5866  uint _hodlRewards = updateStakingAndGetHodlRewards(msg.sender) */\n      swap1\n      pop\n        /* \"LiquidityToken.sol\":5872:5882  uint _fees */\n      0x00\n        /* \"LiquidityToken.sol\":5938:5996  userLiquiToken[msg.sender].fullyChargedBalance.sub(_value) */\n      tag_261\n        /* \"LiquidityToken.sol\":5989:5995  _value */\n      dup4\n        /* \"LiquidityToken.sol\":5938:5952  userLiquiToken */\n      0x1a\n        /* \"LiquidityToken.sol\":5938:5964  userLiquiToken[msg.sender] */\n      0x00\n        /* \"LiquidityToken.sol\":5953:5963  msg.sender */\n      caller\n        /* \"LiquidityToken.sol\":5938:5964  userLiquiToken[msg.sender] */\n      0xffffffffffffffffffffffffffffffffffffffff\n      and\n      0xffffffffffffffffffffffffffffffffffffffff\n      and\n      dup2\n      mstore\n      0x20\n      add\n      swap1\n      dup2\n      mstore\n      0x20\n      add\n      0x00\n      keccak256\n        /* \"LiquidityToken.sol\":5938:5984  userLiquiToken[msg.sender].fullyChargedBalance */\n      0x00\n      add\n      sload\n        /* \"LiquidityToken.sol\":5938:5988  userLiquiToken[msg.sender].fullyChargedBalance.sub */\n      tag_262\n      swap1\n        /* \"LiquidityToken.sol\":5938:5996  userLiquiToken[msg.sender].fullyChargedBalance.sub(_value) */\n      swap2\n      swap1\n      0xffffffff\n      and\n      jump\t// in\n    tag_261:\n        /* \"LiquidityToken.sol\":5889:5903  userLiquiToken */\n      0x1a\n        /* \"LiquidityToken.sol\":5889:5915  userLiquiToken[msg.sender] */\n      0x00\n        /* \"LiquidityToken.sol\":5904:5914  msg.sender */\n      caller\n        /* \"LiquidityToken.sol\":5889:5915  userLiquiToken[msg.sender] */\n      0xffffffffffffffffffffffffffffffffffffffff\n      and\n      0xffffffffffffffffffffffffffffffffffffffff\n      and\n      dup2\n      mstore\n      0x20\n      add\n      swap1\n      dup2\n      mstore\n      0x20\n      add\n      0x00\n      keccak256\n        /* \"LiquidityToken.sol\":5889:5935  userLiquiToken[msg.sender].fullyChargedBalance */\n      0x00\n      add\n        /* \"LiquidityToken.sol\":5889:5996  userLiquiToken[msg.sender].fullyChargedBalance = userLiquiToken[msg.sender].fullyChargedBalance.sub(_value) */\n      dup2\n      swap1\n      sstore\n      pop\n        /* \"LiquidityToken.sol\":6013:6033  stakedLT.sub(_value) */\n      tag_263\n        /* \"LiquidityToken.sol\":6026:6032  _value */\n      dup4\n        /* \"LiquidityToken.sol\":6013:6021  stakedLT */\n      sload(0x0e)\n        /* \"LiquidityToken.sol\":6013:6025  stakedLT.sub */\n      tag_262\n      swap1\n        /* \"LiquidityToken.sol\":6013:6033  stakedLT.sub(_value) */\n      swap2\n      swap1\n      0xffffffff\n      and\n      jump\t// in\n    tag_263:\n        /* \"LiquidityToken.sol\":6002:6010  stakedLT */\n      0x0e\n        /* \"LiquidityToken.sol\":6002:6033  stakedLT = stakedLT.sub(_value) */\n      dup2\n      swap1\n      sstore\n      pop\n        /* \"LiquidityToken.sol\":6059:6060  0 */\n      0x00\n        /* \"LiquidityToken.sol\":6048:6056  stakedLT */\n      sload(0x0e)\n        /* \"LiquidityToken.sol\":6048:6060  stakedLT > 0 */\n      gt\n        /* \"LiquidityToken.sol\":6044:6128  if (stakedLT > 0) _fees = _value.mul(withdrawFeesPerThousandForLT).div(multiplier1K) */\n      iszero\n      tag_264\n      jumpi\n        /* \"LiquidityToken.sol\":6070:6128  _value.mul(withdrawFeesPerThousandForLT).div(multiplier1K) */\n      tag_265\n        /* \"LiquidityToken.sol\":614:618  1000 */\n      0x03e8\n        /* \"LiquidityToken.sol\":6070:6110  _value.mul(withdrawFeesPerThousandForLT) */\n      tag_266\n        /* \"LiquidityToken.sol\":6081:6109  withdrawFeesPerThousandForLT */\n      sload(0x16)\n        /* \"LiquidityToken.sol\":6070:6076  _value */\n      dup7\n        /* \"LiquidityToken.sol\":6070:6080  _value.mul */\n      tag_267\n      swap1\n        /* \"LiquidityToken.sol\":6070:6110  _value.mul(withdrawFeesPerThousandForLT) */\n      swap2\n      swap1\n      0xffffffff\n      and\n      jump\t// in\n    tag_266:\n        /* \"LiquidityToken.sol\":6070:6114  _value.mul(withdrawFeesPerThousandForLT).div */\n      tag_268\n      swap1\n        /* \"LiquidityToken.sol\":6070:6128  _value.mul(withdrawFeesPerThousandForLT).div(multiplier1K) */\n      swap2\n      swap1\n      0xffffffff\n      and\n      jump\t// in\n    tag_265:\n        /* \"LiquidityToken.sol\":6062:6128  _fees = _value.mul(withdrawFeesPerThousandForLT).div(multiplier1K) */\n      swap1\n      pop\n        /* \"LiquidityToken.sol\":6044:6128  if (stakedLT > 0) _fees = _value.mul(withdrawFeesPerThousandForLT).div(multiplier1K) */\n    tag_264:\n        /* \"LiquidityToken.sol\":6135:6151  uint _valueToGet */\n      0x00\n        /* \"LiquidityToken.sol\":6154:6189  _value.add(_hodlRewards).sub(_fees) */\n      tag_269\n        /* \"LiquidityToken.sol\":6183:6188  _fees */\n      dup3\n        /* \"LiquidityToken.sol\":6154:6178  _value.add(_hodlRewards) */\n      tag_270\n        /* \"LiquidityToken.sol\":6165:6177  _hodlRewards */\n      dup6\n        /* \"LiquidityToken.sol\":6154:6160  _value */\n      dup8\n        /* \"LiquidityToken.sol\":6154:6164  _value.add */\n      tag_255\n      swap1\n        /* \"LiquidityToken.sol\":6154:6178  _value.add(_hodlRewards) */\n      swap2\n      swap1\n      0xffffffff\n      and\n      jump\t// in\n    tag_270:\n        /* \"LiquidityToken.sol\":6154:6182  _value.add(_hodlRewards).sub */\n      tag_262\n      swap1\n        /* \"LiquidityToken.sol\":6154:6189  _value.add(_hodlRewards).sub(_fees) */\n      swap2\n      swap1\n      0xffffffff\n      and\n      jump\t// in\n    tag_269:\n        /* \"LiquidityToken.sol\":6135:6189  uint _valueToGet = _value.add(_hodlRewards).sub(_fees) */\n      swap1\n      pop\n        /* \"LiquidityToken.sol\":6195:6244  _transfer(address(this), msg.sender, _valueToGet) */\n      tag_271\n        /* \"LiquidityToken.sol\":6213:6217  this */\n      address\n        /* \"LiquidityToken.sol\":6220:6230  msg.sender */\n      caller\n        /* \"LiquidityToken.sol\":6232:6243  _valueToGet */\n      dup4\n        /* \"LiquidityToken.sol\":6195:6204  _transfer */\n      tag_242\n        /* \"LiquidityToken.sol\":6195:6244  _transfer(address(this), msg.sender, _valueToGet) */\n      jump\t// in\n    tag_271:\n        /* \"LiquidityToken.sol\":6255:6280  uint _feesToRewardHodlers */\n      0x00\n        /* \"LiquidityToken.sol\":6283:6347  _fees.mul(ratioFeesToRewardHodlersPerThousand).div(multiplier1K) */\n      tag_272\n        /* \"LiquidityToken.sol\":614:618  1000 */\n      0x03e8\n        /* \"LiquidityToken.sol\":6283:6329  _fees.mul(ratioFeesToRewardHodlersPerThousand) */\n      tag_273\n        /* \"LiquidityToken.sol\":6293:6328  ratioFeesToRewardHodlersPerThousand */\n      sload(0x0c)\n        /* \"LiquidityToken.sol\":6283:6288  _fees */\n      dup7\n        /* \"LiquidityToken.sol\":6283:6292  _fees.mul */\n      tag_267\n      swap1\n        /* \"LiquidityToken.sol\":6283:6329  _fees.mul(ratioFeesToRewardHodlersPerThousand) */\n      swap2\n      swap1\n      0xffffffff\n      and\n      jump\t// in\n    tag_273:\n        /* \"LiquidityToken.sol\":6283:6333  _fees.mul(ratioFeesToRewardHodlersPerThousand).div */\n      tag_268\n      swap1\n        /* \"LiquidityToken.sol\":6283:6347  _fees.mul(ratioFeesToRewardHodlersPerThousand).div(multiplier1K) */\n      swap2\n      swap1\n      0xffffffff\n      and\n      jump\t// in\n    tag_272:\n        /* \"LiquidityToken.sol\":6255:6347  uint _feesToRewardHodlers = _fees.mul(ratioFeesToRewardHodlersPerThousand).div(multiplier1K) */\n      swap1\n      pop\n        /* \"LiquidityToken.sol\":6359:6444  _transfer(... */\n      tag_274\n        /* \"LiquidityToken.sol\":6384:6388  this */\n      address\n        /* \"LiquidityToken.sol\":6391:6395  this */\n      address\n        /* \"LiquidityToken.sol\":6391:6401  this.owner */\n      0xffffffffffffffffffffffffffffffffffffffff\n      and\n      0x8da5cb5b\n        /* \"LiquidityToken.sol\":6391:6403  this.owner() */\n      mload(0x40)\n      dup2\n      0xffffffff\n      and\n      0xe0\n      shl\n      dup2\n      mstore\n      0x04\n      add\n      0x20\n      mload(0x40)\n      dup1\n      dup4\n      sub\n      dup2\n      dup7\n      dup1\n      extcodesize\n      iszero\n      dup1\n      iszero\n      tag_275\n      jumpi\n      0x00\n      dup1\n      revert\n    tag_275:\n      pop\n      gas\n      staticcall\n      iszero\n      dup1\n      iszero\n      tag_277\n      jumpi\n      returndatasize\n      0x00\n      dup1\n      returndatacopy\n      revert(0x00, returndatasize)\n    tag_277:\n      pop\n      pop\n      pop\n      pop\n      mload(0x40)\n      returndatasize\n      0x20\n      dup2\n      lt\n      iszero\n      tag_278\n      jumpi\n      0x00\n      dup1\n      revert\n    tag_278:\n      dup2\n      add\n      swap1\n      dup1\n      dup1\n      mload\n      swap1\n      0x20\n      add\n      swap1\n      swap3\n      swap2\n      swap1\n      pop\n      pop\n      pop\n        /* \"LiquidityToken.sol\":6405:6436  _fees.sub(_feesToRewardHodlers) */\n      tag_279\n        /* \"LiquidityToken.sol\":6415:6435  _feesToRewardHodlers */\n      dup5\n        /* \"LiquidityToken.sol\":6405:6410  _fees */\n      dup8\n        /* \"LiquidityToken.sol\":6405:6414  _fees.sub */\n      tag_262\n      swap1\n        /* \"LiquidityToken.sol\":6405:6436  _fees.sub(_feesToRewardHodlers) */\n      swap2\n      swap1\n      0xffffffff\n      and\n      jump\t// in\n    tag_279:\n        /* \"LiquidityToken.sol\":6359:6368  _transfer */\n      tag_242\n        /* \"LiquidityToken.sol\":6359:6444  _transfer(... */\n      jump\t// in\n    tag_274:\n        /* \"LiquidityToken.sol\":6479:6480  0 */\n      0x00\n        /* \"LiquidityToken.sol\":6456:6476  _feesToRewardHodlers */\n      dup2\n        /* \"LiquidityToken.sol\":6456:6480  _feesToRewardHodlers > 0 */\n      gt\n        /* \"LiquidityToken.sol\":6452:6533  if (_feesToRewardHodlers > 0) updateRewardsAfterFeesPayment(_feesToRewardHodlers) */\n      iszero\n      tag_280\n      jumpi\n        /* \"LiquidityToken.sol\":6482:6533  updateRewardsAfterFeesPayment(_feesToRewardHodlers) */\n      tag_281\n        /* \"LiquidityToken.sol\":6512:6532  _feesToRewardHodlers */\n      dup2\n        /* \"LiquidityToken.sol\":6482:6511  updateRewardsAfterFeesPayment */\n      tag_282\n        /* \"LiquidityToken.sol\":6482:6533  updateRewardsAfterFeesPayment(_feesToRewardHodlers) */\n      jump\t// in\n    tag_281:\n        /* \"LiquidityToken.sol\":6452:6533  if (_feesToRewardHodlers > 0) updateRewardsAfterFeesPayment(_feesToRewardHodlers) */\n    tag_280:\n        /* \"LiquidityToken.sol\":6549:6627  LTReceived(msg.sender, _valueToGet, _fees, _feesToRewardHodlers, _hodlRewards) */\n      0x33ef926b7771df44fd5bf5a690410374540aa634051af1e3a6dd2f67c94a18f1\n        /* \"LiquidityToken.sol\":6560:6570  msg.sender */\n      caller\n        /* \"LiquidityToken.sol\":6572:6583  _valueToGet */\n      dup4\n        /* \"LiquidityToken.sol\":6585:6590  _fees */\n      dup6\n        /* \"LiquidityToken.sol\":6592:6612  _feesToRewardHodlers */\n      dup5\n        /* \"LiquidityToken.sol\":6614:6626  _hodlRewards */\n      dup9\n        /* \"LiquidityToken.sol\":6549:6627  LTReceived(msg.sender, _valueToGet, _fees, _feesToRewardHodlers, _hodlRewards) */\n      mload(0x40)\n      dup1\n      dup7\n      0xffffffffffffffffffffffffffffffffffffffff\n      and\n      dup2\n      mstore\n      0x20\n      add\n      dup6\n      dup2\n      mstore\n      0x20\n      add\n      dup5\n      dup2\n      mstore\n      0x20\n      add\n      dup4\n      dup2\n      mstore\n      0x20\n      add\n      dup3\n      dup2\n      mstore\n      0x20\n      add\n      swap6\n      pop\n      pop\n      pop\n      pop\n      pop\n      pop\n      mload(0x40)\n      dup1\n      swap2\n      sub\n      swap1\n      log1\n        /* \"LiquidityToken.sol\":5586:6632  function withdrawLT(uint _value) public {... */\n      pop\n      pop\n      pop\n      pop\n      pop\n      jump\t// out\n        /* \"LiquidityToken.sol\":1340:1376  bool public areUserFunctionsDisabled */\n    tag_113:\n      0x19\n      0x00\n      swap1\n      sload\n      swap1\n      0x0100\n      exp\n      swap1\n      div\n      0xff\n      and\n      dup2\n      jump\t// out\n        /* \"LiquidityToken.sol\":1122:1153  uint public totalTokenAllocated */\n    tag_115:\n      sload(0x14)\n      dup2\n      jump\t// out\n        /* \"LiquidityToken.sol\":685:722  uint public stakingDateLastCheckpoint */\n    tag_117:\n      sload(0x09)\n      dup2\n      jump\t// out\n        /* \"LiquidityToken.sol\":12643:12770  function burnByInterfaceProjectToken(uint _value) public onlyInterfaceProjectToken() {... */\n    tag_120:\n        /* \"LiquidityToken.sol\":11017:11050  ensureOnlyInterfaceProjectToken() */\n      tag_284\n        /* \"LiquidityToken.sol\":11017:11048  ensureOnlyInterfaceProjectToken */\n      tag_285\n        /* \"LiquidityToken.sol\":11017:11050  ensureOnlyInterfaceProjectToken() */\n      jump\t// in\n    tag_284:\n        /* \"LiquidityToken.sol\":12734:12762  _burn(address(this), _value) */\n      tag_287\n        /* \"LiquidityToken.sol\":12748:12752  this */\n      address\n        /* \"LiquidityToken.sol\":12755:12761  _value */\n      dup3\n        /* \"LiquidityToken.sol\":12734:12739  _burn */\n      tag_288\n        /* \"LiquidityToken.sol\":12734:12762  _burn(address(this), _value) */\n      jump\t// in\n    tag_287:\n        /* \"LiquidityToken.sol\":12643:12770  function burnByInterfaceProjectToken(uint _value) public onlyInterfaceProjectToken() {... */\n      pop\n      jump\t// out\n        /* \"https://github.com/OpenZeppelin/openzeppelin-contracts/blob/v3.4.2-solc-0.7/contracts/token/ERC20/ERC20.sol\":3384:3509   */\n    tag_123:\n        /* \"https://github.com/OpenZeppelin/openzeppelin-contracts/blob/v3.4.2-solc-0.7/contracts/token/ERC20/ERC20.sol\":3458:3465   */\n      0x00\n        /* \"https://github.com/OpenZeppelin/openzeppelin-contracts/blob/v3.4.2-solc-0.7/contracts/token/ERC20/ERC20.sol\":3484:3493   */\n      dup1\n        /* \"https://github.com/OpenZeppelin/openzeppelin-contracts/blob/v3.4.2-solc-0.7/contracts/token/ERC20/ERC20.sol\":3484:3502   */\n      0x00\n        /* \"https://github.com/OpenZeppelin/openzeppelin-contracts/blob/v3.4.2-solc-0.7/contracts/token/ERC20/ERC20.sol\":3494:3501   */\n      dup4\n        /* \"https://github.com/OpenZeppelin/openzeppelin-contracts/blob/v3.4.2-solc-0.7/contracts/token/ERC20/ERC20.sol\":3484:3502   */\n      0xffffffffffffffffffffffffffffffffffffffff\n      and\n      0xffffffffffffffffffffffffffffffffffffffff\n      and\n      dup2\n      mstore\n      0x20\n      add\n      swap1\n      dup2\n      mstore\n      0x20\n      add\n      0x00\n      keccak256\n      sload\n        /* \"https://github.com/OpenZeppelin/openzeppelin-contracts/blob/v3.4.2-solc-0.7/contracts/token/ERC20/ERC20.sol\":3477:3502   */\n      swap1\n      pop\n        /* \"https://github.com/OpenZeppelin/openzeppelin-contracts/blob/v3.4.2-solc-0.7/contracts/token/ERC20/ERC20.sol\":3384:3509   */\n      swap2\n      swap1\n      pop\n      jump\t// out\n        /* \"https://github.com/OpenZeppelin/openzeppelin-contracts/blob/v3.4.2-solc-0.7/contracts/access/Ownable.sol\":1700:1845   */\n    tag_125:\n        /* \"https://github.com/OpenZeppelin/openzeppelin-contracts/blob/v3.4.2-solc-0.7/contracts/access/Ownable.sol\":1291:1303   */\n      tag_291\n        /* \"https://github.com/OpenZeppelin/openzeppelin-contracts/blob/v3.4.2-solc-0.7/contracts/access/Ownable.sol\":1291:1301   */\n      tag_235\n        /* \"https://github.com/OpenZeppelin/openzeppelin-contracts/blob/v3.4.2-solc-0.7/contracts/access/Ownable.sol\":1291:1303   */\n      jump\t// in\n    tag_291:\n        /* \"https://github.com/OpenZeppelin/openzeppelin-contracts/blob/v3.4.2-solc-0.7/contracts/access/Ownable.sol\":1280:1303   */\n      0xffffffffffffffffffffffffffffffffffffffff\n      and\n        /* \"https://github.com/OpenZeppelin/openzeppelin-contracts/blob/v3.4.2-solc-0.7/contracts/access/Ownable.sol\":1280:1287   */\n      tag_292\n        /* \"https://github.com/OpenZeppelin/openzeppelin-contracts/blob/v3.4.2-solc-0.7/contracts/access/Ownable.sol\":1280:1285   */\n      tag_153\n        /* \"https://github.com/OpenZeppelin/openzeppelin-contracts/blob/v3.4.2-solc-0.7/contracts/access/Ownable.sol\":1280:1287   */\n      jump\t// in\n    tag_292:\n        /* \"https://github.com/OpenZeppelin/openzeppelin-contracts/blob/v3.4.2-solc-0.7/contracts/access/Ownable.sol\":1280:1303   */\n      0xffffffffffffffffffffffffffffffffffffffff\n      and\n      eq\n        /* \"https://github.com/OpenZeppelin/openzeppelin-contracts/blob/v3.4.2-solc-0.7/contracts/access/Ownable.sol\":1272:1340   */\n      tag_293\n      jumpi\n      mload(0x40)\n      0x08c379a000000000000000000000000000000000000000000000000000000000\n      dup2\n      mstore\n      0x04\n      add\n      dup1\n      dup1\n      0x20\n      add\n      dup3\n      dup2\n      sub\n      dup3\n      mstore\n      0x20\n      dup2\n      mstore\n      0x20\n      add\n      dup1\n      0x4f776e61626c653a2063616c6c6572206973206e6f7420746865206f776e6572\n      dup2\n      mstore\n      pop\n      0x20\n      add\n      swap2\n      pop\n      pop\n      mload(0x40)\n      dup1\n      swap2\n      sub\n      swap1\n      revert\n    tag_293:\n        /* \"https://github.com/OpenZeppelin/openzeppelin-contracts/blob/v3.4.2-solc-0.7/contracts/access/Ownable.sol\":1806:1807   */\n      0x00\n        /* \"https://github.com/OpenZeppelin/openzeppelin-contracts/blob/v3.4.2-solc-0.7/contracts/access/Ownable.sol\":1769:1809   */\n      0xffffffffffffffffffffffffffffffffffffffff\n      and\n        /* \"https://github.com/OpenZeppelin/openzeppelin-contracts/blob/v3.4.2-solc-0.7/contracts/access/Ownable.sol\":1790:1796   */\n      0x05\n      0x01\n      swap1\n      sload\n      swap1\n      0x0100\n      exp\n      swap1\n      div\n      0xffffffffffffffffffffffffffffffffffffffff\n      and\n        /* \"https://github.com/OpenZeppelin/openzeppelin-contracts/blob/v3.4.2-solc-0.7/contracts/access/Ownable.sol\":1769:1809   */\n      0xffffffffffffffffffffffffffffffffffffffff\n      and\n      0x8be0079c531659141344cd1fd0a4f28419497f9722a3daafe3b4186f6b6457e0\n      mload(0x40)\n      mload(0x40)\n      dup1\n      swap2\n      sub\n      swap1\n      log3\n        /* \"https://github.com/OpenZeppelin/openzeppelin-contracts/blob/v3.4.2-solc-0.7/contracts/access/Ownable.sol\":1836:1837   */\n      0x00\n        /* \"https://github.com/OpenZeppelin/openzeppelin-contracts/blob/v3.4.2-solc-0.7/contracts/access/Ownable.sol\":1819:1825   */\n      0x05\n      0x01\n        /* \"https://github.com/OpenZeppelin/openzeppelin-contracts/blob/v3.4.2-solc-0.7/contracts/access/Ownable.sol\":1819:1838   */\n      0x0100\n      exp\n      dup2\n      sload\n      dup2\n      0xffffffffffffffffffffffffffffffffffffffff\n      mul\n      not\n      and\n      swap1\n      dup4\n      0xffffffffffffffffffffffffffffffffffffffff\n      and\n      mul\n      or\n      swap1\n      sstore\n      pop\n        /* \"https://github.com/OpenZeppelin/openzeppelin-contracts/blob/v3.4.2-solc-0.7/contracts/access/Ownable.sol\":1700:1845   */\n      jump\t// out\n        /* \"LiquidityToken.sol\":10675:10889  function updateRatioFeesToRewardHodlers(uint _valuePerThousand) public onlyOwner() {... */\n    tag_128:\n        /* \"https://github.com/OpenZeppelin/openzeppelin-contracts/blob/v3.4.2-solc-0.7/contracts/access/Ownable.sol\":1291:1303   */\n      tag_296\n        /* \"https://github.com/OpenZeppelin/openzeppelin-contracts/blob/v3.4.2-solc-0.7/contracts/access/Ownable.sol\":1291:1301   */\n      tag_235\n        /* \"https://github.com/OpenZeppelin/openzeppelin-contracts/blob/v3.4.2-solc-0.7/contracts/access/Ownable.sol\":1291:1303   */\n      jump\t// in\n    tag_296:\n        /* \"https://github.com/OpenZeppelin/openzeppelin-contracts/blob/v3.4.2-solc-0.7/contracts/access/Ownable.sol\":1280:1303   */\n      0xffffffffffffffffffffffffffffffffffffffff\n      and\n        /* \"https://github.com/OpenZeppelin/openzeppelin-contracts/blob/v3.4.2-solc-0.7/contracts/access/Ownable.sol\":1280:1287   */\n      tag_297\n        /* \"https://github.com/OpenZeppelin/openzeppelin-contracts/blob/v3.4.2-solc-0.7/contracts/access/Ownable.sol\":1280:1285   */\n      tag_153\n        /* \"https://github.com/OpenZeppelin/openzeppelin-contracts/blob/v3.4.2-solc-0.7/contracts/access/Ownable.sol\":1280:1287   */\n      jump\t// in\n    tag_297:\n        /* \"https://github.com/OpenZeppelin/openzeppelin-contracts/blob/v3.4.2-solc-0.7/contracts/access/Ownable.sol\":1280:1303   */\n      0xffffffffffffffffffffffffffffffffffffffff\n      and\n      eq\n        /* \"https://github.com/OpenZeppelin/openzeppelin-contracts/blob/v3.4.2-solc-0.7/contracts/access/Ownable.sol\":1272:1340   */\n      tag_298\n      jumpi\n      mload(0x40)\n      0x08c379a000000000000000000000000000000000000000000000000000000000\n      dup2\n      mstore\n      0x04\n      add\n      dup1\n      dup1\n      0x20\n      add\n      dup3\n      dup2\n      sub\n      dup3\n      mstore\n      0x20\n      dup2\n      mstore\n      0x20\n      add\n      dup1\n      0x4f776e61626c653a2063616c6c6572206973206e6f7420746865206f776e6572\n      dup2\n      mstore\n      pop\n      0x20\n      add\n      swap2\n      pop\n      pop\n      mload(0x40)\n      dup1\n      swap2\n      sub\n      swap1\n      revert\n    tag_298:\n        /* \"LiquidityToken.sol\":614:618  1000 */\n      0x03e8\n        /* \"LiquidityToken.sol\":10772:10789  _valuePerThousand */\n      dup2\n        /* \"LiquidityToken.sol\":10772:10805  _valuePerThousand <= multiplier1K */\n      gt\n      iszero\n        /* \"LiquidityToken.sol\":10764:10823  require(_valuePerThousand <= multiplier1K, \"Invalid value\") */\n      tag_300\n      jumpi\n      mload(0x40)\n      0x08c379a000000000000000000000000000000000000000000000000000000000\n      dup2\n      mstore\n      0x04\n      add\n      dup1\n      dup1\n      0x20\n      add\n      dup3\n      dup2\n      sub\n      dup3\n      mstore\n      0x0d\n      dup2\n      mstore\n      0x20\n      add\n      dup1\n      0x496e76616c69642076616c756500000000000000000000000000000000000000\n      dup2\n      mstore\n      pop\n      0x20\n      add\n      swap2\n      pop\n      pop\n      mload(0x40)\n      dup1\n      swap2\n      sub\n      swap1\n      revert\n    tag_300:\n        /* \"LiquidityToken.sol\":10867:10884  _valuePerThousand */\n      dup1\n        /* \"LiquidityToken.sol\":10829:10864  ratioFeesToRewardHodlersPerThousand */\n      0x0c\n        /* \"LiquidityToken.sol\":10829:10884  ratioFeesToRewardHodlersPerThousand = _valuePerThousand */\n      dup2\n      swap1\n      sstore\n      pop\n        /* \"LiquidityToken.sol\":10675:10889  function updateRatioFeesToRewardHodlers(uint _valuePerThousand) public onlyOwner() {... */\n      pop\n      jump\t// out\n        /* \"LiquidityToken.sol\":11453:11986  function rechargeUserTokens(address _user, uint _valueFullyChargedToIncrease, uint _valuePartiallyChargedToDecrease, ... */\n    tag_131:\n        /* \"LiquidityToken.sol\":11017:11050  ensureOnlyInterfaceProjectToken() */\n      tag_302\n        /* \"LiquidityToken.sol\":11017:11048  ensureOnlyInterfaceProjectToken */\n      tag_285\n        /* \"LiquidityToken.sol\":11017:11050  ensureOnlyInterfaceProjectToken() */\n      jump\t// in\n    tag_302:\n        /* \"LiquidityToken.sol\":11703:11778  userLiquiToken[_user].fullyChargedBalance.add(_valueFullyChargedToIncrease) */\n      tag_304\n        /* \"LiquidityToken.sol\":11749:11777  _valueFullyChargedToIncrease */\n      dup4\n        /* \"LiquidityToken.sol\":11703:11717  userLiquiToken */\n      0x1a\n        /* \"LiquidityToken.sol\":11703:11724  userLiquiToken[_user] */\n      0x00\n        /* \"LiquidityToken.sol\":11718:11723  _user */\n      dup8\n        /* \"LiquidityToken.sol\":11703:11724  userLiquiToken[_user] */\n      0xffffffffffffffffffffffffffffffffffffffff\n      and\n      0xffffffffffffffffffffffffffffffffffffffff\n      and\n      dup2\n      mstore\n      0x20\n      add\n      swap1\n      dup2\n      mstore\n      0x20\n      add\n      0x00\n      keccak256\n        /* \"LiquidityToken.sol\":11703:11744  userLiquiToken[_user].fullyChargedBalance */\n      0x00\n      add\n      sload\n        /* \"LiquidityToken.sol\":11703:11748  userLiquiToken[_user].fullyChargedBalance.add */\n      tag_255\n      swap1\n        /* \"LiquidityToken.sol\":11703:11778  userLiquiToken[_user].fullyChargedBalance.add(_valueFullyChargedToIncrease) */\n      swap2\n      swap1\n      0xffffffff\n      and\n      jump\t// in\n    tag_304:\n        /* \"LiquidityToken.sol\":11653:11667  userLiquiToken */\n      0x1a\n        /* \"LiquidityToken.sol\":11653:11674  userLiquiToken[_user] */\n      0x00\n        /* \"LiquidityToken.sol\":11668:11673  _user */\n      dup7\n        /* \"LiquidityToken.sol\":11653:11674  userLiquiToken[_user] */\n      0xffffffffffffffffffffffffffffffffffffffff\n      and\n      0xffffffffffffffffffffffffffffffffffffffff\n      and\n      dup2\n      mstore\n      0x20\n      add\n      swap1\n      dup2\n      mstore\n      0x20\n      add\n      0x00\n      keccak256\n        /* \"LiquidityToken.sol\":11653:11694  userLiquiToken[_user].fullyChargedBalance */\n      0x00\n      add\n        /* \"LiquidityToken.sol\":11653:11778  userLiquiToken[_user].fullyChargedBalance =... */\n      dup2\n      swap1\n      sstore\n      pop\n        /* \"LiquidityToken.sol\":11838:11921  userLiquiToken[_user].partiallyChargedBalance.sub(_valuePartiallyChargedToDecrease) */\n      tag_305\n        /* \"LiquidityToken.sol\":11888:11920  _valuePartiallyChargedToDecrease */\n      dup3\n        /* \"LiquidityToken.sol\":11838:11852  userLiquiToken */\n      0x1a\n        /* \"LiquidityToken.sol\":11838:11859  userLiquiToken[_user] */\n      0x00\n        /* \"LiquidityToken.sol\":11853:11858  _user */\n      dup8\n        /* \"LiquidityToken.sol\":11838:11859  userLiquiToken[_user] */\n      0xffffffffffffffffffffffffffffffffffffffff\n      and\n      0xffffffffffffffffffffffffffffffffffffffff\n      and\n      dup2\n      mstore\n      0x20\n      add\n      swap1\n      dup2\n      mstore\n      0x20\n      add\n      0x00\n      keccak256\n        /* \"LiquidityToken.sol\":11838:11883  userLiquiToken[_user].partiallyChargedBalance */\n      0x01\n      add\n      sload\n        /* \"LiquidityToken.sol\":11838:11887  userLiquiToken[_user].partiallyChargedBalance.sub */\n      tag_262\n      swap1\n        /* \"LiquidityToken.sol\":11838:11921  userLiquiToken[_user].partiallyChargedBalance.sub(_valuePartiallyChargedToDecrease) */\n      swap2\n      swap1\n      0xffffffff\n      and\n      jump\t// in\n    tag_305:\n        /* \"LiquidityToken.sol\":11784:11798  userLiquiToken */\n      0x1a\n        /* \"LiquidityToken.sol\":11784:11805  userLiquiToken[_user] */\n      0x00\n        /* \"LiquidityToken.sol\":11799:11804  _user */\n      dup7\n        /* \"LiquidityToken.sol\":11784:11805  userLiquiToken[_user] */\n      0xffffffffffffffffffffffffffffffffffffffff\n      and\n      0xffffffffffffffffffffffffffffffffffffffff\n      and\n      dup2\n      mstore\n      0x20\n      add\n      swap1\n      dup2\n      mstore\n      0x20\n      add\n      0x00\n      keccak256\n        /* \"LiquidityToken.sol\":11784:11829  userLiquiToken[_user].partiallyChargedBalance */\n      0x01\n      add\n        /* \"LiquidityToken.sol\":11784:11921  userLiquiToken[_user].partiallyChargedBalance =... */\n      dup2\n      swap1\n      sstore\n      pop\n        /* \"LiquidityToken.sol\":11938:11981  stakedLT.add(_valueProjectTokenWithRewards) */\n      tag_306\n        /* \"LiquidityToken.sol\":11951:11980  _valueProjectTokenWithRewards */\n      dup2\n        /* \"LiquidityToken.sol\":11938:11946  stakedLT */\n      sload(0x0e)\n        /* \"LiquidityToken.sol\":11938:11950  stakedLT.add */\n      tag_255\n      swap1\n        /* \"LiquidityToken.sol\":11938:11981  stakedLT.add(_valueProjectTokenWithRewards) */\n      swap2\n      swap1\n      0xffffffff\n      and\n      jump\t// in\n    tag_306:\n        /* \"LiquidityToken.sol\":11927:11935  stakedLT */\n      0x0e\n        /* \"LiquidityToken.sol\":11927:11981  stakedLT = stakedLT.add(_valueProjectTokenWithRewards) */\n      dup2\n      swap1\n      sstore\n      pop\n        /* \"LiquidityToken.sol\":11453:11986  function rechargeUserTokens(address _user, uint _valueFullyChargedToIncrease, uint _valuePartiallyChargedToDecrease, ... */\n      pop\n      pop\n      pop\n      pop\n      jump\t// out\n        /* \"LiquidityToken.sol\":799:853  uint public ratioFeesToRewardHodlersPerThousand = 1000 */\n    tag_133:\n      sload(0x0c)\n      dup2\n      jump\t// out\n        /* \"LiquidityToken.sol\":13084:13272  function getUserFullyChargedBalanceLiquiToken(address _user) public view... */\n    tag_136:\n        /* \"LiquidityToken.sol\":13169:13194  uint _fullyChargedBalance */\n      0x00\n        /* \"LiquidityToken.sol\":13226:13240  userLiquiToken */\n      0x1a\n        /* \"LiquidityToken.sol\":13226:13247  userLiquiToken[_user] */\n      0x00\n        /* \"LiquidityToken.sol\":13241:13246  _user */\n      dup4\n        /* \"LiquidityToken.sol\":13226:13247  userLiquiToken[_user] */\n      0xffffffffffffffffffffffffffffffffffffffff\n      and\n      0xffffffffffffffffffffffffffffffffffffffff\n      and\n      dup2\n      mstore\n      0x20\n      add\n      swap1\n      dup2\n      mstore\n      0x20\n      add\n      0x00\n      keccak256\n        /* \"LiquidityToken.sol\":13226:13267  userLiquiToken[_user].fullyChargedBalance */\n      0x00\n      add\n      sload\n        /* \"LiquidityToken.sol\":13203:13267  _fullyChargedBalance = userLiquiToken[_user].fullyChargedBalance */\n      swap1\n      pop\n        /* \"LiquidityToken.sol\":13084:13272  function getUserFullyChargedBalanceLiquiToken(address _user) public view... */\n      swap2\n      swap1\n      pop\n      jump\t// out\n        /* \"LiquidityToken.sol\":1296:1336  uint public maxClaimFeesPerThousandForPT */\n    tag_138:\n      sload(0x18)\n      dup2\n      jump\t// out\n        /* \"LiquidityToken.sol\":622:650  uint public stakingStartDate */\n    tag_140:\n      sload(0x07)\n      dup2\n      jump\t// out\n        /* \"LiquidityToken.sol\":578:618  uint public constant multiplier1K = 1000 */\n    tag_142:\n        /* \"LiquidityToken.sol\":614:618  1000 */\n      0x03e8\n        /* \"LiquidityToken.sol\":578:618  uint public constant multiplier1K = 1000 */\n      dup2\n      jump\t// out\n        /* \"LiquidityToken.sol\":654:681  uint public stakingDuration */\n    tag_144:\n      sload(0x08)\n      dup2\n      jump\t// out\n        /* \"LiquidityToken.sol\":11990:12511  function dischargeUserTokens(address _user, uint _valueProjectToken) public onlyInterfaceProjectToken() {... */\n    tag_147:\n        /* \"LiquidityToken.sol\":11017:11050  ensureOnlyInterfaceProjectToken() */\n      tag_309\n        /* \"LiquidityToken.sol\":11017:11048  ensureOnlyInterfaceProjectToken */\n      tag_285\n        /* \"LiquidityToken.sol\":11017:11050  ensureOnlyInterfaceProjectToken() */\n      jump\t// in\n    tag_309:\n        /* \"LiquidityToken.sol\":12116:12148  stakedLT.sub(_valueProjectToken) */\n      tag_311\n        /* \"LiquidityToken.sol\":12129:12147  _valueProjectToken */\n      dup2\n        /* \"LiquidityToken.sol\":12116:12124  stakedLT */\n      sload(0x0e)\n        /* \"LiquidityToken.sol\":12116:12128  stakedLT.sub */\n      tag_262\n      swap1\n        /* \"LiquidityToken.sol\":12116:12148  stakedLT.sub(_valueProjectToken) */\n      swap2\n      swap1\n      0xffffffff\n      and\n      jump\t// in\n    tag_311:\n        /* \"LiquidityToken.sol\":12105:12113  stakedLT */\n      0x0e\n        /* \"LiquidityToken.sol\":12105:12148  stakedLT = stakedLT.sub(_valueProjectToken) */\n      dup2\n      swap1\n      sstore\n      pop\n        /* \"LiquidityToken.sol\":12201:12216  block.timestamp */\n      timestamp\n        /* \"LiquidityToken.sol\":12154:12168  userLiquiToken */\n      0x1a\n        /* \"LiquidityToken.sol\":12154:12175  userLiquiToken[_user] */\n      0x00\n        /* \"LiquidityToken.sol\":12169:12174  _user */\n      dup5\n        /* \"LiquidityToken.sol\":12154:12175  userLiquiToken[_user] */\n      0xffffffffffffffffffffffffffffffffffffffff\n      and\n      0xffffffffffffffffffffffffffffffffffffffff\n      and\n      dup2\n      mstore\n      0x20\n      add\n      swap1\n      dup2\n      mstore\n      0x20\n      add\n      0x00\n      keccak256\n        /* \"LiquidityToken.sol\":12154:12198  userLiquiToken[_user].dateOfPartiallyCharged */\n      0x02\n      add\n        /* \"LiquidityToken.sol\":12154:12216  userLiquiToken[_user].dateOfPartiallyCharged = block.timestamp */\n      dup2\n      swap1\n      sstore\n      pop\n        /* \"LiquidityToken.sol\":12275:12276  0 */\n      0x00\n        /* \"LiquidityToken.sol\":12231:12245  userLiquiToken */\n      0x1a\n        /* \"LiquidityToken.sol\":12231:12252  userLiquiToken[_user] */\n      0x00\n        /* \"LiquidityToken.sol\":12246:12251  _user */\n      dup5\n        /* \"LiquidityToken.sol\":12231:12252  userLiquiToken[_user] */\n      0xffffffffffffffffffffffffffffffffffffffff\n      and\n      0xffffffffffffffffffffffffffffffffffffffff\n      and\n      dup2\n      mstore\n      0x20\n      add\n      swap1\n      dup2\n      mstore\n      0x20\n      add\n      0x00\n      keccak256\n        /* \"LiquidityToken.sol\":12231:12272  userLiquiToken[_user].fullyChargedBalance */\n      0x00\n      add\n      sload\n        /* \"LiquidityToken.sol\":12231:12276  userLiquiToken[_user].fullyChargedBalance > 0 */\n      gt\n        /* \"LiquidityToken.sol\":12227:12494  if (userLiquiToken[_user].fullyChargedBalance > 0) {... */\n      iszero\n      tag_312\n      jumpi\n        /* \"LiquidityToken.sol\":12342:12434  userLiquiToken[_user].partiallyChargedBalance.add(userLiquiToken[_user].fullyChargedBalance) */\n      tag_313\n        /* \"LiquidityToken.sol\":12392:12406  userLiquiToken */\n      0x1a\n        /* \"LiquidityToken.sol\":12392:12413  userLiquiToken[_user] */\n      0x00\n        /* \"LiquidityToken.sol\":12407:12412  _user */\n      dup5\n        /* \"LiquidityToken.sol\":12392:12413  userLiquiToken[_user] */\n      0xffffffffffffffffffffffffffffffffffffffff\n      and\n      0xffffffffffffffffffffffffffffffffffffffff\n      and\n      dup2\n      mstore\n      0x20\n      add\n      swap1\n      dup2\n      mstore\n      0x20\n      add\n      0x00\n      keccak256\n        /* \"LiquidityToken.sol\":12392:12433  userLiquiToken[_user].fullyChargedBalance */\n      0x00\n      add\n      sload\n        /* \"LiquidityToken.sol\":12342:12356  userLiquiToken */\n      0x1a\n        /* \"LiquidityToken.sol\":12342:12363  userLiquiToken[_user] */\n      0x00\n        /* \"LiquidityToken.sol\":12357:12362  _user */\n      dup6\n        /* \"LiquidityToken.sol\":12342:12363  userLiquiToken[_user] */\n      0xffffffffffffffffffffffffffffffffffffffff\n      and\n      0xffffffffffffffffffffffffffffffffffffffff\n      and\n      dup2\n      mstore\n      0x20\n      add\n      swap1\n      dup2\n      mstore\n      0x20\n      add\n      0x00\n      keccak256\n        /* \"LiquidityToken.sol\":12342:12387  userLiquiToken[_user].partiallyChargedBalance */\n      0x01\n      add\n      sload\n        /* \"LiquidityToken.sol\":12342:12391  userLiquiToken[_user].partiallyChargedBalance.add */\n      tag_255\n      swap1\n        /* \"LiquidityToken.sol\":12342:12434  userLiquiToken[_user].partiallyChargedBalance.add(userLiquiToken[_user].fullyChargedBalance) */\n      swap2\n      swap1\n      0xffffffff\n      and\n      jump\t// in\n    tag_313:\n        /* \"LiquidityToken.sol\":12286:12300  userLiquiToken */\n      0x1a\n        /* \"LiquidityToken.sol\":12286:12307  userLiquiToken[_user] */\n      0x00\n        /* \"LiquidityToken.sol\":12301:12306  _user */\n      dup5\n        /* \"LiquidityToken.sol\":12286:12307  userLiquiToken[_user] */\n      0xffffffffffffffffffffffffffffffffffffffff\n      and\n      0xffffffffffffffffffffffffffffffffffffffff\n      and\n      dup2\n      mstore\n      0x20\n      add\n      swap1\n      dup2\n      mstore\n      0x20\n      add\n      0x00\n      keccak256\n        /* \"LiquidityToken.sol\":12286:12331  userLiquiToken[_user].partiallyChargedBalance */\n      0x01\n      add\n        /* \"LiquidityToken.sol\":12286:12434  userLiquiToken[_user].partiallyChargedBalance =... */\n      dup2\n      swap1\n      sstore\n      pop\n        /* \"LiquidityToken.sol\":12486:12487  0 */\n      0x00\n        /* \"LiquidityToken.sol\":12442:12456  userLiquiToken */\n      0x1a\n        /* \"LiquidityToken.sol\":12442:12463  userLiquiToken[_user] */\n      0x00\n        /* \"LiquidityToken.sol\":12457:12462  _user */\n      dup5\n        /* \"LiquidityToken.sol\":12442:12463  userLiquiToken[_user] */\n      0xffffffffffffffffffffffffffffffffffffffff\n      and\n      0xffffffffffffffffffffffffffffffffffffffff\n      and\n      dup2\n      mstore\n      0x20\n      add\n      swap1\n      dup2\n      mstore\n      0x20\n      add\n      0x00\n      keccak256\n        /* \"LiquidityToken.sol\":12442:12483  userLiquiToken[_user].fullyChargedBalance */\n      0x00\n      add\n        /* \"LiquidityToken.sol\":12442:12487  userLiquiToken[_user].fullyChargedBalance = 0 */\n      dup2\n      swap1\n      sstore\n      pop\n        /* \"LiquidityToken.sol\":12227:12494  if (userLiquiToken[_user].fullyChargedBalance > 0) {... */\n    tag_312:\n        /* \"LiquidityToken.sol\":11990:12511  function dischargeUserTokens(address _user, uint _valueProjectToken) public onlyInterfaceProjectToken() {... */\n      pop\n      pop\n      jump\t// out\n        /* \"LiquidityToken.sol\":1081:1118  uint public maxInitialTokenAllocation */\n    tag_149:\n      sload(0x13)\n      dup2\n      jump\t// out\n        /* \"LiquidityToken.sol\":1249:1292  uint public maxWithdrawFeesPerThousandForLT */\n    tag_151:\n      sload(0x17)\n      dup2\n      jump\t// out\n        /* \"https://github.com/OpenZeppelin/openzeppelin-contracts/blob/v3.4.2-solc-0.7/contracts/access/Ownable.sol\":1068:1153   */\n    tag_153:\n        /* \"https://github.com/OpenZeppelin/openzeppelin-contracts/blob/v3.4.2-solc-0.7/contracts/access/Ownable.sol\":1114:1121   */\n      0x00\n        /* \"https://github.com/OpenZeppelin/openzeppelin-contracts/blob/v3.4.2-solc-0.7/contracts/access/Ownable.sol\":1140:1146   */\n      0x05\n      0x01\n      swap1\n      sload\n      swap1\n      0x0100\n      exp\n      swap1\n      div\n      0xffffffffffffffffffffffffffffffffffffffff\n      and\n        /* \"https://github.com/OpenZeppelin/openzeppelin-contracts/blob/v3.4.2-solc-0.7/contracts/access/Ownable.sol\":1133:1146   */\n      swap1\n      pop\n        /* \"https://github.com/OpenZeppelin/openzeppelin-contracts/blob/v3.4.2-solc-0.7/contracts/access/Ownable.sol\":1068:1153   */\n      swap1\n      jump\t// out\n        /* \"LiquidityToken.sol\":7250:7941  function getUpdatedRewardPerShare1e18(uint _blockTime) public view returns(uint _updatedRewardPerShare1e18) {  ... */\n    tag_156:\n        /* \"LiquidityToken.sol\":7325:7356  uint _updatedRewardPerShare1e18 */\n      0x00\n        /* \"LiquidityToken.sol\":7369:7389  uint _stakingEndDate */\n      dup1\n        /* \"LiquidityToken.sol\":7392:7429  stakingStartDate.add(stakingDuration) */\n      tag_316\n        /* \"LiquidityToken.sol\":7413:7428  stakingDuration */\n      sload(0x08)\n        /* \"LiquidityToken.sol\":7392:7408  stakingStartDate */\n      sload(0x07)\n        /* \"LiquidityToken.sol\":7392:7412  stakingStartDate.add */\n      tag_255\n      swap1\n        /* \"LiquidityToken.sol\":7392:7429  stakingStartDate.add(stakingDuration) */\n      swap2\n      swap1\n      0xffffffff\n      and\n      jump\t// in\n    tag_316:\n        /* \"LiquidityToken.sol\":7369:7429  uint _stakingEndDate = stakingStartDate.add(stakingDuration) */\n      swap1\n      pop\n        /* \"LiquidityToken.sol\":7464:7489  currentRewardPerShare1e18 */\n      sload(0x0d)\n        /* \"LiquidityToken.sol\":7435:7489  _updatedRewardPerShare1e18 = currentRewardPerShare1e18 */\n      swap2\n      pop\n        /* \"LiquidityToken.sol\":7522:7547  stakingDateLastCheckpoint */\n      sload(0x09)\n        /* \"LiquidityToken.sol\":7509:7519  _blockTime */\n      dup4\n        /* \"LiquidityToken.sol\":7509:7547  _blockTime > stakingDateLastCheckpoint */\n      gt\n        /* \"LiquidityToken.sol\":7509:7601  _blockTime > stakingDateLastCheckpoint ... */\n      dup1\n      iszero\n      tag_317\n      jumpi\n      pop\n        /* \"LiquidityToken.sol\":7586:7601  _stakingEndDate */\n      dup1\n        /* \"LiquidityToken.sol\":7558:7583  stakingDateLastCheckpoint */\n      sload(0x09)\n        /* \"LiquidityToken.sol\":7558:7601  stakingDateLastCheckpoint < _stakingEndDate */\n      lt\n        /* \"LiquidityToken.sol\":7509:7601  _blockTime > stakingDateLastCheckpoint ... */\n    tag_317:\n        /* \"LiquidityToken.sol\":7509:7624  _blockTime > stakingDateLastCheckpoint ... */\n      dup1\n      iszero\n      tag_318\n      jumpi\n      pop\n        /* \"LiquidityToken.sol\":7623:7624  0 */\n      0x00\n        /* \"LiquidityToken.sol\":7612:7620  stakedLT */\n      sload(0x0e)\n        /* \"LiquidityToken.sol\":7612:7624  stakedLT > 0 */\n      gt\n        /* \"LiquidityToken.sol\":7509:7624  _blockTime > stakingDateLastCheckpoint ... */\n    tag_318:\n        /* \"LiquidityToken.sol\":7498:7936  if (... */\n      iszero\n      tag_319\n      jumpi\n        /* \"LiquidityToken.sol\":7660:7675  _stakingEndDate */\n      dup1\n        /* \"LiquidityToken.sol\":7647:7657  _blockTime */\n      dup4\n        /* \"LiquidityToken.sol\":7647:7675  _blockTime > _stakingEndDate */\n      gt\n        /* \"LiquidityToken.sol\":7643:7705  if (_blockTime > _stakingEndDate) _blockTime = _stakingEndDate */\n      iszero\n      tag_320\n      jumpi\n        /* \"LiquidityToken.sol\":7690:7705  _stakingEndDate */\n      dup1\n        /* \"LiquidityToken.sol\":7677:7705  _blockTime = _stakingEndDate */\n      swap3\n      pop\n        /* \"LiquidityToken.sol\":7643:7705  if (_blockTime > _stakingEndDate) _blockTime = _stakingEndDate */\n    tag_320:\n        /* \"LiquidityToken.sol\":7744:7925  _updatedRewardPerShare1e18.add(... */\n      tag_321\n        /* \"LiquidityToken.sol\":7786:7913  (_blockTime.sub(stakingDateLastCheckpoint)).mul(campaignStakingRewards).mul(1e18)... */\n      tag_322\n        /* \"LiquidityToken.sol\":7883:7912  stakingDuration.mul(stakedLT) */\n      tag_323\n        /* \"LiquidityToken.sol\":7903:7911  stakedLT */\n      sload(0x0e)\n        /* \"LiquidityToken.sol\":7883:7898  stakingDuration */\n      sload(0x08)\n        /* \"LiquidityToken.sol\":7883:7902  stakingDuration.mul */\n      tag_267\n      swap1\n        /* \"LiquidityToken.sol\":7883:7912  stakingDuration.mul(stakedLT) */\n      swap2\n      swap1\n      0xffffffff\n      and\n      jump\t// in\n    tag_323:\n        /* \"LiquidityToken.sol\":7786:7867  (_blockTime.sub(stakingDateLastCheckpoint)).mul(campaignStakingRewards).mul(1e18) */\n      tag_324\n        /* \"LiquidityToken.sol\":7862:7866  1e18 */\n      0x0de0b6b3a7640000\n        /* \"LiquidityToken.sol\":7786:7857  (_blockTime.sub(stakingDateLastCheckpoint)).mul(campaignStakingRewards) */\n      tag_325\n        /* \"LiquidityToken.sol\":7834:7856  campaignStakingRewards */\n      sload(0x0a)\n        /* \"LiquidityToken.sol\":7787:7828  _blockTime.sub(stakingDateLastCheckpoint) */\n      tag_326\n        /* \"LiquidityToken.sol\":7802:7827  stakingDateLastCheckpoint */\n      sload(0x09)\n        /* \"LiquidityToken.sol\":7787:7797  _blockTime */\n      dup12\n        /* \"LiquidityToken.sol\":7787:7801  _blockTime.sub */\n      tag_262\n      swap1\n        /* \"LiquidityToken.sol\":7787:7828  _blockTime.sub(stakingDateLastCheckpoint) */\n      swap2\n      swap1\n      0xffffffff\n      and\n      jump\t// in\n    tag_326:\n        /* \"LiquidityToken.sol\":7786:7833  (_blockTime.sub(stakingDateLastCheckpoint)).mul */\n      tag_267\n      swap1\n        /* \"LiquidityToken.sol\":7786:7857  (_blockTime.sub(stakingDateLastCheckpoint)).mul(campaignStakingRewards) */\n      swap2\n      swap1\n      0xffffffff\n      and\n      jump\t// in\n    tag_325:\n        /* \"LiquidityToken.sol\":7786:7861  (_blockTime.sub(stakingDateLastCheckpoint)).mul(campaignStakingRewards).mul */\n      tag_267\n      swap1\n        /* \"LiquidityToken.sol\":7786:7867  (_blockTime.sub(stakingDateLastCheckpoint)).mul(campaignStakingRewards).mul(1e18) */\n      swap2\n      swap1\n      0xffffffff\n      and\n      jump\t// in\n    tag_324:\n        /* \"LiquidityToken.sol\":7786:7882  (_blockTime.sub(stakingDateLastCheckpoint)).mul(campaignStakingRewards).mul(1e18)... */\n      tag_268\n      swap1\n        /* \"LiquidityToken.sol\":7786:7913  (_blockTime.sub(stakingDateLastCheckpoint)).mul(campaignStakingRewards).mul(1e18)... */\n      swap2\n      swap1\n      0xffffffff\n      and\n      jump\t// in\n    tag_322:\n        /* \"LiquidityToken.sol\":7744:7770  _updatedRewardPerShare1e18 */\n      dup4\n        /* \"LiquidityToken.sol\":7744:7774  _updatedRewardPerShare1e18.add */\n      tag_255\n      swap1\n        /* \"LiquidityToken.sol\":7744:7925  _updatedRewardPerShare1e18.add(... */\n      swap2\n      swap1\n      0xffffffff\n      and\n      jump\t// in\n    tag_321:\n        /* \"LiquidityToken.sol\":7715:7925  _updatedRewardPerShare1e18 = _updatedRewardPerShare1e18.add(... */\n      swap2\n      pop\n        /* \"LiquidityToken.sol\":7498:7936  if (... */\n    tag_319:\n        /* \"LiquidityToken.sol\":7250:7941  function getUpdatedRewardPerShare1e18(uint _blockTime) public view returns(uint _updatedRewardPerShare1e18) {  ... */\n      pop\n      swap2\n      swap1\n      pop\n      jump\t// out\n        /* \"LiquidityToken.sol\":764:795  uint public totalStakingRewards */\n    tag_158:\n      sload(0x0b)\n      dup2\n      jump\t// out\n        /* \"LiquidityToken.sol\":952:1010  mapping (address => uint) public claimedRewardPerShare1e18 */\n    tag_161:\n      mstore(0x20, 0x10)\n      dup1\n      0x00\n      mstore\n      keccak256(0x00, 0x40)\n      0x00\n      swap2\n      pop\n      swap1\n      pop\n      sload\n      dup2\n      jump\t// out\n        /* \"https://github.com/OpenZeppelin/openzeppelin-contracts/blob/v3.4.2-solc-0.7/contracts/token/ERC20/ERC20.sol\":2355:2448   */\n    tag_163:\n        /* \"https://github.com/OpenZeppelin/openzeppelin-contracts/blob/v3.4.2-solc-0.7/contracts/token/ERC20/ERC20.sol\":2402:2415   */\n      0x60\n        /* \"https://github.com/OpenZeppelin/openzeppelin-contracts/blob/v3.4.2-solc-0.7/contracts/token/ERC20/ERC20.sol\":2434:2441   */\n      0x04\n        /* \"https://github.com/OpenZeppelin/openzeppelin-contracts/blob/v3.4.2-solc-0.7/contracts/token/ERC20/ERC20.sol\":2427:2441   */\n      dup1\n      sload\n      0x01\n      dup2\n      0x01\n      and\n      iszero\n      0x0100\n      mul\n      sub\n      and\n      0x02\n      swap1\n      div\n      dup1\n      0x1f\n      add\n      0x20\n      dup1\n      swap2\n      div\n      mul\n      0x20\n      add\n      mload(0x40)\n      swap1\n      dup2\n      add\n      0x40\n      mstore\n      dup1\n      swap3\n      swap2\n      swap1\n      dup2\n      dup2\n      mstore\n      0x20\n      add\n      dup3\n      dup1\n      sload\n      0x01\n      dup2\n      0x01\n      and\n      iszero\n      0x0100\n      mul\n      sub\n      and\n      0x02\n      swap1\n      div\n      dup1\n      iszero\n      tag_328\n      jumpi\n      dup1\n      0x1f\n      lt\n      tag_329\n      jumpi\n      0x0100\n      dup1\n      dup4\n      sload\n      div\n      mul\n      dup4\n      mstore\n      swap2\n      0x20\n      add\n      swap2\n      jump(tag_328)\n    tag_329:\n      dup3\n      add\n      swap2\n      swap1\n      0x00\n      mstore\n      keccak256(0x00, 0x20)\n      swap1\n    tag_330:\n      dup2\n      sload\n      dup2\n      mstore\n      swap1\n      0x01\n      add\n      swap1\n      0x20\n      add\n      dup1\n      dup4\n      gt\n      tag_330\n      jumpi\n      dup3\n      swap1\n      sub\n      0x1f\n      and\n      dup3\n      add\n      swap2\n    tag_328:\n      pop\n      pop\n      pop\n      pop\n      pop\n      swap1\n      pop\n        /* \"https://github.com/OpenZeppelin/openzeppelin-contracts/blob/v3.4.2-solc-0.7/contracts/token/ERC20/ERC20.sol\":2355:2448   */\n      swap1\n      jump\t// out\n        /* \"LiquidityToken.sol\":13276:13480  function getUserPartiallyChargedBalanceLiquiToken(address _user) public view... */\n    tag_170:\n        /* \"LiquidityToken.sol\":13365:13394  uint _partiallyChargedBalance */\n      0x00\n        /* \"LiquidityToken.sol\":13430:13444  userLiquiToken */\n      0x1a\n        /* \"LiquidityToken.sol\":13430:13451  userLiquiToken[_user] */\n      0x00\n        /* \"LiquidityToken.sol\":13445:13450  _user */\n      dup4\n        /* \"LiquidityToken.sol\":13430:13451  userLiquiToken[_user] */\n      0xffffffffffffffffffffffffffffffffffffffff\n      and\n      0xffffffffffffffffffffffffffffffffffffffff\n      and\n      dup2\n      mstore\n      0x20\n      add\n      swap1\n      dup2\n      mstore\n      0x20\n      add\n      0x00\n      keccak256\n        /* \"LiquidityToken.sol\":13430:13475  userLiquiToken[_user].partiallyChargedBalance */\n      0x01\n      add\n      sload\n        /* \"LiquidityToken.sol\":13403:13475  _partiallyChargedBalance = userLiquiToken[_user].partiallyChargedBalance */\n      swap1\n      pop\n        /* \"LiquidityToken.sol\":13276:13480  function getUserPartiallyChargedBalanceLiquiToken(address _user) public view... */\n      swap2\n      swap1\n      pop\n      jump\t// out\n        /* \"LiquidityToken.sol\":9415:10440  function setStakingRewards(uint _stakingStartDate, uint _stakingDuration, uint _campaignStakingRewards) ... */\n    tag_173:\n        /* \"https://github.com/OpenZeppelin/openzeppelin-contracts/blob/v3.4.2-solc-0.7/contracts/access/Ownable.sol\":1291:1303   */\n      tag_333\n        /* \"https://github.com/OpenZeppelin/openzeppelin-contracts/blob/v3.4.2-solc-0.7/contracts/access/Ownable.sol\":1291:1301   */\n      tag_235\n        /* \"https://github.com/OpenZeppelin/openzeppelin-contracts/blob/v3.4.2-solc-0.7/contracts/access/Ownable.sol\":1291:1303   */\n      jump\t// in\n    tag_333:\n        /* \"https://github.com/OpenZeppelin/openzeppelin-contracts/blob/v3.4.2-solc-0.7/contracts/access/Ownable.sol\":1280:1303   */\n      0xffffffffffffffffffffffffffffffffffffffff\n      and\n        /* \"https://github.com/OpenZeppelin/openzeppelin-contracts/blob/v3.4.2-solc-0.7/contracts/access/Ownable.sol\":1280:1287   */\n      tag_334\n        /* \"https://github.com/OpenZeppelin/openzeppelin-contracts/blob/v3.4.2-solc-0.7/contracts/access/Ownable.sol\":1280:1285   */\n      tag_153\n        /* \"https://github.com/OpenZeppelin/openzeppelin-contracts/blob/v3.4.2-solc-0.7/contracts/access/Ownable.sol\":1280:1287   */\n      jump\t// in\n    tag_334:\n        /* \"https://github.com/OpenZeppelin/openzeppelin-contracts/blob/v3.4.2-solc-0.7/contracts/access/Ownable.sol\":1280:1303   */\n      0xffffffffffffffffffffffffffffffffffffffff\n      and\n      eq\n        /* \"https://github.com/OpenZeppelin/openzeppelin-contracts/blob/v3.4.2-solc-0.7/contracts/access/Ownable.sol\":1272:1340   */\n      tag_335\n      jumpi\n      mload(0x40)\n      0x08c379a000000000000000000000000000000000000000000000000000000000\n      dup2\n      mstore\n      0x04\n      add\n      dup1\n      dup1\n      0x20\n      add\n      dup3\n      dup2\n      sub\n      dup3\n      mstore\n      0x20\n      dup2\n      mstore\n      0x20\n      add\n      dup1\n      0x4f776e61626c653a2063616c6c6572206973206e6f7420746865206f776e6572\n      dup2\n      mstore\n      pop\n      0x20\n      add\n      swap2\n      pop\n      pop\n      mload(0x40)\n      dup1\n      swap2\n      sub\n      swap1\n      revert\n    tag_335:\n        /* \"LiquidityToken.sol\":9550:9565  uint _blockTime */\n      0x00\n        /* \"LiquidityToken.sol\":9568:9583  block.timestamp */\n      timestamp\n        /* \"LiquidityToken.sol\":9550:9583  uint _blockTime = block.timestamp */\n      swap1\n      pop\n        /* \"LiquidityToken.sol\":9625:9635  _blockTime */\n      dup1\n        /* \"LiquidityToken.sol\":9605:9622  _stakingStartDate */\n      dup5\n        /* \"LiquidityToken.sol\":9605:9635  _stakingStartDate > _blockTime */\n      gt\n        /* \"LiquidityToken.sol\":9605:9659  _stakingStartDate > _blockTime && _stakingDuration > 0 */\n      dup1\n      iszero\n      tag_337\n      jumpi\n      pop\n        /* \"LiquidityToken.sol\":9658:9659  0 */\n      0x00\n        /* \"LiquidityToken.sol\":9639:9655  _stakingDuration */\n      dup4\n        /* \"LiquidityToken.sol\":9639:9659  _stakingDuration > 0 */\n      gt\n        /* \"LiquidityToken.sol\":9605:9659  _stakingStartDate > _blockTime && _stakingDuration > 0 */\n    tag_337:\n        /* \"LiquidityToken.sol\":9590:9761  require(... */\n      tag_338\n      jumpi\n      mload(0x40)\n      0x08c379a000000000000000000000000000000000000000000000000000000000\n      dup2\n      mstore\n      0x04\n      add\n      dup1\n      dup1\n      0x20\n      add\n      dup3\n      dup2\n      sub\n      dup3\n      mstore\n      0x54\n      dup2\n      mstore\n      0x20\n      add\n      dup1\n      data_cc1ac84f1f31a634a17a4ddce30b05f5fb9fdd55515de86fb1d919f165b3a5aa\n      0x54\n      swap2\n      codecopy\n      0x60\n      add\n      swap2\n      pop\n      pop\n      mload(0x40)\n      dup1\n      swap2\n      sub\n      swap1\n      revert\n    tag_338:\n        /* \"LiquidityToken.sol\":9795:9796  0 */\n      0x00\n        /* \"LiquidityToken.sol\":9776:9792  stakingStartDate */\n      sload(0x07)\n        /* \"LiquidityToken.sol\":9776:9796  stakingStartDate > 0 */\n      gt\n        /* \"LiquidityToken.sol\":9772:9925  if (stakingStartDate > 0)... */\n      iszero\n      tag_339\n      jumpi\n        /* \"LiquidityToken.sol\":9834:9871  stakingStartDate.add(stakingDuration) */\n      tag_340\n        /* \"LiquidityToken.sol\":9855:9870  stakingDuration */\n      sload(0x08)\n        /* \"LiquidityToken.sol\":9834:9850  stakingStartDate */\n      sload(0x07)\n        /* \"LiquidityToken.sol\":9834:9854  stakingStartDate.add */\n      tag_255\n      swap1\n        /* \"LiquidityToken.sol\":9834:9871  stakingStartDate.add(stakingDuration) */\n      swap2\n      swap1\n      0xffffffff\n      and\n      jump\t// in\n    tag_340:\n        /* \"LiquidityToken.sol\":9821:9831  _blockTime */\n      dup2\n        /* \"LiquidityToken.sol\":9821:9871  _blockTime > stakingStartDate.add(stakingDuration) */\n      gt\n        /* \"LiquidityToken.sol\":9804:9925  require(... */\n      tag_341\n      jumpi\n      mload(0x40)\n      0x08c379a000000000000000000000000000000000000000000000000000000000\n      dup2\n      mstore\n      0x04\n      add\n      dup1\n      dup1\n      0x20\n      add\n      dup3\n      dup2\n      sub\n      dup3\n      mstore\n      0x28\n      dup2\n      mstore\n      0x20\n      add\n      dup1\n      data_a795cebbe87cbaa718b98376a54958a9f2ac9be73ba32fe7cff080028a31f20e\n      0x28\n      swap2\n      codecopy\n      0x40\n      add\n      swap2\n      pop\n      pop\n      mload(0x40)\n      dup1\n      swap2\n      sub\n      swap1\n      revert\n    tag_341:\n        /* \"LiquidityToken.sol\":9772:9925  if (stakingStartDate > 0)... */\n    tag_339:\n        /* \"LiquidityToken.sol\":9933:9968  updateStakingParameters(_blockTime) */\n      tag_342\n        /* \"LiquidityToken.sol\":9957:9967  _blockTime */\n      dup2\n        /* \"LiquidityToken.sol\":9933:9956  updateStakingParameters */\n      tag_343\n        /* \"LiquidityToken.sol\":9933:9968  updateStakingParameters(_blockTime) */\n      jump\t// in\n    tag_342:\n        /* \"LiquidityToken.sol\":10070:10087  _stakingStartDate */\n      dup4\n        /* \"LiquidityToken.sol\":10051:10067  stakingStartDate */\n      0x07\n        /* \"LiquidityToken.sol\":10051:10087  stakingStartDate = _stakingStartDate */\n      dup2\n      swap1\n      sstore\n      pop\n        /* \"LiquidityToken.sol\":10121:10138  _stakingStartDate */\n      dup4\n        /* \"LiquidityToken.sol\":10093:10118  stakingDateLastCheckpoint */\n      0x09\n        /* \"LiquidityToken.sol\":10093:10138  stakingDateLastCheckpoint = _stakingStartDate */\n      dup2\n      swap1\n      sstore\n      pop\n        /* \"LiquidityToken.sol\":10162:10178  _stakingDuration */\n      dup3\n        /* \"LiquidityToken.sol\":10144:10159  stakingDuration */\n      0x08\n        /* \"LiquidityToken.sol\":10144:10178  stakingDuration = _stakingDuration */\n      dup2\n      swap1\n      sstore\n      pop\n        /* \"LiquidityToken.sol\":10209:10232  _campaignStakingRewards */\n      dup2\n        /* \"LiquidityToken.sol\":10184:10206  campaignStakingRewards */\n      0x0a\n        /* \"LiquidityToken.sol\":10184:10232  campaignStakingRewards = _campaignStakingRewards */\n      dup2\n      swap1\n      sstore\n      pop\n        /* \"LiquidityToken.sol\":10260:10308  totalStakingRewards.add(_campaignStakingRewards) */\n      tag_344\n        /* \"LiquidityToken.sol\":10284:10307  _campaignStakingRewards */\n      dup3\n        /* \"LiquidityToken.sol\":10260:10279  totalStakingRewards */\n      sload(0x0b)\n        /* \"LiquidityToken.sol\":10260:10283  totalStakingRewards.add */\n      tag_255\n      swap1\n        /* \"LiquidityToken.sol\":10260:10308  totalStakingRewards.add(_campaignStakingRewards) */\n      swap2\n      swap1\n      0xffffffff\n      and\n      jump\t// in\n    tag_344:\n        /* \"LiquidityToken.sol\":10238:10257  totalStakingRewards */\n      0x0b\n        /* \"LiquidityToken.sol\":10238:10308  totalStakingRewards = totalStakingRewards.add(_campaignStakingRewards) */\n      dup2\n      swap1\n      sstore\n      pop\n        /* \"LiquidityToken.sol\":10336:10384  totalTokenAllocated.add(_campaignStakingRewards) */\n      tag_345\n        /* \"LiquidityToken.sol\":10360:10383  _campaignStakingRewards */\n      dup3\n        /* \"LiquidityToken.sol\":10336:10355  totalTokenAllocated */\n      sload(0x14)\n        /* \"LiquidityToken.sol\":10336:10359  totalTokenAllocated.add */\n      tag_255\n      swap1\n        /* \"LiquidityToken.sol\":10336:10384  totalTokenAllocated.add(_campaignStakingRewards) */\n      swap2\n      swap1\n      0xffffffff\n      and\n      jump\t// in\n    tag_345:\n        /* \"LiquidityToken.sol\":10314:10333  totalTokenAllocated */\n      0x14\n        /* \"LiquidityToken.sol\":10314:10384  totalTokenAllocated = totalTokenAllocated.add(_campaignStakingRewards) */\n      dup2\n      swap1\n      sstore\n      pop\n        /* \"LiquidityToken.sol\":10390:10435  _mint(address(this), _campaignStakingRewards) */\n      tag_346\n        /* \"LiquidityToken.sol\":10404:10408  this */\n      address\n        /* \"LiquidityToken.sol\":10411:10434  _campaignStakingRewards */\n      dup4\n        /* \"LiquidityToken.sol\":10390:10395  _mint */\n      tag_347\n        /* \"LiquidityToken.sol\":10390:10435  _mint(address(this), _campaignStakingRewards) */\n      jump\t// in\n    tag_346:\n        /* \"https://github.com/OpenZeppelin/openzeppelin-contracts/blob/v3.4.2-solc-0.7/contracts/access/Ownable.sol\":1350:1351   */\n      pop\n        /* \"LiquidityToken.sol\":9415:10440  function setStakingRewards(uint _stakingStartDate, uint _stakingDuration, uint _campaignStakingRewards) ... */\n      pop\n      pop\n      pop\n      jump\t// out\n        /* \"https://github.com/OpenZeppelin/openzeppelin-contracts/blob/v3.4.2-solc-0.7/contracts/token/ERC20/ERC20.sol\":6276:6542   */\n    tag_176:\n        /* \"https://github.com/OpenZeppelin/openzeppelin-contracts/blob/v3.4.2-solc-0.7/contracts/token/ERC20/ERC20.sol\":6369:6373   */\n      0x00\n        /* \"https://github.com/OpenZeppelin/openzeppelin-contracts/blob/v3.4.2-solc-0.7/contracts/token/ERC20/ERC20.sol\":6385:6514   */\n      tag_349\n        /* \"https://github.com/OpenZeppelin/openzeppelin-contracts/blob/v3.4.2-solc-0.7/contracts/token/ERC20/ERC20.sol\":6394:6406   */\n      tag_350\n        /* \"https://github.com/OpenZeppelin/openzeppelin-contracts/blob/v3.4.2-solc-0.7/contracts/token/ERC20/ERC20.sol\":6394:6404   */\n      tag_235\n        /* \"https://github.com/OpenZeppelin/openzeppelin-contracts/blob/v3.4.2-solc-0.7/contracts/token/ERC20/ERC20.sol\":6394:6406   */\n      jump\t// in\n    tag_350:\n        /* \"https://github.com/OpenZeppelin/openzeppelin-contracts/blob/v3.4.2-solc-0.7/contracts/token/ERC20/ERC20.sol\":6408:6415   */\n      dup5\n        /* \"https://github.com/OpenZeppelin/openzeppelin-contracts/blob/v3.4.2-solc-0.7/contracts/token/ERC20/ERC20.sol\":6417:6513   */\n      tag_351\n        /* \"https://github.com/OpenZeppelin/openzeppelin-contracts/blob/v3.4.2-solc-0.7/contracts/token/ERC20/ERC20.sol\":6456:6471   */\n      dup6\n        /* \"https://github.com/OpenZeppelin/openzeppelin-contracts/blob/v3.4.2-solc-0.7/contracts/token/ERC20/ERC20.sol\":6417:6513   */\n      mload(0x40)\n      dup1\n      0x60\n      add\n      0x40\n      mstore\n      dup1\n      0x25\n      dup2\n      mstore\n      0x20\n      add\n      data_f8b476f7d28209d77d4a4ac1fe36b9f8259aa1bb6bddfa6e89de7e51615cf8a8\n      0x25\n      swap2\n      codecopy\n        /* \"https://github.com/OpenZeppelin/openzeppelin-contracts/blob/v3.4.2-solc-0.7/contracts/token/ERC20/ERC20.sol\":6417:6428   */\n      0x01\n        /* \"https://github.com/OpenZeppelin/openzeppelin-contracts/blob/v3.4.2-solc-0.7/contracts/token/ERC20/ERC20.sol\":6417:6442   */\n      0x00\n        /* \"https://github.com/OpenZeppelin/openzeppelin-contracts/blob/v3.4.2-solc-0.7/contracts/token/ERC20/ERC20.sol\":6429:6441   */\n      tag_352\n        /* \"https://github.com/OpenZeppelin/openzeppelin-contracts/blob/v3.4.2-solc-0.7/contracts/token/ERC20/ERC20.sol\":6429:6439   */\n      tag_235\n        /* \"https://github.com/OpenZeppelin/openzeppelin-contracts/blob/v3.4.2-solc-0.7/contracts/token/ERC20/ERC20.sol\":6429:6441   */\n      jump\t// in\n    tag_352:\n        /* \"https://github.com/OpenZeppelin/openzeppelin-contracts/blob/v3.4.2-solc-0.7/contracts/token/ERC20/ERC20.sol\":6417:6442   */\n      0xffffffffffffffffffffffffffffffffffffffff\n      and\n      0xffffffffffffffffffffffffffffffffffffffff\n      and\n      dup2\n      mstore\n      0x20\n      add\n      swap1\n      dup2\n      mstore\n      0x20\n      add\n      0x00\n      keccak256\n        /* \"https://github.com/OpenZeppelin/openzeppelin-contracts/blob/v3.4.2-solc-0.7/contracts/token/ERC20/ERC20.sol\":6417:6451   */\n      0x00\n        /* \"https://github.com/OpenZeppelin/openzeppelin-contracts/blob/v3.4.2-solc-0.7/contracts/token/ERC20/ERC20.sol\":6443:6450   */\n      dup11\n        /* \"https://github.com/OpenZeppelin/openzeppelin-contracts/blob/v3.4.2-solc-0.7/contracts/token/ERC20/ERC20.sol\":6417:6451   */\n      0xffffffffffffffffffffffffffffffffffffffff\n      and\n      0xffffffffffffffffffffffffffffffffffffffff\n      and\n      dup2\n      mstore\n      0x20\n      add\n      swap1\n      dup2\n      mstore\n      0x20\n      add\n      0x00\n      keccak256\n      sload\n        /* \"https://github.com/OpenZeppelin/openzeppelin-contracts/blob/v3.4.2-solc-0.7/contracts/token/ERC20/ERC20.sol\":6417:6455   */\n      tag_247\n      swap1\n        /* \"https://github.com/OpenZeppelin/openzeppelin-contracts/blob/v3.4.2-solc-0.7/contracts/token/ERC20/ERC20.sol\":6417:6513   */\n      swap3\n      swap2\n      swap1\n      0xffffffff\n      and\n      jump\t// in\n    tag_351:\n        /* \"https://github.com/OpenZeppelin/openzeppelin-contracts/blob/v3.4.2-solc-0.7/contracts/token/ERC20/ERC20.sol\":6385:6393   */\n      tag_236\n        /* \"https://github.com/OpenZeppelin/openzeppelin-contracts/blob/v3.4.2-solc-0.7/contracts/token/ERC20/ERC20.sol\":6385:6514   */\n      jump\t// in\n    tag_349:\n        /* \"https://github.com/OpenZeppelin/openzeppelin-contracts/blob/v3.4.2-solc-0.7/contracts/token/ERC20/ERC20.sol\":6531:6535   */\n      0x01\n        /* \"https://github.com/OpenZeppelin/openzeppelin-contracts/blob/v3.4.2-solc-0.7/contracts/token/ERC20/ERC20.sol\":6524:6535   */\n      swap1\n      pop\n        /* \"https://github.com/OpenZeppelin/openzeppelin-contracts/blob/v3.4.2-solc-0.7/contracts/token/ERC20/ERC20.sol\":6276:6542   */\n      swap3\n      swap2\n      pop\n      pop\n      jump\t// out\n        /* \"LiquidityToken.sol\":3224:3346  function enableOrDisableUserFunctions() public onlyOwner() {... */\n    tag_178:\n        /* \"https://github.com/OpenZeppelin/openzeppelin-contracts/blob/v3.4.2-solc-0.7/contracts/access/Ownable.sol\":1291:1303   */\n      tag_354\n        /* \"https://github.com/OpenZeppelin/openzeppelin-contracts/blob/v3.4.2-solc-0.7/contracts/access/Ownable.sol\":1291:1301   */\n      tag_235\n        /* \"https://github.com/OpenZeppelin/openzeppelin-contracts/blob/v3.4.2-solc-0.7/contracts/access/Ownable.sol\":1291:1303   */\n      jump\t// in\n    tag_354:\n        /* \"https://github.com/OpenZeppelin/openzeppelin-contracts/blob/v3.4.2-solc-0.7/contracts/access/Ownable.sol\":1280:1303   */\n      0xffffffffffffffffffffffffffffffffffffffff\n      and\n        /* \"https://github.com/OpenZeppelin/openzeppelin-contracts/blob/v3.4.2-solc-0.7/contracts/access/Ownable.sol\":1280:1287   */\n      tag_355\n        /* \"https://github.com/OpenZeppelin/openzeppelin-contracts/blob/v3.4.2-solc-0.7/contracts/access/Ownable.sol\":1280:1285   */\n      tag_153\n        /* \"https://github.com/OpenZeppelin/openzeppelin-contracts/blob/v3.4.2-solc-0.7/contracts/access/Ownable.sol\":1280:1287   */\n      jump\t// in\n    tag_355:\n        /* \"https://github.com/OpenZeppelin/openzeppelin-contracts/blob/v3.4.2-solc-0.7/contracts/access/Ownable.sol\":1280:1303   */\n      0xffffffffffffffffffffffffffffffffffffffff\n      and\n      eq\n        /* \"https://github.com/OpenZeppelin/openzeppelin-contracts/blob/v3.4.2-solc-0.7/contracts/access/Ownable.sol\":1272:1340   */\n      tag_356\n      jumpi\n      mload(0x40)\n      0x08c379a000000000000000000000000000000000000000000000000000000000\n      dup2\n      mstore\n      0x04\n      add\n      dup1\n      dup1\n      0x20\n      add\n      dup3\n      dup2\n      sub\n      dup3\n      mstore\n      0x20\n      dup2\n      mstore\n      0x20\n      add\n      dup1\n      0x4f776e61626c653a2063616c6c6572206973206e6f7420746865206f776e6572\n      dup2\n      mstore\n      pop\n      0x20\n      add\n      swap2\n      pop\n      pop\n      mload(0x40)\n      dup1\n      swap2\n      sub\n      swap1\n      revert\n    tag_356:\n        /* \"LiquidityToken.sol\":3317:3341  areUserFunctionsDisabled */\n      0x19\n      0x00\n      swap1\n      sload\n      swap1\n      0x0100\n      exp\n      swap1\n      div\n      0xff\n      and\n        /* \"LiquidityToken.sol\":3316:3341  !areUserFunctionsDisabled */\n      iszero\n        /* \"LiquidityToken.sol\":3289:3313  areUserFunctionsDisabled */\n      0x19\n      0x00\n        /* \"LiquidityToken.sol\":3289:3341  areUserFunctionsDisabled = !areUserFunctionsDisabled */\n      0x0100\n      exp\n      dup2\n      sload\n      dup2\n      0xff\n      mul\n      not\n      and\n      swap1\n      dup4\n      iszero\n      iszero\n      mul\n      or\n      swap1\n      sstore\n      pop\n        /* \"LiquidityToken.sol\":3224:3346  function enableOrDisableUserFunctions() public onlyOwner() {... */\n      jump\t// out\n        /* \"https://github.com/OpenZeppelin/openzeppelin-contracts/blob/v3.4.2-solc-0.7/contracts/token/ERC20/ERC20.sol\":3712:3884   */\n    tag_181:\n        /* \"https://github.com/OpenZeppelin/openzeppelin-contracts/blob/v3.4.2-solc-0.7/contracts/token/ERC20/ERC20.sol\":3798:3802   */\n      0x00\n        /* \"https://github.com/OpenZeppelin/openzeppelin-contracts/blob/v3.4.2-solc-0.7/contracts/token/ERC20/ERC20.sol\":3814:3856   */\n      tag_359\n        /* \"https://github.com/OpenZeppelin/openzeppelin-contracts/blob/v3.4.2-solc-0.7/contracts/token/ERC20/ERC20.sol\":3824:3836   */\n      tag_360\n        /* \"https://github.com/OpenZeppelin/openzeppelin-contracts/blob/v3.4.2-solc-0.7/contracts/token/ERC20/ERC20.sol\":3824:3834   */\n      tag_235\n        /* \"https://github.com/OpenZeppelin/openzeppelin-contracts/blob/v3.4.2-solc-0.7/contracts/token/ERC20/ERC20.sol\":3824:3836   */\n      jump\t// in\n    tag_360:\n        /* \"https://github.com/OpenZeppelin/openzeppelin-contracts/blob/v3.4.2-solc-0.7/contracts/token/ERC20/ERC20.sol\":3838:3847   */\n      dup5\n        /* \"https://github.com/OpenZeppelin/openzeppelin-contracts/blob/v3.4.2-solc-0.7/contracts/token/ERC20/ERC20.sol\":3849:3855   */\n      dup5\n        /* \"https://github.com/OpenZeppelin/openzeppelin-contracts/blob/v3.4.2-solc-0.7/contracts/token/ERC20/ERC20.sol\":3814:3823   */\n      tag_242\n        /* \"https://github.com/OpenZeppelin/openzeppelin-contracts/blob/v3.4.2-solc-0.7/contracts/token/ERC20/ERC20.sol\":3814:3856   */\n      jump\t// in\n    tag_359:\n        /* \"https://github.com/OpenZeppelin/openzeppelin-contracts/blob/v3.4.2-solc-0.7/contracts/token/ERC20/ERC20.sol\":3873:3877   */\n      0x01\n        /* \"https://github.com/OpenZeppelin/openzeppelin-contracts/blob/v3.4.2-solc-0.7/contracts/token/ERC20/ERC20.sol\":3866:3877   */\n      swap1\n      pop\n        /* \"https://github.com/OpenZeppelin/openzeppelin-contracts/blob/v3.4.2-solc-0.7/contracts/token/ERC20/ERC20.sol\":3712:3884   */\n      swap3\n      swap2\n      pop\n      pop\n      jump\t// out\n        /* \"LiquidityToken.sol\":1205:1245  uint public withdrawFeesPerThousandForLT */\n    tag_183:\n      sload(0x16)\n      dup2\n      jump\t// out\n        /* \"LiquidityToken.sol\":922:948  uint public totalTokenSold */\n    tag_185:\n      sload(0x0f)\n      dup2\n      jump\t// out\n        /* \"LiquidityToken.sol\":10446:10671  function updateWithdrawalFeesForLT(uint _valuePerThousand) public onlyOwner() {... */\n    tag_188:\n        /* \"https://github.com/OpenZeppelin/openzeppelin-contracts/blob/v3.4.2-solc-0.7/contracts/access/Ownable.sol\":1291:1303   */\n      tag_362\n        /* \"https://github.com/OpenZeppelin/openzeppelin-contracts/blob/v3.4.2-solc-0.7/contracts/access/Ownable.sol\":1291:1301   */\n      tag_235\n        /* \"https://github.com/OpenZeppelin/openzeppelin-contracts/blob/v3.4.2-solc-0.7/contracts/access/Ownable.sol\":1291:1303   */\n      jump\t// in\n    tag_362:\n        /* \"https://github.com/OpenZeppelin/openzeppelin-contracts/blob/v3.4.2-solc-0.7/contracts/access/Ownable.sol\":1280:1303   */\n      0xffffffffffffffffffffffffffffffffffffffff\n      and\n        /* \"https://github.com/OpenZeppelin/openzeppelin-contracts/blob/v3.4.2-solc-0.7/contracts/access/Ownable.sol\":1280:1287   */\n      tag_363\n        /* \"https://github.com/OpenZeppelin/openzeppelin-contracts/blob/v3.4.2-solc-0.7/contracts/access/Ownable.sol\":1280:1285   */\n      tag_153\n        /* \"https://github.com/OpenZeppelin/openzeppelin-contracts/blob/v3.4.2-solc-0.7/contracts/access/Ownable.sol\":1280:1287   */\n      jump\t// in\n    tag_363:\n        /* \"https://github.com/OpenZeppelin/openzeppelin-contracts/blob/v3.4.2-solc-0.7/contracts/access/Ownable.sol\":1280:1303   */\n      0xffffffffffffffffffffffffffffffffffffffff\n      and\n      eq\n        /* \"https://github.com/OpenZeppelin/openzeppelin-contracts/blob/v3.4.2-solc-0.7/contracts/access/Ownable.sol\":1272:1340   */\n      tag_364\n      jumpi\n      mload(0x40)\n      0x08c379a000000000000000000000000000000000000000000000000000000000\n      dup2\n      mstore\n      0x04\n      add\n      dup1\n      dup1\n      0x20\n      add\n      dup3\n      dup2\n      sub\n      dup3\n      mstore\n      0x20\n      dup2\n      mstore\n      0x20\n      add\n      dup1\n      0x4f776e61626c653a2063616c6c6572206973206e6f7420746865206f776e6572\n      dup2\n      mstore\n      pop\n      0x20\n      add\n      swap2\n      pop\n      pop\n      mload(0x40)\n      dup1\n      swap2\n      sub\n      swap1\n      revert\n    tag_364:\n        /* \"LiquidityToken.sol\":10559:10590  maxWithdrawFeesPerThousandForLT */\n      sload(0x17)\n        /* \"LiquidityToken.sol\":10538:10555  _valuePerThousand */\n      dup2\n        /* \"LiquidityToken.sol\":10538:10590  _valuePerThousand <= maxWithdrawFeesPerThousandForLT */\n      gt\n      iszero\n        /* \"LiquidityToken.sol\":10530:10608  require(_valuePerThousand <= maxWithdrawFeesPerThousandForLT, \"Invalid value\") */\n      tag_366\n      jumpi\n      mload(0x40)\n      0x08c379a000000000000000000000000000000000000000000000000000000000\n      dup2\n      mstore\n      0x04\n      add\n      dup1\n      dup1\n      0x20\n      add\n      dup3\n      dup2\n      sub\n      dup3\n      mstore\n      0x0d\n      dup2\n      mstore\n      0x20\n      add\n      dup1\n      0x496e76616c69642076616c756500000000000000000000000000000000000000\n      dup2\n      mstore\n      pop\n      0x20\n      add\n      swap2\n      pop\n      pop\n      mload(0x40)\n      dup1\n      swap2\n      sub\n      swap1\n      revert\n    tag_366:\n        /* \"LiquidityToken.sol\":10645:10662  _valuePerThousand */\n      dup1\n        /* \"LiquidityToken.sol\":10614:10642  withdrawFeesPerThousandForLT */\n      0x16\n        /* \"LiquidityToken.sol\":10614:10662  withdrawFeesPerThousandForLT = _valuePerThousand */\n      dup2\n      swap1\n      sstore\n      pop\n        /* \"LiquidityToken.sol\":10446:10671  function updateWithdrawalFeesForLT(uint _valuePerThousand) public onlyOwner() {... */\n      pop\n      jump\t// out\n        /* \"LiquidityToken.sol\":898:918  uint public stakedLT */\n    tag_190:\n      sload(0x0e)\n      dup2\n      jump\t// out\n        /* \"LiquidityToken.sol\":8803:9411  function depositLT(uint _value) public {... */\n    tag_193:\n        /* \"LiquidityToken.sol\":8852:8887  ensureUserFunctionsAreNotDisabled() */\n      tag_368\n        /* \"LiquidityToken.sol\":8852:8885  ensureUserFunctionsAreNotDisabled */\n      tag_88\n        /* \"LiquidityToken.sol\":8852:8887  ensureUserFunctionsAreNotDisabled() */\n      jump\t// in\n    tag_368:\n        /* \"LiquidityToken.sol\":8919:8940  balanceOf(msg.sender) */\n      tag_369\n        /* \"LiquidityToken.sol\":8929:8939  msg.sender */\n      caller\n        /* \"LiquidityToken.sol\":8919:8928  balanceOf */\n      tag_123\n        /* \"LiquidityToken.sol\":8919:8940  balanceOf(msg.sender) */\n      jump\t// in\n    tag_369:\n        /* \"LiquidityToken.sol\":8909:8915  _value */\n      dup2\n        /* \"LiquidityToken.sol\":8909:8940  _value <= balanceOf(msg.sender) */\n      gt\n      iszero\n        /* \"LiquidityToken.sol\":8894:8989  require(... */\n      tag_370\n      jumpi\n      mload(0x40)\n      0x08c379a000000000000000000000000000000000000000000000000000000000\n      dup2\n      mstore\n      0x04\n      add\n      dup1\n      dup1\n      0x20\n      add\n      dup3\n      dup2\n      sub\n      dup3\n      mstore\n      0x1f\n      dup2\n      mstore\n      0x20\n      add\n      dup1\n      0x56616c7565206578636565647320617661696c61626c652062616c616e636500\n      dup2\n      mstore\n      pop\n      0x20\n      add\n      swap2\n      pop\n      pop\n      mload(0x40)\n      dup1\n      swap2\n      sub\n      swap1\n      revert\n    tag_370:\n        /* \"LiquidityToken.sol\":9000:9017  uint _hodlRewards */\n      0x00\n        /* \"LiquidityToken.sol\":9020:9062  updateStakingAndGetHodlRewards(msg.sender) */\n      tag_371\n        /* \"LiquidityToken.sol\":9051:9061  msg.sender */\n      caller\n        /* \"LiquidityToken.sol\":9020:9050  updateStakingAndGetHodlRewards */\n      tag_260\n        /* \"LiquidityToken.sol\":9020:9062  updateStakingAndGetHodlRewards(msg.sender) */\n      jump\t// in\n    tag_371:\n        /* \"LiquidityToken.sol\":9000:9062  uint _hodlRewards = updateStakingAndGetHodlRewards(msg.sender) */\n      swap1\n      pop\n        /* \"LiquidityToken.sol\":9068:9090  uint _valueWithRewards */\n      0x00\n        /* \"LiquidityToken.sol\":9093:9117  _value.add(_hodlRewards) */\n      tag_372\n        /* \"LiquidityToken.sol\":9104:9116  _hodlRewards */\n      dup3\n        /* \"LiquidityToken.sol\":9093:9099  _value */\n      dup5\n        /* \"LiquidityToken.sol\":9093:9103  _value.add */\n      tag_255\n      swap1\n        /* \"LiquidityToken.sol\":9093:9117  _value.add(_hodlRewards) */\n      swap2\n      swap1\n      0xffffffff\n      and\n      jump\t// in\n    tag_372:\n        /* \"LiquidityToken.sol\":9068:9117  uint _valueWithRewards = _value.add(_hodlRewards) */\n      swap1\n      pop\n        /* \"LiquidityToken.sol\":9173:9242  userLiquiToken[msg.sender].fullyChargedBalance.add(_valueWithRewards) */\n      tag_373\n        /* \"LiquidityToken.sol\":9224:9241  _valueWithRewards */\n      dup2\n        /* \"LiquidityToken.sol\":9173:9187  userLiquiToken */\n      0x1a\n        /* \"LiquidityToken.sol\":9173:9199  userLiquiToken[msg.sender] */\n      0x00\n        /* \"LiquidityToken.sol\":9188:9198  msg.sender */\n      caller\n        /* \"LiquidityToken.sol\":9173:9199  userLiquiToken[msg.sender] */\n      0xffffffffffffffffffffffffffffffffffffffff\n      and\n      0xffffffffffffffffffffffffffffffffffffffff\n      and\n      dup2\n      mstore\n      0x20\n      add\n      swap1\n      dup2\n      mstore\n      0x20\n      add\n      0x00\n      keccak256\n        /* \"LiquidityToken.sol\":9173:9219  userLiquiToken[msg.sender].fullyChargedBalance */\n      0x00\n      add\n      sload\n        /* \"LiquidityToken.sol\":9173:9223  userLiquiToken[msg.sender].fullyChargedBalance.add */\n      tag_255\n      swap1\n        /* \"LiquidityToken.sol\":9173:9242  userLiquiToken[msg.sender].fullyChargedBalance.add(_valueWithRewards) */\n      swap2\n      swap1\n      0xffffffff\n      and\n      jump\t// in\n    tag_373:\n        /* \"LiquidityToken.sol\":9124:9138  userLiquiToken */\n      0x1a\n        /* \"LiquidityToken.sol\":9124:9150  userLiquiToken[msg.sender] */\n      0x00\n        /* \"LiquidityToken.sol\":9139:9149  msg.sender */\n      caller\n        /* \"LiquidityToken.sol\":9124:9150  userLiquiToken[msg.sender] */\n      0xffffffffffffffffffffffffffffffffffffffff\n      and\n      0xffffffffffffffffffffffffffffffffffffffff\n      and\n      dup2\n      mstore\n      0x20\n      add\n      swap1\n      dup2\n      mstore\n      0x20\n      add\n      0x00\n      keccak256\n        /* \"LiquidityToken.sol\":9124:9170  userLiquiToken[msg.sender].fullyChargedBalance */\n      0x00\n      add\n        /* \"LiquidityToken.sol\":9124:9242  userLiquiToken[msg.sender].fullyChargedBalance = userLiquiToken[msg.sender].fullyChargedBalance.add(_valueWithRewards) */\n      dup2\n      swap1\n      sstore\n      pop\n        /* \"LiquidityToken.sol\":9259:9290  stakedLT.add(_valueWithRewards) */\n      tag_374\n        /* \"LiquidityToken.sol\":9272:9289  _valueWithRewards */\n      dup2\n        /* \"LiquidityToken.sol\":9259:9267  stakedLT */\n      sload(0x0e)\n        /* \"LiquidityToken.sol\":9259:9271  stakedLT.add */\n      tag_255\n      swap1\n        /* \"LiquidityToken.sol\":9259:9290  stakedLT.add(_valueWithRewards) */\n      swap2\n      swap1\n      0xffffffff\n      and\n      jump\t// in\n    tag_374:\n        /* \"LiquidityToken.sol\":9248:9256  stakedLT */\n      0x0e\n        /* \"LiquidityToken.sol\":9248:9290  stakedLT = stakedLT.add(_valueWithRewards) */\n      dup2\n      swap1\n      sstore\n      pop\n        /* \"LiquidityToken.sol\":9301:9345  _transfer(msg.sender, address(this), _value) */\n      tag_375\n        /* \"LiquidityToken.sol\":9311:9321  msg.sender */\n      caller\n        /* \"LiquidityToken.sol\":9331:9335  this */\n      address\n        /* \"LiquidityToken.sol\":9338:9344  _value */\n      dup6\n        /* \"LiquidityToken.sol\":9301:9310  _transfer */\n      tag_242\n        /* \"LiquidityToken.sol\":9301:9345  _transfer(msg.sender, address(this), _value) */\n      jump\t// in\n    tag_375:\n        /* \"LiquidityToken.sol\":9361:9406  LTDeposited(msg.sender, _value, _hodlRewards) */\n      0x6f5036100ec84840f4ca7c243e6ca7c042949756211bdfb358406a77dc41a42e\n        /* \"LiquidityToken.sol\":9373:9383  msg.sender */\n      caller\n        /* \"LiquidityToken.sol\":9385:9391  _value */\n      dup5\n        /* \"LiquidityToken.sol\":9393:9405  _hodlRewards */\n      dup5\n        /* \"LiquidityToken.sol\":9361:9406  LTDeposited(msg.sender, _value, _hodlRewards) */\n      mload(0x40)\n      dup1\n      dup5\n      0xffffffffffffffffffffffffffffffffffffffff\n      and\n      dup2\n      mstore\n      0x20\n      add\n      dup4\n      dup2\n      mstore\n      0x20\n      add\n      dup3\n      dup2\n      mstore\n      0x20\n      add\n      swap4\n      pop\n      pop\n      pop\n      pop\n      mload(0x40)\n      dup1\n      swap2\n      sub\n      swap1\n      log1\n        /* \"LiquidityToken.sol\":8803:9411  function depositLT(uint _value) public {... */\n      pop\n      pop\n      pop\n      jump\t// out\n        /* \"LiquidityToken.sol\":12515:12639  function mintByInterfaceProjectToken(uint _value) public onlyInterfaceProjectToken() {... */\n    tag_196:\n        /* \"LiquidityToken.sol\":11017:11050  ensureOnlyInterfaceProjectToken() */\n      tag_377\n        /* \"LiquidityToken.sol\":11017:11048  ensureOnlyInterfaceProjectToken */\n      tag_285\n        /* \"LiquidityToken.sol\":11017:11050  ensureOnlyInterfaceProjectToken() */\n      jump\t// in\n    tag_377:\n        /* \"LiquidityToken.sol\":12606:12634  _mint(address(this), _value) */\n      tag_379\n        /* \"LiquidityToken.sol\":12620:12624  this */\n      address\n        /* \"LiquidityToken.sol\":12627:12633  _value */\n      dup3\n        /* \"LiquidityToken.sol\":12606:12611  _mint */\n      tag_347\n        /* \"LiquidityToken.sol\":12606:12634  _mint(address(this), _value) */\n      jump\t// in\n    tag_379:\n        /* \"LiquidityToken.sol\":12515:12639  function mintByInterfaceProjectToken(uint _value) public onlyInterfaceProjectToken() {... */\n      pop\n      jump\t// out\n        /* \"LiquidityToken.sol\":3523:3783  function setInterfaceProjectToken(InterfaceProjectToken _interfaceProjectToken)... */\n    tag_199:\n        /* \"https://github.com/OpenZeppelin/openzeppelin-contracts/blob/v3.4.2-solc-0.7/contracts/access/Ownable.sol\":1291:1303   */\n      tag_381\n        /* \"https://github.com/OpenZeppelin/openzeppelin-contracts/blob/v3.4.2-solc-0.7/contracts/access/Ownable.sol\":1291:1301   */\n      tag_235\n        /* \"https://github.com/OpenZeppelin/openzeppelin-contracts/blob/v3.4.2-solc-0.7/contracts/access/Ownable.sol\":1291:1303   */\n      jump\t// in\n    tag_381:\n        /* \"https://github.com/OpenZeppelin/openzeppelin-contracts/blob/v3.4.2-solc-0.7/contracts/access/Ownable.sol\":1280:1303   */\n      0xffffffffffffffffffffffffffffffffffffffff\n      and\n        /* \"https://github.com/OpenZeppelin/openzeppelin-contracts/blob/v3.4.2-solc-0.7/contracts/access/Ownable.sol\":1280:1287   */\n      tag_382\n        /* \"https://github.com/OpenZeppelin/openzeppelin-contracts/blob/v3.4.2-solc-0.7/contracts/access/Ownable.sol\":1280:1285   */\n      tag_153\n        /* \"https://github.com/OpenZeppelin/openzeppelin-contracts/blob/v3.4.2-solc-0.7/contracts/access/Ownable.sol\":1280:1287   */\n      jump\t// in\n    tag_382:\n        /* \"https://github.com/OpenZeppelin/openzeppelin-contracts/blob/v3.4.2-solc-0.7/contracts/access/Ownable.sol\":1280:1303   */\n      0xffffffffffffffffffffffffffffffffffffffff\n      and\n      eq\n        /* \"https://github.com/OpenZeppelin/openzeppelin-contracts/blob/v3.4.2-solc-0.7/contracts/access/Ownable.sol\":1272:1340   */\n      tag_383\n      jumpi\n      mload(0x40)\n      0x08c379a000000000000000000000000000000000000000000000000000000000\n      dup2\n      mstore\n      0x04\n      add\n      dup1\n      dup1\n      0x20\n      add\n      dup3\n      dup2\n      sub\n      dup3\n      mstore\n      0x20\n      dup2\n      mstore\n      0x20\n      add\n      dup1\n      0x4f776e61626c653a2063616c6c6572206973206e6f7420746865206f776e6572\n      dup2\n      mstore\n      pop\n      0x20\n      add\n      swap2\n      pop\n      pop\n      mload(0x40)\n      dup1\n      swap2\n      sub\n      swap1\n      revert\n    tag_383:\n        /* \"LiquidityToken.sol\":3691:3694  0x0 */\n      0x00\n        /* \"LiquidityToken.sol\":3648:3695  address(_interfaceProjectToken) != address(0x0) */\n      0xffffffffffffffffffffffffffffffffffffffff\n      and\n        /* \"LiquidityToken.sol\":3656:3678  _interfaceProjectToken */\n      dup2\n        /* \"LiquidityToken.sol\":3648:3695  address(_interfaceProjectToken) != address(0x0) */\n      0xffffffffffffffffffffffffffffffffffffffff\n      and\n      eq\n      iszero\n        /* \"LiquidityToken.sol\":3633:3725  require(... */\n      tag_385\n      jumpi\n      mload(0x40)\n      0x08c379a000000000000000000000000000000000000000000000000000000000\n      dup2\n      mstore\n      0x04\n      add\n      dup1\n      dup1\n      0x20\n      add\n      dup3\n      dup2\n      sub\n      dup3\n      mstore\n      0x13\n      dup2\n      mstore\n      0x20\n      add\n      dup1\n      0x53657420612076616c6964206164647265737300000000000000000000000000\n      dup2\n      mstore\n      pop\n      0x20\n      add\n      swap2\n      pop\n      pop\n      mload(0x40)\n      dup1\n      swap2\n      sub\n      swap1\n      revert\n    tag_385:\n        /* \"LiquidityToken.sol\":3756:3778  _interfaceProjectToken */\n      dup1\n        /* \"LiquidityToken.sol\":3732:3753  interfaceProjectToken */\n      0x06\n      0x00\n        /* \"LiquidityToken.sol\":3732:3778  interfaceProjectToken = _interfaceProjectToken */\n      0x0100\n      exp\n      dup2\n      sload\n      dup2\n      0xffffffffffffffffffffffffffffffffffffffff\n      mul\n      not\n      and\n      swap1\n      dup4\n      0xffffffffffffffffffffffffffffffffffffffff\n      and\n      mul\n      or\n      swap1\n      sstore\n      pop\n        /* \"LiquidityToken.sol\":3523:3783  function setInterfaceProjectToken(InterfaceProjectToken _interfaceProjectToken)... */\n      pop\n      jump\t// out\n        /* \"https://github.com/OpenZeppelin/openzeppelin-contracts/blob/v3.4.2-solc-0.7/contracts/token/ERC20/ERC20.sol\":3942:4091   */\n    tag_202:\n        /* \"https://github.com/OpenZeppelin/openzeppelin-contracts/blob/v3.4.2-solc-0.7/contracts/token/ERC20/ERC20.sol\":4031:4038   */\n      0x00\n        /* \"https://github.com/OpenZeppelin/openzeppelin-contracts/blob/v3.4.2-solc-0.7/contracts/token/ERC20/ERC20.sol\":4057:4068   */\n      0x01\n        /* \"https://github.com/OpenZeppelin/openzeppelin-contracts/blob/v3.4.2-solc-0.7/contracts/token/ERC20/ERC20.sol\":4057:4075   */\n      0x00\n        /* \"https://github.com/OpenZeppelin/openzeppelin-contracts/blob/v3.4.2-solc-0.7/contracts/token/ERC20/ERC20.sol\":4069:4074   */\n      dup5\n        /* \"https://github.com/OpenZeppelin/openzeppelin-contracts/blob/v3.4.2-solc-0.7/contracts/token/ERC20/ERC20.sol\":4057:4075   */\n      0xffffffffffffffffffffffffffffffffffffffff\n      and\n      0xffffffffffffffffffffffffffffffffffffffff\n      and\n      dup2\n      mstore\n      0x20\n      add\n      swap1\n      dup2\n      mstore\n      0x20\n      add\n      0x00\n      keccak256\n        /* \"https://github.com/OpenZeppelin/openzeppelin-contracts/blob/v3.4.2-solc-0.7/contracts/token/ERC20/ERC20.sol\":4057:4084   */\n      0x00\n        /* \"https://github.com/OpenZeppelin/openzeppelin-contracts/blob/v3.4.2-solc-0.7/contracts/token/ERC20/ERC20.sol\":4076:4083   */\n      dup4\n        /* \"https://github.com/OpenZeppelin/openzeppelin-contracts/blob/v3.4.2-solc-0.7/contracts/token/ERC20/ERC20.sol\":4057:4084   */\n      0xffffffffffffffffffffffffffffffffffffffff\n      and\n      0xffffffffffffffffffffffffffffffffffffffff\n      and\n      dup2\n      mstore\n      0x20\n      add\n      swap1\n      dup2\n      mstore\n      0x20\n      add\n      0x00\n      keccak256\n      sload\n        /* \"https://github.com/OpenZeppelin/openzeppelin-contracts/blob/v3.4.2-solc-0.7/contracts/token/ERC20/ERC20.sol\":4050:4084   */\n      swap1\n      pop\n        /* \"https://github.com/OpenZeppelin/openzeppelin-contracts/blob/v3.4.2-solc-0.7/contracts/token/ERC20/ERC20.sol\":3942:4091   */\n      swap3\n      swap2\n      pop\n      pop\n      jump\t// out\n        /* \"LiquidityToken.sol\":3875:5179  function allocateLTByOwner(address[] memory _users, uint[] memory _values, bool _areAllocationsToBeStaked)... */\n    tag_211:\n        /* \"https://github.com/OpenZeppelin/openzeppelin-contracts/blob/v3.4.2-solc-0.7/contracts/access/Ownable.sol\":1291:1303   */\n      tag_388\n        /* \"https://github.com/OpenZeppelin/openzeppelin-contracts/blob/v3.4.2-solc-0.7/contracts/access/Ownable.sol\":1291:1301   */\n      tag_235\n        /* \"https://github.com/OpenZeppelin/openzeppelin-contracts/blob/v3.4.2-solc-0.7/contracts/access/Ownable.sol\":1291:1303   */\n      jump\t// in\n    tag_388:\n        /* \"https://github.com/OpenZeppelin/openzeppelin-contracts/blob/v3.4.2-solc-0.7/contracts/access/Ownable.sol\":1280:1303   */\n      0xffffffffffffffffffffffffffffffffffffffff\n      and\n        /* \"https://github.com/OpenZeppelin/openzeppelin-contracts/blob/v3.4.2-solc-0.7/contracts/access/Ownable.sol\":1280:1287   */\n      tag_389\n        /* \"https://github.com/OpenZeppelin/openzeppelin-contracts/blob/v3.4.2-solc-0.7/contracts/access/Ownable.sol\":1280:1285   */\n      tag_153\n        /* \"https://github.com/OpenZeppelin/openzeppelin-contracts/blob/v3.4.2-solc-0.7/contracts/access/Ownable.sol\":1280:1287   */\n      jump\t// in\n    tag_389:\n        /* \"https://github.com/OpenZeppelin/openzeppelin-contracts/blob/v3.4.2-solc-0.7/contracts/access/Ownable.sol\":1280:1303   */\n      0xffffffffffffffffffffffffffffffffffffffff\n      and\n      eq\n        /* \"https://github.com/OpenZeppelin/openzeppelin-contracts/blob/v3.4.2-solc-0.7/contracts/access/Ownable.sol\":1272:1340   */\n      tag_390\n      jumpi\n      mload(0x40)\n      0x08c379a000000000000000000000000000000000000000000000000000000000\n      dup2\n      mstore\n      0x04\n      add\n      dup1\n      dup1\n      0x20\n      add\n      dup3\n      dup2\n      sub\n      dup3\n      mstore\n      0x20\n      dup2\n      mstore\n      0x20\n      add\n      dup1\n      0x4f776e61626c653a2063616c6c6572206973206e6f7420746865206f776e6572\n      dup2\n      mstore\n      pop\n      0x20\n      add\n      swap2\n      pop\n      pop\n      mload(0x40)\n      dup1\n      swap2\n      sub\n      swap1\n      revert\n    tag_390:\n        /* \"LiquidityToken.sol\":4012:4040  checkProjectNotYetLaunched() */\n      tag_392\n        /* \"LiquidityToken.sol\":4012:4038  checkProjectNotYetLaunched */\n      tag_393\n        /* \"LiquidityToken.sol\":4012:4040  checkProjectNotYetLaunched() */\n      jump\t// in\n    tag_392:\n        /* \"LiquidityToken.sol\":4047:4073  uint _allocatedTokenSupply */\n      0x00\n        /* \"LiquidityToken.sol\":4079:4100  uint _usersListLength */\n      dup1\n        /* \"LiquidityToken.sol\":4103:4109  _users */\n      dup5\n        /* \"LiquidityToken.sol\":4103:4116  _users.length */\n      mload\n        /* \"LiquidityToken.sol\":4079:4116  uint _usersListLength = _users.length */\n      swap1\n      pop\n        /* \"LiquidityToken.sol\":4122:4135  address _user */\n      0x00\n        /* \"LiquidityToken.sol\":4141:4152  uint _value */\n      dup1\n        /* \"LiquidityToken.sol\":4158:4175  uint _hodlRewards */\n      0x00\n        /* \"LiquidityToken.sol\":4181:4199  uint _totalRewards */\n      dup1\n        /* \"LiquidityToken.sol\":4243:4250  _values */\n      dup8\n        /* \"LiquidityToken.sol\":4243:4257  _values.length */\n      mload\n        /* \"LiquidityToken.sol\":4223:4239  _usersListLength */\n      dup6\n        /* \"LiquidityToken.sol\":4223:4257  _usersListLength == _values.length */\n      eq\n        /* \"LiquidityToken.sol\":4208:4306  require(... */\n      tag_394\n      jumpi\n      mload(0x40)\n      0x08c379a000000000000000000000000000000000000000000000000000000000\n      dup2\n      mstore\n      0x04\n      add\n      dup1\n      dup1\n      0x20\n      add\n      dup3\n      dup2\n      sub\n      dup3\n      mstore\n      0x26\n      dup2\n      mstore\n      0x20\n      add\n      dup1\n      data_f2240f5a918e8df78ef0222ad9355ea418dab0d59997deefa8646c9cb441c6d5\n      0x26\n      swap2\n      codecopy\n      0x40\n      add\n      swap2\n      pop\n      pop\n      mload(0x40)\n      dup1\n      swap2\n      sub\n      swap1\n      revert\n    tag_394:\n        /* \"LiquidityToken.sol\":4318:4326  uint _id */\n      0x00\n        /* \"LiquidityToken.sol\":4313:4932  for (uint _id = 0 ; _id < _usersListLength ; _id++) {... */\n    tag_395:\n        /* \"LiquidityToken.sol\":4339:4355  _usersListLength */\n      dup6\n        /* \"LiquidityToken.sol\":4333:4336  _id */\n      dup2\n        /* \"LiquidityToken.sol\":4333:4355  _id < _usersListLength */\n      lt\n        /* \"LiquidityToken.sol\":4313:4932  for (uint _id = 0 ; _id < _usersListLength ; _id++) {... */\n      iszero\n      tag_396\n      jumpi\n        /* \"LiquidityToken.sol\":4381:4387  _users */\n      dup10\n        /* \"LiquidityToken.sol\":4388:4391  _id */\n      dup2\n        /* \"LiquidityToken.sol\":4381:4392  _users[_id] */\n      dup2\n      mload\n      dup2\n      lt\n      tag_398\n      jumpi\n      invalid\n    tag_398:\n      0x20\n      mul\n      0x20\n      add\n      add\n      mload\n        /* \"LiquidityToken.sol\":4373:4392  _user = _users[_id] */\n      swap5\n      pop\n        /* \"LiquidityToken.sol\":4409:4416  _values */\n      dup9\n        /* \"LiquidityToken.sol\":4417:4420  _id */\n      dup2\n        /* \"LiquidityToken.sol\":4409:4421  _values[_id] */\n      dup2\n      mload\n      dup2\n      lt\n      tag_399\n      jumpi\n      invalid\n    tag_399:\n      0x20\n      mul\n      0x20\n      add\n      add\n      mload\n        /* \"LiquidityToken.sol\":4400:4421  _value = _values[_id] */\n      swap4\n      pop\n        /* \"LiquidityToken.sol\":4434:4459  _areAllocationsToBeStaked */\n      dup8\n        /* \"LiquidityToken.sol\":4430:4766  if (_areAllocationsToBeStaked) {... */\n      iszero\n      tag_400\n      jumpi\n        /* \"LiquidityToken.sol\":4486:4523  updateStakingAndGetHodlRewards(_user) */\n      tag_401\n        /* \"LiquidityToken.sol\":4517:4522  _user */\n      dup6\n        /* \"LiquidityToken.sol\":4486:4516  updateStakingAndGetHodlRewards */\n      tag_260\n        /* \"LiquidityToken.sol\":4486:4523  updateStakingAndGetHodlRewards(_user) */\n      jump\t// in\n    tag_401:\n        /* \"LiquidityToken.sol\":4471:4523  _hodlRewards = updateStakingAndGetHodlRewards(_user) */\n      swap3\n      pop\n        /* \"LiquidityToken.sol\":4588:4659  userLiquiToken[_user].fullyChargedBalance.add(_value).add(_hodlRewards) */\n      tag_402\n        /* \"LiquidityToken.sol\":4646:4658  _hodlRewards */\n      dup4\n        /* \"LiquidityToken.sol\":4588:4641  userLiquiToken[_user].fullyChargedBalance.add(_value) */\n      tag_403\n        /* \"LiquidityToken.sol\":4634:4640  _value */\n      dup7\n        /* \"LiquidityToken.sol\":4588:4602  userLiquiToken */\n      0x1a\n        /* \"LiquidityToken.sol\":4588:4609  userLiquiToken[_user] */\n      0x00\n        /* \"LiquidityToken.sol\":4603:4608  _user */\n      dup11\n        /* \"LiquidityToken.sol\":4588:4609  userLiquiToken[_user] */\n      0xffffffffffffffffffffffffffffffffffffffff\n      and\n      0xffffffffffffffffffffffffffffffffffffffff\n      and\n      dup2\n      mstore\n      0x20\n      add\n      swap1\n      dup2\n      mstore\n      0x20\n      add\n      0x00\n      keccak256\n        /* \"LiquidityToken.sol\":4588:4629  userLiquiToken[_user].fullyChargedBalance */\n      0x00\n      add\n      sload\n        /* \"LiquidityToken.sol\":4588:4633  userLiquiToken[_user].fullyChargedBalance.add */\n      tag_255\n      swap1\n        /* \"LiquidityToken.sol\":4588:4641  userLiquiToken[_user].fullyChargedBalance.add(_value) */\n      swap2\n      swap1\n      0xffffffff\n      and\n      jump\t// in\n    tag_403:\n        /* \"LiquidityToken.sol\":4588:4645  userLiquiToken[_user].fullyChargedBalance.add(_value).add */\n      tag_255\n      swap1\n        /* \"LiquidityToken.sol\":4588:4659  userLiquiToken[_user].fullyChargedBalance.add(_value).add(_hodlRewards) */\n      swap2\n      swap1\n      0xffffffff\n      and\n      jump\t// in\n    tag_402:\n        /* \"LiquidityToken.sol\":4533:4547  userLiquiToken */\n      0x1a\n        /* \"LiquidityToken.sol\":4533:4554  userLiquiToken[_user] */\n      0x00\n        /* \"LiquidityToken.sol\":4548:4553  _user */\n      dup8\n        /* \"LiquidityToken.sol\":4533:4554  userLiquiToken[_user] */\n      0xffffffffffffffffffffffffffffffffffffffff\n      and\n      0xffffffffffffffffffffffffffffffffffffffff\n      and\n      dup2\n      mstore\n      0x20\n      add\n      swap1\n      dup2\n      mstore\n      0x20\n      add\n      0x00\n      keccak256\n        /* \"LiquidityToken.sol\":4533:4574  userLiquiToken[_user].fullyChargedBalance */\n      0x00\n      add\n        /* \"LiquidityToken.sol\":4533:4659  userLiquiToken[_user].fullyChargedBalance = ... */\n      dup2\n      swap1\n      sstore\n      pop\n        /* \"LiquidityToken.sol\":4685:4716  _totalRewards.add(_hodlRewards) */\n      tag_404\n        /* \"LiquidityToken.sol\":4703:4715  _hodlRewards */\n      dup4\n        /* \"LiquidityToken.sol\":4685:4698  _totalRewards */\n      dup4\n        /* \"LiquidityToken.sol\":4685:4702  _totalRewards.add */\n      tag_255\n      swap1\n        /* \"LiquidityToken.sol\":4685:4716  _totalRewards.add(_hodlRewards) */\n      swap2\n      swap1\n      0xffffffff\n      and\n      jump\t// in\n    tag_404:\n        /* \"LiquidityToken.sol\":4669:4716  _totalRewards = _totalRewards.add(_hodlRewards) */\n      swap2\n      pop\n        /* \"LiquidityToken.sol\":4430:4766  if (_areAllocationsToBeStaked) {... */\n      jump(tag_405)\n    tag_400:\n        /* \"LiquidityToken.sol\":4746:4766  _mint(_user, _value) */\n      tag_406\n        /* \"LiquidityToken.sol\":4752:4757  _user */\n      dup6\n        /* \"LiquidityToken.sol\":4759:4765  _value */\n      dup6\n        /* \"LiquidityToken.sol\":4746:4751  _mint */\n      tag_347\n        /* \"LiquidityToken.sol\":4746:4766  _mint(_user, _value) */\n      jump\t// in\n    tag_406:\n        /* \"LiquidityToken.sol\":4430:4766  if (_areAllocationsToBeStaked) {... */\n    tag_405:\n        /* \"LiquidityToken.sol\":4805:4838  _allocatedTokenSupply.add(_value) */\n      tag_407\n        /* \"LiquidityToken.sol\":4831:4837  _value */\n      dup5\n        /* \"LiquidityToken.sol\":4805:4826  _allocatedTokenSupply */\n      dup9\n        /* \"LiquidityToken.sol\":4805:4830  _allocatedTokenSupply.add */\n      tag_255\n      swap1\n        /* \"LiquidityToken.sol\":4805:4838  _allocatedTokenSupply.add(_value) */\n      swap2\n      swap1\n      0xffffffff\n      and\n      jump\t// in\n    tag_407:\n        /* \"LiquidityToken.sol\":4781:4838  _allocatedTokenSupply = _allocatedTokenSupply.add(_value) */\n      swap7\n      pop\n        /* \"LiquidityToken.sol\":4851:4925  LTAllocatedByOwner(_user, _value, _hodlRewards, _areAllocationsToBeStaked) */\n      0xa984939d0059bc688e1c5458f72ad05b51fc8a6ba959556f5e2ee91c1ab8c7d2\n        /* \"LiquidityToken.sol\":4870:4875  _user */\n      dup6\n        /* \"LiquidityToken.sol\":4877:4883  _value */\n      dup6\n        /* \"LiquidityToken.sol\":4885:4897  _hodlRewards */\n      dup6\n        /* \"LiquidityToken.sol\":4899:4924  _areAllocationsToBeStaked */\n      dup12\n        /* \"LiquidityToken.sol\":4851:4925  LTAllocatedByOwner(_user, _value, _hodlRewards, _areAllocationsToBeStaked) */\n      mload(0x40)\n      dup1\n      dup6\n      0xffffffffffffffffffffffffffffffffffffffff\n      and\n      dup2\n      mstore\n      0x20\n      add\n      dup5\n      dup2\n      mstore\n      0x20\n      add\n      dup4\n      dup2\n      mstore\n      0x20\n      add\n      dup3\n      iszero\n      iszero\n      dup2\n      mstore\n      0x20\n      add\n      swap5\n      pop\n      pop\n      pop\n      pop\n      pop\n      mload(0x40)\n      dup1\n      swap2\n      sub\n      swap1\n      log1\n        /* \"LiquidityToken.sol\":4358:4363  _id++ */\n      dup1\n      dup1\n      0x01\n      add\n      swap2\n      pop\n      pop\n        /* \"LiquidityToken.sol\":4313:4932  for (uint _id = 0 ; _id < _usersListLength ; _id++) {... */\n      jump(tag_395)\n    tag_396:\n      pop\n        /* \"LiquidityToken.sol\":4960:5006  totalTokenAllocated.add(_allocatedTokenSupply) */\n      tag_408\n        /* \"LiquidityToken.sol\":4984:5005  _allocatedTokenSupply */\n      dup7\n        /* \"LiquidityToken.sol\":4960:4979  totalTokenAllocated */\n      sload(0x14)\n        /* \"LiquidityToken.sol\":4960:4983  totalTokenAllocated.add */\n      tag_255\n      swap1\n        /* \"LiquidityToken.sol\":4960:5006  totalTokenAllocated.add(_allocatedTokenSupply) */\n      swap2\n      swap1\n      0xffffffff\n      and\n      jump\t// in\n    tag_408:\n        /* \"LiquidityToken.sol\":4938:4957  totalTokenAllocated */\n      0x14\n        /* \"LiquidityToken.sol\":4938:5006  totalTokenAllocated = totalTokenAllocated.add(_allocatedTokenSupply) */\n      dup2\n      swap1\n      sstore\n      pop\n        /* \"LiquidityToken.sol\":5017:5042  _areAllocationsToBeStaked */\n      dup7\n        /* \"LiquidityToken.sol\":5013:5175  if (_areAllocationsToBeStaked) {... */\n      iszero\n      tag_409\n      jumpi\n        /* \"LiquidityToken.sol\":5052:5095  _mint(address(this), _allocatedTokenSupply) */\n      tag_410\n        /* \"LiquidityToken.sol\":5066:5070  this */\n      address\n        /* \"LiquidityToken.sol\":5073:5094  _allocatedTokenSupply */\n      dup8\n        /* \"LiquidityToken.sol\":5052:5057  _mint */\n      tag_347\n        /* \"LiquidityToken.sol\":5052:5095  _mint(address(this), _allocatedTokenSupply) */\n      jump\t// in\n    tag_410:\n        /* \"LiquidityToken.sol\":5114:5168  stakedLT.add(_allocatedTokenSupply).add(_totalRewards) */\n      tag_411\n        /* \"LiquidityToken.sol\":5154:5167  _totalRewards */\n      dup2\n        /* \"LiquidityToken.sol\":5114:5149  stakedLT.add(_allocatedTokenSupply) */\n      tag_412\n        /* \"LiquidityToken.sol\":5127:5148  _allocatedTokenSupply */\n      dup9\n        /* \"LiquidityToken.sol\":5114:5122  stakedLT */\n      sload(0x0e)\n        /* \"LiquidityToken.sol\":5114:5126  stakedLT.add */\n      tag_255\n      swap1\n        /* \"LiquidityToken.sol\":5114:5149  stakedLT.add(_allocatedTokenSupply) */\n      swap2\n      swap1\n      0xffffffff\n      and\n      jump\t// in\n    tag_412:\n        /* \"LiquidityToken.sol\":5114:5153  stakedLT.add(_allocatedTokenSupply).add */\n      tag_255\n      swap1\n        /* \"LiquidityToken.sol\":5114:5168  stakedLT.add(_allocatedTokenSupply).add(_totalRewards) */\n      swap2\n      swap1\n      0xffffffff\n      and\n      jump\t// in\n    tag_411:\n        /* \"LiquidityToken.sol\":5103:5111  stakedLT */\n      0x0e\n        /* \"LiquidityToken.sol\":5103:5168  stakedLT = stakedLT.add(_allocatedTokenSupply).add(_totalRewards) */\n      dup2\n      swap1\n      sstore\n      pop\n        /* \"LiquidityToken.sol\":5013:5175  if (_areAllocationsToBeStaked) {... */\n    tag_409:\n        /* \"https://github.com/OpenZeppelin/openzeppelin-contracts/blob/v3.4.2-solc-0.7/contracts/access/Ownable.sol\":1350:1351   */\n      pop\n      pop\n      pop\n      pop\n      pop\n      pop\n        /* \"LiquidityToken.sol\":3875:5179  function allocateLTByOwner(address[] memory _users, uint[] memory _values, bool _areAllocationsToBeStaked)... */\n      pop\n      pop\n      pop\n      jump\t// out\n        /* \"LiquidityToken.sol\":857:894  uint public currentRewardPerShare1e18 */\n    tag_213:\n      sload(0x0d)\n      dup2\n      jump\t// out\n        /* \"LiquidityToken.sol\":1044:1077  uint public durationLinearVesting */\n    tag_215:\n      sload(0x12)\n      dup2\n      jump\t// out\n        /* \"LiquidityToken.sol\":11259:11449  function updateStakingAndGetHodlRewardsByInterfacePT(address _user) public onlyInterfaceProjectToken() returns (uint) {... */\n    tag_218:\n        /* \"LiquidityToken.sol\":11371:11375  uint */\n      0x00\n        /* \"LiquidityToken.sol\":11017:11050  ensureOnlyInterfaceProjectToken() */\n      tag_414\n        /* \"LiquidityToken.sol\":11017:11048  ensureOnlyInterfaceProjectToken */\n      tag_285\n        /* \"LiquidityToken.sol\":11017:11050  ensureOnlyInterfaceProjectToken() */\n      jump\t// in\n    tag_414:\n        /* \"LiquidityToken.sol\":11397:11434  updateStakingAndGetHodlRewards(_user) */\n      tag_416\n        /* \"LiquidityToken.sol\":11428:11433  _user */\n      dup3\n        /* \"LiquidityToken.sol\":11397:11427  updateStakingAndGetHodlRewards */\n      tag_260\n        /* \"LiquidityToken.sol\":11397:11434  updateStakingAndGetHodlRewards(_user) */\n      jump\t// in\n    tag_416:\n        /* \"LiquidityToken.sol\":11383:11442  return(... */\n      swap1\n      pop\n        /* \"LiquidityToken.sol\":11259:11449  function updateStakingAndGetHodlRewardsByInterfacePT(address _user) public onlyInterfaceProjectToken() returns (uint) {... */\n      swap2\n      swap1\n      pop\n      jump\t// out\n        /* \"https://github.com/OpenZeppelin/openzeppelin-contracts/blob/v3.4.2-solc-0.7/contracts/access/Ownable.sol\":1994:2234   */\n    tag_221:\n        /* \"https://github.com/OpenZeppelin/openzeppelin-contracts/blob/v3.4.2-solc-0.7/contracts/access/Ownable.sol\":1291:1303   */\n      tag_418\n        /* \"https://github.com/OpenZeppelin/openzeppelin-contracts/blob/v3.4.2-solc-0.7/contracts/access/Ownable.sol\":1291:1301   */\n      tag_235\n        /* \"https://github.com/OpenZeppelin/openzeppelin-contracts/blob/v3.4.2-solc-0.7/contracts/access/Ownable.sol\":1291:1303   */\n      jump\t// in\n    tag_418:\n        /* \"https://github.com/OpenZeppelin/openzeppelin-contracts/blob/v3.4.2-solc-0.7/contracts/access/Ownable.sol\":1280:1303   */\n      0xffffffffffffffffffffffffffffffffffffffff\n      and\n        /* \"https://github.com/OpenZeppelin/openzeppelin-contracts/blob/v3.4.2-solc-0.7/contracts/access/Ownable.sol\":1280:1287   */\n      tag_419\n        /* \"https://github.com/OpenZeppelin/openzeppelin-contracts/blob/v3.4.2-solc-0.7/contracts/access/Ownable.sol\":1280:1285   */\n      tag_153\n        /* \"https://github.com/OpenZeppelin/openzeppelin-contracts/blob/v3.4.2-solc-0.7/contracts/access/Ownable.sol\":1280:1287   */\n      jump\t// in\n    tag_419:\n        /* \"https://github.com/OpenZeppelin/openzeppelin-contracts/blob/v3.4.2-solc-0.7/contracts/access/Ownable.sol\":1280:1303   */\n      0xffffffffffffffffffffffffffffffffffffffff\n      and\n      eq\n        /* \"https://github.com/OpenZeppelin/openzeppelin-contracts/blob/v3.4.2-solc-0.7/contracts/access/Ownable.sol\":1272:1340   */\n      tag_420\n      jumpi\n      mload(0x40)\n      0x08c379a000000000000000000000000000000000000000000000000000000000\n      dup2\n      mstore\n      0x04\n      add\n      dup1\n      dup1\n      0x20\n      add\n      dup3\n      dup2\n      sub\n      dup3\n      mstore\n      0x20\n      dup2\n      mstore\n      0x20\n      add\n      dup1\n      0x4f776e61626c653a2063616c6c6572206973206e6f7420746865206f776e6572\n      dup2\n      mstore\n      pop\n      0x20\n      add\n      swap2\n      pop\n      pop\n      mload(0x40)\n      dup1\n      swap2\n      sub\n      swap1\n      revert\n    tag_420:\n        /* \"https://github.com/OpenZeppelin/openzeppelin-contracts/blob/v3.4.2-solc-0.7/contracts/access/Ownable.sol\":2102:2103   */\n      0x00\n        /* \"https://github.com/OpenZeppelin/openzeppelin-contracts/blob/v3.4.2-solc-0.7/contracts/access/Ownable.sol\":2082:2104   */\n      0xffffffffffffffffffffffffffffffffffffffff\n      and\n        /* \"https://github.com/OpenZeppelin/openzeppelin-contracts/blob/v3.4.2-solc-0.7/contracts/access/Ownable.sol\":2082:2090   */\n      dup2\n        /* \"https://github.com/OpenZeppelin/openzeppelin-contracts/blob/v3.4.2-solc-0.7/contracts/access/Ownable.sol\":2082:2104   */\n      0xffffffffffffffffffffffffffffffffffffffff\n      and\n      eq\n      iszero\n        /* \"https://github.com/OpenZeppelin/openzeppelin-contracts/blob/v3.4.2-solc-0.7/contracts/access/Ownable.sol\":2074:2147   */\n      tag_422\n      jumpi\n      mload(0x40)\n      0x08c379a000000000000000000000000000000000000000000000000000000000\n      dup2\n      mstore\n      0x04\n      add\n      dup1\n      dup1\n      0x20\n      add\n      dup3\n      dup2\n      sub\n      dup3\n      mstore\n      0x26\n      dup2\n      mstore\n      0x20\n      add\n      dup1\n      data_245f15ff17f551913a7a18385165551503906a406f905ac1c2437281a7cd0cfe\n      0x26\n      swap2\n      codecopy\n      0x40\n      add\n      swap2\n      pop\n      pop\n      mload(0x40)\n      dup1\n      swap2\n      sub\n      swap1\n      revert\n    tag_422:\n        /* \"https://github.com/OpenZeppelin/openzeppelin-contracts/blob/v3.4.2-solc-0.7/contracts/access/Ownable.sol\":2191:2199   */\n      dup1\n        /* \"https://github.com/OpenZeppelin/openzeppelin-contracts/blob/v3.4.2-solc-0.7/contracts/access/Ownable.sol\":2162:2200   */\n      0xffffffffffffffffffffffffffffffffffffffff\n      and\n        /* \"https://github.com/OpenZeppelin/openzeppelin-contracts/blob/v3.4.2-solc-0.7/contracts/access/Ownable.sol\":2183:2189   */\n      0x05\n      0x01\n      swap1\n      sload\n      swap1\n      0x0100\n      exp\n      swap1\n      div\n      0xffffffffffffffffffffffffffffffffffffffff\n      and\n        /* \"https://github.com/OpenZeppelin/openzeppelin-contracts/blob/v3.4.2-solc-0.7/contracts/access/Ownable.sol\":2162:2200   */\n      0xffffffffffffffffffffffffffffffffffffffff\n      and\n      0x8be0079c531659141344cd1fd0a4f28419497f9722a3daafe3b4186f6b6457e0\n      mload(0x40)\n      mload(0x40)\n      dup1\n      swap2\n      sub\n      swap1\n      log3\n        /* \"https://github.com/OpenZeppelin/openzeppelin-contracts/blob/v3.4.2-solc-0.7/contracts/access/Ownable.sol\":2219:2227   */\n      dup1\n        /* \"https://github.com/OpenZeppelin/openzeppelin-contracts/blob/v3.4.2-solc-0.7/contracts/access/Ownable.sol\":2210:2216   */\n      0x05\n      0x01\n        /* \"https://github.com/OpenZeppelin/openzeppelin-contracts/blob/v3.4.2-solc-0.7/contracts/access/Ownable.sol\":2210:2227   */\n      0x0100\n      exp\n      dup2\n      sload\n      dup2\n      0xffffffffffffffffffffffffffffffffffffffff\n      mul\n      not\n      and\n      swap1\n      dup4\n      0xffffffffffffffffffffffffffffffffffffffff\n      and\n      mul\n      or\n      swap1\n      sstore\n      pop\n        /* \"https://github.com/OpenZeppelin/openzeppelin-contracts/blob/v3.4.2-solc-0.7/contracts/access/Ownable.sol\":1994:2234   */\n      pop\n      jump\t// out\n        /* \"LiquidityToken.sol\":12774:12918  function updateRewardsAfterFeesPaymentByInterface(uint _fees) public onlyInterfaceProjectToken() {... */\n    tag_224:\n        /* \"LiquidityToken.sol\":11017:11050  ensureOnlyInterfaceProjectToken() */\n      tag_424\n        /* \"LiquidityToken.sol\":11017:11048  ensureOnlyInterfaceProjectToken */\n      tag_285\n        /* \"LiquidityToken.sol\":11017:11050  ensureOnlyInterfaceProjectToken() */\n      jump\t// in\n    tag_424:\n        /* \"LiquidityToken.sol\":12877:12913  updateRewardsAfterFeesPayment(_fees) */\n      tag_426\n        /* \"LiquidityToken.sol\":12907:12912  _fees */\n      dup2\n        /* \"LiquidityToken.sol\":12877:12906  updateRewardsAfterFeesPayment */\n      tag_282\n        /* \"LiquidityToken.sol\":12877:12913  updateRewardsAfterFeesPayment(_fees) */\n      jump\t// in\n    tag_426:\n        /* \"LiquidityToken.sol\":12774:12918  function updateRewardsAfterFeesPaymentByInterface(uint _fees) public onlyInterfaceProjectToken() {... */\n      pop\n      jump\t// out\n        /* \"LiquidityToken.sol\":7945:8500  function getHodlRewards(address _user, uint _currentRewardPerShare1e18) public view returns(uint _hodlRewards) {... */\n    tag_227:\n        /* \"LiquidityToken.sol\":8037:8054  uint _hodlRewards */\n      0x00\n        /* \"LiquidityToken.sol\":8063:8084  uint _totalTokenOwned */\n      dup1\n        /* \"LiquidityToken.sol\":8087:8179  userLiquiToken[_user].fullyChargedBalance.add(userLiquiToken[_user].partiallyChargedBalance) */\n      tag_428\n        /* \"LiquidityToken.sol\":8133:8147  userLiquiToken */\n      0x1a\n        /* \"LiquidityToken.sol\":8133:8154  userLiquiToken[_user] */\n      0x00\n        /* \"LiquidityToken.sol\":8148:8153  _user */\n      dup7\n        /* \"LiquidityToken.sol\":8133:8154  userLiquiToken[_user] */\n      0xffffffffffffffffffffffffffffffffffffffff\n      and\n      0xffffffffffffffffffffffffffffffffffffffff\n      and\n      dup2\n      mstore\n      0x20\n      add\n      swap1\n      dup2\n      mstore\n      0x20\n      add\n      0x00\n      keccak256\n        /* \"LiquidityToken.sol\":8133:8178  userLiquiToken[_user].partiallyChargedBalance */\n      0x01\n      add\n      sload\n        /* \"LiquidityToken.sol\":8087:8101  userLiquiToken */\n      0x1a\n        /* \"LiquidityToken.sol\":8087:8108  userLiquiToken[_user] */\n      0x00\n        /* \"LiquidityToken.sol\":8102:8107  _user */\n      dup8\n        /* \"LiquidityToken.sol\":8087:8108  userLiquiToken[_user] */\n      0xffffffffffffffffffffffffffffffffffffffff\n      and\n      0xffffffffffffffffffffffffffffffffffffffff\n      and\n      dup2\n      mstore\n      0x20\n      add\n      swap1\n      dup2\n      mstore\n      0x20\n      add\n      0x00\n      keccak256\n        /* \"LiquidityToken.sol\":8087:8128  userLiquiToken[_user].fullyChargedBalance */\n      0x00\n      add\n      sload\n        /* \"LiquidityToken.sol\":8087:8132  userLiquiToken[_user].fullyChargedBalance.add */\n      tag_255\n      swap1\n        /* \"LiquidityToken.sol\":8087:8179  userLiquiToken[_user].fullyChargedBalance.add(userLiquiToken[_user].partiallyChargedBalance) */\n      swap2\n      swap1\n      0xffffffff\n      and\n      jump\t// in\n    tag_428:\n        /* \"LiquidityToken.sol\":8063:8179  uint _totalTokenOwned = userLiquiToken[_user].fullyChargedBalance.add(userLiquiToken[_user].partiallyChargedBalance) */\n      swap1\n      pop\n        /* \"LiquidityToken.sol\":8231:8234  0x0 */\n      0x00\n        /* \"LiquidityToken.sol\":8189:8235  address(interfaceProjectToken) != address(0x0) */\n      0xffffffffffffffffffffffffffffffffffffffff\n      and\n        /* \"LiquidityToken.sol\":8197:8218  interfaceProjectToken */\n      0x06\n      0x00\n      swap1\n      sload\n      swap1\n      0x0100\n      exp\n      swap1\n      div\n      0xffffffffffffffffffffffffffffffffffffffff\n      and\n        /* \"LiquidityToken.sol\":8189:8235  address(interfaceProjectToken) != address(0x0) */\n      0xffffffffffffffffffffffffffffffffffffffff\n      and\n      eq\n        /* \"LiquidityToken.sol\":8185:8345  if (address(interfaceProjectToken) != address(0x0)) ... */\n      tag_429\n      jumpi\n        /* \"LiquidityToken.sol\":8263:8345  _totalTokenOwned.sub(interfaceProjectToken.valueProjectTokenToFullRecharge(_user)) */\n      tag_430\n        /* \"LiquidityToken.sol\":8284:8305  interfaceProjectToken */\n      0x06\n      0x00\n      swap1\n      sload\n      swap1\n      0x0100\n      exp\n      swap1\n      div\n      0xffffffffffffffffffffffffffffffffffffffff\n      and\n        /* \"LiquidityToken.sol\":8284:8337  interfaceProjectToken.valueProjectTokenToFullRecharge */\n      0xffffffffffffffffffffffffffffffffffffffff\n      and\n      0xba01ecef\n        /* \"LiquidityToken.sol\":8338:8343  _user */\n      dup7\n        /* \"LiquidityToken.sol\":8284:8344  interfaceProjectToken.valueProjectTokenToFullRecharge(_user) */\n      mload(0x40)\n      dup3\n      0xffffffff\n      and\n      0xe0\n      shl\n      dup2\n      mstore\n      0x04\n      add\n      dup1\n      dup3\n      0xffffffffffffffffffffffffffffffffffffffff\n      and\n      dup2\n      mstore\n      0x20\n      add\n      swap2\n      pop\n      pop\n      0x20\n      mload(0x40)\n      dup1\n      dup4\n      sub\n      dup2\n      dup7\n      dup1\n      extcodesize\n      iszero\n      dup1\n      iszero\n      tag_431\n      jumpi\n      0x00\n      dup1\n      revert\n    tag_431:\n      pop\n      gas\n      staticcall\n      iszero\n      dup1\n      iszero\n      tag_433\n      jumpi\n      returndatasize\n      0x00\n      dup1\n      returndatacopy\n      revert(0x00, returndatasize)\n    tag_433:\n      pop\n      pop\n      pop\n      pop\n      mload(0x40)\n      returndatasize\n      0x20\n      dup2\n      lt\n      iszero\n      tag_434\n      jumpi\n      0x00\n      dup1\n      revert\n    tag_434:\n      dup2\n      add\n      swap1\n      dup1\n      dup1\n      mload\n      swap1\n      0x20\n      add\n      swap1\n      swap3\n      swap2\n      swap1\n      pop\n      pop\n      pop\n        /* \"LiquidityToken.sol\":8263:8279  _totalTokenOwned */\n      dup3\n        /* \"LiquidityToken.sol\":8263:8283  _totalTokenOwned.sub */\n      tag_262\n      swap1\n        /* \"LiquidityToken.sol\":8263:8345  _totalTokenOwned.sub(interfaceProjectToken.valueProjectTokenToFullRecharge(_user)) */\n      swap2\n      swap1\n      0xffffffff\n      and\n      jump\t// in\n    tag_430:\n        /* \"LiquidityToken.sol\":8244:8345  _totalTokenOwned = _totalTokenOwned.sub(interfaceProjectToken.valueProjectTokenToFullRecharge(_user)) */\n      swap1\n      pop\n        /* \"LiquidityToken.sol\":8185:8345  if (address(interfaceProjectToken) != address(0x0)) ... */\n    tag_429:\n        /* \"LiquidityToken.sol\":8371:8495  _totalTokenOwned... */\n      tag_435\n        /* \"LiquidityToken.sol\":8490:8494  1e18 */\n      0x0de0b6b3a7640000\n        /* \"LiquidityToken.sol\":8371:8478  _totalTokenOwned... */\n      tag_436\n        /* \"LiquidityToken.sol\":8406:8470  _currentRewardPerShare1e18.sub(claimedRewardPerShare1e18[_user]) */\n      tag_437\n        /* \"LiquidityToken.sol\":8437:8462  claimedRewardPerShare1e18 */\n      0x10\n        /* \"LiquidityToken.sol\":8437:8469  claimedRewardPerShare1e18[_user] */\n      0x00\n        /* \"LiquidityToken.sol\":8463:8468  _user */\n      dup10\n        /* \"LiquidityToken.sol\":8437:8469  claimedRewardPerShare1e18[_user] */\n      0xffffffffffffffffffffffffffffffffffffffff\n      and\n      0xffffffffffffffffffffffffffffffffffffffff\n      and\n      dup2\n      mstore\n      0x20\n      add\n      swap1\n      dup2\n      mstore\n      0x20\n      add\n      0x00\n      keccak256\n      sload\n        /* \"LiquidityToken.sol\":8406:8432  _currentRewardPerShare1e18 */\n      dup8\n        /* \"LiquidityToken.sol\":8406:8436  _currentRewardPerShare1e18.sub */\n      tag_262\n      swap1\n        /* \"LiquidityToken.sol\":8406:8470  _currentRewardPerShare1e18.sub(claimedRewardPerShare1e18[_user]) */\n      swap2\n      swap1\n      0xffffffff\n      and\n      jump\t// in\n    tag_437:\n        /* \"LiquidityToken.sol\":8371:8387  _totalTokenOwned */\n      dup5\n        /* \"LiquidityToken.sol\":8371:8398  _totalTokenOwned... */\n      tag_267\n      swap1\n        /* \"LiquidityToken.sol\":8371:8478  _totalTokenOwned... */\n      swap2\n      swap1\n      0xffffffff\n      and\n      jump\t// in\n    tag_436:\n        /* \"LiquidityToken.sol\":8371:8489  _totalTokenOwned... */\n      tag_268\n      swap1\n        /* \"LiquidityToken.sol\":8371:8495  _totalTokenOwned... */\n      swap2\n      swap1\n      0xffffffff\n      and\n      jump\t// in\n    tag_435:\n        /* \"LiquidityToken.sol\":8356:8495  _hodlRewards = _totalTokenOwned... */\n      swap2\n      pop\n        /* \"LiquidityToken.sol\":7945:8500  function getHodlRewards(address _user, uint _currentRewardPerShare1e18) public view returns(uint _hodlRewards) {... */\n      pop\n      swap3\n      swap2\n      pop\n      pop\n      jump\t// out\n        /* \"https://github.com/OpenZeppelin/openzeppelin-contracts/blob/v3.4.2-solc-0.7/contracts/utils/Context.sol\":598:702   */\n    tag_235:\n        /* \"https://github.com/OpenZeppelin/openzeppelin-contracts/blob/v3.4.2-solc-0.7/contracts/utils/Context.sol\":651:666   */\n      0x00\n        /* \"https://github.com/OpenZeppelin/openzeppelin-contracts/blob/v3.4.2-solc-0.7/contracts/utils/Context.sol\":685:695   */\n      caller\n        /* \"https://github.com/OpenZeppelin/openzeppelin-contracts/blob/v3.4.2-solc-0.7/contracts/utils/Context.sol\":678:695   */\n      swap1\n      pop\n        /* \"https://github.com/OpenZeppelin/openzeppelin-contracts/blob/v3.4.2-solc-0.7/contracts/utils/Context.sol\":598:702   */\n      swap1\n      jump\t// out\n        /* \"https://github.com/OpenZeppelin/openzeppelin-contracts/blob/v3.4.2-solc-0.7/contracts/token/ERC20/ERC20.sol\":9340:9680   */\n    tag_236:\n        /* \"https://github.com/OpenZeppelin/openzeppelin-contracts/blob/v3.4.2-solc-0.7/contracts/token/ERC20/ERC20.sol\":9458:9459   */\n      0x00\n        /* \"https://github.com/OpenZeppelin/openzeppelin-contracts/blob/v3.4.2-solc-0.7/contracts/token/ERC20/ERC20.sol\":9441:9460   */\n      0xffffffffffffffffffffffffffffffffffffffff\n      and\n        /* \"https://github.com/OpenZeppelin/openzeppelin-contracts/blob/v3.4.2-solc-0.7/contracts/token/ERC20/ERC20.sol\":9441:9446   */\n      dup4\n        /* \"https://github.com/OpenZeppelin/openzeppelin-contracts/blob/v3.4.2-solc-0.7/contracts/token/ERC20/ERC20.sol\":9441:9460   */\n      0xffffffffffffffffffffffffffffffffffffffff\n      and\n      eq\n      iszero\n        /* \"https://github.com/OpenZeppelin/openzeppelin-contracts/blob/v3.4.2-solc-0.7/contracts/token/ERC20/ERC20.sol\":9433:9501   */\n      tag_440\n      jumpi\n      mload(0x40)\n      0x08c379a000000000000000000000000000000000000000000000000000000000\n      dup2\n      mstore\n      0x04\n      add\n      dup1\n      dup1\n      0x20\n      add\n      dup3\n      dup2\n      sub\n      dup3\n      mstore\n      0x24\n      dup2\n      mstore\n      0x20\n      add\n      dup1\n      data_c953f4879035ed60e766b34720f656aab5c697b141d924c283124ecedb91c208\n      0x24\n      swap2\n      codecopy\n      0x40\n      add\n      swap2\n      pop\n      pop\n      mload(0x40)\n      dup1\n      swap2\n      sub\n      swap1\n      revert\n    tag_440:\n        /* \"https://github.com/OpenZeppelin/openzeppelin-contracts/blob/v3.4.2-solc-0.7/contracts/token/ERC20/ERC20.sol\":9538:9539   */\n      0x00\n        /* \"https://github.com/OpenZeppelin/openzeppelin-contracts/blob/v3.4.2-solc-0.7/contracts/token/ERC20/ERC20.sol\":9519:9540   */\n      0xffffffffffffffffffffffffffffffffffffffff\n      and\n        /* \"https://github.com/OpenZeppelin/openzeppelin-contracts/blob/v3.4.2-solc-0.7/contracts/token/ERC20/ERC20.sol\":9519:9526   */\n      dup3\n        /* \"https://github.com/OpenZeppelin/openzeppelin-contracts/blob/v3.4.2-solc-0.7/contracts/token/ERC20/ERC20.sol\":9519:9540   */\n      0xffffffffffffffffffffffffffffffffffffffff\n      and\n      eq\n      iszero\n        /* \"https://github.com/OpenZeppelin/openzeppelin-contracts/blob/v3.4.2-solc-0.7/contracts/token/ERC20/ERC20.sol\":9511:9579   */\n      tag_441\n      jumpi\n      mload(0x40)\n      0x08c379a000000000000000000000000000000000000000000000000000000000\n      dup2\n      mstore\n      0x04\n      add\n      dup1\n      dup1\n      0x20\n      add\n      dup3\n      dup2\n      sub\n      dup3\n      mstore\n      0x22\n      dup2\n      mstore\n      0x20\n      add\n      dup1\n      data_24883cc5fe64ace9d0df1893501ecb93c77180f0ff69cca79affb3c316dc8029\n      0x22\n      swap2\n      codecopy\n      0x40\n      add\n      swap2\n      pop\n      pop\n      mload(0x40)\n      dup1\n      swap2\n      sub\n      swap1\n      revert\n    tag_441:\n        /* \"https://github.com/OpenZeppelin/openzeppelin-contracts/blob/v3.4.2-solc-0.7/contracts/token/ERC20/ERC20.sol\":9620:9626   */\n      dup1\n        /* \"https://github.com/OpenZeppelin/openzeppelin-contracts/blob/v3.4.2-solc-0.7/contracts/token/ERC20/ERC20.sol\":9590:9601   */\n      0x01\n        /* \"https://github.com/OpenZeppelin/openzeppelin-contracts/blob/v3.4.2-solc-0.7/contracts/token/ERC20/ERC20.sol\":9590:9608   */\n      0x00\n        /* \"https://github.com/OpenZeppelin/openzeppelin-contracts/blob/v3.4.2-solc-0.7/contracts/token/ERC20/ERC20.sol\":9602:9607   */\n      dup6\n        /* \"https://github.com/OpenZeppelin/openzeppelin-contracts/blob/v3.4.2-solc-0.7/contracts/token/ERC20/ERC20.sol\":9590:9608   */\n      0xffffffffffffffffffffffffffffffffffffffff\n      and\n      0xffffffffffffffffffffffffffffffffffffffff\n      and\n      dup2\n      mstore\n      0x20\n      add\n      swap1\n      dup2\n      mstore\n      0x20\n      add\n      0x00\n      keccak256\n        /* \"https://github.com/OpenZeppelin/openzeppelin-contracts/blob/v3.4.2-solc-0.7/contracts/token/ERC20/ERC20.sol\":9590:9617   */\n      0x00\n        /* \"https://github.com/OpenZeppelin/openzeppelin-contracts/blob/v3.4.2-solc-0.7/contracts/token/ERC20/ERC20.sol\":9609:9616   */\n      dup5\n        /* \"https://github.com/OpenZeppelin/openzeppelin-contracts/blob/v3.4.2-solc-0.7/contracts/token/ERC20/ERC20.sol\":9590:9617   */\n      0xffffffffffffffffffffffffffffffffffffffff\n      and\n      0xffffffffffffffffffffffffffffffffffffffff\n      and\n      dup2\n      mstore\n      0x20\n      add\n      swap1\n      dup2\n      mstore\n      0x20\n      add\n      0x00\n      keccak256\n        /* \"https://github.com/OpenZeppelin/openzeppelin-contracts/blob/v3.4.2-solc-0.7/contracts/token/ERC20/ERC20.sol\":9590:9626   */\n      dup2\n      swap1\n      sstore\n      pop\n        /* \"https://github.com/OpenZeppelin/openzeppelin-contracts/blob/v3.4.2-solc-0.7/contracts/token/ERC20/ERC20.sol\":9657:9664   */\n      dup2\n        /* \"https://github.com/OpenZeppelin/openzeppelin-contracts/blob/v3.4.2-solc-0.7/contracts/token/ERC20/ERC20.sol\":9641:9673   */\n      0xffffffffffffffffffffffffffffffffffffffff\n      and\n        /* \"https://github.com/OpenZeppelin/openzeppelin-contracts/blob/v3.4.2-solc-0.7/contracts/token/ERC20/ERC20.sol\":9650:9655   */\n      dup4\n        /* \"https://github.com/OpenZeppelin/openzeppelin-contracts/blob/v3.4.2-solc-0.7/contracts/token/ERC20/ERC20.sol\":9641:9673   */\n      0xffffffffffffffffffffffffffffffffffffffff\n      and\n      0x8c5be1e5ebec7d5bd14f71427d1e84f3dd0314c0f7b2291e5b200ac8c7c3b925\n        /* \"https://github.com/OpenZeppelin/openzeppelin-contracts/blob/v3.4.2-solc-0.7/contracts/token/ERC20/ERC20.sol\":9666:9672   */\n      dup4\n        /* \"https://github.com/OpenZeppelin/openzeppelin-contracts/blob/v3.4.2-solc-0.7/contracts/token/ERC20/ERC20.sol\":9641:9673   */\n      mload(0x40)\n      dup1\n      dup3\n      dup2\n      mstore\n      0x20\n      add\n      swap2\n      pop\n      pop\n      mload(0x40)\n      dup1\n      swap2\n      sub\n      swap1\n      log3\n        /* \"https://github.com/OpenZeppelin/openzeppelin-contracts/blob/v3.4.2-solc-0.7/contracts/token/ERC20/ERC20.sol\":9340:9680   */\n      pop\n      pop\n      pop\n      jump\t// out\n        /* \"https://github.com/OpenZeppelin/openzeppelin-contracts/blob/v3.4.2-solc-0.7/contracts/token/ERC20/ERC20.sol\":7016:7546   */\n    tag_242:\n        /* \"https://github.com/OpenZeppelin/openzeppelin-contracts/blob/v3.4.2-solc-0.7/contracts/token/ERC20/ERC20.sol\":7139:7140   */\n      0x00\n        /* \"https://github.com/OpenZeppelin/openzeppelin-contracts/blob/v3.4.2-solc-0.7/contracts/token/ERC20/ERC20.sol\":7121:7141   */\n      0xffffffffffffffffffffffffffffffffffffffff\n      and\n        /* \"https://github.com/OpenZeppelin/openzeppelin-contracts/blob/v3.4.2-solc-0.7/contracts/token/ERC20/ERC20.sol\":7121:7127   */\n      dup4\n        /* \"https://github.com/OpenZeppelin/openzeppelin-contracts/blob/v3.4.2-solc-0.7/contracts/token/ERC20/ERC20.sol\":7121:7141   */\n      0xffffffffffffffffffffffffffffffffffffffff\n      and\n      eq\n      iszero\n        /* \"https://github.com/OpenZeppelin/openzeppelin-contracts/blob/v3.4.2-solc-0.7/contracts/token/ERC20/ERC20.sol\":7113:7183   */\n      tag_443\n      jumpi\n      mload(0x40)\n      0x08c379a000000000000000000000000000000000000000000000000000000000\n      dup2\n      mstore\n      0x04\n      add\n      dup1\n      dup1\n      0x20\n      add\n      dup3\n      dup2\n      sub\n      dup3\n      mstore\n      0x25\n      dup2\n      mstore\n      0x20\n      add\n      dup1\n      data_baecc556b46f4ed0f2b4cb599d60785ac8563dd2dc0a5bf12edea1c39e5e1fea\n      0x25\n      swap2\n      codecopy\n      0x40\n      add\n      swap2\n      pop\n      pop\n      mload(0x40)\n      dup1\n      swap2\n      sub\n      swap1\n      revert\n    tag_443:\n        /* \"https://github.com/OpenZeppelin/openzeppelin-contracts/blob/v3.4.2-solc-0.7/contracts/token/ERC20/ERC20.sol\":7222:7223   */\n      0x00\n        /* \"https://github.com/OpenZeppelin/openzeppelin-contracts/blob/v3.4.2-solc-0.7/contracts/token/ERC20/ERC20.sol\":7201:7224   */\n      0xffffffffffffffffffffffffffffffffffffffff\n      and\n        /* \"https://github.com/OpenZeppelin/openzeppelin-contracts/blob/v3.4.2-solc-0.7/contracts/token/ERC20/ERC20.sol\":7201:7210   */\n      dup3\n        /* \"https://github.com/OpenZeppelin/openzeppelin-contracts/blob/v3.4.2-solc-0.7/contracts/token/ERC20/ERC20.sol\":7201:7224   */\n      0xffffffffffffffffffffffffffffffffffffffff\n      and\n      eq\n      iszero\n        /* \"https://github.com/OpenZeppelin/openzeppelin-contracts/blob/v3.4.2-solc-0.7/contracts/token/ERC20/ERC20.sol\":7193:7264   */\n      tag_444\n      jumpi\n      mload(0x40)\n      0x08c379a000000000000000000000000000000000000000000000000000000000\n      dup2\n      mstore\n      0x04\n      add\n      dup1\n      dup1\n      0x20\n      add\n      dup3\n      dup2\n      sub\n      dup3\n      mstore\n      0x23\n      dup2\n      mstore\n      0x20\n      add\n      dup1\n      data_0557e210f7a69a685100a7e4e3d0a7024c546085cee28910fd17d0b081d9516f\n      0x23\n      swap2\n      codecopy\n      0x40\n      add\n      swap2\n      pop\n      pop\n      mload(0x40)\n      dup1\n      swap2\n      sub\n      swap1\n      revert\n    tag_444:\n        /* \"https://github.com/OpenZeppelin/openzeppelin-contracts/blob/v3.4.2-solc-0.7/contracts/token/ERC20/ERC20.sol\":7275:7322   */\n      tag_445\n        /* \"https://github.com/OpenZeppelin/openzeppelin-contracts/blob/v3.4.2-solc-0.7/contracts/token/ERC20/ERC20.sol\":7296:7302   */\n      dup4\n        /* \"https://github.com/OpenZeppelin/openzeppelin-contracts/blob/v3.4.2-solc-0.7/contracts/token/ERC20/ERC20.sol\":7304:7313   */\n      dup4\n        /* \"https://github.com/OpenZeppelin/openzeppelin-contracts/blob/v3.4.2-solc-0.7/contracts/token/ERC20/ERC20.sol\":7315:7321   */\n      dup4\n        /* \"https://github.com/OpenZeppelin/openzeppelin-contracts/blob/v3.4.2-solc-0.7/contracts/token/ERC20/ERC20.sol\":7275:7295   */\n      tag_446\n        /* \"https://github.com/OpenZeppelin/openzeppelin-contracts/blob/v3.4.2-solc-0.7/contracts/token/ERC20/ERC20.sol\":7275:7322   */\n      jump\t// in\n    tag_445:\n        /* \"https://github.com/OpenZeppelin/openzeppelin-contracts/blob/v3.4.2-solc-0.7/contracts/token/ERC20/ERC20.sol\":7353:7424   */\n      tag_447\n        /* \"https://github.com/OpenZeppelin/openzeppelin-contracts/blob/v3.4.2-solc-0.7/contracts/token/ERC20/ERC20.sol\":7375:7381   */\n      dup2\n        /* \"https://github.com/OpenZeppelin/openzeppelin-contracts/blob/v3.4.2-solc-0.7/contracts/token/ERC20/ERC20.sol\":7353:7424   */\n      mload(0x40)\n      dup1\n      0x60\n      add\n      0x40\n      mstore\n      dup1\n      0x26\n      dup2\n      mstore\n      0x20\n      add\n      data_4107e8a8b9e94bf8ff83080ddec1c0bffe897ebc2241b89d44f66b3d274088b6\n      0x26\n      swap2\n      codecopy\n        /* \"https://github.com/OpenZeppelin/openzeppelin-contracts/blob/v3.4.2-solc-0.7/contracts/token/ERC20/ERC20.sol\":7353:7362   */\n      0x00\n        /* \"https://github.com/OpenZeppelin/openzeppelin-contracts/blob/v3.4.2-solc-0.7/contracts/token/ERC20/ERC20.sol\":7353:7370   */\n      dup1\n        /* \"https://github.com/OpenZeppelin/openzeppelin-contracts/blob/v3.4.2-solc-0.7/contracts/token/ERC20/ERC20.sol\":7363:7369   */\n      dup8\n        /* \"https://github.com/OpenZeppelin/openzeppelin-contracts/blob/v3.4.2-solc-0.7/contracts/token/ERC20/ERC20.sol\":7353:7370   */\n      0xffffffffffffffffffffffffffffffffffffffff\n      and\n      0xffffffffffffffffffffffffffffffffffffffff\n      and\n      dup2\n      mstore\n      0x20\n      add\n      swap1\n      dup2\n      mstore\n      0x20\n      add\n      0x00\n      keccak256\n      sload\n        /* \"https://github.com/OpenZeppelin/openzeppelin-contracts/blob/v3.4.2-solc-0.7/contracts/token/ERC20/ERC20.sol\":7353:7374   */\n      tag_247\n      swap1\n        /* \"https://github.com/OpenZeppelin/openzeppelin-contracts/blob/v3.4.2-solc-0.7/contracts/token/ERC20/ERC20.sol\":7353:7424   */\n      swap3\n      swap2\n      swap1\n      0xffffffff\n      and\n      jump\t// in\n    tag_447:\n        /* \"https://github.com/OpenZeppelin/openzeppelin-contracts/blob/v3.4.2-solc-0.7/contracts/token/ERC20/ERC20.sol\":7333:7342   */\n      0x00\n        /* \"https://github.com/OpenZeppelin/openzeppelin-contracts/blob/v3.4.2-solc-0.7/contracts/token/ERC20/ERC20.sol\":7333:7350   */\n      dup1\n        /* \"https://github.com/OpenZeppelin/openzeppelin-contracts/blob/v3.4.2-solc-0.7/contracts/token/ERC20/ERC20.sol\":7343:7349   */\n      dup6\n        /* \"https://github.com/OpenZeppelin/openzeppelin-contracts/blob/v3.4.2-solc-0.7/contracts/token/ERC20/ERC20.sol\":7333:7350   */\n      0xffffffffffffffffffffffffffffffffffffffff\n      and\n      0xffffffffffffffffffffffffffffffffffffffff\n      and\n      dup2\n      mstore\n      0x20\n      add\n      swap1\n      dup2\n      mstore\n      0x20\n      add\n      0x00\n      keccak256\n        /* \"https://github.com/OpenZeppelin/openzeppelin-contracts/blob/v3.4.2-solc-0.7/contracts/token/ERC20/ERC20.sol\":7333:7424   */\n      dup2\n      swap1\n      sstore\n      pop\n        /* \"https://github.com/OpenZeppelin/openzeppelin-contracts/blob/v3.4.2-solc-0.7/contracts/token/ERC20/ERC20.sol\":7457:7489   */\n      tag_448\n        /* \"https://github.com/OpenZeppelin/openzeppelin-contracts/blob/v3.4.2-solc-0.7/contracts/token/ERC20/ERC20.sol\":7482:7488   */\n      dup2\n        /* \"https://github.com/OpenZeppelin/openzeppelin-contracts/blob/v3.4.2-solc-0.7/contracts/token/ERC20/ERC20.sol\":7457:7466   */\n      0x00\n        /* \"https://github.com/OpenZeppelin/openzeppelin-contracts/blob/v3.4.2-solc-0.7/contracts/token/ERC20/ERC20.sol\":7457:7477   */\n      dup1\n        /* \"https://github.com/OpenZeppelin/openzeppelin-contracts/blob/v3.4.2-solc-0.7/contracts/token/ERC20/ERC20.sol\":7467:7476   */\n      dup6\n        /* \"https://github.com/OpenZeppelin/openzeppelin-contracts/blob/v3.4.2-solc-0.7/contracts/token/ERC20/ERC20.sol\":7457:7477   */\n      0xffffffffffffffffffffffffffffffffffffffff\n      and\n      0xffffffffffffffffffffffffffffffffffffffff\n      and\n      dup2\n      mstore\n      0x20\n      add\n      swap1\n      dup2\n      mstore\n      0x20\n      add\n      0x00\n      keccak256\n      sload\n        /* \"https://github.com/OpenZeppelin/openzeppelin-contracts/blob/v3.4.2-solc-0.7/contracts/token/ERC20/ERC20.sol\":7457:7481   */\n      tag_255\n      swap1\n        /* \"https://github.com/OpenZeppelin/openzeppelin-contracts/blob/v3.4.2-solc-0.7/contracts/token/ERC20/ERC20.sol\":7457:7489   */\n      swap2\n      swap1\n      0xffffffff\n      and\n      jump\t// in\n    tag_448:\n        /* \"https://github.com/OpenZeppelin/openzeppelin-contracts/blob/v3.4.2-solc-0.7/contracts/token/ERC20/ERC20.sol\":7434:7443   */\n      0x00\n        /* \"https://github.com/OpenZeppelin/openzeppelin-contracts/blob/v3.4.2-solc-0.7/contracts/token/ERC20/ERC20.sol\":7434:7454   */\n      dup1\n        /* \"https://github.com/OpenZeppelin/openzeppelin-contracts/blob/v3.4.2-solc-0.7/contracts/token/ERC20/ERC20.sol\":7444:7453   */\n      dup5\n        /* \"https://github.com/OpenZeppelin/openzeppelin-contracts/blob/v3.4.2-solc-0.7/contracts/token/ERC20/ERC20.sol\":7434:7454   */\n      0xffffffffffffffffffffffffffffffffffffffff\n      and\n      0xffffffffffffffffffffffffffffffffffffffff\n      and\n      dup2\n      mstore\n      0x20\n      add\n      swap1\n      dup2\n      mstore\n      0x20\n      add\n      0x00\n      keccak256\n        /* \"https://github.com/OpenZeppelin/openzeppelin-contracts/blob/v3.4.2-solc-0.7/contracts/token/ERC20/ERC20.sol\":7434:7489   */\n      dup2\n      swap1\n      sstore\n      pop\n        /* \"https://github.com/OpenZeppelin/openzeppelin-contracts/blob/v3.4.2-solc-0.7/contracts/token/ERC20/ERC20.sol\":7521:7530   */\n      dup2\n        /* \"https://github.com/OpenZeppelin/openzeppelin-contracts/blob/v3.4.2-solc-0.7/contracts/token/ERC20/ERC20.sol\":7504:7539   */\n      0xffffffffffffffffffffffffffffffffffffffff\n      and\n        /* \"https://github.com/OpenZeppelin/openzeppelin-contracts/blob/v3.4.2-solc-0.7/contracts/token/ERC20/ERC20.sol\":7513:7519   */\n      dup4\n        /* \"https://github.com/OpenZeppelin/openzeppelin-contracts/blob/v3.4.2-solc-0.7/contracts/token/ERC20/ERC20.sol\":7504:7539   */\n      0xffffffffffffffffffffffffffffffffffffffff\n      and\n      0xddf252ad1be2c89b69c2b068fc378daa952ba7f163c4a11628f55a4df523b3ef\n        /* \"https://github.com/OpenZeppelin/openzeppelin-contracts/blob/v3.4.2-solc-0.7/contracts/token/ERC20/ERC20.sol\":7532:7538   */\n      dup4\n        /* \"https://github.com/OpenZeppelin/openzeppelin-contracts/blob/v3.4.2-solc-0.7/contracts/token/ERC20/ERC20.sol\":7504:7539   */\n      mload(0x40)\n      dup1\n      dup3\n      dup2\n      mstore\n      0x20\n      add\n      swap2\n      pop\n      pop\n      mload(0x40)\n      dup1\n      swap2\n      sub\n      swap1\n      log3\n        /* \"https://github.com/OpenZeppelin/openzeppelin-contracts/blob/v3.4.2-solc-0.7/contracts/token/ERC20/ERC20.sol\":7016:7546   */\n      pop\n      pop\n      pop\n      jump\t// out\n        /* \"https://github.com/OpenZeppelin/openzeppelin-contracts/blob/v3.4.2-solc-0.7/contracts/math/SafeMath.sol\":5424:5587   */\n    tag_247:\n        /* \"https://github.com/OpenZeppelin/openzeppelin-contracts/blob/v3.4.2-solc-0.7/contracts/math/SafeMath.sol\":5510:5517   */\n      0x00\n        /* \"https://github.com/OpenZeppelin/openzeppelin-contracts/blob/v3.4.2-solc-0.7/contracts/math/SafeMath.sol\":5542:5543   */\n      dup4\n        /* \"https://github.com/OpenZeppelin/openzeppelin-contracts/blob/v3.4.2-solc-0.7/contracts/math/SafeMath.sol\":5537:5538   */\n      dup4\n        /* \"https://github.com/OpenZeppelin/openzeppelin-contracts/blob/v3.4.2-solc-0.7/contracts/math/SafeMath.sol\":5537:5543   */\n      gt\n      iszero\n        /* \"https://github.com/OpenZeppelin/openzeppelin-contracts/blob/v3.4.2-solc-0.7/contracts/math/SafeMath.sol\":5545:5557   */\n      dup3\n        /* \"https://github.com/OpenZeppelin/openzeppelin-contracts/blob/v3.4.2-solc-0.7/contracts/math/SafeMath.sol\":5529:5558   */\n      swap1\n      tag_450\n      jumpi\n      mload(0x40)\n      0x08c379a000000000000000000000000000000000000000000000000000000000\n      dup2\n      mstore\n      0x04\n      add\n      dup1\n      dup1\n      0x20\n      add\n      dup3\n      dup2\n      sub\n      dup3\n      mstore\n      dup4\n      dup2\n      dup2\n      mload\n      dup2\n      mstore\n      0x20\n      add\n      swap2\n      pop\n      dup1\n      mload\n      swap1\n      0x20\n      add\n      swap1\n      dup1\n      dup4\n      dup4\n      0x00\n    tag_451:\n      dup4\n      dup2\n      lt\n      iszero\n      tag_453\n      jumpi\n      dup1\n      dup3\n      add\n      mload\n      dup2\n      dup5\n      add\n      mstore\n      0x20\n      dup2\n      add\n      swap1\n      pop\n      jump(tag_451)\n    tag_453:\n      pop\n      pop\n      pop\n      pop\n      swap1\n      pop\n      swap1\n      dup2\n      add\n      swap1\n      0x1f\n      and\n      dup1\n      iszero\n      tag_454\n      jumpi\n      dup1\n      dup3\n      sub\n      dup1\n      mload\n      0x01\n      dup4\n      0x20\n      sub\n      0x0100\n      exp\n      sub\n      not\n      and\n      dup2\n      mstore\n      0x20\n      add\n      swap2\n      pop\n    tag_454:\n      pop\n      swap3\n      pop\n      pop\n      pop\n      mload(0x40)\n      dup1\n      swap2\n      sub\n      swap1\n      revert\n    tag_450:\n      pop\n        /* \"https://github.com/OpenZeppelin/openzeppelin-contracts/blob/v3.4.2-solc-0.7/contracts/math/SafeMath.sol\":5579:5580   */\n      dup3\n        /* \"https://github.com/OpenZeppelin/openzeppelin-contracts/blob/v3.4.2-solc-0.7/contracts/math/SafeMath.sol\":5575:5576   */\n      dup5\n        /* \"https://github.com/OpenZeppelin/openzeppelin-contracts/blob/v3.4.2-solc-0.7/contracts/math/SafeMath.sol\":5575:5580   */\n      sub\n        /* \"https://github.com/OpenZeppelin/openzeppelin-contracts/blob/v3.4.2-solc-0.7/contracts/math/SafeMath.sol\":5568:5580   */\n      swap1\n      pop\n        /* \"https://github.com/OpenZeppelin/openzeppelin-contracts/blob/v3.4.2-solc-0.7/contracts/math/SafeMath.sol\":5424:5587   */\n      swap4\n      swap3\n      pop\n      pop\n      pop\n      jump\t// out\n        /* \"https://github.com/OpenZeppelin/openzeppelin-contracts/blob/v3.4.2-solc-0.7/contracts/math/SafeMath.sol\":2682:2857   */\n    tag_255:\n        /* \"https://github.com/OpenZeppelin/openzeppelin-contracts/blob/v3.4.2-solc-0.7/contracts/math/SafeMath.sol\":2740:2747   */\n      0x00\n        /* \"https://github.com/OpenZeppelin/openzeppelin-contracts/blob/v3.4.2-solc-0.7/contracts/math/SafeMath.sol\":2759:2768   */\n      dup1\n        /* \"https://github.com/OpenZeppelin/openzeppelin-contracts/blob/v3.4.2-solc-0.7/contracts/math/SafeMath.sol\":2775:2776   */\n      dup3\n        /* \"https://github.com/OpenZeppelin/openzeppelin-contracts/blob/v3.4.2-solc-0.7/contracts/math/SafeMath.sol\":2771:2772   */\n      dup5\n        /* \"https://github.com/OpenZeppelin/openzeppelin-contracts/blob/v3.4.2-solc-0.7/contracts/math/SafeMath.sol\":2771:2776   */\n      add\n        /* \"https://github.com/OpenZeppelin/openzeppelin-contracts/blob/v3.4.2-solc-0.7/contracts/math/SafeMath.sol\":2759:2776   */\n      swap1\n      pop\n        /* \"https://github.com/OpenZeppelin/openzeppelin-contracts/blob/v3.4.2-solc-0.7/contracts/math/SafeMath.sol\":2799:2800   */\n      dup4\n        /* \"https://github.com/OpenZeppelin/openzeppelin-contracts/blob/v3.4.2-solc-0.7/contracts/math/SafeMath.sol\":2794:2795   */\n      dup2\n        /* \"https://github.com/OpenZeppelin/openzeppelin-contracts/blob/v3.4.2-solc-0.7/contracts/math/SafeMath.sol\":2794:2800   */\n      lt\n      iszero\n        /* \"https://github.com/OpenZeppelin/openzeppelin-contracts/blob/v3.4.2-solc-0.7/contracts/math/SafeMath.sol\":2786:2832   */\n      tag_456\n      jumpi\n      mload(0x40)\n      0x08c379a000000000000000000000000000000000000000000000000000000000\n      dup2\n      mstore\n      0x04\n      add\n      dup1\n      dup1\n      0x20\n      add\n      dup3\n      dup2\n      sub\n      dup3\n      mstore\n      0x1b\n      dup2\n      mstore\n      0x20\n      add\n      dup1\n      0x536166654d6174683a206164646974696f6e206f766572666c6f770000000000\n      dup2\n      mstore\n      pop\n      0x20\n      add\n      swap2\n      pop\n      pop\n      mload(0x40)\n      dup1\n      swap2\n      sub\n      swap1\n      revert\n    tag_456:\n        /* \"https://github.com/OpenZeppelin/openzeppelin-contracts/blob/v3.4.2-solc-0.7/contracts/math/SafeMath.sol\":2849:2850   */\n      dup1\n        /* \"https://github.com/OpenZeppelin/openzeppelin-contracts/blob/v3.4.2-solc-0.7/contracts/math/SafeMath.sol\":2842:2850   */\n      swap2\n      pop\n      pop\n        /* \"https://github.com/OpenZeppelin/openzeppelin-contracts/blob/v3.4.2-solc-0.7/contracts/math/SafeMath.sol\":2682:2857   */\n      swap3\n      swap2\n      pop\n      pop\n      jump\t// out\n        /* \"LiquidityToken.sol\":6636:6915  function updateStakingAndGetHodlRewards(address _user) private returns (uint _hodlRewards) {... */\n    tag_260:\n        /* \"LiquidityToken.sol\":6708:6725  uint _hodlRewards */\n      0x00\n        /* \"LiquidityToken.sol\":6733:6773  updateStakingParameters(block.timestamp) */\n      tag_458\n        /* \"LiquidityToken.sol\":6757:6772  block.timestamp */\n      timestamp\n        /* \"LiquidityToken.sol\":6733:6756  updateStakingParameters */\n      tag_343\n        /* \"LiquidityToken.sol\":6733:6773  updateStakingParameters(block.timestamp) */\n      jump\t// in\n    tag_458:\n        /* \"LiquidityToken.sol\":6795:6843  getHodlRewards(_user, currentRewardPerShare1e18) */\n      tag_459\n        /* \"LiquidityToken.sol\":6810:6815  _user */\n      dup3\n        /* \"LiquidityToken.sol\":6817:6842  currentRewardPerShare1e18 */\n      sload(0x0d)\n        /* \"LiquidityToken.sol\":6795:6809  getHodlRewards */\n      tag_227\n        /* \"LiquidityToken.sol\":6795:6843  getHodlRewards(_user, currentRewardPerShare1e18) */\n      jump\t// in\n    tag_459:\n        /* \"LiquidityToken.sol\":6780:6843  _hodlRewards = getHodlRewards(_user, currentRewardPerShare1e18) */\n      swap1\n      pop\n        /* \"LiquidityToken.sol\":6884:6909  currentRewardPerShare1e18 */\n      sload(0x0d)\n        /* \"LiquidityToken.sol\":6849:6874  claimedRewardPerShare1e18 */\n      0x10\n        /* \"LiquidityToken.sol\":6849:6881  claimedRewardPerShare1e18[_user] */\n      0x00\n        /* \"LiquidityToken.sol\":6875:6880  _user */\n      dup5\n        /* \"LiquidityToken.sol\":6849:6881  claimedRewardPerShare1e18[_user] */\n      0xffffffffffffffffffffffffffffffffffffffff\n      and\n      0xffffffffffffffffffffffffffffffffffffffff\n      and\n      dup2\n      mstore\n      0x20\n      add\n      swap1\n      dup2\n      mstore\n      0x20\n      add\n      0x00\n      keccak256\n        /* \"LiquidityToken.sol\":6849:6909  claimedRewardPerShare1e18[_user] = currentRewardPerShare1e18 */\n      dup2\n      swap1\n      sstore\n      pop\n        /* \"LiquidityToken.sol\":6636:6915  function updateStakingAndGetHodlRewards(address _user) private returns (uint _hodlRewards) {... */\n      swap2\n      swap1\n      pop\n      jump\t// out\n        /* \"https://github.com/OpenZeppelin/openzeppelin-contracts/blob/v3.4.2-solc-0.7/contracts/math/SafeMath.sol\":3128:3283   */\n    tag_262:\n        /* \"https://github.com/OpenZeppelin/openzeppelin-contracts/blob/v3.4.2-solc-0.7/contracts/math/SafeMath.sol\":3186:3193   */\n      0x00\n        /* \"https://github.com/OpenZeppelin/openzeppelin-contracts/blob/v3.4.2-solc-0.7/contracts/math/SafeMath.sol\":3218:3219   */\n      dup3\n        /* \"https://github.com/OpenZeppelin/openzeppelin-contracts/blob/v3.4.2-solc-0.7/contracts/math/SafeMath.sol\":3213:3214   */\n      dup3\n        /* \"https://github.com/OpenZeppelin/openzeppelin-contracts/blob/v3.4.2-solc-0.7/contracts/math/SafeMath.sol\":3213:3219   */\n      gt\n      iszero\n        /* \"https://github.com/OpenZeppelin/openzeppelin-contracts/blob/v3.4.2-solc-0.7/contracts/math/SafeMath.sol\":3205:3254   */\n      tag_461\n      jumpi\n      mload(0x40)\n      0x08c379a000000000000000000000000000000000000000000000000000000000\n      dup2\n      mstore\n      0x04\n      add\n      dup1\n      dup1\n      0x20\n      add\n      dup3\n      dup2\n      sub\n      dup3\n      mstore\n      0x1e\n      dup2\n      mstore\n      0x20\n      add\n      dup1\n      0x536166654d6174683a207375627472616374696f6e206f766572666c6f770000\n      dup2\n      mstore\n      pop\n      0x20\n      add\n      swap2\n      pop\n      pop\n      mload(0x40)\n      dup1\n      swap2\n      sub\n      swap1\n      revert\n    tag_461:\n        /* \"https://github.com/OpenZeppelin/openzeppelin-contracts/blob/v3.4.2-solc-0.7/contracts/math/SafeMath.sol\":3275:3276   */\n      dup2\n        /* \"https://github.com/OpenZeppelin/openzeppelin-contracts/blob/v3.4.2-solc-0.7/contracts/math/SafeMath.sol\":3271:3272   */\n      dup4\n        /* \"https://github.com/OpenZeppelin/openzeppelin-contracts/blob/v3.4.2-solc-0.7/contracts/math/SafeMath.sol\":3271:3276   */\n      sub\n        /* \"https://github.com/OpenZeppelin/openzeppelin-contracts/blob/v3.4.2-solc-0.7/contracts/math/SafeMath.sol\":3264:3276   */\n      swap1\n      pop\n        /* \"https://github.com/OpenZeppelin/openzeppelin-contracts/blob/v3.4.2-solc-0.7/contracts/math/SafeMath.sol\":3128:3283   */\n      swap3\n      swap2\n      pop\n      pop\n      jump\t// out\n        /* \"https://github.com/OpenZeppelin/openzeppelin-contracts/blob/v3.4.2-solc-0.7/contracts/math/SafeMath.sol\":3530:3745   */\n    tag_267:\n        /* \"https://github.com/OpenZeppelin/openzeppelin-contracts/blob/v3.4.2-solc-0.7/contracts/math/SafeMath.sol\":3588:3595   */\n      0x00\n        /* \"https://github.com/OpenZeppelin/openzeppelin-contracts/blob/v3.4.2-solc-0.7/contracts/math/SafeMath.sol\":3616:3617   */\n      dup1\n        /* \"https://github.com/OpenZeppelin/openzeppelin-contracts/blob/v3.4.2-solc-0.7/contracts/math/SafeMath.sol\":3611:3612   */\n      dup4\n        /* \"https://github.com/OpenZeppelin/openzeppelin-contracts/blob/v3.4.2-solc-0.7/contracts/math/SafeMath.sol\":3611:3617   */\n      eq\n        /* \"https://github.com/OpenZeppelin/openzeppelin-contracts/blob/v3.4.2-solc-0.7/contracts/math/SafeMath.sol\":3607:3627   */\n      iszero\n      tag_463\n      jumpi\n        /* \"https://github.com/OpenZeppelin/openzeppelin-contracts/blob/v3.4.2-solc-0.7/contracts/math/SafeMath.sol\":3626:3627   */\n      0x00\n        /* \"https://github.com/OpenZeppelin/openzeppelin-contracts/blob/v3.4.2-solc-0.7/contracts/math/SafeMath.sol\":3619:3627   */\n      swap1\n      pop\n      jump(tag_462)\n        /* \"https://github.com/OpenZeppelin/openzeppelin-contracts/blob/v3.4.2-solc-0.7/contracts/math/SafeMath.sol\":3607:3627   */\n    tag_463:\n        /* \"https://github.com/OpenZeppelin/openzeppelin-contracts/blob/v3.4.2-solc-0.7/contracts/math/SafeMath.sol\":3637:3646   */\n      0x00\n        /* \"https://github.com/OpenZeppelin/openzeppelin-contracts/blob/v3.4.2-solc-0.7/contracts/math/SafeMath.sol\":3653:3654   */\n      dup3\n        /* \"https://github.com/OpenZeppelin/openzeppelin-contracts/blob/v3.4.2-solc-0.7/contracts/math/SafeMath.sol\":3649:3650   */\n      dup5\n        /* \"https://github.com/OpenZeppelin/openzeppelin-contracts/blob/v3.4.2-solc-0.7/contracts/math/SafeMath.sol\":3649:3654   */\n      mul\n        /* \"https://github.com/OpenZeppelin/openzeppelin-contracts/blob/v3.4.2-solc-0.7/contracts/math/SafeMath.sol\":3637:3654   */\n      swap1\n      pop\n        /* \"https://github.com/OpenZeppelin/openzeppelin-contracts/blob/v3.4.2-solc-0.7/contracts/math/SafeMath.sol\":3681:3682   */\n      dup3\n        /* \"https://github.com/OpenZeppelin/openzeppelin-contracts/blob/v3.4.2-solc-0.7/contracts/math/SafeMath.sol\":3676:3677   */\n      dup5\n        /* \"https://github.com/OpenZeppelin/openzeppelin-contracts/blob/v3.4.2-solc-0.7/contracts/math/SafeMath.sol\":3672:3673   */\n      dup3\n        /* \"https://github.com/OpenZeppelin/openzeppelin-contracts/blob/v3.4.2-solc-0.7/contracts/math/SafeMath.sol\":3672:3677   */\n      dup2\n      tag_464\n      jumpi\n      invalid\n    tag_464:\n      div\n        /* \"https://github.com/OpenZeppelin/openzeppelin-contracts/blob/v3.4.2-solc-0.7/contracts/math/SafeMath.sol\":3672:3682   */\n      eq\n        /* \"https://github.com/OpenZeppelin/openzeppelin-contracts/blob/v3.4.2-solc-0.7/contracts/math/SafeMath.sol\":3664:3720   */\n      tag_465\n      jumpi\n      mload(0x40)\n      0x08c379a000000000000000000000000000000000000000000000000000000000\n      dup2\n      mstore\n      0x04\n      add\n      dup1\n      dup1\n      0x20\n      add\n      dup3\n      dup2\n      sub\n      dup3\n      mstore\n      0x21\n      dup2\n      mstore\n      0x20\n      add\n      dup1\n      data_9113bb53c2876a3805b2c9242029423fc540a728243ce887ab24c82cf119fba3\n      0x21\n      swap2\n      codecopy\n      0x40\n      add\n      swap2\n      pop\n      pop\n      mload(0x40)\n      dup1\n      swap2\n      sub\n      swap1\n      revert\n    tag_465:\n        /* \"https://github.com/OpenZeppelin/openzeppelin-contracts/blob/v3.4.2-solc-0.7/contracts/math/SafeMath.sol\":3737:3738   */\n      dup1\n        /* \"https://github.com/OpenZeppelin/openzeppelin-contracts/blob/v3.4.2-solc-0.7/contracts/math/SafeMath.sol\":3730:3738   */\n      swap2\n      pop\n      pop\n        /* \"https://github.com/OpenZeppelin/openzeppelin-contracts/blob/v3.4.2-solc-0.7/contracts/math/SafeMath.sol\":3530:3745   */\n    tag_462:\n      swap3\n      swap2\n      pop\n      pop\n      jump\t// out\n        /* \"https://github.com/OpenZeppelin/openzeppelin-contracts/blob/v3.4.2-solc-0.7/contracts/math/SafeMath.sol\":4209:4359   */\n    tag_268:\n        /* \"https://github.com/OpenZeppelin/openzeppelin-contracts/blob/v3.4.2-solc-0.7/contracts/math/SafeMath.sol\":4267:4274   */\n      0x00\n        /* \"https://github.com/OpenZeppelin/openzeppelin-contracts/blob/v3.4.2-solc-0.7/contracts/math/SafeMath.sol\":4298:4299   */\n      dup1\n        /* \"https://github.com/OpenZeppelin/openzeppelin-contracts/blob/v3.4.2-solc-0.7/contracts/math/SafeMath.sol\":4294:4295   */\n      dup3\n        /* \"https://github.com/OpenZeppelin/openzeppelin-contracts/blob/v3.4.2-solc-0.7/contracts/math/SafeMath.sol\":4294:4299   */\n      gt\n        /* \"https://github.com/OpenZeppelin/openzeppelin-contracts/blob/v3.4.2-solc-0.7/contracts/math/SafeMath.sol\":4286:4330   */\n      tag_467\n      jumpi\n      mload(0x40)\n      0x08c379a000000000000000000000000000000000000000000000000000000000\n      dup2\n      mstore\n      0x04\n      add\n      dup1\n      dup1\n      0x20\n      add\n      dup3\n      dup2\n      sub\n      dup3\n      mstore\n      0x1a\n      dup2\n      mstore\n      0x20\n      add\n      dup1\n      0x536166654d6174683a206469766973696f6e206279207a65726f000000000000\n      dup2\n      mstore\n      pop\n      0x20\n      add\n      swap2\n      pop\n      pop\n      mload(0x40)\n      dup1\n      swap2\n      sub\n      swap1\n      revert\n    tag_467:\n        /* \"https://github.com/OpenZeppelin/openzeppelin-contracts/blob/v3.4.2-solc-0.7/contracts/math/SafeMath.sol\":4351:4352   */\n      dup2\n        /* \"https://github.com/OpenZeppelin/openzeppelin-contracts/blob/v3.4.2-solc-0.7/contracts/math/SafeMath.sol\":4347:4348   */\n      dup4\n        /* \"https://github.com/OpenZeppelin/openzeppelin-contracts/blob/v3.4.2-solc-0.7/contracts/math/SafeMath.sol\":4347:4352   */\n      dup2\n      tag_468\n      jumpi\n      invalid\n    tag_468:\n      div\n        /* \"https://github.com/OpenZeppelin/openzeppelin-contracts/blob/v3.4.2-solc-0.7/contracts/math/SafeMath.sol\":4340:4352   */\n      swap1\n      pop\n        /* \"https://github.com/OpenZeppelin/openzeppelin-contracts/blob/v3.4.2-solc-0.7/contracts/math/SafeMath.sol\":4209:4359   */\n      swap3\n      swap2\n      pop\n      pop\n      jump\t// out\n        /* \"LiquidityToken.sol\":8504:8799  function updateRewardsAfterFeesPayment(uint _fees) private {... */\n    tag_282:\n        /* \"LiquidityToken.sol\":8597:8670  currentRewardPerShare1e18.add(... */\n      tag_470\n        /* \"LiquidityToken.sol\":8634:8663  _fees.mul(1e18).div(stakedLT) */\n      tag_471\n        /* \"LiquidityToken.sol\":8654:8662  stakedLT */\n      sload(0x0e)\n        /* \"LiquidityToken.sol\":8634:8649  _fees.mul(1e18) */\n      tag_472\n        /* \"LiquidityToken.sol\":8644:8648  1e18 */\n      0x0de0b6b3a7640000\n        /* \"LiquidityToken.sol\":8634:8639  _fees */\n      dup6\n        /* \"LiquidityToken.sol\":8634:8643  _fees.mul */\n      tag_267\n      swap1\n        /* \"LiquidityToken.sol\":8634:8649  _fees.mul(1e18) */\n      swap2\n      swap1\n      0xffffffff\n      and\n      jump\t// in\n    tag_472:\n        /* \"LiquidityToken.sol\":8634:8653  _fees.mul(1e18).div */\n      tag_268\n      swap1\n        /* \"LiquidityToken.sol\":8634:8663  _fees.mul(1e18).div(stakedLT) */\n      swap2\n      swap1\n      0xffffffff\n      and\n      jump\t// in\n    tag_471:\n        /* \"LiquidityToken.sol\":8597:8622  currentRewardPerShare1e18 */\n      sload(0x0d)\n        /* \"LiquidityToken.sol\":8597:8626  currentRewardPerShare1e18.add */\n      tag_255\n      swap1\n        /* \"LiquidityToken.sol\":8597:8670  currentRewardPerShare1e18.add(... */\n      swap2\n      swap1\n      0xffffffff\n      and\n      jump\t// in\n    tag_470:\n        /* \"LiquidityToken.sol\":8569:8594  currentRewardPerShare1e18 */\n      0x0d\n        /* \"LiquidityToken.sol\":8569:8670  currentRewardPerShare1e18 = currentRewardPerShare1e18.add(... */\n      dup2\n      swap1\n      sstore\n      pop\n        /* \"LiquidityToken.sol\":8504:8799  function updateRewardsAfterFeesPayment(uint _fees) private {... */\n      pop\n      jump\t// out\n        /* \"LiquidityToken.sol\":11066:11255  function ensureOnlyInterfaceProjectToken() private view {... */\n    tag_285:\n        /* \"LiquidityToken.sol\":11165:11186  interfaceProjectToken */\n      0x06\n      0x00\n      swap1\n      sload\n      swap1\n      0x0100\n      exp\n      swap1\n      div\n      0xffffffffffffffffffffffffffffffffffffffff\n      and\n        /* \"LiquidityToken.sol\":11143:11187  msg.sender == address(interfaceProjectToken) */\n      0xffffffffffffffffffffffffffffffffffffffff\n      and\n        /* \"LiquidityToken.sol\":11143:11153  msg.sender */\n      caller\n        /* \"LiquidityToken.sol\":11143:11187  msg.sender == address(interfaceProjectToken) */\n      0xffffffffffffffffffffffffffffffffffffffff\n      and\n      eq\n        /* \"LiquidityToken.sol\":11128:11250  require(... */\n      tag_474\n      jumpi\n      mload(0x40)\n      0x08c379a000000000000000000000000000000000000000000000000000000000\n      dup2\n      mstore\n      0x04\n      add\n      dup1\n      dup1\n      0x20\n      add\n      dup3\n      dup2\n      sub\n      dup3\n      mstore\n      0x2d\n      dup2\n      mstore\n      0x20\n      add\n      dup1\n      data_ab658a5d3838a0f64f2fac3f406bcac6858d06953f2c8db12e2c0c3d681620fb\n      0x2d\n      swap2\n      codecopy\n      0x40\n      add\n      swap2\n      pop\n      pop\n      mload(0x40)\n      dup1\n      swap2\n      sub\n      swap1\n      revert\n    tag_474:\n        /* \"LiquidityToken.sol\":11066:11255  function ensureOnlyInterfaceProjectToken() private view {... */\n      jump\t// out\n        /* \"https://github.com/OpenZeppelin/openzeppelin-contracts/blob/v3.4.2-solc-0.7/contracts/token/ERC20/ERC20.sol\":8507:8917   */\n    tag_288:\n        /* \"https://github.com/OpenZeppelin/openzeppelin-contracts/blob/v3.4.2-solc-0.7/contracts/token/ERC20/ERC20.sol\":8609:8610   */\n      0x00\n        /* \"https://github.com/OpenZeppelin/openzeppelin-contracts/blob/v3.4.2-solc-0.7/contracts/token/ERC20/ERC20.sol\":8590:8611   */\n      0xffffffffffffffffffffffffffffffffffffffff\n      and\n        /* \"https://github.com/OpenZeppelin/openzeppelin-contracts/blob/v3.4.2-solc-0.7/contracts/token/ERC20/ERC20.sol\":8590:8597   */\n      dup3\n        /* \"https://github.com/OpenZeppelin/openzeppelin-contracts/blob/v3.4.2-solc-0.7/contracts/token/ERC20/ERC20.sol\":8590:8611   */\n      0xffffffffffffffffffffffffffffffffffffffff\n      and\n      eq\n      iszero\n        /* \"https://github.com/OpenZeppelin/openzeppelin-contracts/blob/v3.4.2-solc-0.7/contracts/token/ERC20/ERC20.sol\":8582:8649   */\n      tag_476\n      jumpi\n      mload(0x40)\n      0x08c379a000000000000000000000000000000000000000000000000000000000\n      dup2\n      mstore\n      0x04\n      add\n      dup1\n      dup1\n      0x20\n      add\n      dup3\n      dup2\n      sub\n      dup3\n      mstore\n      0x21\n      dup2\n      mstore\n      0x20\n      add\n      dup1\n      data_b16788493b576042bb52c50ed56189e0b250db113c7bfb1c3897d25cf9632d7f\n      0x21\n      swap2\n      codecopy\n      0x40\n      add\n      swap2\n      pop\n      pop\n      mload(0x40)\n      dup1\n      swap2\n      sub\n      swap1\n      revert\n    tag_476:\n        /* \"https://github.com/OpenZeppelin/openzeppelin-contracts/blob/v3.4.2-solc-0.7/contracts/token/ERC20/ERC20.sol\":8660:8709   */\n      tag_477\n        /* \"https://github.com/OpenZeppelin/openzeppelin-contracts/blob/v3.4.2-solc-0.7/contracts/token/ERC20/ERC20.sol\":8681:8688   */\n      dup3\n        /* \"https://github.com/OpenZeppelin/openzeppelin-contracts/blob/v3.4.2-solc-0.7/contracts/token/ERC20/ERC20.sol\":8698:8699   */\n      0x00\n        /* \"https://github.com/OpenZeppelin/openzeppelin-contracts/blob/v3.4.2-solc-0.7/contracts/token/ERC20/ERC20.sol\":8702:8708   */\n      dup4\n        /* \"https://github.com/OpenZeppelin/openzeppelin-contracts/blob/v3.4.2-solc-0.7/contracts/token/ERC20/ERC20.sol\":8660:8680   */\n      tag_446\n        /* \"https://github.com/OpenZeppelin/openzeppelin-contracts/blob/v3.4.2-solc-0.7/contracts/token/ERC20/ERC20.sol\":8660:8709   */\n      jump\t// in\n    tag_477:\n        /* \"https://github.com/OpenZeppelin/openzeppelin-contracts/blob/v3.4.2-solc-0.7/contracts/token/ERC20/ERC20.sol\":8741:8809   */\n      tag_478\n        /* \"https://github.com/OpenZeppelin/openzeppelin-contracts/blob/v3.4.2-solc-0.7/contracts/token/ERC20/ERC20.sol\":8764:8770   */\n      dup2\n        /* \"https://github.com/OpenZeppelin/openzeppelin-contracts/blob/v3.4.2-solc-0.7/contracts/token/ERC20/ERC20.sol\":8741:8809   */\n      mload(0x40)\n      dup1\n      0x60\n      add\n      0x40\n      mstore\n      dup1\n      0x22\n      dup2\n      mstore\n      0x20\n      add\n      data_149b126e7125232b4200af45303d04fba8b74653b1a295a6a561a528c33fefdd\n      0x22\n      swap2\n      codecopy\n        /* \"https://github.com/OpenZeppelin/openzeppelin-contracts/blob/v3.4.2-solc-0.7/contracts/token/ERC20/ERC20.sol\":8741:8750   */\n      0x00\n        /* \"https://github.com/OpenZeppelin/openzeppelin-contracts/blob/v3.4.2-solc-0.7/contracts/token/ERC20/ERC20.sol\":8741:8759   */\n      dup1\n        /* \"https://github.com/OpenZeppelin/openzeppelin-contracts/blob/v3.4.2-solc-0.7/contracts/token/ERC20/ERC20.sol\":8751:8758   */\n      dup7\n        /* \"https://github.com/OpenZeppelin/openzeppelin-contracts/blob/v3.4.2-solc-0.7/contracts/token/ERC20/ERC20.sol\":8741:8759   */\n      0xffffffffffffffffffffffffffffffffffffffff\n      and\n      0xffffffffffffffffffffffffffffffffffffffff\n      and\n      dup2\n      mstore\n      0x20\n      add\n      swap1\n      dup2\n      mstore\n      0x20\n      add\n      0x00\n      keccak256\n      sload\n        /* \"https://github.com/OpenZeppelin/openzeppelin-contracts/blob/v3.4.2-solc-0.7/contracts/token/ERC20/ERC20.sol\":8741:8763   */\n      tag_247\n      swap1\n        /* \"https://github.com/OpenZeppelin/openzeppelin-contracts/blob/v3.4.2-solc-0.7/contracts/token/ERC20/ERC20.sol\":8741:8809   */\n      swap3\n      swap2\n      swap1\n      0xffffffff\n      and\n      jump\t// in\n    tag_478:\n        /* \"https://github.com/OpenZeppelin/openzeppelin-contracts/blob/v3.4.2-solc-0.7/contracts/token/ERC20/ERC20.sol\":8720:8729   */\n      0x00\n        /* \"https://github.com/OpenZeppelin/openzeppelin-contracts/blob/v3.4.2-solc-0.7/contracts/token/ERC20/ERC20.sol\":8720:8738   */\n      dup1\n        /* \"https://github.com/OpenZeppelin/openzeppelin-contracts/blob/v3.4.2-solc-0.7/contracts/token/ERC20/ERC20.sol\":8730:8737   */\n      dup5\n        /* \"https://github.com/OpenZeppelin/openzeppelin-contracts/blob/v3.4.2-solc-0.7/contracts/token/ERC20/ERC20.sol\":8720:8738   */\n      0xffffffffffffffffffffffffffffffffffffffff\n      and\n      0xffffffffffffffffffffffffffffffffffffffff\n      and\n      dup2\n      mstore\n      0x20\n      add\n      swap1\n      dup2\n      mstore\n      0x20\n      add\n      0x00\n      keccak256\n        /* \"https://github.com/OpenZeppelin/openzeppelin-contracts/blob/v3.4.2-solc-0.7/contracts/token/ERC20/ERC20.sol\":8720:8809   */\n      dup2\n      swap1\n      sstore\n      pop\n        /* \"https://github.com/OpenZeppelin/openzeppelin-contracts/blob/v3.4.2-solc-0.7/contracts/token/ERC20/ERC20.sol\":8834:8858   */\n      tag_479\n        /* \"https://github.com/OpenZeppelin/openzeppelin-contracts/blob/v3.4.2-solc-0.7/contracts/token/ERC20/ERC20.sol\":8851:8857   */\n      dup2\n        /* \"https://github.com/OpenZeppelin/openzeppelin-contracts/blob/v3.4.2-solc-0.7/contracts/token/ERC20/ERC20.sol\":8834:8846   */\n      sload(0x02)\n        /* \"https://github.com/OpenZeppelin/openzeppelin-contracts/blob/v3.4.2-solc-0.7/contracts/token/ERC20/ERC20.sol\":8834:8850   */\n      tag_262\n      swap1\n        /* \"https://github.com/OpenZeppelin/openzeppelin-contracts/blob/v3.4.2-solc-0.7/contracts/token/ERC20/ERC20.sol\":8834:8858   */\n      swap2\n      swap1\n      0xffffffff\n      and\n      jump\t// in\n    tag_479:\n        /* \"https://github.com/OpenZeppelin/openzeppelin-contracts/blob/v3.4.2-solc-0.7/contracts/token/ERC20/ERC20.sol\":8819:8831   */\n      0x02\n        /* \"https://github.com/OpenZeppelin/openzeppelin-contracts/blob/v3.4.2-solc-0.7/contracts/token/ERC20/ERC20.sol\":8819:8858   */\n      dup2\n      swap1\n      sstore\n      pop\n        /* \"https://github.com/OpenZeppelin/openzeppelin-contracts/blob/v3.4.2-solc-0.7/contracts/token/ERC20/ERC20.sol\":8899:8900   */\n      0x00\n        /* \"https://github.com/OpenZeppelin/openzeppelin-contracts/blob/v3.4.2-solc-0.7/contracts/token/ERC20/ERC20.sol\":8873:8910   */\n      0xffffffffffffffffffffffffffffffffffffffff\n      and\n        /* \"https://github.com/OpenZeppelin/openzeppelin-contracts/blob/v3.4.2-solc-0.7/contracts/token/ERC20/ERC20.sol\":8882:8889   */\n      dup3\n        /* \"https://github.com/OpenZeppelin/openzeppelin-contracts/blob/v3.4.2-solc-0.7/contracts/token/ERC20/ERC20.sol\":8873:8910   */\n      0xffffffffffffffffffffffffffffffffffffffff\n      and\n      0xddf252ad1be2c89b69c2b068fc378daa952ba7f163c4a11628f55a4df523b3ef\n        /* \"https://github.com/OpenZeppelin/openzeppelin-contracts/blob/v3.4.2-solc-0.7/contracts/token/ERC20/ERC20.sol\":8903:8909   */\n      dup4\n        /* \"https://github.com/OpenZeppelin/openzeppelin-contracts/blob/v3.4.2-solc-0.7/contracts/token/ERC20/ERC20.sol\":8873:8910   */\n      mload(0x40)\n      dup1\n      dup3\n      dup2\n      mstore\n      0x20\n      add\n      swap2\n      pop\n      pop\n      mload(0x40)\n      dup1\n      swap2\n      sub\n      swap1\n      log3\n        /* \"https://github.com/OpenZeppelin/openzeppelin-contracts/blob/v3.4.2-solc-0.7/contracts/token/ERC20/ERC20.sol\":8507:8917   */\n      pop\n      pop\n      jump\t// out\n        /* \"LiquidityToken.sol\":6921:7244  function updateStakingParameters(uint _blockTime) private {... */\n    tag_343:\n        /* \"LiquidityToken.sol\":6985:7016  uint _updatedRewardPerShare1e18 */\n      0x00\n        /* \"LiquidityToken.sol\":7019:7059  getUpdatedRewardPerShare1e18(_blockTime) */\n      tag_481\n        /* \"LiquidityToken.sol\":7048:7058  _blockTime */\n      dup3\n        /* \"LiquidityToken.sol\":7019:7047  getUpdatedRewardPerShare1e18 */\n      tag_156\n        /* \"LiquidityToken.sol\":7019:7059  getUpdatedRewardPerShare1e18(_blockTime) */\n      jump\t// in\n    tag_481:\n        /* \"LiquidityToken.sol\":6985:7059  uint _updatedRewardPerShare1e18 = getUpdatedRewardPerShare1e18(_blockTime) */\n      swap1\n      pop\n        /* \"LiquidityToken.sol\":7098:7123  currentRewardPerShare1e18 */\n      sload(0x0d)\n        /* \"LiquidityToken.sol\":7069:7095  _updatedRewardPerShare1e18 */\n      dup2\n        /* \"LiquidityToken.sol\":7069:7123  _updatedRewardPerShare1e18 > currentRewardPerShare1e18 */\n      gt\n        /* \"LiquidityToken.sol\":7065:7240  if (_updatedRewardPerShare1e18 > currentRewardPerShare1e18) {... */\n      iszero\n      tag_482\n      jumpi\n        /* \"LiquidityToken.sol\":7161:7187  _updatedRewardPerShare1e18 */\n      dup1\n        /* \"LiquidityToken.sol\":7133:7158  currentRewardPerShare1e18 */\n      0x0d\n        /* \"LiquidityToken.sol\":7133:7187  currentRewardPerShare1e18 = _updatedRewardPerShare1e18 */\n      dup2\n      swap1\n      sstore\n      pop\n        /* \"LiquidityToken.sol\":7223:7233  _blockTime */\n      dup2\n        /* \"LiquidityToken.sol\":7195:7220  stakingDateLastCheckpoint */\n      0x09\n        /* \"LiquidityToken.sol\":7195:7233  stakingDateLastCheckpoint = _blockTime */\n      dup2\n      swap1\n      sstore\n      pop\n        /* \"LiquidityToken.sol\":7065:7240  if (_updatedRewardPerShare1e18 > currentRewardPerShare1e18) {... */\n    tag_482:\n        /* \"LiquidityToken.sol\":6921:7244  function updateStakingParameters(uint _blockTime) private {... */\n      pop\n      pop\n      jump\t// out\n        /* \"https://github.com/OpenZeppelin/openzeppelin-contracts/blob/v3.4.2-solc-0.7/contracts/token/ERC20/ERC20.sol\":7817:8187   */\n    tag_347:\n        /* \"https://github.com/OpenZeppelin/openzeppelin-contracts/blob/v3.4.2-solc-0.7/contracts/token/ERC20/ERC20.sol\":7919:7920   */\n      0x00\n        /* \"https://github.com/OpenZeppelin/openzeppelin-contracts/blob/v3.4.2-solc-0.7/contracts/token/ERC20/ERC20.sol\":7900:7921   */\n      0xffffffffffffffffffffffffffffffffffffffff\n      and\n        /* \"https://github.com/OpenZeppelin/openzeppelin-contracts/blob/v3.4.2-solc-0.7/contracts/token/ERC20/ERC20.sol\":7900:7907   */\n      dup3\n        /* \"https://github.com/OpenZeppelin/openzeppelin-contracts/blob/v3.4.2-solc-0.7/contracts/token/ERC20/ERC20.sol\":7900:7921   */\n      0xffffffffffffffffffffffffffffffffffffffff\n      and\n      eq\n      iszero\n        /* \"https://github.com/OpenZeppelin/openzeppelin-contracts/blob/v3.4.2-solc-0.7/contracts/token/ERC20/ERC20.sol\":7892:7957   */\n      tag_484\n      jumpi\n      mload(0x40)\n      0x08c379a000000000000000000000000000000000000000000000000000000000\n      dup2\n      mstore\n      0x04\n      add\n      dup1\n      dup1\n      0x20\n      add\n      dup3\n      dup2\n      sub\n      dup3\n      mstore\n      0x1f\n      dup2\n      mstore\n      0x20\n      add\n      dup1\n      0x45524332303a206d696e7420746f20746865207a65726f206164647265737300\n      dup2\n      mstore\n      pop\n      0x20\n      add\n      swap2\n      pop\n      pop\n      mload(0x40)\n      dup1\n      swap2\n      sub\n      swap1\n      revert\n    tag_484:\n        /* \"https://github.com/OpenZeppelin/openzeppelin-contracts/blob/v3.4.2-solc-0.7/contracts/token/ERC20/ERC20.sol\":7968:8017   */\n      tag_485\n        /* \"https://github.com/OpenZeppelin/openzeppelin-contracts/blob/v3.4.2-solc-0.7/contracts/token/ERC20/ERC20.sol\":7997:7998   */\n      0x00\n        /* \"https://github.com/OpenZeppelin/openzeppelin-contracts/blob/v3.4.2-solc-0.7/contracts/token/ERC20/ERC20.sol\":8001:8008   */\n      dup4\n        /* \"https://github.com/OpenZeppelin/openzeppelin-contracts/blob/v3.4.2-solc-0.7/contracts/token/ERC20/ERC20.sol\":8010:8016   */\n      dup4\n        /* \"https://github.com/OpenZeppelin/openzeppelin-contracts/blob/v3.4.2-solc-0.7/contracts/token/ERC20/ERC20.sol\":7968:7988   */\n      tag_446\n        /* \"https://github.com/OpenZeppelin/openzeppelin-contracts/blob/v3.4.2-solc-0.7/contracts/token/ERC20/ERC20.sol\":7968:8017   */\n      jump\t// in\n    tag_485:\n        /* \"https://github.com/OpenZeppelin/openzeppelin-contracts/blob/v3.4.2-solc-0.7/contracts/token/ERC20/ERC20.sol\":8043:8067   */\n      tag_486\n        /* \"https://github.com/OpenZeppelin/openzeppelin-contracts/blob/v3.4.2-solc-0.7/contracts/token/ERC20/ERC20.sol\":8060:8066   */\n      dup2\n        /* \"https://github.com/OpenZeppelin/openzeppelin-contracts/blob/v3.4.2-solc-0.7/contracts/token/ERC20/ERC20.sol\":8043:8055   */\n      sload(0x02)\n        /* \"https://github.com/OpenZeppelin/openzeppelin-contracts/blob/v3.4.2-solc-0.7/contracts/token/ERC20/ERC20.sol\":8043:8059   */\n      tag_255\n      swap1\n        /* \"https://github.com/OpenZeppelin/openzeppelin-contracts/blob/v3.4.2-solc-0.7/contracts/token/ERC20/ERC20.sol\":8043:8067   */\n      swap2\n      swap1\n      0xffffffff\n      and\n      jump\t// in\n    tag_486:\n        /* \"https://github.com/OpenZeppelin/openzeppelin-contracts/blob/v3.4.2-solc-0.7/contracts/token/ERC20/ERC20.sol\":8028:8040   */\n      0x02\n        /* \"https://github.com/OpenZeppelin/openzeppelin-contracts/blob/v3.4.2-solc-0.7/contracts/token/ERC20/ERC20.sol\":8028:8067   */\n      dup2\n      swap1\n      sstore\n      pop\n        /* \"https://github.com/OpenZeppelin/openzeppelin-contracts/blob/v3.4.2-solc-0.7/contracts/token/ERC20/ERC20.sol\":8098:8128   */\n      tag_487\n        /* \"https://github.com/OpenZeppelin/openzeppelin-contracts/blob/v3.4.2-solc-0.7/contracts/token/ERC20/ERC20.sol\":8121:8127   */\n      dup2\n        /* \"https://github.com/OpenZeppelin/openzeppelin-contracts/blob/v3.4.2-solc-0.7/contracts/token/ERC20/ERC20.sol\":8098:8107   */\n      0x00\n        /* \"https://github.com/OpenZeppelin/openzeppelin-contracts/blob/v3.4.2-solc-0.7/contracts/token/ERC20/ERC20.sol\":8098:8116   */\n      dup1\n        /* \"https://github.com/OpenZeppelin/openzeppelin-contracts/blob/v3.4.2-solc-0.7/contracts/token/ERC20/ERC20.sol\":8108:8115   */\n      dup6\n        /* \"https://github.com/OpenZeppelin/openzeppelin-contracts/blob/v3.4.2-solc-0.7/contracts/token/ERC20/ERC20.sol\":8098:8116   */\n      0xffffffffffffffffffffffffffffffffffffffff\n      and\n      0xffffffffffffffffffffffffffffffffffffffff\n      and\n      dup2\n      mstore\n      0x20\n      add\n      swap1\n      dup2\n      mstore\n      0x20\n      add\n      0x00\n      keccak256\n      sload\n        /* \"https://github.com/OpenZeppelin/openzeppelin-contracts/blob/v3.4.2-solc-0.7/contracts/token/ERC20/ERC20.sol\":8098:8120   */\n      tag_255\n      swap1\n        /* \"https://github.com/OpenZeppelin/openzeppelin-contracts/blob/v3.4.2-solc-0.7/contracts/token/ERC20/ERC20.sol\":8098:8128   */\n      swap2\n      swap1\n      0xffffffff\n      and\n      jump\t// in\n    tag_487:\n        /* \"https://github.com/OpenZeppelin/openzeppelin-contracts/blob/v3.4.2-solc-0.7/contracts/token/ERC20/ERC20.sol\":8077:8086   */\n      0x00\n        /* \"https://github.com/OpenZeppelin/openzeppelin-contracts/blob/v3.4.2-solc-0.7/contracts/token/ERC20/ERC20.sol\":8077:8095   */\n      dup1\n        /* \"https://github.com/OpenZeppelin/openzeppelin-contracts/blob/v3.4.2-solc-0.7/contracts/token/ERC20/ERC20.sol\":8087:8094   */\n      dup5\n        /* \"https://github.com/OpenZeppelin/openzeppelin-contracts/blob/v3.4.2-solc-0.7/contracts/token/ERC20/ERC20.sol\":8077:8095   */\n      0xffffffffffffffffffffffffffffffffffffffff\n      and\n      0xffffffffffffffffffffffffffffffffffffffff\n      and\n      dup2\n      mstore\n      0x20\n      add\n      swap1\n      dup2\n      mstore\n      0x20\n      add\n      0x00\n      keccak256\n        /* \"https://github.com/OpenZeppelin/openzeppelin-contracts/blob/v3.4.2-solc-0.7/contracts/token/ERC20/ERC20.sol\":8077:8128   */\n      dup2\n      swap1\n      sstore\n      pop\n        /* \"https://github.com/OpenZeppelin/openzeppelin-contracts/blob/v3.4.2-solc-0.7/contracts/token/ERC20/ERC20.sol\":8164:8171   */\n      dup2\n        /* \"https://github.com/OpenZeppelin/openzeppelin-contracts/blob/v3.4.2-solc-0.7/contracts/token/ERC20/ERC20.sol\":8143:8180   */\n      0xffffffffffffffffffffffffffffffffffffffff\n      and\n        /* \"https://github.com/OpenZeppelin/openzeppelin-contracts/blob/v3.4.2-solc-0.7/contracts/token/ERC20/ERC20.sol\":8160:8161   */\n      0x00\n        /* \"https://github.com/OpenZeppelin/openzeppelin-contracts/blob/v3.4.2-solc-0.7/contracts/token/ERC20/ERC20.sol\":8143:8180   */\n      0xffffffffffffffffffffffffffffffffffffffff\n      and\n      0xddf252ad1be2c89b69c2b068fc378daa952ba7f163c4a11628f55a4df523b3ef\n        /* \"https://github.com/OpenZeppelin/openzeppelin-contracts/blob/v3.4.2-solc-0.7/contracts/token/ERC20/ERC20.sol\":8173:8179   */\n      dup4\n        /* \"https://github.com/OpenZeppelin/openzeppelin-contracts/blob/v3.4.2-solc-0.7/contracts/token/ERC20/ERC20.sol\":8143:8180   */\n      mload(0x40)\n      dup1\n      dup3\n      dup2\n      mstore\n      0x20\n      add\n      swap2\n      pop\n      pop\n      mload(0x40)\n      dup1\n      swap2\n      sub\n      swap1\n      log3\n        /* \"https://github.com/OpenZeppelin/openzeppelin-contracts/blob/v3.4.2-solc-0.7/contracts/token/ERC20/ERC20.sol\":7817:8187   */\n      pop\n      pop\n      jump\t// out\n        /* \"LiquidityToken.sol\":5183:5500  function checkProjectNotYetLaunched() private view {... */\n    tag_393:\n        /* \"LiquidityToken.sol\":5286:5289  0x0 */\n      0x00\n        /* \"LiquidityToken.sol\":5244:5290  address(interfaceProjectToken) != address(0x0) */\n      0xffffffffffffffffffffffffffffffffffffffff\n      and\n        /* \"LiquidityToken.sol\":5252:5273  interfaceProjectToken */\n      0x06\n      0x00\n      swap1\n      sload\n      swap1\n      0x0100\n      exp\n      swap1\n      div\n      0xffffffffffffffffffffffffffffffffffffffff\n      and\n        /* \"LiquidityToken.sol\":5244:5290  address(interfaceProjectToken) != address(0x0) */\n      0xffffffffffffffffffffffffffffffffffffffff\n      and\n      eq\n        /* \"LiquidityToken.sol\":5240:5496  if (address(interfaceProjectToken) != address(0x0)) {... */\n      tag_489\n      jumpi\n        /* \"LiquidityToken.sol\":5301:5317  uint _dateLaunch */\n      0x00\n        /* \"LiquidityToken.sol\":5320:5341  interfaceProjectToken */\n      0x06\n      0x00\n      swap1\n      sload\n      swap1\n      0x0100\n      exp\n      swap1\n      div\n      0xffffffffffffffffffffffffffffffffffffffff\n      and\n        /* \"LiquidityToken.sol\":5320:5352  interfaceProjectToken.dateLaunch */\n      0xffffffffffffffffffffffffffffffffffffffff\n      and\n      0xfd726827\n        /* \"LiquidityToken.sol\":5320:5354  interfaceProjectToken.dateLaunch() */\n      mload(0x40)\n      dup2\n      0xffffffff\n      and\n      0xe0\n      shl\n      dup2\n      mstore\n      0x04\n      add\n      0x20\n      mload(0x40)\n      dup1\n      dup4\n      sub\n      dup2\n      dup7\n      dup1\n      extcodesize\n      iszero\n      dup1\n      iszero\n      tag_490\n      jumpi\n      0x00\n      dup1\n      revert\n    tag_490:\n      pop\n      gas\n      staticcall\n      iszero\n      dup1\n      iszero\n      tag_492\n      jumpi\n      returndatasize\n      0x00\n      dup1\n      returndatacopy\n      revert(0x00, returndatasize)\n    tag_492:\n      pop\n      pop\n      pop\n      pop\n      mload(0x40)\n      returndatasize\n      0x20\n      dup2\n      lt\n      iszero\n      tag_493\n      jumpi\n      0x00\n      dup1\n      revert\n    tag_493:\n      dup2\n      add\n      swap1\n      dup1\n      dup1\n      mload\n      swap1\n      0x20\n      add\n      swap1\n      swap3\n      swap2\n      swap1\n      pop\n      pop\n      pop\n        /* \"LiquidityToken.sol\":5301:5354  uint _dateLaunch = interfaceProjectToken.dateLaunch() */\n      swap1\n      pop\n        /* \"LiquidityToken.sol\":5381:5382  0 */\n      0x00\n        /* \"LiquidityToken.sol\":5367:5378  _dateLaunch */\n      dup2\n        /* \"LiquidityToken.sol\":5367:5382  _dateLaunch > 0 */\n      gt\n        /* \"LiquidityToken.sol\":5363:5490  if (_dateLaunch > 0) {... */\n      iszero\n      tag_494\n      jumpi\n        /* \"LiquidityToken.sol\":5431:5442  _dateLaunch */\n      dup1\n        /* \"LiquidityToken.sol\":5413:5428  block.timestamp */\n      timestamp\n        /* \"LiquidityToken.sol\":5413:5442  block.timestamp < _dateLaunch */\n      lt\n        /* \"LiquidityToken.sol\":5394:5481  require(... */\n      tag_495\n      jumpi\n      mload(0x40)\n      0x08c379a000000000000000000000000000000000000000000000000000000000\n      dup2\n      mstore\n      0x04\n      add\n      dup1\n      dup1\n      0x20\n      add\n      dup3\n      dup2\n      sub\n      dup3\n      mstore\n      0x18\n      dup2\n      mstore\n      0x20\n      add\n      dup1\n      0x50726f6a65637420616c7265616479206c61756e636865640000000000000000\n      dup2\n      mstore\n      pop\n      0x20\n      add\n      swap2\n      pop\n      pop\n      mload(0x40)\n      dup1\n      swap2\n      sub\n      swap1\n      revert\n    tag_495:\n        /* \"LiquidityToken.sol\":5363:5490  if (_dateLaunch > 0) {... */\n    tag_494:\n        /* \"LiquidityToken.sol\":5240:5496  if (address(interfaceProjectToken) != address(0x0)) {... */\n      pop\n    tag_489:\n        /* \"LiquidityToken.sol\":5183:5500  function checkProjectNotYetLaunched() private view {... */\n      jump\t// out\n        /* \"https://github.com/OpenZeppelin/openzeppelin-contracts/blob/v3.4.2-solc-0.7/contracts/token/ERC20/ERC20.sol\":10686:10778   */\n    tag_446:\n      pop\n      pop\n      pop\n      jump\t// out\n    stop\n    data_0557e210f7a69a685100a7e4e3d0a7024c546085cee28910fd17d0b081d9516f 45524332303a207472616e7366657220746f20746865207a65726f2061646472657373\n    data_149b126e7125232b4200af45303d04fba8b74653b1a295a6a561a528c33fefdd 45524332303a206275726e20616d6f756e7420657863656564732062616c616e6365\n    data_245f15ff17f551913a7a18385165551503906a406f905ac1c2437281a7cd0cfe 4f776e61626c653a206e6577206f776e657220697320746865207a65726f2061646472657373\n    data_24883cc5fe64ace9d0df1893501ecb93c77180f0ff69cca79affb3c316dc8029 45524332303a20617070726f766520746f20746865207a65726f2061646472657373\n    data_4107e8a8b9e94bf8ff83080ddec1c0bffe897ebc2241b89d44f66b3d274088b6 45524332303a207472616e7366657220616d6f756e7420657863656564732062616c616e6365\n    data_8e91a5b1272f4e4f61e64b47d7c1a5143a07d7fd64ea1b240af506d9edc55eeb 5472616e73616374696f6e73206172652063757272656e746c792064697361626c6564\n    data_9113bb53c2876a3805b2c9242029423fc540a728243ce887ab24c82cf119fba3 536166654d6174683a206d756c7469706c69636174696f6e206f766572666c6f77\n    data_974d1b4421da69cc60b481194f0dad36a5bb4e23da810da7a7fb30cdba178330 45524332303a207472616e7366657220616d6f756e74206578636565647320616c6c6f77616e6365\n    data_a795cebbe87cbaa718b98376a54958a9f2ac9be73ba32fe7cff080028a31f20e 43757272656e74207374616b696e672063616d706169676e206973206e6f74206f76657220796574\n    data_ab658a5d3838a0f64f2fac3f406bcac6858d06953f2c8db12e2c0c3d681620fb 4f6e6c792076616c69646174656420496e7465726661636550726f6a656374546f6b656e20436f6e7472616374\n    data_b16788493b576042bb52c50ed56189e0b250db113c7bfb1c3897d25cf9632d7f 45524332303a206275726e2066726f6d20746865207a65726f2061646472657373\n    data_baecc556b46f4ed0f2b4cb599d60785ac8563dd2dc0a5bf12edea1c39e5e1fea 45524332303a207472616e736665722066726f6d20746865207a65726f2061646472657373\n    data_c953f4879035ed60e766b34720f656aab5c697b141d924c283124ecedb91c208 45524332303a20617070726f76652066726f6d20746865207a65726f2061646472657373\n    data_cc1ac84f1f31a634a17a4ddce30b05f5fb9fdd55515de86fb1d919f165b3a5aa 5374617274696e672064617465206d7573742062652061667465722063757272656e74206461746520616e64207374616b696e67206475726174696f6e206d7573742062652067726561746572207468616e2030\n    data_f2240f5a918e8df78ef0222ad9355ea418dab0d59997deefa8646c9cb441c6d5 50726f766964652073616d6520616d6f756e74206f662076616c756573206173207573657273\n    data_f8b476f7d28209d77d4a4ac1fe36b9f8259aa1bb6bddfa6e89de7e51615cf8a8 45524332303a2064656372656173656420616c6c6f77616e63652062656c6f77207a65726f\n\n    auxdata: 0xa2646970667358221220f3efe114b8f4e035c04b66a2e59b6fcf04e100032ac4d426bd6150069fe24dfb64736f6c63430007060033\n}\n",
    "bytecode": {
      "linkReferences": {},
      "object": "60806040526103e8600c553480156200001757600080fd5b506040516200488e3803806200488e833981810160405260e08110156200003d57600080fd5b81019080805160405193929190846401000000008211156200005e57600080fd5b838201915060208201858111156200007557600080fd5b82518660018202830111640100000000821117156200009357600080fd5b8083526020830192505050908051906020019080838360005b83811015620000c9578082015181840152602081019050620000ac565b50505050905090810190601f168015620000f75780820380516001836020036101000a031916815260200191505b50604052602001805160405193929190846401000000008211156200011b57600080fd5b838201915060208201858111156200013257600080fd5b82518660018202830111640100000000821117156200015057600080fd5b8083526020830192505050908051906020019080838360005b838110156200018657808201518184015260208101905062000169565b50505050905090810190601f168015620001b45780820380516001836020036101000a031916815260200191505b506040526020018051906020019092919080519060200190929190805190602001909291908051906020019092919080519060200190929190505050868681600390805190602001906200020a929190620004ac565b50806004908051906020019062000223929190620004ac565b506012600560006101000a81548160ff021916908360ff1602179055505050600062000254620004a460201b60201c565b905080600560016101000a81548173ffffffffffffffffffffffffffffffffffffffff021916908373ffffffffffffffffffffffffffffffffffffffff1602179055508073ffffffffffffffffffffffffffffffffffffffff16600073ffffffffffffffffffffffffffffffffffffffff167f8be0079c531659141344cd1fd0a4f28419497f9722a3daafe3b4186f6b6457e060405160405180910390a35060008314156200035f576103e8851462000359576040517f08c379a00000000000000000000000000000000000000000000000000000000081526004018080602001828103825260348152602001806200482c6034913960400191505060405180910390fd5b620003bc565b6103e88510620003bb576040517f08c379a0000000000000000000000000000000000000000000000000000000008152600401808060200182810382526026815260200180620048066026913960400191505060405180910390fd5b5b6103e8821062000418576040517f08c379a000000000000000000000000000000000000000000000000000000000815260040180806020018281038252602e81526020018062004860602e913960400191505060405180910390fd5b6103e8811062000474576040517f08c379a0000000000000000000000000000000000000000000000000000000008152600401808060200182810382526029815260200180620047dd6029913960400191505060405180910390fd5b83601181905550826012819055508460158190555081601781905550806018819055505050505050505062000562565b600033905090565b828054600181600116156101000203166002900490600052602060002090601f016020900481019282620004e4576000855562000530565b82601f10620004ff57805160ff191683800117855562000530565b8280016001018555821562000530579182015b828111156200052f57825182559160200191906001019062000512565b5b5090506200053f919062000543565b5090565b5b808211156200055e57600081600090555060010162000544565b5090565b61426b80620005726000396000f3fe608060405234801561001057600080fd5b50600436106103785760003560e01c806382af7d39116101d3578063b5f7f63611610104578063df910817116100a2578063efb5c2f31161007c578063efb5c2f314611012578063f2fde38b1461106a578063f331a867146110ae578063fb3da545146110dc57610378565b8063df91081714610e7e578063e0d0c56714610fd6578063e54dd98a14610ff457610378565b8063d49d18d6116100de578063d49d18d614610d66578063da3a593614610d94578063dccdc99514610dc2578063dd62ed3e14610e0657610378565b8063b5f7f63614610cfc578063bf777f8214610d1a578063c96877a214610d4857610378565b806395d89b4111610171578063a457c2d71161014b578063a457c2d714610c0c578063a74536e014610c70578063a9059cbb14610c7a578063abfdce2c14610cde57610378565b806395d89b4114610aef5780639f65ffb014610b72578063a1b0c41214610bca57610378565b80638da5cb5b116101ad5780638da5cb5b14610a03578063908a6bf014610a3757806393ef357a14610a7957806395230a8014610a9757610378565b806382af7d391461097957806386982e61146109c75780638aa03a3c146109e557610378565b806363cf3cff116102ad578063740c34951161024b57806378e104da1161022557806378e104da146109015780637ccf02261461091f5780637e267f391461093d5780638005a7de1461095b57610378565b8063740c34951461082957806374ddcd1d1461088b5780637561ea9a146108a957610378565b80636d69847d116102875780636d69847d1461076b57806370a0823114610799578063715018a6146107f157806372b990b5146107fb57610378565b806363cf3cff1461070f5780636a4bd5a61461072f5780636c1f89ed1461074d57610378565b806330400a861161031a57806339509351116102f4578063395093511461062b5780633e332f161461068f5780633f2b437d146106c3578063483f3ac7146106e157610378565b806330400a861461054c578063305e2daf146105b2578063313ce5671461060a57610378565b806318160ddd1161035657806318160ddd146104825780631f93abd4146104a057806323b872dd146104aa5780632945ac681461052e57610378565b806303ff8e881461037d57806306fdde031461039b578063095ea7b31461041e575b600080fd5b61038561113e565b6040518082815260200191505060405180910390f35b6103a3611144565b6040518080602001828103825283818151815260200191508051906020019080838360005b838110156103e35780820151818401526020810190506103c8565b50505050905090810190601f1680156104105780820380516001836020036101000a031916815260200191505b509250505060405180910390f35b61046a6004803603604081101561043457600080fd5b81019080803573ffffffffffffffffffffffffffffffffffffffff169060200190929190803590602001909291905050506111e6565b60405180821515815260200191505060405180910390f35b61048a611204565b6040518082815260200191505060405180910390f35b6104a861120e565b005b610516600480360360608110156104c057600080fd5b81019080803573ffffffffffffffffffffffffffffffffffffffff169060200190929190803573ffffffffffffffffffffffffffffffffffffffff1690602001909291908035906020019092919050505061127c565b60405180821515815260200191505060405180910390f35b610536611355565b6040518082815260200191505060405180910390f35b61058e6004803603602081101561056257600080fd5b81019080803573ffffffffffffffffffffffffffffffffffffffff16906020019092919050505061135b565b60405180848152602001838152602001828152602001935050505060405180910390f35b6105f4600480360360208110156105c857600080fd5b81019080803573ffffffffffffffffffffffffffffffffffffffff169060200190929190505050611385565b6040518082815260200191505060405180910390f35b6106126113d1565b604051808260ff16815260200191505060405180910390f35b6106776004803603604081101561064157600080fd5b81019080803573ffffffffffffffffffffffffffffffffffffffff169060200190929190803590602001909291905050506113e8565b60405180821515815260200191505060405180910390f35b61069761149b565b604051808273ffffffffffffffffffffffffffffffffffffffff16815260200191505060405180910390f35b6106cb6114c1565b6040518082815260200191505060405180910390f35b61070d600480360360208110156106f757600080fd5b81019080803590602001909291905050506114c7565b005b610717611808565b60405180821515815260200191505060405180910390f35b61073761181b565b6040518082815260200191505060405180910390f35b610755611821565b6040518082815260200191505060405180910390f35b6107976004803603602081101561078157600080fd5b8101908080359060200190929190505050611827565b005b6107db600480360360208110156107af57600080fd5b81019080803573ffffffffffffffffffffffffffffffffffffffff16906020019092919050505061183c565b6040518082815260200191505060405180910390f35b6107f9611884565b005b6108276004803603602081101561081157600080fd5b81019080803590602001909291905050506119f4565b005b6108896004803603608081101561083f57600080fd5b81019080803573ffffffffffffffffffffffffffffffffffffffff169060200190929190803590602001909291908035906020019092919080359060200190929190505050611b25565b005b610893611c84565b6040518082815260200191505060405180910390f35b6108eb600480360360208110156108bf57600080fd5b81019080803573ffffffffffffffffffffffffffffffffffffffff169060200190929190505050611c8a565b6040518082815260200191505060405180910390f35b610909611cd6565b6040518082815260200191505060405180910390f35b610927611cdc565b6040518082815260200191505060405180910390f35b610945611ce2565b6040518082815260200191505060405180910390f35b610963611ce8565b6040518082815260200191505060405180910390f35b6109c56004803603604081101561098f57600080fd5b81019080803573ffffffffffffffffffffffffffffffffffffffff16906020019092919080359060200190929190505050611cee565b005b6109cf611ecd565b6040518082815260200191505060405180910390f35b6109ed611ed3565b6040518082815260200191505060405180910390f35b610a0b611ed9565b604051808273ffffffffffffffffffffffffffffffffffffffff16815260200191505060405180910390f35b610a6360048036036020811015610a4d57600080fd5b8101908080359060200190929190505050611f03565b6040518082815260200191505060405180910390f35b610a81611fdb565b6040518082815260200191505060405180910390f35b610ad960048036036020811015610aad57600080fd5b81019080803573ffffffffffffffffffffffffffffffffffffffff169060200190929190505050611fe1565b6040518082815260200191505060405180910390f35b610af7611ff9565b6040518080602001828103825283818151815260200191508051906020019080838360005b83811015610b37578082015181840152602081019050610b1c565b50505050905090810190601f168015610b645780820380516001836020036101000a031916815260200191505b509250505060405180910390f35b610bb460048036036020811015610b8857600080fd5b81019080803573ffffffffffffffffffffffffffffffffffffffff16906020019092919050505061209b565b6040518082815260200191505060405180910390f35b610c0a60048036036060811015610be057600080fd5b810190808035906020019092919080359060200190929190803590602001909291905050506120e7565b005b610c5860048036036040811015610c2257600080fd5b81019080803573ffffffffffffffffffffffffffffffffffffffff169060200190929190803590602001909291905050506122e4565b60405180821515815260200191505060405180910390f35b610c786123b1565b005b610cc660048036036040811015610c9057600080fd5b81019080803573ffffffffffffffffffffffffffffffffffffffff1690602001909291908035906020019092919050505061248c565b60405180821515815260200191505060405180910390f35b610ce66124aa565b6040518082815260200191505060405180910390f35b610d046124b0565b6040518082815260200191505060405180910390f35b610d4660048036036020811015610d3057600080fd5b81019080803590602001909291905050506124b6565b005b610d506125e7565b6040518082815260200191505060405180910390f35b610d9260048036036020811015610d7c57600080fd5b81019080803590602001909291905050506125ed565b005b610dc060048036036020811015610daa57600080fd5b81019080803590602001909291905050506127ba565b005b610e0460048036036020811015610dd857600080fd5b81019080803573ffffffffffffffffffffffffffffffffffffffff1690602001909291905050506127cf565b005b610e6860048036036040811015610e1c57600080fd5b81019080803573ffffffffffffffffffffffffffffffffffffffff169060200190929190803573ffffffffffffffffffffffffffffffffffffffff169060200190929190505050612965565b6040518082815260200191505060405180910390f35b610fd460048036036060811015610e9457600080fd5b8101908080359060200190640100000000811115610eb157600080fd5b820183602082011115610ec357600080fd5b80359060200191846020830284011164010000000083111715610ee557600080fd5b919080806020026020016040519081016040528093929190818152602001838360200280828437600081840152601f19601f82011690508083019250505050505050919291929080359060200190640100000000811115610f4557600080fd5b820183602082011115610f5757600080fd5b80359060200191846020830284011164010000000083111715610f7957600080fd5b919080806020026020016040519081016040528093929190818152602001838360200280828437600081840152601f19601f8201169050808301925050505050505091929192908035151590602001909291905050506129ec565b005b610fde612d11565b6040518082815260200191505060405180910390f35b610ffc612d17565b6040518082815260200191505060405180910390f35b6110546004803603602081101561102857600080fd5b81019080803573ffffffffffffffffffffffffffffffffffffffff169060200190929190505050612d1d565b6040518082815260200191505060405180910390f35b6110ac6004803603602081101561108057600080fd5b81019080803573ffffffffffffffffffffffffffffffffffffffff169060200190929190505050612d37565b005b6110da600480360360208110156110c457600080fd5b8101908080359060200190929190505050612f2c565b005b611128600480360360408110156110f257600080fd5b81019080803573ffffffffffffffffffffffffffffffffffffffff16906020019092919080359060200190929190505050612f40565b6040518082815260200191505060405180910390f35b600a5481565b606060038054600181600116156101000203166002900480601f0160208091040260200160405190810160405280929190818152602001828054600181600116156101000203166002900480156111dc5780601f106111b1576101008083540402835291602001916111dc565b820191906000526020600020905b8154815290600101906020018083116111bf57829003601f168201915b5050505050905090565b60006111fa6111f3613192565b848461319a565b6001905092915050565b6000600254905090565b60001515601960009054906101000a900460ff1615151461127a576040517f08c379a000000000000000000000000000000000000000000000000000000000815260040180806020018281038252602381526020018061406c6023913960400191505060405180910390fd5b565b6000611289848484613391565b61134a84611295613192565b611345856040518060600160405280602881526020016140b060289139600160008b73ffffffffffffffffffffffffffffffffffffffff1673ffffffffffffffffffffffffffffffffffffffff16815260200190815260200160002060006112fb613192565b73ffffffffffffffffffffffffffffffffffffffff1673ffffffffffffffffffffffffffffffffffffffff168152602001908152602001600020546136529092919063ffffffff16565b61319a565b600190509392505050565b60155481565b601a6020528060005260406000206000915090508060000154908060010154908060020154905083565b6000601a60008373ffffffffffffffffffffffffffffffffffffffff1673ffffffffffffffffffffffffffffffffffffffff168152602001908152602001600020600201549050919050565b6000600560009054906101000a900460ff16905090565b60006114916113f5613192565b8461148c8560016000611406613192565b73ffffffffffffffffffffffffffffffffffffffff1673ffffffffffffffffffffffffffffffffffffffff16815260200190815260200160002060008973ffffffffffffffffffffffffffffffffffffffff1673ffffffffffffffffffffffffffffffffffffffff1681526020019081526020016000205461370c90919063ffffffff16565b61319a565b6001905092915050565b600660009054906101000a900473ffffffffffffffffffffffffffffffffffffffff1681565b60115481565b6114cf61120e565b601a60003373ffffffffffffffffffffffffffffffffffffffff1673ffffffffffffffffffffffffffffffffffffffff16815260200190815260200160002060000154811115611587576040517f08c379a00000000000000000000000000000000000000000000000000000000081526004018080602001828103825260208152602001807f416d6f756e74206578636565647320617661696c61626c652062616c616e636581525060200191505060405180910390fd5b600061159233613794565b905060006115eb83601a60003373ffffffffffffffffffffffffffffffffffffffff1673ffffffffffffffffffffffffffffffffffffffff168152602001908152602001600020600001546137f890919063ffffffff16565b601a60003373ffffffffffffffffffffffffffffffffffffffff1673ffffffffffffffffffffffffffffffffffffffff1681526020019081526020016000206000018190555061164683600e546137f890919063ffffffff16565b600e819055506000600e541115611683576116806103e86116726016548661387b90919063ffffffff16565b61390190919063ffffffff16565b90505b60006116aa8261169c858761370c90919063ffffffff16565b6137f890919063ffffffff16565b90506116b7303383613391565b60006116e26103e86116d4600c548661387b90919063ffffffff16565b61390190919063ffffffff16565b9050611781303073ffffffffffffffffffffffffffffffffffffffff16638da5cb5b6040518163ffffffff1660e01b815260040160206040518083038186803b15801561172e57600080fd5b505afa158015611742573d6000803e3d6000fd5b505050506040513d602081101561175857600080fd5b810190808051906020019092919050505061177c84876137f890919063ffffffff16565b613391565b6000811115611794576117938161398a565b5b7f33ef926b7771df44fd5bf5a690410374540aa634051af1e3a6dd2f67c94a18f13383858488604051808673ffffffffffffffffffffffffffffffffffffffff1681526020018581526020018481526020018381526020018281526020019550505050505060405180910390a15050505050565b601960009054906101000a900460ff1681565b60145481565b60095481565b61182f6139d6565b6118393082613a7e565b50565b60008060008373ffffffffffffffffffffffffffffffffffffffff1673ffffffffffffffffffffffffffffffffffffffff168152602001908152602001600020549050919050565b61188c613192565b73ffffffffffffffffffffffffffffffffffffffff166118aa611ed9565b73ffffffffffffffffffffffffffffffffffffffff1614611933576040517f08c379a00000000000000000000000000000000000000000000000000000000081526004018080602001828103825260208152602001807f4f776e61626c653a2063616c6c6572206973206e6f7420746865206f776e657281525060200191505060405180910390fd5b600073ffffffffffffffffffffffffffffffffffffffff16600560019054906101000a900473ffffffffffffffffffffffffffffffffffffffff1673ffffffffffffffffffffffffffffffffffffffff167f8be0079c531659141344cd1fd0a4f28419497f9722a3daafe3b4186f6b6457e060405160405180910390a36000600560016101000a81548173ffffffffffffffffffffffffffffffffffffffff021916908373ffffffffffffffffffffffffffffffffffffffff160217905550565b6119fc613192565b73ffffffffffffffffffffffffffffffffffffffff16611a1a611ed9565b73ffffffffffffffffffffffffffffffffffffffff1614611aa3576040517f08c379a00000000000000000000000000000000000000000000000000000000081526004018080602001828103825260208152602001807f4f776e61626c653a2063616c6c6572206973206e6f7420746865206f776e657281525060200191505060405180910390fd5b6103e8811115611b1b576040517f08c379a000000000000000000000000000000000000000000000000000000000815260040180806020018281038252600d8152602001807f496e76616c69642076616c75650000000000000000000000000000000000000081525060200191505060405180910390fd5b80600c8190555050565b611b2d6139d6565b611b8283601a60008773ffffffffffffffffffffffffffffffffffffffff1673ffffffffffffffffffffffffffffffffffffffff1681526020019081526020016000206000015461370c90919063ffffffff16565b601a60008673ffffffffffffffffffffffffffffffffffffffff1673ffffffffffffffffffffffffffffffffffffffff16815260200190815260200160002060000181905550611c1d82601a60008773ffffffffffffffffffffffffffffffffffffffff1673ffffffffffffffffffffffffffffffffffffffff168152602001908152602001600020600101546137f890919063ffffffff16565b601a60008673ffffffffffffffffffffffffffffffffffffffff1673ffffffffffffffffffffffffffffffffffffffff16815260200190815260200160002060010181905550611c7881600e5461370c90919063ffffffff16565b600e8190555050505050565b600c5481565b6000601a60008373ffffffffffffffffffffffffffffffffffffffff1673ffffffffffffffffffffffffffffffffffffffff168152602001908152602001600020600001549050919050565b60185481565b60075481565b6103e881565b60085481565b611cf66139d6565b611d0b81600e546137f890919063ffffffff16565b600e8190555042601a60008473ffffffffffffffffffffffffffffffffffffffff1673ffffffffffffffffffffffffffffffffffffffff168152602001908152602001600020600201819055506000601a60008473ffffffffffffffffffffffffffffffffffffffff1673ffffffffffffffffffffffffffffffffffffffff168152602001908152602001600020600001541115611ec957611e3a601a60008473ffffffffffffffffffffffffffffffffffffffff1673ffffffffffffffffffffffffffffffffffffffff16815260200190815260200160002060000154601a60008573ffffffffffffffffffffffffffffffffffffffff1673ffffffffffffffffffffffffffffffffffffffff1681526020019081526020016000206001015461370c90919063ffffffff16565b601a60008473ffffffffffffffffffffffffffffffffffffffff1673ffffffffffffffffffffffffffffffffffffffff168152602001908152602001600020600101819055506000601a60008473ffffffffffffffffffffffffffffffffffffffff1673ffffffffffffffffffffffffffffffffffffffff168152602001908152602001600020600001819055505b5050565b60135481565b60175481565b6000600560019054906101000a900473ffffffffffffffffffffffffffffffffffffffff16905090565b600080611f1d60085460075461370c90919063ffffffff16565b9050600d54915060095483118015611f36575080600954105b8015611f4457506000600e54115b15611fd55780831115611f55578092505b611fd2611fc3611f72600e5460085461387b90919063ffffffff16565b611fb5670de0b6b3a7640000611fa7600a54611f996009548b6137f890919063ffffffff16565b61387b90919063ffffffff16565b61387b90919063ffffffff16565b61390190919063ffffffff16565b8361370c90919063ffffffff16565b91505b50919050565b600b5481565b60106020528060005260406000206000915090505481565b606060048054600181600116156101000203166002900480601f0160208091040260200160405190810160405280929190818152602001828054600181600116156101000203166002900480156120915780601f1061206657610100808354040283529160200191612091565b820191906000526020600020905b81548152906001019060200180831161207457829003601f168201915b5050505050905090565b6000601a60008373ffffffffffffffffffffffffffffffffffffffff1673ffffffffffffffffffffffffffffffffffffffff168152602001908152602001600020600101549050919050565b6120ef613192565b73ffffffffffffffffffffffffffffffffffffffff1661210d611ed9565b73ffffffffffffffffffffffffffffffffffffffff1614612196576040517f08c379a00000000000000000000000000000000000000000000000000000000081526004018080602001828103825260208152602001807f4f776e61626c653a2063616c6c6572206973206e6f7420746865206f776e657281525060200191505060405180910390fd5b600042905080841180156121aa5750600083115b6121ff576040517f08c379a00000000000000000000000000000000000000000000000000000000081526004018080602001828103825260548152602001806141976054913960600191505060405180910390fd5b600060075411156122795761222160085460075461370c90919063ffffffff16565b8111612278576040517f08c379a00000000000000000000000000000000000000000000000000000000081526004018080602001828103825260288152602001806140d86028913960400191505060405180910390fd5b5b61228281613c42565b83600781905550836009819055508260088190555081600a819055506122b382600b5461370c90919063ffffffff16565b600b819055506122ce8260145461370c90919063ffffffff16565b6014819055506122de3083613c6c565b50505050565b60006123a76122f1613192565b846123a285604051806060016040528060258152602001614211602591396001600061231b613192565b73ffffffffffffffffffffffffffffffffffffffff1673ffffffffffffffffffffffffffffffffffffffff16815260200190815260200160002060008a73ffffffffffffffffffffffffffffffffffffffff1673ffffffffffffffffffffffffffffffffffffffff168152602001908152602001600020546136529092919063ffffffff16565b61319a565b6001905092915050565b6123b9613192565b73ffffffffffffffffffffffffffffffffffffffff166123d7611ed9565b73ffffffffffffffffffffffffffffffffffffffff1614612460576040517f08c379a00000000000000000000000000000000000000000000000000000000081526004018080602001828103825260208152602001807f4f776e61626c653a2063616c6c6572206973206e6f7420746865206f776e657281525060200191505060405180910390fd5b601960009054906101000a900460ff1615601960006101000a81548160ff021916908315150217905550565b60006124a0612499613192565b8484613391565b6001905092915050565b60165481565b600f5481565b6124be613192565b73ffffffffffffffffffffffffffffffffffffffff166124dc611ed9565b73ffffffffffffffffffffffffffffffffffffffff1614612565576040517f08c379a00000000000000000000000000000000000000000000000000000000081526004018080602001828103825260208152602001807f4f776e61626c653a2063616c6c6572206973206e6f7420746865206f776e657281525060200191505060405180910390fd5b6017548111156125dd576040517f08c379a000000000000000000000000000000000000000000000000000000000815260040180806020018281038252600d8152602001807f496e76616c69642076616c75650000000000000000000000000000000000000081525060200191505060405180910390fd5b8060168190555050565b600e5481565b6125f561120e565b6125fe3361183c565b811115612673576040517f08c379a000000000000000000000000000000000000000000000000000000000815260040180806020018281038252601f8152602001807f56616c7565206578636565647320617661696c61626c652062616c616e63650081525060200191505060405180910390fd5b600061267e33613794565b90506000612695828461370c90919063ffffffff16565b90506126ec81601a60003373ffffffffffffffffffffffffffffffffffffffff1673ffffffffffffffffffffffffffffffffffffffff1681526020019081526020016000206000015461370c90919063ffffffff16565b601a60003373ffffffffffffffffffffffffffffffffffffffff1673ffffffffffffffffffffffffffffffffffffffff1681526020019081526020016000206000018190555061274781600e5461370c90919063ffffffff16565b600e81905550612758333085613391565b7f6f5036100ec84840f4ca7c243e6ca7c042949756211bdfb358406a77dc41a42e338484604051808473ffffffffffffffffffffffffffffffffffffffff168152602001838152602001828152602001935050505060405180910390a1505050565b6127c26139d6565b6127cc3082613c6c565b50565b6127d7613192565b73ffffffffffffffffffffffffffffffffffffffff166127f5611ed9565b73ffffffffffffffffffffffffffffffffffffffff161461287e576040517f08c379a00000000000000000000000000000000000000000000000000000000081526004018080602001828103825260208152602001807f4f776e61626c653a2063616c6c6572206973206e6f7420746865206f776e657281525060200191505060405180910390fd5b600073ffffffffffffffffffffffffffffffffffffffff168173ffffffffffffffffffffffffffffffffffffffff161415612921576040517f08c379a00000000000000000000000000000000000000000000000000000000081526004018080602001828103825260138152602001807f53657420612076616c696420616464726573730000000000000000000000000081525060200191505060405180910390fd5b80600660006101000a81548173ffffffffffffffffffffffffffffffffffffffff021916908373ffffffffffffffffffffffffffffffffffffffff16021790555050565b6000600160008473ffffffffffffffffffffffffffffffffffffffff1673ffffffffffffffffffffffffffffffffffffffff16815260200190815260200160002060008373ffffffffffffffffffffffffffffffffffffffff1673ffffffffffffffffffffffffffffffffffffffff16815260200190815260200160002054905092915050565b6129f4613192565b73ffffffffffffffffffffffffffffffffffffffff16612a12611ed9565b73ffffffffffffffffffffffffffffffffffffffff1614612a9b576040517f08c379a00000000000000000000000000000000000000000000000000000000081526004018080602001828103825260208152602001807f4f776e61626c653a2063616c6c6572206973206e6f7420746865206f776e657281525060200191505060405180910390fd5b612aa3613e33565b6000808451905060008060008087518514612b09576040517f08c379a00000000000000000000000000000000000000000000000000000000081526004018080602001828103825260268152602001806141eb6026913960400191505060405180910390fd5b60005b85811015612cac57898181518110612b2057fe5b60200260200101519450888181518110612b3657fe5b602002602001015193508715612c1857612b4f85613794565b9250612bb883612baa86601a60008a73ffffffffffffffffffffffffffffffffffffffff1673ffffffffffffffffffffffffffffffffffffffff1681526020019081526020016000206000015461370c90919063ffffffff16565b61370c90919063ffffffff16565b601a60008773ffffffffffffffffffffffffffffffffffffffff1673ffffffffffffffffffffffffffffffffffffffff16815260200190815260200160002060000181905550612c11838361370c90919063ffffffff16565b9150612c23565b612c228585613c6c565b5b612c36848861370c90919063ffffffff16565b96507fa984939d0059bc688e1c5458f72ad05b51fc8a6ba959556f5e2ee91c1ab8c7d28585858b604051808573ffffffffffffffffffffffffffffffffffffffff168152602001848152602001838152602001821515815260200194505050505060405180910390a18080600101915050612b0c565b50612cc28660145461370c90919063ffffffff16565b6014819055508615612d0657612cd83087613c6c565b612cff81612cf188600e5461370c90919063ffffffff16565b61370c90919063ffffffff16565b600e819055505b505050505050505050565b600d5481565b60125481565b6000612d276139d6565b612d3082613794565b9050919050565b612d3f613192565b73ffffffffffffffffffffffffffffffffffffffff16612d5d611ed9565b73ffffffffffffffffffffffffffffffffffffffff1614612de6576040517f08c379a00000000000000000000000000000000000000000000000000000000081526004018080602001828103825260208152602001807f4f776e61626c653a2063616c6c6572206973206e6f7420746865206f776e657281525060200191505060405180910390fd5b600073ffffffffffffffffffffffffffffffffffffffff168173ffffffffffffffffffffffffffffffffffffffff161415612e6c576040517f08c379a0000000000000000000000000000000000000000000000000000000008152600401808060200182810382526026815260200180613ffe6026913960400191505060405180910390fd5b8073ffffffffffffffffffffffffffffffffffffffff16600560019054906101000a900473ffffffffffffffffffffffffffffffffffffffff1673ffffffffffffffffffffffffffffffffffffffff167f8be0079c531659141344cd1fd0a4f28419497f9722a3daafe3b4186f6b6457e060405160405180910390a380600560016101000a81548173ffffffffffffffffffffffffffffffffffffffff021916908373ffffffffffffffffffffffffffffffffffffffff16021790555050565b612f346139d6565b612f3d8161398a565b50565b600080612fda601a60008673ffffffffffffffffffffffffffffffffffffffff1673ffffffffffffffffffffffffffffffffffffffff16815260200190815260200160002060010154601a60008773ffffffffffffffffffffffffffffffffffffffff1673ffffffffffffffffffffffffffffffffffffffff1681526020019081526020016000206000015461370c90919063ffffffff16565b9050600073ffffffffffffffffffffffffffffffffffffffff16600660009054906101000a900473ffffffffffffffffffffffffffffffffffffffff1673ffffffffffffffffffffffffffffffffffffffff161461310b57613108600660009054906101000a900473ffffffffffffffffffffffffffffffffffffffff1673ffffffffffffffffffffffffffffffffffffffff1663ba01ecef866040518263ffffffff1660e01b8152600401808273ffffffffffffffffffffffffffffffffffffffff16815260200191505060206040518083038186803b1580156130be57600080fd5b505afa1580156130d2573d6000803e3d6000fd5b505050506040513d60208110156130e857600080fd5b8101908080519060200190929190505050826137f890919063ffffffff16565b90505b613189670de0b6b3a764000061317b61316c601060008973ffffffffffffffffffffffffffffffffffffffff1673ffffffffffffffffffffffffffffffffffffffff16815260200190815260200160002054876137f890919063ffffffff16565b8461387b90919063ffffffff16565b61390190919063ffffffff16565b91505092915050565b600033905090565b600073ffffffffffffffffffffffffffffffffffffffff168373ffffffffffffffffffffffffffffffffffffffff161415613220576040517f08c379a00000000000000000000000000000000000000000000000000000000081526004018080602001828103825260248152602001806141736024913960400191505060405180910390fd5b600073ffffffffffffffffffffffffffffffffffffffff168273ffffffffffffffffffffffffffffffffffffffff1614156132a6576040517f08c379a00000000000000000000000000000000000000000000000000000000081526004018080602001828103825260228152602001806140246022913960400191505060405180910390fd5b80600160008573ffffffffffffffffffffffffffffffffffffffff1673ffffffffffffffffffffffffffffffffffffffff16815260200190815260200160002060008473ffffffffffffffffffffffffffffffffffffffff1673ffffffffffffffffffffffffffffffffffffffff168152602001908152602001600020819055508173ffffffffffffffffffffffffffffffffffffffff168373ffffffffffffffffffffffffffffffffffffffff167f8c5be1e5ebec7d5bd14f71427d1e84f3dd0314c0f7b2291e5b200ac8c7c3b925836040518082815260200191505060405180910390a3505050565b600073ffffffffffffffffffffffffffffffffffffffff168373ffffffffffffffffffffffffffffffffffffffff161415613417576040517f08c379a000000000000000000000000000000000000000000000000000000000815260040180806020018281038252602581526020018061414e6025913960400191505060405180910390fd5b600073ffffffffffffffffffffffffffffffffffffffff168273ffffffffffffffffffffffffffffffffffffffff16141561349d576040517f08c379a0000000000000000000000000000000000000000000000000000000008152600401808060200182810382526023815260200180613fb96023913960400191505060405180910390fd5b6134a8838383613fb3565b61351381604051806060016040528060268152602001614046602691396000808773ffffffffffffffffffffffffffffffffffffffff1673ffffffffffffffffffffffffffffffffffffffff168152602001908152602001600020546136529092919063ffffffff16565b6000808573ffffffffffffffffffffffffffffffffffffffff1673ffffffffffffffffffffffffffffffffffffffff168152602001908152602001600020819055506135a6816000808573ffffffffffffffffffffffffffffffffffffffff1673ffffffffffffffffffffffffffffffffffffffff1681526020019081526020016000205461370c90919063ffffffff16565b6000808473ffffffffffffffffffffffffffffffffffffffff1673ffffffffffffffffffffffffffffffffffffffff168152602001908152602001600020819055508173ffffffffffffffffffffffffffffffffffffffff168373ffffffffffffffffffffffffffffffffffffffff167fddf252ad1be2c89b69c2b068fc378daa952ba7f163c4a11628f55a4df523b3ef836040518082815260200191505060405180910390a3505050565b60008383111582906136ff576040517f08c379a00000000000000000000000000000000000000000000000000000000081526004018080602001828103825283818151815260200191508051906020019080838360005b838110156136c45780820151818401526020810190506136a9565b50505050905090810190601f1680156136f15780820380516001836020036101000a031916815260200191505b509250505060405180910390fd5b5082840390509392505050565b60008082840190508381101561378a576040517f08c379a000000000000000000000000000000000000000000000000000000000815260040180806020018281038252601b8152602001807f536166654d6174683a206164646974696f6e206f766572666c6f77000000000081525060200191505060405180910390fd5b8091505092915050565b600061379f42613c42565b6137ab82600d54612f40565b9050600d54601060008473ffffffffffffffffffffffffffffffffffffffff1673ffffffffffffffffffffffffffffffffffffffff16815260200190815260200160002081905550919050565b600082821115613870576040517f08c379a000000000000000000000000000000000000000000000000000000000815260040180806020018281038252601e8152602001807f536166654d6174683a207375627472616374696f6e206f766572666c6f77000081525060200191505060405180910390fd5b818303905092915050565b60008083141561388e57600090506138fb565b600082840290508284828161389f57fe5b04146138f6576040517f08c379a000000000000000000000000000000000000000000000000000000000815260040180806020018281038252602181526020018061408f6021913960400191505060405180910390fd5b809150505b92915050565b6000808211613978576040517f08c379a000000000000000000000000000000000000000000000000000000000815260040180806020018281038252601a8152602001807f536166654d6174683a206469766973696f6e206279207a65726f00000000000081525060200191505060405180910390fd5b81838161398157fe5b04905092915050565b6139cd6139bc600e546139ae670de0b6b3a76400008561387b90919063ffffffff16565b61390190919063ffffffff16565b600d5461370c90919063ffffffff16565b600d8190555050565b600660009054906101000a900473ffffffffffffffffffffffffffffffffffffffff1673ffffffffffffffffffffffffffffffffffffffff163373ffffffffffffffffffffffffffffffffffffffff1614613a7c576040517f08c379a000000000000000000000000000000000000000000000000000000000815260040180806020018281038252602d815260200180614100602d913960400191505060405180910390fd5b565b600073ffffffffffffffffffffffffffffffffffffffff168273ffffffffffffffffffffffffffffffffffffffff161415613b04576040517f08c379a000000000000000000000000000000000000000000000000000000000815260040180806020018281038252602181526020018061412d6021913960400191505060405180910390fd5b613b1082600083613fb3565b613b7b81604051806060016040528060228152602001613fdc602291396000808673ffffffffffffffffffffffffffffffffffffffff1673ffffffffffffffffffffffffffffffffffffffff168152602001908152602001600020546136529092919063ffffffff16565b6000808473ffffffffffffffffffffffffffffffffffffffff1673ffffffffffffffffffffffffffffffffffffffff16815260200190815260200160002081905550613bd2816002546137f890919063ffffffff16565b600281905550600073ffffffffffffffffffffffffffffffffffffffff168273ffffffffffffffffffffffffffffffffffffffff167fddf252ad1be2c89b69c2b068fc378daa952ba7f163c4a11628f55a4df523b3ef836040518082815260200191505060405180910390a35050565b6000613c4d82611f03565b9050600d54811115613c685780600d81905550816009819055505b5050565b600073ffffffffffffffffffffffffffffffffffffffff168273ffffffffffffffffffffffffffffffffffffffff161415613d0f576040517f08c379a000000000000000000000000000000000000000000000000000000000815260040180806020018281038252601f8152602001807f45524332303a206d696e7420746f20746865207a65726f20616464726573730081525060200191505060405180910390fd5b613d1b60008383613fb3565b613d308160025461370c90919063ffffffff16565b600281905550613d87816000808573ffffffffffffffffffffffffffffffffffffffff1673ffffffffffffffffffffffffffffffffffffffff1681526020019081526020016000205461370c90919063ffffffff16565b6000808473ffffffffffffffffffffffffffffffffffffffff1673ffffffffffffffffffffffffffffffffffffffff168152602001908152602001600020819055508173ffffffffffffffffffffffffffffffffffffffff16600073ffffffffffffffffffffffffffffffffffffffff167fddf252ad1be2c89b69c2b068fc378daa952ba7f163c4a11628f55a4df523b3ef836040518082815260200191505060405180910390a35050565b600073ffffffffffffffffffffffffffffffffffffffff16600660009054906101000a900473ffffffffffffffffffffffffffffffffffffffff1673ffffffffffffffffffffffffffffffffffffffff1614613fb1576000600660009054906101000a900473ffffffffffffffffffffffffffffffffffffffff1673ffffffffffffffffffffffffffffffffffffffff1663fd7268276040518163ffffffff1660e01b815260040160206040518083038186803b158015613ef357600080fd5b505afa158015613f07573d6000803e3d6000fd5b505050506040513d6020811015613f1d57600080fd5b810190808051906020019092919050505090506000811115613faf57804210613fae576040517f08c379a00000000000000000000000000000000000000000000000000000000081526004018080602001828103825260188152602001807f50726f6a65637420616c7265616479206c61756e63686564000000000000000081525060200191505060405180910390fd5b5b505b565b50505056fe45524332303a207472616e7366657220746f20746865207a65726f206164647265737345524332303a206275726e20616d6f756e7420657863656564732062616c616e63654f776e61626c653a206e6577206f776e657220697320746865207a65726f206164647265737345524332303a20617070726f766520746f20746865207a65726f206164647265737345524332303a207472616e7366657220616d6f756e7420657863656564732062616c616e63655472616e73616374696f6e73206172652063757272656e746c792064697361626c6564536166654d6174683a206d756c7469706c69636174696f6e206f766572666c6f7745524332303a207472616e7366657220616d6f756e74206578636565647320616c6c6f77616e636543757272656e74207374616b696e672063616d706169676e206973206e6f74206f766572207965744f6e6c792076616c69646174656420496e7465726661636550726f6a656374546f6b656e20436f6e747261637445524332303a206275726e2066726f6d20746865207a65726f206164647265737345524332303a207472616e736665722066726f6d20746865207a65726f206164647265737345524332303a20617070726f76652066726f6d20746865207a65726f20616464726573735374617274696e672064617465206d7573742062652061667465722063757272656e74206461746520616e64207374616b696e67206475726174696f6e206d7573742062652067726561746572207468616e203050726f766964652073616d6520616d6f756e74206f662076616c75657320617320757365727345524332303a2064656372656173656420616c6c6f77616e63652062656c6f77207a65726fa2646970667358221220f3efe114b8f4e035c04b66a2e59b6fcf04e100032ac4d426bd6150069fe24dfb64736f6c634300070600334d6178696d756d20636c61696d20666565206d757374206265206c6f776572207468616e2031303025496e697469616c20756e6c6f636b206d757374206265206c6f776572207468616e20313030254966206e6f2076657374696e672c20616c6c20746f6b656e73206d7573742062652072656c6561736564206174206c61756e63684d6178696d756d207769746864726177616c20666565206d757374206265206c6f776572207468616e2031303025",
      "opcodes": "PUSH1 0x80 PUSH1 0x40 MSTORE PUSH2 0x3E8 PUSH1 0xC SSTORE CALLVALUE DUP1 ISZERO PUSH3 0x17 JUMPI PUSH1 0x0 DUP1 REVERT JUMPDEST POP PUSH1 0x40 MLOAD PUSH3 0x488E CODESIZE SUB DUP1 PUSH3 0x488E DUP4 CODECOPY DUP2 DUP2 ADD PUSH1 0x40 MSTORE PUSH1 0xE0 DUP2 LT ISZERO PUSH3 0x3D JUMPI PUSH1 0x0 DUP1 REVERT JUMPDEST DUP2 ADD SWAP1 DUP1 DUP1 MLOAD PUSH1 0x40 MLOAD SWAP4 SWAP3 SWAP2 SWAP1 DUP5 PUSH5 0x100000000 DUP3 GT ISZERO PUSH3 0x5E JUMPI PUSH1 0x0 DUP1 REVERT JUMPDEST DUP4 DUP3 ADD SWAP2 POP PUSH1 0x20 DUP3 ADD DUP6 DUP2 GT ISZERO PUSH3 0x75 JUMPI PUSH1 0x0 DUP1 REVERT JUMPDEST DUP3 MLOAD DUP7 PUSH1 0x1 DUP3 MUL DUP4 ADD GT PUSH5 0x100000000 DUP3 GT OR ISZERO PUSH3 0x93 JUMPI PUSH1 0x0 DUP1 REVERT JUMPDEST DUP1 DUP4 MSTORE PUSH1 0x20 DUP4 ADD SWAP3 POP POP POP SWAP1 DUP1 MLOAD SWAP1 PUSH1 0x20 ADD SWAP1 DUP1 DUP4 DUP4 PUSH1 0x0 JUMPDEST DUP4 DUP2 LT ISZERO PUSH3 0xC9 JUMPI DUP1 DUP3 ADD MLOAD DUP2 DUP5 ADD MSTORE PUSH1 0x20 DUP2 ADD SWAP1 POP PUSH3 0xAC JUMP JUMPDEST POP POP POP POP SWAP1 POP SWAP1 DUP2 ADD SWAP1 PUSH1 0x1F AND DUP1 ISZERO PUSH3 0xF7 JUMPI DUP1 DUP3 SUB DUP1 MLOAD PUSH1 0x1 DUP4 PUSH1 0x20 SUB PUSH2 0x100 EXP SUB NOT AND DUP2 MSTORE PUSH1 0x20 ADD SWAP2 POP JUMPDEST POP PUSH1 0x40 MSTORE PUSH1 0x20 ADD DUP1 MLOAD PUSH1 0x40 MLOAD SWAP4 SWAP3 SWAP2 SWAP1 DUP5 PUSH5 0x100000000 DUP3 GT ISZERO PUSH3 0x11B JUMPI PUSH1 0x0 DUP1 REVERT JUMPDEST DUP4 DUP3 ADD SWAP2 POP PUSH1 0x20 DUP3 ADD DUP6 DUP2 GT ISZERO PUSH3 0x132 JUMPI PUSH1 0x0 DUP1 REVERT JUMPDEST DUP3 MLOAD DUP7 PUSH1 0x1 DUP3 MUL DUP4 ADD GT PUSH5 0x100000000 DUP3 GT OR ISZERO PUSH3 0x150 JUMPI PUSH1 0x0 DUP1 REVERT JUMPDEST DUP1 DUP4 MSTORE PUSH1 0x20 DUP4 ADD SWAP3 POP POP POP SWAP1 DUP1 MLOAD SWAP1 PUSH1 0x20 ADD SWAP1 DUP1 DUP4 DUP4 PUSH1 0x0 JUMPDEST DUP4 DUP2 LT ISZERO PUSH3 0x186 JUMPI DUP1 DUP3 ADD MLOAD DUP2 DUP5 ADD MSTORE PUSH1 0x20 DUP2 ADD SWAP1 POP PUSH3 0x169 JUMP JUMPDEST POP POP POP POP SWAP1 POP SWAP1 DUP2 ADD SWAP1 PUSH1 0x1F AND DUP1 ISZERO PUSH3 0x1B4 JUMPI DUP1 DUP3 SUB DUP1 MLOAD PUSH1 0x1 DUP4 PUSH1 0x20 SUB PUSH2 0x100 EXP SUB NOT AND DUP2 MSTORE PUSH1 0x20 ADD SWAP2 POP JUMPDEST POP PUSH1 0x40 MSTORE PUSH1 0x20 ADD DUP1 MLOAD SWAP1 PUSH1 0x20 ADD SWAP1 SWAP3 SWAP2 SWAP1 DUP1 MLOAD SWAP1 PUSH1 0x20 ADD SWAP1 SWAP3 SWAP2 SWAP1 DUP1 MLOAD SWAP1 PUSH1 0x20 ADD SWAP1 SWAP3 SWAP2 SWAP1 DUP1 MLOAD SWAP1 PUSH1 0x20 ADD SWAP1 SWAP3 SWAP2 SWAP1 DUP1 MLOAD SWAP1 PUSH1 0x20 ADD SWAP1 SWAP3 SWAP2 SWAP1 POP POP POP DUP7 DUP7 DUP2 PUSH1 0x3 SWAP1 DUP1 MLOAD SWAP1 PUSH1 0x20 ADD SWAP1 PUSH3 0x20A SWAP3 SWAP2 SWAP1 PUSH3 0x4AC JUMP JUMPDEST POP DUP1 PUSH1 0x4 SWAP1 DUP1 MLOAD SWAP1 PUSH1 0x20 ADD SWAP1 PUSH3 0x223 SWAP3 SWAP2 SWAP1 PUSH3 0x4AC JUMP JUMPDEST POP PUSH1 0x12 PUSH1 0x5 PUSH1 0x0 PUSH2 0x100 EXP DUP2 SLOAD DUP2 PUSH1 0xFF MUL NOT AND SWAP1 DUP4 PUSH1 0xFF AND MUL OR SWAP1 SSTORE POP POP POP PUSH1 0x0 PUSH3 0x254 PUSH3 0x4A4 PUSH1 0x20 SHL PUSH1 0x20 SHR JUMP JUMPDEST SWAP1 POP DUP1 PUSH1 0x5 PUSH1 0x1 PUSH2 0x100 EXP DUP2 SLOAD DUP2 PUSH20 0xFFFFFFFFFFFFFFFFFFFFFFFFFFFFFFFFFFFFFFFF MUL NOT AND SWAP1 DUP4 PUSH20 0xFFFFFFFFFFFFFFFFFFFFFFFFFFFFFFFFFFFFFFFF AND MUL OR SWAP1 SSTORE POP DUP1 PUSH20 0xFFFFFFFFFFFFFFFFFFFFFFFFFFFFFFFFFFFFFFFF AND PUSH1 0x0 PUSH20 0xFFFFFFFFFFFFFFFFFFFFFFFFFFFFFFFFFFFFFFFF AND PUSH32 0x8BE0079C531659141344CD1FD0A4F28419497F9722A3DAAFE3B4186F6B6457E0 PUSH1 0x40 MLOAD PUSH1 0x40 MLOAD DUP1 SWAP2 SUB SWAP1 LOG3 POP PUSH1 0x0 DUP4 EQ ISZERO PUSH3 0x35F JUMPI PUSH2 0x3E8 DUP6 EQ PUSH3 0x359 JUMPI PUSH1 0x40 MLOAD PUSH32 0x8C379A000000000000000000000000000000000000000000000000000000000 DUP2 MSTORE PUSH1 0x4 ADD DUP1 DUP1 PUSH1 0x20 ADD DUP3 DUP2 SUB DUP3 MSTORE PUSH1 0x34 DUP2 MSTORE PUSH1 0x20 ADD DUP1 PUSH3 0x482C PUSH1 0x34 SWAP2 CODECOPY PUSH1 0x40 ADD SWAP2 POP POP PUSH1 0x40 MLOAD DUP1 SWAP2 SUB SWAP1 REVERT JUMPDEST PUSH3 0x3BC JUMP JUMPDEST PUSH2 0x3E8 DUP6 LT PUSH3 0x3BB JUMPI PUSH1 0x40 MLOAD PUSH32 0x8C379A000000000000000000000000000000000000000000000000000000000 DUP2 MSTORE PUSH1 0x4 ADD DUP1 DUP1 PUSH1 0x20 ADD DUP3 DUP2 SUB DUP3 MSTORE PUSH1 0x26 DUP2 MSTORE PUSH1 0x20 ADD DUP1 PUSH3 0x4806 PUSH1 0x26 SWAP2 CODECOPY PUSH1 0x40 ADD SWAP2 POP POP PUSH1 0x40 MLOAD DUP1 SWAP2 SUB SWAP1 REVERT JUMPDEST JUMPDEST PUSH2 0x3E8 DUP3 LT PUSH3 0x418 JUMPI PUSH1 0x40 MLOAD PUSH32 0x8C379A000000000000000000000000000000000000000000000000000000000 DUP2 MSTORE PUSH1 0x4 ADD DUP1 DUP1 PUSH1 0x20 ADD DUP3 DUP2 SUB DUP3 MSTORE PUSH1 0x2E DUP2 MSTORE PUSH1 0x20 ADD DUP1 PUSH3 0x4860 PUSH1 0x2E SWAP2 CODECOPY PUSH1 0x40 ADD SWAP2 POP POP PUSH1 0x40 MLOAD DUP1 SWAP2 SUB SWAP1 REVERT JUMPDEST PUSH2 0x3E8 DUP2 LT PUSH3 0x474 JUMPI PUSH1 0x40 MLOAD PUSH32 0x8C379A000000000000000000000000000000000000000000000000000000000 DUP2 MSTORE PUSH1 0x4 ADD DUP1 DUP1 PUSH1 0x20 ADD DUP3 DUP2 SUB DUP3 MSTORE PUSH1 0x29 DUP2 MSTORE PUSH1 0x20 ADD DUP1 PUSH3 0x47DD PUSH1 0x29 SWAP2 CODECOPY PUSH1 0x40 ADD SWAP2 POP POP PUSH1 0x40 MLOAD DUP1 SWAP2 SUB SWAP1 REVERT JUMPDEST DUP4 PUSH1 0x11 DUP2 SWAP1 SSTORE POP DUP3 PUSH1 0x12 DUP2 SWAP1 SSTORE POP DUP5 PUSH1 0x15 DUP2 SWAP1 SSTORE POP DUP2 PUSH1 0x17 DUP2 SWAP1 SSTORE POP DUP1 PUSH1 0x18 DUP2 SWAP1 SSTORE POP POP POP POP POP POP POP POP PUSH3 0x562 JUMP JUMPDEST PUSH1 0x0 CALLER SWAP1 POP SWAP1 JUMP JUMPDEST DUP3 DUP1 SLOAD PUSH1 0x1 DUP2 PUSH1 0x1 AND ISZERO PUSH2 0x100 MUL SUB AND PUSH1 0x2 SWAP1 DIV SWAP1 PUSH1 0x0 MSTORE PUSH1 0x20 PUSH1 0x0 KECCAK256 SWAP1 PUSH1 0x1F ADD PUSH1 0x20 SWAP1 DIV DUP2 ADD SWAP3 DUP3 PUSH3 0x4E4 JUMPI PUSH1 0x0 DUP6 SSTORE PUSH3 0x530 JUMP JUMPDEST DUP3 PUSH1 0x1F LT PUSH3 0x4FF JUMPI DUP1 MLOAD PUSH1 0xFF NOT AND DUP4 DUP1 ADD OR DUP6 SSTORE PUSH3 0x530 JUMP JUMPDEST DUP3 DUP1 ADD PUSH1 0x1 ADD DUP6 SSTORE DUP3 ISZERO PUSH3 0x530 JUMPI SWAP2 DUP3 ADD JUMPDEST DUP3 DUP2 GT ISZERO PUSH3 0x52F JUMPI DUP3 MLOAD DUP3 SSTORE SWAP2 PUSH1 0x20 ADD SWAP2 SWAP1 PUSH1 0x1 ADD SWAP1 PUSH3 0x512 JUMP JUMPDEST JUMPDEST POP SWAP1 POP PUSH3 0x53F SWAP2 SWAP1 PUSH3 0x543 JUMP JUMPDEST POP SWAP1 JUMP JUMPDEST JUMPDEST DUP1 DUP3 GT ISZERO PUSH3 0x55E JUMPI PUSH1 0x0 DUP2 PUSH1 0x0 SWAP1 SSTORE POP PUSH1 0x1 ADD PUSH3 0x544 JUMP JUMPDEST POP SWAP1 JUMP JUMPDEST PUSH2 0x426B DUP1 PUSH3 0x572 PUSH1 0x0 CODECOPY PUSH1 0x0 RETURN INVALID PUSH1 0x80 PUSH1 0x40 MSTORE CALLVALUE DUP1 ISZERO PUSH2 0x10 JUMPI PUSH1 0x0 DUP1 REVERT JUMPDEST POP PUSH1 0x4 CALLDATASIZE LT PUSH2 0x378 JUMPI PUSH1 0x0 CALLDATALOAD PUSH1 0xE0 SHR DUP1 PUSH4 0x82AF7D39 GT PUSH2 0x1D3 JUMPI DUP1 PUSH4 0xB5F7F636 GT PUSH2 0x104 JUMPI DUP1 PUSH4 0xDF910817 GT PUSH2 0xA2 JUMPI DUP1 PUSH4 0xEFB5C2F3 GT PUSH2 0x7C JUMPI DUP1 PUSH4 0xEFB5C2F3 EQ PUSH2 0x1012 JUMPI DUP1 PUSH4 0xF2FDE38B EQ PUSH2 0x106A JUMPI DUP1 PUSH4 0xF331A867 EQ PUSH2 0x10AE JUMPI DUP1 PUSH4 0xFB3DA545 EQ PUSH2 0x10DC JUMPI PUSH2 0x378 JUMP JUMPDEST DUP1 PUSH4 0xDF910817 EQ PUSH2 0xE7E JUMPI DUP1 PUSH4 0xE0D0C567 EQ PUSH2 0xFD6 JUMPI DUP1 PUSH4 0xE54DD98A EQ PUSH2 0xFF4 JUMPI PUSH2 0x378 JUMP JUMPDEST DUP1 PUSH4 0xD49D18D6 GT PUSH2 0xDE JUMPI DUP1 PUSH4 0xD49D18D6 EQ PUSH2 0xD66 JUMPI DUP1 PUSH4 0xDA3A5936 EQ PUSH2 0xD94 JUMPI DUP1 PUSH4 0xDCCDC995 EQ PUSH2 0xDC2 JUMPI DUP1 PUSH4 0xDD62ED3E EQ PUSH2 0xE06 JUMPI PUSH2 0x378 JUMP JUMPDEST DUP1 PUSH4 0xB5F7F636 EQ PUSH2 0xCFC JUMPI DUP1 PUSH4 0xBF777F82 EQ PUSH2 0xD1A JUMPI DUP1 PUSH4 0xC96877A2 EQ PUSH2 0xD48 JUMPI PUSH2 0x378 JUMP JUMPDEST DUP1 PUSH4 0x95D89B41 GT PUSH2 0x171 JUMPI DUP1 PUSH4 0xA457C2D7 GT PUSH2 0x14B JUMPI DUP1 PUSH4 0xA457C2D7 EQ PUSH2 0xC0C JUMPI DUP1 PUSH4 0xA74536E0 EQ PUSH2 0xC70 JUMPI DUP1 PUSH4 0xA9059CBB EQ PUSH2 0xC7A JUMPI DUP1 PUSH4 0xABFDCE2C EQ PUSH2 0xCDE JUMPI PUSH2 0x378 JUMP JUMPDEST DUP1 PUSH4 0x95D89B41 EQ PUSH2 0xAEF JUMPI DUP1 PUSH4 0x9F65FFB0 EQ PUSH2 0xB72 JUMPI DUP1 PUSH4 0xA1B0C412 EQ PUSH2 0xBCA JUMPI PUSH2 0x378 JUMP JUMPDEST DUP1 PUSH4 0x8DA5CB5B GT PUSH2 0x1AD JUMPI DUP1 PUSH4 0x8DA5CB5B EQ PUSH2 0xA03 JUMPI DUP1 PUSH4 0x908A6BF0 EQ PUSH2 0xA37 JUMPI DUP1 PUSH4 0x93EF357A EQ PUSH2 0xA79 JUMPI DUP1 PUSH4 0x95230A80 EQ PUSH2 0xA97 JUMPI PUSH2 0x378 JUMP JUMPDEST DUP1 PUSH4 0x82AF7D39 EQ PUSH2 0x979 JUMPI DUP1 PUSH4 0x86982E61 EQ PUSH2 0x9C7 JUMPI DUP1 PUSH4 0x8AA03A3C EQ PUSH2 0x9E5 JUMPI PUSH2 0x378 JUMP JUMPDEST DUP1 PUSH4 0x63CF3CFF GT PUSH2 0x2AD JUMPI DUP1 PUSH4 0x740C3495 GT PUSH2 0x24B JUMPI DUP1 PUSH4 0x78E104DA GT PUSH2 0x225 JUMPI DUP1 PUSH4 0x78E104DA EQ PUSH2 0x901 JUMPI DUP1 PUSH4 0x7CCF0226 EQ PUSH2 0x91F JUMPI DUP1 PUSH4 0x7E267F39 EQ PUSH2 0x93D JUMPI DUP1 PUSH4 0x8005A7DE EQ PUSH2 0x95B JUMPI PUSH2 0x378 JUMP JUMPDEST DUP1 PUSH4 0x740C3495 EQ PUSH2 0x829 JUMPI DUP1 PUSH4 0x74DDCD1D EQ PUSH2 0x88B JUMPI DUP1 PUSH4 0x7561EA9A EQ PUSH2 0x8A9 JUMPI PUSH2 0x378 JUMP JUMPDEST DUP1 PUSH4 0x6D69847D GT PUSH2 0x287 JUMPI DUP1 PUSH4 0x6D69847D EQ PUSH2 0x76B JUMPI DUP1 PUSH4 0x70A08231 EQ PUSH2 0x799 JUMPI DUP1 PUSH4 0x715018A6 EQ PUSH2 0x7F1 JUMPI DUP1 PUSH4 0x72B990B5 EQ PUSH2 0x7FB JUMPI PUSH2 0x378 JUMP JUMPDEST DUP1 PUSH4 0x63CF3CFF EQ PUSH2 0x70F JUMPI DUP1 PUSH4 0x6A4BD5A6 EQ PUSH2 0x72F JUMPI DUP1 PUSH4 0x6C1F89ED EQ PUSH2 0x74D JUMPI PUSH2 0x378 JUMP JUMPDEST DUP1 PUSH4 0x30400A86 GT PUSH2 0x31A JUMPI DUP1 PUSH4 0x39509351 GT PUSH2 0x2F4 JUMPI DUP1 PUSH4 0x39509351 EQ PUSH2 0x62B JUMPI DUP1 PUSH4 0x3E332F16 EQ PUSH2 0x68F JUMPI DUP1 PUSH4 0x3F2B437D EQ PUSH2 0x6C3 JUMPI DUP1 PUSH4 0x483F3AC7 EQ PUSH2 0x6E1 JUMPI PUSH2 0x378 JUMP JUMPDEST DUP1 PUSH4 0x30400A86 EQ PUSH2 0x54C JUMPI DUP1 PUSH4 0x305E2DAF EQ PUSH2 0x5B2 JUMPI DUP1 PUSH4 0x313CE567 EQ PUSH2 0x60A JUMPI PUSH2 0x378 JUMP JUMPDEST DUP1 PUSH4 0x18160DDD GT PUSH2 0x356 JUMPI DUP1 PUSH4 0x18160DDD EQ PUSH2 0x482 JUMPI DUP1 PUSH4 0x1F93ABD4 EQ PUSH2 0x4A0 JUMPI DUP1 PUSH4 0x23B872DD EQ PUSH2 0x4AA JUMPI DUP1 PUSH4 0x2945AC68 EQ PUSH2 0x52E JUMPI PUSH2 0x378 JUMP JUMPDEST DUP1 PUSH4 0x3FF8E88 EQ PUSH2 0x37D JUMPI DUP1 PUSH4 0x6FDDE03 EQ PUSH2 0x39B JUMPI DUP1 PUSH4 0x95EA7B3 EQ PUSH2 0x41E JUMPI JUMPDEST PUSH1 0x0 DUP1 REVERT JUMPDEST PUSH2 0x385 PUSH2 0x113E JUMP JUMPDEST PUSH1 0x40 MLOAD DUP1 DUP3 DUP2 MSTORE PUSH1 0x20 ADD SWAP2 POP POP PUSH1 0x40 MLOAD DUP1 SWAP2 SUB SWAP1 RETURN JUMPDEST PUSH2 0x3A3 PUSH2 0x1144 JUMP JUMPDEST PUSH1 0x40 MLOAD DUP1 DUP1 PUSH1 0x20 ADD DUP3 DUP2 SUB DUP3 MSTORE DUP4 DUP2 DUP2 MLOAD DUP2 MSTORE PUSH1 0x20 ADD SWAP2 POP DUP1 MLOAD SWAP1 PUSH1 0x20 ADD SWAP1 DUP1 DUP4 DUP4 PUSH1 0x0 JUMPDEST DUP4 DUP2 LT ISZERO PUSH2 0x3E3 JUMPI DUP1 DUP3 ADD MLOAD DUP2 DUP5 ADD MSTORE PUSH1 0x20 DUP2 ADD SWAP1 POP PUSH2 0x3C8 JUMP JUMPDEST POP POP POP POP SWAP1 POP SWAP1 DUP2 ADD SWAP1 PUSH1 0x1F AND DUP1 ISZERO PUSH2 0x410 JUMPI DUP1 DUP3 SUB DUP1 MLOAD PUSH1 0x1 DUP4 PUSH1 0x20 SUB PUSH2 0x100 EXP SUB NOT AND DUP2 MSTORE PUSH1 0x20 ADD SWAP2 POP JUMPDEST POP SWAP3 POP POP POP PUSH1 0x40 MLOAD DUP1 SWAP2 SUB SWAP1 RETURN JUMPDEST PUSH2 0x46A PUSH1 0x4 DUP1 CALLDATASIZE SUB PUSH1 0x40 DUP2 LT ISZERO PUSH2 0x434 JUMPI PUSH1 0x0 DUP1 REVERT JUMPDEST DUP2 ADD SWAP1 DUP1 DUP1 CALLDATALOAD PUSH20 0xFFFFFFFFFFFFFFFFFFFFFFFFFFFFFFFFFFFFFFFF AND SWAP1 PUSH1 0x20 ADD SWAP1 SWAP3 SWAP2 SWAP1 DUP1 CALLDATALOAD SWAP1 PUSH1 0x20 ADD SWAP1 SWAP3 SWAP2 SWAP1 POP POP POP PUSH2 0x11E6 JUMP JUMPDEST PUSH1 0x40 MLOAD DUP1 DUP3 ISZERO ISZERO DUP2 MSTORE PUSH1 0x20 ADD SWAP2 POP POP PUSH1 0x40 MLOAD DUP1 SWAP2 SUB SWAP1 RETURN JUMPDEST PUSH2 0x48A PUSH2 0x1204 JUMP JUMPDEST PUSH1 0x40 MLOAD DUP1 DUP3 DUP2 MSTORE PUSH1 0x20 ADD SWAP2 POP POP PUSH1 0x40 MLOAD DUP1 SWAP2 SUB SWAP1 RETURN JUMPDEST PUSH2 0x4A8 PUSH2 0x120E JUMP JUMPDEST STOP JUMPDEST PUSH2 0x516 PUSH1 0x4 DUP1 CALLDATASIZE SUB PUSH1 0x60 DUP2 LT ISZERO PUSH2 0x4C0 JUMPI PUSH1 0x0 DUP1 REVERT JUMPDEST DUP2 ADD SWAP1 DUP1 DUP1 CALLDATALOAD PUSH20 0xFFFFFFFFFFFFFFFFFFFFFFFFFFFFFFFFFFFFFFFF AND SWAP1 PUSH1 0x20 ADD SWAP1 SWAP3 SWAP2 SWAP1 DUP1 CALLDATALOAD PUSH20 0xFFFFFFFFFFFFFFFFFFFFFFFFFFFFFFFFFFFFFFFF AND SWAP1 PUSH1 0x20 ADD SWAP1 SWAP3 SWAP2 SWAP1 DUP1 CALLDATALOAD SWAP1 PUSH1 0x20 ADD SWAP1 SWAP3 SWAP2 SWAP1 POP POP POP PUSH2 0x127C JUMP JUMPDEST PUSH1 0x40 MLOAD DUP1 DUP3 ISZERO ISZERO DUP2 MSTORE PUSH1 0x20 ADD SWAP2 POP POP PUSH1 0x40 MLOAD DUP1 SWAP2 SUB SWAP1 RETURN JUMPDEST PUSH2 0x536 PUSH2 0x1355 JUMP JUMPDEST PUSH1 0x40 MLOAD DUP1 DUP3 DUP2 MSTORE PUSH1 0x20 ADD SWAP2 POP POP PUSH1 0x40 MLOAD DUP1 SWAP2 SUB SWAP1 RETURN JUMPDEST PUSH2 0x58E PUSH1 0x4 DUP1 CALLDATASIZE SUB PUSH1 0x20 DUP2 LT ISZERO PUSH2 0x562 JUMPI PUSH1 0x0 DUP1 REVERT JUMPDEST DUP2 ADD SWAP1 DUP1 DUP1 CALLDATALOAD PUSH20 0xFFFFFFFFFFFFFFFFFFFFFFFFFFFFFFFFFFFFFFFF AND SWAP1 PUSH1 0x20 ADD SWAP1 SWAP3 SWAP2 SWAP1 POP POP POP PUSH2 0x135B JUMP JUMPDEST PUSH1 0x40 MLOAD DUP1 DUP5 DUP2 MSTORE PUSH1 0x20 ADD DUP4 DUP2 MSTORE PUSH1 0x20 ADD DUP3 DUP2 MSTORE PUSH1 0x20 ADD SWAP4 POP POP POP POP PUSH1 0x40 MLOAD DUP1 SWAP2 SUB SWAP1 RETURN JUMPDEST PUSH2 0x5F4 PUSH1 0x4 DUP1 CALLDATASIZE SUB PUSH1 0x20 DUP2 LT ISZERO PUSH2 0x5C8 JUMPI PUSH1 0x0 DUP1 REVERT JUMPDEST DUP2 ADD SWAP1 DUP1 DUP1 CALLDATALOAD PUSH20 0xFFFFFFFFFFFFFFFFFFFFFFFFFFFFFFFFFFFFFFFF AND SWAP1 PUSH1 0x20 ADD SWAP1 SWAP3 SWAP2 SWAP1 POP POP POP PUSH2 0x1385 JUMP JUMPDEST PUSH1 0x40 MLOAD DUP1 DUP3 DUP2 MSTORE PUSH1 0x20 ADD SWAP2 POP POP PUSH1 0x40 MLOAD DUP1 SWAP2 SUB SWAP1 RETURN JUMPDEST PUSH2 0x612 PUSH2 0x13D1 JUMP JUMPDEST PUSH1 0x40 MLOAD DUP1 DUP3 PUSH1 0xFF AND DUP2 MSTORE PUSH1 0x20 ADD SWAP2 POP POP PUSH1 0x40 MLOAD DUP1 SWAP2 SUB SWAP1 RETURN JUMPDEST PUSH2 0x677 PUSH1 0x4 DUP1 CALLDATASIZE SUB PUSH1 0x40 DUP2 LT ISZERO PUSH2 0x641 JUMPI PUSH1 0x0 DUP1 REVERT JUMPDEST DUP2 ADD SWAP1 DUP1 DUP1 CALLDATALOAD PUSH20 0xFFFFFFFFFFFFFFFFFFFFFFFFFFFFFFFFFFFFFFFF AND SWAP1 PUSH1 0x20 ADD SWAP1 SWAP3 SWAP2 SWAP1 DUP1 CALLDATALOAD SWAP1 PUSH1 0x20 ADD SWAP1 SWAP3 SWAP2 SWAP1 POP POP POP PUSH2 0x13E8 JUMP JUMPDEST PUSH1 0x40 MLOAD DUP1 DUP3 ISZERO ISZERO DUP2 MSTORE PUSH1 0x20 ADD SWAP2 POP POP PUSH1 0x40 MLOAD DUP1 SWAP2 SUB SWAP1 RETURN JUMPDEST PUSH2 0x697 PUSH2 0x149B JUMP JUMPDEST PUSH1 0x40 MLOAD DUP1 DUP3 PUSH20 0xFFFFFFFFFFFFFFFFFFFFFFFFFFFFFFFFFFFFFFFF AND DUP2 MSTORE PUSH1 0x20 ADD SWAP2 POP POP PUSH1 0x40 MLOAD DUP1 SWAP2 SUB SWAP1 RETURN JUMPDEST PUSH2 0x6CB PUSH2 0x14C1 JUMP JUMPDEST PUSH1 0x40 MLOAD DUP1 DUP3 DUP2 MSTORE PUSH1 0x20 ADD SWAP2 POP POP PUSH1 0x40 MLOAD DUP1 SWAP2 SUB SWAP1 RETURN JUMPDEST PUSH2 0x70D PUSH1 0x4 DUP1 CALLDATASIZE SUB PUSH1 0x20 DUP2 LT ISZERO PUSH2 0x6F7 JUMPI PUSH1 0x0 DUP1 REVERT JUMPDEST DUP2 ADD SWAP1 DUP1 DUP1 CALLDATALOAD SWAP1 PUSH1 0x20 ADD SWAP1 SWAP3 SWAP2 SWAP1 POP POP POP PUSH2 0x14C7 JUMP JUMPDEST STOP JUMPDEST PUSH2 0x717 PUSH2 0x1808 JUMP JUMPDEST PUSH1 0x40 MLOAD DUP1 DUP3 ISZERO ISZERO DUP2 MSTORE PUSH1 0x20 ADD SWAP2 POP POP PUSH1 0x40 MLOAD DUP1 SWAP2 SUB SWAP1 RETURN JUMPDEST PUSH2 0x737 PUSH2 0x181B JUMP JUMPDEST PUSH1 0x40 MLOAD DUP1 DUP3 DUP2 MSTORE PUSH1 0x20 ADD SWAP2 POP POP PUSH1 0x40 MLOAD DUP1 SWAP2 SUB SWAP1 RETURN JUMPDEST PUSH2 0x755 PUSH2 0x1821 JUMP JUMPDEST PUSH1 0x40 MLOAD DUP1 DUP3 DUP2 MSTORE PUSH1 0x20 ADD SWAP2 POP POP PUSH1 0x40 MLOAD DUP1 SWAP2 SUB SWAP1 RETURN JUMPDEST PUSH2 0x797 PUSH1 0x4 DUP1 CALLDATASIZE SUB PUSH1 0x20 DUP2 LT ISZERO PUSH2 0x781 JUMPI PUSH1 0x0 DUP1 REVERT JUMPDEST DUP2 ADD SWAP1 DUP1 DUP1 CALLDATALOAD SWAP1 PUSH1 0x20 ADD SWAP1 SWAP3 SWAP2 SWAP1 POP POP POP PUSH2 0x1827 JUMP JUMPDEST STOP JUMPDEST PUSH2 0x7DB PUSH1 0x4 DUP1 CALLDATASIZE SUB PUSH1 0x20 DUP2 LT ISZERO PUSH2 0x7AF JUMPI PUSH1 0x0 DUP1 REVERT JUMPDEST DUP2 ADD SWAP1 DUP1 DUP1 CALLDATALOAD PUSH20 0xFFFFFFFFFFFFFFFFFFFFFFFFFFFFFFFFFFFFFFFF AND SWAP1 PUSH1 0x20 ADD SWAP1 SWAP3 SWAP2 SWAP1 POP POP POP PUSH2 0x183C JUMP JUMPDEST PUSH1 0x40 MLOAD DUP1 DUP3 DUP2 MSTORE PUSH1 0x20 ADD SWAP2 POP POP PUSH1 0x40 MLOAD DUP1 SWAP2 SUB SWAP1 RETURN JUMPDEST PUSH2 0x7F9 PUSH2 0x1884 JUMP JUMPDEST STOP JUMPDEST PUSH2 0x827 PUSH1 0x4 DUP1 CALLDATASIZE SUB PUSH1 0x20 DUP2 LT ISZERO PUSH2 0x811 JUMPI PUSH1 0x0 DUP1 REVERT JUMPDEST DUP2 ADD SWAP1 DUP1 DUP1 CALLDATALOAD SWAP1 PUSH1 0x20 ADD SWAP1 SWAP3 SWAP2 SWAP1 POP POP POP PUSH2 0x19F4 JUMP JUMPDEST STOP JUMPDEST PUSH2 0x889 PUSH1 0x4 DUP1 CALLDATASIZE SUB PUSH1 0x80 DUP2 LT ISZERO PUSH2 0x83F JUMPI PUSH1 0x0 DUP1 REVERT JUMPDEST DUP2 ADD SWAP1 DUP1 DUP1 CALLDATALOAD PUSH20 0xFFFFFFFFFFFFFFFFFFFFFFFFFFFFFFFFFFFFFFFF AND SWAP1 PUSH1 0x20 ADD SWAP1 SWAP3 SWAP2 SWAP1 DUP1 CALLDATALOAD SWAP1 PUSH1 0x20 ADD SWAP1 SWAP3 SWAP2 SWAP1 DUP1 CALLDATALOAD SWAP1 PUSH1 0x20 ADD SWAP1 SWAP3 SWAP2 SWAP1 DUP1 CALLDATALOAD SWAP1 PUSH1 0x20 ADD SWAP1 SWAP3 SWAP2 SWAP1 POP POP POP PUSH2 0x1B25 JUMP JUMPDEST STOP JUMPDEST PUSH2 0x893 PUSH2 0x1C84 JUMP JUMPDEST PUSH1 0x40 MLOAD DUP1 DUP3 DUP2 MSTORE PUSH1 0x20 ADD SWAP2 POP POP PUSH1 0x40 MLOAD DUP1 SWAP2 SUB SWAP1 RETURN JUMPDEST PUSH2 0x8EB PUSH1 0x4 DUP1 CALLDATASIZE SUB PUSH1 0x20 DUP2 LT ISZERO PUSH2 0x8BF JUMPI PUSH1 0x0 DUP1 REVERT JUMPDEST DUP2 ADD SWAP1 DUP1 DUP1 CALLDATALOAD PUSH20 0xFFFFFFFFFFFFFFFFFFFFFFFFFFFFFFFFFFFFFFFF AND SWAP1 PUSH1 0x20 ADD SWAP1 SWAP3 SWAP2 SWAP1 POP POP POP PUSH2 0x1C8A JUMP JUMPDEST PUSH1 0x40 MLOAD DUP1 DUP3 DUP2 MSTORE PUSH1 0x20 ADD SWAP2 POP POP PUSH1 0x40 MLOAD DUP1 SWAP2 SUB SWAP1 RETURN JUMPDEST PUSH2 0x909 PUSH2 0x1CD6 JUMP JUMPDEST PUSH1 0x40 MLOAD DUP1 DUP3 DUP2 MSTORE PUSH1 0x20 ADD SWAP2 POP POP PUSH1 0x40 MLOAD DUP1 SWAP2 SUB SWAP1 RETURN JUMPDEST PUSH2 0x927 PUSH2 0x1CDC JUMP JUMPDEST PUSH1 0x40 MLOAD DUP1 DUP3 DUP2 MSTORE PUSH1 0x20 ADD SWAP2 POP POP PUSH1 0x40 MLOAD DUP1 SWAP2 SUB SWAP1 RETURN JUMPDEST PUSH2 0x945 PUSH2 0x1CE2 JUMP JUMPDEST PUSH1 0x40 MLOAD DUP1 DUP3 DUP2 MSTORE PUSH1 0x20 ADD SWAP2 POP POP PUSH1 0x40 MLOAD DUP1 SWAP2 SUB SWAP1 RETURN JUMPDEST PUSH2 0x963 PUSH2 0x1CE8 JUMP JUMPDEST PUSH1 0x40 MLOAD DUP1 DUP3 DUP2 MSTORE PUSH1 0x20 ADD SWAP2 POP POP PUSH1 0x40 MLOAD DUP1 SWAP2 SUB SWAP1 RETURN JUMPDEST PUSH2 0x9C5 PUSH1 0x4 DUP1 CALLDATASIZE SUB PUSH1 0x40 DUP2 LT ISZERO PUSH2 0x98F JUMPI PUSH1 0x0 DUP1 REVERT JUMPDEST DUP2 ADD SWAP1 DUP1 DUP1 CALLDATALOAD PUSH20 0xFFFFFFFFFFFFFFFFFFFFFFFFFFFFFFFFFFFFFFFF AND SWAP1 PUSH1 0x20 ADD SWAP1 SWAP3 SWAP2 SWAP1 DUP1 CALLDATALOAD SWAP1 PUSH1 0x20 ADD SWAP1 SWAP3 SWAP2 SWAP1 POP POP POP PUSH2 0x1CEE JUMP JUMPDEST STOP JUMPDEST PUSH2 0x9CF PUSH2 0x1ECD JUMP JUMPDEST PUSH1 0x40 MLOAD DUP1 DUP3 DUP2 MSTORE PUSH1 0x20 ADD SWAP2 POP POP PUSH1 0x40 MLOAD DUP1 SWAP2 SUB SWAP1 RETURN JUMPDEST PUSH2 0x9ED PUSH2 0x1ED3 JUMP JUMPDEST PUSH1 0x40 MLOAD DUP1 DUP3 DUP2 MSTORE PUSH1 0x20 ADD SWAP2 POP POP PUSH1 0x40 MLOAD DUP1 SWAP2 SUB SWAP1 RETURN JUMPDEST PUSH2 0xA0B PUSH2 0x1ED9 JUMP JUMPDEST PUSH1 0x40 MLOAD DUP1 DUP3 PUSH20 0xFFFFFFFFFFFFFFFFFFFFFFFFFFFFFFFFFFFFFFFF AND DUP2 MSTORE PUSH1 0x20 ADD SWAP2 POP POP PUSH1 0x40 MLOAD DUP1 SWAP2 SUB SWAP1 RETURN JUMPDEST PUSH2 0xA63 PUSH1 0x4 DUP1 CALLDATASIZE SUB PUSH1 0x20 DUP2 LT ISZERO PUSH2 0xA4D JUMPI PUSH1 0x0 DUP1 REVERT JUMPDEST DUP2 ADD SWAP1 DUP1 DUP1 CALLDATALOAD SWAP1 PUSH1 0x20 ADD SWAP1 SWAP3 SWAP2 SWAP1 POP POP POP PUSH2 0x1F03 JUMP JUMPDEST PUSH1 0x40 MLOAD DUP1 DUP3 DUP2 MSTORE PUSH1 0x20 ADD SWAP2 POP POP PUSH1 0x40 MLOAD DUP1 SWAP2 SUB SWAP1 RETURN JUMPDEST PUSH2 0xA81 PUSH2 0x1FDB JUMP JUMPDEST PUSH1 0x40 MLOAD DUP1 DUP3 DUP2 MSTORE PUSH1 0x20 ADD SWAP2 POP POP PUSH1 0x40 MLOAD DUP1 SWAP2 SUB SWAP1 RETURN JUMPDEST PUSH2 0xAD9 PUSH1 0x4 DUP1 CALLDATASIZE SUB PUSH1 0x20 DUP2 LT ISZERO PUSH2 0xAAD JUMPI PUSH1 0x0 DUP1 REVERT JUMPDEST DUP2 ADD SWAP1 DUP1 DUP1 CALLDATALOAD PUSH20 0xFFFFFFFFFFFFFFFFFFFFFFFFFFFFFFFFFFFFFFFF AND SWAP1 PUSH1 0x20 ADD SWAP1 SWAP3 SWAP2 SWAP1 POP POP POP PUSH2 0x1FE1 JUMP JUMPDEST PUSH1 0x40 MLOAD DUP1 DUP3 DUP2 MSTORE PUSH1 0x20 ADD SWAP2 POP POP PUSH1 0x40 MLOAD DUP1 SWAP2 SUB SWAP1 RETURN JUMPDEST PUSH2 0xAF7 PUSH2 0x1FF9 JUMP JUMPDEST PUSH1 0x40 MLOAD DUP1 DUP1 PUSH1 0x20 ADD DUP3 DUP2 SUB DUP3 MSTORE DUP4 DUP2 DUP2 MLOAD DUP2 MSTORE PUSH1 0x20 ADD SWAP2 POP DUP1 MLOAD SWAP1 PUSH1 0x20 ADD SWAP1 DUP1 DUP4 DUP4 PUSH1 0x0 JUMPDEST DUP4 DUP2 LT ISZERO PUSH2 0xB37 JUMPI DUP1 DUP3 ADD MLOAD DUP2 DUP5 ADD MSTORE PUSH1 0x20 DUP2 ADD SWAP1 POP PUSH2 0xB1C JUMP JUMPDEST POP POP POP POP SWAP1 POP SWAP1 DUP2 ADD SWAP1 PUSH1 0x1F AND DUP1 ISZERO PUSH2 0xB64 JUMPI DUP1 DUP3 SUB DUP1 MLOAD PUSH1 0x1 DUP4 PUSH1 0x20 SUB PUSH2 0x100 EXP SUB NOT AND DUP2 MSTORE PUSH1 0x20 ADD SWAP2 POP JUMPDEST POP SWAP3 POP POP POP PUSH1 0x40 MLOAD DUP1 SWAP2 SUB SWAP1 RETURN JUMPDEST PUSH2 0xBB4 PUSH1 0x4 DUP1 CALLDATASIZE SUB PUSH1 0x20 DUP2 LT ISZERO PUSH2 0xB88 JUMPI PUSH1 0x0 DUP1 REVERT JUMPDEST DUP2 ADD SWAP1 DUP1 DUP1 CALLDATALOAD PUSH20 0xFFFFFFFFFFFFFFFFFFFFFFFFFFFFFFFFFFFFFFFF AND SWAP1 PUSH1 0x20 ADD SWAP1 SWAP3 SWAP2 SWAP1 POP POP POP PUSH2 0x209B JUMP JUMPDEST PUSH1 0x40 MLOAD DUP1 DUP3 DUP2 MSTORE PUSH1 0x20 ADD SWAP2 POP POP PUSH1 0x40 MLOAD DUP1 SWAP2 SUB SWAP1 RETURN JUMPDEST PUSH2 0xC0A PUSH1 0x4 DUP1 CALLDATASIZE SUB PUSH1 0x60 DUP2 LT ISZERO PUSH2 0xBE0 JUMPI PUSH1 0x0 DUP1 REVERT JUMPDEST DUP2 ADD SWAP1 DUP1 DUP1 CALLDATALOAD SWAP1 PUSH1 0x20 ADD SWAP1 SWAP3 SWAP2 SWAP1 DUP1 CALLDATALOAD SWAP1 PUSH1 0x20 ADD SWAP1 SWAP3 SWAP2 SWAP1 DUP1 CALLDATALOAD SWAP1 PUSH1 0x20 ADD SWAP1 SWAP3 SWAP2 SWAP1 POP POP POP PUSH2 0x20E7 JUMP JUMPDEST STOP JUMPDEST PUSH2 0xC58 PUSH1 0x4 DUP1 CALLDATASIZE SUB PUSH1 0x40 DUP2 LT ISZERO PUSH2 0xC22 JUMPI PUSH1 0x0 DUP1 REVERT JUMPDEST DUP2 ADD SWAP1 DUP1 DUP1 CALLDATALOAD PUSH20 0xFFFFFFFFFFFFFFFFFFFFFFFFFFFFFFFFFFFFFFFF AND SWAP1 PUSH1 0x20 ADD SWAP1 SWAP3 SWAP2 SWAP1 DUP1 CALLDATALOAD SWAP1 PUSH1 0x20 ADD SWAP1 SWAP3 SWAP2 SWAP1 POP POP POP PUSH2 0x22E4 JUMP JUMPDEST PUSH1 0x40 MLOAD DUP1 DUP3 ISZERO ISZERO DUP2 MSTORE PUSH1 0x20 ADD SWAP2 POP POP PUSH1 0x40 MLOAD DUP1 SWAP2 SUB SWAP1 RETURN JUMPDEST PUSH2 0xC78 PUSH2 0x23B1 JUMP JUMPDEST STOP JUMPDEST PUSH2 0xCC6 PUSH1 0x4 DUP1 CALLDATASIZE SUB PUSH1 0x40 DUP2 LT ISZERO PUSH2 0xC90 JUMPI PUSH1 0x0 DUP1 REVERT JUMPDEST DUP2 ADD SWAP1 DUP1 DUP1 CALLDATALOAD PUSH20 0xFFFFFFFFFFFFFFFFFFFFFFFFFFFFFFFFFFFFFFFF AND SWAP1 PUSH1 0x20 ADD SWAP1 SWAP3 SWAP2 SWAP1 DUP1 CALLDATALOAD SWAP1 PUSH1 0x20 ADD SWAP1 SWAP3 SWAP2 SWAP1 POP POP POP PUSH2 0x248C JUMP JUMPDEST PUSH1 0x40 MLOAD DUP1 DUP3 ISZERO ISZERO DUP2 MSTORE PUSH1 0x20 ADD SWAP2 POP POP PUSH1 0x40 MLOAD DUP1 SWAP2 SUB SWAP1 RETURN JUMPDEST PUSH2 0xCE6 PUSH2 0x24AA JUMP JUMPDEST PUSH1 0x40 MLOAD DUP1 DUP3 DUP2 MSTORE PUSH1 0x20 ADD SWAP2 POP POP PUSH1 0x40 MLOAD DUP1 SWAP2 SUB SWAP1 RETURN JUMPDEST PUSH2 0xD04 PUSH2 0x24B0 JUMP JUMPDEST PUSH1 0x40 MLOAD DUP1 DUP3 DUP2 MSTORE PUSH1 0x20 ADD SWAP2 POP POP PUSH1 0x40 MLOAD DUP1 SWAP2 SUB SWAP1 RETURN JUMPDEST PUSH2 0xD46 PUSH1 0x4 DUP1 CALLDATASIZE SUB PUSH1 0x20 DUP2 LT ISZERO PUSH2 0xD30 JUMPI PUSH1 0x0 DUP1 REVERT JUMPDEST DUP2 ADD SWAP1 DUP1 DUP1 CALLDATALOAD SWAP1 PUSH1 0x20 ADD SWAP1 SWAP3 SWAP2 SWAP1 POP POP POP PUSH2 0x24B6 JUMP JUMPDEST STOP JUMPDEST PUSH2 0xD50 PUSH2 0x25E7 JUMP JUMPDEST PUSH1 0x40 MLOAD DUP1 DUP3 DUP2 MSTORE PUSH1 0x20 ADD SWAP2 POP POP PUSH1 0x40 MLOAD DUP1 SWAP2 SUB SWAP1 RETURN JUMPDEST PUSH2 0xD92 PUSH1 0x4 DUP1 CALLDATASIZE SUB PUSH1 0x20 DUP2 LT ISZERO PUSH2 0xD7C JUMPI PUSH1 0x0 DUP1 REVERT JUMPDEST DUP2 ADD SWAP1 DUP1 DUP1 CALLDATALOAD SWAP1 PUSH1 0x20 ADD SWAP1 SWAP3 SWAP2 SWAP1 POP POP POP PUSH2 0x25ED JUMP JUMPDEST STOP JUMPDEST PUSH2 0xDC0 PUSH1 0x4 DUP1 CALLDATASIZE SUB PUSH1 0x20 DUP2 LT ISZERO PUSH2 0xDAA JUMPI PUSH1 0x0 DUP1 REVERT JUMPDEST DUP2 ADD SWAP1 DUP1 DUP1 CALLDATALOAD SWAP1 PUSH1 0x20 ADD SWAP1 SWAP3 SWAP2 SWAP1 POP POP POP PUSH2 0x27BA JUMP JUMPDEST STOP JUMPDEST PUSH2 0xE04 PUSH1 0x4 DUP1 CALLDATASIZE SUB PUSH1 0x20 DUP2 LT ISZERO PUSH2 0xDD8 JUMPI PUSH1 0x0 DUP1 REVERT JUMPDEST DUP2 ADD SWAP1 DUP1 DUP1 CALLDATALOAD PUSH20 0xFFFFFFFFFFFFFFFFFFFFFFFFFFFFFFFFFFFFFFFF AND SWAP1 PUSH1 0x20 ADD SWAP1 SWAP3 SWAP2 SWAP1 POP POP POP PUSH2 0x27CF JUMP JUMPDEST STOP JUMPDEST PUSH2 0xE68 PUSH1 0x4 DUP1 CALLDATASIZE SUB PUSH1 0x40 DUP2 LT ISZERO PUSH2 0xE1C JUMPI PUSH1 0x0 DUP1 REVERT JUMPDEST DUP2 ADD SWAP1 DUP1 DUP1 CALLDATALOAD PUSH20 0xFFFFFFFFFFFFFFFFFFFFFFFFFFFFFFFFFFFFFFFF AND SWAP1 PUSH1 0x20 ADD SWAP1 SWAP3 SWAP2 SWAP1 DUP1 CALLDATALOAD PUSH20 0xFFFFFFFFFFFFFFFFFFFFFFFFFFFFFFFFFFFFFFFF AND SWAP1 PUSH1 0x20 ADD SWAP1 SWAP3 SWAP2 SWAP1 POP POP POP PUSH2 0x2965 JUMP JUMPDEST PUSH1 0x40 MLOAD DUP1 DUP3 DUP2 MSTORE PUSH1 0x20 ADD SWAP2 POP POP PUSH1 0x40 MLOAD DUP1 SWAP2 SUB SWAP1 RETURN JUMPDEST PUSH2 0xFD4 PUSH1 0x4 DUP1 CALLDATASIZE SUB PUSH1 0x60 DUP2 LT ISZERO PUSH2 0xE94 JUMPI PUSH1 0x0 DUP1 REVERT JUMPDEST DUP2 ADD SWAP1 DUP1 DUP1 CALLDATALOAD SWAP1 PUSH1 0x20 ADD SWAP1 PUSH5 0x100000000 DUP2 GT ISZERO PUSH2 0xEB1 JUMPI PUSH1 0x0 DUP1 REVERT JUMPDEST DUP3 ADD DUP4 PUSH1 0x20 DUP3 ADD GT ISZERO PUSH2 0xEC3 JUMPI PUSH1 0x0 DUP1 REVERT JUMPDEST DUP1 CALLDATALOAD SWAP1 PUSH1 0x20 ADD SWAP2 DUP5 PUSH1 0x20 DUP4 MUL DUP5 ADD GT PUSH5 0x100000000 DUP4 GT OR ISZERO PUSH2 0xEE5 JUMPI PUSH1 0x0 DUP1 REVERT JUMPDEST SWAP2 SWAP1 DUP1 DUP1 PUSH1 0x20 MUL PUSH1 0x20 ADD PUSH1 0x40 MLOAD SWAP1 DUP2 ADD PUSH1 0x40 MSTORE DUP1 SWAP4 SWAP3 SWAP2 SWAP1 DUP2 DUP2 MSTORE PUSH1 0x20 ADD DUP4 DUP4 PUSH1 0x20 MUL DUP1 DUP3 DUP5 CALLDATACOPY PUSH1 0x0 DUP2 DUP5 ADD MSTORE PUSH1 0x1F NOT PUSH1 0x1F DUP3 ADD AND SWAP1 POP DUP1 DUP4 ADD SWAP3 POP POP POP POP POP POP POP SWAP2 SWAP3 SWAP2 SWAP3 SWAP1 DUP1 CALLDATALOAD SWAP1 PUSH1 0x20 ADD SWAP1 PUSH5 0x100000000 DUP2 GT ISZERO PUSH2 0xF45 JUMPI PUSH1 0x0 DUP1 REVERT JUMPDEST DUP3 ADD DUP4 PUSH1 0x20 DUP3 ADD GT ISZERO PUSH2 0xF57 JUMPI PUSH1 0x0 DUP1 REVERT JUMPDEST DUP1 CALLDATALOAD SWAP1 PUSH1 0x20 ADD SWAP2 DUP5 PUSH1 0x20 DUP4 MUL DUP5 ADD GT PUSH5 0x100000000 DUP4 GT OR ISZERO PUSH2 0xF79 JUMPI PUSH1 0x0 DUP1 REVERT JUMPDEST SWAP2 SWAP1 DUP1 DUP1 PUSH1 0x20 MUL PUSH1 0x20 ADD PUSH1 0x40 MLOAD SWAP1 DUP2 ADD PUSH1 0x40 MSTORE DUP1 SWAP4 SWAP3 SWAP2 SWAP1 DUP2 DUP2 MSTORE PUSH1 0x20 ADD DUP4 DUP4 PUSH1 0x20 MUL DUP1 DUP3 DUP5 CALLDATACOPY PUSH1 0x0 DUP2 DUP5 ADD MSTORE PUSH1 0x1F NOT PUSH1 0x1F DUP3 ADD AND SWAP1 POP DUP1 DUP4 ADD SWAP3 POP POP POP POP POP POP POP SWAP2 SWAP3 SWAP2 SWAP3 SWAP1 DUP1 CALLDATALOAD ISZERO ISZERO SWAP1 PUSH1 0x20 ADD SWAP1 SWAP3 SWAP2 SWAP1 POP POP POP PUSH2 0x29EC JUMP JUMPDEST STOP JUMPDEST PUSH2 0xFDE PUSH2 0x2D11 JUMP JUMPDEST PUSH1 0x40 MLOAD DUP1 DUP3 DUP2 MSTORE PUSH1 0x20 ADD SWAP2 POP POP PUSH1 0x40 MLOAD DUP1 SWAP2 SUB SWAP1 RETURN JUMPDEST PUSH2 0xFFC PUSH2 0x2D17 JUMP JUMPDEST PUSH1 0x40 MLOAD DUP1 DUP3 DUP2 MSTORE PUSH1 0x20 ADD SWAP2 POP POP PUSH1 0x40 MLOAD DUP1 SWAP2 SUB SWAP1 RETURN JUMPDEST PUSH2 0x1054 PUSH1 0x4 DUP1 CALLDATASIZE SUB PUSH1 0x20 DUP2 LT ISZERO PUSH2 0x1028 JUMPI PUSH1 0x0 DUP1 REVERT JUMPDEST DUP2 ADD SWAP1 DUP1 DUP1 CALLDATALOAD PUSH20 0xFFFFFFFFFFFFFFFFFFFFFFFFFFFFFFFFFFFFFFFF AND SWAP1 PUSH1 0x20 ADD SWAP1 SWAP3 SWAP2 SWAP1 POP POP POP PUSH2 0x2D1D JUMP JUMPDEST PUSH1 0x40 MLOAD DUP1 DUP3 DUP2 MSTORE PUSH1 0x20 ADD SWAP2 POP POP PUSH1 0x40 MLOAD DUP1 SWAP2 SUB SWAP1 RETURN JUMPDEST PUSH2 0x10AC PUSH1 0x4 DUP1 CALLDATASIZE SUB PUSH1 0x20 DUP2 LT ISZERO PUSH2 0x1080 JUMPI PUSH1 0x0 DUP1 REVERT JUMPDEST DUP2 ADD SWAP1 DUP1 DUP1 CALLDATALOAD PUSH20 0xFFFFFFFFFFFFFFFFFFFFFFFFFFFFFFFFFFFFFFFF AND SWAP1 PUSH1 0x20 ADD SWAP1 SWAP3 SWAP2 SWAP1 POP POP POP PUSH2 0x2D37 JUMP JUMPDEST STOP JUMPDEST PUSH2 0x10DA PUSH1 0x4 DUP1 CALLDATASIZE SUB PUSH1 0x20 DUP2 LT ISZERO PUSH2 0x10C4 JUMPI PUSH1 0x0 DUP1 REVERT JUMPDEST DUP2 ADD SWAP1 DUP1 DUP1 CALLDATALOAD SWAP1 PUSH1 0x20 ADD SWAP1 SWAP3 SWAP2 SWAP1 POP POP POP PUSH2 0x2F2C JUMP JUMPDEST STOP JUMPDEST PUSH2 0x1128 PUSH1 0x4 DUP1 CALLDATASIZE SUB PUSH1 0x40 DUP2 LT ISZERO PUSH2 0x10F2 JUMPI PUSH1 0x0 DUP1 REVERT JUMPDEST DUP2 ADD SWAP1 DUP1 DUP1 CALLDATALOAD PUSH20 0xFFFFFFFFFFFFFFFFFFFFFFFFFFFFFFFFFFFFFFFF AND SWAP1 PUSH1 0x20 ADD SWAP1 SWAP3 SWAP2 SWAP1 DUP1 CALLDATALOAD SWAP1 PUSH1 0x20 ADD SWAP1 SWAP3 SWAP2 SWAP1 POP POP POP PUSH2 0x2F40 JUMP JUMPDEST PUSH1 0x40 MLOAD DUP1 DUP3 DUP2 MSTORE PUSH1 0x20 ADD SWAP2 POP POP PUSH1 0x40 MLOAD DUP1 SWAP2 SUB SWAP1 RETURN JUMPDEST PUSH1 0xA SLOAD DUP2 JUMP JUMPDEST PUSH1 0x60 PUSH1 0x3 DUP1 SLOAD PUSH1 0x1 DUP2 PUSH1 0x1 AND ISZERO PUSH2 0x100 MUL SUB AND PUSH1 0x2 SWAP1 DIV DUP1 PUSH1 0x1F ADD PUSH1 0x20 DUP1 SWAP2 DIV MUL PUSH1 0x20 ADD PUSH1 0x40 MLOAD SWAP1 DUP2 ADD PUSH1 0x40 MSTORE DUP1 SWAP3 SWAP2 SWAP1 DUP2 DUP2 MSTORE PUSH1 0x20 ADD DUP3 DUP1 SLOAD PUSH1 0x1 DUP2 PUSH1 0x1 AND ISZERO PUSH2 0x100 MUL SUB AND PUSH1 0x2 SWAP1 DIV DUP1 ISZERO PUSH2 0x11DC JUMPI DUP1 PUSH1 0x1F LT PUSH2 0x11B1 JUMPI PUSH2 0x100 DUP1 DUP4 SLOAD DIV MUL DUP4 MSTORE SWAP2 PUSH1 0x20 ADD SWAP2 PUSH2 0x11DC JUMP JUMPDEST DUP3 ADD SWAP2 SWAP1 PUSH1 0x0 MSTORE PUSH1 0x20 PUSH1 0x0 KECCAK256 SWAP1 JUMPDEST DUP2 SLOAD DUP2 MSTORE SWAP1 PUSH1 0x1 ADD SWAP1 PUSH1 0x20 ADD DUP1 DUP4 GT PUSH2 0x11BF JUMPI DUP3 SWAP1 SUB PUSH1 0x1F AND DUP3 ADD SWAP2 JUMPDEST POP POP POP POP POP SWAP1 POP SWAP1 JUMP JUMPDEST PUSH1 0x0 PUSH2 0x11FA PUSH2 0x11F3 PUSH2 0x3192 JUMP JUMPDEST DUP5 DUP5 PUSH2 0x319A JUMP JUMPDEST PUSH1 0x1 SWAP1 POP SWAP3 SWAP2 POP POP JUMP JUMPDEST PUSH1 0x0 PUSH1 0x2 SLOAD SWAP1 POP SWAP1 JUMP JUMPDEST PUSH1 0x0 ISZERO ISZERO PUSH1 0x19 PUSH1 0x0 SWAP1 SLOAD SWAP1 PUSH2 0x100 EXP SWAP1 DIV PUSH1 0xFF AND ISZERO ISZERO EQ PUSH2 0x127A JUMPI PUSH1 0x40 MLOAD PUSH32 0x8C379A000000000000000000000000000000000000000000000000000000000 DUP2 MSTORE PUSH1 0x4 ADD DUP1 DUP1 PUSH1 0x20 ADD DUP3 DUP2 SUB DUP3 MSTORE PUSH1 0x23 DUP2 MSTORE PUSH1 0x20 ADD DUP1 PUSH2 0x406C PUSH1 0x23 SWAP2 CODECOPY PUSH1 0x40 ADD SWAP2 POP POP PUSH1 0x40 MLOAD DUP1 SWAP2 SUB SWAP1 REVERT JUMPDEST JUMP JUMPDEST PUSH1 0x0 PUSH2 0x1289 DUP5 DUP5 DUP5 PUSH2 0x3391 JUMP JUMPDEST PUSH2 0x134A DUP5 PUSH2 0x1295 PUSH2 0x3192 JUMP JUMPDEST PUSH2 0x1345 DUP6 PUSH1 0x40 MLOAD DUP1 PUSH1 0x60 ADD PUSH1 0x40 MSTORE DUP1 PUSH1 0x28 DUP2 MSTORE PUSH1 0x20 ADD PUSH2 0x40B0 PUSH1 0x28 SWAP2 CODECOPY PUSH1 0x1 PUSH1 0x0 DUP12 PUSH20 0xFFFFFFFFFFFFFFFFFFFFFFFFFFFFFFFFFFFFFFFF AND PUSH20 0xFFFFFFFFFFFFFFFFFFFFFFFFFFFFFFFFFFFFFFFF AND DUP2 MSTORE PUSH1 0x20 ADD SWAP1 DUP2 MSTORE PUSH1 0x20 ADD PUSH1 0x0 KECCAK256 PUSH1 0x0 PUSH2 0x12FB PUSH2 0x3192 JUMP JUMPDEST PUSH20 0xFFFFFFFFFFFFFFFFFFFFFFFFFFFFFFFFFFFFFFFF AND PUSH20 0xFFFFFFFFFFFFFFFFFFFFFFFFFFFFFFFFFFFFFFFF AND DUP2 MSTORE PUSH1 0x20 ADD SWAP1 DUP2 MSTORE PUSH1 0x20 ADD PUSH1 0x0 KECCAK256 SLOAD PUSH2 0x3652 SWAP1 SWAP3 SWAP2 SWAP1 PUSH4 0xFFFFFFFF AND JUMP JUMPDEST PUSH2 0x319A JUMP JUMPDEST PUSH1 0x1 SWAP1 POP SWAP4 SWAP3 POP POP POP JUMP JUMPDEST PUSH1 0x15 SLOAD DUP2 JUMP JUMPDEST PUSH1 0x1A PUSH1 0x20 MSTORE DUP1 PUSH1 0x0 MSTORE PUSH1 0x40 PUSH1 0x0 KECCAK256 PUSH1 0x0 SWAP2 POP SWAP1 POP DUP1 PUSH1 0x0 ADD SLOAD SWAP1 DUP1 PUSH1 0x1 ADD SLOAD SWAP1 DUP1 PUSH1 0x2 ADD SLOAD SWAP1 POP DUP4 JUMP JUMPDEST PUSH1 0x0 PUSH1 0x1A PUSH1 0x0 DUP4 PUSH20 0xFFFFFFFFFFFFFFFFFFFFFFFFFFFFFFFFFFFFFFFF AND PUSH20 0xFFFFFFFFFFFFFFFFFFFFFFFFFFFFFFFFFFFFFFFF AND DUP2 MSTORE PUSH1 0x20 ADD SWAP1 DUP2 MSTORE PUSH1 0x20 ADD PUSH1 0x0 KECCAK256 PUSH1 0x2 ADD SLOAD SWAP1 POP SWAP2 SWAP1 POP JUMP JUMPDEST PUSH1 0x0 PUSH1 0x5 PUSH1 0x0 SWAP1 SLOAD SWAP1 PUSH2 0x100 EXP SWAP1 DIV PUSH1 0xFF AND SWAP1 POP SWAP1 JUMP JUMPDEST PUSH1 0x0 PUSH2 0x1491 PUSH2 0x13F5 PUSH2 0x3192 JUMP JUMPDEST DUP5 PUSH2 0x148C DUP6 PUSH1 0x1 PUSH1 0x0 PUSH2 0x1406 PUSH2 0x3192 JUMP JUMPDEST PUSH20 0xFFFFFFFFFFFFFFFFFFFFFFFFFFFFFFFFFFFFFFFF AND PUSH20 0xFFFFFFFFFFFFFFFFFFFFFFFFFFFFFFFFFFFFFFFF AND DUP2 MSTORE PUSH1 0x20 ADD SWAP1 DUP2 MSTORE PUSH1 0x20 ADD PUSH1 0x0 KECCAK256 PUSH1 0x0 DUP10 PUSH20 0xFFFFFFFFFFFFFFFFFFFFFFFFFFFFFFFFFFFFFFFF AND PUSH20 0xFFFFFFFFFFFFFFFFFFFFFFFFFFFFFFFFFFFFFFFF AND DUP2 MSTORE PUSH1 0x20 ADD SWAP1 DUP2 MSTORE PUSH1 0x20 ADD PUSH1 0x0 KECCAK256 SLOAD PUSH2 0x370C SWAP1 SWAP2 SWAP1 PUSH4 0xFFFFFFFF AND JUMP JUMPDEST PUSH2 0x319A JUMP JUMPDEST PUSH1 0x1 SWAP1 POP SWAP3 SWAP2 POP POP JUMP JUMPDEST PUSH1 0x6 PUSH1 0x0 SWAP1 SLOAD SWAP1 PUSH2 0x100 EXP SWAP1 DIV PUSH20 0xFFFFFFFFFFFFFFFFFFFFFFFFFFFFFFFFFFFFFFFF AND DUP2 JUMP JUMPDEST PUSH1 0x11 SLOAD DUP2 JUMP JUMPDEST PUSH2 0x14CF PUSH2 0x120E JUMP JUMPDEST PUSH1 0x1A PUSH1 0x0 CALLER PUSH20 0xFFFFFFFFFFFFFFFFFFFFFFFFFFFFFFFFFFFFFFFF AND PUSH20 0xFFFFFFFFFFFFFFFFFFFFFFFFFFFFFFFFFFFFFFFF AND DUP2 MSTORE PUSH1 0x20 ADD SWAP1 DUP2 MSTORE PUSH1 0x20 ADD PUSH1 0x0 KECCAK256 PUSH1 0x0 ADD SLOAD DUP2 GT ISZERO PUSH2 0x1587 JUMPI PUSH1 0x40 MLOAD PUSH32 0x8C379A000000000000000000000000000000000000000000000000000000000 DUP2 MSTORE PUSH1 0x4 ADD DUP1 DUP1 PUSH1 0x20 ADD DUP3 DUP2 SUB DUP3 MSTORE PUSH1 0x20 DUP2 MSTORE PUSH1 0x20 ADD DUP1 PUSH32 0x416D6F756E74206578636565647320617661696C61626C652062616C616E6365 DUP2 MSTORE POP PUSH1 0x20 ADD SWAP2 POP POP PUSH1 0x40 MLOAD DUP1 SWAP2 SUB SWAP1 REVERT JUMPDEST PUSH1 0x0 PUSH2 0x1592 CALLER PUSH2 0x3794 JUMP JUMPDEST SWAP1 POP PUSH1 0x0 PUSH2 0x15EB DUP4 PUSH1 0x1A PUSH1 0x0 CALLER PUSH20 0xFFFFFFFFFFFFFFFFFFFFFFFFFFFFFFFFFFFFFFFF AND PUSH20 0xFFFFFFFFFFFFFFFFFFFFFFFFFFFFFFFFFFFFFFFF AND DUP2 MSTORE PUSH1 0x20 ADD SWAP1 DUP2 MSTORE PUSH1 0x20 ADD PUSH1 0x0 KECCAK256 PUSH1 0x0 ADD SLOAD PUSH2 0x37F8 SWAP1 SWAP2 SWAP1 PUSH4 0xFFFFFFFF AND JUMP JUMPDEST PUSH1 0x1A PUSH1 0x0 CALLER PUSH20 0xFFFFFFFFFFFFFFFFFFFFFFFFFFFFFFFFFFFFFFFF AND PUSH20 0xFFFFFFFFFFFFFFFFFFFFFFFFFFFFFFFFFFFFFFFF AND DUP2 MSTORE PUSH1 0x20 ADD SWAP1 DUP2 MSTORE PUSH1 0x20 ADD PUSH1 0x0 KECCAK256 PUSH1 0x0 ADD DUP2 SWAP1 SSTORE POP PUSH2 0x1646 DUP4 PUSH1 0xE SLOAD PUSH2 0x37F8 SWAP1 SWAP2 SWAP1 PUSH4 0xFFFFFFFF AND JUMP JUMPDEST PUSH1 0xE DUP2 SWAP1 SSTORE POP PUSH1 0x0 PUSH1 0xE SLOAD GT ISZERO PUSH2 0x1683 JUMPI PUSH2 0x1680 PUSH2 0x3E8 PUSH2 0x1672 PUSH1 0x16 SLOAD DUP7 PUSH2 0x387B SWAP1 SWAP2 SWAP1 PUSH4 0xFFFFFFFF AND JUMP JUMPDEST PUSH2 0x3901 SWAP1 SWAP2 SWAP1 PUSH4 0xFFFFFFFF AND JUMP JUMPDEST SWAP1 POP JUMPDEST PUSH1 0x0 PUSH2 0x16AA DUP3 PUSH2 0x169C DUP6 DUP8 PUSH2 0x370C SWAP1 SWAP2 SWAP1 PUSH4 0xFFFFFFFF AND JUMP JUMPDEST PUSH2 0x37F8 SWAP1 SWAP2 SWAP1 PUSH4 0xFFFFFFFF AND JUMP JUMPDEST SWAP1 POP PUSH2 0x16B7 ADDRESS CALLER DUP4 PUSH2 0x3391 JUMP JUMPDEST PUSH1 0x0 PUSH2 0x16E2 PUSH2 0x3E8 PUSH2 0x16D4 PUSH1 0xC SLOAD DUP7 PUSH2 0x387B SWAP1 SWAP2 SWAP1 PUSH4 0xFFFFFFFF AND JUMP JUMPDEST PUSH2 0x3901 SWAP1 SWAP2 SWAP1 PUSH4 0xFFFFFFFF AND JUMP JUMPDEST SWAP1 POP PUSH2 0x1781 ADDRESS ADDRESS PUSH20 0xFFFFFFFFFFFFFFFFFFFFFFFFFFFFFFFFFFFFFFFF AND PUSH4 0x8DA5CB5B PUSH1 0x40 MLOAD DUP2 PUSH4 0xFFFFFFFF AND PUSH1 0xE0 SHL DUP2 MSTORE PUSH1 0x4 ADD PUSH1 0x20 PUSH1 0x40 MLOAD DUP1 DUP4 SUB DUP2 DUP7 DUP1 EXTCODESIZE ISZERO DUP1 ISZERO PUSH2 0x172E JUMPI PUSH1 0x0 DUP1 REVERT JUMPDEST POP GAS STATICCALL ISZERO DUP1 ISZERO PUSH2 0x1742 JUMPI RETURNDATASIZE PUSH1 0x0 DUP1 RETURNDATACOPY RETURNDATASIZE PUSH1 0x0 REVERT JUMPDEST POP POP POP POP PUSH1 0x40 MLOAD RETURNDATASIZE PUSH1 0x20 DUP2 LT ISZERO PUSH2 0x1758 JUMPI PUSH1 0x0 DUP1 REVERT JUMPDEST DUP2 ADD SWAP1 DUP1 DUP1 MLOAD SWAP1 PUSH1 0x20 ADD SWAP1 SWAP3 SWAP2 SWAP1 POP POP POP PUSH2 0x177C DUP5 DUP8 PUSH2 0x37F8 SWAP1 SWAP2 SWAP1 PUSH4 0xFFFFFFFF AND JUMP JUMPDEST PUSH2 0x3391 JUMP JUMPDEST PUSH1 0x0 DUP2 GT ISZERO PUSH2 0x1794 JUMPI PUSH2 0x1793 DUP2 PUSH2 0x398A JUMP JUMPDEST JUMPDEST PUSH32 0x33EF926B7771DF44FD5BF5A690410374540AA634051AF1E3A6DD2F67C94A18F1 CALLER DUP4 DUP6 DUP5 DUP9 PUSH1 0x40 MLOAD DUP1 DUP7 PUSH20 0xFFFFFFFFFFFFFFFFFFFFFFFFFFFFFFFFFFFFFFFF AND DUP2 MSTORE PUSH1 0x20 ADD DUP6 DUP2 MSTORE PUSH1 0x20 ADD DUP5 DUP2 MSTORE PUSH1 0x20 ADD DUP4 DUP2 MSTORE PUSH1 0x20 ADD DUP3 DUP2 MSTORE PUSH1 0x20 ADD SWAP6 POP POP POP POP POP POP PUSH1 0x40 MLOAD DUP1 SWAP2 SUB SWAP1 LOG1 POP POP POP POP POP JUMP JUMPDEST PUSH1 0x19 PUSH1 0x0 SWAP1 SLOAD SWAP1 PUSH2 0x100 EXP SWAP1 DIV PUSH1 0xFF AND DUP2 JUMP JUMPDEST PUSH1 0x14 SLOAD DUP2 JUMP JUMPDEST PUSH1 0x9 SLOAD DUP2 JUMP JUMPDEST PUSH2 0x182F PUSH2 0x39D6 JUMP JUMPDEST PUSH2 0x1839 ADDRESS DUP3 PUSH2 0x3A7E JUMP JUMPDEST POP JUMP JUMPDEST PUSH1 0x0 DUP1 PUSH1 0x0 DUP4 PUSH20 0xFFFFFFFFFFFFFFFFFFFFFFFFFFFFFFFFFFFFFFFF AND PUSH20 0xFFFFFFFFFFFFFFFFFFFFFFFFFFFFFFFFFFFFFFFF AND DUP2 MSTORE PUSH1 0x20 ADD SWAP1 DUP2 MSTORE PUSH1 0x20 ADD PUSH1 0x0 KECCAK256 SLOAD SWAP1 POP SWAP2 SWAP1 POP JUMP JUMPDEST PUSH2 0x188C PUSH2 0x3192 JUMP JUMPDEST PUSH20 0xFFFFFFFFFFFFFFFFFFFFFFFFFFFFFFFFFFFFFFFF AND PUSH2 0x18AA PUSH2 0x1ED9 JUMP JUMPDEST PUSH20 0xFFFFFFFFFFFFFFFFFFFFFFFFFFFFFFFFFFFFFFFF AND EQ PUSH2 0x1933 JUMPI PUSH1 0x40 MLOAD PUSH32 0x8C379A000000000000000000000000000000000000000000000000000000000 DUP2 MSTORE PUSH1 0x4 ADD DUP1 DUP1 PUSH1 0x20 ADD DUP3 DUP2 SUB DUP3 MSTORE PUSH1 0x20 DUP2 MSTORE PUSH1 0x20 ADD DUP1 PUSH32 0x4F776E61626C653A2063616C6C6572206973206E6F7420746865206F776E6572 DUP2 MSTORE POP PUSH1 0x20 ADD SWAP2 POP POP PUSH1 0x40 MLOAD DUP1 SWAP2 SUB SWAP1 REVERT JUMPDEST PUSH1 0x0 PUSH20 0xFFFFFFFFFFFFFFFFFFFFFFFFFFFFFFFFFFFFFFFF AND PUSH1 0x5 PUSH1 0x1 SWAP1 SLOAD SWAP1 PUSH2 0x100 EXP SWAP1 DIV PUSH20 0xFFFFFFFFFFFFFFFFFFFFFFFFFFFFFFFFFFFFFFFF AND PUSH20 0xFFFFFFFFFFFFFFFFFFFFFFFFFFFFFFFFFFFFFFFF AND PUSH32 0x8BE0079C531659141344CD1FD0A4F28419497F9722A3DAAFE3B4186F6B6457E0 PUSH1 0x40 MLOAD PUSH1 0x40 MLOAD DUP1 SWAP2 SUB SWAP1 LOG3 PUSH1 0x0 PUSH1 0x5 PUSH1 0x1 PUSH2 0x100 EXP DUP2 SLOAD DUP2 PUSH20 0xFFFFFFFFFFFFFFFFFFFFFFFFFFFFFFFFFFFFFFFF MUL NOT AND SWAP1 DUP4 PUSH20 0xFFFFFFFFFFFFFFFFFFFFFFFFFFFFFFFFFFFFFFFF AND MUL OR SWAP1 SSTORE POP JUMP JUMPDEST PUSH2 0x19FC PUSH2 0x3192 JUMP JUMPDEST PUSH20 0xFFFFFFFFFFFFFFFFFFFFFFFFFFFFFFFFFFFFFFFF AND PUSH2 0x1A1A PUSH2 0x1ED9 JUMP JUMPDEST PUSH20 0xFFFFFFFFFFFFFFFFFFFFFFFFFFFFFFFFFFFFFFFF AND EQ PUSH2 0x1AA3 JUMPI PUSH1 0x40 MLOAD PUSH32 0x8C379A000000000000000000000000000000000000000000000000000000000 DUP2 MSTORE PUSH1 0x4 ADD DUP1 DUP1 PUSH1 0x20 ADD DUP3 DUP2 SUB DUP3 MSTORE PUSH1 0x20 DUP2 MSTORE PUSH1 0x20 ADD DUP1 PUSH32 0x4F776E61626C653A2063616C6C6572206973206E6F7420746865206F776E6572 DUP2 MSTORE POP PUSH1 0x20 ADD SWAP2 POP POP PUSH1 0x40 MLOAD DUP1 SWAP2 SUB SWAP1 REVERT JUMPDEST PUSH2 0x3E8 DUP2 GT ISZERO PUSH2 0x1B1B JUMPI PUSH1 0x40 MLOAD PUSH32 0x8C379A000000000000000000000000000000000000000000000000000000000 DUP2 MSTORE PUSH1 0x4 ADD DUP1 DUP1 PUSH1 0x20 ADD DUP3 DUP2 SUB DUP3 MSTORE PUSH1 0xD DUP2 MSTORE PUSH1 0x20 ADD DUP1 PUSH32 0x496E76616C69642076616C756500000000000000000000000000000000000000 DUP2 MSTORE POP PUSH1 0x20 ADD SWAP2 POP POP PUSH1 0x40 MLOAD DUP1 SWAP2 SUB SWAP1 REVERT JUMPDEST DUP1 PUSH1 0xC DUP2 SWAP1 SSTORE POP POP JUMP JUMPDEST PUSH2 0x1B2D PUSH2 0x39D6 JUMP JUMPDEST PUSH2 0x1B82 DUP4 PUSH1 0x1A PUSH1 0x0 DUP8 PUSH20 0xFFFFFFFFFFFFFFFFFFFFFFFFFFFFFFFFFFFFFFFF AND PUSH20 0xFFFFFFFFFFFFFFFFFFFFFFFFFFFFFFFFFFFFFFFF AND DUP2 MSTORE PUSH1 0x20 ADD SWAP1 DUP2 MSTORE PUSH1 0x20 ADD PUSH1 0x0 KECCAK256 PUSH1 0x0 ADD SLOAD PUSH2 0x370C SWAP1 SWAP2 SWAP1 PUSH4 0xFFFFFFFF AND JUMP JUMPDEST PUSH1 0x1A PUSH1 0x0 DUP7 PUSH20 0xFFFFFFFFFFFFFFFFFFFFFFFFFFFFFFFFFFFFFFFF AND PUSH20 0xFFFFFFFFFFFFFFFFFFFFFFFFFFFFFFFFFFFFFFFF AND DUP2 MSTORE PUSH1 0x20 ADD SWAP1 DUP2 MSTORE PUSH1 0x20 ADD PUSH1 0x0 KECCAK256 PUSH1 0x0 ADD DUP2 SWAP1 SSTORE POP PUSH2 0x1C1D DUP3 PUSH1 0x1A PUSH1 0x0 DUP8 PUSH20 0xFFFFFFFFFFFFFFFFFFFFFFFFFFFFFFFFFFFFFFFF AND PUSH20 0xFFFFFFFFFFFFFFFFFFFFFFFFFFFFFFFFFFFFFFFF AND DUP2 MSTORE PUSH1 0x20 ADD SWAP1 DUP2 MSTORE PUSH1 0x20 ADD PUSH1 0x0 KECCAK256 PUSH1 0x1 ADD SLOAD PUSH2 0x37F8 SWAP1 SWAP2 SWAP1 PUSH4 0xFFFFFFFF AND JUMP JUMPDEST PUSH1 0x1A PUSH1 0x0 DUP7 PUSH20 0xFFFFFFFFFFFFFFFFFFFFFFFFFFFFFFFFFFFFFFFF AND PUSH20 0xFFFFFFFFFFFFFFFFFFFFFFFFFFFFFFFFFFFFFFFF AND DUP2 MSTORE PUSH1 0x20 ADD SWAP1 DUP2 MSTORE PUSH1 0x20 ADD PUSH1 0x0 KECCAK256 PUSH1 0x1 ADD DUP2 SWAP1 SSTORE POP PUSH2 0x1C78 DUP2 PUSH1 0xE SLOAD PUSH2 0x370C SWAP1 SWAP2 SWAP1 PUSH4 0xFFFFFFFF AND JUMP JUMPDEST PUSH1 0xE DUP2 SWAP1 SSTORE POP POP POP POP POP JUMP JUMPDEST PUSH1 0xC SLOAD DUP2 JUMP JUMPDEST PUSH1 0x0 PUSH1 0x1A PUSH1 0x0 DUP4 PUSH20 0xFFFFFFFFFFFFFFFFFFFFFFFFFFFFFFFFFFFFFFFF AND PUSH20 0xFFFFFFFFFFFFFFFFFFFFFFFFFFFFFFFFFFFFFFFF AND DUP2 MSTORE PUSH1 0x20 ADD SWAP1 DUP2 MSTORE PUSH1 0x20 ADD PUSH1 0x0 KECCAK256 PUSH1 0x0 ADD SLOAD SWAP1 POP SWAP2 SWAP1 POP JUMP JUMPDEST PUSH1 0x18 SLOAD DUP2 JUMP JUMPDEST PUSH1 0x7 SLOAD DUP2 JUMP JUMPDEST PUSH2 0x3E8 DUP2 JUMP JUMPDEST PUSH1 0x8 SLOAD DUP2 JUMP JUMPDEST PUSH2 0x1CF6 PUSH2 0x39D6 JUMP JUMPDEST PUSH2 0x1D0B DUP2 PUSH1 0xE SLOAD PUSH2 0x37F8 SWAP1 SWAP2 SWAP1 PUSH4 0xFFFFFFFF AND JUMP JUMPDEST PUSH1 0xE DUP2 SWAP1 SSTORE POP TIMESTAMP PUSH1 0x1A PUSH1 0x0 DUP5 PUSH20 0xFFFFFFFFFFFFFFFFFFFFFFFFFFFFFFFFFFFFFFFF AND PUSH20 0xFFFFFFFFFFFFFFFFFFFFFFFFFFFFFFFFFFFFFFFF AND DUP2 MSTORE PUSH1 0x20 ADD SWAP1 DUP2 MSTORE PUSH1 0x20 ADD PUSH1 0x0 KECCAK256 PUSH1 0x2 ADD DUP2 SWAP1 SSTORE POP PUSH1 0x0 PUSH1 0x1A PUSH1 0x0 DUP5 PUSH20 0xFFFFFFFFFFFFFFFFFFFFFFFFFFFFFFFFFFFFFFFF AND PUSH20 0xFFFFFFFFFFFFFFFFFFFFFFFFFFFFFFFFFFFFFFFF AND DUP2 MSTORE PUSH1 0x20 ADD SWAP1 DUP2 MSTORE PUSH1 0x20 ADD PUSH1 0x0 KECCAK256 PUSH1 0x0 ADD SLOAD GT ISZERO PUSH2 0x1EC9 JUMPI PUSH2 0x1E3A PUSH1 0x1A PUSH1 0x0 DUP5 PUSH20 0xFFFFFFFFFFFFFFFFFFFFFFFFFFFFFFFFFFFFFFFF AND PUSH20 0xFFFFFFFFFFFFFFFFFFFFFFFFFFFFFFFFFFFFFFFF AND DUP2 MSTORE PUSH1 0x20 ADD SWAP1 DUP2 MSTORE PUSH1 0x20 ADD PUSH1 0x0 KECCAK256 PUSH1 0x0 ADD SLOAD PUSH1 0x1A PUSH1 0x0 DUP6 PUSH20 0xFFFFFFFFFFFFFFFFFFFFFFFFFFFFFFFFFFFFFFFF AND PUSH20 0xFFFFFFFFFFFFFFFFFFFFFFFFFFFFFFFFFFFFFFFF AND DUP2 MSTORE PUSH1 0x20 ADD SWAP1 DUP2 MSTORE PUSH1 0x20 ADD PUSH1 0x0 KECCAK256 PUSH1 0x1 ADD SLOAD PUSH2 0x370C SWAP1 SWAP2 SWAP1 PUSH4 0xFFFFFFFF AND JUMP JUMPDEST PUSH1 0x1A PUSH1 0x0 DUP5 PUSH20 0xFFFFFFFFFFFFFFFFFFFFFFFFFFFFFFFFFFFFFFFF AND PUSH20 0xFFFFFFFFFFFFFFFFFFFFFFFFFFFFFFFFFFFFFFFF AND DUP2 MSTORE PUSH1 0x20 ADD SWAP1 DUP2 MSTORE PUSH1 0x20 ADD PUSH1 0x0 KECCAK256 PUSH1 0x1 ADD DUP2 SWAP1 SSTORE POP PUSH1 0x0 PUSH1 0x1A PUSH1 0x0 DUP5 PUSH20 0xFFFFFFFFFFFFFFFFFFFFFFFFFFFFFFFFFFFFFFFF AND PUSH20 0xFFFFFFFFFFFFFFFFFFFFFFFFFFFFFFFFFFFFFFFF AND DUP2 MSTORE PUSH1 0x20 ADD SWAP1 DUP2 MSTORE PUSH1 0x20 ADD PUSH1 0x0 KECCAK256 PUSH1 0x0 ADD DUP2 SWAP1 SSTORE POP JUMPDEST POP POP JUMP JUMPDEST PUSH1 0x13 SLOAD DUP2 JUMP JUMPDEST PUSH1 0x17 SLOAD DUP2 JUMP JUMPDEST PUSH1 0x0 PUSH1 0x5 PUSH1 0x1 SWAP1 SLOAD SWAP1 PUSH2 0x100 EXP SWAP1 DIV PUSH20 0xFFFFFFFFFFFFFFFFFFFFFFFFFFFFFFFFFFFFFFFF AND SWAP1 POP SWAP1 JUMP JUMPDEST PUSH1 0x0 DUP1 PUSH2 0x1F1D PUSH1 0x8 SLOAD PUSH1 0x7 SLOAD PUSH2 0x370C SWAP1 SWAP2 SWAP1 PUSH4 0xFFFFFFFF AND JUMP JUMPDEST SWAP1 POP PUSH1 0xD SLOAD SWAP2 POP PUSH1 0x9 SLOAD DUP4 GT DUP1 ISZERO PUSH2 0x1F36 JUMPI POP DUP1 PUSH1 0x9 SLOAD LT JUMPDEST DUP1 ISZERO PUSH2 0x1F44 JUMPI POP PUSH1 0x0 PUSH1 0xE SLOAD GT JUMPDEST ISZERO PUSH2 0x1FD5 JUMPI DUP1 DUP4 GT ISZERO PUSH2 0x1F55 JUMPI DUP1 SWAP3 POP JUMPDEST PUSH2 0x1FD2 PUSH2 0x1FC3 PUSH2 0x1F72 PUSH1 0xE SLOAD PUSH1 0x8 SLOAD PUSH2 0x387B SWAP1 SWAP2 SWAP1 PUSH4 0xFFFFFFFF AND JUMP JUMPDEST PUSH2 0x1FB5 PUSH8 0xDE0B6B3A7640000 PUSH2 0x1FA7 PUSH1 0xA SLOAD PUSH2 0x1F99 PUSH1 0x9 SLOAD DUP12 PUSH2 0x37F8 SWAP1 SWAP2 SWAP1 PUSH4 0xFFFFFFFF AND JUMP JUMPDEST PUSH2 0x387B SWAP1 SWAP2 SWAP1 PUSH4 0xFFFFFFFF AND JUMP JUMPDEST PUSH2 0x387B SWAP1 SWAP2 SWAP1 PUSH4 0xFFFFFFFF AND JUMP JUMPDEST PUSH2 0x3901 SWAP1 SWAP2 SWAP1 PUSH4 0xFFFFFFFF AND JUMP JUMPDEST DUP4 PUSH2 0x370C SWAP1 SWAP2 SWAP1 PUSH4 0xFFFFFFFF AND JUMP JUMPDEST SWAP2 POP JUMPDEST POP SWAP2 SWAP1 POP JUMP JUMPDEST PUSH1 0xB SLOAD DUP2 JUMP JUMPDEST PUSH1 0x10 PUSH1 0x20 MSTORE DUP1 PUSH1 0x0 MSTORE PUSH1 0x40 PUSH1 0x0 KECCAK256 PUSH1 0x0 SWAP2 POP SWAP1 POP SLOAD DUP2 JUMP JUMPDEST PUSH1 0x60 PUSH1 0x4 DUP1 SLOAD PUSH1 0x1 DUP2 PUSH1 0x1 AND ISZERO PUSH2 0x100 MUL SUB AND PUSH1 0x2 SWAP1 DIV DUP1 PUSH1 0x1F ADD PUSH1 0x20 DUP1 SWAP2 DIV MUL PUSH1 0x20 ADD PUSH1 0x40 MLOAD SWAP1 DUP2 ADD PUSH1 0x40 MSTORE DUP1 SWAP3 SWAP2 SWAP1 DUP2 DUP2 MSTORE PUSH1 0x20 ADD DUP3 DUP1 SLOAD PUSH1 0x1 DUP2 PUSH1 0x1 AND ISZERO PUSH2 0x100 MUL SUB AND PUSH1 0x2 SWAP1 DIV DUP1 ISZERO PUSH2 0x2091 JUMPI DUP1 PUSH1 0x1F LT PUSH2 0x2066 JUMPI PUSH2 0x100 DUP1 DUP4 SLOAD DIV MUL DUP4 MSTORE SWAP2 PUSH1 0x20 ADD SWAP2 PUSH2 0x2091 JUMP JUMPDEST DUP3 ADD SWAP2 SWAP1 PUSH1 0x0 MSTORE PUSH1 0x20 PUSH1 0x0 KECCAK256 SWAP1 JUMPDEST DUP2 SLOAD DUP2 MSTORE SWAP1 PUSH1 0x1 ADD SWAP1 PUSH1 0x20 ADD DUP1 DUP4 GT PUSH2 0x2074 JUMPI DUP3 SWAP1 SUB PUSH1 0x1F AND DUP3 ADD SWAP2 JUMPDEST POP POP POP POP POP SWAP1 POP SWAP1 JUMP JUMPDEST PUSH1 0x0 PUSH1 0x1A PUSH1 0x0 DUP4 PUSH20 0xFFFFFFFFFFFFFFFFFFFFFFFFFFFFFFFFFFFFFFFF AND PUSH20 0xFFFFFFFFFFFFFFFFFFFFFFFFFFFFFFFFFFFFFFFF AND DUP2 MSTORE PUSH1 0x20 ADD SWAP1 DUP2 MSTORE PUSH1 0x20 ADD PUSH1 0x0 KECCAK256 PUSH1 0x1 ADD SLOAD SWAP1 POP SWAP2 SWAP1 POP JUMP JUMPDEST PUSH2 0x20EF PUSH2 0x3192 JUMP JUMPDEST PUSH20 0xFFFFFFFFFFFFFFFFFFFFFFFFFFFFFFFFFFFFFFFF AND PUSH2 0x210D PUSH2 0x1ED9 JUMP JUMPDEST PUSH20 0xFFFFFFFFFFFFFFFFFFFFFFFFFFFFFFFFFFFFFFFF AND EQ PUSH2 0x2196 JUMPI PUSH1 0x40 MLOAD PUSH32 0x8C379A000000000000000000000000000000000000000000000000000000000 DUP2 MSTORE PUSH1 0x4 ADD DUP1 DUP1 PUSH1 0x20 ADD DUP3 DUP2 SUB DUP3 MSTORE PUSH1 0x20 DUP2 MSTORE PUSH1 0x20 ADD DUP1 PUSH32 0x4F776E61626C653A2063616C6C6572206973206E6F7420746865206F776E6572 DUP2 MSTORE POP PUSH1 0x20 ADD SWAP2 POP POP PUSH1 0x40 MLOAD DUP1 SWAP2 SUB SWAP1 REVERT JUMPDEST PUSH1 0x0 TIMESTAMP SWAP1 POP DUP1 DUP5 GT DUP1 ISZERO PUSH2 0x21AA JUMPI POP PUSH1 0x0 DUP4 GT JUMPDEST PUSH2 0x21FF JUMPI PUSH1 0x40 MLOAD PUSH32 0x8C379A000000000000000000000000000000000000000000000000000000000 DUP2 MSTORE PUSH1 0x4 ADD DUP1 DUP1 PUSH1 0x20 ADD DUP3 DUP2 SUB DUP3 MSTORE PUSH1 0x54 DUP2 MSTORE PUSH1 0x20 ADD DUP1 PUSH2 0x4197 PUSH1 0x54 SWAP2 CODECOPY PUSH1 0x60 ADD SWAP2 POP POP PUSH1 0x40 MLOAD DUP1 SWAP2 SUB SWAP1 REVERT JUMPDEST PUSH1 0x0 PUSH1 0x7 SLOAD GT ISZERO PUSH2 0x2279 JUMPI PUSH2 0x2221 PUSH1 0x8 SLOAD PUSH1 0x7 SLOAD PUSH2 0x370C SWAP1 SWAP2 SWAP1 PUSH4 0xFFFFFFFF AND JUMP JUMPDEST DUP2 GT PUSH2 0x2278 JUMPI PUSH1 0x40 MLOAD PUSH32 0x8C379A000000000000000000000000000000000000000000000000000000000 DUP2 MSTORE PUSH1 0x4 ADD DUP1 DUP1 PUSH1 0x20 ADD DUP3 DUP2 SUB DUP3 MSTORE PUSH1 0x28 DUP2 MSTORE PUSH1 0x20 ADD DUP1 PUSH2 0x40D8 PUSH1 0x28 SWAP2 CODECOPY PUSH1 0x40 ADD SWAP2 POP POP PUSH1 0x40 MLOAD DUP1 SWAP2 SUB SWAP1 REVERT JUMPDEST JUMPDEST PUSH2 0x2282 DUP2 PUSH2 0x3C42 JUMP JUMPDEST DUP4 PUSH1 0x7 DUP2 SWAP1 SSTORE POP DUP4 PUSH1 0x9 DUP2 SWAP1 SSTORE POP DUP3 PUSH1 0x8 DUP2 SWAP1 SSTORE POP DUP2 PUSH1 0xA DUP2 SWAP1 SSTORE POP PUSH2 0x22B3 DUP3 PUSH1 0xB SLOAD PUSH2 0x370C SWAP1 SWAP2 SWAP1 PUSH4 0xFFFFFFFF AND JUMP JUMPDEST PUSH1 0xB DUP2 SWAP1 SSTORE POP PUSH2 0x22CE DUP3 PUSH1 0x14 SLOAD PUSH2 0x370C SWAP1 SWAP2 SWAP1 PUSH4 0xFFFFFFFF AND JUMP JUMPDEST PUSH1 0x14 DUP2 SWAP1 SSTORE POP PUSH2 0x22DE ADDRESS DUP4 PUSH2 0x3C6C JUMP JUMPDEST POP POP POP POP JUMP JUMPDEST PUSH1 0x0 PUSH2 0x23A7 PUSH2 0x22F1 PUSH2 0x3192 JUMP JUMPDEST DUP5 PUSH2 0x23A2 DUP6 PUSH1 0x40 MLOAD DUP1 PUSH1 0x60 ADD PUSH1 0x40 MSTORE DUP1 PUSH1 0x25 DUP2 MSTORE PUSH1 0x20 ADD PUSH2 0x4211 PUSH1 0x25 SWAP2 CODECOPY PUSH1 0x1 PUSH1 0x0 PUSH2 0x231B PUSH2 0x3192 JUMP JUMPDEST PUSH20 0xFFFFFFFFFFFFFFFFFFFFFFFFFFFFFFFFFFFFFFFF AND PUSH20 0xFFFFFFFFFFFFFFFFFFFFFFFFFFFFFFFFFFFFFFFF AND DUP2 MSTORE PUSH1 0x20 ADD SWAP1 DUP2 MSTORE PUSH1 0x20 ADD PUSH1 0x0 KECCAK256 PUSH1 0x0 DUP11 PUSH20 0xFFFFFFFFFFFFFFFFFFFFFFFFFFFFFFFFFFFFFFFF AND PUSH20 0xFFFFFFFFFFFFFFFFFFFFFFFFFFFFFFFFFFFFFFFF AND DUP2 MSTORE PUSH1 0x20 ADD SWAP1 DUP2 MSTORE PUSH1 0x20 ADD PUSH1 0x0 KECCAK256 SLOAD PUSH2 0x3652 SWAP1 SWAP3 SWAP2 SWAP1 PUSH4 0xFFFFFFFF AND JUMP JUMPDEST PUSH2 0x319A JUMP JUMPDEST PUSH1 0x1 SWAP1 POP SWAP3 SWAP2 POP POP JUMP JUMPDEST PUSH2 0x23B9 PUSH2 0x3192 JUMP JUMPDEST PUSH20 0xFFFFFFFFFFFFFFFFFFFFFFFFFFFFFFFFFFFFFFFF AND PUSH2 0x23D7 PUSH2 0x1ED9 JUMP JUMPDEST PUSH20 0xFFFFFFFFFFFFFFFFFFFFFFFFFFFFFFFFFFFFFFFF AND EQ PUSH2 0x2460 JUMPI PUSH1 0x40 MLOAD PUSH32 0x8C379A000000000000000000000000000000000000000000000000000000000 DUP2 MSTORE PUSH1 0x4 ADD DUP1 DUP1 PUSH1 0x20 ADD DUP3 DUP2 SUB DUP3 MSTORE PUSH1 0x20 DUP2 MSTORE PUSH1 0x20 ADD DUP1 PUSH32 0x4F776E61626C653A2063616C6C6572206973206E6F7420746865206F776E6572 DUP2 MSTORE POP PUSH1 0x20 ADD SWAP2 POP POP PUSH1 0x40 MLOAD DUP1 SWAP2 SUB SWAP1 REVERT JUMPDEST PUSH1 0x19 PUSH1 0x0 SWAP1 SLOAD SWAP1 PUSH2 0x100 EXP SWAP1 DIV PUSH1 0xFF AND ISZERO PUSH1 0x19 PUSH1 0x0 PUSH2 0x100 EXP DUP2 SLOAD DUP2 PUSH1 0xFF MUL NOT AND SWAP1 DUP4 ISZERO ISZERO MUL OR SWAP1 SSTORE POP JUMP JUMPDEST PUSH1 0x0 PUSH2 0x24A0 PUSH2 0x2499 PUSH2 0x3192 JUMP JUMPDEST DUP5 DUP5 PUSH2 0x3391 JUMP JUMPDEST PUSH1 0x1 SWAP1 POP SWAP3 SWAP2 POP POP JUMP JUMPDEST PUSH1 0x16 SLOAD DUP2 JUMP JUMPDEST PUSH1 0xF SLOAD DUP2 JUMP JUMPDEST PUSH2 0x24BE PUSH2 0x3192 JUMP JUMPDEST PUSH20 0xFFFFFFFFFFFFFFFFFFFFFFFFFFFFFFFFFFFFFFFF AND PUSH2 0x24DC PUSH2 0x1ED9 JUMP JUMPDEST PUSH20 0xFFFFFFFFFFFFFFFFFFFFFFFFFFFFFFFFFFFFFFFF AND EQ PUSH2 0x2565 JUMPI PUSH1 0x40 MLOAD PUSH32 0x8C379A000000000000000000000000000000000000000000000000000000000 DUP2 MSTORE PUSH1 0x4 ADD DUP1 DUP1 PUSH1 0x20 ADD DUP3 DUP2 SUB DUP3 MSTORE PUSH1 0x20 DUP2 MSTORE PUSH1 0x20 ADD DUP1 PUSH32 0x4F776E61626C653A2063616C6C6572206973206E6F7420746865206F776E6572 DUP2 MSTORE POP PUSH1 0x20 ADD SWAP2 POP POP PUSH1 0x40 MLOAD DUP1 SWAP2 SUB SWAP1 REVERT JUMPDEST PUSH1 0x17 SLOAD DUP2 GT ISZERO PUSH2 0x25DD JUMPI PUSH1 0x40 MLOAD PUSH32 0x8C379A000000000000000000000000000000000000000000000000000000000 DUP2 MSTORE PUSH1 0x4 ADD DUP1 DUP1 PUSH1 0x20 ADD DUP3 DUP2 SUB DUP3 MSTORE PUSH1 0xD DUP2 MSTORE PUSH1 0x20 ADD DUP1 PUSH32 0x496E76616C69642076616C756500000000000000000000000000000000000000 DUP2 MSTORE POP PUSH1 0x20 ADD SWAP2 POP POP PUSH1 0x40 MLOAD DUP1 SWAP2 SUB SWAP1 REVERT JUMPDEST DUP1 PUSH1 0x16 DUP2 SWAP1 SSTORE POP POP JUMP JUMPDEST PUSH1 0xE SLOAD DUP2 JUMP JUMPDEST PUSH2 0x25F5 PUSH2 0x120E JUMP JUMPDEST PUSH2 0x25FE CALLER PUSH2 0x183C JUMP JUMPDEST DUP2 GT ISZERO PUSH2 0x2673 JUMPI PUSH1 0x40 MLOAD PUSH32 0x8C379A000000000000000000000000000000000000000000000000000000000 DUP2 MSTORE PUSH1 0x4 ADD DUP1 DUP1 PUSH1 0x20 ADD DUP3 DUP2 SUB DUP3 MSTORE PUSH1 0x1F DUP2 MSTORE PUSH1 0x20 ADD DUP1 PUSH32 0x56616C7565206578636565647320617661696C61626C652062616C616E636500 DUP2 MSTORE POP PUSH1 0x20 ADD SWAP2 POP POP PUSH1 0x40 MLOAD DUP1 SWAP2 SUB SWAP1 REVERT JUMPDEST PUSH1 0x0 PUSH2 0x267E CALLER PUSH2 0x3794 JUMP JUMPDEST SWAP1 POP PUSH1 0x0 PUSH2 0x2695 DUP3 DUP5 PUSH2 0x370C SWAP1 SWAP2 SWAP1 PUSH4 0xFFFFFFFF AND JUMP JUMPDEST SWAP1 POP PUSH2 0x26EC DUP2 PUSH1 0x1A PUSH1 0x0 CALLER PUSH20 0xFFFFFFFFFFFFFFFFFFFFFFFFFFFFFFFFFFFFFFFF AND PUSH20 0xFFFFFFFFFFFFFFFFFFFFFFFFFFFFFFFFFFFFFFFF AND DUP2 MSTORE PUSH1 0x20 ADD SWAP1 DUP2 MSTORE PUSH1 0x20 ADD PUSH1 0x0 KECCAK256 PUSH1 0x0 ADD SLOAD PUSH2 0x370C SWAP1 SWAP2 SWAP1 PUSH4 0xFFFFFFFF AND JUMP JUMPDEST PUSH1 0x1A PUSH1 0x0 CALLER PUSH20 0xFFFFFFFFFFFFFFFFFFFFFFFFFFFFFFFFFFFFFFFF AND PUSH20 0xFFFFFFFFFFFFFFFFFFFFFFFFFFFFFFFFFFFFFFFF AND DUP2 MSTORE PUSH1 0x20 ADD SWAP1 DUP2 MSTORE PUSH1 0x20 ADD PUSH1 0x0 KECCAK256 PUSH1 0x0 ADD DUP2 SWAP1 SSTORE POP PUSH2 0x2747 DUP2 PUSH1 0xE SLOAD PUSH2 0x370C SWAP1 SWAP2 SWAP1 PUSH4 0xFFFFFFFF AND JUMP JUMPDEST PUSH1 0xE DUP2 SWAP1 SSTORE POP PUSH2 0x2758 CALLER ADDRESS DUP6 PUSH2 0x3391 JUMP JUMPDEST PUSH32 0x6F5036100EC84840F4CA7C243E6CA7C042949756211BDFB358406A77DC41A42E CALLER DUP5 DUP5 PUSH1 0x40 MLOAD DUP1 DUP5 PUSH20 0xFFFFFFFFFFFFFFFFFFFFFFFFFFFFFFFFFFFFFFFF AND DUP2 MSTORE PUSH1 0x20 ADD DUP4 DUP2 MSTORE PUSH1 0x20 ADD DUP3 DUP2 MSTORE PUSH1 0x20 ADD SWAP4 POP POP POP POP PUSH1 0x40 MLOAD DUP1 SWAP2 SUB SWAP1 LOG1 POP POP POP JUMP JUMPDEST PUSH2 0x27C2 PUSH2 0x39D6 JUMP JUMPDEST PUSH2 0x27CC ADDRESS DUP3 PUSH2 0x3C6C JUMP JUMPDEST POP JUMP JUMPDEST PUSH2 0x27D7 PUSH2 0x3192 JUMP JUMPDEST PUSH20 0xFFFFFFFFFFFFFFFFFFFFFFFFFFFFFFFFFFFFFFFF AND PUSH2 0x27F5 PUSH2 0x1ED9 JUMP JUMPDEST PUSH20 0xFFFFFFFFFFFFFFFFFFFFFFFFFFFFFFFFFFFFFFFF AND EQ PUSH2 0x287E JUMPI PUSH1 0x40 MLOAD PUSH32 0x8C379A000000000000000000000000000000000000000000000000000000000 DUP2 MSTORE PUSH1 0x4 ADD DUP1 DUP1 PUSH1 0x20 ADD DUP3 DUP2 SUB DUP3 MSTORE PUSH1 0x20 DUP2 MSTORE PUSH1 0x20 ADD DUP1 PUSH32 0x4F776E61626C653A2063616C6C6572206973206E6F7420746865206F776E6572 DUP2 MSTORE POP PUSH1 0x20 ADD SWAP2 POP POP PUSH1 0x40 MLOAD DUP1 SWAP2 SUB SWAP1 REVERT JUMPDEST PUSH1 0x0 PUSH20 0xFFFFFFFFFFFFFFFFFFFFFFFFFFFFFFFFFFFFFFFF AND DUP2 PUSH20 0xFFFFFFFFFFFFFFFFFFFFFFFFFFFFFFFFFFFFFFFF AND EQ ISZERO PUSH2 0x2921 JUMPI PUSH1 0x40 MLOAD PUSH32 0x8C379A000000000000000000000000000000000000000000000000000000000 DUP2 MSTORE PUSH1 0x4 ADD DUP1 DUP1 PUSH1 0x20 ADD DUP3 DUP2 SUB DUP3 MSTORE PUSH1 0x13 DUP2 MSTORE PUSH1 0x20 ADD DUP1 PUSH32 0x53657420612076616C6964206164647265737300000000000000000000000000 DUP2 MSTORE POP PUSH1 0x20 ADD SWAP2 POP POP PUSH1 0x40 MLOAD DUP1 SWAP2 SUB SWAP1 REVERT JUMPDEST DUP1 PUSH1 0x6 PUSH1 0x0 PUSH2 0x100 EXP DUP2 SLOAD DUP2 PUSH20 0xFFFFFFFFFFFFFFFFFFFFFFFFFFFFFFFFFFFFFFFF MUL NOT AND SWAP1 DUP4 PUSH20 0xFFFFFFFFFFFFFFFFFFFFFFFFFFFFFFFFFFFFFFFF AND MUL OR SWAP1 SSTORE POP POP JUMP JUMPDEST PUSH1 0x0 PUSH1 0x1 PUSH1 0x0 DUP5 PUSH20 0xFFFFFFFFFFFFFFFFFFFFFFFFFFFFFFFFFFFFFFFF AND PUSH20 0xFFFFFFFFFFFFFFFFFFFFFFFFFFFFFFFFFFFFFFFF AND DUP2 MSTORE PUSH1 0x20 ADD SWAP1 DUP2 MSTORE PUSH1 0x20 ADD PUSH1 0x0 KECCAK256 PUSH1 0x0 DUP4 PUSH20 0xFFFFFFFFFFFFFFFFFFFFFFFFFFFFFFFFFFFFFFFF AND PUSH20 0xFFFFFFFFFFFFFFFFFFFFFFFFFFFFFFFFFFFFFFFF AND DUP2 MSTORE PUSH1 0x20 ADD SWAP1 DUP2 MSTORE PUSH1 0x20 ADD PUSH1 0x0 KECCAK256 SLOAD SWAP1 POP SWAP3 SWAP2 POP POP JUMP JUMPDEST PUSH2 0x29F4 PUSH2 0x3192 JUMP JUMPDEST PUSH20 0xFFFFFFFFFFFFFFFFFFFFFFFFFFFFFFFFFFFFFFFF AND PUSH2 0x2A12 PUSH2 0x1ED9 JUMP JUMPDEST PUSH20 0xFFFFFFFFFFFFFFFFFFFFFFFFFFFFFFFFFFFFFFFF AND EQ PUSH2 0x2A9B JUMPI PUSH1 0x40 MLOAD PUSH32 0x8C379A000000000000000000000000000000000000000000000000000000000 DUP2 MSTORE PUSH1 0x4 ADD DUP1 DUP1 PUSH1 0x20 ADD DUP3 DUP2 SUB DUP3 MSTORE PUSH1 0x20 DUP2 MSTORE PUSH1 0x20 ADD DUP1 PUSH32 0x4F776E61626C653A2063616C6C6572206973206E6F7420746865206F776E6572 DUP2 MSTORE POP PUSH1 0x20 ADD SWAP2 POP POP PUSH1 0x40 MLOAD DUP1 SWAP2 SUB SWAP1 REVERT JUMPDEST PUSH2 0x2AA3 PUSH2 0x3E33 JUMP JUMPDEST PUSH1 0x0 DUP1 DUP5 MLOAD SWAP1 POP PUSH1 0x0 DUP1 PUSH1 0x0 DUP1 DUP8 MLOAD DUP6 EQ PUSH2 0x2B09 JUMPI PUSH1 0x40 MLOAD PUSH32 0x8C379A000000000000000000000000000000000000000000000000000000000 DUP2 MSTORE PUSH1 0x4 ADD DUP1 DUP1 PUSH1 0x20 ADD DUP3 DUP2 SUB DUP3 MSTORE PUSH1 0x26 DUP2 MSTORE PUSH1 0x20 ADD DUP1 PUSH2 0x41EB PUSH1 0x26 SWAP2 CODECOPY PUSH1 0x40 ADD SWAP2 POP POP PUSH1 0x40 MLOAD DUP1 SWAP2 SUB SWAP1 REVERT JUMPDEST PUSH1 0x0 JUMPDEST DUP6 DUP2 LT ISZERO PUSH2 0x2CAC JUMPI DUP10 DUP2 DUP2 MLOAD DUP2 LT PUSH2 0x2B20 JUMPI INVALID JUMPDEST PUSH1 0x20 MUL PUSH1 0x20 ADD ADD MLOAD SWAP5 POP DUP9 DUP2 DUP2 MLOAD DUP2 LT PUSH2 0x2B36 JUMPI INVALID JUMPDEST PUSH1 0x20 MUL PUSH1 0x20 ADD ADD MLOAD SWAP4 POP DUP8 ISZERO PUSH2 0x2C18 JUMPI PUSH2 0x2B4F DUP6 PUSH2 0x3794 JUMP JUMPDEST SWAP3 POP PUSH2 0x2BB8 DUP4 PUSH2 0x2BAA DUP7 PUSH1 0x1A PUSH1 0x0 DUP11 PUSH20 0xFFFFFFFFFFFFFFFFFFFFFFFFFFFFFFFFFFFFFFFF AND PUSH20 0xFFFFFFFFFFFFFFFFFFFFFFFFFFFFFFFFFFFFFFFF AND DUP2 MSTORE PUSH1 0x20 ADD SWAP1 DUP2 MSTORE PUSH1 0x20 ADD PUSH1 0x0 KECCAK256 PUSH1 0x0 ADD SLOAD PUSH2 0x370C SWAP1 SWAP2 SWAP1 PUSH4 0xFFFFFFFF AND JUMP JUMPDEST PUSH2 0x370C SWAP1 SWAP2 SWAP1 PUSH4 0xFFFFFFFF AND JUMP JUMPDEST PUSH1 0x1A PUSH1 0x0 DUP8 PUSH20 0xFFFFFFFFFFFFFFFFFFFFFFFFFFFFFFFFFFFFFFFF AND PUSH20 0xFFFFFFFFFFFFFFFFFFFFFFFFFFFFFFFFFFFFFFFF AND DUP2 MSTORE PUSH1 0x20 ADD SWAP1 DUP2 MSTORE PUSH1 0x20 ADD PUSH1 0x0 KECCAK256 PUSH1 0x0 ADD DUP2 SWAP1 SSTORE POP PUSH2 0x2C11 DUP4 DUP4 PUSH2 0x370C SWAP1 SWAP2 SWAP1 PUSH4 0xFFFFFFFF AND JUMP JUMPDEST SWAP2 POP PUSH2 0x2C23 JUMP JUMPDEST PUSH2 0x2C22 DUP6 DUP6 PUSH2 0x3C6C JUMP JUMPDEST JUMPDEST PUSH2 0x2C36 DUP5 DUP9 PUSH2 0x370C SWAP1 SWAP2 SWAP1 PUSH4 0xFFFFFFFF AND JUMP JUMPDEST SWAP7 POP PUSH32 0xA984939D0059BC688E1C5458F72AD05B51FC8A6BA959556F5E2EE91C1AB8C7D2 DUP6 DUP6 DUP6 DUP12 PUSH1 0x40 MLOAD DUP1 DUP6 PUSH20 0xFFFFFFFFFFFFFFFFFFFFFFFFFFFFFFFFFFFFFFFF AND DUP2 MSTORE PUSH1 0x20 ADD DUP5 DUP2 MSTORE PUSH1 0x20 ADD DUP4 DUP2 MSTORE PUSH1 0x20 ADD DUP3 ISZERO ISZERO DUP2 MSTORE PUSH1 0x20 ADD SWAP5 POP POP POP POP POP PUSH1 0x40 MLOAD DUP1 SWAP2 SUB SWAP1 LOG1 DUP1 DUP1 PUSH1 0x1 ADD SWAP2 POP POP PUSH2 0x2B0C JUMP JUMPDEST POP PUSH2 0x2CC2 DUP7 PUSH1 0x14 SLOAD PUSH2 0x370C SWAP1 SWAP2 SWAP1 PUSH4 0xFFFFFFFF AND JUMP JUMPDEST PUSH1 0x14 DUP2 SWAP1 SSTORE POP DUP7 ISZERO PUSH2 0x2D06 JUMPI PUSH2 0x2CD8 ADDRESS DUP8 PUSH2 0x3C6C JUMP JUMPDEST PUSH2 0x2CFF DUP2 PUSH2 0x2CF1 DUP9 PUSH1 0xE SLOAD PUSH2 0x370C SWAP1 SWAP2 SWAP1 PUSH4 0xFFFFFFFF AND JUMP JUMPDEST PUSH2 0x370C SWAP1 SWAP2 SWAP1 PUSH4 0xFFFFFFFF AND JUMP JUMPDEST PUSH1 0xE DUP2 SWAP1 SSTORE POP JUMPDEST POP POP POP POP POP POP POP POP POP JUMP JUMPDEST PUSH1 0xD SLOAD DUP2 JUMP JUMPDEST PUSH1 0x12 SLOAD DUP2 JUMP JUMPDEST PUSH1 0x0 PUSH2 0x2D27 PUSH2 0x39D6 JUMP JUMPDEST PUSH2 0x2D30 DUP3 PUSH2 0x3794 JUMP JUMPDEST SWAP1 POP SWAP2 SWAP1 POP JUMP JUMPDEST PUSH2 0x2D3F PUSH2 0x3192 JUMP JUMPDEST PUSH20 0xFFFFFFFFFFFFFFFFFFFFFFFFFFFFFFFFFFFFFFFF AND PUSH2 0x2D5D PUSH2 0x1ED9 JUMP JUMPDEST PUSH20 0xFFFFFFFFFFFFFFFFFFFFFFFFFFFFFFFFFFFFFFFF AND EQ PUSH2 0x2DE6 JUMPI PUSH1 0x40 MLOAD PUSH32 0x8C379A000000000000000000000000000000000000000000000000000000000 DUP2 MSTORE PUSH1 0x4 ADD DUP1 DUP1 PUSH1 0x20 ADD DUP3 DUP2 SUB DUP3 MSTORE PUSH1 0x20 DUP2 MSTORE PUSH1 0x20 ADD DUP1 PUSH32 0x4F776E61626C653A2063616C6C6572206973206E6F7420746865206F776E6572 DUP2 MSTORE POP PUSH1 0x20 ADD SWAP2 POP POP PUSH1 0x40 MLOAD DUP1 SWAP2 SUB SWAP1 REVERT JUMPDEST PUSH1 0x0 PUSH20 0xFFFFFFFFFFFFFFFFFFFFFFFFFFFFFFFFFFFFFFFF AND DUP2 PUSH20 0xFFFFFFFFFFFFFFFFFFFFFFFFFFFFFFFFFFFFFFFF AND EQ ISZERO PUSH2 0x2E6C JUMPI PUSH1 0x40 MLOAD PUSH32 0x8C379A000000000000000000000000000000000000000000000000000000000 DUP2 MSTORE PUSH1 0x4 ADD DUP1 DUP1 PUSH1 0x20 ADD DUP3 DUP2 SUB DUP3 MSTORE PUSH1 0x26 DUP2 MSTORE PUSH1 0x20 ADD DUP1 PUSH2 0x3FFE PUSH1 0x26 SWAP2 CODECOPY PUSH1 0x40 ADD SWAP2 POP POP PUSH1 0x40 MLOAD DUP1 SWAP2 SUB SWAP1 REVERT JUMPDEST DUP1 PUSH20 0xFFFFFFFFFFFFFFFFFFFFFFFFFFFFFFFFFFFFFFFF AND PUSH1 0x5 PUSH1 0x1 SWAP1 SLOAD SWAP1 PUSH2 0x100 EXP SWAP1 DIV PUSH20 0xFFFFFFFFFFFFFFFFFFFFFFFFFFFFFFFFFFFFFFFF AND PUSH20 0xFFFFFFFFFFFFFFFFFFFFFFFFFFFFFFFFFFFFFFFF AND PUSH32 0x8BE0079C531659141344CD1FD0A4F28419497F9722A3DAAFE3B4186F6B6457E0 PUSH1 0x40 MLOAD PUSH1 0x40 MLOAD DUP1 SWAP2 SUB SWAP1 LOG3 DUP1 PUSH1 0x5 PUSH1 0x1 PUSH2 0x100 EXP DUP2 SLOAD DUP2 PUSH20 0xFFFFFFFFFFFFFFFFFFFFFFFFFFFFFFFFFFFFFFFF MUL NOT AND SWAP1 DUP4 PUSH20 0xFFFFFFFFFFFFFFFFFFFFFFFFFFFFFFFFFFFFFFFF AND MUL OR SWAP1 SSTORE POP POP JUMP JUMPDEST PUSH2 0x2F34 PUSH2 0x39D6 JUMP JUMPDEST PUSH2 0x2F3D DUP2 PUSH2 0x398A JUMP JUMPDEST POP JUMP JUMPDEST PUSH1 0x0 DUP1 PUSH2 0x2FDA PUSH1 0x1A PUSH1 0x0 DUP7 PUSH20 0xFFFFFFFFFFFFFFFFFFFFFFFFFFFFFFFFFFFFFFFF AND PUSH20 0xFFFFFFFFFFFFFFFFFFFFFFFFFFFFFFFFFFFFFFFF AND DUP2 MSTORE PUSH1 0x20 ADD SWAP1 DUP2 MSTORE PUSH1 0x20 ADD PUSH1 0x0 KECCAK256 PUSH1 0x1 ADD SLOAD PUSH1 0x1A PUSH1 0x0 DUP8 PUSH20 0xFFFFFFFFFFFFFFFFFFFFFFFFFFFFFFFFFFFFFFFF AND PUSH20 0xFFFFFFFFFFFFFFFFFFFFFFFFFFFFFFFFFFFFFFFF AND DUP2 MSTORE PUSH1 0x20 ADD SWAP1 DUP2 MSTORE PUSH1 0x20 ADD PUSH1 0x0 KECCAK256 PUSH1 0x0 ADD SLOAD PUSH2 0x370C SWAP1 SWAP2 SWAP1 PUSH4 0xFFFFFFFF AND JUMP JUMPDEST SWAP1 POP PUSH1 0x0 PUSH20 0xFFFFFFFFFFFFFFFFFFFFFFFFFFFFFFFFFFFFFFFF AND PUSH1 0x6 PUSH1 0x0 SWAP1 SLOAD SWAP1 PUSH2 0x100 EXP SWAP1 DIV PUSH20 0xFFFFFFFFFFFFFFFFFFFFFFFFFFFFFFFFFFFFFFFF AND PUSH20 0xFFFFFFFFFFFFFFFFFFFFFFFFFFFFFFFFFFFFFFFF AND EQ PUSH2 0x310B JUMPI PUSH2 0x3108 PUSH1 0x6 PUSH1 0x0 SWAP1 SLOAD SWAP1 PUSH2 0x100 EXP SWAP1 DIV PUSH20 0xFFFFFFFFFFFFFFFFFFFFFFFFFFFFFFFFFFFFFFFF AND PUSH20 0xFFFFFFFFFFFFFFFFFFFFFFFFFFFFFFFFFFFFFFFF AND PUSH4 0xBA01ECEF DUP7 PUSH1 0x40 MLOAD DUP3 PUSH4 0xFFFFFFFF AND PUSH1 0xE0 SHL DUP2 MSTORE PUSH1 0x4 ADD DUP1 DUP3 PUSH20 0xFFFFFFFFFFFFFFFFFFFFFFFFFFFFFFFFFFFFFFFF AND DUP2 MSTORE PUSH1 0x20 ADD SWAP2 POP POP PUSH1 0x20 PUSH1 0x40 MLOAD DUP1 DUP4 SUB DUP2 DUP7 DUP1 EXTCODESIZE ISZERO DUP1 ISZERO PUSH2 0x30BE JUMPI PUSH1 0x0 DUP1 REVERT JUMPDEST POP GAS STATICCALL ISZERO DUP1 ISZERO PUSH2 0x30D2 JUMPI RETURNDATASIZE PUSH1 0x0 DUP1 RETURNDATACOPY RETURNDATASIZE PUSH1 0x0 REVERT JUMPDEST POP POP POP POP PUSH1 0x40 MLOAD RETURNDATASIZE PUSH1 0x20 DUP2 LT ISZERO PUSH2 0x30E8 JUMPI PUSH1 0x0 DUP1 REVERT JUMPDEST DUP2 ADD SWAP1 DUP1 DUP1 MLOAD SWAP1 PUSH1 0x20 ADD SWAP1 SWAP3 SWAP2 SWAP1 POP POP POP DUP3 PUSH2 0x37F8 SWAP1 SWAP2 SWAP1 PUSH4 0xFFFFFFFF AND JUMP JUMPDEST SWAP1 POP JUMPDEST PUSH2 0x3189 PUSH8 0xDE0B6B3A7640000 PUSH2 0x317B PUSH2 0x316C PUSH1 0x10 PUSH1 0x0 DUP10 PUSH20 0xFFFFFFFFFFFFFFFFFFFFFFFFFFFFFFFFFFFFFFFF AND PUSH20 0xFFFFFFFFFFFFFFFFFFFFFFFFFFFFFFFFFFFFFFFF AND DUP2 MSTORE PUSH1 0x20 ADD SWAP1 DUP2 MSTORE PUSH1 0x20 ADD PUSH1 0x0 KECCAK256 SLOAD DUP8 PUSH2 0x37F8 SWAP1 SWAP2 SWAP1 PUSH4 0xFFFFFFFF AND JUMP JUMPDEST DUP5 PUSH2 0x387B SWAP1 SWAP2 SWAP1 PUSH4 0xFFFFFFFF AND JUMP JUMPDEST PUSH2 0x3901 SWAP1 SWAP2 SWAP1 PUSH4 0xFFFFFFFF AND JUMP JUMPDEST SWAP2 POP POP SWAP3 SWAP2 POP POP JUMP JUMPDEST PUSH1 0x0 CALLER SWAP1 POP SWAP1 JUMP JUMPDEST PUSH1 0x0 PUSH20 0xFFFFFFFFFFFFFFFFFFFFFFFFFFFFFFFFFFFFFFFF AND DUP4 PUSH20 0xFFFFFFFFFFFFFFFFFFFFFFFFFFFFFFFFFFFFFFFF AND EQ ISZERO PUSH2 0x3220 JUMPI PUSH1 0x40 MLOAD PUSH32 0x8C379A000000000000000000000000000000000000000000000000000000000 DUP2 MSTORE PUSH1 0x4 ADD DUP1 DUP1 PUSH1 0x20 ADD DUP3 DUP2 SUB DUP3 MSTORE PUSH1 0x24 DUP2 MSTORE PUSH1 0x20 ADD DUP1 PUSH2 0x4173 PUSH1 0x24 SWAP2 CODECOPY PUSH1 0x40 ADD SWAP2 POP POP PUSH1 0x40 MLOAD DUP1 SWAP2 SUB SWAP1 REVERT JUMPDEST PUSH1 0x0 PUSH20 0xFFFFFFFFFFFFFFFFFFFFFFFFFFFFFFFFFFFFFFFF AND DUP3 PUSH20 0xFFFFFFFFFFFFFFFFFFFFFFFFFFFFFFFFFFFFFFFF AND EQ ISZERO PUSH2 0x32A6 JUMPI PUSH1 0x40 MLOAD PUSH32 0x8C379A000000000000000000000000000000000000000000000000000000000 DUP2 MSTORE PUSH1 0x4 ADD DUP1 DUP1 PUSH1 0x20 ADD DUP3 DUP2 SUB DUP3 MSTORE PUSH1 0x22 DUP2 MSTORE PUSH1 0x20 ADD DUP1 PUSH2 0x4024 PUSH1 0x22 SWAP2 CODECOPY PUSH1 0x40 ADD SWAP2 POP POP PUSH1 0x40 MLOAD DUP1 SWAP2 SUB SWAP1 REVERT JUMPDEST DUP1 PUSH1 0x1 PUSH1 0x0 DUP6 PUSH20 0xFFFFFFFFFFFFFFFFFFFFFFFFFFFFFFFFFFFFFFFF AND PUSH20 0xFFFFFFFFFFFFFFFFFFFFFFFFFFFFFFFFFFFFFFFF AND DUP2 MSTORE PUSH1 0x20 ADD SWAP1 DUP2 MSTORE PUSH1 0x20 ADD PUSH1 0x0 KECCAK256 PUSH1 0x0 DUP5 PUSH20 0xFFFFFFFFFFFFFFFFFFFFFFFFFFFFFFFFFFFFFFFF AND PUSH20 0xFFFFFFFFFFFFFFFFFFFFFFFFFFFFFFFFFFFFFFFF AND DUP2 MSTORE PUSH1 0x20 ADD SWAP1 DUP2 MSTORE PUSH1 0x20 ADD PUSH1 0x0 KECCAK256 DUP2 SWAP1 SSTORE POP DUP2 PUSH20 0xFFFFFFFFFFFFFFFFFFFFFFFFFFFFFFFFFFFFFFFF AND DUP4 PUSH20 0xFFFFFFFFFFFFFFFFFFFFFFFFFFFFFFFFFFFFFFFF AND PUSH32 0x8C5BE1E5EBEC7D5BD14F71427D1E84F3DD0314C0F7B2291E5B200AC8C7C3B925 DUP4 PUSH1 0x40 MLOAD DUP1 DUP3 DUP2 MSTORE PUSH1 0x20 ADD SWAP2 POP POP PUSH1 0x40 MLOAD DUP1 SWAP2 SUB SWAP1 LOG3 POP POP POP JUMP JUMPDEST PUSH1 0x0 PUSH20 0xFFFFFFFFFFFFFFFFFFFFFFFFFFFFFFFFFFFFFFFF AND DUP4 PUSH20 0xFFFFFFFFFFFFFFFFFFFFFFFFFFFFFFFFFFFFFFFF AND EQ ISZERO PUSH2 0x3417 JUMPI PUSH1 0x40 MLOAD PUSH32 0x8C379A000000000000000000000000000000000000000000000000000000000 DUP2 MSTORE PUSH1 0x4 ADD DUP1 DUP1 PUSH1 0x20 ADD DUP3 DUP2 SUB DUP3 MSTORE PUSH1 0x25 DUP2 MSTORE PUSH1 0x20 ADD DUP1 PUSH2 0x414E PUSH1 0x25 SWAP2 CODECOPY PUSH1 0x40 ADD SWAP2 POP POP PUSH1 0x40 MLOAD DUP1 SWAP2 SUB SWAP1 REVERT JUMPDEST PUSH1 0x0 PUSH20 0xFFFFFFFFFFFFFFFFFFFFFFFFFFFFFFFFFFFFFFFF AND DUP3 PUSH20 0xFFFFFFFFFFFFFFFFFFFFFFFFFFFFFFFFFFFFFFFF AND EQ ISZERO PUSH2 0x349D JUMPI PUSH1 0x40 MLOAD PUSH32 0x8C379A000000000000000000000000000000000000000000000000000000000 DUP2 MSTORE PUSH1 0x4 ADD DUP1 DUP1 PUSH1 0x20 ADD DUP3 DUP2 SUB DUP3 MSTORE PUSH1 0x23 DUP2 MSTORE PUSH1 0x20 ADD DUP1 PUSH2 0x3FB9 PUSH1 0x23 SWAP2 CODECOPY PUSH1 0x40 ADD SWAP2 POP POP PUSH1 0x40 MLOAD DUP1 SWAP2 SUB SWAP1 REVERT JUMPDEST PUSH2 0x34A8 DUP4 DUP4 DUP4 PUSH2 0x3FB3 JUMP JUMPDEST PUSH2 0x3513 DUP2 PUSH1 0x40 MLOAD DUP1 PUSH1 0x60 ADD PUSH1 0x40 MSTORE DUP1 PUSH1 0x26 DUP2 MSTORE PUSH1 0x20 ADD PUSH2 0x4046 PUSH1 0x26 SWAP2 CODECOPY PUSH1 0x0 DUP1 DUP8 PUSH20 0xFFFFFFFFFFFFFFFFFFFFFFFFFFFFFFFFFFFFFFFF AND PUSH20 0xFFFFFFFFFFFFFFFFFFFFFFFFFFFFFFFFFFFFFFFF AND DUP2 MSTORE PUSH1 0x20 ADD SWAP1 DUP2 MSTORE PUSH1 0x20 ADD PUSH1 0x0 KECCAK256 SLOAD PUSH2 0x3652 SWAP1 SWAP3 SWAP2 SWAP1 PUSH4 0xFFFFFFFF AND JUMP JUMPDEST PUSH1 0x0 DUP1 DUP6 PUSH20 0xFFFFFFFFFFFFFFFFFFFFFFFFFFFFFFFFFFFFFFFF AND PUSH20 0xFFFFFFFFFFFFFFFFFFFFFFFFFFFFFFFFFFFFFFFF AND DUP2 MSTORE PUSH1 0x20 ADD SWAP1 DUP2 MSTORE PUSH1 0x20 ADD PUSH1 0x0 KECCAK256 DUP2 SWAP1 SSTORE POP PUSH2 0x35A6 DUP2 PUSH1 0x0 DUP1 DUP6 PUSH20 0xFFFFFFFFFFFFFFFFFFFFFFFFFFFFFFFFFFFFFFFF AND PUSH20 0xFFFFFFFFFFFFFFFFFFFFFFFFFFFFFFFFFFFFFFFF AND DUP2 MSTORE PUSH1 0x20 ADD SWAP1 DUP2 MSTORE PUSH1 0x20 ADD PUSH1 0x0 KECCAK256 SLOAD PUSH2 0x370C SWAP1 SWAP2 SWAP1 PUSH4 0xFFFFFFFF AND JUMP JUMPDEST PUSH1 0x0 DUP1 DUP5 PUSH20 0xFFFFFFFFFFFFFFFFFFFFFFFFFFFFFFFFFFFFFFFF AND PUSH20 0xFFFFFFFFFFFFFFFFFFFFFFFFFFFFFFFFFFFFFFFF AND DUP2 MSTORE PUSH1 0x20 ADD SWAP1 DUP2 MSTORE PUSH1 0x20 ADD PUSH1 0x0 KECCAK256 DUP2 SWAP1 SSTORE POP DUP2 PUSH20 0xFFFFFFFFFFFFFFFFFFFFFFFFFFFFFFFFFFFFFFFF AND DUP4 PUSH20 0xFFFFFFFFFFFFFFFFFFFFFFFFFFFFFFFFFFFFFFFF AND PUSH32 0xDDF252AD1BE2C89B69C2B068FC378DAA952BA7F163C4A11628F55A4DF523B3EF DUP4 PUSH1 0x40 MLOAD DUP1 DUP3 DUP2 MSTORE PUSH1 0x20 ADD SWAP2 POP POP PUSH1 0x40 MLOAD DUP1 SWAP2 SUB SWAP1 LOG3 POP POP POP JUMP JUMPDEST PUSH1 0x0 DUP4 DUP4 GT ISZERO DUP3 SWAP1 PUSH2 0x36FF JUMPI PUSH1 0x40 MLOAD PUSH32 0x8C379A000000000000000000000000000000000000000000000000000000000 DUP2 MSTORE PUSH1 0x4 ADD DUP1 DUP1 PUSH1 0x20 ADD DUP3 DUP2 SUB DUP3 MSTORE DUP4 DUP2 DUP2 MLOAD DUP2 MSTORE PUSH1 0x20 ADD SWAP2 POP DUP1 MLOAD SWAP1 PUSH1 0x20 ADD SWAP1 DUP1 DUP4 DUP4 PUSH1 0x0 JUMPDEST DUP4 DUP2 LT ISZERO PUSH2 0x36C4 JUMPI DUP1 DUP3 ADD MLOAD DUP2 DUP5 ADD MSTORE PUSH1 0x20 DUP2 ADD SWAP1 POP PUSH2 0x36A9 JUMP JUMPDEST POP POP POP POP SWAP1 POP SWAP1 DUP2 ADD SWAP1 PUSH1 0x1F AND DUP1 ISZERO PUSH2 0x36F1 JUMPI DUP1 DUP3 SUB DUP1 MLOAD PUSH1 0x1 DUP4 PUSH1 0x20 SUB PUSH2 0x100 EXP SUB NOT AND DUP2 MSTORE PUSH1 0x20 ADD SWAP2 POP JUMPDEST POP SWAP3 POP POP POP PUSH1 0x40 MLOAD DUP1 SWAP2 SUB SWAP1 REVERT JUMPDEST POP DUP3 DUP5 SUB SWAP1 POP SWAP4 SWAP3 POP POP POP JUMP JUMPDEST PUSH1 0x0 DUP1 DUP3 DUP5 ADD SWAP1 POP DUP4 DUP2 LT ISZERO PUSH2 0x378A JUMPI PUSH1 0x40 MLOAD PUSH32 0x8C379A000000000000000000000000000000000000000000000000000000000 DUP2 MSTORE PUSH1 0x4 ADD DUP1 DUP1 PUSH1 0x20 ADD DUP3 DUP2 SUB DUP3 MSTORE PUSH1 0x1B DUP2 MSTORE PUSH1 0x20 ADD DUP1 PUSH32 0x536166654D6174683A206164646974696F6E206F766572666C6F770000000000 DUP2 MSTORE POP PUSH1 0x20 ADD SWAP2 POP POP PUSH1 0x40 MLOAD DUP1 SWAP2 SUB SWAP1 REVERT JUMPDEST DUP1 SWAP2 POP POP SWAP3 SWAP2 POP POP JUMP JUMPDEST PUSH1 0x0 PUSH2 0x379F TIMESTAMP PUSH2 0x3C42 JUMP JUMPDEST PUSH2 0x37AB DUP3 PUSH1 0xD SLOAD PUSH2 0x2F40 JUMP JUMPDEST SWAP1 POP PUSH1 0xD SLOAD PUSH1 0x10 PUSH1 0x0 DUP5 PUSH20 0xFFFFFFFFFFFFFFFFFFFFFFFFFFFFFFFFFFFFFFFF AND PUSH20 0xFFFFFFFFFFFFFFFFFFFFFFFFFFFFFFFFFFFFFFFF AND DUP2 MSTORE PUSH1 0x20 ADD SWAP1 DUP2 MSTORE PUSH1 0x20 ADD PUSH1 0x0 KECCAK256 DUP2 SWAP1 SSTORE POP SWAP2 SWAP1 POP JUMP JUMPDEST PUSH1 0x0 DUP3 DUP3 GT ISZERO PUSH2 0x3870 JUMPI PUSH1 0x40 MLOAD PUSH32 0x8C379A000000000000000000000000000000000000000000000000000000000 DUP2 MSTORE PUSH1 0x4 ADD DUP1 DUP1 PUSH1 0x20 ADD DUP3 DUP2 SUB DUP3 MSTORE PUSH1 0x1E DUP2 MSTORE PUSH1 0x20 ADD DUP1 PUSH32 0x536166654D6174683A207375627472616374696F6E206F766572666C6F770000 DUP2 MSTORE POP PUSH1 0x20 ADD SWAP2 POP POP PUSH1 0x40 MLOAD DUP1 SWAP2 SUB SWAP1 REVERT JUMPDEST DUP2 DUP4 SUB SWAP1 POP SWAP3 SWAP2 POP POP JUMP JUMPDEST PUSH1 0x0 DUP1 DUP4 EQ ISZERO PUSH2 0x388E JUMPI PUSH1 0x0 SWAP1 POP PUSH2 0x38FB JUMP JUMPDEST PUSH1 0x0 DUP3 DUP5 MUL SWAP1 POP DUP3 DUP5 DUP3 DUP2 PUSH2 0x389F JUMPI INVALID JUMPDEST DIV EQ PUSH2 0x38F6 JUMPI PUSH1 0x40 MLOAD PUSH32 0x8C379A000000000000000000000000000000000000000000000000000000000 DUP2 MSTORE PUSH1 0x4 ADD DUP1 DUP1 PUSH1 0x20 ADD DUP3 DUP2 SUB DUP3 MSTORE PUSH1 0x21 DUP2 MSTORE PUSH1 0x20 ADD DUP1 PUSH2 0x408F PUSH1 0x21 SWAP2 CODECOPY PUSH1 0x40 ADD SWAP2 POP POP PUSH1 0x40 MLOAD DUP1 SWAP2 SUB SWAP1 REVERT JUMPDEST DUP1 SWAP2 POP POP JUMPDEST SWAP3 SWAP2 POP POP JUMP JUMPDEST PUSH1 0x0 DUP1 DUP3 GT PUSH2 0x3978 JUMPI PUSH1 0x40 MLOAD PUSH32 0x8C379A000000000000000000000000000000000000000000000000000000000 DUP2 MSTORE PUSH1 0x4 ADD DUP1 DUP1 PUSH1 0x20 ADD DUP3 DUP2 SUB DUP3 MSTORE PUSH1 0x1A DUP2 MSTORE PUSH1 0x20 ADD DUP1 PUSH32 0x536166654D6174683A206469766973696F6E206279207A65726F000000000000 DUP2 MSTORE POP PUSH1 0x20 ADD SWAP2 POP POP PUSH1 0x40 MLOAD DUP1 SWAP2 SUB SWAP1 REVERT JUMPDEST DUP2 DUP4 DUP2 PUSH2 0x3981 JUMPI INVALID JUMPDEST DIV SWAP1 POP SWAP3 SWAP2 POP POP JUMP JUMPDEST PUSH2 0x39CD PUSH2 0x39BC PUSH1 0xE SLOAD PUSH2 0x39AE PUSH8 0xDE0B6B3A7640000 DUP6 PUSH2 0x387B SWAP1 SWAP2 SWAP1 PUSH4 0xFFFFFFFF AND JUMP JUMPDEST PUSH2 0x3901 SWAP1 SWAP2 SWAP1 PUSH4 0xFFFFFFFF AND JUMP JUMPDEST PUSH1 0xD SLOAD PUSH2 0x370C SWAP1 SWAP2 SWAP1 PUSH4 0xFFFFFFFF AND JUMP JUMPDEST PUSH1 0xD DUP2 SWAP1 SSTORE POP POP JUMP JUMPDEST PUSH1 0x6 PUSH1 0x0 SWAP1 SLOAD SWAP1 PUSH2 0x100 EXP SWAP1 DIV PUSH20 0xFFFFFFFFFFFFFFFFFFFFFFFFFFFFFFFFFFFFFFFF AND PUSH20 0xFFFFFFFFFFFFFFFFFFFFFFFFFFFFFFFFFFFFFFFF AND CALLER PUSH20 0xFFFFFFFFFFFFFFFFFFFFFFFFFFFFFFFFFFFFFFFF AND EQ PUSH2 0x3A7C JUMPI PUSH1 0x40 MLOAD PUSH32 0x8C379A000000000000000000000000000000000000000000000000000000000 DUP2 MSTORE PUSH1 0x4 ADD DUP1 DUP1 PUSH1 0x20 ADD DUP3 DUP2 SUB DUP3 MSTORE PUSH1 0x2D DUP2 MSTORE PUSH1 0x20 ADD DUP1 PUSH2 0x4100 PUSH1 0x2D SWAP2 CODECOPY PUSH1 0x40 ADD SWAP2 POP POP PUSH1 0x40 MLOAD DUP1 SWAP2 SUB SWAP1 REVERT JUMPDEST JUMP JUMPDEST PUSH1 0x0 PUSH20 0xFFFFFFFFFFFFFFFFFFFFFFFFFFFFFFFFFFFFFFFF AND DUP3 PUSH20 0xFFFFFFFFFFFFFFFFFFFFFFFFFFFFFFFFFFFFFFFF AND EQ ISZERO PUSH2 0x3B04 JUMPI PUSH1 0x40 MLOAD PUSH32 0x8C379A000000000000000000000000000000000000000000000000000000000 DUP2 MSTORE PUSH1 0x4 ADD DUP1 DUP1 PUSH1 0x20 ADD DUP3 DUP2 SUB DUP3 MSTORE PUSH1 0x21 DUP2 MSTORE PUSH1 0x20 ADD DUP1 PUSH2 0x412D PUSH1 0x21 SWAP2 CODECOPY PUSH1 0x40 ADD SWAP2 POP POP PUSH1 0x40 MLOAD DUP1 SWAP2 SUB SWAP1 REVERT JUMPDEST PUSH2 0x3B10 DUP3 PUSH1 0x0 DUP4 PUSH2 0x3FB3 JUMP JUMPDEST PUSH2 0x3B7B DUP2 PUSH1 0x40 MLOAD DUP1 PUSH1 0x60 ADD PUSH1 0x40 MSTORE DUP1 PUSH1 0x22 DUP2 MSTORE PUSH1 0x20 ADD PUSH2 0x3FDC PUSH1 0x22 SWAP2 CODECOPY PUSH1 0x0 DUP1 DUP7 PUSH20 0xFFFFFFFFFFFFFFFFFFFFFFFFFFFFFFFFFFFFFFFF AND PUSH20 0xFFFFFFFFFFFFFFFFFFFFFFFFFFFFFFFFFFFFFFFF AND DUP2 MSTORE PUSH1 0x20 ADD SWAP1 DUP2 MSTORE PUSH1 0x20 ADD PUSH1 0x0 KECCAK256 SLOAD PUSH2 0x3652 SWAP1 SWAP3 SWAP2 SWAP1 PUSH4 0xFFFFFFFF AND JUMP JUMPDEST PUSH1 0x0 DUP1 DUP5 PUSH20 0xFFFFFFFFFFFFFFFFFFFFFFFFFFFFFFFFFFFFFFFF AND PUSH20 0xFFFFFFFFFFFFFFFFFFFFFFFFFFFFFFFFFFFFFFFF AND DUP2 MSTORE PUSH1 0x20 ADD SWAP1 DUP2 MSTORE PUSH1 0x20 ADD PUSH1 0x0 KECCAK256 DUP2 SWAP1 SSTORE POP PUSH2 0x3BD2 DUP2 PUSH1 0x2 SLOAD PUSH2 0x37F8 SWAP1 SWAP2 SWAP1 PUSH4 0xFFFFFFFF AND JUMP JUMPDEST PUSH1 0x2 DUP2 SWAP1 SSTORE POP PUSH1 0x0 PUSH20 0xFFFFFFFFFFFFFFFFFFFFFFFFFFFFFFFFFFFFFFFF AND DUP3 PUSH20 0xFFFFFFFFFFFFFFFFFFFFFFFFFFFFFFFFFFFFFFFF AND PUSH32 0xDDF252AD1BE2C89B69C2B068FC378DAA952BA7F163C4A11628F55A4DF523B3EF DUP4 PUSH1 0x40 MLOAD DUP1 DUP3 DUP2 MSTORE PUSH1 0x20 ADD SWAP2 POP POP PUSH1 0x40 MLOAD DUP1 SWAP2 SUB SWAP1 LOG3 POP POP JUMP JUMPDEST PUSH1 0x0 PUSH2 0x3C4D DUP3 PUSH2 0x1F03 JUMP JUMPDEST SWAP1 POP PUSH1 0xD SLOAD DUP2 GT ISZERO PUSH2 0x3C68 JUMPI DUP1 PUSH1 0xD DUP2 SWAP1 SSTORE POP DUP2 PUSH1 0x9 DUP2 SWAP1 SSTORE POP JUMPDEST POP POP JUMP JUMPDEST PUSH1 0x0 PUSH20 0xFFFFFFFFFFFFFFFFFFFFFFFFFFFFFFFFFFFFFFFF AND DUP3 PUSH20 0xFFFFFFFFFFFFFFFFFFFFFFFFFFFFFFFFFFFFFFFF AND EQ ISZERO PUSH2 0x3D0F JUMPI PUSH1 0x40 MLOAD PUSH32 0x8C379A000000000000000000000000000000000000000000000000000000000 DUP2 MSTORE PUSH1 0x4 ADD DUP1 DUP1 PUSH1 0x20 ADD DUP3 DUP2 SUB DUP3 MSTORE PUSH1 0x1F DUP2 MSTORE PUSH1 0x20 ADD DUP1 PUSH32 0x45524332303A206D696E7420746F20746865207A65726F206164647265737300 DUP2 MSTORE POP PUSH1 0x20 ADD SWAP2 POP POP PUSH1 0x40 MLOAD DUP1 SWAP2 SUB SWAP1 REVERT JUMPDEST PUSH2 0x3D1B PUSH1 0x0 DUP4 DUP4 PUSH2 0x3FB3 JUMP JUMPDEST PUSH2 0x3D30 DUP2 PUSH1 0x2 SLOAD PUSH2 0x370C SWAP1 SWAP2 SWAP1 PUSH4 0xFFFFFFFF AND JUMP JUMPDEST PUSH1 0x2 DUP2 SWAP1 SSTORE POP PUSH2 0x3D87 DUP2 PUSH1 0x0 DUP1 DUP6 PUSH20 0xFFFFFFFFFFFFFFFFFFFFFFFFFFFFFFFFFFFFFFFF AND PUSH20 0xFFFFFFFFFFFFFFFFFFFFFFFFFFFFFFFFFFFFFFFF AND DUP2 MSTORE PUSH1 0x20 ADD SWAP1 DUP2 MSTORE PUSH1 0x20 ADD PUSH1 0x0 KECCAK256 SLOAD PUSH2 0x370C SWAP1 SWAP2 SWAP1 PUSH4 0xFFFFFFFF AND JUMP JUMPDEST PUSH1 0x0 DUP1 DUP5 PUSH20 0xFFFFFFFFFFFFFFFFFFFFFFFFFFFFFFFFFFFFFFFF AND PUSH20 0xFFFFFFFFFFFFFFFFFFFFFFFFFFFFFFFFFFFFFFFF AND DUP2 MSTORE PUSH1 0x20 ADD SWAP1 DUP2 MSTORE PUSH1 0x20 ADD PUSH1 0x0 KECCAK256 DUP2 SWAP1 SSTORE POP DUP2 PUSH20 0xFFFFFFFFFFFFFFFFFFFFFFFFFFFFFFFFFFFFFFFF AND PUSH1 0x0 PUSH20 0xFFFFFFFFFFFFFFFFFFFFFFFFFFFFFFFFFFFFFFFF AND PUSH32 0xDDF252AD1BE2C89B69C2B068FC378DAA952BA7F163C4A11628F55A4DF523B3EF DUP4 PUSH1 0x40 MLOAD DUP1 DUP3 DUP2 MSTORE PUSH1 0x20 ADD SWAP2 POP POP PUSH1 0x40 MLOAD DUP1 SWAP2 SUB SWAP1 LOG3 POP POP JUMP JUMPDEST PUSH1 0x0 PUSH20 0xFFFFFFFFFFFFFFFFFFFFFFFFFFFFFFFFFFFFFFFF AND PUSH1 0x6 PUSH1 0x0 SWAP1 SLOAD SWAP1 PUSH2 0x100 EXP SWAP1 DIV PUSH20 0xFFFFFFFFFFFFFFFFFFFFFFFFFFFFFFFFFFFFFFFF AND PUSH20 0xFFFFFFFFFFFFFFFFFFFFFFFFFFFFFFFFFFFFFFFF AND EQ PUSH2 0x3FB1 JUMPI PUSH1 0x0 PUSH1 0x6 PUSH1 0x0 SWAP1 SLOAD SWAP1 PUSH2 0x100 EXP SWAP1 DIV PUSH20 0xFFFFFFFFFFFFFFFFFFFFFFFFFFFFFFFFFFFFFFFF AND PUSH20 0xFFFFFFFFFFFFFFFFFFFFFFFFFFFFFFFFFFFFFFFF AND PUSH4 0xFD726827 PUSH1 0x40 MLOAD DUP2 PUSH4 0xFFFFFFFF AND PUSH1 0xE0 SHL DUP2 MSTORE PUSH1 0x4 ADD PUSH1 0x20 PUSH1 0x40 MLOAD DUP1 DUP4 SUB DUP2 DUP7 DUP1 EXTCODESIZE ISZERO DUP1 ISZERO PUSH2 0x3EF3 JUMPI PUSH1 0x0 DUP1 REVERT JUMPDEST POP GAS STATICCALL ISZERO DUP1 ISZERO PUSH2 0x3F07 JUMPI RETURNDATASIZE PUSH1 0x0 DUP1 RETURNDATACOPY RETURNDATASIZE PUSH1 0x0 REVERT JUMPDEST POP POP POP POP PUSH1 0x40 MLOAD RETURNDATASIZE PUSH1 0x20 DUP2 LT ISZERO PUSH2 0x3F1D JUMPI PUSH1 0x0 DUP1 REVERT JUMPDEST DUP2 ADD SWAP1 DUP1 DUP1 MLOAD SWAP1 PUSH1 0x20 ADD SWAP1 SWAP3 SWAP2 SWAP1 POP POP POP SWAP1 POP PUSH1 0x0 DUP2 GT ISZERO PUSH2 0x3FAF JUMPI DUP1 TIMESTAMP LT PUSH2 0x3FAE JUMPI PUSH1 0x40 MLOAD PUSH32 0x8C379A000000000000000000000000000000000000000000000000000000000 DUP2 MSTORE PUSH1 0x4 ADD DUP1 DUP1 PUSH1 0x20 ADD DUP3 DUP2 SUB DUP3 MSTORE PUSH1 0x18 DUP2 MSTORE PUSH1 0x20 ADD DUP1 PUSH32 0x50726F6A65637420616C7265616479206C61756E636865640000000000000000 DUP2 MSTORE POP PUSH1 0x20 ADD SWAP2 POP POP PUSH1 0x40 MLOAD DUP1 SWAP2 SUB SWAP1 REVERT JUMPDEST JUMPDEST POP JUMPDEST JUMP JUMPDEST POP POP POP JUMP INVALID GASLIMIT MSTORE NUMBER ORIGIN ADDRESS GASPRICE KECCAK256 PUSH21 0x72616E7366657220746F20746865207A65726F2061 PUSH5 0x6472657373 GASLIMIT MSTORE NUMBER ORIGIN ADDRESS GASPRICE KECCAK256 PUSH3 0x75726E KECCAK256 PUSH2 0x6D6F PUSH22 0x6E7420657863656564732062616C616E63654F776E61 PUSH3 0x6C653A KECCAK256 PUSH15 0x6577206F776E657220697320746865 KECCAK256 PUSH27 0x65726F206164647265737345524332303A20617070726F76652074 PUSH16 0x20746865207A65726F20616464726573 PUSH20 0x45524332303A207472616E7366657220616D6F75 PUSH15 0x7420657863656564732062616C616E PUSH4 0x65547261 PUSH15 0x73616374696F6E7320617265206375 PUSH19 0x72656E746C792064697361626C656453616665 0x4D PUSH2 0x7468 GASPRICE KECCAK256 PUSH14 0x756C7469706C69636174696F6E20 PUSH16 0x766572666C6F7745524332303A207472 PUSH2 0x6E73 PUSH7 0x657220616D6F75 PUSH15 0x74206578636565647320616C6C6F77 PUSH2 0x6E63 PUSH6 0x43757272656E PUSH21 0x207374616B696E672063616D706169676E20697320 PUSH15 0x6F74206F766572207965744F6E6C79 KECCAK256 PUSH23 0x616C69646174656420496E7465726661636550726F6A65 PUSH4 0x74546F6B PUSH6 0x6E20436F6E74 PUSH19 0x61637445524332303A206275726E2066726F6D KECCAK256 PUSH21 0x6865207A65726F206164647265737345524332303A KECCAK256 PUSH21 0x72616E736665722066726F6D20746865207A65726F KECCAK256 PUSH2 0x6464 PUSH19 0x65737345524332303A20617070726F76652066 PUSH19 0x6F6D20746865207A65726F2061646472657373 MSTORE8 PUSH21 0x617274696E672064617465206D7573742062652061 PUSH7 0x74657220637572 PUSH19 0x656E74206461746520616E64207374616B696E PUSH8 0x206475726174696F PUSH15 0x206D75737420626520677265617465 PUSH19 0x207468616E203050726F766964652073616D65 KECCAK256 PUSH2 0x6D6F PUSH22 0x6E74206F662076616C75657320617320757365727345 MSTORE NUMBER ORIGIN ADDRESS GASPRICE KECCAK256 PUSH5 0x6563726561 PUSH20 0x656420616C6C6F77616E63652062656C6F77207A PUSH6 0x726FA2646970 PUSH7 0x7358221220F3EF 0xE1 EQ 0xB8 DELEGATECALL 0xE0 CALLDATALOAD 0xC0 0x4B PUSH7 0xA2E59B6FCF04E1 STOP SUB 0x2A 0xC4 0xD4 0x26 0xBD PUSH2 0x5006 SWAP16 0xE2 0x4D 0xFB PUSH5 0x736F6C6343 STOP SMOD MOD STOP CALLER 0x4D PUSH2 0x7869 PUSH14 0x756D20636C61696D20666565206D PUSH22 0x7374206265206C6F776572207468616E203130302549 PUSH15 0x697469616C20756E6C6F636B206D75 PUSH20 0x74206265206C6F776572207468616E2031303025 0x49 PUSH7 0x206E6F20766573 PUSH21 0x696E672C20616C6C20746F6B656E73206D75737420 PUSH3 0x652072 PUSH6 0x6C6561736564 KECCAK256 PUSH2 0x7420 PUSH13 0x61756E63684D6178696D756D20 PUSH24 0x69746864726177616C20666565206D757374206265206C6F PUSH24 0x6572207468616E2031303025000000000000000000000000 "
    },
    "gasEstimates": {
      "creation": {
        "codeDepositCost": "3400600",
        "executionCost": "infinite",
        "totalCost": "infinite"
      },
      "external": {
        "allocateLTByOwner(address[],uint256[],bool)": "infinite",
        "allowance(address,address)": "1454",
        "approve(address,uint256)": "infinite",
        "areUserFunctionsDisabled()": "1116",
        "balanceOf(address)": "1286",
        "burnByInterfaceProjectToken(uint256)": "infinite",
        "campaignStakingRewards()": "1075",
        "claimedRewardPerShare1e18(address)": "1303",
        "currentRewardPerShare1e18()": "1094",
        "decimals()": "1168",
        "decreaseAllowance(address,uint256)": "infinite",
        "depositLT(uint256)": "infinite",
        "dischargeUserTokens(address,uint256)": "infinite",
        "durationCliff()": "1117",
        "durationLinearVesting()": "1116",
        "enableOrDisableUserFunctions()": "22929",
        "ensureUserFunctionsAreNotDisabled()": "infinite",
        "fractionInitialUnlockPerThousand()": "1140",
        "getHodlRewards(address,uint256)": "infinite",
        "getUpdatedRewardPerShare1e18(uint256)": "infinite",
        "getUserDateOfPartiallyChargedToken(address)": "1293",
        "getUserFullyChargedBalanceLiquiToken(address)": "1314",
        "getUserPartiallyChargedBalanceLiquiToken(address)": "1292",
        "increaseAllowance(address,uint256)": "infinite",
        "interfaceProjectToken()": "1137",
        "maxClaimFeesPerThousandForPT()": "1072",
        "maxInitialTokenAllocation()": "1096",
        "maxWithdrawFeesPerThousandForLT()": "1118",
        "mintByInterfaceProjectToken(uint256)": "infinite",
        "multiplier1K()": "316",
        "name()": "infinite",
        "owner()": "1173",
        "ratioFeesToRewardHodlersPerThousand()": "1095",
        "rechargeUserTokens(address,uint256,uint256,uint256)": "infinite",
        "renounceOwnership()": "24594",
        "setInterfaceProjectToken(address)": "22240",
        "setStakingRewards(uint256,uint256,uint256)": "infinite",
        "stakedLT()": "1117",
        "stakingDateLastCheckpoint()": "1118",
        "stakingDuration()": "1138",
        "stakingStartDate()": "1094",
        "symbol()": "infinite",
        "totalStakingRewards()": "1117",
        "totalSupply()": "1082",
        "totalTokenAllocated()": "1096",
        "totalTokenSold()": "1073",
        "transfer(address,uint256)": "infinite",
        "transferFrom(address,address,uint256)": "infinite",
        "transferOwnership(address)": "infinite",
        "updateRatioFeesToRewardHodlers(uint256)": "21392",
        "updateRewardsAfterFeesPaymentByInterface(uint256)": "infinite",
        "updateStakingAndGetHodlRewardsByInterfacePT(address)": "infinite",
        "updateWithdrawalFeesForLT(uint256)": "22148",
        "userLiquiToken(address)": "2916",
        "withdrawFeesPerThousandForLT()": "1138",
        "withdrawLT(uint256)": "infinite"
      },
      "internal": {
        "checkProjectNotYetLaunched()": "infinite",
        "ensureOnlyInterfaceProjectToken()": "infinite",
        "updateRewardsAfterFeesPayment(uint256)": "infinite",
        "updateStakingAndGetHodlRewards(address)": "infinite",
        "updateStakingParameters(uint256)": "infinite"
      }
    },
    "methodIdentifiers": {
      "allocateLTByOwner(address[],uint256[],bool)": "df910817",
      "allowance(address,address)": "dd62ed3e",
      "approve(address,uint256)": "095ea7b3",
      "areUserFunctionsDisabled()": "63cf3cff",
      "balanceOf(address)": "70a08231",
      "burnByInterfaceProjectToken(uint256)": "6d69847d",
      "campaignStakingRewards()": "03ff8e88",
      "claimedRewardPerShare1e18(address)": "95230a80",
      "currentRewardPerShare1e18()": "e0d0c567",
      "decimals()": "313ce567",
      "decreaseAllowance(address,uint256)": "a457c2d7",
      "depositLT(uint256)": "d49d18d6",
      "dischargeUserTokens(address,uint256)": "82af7d39",
      "durationCliff()": "3f2b437d",
      "durationLinearVesting()": "e54dd98a",
      "enableOrDisableUserFunctions()": "a74536e0",
      "ensureUserFunctionsAreNotDisabled()": "1f93abd4",
      "fractionInitialUnlockPerThousand()": "2945ac68",
      "getHodlRewards(address,uint256)": "fb3da545",
      "getUpdatedRewardPerShare1e18(uint256)": "908a6bf0",
      "getUserDateOfPartiallyChargedToken(address)": "305e2daf",
      "getUserFullyChargedBalanceLiquiToken(address)": "7561ea9a",
      "getUserPartiallyChargedBalanceLiquiToken(address)": "9f65ffb0",
      "increaseAllowance(address,uint256)": "39509351",
      "interfaceProjectToken()": "3e332f16",
      "maxClaimFeesPerThousandForPT()": "78e104da",
      "maxInitialTokenAllocation()": "86982e61",
      "maxWithdrawFeesPerThousandForLT()": "8aa03a3c",
      "mintByInterfaceProjectToken(uint256)": "da3a5936",
      "multiplier1K()": "7e267f39",
      "name()": "06fdde03",
      "owner()": "8da5cb5b",
      "ratioFeesToRewardHodlersPerThousand()": "74ddcd1d",
      "rechargeUserTokens(address,uint256,uint256,uint256)": "740c3495",
      "renounceOwnership()": "715018a6",
      "setInterfaceProjectToken(address)": "dccdc995",
      "setStakingRewards(uint256,uint256,uint256)": "a1b0c412",
      "stakedLT()": "c96877a2",
      "stakingDateLastCheckpoint()": "6c1f89ed",
      "stakingDuration()": "8005a7de",
      "stakingStartDate()": "7ccf0226",
      "symbol()": "95d89b41",
      "totalStakingRewards()": "93ef357a",
      "totalSupply()": "18160ddd",
      "totalTokenAllocated()": "6a4bd5a6",
      "totalTokenSold()": "b5f7f636",
      "transfer(address,uint256)": "a9059cbb",
      "transferFrom(address,address,uint256)": "23b872dd",
      "transferOwnership(address)": "f2fde38b",
      "updateRatioFeesToRewardHodlers(uint256)": "72b990b5",
      "updateRewardsAfterFeesPaymentByInterface(uint256)": "f331a867",
      "updateStakingAndGetHodlRewardsByInterfacePT(address)": "efb5c2f3",
      "updateWithdrawalFeesForLT(uint256)": "bf777f82",
      "userLiquiToken(address)": "30400a86",
      "withdrawFeesPerThousandForLT()": "abfdce2c",
      "withdrawLT(uint256)": "483f3ac7"
    }
  },
  "storageLayout": {
    "storage": [
      {
        "astId": 2844,
        "contract": "LiquidityToken.sol:LiquidityToken",
        "label": "_balances",
        "offset": 0,
        "slot": "0",
        "type": "t_mapping(t_address,t_uint256)"
      },
      {
        "astId": 2850,
        "contract": "LiquidityToken.sol:LiquidityToken",
        "label": "_allowances",
        "offset": 0,
        "slot": "1",
        "type": "t_mapping(t_address,t_mapping(t_address,t_uint256))"
      },
      {
        "astId": 2852,
        "contract": "LiquidityToken.sol:LiquidityToken",
        "label": "_totalSupply",
        "offset": 0,
        "slot": "2",
        "type": "t_uint256"
      },
      {
        "astId": 2854,
        "contract": "LiquidityToken.sol:LiquidityToken",
        "label": "_name",
        "offset": 0,
        "slot": "3",
        "type": "t_string_storage"
      },
      {
        "astId": 2856,
        "contract": "LiquidityToken.sol:LiquidityToken",
        "label": "_symbol",
        "offset": 0,
        "slot": "4",
        "type": "t_string_storage"
      },
      {
        "astId": 2858,
        "contract": "LiquidityToken.sol:LiquidityToken",
        "label": "_decimals",
        "offset": 0,
        "slot": "5",
        "type": "t_uint8"
      },
      {
        "astId": 2335,
        "contract": "LiquidityToken.sol:LiquidityToken",
        "label": "_owner",
        "offset": 1,
        "slot": "5",
        "type": "t_address"
      },
      {
        "astId": 1168,
        "contract": "LiquidityToken.sol:LiquidityToken",
        "label": "interfaceProjectToken",
        "offset": 0,
        "slot": "6",
        "type": "t_contract(InterfaceProjectToken)1153"
      },
      {
        "astId": 1173,
        "contract": "LiquidityToken.sol:LiquidityToken",
        "label": "stakingStartDate",
        "offset": 0,
        "slot": "7",
        "type": "t_uint256"
      },
      {
        "astId": 1175,
        "contract": "LiquidityToken.sol:LiquidityToken",
        "label": "stakingDuration",
        "offset": 0,
        "slot": "8",
        "type": "t_uint256"
      },
      {
        "astId": 1177,
        "contract": "LiquidityToken.sol:LiquidityToken",
        "label": "stakingDateLastCheckpoint",
        "offset": 0,
        "slot": "9",
        "type": "t_uint256"
      },
      {
        "astId": 1179,
        "contract": "LiquidityToken.sol:LiquidityToken",
        "label": "campaignStakingRewards",
        "offset": 0,
        "slot": "10",
        "type": "t_uint256"
      },
      {
        "astId": 1181,
        "contract": "LiquidityToken.sol:LiquidityToken",
        "label": "totalStakingRewards",
        "offset": 0,
        "slot": "11",
        "type": "t_uint256"
      },
      {
        "astId": 1184,
        "contract": "LiquidityToken.sol:LiquidityToken",
        "label": "ratioFeesToRewardHodlersPerThousand",
        "offset": 0,
        "slot": "12",
        "type": "t_uint256"
      },
      {
        "astId": 1186,
        "contract": "LiquidityToken.sol:LiquidityToken",
        "label": "currentRewardPerShare1e18",
        "offset": 0,
        "slot": "13",
        "type": "t_uint256"
      },
      {
        "astId": 1188,
        "contract": "LiquidityToken.sol:LiquidityToken",
        "label": "stakedLT",
        "offset": 0,
        "slot": "14",
        "type": "t_uint256"
      },
      {
        "astId": 1190,
        "contract": "LiquidityToken.sol:LiquidityToken",
        "label": "totalTokenSold",
        "offset": 0,
        "slot": "15",
        "type": "t_uint256"
      },
      {
        "astId": 1194,
        "contract": "LiquidityToken.sol:LiquidityToken",
        "label": "claimedRewardPerShare1e18",
        "offset": 0,
        "slot": "16",
        "type": "t_mapping(t_address,t_uint256)"
      },
      {
        "astId": 1196,
        "contract": "LiquidityToken.sol:LiquidityToken",
        "label": "durationCliff",
        "offset": 0,
        "slot": "17",
        "type": "t_uint256"
      },
      {
        "astId": 1198,
        "contract": "LiquidityToken.sol:LiquidityToken",
        "label": "durationLinearVesting",
        "offset": 0,
        "slot": "18",
        "type": "t_uint256"
      },
      {
        "astId": 1200,
        "contract": "LiquidityToken.sol:LiquidityToken",
        "label": "maxInitialTokenAllocation",
        "offset": 0,
        "slot": "19",
        "type": "t_uint256"
      },
      {
        "astId": 1202,
        "contract": "LiquidityToken.sol:LiquidityToken",
        "label": "totalTokenAllocated",
        "offset": 0,
        "slot": "20",
        "type": "t_uint256"
      },
      {
        "astId": 1204,
        "contract": "LiquidityToken.sol:LiquidityToken",
        "label": "fractionInitialUnlockPerThousand",
        "offset": 0,
        "slot": "21",
        "type": "t_uint256"
      },
      {
        "astId": 1206,
        "contract": "LiquidityToken.sol:LiquidityToken",
        "label": "withdrawFeesPerThousandForLT",
        "offset": 0,
        "slot": "22",
        "type": "t_uint256"
      },
      {
        "astId": 1208,
        "contract": "LiquidityToken.sol:LiquidityToken",
        "label": "maxWithdrawFeesPerThousandForLT",
        "offset": 0,
        "slot": "23",
        "type": "t_uint256"
      },
      {
        "astId": 1210,
        "contract": "LiquidityToken.sol:LiquidityToken",
        "label": "maxClaimFeesPerThousandForPT",
        "offset": 0,
        "slot": "24",
        "type": "t_uint256"
      },
      {
        "astId": 1212,
        "contract": "LiquidityToken.sol:LiquidityToken",
        "label": "areUserFunctionsDisabled",
        "offset": 0,
        "slot": "25",
        "type": "t_bool"
      },
      {
        "astId": 1223,
        "contract": "LiquidityToken.sol:LiquidityToken",
        "label": "userLiquiToken",
        "offset": 0,
        "slot": "26",
        "type": "t_mapping(t_address,t_struct(LiquiToken)1219_storage)"
      }
    ],
    "types": {
      "t_address": {
        "encoding": "inplace",
        "label": "address",
        "numberOfBytes": "20"
      },
      "t_bool": {
        "encoding": "inplace",
        "label": "bool",
        "numberOfBytes": "1"
      },
      "t_contract(InterfaceProjectToken)1153": {
        "encoding": "inplace",
        "label": "contract InterfaceProjectToken",
        "numberOfBytes": "20"
      },
      "t_mapping(t_address,t_mapping(t_address,t_uint256))": {
        "encoding": "mapping",
        "key": "t_address",
        "label": "mapping(address => mapping(address => uint256))",
        "numberOfBytes": "32",
        "value": "t_mapping(t_address,t_uint256)"
      },
      "t_mapping(t_address,t_struct(LiquiToken)1219_storage)": {
        "encoding": "mapping",
        "key": "t_address",
        "label": "mapping(address => struct LiquidityToken.LiquiToken)",
        "numberOfBytes": "32",
        "value": "t_struct(LiquiToken)1219_storage"
      },
      "t_mapping(t_address,t_uint256)": {
        "encoding": "mapping",
        "key": "t_address",
        "label": "mapping(address => uint256)",
        "numberOfBytes": "32",
        "value": "t_uint256"
      },
      "t_string_storage": {
        "encoding": "bytes",
        "label": "string",
        "numberOfBytes": "32"
      },
      "t_struct(LiquiToken)1219_storage": {
        "encoding": "inplace",
        "label": "struct LiquidityToken.LiquiToken",
        "members": [
          {
            "astId": 1214,
            "contract": "LiquidityToken.sol:LiquidityToken",
            "label": "fullyChargedBalance",
            "offset": 0,
            "slot": "0",
            "type": "t_uint256"
          },
          {
            "astId": 1216,
            "contract": "LiquidityToken.sol:LiquidityToken",
            "label": "partiallyChargedBalance",
            "offset": 0,
            "slot": "1",
            "type": "t_uint256"
          },
          {
            "astId": 1218,
            "contract": "LiquidityToken.sol:LiquidityToken",
            "label": "dateOfPartiallyCharged",
            "offset": 0,
            "slot": "2",
            "type": "t_uint256"
          }
        ],
        "numberOfBytes": "96"
      },
      "t_uint256": {
        "encoding": "inplace",
        "label": "uint256",
        "numberOfBytes": "32"
      },
      "t_uint8": {
        "encoding": "inplace",
        "label": "uint8",
        "numberOfBytes": "1"
      }
    }
  },
  "userdoc": {
    "events": {
      "LTAllocatedByOwner(address,uint256,uint256,bool)": {
        "notice": "Events ///////////////////////////////////////////////////////////////////"
      }
    },
    "kind": "user",
    "methods": {},
    "version": 1
  }
}