{
  "abi": [
    {
      "inputs": [
        {
          "internalType": "string",
          "name": "_name",
          "type": "string"
        },
        {
          "internalType": "string",
          "name": "_symbol",
          "type": "string"
        },
        {
          "internalType": "uint256",
          "name": "_fractionInitialUnlockPerThousand",
          "type": "uint256"
        },
        {
          "internalType": "uint256",
          "name": "_durationCliff",
          "type": "uint256"
        },
        {
          "internalType": "uint256",
          "name": "_durationLinearVesting",
          "type": "uint256"
        },
        {
          "internalType": "uint256",
          "name": "_maxWithdrawFeesPerThousandForLT",
          "type": "uint256"
        },
        {
          "internalType": "uint256",
          "name": "_maxClaimFeesPerThousandForPT",
          "type": "uint256"
        },
        {
          "internalType": "uint256",
          "name": "_maxStakingAPR",
          "type": "uint256"
        },
        {
          "internalType": "uint256",
          "name": "_maxStakingTokenAmount",
          "type": "uint256"
        },
        {
          "internalType": "uint256",
          "name": "_maxInitialTokenAllocation",
          "type": "uint256"
        }
      ],
      "stateMutability": "nonpayable",
      "type": "constructor"
    },
    {
      "anonymous": false,
      "inputs": [],
      "name": "AllocationsAreTerminated",
      "type": "event"
    },
    {
      "anonymous": false,
      "inputs": [
        {
          "indexed": true,
          "internalType": "address",
          "name": "owner",
          "type": "address"
        },
        {
          "indexed": true,
          "internalType": "address",
          "name": "spender",
          "type": "address"
        },
        {
          "indexed": false,
          "internalType": "uint256",
          "name": "value",
          "type": "uint256"
        }
      ],
      "name": "Approval",
      "type": "event"
    },
    {
      "anonymous": false,
      "inputs": [
        {
          "indexed": false,
          "internalType": "address",
          "name": "_user",
          "type": "address"
        },
        {
          "indexed": false,
          "internalType": "uint256",
          "name": "_value",
          "type": "uint256"
        }
      ],
      "name": "ClaimedRewardPerShareUpdated",
      "type": "event"
    },
    {
      "anonymous": false,
      "inputs": [
        {
          "indexed": false,
          "internalType": "uint256",
          "name": "_rewardPerShare1e18",
          "type": "uint256"
        },
        {
          "indexed": false,
          "internalType": "uint256",
          "name": "_blockTime",
          "type": "uint256"
        }
      ],
      "name": "CurrentRewardPerShareAndStakingCheckpointUpdated",
      "type": "event"
    },
    {
      "anonymous": false,
      "inputs": [
        {
          "indexed": false,
          "internalType": "address",
          "name": "_user",
          "type": "address"
        },
        {
          "indexed": false,
          "internalType": "uint256",
          "name": "_value",
          "type": "uint256"
        }
      ],
      "name": "DecreasedFullyChargedBalanceAndStakedLT",
      "type": "event"
    },
    {
      "anonymous": false,
      "inputs": [
        {
          "indexed": false,
          "internalType": "address",
          "name": "_user",
          "type": "address"
        },
        {
          "indexed": false,
          "internalType": "uint256",
          "name": "_value",
          "type": "uint256"
        }
      ],
      "name": "DecreasedPartiallyChargedBalance",
      "type": "event"
    },
    {
      "anonymous": false,
      "inputs": [
        {
          "indexed": false,
          "internalType": "address",
          "name": "_fundraisingToken",
          "type": "address"
        },
        {
          "indexed": false,
          "internalType": "string",
          "name": "_fundraisingTokenSymbol",
          "type": "string"
        },
        {
          "indexed": false,
          "internalType": "uint256",
          "name": "_priceTokenPer1e18",
          "type": "uint256"
        }
      ],
      "name": "FundraisingConditionsSet",
      "type": "event"
    },
    {
      "anonymous": false,
      "inputs": [],
      "name": "FundraisingStatusChanged",
      "type": "event"
    },
    {
      "anonymous": false,
      "inputs": [
        {
          "indexed": false,
          "internalType": "uint256",
          "name": "_value",
          "type": "uint256"
        }
      ],
      "name": "IncreasedCurrentRewardPerShare",
      "type": "event"
    },
    {
      "anonymous": false,
      "inputs": [
        {
          "indexed": false,
          "internalType": "address",
          "name": "_user",
          "type": "address"
        },
        {
          "indexed": false,
          "internalType": "uint256",
          "name": "_value",
          "type": "uint256"
        }
      ],
      "name": "IncreasedFullyChargedBalance",
      "type": "event"
    },
    {
      "anonymous": false,
      "inputs": [
        {
          "indexed": false,
          "internalType": "uint256",
          "name": "_value",
          "type": "uint256"
        }
      ],
      "name": "IncreasedStakedLT",
      "type": "event"
    },
    {
      "anonymous": false,
      "inputs": [
        {
          "indexed": false,
          "internalType": "uint256",
          "name": "_value",
          "type": "uint256"
        }
      ],
      "name": "IncreasedTotalTokenAllocated",
      "type": "event"
    },
    {
      "anonymous": false,
      "inputs": [],
      "name": "InterfaceProjectTokenIsLocked",
      "type": "event"
    },
    {
      "anonymous": false,
      "inputs": [
        {
          "indexed": false,
          "internalType": "contract InterfaceProjectToken",
          "name": "_interfaceProjectToken",
          "type": "address"
        }
      ],
      "name": "InterfaceProjectTokenSet",
      "type": "event"
    },
    {
      "anonymous": false,
      "inputs": [
        {
          "indexed": false,
          "internalType": "address",
          "name": "_user",
          "type": "address"
        },
        {
          "indexed": false,
          "internalType": "uint256",
          "name": "_value",
          "type": "uint256"
        },
        {
          "indexed": false,
          "internalType": "uint256",
          "name": "_hodlRewards",
          "type": "uint256"
        },
        {
          "indexed": false,
          "internalType": "bool",
          "name": "_isAllocationStaked",
          "type": "bool"
        }
      ],
      "name": "LTAllocatedByOwner",
      "type": "event"
    },
    {
      "anonymous": false,
      "inputs": [
        {
          "indexed": false,
          "internalType": "address",
          "name": "_user",
          "type": "address"
        },
        {
          "indexed": false,
          "internalType": "uint256",
          "name": "_valueLT",
          "type": "uint256"
        },
        {
          "indexed": false,
          "internalType": "uint256",
          "name": "_valuePayment",
          "type": "uint256"
        },
        {
          "indexed": false,
          "internalType": "uint256",
          "name": "_fundraisingFee",
          "type": "uint256"
        }
      ],
      "name": "LTAllocatedThroughSale",
      "type": "event"
    },
    {
      "anonymous": false,
      "inputs": [
        {
          "indexed": false,
          "internalType": "address",
          "name": "_user",
          "type": "address"
        },
        {
          "indexed": false,
          "internalType": "uint256",
          "name": "_value",
          "type": "uint256"
        },
        {
          "indexed": false,
          "internalType": "uint256",
          "name": "_hodlRewards",
          "type": "uint256"
        }
      ],
      "name": "LTDeposited",
      "type": "event"
    },
    {
      "anonymous": false,
      "inputs": [
        {
          "indexed": false,
          "internalType": "address",
          "name": "_user",
          "type": "address"
        },
        {
          "indexed": false,
          "internalType": "uint256",
          "name": "_value",
          "type": "uint256"
        },
        {
          "indexed": false,
          "internalType": "uint256",
          "name": "_totalFees",
          "type": "uint256"
        },
        {
          "indexed": false,
          "internalType": "uint256",
          "name": "_feesToRewardHodlers",
          "type": "uint256"
        },
        {
          "indexed": false,
          "internalType": "uint256",
          "name": "_hodlRewards",
          "type": "uint256"
        }
      ],
      "name": "LTReceived",
      "type": "event"
    },
    {
      "anonymous": false,
      "inputs": [
        {
          "indexed": true,
          "internalType": "address",
          "name": "previousOwner",
          "type": "address"
        },
        {
          "indexed": true,
          "internalType": "address",
          "name": "newOwner",
          "type": "address"
        }
      ],
      "name": "OwnershipTransferred",
      "type": "event"
    },
    {
      "anonymous": false,
      "inputs": [
        {
          "indexed": false,
          "internalType": "uint256",
          "name": "_value",
          "type": "uint256"
        }
      ],
      "name": "RatioFeesToRewardHodlersUpdated",
      "type": "event"
    },
    {
      "anonymous": false,
      "inputs": [
        {
          "indexed": false,
          "internalType": "uint256",
          "name": "_startDate",
          "type": "uint256"
        },
        {
          "indexed": false,
          "internalType": "uint256",
          "name": "_duration",
          "type": "uint256"
        },
        {
          "indexed": false,
          "internalType": "uint256",
          "name": "_rewards",
          "type": "uint256"
        }
      ],
      "name": "StakingCampaignCreated",
      "type": "event"
    },
    {
      "anonymous": false,
      "inputs": [
        {
          "indexed": false,
          "internalType": "address",
          "name": "_user",
          "type": "address"
        },
        {
          "indexed": false,
          "internalType": "uint256",
          "name": "_partiallyChargedBalance",
          "type": "uint256"
        }
      ],
      "name": "TokensDischarged",
      "type": "event"
    },
    {
      "anonymous": false,
      "inputs": [
        {
          "indexed": true,
          "internalType": "address",
          "name": "from",
          "type": "address"
        },
        {
          "indexed": true,
          "internalType": "address",
          "name": "to",
          "type": "address"
        },
        {
          "indexed": false,
          "internalType": "uint256",
          "name": "value",
          "type": "uint256"
        }
      ],
      "name": "Transfer",
      "type": "event"
    },
    {
      "anonymous": false,
      "inputs": [
        {
          "indexed": false,
          "internalType": "uint256",
          "name": "_blockTime",
          "type": "uint256"
        },
        {
          "indexed": false,
          "internalType": "uint256",
          "name": "_value",
          "type": "uint256"
        }
      ],
      "name": "UpdatedDateOfPartiallyChargedAndDecreasedStakedLT",
      "type": "event"
    },
    {
      "anonymous": false,
      "inputs": [
        {
          "indexed": false,
          "internalType": "bool",
          "name": "_areUserFunctionsDisabled",
          "type": "bool"
        }
      ],
      "name": "UserFunctionsAreDisabled",
      "type": "event"
    },
    {
      "anonymous": false,
      "inputs": [
        {
          "indexed": false,
          "internalType": "uint256",
          "name": "_value",
          "type": "uint256"
        }
      ],
      "name": "WithdrawalFeesUpdated",
      "type": "event"
    },
    {
      "inputs": [
        {
          "internalType": "address[]",
          "name": "_users",
          "type": "address[]"
        },
        {
          "internalType": "uint256[]",
          "name": "_values",
          "type": "uint256[]"
        },
        {
          "internalType": "bool",
          "name": "_areAllocationsToBeStaked",
          "type": "bool"
        }
      ],
      "name": "allocateLTByOwner",
      "outputs": [],
      "stateMutability": "nonpayable",
      "type": "function"
    },
    {
      "inputs": [
        {
          "internalType": "address",
          "name": "owner",
          "type": "address"
        },
        {
          "internalType": "address",
          "name": "spender",
          "type": "address"
        }
      ],
      "name": "allowance",
      "outputs": [
        {
          "internalType": "uint256",
          "name": "",
          "type": "uint256"
        }
      ],
      "stateMutability": "view",
      "type": "function"
    },
    {
      "inputs": [
        {
          "internalType": "address",
          "name": "spender",
          "type": "address"
        },
        {
          "internalType": "uint256",
          "name": "amount",
          "type": "uint256"
        }
      ],
      "name": "approve",
      "outputs": [
        {
          "internalType": "bool",
          "name": "",
          "type": "bool"
        }
      ],
      "stateMutability": "nonpayable",
      "type": "function"
    },
    {
      "inputs": [],
      "name": "areAllocationsTerminated",
      "outputs": [
        {
          "internalType": "bool",
          "name": "",
          "type": "bool"
        }
      ],
      "stateMutability": "view",
      "type": "function"
    },
    {
      "inputs": [],
      "name": "areUserFunctionsDisabled",
      "outputs": [
        {
          "internalType": "bool",
          "name": "",
          "type": "bool"
        }
      ],
      "stateMutability": "view",
      "type": "function"
    },
    {
      "inputs": [
        {
          "internalType": "address",
          "name": "account",
          "type": "address"
        }
      ],
      "name": "balanceOf",
      "outputs": [
        {
          "internalType": "uint256",
          "name": "",
          "type": "uint256"
        }
      ],
      "stateMutability": "view",
      "type": "function"
    },
    {
      "inputs": [
        {
          "internalType": "uint256",
          "name": "_value",
          "type": "uint256"
        }
      ],
      "name": "burnByInterfaceProjectToken",
      "outputs": [],
      "stateMutability": "nonpayable",
      "type": "function"
    },
    {
      "inputs": [],
      "name": "campaignStakingRewards",
      "outputs": [
        {
          "internalType": "uint256",
          "name": "",
          "type": "uint256"
        }
      ],
      "stateMutability": "view",
      "type": "function"
    },
    {
      "inputs": [],
      "name": "changeFundraisingStatus",
      "outputs": [],
      "stateMutability": "nonpayable",
      "type": "function"
    },
    {
      "inputs": [
        {
          "internalType": "address",
          "name": "",
          "type": "address"
        }
      ],
      "name": "claimedRewardPerShare1e18",
      "outputs": [
        {
          "internalType": "uint256",
          "name": "",
          "type": "uint256"
        }
      ],
      "stateMutability": "view",
      "type": "function"
    },
    {
      "inputs": [],
      "name": "currentRewardPerShare1e18",
      "outputs": [
        {
          "internalType": "uint256",
          "name": "",
          "type": "uint256"
        }
      ],
      "stateMutability": "view",
      "type": "function"
    },
    {
      "inputs": [],
      "name": "decimals",
      "outputs": [
        {
          "internalType": "uint8",
          "name": "",
          "type": "uint8"
        }
      ],
      "stateMutability": "view",
      "type": "function"
    },
    {
      "inputs": [
        {
          "internalType": "address",
          "name": "spender",
          "type": "address"
        },
        {
          "internalType": "uint256",
          "name": "subtractedValue",
          "type": "uint256"
        }
      ],
      "name": "decreaseAllowance",
      "outputs": [
        {
          "internalType": "bool",
          "name": "",
          "type": "bool"
        }
      ],
      "stateMutability": "nonpayable",
      "type": "function"
    },
    {
      "inputs": [
        {
          "internalType": "uint256",
          "name": "_value",
          "type": "uint256"
        }
      ],
      "name": "depositLT",
      "outputs": [],
      "stateMutability": "nonpayable",
      "type": "function"
    },
    {
      "inputs": [
        {
          "internalType": "address",
          "name": "_user",
          "type": "address"
        },
        {
          "internalType": "uint256",
          "name": "_valueProjectToken",
          "type": "uint256"
        }
      ],
      "name": "dischargeUserTokens",
      "outputs": [],
      "stateMutability": "nonpayable",
      "type": "function"
    },
    {
      "inputs": [],
      "name": "durationCliff",
      "outputs": [
        {
          "internalType": "uint256",
          "name": "",
          "type": "uint256"
        }
      ],
      "stateMutability": "view",
      "type": "function"
    },
    {
      "inputs": [],
      "name": "durationLinearVesting",
      "outputs": [
        {
          "internalType": "uint256",
          "name": "",
          "type": "uint256"
        }
      ],
      "stateMutability": "view",
      "type": "function"
    },
    {
      "inputs": [],
      "name": "enableOrDisableUserFunctions",
      "outputs": [],
      "stateMutability": "nonpayable",
      "type": "function"
    },
    {
      "inputs": [],
      "name": "ensureUserFunctionsAreNotDisabled",
      "outputs": [],
      "stateMutability": "view",
      "type": "function"
    },
    {
      "inputs": [],
      "name": "fractionInitialUnlockPerThousand",
      "outputs": [
        {
          "internalType": "uint256",
          "name": "",
          "type": "uint256"
        }
      ],
      "stateMutability": "view",
      "type": "function"
    },
    {
      "inputs": [],
      "name": "fundraisingToken",
      "outputs": [
        {
          "internalType": "address",
          "name": "",
          "type": "address"
        }
      ],
      "stateMutability": "view",
      "type": "function"
    },
    {
      "inputs": [],
      "name": "fundraisingTokenSymbol",
      "outputs": [
        {
          "internalType": "string",
          "name": "",
          "type": "string"
        }
      ],
      "stateMutability": "view",
      "type": "function"
    },
    {
      "inputs": [
        {
          "internalType": "address",
          "name": "_user",
          "type": "address"
        },
        {
          "internalType": "uint256",
          "name": "_currentRewardPerShare1e18",
          "type": "uint256"
        }
      ],
      "name": "getHodlRewards",
      "outputs": [
        {
          "internalType": "uint256",
          "name": "_hodlRewards",
          "type": "uint256"
        }
      ],
      "stateMutability": "view",
      "type": "function"
    },
    {
      "inputs": [
        {
          "internalType": "uint256",
          "name": "_blockTime",
          "type": "uint256"
        }
      ],
      "name": "getUpdatedRewardPerShare1e18",
      "outputs": [
        {
          "internalType": "uint256",
          "name": "_updatedRewardPerShare1e18",
          "type": "uint256"
        }
      ],
      "stateMutability": "view",
      "type": "function"
    },
    {
      "inputs": [
        {
          "internalType": "address",
          "name": "_user",
          "type": "address"
        }
      ],
      "name": "getUserDateOfPartiallyChargedToken",
      "outputs": [
        {
          "internalType": "uint256",
          "name": "_dateOfPartiallyCharged",
          "type": "uint256"
        }
      ],
      "stateMutability": "view",
      "type": "function"
    },
    {
      "inputs": [
        {
          "internalType": "address",
          "name": "_user",
          "type": "address"
        }
      ],
      "name": "getUserFullyChargedBalanceLiquiToken",
      "outputs": [
        {
          "internalType": "uint256",
          "name": "_fullyChargedBalance",
          "type": "uint256"
        }
      ],
      "stateMutability": "view",
      "type": "function"
    },
    {
      "inputs": [
        {
          "internalType": "address",
          "name": "_user",
          "type": "address"
        }
      ],
      "name": "getUserPartiallyChargedBalanceLiquiToken",
      "outputs": [
        {
          "internalType": "uint256",
          "name": "_partiallyChargedBalance",
          "type": "uint256"
        }
      ],
      "stateMutability": "view",
      "type": "function"
    },
    {
      "inputs": [
        {
          "internalType": "address",
          "name": "spender",
          "type": "address"
        },
        {
          "internalType": "uint256",
          "name": "addedValue",
          "type": "uint256"
        }
      ],
      "name": "increaseAllowance",
      "outputs": [
        {
          "internalType": "bool",
          "name": "",
          "type": "bool"
        }
      ],
      "stateMutability": "nonpayable",
      "type": "function"
    },
    {
      "inputs": [],
      "name": "interfaceProjectToken",
      "outputs": [
        {
          "internalType": "contract InterfaceProjectToken",
          "name": "",
          "type": "address"
        }
      ],
      "stateMutability": "view",
      "type": "function"
    },
    {
      "inputs": [
        {
          "internalType": "uint256",
          "name": "_value",
          "type": "uint256"
        }
      ],
      "name": "investByUser",
      "outputs": [],
      "stateMutability": "nonpayable",
      "type": "function"
    },
    {
      "inputs": [],
      "name": "isFundraisingActive",
      "outputs": [
        {
          "internalType": "bool",
          "name": "",
          "type": "bool"
        }
      ],
      "stateMutability": "view",
      "type": "function"
    },
    {
      "inputs": [],
      "name": "isInterfaceProjectTokenLocked",
      "outputs": [
        {
          "internalType": "bool",
          "name": "",
          "type": "bool"
        }
      ],
      "stateMutability": "view",
      "type": "function"
    },
    {
      "inputs": [],
      "name": "lockInterfaceProjectToken",
      "outputs": [],
      "stateMutability": "nonpayable",
      "type": "function"
    },
    {
      "inputs": [],
      "name": "maxClaimFeesPerThousandForPT",
      "outputs": [
        {
          "internalType": "uint256",
          "name": "",
          "type": "uint256"
        }
      ],
      "stateMutability": "view",
      "type": "function"
    },
    {
      "inputs": [],
      "name": "maxInitialTokenAllocation",
      "outputs": [
        {
          "internalType": "uint256",
          "name": "",
          "type": "uint256"
        }
      ],
      "stateMutability": "view",
      "type": "function"
    },
    {
      "inputs": [],
      "name": "maxStakingAPR",
      "outputs": [
        {
          "internalType": "uint256",
          "name": "",
          "type": "uint256"
        }
      ],
      "stateMutability": "view",
      "type": "function"
    },
    {
      "inputs": [],
      "name": "maxStakingTokenAmount",
      "outputs": [
        {
          "internalType": "uint256",
          "name": "",
          "type": "uint256"
        }
      ],
      "stateMutability": "view",
      "type": "function"
    },
    {
      "inputs": [],
      "name": "maxWithdrawFeesPerThousandForLT",
      "outputs": [
        {
          "internalType": "uint256",
          "name": "",
          "type": "uint256"
        }
      ],
      "stateMutability": "view",
      "type": "function"
    },
    {
      "inputs": [
        {
          "internalType": "uint256",
          "name": "_value",
          "type": "uint256"
        }
      ],
      "name": "mintByInterfaceProjectToken",
      "outputs": [],
      "stateMutability": "nonpayable",
      "type": "function"
    },
    {
      "inputs": [],
      "name": "multiplier1K",
      "outputs": [
        {
          "internalType": "uint256",
          "name": "",
          "type": "uint256"
        }
      ],
      "stateMutability": "view",
      "type": "function"
    },
    {
      "inputs": [],
      "name": "name",
      "outputs": [
        {
          "internalType": "string",
          "name": "",
          "type": "string"
        }
      ],
      "stateMutability": "view",
      "type": "function"
    },
    {
      "inputs": [],
      "name": "owner",
      "outputs": [
        {
          "internalType": "address",
          "name": "",
          "type": "address"
        }
      ],
      "stateMutability": "view",
      "type": "function"
    },
    {
      "inputs": [],
      "name": "priceTokenPer1e18",
      "outputs": [
        {
          "internalType": "uint256",
          "name": "",
          "type": "uint256"
        }
      ],
      "stateMutability": "view",
      "type": "function"
    },
    {
      "inputs": [],
      "name": "ratioFeesToRewardHodlersPerThousand",
      "outputs": [
        {
          "internalType": "uint256",
          "name": "",
          "type": "uint256"
        }
      ],
      "stateMutability": "view",
      "type": "function"
    },
    {
      "inputs": [
        {
          "internalType": "address",
          "name": "_user",
          "type": "address"
        },
        {
          "internalType": "uint256",
          "name": "_valueFullyChargedToIncrease",
          "type": "uint256"
        },
        {
          "internalType": "uint256",
          "name": "_valuePartiallyChargedToDecrease",
          "type": "uint256"
        },
        {
          "internalType": "uint256",
          "name": "_valueProjectTokenWithRewards",
          "type": "uint256"
        }
      ],
      "name": "rechargeUserTokens",
      "outputs": [],
      "stateMutability": "nonpayable",
      "type": "function"
    },
    {
      "inputs": [],
      "name": "renounceOwnership",
      "outputs": [],
      "stateMutability": "nonpayable",
      "type": "function"
    },
    {
      "inputs": [
        {
          "internalType": "address",
          "name": "_fundraisingToken",
          "type": "address"
        },
        {
          "internalType": "uint256",
          "name": "_priceTokenPer1e18",
          "type": "uint256"
        }
      ],
      "name": "setFundraisingConditions",
      "outputs": [],
      "stateMutability": "nonpayable",
      "type": "function"
    },
    {
      "inputs": [
        {
          "internalType": "contract InterfaceProjectToken",
          "name": "_interfaceProjectToken",
          "type": "address"
        }
      ],
      "name": "setInterfaceProjectToken",
      "outputs": [],
      "stateMutability": "nonpayable",
      "type": "function"
    },
    {
      "inputs": [
        {
          "internalType": "uint256",
          "name": "_stakingStartDate",
          "type": "uint256"
        },
        {
          "internalType": "uint256",
          "name": "_stakingDuration",
          "type": "uint256"
        },
        {
          "internalType": "uint256",
          "name": "_campaignStakingRewards",
          "type": "uint256"
        }
      ],
      "name": "setStakingRewards",
      "outputs": [],
      "stateMutability": "nonpayable",
      "type": "function"
    },
    {
      "inputs": [],
      "name": "stakedLT",
      "outputs": [
        {
          "internalType": "uint256",
          "name": "",
          "type": "uint256"
        }
      ],
      "stateMutability": "view",
      "type": "function"
    },
    {
      "inputs": [],
      "name": "stakingDateLastCheckpoint",
      "outputs": [
        {
          "internalType": "uint256",
          "name": "",
          "type": "uint256"
        }
      ],
      "stateMutability": "view",
      "type": "function"
    },
    {
      "inputs": [],
      "name": "stakingDuration",
      "outputs": [
        {
          "internalType": "uint256",
          "name": "",
          "type": "uint256"
        }
      ],
      "stateMutability": "view",
      "type": "function"
    },
    {
      "inputs": [],
      "name": "stakingStartDate",
      "outputs": [
        {
          "internalType": "uint256",
          "name": "",
          "type": "uint256"
        }
      ],
      "stateMutability": "view",
      "type": "function"
    },
    {
      "inputs": [],
      "name": "symbol",
      "outputs": [
        {
          "internalType": "string",
          "name": "",
          "type": "string"
        }
      ],
      "stateMutability": "view",
      "type": "function"
    },
    {
      "inputs": [],
      "name": "terminateAllocations",
      "outputs": [],
      "stateMutability": "nonpayable",
      "type": "function"
    },
    {
      "inputs": [],
      "name": "totalStakingRewards",
      "outputs": [
        {
          "internalType": "uint256",
          "name": "",
          "type": "uint256"
        }
      ],
      "stateMutability": "view",
      "type": "function"
    },
    {
      "inputs": [],
      "name": "totalSupply",
      "outputs": [
        {
          "internalType": "uint256",
          "name": "",
          "type": "uint256"
        }
      ],
      "stateMutability": "view",
      "type": "function"
    },
    {
      "inputs": [],
      "name": "totalTokenAllocated",
      "outputs": [
        {
          "internalType": "uint256",
          "name": "",
          "type": "uint256"
        }
      ],
      "stateMutability": "view",
      "type": "function"
    },
    {
      "inputs": [
        {
          "internalType": "address",
          "name": "recipient",
          "type": "address"
        },
        {
          "internalType": "uint256",
          "name": "amount",
          "type": "uint256"
        }
      ],
      "name": "transfer",
      "outputs": [
        {
          "internalType": "bool",
          "name": "",
          "type": "bool"
        }
      ],
      "stateMutability": "nonpayable",
      "type": "function"
    },
    {
      "inputs": [
        {
          "internalType": "address",
          "name": "sender",
          "type": "address"
        },
        {
          "internalType": "address",
          "name": "recipient",
          "type": "address"
        },
        {
          "internalType": "uint256",
          "name": "amount",
          "type": "uint256"
        }
      ],
      "name": "transferFrom",
      "outputs": [
        {
          "internalType": "bool",
          "name": "",
          "type": "bool"
        }
      ],
      "stateMutability": "nonpayable",
      "type": "function"
    },
    {
      "inputs": [
        {
          "internalType": "address",
          "name": "newOwner",
          "type": "address"
        }
      ],
      "name": "transferOwnership",
      "outputs": [],
      "stateMutability": "nonpayable",
      "type": "function"
    },
    {
      "inputs": [
        {
          "internalType": "uint256",
          "name": "_valuePerThousand",
          "type": "uint256"
        }
      ],
      "name": "updateRatioFeesToRewardHodlers",
      "outputs": [],
      "stateMutability": "nonpayable",
      "type": "function"
    },
    {
      "inputs": [
        {
          "internalType": "uint256",
          "name": "_fees",
          "type": "uint256"
        }
      ],
      "name": "updateRewardsAfterFeesPaymentByInterface",
      "outputs": [],
      "stateMutability": "nonpayable",
      "type": "function"
    },
    {
      "inputs": [
        {
          "internalType": "address",
          "name": "_user",
          "type": "address"
        }
      ],
      "name": "updateStakingAndGetHodlRewardsByInterfacePT",
      "outputs": [
        {
          "internalType": "uint256",
          "name": "",
          "type": "uint256"
        }
      ],
      "stateMutability": "nonpayable",
      "type": "function"
    },
    {
      "inputs": [
        {
          "internalType": "uint256",
          "name": "_valuePerThousand",
          "type": "uint256"
        }
      ],
      "name": "updateWithdrawalFeesForLT",
      "outputs": [],
      "stateMutability": "nonpayable",
      "type": "function"
    },
    {
      "inputs": [
        {
          "internalType": "address",
          "name": "",
          "type": "address"
        }
      ],
      "name": "userLiquiToken",
      "outputs": [
        {
          "internalType": "uint256",
          "name": "fullyChargedBalance",
          "type": "uint256"
        },
        {
          "internalType": "uint256",
          "name": "partiallyChargedBalance",
          "type": "uint256"
        },
        {
          "internalType": "uint256",
          "name": "dateOfPartiallyCharged",
          "type": "uint256"
        }
      ],
      "stateMutability": "view",
      "type": "function"
    },
    {
      "inputs": [],
      "name": "withdrawFeesPerThousandForLT",
      "outputs": [
        {
          "internalType": "uint256",
          "name": "",
          "type": "uint256"
        }
      ],
      "stateMutability": "view",
      "type": "function"
    },
    {
      "inputs": [
        {
          "internalType": "uint256",
          "name": "_value",
          "type": "uint256"
        }
      ],
      "name": "withdrawLT",
      "outputs": [],
      "stateMutability": "nonpayable",
      "type": "function"
    }
  ],
  "devdoc": {
    "kind": "dev",
    "methods": {
      "allowance(address,address)": {
        "details": "See {IERC20-allowance}."
      },
      "approve(address,uint256)": {
        "details": "See {IERC20-approve}. Requirements: - `spender` cannot be the zero address."
      },
      "balanceOf(address)": {
        "details": "See {IERC20-balanceOf}."
      },
      "decimals()": {
        "details": "Returns the number of decimals used to get its user representation. For example, if `decimals` equals `2`, a balance of `505` tokens should be displayed to a user as `5,05` (`505 / 10 ** 2`). Tokens usually opt for a value of 18, imitating the relationship between Ether and Wei. This is the value {ERC20} uses, unless {_setupDecimals} is called. NOTE: This information is only used for _display_ purposes: it in no way affects any of the arithmetic of the contract, including {IERC20-balanceOf} and {IERC20-transfer}."
      },
      "decreaseAllowance(address,uint256)": {
        "details": "Atomically decreases the allowance granted to `spender` by the caller. This is an alternative to {approve} that can be used as a mitigation for problems described in {IERC20-approve}. Emits an {Approval} event indicating the updated allowance. Requirements: - `spender` cannot be the zero address. - `spender` must have allowance for the caller of at least `subtractedValue`."
      },
      "increaseAllowance(address,uint256)": {
        "details": "Atomically increases the allowance granted to `spender` by the caller. This is an alternative to {approve} that can be used as a mitigation for problems described in {IERC20-approve}. Emits an {Approval} event indicating the updated allowance. Requirements: - `spender` cannot be the zero address."
      },
      "name()": {
        "details": "Returns the name of the token."
      },
      "owner()": {
        "details": "Returns the address of the current owner."
      },
      "renounceOwnership()": {
        "details": "Leaves the contract without owner. It will not be possible to call `onlyOwner` functions anymore. Can only be called by the current owner. NOTE: Renouncing ownership will leave the contract without an owner, thereby removing any functionality that is only available to the owner."
      },
      "symbol()": {
        "details": "Returns the symbol of the token, usually a shorter version of the name."
      },
      "totalSupply()": {
        "details": "See {IERC20-totalSupply}."
      },
      "transfer(address,uint256)": {
        "details": "See {IERC20-transfer}. Requirements: - `recipient` cannot be the zero address. - the caller must have a balance of at least `amount`."
      },
      "transferFrom(address,address,uint256)": {
        "details": "See {IERC20-transferFrom}. Emits an {Approval} event indicating the updated allowance. This is not required by the EIP. See the note at the beginning of {ERC20}. Requirements: - `sender` and `recipient` cannot be the zero address. - `sender` must have a balance of at least `amount`. - the caller must have allowance for ``sender``'s tokens of at least `amount`."
      },
      "transferOwnership(address)": {
        "details": "Transfers ownership of the contract to a new account (`newOwner`). Can only be called by the current owner."
      }
    },
    "version": 1
  },
  "evm": {
    "assembly": "    /* \"LiquidityToken.sol\":449:21331  contract LiquidityToken is ERC20, Ownable {... */\n  mstore(0x40, 0x0180)\n    /* \"LiquidityToken.sol\":849:853  1000 */\n  0x03e8\n    /* \"LiquidityToken.sol\":799:853  uint public ratioFeesToRewardHodlersPerThousand = 1000 */\n  0x0c\n  sstore\n    /* \"LiquidityToken.sol\":3851:5154  constructor(string memory _name, string memory _symbol, uint _fractionInitialUnlockPerThousand, uint _durationCliff, ... */\n  callvalue\n  dup1\n  iszero\n  tag_1\n  jumpi\n  0x00\n  dup1\n  revert\ntag_1:\n  pop\n  mload(0x40)\n  sub(codesize, bytecodeSize)\n  dup1\n  bytecodeSize\n  dup4\n  codecopy\n  dup2\n  dup2\n  add\n  0x40\n  mstore\n  0x0140\n  dup2\n  lt\n  iszero\n  tag_2\n  jumpi\n  0x00\n  dup1\n  revert\ntag_2:\n  dup2\n  add\n  swap1\n  dup1\n  dup1\n  mload\n  mload(0x40)\n  swap4\n  swap3\n  swap2\n  swap1\n  dup5\n  0x0100000000\n  dup3\n  gt\n  iszero\n  tag_3\n  jumpi\n  0x00\n  dup1\n  revert\ntag_3:\n  dup4\n  dup3\n  add\n  swap2\n  pop\n  0x20\n  dup3\n  add\n  dup6\n  dup2\n  gt\n  iszero\n  tag_4\n  jumpi\n  0x00\n  dup1\n  revert\ntag_4:\n  dup3\n  mload\n  dup7\n  0x01\n  dup3\n  mul\n  dup4\n  add\n  gt\n  0x0100000000\n  dup3\n  gt\n  or\n  iszero\n  tag_5\n  jumpi\n  0x00\n  dup1\n  revert\ntag_5:\n  dup1\n  dup4\n  mstore\n  0x20\n  dup4\n  add\n  swap3\n  pop\n  pop\n  pop\n  swap1\n  dup1\n  mload\n  swap1\n  0x20\n  add\n  swap1\n  dup1\n  dup4\n  dup4\n  0x00\ntag_6:\n  dup4\n  dup2\n  lt\n  iszero\n  tag_8\n  jumpi\n  dup1\n  dup3\n  add\n  mload\n  dup2\n  dup5\n  add\n  mstore\n  0x20\n  dup2\n  add\n  swap1\n  pop\n  jump(tag_6)\ntag_8:\n  pop\n  pop\n  pop\n  pop\n  swap1\n  pop\n  swap1\n  dup2\n  add\n  swap1\n  0x1f\n  and\n  dup1\n  iszero\n  tag_9\n  jumpi\n  dup1\n  dup3\n  sub\n  dup1\n  mload\n  0x01\n  dup4\n  0x20\n  sub\n  0x0100\n  exp\n  sub\n  not\n  and\n  dup2\n  mstore\n  0x20\n  add\n  swap2\n  pop\ntag_9:\n  pop\n  0x40\n  mstore\n  0x20\n  add\n  dup1\n  mload\n  mload(0x40)\n  swap4\n  swap3\n  swap2\n  swap1\n  dup5\n  0x0100000000\n  dup3\n  gt\n  iszero\n  tag_10\n  jumpi\n  0x00\n  dup1\n  revert\ntag_10:\n  dup4\n  dup3\n  add\n  swap2\n  pop\n  0x20\n  dup3\n  add\n  dup6\n  dup2\n  gt\n  iszero\n  tag_11\n  jumpi\n  0x00\n  dup1\n  revert\ntag_11:\n  dup3\n  mload\n  dup7\n  0x01\n  dup3\n  mul\n  dup4\n  add\n  gt\n  0x0100000000\n  dup3\n  gt\n  or\n  iszero\n  tag_12\n  jumpi\n  0x00\n  dup1\n  revert\ntag_12:\n  dup1\n  dup4\n  mstore\n  0x20\n  dup4\n  add\n  swap3\n  pop\n  pop\n  pop\n  swap1\n  dup1\n  mload\n  swap1\n  0x20\n  add\n  swap1\n  dup1\n  dup4\n  dup4\n  0x00\ntag_13:\n  dup4\n  dup2\n  lt\n  iszero\n  tag_15\n  jumpi\n  dup1\n  dup3\n  add\n  mload\n  dup2\n  dup5\n  add\n  mstore\n  0x20\n  dup2\n  add\n  swap1\n  pop\n  jump(tag_13)\ntag_15:\n  pop\n  pop\n  pop\n  pop\n  swap1\n  pop\n  swap1\n  dup2\n  add\n  swap1\n  0x1f\n  and\n  dup1\n  iszero\n  tag_16\n  jumpi\n  dup1\n  dup3\n  sub\n  dup1\n  mload\n  0x01\n  dup4\n  0x20\n  sub\n  0x0100\n  exp\n  sub\n  not\n  and\n  dup2\n  mstore\n  0x20\n  add\n  swap2\n  pop\ntag_16:\n  pop\n  0x40\n  mstore\n  0x20\n  add\n  dup1\n  mload\n  swap1\n  0x20\n  add\n  swap1\n  swap3\n  swap2\n  swap1\n  dup1\n  mload\n  swap1\n  0x20\n  add\n  swap1\n  swap3\n  swap2\n  swap1\n  dup1\n  mload\n  swap1\n  0x20\n  add\n  swap1\n  swap3\n  swap2\n  swap1\n  dup1\n  mload\n  swap1\n  0x20\n  add\n  swap1\n  swap3\n  swap2\n  swap1\n  dup1\n  mload\n  swap1\n  0x20\n  add\n  swap1\n  swap3\n  swap2\n  swap1\n  dup1\n  mload\n  swap1\n  0x20\n  add\n  swap1\n  swap3\n  swap2\n  swap1\n  dup1\n  mload\n  swap1\n  0x20\n  add\n  swap1\n  swap3\n  swap2\n  swap1\n  dup1\n  mload\n  swap1\n  0x20\n  add\n  swap1\n  swap3\n  swap2\n  swap1\n  pop\n  pop\n  pop\n    /* \"LiquidityToken.sol\":4170:4175  _name */\n  dup10\n    /* \"LiquidityToken.sol\":4177:4184  _symbol */\n  dup10\n    /* \"https://github.com/OpenZeppelin/openzeppelin-contracts/blob/v3.4.2-solc-0.7/contracts/token/ERC20/ERC20.sol\":2025:2030   */\n  dup2\n    /* \"https://github.com/OpenZeppelin/openzeppelin-contracts/blob/v3.4.2-solc-0.7/contracts/token/ERC20/ERC20.sol\":2017:2022   */\n  0x03\n    /* \"https://github.com/OpenZeppelin/openzeppelin-contracts/blob/v3.4.2-solc-0.7/contracts/token/ERC20/ERC20.sol\":2017:2030   */\n  swap1\n  dup1\n  mload\n  swap1\n  0x20\n  add\n  swap1\n  tag_21\n  swap3\n  swap2\n  swap1\n  tag_22\n  jump\t// in\ntag_21:\n  pop\n    /* \"https://github.com/OpenZeppelin/openzeppelin-contracts/blob/v3.4.2-solc-0.7/contracts/token/ERC20/ERC20.sol\":2050:2057   */\n  dup1\n    /* \"https://github.com/OpenZeppelin/openzeppelin-contracts/blob/v3.4.2-solc-0.7/contracts/token/ERC20/ERC20.sol\":2040:2047   */\n  0x04\n    /* \"https://github.com/OpenZeppelin/openzeppelin-contracts/blob/v3.4.2-solc-0.7/contracts/token/ERC20/ERC20.sol\":2040:2057   */\n  swap1\n  dup1\n  mload\n  swap1\n  0x20\n  add\n  swap1\n  tag_23\n  swap3\n  swap2\n  swap1\n  tag_22\n  jump\t// in\ntag_23:\n  pop\n    /* \"https://github.com/OpenZeppelin/openzeppelin-contracts/blob/v3.4.2-solc-0.7/contracts/token/ERC20/ERC20.sol\":2079:2081   */\n  0x12\n    /* \"https://github.com/OpenZeppelin/openzeppelin-contracts/blob/v3.4.2-solc-0.7/contracts/token/ERC20/ERC20.sol\":2067:2076   */\n  0x05\n  0x00\n    /* \"https://github.com/OpenZeppelin/openzeppelin-contracts/blob/v3.4.2-solc-0.7/contracts/token/ERC20/ERC20.sol\":2067:2081   */\n  0x0100\n  exp\n  dup2\n  sload\n  dup2\n  0xff\n  mul\n  not\n  and\n  swap1\n  dup4\n  0xff\n  and\n  mul\n  or\n  swap1\n  sstore\n  pop\n    /* \"https://github.com/OpenZeppelin/openzeppelin-contracts/blob/v3.4.2-solc-0.7/contracts/token/ERC20/ERC20.sol\":1950:2088   */\n  pop\n  pop\n    /* \"https://github.com/OpenZeppelin/openzeppelin-contracts/blob/v3.4.2-solc-0.7/contracts/access/Ownable.sol\":867:884   */\n  0x00\n    /* \"https://github.com/OpenZeppelin/openzeppelin-contracts/blob/v3.4.2-solc-0.7/contracts/access/Ownable.sol\":887:899   */\n  tag_25\n    /* \"https://github.com/OpenZeppelin/openzeppelin-contracts/blob/v3.4.2-solc-0.7/contracts/access/Ownable.sol\":887:897   */\n  shl(0x20, tag_26)\n    /* \"https://github.com/OpenZeppelin/openzeppelin-contracts/blob/v3.4.2-solc-0.7/contracts/access/Ownable.sol\":887:899   */\n  0x20\n  shr\n  jump\t// in\ntag_25:\n    /* \"https://github.com/OpenZeppelin/openzeppelin-contracts/blob/v3.4.2-solc-0.7/contracts/access/Ownable.sol\":867:899   */\n  swap1\n  pop\n    /* \"https://github.com/OpenZeppelin/openzeppelin-contracts/blob/v3.4.2-solc-0.7/contracts/access/Ownable.sol\":918:927   */\n  dup1\n    /* \"https://github.com/OpenZeppelin/openzeppelin-contracts/blob/v3.4.2-solc-0.7/contracts/access/Ownable.sol\":909:915   */\n  0x05\n  0x01\n    /* \"https://github.com/OpenZeppelin/openzeppelin-contracts/blob/v3.4.2-solc-0.7/contracts/access/Ownable.sol\":909:927   */\n  0x0100\n  exp\n  dup2\n  sload\n  dup2\n  0xffffffffffffffffffffffffffffffffffffffff\n  mul\n  not\n  and\n  swap1\n  dup4\n  0xffffffffffffffffffffffffffffffffffffffff\n  and\n  mul\n  or\n  swap1\n  sstore\n  pop\n    /* \"https://github.com/OpenZeppelin/openzeppelin-contracts/blob/v3.4.2-solc-0.7/contracts/access/Ownable.sol\":975:984   */\n  dup1\n    /* \"https://github.com/OpenZeppelin/openzeppelin-contracts/blob/v3.4.2-solc-0.7/contracts/access/Ownable.sol\":942:985   */\n  0xffffffffffffffffffffffffffffffffffffffff\n  and\n    /* \"https://github.com/OpenZeppelin/openzeppelin-contracts/blob/v3.4.2-solc-0.7/contracts/access/Ownable.sol\":971:972   */\n  0x00\n    /* \"https://github.com/OpenZeppelin/openzeppelin-contracts/blob/v3.4.2-solc-0.7/contracts/access/Ownable.sol\":942:985   */\n  0xffffffffffffffffffffffffffffffffffffffff\n  and\n  0x8be0079c531659141344cd1fd0a4f28419497f9722a3daafe3b4186f6b6457e0\n  mload(0x40)\n  mload(0x40)\n  dup1\n  swap2\n  sub\n  swap1\n  log3\n    /* \"https://github.com/OpenZeppelin/openzeppelin-contracts/blob/v3.4.2-solc-0.7/contracts/access/Ownable.sol\":842:992   */\n  pop\n    /* \"LiquidityToken.sol\":4227:4228  0 */\n  0x00\n    /* \"LiquidityToken.sol\":4201:4223  _durationLinearVesting */\n  dup7\n    /* \"LiquidityToken.sol\":4201:4228  _durationLinearVesting == 0 */\n  eq\n    /* \"LiquidityToken.sol\":4197:4480  if (_durationLinearVesting == 0)... */\n  iszero\n  tag_28\n  jumpi\n    /* \"LiquidityToken.sol\":614:618  1000 */\n  0x03e8\n    /* \"LiquidityToken.sol\":4251:4284  _fractionInitialUnlockPerThousand */\n  dup9\n    /* \"LiquidityToken.sol\":4251:4300  _fractionInitialUnlockPerThousand == multiplier1K */\n  eq\n    /* \"LiquidityToken.sol\":4236:4361  require(... */\n  tag_29\n  jumpi\n  mload(0x40)\n  0x08c379a000000000000000000000000000000000000000000000000000000000\n  dup2\n  mstore\n  0x04\n  add\n  dup1\n  dup1\n  0x20\n  add\n  dup3\n  dup2\n  sub\n  dup3\n  mstore\n  0x32\n  dup2\n  mstore\n  0x20\n  add\n  dup1\n  data_b30e77e4a1e4ce1b4ca5049361ba3fc2fc5eed651c791d05f8f0028f82cc991d\n  0x32\n  swap2\n  codecopy\n  0x40\n  add\n  swap2\n  pop\n  pop\n  mload(0x40)\n  dup1\n  swap2\n  sub\n  swap1\n  revert\ntag_29:\n    /* \"LiquidityToken.sol\":4197:4480  if (_durationLinearVesting == 0)... */\n  jump(tag_30)\ntag_28:\n    /* \"LiquidityToken.sol\":614:618  1000 */\n  0x03e8\n    /* \"LiquidityToken.sol\":4394:4427  _fractionInitialUnlockPerThousand */\n  dup9\n    /* \"LiquidityToken.sol\":4394:4442  _fractionInitialUnlockPerThousand < multiplier1K */\n  lt\n    /* \"LiquidityToken.sol\":4379:4480  require(... */\n  tag_31\n  jumpi\n  mload(0x40)\n  0x08c379a000000000000000000000000000000000000000000000000000000000\n  dup2\n  mstore\n  0x04\n  add\n  dup1\n  dup1\n  0x20\n  add\n  dup3\n  dup2\n  sub\n  dup3\n  mstore\n  0x1b\n  dup2\n  mstore\n  0x20\n  add\n  dup1\n  0x496e697469616c20756e6c6f636b20746f206265203c20313030250000000000\n  dup2\n  mstore\n  pop\n  0x20\n  add\n  swap2\n  pop\n  pop\n  mload(0x40)\n  dup1\n  swap2\n  sub\n  swap1\n  revert\ntag_31:\n    /* \"LiquidityToken.sol\":4197:4480  if (_durationLinearVesting == 0)... */\ntag_30:\n    /* \"LiquidityToken.sol\":614:618  1000 */\n  0x03e8\n    /* \"LiquidityToken.sol\":4506:4538  _maxWithdrawFeesPerThousandForLT */\n  dup6\n    /* \"LiquidityToken.sol\":4506:4553  _maxWithdrawFeesPerThousandForLT < multiplier1K */\n  lt\n    /* \"LiquidityToken.sol\":4491:4597  require(... */\n  tag_32\n  jumpi\n  mload(0x40)\n  0x08c379a000000000000000000000000000000000000000000000000000000000\n  dup2\n  mstore\n  0x04\n  add\n  dup1\n  dup1\n  0x20\n  add\n  dup3\n  dup2\n  sub\n  dup3\n  mstore\n  0x21\n  dup2\n  mstore\n  0x20\n  add\n  dup1\n  data_1076a6295ed23de858a8b620a03627d2472c616c3ab54909b701183b45ad8cc3\n  0x21\n  swap2\n  codecopy\n  0x40\n  add\n  swap2\n  pop\n  pop\n  mload(0x40)\n  dup1\n  swap2\n  sub\n  swap1\n  revert\ntag_32:\n    /* \"LiquidityToken.sol\":614:618  1000 */\n  0x03e8\n    /* \"LiquidityToken.sol\":4619:4648  _maxClaimFeesPerThousandForPT */\n  dup5\n    /* \"LiquidityToken.sol\":4619:4663  _maxClaimFeesPerThousandForPT < multiplier1K */\n  lt\n    /* \"LiquidityToken.sol\":4604:4700  require(... */\n  tag_33\n  jumpi\n  mload(0x40)\n  0x08c379a000000000000000000000000000000000000000000000000000000000\n  dup2\n  mstore\n  0x04\n  add\n  dup1\n  dup1\n  0x20\n  add\n  dup3\n  dup2\n  sub\n  dup3\n  mstore\n  0x1a\n  dup2\n  mstore\n  0x20\n  add\n  dup1\n  0x4d617820636c61696d2066656520746f206265203c2031303025000000000000\n  dup2\n  mstore\n  pop\n  0x20\n  add\n  swap2\n  pop\n  pop\n  mload(0x40)\n  dup1\n  swap2\n  sub\n  swap1\n  revert\ntag_33:\n    /* \"LiquidityToken.sol\":4723:4737  _durationCliff */\n  dup7\n    /* \"LiquidityToken.sol\":4707:4737  durationCliff = _durationCliff */\n  0xa0\n  dup2\n  dup2\n  mstore\n  pop\n  pop\n    /* \"LiquidityToken.sol\":4767:4789  _durationLinearVesting */\n  dup6\n    /* \"LiquidityToken.sol\":4743:4789  durationLinearVesting = _durationLinearVesting */\n  0xc0\n  dup2\n  dup2\n  mstore\n  pop\n  pop\n    /* \"LiquidityToken.sol\":4830:4863  _fractionInitialUnlockPerThousand */\n  dup8\n    /* \"LiquidityToken.sol\":4795:4863  fractionInitialUnlockPerThousand = _fractionInitialUnlockPerThousand */\n  0x80\n  dup2\n  dup2\n  mstore\n  pop\n  pop\n    /* \"LiquidityToken.sol\":4903:4935  _maxWithdrawFeesPerThousandForLT */\n  dup5\n    /* \"LiquidityToken.sol\":4869:4935  maxWithdrawFeesPerThousandForLT = _maxWithdrawFeesPerThousandForLT */\n  0x0100\n  dup2\n  dup2\n  mstore\n  pop\n  pop\n    /* \"LiquidityToken.sol\":4972:5001  _maxClaimFeesPerThousandForPT */\n  dup4\n    /* \"LiquidityToken.sol\":4941:5001  maxClaimFeesPerThousandForPT = _maxClaimFeesPerThousandForPT */\n  0x0120\n  dup2\n  dup2\n  mstore\n  pop\n  pop\n    /* \"LiquidityToken.sol\":5023:5037  _maxStakingAPR */\n  dup3\n    /* \"LiquidityToken.sol\":5007:5037  maxStakingAPR = _maxStakingAPR */\n  0x0140\n  dup2\n  dup2\n  mstore\n  pop\n  pop\n    /* \"LiquidityToken.sol\":5067:5089  _maxStakingTokenAmount */\n  dup2\n    /* \"LiquidityToken.sol\":5043:5089  maxStakingTokenAmount = _maxStakingTokenAmount */\n  0x0160\n  dup2\n  dup2\n  mstore\n  pop\n  pop\n    /* \"LiquidityToken.sol\":5123:5149  _maxInitialTokenAllocation */\n  dup1\n    /* \"LiquidityToken.sol\":5095:5149  maxInitialTokenAllocation = _maxInitialTokenAllocation */\n  0xe0\n  dup2\n  dup2\n  mstore\n  pop\n  pop\n    /* \"LiquidityToken.sol\":3851:5154  constructor(string memory _name, string memory _symbol, uint _fractionInitialUnlockPerThousand, uint _durationCliff, ... */\n  pop\n  pop\n  pop\n  pop\n  pop\n  pop\n  pop\n  pop\n  pop\n  pop\n    /* \"LiquidityToken.sol\":449:21331  contract LiquidityToken is ERC20, Ownable {... */\n  jump(tag_34)\n    /* \"https://github.com/OpenZeppelin/openzeppelin-contracts/blob/v3.4.2-solc-0.7/contracts/utils/Context.sol\":598:702   */\ntag_26:\n    /* \"https://github.com/OpenZeppelin/openzeppelin-contracts/blob/v3.4.2-solc-0.7/contracts/utils/Context.sol\":651:666   */\n  0x00\n    /* \"https://github.com/OpenZeppelin/openzeppelin-contracts/blob/v3.4.2-solc-0.7/contracts/utils/Context.sol\":685:695   */\n  caller\n    /* \"https://github.com/OpenZeppelin/openzeppelin-contracts/blob/v3.4.2-solc-0.7/contracts/utils/Context.sol\":678:695   */\n  swap1\n  pop\n    /* \"https://github.com/OpenZeppelin/openzeppelin-contracts/blob/v3.4.2-solc-0.7/contracts/utils/Context.sol\":598:702   */\n  swap1\n  jump\t// out\n    /* \"LiquidityToken.sol\":449:21331  contract LiquidityToken is ERC20, Ownable {... */\ntag_22:\n  dup3\n  dup1\n  sload\n  0x01\n  dup2\n  0x01\n  and\n  iszero\n  0x0100\n  mul\n  sub\n  and\n  0x02\n  swap1\n  div\n  swap1\n  0x00\n  mstore\n  keccak256(0x00, 0x20)\n  swap1\n  0x1f\n  add\n  0x20\n  swap1\n  div\n  dup2\n  add\n  swap3\n  dup3\n  tag_37\n  jumpi\n  0x00\n  dup6\n  sstore\n  jump(tag_36)\ntag_37:\n  dup3\n  0x1f\n  lt\n  tag_38\n  jumpi\n  dup1\n  mload\n  not(0xff)\n  and\n  dup4\n  dup1\n  add\n  or\n  dup6\n  sstore\n  jump(tag_36)\ntag_38:\n  dup3\n  dup1\n  add\n  0x01\n  add\n  dup6\n  sstore\n  dup3\n  iszero\n  tag_36\n  jumpi\n  swap2\n  dup3\n  add\ntag_39:\n  dup3\n  dup2\n  gt\n  iszero\n  tag_40\n  jumpi\n  dup3\n  mload\n  dup3\n  sstore\n  swap2\n  0x20\n  add\n  swap2\n  swap1\n  0x01\n  add\n  swap1\n  jump(tag_39)\ntag_40:\ntag_36:\n  pop\n  swap1\n  pop\n  tag_41\n  swap2\n  swap1\n  tag_42\n  jump\t// in\ntag_41:\n  pop\n  swap1\n  jump\t// out\ntag_42:\ntag_43:\n  dup1\n  dup3\n  gt\n  iszero\n  tag_44\n  jumpi\n  0x00\n  dup2\n  0x00\n  swap1\n  sstore\n  pop\n  0x01\n  add\n  jump(tag_43)\ntag_44:\n  pop\n  swap1\n  jump\t// out\ntag_34:\n  mload(0x80)\n  mload(0xa0)\n  mload(0xc0)\n  mload(0xe0)\n  mload(0x0100)\n  mload(0x0120)\n  mload(0x0140)\n  mload(0x0160)\n  codecopy(0x00, dataOffset(sub_0), dataSize(sub_0))\n  assignImmutable(\"0x66547114649d5833daa7007ccc99ac262792882ea3d82e4ebe0b69f18704da0c\")\n  assignImmutable(\"0xbf42042e2237c6e6d1c29f4f02d65eeea252179805ed26cf71ad720e62900975\")\n  assignImmutable(\"0xd071d371589780369328e5437147bf8a672dd4f630ae4b82c7f8a4e9f9bcf7f4\")\n  assignImmutable(\"0xcd3b8a75131b09c18fac61f93bac9440f7b768b1c243a93eca5a67eb03b07828\")\n  assignImmutable(\"0x27f63464b9731b972604804953e204cb89525ac66e46cd091b2739ad01222f8b\")\n  assignImmutable(\"0x7fac02d34be0cf003870fc1ca20de764e3d24f4510f938a3d8c85c13150f33d3\")\n  assignImmutable(\"0x86890c29ff370c4b30973bbbaafda9b69a1419ebf78e3ecd48a68f972a0037ef\")\n  assignImmutable(\"0xc3259c45f9e3c1055fdcabf98c9c354977536b311a2495291202379be8e06e09\")\n  return(0x00, dataSize(sub_0))\nstop\ndata_1076a6295ed23de858a8b620a03627d2472c616c3ab54909b701183b45ad8cc3 4d6178207769746864726177616c20666565206d757374206265203c2031303025\ndata_b30e77e4a1e4ce1b4ca5049361ba3fc2fc5eed651c791d05f8f0028f82cc991d 4966206e6f2076657374696e672c20616c6c20746f6b656e7320746f2062652072656c6561736564206174206c61756e6368\n\nsub_0: assembly {\n        /* \"LiquidityToken.sol\":449:21331  contract LiquidityToken is ERC20, Ownable {... */\n      mstore(0x40, 0x80)\n      callvalue\n      dup1\n      iszero\n      tag_1\n      jumpi\n      0x00\n      dup1\n      revert\n    tag_1:\n      pop\n      jumpi(tag_2, lt(calldatasize, 0x04))\n      shr(0xe0, calldataload(0x00))\n      dup1\n      0x8005a7de\n      gt\n      tag_71\n      jumpi\n      dup1\n      0xa9059cbb\n      gt\n      tag_72\n      jumpi\n      dup1\n      0xdd62ed3e\n      gt\n      tag_73\n      jumpi\n      dup1\n      0xed17b25c\n      gt\n      tag_74\n      jumpi\n      dup1\n      0xed17b25c\n      eq\n      tag_66\n      jumpi\n      dup1\n      0xefb5c2f3\n      eq\n      tag_67\n      jumpi\n      dup1\n      0xf2fde38b\n      eq\n      tag_68\n      jumpi\n      dup1\n      0xf331a867\n      eq\n      tag_69\n      jumpi\n      dup1\n      0xfb3da545\n      eq\n      tag_70\n      jumpi\n      jump(tag_2)\n    tag_74:\n      dup1\n      0xdd62ed3e\n      eq\n      tag_62\n      jumpi\n      dup1\n      0xdf910817\n      eq\n      tag_63\n      jumpi\n      dup1\n      0xe0d0c567\n      eq\n      tag_64\n      jumpi\n      dup1\n      0xe54dd98a\n      eq\n      tag_65\n      jumpi\n      jump(tag_2)\n    tag_73:\n      dup1\n      0xc96877a2\n      gt\n      tag_75\n      jumpi\n      dup1\n      0xc96877a2\n      eq\n      tag_58\n      jumpi\n      dup1\n      0xd49d18d6\n      eq\n      tag_59\n      jumpi\n      dup1\n      0xda3a5936\n      eq\n      tag_60\n      jumpi\n      dup1\n      0xdccdc995\n      eq\n      tag_61\n      jumpi\n      jump(tag_2)\n    tag_75:\n      dup1\n      0xa9059cbb\n      eq\n      tag_54\n      jumpi\n      dup1\n      0xabfdce2c\n      eq\n      tag_55\n      jumpi\n      dup1\n      0xacdeb00b\n      eq\n      tag_56\n      jumpi\n      dup1\n      0xbf777f82\n      eq\n      tag_57\n      jumpi\n      jump(tag_2)\n    tag_72:\n      dup1\n      0x93ef357a\n      gt\n      tag_76\n      jumpi\n      dup1\n      0x9c3bcbb1\n      gt\n      tag_77\n      jumpi\n      dup1\n      0x9c3bcbb1\n      eq\n      tag_49\n      jumpi\n      dup1\n      0x9f65ffb0\n      eq\n      tag_50\n      jumpi\n      dup1\n      0xa1b0c412\n      eq\n      tag_51\n      jumpi\n      dup1\n      0xa457c2d7\n      eq\n      tag_52\n      jumpi\n      dup1\n      0xa74536e0\n      eq\n      tag_53\n      jumpi\n      jump(tag_2)\n    tag_77:\n      dup1\n      0x93ef357a\n      eq\n      tag_45\n      jumpi\n      dup1\n      0x95230a80\n      eq\n      tag_46\n      jumpi\n      dup1\n      0x95d89b41\n      eq\n      tag_47\n      jumpi\n      dup1\n      0x9863d644\n      eq\n      tag_48\n      jumpi\n      jump(tag_2)\n    tag_76:\n      dup1\n      0x8a1e4393\n      gt\n      tag_78\n      jumpi\n      dup1\n      0x8a1e4393\n      eq\n      tag_41\n      jumpi\n      dup1\n      0x8aa03a3c\n      eq\n      tag_42\n      jumpi\n      dup1\n      0x8da5cb5b\n      eq\n      tag_43\n      jumpi\n      dup1\n      0x908a6bf0\n      eq\n      tag_44\n      jumpi\n      jump(tag_2)\n    tag_78:\n      dup1\n      0x8005a7de\n      eq\n      tag_37\n      jumpi\n      dup1\n      0x82af7d39\n      eq\n      tag_38\n      jumpi\n      dup1\n      0x82fb82f5\n      eq\n      tag_39\n      jumpi\n      dup1\n      0x86982e61\n      eq\n      tag_40\n      jumpi\n      jump(tag_2)\n    tag_71:\n      dup1\n      0x3f2b437d\n      gt\n      tag_79\n      jumpi\n      dup1\n      0x70a08231\n      gt\n      tag_80\n      jumpi\n      dup1\n      0x74ddcd1d\n      gt\n      tag_81\n      jumpi\n      dup1\n      0x74ddcd1d\n      eq\n      tag_32\n      jumpi\n      dup1\n      0x7561ea9a\n      eq\n      tag_33\n      jumpi\n      dup1\n      0x78e104da\n      eq\n      tag_34\n      jumpi\n      dup1\n      0x7ccf0226\n      eq\n      tag_35\n      jumpi\n      dup1\n      0x7e267f39\n      eq\n      tag_36\n      jumpi\n      jump(tag_2)\n    tag_81:\n      dup1\n      0x70a08231\n      eq\n      tag_28\n      jumpi\n      dup1\n      0x715018a6\n      eq\n      tag_29\n      jumpi\n      dup1\n      0x72b990b5\n      eq\n      tag_30\n      jumpi\n      dup1\n      0x740c3495\n      eq\n      tag_31\n      jumpi\n      jump(tag_2)\n    tag_80:\n      dup1\n      0x63cf3cff\n      gt\n      tag_82\n      jumpi\n      dup1\n      0x63cf3cff\n      eq\n      tag_24\n      jumpi\n      dup1\n      0x6a4bd5a6\n      eq\n      tag_25\n      jumpi\n      dup1\n      0x6c1f89ed\n      eq\n      tag_26\n      jumpi\n      dup1\n      0x6d69847d\n      eq\n      tag_27\n      jumpi\n      jump(tag_2)\n    tag_82:\n      dup1\n      0x3f2b437d\n      eq\n      tag_20\n      jumpi\n      dup1\n      0x483f3ac7\n      eq\n      tag_21\n      jumpi\n      dup1\n      0x50e26b5f\n      eq\n      tag_22\n      jumpi\n      dup1\n      0x5798b1ff\n      eq\n      tag_23\n      jumpi\n      jump(tag_2)\n    tag_79:\n      dup1\n      0x30400a86\n      gt\n      tag_83\n      jumpi\n      dup1\n      0x39509351\n      gt\n      tag_84\n      jumpi\n      dup1\n      0x39509351\n      eq\n      tag_15\n      jumpi\n      dup1\n      0x3ba570ba\n      eq\n      tag_16\n      jumpi\n      dup1\n      0x3caaddc8\n      eq\n      tag_17\n      jumpi\n      dup1\n      0x3cbaa7dd\n      eq\n      tag_18\n      jumpi\n      dup1\n      0x3e332f16\n      eq\n      tag_19\n      jumpi\n      jump(tag_2)\n    tag_84:\n      dup1\n      0x30400a86\n      eq\n      tag_11\n      jumpi\n      dup1\n      0x305e2daf\n      eq\n      tag_12\n      jumpi\n      dup1\n      0x313ce567\n      eq\n      tag_13\n      jumpi\n      dup1\n      0x37610c0e\n      eq\n      tag_14\n      jumpi\n      jump(tag_2)\n    tag_83:\n      dup1\n      0x18160ddd\n      gt\n      tag_85\n      jumpi\n      dup1\n      0x18160ddd\n      eq\n      tag_7\n      jumpi\n      dup1\n      0x1f93abd4\n      eq\n      tag_8\n      jumpi\n      dup1\n      0x23b872dd\n      eq\n      tag_9\n      jumpi\n      dup1\n      0x2945ac68\n      eq\n      tag_10\n      jumpi\n      jump(tag_2)\n    tag_85:\n      dup1\n      0x03ff8e88\n      eq\n      tag_3\n      jumpi\n      dup1\n      0x06fdde03\n      eq\n      tag_4\n      jumpi\n      dup1\n      0x095ea7b3\n      eq\n      tag_5\n      jumpi\n      dup1\n      0x1387520a\n      eq\n      tag_6\n      jumpi\n    tag_2:\n      0x00\n      dup1\n      revert\n        /* \"LiquidityToken.sol\":726:760  uint public campaignStakingRewards */\n    tag_3:\n      tag_86\n      tag_87\n      jump\t// in\n    tag_86:\n      mload(0x40)\n      dup1\n      dup3\n      dup2\n      mstore\n      0x20\n      add\n      swap2\n      pop\n      pop\n      mload(0x40)\n      dup1\n      swap2\n      sub\n      swap1\n      return\n        /* \"https://github.com/OpenZeppelin/openzeppelin-contracts/blob/v3.4.2-solc-0.7/contracts/token/ERC20/ERC20.sol\":2153:2242   */\n    tag_4:\n      tag_88\n      tag_89\n      jump\t// in\n    tag_88:\n      mload(0x40)\n      dup1\n      dup1\n      0x20\n      add\n      dup3\n      dup2\n      sub\n      dup3\n      mstore\n      dup4\n      dup2\n      dup2\n      mload\n      dup2\n      mstore\n      0x20\n      add\n      swap2\n      pop\n      dup1\n      mload\n      swap1\n      0x20\n      add\n      swap1\n      dup1\n      dup4\n      dup4\n      0x00\n    tag_90:\n      dup4\n      dup2\n      lt\n      iszero\n      tag_92\n      jumpi\n      dup1\n      dup3\n      add\n      mload\n      dup2\n      dup5\n      add\n      mstore\n      0x20\n      dup2\n      add\n      swap1\n      pop\n      jump(tag_90)\n    tag_92:\n      pop\n      pop\n      pop\n      pop\n      swap1\n      pop\n      swap1\n      dup2\n      add\n      swap1\n      0x1f\n      and\n      dup1\n      iszero\n      tag_93\n      jumpi\n      dup1\n      dup3\n      sub\n      dup1\n      mload\n      0x01\n      dup4\n      0x20\n      sub\n      0x0100\n      exp\n      sub\n      not\n      and\n      dup2\n      mstore\n      0x20\n      add\n      swap2\n      pop\n    tag_93:\n      pop\n      swap3\n      pop\n      pop\n      pop\n      mload(0x40)\n      dup1\n      swap2\n      sub\n      swap1\n      return\n        /* \"https://github.com/OpenZeppelin/openzeppelin-contracts/blob/v3.4.2-solc-0.7/contracts/token/ERC20/ERC20.sol\":4229:4395   */\n    tag_5:\n      tag_94\n      0x04\n      dup1\n      calldatasize\n      sub\n      0x40\n      dup2\n      lt\n      iszero\n      tag_95\n      jumpi\n      0x00\n      dup1\n      revert\n    tag_95:\n      dup2\n      add\n      swap1\n      dup1\n      dup1\n      calldataload\n      0xffffffffffffffffffffffffffffffffffffffff\n      and\n      swap1\n      0x20\n      add\n      swap1\n      swap3\n      swap2\n      swap1\n      dup1\n      calldataload\n      swap1\n      0x20\n      add\n      swap1\n      swap3\n      swap2\n      swap1\n      pop\n      pop\n      pop\n      tag_96\n      jump\t// in\n    tag_94:\n      mload(0x40)\n      dup1\n      dup3\n      iszero\n      iszero\n      dup2\n      mstore\n      0x20\n      add\n      swap2\n      pop\n      pop\n      mload(0x40)\n      dup1\n      swap2\n      sub\n      swap1\n      return\n        /* \"LiquidityToken.sol\":1435:1470  uint public immutable maxStakingAPR */\n    tag_6:\n      tag_97\n      tag_98\n      jump\t// in\n    tag_97:\n      mload(0x40)\n      dup1\n      dup3\n      dup2\n      mstore\n      0x20\n      add\n      swap2\n      pop\n      pop\n      mload(0x40)\n      dup1\n      swap2\n      sub\n      swap1\n      return\n        /* \"https://github.com/OpenZeppelin/openzeppelin-contracts/blob/v3.4.2-solc-0.7/contracts/token/ERC20/ERC20.sol\":3220:3326   */\n    tag_7:\n      tag_99\n      tag_100\n      jump\t// in\n    tag_99:\n      mload(0x40)\n      dup1\n      dup3\n      dup2\n      mstore\n      0x20\n      add\n      swap2\n      pop\n      pop\n      mload(0x40)\n      dup1\n      swap2\n      sub\n      swap1\n      return\n        /* \"LiquidityToken.sol\":5410:5565  function ensureUserFunctionsAreNotDisabled() public view {... */\n    tag_8:\n      tag_101\n      tag_102\n      jump\t// in\n    tag_101:\n      stop\n        /* \"https://github.com/OpenZeppelin/openzeppelin-contracts/blob/v3.4.2-solc-0.7/contracts/token/ERC20/ERC20.sol\":4862:5179   */\n    tag_9:\n      tag_103\n      0x04\n      dup1\n      calldatasize\n      sub\n      0x60\n      dup2\n      lt\n      iszero\n      tag_104\n      jumpi\n      0x00\n      dup1\n      revert\n    tag_104:\n      dup2\n      add\n      swap1\n      dup1\n      dup1\n      calldataload\n      0xffffffffffffffffffffffffffffffffffffffff\n      and\n      swap1\n      0x20\n      add\n      swap1\n      swap3\n      swap2\n      swap1\n      dup1\n      calldataload\n      0xffffffffffffffffffffffffffffffffffffffff\n      and\n      swap1\n      0x20\n      add\n      swap1\n      swap3\n      swap2\n      swap1\n      dup1\n      calldataload\n      swap1\n      0x20\n      add\n      swap1\n      swap3\n      swap2\n      swap1\n      pop\n      pop\n      pop\n      tag_105\n      jump\t// in\n    tag_103:\n      mload(0x40)\n      dup1\n      dup3\n      iszero\n      iszero\n      dup2\n      mstore\n      0x20\n      add\n      swap2\n      pop\n      pop\n      mload(0x40)\n      dup1\n      swap2\n      sub\n      swap1\n      return\n        /* \"LiquidityToken.sol\":1129:1183  uint public immutable fractionInitialUnlockPerThousand */\n    tag_10:\n      tag_106\n      tag_107\n      jump\t// in\n    tag_106:\n      mload(0x40)\n      dup1\n      dup3\n      dup2\n      mstore\n      0x20\n      add\n      swap2\n      pop\n      pop\n      mload(0x40)\n      dup1\n      swap2\n      sub\n      swap1\n      return\n        /* \"LiquidityToken.sol\":1709:1762  mapping (address => LiquiToken) public userLiquiToken */\n    tag_11:\n      tag_108\n      0x04\n      dup1\n      calldatasize\n      sub\n      0x20\n      dup2\n      lt\n      iszero\n      tag_109\n      jumpi\n      0x00\n      dup1\n      revert\n    tag_109:\n      dup2\n      add\n      swap1\n      dup1\n      dup1\n      calldataload\n      0xffffffffffffffffffffffffffffffffffffffff\n      and\n      swap1\n      0x20\n      add\n      swap1\n      swap3\n      swap2\n      swap1\n      pop\n      pop\n      pop\n      tag_110\n      jump\t// in\n    tag_108:\n      mload(0x40)\n      dup1\n      dup5\n      dup2\n      mstore\n      0x20\n      add\n      dup4\n      dup2\n      mstore\n      0x20\n      add\n      dup3\n      dup2\n      mstore\n      0x20\n      add\n      swap4\n      pop\n      pop\n      pop\n      pop\n      mload(0x40)\n      dup1\n      swap2\n      sub\n      swap1\n      return\n        /* \"LiquidityToken.sol\":21133:21328  function getUserDateOfPartiallyChargedToken(address _user) public view... */\n    tag_12:\n      tag_111\n      0x04\n      dup1\n      calldatasize\n      sub\n      0x20\n      dup2\n      lt\n      iszero\n      tag_112\n      jumpi\n      0x00\n      dup1\n      revert\n    tag_112:\n      dup2\n      add\n      swap1\n      dup1\n      dup1\n      calldataload\n      0xffffffffffffffffffffffffffffffffffffffff\n      and\n      swap1\n      0x20\n      add\n      swap1\n      swap3\n      swap2\n      swap1\n      pop\n      pop\n      pop\n      tag_113\n      jump\t// in\n    tag_111:\n      mload(0x40)\n      dup1\n      dup3\n      dup2\n      mstore\n      0x20\n      add\n      swap2\n      pop\n      pop\n      mload(0x40)\n      dup1\n      swap2\n      sub\n      swap1\n      return\n        /* \"https://github.com/OpenZeppelin/openzeppelin-contracts/blob/v3.4.2-solc-0.7/contracts/token/ERC20/ERC20.sol\":3071:3160   */\n    tag_13:\n      tag_114\n      tag_115\n      jump\t// in\n    tag_114:\n      mload(0x40)\n      dup1\n      dup3\n      0xff\n      and\n      dup2\n      mstore\n      0x20\n      add\n      swap2\n      pop\n      pop\n      mload(0x40)\n      dup1\n      swap2\n      sub\n      swap1\n      return\n        /* \"LiquidityToken.sol\":2027:2058  bool public isFundraisingActive */\n    tag_14:\n      tag_116\n      tag_117\n      jump\t// in\n    tag_116:\n      mload(0x40)\n      dup1\n      dup3\n      iszero\n      iszero\n      dup2\n      mstore\n      0x20\n      add\n      swap2\n      pop\n      pop\n      mload(0x40)\n      dup1\n      swap2\n      sub\n      swap1\n      return\n        /* \"https://github.com/OpenZeppelin/openzeppelin-contracts/blob/v3.4.2-solc-0.7/contracts/token/ERC20/ERC20.sol\":5574:5789   */\n    tag_15:\n      tag_118\n      0x04\n      dup1\n      calldatasize\n      sub\n      0x40\n      dup2\n      lt\n      iszero\n      tag_119\n      jumpi\n      0x00\n      dup1\n      revert\n    tag_119:\n      dup2\n      add\n      swap1\n      dup1\n      dup1\n      calldataload\n      0xffffffffffffffffffffffffffffffffffffffff\n      and\n      swap1\n      0x20\n      add\n      swap1\n      swap3\n      swap2\n      swap1\n      dup1\n      calldataload\n      swap1\n      0x20\n      add\n      swap1\n      swap3\n      swap2\n      swap1\n      pop\n      pop\n      pop\n      tag_120\n      jump\t// in\n    tag_118:\n      mload(0x40)\n      dup1\n      dup3\n      iszero\n      iszero\n      dup2\n      mstore\n      0x20\n      add\n      swap2\n      pop\n      pop\n      mload(0x40)\n      dup1\n      swap2\n      sub\n      swap1\n      return\n        /* \"LiquidityToken.sol\":8881:9458  function setFundraisingConditions(address _fundraisingToken, uint _priceTokenPer1e18) public onlyOwner() {... */\n    tag_16:\n      tag_121\n      0x04\n      dup1\n      calldatasize\n      sub\n      0x40\n      dup2\n      lt\n      iszero\n      tag_122\n      jumpi\n      0x00\n      dup1\n      revert\n    tag_122:\n      dup2\n      add\n      swap1\n      dup1\n      dup1\n      calldataload\n      0xffffffffffffffffffffffffffffffffffffffff\n      and\n      swap1\n      0x20\n      add\n      swap1\n      swap3\n      swap2\n      swap1\n      dup1\n      calldataload\n      swap1\n      0x20\n      add\n      swap1\n      swap3\n      swap2\n      swap1\n      pop\n      pop\n      pop\n      tag_123\n      jump\t// in\n    tag_121:\n      stop\n        /* \"LiquidityToken.sol\":1919:1955  string public fundraisingTokenSymbol */\n    tag_17:\n      tag_124\n      tag_125\n      jump\t// in\n    tag_124:\n      mload(0x40)\n      dup1\n      dup1\n      0x20\n      add\n      dup3\n      dup2\n      sub\n      dup3\n      mstore\n      dup4\n      dup2\n      dup2\n      mload\n      dup2\n      mstore\n      0x20\n      add\n      swap2\n      pop\n      dup1\n      mload\n      swap1\n      0x20\n      add\n      swap1\n      dup1\n      dup4\n      dup4\n      0x00\n    tag_126:\n      dup4\n      dup2\n      lt\n      iszero\n      tag_128\n      jumpi\n      dup1\n      dup3\n      add\n      mload\n      dup2\n      dup5\n      add\n      mstore\n      0x20\n      dup2\n      add\n      swap1\n      pop\n      jump(tag_126)\n    tag_128:\n      pop\n      pop\n      pop\n      pop\n      swap1\n      pop\n      swap1\n      dup2\n      add\n      swap1\n      0x1f\n      and\n      dup1\n      iszero\n      tag_129\n      jumpi\n      dup1\n      dup3\n      sub\n      dup1\n      mload\n      0x01\n      dup4\n      0x20\n      sub\n      0x0100\n      exp\n      sub\n      not\n      and\n      dup2\n      mstore\n      0x20\n      add\n      swap2\n      pop\n    tag_129:\n      pop\n      swap3\n      pop\n      pop\n      pop\n      mload(0x40)\n      dup1\n      swap2\n      sub\n      swap1\n      return\n        /* \"LiquidityToken.sol\":9596:11375  function investByUser(uint _value) public {... */\n    tag_18:\n      tag_130\n      0x04\n      dup1\n      calldatasize\n      sub\n      0x20\n      dup2\n      lt\n      iszero\n      tag_131\n      jumpi\n      0x00\n      dup1\n      revert\n    tag_131:\n      dup2\n      add\n      swap1\n      dup1\n      dup1\n      calldataload\n      swap1\n      0x20\n      add\n      swap1\n      swap3\n      swap2\n      swap1\n      pop\n      pop\n      pop\n      tag_132\n      jump\t// in\n    tag_130:\n      stop\n        /* \"LiquidityToken.sol\":523:573  InterfaceProjectToken public interfaceProjectToken */\n    tag_19:\n      tag_133\n      tag_134\n      jump\t// in\n    tag_133:\n      mload(0x40)\n      dup1\n      dup3\n      0xffffffffffffffffffffffffffffffffffffffff\n      and\n      dup2\n      mstore\n      0x20\n      add\n      swap2\n      pop\n      pop\n      mload(0x40)\n      dup1\n      swap2\n      sub\n      swap1\n      return\n        /* \"LiquidityToken.sol\":1187:1222  uint public immutable durationCliff */\n    tag_20:\n      tag_135\n      tag_136\n      jump\t// in\n    tag_135:\n      mload(0x40)\n      dup1\n      dup3\n      dup2\n      mstore\n      0x20\n      add\n      swap2\n      pop\n      pop\n      mload(0x40)\n      dup1\n      swap2\n      sub\n      swap1\n      return\n        /* \"LiquidityToken.sol\":11798:12902  function withdrawLT(uint _value) public {... */\n    tag_21:\n      tag_137\n      0x04\n      dup1\n      calldatasize\n      sub\n      0x20\n      dup2\n      lt\n      iszero\n      tag_138\n      jumpi\n      0x00\n      dup1\n      revert\n    tag_138:\n      dup2\n      add\n      swap1\n      dup1\n      dup1\n      calldataload\n      swap1\n      0x20\n      add\n      swap1\n      swap3\n      swap2\n      swap1\n      pop\n      pop\n      pop\n      tag_139\n      jump\t// in\n    tag_137:\n      stop\n        /* \"LiquidityToken.sol\":1992:2023  address public fundraisingToken */\n    tag_22:\n      tag_140\n      tag_141\n      jump\t// in\n    tag_140:\n      mload(0x40)\n      dup1\n      dup3\n      0xffffffffffffffffffffffffffffffffffffffff\n      and\n      dup2\n      mstore\n      0x20\n      add\n      swap2\n      pop\n      pop\n      mload(0x40)\n      dup1\n      swap2\n      sub\n      swap1\n      return\n        /* \"LiquidityToken.sol\":5978:6123  function lockInterfaceProjectToken() public onlyOwner() {... */\n    tag_23:\n      tag_142\n      tag_143\n      jump\t// in\n    tag_142:\n      stop\n        /* \"LiquidityToken.sol\":1003:1039  bool public areUserFunctionsDisabled */\n    tag_24:\n      tag_144\n      tag_145\n      jump\t// in\n    tag_144:\n      mload(0x40)\n      dup1\n      dup3\n      iszero\n      iszero\n      dup2\n      mstore\n      0x20\n      add\n      swap2\n      pop\n      pop\n      mload(0x40)\n      dup1\n      swap2\n      sub\n      swap1\n      return\n        /* \"LiquidityToken.sol\":922:953  uint public totalTokenAllocated */\n    tag_25:\n      tag_146\n      tag_147\n      jump\t// in\n    tag_146:\n      mload(0x40)\n      dup1\n      dup3\n      dup2\n      mstore\n      0x20\n      add\n      swap2\n      pop\n      pop\n      mload(0x40)\n      dup1\n      swap2\n      sub\n      swap1\n      return\n        /* \"LiquidityToken.sol\":685:722  uint public stakingDateLastCheckpoint */\n    tag_26:\n      tag_148\n      tag_149\n      jump\t// in\n    tag_148:\n      mload(0x40)\n      dup1\n      dup3\n      dup2\n      mstore\n      0x20\n      add\n      swap2\n      pop\n      pop\n      mload(0x40)\n      dup1\n      swap2\n      sub\n      swap1\n      return\n        /* \"LiquidityToken.sol\":20292:20419  function burnByInterfaceProjectToken(uint _value) public onlyInterfaceProjectToken() {... */\n    tag_27:\n      tag_150\n      0x04\n      dup1\n      calldatasize\n      sub\n      0x20\n      dup2\n      lt\n      iszero\n      tag_151\n      jumpi\n      0x00\n      dup1\n      revert\n    tag_151:\n      dup2\n      add\n      swap1\n      dup1\n      dup1\n      calldataload\n      swap1\n      0x20\n      add\n      swap1\n      swap3\n      swap2\n      swap1\n      pop\n      pop\n      pop\n      tag_152\n      jump\t// in\n    tag_150:\n      stop\n        /* \"https://github.com/OpenZeppelin/openzeppelin-contracts/blob/v3.4.2-solc-0.7/contracts/token/ERC20/ERC20.sol\":3384:3509   */\n    tag_28:\n      tag_153\n      0x04\n      dup1\n      calldatasize\n      sub\n      0x20\n      dup2\n      lt\n      iszero\n      tag_154\n      jumpi\n      0x00\n      dup1\n      revert\n    tag_154:\n      dup2\n      add\n      swap1\n      dup1\n      dup1\n      calldataload\n      0xffffffffffffffffffffffffffffffffffffffff\n      and\n      swap1\n      0x20\n      add\n      swap1\n      swap3\n      swap2\n      swap1\n      pop\n      pop\n      pop\n      tag_155\n      jump\t// in\n    tag_153:\n      mload(0x40)\n      dup1\n      dup3\n      dup2\n      mstore\n      0x20\n      add\n      swap2\n      pop\n      pop\n      mload(0x40)\n      dup1\n      swap2\n      sub\n      swap1\n      return\n        /* \"https://github.com/OpenZeppelin/openzeppelin-contracts/blob/v3.4.2-solc-0.7/contracts/access/Ownable.sol\":1700:1845   */\n    tag_29:\n      tag_156\n      tag_157\n      jump\t// in\n    tag_156:\n      stop\n        /* \"LiquidityToken.sol\":17841:18116  function updateRatioFeesToRewardHodlers(uint _valuePerThousand) public onlyOwner() {... */\n    tag_30:\n      tag_158\n      0x04\n      dup1\n      calldatasize\n      sub\n      0x20\n      dup2\n      lt\n      iszero\n      tag_159\n      jumpi\n      0x00\n      dup1\n      revert\n    tag_159:\n      dup2\n      add\n      swap1\n      dup1\n      dup1\n      calldataload\n      swap1\n      0x20\n      add\n      swap1\n      swap3\n      swap2\n      swap1\n      pop\n      pop\n      pop\n      tag_160\n      jump\t// in\n    tag_158:\n      stop\n        /* \"LiquidityToken.sol\":18659:19411  function rechargeUserTokens(address _user, uint _valueFullyChargedToIncrease, uint _valuePartiallyChargedToDecrease, ... */\n    tag_31:\n      tag_161\n      0x04\n      dup1\n      calldatasize\n      sub\n      0x80\n      dup2\n      lt\n      iszero\n      tag_162\n      jumpi\n      0x00\n      dup1\n      revert\n    tag_162:\n      dup2\n      add\n      swap1\n      dup1\n      dup1\n      calldataload\n      0xffffffffffffffffffffffffffffffffffffffff\n      and\n      swap1\n      0x20\n      add\n      swap1\n      swap3\n      swap2\n      swap1\n      dup1\n      calldataload\n      swap1\n      0x20\n      add\n      swap1\n      swap3\n      swap2\n      swap1\n      dup1\n      calldataload\n      swap1\n      0x20\n      add\n      swap1\n      swap3\n      swap2\n      swap1\n      dup1\n      calldataload\n      swap1\n      0x20\n      add\n      swap1\n      swap3\n      swap2\n      swap1\n      pop\n      pop\n      pop\n      tag_163\n      jump\t// in\n    tag_161:\n      stop\n        /* \"LiquidityToken.sol\":799:853  uint public ratioFeesToRewardHodlersPerThousand = 1000 */\n    tag_32:\n      tag_164\n      tag_165\n      jump\t// in\n    tag_164:\n      mload(0x40)\n      dup1\n      dup3\n      dup2\n      mstore\n      0x20\n      add\n      swap2\n      pop\n      pop\n      mload(0x40)\n      dup1\n      swap2\n      sub\n      swap1\n      return\n        /* \"LiquidityToken.sol\":20733:20921  function getUserFullyChargedBalanceLiquiToken(address _user) public view... */\n    tag_33:\n      tag_166\n      0x04\n      dup1\n      calldatasize\n      sub\n      0x20\n      dup2\n      lt\n      iszero\n      tag_167\n      jumpi\n      0x00\n      dup1\n      revert\n    tag_167:\n      dup2\n      add\n      swap1\n      dup1\n      dup1\n      calldataload\n      0xffffffffffffffffffffffffffffffffffffffff\n      and\n      swap1\n      0x20\n      add\n      swap1\n      swap3\n      swap2\n      swap1\n      pop\n      pop\n      pop\n      tag_168\n      jump\t// in\n    tag_166:\n      mload(0x40)\n      dup1\n      dup3\n      dup2\n      mstore\n      0x20\n      add\n      swap2\n      pop\n      pop\n      mload(0x40)\n      dup1\n      swap2\n      sub\n      swap1\n      return\n        /* \"LiquidityToken.sol\":1381:1431  uint public immutable maxClaimFeesPerThousandForPT */\n    tag_34:\n      tag_169\n      tag_170\n      jump\t// in\n    tag_169:\n      mload(0x40)\n      dup1\n      dup3\n      dup2\n      mstore\n      0x20\n      add\n      swap2\n      pop\n      pop\n      mload(0x40)\n      dup1\n      swap2\n      sub\n      swap1\n      return\n        /* \"LiquidityToken.sol\":622:650  uint public stakingStartDate */\n    tag_35:\n      tag_171\n      tag_172\n      jump\t// in\n    tag_171:\n      mload(0x40)\n      dup1\n      dup3\n      dup2\n      mstore\n      0x20\n      add\n      swap2\n      pop\n      pop\n      mload(0x40)\n      dup1\n      swap2\n      sub\n      swap1\n      return\n        /* \"LiquidityToken.sol\":578:618  uint public constant multiplier1K = 1000 */\n    tag_36:\n      tag_173\n      tag_174\n      jump\t// in\n    tag_173:\n      mload(0x40)\n      dup1\n      dup3\n      dup2\n      mstore\n      0x20\n      add\n      swap2\n      pop\n      pop\n      mload(0x40)\n      dup1\n      swap2\n      sub\n      swap1\n      return\n        /* \"LiquidityToken.sol\":654:681  uint public stakingDuration */\n    tag_37:\n      tag_175\n      tag_176\n      jump\t// in\n    tag_175:\n      mload(0x40)\n      dup1\n      dup3\n      dup2\n      mstore\n      0x20\n      add\n      swap2\n      pop\n      pop\n      mload(0x40)\n      dup1\n      swap2\n      sub\n      swap1\n      return\n        /* \"LiquidityToken.sol\":19415:20160  function dischargeUserTokens(address _user, uint _valueProjectToken) public onlyInterfaceProjectToken() {... */\n    tag_38:\n      tag_177\n      0x04\n      dup1\n      calldatasize\n      sub\n      0x40\n      dup2\n      lt\n      iszero\n      tag_178\n      jumpi\n      0x00\n      dup1\n      revert\n    tag_178:\n      dup2\n      add\n      swap1\n      dup1\n      dup1\n      calldataload\n      0xffffffffffffffffffffffffffffffffffffffff\n      and\n      swap1\n      0x20\n      add\n      swap1\n      swap3\n      swap2\n      swap1\n      dup1\n      calldataload\n      swap1\n      0x20\n      add\n      swap1\n      swap3\n      swap2\n      swap1\n      pop\n      pop\n      pop\n      tag_179\n      jump\t// in\n    tag_177:\n      stop\n        /* \"LiquidityToken.sol\":1474:1517  uint public immutable maxStakingTokenAmount */\n    tag_39:\n      tag_180\n      tag_181\n      jump\t// in\n    tag_180:\n      mload(0x40)\n      dup1\n      dup3\n      dup2\n      mstore\n      0x20\n      add\n      swap2\n      pop\n      pop\n      mload(0x40)\n      dup1\n      swap2\n      sub\n      swap1\n      return\n        /* \"LiquidityToken.sol\":1273:1320  uint public immutable maxInitialTokenAllocation */\n    tag_40:\n      tag_182\n      tag_183\n      jump\t// in\n    tag_182:\n      mload(0x40)\n      dup1\n      dup3\n      dup2\n      mstore\n      0x20\n      add\n      swap2\n      pop\n      pop\n      mload(0x40)\n      dup1\n      swap2\n      sub\n      swap1\n      return\n        /* \"LiquidityToken.sol\":1043:1084  bool public isInterfaceProjectTokenLocked */\n    tag_41:\n      tag_184\n      tag_185\n      jump\t// in\n    tag_184:\n      mload(0x40)\n      dup1\n      dup3\n      iszero\n      iszero\n      dup2\n      mstore\n      0x20\n      add\n      swap2\n      pop\n      pop\n      mload(0x40)\n      dup1\n      swap2\n      sub\n      swap1\n      return\n        /* \"LiquidityToken.sol\":1324:1377  uint public immutable maxWithdrawFeesPerThousandForLT */\n    tag_42:\n      tag_186\n      tag_187\n      jump\t// in\n    tag_186:\n      mload(0x40)\n      dup1\n      dup3\n      dup2\n      mstore\n      0x20\n      add\n      swap2\n      pop\n      pop\n      mload(0x40)\n      dup1\n      swap2\n      sub\n      swap1\n      return\n        /* \"https://github.com/OpenZeppelin/openzeppelin-contracts/blob/v3.4.2-solc-0.7/contracts/access/Ownable.sol\":1068:1153   */\n    tag_43:\n      tag_188\n      tag_189\n      jump\t// in\n    tag_188:\n      mload(0x40)\n      dup1\n      dup3\n      0xffffffffffffffffffffffffffffffffffffffff\n      and\n      dup2\n      mstore\n      0x20\n      add\n      swap2\n      pop\n      pop\n      mload(0x40)\n      dup1\n      swap2\n      sub\n      swap1\n      return\n        /* \"LiquidityToken.sol\":13762:14453  function getUpdatedRewardPerShare1e18(uint _blockTime) public view returns(uint _updatedRewardPerShare1e18) {  ... */\n    tag_44:\n      tag_190\n      0x04\n      dup1\n      calldatasize\n      sub\n      0x20\n      dup2\n      lt\n      iszero\n      tag_191\n      jumpi\n      0x00\n      dup1\n      revert\n    tag_191:\n      dup2\n      add\n      swap1\n      dup1\n      dup1\n      calldataload\n      swap1\n      0x20\n      add\n      swap1\n      swap3\n      swap2\n      swap1\n      pop\n      pop\n      pop\n      tag_192\n      jump\t// in\n    tag_190:\n      mload(0x40)\n      dup1\n      dup3\n      dup2\n      mstore\n      0x20\n      add\n      swap2\n      pop\n      pop\n      mload(0x40)\n      dup1\n      swap2\n      sub\n      swap1\n      return\n        /* \"LiquidityToken.sol\":764:795  uint public totalStakingRewards */\n    tag_45:\n      tag_193\n      tag_194\n      jump\t// in\n    tag_193:\n      mload(0x40)\n      dup1\n      dup3\n      dup2\n      mstore\n      0x20\n      add\n      swap2\n      pop\n      pop\n      mload(0x40)\n      dup1\n      swap2\n      sub\n      swap1\n      return\n        /* \"LiquidityToken.sol\":1522:1580  mapping (address => uint) public claimedRewardPerShare1e18 */\n    tag_46:\n      tag_195\n      0x04\n      dup1\n      calldatasize\n      sub\n      0x20\n      dup2\n      lt\n      iszero\n      tag_196\n      jumpi\n      0x00\n      dup1\n      revert\n    tag_196:\n      dup2\n      add\n      swap1\n      dup1\n      dup1\n      calldataload\n      0xffffffffffffffffffffffffffffffffffffffff\n      and\n      swap1\n      0x20\n      add\n      swap1\n      swap3\n      swap2\n      swap1\n      pop\n      pop\n      pop\n      tag_197\n      jump\t// in\n    tag_195:\n      mload(0x40)\n      dup1\n      dup3\n      dup2\n      mstore\n      0x20\n      add\n      swap2\n      pop\n      pop\n      mload(0x40)\n      dup1\n      swap2\n      sub\n      swap1\n      return\n        /* \"https://github.com/OpenZeppelin/openzeppelin-contracts/blob/v3.4.2-solc-0.7/contracts/token/ERC20/ERC20.sol\":2355:2448   */\n    tag_47:\n      tag_198\n      tag_199\n      jump\t// in\n    tag_198:\n      mload(0x40)\n      dup1\n      dup1\n      0x20\n      add\n      dup3\n      dup2\n      sub\n      dup3\n      mstore\n      dup4\n      dup2\n      dup2\n      mload\n      dup2\n      mstore\n      0x20\n      add\n      swap2\n      pop\n      dup1\n      mload\n      swap1\n      0x20\n      add\n      swap1\n      dup1\n      dup4\n      dup4\n      0x00\n    tag_200:\n      dup4\n      dup2\n      lt\n      iszero\n      tag_202\n      jumpi\n      dup1\n      dup3\n      add\n      mload\n      dup2\n      dup5\n      add\n      mstore\n      0x20\n      dup2\n      add\n      swap1\n      pop\n      jump(tag_200)\n    tag_202:\n      pop\n      pop\n      pop\n      pop\n      swap1\n      pop\n      swap1\n      dup2\n      add\n      swap1\n      0x1f\n      and\n      dup1\n      iszero\n      tag_203\n      jumpi\n      dup1\n      dup3\n      sub\n      dup1\n      mload\n      0x01\n      dup4\n      0x20\n      sub\n      0x0100\n      exp\n      sub\n      not\n      and\n      dup2\n      mstore\n      0x20\n      add\n      swap2\n      pop\n    tag_203:\n      pop\n      swap3\n      pop\n      pop\n      pop\n      mload(0x40)\n      dup1\n      swap2\n      sub\n      swap1\n      return\n        /* \"LiquidityToken.sol\":1088:1124  bool public areAllocationsTerminated */\n    tag_48:\n      tag_204\n      tag_205\n      jump\t// in\n    tag_204:\n      mload(0x40)\n      dup1\n      dup3\n      iszero\n      iszero\n      dup2\n      mstore\n      0x20\n      add\n      swap2\n      pop\n      pop\n      mload(0x40)\n      dup1\n      swap2\n      sub\n      swap1\n      return\n        /* \"LiquidityToken.sol\":7992:8122  function terminateAllocations() public onlyOwner() {... */\n    tag_49:\n      tag_206\n      tag_207\n      jump\t// in\n    tag_206:\n      stop\n        /* \"LiquidityToken.sol\":20925:21129  function getUserPartiallyChargedBalanceLiquiToken(address _user) public view... */\n    tag_50:\n      tag_208\n      0x04\n      dup1\n      calldatasize\n      sub\n      0x20\n      dup2\n      lt\n      iszero\n      tag_209\n      jumpi\n      0x00\n      dup1\n      revert\n    tag_209:\n      dup2\n      add\n      swap1\n      dup1\n      dup1\n      calldataload\n      0xffffffffffffffffffffffffffffffffffffffff\n      and\n      swap1\n      0x20\n      add\n      swap1\n      swap3\n      swap2\n      swap1\n      pop\n      pop\n      pop\n      tag_210\n      jump\t// in\n    tag_208:\n      mload(0x40)\n      dup1\n      dup3\n      dup2\n      mstore\n      0x20\n      add\n      swap2\n      pop\n      pop\n      mload(0x40)\n      dup1\n      swap2\n      sub\n      swap1\n      return\n        /* \"LiquidityToken.sol\":16187:17555  function setStakingRewards(uint _stakingStartDate, uint _stakingDuration, uint _campaignStakingRewards) ... */\n    tag_51:\n      tag_211\n      0x04\n      dup1\n      calldatasize\n      sub\n      0x60\n      dup2\n      lt\n      iszero\n      tag_212\n      jumpi\n      0x00\n      dup1\n      revert\n    tag_212:\n      dup2\n      add\n      swap1\n      dup1\n      dup1\n      calldataload\n      swap1\n      0x20\n      add\n      swap1\n      swap3\n      swap2\n      swap1\n      dup1\n      calldataload\n      swap1\n      0x20\n      add\n      swap1\n      swap3\n      swap2\n      swap1\n      dup1\n      calldataload\n      swap1\n      0x20\n      add\n      swap1\n      swap3\n      swap2\n      swap1\n      pop\n      pop\n      pop\n      tag_213\n      jump\t// in\n    tag_211:\n      stop\n        /* \"https://github.com/OpenZeppelin/openzeppelin-contracts/blob/v3.4.2-solc-0.7/contracts/token/ERC20/ERC20.sol\":6276:6542   */\n    tag_52:\n      tag_214\n      0x04\n      dup1\n      calldatasize\n      sub\n      0x40\n      dup2\n      lt\n      iszero\n      tag_215\n      jumpi\n      0x00\n      dup1\n      revert\n    tag_215:\n      dup2\n      add\n      swap1\n      dup1\n      dup1\n      calldataload\n      0xffffffffffffffffffffffffffffffffffffffff\n      and\n      swap1\n      0x20\n      add\n      swap1\n      swap3\n      swap2\n      swap1\n      dup1\n      calldataload\n      swap1\n      0x20\n      add\n      swap1\n      swap3\n      swap2\n      swap1\n      pop\n      pop\n      pop\n      tag_216\n      jump\t// in\n    tag_214:\n      mload(0x40)\n      dup1\n      dup3\n      iszero\n      iszero\n      dup2\n      mstore\n      0x20\n      add\n      swap2\n      pop\n      pop\n      mload(0x40)\n      dup1\n      swap2\n      sub\n      swap1\n      return\n        /* \"LiquidityToken.sol\":5158:5406  function enableOrDisableUserFunctions() public onlyOwner() {... */\n    tag_53:\n      tag_217\n      tag_218\n      jump\t// in\n    tag_217:\n      stop\n        /* \"https://github.com/OpenZeppelin/openzeppelin-contracts/blob/v3.4.2-solc-0.7/contracts/token/ERC20/ERC20.sol\":3712:3884   */\n    tag_54:\n      tag_219\n      0x04\n      dup1\n      calldatasize\n      sub\n      0x40\n      dup2\n      lt\n      iszero\n      tag_220\n      jumpi\n      0x00\n      dup1\n      revert\n    tag_220:\n      dup2\n      add\n      swap1\n      dup1\n      dup1\n      calldataload\n      0xffffffffffffffffffffffffffffffffffffffff\n      and\n      swap1\n      0x20\n      add\n      swap1\n      swap3\n      swap2\n      swap1\n      dup1\n      calldataload\n      swap1\n      0x20\n      add\n      swap1\n      swap3\n      swap2\n      swap1\n      pop\n      pop\n      pop\n      tag_221\n      jump\t// in\n    tag_219:\n      mload(0x40)\n      dup1\n      dup3\n      iszero\n      iszero\n      dup2\n      mstore\n      0x20\n      add\n      swap2\n      pop\n      pop\n      mload(0x40)\n      dup1\n      swap2\n      sub\n      swap1\n      return\n        /* \"LiquidityToken.sol\":957:997  uint public withdrawFeesPerThousandForLT */\n    tag_55:\n      tag_222\n      tag_223\n      jump\t// in\n    tag_222:\n      mload(0x40)\n      dup1\n      dup3\n      dup2\n      mstore\n      0x20\n      add\n      swap2\n      pop\n      pop\n      mload(0x40)\n      dup1\n      swap2\n      sub\n      swap1\n      return\n        /* \"LiquidityToken.sol\":11379:11712  function changeFundraisingStatus() public onlyOwner() {... */\n    tag_56:\n      tag_224\n      tag_225\n      jump\t// in\n    tag_224:\n      stop\n        /* \"LiquidityToken.sol\":17561:17837  function updateWithdrawalFeesForLT(uint _valuePerThousand) public onlyOwner() {... */\n    tag_57:\n      tag_226\n      0x04\n      dup1\n      calldatasize\n      sub\n      0x20\n      dup2\n      lt\n      iszero\n      tag_227\n      jumpi\n      0x00\n      dup1\n      revert\n    tag_227:\n      dup2\n      add\n      swap1\n      dup1\n      dup1\n      calldataload\n      swap1\n      0x20\n      add\n      swap1\n      swap3\n      swap2\n      swap1\n      pop\n      pop\n      pop\n      tag_228\n      jump\t// in\n    tag_226:\n      stop\n        /* \"LiquidityToken.sol\":898:918  uint public stakedLT */\n    tag_58:\n      tag_229\n      tag_230\n      jump\t// in\n    tag_229:\n      mload(0x40)\n      dup1\n      dup3\n      dup2\n      mstore\n      0x20\n      add\n      swap2\n      pop\n      pop\n      mload(0x40)\n      dup1\n      swap2\n      sub\n      swap1\n      return\n        /* \"LiquidityToken.sol\":15469:16183  function depositLT(uint _value) public {... */\n    tag_59:\n      tag_231\n      0x04\n      dup1\n      calldatasize\n      sub\n      0x20\n      dup2\n      lt\n      iszero\n      tag_232\n      jumpi\n      0x00\n      dup1\n      revert\n    tag_232:\n      dup2\n      add\n      swap1\n      dup1\n      dup1\n      calldataload\n      swap1\n      0x20\n      add\n      swap1\n      swap3\n      swap2\n      swap1\n      pop\n      pop\n      pop\n      tag_233\n      jump\t// in\n    tag_231:\n      stop\n        /* \"LiquidityToken.sol\":20164:20288  function mintByInterfaceProjectToken(uint _value) public onlyInterfaceProjectToken() {... */\n    tag_60:\n      tag_234\n      0x04\n      dup1\n      calldatasize\n      sub\n      0x20\n      dup2\n      lt\n      iszero\n      tag_235\n      jumpi\n      0x00\n      dup1\n      revert\n    tag_235:\n      dup2\n      add\n      swap1\n      dup1\n      dup1\n      calldataload\n      swap1\n      0x20\n      add\n      swap1\n      swap3\n      swap2\n      swap1\n      pop\n      pop\n      pop\n      tag_236\n      jump\t// in\n    tag_234:\n      stop\n        /* \"LiquidityToken.sol\":5569:5974  function setInterfaceProjectToken(InterfaceProjectToken _interfaceProjectToken)... */\n    tag_61:\n      tag_237\n      0x04\n      dup1\n      calldatasize\n      sub\n      0x20\n      dup2\n      lt\n      iszero\n      tag_238\n      jumpi\n      0x00\n      dup1\n      revert\n    tag_238:\n      dup2\n      add\n      swap1\n      dup1\n      dup1\n      calldataload\n      0xffffffffffffffffffffffffffffffffffffffff\n      and\n      swap1\n      0x20\n      add\n      swap1\n      swap3\n      swap2\n      swap1\n      pop\n      pop\n      pop\n      tag_239\n      jump\t// in\n    tag_237:\n      stop\n        /* \"https://github.com/OpenZeppelin/openzeppelin-contracts/blob/v3.4.2-solc-0.7/contracts/token/ERC20/ERC20.sol\":3942:4091   */\n    tag_62:\n      tag_240\n      0x04\n      dup1\n      calldatasize\n      sub\n      0x40\n      dup2\n      lt\n      iszero\n      tag_241\n      jumpi\n      0x00\n      dup1\n      revert\n    tag_241:\n      dup2\n      add\n      swap1\n      dup1\n      dup1\n      calldataload\n      0xffffffffffffffffffffffffffffffffffffffff\n      and\n      swap1\n      0x20\n      add\n      swap1\n      swap3\n      swap2\n      swap1\n      dup1\n      calldataload\n      0xffffffffffffffffffffffffffffffffffffffff\n      and\n      swap1\n      0x20\n      add\n      swap1\n      swap3\n      swap2\n      swap1\n      pop\n      pop\n      pop\n      tag_242\n      jump\t// in\n    tag_240:\n      mload(0x40)\n      dup1\n      dup3\n      dup2\n      mstore\n      0x20\n      add\n      swap2\n      pop\n      pop\n      mload(0x40)\n      dup1\n      swap2\n      sub\n      swap1\n      return\n        /* \"LiquidityToken.sol\":6215:7988  function allocateLTByOwner(address[] memory _users, uint[] memory _values, bool _areAllocationsToBeStaked)... */\n    tag_63:\n      tag_243\n      0x04\n      dup1\n      calldatasize\n      sub\n      0x60\n      dup2\n      lt\n      iszero\n      tag_244\n      jumpi\n      0x00\n      dup1\n      revert\n    tag_244:\n      dup2\n      add\n      swap1\n      dup1\n      dup1\n      calldataload\n      swap1\n      0x20\n      add\n      swap1\n      0x0100000000\n      dup2\n      gt\n      iszero\n      tag_245\n      jumpi\n      0x00\n      dup1\n      revert\n    tag_245:\n      dup3\n      add\n      dup4\n      0x20\n      dup3\n      add\n      gt\n      iszero\n      tag_246\n      jumpi\n      0x00\n      dup1\n      revert\n    tag_246:\n      dup1\n      calldataload\n      swap1\n      0x20\n      add\n      swap2\n      dup5\n      0x20\n      dup4\n      mul\n      dup5\n      add\n      gt\n      0x0100000000\n      dup4\n      gt\n      or\n      iszero\n      tag_247\n      jumpi\n      0x00\n      dup1\n      revert\n    tag_247:\n      swap2\n      swap1\n      dup1\n      dup1\n      0x20\n      mul\n      0x20\n      add\n      mload(0x40)\n      swap1\n      dup2\n      add\n      0x40\n      mstore\n      dup1\n      swap4\n      swap3\n      swap2\n      swap1\n      dup2\n      dup2\n      mstore\n      0x20\n      add\n      dup4\n      dup4\n      0x20\n      mul\n      dup1\n      dup3\n      dup5\n      calldatacopy\n      0x00\n      dup2\n      dup5\n      add\n      mstore\n      not(0x1f)\n      0x1f\n      dup3\n      add\n      and\n      swap1\n      pop\n      dup1\n      dup4\n      add\n      swap3\n      pop\n      pop\n      pop\n      pop\n      pop\n      pop\n      pop\n      swap2\n      swap3\n      swap2\n      swap3\n      swap1\n      dup1\n      calldataload\n      swap1\n      0x20\n      add\n      swap1\n      0x0100000000\n      dup2\n      gt\n      iszero\n      tag_248\n      jumpi\n      0x00\n      dup1\n      revert\n    tag_248:\n      dup3\n      add\n      dup4\n      0x20\n      dup3\n      add\n      gt\n      iszero\n      tag_249\n      jumpi\n      0x00\n      dup1\n      revert\n    tag_249:\n      dup1\n      calldataload\n      swap1\n      0x20\n      add\n      swap2\n      dup5\n      0x20\n      dup4\n      mul\n      dup5\n      add\n      gt\n      0x0100000000\n      dup4\n      gt\n      or\n      iszero\n      tag_250\n      jumpi\n      0x00\n      dup1\n      revert\n    tag_250:\n      swap2\n      swap1\n      dup1\n      dup1\n      0x20\n      mul\n      0x20\n      add\n      mload(0x40)\n      swap1\n      dup2\n      add\n      0x40\n      mstore\n      dup1\n      swap4\n      swap3\n      swap2\n      swap1\n      dup2\n      dup2\n      mstore\n      0x20\n      add\n      dup4\n      dup4\n      0x20\n      mul\n      dup1\n      dup3\n      dup5\n      calldatacopy\n      0x00\n      dup2\n      dup5\n      add\n      mstore\n      not(0x1f)\n      0x1f\n      dup3\n      add\n      and\n      swap1\n      pop\n      dup1\n      dup4\n      add\n      swap3\n      pop\n      pop\n      pop\n      pop\n      pop\n      pop\n      pop\n      swap2\n      swap3\n      swap2\n      swap3\n      swap1\n      dup1\n      calldataload\n      iszero\n      iszero\n      swap1\n      0x20\n      add\n      swap1\n      swap3\n      swap2\n      swap1\n      pop\n      pop\n      pop\n      tag_251\n      jump\t// in\n    tag_243:\n      stop\n        /* \"LiquidityToken.sol\":857:894  uint public currentRewardPerShare1e18 */\n    tag_64:\n      tag_252\n      tag_253\n      jump\t// in\n    tag_252:\n      mload(0x40)\n      dup1\n      dup3\n      dup2\n      mstore\n      0x20\n      add\n      swap2\n      pop\n      pop\n      mload(0x40)\n      dup1\n      swap2\n      sub\n      swap1\n      return\n        /* \"LiquidityToken.sol\":1226:1269  uint public immutable durationLinearVesting */\n    tag_65:\n      tag_254\n      tag_255\n      jump\t// in\n    tag_254:\n      mload(0x40)\n      dup1\n      dup3\n      dup2\n      mstore\n      0x20\n      add\n      swap2\n      pop\n      pop\n      mload(0x40)\n      dup1\n      swap2\n      sub\n      swap1\n      return\n        /* \"LiquidityToken.sol\":1959:1988  uint public priceTokenPer1e18 */\n    tag_66:\n      tag_256\n      tag_257\n      jump\t// in\n    tag_256:\n      mload(0x40)\n      dup1\n      dup3\n      dup2\n      mstore\n      0x20\n      add\n      swap2\n      pop\n      pop\n      mload(0x40)\n      dup1\n      swap2\n      sub\n      swap1\n      return\n        /* \"LiquidityToken.sol\":18465:18655  function updateStakingAndGetHodlRewardsByInterfacePT(address _user) public onlyInterfaceProjectToken() returns (uint) {... */\n    tag_67:\n      tag_258\n      0x04\n      dup1\n      calldatasize\n      sub\n      0x20\n      dup2\n      lt\n      iszero\n      tag_259\n      jumpi\n      0x00\n      dup1\n      revert\n    tag_259:\n      dup2\n      add\n      swap1\n      dup1\n      dup1\n      calldataload\n      0xffffffffffffffffffffffffffffffffffffffff\n      and\n      swap1\n      0x20\n      add\n      swap1\n      swap3\n      swap2\n      swap1\n      pop\n      pop\n      pop\n      tag_260\n      jump\t// in\n    tag_258:\n      mload(0x40)\n      dup1\n      dup3\n      dup2\n      mstore\n      0x20\n      add\n      swap2\n      pop\n      pop\n      mload(0x40)\n      dup1\n      swap2\n      sub\n      swap1\n      return\n        /* \"https://github.com/OpenZeppelin/openzeppelin-contracts/blob/v3.4.2-solc-0.7/contracts/access/Ownable.sol\":1994:2234   */\n    tag_68:\n      tag_261\n      0x04\n      dup1\n      calldatasize\n      sub\n      0x20\n      dup2\n      lt\n      iszero\n      tag_262\n      jumpi\n      0x00\n      dup1\n      revert\n    tag_262:\n      dup2\n      add\n      swap1\n      dup1\n      dup1\n      calldataload\n      0xffffffffffffffffffffffffffffffffffffffff\n      and\n      swap1\n      0x20\n      add\n      swap1\n      swap3\n      swap2\n      swap1\n      pop\n      pop\n      pop\n      tag_263\n      jump\t// in\n    tag_261:\n      stop\n        /* \"LiquidityToken.sol\":20423:20567  function updateRewardsAfterFeesPaymentByInterface(uint _fees) public onlyInterfaceProjectToken() {... */\n    tag_69:\n      tag_264\n      0x04\n      dup1\n      calldatasize\n      sub\n      0x20\n      dup2\n      lt\n      iszero\n      tag_265\n      jumpi\n      0x00\n      dup1\n      revert\n    tag_265:\n      dup2\n      add\n      swap1\n      dup1\n      dup1\n      calldataload\n      swap1\n      0x20\n      add\n      swap1\n      swap3\n      swap2\n      swap1\n      pop\n      pop\n      pop\n      tag_266\n      jump\t// in\n    tag_264:\n      stop\n        /* \"LiquidityToken.sol\":14457:15012  function getHodlRewards(address _user, uint _currentRewardPerShare1e18) public view returns(uint _hodlRewards) {... */\n    tag_70:\n      tag_267\n      0x04\n      dup1\n      calldatasize\n      sub\n      0x40\n      dup2\n      lt\n      iszero\n      tag_268\n      jumpi\n      0x00\n      dup1\n      revert\n    tag_268:\n      dup2\n      add\n      swap1\n      dup1\n      dup1\n      calldataload\n      0xffffffffffffffffffffffffffffffffffffffff\n      and\n      swap1\n      0x20\n      add\n      swap1\n      swap3\n      swap2\n      swap1\n      dup1\n      calldataload\n      swap1\n      0x20\n      add\n      swap1\n      swap3\n      swap2\n      swap1\n      pop\n      pop\n      pop\n      tag_269\n      jump\t// in\n    tag_267:\n      mload(0x40)\n      dup1\n      dup3\n      dup2\n      mstore\n      0x20\n      add\n      swap2\n      pop\n      pop\n      mload(0x40)\n      dup1\n      swap2\n      sub\n      swap1\n      return\n        /* \"LiquidityToken.sol\":726:760  uint public campaignStakingRewards */\n    tag_87:\n      sload(0x0a)\n      dup2\n      jump\t// out\n        /* \"https://github.com/OpenZeppelin/openzeppelin-contracts/blob/v3.4.2-solc-0.7/contracts/token/ERC20/ERC20.sol\":2153:2242   */\n    tag_89:\n        /* \"https://github.com/OpenZeppelin/openzeppelin-contracts/blob/v3.4.2-solc-0.7/contracts/token/ERC20/ERC20.sol\":2198:2211   */\n      0x60\n        /* \"https://github.com/OpenZeppelin/openzeppelin-contracts/blob/v3.4.2-solc-0.7/contracts/token/ERC20/ERC20.sol\":2230:2235   */\n      0x03\n        /* \"https://github.com/OpenZeppelin/openzeppelin-contracts/blob/v3.4.2-solc-0.7/contracts/token/ERC20/ERC20.sol\":2223:2235   */\n      dup1\n      sload\n      0x01\n      dup2\n      0x01\n      and\n      iszero\n      0x0100\n      mul\n      sub\n      and\n      0x02\n      swap1\n      div\n      dup1\n      0x1f\n      add\n      0x20\n      dup1\n      swap2\n      div\n      mul\n      0x20\n      add\n      mload(0x40)\n      swap1\n      dup2\n      add\n      0x40\n      mstore\n      dup1\n      swap3\n      swap2\n      swap1\n      dup2\n      dup2\n      mstore\n      0x20\n      add\n      dup3\n      dup1\n      sload\n      0x01\n      dup2\n      0x01\n      and\n      iszero\n      0x0100\n      mul\n      sub\n      and\n      0x02\n      swap1\n      div\n      dup1\n      iszero\n      tag_271\n      jumpi\n      dup1\n      0x1f\n      lt\n      tag_272\n      jumpi\n      0x0100\n      dup1\n      dup4\n      sload\n      div\n      mul\n      dup4\n      mstore\n      swap2\n      0x20\n      add\n      swap2\n      jump(tag_271)\n    tag_272:\n      dup3\n      add\n      swap2\n      swap1\n      0x00\n      mstore\n      keccak256(0x00, 0x20)\n      swap1\n    tag_273:\n      dup2\n      sload\n      dup2\n      mstore\n      swap1\n      0x01\n      add\n      swap1\n      0x20\n      add\n      dup1\n      dup4\n      gt\n      tag_273\n      jumpi\n      dup3\n      swap1\n      sub\n      0x1f\n      and\n      dup3\n      add\n      swap2\n    tag_271:\n      pop\n      pop\n      pop\n      pop\n      pop\n      swap1\n      pop\n        /* \"https://github.com/OpenZeppelin/openzeppelin-contracts/blob/v3.4.2-solc-0.7/contracts/token/ERC20/ERC20.sol\":2153:2242   */\n      swap1\n      jump\t// out\n        /* \"https://github.com/OpenZeppelin/openzeppelin-contracts/blob/v3.4.2-solc-0.7/contracts/token/ERC20/ERC20.sol\":4229:4395   */\n    tag_96:\n        /* \"https://github.com/OpenZeppelin/openzeppelin-contracts/blob/v3.4.2-solc-0.7/contracts/token/ERC20/ERC20.sol\":4312:4316   */\n      0x00\n        /* \"https://github.com/OpenZeppelin/openzeppelin-contracts/blob/v3.4.2-solc-0.7/contracts/token/ERC20/ERC20.sol\":4328:4367   */\n      tag_275\n        /* \"https://github.com/OpenZeppelin/openzeppelin-contracts/blob/v3.4.2-solc-0.7/contracts/token/ERC20/ERC20.sol\":4337:4349   */\n      tag_276\n        /* \"https://github.com/OpenZeppelin/openzeppelin-contracts/blob/v3.4.2-solc-0.7/contracts/token/ERC20/ERC20.sol\":4337:4347   */\n      tag_277\n        /* \"https://github.com/OpenZeppelin/openzeppelin-contracts/blob/v3.4.2-solc-0.7/contracts/token/ERC20/ERC20.sol\":4337:4349   */\n      jump\t// in\n    tag_276:\n        /* \"https://github.com/OpenZeppelin/openzeppelin-contracts/blob/v3.4.2-solc-0.7/contracts/token/ERC20/ERC20.sol\":4351:4358   */\n      dup5\n        /* \"https://github.com/OpenZeppelin/openzeppelin-contracts/blob/v3.4.2-solc-0.7/contracts/token/ERC20/ERC20.sol\":4360:4366   */\n      dup5\n        /* \"https://github.com/OpenZeppelin/openzeppelin-contracts/blob/v3.4.2-solc-0.7/contracts/token/ERC20/ERC20.sol\":4328:4336   */\n      tag_278\n        /* \"https://github.com/OpenZeppelin/openzeppelin-contracts/blob/v3.4.2-solc-0.7/contracts/token/ERC20/ERC20.sol\":4328:4367   */\n      jump\t// in\n    tag_275:\n        /* \"https://github.com/OpenZeppelin/openzeppelin-contracts/blob/v3.4.2-solc-0.7/contracts/token/ERC20/ERC20.sol\":4384:4388   */\n      0x01\n        /* \"https://github.com/OpenZeppelin/openzeppelin-contracts/blob/v3.4.2-solc-0.7/contracts/token/ERC20/ERC20.sol\":4377:4388   */\n      swap1\n      pop\n        /* \"https://github.com/OpenZeppelin/openzeppelin-contracts/blob/v3.4.2-solc-0.7/contracts/token/ERC20/ERC20.sol\":4229:4395   */\n      swap3\n      swap2\n      pop\n      pop\n      jump\t// out\n        /* \"LiquidityToken.sol\":1435:1470  uint public immutable maxStakingAPR */\n    tag_98:\n      immutable(\"0xbf42042e2237c6e6d1c29f4f02d65eeea252179805ed26cf71ad720e62900975\")\n      dup2\n      jump\t// out\n        /* \"https://github.com/OpenZeppelin/openzeppelin-contracts/blob/v3.4.2-solc-0.7/contracts/token/ERC20/ERC20.sol\":3220:3326   */\n    tag_100:\n        /* \"https://github.com/OpenZeppelin/openzeppelin-contracts/blob/v3.4.2-solc-0.7/contracts/token/ERC20/ERC20.sol\":3281:3288   */\n      0x00\n        /* \"https://github.com/OpenZeppelin/openzeppelin-contracts/blob/v3.4.2-solc-0.7/contracts/token/ERC20/ERC20.sol\":3307:3319   */\n      sload(0x02)\n        /* \"https://github.com/OpenZeppelin/openzeppelin-contracts/blob/v3.4.2-solc-0.7/contracts/token/ERC20/ERC20.sol\":3300:3319   */\n      swap1\n      pop\n        /* \"https://github.com/OpenZeppelin/openzeppelin-contracts/blob/v3.4.2-solc-0.7/contracts/token/ERC20/ERC20.sol\":3220:3326   */\n      swap1\n      jump\t// out\n        /* \"LiquidityToken.sol\":5410:5565  function ensureUserFunctionsAreNotDisabled() public view {... */\n    tag_102:\n        /* \"LiquidityToken.sol\":5516:5521  false */\n      0x00\n        /* \"LiquidityToken.sol\":5488:5521  areUserFunctionsDisabled == false */\n      iszero\n      iszero\n        /* \"LiquidityToken.sol\":5488:5512  areUserFunctionsDisabled */\n      0x11\n      0x00\n      swap1\n      sload\n      swap1\n      0x0100\n      exp\n      swap1\n      div\n      0xff\n      and\n        /* \"LiquidityToken.sol\":5488:5521  areUserFunctionsDisabled == false */\n      iszero\n      iszero\n      eq\n        /* \"LiquidityToken.sol\":5473:5560  require(... */\n      tag_281\n      jumpi\n      mload(0x40)\n      0x08c379a000000000000000000000000000000000000000000000000000000000\n      dup2\n      mstore\n      0x04\n      add\n      dup1\n      dup1\n      0x20\n      add\n      dup3\n      dup2\n      sub\n      dup3\n      mstore\n      0x15\n      dup2\n      mstore\n      0x20\n      add\n      dup1\n      0x5472616e73616374696f6e732064697361626c65640000000000000000000000\n      dup2\n      mstore\n      pop\n      0x20\n      add\n      swap2\n      pop\n      pop\n      mload(0x40)\n      dup1\n      swap2\n      sub\n      swap1\n      revert\n    tag_281:\n        /* \"LiquidityToken.sol\":5410:5565  function ensureUserFunctionsAreNotDisabled() public view {... */\n      jump\t// out\n        /* \"https://github.com/OpenZeppelin/openzeppelin-contracts/blob/v3.4.2-solc-0.7/contracts/token/ERC20/ERC20.sol\":4862:5179   */\n    tag_105:\n        /* \"https://github.com/OpenZeppelin/openzeppelin-contracts/blob/v3.4.2-solc-0.7/contracts/token/ERC20/ERC20.sol\":4968:4972   */\n      0x00\n        /* \"https://github.com/OpenZeppelin/openzeppelin-contracts/blob/v3.4.2-solc-0.7/contracts/token/ERC20/ERC20.sol\":4984:5020   */\n      tag_283\n        /* \"https://github.com/OpenZeppelin/openzeppelin-contracts/blob/v3.4.2-solc-0.7/contracts/token/ERC20/ERC20.sol\":4994:5000   */\n      dup5\n        /* \"https://github.com/OpenZeppelin/openzeppelin-contracts/blob/v3.4.2-solc-0.7/contracts/token/ERC20/ERC20.sol\":5002:5011   */\n      dup5\n        /* \"https://github.com/OpenZeppelin/openzeppelin-contracts/blob/v3.4.2-solc-0.7/contracts/token/ERC20/ERC20.sol\":5013:5019   */\n      dup5\n        /* \"https://github.com/OpenZeppelin/openzeppelin-contracts/blob/v3.4.2-solc-0.7/contracts/token/ERC20/ERC20.sol\":4984:4993   */\n      tag_284\n        /* \"https://github.com/OpenZeppelin/openzeppelin-contracts/blob/v3.4.2-solc-0.7/contracts/token/ERC20/ERC20.sol\":4984:5020   */\n      jump\t// in\n    tag_283:\n        /* \"https://github.com/OpenZeppelin/openzeppelin-contracts/blob/v3.4.2-solc-0.7/contracts/token/ERC20/ERC20.sol\":5030:5151   */\n      tag_285\n        /* \"https://github.com/OpenZeppelin/openzeppelin-contracts/blob/v3.4.2-solc-0.7/contracts/token/ERC20/ERC20.sol\":5039:5045   */\n      dup5\n        /* \"https://github.com/OpenZeppelin/openzeppelin-contracts/blob/v3.4.2-solc-0.7/contracts/token/ERC20/ERC20.sol\":5047:5059   */\n      tag_286\n        /* \"https://github.com/OpenZeppelin/openzeppelin-contracts/blob/v3.4.2-solc-0.7/contracts/token/ERC20/ERC20.sol\":5047:5057   */\n      tag_277\n        /* \"https://github.com/OpenZeppelin/openzeppelin-contracts/blob/v3.4.2-solc-0.7/contracts/token/ERC20/ERC20.sol\":5047:5059   */\n      jump\t// in\n    tag_286:\n        /* \"https://github.com/OpenZeppelin/openzeppelin-contracts/blob/v3.4.2-solc-0.7/contracts/token/ERC20/ERC20.sol\":5061:5150   */\n      tag_287\n        /* \"https://github.com/OpenZeppelin/openzeppelin-contracts/blob/v3.4.2-solc-0.7/contracts/token/ERC20/ERC20.sol\":5099:5105   */\n      dup6\n        /* \"https://github.com/OpenZeppelin/openzeppelin-contracts/blob/v3.4.2-solc-0.7/contracts/token/ERC20/ERC20.sol\":5061:5150   */\n      mload(0x40)\n      dup1\n      0x60\n      add\n      0x40\n      mstore\n      dup1\n      0x28\n      dup2\n      mstore\n      0x20\n      add\n      data_974d1b4421da69cc60b481194f0dad36a5bb4e23da810da7a7fb30cdba178330\n      0x28\n      swap2\n      codecopy\n        /* \"https://github.com/OpenZeppelin/openzeppelin-contracts/blob/v3.4.2-solc-0.7/contracts/token/ERC20/ERC20.sol\":5061:5072   */\n      0x01\n        /* \"https://github.com/OpenZeppelin/openzeppelin-contracts/blob/v3.4.2-solc-0.7/contracts/token/ERC20/ERC20.sol\":5061:5080   */\n      0x00\n        /* \"https://github.com/OpenZeppelin/openzeppelin-contracts/blob/v3.4.2-solc-0.7/contracts/token/ERC20/ERC20.sol\":5073:5079   */\n      dup12\n        /* \"https://github.com/OpenZeppelin/openzeppelin-contracts/blob/v3.4.2-solc-0.7/contracts/token/ERC20/ERC20.sol\":5061:5080   */\n      0xffffffffffffffffffffffffffffffffffffffff\n      and\n      0xffffffffffffffffffffffffffffffffffffffff\n      and\n      dup2\n      mstore\n      0x20\n      add\n      swap1\n      dup2\n      mstore\n      0x20\n      add\n      0x00\n      keccak256\n        /* \"https://github.com/OpenZeppelin/openzeppelin-contracts/blob/v3.4.2-solc-0.7/contracts/token/ERC20/ERC20.sol\":5061:5094   */\n      0x00\n        /* \"https://github.com/OpenZeppelin/openzeppelin-contracts/blob/v3.4.2-solc-0.7/contracts/token/ERC20/ERC20.sol\":5081:5093   */\n      tag_288\n        /* \"https://github.com/OpenZeppelin/openzeppelin-contracts/blob/v3.4.2-solc-0.7/contracts/token/ERC20/ERC20.sol\":5081:5091   */\n      tag_277\n        /* \"https://github.com/OpenZeppelin/openzeppelin-contracts/blob/v3.4.2-solc-0.7/contracts/token/ERC20/ERC20.sol\":5081:5093   */\n      jump\t// in\n    tag_288:\n        /* \"https://github.com/OpenZeppelin/openzeppelin-contracts/blob/v3.4.2-solc-0.7/contracts/token/ERC20/ERC20.sol\":5061:5094   */\n      0xffffffffffffffffffffffffffffffffffffffff\n      and\n      0xffffffffffffffffffffffffffffffffffffffff\n      and\n      dup2\n      mstore\n      0x20\n      add\n      swap1\n      dup2\n      mstore\n      0x20\n      add\n      0x00\n      keccak256\n      sload\n        /* \"https://github.com/OpenZeppelin/openzeppelin-contracts/blob/v3.4.2-solc-0.7/contracts/token/ERC20/ERC20.sol\":5061:5098   */\n      tag_289\n      swap1\n        /* \"https://github.com/OpenZeppelin/openzeppelin-contracts/blob/v3.4.2-solc-0.7/contracts/token/ERC20/ERC20.sol\":5061:5150   */\n      swap3\n      swap2\n      swap1\n      0xffffffff\n      and\n      jump\t// in\n    tag_287:\n        /* \"https://github.com/OpenZeppelin/openzeppelin-contracts/blob/v3.4.2-solc-0.7/contracts/token/ERC20/ERC20.sol\":5030:5038   */\n      tag_278\n        /* \"https://github.com/OpenZeppelin/openzeppelin-contracts/blob/v3.4.2-solc-0.7/contracts/token/ERC20/ERC20.sol\":5030:5151   */\n      jump\t// in\n    tag_285:\n        /* \"https://github.com/OpenZeppelin/openzeppelin-contracts/blob/v3.4.2-solc-0.7/contracts/token/ERC20/ERC20.sol\":5168:5172   */\n      0x01\n        /* \"https://github.com/OpenZeppelin/openzeppelin-contracts/blob/v3.4.2-solc-0.7/contracts/token/ERC20/ERC20.sol\":5161:5172   */\n      swap1\n      pop\n        /* \"https://github.com/OpenZeppelin/openzeppelin-contracts/blob/v3.4.2-solc-0.7/contracts/token/ERC20/ERC20.sol\":4862:5179   */\n      swap4\n      swap3\n      pop\n      pop\n      pop\n      jump\t// out\n        /* \"LiquidityToken.sol\":1129:1183  uint public immutable fractionInitialUnlockPerThousand */\n    tag_107:\n      immutable(\"0xc3259c45f9e3c1055fdcabf98c9c354977536b311a2495291202379be8e06e09\")\n      dup2\n      jump\t// out\n        /* \"LiquidityToken.sol\":1709:1762  mapping (address => LiquiToken) public userLiquiToken */\n    tag_110:\n      mstore(0x20, 0x13)\n      dup1\n      0x00\n      mstore\n      keccak256(0x00, 0x40)\n      0x00\n      swap2\n      pop\n      swap1\n      pop\n      dup1\n      0x00\n      add\n      sload\n      swap1\n      dup1\n      0x01\n      add\n      sload\n      swap1\n      dup1\n      0x02\n      add\n      sload\n      swap1\n      pop\n      dup4\n      jump\t// out\n        /* \"LiquidityToken.sol\":21133:21328  function getUserDateOfPartiallyChargedToken(address _user) public view... */\n    tag_113:\n        /* \"LiquidityToken.sol\":21216:21244  uint _dateOfPartiallyCharged */\n      0x00\n        /* \"LiquidityToken.sol\":21279:21293  userLiquiToken */\n      0x13\n        /* \"LiquidityToken.sol\":21279:21300  userLiquiToken[_user] */\n      0x00\n        /* \"LiquidityToken.sol\":21294:21299  _user */\n      dup4\n        /* \"LiquidityToken.sol\":21279:21300  userLiquiToken[_user] */\n      0xffffffffffffffffffffffffffffffffffffffff\n      and\n      0xffffffffffffffffffffffffffffffffffffffff\n      and\n      dup2\n      mstore\n      0x20\n      add\n      swap1\n      dup2\n      mstore\n      0x20\n      add\n      0x00\n      keccak256\n        /* \"LiquidityToken.sol\":21279:21323  userLiquiToken[_user].dateOfPartiallyCharged */\n      0x02\n      add\n      sload\n        /* \"LiquidityToken.sol\":21253:21323  _dateOfPartiallyCharged = userLiquiToken[_user].dateOfPartiallyCharged */\n      swap1\n      pop\n        /* \"LiquidityToken.sol\":21133:21328  function getUserDateOfPartiallyChargedToken(address _user) public view... */\n      swap2\n      swap1\n      pop\n      jump\t// out\n        /* \"https://github.com/OpenZeppelin/openzeppelin-contracts/blob/v3.4.2-solc-0.7/contracts/token/ERC20/ERC20.sol\":3071:3160   */\n    tag_115:\n        /* \"https://github.com/OpenZeppelin/openzeppelin-contracts/blob/v3.4.2-solc-0.7/contracts/token/ERC20/ERC20.sol\":3120:3125   */\n      0x00\n        /* \"https://github.com/OpenZeppelin/openzeppelin-contracts/blob/v3.4.2-solc-0.7/contracts/token/ERC20/ERC20.sol\":3144:3153   */\n      0x05\n      0x00\n      swap1\n      sload\n      swap1\n      0x0100\n      exp\n      swap1\n      div\n      0xff\n      and\n        /* \"https://github.com/OpenZeppelin/openzeppelin-contracts/blob/v3.4.2-solc-0.7/contracts/token/ERC20/ERC20.sol\":3137:3153   */\n      swap1\n      pop\n        /* \"https://github.com/OpenZeppelin/openzeppelin-contracts/blob/v3.4.2-solc-0.7/contracts/token/ERC20/ERC20.sol\":3071:3160   */\n      swap1\n      jump\t// out\n        /* \"LiquidityToken.sol\":2027:2058  bool public isFundraisingActive */\n    tag_117:\n      0x16\n      0x14\n      swap1\n      sload\n      swap1\n      0x0100\n      exp\n      swap1\n      div\n      0xff\n      and\n      dup2\n      jump\t// out\n        /* \"https://github.com/OpenZeppelin/openzeppelin-contracts/blob/v3.4.2-solc-0.7/contracts/token/ERC20/ERC20.sol\":5574:5789   */\n    tag_120:\n        /* \"https://github.com/OpenZeppelin/openzeppelin-contracts/blob/v3.4.2-solc-0.7/contracts/token/ERC20/ERC20.sol\":5662:5666   */\n      0x00\n        /* \"https://github.com/OpenZeppelin/openzeppelin-contracts/blob/v3.4.2-solc-0.7/contracts/token/ERC20/ERC20.sol\":5678:5761   */\n      tag_293\n        /* \"https://github.com/OpenZeppelin/openzeppelin-contracts/blob/v3.4.2-solc-0.7/contracts/token/ERC20/ERC20.sol\":5687:5699   */\n      tag_294\n        /* \"https://github.com/OpenZeppelin/openzeppelin-contracts/blob/v3.4.2-solc-0.7/contracts/token/ERC20/ERC20.sol\":5687:5697   */\n      tag_277\n        /* \"https://github.com/OpenZeppelin/openzeppelin-contracts/blob/v3.4.2-solc-0.7/contracts/token/ERC20/ERC20.sol\":5687:5699   */\n      jump\t// in\n    tag_294:\n        /* \"https://github.com/OpenZeppelin/openzeppelin-contracts/blob/v3.4.2-solc-0.7/contracts/token/ERC20/ERC20.sol\":5701:5708   */\n      dup5\n        /* \"https://github.com/OpenZeppelin/openzeppelin-contracts/blob/v3.4.2-solc-0.7/contracts/token/ERC20/ERC20.sol\":5710:5760   */\n      tag_295\n        /* \"https://github.com/OpenZeppelin/openzeppelin-contracts/blob/v3.4.2-solc-0.7/contracts/token/ERC20/ERC20.sol\":5749:5759   */\n      dup6\n        /* \"https://github.com/OpenZeppelin/openzeppelin-contracts/blob/v3.4.2-solc-0.7/contracts/token/ERC20/ERC20.sol\":5710:5721   */\n      0x01\n        /* \"https://github.com/OpenZeppelin/openzeppelin-contracts/blob/v3.4.2-solc-0.7/contracts/token/ERC20/ERC20.sol\":5710:5735   */\n      0x00\n        /* \"https://github.com/OpenZeppelin/openzeppelin-contracts/blob/v3.4.2-solc-0.7/contracts/token/ERC20/ERC20.sol\":5722:5734   */\n      tag_296\n        /* \"https://github.com/OpenZeppelin/openzeppelin-contracts/blob/v3.4.2-solc-0.7/contracts/token/ERC20/ERC20.sol\":5722:5732   */\n      tag_277\n        /* \"https://github.com/OpenZeppelin/openzeppelin-contracts/blob/v3.4.2-solc-0.7/contracts/token/ERC20/ERC20.sol\":5722:5734   */\n      jump\t// in\n    tag_296:\n        /* \"https://github.com/OpenZeppelin/openzeppelin-contracts/blob/v3.4.2-solc-0.7/contracts/token/ERC20/ERC20.sol\":5710:5735   */\n      0xffffffffffffffffffffffffffffffffffffffff\n      and\n      0xffffffffffffffffffffffffffffffffffffffff\n      and\n      dup2\n      mstore\n      0x20\n      add\n      swap1\n      dup2\n      mstore\n      0x20\n      add\n      0x00\n      keccak256\n        /* \"https://github.com/OpenZeppelin/openzeppelin-contracts/blob/v3.4.2-solc-0.7/contracts/token/ERC20/ERC20.sol\":5710:5744   */\n      0x00\n        /* \"https://github.com/OpenZeppelin/openzeppelin-contracts/blob/v3.4.2-solc-0.7/contracts/token/ERC20/ERC20.sol\":5736:5743   */\n      dup10\n        /* \"https://github.com/OpenZeppelin/openzeppelin-contracts/blob/v3.4.2-solc-0.7/contracts/token/ERC20/ERC20.sol\":5710:5744   */\n      0xffffffffffffffffffffffffffffffffffffffff\n      and\n      0xffffffffffffffffffffffffffffffffffffffff\n      and\n      dup2\n      mstore\n      0x20\n      add\n      swap1\n      dup2\n      mstore\n      0x20\n      add\n      0x00\n      keccak256\n      sload\n        /* \"https://github.com/OpenZeppelin/openzeppelin-contracts/blob/v3.4.2-solc-0.7/contracts/token/ERC20/ERC20.sol\":5710:5748   */\n      tag_297\n      swap1\n        /* \"https://github.com/OpenZeppelin/openzeppelin-contracts/blob/v3.4.2-solc-0.7/contracts/token/ERC20/ERC20.sol\":5710:5760   */\n      swap2\n      swap1\n      0xffffffff\n      and\n      jump\t// in\n    tag_295:\n        /* \"https://github.com/OpenZeppelin/openzeppelin-contracts/blob/v3.4.2-solc-0.7/contracts/token/ERC20/ERC20.sol\":5678:5686   */\n      tag_278\n        /* \"https://github.com/OpenZeppelin/openzeppelin-contracts/blob/v3.4.2-solc-0.7/contracts/token/ERC20/ERC20.sol\":5678:5761   */\n      jump\t// in\n    tag_293:\n        /* \"https://github.com/OpenZeppelin/openzeppelin-contracts/blob/v3.4.2-solc-0.7/contracts/token/ERC20/ERC20.sol\":5778:5782   */\n      0x01\n        /* \"https://github.com/OpenZeppelin/openzeppelin-contracts/blob/v3.4.2-solc-0.7/contracts/token/ERC20/ERC20.sol\":5771:5782   */\n      swap1\n      pop\n        /* \"https://github.com/OpenZeppelin/openzeppelin-contracts/blob/v3.4.2-solc-0.7/contracts/token/ERC20/ERC20.sol\":5574:5789   */\n      swap3\n      swap2\n      pop\n      pop\n      jump\t// out\n        /* \"LiquidityToken.sol\":8881:9458  function setFundraisingConditions(address _fundraisingToken, uint _priceTokenPer1e18) public onlyOwner() {... */\n    tag_123:\n        /* \"https://github.com/OpenZeppelin/openzeppelin-contracts/blob/v3.4.2-solc-0.7/contracts/access/Ownable.sol\":1291:1303   */\n      tag_299\n        /* \"https://github.com/OpenZeppelin/openzeppelin-contracts/blob/v3.4.2-solc-0.7/contracts/access/Ownable.sol\":1291:1301   */\n      tag_277\n        /* \"https://github.com/OpenZeppelin/openzeppelin-contracts/blob/v3.4.2-solc-0.7/contracts/access/Ownable.sol\":1291:1303   */\n      jump\t// in\n    tag_299:\n        /* \"https://github.com/OpenZeppelin/openzeppelin-contracts/blob/v3.4.2-solc-0.7/contracts/access/Ownable.sol\":1280:1303   */\n      0xffffffffffffffffffffffffffffffffffffffff\n      and\n        /* \"https://github.com/OpenZeppelin/openzeppelin-contracts/blob/v3.4.2-solc-0.7/contracts/access/Ownable.sol\":1280:1287   */\n      tag_300\n        /* \"https://github.com/OpenZeppelin/openzeppelin-contracts/blob/v3.4.2-solc-0.7/contracts/access/Ownable.sol\":1280:1285   */\n      tag_189\n        /* \"https://github.com/OpenZeppelin/openzeppelin-contracts/blob/v3.4.2-solc-0.7/contracts/access/Ownable.sol\":1280:1287   */\n      jump\t// in\n    tag_300:\n        /* \"https://github.com/OpenZeppelin/openzeppelin-contracts/blob/v3.4.2-solc-0.7/contracts/access/Ownable.sol\":1280:1303   */\n      0xffffffffffffffffffffffffffffffffffffffff\n      and\n      eq\n        /* \"https://github.com/OpenZeppelin/openzeppelin-contracts/blob/v3.4.2-solc-0.7/contracts/access/Ownable.sol\":1272:1340   */\n      tag_301\n      jumpi\n      mload(0x40)\n      0x08c379a000000000000000000000000000000000000000000000000000000000\n      dup2\n      mstore\n      0x04\n      add\n      dup1\n      dup1\n      0x20\n      add\n      dup3\n      dup2\n      sub\n      dup3\n      mstore\n      0x20\n      dup2\n      mstore\n      0x20\n      add\n      dup1\n      0x4f776e61626c653a2063616c6c6572206973206e6f7420746865206f776e6572\n      dup2\n      mstore\n      pop\n      0x20\n      add\n      swap2\n      pop\n      pop\n      mload(0x40)\n      dup1\n      swap2\n      sub\n      swap1\n      revert\n    tag_301:\n        /* \"LiquidityToken.sol\":8993:9048  checkAllocationsNotTerminatedAndProjectNotYetLaunched() */\n      tag_303\n        /* \"LiquidityToken.sol\":8993:9046  checkAllocationsNotTerminatedAndProjectNotYetLaunched */\n      tag_304\n        /* \"LiquidityToken.sol\":8993:9048  checkAllocationsNotTerminatedAndProjectNotYetLaunched() */\n      jump\t// in\n    tag_303:\n        /* \"LiquidityToken.sol\":9099:9102  0x0 */\n      0x00\n        /* \"LiquidityToken.sol\":9070:9103  _fundraisingToken != address(0x0) */\n      0xffffffffffffffffffffffffffffffffffffffff\n      and\n        /* \"LiquidityToken.sol\":9070:9087  _fundraisingToken */\n      dup3\n        /* \"LiquidityToken.sol\":9070:9103  _fundraisingToken != address(0x0) */\n      0xffffffffffffffffffffffffffffffffffffffff\n      and\n      eq\n      iszero\n        /* \"LiquidityToken.sol\":9055:9129  require(... */\n      tag_305\n      jumpi\n      mload(0x40)\n      0x08c379a000000000000000000000000000000000000000000000000000000000\n      dup2\n      mstore\n      0x04\n      add\n      dup1\n      dup1\n      0x20\n      add\n      dup3\n      dup2\n      sub\n      dup3\n      mstore\n      0x0f\n      dup2\n      mstore\n      0x20\n      add\n      dup1\n      0x696e76616c696420616464726573730000000000000000000000000000000000\n      dup2\n      mstore\n      pop\n      0x20\n      add\n      swap2\n      pop\n      pop\n      mload(0x40)\n      dup1\n      swap2\n      sub\n      swap1\n      revert\n    tag_305:\n        /* \"LiquidityToken.sol\":9171:9172  0 */\n      0x00\n        /* \"LiquidityToken.sol\":9150:9168  _priceTokenPer1e18 */\n      dup2\n        /* \"LiquidityToken.sol\":9150:9172  _priceTokenPer1e18 > 0 */\n      gt\n        /* \"LiquidityToken.sol\":9135:9204  require(... */\n      tag_306\n      jumpi\n      mload(0x40)\n      0x08c379a000000000000000000000000000000000000000000000000000000000\n      dup2\n      mstore\n      0x04\n      add\n      dup1\n      dup1\n      0x20\n      add\n      dup3\n      dup2\n      sub\n      dup3\n      mstore\n      0x15\n      dup2\n      mstore\n      0x20\n      add\n      dup1\n      0x546f6b656e20707269636520746f206265203e20300000000000000000000000\n      dup2\n      mstore\n      pop\n      0x20\n      add\n      swap2\n      pop\n      pop\n      mload(0x40)\n      dup1\n      swap2\n      sub\n      swap1\n      revert\n    tag_306:\n        /* \"LiquidityToken.sol\":9230:9247  _fundraisingToken */\n      dup2\n        /* \"LiquidityToken.sol\":9211:9227  fundraisingToken */\n      0x16\n      0x00\n        /* \"LiquidityToken.sol\":9211:9247  fundraisingToken = _fundraisingToken */\n      0x0100\n      exp\n      dup2\n      sload\n      dup2\n      0xffffffffffffffffffffffffffffffffffffffff\n      mul\n      not\n      and\n      swap1\n      dup4\n      0xffffffffffffffffffffffffffffffffffffffff\n      and\n      mul\n      or\n      swap1\n      sstore\n      pop\n        /* \"LiquidityToken.sol\":9273:9291  _priceTokenPer1e18 */\n      dup1\n        /* \"LiquidityToken.sol\":9253:9270  priceTokenPer1e18 */\n      0x15\n        /* \"LiquidityToken.sol\":9253:9291  priceTokenPer1e18 = _priceTokenPer1e18 */\n      dup2\n      swap1\n      sstore\n      pop\n        /* \"LiquidityToken.sol\":9328:9345  _fundraisingToken */\n      dup2\n        /* \"LiquidityToken.sol\":9322:9353  ERC20(_fundraisingToken).symbol */\n      0xffffffffffffffffffffffffffffffffffffffff\n      and\n      0x95d89b41\n        /* \"LiquidityToken.sol\":9322:9355  ERC20(_fundraisingToken).symbol() */\n      mload(0x40)\n      dup2\n      0xffffffff\n      and\n      0xe0\n      shl\n      dup2\n      mstore\n      0x04\n      add\n      0x00\n      mload(0x40)\n      dup1\n      dup4\n      sub\n      dup2\n      dup7\n      dup1\n      extcodesize\n      iszero\n      dup1\n      iszero\n      tag_307\n      jumpi\n      0x00\n      dup1\n      revert\n    tag_307:\n      pop\n      gas\n      staticcall\n      iszero\n      dup1\n      iszero\n      tag_309\n      jumpi\n      returndatasize\n      0x00\n      dup1\n      returndatacopy\n      revert(0x00, returndatasize)\n    tag_309:\n      pop\n      pop\n      pop\n      pop\n      mload(0x40)\n      returndatasize\n      0x00\n      dup3\n      returndatacopy\n      returndatasize\n      not(0x1f)\n      0x1f\n      dup3\n      add\n      and\n      dup3\n      add\n      dup1\n      0x40\n      mstore\n      pop\n      0x20\n      dup2\n      lt\n      iszero\n      tag_310\n      jumpi\n      0x00\n      dup1\n      revert\n    tag_310:\n      dup2\n      add\n      swap1\n      dup1\n      dup1\n      mload\n      mload(0x40)\n      swap4\n      swap3\n      swap2\n      swap1\n      dup5\n      0x0100000000\n      dup3\n      gt\n      iszero\n      tag_311\n      jumpi\n      0x00\n      dup1\n      revert\n    tag_311:\n      dup4\n      dup3\n      add\n      swap2\n      pop\n      0x20\n      dup3\n      add\n      dup6\n      dup2\n      gt\n      iszero\n      tag_312\n      jumpi\n      0x00\n      dup1\n      revert\n    tag_312:\n      dup3\n      mload\n      dup7\n      0x01\n      dup3\n      mul\n      dup4\n      add\n      gt\n      0x0100000000\n      dup3\n      gt\n      or\n      iszero\n      tag_313\n      jumpi\n      0x00\n      dup1\n      revert\n    tag_313:\n      dup1\n      dup4\n      mstore\n      0x20\n      dup4\n      add\n      swap3\n      pop\n      pop\n      pop\n      swap1\n      dup1\n      mload\n      swap1\n      0x20\n      add\n      swap1\n      dup1\n      dup4\n      dup4\n      0x00\n    tag_314:\n      dup4\n      dup2\n      lt\n      iszero\n      tag_316\n      jumpi\n      dup1\n      dup3\n      add\n      mload\n      dup2\n      dup5\n      add\n      mstore\n      0x20\n      dup2\n      add\n      swap1\n      pop\n      jump(tag_314)\n    tag_316:\n      pop\n      pop\n      pop\n      pop\n      swap1\n      pop\n      swap1\n      dup2\n      add\n      swap1\n      0x1f\n      and\n      dup1\n      iszero\n      tag_317\n      jumpi\n      dup1\n      dup3\n      sub\n      dup1\n      mload\n      0x01\n      dup4\n      0x20\n      sub\n      0x0100\n      exp\n      sub\n      not\n      and\n      dup2\n      mstore\n      0x20\n      add\n      swap2\n      pop\n    tag_317:\n      pop\n      0x40\n      mstore\n      pop\n      pop\n      pop\n        /* \"LiquidityToken.sol\":9297:9319  fundraisingTokenSymbol */\n      0x14\n        /* \"LiquidityToken.sol\":9297:9355  fundraisingTokenSymbol = ERC20(_fundraisingToken).symbol() */\n      swap1\n      dup1\n      mload\n      swap1\n      0x20\n      add\n      swap1\n      tag_318\n      swap3\n      swap2\n      swap1\n      tag_319\n      jump\t// in\n    tag_318:\n      pop\n        /* \"LiquidityToken.sol\":9366:9453  FundraisingConditionsSet(_fundraisingToken, fundraisingTokenSymbol, _priceTokenPer1e18) */\n      0x0b689c1125fd81041726a3b1b880e05c418bf6dc13562d346ebed9317cbadd6f\n        /* \"LiquidityToken.sol\":9391:9408  _fundraisingToken */\n      dup3\n        /* \"LiquidityToken.sol\":9410:9432  fundraisingTokenSymbol */\n      0x14\n        /* \"LiquidityToken.sol\":9434:9452  _priceTokenPer1e18 */\n      dup4\n        /* \"LiquidityToken.sol\":9366:9453  FundraisingConditionsSet(_fundraisingToken, fundraisingTokenSymbol, _priceTokenPer1e18) */\n      mload(0x40)\n      dup1\n      dup5\n      0xffffffffffffffffffffffffffffffffffffffff\n      and\n      dup2\n      mstore\n      0x20\n      add\n      dup1\n      0x20\n      add\n      dup4\n      dup2\n      mstore\n      0x20\n      add\n      dup3\n      dup2\n      sub\n      dup3\n      mstore\n      dup5\n      dup2\n      dup2\n      sload\n      0x01\n      dup2\n      0x01\n      and\n      iszero\n      0x0100\n      mul\n      sub\n      and\n      0x02\n      swap1\n      div\n      dup2\n      mstore\n      0x20\n      add\n      swap2\n      pop\n      dup1\n      sload\n      0x01\n      dup2\n      0x01\n      and\n      iszero\n      0x0100\n      mul\n      sub\n      and\n      0x02\n      swap1\n      div\n      dup1\n      iszero\n      tag_320\n      jumpi\n      dup1\n      0x1f\n      lt\n      tag_321\n      jumpi\n      0x0100\n      dup1\n      dup4\n      sload\n      div\n      mul\n      dup4\n      mstore\n      swap2\n      0x20\n      add\n      swap2\n      jump(tag_320)\n    tag_321:\n      dup3\n      add\n      swap2\n      swap1\n      0x00\n      mstore\n      keccak256(0x00, 0x20)\n      swap1\n    tag_322:\n      dup2\n      sload\n      dup2\n      mstore\n      swap1\n      0x01\n      add\n      swap1\n      0x20\n      add\n      dup1\n      dup4\n      gt\n      tag_322\n      jumpi\n      dup3\n      swap1\n      sub\n      0x1f\n      and\n      dup3\n      add\n      swap2\n    tag_320:\n      pop\n      pop\n      swap5\n      pop\n      pop\n      pop\n      pop\n      pop\n      mload(0x40)\n      dup1\n      swap2\n      sub\n      swap1\n      log1\n        /* \"LiquidityToken.sol\":8881:9458  function setFundraisingConditions(address _fundraisingToken, uint _priceTokenPer1e18) public onlyOwner() {... */\n      pop\n      pop\n      jump\t// out\n        /* \"LiquidityToken.sol\":1919:1955  string public fundraisingTokenSymbol */\n    tag_125:\n      0x14\n      dup1\n      sload\n      0x01\n      dup2\n      0x01\n      and\n      iszero\n      0x0100\n      mul\n      sub\n      and\n      0x02\n      swap1\n      div\n      dup1\n      0x1f\n      add\n      0x20\n      dup1\n      swap2\n      div\n      mul\n      0x20\n      add\n      mload(0x40)\n      swap1\n      dup2\n      add\n      0x40\n      mstore\n      dup1\n      swap3\n      swap2\n      swap1\n      dup2\n      dup2\n      mstore\n      0x20\n      add\n      dup3\n      dup1\n      sload\n      0x01\n      dup2\n      0x01\n      and\n      iszero\n      0x0100\n      mul\n      sub\n      and\n      0x02\n      swap1\n      div\n      dup1\n      iszero\n      tag_323\n      jumpi\n      dup1\n      0x1f\n      lt\n      tag_324\n      jumpi\n      0x0100\n      dup1\n      dup4\n      sload\n      div\n      mul\n      dup4\n      mstore\n      swap2\n      0x20\n      add\n      swap2\n      jump(tag_323)\n    tag_324:\n      dup3\n      add\n      swap2\n      swap1\n      0x00\n      mstore\n      keccak256(0x00, 0x20)\n      swap1\n    tag_325:\n      dup2\n      sload\n      dup2\n      mstore\n      swap1\n      0x01\n      add\n      swap1\n      0x20\n      add\n      dup1\n      dup4\n      gt\n      tag_325\n      jumpi\n      dup3\n      swap1\n      sub\n      0x1f\n      and\n      dup3\n      add\n      swap2\n    tag_323:\n      pop\n      pop\n      pop\n      pop\n      pop\n      dup2\n      jump\t// out\n        /* \"LiquidityToken.sol\":9596:11375  function investByUser(uint _value) public {... */\n    tag_132:\n        /* \"LiquidityToken.sol\":9645:9680  ensureUserFunctionsAreNotDisabled() */\n      tag_327\n        /* \"LiquidityToken.sol\":9645:9678  ensureUserFunctionsAreNotDisabled */\n      tag_102\n        /* \"LiquidityToken.sol\":9645:9680  ensureUserFunctionsAreNotDisabled() */\n      jump\t// in\n    tag_327:\n        /* \"LiquidityToken.sol\":9697:9716  isFundraisingActive */\n      0x16\n      0x14\n      swap1\n      sload\n      swap1\n      0x0100\n      exp\n      swap1\n      div\n      0xff\n      and\n        /* \"LiquidityToken.sol\":9689:9743  require(isFundraisingActive, \"Fundraising not active\") */\n      tag_328\n      jumpi\n      mload(0x40)\n      0x08c379a000000000000000000000000000000000000000000000000000000000\n      dup2\n      mstore\n      0x04\n      add\n      dup1\n      dup1\n      0x20\n      add\n      dup3\n      dup2\n      sub\n      dup3\n      mstore\n      0x16\n      dup2\n      mstore\n      0x20\n      add\n      dup1\n      0x46756e6472616973696e67206e6f742061637469766500000000000000000000\n      dup2\n      mstore\n      pop\n      0x20\n      add\n      swap2\n      pop\n      pop\n      mload(0x40)\n      dup1\n      swap2\n      sub\n      swap1\n      revert\n    tag_328:\n        /* \"LiquidityToken.sol\":9752:9807  checkAllocationsNotTerminatedAndProjectNotYetLaunched() */\n      tag_329\n        /* \"LiquidityToken.sol\":9752:9805  checkAllocationsNotTerminatedAndProjectNotYetLaunched */\n      tag_304\n        /* \"LiquidityToken.sol\":9752:9807  checkAllocationsNotTerminatedAndProjectNotYetLaunched() */\n      jump\t// in\n    tag_329:\n        /* \"LiquidityToken.sol\":9814:9834  uint _allocatedToken */\n      0x00\n        /* \"LiquidityToken.sol\":9837:9956  _value.mul(10**decimals()).mul(10**18).div(... */\n      tag_330\n        /* \"LiquidityToken.sol\":9887:9948  priceTokenPer1e18.mul(10**ERC20(fundraisingToken).decimals()) */\n      tag_331\n        /* \"LiquidityToken.sol\":9919:9935  fundraisingToken */\n      0x16\n      0x00\n      swap1\n      sload\n      swap1\n      0x0100\n      exp\n      swap1\n      div\n      0xffffffffffffffffffffffffffffffffffffffff\n      and\n        /* \"LiquidityToken.sol\":9913:9945  ERC20(fundraisingToken).decimals */\n      0xffffffffffffffffffffffffffffffffffffffff\n      and\n      0x313ce567\n        /* \"LiquidityToken.sol\":9913:9947  ERC20(fundraisingToken).decimals() */\n      mload(0x40)\n      dup2\n      0xffffffff\n      and\n      0xe0\n      shl\n      dup2\n      mstore\n      0x04\n      add\n      0x20\n      mload(0x40)\n      dup1\n      dup4\n      sub\n      dup2\n      dup7\n      dup1\n      extcodesize\n      iszero\n      dup1\n      iszero\n      tag_332\n      jumpi\n      0x00\n      dup1\n      revert\n    tag_332:\n      pop\n      gas\n      staticcall\n      iszero\n      dup1\n      iszero\n      tag_334\n      jumpi\n      returndatasize\n      0x00\n      dup1\n      returndatacopy\n      revert(0x00, returndatasize)\n    tag_334:\n      pop\n      pop\n      pop\n      pop\n      mload(0x40)\n      returndatasize\n      0x20\n      dup2\n      lt\n      iszero\n      tag_335\n      jumpi\n      0x00\n      dup1\n      revert\n    tag_335:\n      dup2\n      add\n      swap1\n      dup1\n      dup1\n      mload\n      swap1\n      0x20\n      add\n      swap1\n      swap3\n      swap2\n      swap1\n      pop\n      pop\n      pop\n        /* \"LiquidityToken.sol\":9909:9947  10**ERC20(fundraisingToken).decimals() */\n      0xff\n      and\n        /* \"LiquidityToken.sol\":9909:9911  10 */\n      0x0a\n        /* \"LiquidityToken.sol\":9909:9947  10**ERC20(fundraisingToken).decimals() */\n      exp\n        /* \"LiquidityToken.sol\":9887:9904  priceTokenPer1e18 */\n      sload(0x15)\n        /* \"LiquidityToken.sol\":9887:9908  priceTokenPer1e18.mul */\n      tag_336\n      swap1\n        /* \"LiquidityToken.sol\":9887:9948  priceTokenPer1e18.mul(10**ERC20(fundraisingToken).decimals()) */\n      swap2\n      swap1\n      0xffffffff\n      and\n      jump\t// in\n    tag_331:\n        /* \"LiquidityToken.sol\":9837:9875  _value.mul(10**decimals()).mul(10**18) */\n      tag_337\n        /* \"LiquidityToken.sol\":9868:9874  10**18 */\n      0x0de0b6b3a7640000\n        /* \"LiquidityToken.sol\":9837:9863  _value.mul(10**decimals()) */\n      tag_338\n        /* \"LiquidityToken.sol\":9852:9862  decimals() */\n      tag_339\n        /* \"LiquidityToken.sol\":9852:9860  decimals */\n      tag_115\n        /* \"LiquidityToken.sol\":9852:9862  decimals() */\n      jump\t// in\n    tag_339:\n        /* \"LiquidityToken.sol\":9848:9862  10**decimals() */\n      0xff\n      and\n        /* \"LiquidityToken.sol\":9848:9850  10 */\n      0x0a\n        /* \"LiquidityToken.sol\":9848:9862  10**decimals() */\n      exp\n        /* \"LiquidityToken.sol\":9837:9843  _value */\n      dup8\n        /* \"LiquidityToken.sol\":9837:9847  _value.mul */\n      tag_336\n      swap1\n        /* \"LiquidityToken.sol\":9837:9863  _value.mul(10**decimals()) */\n      swap2\n      swap1\n      0xffffffff\n      and\n      jump\t// in\n    tag_338:\n        /* \"LiquidityToken.sol\":9837:9867  _value.mul(10**decimals()).mul */\n      tag_336\n      swap1\n        /* \"LiquidityToken.sol\":9837:9875  _value.mul(10**decimals()).mul(10**18) */\n      swap2\n      swap1\n      0xffffffff\n      and\n      jump\t// in\n    tag_337:\n        /* \"LiquidityToken.sol\":9837:9879  _value.mul(10**decimals()).mul(10**18).div */\n      tag_340\n      swap1\n        /* \"LiquidityToken.sol\":9837:9956  _value.mul(10**decimals()).mul(10**18).div(... */\n      swap2\n      swap1\n      0xffffffff\n      and\n      jump\t// in\n    tag_330:\n        /* \"LiquidityToken.sol\":9814:9956  uint _allocatedToken = _value.mul(10**decimals()).mul(10**18).div(... */\n      swap1\n      pop\n        /* \"LiquidityToken.sol\":9962:9975  address _user */\n      0x00\n        /* \"LiquidityToken.sol\":9978:9988  msg.sender */\n      caller\n        /* \"LiquidityToken.sol\":9962:9988  address _user = msg.sender */\n      swap1\n      pop\n        /* \"LiquidityToken.sol\":9994:10011  uint _hodlRewards */\n      0x00\n        /* \"LiquidityToken.sol\":10014:10051  updateStakingAndGetHodlRewards(_user) */\n      tag_341\n        /* \"LiquidityToken.sol\":10045:10050  _user */\n      dup3\n        /* \"LiquidityToken.sol\":10014:10044  updateStakingAndGetHodlRewards */\n      tag_342\n        /* \"LiquidityToken.sol\":10014:10051  updateStakingAndGetHodlRewards(_user) */\n      jump\t// in\n    tag_341:\n        /* \"LiquidityToken.sol\":9994:10051  uint _hodlRewards = updateStakingAndGetHodlRewards(_user) */\n      swap1\n      pop\n        /* \"LiquidityToken.sol\":10057:10091  uint _fullyChargedBalanceIncreased */\n      0x00\n        /* \"LiquidityToken.sol\":10094:10127  _allocatedToken.add(_hodlRewards) */\n      tag_343\n        /* \"LiquidityToken.sol\":10114:10126  _hodlRewards */\n      dup3\n        /* \"LiquidityToken.sol\":10094:10109  _allocatedToken */\n      dup6\n        /* \"LiquidityToken.sol\":10094:10113  _allocatedToken.add */\n      tag_297\n      swap1\n        /* \"LiquidityToken.sol\":10094:10127  _allocatedToken.add(_hodlRewards) */\n      swap2\n      swap1\n      0xffffffff\n      and\n      jump\t// in\n    tag_343:\n        /* \"LiquidityToken.sol\":10057:10127  uint _fullyChargedBalanceIncreased = _allocatedToken.add(_hodlRewards) */\n      swap1\n      pop\n        /* \"LiquidityToken.sol\":10195:10271  userLiquiToken[_user].fullyChargedBalance.add(_fullyChargedBalanceIncreased) */\n      tag_344\n        /* \"LiquidityToken.sol\":10241:10270  _fullyChargedBalanceIncreased */\n      dup2\n        /* \"LiquidityToken.sol\":10195:10209  userLiquiToken */\n      0x13\n        /* \"LiquidityToken.sol\":10195:10216  userLiquiToken[_user] */\n      0x00\n        /* \"LiquidityToken.sol\":10210:10215  _user */\n      dup7\n        /* \"LiquidityToken.sol\":10195:10216  userLiquiToken[_user] */\n      0xffffffffffffffffffffffffffffffffffffffff\n      and\n      0xffffffffffffffffffffffffffffffffffffffff\n      and\n      dup2\n      mstore\n      0x20\n      add\n      swap1\n      dup2\n      mstore\n      0x20\n      add\n      0x00\n      keccak256\n        /* \"LiquidityToken.sol\":10195:10236  userLiquiToken[_user].fullyChargedBalance */\n      0x00\n      add\n      sload\n        /* \"LiquidityToken.sol\":10195:10240  userLiquiToken[_user].fullyChargedBalance.add */\n      tag_297\n      swap1\n        /* \"LiquidityToken.sol\":10195:10271  userLiquiToken[_user].fullyChargedBalance.add(_fullyChargedBalanceIncreased) */\n      swap2\n      swap1\n      0xffffffff\n      and\n      jump\t// in\n    tag_344:\n        /* \"LiquidityToken.sol\":10144:10158  userLiquiToken */\n      0x13\n        /* \"LiquidityToken.sol\":10144:10165  userLiquiToken[_user] */\n      0x00\n        /* \"LiquidityToken.sol\":10159:10164  _user */\n      dup6\n        /* \"LiquidityToken.sol\":10144:10165  userLiquiToken[_user] */\n      0xffffffffffffffffffffffffffffffffffffffff\n      and\n      0xffffffffffffffffffffffffffffffffffffffff\n      and\n      dup2\n      mstore\n      0x20\n      add\n      swap1\n      dup2\n      mstore\n      0x20\n      add\n      0x00\n      keccak256\n        /* \"LiquidityToken.sol\":10144:10185  userLiquiToken[_user].fullyChargedBalance */\n      0x00\n      add\n        /* \"LiquidityToken.sol\":10144:10271  userLiquiToken[_user].fullyChargedBalance = ... */\n      dup2\n      swap1\n      sstore\n      pop\n        /* \"LiquidityToken.sol\":10282:10348  IncreasedFullyChargedBalance(_user, _fullyChargedBalanceIncreased) */\n      0xae2006c94e89f8083efda0c0a1d0c7d6fef3ec90d68506aa822854f3ba31f9cf\n        /* \"LiquidityToken.sol\":10311:10316  _user */\n      dup4\n        /* \"LiquidityToken.sol\":10318:10347  _fullyChargedBalanceIncreased */\n      dup3\n        /* \"LiquidityToken.sol\":10282:10348  IncreasedFullyChargedBalance(_user, _fullyChargedBalanceIncreased) */\n      mload(0x40)\n      dup1\n      dup4\n      0xffffffffffffffffffffffffffffffffffffffff\n      and\n      dup2\n      mstore\n      0x20\n      add\n      dup3\n      dup2\n      mstore\n      0x20\n      add\n      swap3\n      pop\n      pop\n      pop\n      mload(0x40)\n      dup1\n      swap2\n      sub\n      swap1\n      log1\n        /* \"LiquidityToken.sol\":10365:10408  stakedLT.add(_fullyChargedBalanceIncreased) */\n      tag_345\n        /* \"LiquidityToken.sol\":10378:10407  _fullyChargedBalanceIncreased */\n      dup2\n        /* \"LiquidityToken.sol\":10365:10373  stakedLT */\n      sload(0x0e)\n        /* \"LiquidityToken.sol\":10365:10377  stakedLT.add */\n      tag_297\n      swap1\n        /* \"LiquidityToken.sol\":10365:10408  stakedLT.add(_fullyChargedBalanceIncreased) */\n      swap2\n      swap1\n      0xffffffff\n      and\n      jump\t// in\n    tag_345:\n        /* \"LiquidityToken.sol\":10354:10362  stakedLT */\n      0x0e\n        /* \"LiquidityToken.sol\":10354:10408  stakedLT = stakedLT.add(_fullyChargedBalanceIncreased) */\n      dup2\n      swap1\n      sstore\n      pop\n        /* \"LiquidityToken.sol\":10419:10467  IncreasedStakedLT(_fullyChargedBalanceIncreased) */\n      0x12129930c15dad4632242378dc39162db4c36a82482777c2e8f791d3752bb70f\n        /* \"LiquidityToken.sol\":10437:10466  _fullyChargedBalanceIncreased */\n      dup2\n        /* \"LiquidityToken.sol\":10419:10467  IncreasedStakedLT(_fullyChargedBalanceIncreased) */\n      mload(0x40)\n      dup1\n      dup3\n      dup2\n      mstore\n      0x20\n      add\n      swap2\n      pop\n      pop\n      mload(0x40)\n      dup1\n      swap2\n      sub\n      swap1\n      log1\n        /* \"LiquidityToken.sol\":10500:10540  totalTokenAllocated.add(_allocatedToken) */\n      tag_346\n        /* \"LiquidityToken.sol\":10524:10539  _allocatedToken */\n      dup5\n        /* \"LiquidityToken.sol\":10500:10519  totalTokenAllocated */\n      sload(0x0f)\n        /* \"LiquidityToken.sol\":10500:10523  totalTokenAllocated.add */\n      tag_297\n      swap1\n        /* \"LiquidityToken.sol\":10500:10540  totalTokenAllocated.add(_allocatedToken) */\n      swap2\n      swap1\n      0xffffffff\n      and\n      jump\t// in\n    tag_346:\n        /* \"LiquidityToken.sol\":10478:10497  totalTokenAllocated */\n      0x0f\n        /* \"LiquidityToken.sol\":10478:10540  totalTokenAllocated = totalTokenAllocated.add(_allocatedToken) */\n      dup2\n      swap1\n      sstore\n      pop\n        /* \"LiquidityToken.sol\":10551:10596  IncreasedTotalTokenAllocated(_allocatedToken) */\n      0x83460f65bdb244889b764a63576252cf32e10e1a058af241da584c1f1610e6db\n        /* \"LiquidityToken.sol\":10580:10595  _allocatedToken */\n      dup5\n        /* \"LiquidityToken.sol\":10551:10596  IncreasedTotalTokenAllocated(_allocatedToken) */\n      mload(0x40)\n      dup1\n      dup3\n      dup2\n      mstore\n      0x20\n      add\n      swap2\n      pop\n      pop\n      mload(0x40)\n      dup1\n      swap2\n      sub\n      swap1\n      log1\n        /* \"LiquidityToken.sol\":10666:10691  maxInitialTokenAllocation */\n      immutable(\"0x27f63464b9731b972604804953e204cb89525ac66e46cd091b2739ad01222f8b\")\n        /* \"LiquidityToken.sol\":10618:10662  totalTokenAllocated.sub(totalStakingRewards) */\n      tag_347\n        /* \"LiquidityToken.sol\":10642:10661  totalStakingRewards */\n      sload(0x0b)\n        /* \"LiquidityToken.sol\":10618:10637  totalTokenAllocated */\n      sload(0x0f)\n        /* \"LiquidityToken.sol\":10618:10641  totalTokenAllocated.sub */\n      tag_348\n      swap1\n        /* \"LiquidityToken.sol\":10618:10662  totalTokenAllocated.sub(totalStakingRewards) */\n      swap2\n      swap1\n      0xffffffff\n      and\n      jump\t// in\n    tag_347:\n        /* \"LiquidityToken.sol\":10618:10691  totalTokenAllocated.sub(totalStakingRewards) <= maxInitialTokenAllocation */\n      gt\n      iszero\n        /* \"LiquidityToken.sol\":10603:10739  require(... */\n      tag_349\n      jumpi\n      mload(0x40)\n      0x08c379a000000000000000000000000000000000000000000000000000000000\n      dup2\n      mstore\n      0x04\n      add\n      dup1\n      dup1\n      0x20\n      add\n      dup3\n      dup2\n      sub\n      dup3\n      mstore\n      0x25\n      dup2\n      mstore\n      0x20\n      add\n      dup1\n      data_788dd7c53ace52a6d5b5c16fd2cd76115cf89976350c977fe4034697fc61cf2d\n      0x25\n      swap2\n      codecopy\n      0x40\n      add\n      swap2\n      pop\n      pop\n      mload(0x40)\n      dup1\n      swap2\n      sub\n      swap1\n      revert\n    tag_349:\n        /* \"LiquidityToken.sol\":10746:10783  _mint(address(this), _allocatedToken) */\n      tag_350\n        /* \"LiquidityToken.sol\":10760:10764  this */\n      address\n        /* \"LiquidityToken.sol\":10767:10782  _allocatedToken */\n      dup6\n        /* \"LiquidityToken.sol\":10746:10751  _mint */\n      tag_351\n        /* \"LiquidityToken.sol\":10746:10783  _mint(address(this), _allocatedToken) */\n      jump\t// in\n    tag_350:\n        /* \"LiquidityToken.sol\":10860:10880  uint _fundraisingFee */\n      0x00\n        /* \"LiquidityToken.sol\":10883:10938  _value.mul(fundraisingFeePerThousand).div(multiplier1K) */\n      tag_352\n        /* \"LiquidityToken.sol\":614:618  1000 */\n      0x03e8\n        /* \"LiquidityToken.sol\":10883:10920  _value.mul(fundraisingFeePerThousand) */\n      tag_353\n        /* \"LiquidityToken.sol\":1817:1819  10 */\n      0x0a\n        /* \"LiquidityToken.sol\":10883:10889  _value */\n      dup10\n        /* \"LiquidityToken.sol\":10883:10893  _value.mul */\n      tag_336\n      swap1\n        /* \"LiquidityToken.sol\":10883:10920  _value.mul(fundraisingFeePerThousand) */\n      swap2\n      swap1\n      0xffffffff\n      and\n      jump\t// in\n    tag_353:\n        /* \"LiquidityToken.sol\":10883:10924  _value.mul(fundraisingFeePerThousand).div */\n      tag_340\n      swap1\n        /* \"LiquidityToken.sol\":10883:10938  _value.mul(fundraisingFeePerThousand).div(multiplier1K) */\n      swap2\n      swap1\n      0xffffffff\n      and\n      jump\t// in\n    tag_352:\n        /* \"LiquidityToken.sol\":10860:10938  uint _fundraisingFee = _value.mul(fundraisingFeePerThousand).div(multiplier1K) */\n      swap1\n      pop\n        /* \"LiquidityToken.sol\":10951:10967  fundraisingToken */\n      0x16\n      0x00\n      swap1\n      sload\n      swap1\n      0x0100\n      exp\n      swap1\n      div\n      0xffffffffffffffffffffffffffffffffffffffff\n      and\n        /* \"LiquidityToken.sol\":10945:10981  ERC20(fundraisingToken).transferFrom */\n      0xffffffffffffffffffffffffffffffffffffffff\n      and\n      0x23b872dd\n        /* \"LiquidityToken.sol\":10991:10996  _user */\n      dup6\n        /* \"LiquidityToken.sol\":10998:11002  this */\n      address\n        /* \"LiquidityToken.sol\":10998:11008  this.owner */\n      0xffffffffffffffffffffffffffffffffffffffff\n      and\n      0x8da5cb5b\n        /* \"LiquidityToken.sol\":10998:11010  this.owner() */\n      mload(0x40)\n      dup2\n      0xffffffff\n      and\n      0xe0\n      shl\n      dup2\n      mstore\n      0x04\n      add\n      0x20\n      mload(0x40)\n      dup1\n      dup4\n      sub\n      dup2\n      dup7\n      dup1\n      extcodesize\n      iszero\n      dup1\n      iszero\n      tag_354\n      jumpi\n      0x00\n      dup1\n      revert\n    tag_354:\n      pop\n      gas\n      staticcall\n      iszero\n      dup1\n      iszero\n      tag_356\n      jumpi\n      returndatasize\n      0x00\n      dup1\n      returndatacopy\n      revert(0x00, returndatasize)\n    tag_356:\n      pop\n      pop\n      pop\n      pop\n      mload(0x40)\n      returndatasize\n      0x20\n      dup2\n      lt\n      iszero\n      tag_357\n      jumpi\n      0x00\n      dup1\n      revert\n    tag_357:\n      dup2\n      add\n      swap1\n      dup1\n      dup1\n      mload\n      swap1\n      0x20\n      add\n      swap1\n      swap3\n      swap2\n      swap1\n      pop\n      pop\n      pop\n        /* \"LiquidityToken.sol\":11012:11039  _value.sub(_fundraisingFee) */\n      tag_358\n        /* \"LiquidityToken.sol\":11023:11038  _fundraisingFee */\n      dup6\n        /* \"LiquidityToken.sol\":11012:11018  _value */\n      dup12\n        /* \"LiquidityToken.sol\":11012:11022  _value.sub */\n      tag_348\n      swap1\n        /* \"LiquidityToken.sol\":11012:11039  _value.sub(_fundraisingFee) */\n      swap2\n      swap1\n      0xffffffff\n      and\n      jump\t// in\n    tag_358:\n        /* \"LiquidityToken.sol\":10945:11049  ERC20(fundraisingToken).transferFrom(... */\n      mload(0x40)\n      dup5\n      0xffffffff\n      and\n      0xe0\n      shl\n      dup2\n      mstore\n      0x04\n      add\n      dup1\n      dup5\n      0xffffffffffffffffffffffffffffffffffffffff\n      and\n      dup2\n      mstore\n      0x20\n      add\n      dup4\n      0xffffffffffffffffffffffffffffffffffffffff\n      and\n      dup2\n      mstore\n      0x20\n      add\n      dup3\n      dup2\n      mstore\n      0x20\n      add\n      swap4\n      pop\n      pop\n      pop\n      pop\n      0x20\n      mload(0x40)\n      dup1\n      dup4\n      sub\n      dup2\n      0x00\n      dup8\n      dup1\n      extcodesize\n      iszero\n      dup1\n      iszero\n      tag_359\n      jumpi\n      0x00\n      dup1\n      revert\n    tag_359:\n      pop\n      gas\n      call\n      iszero\n      dup1\n      iszero\n      tag_361\n      jumpi\n      returndatasize\n      0x00\n      dup1\n      returndatacopy\n      revert(0x00, returndatasize)\n    tag_361:\n      pop\n      pop\n      pop\n      pop\n      mload(0x40)\n      returndatasize\n      0x20\n      dup2\n      lt\n      iszero\n      tag_362\n      jumpi\n      0x00\n      dup1\n      revert\n    tag_362:\n      dup2\n      add\n      swap1\n      dup1\n      dup1\n      mload\n      swap1\n      0x20\n      add\n      swap1\n      swap3\n      swap2\n      swap1\n      pop\n      pop\n      pop\n      pop\n        /* \"LiquidityToken.sol\":11125:11141  fundraisingToken */\n      0x16\n      0x00\n      swap1\n      sload\n      swap1\n      0x0100\n      exp\n      swap1\n      div\n      0xffffffffffffffffffffffffffffffffffffffff\n      and\n        /* \"LiquidityToken.sol\":11119:11155  ERC20(fundraisingToken).transferFrom */\n      0xffffffffffffffffffffffffffffffffffffffff\n      and\n      0x23b872dd\n        /* \"LiquidityToken.sol\":11165:11170  _user */\n      dup6\n        /* \"LiquidityToken.sol\":1873:1915  0x125f80bb66D00E87129dB92ef6473D34D5448360 */\n      0x125f80bb66d00e87129db92ef6473d34d5448360\n        /* \"LiquidityToken.sol\":11196:11211  _fundraisingFee */\n      dup5\n        /* \"LiquidityToken.sol\":11119:11221  ERC20(fundraisingToken).transferFrom(... */\n      mload(0x40)\n      dup5\n      0xffffffff\n      and\n      0xe0\n      shl\n      dup2\n      mstore\n      0x04\n      add\n      dup1\n      dup5\n      0xffffffffffffffffffffffffffffffffffffffff\n      and\n      dup2\n      mstore\n      0x20\n      add\n      dup4\n      0xffffffffffffffffffffffffffffffffffffffff\n      and\n      dup2\n      mstore\n      0x20\n      add\n      dup3\n      dup2\n      mstore\n      0x20\n      add\n      swap4\n      pop\n      pop\n      pop\n      pop\n      0x20\n      mload(0x40)\n      dup1\n      dup4\n      sub\n      dup2\n      0x00\n      dup8\n      dup1\n      extcodesize\n      iszero\n      dup1\n      iszero\n      tag_363\n      jumpi\n      0x00\n      dup1\n      revert\n    tag_363:\n      pop\n      gas\n      call\n      iszero\n      dup1\n      iszero\n      tag_365\n      jumpi\n      returndatasize\n      0x00\n      dup1\n      returndatacopy\n      revert(0x00, returndatasize)\n    tag_365:\n      pop\n      pop\n      pop\n      pop\n      mload(0x40)\n      returndatasize\n      0x20\n      dup2\n      lt\n      iszero\n      tag_366\n      jumpi\n      0x00\n      dup1\n      revert\n    tag_366:\n      dup2\n      add\n      swap1\n      dup1\n      dup1\n      mload\n      swap1\n      0x20\n      add\n      swap1\n      swap3\n      swap2\n      swap1\n      pop\n      pop\n      pop\n      pop\n        /* \"LiquidityToken.sol\":11299:11370  LTAllocatedThroughSale(_user, _allocatedToken, _value, _fundraisingFee) */\n      0xda0b1409db59c0fa65c11db0aa894038350bd1ef7dd9949e74f8cd305f1ad9b0\n        /* \"LiquidityToken.sol\":11322:11327  _user */\n      dup5\n        /* \"LiquidityToken.sol\":11329:11344  _allocatedToken */\n      dup7\n        /* \"LiquidityToken.sol\":11346:11352  _value */\n      dup9\n        /* \"LiquidityToken.sol\":11354:11369  _fundraisingFee */\n      dup5\n        /* \"LiquidityToken.sol\":11299:11370  LTAllocatedThroughSale(_user, _allocatedToken, _value, _fundraisingFee) */\n      mload(0x40)\n      dup1\n      dup6\n      0xffffffffffffffffffffffffffffffffffffffff\n      and\n      dup2\n      mstore\n      0x20\n      add\n      dup5\n      dup2\n      mstore\n      0x20\n      add\n      dup4\n      dup2\n      mstore\n      0x20\n      add\n      dup3\n      dup2\n      mstore\n      0x20\n      add\n      swap5\n      pop\n      pop\n      pop\n      pop\n      pop\n      mload(0x40)\n      dup1\n      swap2\n      sub\n      swap1\n      log1\n        /* \"LiquidityToken.sol\":9596:11375  function investByUser(uint _value) public {... */\n      pop\n      pop\n      pop\n      pop\n      pop\n      pop\n      jump\t// out\n        /* \"LiquidityToken.sol\":523:573  InterfaceProjectToken public interfaceProjectToken */\n    tag_134:\n      0x06\n      0x00\n      swap1\n      sload\n      swap1\n      0x0100\n      exp\n      swap1\n      div\n      0xffffffffffffffffffffffffffffffffffffffff\n      and\n      dup2\n      jump\t// out\n        /* \"LiquidityToken.sol\":1187:1222  uint public immutable durationCliff */\n    tag_136:\n      immutable(\"0x86890c29ff370c4b30973bbbaafda9b69a1419ebf78e3ecd48a68f972a0037ef\")\n      dup2\n      jump\t// out\n        /* \"LiquidityToken.sol\":11798:12902  function withdrawLT(uint _value) public {... */\n    tag_139:\n        /* \"LiquidityToken.sol\":11849:11884  ensureUserFunctionsAreNotDisabled() */\n      tag_368\n        /* \"LiquidityToken.sol\":11849:11882  ensureUserFunctionsAreNotDisabled */\n      tag_102\n        /* \"LiquidityToken.sol\":11849:11884  ensureUserFunctionsAreNotDisabled() */\n      jump\t// in\n    tag_368:\n        /* \"LiquidityToken.sol\":11920:11934  userLiquiToken */\n      0x13\n        /* \"LiquidityToken.sol\":11920:11946  userLiquiToken[msg.sender] */\n      0x00\n        /* \"LiquidityToken.sol\":11935:11945  msg.sender */\n      caller\n        /* \"LiquidityToken.sol\":11920:11946  userLiquiToken[msg.sender] */\n      0xffffffffffffffffffffffffffffffffffffffff\n      and\n      0xffffffffffffffffffffffffffffffffffffffff\n      and\n      dup2\n      mstore\n      0x20\n      add\n      swap1\n      dup2\n      mstore\n      0x20\n      add\n      0x00\n      keccak256\n        /* \"LiquidityToken.sol\":11920:11966  userLiquiToken[msg.sender].fullyChargedBalance */\n      0x00\n      add\n      sload\n        /* \"LiquidityToken.sol\":11910:11916  _value */\n      dup2\n        /* \"LiquidityToken.sol\":11910:11966  _value <= userLiquiToken[msg.sender].fullyChargedBalance */\n      gt\n      iszero\n        /* \"LiquidityToken.sol\":11895:11997  require(... */\n      tag_369\n      jumpi\n      mload(0x40)\n      0x08c379a000000000000000000000000000000000000000000000000000000000\n      dup2\n      mstore\n      0x04\n      add\n      dup1\n      dup1\n      0x20\n      add\n      dup3\n      dup2\n      sub\n      dup3\n      mstore\n      0x14\n      dup2\n      mstore\n      0x20\n      add\n      dup1\n      0x496e73756666696369656e742062616c616e6365000000000000000000000000\n      dup2\n      mstore\n      pop\n      0x20\n      add\n      swap2\n      pop\n      pop\n      mload(0x40)\n      dup1\n      swap2\n      sub\n      swap1\n      revert\n    tag_369:\n        /* \"LiquidityToken.sol\":12004:12021  uint _hodlRewards */\n      0x00\n        /* \"LiquidityToken.sol\":12024:12066  updateStakingAndGetHodlRewards(msg.sender) */\n      tag_370\n        /* \"LiquidityToken.sol\":12055:12065  msg.sender */\n      caller\n        /* \"LiquidityToken.sol\":12024:12054  updateStakingAndGetHodlRewards */\n      tag_342\n        /* \"LiquidityToken.sol\":12024:12066  updateStakingAndGetHodlRewards(msg.sender) */\n      jump\t// in\n    tag_370:\n        /* \"LiquidityToken.sol\":12004:12066  uint _hodlRewards = updateStakingAndGetHodlRewards(msg.sender) */\n      swap1\n      pop\n        /* \"LiquidityToken.sol\":12072:12082  uint _fees */\n      0x00\n        /* \"LiquidityToken.sol\":12138:12196  userLiquiToken[msg.sender].fullyChargedBalance.sub(_value) */\n      tag_371\n        /* \"LiquidityToken.sol\":12189:12195  _value */\n      dup4\n        /* \"LiquidityToken.sol\":12138:12152  userLiquiToken */\n      0x13\n        /* \"LiquidityToken.sol\":12138:12164  userLiquiToken[msg.sender] */\n      0x00\n        /* \"LiquidityToken.sol\":12153:12163  msg.sender */\n      caller\n        /* \"LiquidityToken.sol\":12138:12164  userLiquiToken[msg.sender] */\n      0xffffffffffffffffffffffffffffffffffffffff\n      and\n      0xffffffffffffffffffffffffffffffffffffffff\n      and\n      dup2\n      mstore\n      0x20\n      add\n      swap1\n      dup2\n      mstore\n      0x20\n      add\n      0x00\n      keccak256\n        /* \"LiquidityToken.sol\":12138:12184  userLiquiToken[msg.sender].fullyChargedBalance */\n      0x00\n      add\n      sload\n        /* \"LiquidityToken.sol\":12138:12188  userLiquiToken[msg.sender].fullyChargedBalance.sub */\n      tag_348\n      swap1\n        /* \"LiquidityToken.sol\":12138:12196  userLiquiToken[msg.sender].fullyChargedBalance.sub(_value) */\n      swap2\n      swap1\n      0xffffffff\n      and\n      jump\t// in\n    tag_371:\n        /* \"LiquidityToken.sol\":12089:12103  userLiquiToken */\n      0x13\n        /* \"LiquidityToken.sol\":12089:12115  userLiquiToken[msg.sender] */\n      0x00\n        /* \"LiquidityToken.sol\":12104:12114  msg.sender */\n      caller\n        /* \"LiquidityToken.sol\":12089:12115  userLiquiToken[msg.sender] */\n      0xffffffffffffffffffffffffffffffffffffffff\n      and\n      0xffffffffffffffffffffffffffffffffffffffff\n      and\n      dup2\n      mstore\n      0x20\n      add\n      swap1\n      dup2\n      mstore\n      0x20\n      add\n      0x00\n      keccak256\n        /* \"LiquidityToken.sol\":12089:12135  userLiquiToken[msg.sender].fullyChargedBalance */\n      0x00\n      add\n        /* \"LiquidityToken.sol\":12089:12196  userLiquiToken[msg.sender].fullyChargedBalance = userLiquiToken[msg.sender].fullyChargedBalance.sub(_value) */\n      dup2\n      swap1\n      sstore\n      pop\n        /* \"LiquidityToken.sol\":12213:12233  stakedLT.sub(_value) */\n      tag_372\n        /* \"LiquidityToken.sol\":12226:12232  _value */\n      dup4\n        /* \"LiquidityToken.sol\":12213:12221  stakedLT */\n      sload(0x0e)\n        /* \"LiquidityToken.sol\":12213:12225  stakedLT.sub */\n      tag_348\n      swap1\n        /* \"LiquidityToken.sol\":12213:12233  stakedLT.sub(_value) */\n      swap2\n      swap1\n      0xffffffff\n      and\n      jump\t// in\n    tag_372:\n        /* \"LiquidityToken.sol\":12202:12210  stakedLT */\n      0x0e\n        /* \"LiquidityToken.sol\":12202:12233  stakedLT = stakedLT.sub(_value) */\n      dup2\n      swap1\n      sstore\n      pop\n        /* \"LiquidityToken.sol\":12244:12303  DecreasedFullyChargedBalanceAndStakedLT(msg.sender, _value) */\n      0x27b57dd0f4617eb13b9347dc92a2c7404c6bcdb2349863c760672bda494807\n        /* \"LiquidityToken.sol\":12284:12294  msg.sender */\n      caller\n        /* \"LiquidityToken.sol\":12296:12302  _value */\n      dup5\n        /* \"LiquidityToken.sol\":12244:12303  DecreasedFullyChargedBalanceAndStakedLT(msg.sender, _value) */\n      mload(0x40)\n      dup1\n      dup4\n      0xffffffffffffffffffffffffffffffffffffffff\n      and\n      dup2\n      mstore\n      0x20\n      add\n      dup3\n      dup2\n      mstore\n      0x20\n      add\n      swap3\n      pop\n      pop\n      pop\n      mload(0x40)\n      dup1\n      swap2\n      sub\n      swap1\n      log1\n        /* \"LiquidityToken.sol\":12329:12330  0 */\n      0x00\n        /* \"LiquidityToken.sol\":12318:12326  stakedLT */\n      sload(0x0e)\n        /* \"LiquidityToken.sol\":12318:12330  stakedLT > 0 */\n      gt\n        /* \"LiquidityToken.sol\":12314:12398  if (stakedLT > 0) _fees = _value.mul(withdrawFeesPerThousandForLT).div(multiplier1K) */\n      iszero\n      tag_373\n      jumpi\n        /* \"LiquidityToken.sol\":12340:12398  _value.mul(withdrawFeesPerThousandForLT).div(multiplier1K) */\n      tag_374\n        /* \"LiquidityToken.sol\":614:618  1000 */\n      0x03e8\n        /* \"LiquidityToken.sol\":12340:12380  _value.mul(withdrawFeesPerThousandForLT) */\n      tag_375\n        /* \"LiquidityToken.sol\":12351:12379  withdrawFeesPerThousandForLT */\n      sload(0x10)\n        /* \"LiquidityToken.sol\":12340:12346  _value */\n      dup7\n        /* \"LiquidityToken.sol\":12340:12350  _value.mul */\n      tag_336\n      swap1\n        /* \"LiquidityToken.sol\":12340:12380  _value.mul(withdrawFeesPerThousandForLT) */\n      swap2\n      swap1\n      0xffffffff\n      and\n      jump\t// in\n    tag_375:\n        /* \"LiquidityToken.sol\":12340:12384  _value.mul(withdrawFeesPerThousandForLT).div */\n      tag_340\n      swap1\n        /* \"LiquidityToken.sol\":12340:12398  _value.mul(withdrawFeesPerThousandForLT).div(multiplier1K) */\n      swap2\n      swap1\n      0xffffffff\n      and\n      jump\t// in\n    tag_374:\n        /* \"LiquidityToken.sol\":12332:12398  _fees = _value.mul(withdrawFeesPerThousandForLT).div(multiplier1K) */\n      swap1\n      pop\n        /* \"LiquidityToken.sol\":12314:12398  if (stakedLT > 0) _fees = _value.mul(withdrawFeesPerThousandForLT).div(multiplier1K) */\n    tag_373:\n        /* \"LiquidityToken.sol\":12405:12421  uint _valueToGet */\n      0x00\n        /* \"LiquidityToken.sol\":12424:12459  _value.add(_hodlRewards).sub(_fees) */\n      tag_376\n        /* \"LiquidityToken.sol\":12453:12458  _fees */\n      dup3\n        /* \"LiquidityToken.sol\":12424:12448  _value.add(_hodlRewards) */\n      tag_377\n        /* \"LiquidityToken.sol\":12435:12447  _hodlRewards */\n      dup6\n        /* \"LiquidityToken.sol\":12424:12430  _value */\n      dup8\n        /* \"LiquidityToken.sol\":12424:12434  _value.add */\n      tag_297\n      swap1\n        /* \"LiquidityToken.sol\":12424:12448  _value.add(_hodlRewards) */\n      swap2\n      swap1\n      0xffffffff\n      and\n      jump\t// in\n    tag_377:\n        /* \"LiquidityToken.sol\":12424:12452  _value.add(_hodlRewards).sub */\n      tag_348\n      swap1\n        /* \"LiquidityToken.sol\":12424:12459  _value.add(_hodlRewards).sub(_fees) */\n      swap2\n      swap1\n      0xffffffff\n      and\n      jump\t// in\n    tag_376:\n        /* \"LiquidityToken.sol\":12405:12459  uint _valueToGet = _value.add(_hodlRewards).sub(_fees) */\n      swap1\n      pop\n        /* \"LiquidityToken.sol\":12465:12514  _transfer(address(this), msg.sender, _valueToGet) */\n      tag_378\n        /* \"LiquidityToken.sol\":12483:12487  this */\n      address\n        /* \"LiquidityToken.sol\":12490:12500  msg.sender */\n      caller\n        /* \"LiquidityToken.sol\":12502:12513  _valueToGet */\n      dup4\n        /* \"LiquidityToken.sol\":12465:12474  _transfer */\n      tag_284\n        /* \"LiquidityToken.sol\":12465:12514  _transfer(address(this), msg.sender, _valueToGet) */\n      jump\t// in\n    tag_378:\n        /* \"LiquidityToken.sol\":12525:12550  uint _feesToRewardHodlers */\n      0x00\n        /* \"LiquidityToken.sol\":12553:12617  _fees.mul(ratioFeesToRewardHodlersPerThousand).div(multiplier1K) */\n      tag_379\n        /* \"LiquidityToken.sol\":614:618  1000 */\n      0x03e8\n        /* \"LiquidityToken.sol\":12553:12599  _fees.mul(ratioFeesToRewardHodlersPerThousand) */\n      tag_380\n        /* \"LiquidityToken.sol\":12563:12598  ratioFeesToRewardHodlersPerThousand */\n      sload(0x0c)\n        /* \"LiquidityToken.sol\":12553:12558  _fees */\n      dup7\n        /* \"LiquidityToken.sol\":12553:12562  _fees.mul */\n      tag_336\n      swap1\n        /* \"LiquidityToken.sol\":12553:12599  _fees.mul(ratioFeesToRewardHodlersPerThousand) */\n      swap2\n      swap1\n      0xffffffff\n      and\n      jump\t// in\n    tag_380:\n        /* \"LiquidityToken.sol\":12553:12603  _fees.mul(ratioFeesToRewardHodlersPerThousand).div */\n      tag_340\n      swap1\n        /* \"LiquidityToken.sol\":12553:12617  _fees.mul(ratioFeesToRewardHodlersPerThousand).div(multiplier1K) */\n      swap2\n      swap1\n      0xffffffff\n      and\n      jump\t// in\n    tag_379:\n        /* \"LiquidityToken.sol\":12525:12617  uint _feesToRewardHodlers = _fees.mul(ratioFeesToRewardHodlersPerThousand).div(multiplier1K) */\n      swap1\n      pop\n        /* \"LiquidityToken.sol\":12629:12714  _transfer(... */\n      tag_381\n        /* \"LiquidityToken.sol\":12654:12658  this */\n      address\n        /* \"LiquidityToken.sol\":12661:12665  this */\n      address\n        /* \"LiquidityToken.sol\":12661:12671  this.owner */\n      0xffffffffffffffffffffffffffffffffffffffff\n      and\n      0x8da5cb5b\n        /* \"LiquidityToken.sol\":12661:12673  this.owner() */\n      mload(0x40)\n      dup2\n      0xffffffff\n      and\n      0xe0\n      shl\n      dup2\n      mstore\n      0x04\n      add\n      0x20\n      mload(0x40)\n      dup1\n      dup4\n      sub\n      dup2\n      dup7\n      dup1\n      extcodesize\n      iszero\n      dup1\n      iszero\n      tag_382\n      jumpi\n      0x00\n      dup1\n      revert\n    tag_382:\n      pop\n      gas\n      staticcall\n      iszero\n      dup1\n      iszero\n      tag_384\n      jumpi\n      returndatasize\n      0x00\n      dup1\n      returndatacopy\n      revert(0x00, returndatasize)\n    tag_384:\n      pop\n      pop\n      pop\n      pop\n      mload(0x40)\n      returndatasize\n      0x20\n      dup2\n      lt\n      iszero\n      tag_385\n      jumpi\n      0x00\n      dup1\n      revert\n    tag_385:\n      dup2\n      add\n      swap1\n      dup1\n      dup1\n      mload\n      swap1\n      0x20\n      add\n      swap1\n      swap3\n      swap2\n      swap1\n      pop\n      pop\n      pop\n        /* \"LiquidityToken.sol\":12675:12706  _fees.sub(_feesToRewardHodlers) */\n      tag_386\n        /* \"LiquidityToken.sol\":12685:12705  _feesToRewardHodlers */\n      dup5\n        /* \"LiquidityToken.sol\":12675:12680  _fees */\n      dup8\n        /* \"LiquidityToken.sol\":12675:12684  _fees.sub */\n      tag_348\n      swap1\n        /* \"LiquidityToken.sol\":12675:12706  _fees.sub(_feesToRewardHodlers) */\n      swap2\n      swap1\n      0xffffffff\n      and\n      jump\t// in\n    tag_386:\n        /* \"LiquidityToken.sol\":12629:12638  _transfer */\n      tag_284\n        /* \"LiquidityToken.sol\":12629:12714  _transfer(... */\n      jump\t// in\n    tag_381:\n        /* \"LiquidityToken.sol\":12749:12750  0 */\n      0x00\n        /* \"LiquidityToken.sol\":12726:12746  _feesToRewardHodlers */\n      dup2\n        /* \"LiquidityToken.sol\":12726:12750  _feesToRewardHodlers > 0 */\n      gt\n        /* \"LiquidityToken.sol\":12722:12803  if (_feesToRewardHodlers > 0) updateRewardsAfterFeesPayment(_feesToRewardHodlers) */\n      iszero\n      tag_387\n      jumpi\n        /* \"LiquidityToken.sol\":12752:12803  updateRewardsAfterFeesPayment(_feesToRewardHodlers) */\n      tag_388\n        /* \"LiquidityToken.sol\":12782:12802  _feesToRewardHodlers */\n      dup2\n        /* \"LiquidityToken.sol\":12752:12781  updateRewardsAfterFeesPayment */\n      tag_389\n        /* \"LiquidityToken.sol\":12752:12803  updateRewardsAfterFeesPayment(_feesToRewardHodlers) */\n      jump\t// in\n    tag_388:\n        /* \"LiquidityToken.sol\":12722:12803  if (_feesToRewardHodlers > 0) updateRewardsAfterFeesPayment(_feesToRewardHodlers) */\n    tag_387:\n        /* \"LiquidityToken.sol\":12819:12897  LTReceived(msg.sender, _valueToGet, _fees, _feesToRewardHodlers, _hodlRewards) */\n      0x33ef926b7771df44fd5bf5a690410374540aa634051af1e3a6dd2f67c94a18f1\n        /* \"LiquidityToken.sol\":12830:12840  msg.sender */\n      caller\n        /* \"LiquidityToken.sol\":12842:12853  _valueToGet */\n      dup4\n        /* \"LiquidityToken.sol\":12855:12860  _fees */\n      dup6\n        /* \"LiquidityToken.sol\":12862:12882  _feesToRewardHodlers */\n      dup5\n        /* \"LiquidityToken.sol\":12884:12896  _hodlRewards */\n      dup9\n        /* \"LiquidityToken.sol\":12819:12897  LTReceived(msg.sender, _valueToGet, _fees, _feesToRewardHodlers, _hodlRewards) */\n      mload(0x40)\n      dup1\n      dup7\n      0xffffffffffffffffffffffffffffffffffffffff\n      and\n      dup2\n      mstore\n      0x20\n      add\n      dup6\n      dup2\n      mstore\n      0x20\n      add\n      dup5\n      dup2\n      mstore\n      0x20\n      add\n      dup4\n      dup2\n      mstore\n      0x20\n      add\n      dup3\n      dup2\n      mstore\n      0x20\n      add\n      swap6\n      pop\n      pop\n      pop\n      pop\n      pop\n      pop\n      mload(0x40)\n      dup1\n      swap2\n      sub\n      swap1\n      log1\n        /* \"LiquidityToken.sol\":11798:12902  function withdrawLT(uint _value) public {... */\n      pop\n      pop\n      pop\n      pop\n      pop\n      jump\t// out\n        /* \"LiquidityToken.sol\":1992:2023  address public fundraisingToken */\n    tag_141:\n      0x16\n      0x00\n      swap1\n      sload\n      swap1\n      0x0100\n      exp\n      swap1\n      div\n      0xffffffffffffffffffffffffffffffffffffffff\n      and\n      dup2\n      jump\t// out\n        /* \"LiquidityToken.sol\":5978:6123  function lockInterfaceProjectToken() public onlyOwner() {... */\n    tag_143:\n        /* \"https://github.com/OpenZeppelin/openzeppelin-contracts/blob/v3.4.2-solc-0.7/contracts/access/Ownable.sol\":1291:1303   */\n      tag_391\n        /* \"https://github.com/OpenZeppelin/openzeppelin-contracts/blob/v3.4.2-solc-0.7/contracts/access/Ownable.sol\":1291:1301   */\n      tag_277\n        /* \"https://github.com/OpenZeppelin/openzeppelin-contracts/blob/v3.4.2-solc-0.7/contracts/access/Ownable.sol\":1291:1303   */\n      jump\t// in\n    tag_391:\n        /* \"https://github.com/OpenZeppelin/openzeppelin-contracts/blob/v3.4.2-solc-0.7/contracts/access/Ownable.sol\":1280:1303   */\n      0xffffffffffffffffffffffffffffffffffffffff\n      and\n        /* \"https://github.com/OpenZeppelin/openzeppelin-contracts/blob/v3.4.2-solc-0.7/contracts/access/Ownable.sol\":1280:1287   */\n      tag_392\n        /* \"https://github.com/OpenZeppelin/openzeppelin-contracts/blob/v3.4.2-solc-0.7/contracts/access/Ownable.sol\":1280:1285   */\n      tag_189\n        /* \"https://github.com/OpenZeppelin/openzeppelin-contracts/blob/v3.4.2-solc-0.7/contracts/access/Ownable.sol\":1280:1287   */\n      jump\t// in\n    tag_392:\n        /* \"https://github.com/OpenZeppelin/openzeppelin-contracts/blob/v3.4.2-solc-0.7/contracts/access/Ownable.sol\":1280:1303   */\n      0xffffffffffffffffffffffffffffffffffffffff\n      and\n      eq\n        /* \"https://github.com/OpenZeppelin/openzeppelin-contracts/blob/v3.4.2-solc-0.7/contracts/access/Ownable.sol\":1272:1340   */\n      tag_393\n      jumpi\n      mload(0x40)\n      0x08c379a000000000000000000000000000000000000000000000000000000000\n      dup2\n      mstore\n      0x04\n      add\n      dup1\n      dup1\n      0x20\n      add\n      dup3\n      dup2\n      sub\n      dup3\n      mstore\n      0x20\n      dup2\n      mstore\n      0x20\n      add\n      dup1\n      0x4f776e61626c653a2063616c6c6572206973206e6f7420746865206f776e6572\n      dup2\n      mstore\n      pop\n      0x20\n      add\n      swap2\n      pop\n      pop\n      mload(0x40)\n      dup1\n      swap2\n      sub\n      swap1\n      revert\n    tag_393:\n        /* \"LiquidityToken.sol\":6072:6076  true */\n      0x01\n        /* \"LiquidityToken.sol\":6040:6069  isInterfaceProjectTokenLocked */\n      0x11\n      0x01\n        /* \"LiquidityToken.sol\":6040:6076  isInterfaceProjectTokenLocked = true */\n      0x0100\n      exp\n      dup2\n      sload\n      dup2\n      0xff\n      mul\n      not\n      and\n      swap1\n      dup4\n      iszero\n      iszero\n      mul\n      or\n      swap1\n      sstore\n      pop\n        /* \"LiquidityToken.sol\":6087:6118  InterfaceProjectTokenIsLocked() */\n      0xb72c13e7fe7b7c2ac9e1b8ca3f0f5cb08bd8ca2b1c556fbf9b45c95a15a53543\n      mload(0x40)\n      mload(0x40)\n      dup1\n      swap2\n      sub\n      swap1\n      log1\n        /* \"LiquidityToken.sol\":5978:6123  function lockInterfaceProjectToken() public onlyOwner() {... */\n      jump\t// out\n        /* \"LiquidityToken.sol\":1003:1039  bool public areUserFunctionsDisabled */\n    tag_145:\n      0x11\n      0x00\n      swap1\n      sload\n      swap1\n      0x0100\n      exp\n      swap1\n      div\n      0xff\n      and\n      dup2\n      jump\t// out\n        /* \"LiquidityToken.sol\":922:953  uint public totalTokenAllocated */\n    tag_147:\n      sload(0x0f)\n      dup2\n      jump\t// out\n        /* \"LiquidityToken.sol\":685:722  uint public stakingDateLastCheckpoint */\n    tag_149:\n      sload(0x09)\n      dup2\n      jump\t// out\n        /* \"LiquidityToken.sol\":20292:20419  function burnByInterfaceProjectToken(uint _value) public onlyInterfaceProjectToken() {... */\n    tag_152:\n        /* \"LiquidityToken.sol\":18244:18277  ensureOnlyInterfaceProjectToken() */\n      tag_396\n        /* \"LiquidityToken.sol\":18244:18275  ensureOnlyInterfaceProjectToken */\n      tag_397\n        /* \"LiquidityToken.sol\":18244:18277  ensureOnlyInterfaceProjectToken() */\n      jump\t// in\n    tag_396:\n        /* \"LiquidityToken.sol\":20383:20411  _burn(address(this), _value) */\n      tag_399\n        /* \"LiquidityToken.sol\":20397:20401  this */\n      address\n        /* \"LiquidityToken.sol\":20404:20410  _value */\n      dup3\n        /* \"LiquidityToken.sol\":20383:20388  _burn */\n      tag_400\n        /* \"LiquidityToken.sol\":20383:20411  _burn(address(this), _value) */\n      jump\t// in\n    tag_399:\n        /* \"LiquidityToken.sol\":20292:20419  function burnByInterfaceProjectToken(uint _value) public onlyInterfaceProjectToken() {... */\n      pop\n      jump\t// out\n        /* \"https://github.com/OpenZeppelin/openzeppelin-contracts/blob/v3.4.2-solc-0.7/contracts/token/ERC20/ERC20.sol\":3384:3509   */\n    tag_155:\n        /* \"https://github.com/OpenZeppelin/openzeppelin-contracts/blob/v3.4.2-solc-0.7/contracts/token/ERC20/ERC20.sol\":3458:3465   */\n      0x00\n        /* \"https://github.com/OpenZeppelin/openzeppelin-contracts/blob/v3.4.2-solc-0.7/contracts/token/ERC20/ERC20.sol\":3484:3493   */\n      dup1\n        /* \"https://github.com/OpenZeppelin/openzeppelin-contracts/blob/v3.4.2-solc-0.7/contracts/token/ERC20/ERC20.sol\":3484:3502   */\n      0x00\n        /* \"https://github.com/OpenZeppelin/openzeppelin-contracts/blob/v3.4.2-solc-0.7/contracts/token/ERC20/ERC20.sol\":3494:3501   */\n      dup4\n        /* \"https://github.com/OpenZeppelin/openzeppelin-contracts/blob/v3.4.2-solc-0.7/contracts/token/ERC20/ERC20.sol\":3484:3502   */\n      0xffffffffffffffffffffffffffffffffffffffff\n      and\n      0xffffffffffffffffffffffffffffffffffffffff\n      and\n      dup2\n      mstore\n      0x20\n      add\n      swap1\n      dup2\n      mstore\n      0x20\n      add\n      0x00\n      keccak256\n      sload\n        /* \"https://github.com/OpenZeppelin/openzeppelin-contracts/blob/v3.4.2-solc-0.7/contracts/token/ERC20/ERC20.sol\":3477:3502   */\n      swap1\n      pop\n        /* \"https://github.com/OpenZeppelin/openzeppelin-contracts/blob/v3.4.2-solc-0.7/contracts/token/ERC20/ERC20.sol\":3384:3509   */\n      swap2\n      swap1\n      pop\n      jump\t// out\n        /* \"https://github.com/OpenZeppelin/openzeppelin-contracts/blob/v3.4.2-solc-0.7/contracts/access/Ownable.sol\":1700:1845   */\n    tag_157:\n        /* \"https://github.com/OpenZeppelin/openzeppelin-contracts/blob/v3.4.2-solc-0.7/contracts/access/Ownable.sol\":1291:1303   */\n      tag_403\n        /* \"https://github.com/OpenZeppelin/openzeppelin-contracts/blob/v3.4.2-solc-0.7/contracts/access/Ownable.sol\":1291:1301   */\n      tag_277\n        /* \"https://github.com/OpenZeppelin/openzeppelin-contracts/blob/v3.4.2-solc-0.7/contracts/access/Ownable.sol\":1291:1303   */\n      jump\t// in\n    tag_403:\n        /* \"https://github.com/OpenZeppelin/openzeppelin-contracts/blob/v3.4.2-solc-0.7/contracts/access/Ownable.sol\":1280:1303   */\n      0xffffffffffffffffffffffffffffffffffffffff\n      and\n        /* \"https://github.com/OpenZeppelin/openzeppelin-contracts/blob/v3.4.2-solc-0.7/contracts/access/Ownable.sol\":1280:1287   */\n      tag_404\n        /* \"https://github.com/OpenZeppelin/openzeppelin-contracts/blob/v3.4.2-solc-0.7/contracts/access/Ownable.sol\":1280:1285   */\n      tag_189\n        /* \"https://github.com/OpenZeppelin/openzeppelin-contracts/blob/v3.4.2-solc-0.7/contracts/access/Ownable.sol\":1280:1287   */\n      jump\t// in\n    tag_404:\n        /* \"https://github.com/OpenZeppelin/openzeppelin-contracts/blob/v3.4.2-solc-0.7/contracts/access/Ownable.sol\":1280:1303   */\n      0xffffffffffffffffffffffffffffffffffffffff\n      and\n      eq\n        /* \"https://github.com/OpenZeppelin/openzeppelin-contracts/blob/v3.4.2-solc-0.7/contracts/access/Ownable.sol\":1272:1340   */\n      tag_405\n      jumpi\n      mload(0x40)\n      0x08c379a000000000000000000000000000000000000000000000000000000000\n      dup2\n      mstore\n      0x04\n      add\n      dup1\n      dup1\n      0x20\n      add\n      dup3\n      dup2\n      sub\n      dup3\n      mstore\n      0x20\n      dup2\n      mstore\n      0x20\n      add\n      dup1\n      0x4f776e61626c653a2063616c6c6572206973206e6f7420746865206f776e6572\n      dup2\n      mstore\n      pop\n      0x20\n      add\n      swap2\n      pop\n      pop\n      mload(0x40)\n      dup1\n      swap2\n      sub\n      swap1\n      revert\n    tag_405:\n        /* \"https://github.com/OpenZeppelin/openzeppelin-contracts/blob/v3.4.2-solc-0.7/contracts/access/Ownable.sol\":1806:1807   */\n      0x00\n        /* \"https://github.com/OpenZeppelin/openzeppelin-contracts/blob/v3.4.2-solc-0.7/contracts/access/Ownable.sol\":1769:1809   */\n      0xffffffffffffffffffffffffffffffffffffffff\n      and\n        /* \"https://github.com/OpenZeppelin/openzeppelin-contracts/blob/v3.4.2-solc-0.7/contracts/access/Ownable.sol\":1790:1796   */\n      0x05\n      0x01\n      swap1\n      sload\n      swap1\n      0x0100\n      exp\n      swap1\n      div\n      0xffffffffffffffffffffffffffffffffffffffff\n      and\n        /* \"https://github.com/OpenZeppelin/openzeppelin-contracts/blob/v3.4.2-solc-0.7/contracts/access/Ownable.sol\":1769:1809   */\n      0xffffffffffffffffffffffffffffffffffffffff\n      and\n      0x8be0079c531659141344cd1fd0a4f28419497f9722a3daafe3b4186f6b6457e0\n      mload(0x40)\n      mload(0x40)\n      dup1\n      swap2\n      sub\n      swap1\n      log3\n        /* \"https://github.com/OpenZeppelin/openzeppelin-contracts/blob/v3.4.2-solc-0.7/contracts/access/Ownable.sol\":1836:1837   */\n      0x00\n        /* \"https://github.com/OpenZeppelin/openzeppelin-contracts/blob/v3.4.2-solc-0.7/contracts/access/Ownable.sol\":1819:1825   */\n      0x05\n      0x01\n        /* \"https://github.com/OpenZeppelin/openzeppelin-contracts/blob/v3.4.2-solc-0.7/contracts/access/Ownable.sol\":1819:1838   */\n      0x0100\n      exp\n      dup2\n      sload\n      dup2\n      0xffffffffffffffffffffffffffffffffffffffff\n      mul\n      not\n      and\n      swap1\n      dup4\n      0xffffffffffffffffffffffffffffffffffffffff\n      and\n      mul\n      or\n      swap1\n      sstore\n      pop\n        /* \"https://github.com/OpenZeppelin/openzeppelin-contracts/blob/v3.4.2-solc-0.7/contracts/access/Ownable.sol\":1700:1845   */\n      jump\t// out\n        /* \"LiquidityToken.sol\":17841:18116  function updateRatioFeesToRewardHodlers(uint _valuePerThousand) public onlyOwner() {... */\n    tag_160:\n        /* \"https://github.com/OpenZeppelin/openzeppelin-contracts/blob/v3.4.2-solc-0.7/contracts/access/Ownable.sol\":1291:1303   */\n      tag_408\n        /* \"https://github.com/OpenZeppelin/openzeppelin-contracts/blob/v3.4.2-solc-0.7/contracts/access/Ownable.sol\":1291:1301   */\n      tag_277\n        /* \"https://github.com/OpenZeppelin/openzeppelin-contracts/blob/v3.4.2-solc-0.7/contracts/access/Ownable.sol\":1291:1303   */\n      jump\t// in\n    tag_408:\n        /* \"https://github.com/OpenZeppelin/openzeppelin-contracts/blob/v3.4.2-solc-0.7/contracts/access/Ownable.sol\":1280:1303   */\n      0xffffffffffffffffffffffffffffffffffffffff\n      and\n        /* \"https://github.com/OpenZeppelin/openzeppelin-contracts/blob/v3.4.2-solc-0.7/contracts/access/Ownable.sol\":1280:1287   */\n      tag_409\n        /* \"https://github.com/OpenZeppelin/openzeppelin-contracts/blob/v3.4.2-solc-0.7/contracts/access/Ownable.sol\":1280:1285   */\n      tag_189\n        /* \"https://github.com/OpenZeppelin/openzeppelin-contracts/blob/v3.4.2-solc-0.7/contracts/access/Ownable.sol\":1280:1287   */\n      jump\t// in\n    tag_409:\n        /* \"https://github.com/OpenZeppelin/openzeppelin-contracts/blob/v3.4.2-solc-0.7/contracts/access/Ownable.sol\":1280:1303   */\n      0xffffffffffffffffffffffffffffffffffffffff\n      and\n      eq\n        /* \"https://github.com/OpenZeppelin/openzeppelin-contracts/blob/v3.4.2-solc-0.7/contracts/access/Ownable.sol\":1272:1340   */\n      tag_410\n      jumpi\n      mload(0x40)\n      0x08c379a000000000000000000000000000000000000000000000000000000000\n      dup2\n      mstore\n      0x04\n      add\n      dup1\n      dup1\n      0x20\n      add\n      dup3\n      dup2\n      sub\n      dup3\n      mstore\n      0x20\n      dup2\n      mstore\n      0x20\n      add\n      dup1\n      0x4f776e61626c653a2063616c6c6572206973206e6f7420746865206f776e6572\n      dup2\n      mstore\n      pop\n      0x20\n      add\n      swap2\n      pop\n      pop\n      mload(0x40)\n      dup1\n      swap2\n      sub\n      swap1\n      revert\n    tag_410:\n        /* \"LiquidityToken.sol\":614:618  1000 */\n      0x03e8\n        /* \"LiquidityToken.sol\":17938:17955  _valuePerThousand */\n      dup2\n        /* \"LiquidityToken.sol\":17938:17971  _valuePerThousand <= multiplier1K */\n      gt\n      iszero\n        /* \"LiquidityToken.sol\":17930:17989  require(_valuePerThousand <= multiplier1K, \"Invalid value\") */\n      tag_412\n      jumpi\n      mload(0x40)\n      0x08c379a000000000000000000000000000000000000000000000000000000000\n      dup2\n      mstore\n      0x04\n      add\n      dup1\n      dup1\n      0x20\n      add\n      dup3\n      dup2\n      sub\n      dup3\n      mstore\n      0x0d\n      dup2\n      mstore\n      0x20\n      add\n      dup1\n      0x496e76616c69642076616c756500000000000000000000000000000000000000\n      dup2\n      mstore\n      pop\n      0x20\n      add\n      swap2\n      pop\n      pop\n      mload(0x40)\n      dup1\n      swap2\n      sub\n      swap1\n      revert\n    tag_412:\n        /* \"LiquidityToken.sol\":18033:18050  _valuePerThousand */\n      dup1\n        /* \"LiquidityToken.sol\":17995:18030  ratioFeesToRewardHodlersPerThousand */\n      0x0c\n        /* \"LiquidityToken.sol\":17995:18050  ratioFeesToRewardHodlersPerThousand = _valuePerThousand */\n      dup2\n      swap1\n      sstore\n      pop\n        /* \"LiquidityToken.sol\":18061:18111  RatioFeesToRewardHodlersUpdated(_valuePerThousand) */\n      0x33ba6df77b2071829f387d2122b96309cbbd439fa4b0532cfd8d5e6f7cd4dcbb\n        /* \"LiquidityToken.sol\":18093:18110  _valuePerThousand */\n      dup2\n        /* \"LiquidityToken.sol\":18061:18111  RatioFeesToRewardHodlersUpdated(_valuePerThousand) */\n      mload(0x40)\n      dup1\n      dup3\n      dup2\n      mstore\n      0x20\n      add\n      swap2\n      pop\n      pop\n      mload(0x40)\n      dup1\n      swap2\n      sub\n      swap1\n      log1\n        /* \"LiquidityToken.sol\":17841:18116  function updateRatioFeesToRewardHodlers(uint _valuePerThousand) public onlyOwner() {... */\n      pop\n      jump\t// out\n        /* \"LiquidityToken.sol\":18659:19411  function rechargeUserTokens(address _user, uint _valueFullyChargedToIncrease, uint _valuePartiallyChargedToDecrease, ... */\n    tag_163:\n        /* \"LiquidityToken.sol\":18244:18277  ensureOnlyInterfaceProjectToken() */\n      tag_414\n        /* \"LiquidityToken.sol\":18244:18275  ensureOnlyInterfaceProjectToken */\n      tag_397\n        /* \"LiquidityToken.sol\":18244:18277  ensureOnlyInterfaceProjectToken() */\n      jump\t// in\n    tag_414:\n        /* \"LiquidityToken.sol\":18909:18984  userLiquiToken[_user].fullyChargedBalance.add(_valueFullyChargedToIncrease) */\n      tag_416\n        /* \"LiquidityToken.sol\":18955:18983  _valueFullyChargedToIncrease */\n      dup4\n        /* \"LiquidityToken.sol\":18909:18923  userLiquiToken */\n      0x13\n        /* \"LiquidityToken.sol\":18909:18930  userLiquiToken[_user] */\n      0x00\n        /* \"LiquidityToken.sol\":18924:18929  _user */\n      dup8\n        /* \"LiquidityToken.sol\":18909:18930  userLiquiToken[_user] */\n      0xffffffffffffffffffffffffffffffffffffffff\n      and\n      0xffffffffffffffffffffffffffffffffffffffff\n      and\n      dup2\n      mstore\n      0x20\n      add\n      swap1\n      dup2\n      mstore\n      0x20\n      add\n      0x00\n      keccak256\n        /* \"LiquidityToken.sol\":18909:18950  userLiquiToken[_user].fullyChargedBalance */\n      0x00\n      add\n      sload\n        /* \"LiquidityToken.sol\":18909:18954  userLiquiToken[_user].fullyChargedBalance.add */\n      tag_297\n      swap1\n        /* \"LiquidityToken.sol\":18909:18984  userLiquiToken[_user].fullyChargedBalance.add(_valueFullyChargedToIncrease) */\n      swap2\n      swap1\n      0xffffffff\n      and\n      jump\t// in\n    tag_416:\n        /* \"LiquidityToken.sol\":18859:18873  userLiquiToken */\n      0x13\n        /* \"LiquidityToken.sol\":18859:18880  userLiquiToken[_user] */\n      0x00\n        /* \"LiquidityToken.sol\":18874:18879  _user */\n      dup7\n        /* \"LiquidityToken.sol\":18859:18880  userLiquiToken[_user] */\n      0xffffffffffffffffffffffffffffffffffffffff\n      and\n      0xffffffffffffffffffffffffffffffffffffffff\n      and\n      dup2\n      mstore\n      0x20\n      add\n      swap1\n      dup2\n      mstore\n      0x20\n      add\n      0x00\n      keccak256\n        /* \"LiquidityToken.sol\":18859:18900  userLiquiToken[_user].fullyChargedBalance */\n      0x00\n      add\n        /* \"LiquidityToken.sol\":18859:18984  userLiquiToken[_user].fullyChargedBalance =... */\n      dup2\n      swap1\n      sstore\n      pop\n        /* \"LiquidityToken.sol\":18995:19060  IncreasedFullyChargedBalance(_user, _valueFullyChargedToIncrease) */\n      0xae2006c94e89f8083efda0c0a1d0c7d6fef3ec90d68506aa822854f3ba31f9cf\n        /* \"LiquidityToken.sol\":19024:19029  _user */\n      dup5\n        /* \"LiquidityToken.sol\":19031:19059  _valueFullyChargedToIncrease */\n      dup5\n        /* \"LiquidityToken.sol\":18995:19060  IncreasedFullyChargedBalance(_user, _valueFullyChargedToIncrease) */\n      mload(0x40)\n      dup1\n      dup4\n      0xffffffffffffffffffffffffffffffffffffffff\n      and\n      dup2\n      mstore\n      0x20\n      add\n      dup3\n      dup2\n      mstore\n      0x20\n      add\n      swap3\n      pop\n      pop\n      pop\n      mload(0x40)\n      dup1\n      swap2\n      sub\n      swap1\n      log1\n        /* \"LiquidityToken.sol\":19120:19203  userLiquiToken[_user].partiallyChargedBalance.sub(_valuePartiallyChargedToDecrease) */\n      tag_417\n        /* \"LiquidityToken.sol\":19170:19202  _valuePartiallyChargedToDecrease */\n      dup3\n        /* \"LiquidityToken.sol\":19120:19134  userLiquiToken */\n      0x13\n        /* \"LiquidityToken.sol\":19120:19141  userLiquiToken[_user] */\n      0x00\n        /* \"LiquidityToken.sol\":19135:19140  _user */\n      dup8\n        /* \"LiquidityToken.sol\":19120:19141  userLiquiToken[_user] */\n      0xffffffffffffffffffffffffffffffffffffffff\n      and\n      0xffffffffffffffffffffffffffffffffffffffff\n      and\n      dup2\n      mstore\n      0x20\n      add\n      swap1\n      dup2\n      mstore\n      0x20\n      add\n      0x00\n      keccak256\n        /* \"LiquidityToken.sol\":19120:19165  userLiquiToken[_user].partiallyChargedBalance */\n      0x01\n      add\n      sload\n        /* \"LiquidityToken.sol\":19120:19169  userLiquiToken[_user].partiallyChargedBalance.sub */\n      tag_348\n      swap1\n        /* \"LiquidityToken.sol\":19120:19203  userLiquiToken[_user].partiallyChargedBalance.sub(_valuePartiallyChargedToDecrease) */\n      swap2\n      swap1\n      0xffffffff\n      and\n      jump\t// in\n    tag_417:\n        /* \"LiquidityToken.sol\":19066:19080  userLiquiToken */\n      0x13\n        /* \"LiquidityToken.sol\":19066:19087  userLiquiToken[_user] */\n      0x00\n        /* \"LiquidityToken.sol\":19081:19086  _user */\n      dup7\n        /* \"LiquidityToken.sol\":19066:19087  userLiquiToken[_user] */\n      0xffffffffffffffffffffffffffffffffffffffff\n      and\n      0xffffffffffffffffffffffffffffffffffffffff\n      and\n      dup2\n      mstore\n      0x20\n      add\n      swap1\n      dup2\n      mstore\n      0x20\n      add\n      0x00\n      keccak256\n        /* \"LiquidityToken.sol\":19066:19111  userLiquiToken[_user].partiallyChargedBalance */\n      0x01\n      add\n        /* \"LiquidityToken.sol\":19066:19203  userLiquiToken[_user].partiallyChargedBalance =... */\n      dup2\n      swap1\n      sstore\n      pop\n        /* \"LiquidityToken.sol\":19214:19287  DecreasedPartiallyChargedBalance(_user, _valuePartiallyChargedToDecrease) */\n      0x7d2875641484b55002ee757b3ad03d920e7ace29b381cff35a357041b20d612e\n        /* \"LiquidityToken.sol\":19247:19252  _user */\n      dup5\n        /* \"LiquidityToken.sol\":19254:19286  _valuePartiallyChargedToDecrease */\n      dup4\n        /* \"LiquidityToken.sol\":19214:19287  DecreasedPartiallyChargedBalance(_user, _valuePartiallyChargedToDecrease) */\n      mload(0x40)\n      dup1\n      dup4\n      0xffffffffffffffffffffffffffffffffffffffff\n      and\n      dup2\n      mstore\n      0x20\n      add\n      dup3\n      dup2\n      mstore\n      0x20\n      add\n      swap3\n      pop\n      pop\n      pop\n      mload(0x40)\n      dup1\n      swap2\n      sub\n      swap1\n      log1\n        /* \"LiquidityToken.sol\":19304:19347  stakedLT.add(_valueProjectTokenWithRewards) */\n      tag_418\n        /* \"LiquidityToken.sol\":19317:19346  _valueProjectTokenWithRewards */\n      dup2\n        /* \"LiquidityToken.sol\":19304:19312  stakedLT */\n      sload(0x0e)\n        /* \"LiquidityToken.sol\":19304:19316  stakedLT.add */\n      tag_297\n      swap1\n        /* \"LiquidityToken.sol\":19304:19347  stakedLT.add(_valueProjectTokenWithRewards) */\n      swap2\n      swap1\n      0xffffffff\n      and\n      jump\t// in\n    tag_418:\n        /* \"LiquidityToken.sol\":19293:19301  stakedLT */\n      0x0e\n        /* \"LiquidityToken.sol\":19293:19347  stakedLT = stakedLT.add(_valueProjectTokenWithRewards) */\n      dup2\n      swap1\n      sstore\n      pop\n        /* \"LiquidityToken.sol\":19358:19406  IncreasedStakedLT(_valueProjectTokenWithRewards) */\n      0x12129930c15dad4632242378dc39162db4c36a82482777c2e8f791d3752bb70f\n        /* \"LiquidityToken.sol\":19376:19405  _valueProjectTokenWithRewards */\n      dup2\n        /* \"LiquidityToken.sol\":19358:19406  IncreasedStakedLT(_valueProjectTokenWithRewards) */\n      mload(0x40)\n      dup1\n      dup3\n      dup2\n      mstore\n      0x20\n      add\n      swap2\n      pop\n      pop\n      mload(0x40)\n      dup1\n      swap2\n      sub\n      swap1\n      log1\n        /* \"LiquidityToken.sol\":18659:19411  function rechargeUserTokens(address _user, uint _valueFullyChargedToIncrease, uint _valuePartiallyChargedToDecrease, ... */\n      pop\n      pop\n      pop\n      pop\n      jump\t// out\n        /* \"LiquidityToken.sol\":799:853  uint public ratioFeesToRewardHodlersPerThousand = 1000 */\n    tag_165:\n      sload(0x0c)\n      dup2\n      jump\t// out\n        /* \"LiquidityToken.sol\":20733:20921  function getUserFullyChargedBalanceLiquiToken(address _user) public view... */\n    tag_168:\n        /* \"LiquidityToken.sol\":20818:20843  uint _fullyChargedBalance */\n      0x00\n        /* \"LiquidityToken.sol\":20875:20889  userLiquiToken */\n      0x13\n        /* \"LiquidityToken.sol\":20875:20896  userLiquiToken[_user] */\n      0x00\n        /* \"LiquidityToken.sol\":20890:20895  _user */\n      dup4\n        /* \"LiquidityToken.sol\":20875:20896  userLiquiToken[_user] */\n      0xffffffffffffffffffffffffffffffffffffffff\n      and\n      0xffffffffffffffffffffffffffffffffffffffff\n      and\n      dup2\n      mstore\n      0x20\n      add\n      swap1\n      dup2\n      mstore\n      0x20\n      add\n      0x00\n      keccak256\n        /* \"LiquidityToken.sol\":20875:20916  userLiquiToken[_user].fullyChargedBalance */\n      0x00\n      add\n      sload\n        /* \"LiquidityToken.sol\":20852:20916  _fullyChargedBalance = userLiquiToken[_user].fullyChargedBalance */\n      swap1\n      pop\n        /* \"LiquidityToken.sol\":20733:20921  function getUserFullyChargedBalanceLiquiToken(address _user) public view... */\n      swap2\n      swap1\n      pop\n      jump\t// out\n        /* \"LiquidityToken.sol\":1381:1431  uint public immutable maxClaimFeesPerThousandForPT */\n    tag_170:\n      immutable(\"0xd071d371589780369328e5437147bf8a672dd4f630ae4b82c7f8a4e9f9bcf7f4\")\n      dup2\n      jump\t// out\n        /* \"LiquidityToken.sol\":622:650  uint public stakingStartDate */\n    tag_172:\n      sload(0x07)\n      dup2\n      jump\t// out\n        /* \"LiquidityToken.sol\":578:618  uint public constant multiplier1K = 1000 */\n    tag_174:\n        /* \"LiquidityToken.sol\":614:618  1000 */\n      0x03e8\n        /* \"LiquidityToken.sol\":578:618  uint public constant multiplier1K = 1000 */\n      dup2\n      jump\t// out\n        /* \"LiquidityToken.sol\":654:681  uint public stakingDuration */\n    tag_176:\n      sload(0x08)\n      dup2\n      jump\t// out\n        /* \"LiquidityToken.sol\":19415:20160  function dischargeUserTokens(address _user, uint _valueProjectToken) public onlyInterfaceProjectToken() {... */\n    tag_179:\n        /* \"LiquidityToken.sol\":18244:18277  ensureOnlyInterfaceProjectToken() */\n      tag_421\n        /* \"LiquidityToken.sol\":18244:18275  ensureOnlyInterfaceProjectToken */\n      tag_397\n        /* \"LiquidityToken.sol\":18244:18277  ensureOnlyInterfaceProjectToken() */\n      jump\t// in\n    tag_421:\n        /* \"LiquidityToken.sol\":19541:19573  stakedLT.sub(_valueProjectToken) */\n      tag_423\n        /* \"LiquidityToken.sol\":19554:19572  _valueProjectToken */\n      dup2\n        /* \"LiquidityToken.sol\":19541:19549  stakedLT */\n      sload(0x0e)\n        /* \"LiquidityToken.sol\":19541:19553  stakedLT.sub */\n      tag_348\n      swap1\n        /* \"LiquidityToken.sol\":19541:19573  stakedLT.sub(_valueProjectToken) */\n      swap2\n      swap1\n      0xffffffff\n      and\n      jump\t// in\n    tag_423:\n        /* \"LiquidityToken.sol\":19530:19538  stakedLT */\n      0x0e\n        /* \"LiquidityToken.sol\":19530:19573  stakedLT = stakedLT.sub(_valueProjectToken) */\n      dup2\n      swap1\n      sstore\n      pop\n        /* \"LiquidityToken.sol\":19626:19641  block.timestamp */\n      timestamp\n        /* \"LiquidityToken.sol\":19579:19593  userLiquiToken */\n      0x13\n        /* \"LiquidityToken.sol\":19579:19600  userLiquiToken[_user] */\n      0x00\n        /* \"LiquidityToken.sol\":19594:19599  _user */\n      dup5\n        /* \"LiquidityToken.sol\":19579:19600  userLiquiToken[_user] */\n      0xffffffffffffffffffffffffffffffffffffffff\n      and\n      0xffffffffffffffffffffffffffffffffffffffff\n      and\n      dup2\n      mstore\n      0x20\n      add\n      swap1\n      dup2\n      mstore\n      0x20\n      add\n      0x00\n      keccak256\n        /* \"LiquidityToken.sol\":19579:19623  userLiquiToken[_user].dateOfPartiallyCharged */\n      0x02\n      add\n        /* \"LiquidityToken.sol\":19579:19641  userLiquiToken[_user].dateOfPartiallyCharged = block.timestamp */\n      dup2\n      swap1\n      sstore\n      pop\n        /* \"LiquidityToken.sol\":19652:19738  UpdatedDateOfPartiallyChargedAndDecreasedStakedLT(block.timestamp, _valueProjectToken) */\n      0x988acfd43f666f3f315b14052086271e8cf328d38353204311e1cd514f385a\n        /* \"LiquidityToken.sol\":19702:19717  block.timestamp */\n      timestamp\n        /* \"LiquidityToken.sol\":19719:19737  _valueProjectToken */\n      dup3\n        /* \"LiquidityToken.sol\":19652:19738  UpdatedDateOfPartiallyChargedAndDecreasedStakedLT(block.timestamp, _valueProjectToken) */\n      mload(0x40)\n      dup1\n      dup4\n      dup2\n      mstore\n      0x20\n      add\n      dup3\n      dup2\n      mstore\n      0x20\n      add\n      swap3\n      pop\n      pop\n      pop\n      mload(0x40)\n      dup1\n      swap2\n      sub\n      swap1\n      log1\n        /* \"LiquidityToken.sol\":19797:19798  0 */\n      0x00\n        /* \"LiquidityToken.sol\":19753:19767  userLiquiToken */\n      0x13\n        /* \"LiquidityToken.sol\":19753:19774  userLiquiToken[_user] */\n      0x00\n        /* \"LiquidityToken.sol\":19768:19773  _user */\n      dup5\n        /* \"LiquidityToken.sol\":19753:19774  userLiquiToken[_user] */\n      0xffffffffffffffffffffffffffffffffffffffff\n      and\n      0xffffffffffffffffffffffffffffffffffffffff\n      and\n      dup2\n      mstore\n      0x20\n      add\n      swap1\n      dup2\n      mstore\n      0x20\n      add\n      0x00\n      keccak256\n        /* \"LiquidityToken.sol\":19753:19794  userLiquiToken[_user].fullyChargedBalance */\n      0x00\n      add\n      sload\n        /* \"LiquidityToken.sol\":19753:19798  userLiquiToken[_user].fullyChargedBalance > 0 */\n      gt\n        /* \"LiquidityToken.sol\":19749:20143  if (userLiquiToken[_user].fullyChargedBalance > 0) {... */\n      iszero\n      tag_424\n      jumpi\n        /* \"LiquidityToken.sol\":19808:19837  uint _partiallyChargedBalance */\n      0x00\n        /* \"LiquidityToken.sol\":19849:19941  userLiquiToken[_user].partiallyChargedBalance.add(userLiquiToken[_user].fullyChargedBalance) */\n      tag_425\n        /* \"LiquidityToken.sol\":19899:19913  userLiquiToken */\n      0x13\n        /* \"LiquidityToken.sol\":19899:19920  userLiquiToken[_user] */\n      0x00\n        /* \"LiquidityToken.sol\":19914:19919  _user */\n      dup6\n        /* \"LiquidityToken.sol\":19899:19920  userLiquiToken[_user] */\n      0xffffffffffffffffffffffffffffffffffffffff\n      and\n      0xffffffffffffffffffffffffffffffffffffffff\n      and\n      dup2\n      mstore\n      0x20\n      add\n      swap1\n      dup2\n      mstore\n      0x20\n      add\n      0x00\n      keccak256\n        /* \"LiquidityToken.sol\":19899:19940  userLiquiToken[_user].fullyChargedBalance */\n      0x00\n      add\n      sload\n        /* \"LiquidityToken.sol\":19849:19863  userLiquiToken */\n      0x13\n        /* \"LiquidityToken.sol\":19849:19870  userLiquiToken[_user] */\n      0x00\n        /* \"LiquidityToken.sol\":19864:19869  _user */\n      dup7\n        /* \"LiquidityToken.sol\":19849:19870  userLiquiToken[_user] */\n      0xffffffffffffffffffffffffffffffffffffffff\n      and\n      0xffffffffffffffffffffffffffffffffffffffff\n      and\n      dup2\n      mstore\n      0x20\n      add\n      swap1\n      dup2\n      mstore\n      0x20\n      add\n      0x00\n      keccak256\n        /* \"LiquidityToken.sol\":19849:19894  userLiquiToken[_user].partiallyChargedBalance */\n      0x01\n      add\n      sload\n        /* \"LiquidityToken.sol\":19849:19898  userLiquiToken[_user].partiallyChargedBalance.add */\n      tag_297\n      swap1\n        /* \"LiquidityToken.sol\":19849:19941  userLiquiToken[_user].partiallyChargedBalance.add(userLiquiToken[_user].fullyChargedBalance) */\n      swap2\n      swap1\n      0xffffffff\n      and\n      jump\t// in\n    tag_425:\n        /* \"LiquidityToken.sol\":19808:19941  uint _partiallyChargedBalance = ... */\n      swap1\n      pop\n        /* \"LiquidityToken.sol\":19997:20021  _partiallyChargedBalance */\n      dup1\n        /* \"LiquidityToken.sol\":19949:19963  userLiquiToken */\n      0x13\n        /* \"LiquidityToken.sol\":19949:19970  userLiquiToken[_user] */\n      0x00\n        /* \"LiquidityToken.sol\":19964:19969  _user */\n      dup6\n        /* \"LiquidityToken.sol\":19949:19970  userLiquiToken[_user] */\n      0xffffffffffffffffffffffffffffffffffffffff\n      and\n      0xffffffffffffffffffffffffffffffffffffffff\n      and\n      dup2\n      mstore\n      0x20\n      add\n      swap1\n      dup2\n      mstore\n      0x20\n      add\n      0x00\n      keccak256\n        /* \"LiquidityToken.sol\":19949:19994  userLiquiToken[_user].partiallyChargedBalance */\n      0x01\n      add\n        /* \"LiquidityToken.sol\":19949:20021  userLiquiToken[_user].partiallyChargedBalance = _partiallyChargedBalance */\n      dup2\n      swap1\n      sstore\n      pop\n        /* \"LiquidityToken.sol\":20073:20074  0 */\n      0x00\n        /* \"LiquidityToken.sol\":20029:20043  userLiquiToken */\n      0x13\n        /* \"LiquidityToken.sol\":20029:20050  userLiquiToken[_user] */\n      0x00\n        /* \"LiquidityToken.sol\":20044:20049  _user */\n      dup6\n        /* \"LiquidityToken.sol\":20029:20050  userLiquiToken[_user] */\n      0xffffffffffffffffffffffffffffffffffffffff\n      and\n      0xffffffffffffffffffffffffffffffffffffffff\n      and\n      dup2\n      mstore\n      0x20\n      add\n      swap1\n      dup2\n      mstore\n      0x20\n      add\n      0x00\n      keccak256\n        /* \"LiquidityToken.sol\":20029:20070  userLiquiToken[_user].fullyChargedBalance */\n      0x00\n      add\n        /* \"LiquidityToken.sol\":20029:20074  userLiquiToken[_user].fullyChargedBalance = 0 */\n      dup2\n      swap1\n      sstore\n      pop\n        /* \"LiquidityToken.sol\":20087:20136  TokensDischarged(_user, _partiallyChargedBalance) */\n      0xea4585bcbbe652ce8d7648189af8436fed8469d3561fd73d3d345ba88618c20a\n        /* \"LiquidityToken.sol\":20104:20109  _user */\n      dup4\n        /* \"LiquidityToken.sol\":20111:20135  _partiallyChargedBalance */\n      dup3\n        /* \"LiquidityToken.sol\":20087:20136  TokensDischarged(_user, _partiallyChargedBalance) */\n      mload(0x40)\n      dup1\n      dup4\n      0xffffffffffffffffffffffffffffffffffffffff\n      and\n      dup2\n      mstore\n      0x20\n      add\n      dup3\n      dup2\n      mstore\n      0x20\n      add\n      swap3\n      pop\n      pop\n      pop\n      mload(0x40)\n      dup1\n      swap2\n      sub\n      swap1\n      log1\n        /* \"LiquidityToken.sol\":19749:20143  if (userLiquiToken[_user].fullyChargedBalance > 0) {... */\n      pop\n    tag_424:\n        /* \"LiquidityToken.sol\":19415:20160  function dischargeUserTokens(address _user, uint _valueProjectToken) public onlyInterfaceProjectToken() {... */\n      pop\n      pop\n      jump\t// out\n        /* \"LiquidityToken.sol\":1474:1517  uint public immutable maxStakingTokenAmount */\n    tag_181:\n      immutable(\"0x66547114649d5833daa7007ccc99ac262792882ea3d82e4ebe0b69f18704da0c\")\n      dup2\n      jump\t// out\n        /* \"LiquidityToken.sol\":1273:1320  uint public immutable maxInitialTokenAllocation */\n    tag_183:\n      immutable(\"0x27f63464b9731b972604804953e204cb89525ac66e46cd091b2739ad01222f8b\")\n      dup2\n      jump\t// out\n        /* \"LiquidityToken.sol\":1043:1084  bool public isInterfaceProjectTokenLocked */\n    tag_185:\n      0x11\n      0x01\n      swap1\n      sload\n      swap1\n      0x0100\n      exp\n      swap1\n      div\n      0xff\n      and\n      dup2\n      jump\t// out\n        /* \"LiquidityToken.sol\":1324:1377  uint public immutable maxWithdrawFeesPerThousandForLT */\n    tag_187:\n      immutable(\"0xcd3b8a75131b09c18fac61f93bac9440f7b768b1c243a93eca5a67eb03b07828\")\n      dup2\n      jump\t// out\n        /* \"https://github.com/OpenZeppelin/openzeppelin-contracts/blob/v3.4.2-solc-0.7/contracts/access/Ownable.sol\":1068:1153   */\n    tag_189:\n        /* \"https://github.com/OpenZeppelin/openzeppelin-contracts/blob/v3.4.2-solc-0.7/contracts/access/Ownable.sol\":1114:1121   */\n      0x00\n        /* \"https://github.com/OpenZeppelin/openzeppelin-contracts/blob/v3.4.2-solc-0.7/contracts/access/Ownable.sol\":1140:1146   */\n      0x05\n      0x01\n      swap1\n      sload\n      swap1\n      0x0100\n      exp\n      swap1\n      div\n      0xffffffffffffffffffffffffffffffffffffffff\n      and\n        /* \"https://github.com/OpenZeppelin/openzeppelin-contracts/blob/v3.4.2-solc-0.7/contracts/access/Ownable.sol\":1133:1146   */\n      swap1\n      pop\n        /* \"https://github.com/OpenZeppelin/openzeppelin-contracts/blob/v3.4.2-solc-0.7/contracts/access/Ownable.sol\":1068:1153   */\n      swap1\n      jump\t// out\n        /* \"LiquidityToken.sol\":13762:14453  function getUpdatedRewardPerShare1e18(uint _blockTime) public view returns(uint _updatedRewardPerShare1e18) {  ... */\n    tag_192:\n        /* \"LiquidityToken.sol\":13837:13868  uint _updatedRewardPerShare1e18 */\n      0x00\n        /* \"LiquidityToken.sol\":13881:13901  uint _stakingEndDate */\n      dup1\n        /* \"LiquidityToken.sol\":13904:13941  stakingStartDate.add(stakingDuration) */\n      tag_428\n        /* \"LiquidityToken.sol\":13925:13940  stakingDuration */\n      sload(0x08)\n        /* \"LiquidityToken.sol\":13904:13920  stakingStartDate */\n      sload(0x07)\n        /* \"LiquidityToken.sol\":13904:13924  stakingStartDate.add */\n      tag_297\n      swap1\n        /* \"LiquidityToken.sol\":13904:13941  stakingStartDate.add(stakingDuration) */\n      swap2\n      swap1\n      0xffffffff\n      and\n      jump\t// in\n    tag_428:\n        /* \"LiquidityToken.sol\":13881:13941  uint _stakingEndDate = stakingStartDate.add(stakingDuration) */\n      swap1\n      pop\n        /* \"LiquidityToken.sol\":13976:14001  currentRewardPerShare1e18 */\n      sload(0x0d)\n        /* \"LiquidityToken.sol\":13947:14001  _updatedRewardPerShare1e18 = currentRewardPerShare1e18 */\n      swap2\n      pop\n        /* \"LiquidityToken.sol\":14034:14059  stakingDateLastCheckpoint */\n      sload(0x09)\n        /* \"LiquidityToken.sol\":14021:14031  _blockTime */\n      dup4\n        /* \"LiquidityToken.sol\":14021:14059  _blockTime > stakingDateLastCheckpoint */\n      gt\n        /* \"LiquidityToken.sol\":14021:14113  _blockTime > stakingDateLastCheckpoint ... */\n      dup1\n      iszero\n      tag_429\n      jumpi\n      pop\n        /* \"LiquidityToken.sol\":14098:14113  _stakingEndDate */\n      dup1\n        /* \"LiquidityToken.sol\":14070:14095  stakingDateLastCheckpoint */\n      sload(0x09)\n        /* \"LiquidityToken.sol\":14070:14113  stakingDateLastCheckpoint < _stakingEndDate */\n      lt\n        /* \"LiquidityToken.sol\":14021:14113  _blockTime > stakingDateLastCheckpoint ... */\n    tag_429:\n        /* \"LiquidityToken.sol\":14021:14136  _blockTime > stakingDateLastCheckpoint ... */\n      dup1\n      iszero\n      tag_430\n      jumpi\n      pop\n        /* \"LiquidityToken.sol\":14135:14136  0 */\n      0x00\n        /* \"LiquidityToken.sol\":14124:14132  stakedLT */\n      sload(0x0e)\n        /* \"LiquidityToken.sol\":14124:14136  stakedLT > 0 */\n      gt\n        /* \"LiquidityToken.sol\":14021:14136  _blockTime > stakingDateLastCheckpoint ... */\n    tag_430:\n        /* \"LiquidityToken.sol\":14010:14448  if (... */\n      iszero\n      tag_431\n      jumpi\n        /* \"LiquidityToken.sol\":14172:14187  _stakingEndDate */\n      dup1\n        /* \"LiquidityToken.sol\":14159:14169  _blockTime */\n      dup4\n        /* \"LiquidityToken.sol\":14159:14187  _blockTime > _stakingEndDate */\n      gt\n        /* \"LiquidityToken.sol\":14155:14217  if (_blockTime > _stakingEndDate) _blockTime = _stakingEndDate */\n      iszero\n      tag_432\n      jumpi\n        /* \"LiquidityToken.sol\":14202:14217  _stakingEndDate */\n      dup1\n        /* \"LiquidityToken.sol\":14189:14217  _blockTime = _stakingEndDate */\n      swap3\n      pop\n        /* \"LiquidityToken.sol\":14155:14217  if (_blockTime > _stakingEndDate) _blockTime = _stakingEndDate */\n    tag_432:\n        /* \"LiquidityToken.sol\":14256:14437  _updatedRewardPerShare1e18.add(... */\n      tag_433\n        /* \"LiquidityToken.sol\":14298:14425  (_blockTime.sub(stakingDateLastCheckpoint)).mul(campaignStakingRewards).mul(1e18)... */\n      tag_434\n        /* \"LiquidityToken.sol\":14395:14424  stakingDuration.mul(stakedLT) */\n      tag_435\n        /* \"LiquidityToken.sol\":14415:14423  stakedLT */\n      sload(0x0e)\n        /* \"LiquidityToken.sol\":14395:14410  stakingDuration */\n      sload(0x08)\n        /* \"LiquidityToken.sol\":14395:14414  stakingDuration.mul */\n      tag_336\n      swap1\n        /* \"LiquidityToken.sol\":14395:14424  stakingDuration.mul(stakedLT) */\n      swap2\n      swap1\n      0xffffffff\n      and\n      jump\t// in\n    tag_435:\n        /* \"LiquidityToken.sol\":14298:14379  (_blockTime.sub(stakingDateLastCheckpoint)).mul(campaignStakingRewards).mul(1e18) */\n      tag_436\n        /* \"LiquidityToken.sol\":14374:14378  1e18 */\n      0x0de0b6b3a7640000\n        /* \"LiquidityToken.sol\":14298:14369  (_blockTime.sub(stakingDateLastCheckpoint)).mul(campaignStakingRewards) */\n      tag_437\n        /* \"LiquidityToken.sol\":14346:14368  campaignStakingRewards */\n      sload(0x0a)\n        /* \"LiquidityToken.sol\":14299:14340  _blockTime.sub(stakingDateLastCheckpoint) */\n      tag_438\n        /* \"LiquidityToken.sol\":14314:14339  stakingDateLastCheckpoint */\n      sload(0x09)\n        /* \"LiquidityToken.sol\":14299:14309  _blockTime */\n      dup12\n        /* \"LiquidityToken.sol\":14299:14313  _blockTime.sub */\n      tag_348\n      swap1\n        /* \"LiquidityToken.sol\":14299:14340  _blockTime.sub(stakingDateLastCheckpoint) */\n      swap2\n      swap1\n      0xffffffff\n      and\n      jump\t// in\n    tag_438:\n        /* \"LiquidityToken.sol\":14298:14345  (_blockTime.sub(stakingDateLastCheckpoint)).mul */\n      tag_336\n      swap1\n        /* \"LiquidityToken.sol\":14298:14369  (_blockTime.sub(stakingDateLastCheckpoint)).mul(campaignStakingRewards) */\n      swap2\n      swap1\n      0xffffffff\n      and\n      jump\t// in\n    tag_437:\n        /* \"LiquidityToken.sol\":14298:14373  (_blockTime.sub(stakingDateLastCheckpoint)).mul(campaignStakingRewards).mul */\n      tag_336\n      swap1\n        /* \"LiquidityToken.sol\":14298:14379  (_blockTime.sub(stakingDateLastCheckpoint)).mul(campaignStakingRewards).mul(1e18) */\n      swap2\n      swap1\n      0xffffffff\n      and\n      jump\t// in\n    tag_436:\n        /* \"LiquidityToken.sol\":14298:14394  (_blockTime.sub(stakingDateLastCheckpoint)).mul(campaignStakingRewards).mul(1e18)... */\n      tag_340\n      swap1\n        /* \"LiquidityToken.sol\":14298:14425  (_blockTime.sub(stakingDateLastCheckpoint)).mul(campaignStakingRewards).mul(1e18)... */\n      swap2\n      swap1\n      0xffffffff\n      and\n      jump\t// in\n    tag_434:\n        /* \"LiquidityToken.sol\":14256:14282  _updatedRewardPerShare1e18 */\n      dup4\n        /* \"LiquidityToken.sol\":14256:14286  _updatedRewardPerShare1e18.add */\n      tag_297\n      swap1\n        /* \"LiquidityToken.sol\":14256:14437  _updatedRewardPerShare1e18.add(... */\n      swap2\n      swap1\n      0xffffffff\n      and\n      jump\t// in\n    tag_433:\n        /* \"LiquidityToken.sol\":14227:14437  _updatedRewardPerShare1e18 = _updatedRewardPerShare1e18.add(... */\n      swap2\n      pop\n        /* \"LiquidityToken.sol\":14010:14448  if (... */\n    tag_431:\n        /* \"LiquidityToken.sol\":13762:14453  function getUpdatedRewardPerShare1e18(uint _blockTime) public view returns(uint _updatedRewardPerShare1e18) {  ... */\n      pop\n      swap2\n      swap1\n      pop\n      jump\t// out\n        /* \"LiquidityToken.sol\":764:795  uint public totalStakingRewards */\n    tag_194:\n      sload(0x0b)\n      dup2\n      jump\t// out\n        /* \"LiquidityToken.sol\":1522:1580  mapping (address => uint) public claimedRewardPerShare1e18 */\n    tag_197:\n      mstore(0x20, 0x12)\n      dup1\n      0x00\n      mstore\n      keccak256(0x00, 0x40)\n      0x00\n      swap2\n      pop\n      swap1\n      pop\n      sload\n      dup2\n      jump\t// out\n        /* \"https://github.com/OpenZeppelin/openzeppelin-contracts/blob/v3.4.2-solc-0.7/contracts/token/ERC20/ERC20.sol\":2355:2448   */\n    tag_199:\n        /* \"https://github.com/OpenZeppelin/openzeppelin-contracts/blob/v3.4.2-solc-0.7/contracts/token/ERC20/ERC20.sol\":2402:2415   */\n      0x60\n        /* \"https://github.com/OpenZeppelin/openzeppelin-contracts/blob/v3.4.2-solc-0.7/contracts/token/ERC20/ERC20.sol\":2434:2441   */\n      0x04\n        /* \"https://github.com/OpenZeppelin/openzeppelin-contracts/blob/v3.4.2-solc-0.7/contracts/token/ERC20/ERC20.sol\":2427:2441   */\n      dup1\n      sload\n      0x01\n      dup2\n      0x01\n      and\n      iszero\n      0x0100\n      mul\n      sub\n      and\n      0x02\n      swap1\n      div\n      dup1\n      0x1f\n      add\n      0x20\n      dup1\n      swap2\n      div\n      mul\n      0x20\n      add\n      mload(0x40)\n      swap1\n      dup2\n      add\n      0x40\n      mstore\n      dup1\n      swap3\n      swap2\n      swap1\n      dup2\n      dup2\n      mstore\n      0x20\n      add\n      dup3\n      dup1\n      sload\n      0x01\n      dup2\n      0x01\n      and\n      iszero\n      0x0100\n      mul\n      sub\n      and\n      0x02\n      swap1\n      div\n      dup1\n      iszero\n      tag_440\n      jumpi\n      dup1\n      0x1f\n      lt\n      tag_441\n      jumpi\n      0x0100\n      dup1\n      dup4\n      sload\n      div\n      mul\n      dup4\n      mstore\n      swap2\n      0x20\n      add\n      swap2\n      jump(tag_440)\n    tag_441:\n      dup3\n      add\n      swap2\n      swap1\n      0x00\n      mstore\n      keccak256(0x00, 0x20)\n      swap1\n    tag_442:\n      dup2\n      sload\n      dup2\n      mstore\n      swap1\n      0x01\n      add\n      swap1\n      0x20\n      add\n      dup1\n      dup4\n      gt\n      tag_442\n      jumpi\n      dup3\n      swap1\n      sub\n      0x1f\n      and\n      dup3\n      add\n      swap2\n    tag_440:\n      pop\n      pop\n      pop\n      pop\n      pop\n      swap1\n      pop\n        /* \"https://github.com/OpenZeppelin/openzeppelin-contracts/blob/v3.4.2-solc-0.7/contracts/token/ERC20/ERC20.sol\":2355:2448   */\n      swap1\n      jump\t// out\n        /* \"LiquidityToken.sol\":1088:1124  bool public areAllocationsTerminated */\n    tag_205:\n      0x11\n      0x02\n      swap1\n      sload\n      swap1\n      0x0100\n      exp\n      swap1\n      div\n      0xff\n      and\n      dup2\n      jump\t// out\n        /* \"LiquidityToken.sol\":7992:8122  function terminateAllocations() public onlyOwner() {... */\n    tag_207:\n        /* \"https://github.com/OpenZeppelin/openzeppelin-contracts/blob/v3.4.2-solc-0.7/contracts/access/Ownable.sol\":1291:1303   */\n      tag_444\n        /* \"https://github.com/OpenZeppelin/openzeppelin-contracts/blob/v3.4.2-solc-0.7/contracts/access/Ownable.sol\":1291:1301   */\n      tag_277\n        /* \"https://github.com/OpenZeppelin/openzeppelin-contracts/blob/v3.4.2-solc-0.7/contracts/access/Ownable.sol\":1291:1303   */\n      jump\t// in\n    tag_444:\n        /* \"https://github.com/OpenZeppelin/openzeppelin-contracts/blob/v3.4.2-solc-0.7/contracts/access/Ownable.sol\":1280:1303   */\n      0xffffffffffffffffffffffffffffffffffffffff\n      and\n        /* \"https://github.com/OpenZeppelin/openzeppelin-contracts/blob/v3.4.2-solc-0.7/contracts/access/Ownable.sol\":1280:1287   */\n      tag_445\n        /* \"https://github.com/OpenZeppelin/openzeppelin-contracts/blob/v3.4.2-solc-0.7/contracts/access/Ownable.sol\":1280:1285   */\n      tag_189\n        /* \"https://github.com/OpenZeppelin/openzeppelin-contracts/blob/v3.4.2-solc-0.7/contracts/access/Ownable.sol\":1280:1287   */\n      jump\t// in\n    tag_445:\n        /* \"https://github.com/OpenZeppelin/openzeppelin-contracts/blob/v3.4.2-solc-0.7/contracts/access/Ownable.sol\":1280:1303   */\n      0xffffffffffffffffffffffffffffffffffffffff\n      and\n      eq\n        /* \"https://github.com/OpenZeppelin/openzeppelin-contracts/blob/v3.4.2-solc-0.7/contracts/access/Ownable.sol\":1272:1340   */\n      tag_446\n      jumpi\n      mload(0x40)\n      0x08c379a000000000000000000000000000000000000000000000000000000000\n      dup2\n      mstore\n      0x04\n      add\n      dup1\n      dup1\n      0x20\n      add\n      dup3\n      dup2\n      sub\n      dup3\n      mstore\n      0x20\n      dup2\n      mstore\n      0x20\n      add\n      dup1\n      0x4f776e61626c653a2063616c6c6572206973206e6f7420746865206f776e6572\n      dup2\n      mstore\n      pop\n      0x20\n      add\n      swap2\n      pop\n      pop\n      mload(0x40)\n      dup1\n      swap2\n      sub\n      swap1\n      revert\n    tag_446:\n        /* \"LiquidityToken.sol\":8076:8080  true */\n      0x01\n        /* \"LiquidityToken.sol\":8049:8073  areAllocationsTerminated */\n      0x11\n      0x02\n        /* \"LiquidityToken.sol\":8049:8080  areAllocationsTerminated = true */\n      0x0100\n      exp\n      dup2\n      sload\n      dup2\n      0xff\n      mul\n      not\n      and\n      swap1\n      dup4\n      iszero\n      iszero\n      mul\n      or\n      swap1\n      sstore\n      pop\n        /* \"LiquidityToken.sol\":8091:8117  AllocationsAreTerminated() */\n      0xe34132c0e38d6bc3060b9c7698a52568cfc799c082cc802a370f04ff216130ee\n      mload(0x40)\n      mload(0x40)\n      dup1\n      swap2\n      sub\n      swap1\n      log1\n        /* \"LiquidityToken.sol\":7992:8122  function terminateAllocations() public onlyOwner() {... */\n      jump\t// out\n        /* \"LiquidityToken.sol\":20925:21129  function getUserPartiallyChargedBalanceLiquiToken(address _user) public view... */\n    tag_210:\n        /* \"LiquidityToken.sol\":21014:21043  uint _partiallyChargedBalance */\n      0x00\n        /* \"LiquidityToken.sol\":21079:21093  userLiquiToken */\n      0x13\n        /* \"LiquidityToken.sol\":21079:21100  userLiquiToken[_user] */\n      0x00\n        /* \"LiquidityToken.sol\":21094:21099  _user */\n      dup4\n        /* \"LiquidityToken.sol\":21079:21100  userLiquiToken[_user] */\n      0xffffffffffffffffffffffffffffffffffffffff\n      and\n      0xffffffffffffffffffffffffffffffffffffffff\n      and\n      dup2\n      mstore\n      0x20\n      add\n      swap1\n      dup2\n      mstore\n      0x20\n      add\n      0x00\n      keccak256\n        /* \"LiquidityToken.sol\":21079:21124  userLiquiToken[_user].partiallyChargedBalance */\n      0x01\n      add\n      sload\n        /* \"LiquidityToken.sol\":21052:21124  _partiallyChargedBalance = userLiquiToken[_user].partiallyChargedBalance */\n      swap1\n      pop\n        /* \"LiquidityToken.sol\":20925:21129  function getUserPartiallyChargedBalanceLiquiToken(address _user) public view... */\n      swap2\n      swap1\n      pop\n      jump\t// out\n        /* \"LiquidityToken.sol\":16187:17555  function setStakingRewards(uint _stakingStartDate, uint _stakingDuration, uint _campaignStakingRewards) ... */\n    tag_213:\n        /* \"https://github.com/OpenZeppelin/openzeppelin-contracts/blob/v3.4.2-solc-0.7/contracts/access/Ownable.sol\":1291:1303   */\n      tag_450\n        /* \"https://github.com/OpenZeppelin/openzeppelin-contracts/blob/v3.4.2-solc-0.7/contracts/access/Ownable.sol\":1291:1301   */\n      tag_277\n        /* \"https://github.com/OpenZeppelin/openzeppelin-contracts/blob/v3.4.2-solc-0.7/contracts/access/Ownable.sol\":1291:1303   */\n      jump\t// in\n    tag_450:\n        /* \"https://github.com/OpenZeppelin/openzeppelin-contracts/blob/v3.4.2-solc-0.7/contracts/access/Ownable.sol\":1280:1303   */\n      0xffffffffffffffffffffffffffffffffffffffff\n      and\n        /* \"https://github.com/OpenZeppelin/openzeppelin-contracts/blob/v3.4.2-solc-0.7/contracts/access/Ownable.sol\":1280:1287   */\n      tag_451\n        /* \"https://github.com/OpenZeppelin/openzeppelin-contracts/blob/v3.4.2-solc-0.7/contracts/access/Ownable.sol\":1280:1285   */\n      tag_189\n        /* \"https://github.com/OpenZeppelin/openzeppelin-contracts/blob/v3.4.2-solc-0.7/contracts/access/Ownable.sol\":1280:1287   */\n      jump\t// in\n    tag_451:\n        /* \"https://github.com/OpenZeppelin/openzeppelin-contracts/blob/v3.4.2-solc-0.7/contracts/access/Ownable.sol\":1280:1303   */\n      0xffffffffffffffffffffffffffffffffffffffff\n      and\n      eq\n        /* \"https://github.com/OpenZeppelin/openzeppelin-contracts/blob/v3.4.2-solc-0.7/contracts/access/Ownable.sol\":1272:1340   */\n      tag_452\n      jumpi\n      mload(0x40)\n      0x08c379a000000000000000000000000000000000000000000000000000000000\n      dup2\n      mstore\n      0x04\n      add\n      dup1\n      dup1\n      0x20\n      add\n      dup3\n      dup2\n      sub\n      dup3\n      mstore\n      0x20\n      dup2\n      mstore\n      0x20\n      add\n      dup1\n      0x4f776e61626c653a2063616c6c6572206973206e6f7420746865206f776e6572\n      dup2\n      mstore\n      pop\n      0x20\n      add\n      swap2\n      pop\n      pop\n      mload(0x40)\n      dup1\n      swap2\n      sub\n      swap1\n      revert\n    tag_452:\n        /* \"LiquidityToken.sol\":16322:16337  uint _blockTime */\n      0x00\n        /* \"LiquidityToken.sol\":16340:16355  block.timestamp */\n      timestamp\n        /* \"LiquidityToken.sol\":16322:16355  uint _blockTime = block.timestamp */\n      swap1\n      pop\n        /* \"LiquidityToken.sol\":16397:16407  _blockTime */\n      dup1\n        /* \"LiquidityToken.sol\":16377:16394  _stakingStartDate */\n      dup5\n        /* \"LiquidityToken.sol\":16377:16407  _stakingStartDate > _blockTime */\n      gt\n        /* \"LiquidityToken.sol\":16377:16431  _stakingStartDate > _blockTime && _stakingDuration > 0 */\n      dup1\n      iszero\n      tag_454\n      jumpi\n      pop\n        /* \"LiquidityToken.sol\":16430:16431  0 */\n      0x00\n        /* \"LiquidityToken.sol\":16411:16427  _stakingDuration */\n      dup4\n        /* \"LiquidityToken.sol\":16411:16431  _stakingDuration > 0 */\n      gt\n        /* \"LiquidityToken.sol\":16377:16431  _stakingStartDate > _blockTime && _stakingDuration > 0 */\n    tag_454:\n        /* \"LiquidityToken.sol\":16362:16473  require(... */\n      tag_455\n      jumpi\n      mload(0x40)\n      0x08c379a000000000000000000000000000000000000000000000000000000000\n      dup2\n      mstore\n      0x04\n      add\n      dup1\n      dup1\n      0x20\n      add\n      dup3\n      dup2\n      sub\n      dup3\n      mstore\n      0x18\n      dup2\n      mstore\n      0x20\n      add\n      dup1\n      0x496e76616c69642064617465206f72206475726174696f6e0000000000000000\n      dup2\n      mstore\n      pop\n      0x20\n      add\n      swap2\n      pop\n      pop\n      mload(0x40)\n      dup1\n      swap2\n      sub\n      swap1\n      revert\n    tag_455:\n        /* \"LiquidityToken.sol\":16507:16508  0 */\n      0x00\n        /* \"LiquidityToken.sol\":16488:16504  stakingStartDate */\n      sload(0x07)\n        /* \"LiquidityToken.sol\":16488:16508  stakingStartDate > 0 */\n      gt\n        /* \"LiquidityToken.sol\":16484:16630  if (stakingStartDate > 0)... */\n      iszero\n      tag_456\n      jumpi\n        /* \"LiquidityToken.sol\":16546:16583  stakingStartDate.add(stakingDuration) */\n      tag_457\n        /* \"LiquidityToken.sol\":16567:16582  stakingDuration */\n      sload(0x08)\n        /* \"LiquidityToken.sol\":16546:16562  stakingStartDate */\n      sload(0x07)\n        /* \"LiquidityToken.sol\":16546:16566  stakingStartDate.add */\n      tag_297\n      swap1\n        /* \"LiquidityToken.sol\":16546:16583  stakingStartDate.add(stakingDuration) */\n      swap2\n      swap1\n      0xffffffff\n      and\n      jump\t// in\n    tag_457:\n        /* \"LiquidityToken.sol\":16533:16543  _blockTime */\n      dup2\n        /* \"LiquidityToken.sol\":16533:16583  _blockTime > stakingStartDate.add(stakingDuration) */\n      gt\n        /* \"LiquidityToken.sol\":16516:16630  require(... */\n      tag_458\n      jumpi\n      mload(0x40)\n      0x08c379a000000000000000000000000000000000000000000000000000000000\n      dup2\n      mstore\n      0x04\n      add\n      dup1\n      dup1\n      0x20\n      add\n      dup3\n      dup2\n      sub\n      dup3\n      mstore\n      0x21\n      dup2\n      mstore\n      0x20\n      add\n      dup1\n      data_80acf3dd0bdd4c0b66197f061d5674e0ae05d3abcfb82eac8797c866acd7e965\n      0x21\n      swap2\n      codecopy\n      0x40\n      add\n      swap2\n      pop\n      pop\n      mload(0x40)\n      dup1\n      swap2\n      sub\n      swap1\n      revert\n    tag_458:\n        /* \"LiquidityToken.sol\":16484:16630  if (stakingStartDate > 0)... */\n    tag_456:\n        /* \"LiquidityToken.sol\":16680:16701  maxStakingTokenAmount */\n      immutable(\"0x66547114649d5833daa7007ccc99ac262792882ea3d82e4ebe0b69f18704da0c\")\n        /* \"LiquidityToken.sol\":16653:16676  _campaignStakingRewards */\n      dup3\n        /* \"LiquidityToken.sol\":16653:16701  _campaignStakingRewards <= maxStakingTokenAmount */\n      gt\n      iszero\n        /* \"LiquidityToken.sol\":16638:16744  require(... */\n      tag_459\n      jumpi\n      mload(0x40)\n      0x08c379a000000000000000000000000000000000000000000000000000000000\n      dup2\n      mstore\n      0x04\n      add\n      dup1\n      dup1\n      0x20\n      add\n      dup3\n      dup2\n      sub\n      dup3\n      mstore\n      0x19\n      dup2\n      mstore\n      0x20\n      add\n      dup1\n      0x4d617820746f6b656e20616d6f756e7420657863656564656400000000000000\n      dup2\n      mstore\n      pop\n      0x20\n      add\n      swap2\n      pop\n      pop\n      mload(0x40)\n      dup1\n      swap2\n      sub\n      swap1\n      revert\n    tag_459:\n        /* \"LiquidityToken.sol\":16770:16771  0 */\n      0x00\n        /* \"LiquidityToken.sol\":16759:16767  stakedLT */\n      sload(0x0e)\n        /* \"LiquidityToken.sol\":16759:16771  stakedLT > 0 */\n      gt\n        /* \"LiquidityToken.sol\":16755:16942  if (stakedLT > 0)... */\n      iszero\n      tag_460\n      jumpi\n        /* \"LiquidityToken.sol\":16883:16896  maxStakingAPR */\n      immutable(\"0xbf42042e2237c6e6d1c29f4f02d65eeea252179805ed26cf71ad720e62900975\")\n        /* \"LiquidityToken.sol\":16796:16879  _campaignStakingRewards.mul(100).mul(86400*365).div(_stakingDuration).div(stakedLT) */\n      tag_461\n        /* \"LiquidityToken.sol\":16870:16878  stakedLT */\n      sload(0x0e)\n        /* \"LiquidityToken.sol\":16796:16865  _campaignStakingRewards.mul(100).mul(86400*365).div(_stakingDuration) */\n      tag_462\n        /* \"LiquidityToken.sol\":16848:16864  _stakingDuration */\n      dup7\n        /* \"LiquidityToken.sol\":16796:16843  _campaignStakingRewards.mul(100).mul(86400*365) */\n      tag_463\n        /* \"LiquidityToken.sol\":16833:16842  86400*365 */\n      0x01e13380\n        /* \"LiquidityToken.sol\":16796:16828  _campaignStakingRewards.mul(100) */\n      tag_464\n        /* \"LiquidityToken.sol\":16824:16827  100 */\n      0x64\n        /* \"LiquidityToken.sol\":16796:16819  _campaignStakingRewards */\n      dup11\n        /* \"LiquidityToken.sol\":16796:16823  _campaignStakingRewards.mul */\n      tag_336\n      swap1\n        /* \"LiquidityToken.sol\":16796:16828  _campaignStakingRewards.mul(100) */\n      swap2\n      swap1\n      0xffffffff\n      and\n      jump\t// in\n    tag_464:\n        /* \"LiquidityToken.sol\":16796:16832  _campaignStakingRewards.mul(100).mul */\n      tag_336\n      swap1\n        /* \"LiquidityToken.sol\":16796:16843  _campaignStakingRewards.mul(100).mul(86400*365) */\n      swap2\n      swap1\n      0xffffffff\n      and\n      jump\t// in\n    tag_463:\n        /* \"LiquidityToken.sol\":16796:16847  _campaignStakingRewards.mul(100).mul(86400*365).div */\n      tag_340\n      swap1\n        /* \"LiquidityToken.sol\":16796:16865  _campaignStakingRewards.mul(100).mul(86400*365).div(_stakingDuration) */\n      swap2\n      swap1\n      0xffffffff\n      and\n      jump\t// in\n    tag_462:\n        /* \"LiquidityToken.sol\":16796:16869  _campaignStakingRewards.mul(100).mul(86400*365).div(_stakingDuration).div */\n      tag_340\n      swap1\n        /* \"LiquidityToken.sol\":16796:16879  _campaignStakingRewards.mul(100).mul(86400*365).div(_stakingDuration).div(stakedLT) */\n      swap2\n      swap1\n      0xffffffff\n      and\n      jump\t// in\n    tag_461:\n        /* \"LiquidityToken.sol\":16796:16896  _campaignStakingRewards.mul(100).mul(86400*365).div(_stakingDuration).div(stakedLT) <= maxStakingAPR */\n      gt\n      iszero\n        /* \"LiquidityToken.sol\":16779:16942  require(... */\n      tag_465\n      jumpi\n      mload(0x40)\n      0x08c379a000000000000000000000000000000000000000000000000000000000\n      dup2\n      mstore\n      0x04\n      add\n      dup1\n      dup1\n      0x20\n      add\n      dup3\n      dup2\n      sub\n      dup3\n      mstore\n      0x18\n      dup2\n      mstore\n      0x20\n      add\n      dup1\n      0x4d617820616c6c6f776564204150522065786365656465640000000000000000\n      dup2\n      mstore\n      pop\n      0x20\n      add\n      swap2\n      pop\n      pop\n      mload(0x40)\n      dup1\n      swap2\n      sub\n      swap1\n      revert\n    tag_465:\n        /* \"LiquidityToken.sol\":16755:16942  if (stakedLT > 0)... */\n    tag_460:\n        /* \"LiquidityToken.sol\":16953:16988  updateStakingParameters(_blockTime) */\n      tag_466\n        /* \"LiquidityToken.sol\":16977:16987  _blockTime */\n      dup2\n        /* \"LiquidityToken.sol\":16953:16976  updateStakingParameters */\n      tag_467\n        /* \"LiquidityToken.sol\":16953:16988  updateStakingParameters(_blockTime) */\n      jump\t// in\n    tag_466:\n        /* \"LiquidityToken.sol\":17090:17107  _stakingStartDate */\n      dup4\n        /* \"LiquidityToken.sol\":17071:17087  stakingStartDate */\n      0x07\n        /* \"LiquidityToken.sol\":17071:17107  stakingStartDate = _stakingStartDate */\n      dup2\n      swap1\n      sstore\n      pop\n        /* \"LiquidityToken.sol\":17141:17158  _stakingStartDate */\n      dup4\n        /* \"LiquidityToken.sol\":17113:17138  stakingDateLastCheckpoint */\n      0x09\n        /* \"LiquidityToken.sol\":17113:17158  stakingDateLastCheckpoint = _stakingStartDate */\n      dup2\n      swap1\n      sstore\n      pop\n        /* \"LiquidityToken.sol\":17182:17198  _stakingDuration */\n      dup3\n        /* \"LiquidityToken.sol\":17164:17179  stakingDuration */\n      0x08\n        /* \"LiquidityToken.sol\":17164:17198  stakingDuration = _stakingDuration */\n      dup2\n      swap1\n      sstore\n      pop\n        /* \"LiquidityToken.sol\":17229:17252  _campaignStakingRewards */\n      dup2\n        /* \"LiquidityToken.sol\":17204:17226  campaignStakingRewards */\n      0x0a\n        /* \"LiquidityToken.sol\":17204:17252  campaignStakingRewards = _campaignStakingRewards */\n      dup2\n      swap1\n      sstore\n      pop\n        /* \"LiquidityToken.sol\":17280:17328  totalStakingRewards.add(_campaignStakingRewards) */\n      tag_468\n        /* \"LiquidityToken.sol\":17304:17327  _campaignStakingRewards */\n      dup3\n        /* \"LiquidityToken.sol\":17280:17299  totalStakingRewards */\n      sload(0x0b)\n        /* \"LiquidityToken.sol\":17280:17303  totalStakingRewards.add */\n      tag_297\n      swap1\n        /* \"LiquidityToken.sol\":17280:17328  totalStakingRewards.add(_campaignStakingRewards) */\n      swap2\n      swap1\n      0xffffffff\n      and\n      jump\t// in\n    tag_468:\n        /* \"LiquidityToken.sol\":17258:17277  totalStakingRewards */\n      0x0b\n        /* \"LiquidityToken.sol\":17258:17328  totalStakingRewards = totalStakingRewards.add(_campaignStakingRewards) */\n      dup2\n      swap1\n      sstore\n      pop\n        /* \"LiquidityToken.sol\":17356:17404  totalTokenAllocated.add(_campaignStakingRewards) */\n      tag_469\n        /* \"LiquidityToken.sol\":17380:17403  _campaignStakingRewards */\n      dup3\n        /* \"LiquidityToken.sol\":17356:17375  totalTokenAllocated */\n      sload(0x0f)\n        /* \"LiquidityToken.sol\":17356:17379  totalTokenAllocated.add */\n      tag_297\n      swap1\n        /* \"LiquidityToken.sol\":17356:17404  totalTokenAllocated.add(_campaignStakingRewards) */\n      swap2\n      swap1\n      0xffffffff\n      and\n      jump\t// in\n    tag_469:\n        /* \"LiquidityToken.sol\":17334:17353  totalTokenAllocated */\n      0x0f\n        /* \"LiquidityToken.sol\":17334:17404  totalTokenAllocated = totalTokenAllocated.add(_campaignStakingRewards) */\n      dup2\n      swap1\n      sstore\n      pop\n        /* \"LiquidityToken.sol\":17415:17499  StakingCampaignCreated(_stakingStartDate, _stakingDuration, _campaignStakingRewards) */\n      0x612340ab30150a67355ab93f1438fa021ec7da49b6665a179e7a4f30528384dd\n        /* \"LiquidityToken.sol\":17438:17455  _stakingStartDate */\n      dup5\n        /* \"LiquidityToken.sol\":17457:17473  _stakingDuration */\n      dup5\n        /* \"LiquidityToken.sol\":17475:17498  _campaignStakingRewards */\n      dup5\n        /* \"LiquidityToken.sol\":17415:17499  StakingCampaignCreated(_stakingStartDate, _stakingDuration, _campaignStakingRewards) */\n      mload(0x40)\n      dup1\n      dup5\n      dup2\n      mstore\n      0x20\n      add\n      dup4\n      dup2\n      mstore\n      0x20\n      add\n      dup3\n      dup2\n      mstore\n      0x20\n      add\n      swap4\n      pop\n      pop\n      pop\n      pop\n      mload(0x40)\n      dup1\n      swap2\n      sub\n      swap1\n      log1\n        /* \"LiquidityToken.sol\":17505:17550  _mint(address(this), _campaignStakingRewards) */\n      tag_470\n        /* \"LiquidityToken.sol\":17519:17523  this */\n      address\n        /* \"LiquidityToken.sol\":17526:17549  _campaignStakingRewards */\n      dup4\n        /* \"LiquidityToken.sol\":17505:17510  _mint */\n      tag_351\n        /* \"LiquidityToken.sol\":17505:17550  _mint(address(this), _campaignStakingRewards) */\n      jump\t// in\n    tag_470:\n        /* \"https://github.com/OpenZeppelin/openzeppelin-contracts/blob/v3.4.2-solc-0.7/contracts/access/Ownable.sol\":1350:1351   */\n      pop\n        /* \"LiquidityToken.sol\":16187:17555  function setStakingRewards(uint _stakingStartDate, uint _stakingDuration, uint _campaignStakingRewards) ... */\n      pop\n      pop\n      pop\n      jump\t// out\n        /* \"https://github.com/OpenZeppelin/openzeppelin-contracts/blob/v3.4.2-solc-0.7/contracts/token/ERC20/ERC20.sol\":6276:6542   */\n    tag_216:\n        /* \"https://github.com/OpenZeppelin/openzeppelin-contracts/blob/v3.4.2-solc-0.7/contracts/token/ERC20/ERC20.sol\":6369:6373   */\n      0x00\n        /* \"https://github.com/OpenZeppelin/openzeppelin-contracts/blob/v3.4.2-solc-0.7/contracts/token/ERC20/ERC20.sol\":6385:6514   */\n      tag_472\n        /* \"https://github.com/OpenZeppelin/openzeppelin-contracts/blob/v3.4.2-solc-0.7/contracts/token/ERC20/ERC20.sol\":6394:6406   */\n      tag_473\n        /* \"https://github.com/OpenZeppelin/openzeppelin-contracts/blob/v3.4.2-solc-0.7/contracts/token/ERC20/ERC20.sol\":6394:6404   */\n      tag_277\n        /* \"https://github.com/OpenZeppelin/openzeppelin-contracts/blob/v3.4.2-solc-0.7/contracts/token/ERC20/ERC20.sol\":6394:6406   */\n      jump\t// in\n    tag_473:\n        /* \"https://github.com/OpenZeppelin/openzeppelin-contracts/blob/v3.4.2-solc-0.7/contracts/token/ERC20/ERC20.sol\":6408:6415   */\n      dup5\n        /* \"https://github.com/OpenZeppelin/openzeppelin-contracts/blob/v3.4.2-solc-0.7/contracts/token/ERC20/ERC20.sol\":6417:6513   */\n      tag_474\n        /* \"https://github.com/OpenZeppelin/openzeppelin-contracts/blob/v3.4.2-solc-0.7/contracts/token/ERC20/ERC20.sol\":6456:6471   */\n      dup6\n        /* \"https://github.com/OpenZeppelin/openzeppelin-contracts/blob/v3.4.2-solc-0.7/contracts/token/ERC20/ERC20.sol\":6417:6513   */\n      mload(0x40)\n      dup1\n      0x60\n      add\n      0x40\n      mstore\n      dup1\n      0x25\n      dup2\n      mstore\n      0x20\n      add\n      data_f8b476f7d28209d77d4a4ac1fe36b9f8259aa1bb6bddfa6e89de7e51615cf8a8\n      0x25\n      swap2\n      codecopy\n        /* \"https://github.com/OpenZeppelin/openzeppelin-contracts/blob/v3.4.2-solc-0.7/contracts/token/ERC20/ERC20.sol\":6417:6428   */\n      0x01\n        /* \"https://github.com/OpenZeppelin/openzeppelin-contracts/blob/v3.4.2-solc-0.7/contracts/token/ERC20/ERC20.sol\":6417:6442   */\n      0x00\n        /* \"https://github.com/OpenZeppelin/openzeppelin-contracts/blob/v3.4.2-solc-0.7/contracts/token/ERC20/ERC20.sol\":6429:6441   */\n      tag_475\n        /* \"https://github.com/OpenZeppelin/openzeppelin-contracts/blob/v3.4.2-solc-0.7/contracts/token/ERC20/ERC20.sol\":6429:6439   */\n      tag_277\n        /* \"https://github.com/OpenZeppelin/openzeppelin-contracts/blob/v3.4.2-solc-0.7/contracts/token/ERC20/ERC20.sol\":6429:6441   */\n      jump\t// in\n    tag_475:\n        /* \"https://github.com/OpenZeppelin/openzeppelin-contracts/blob/v3.4.2-solc-0.7/contracts/token/ERC20/ERC20.sol\":6417:6442   */\n      0xffffffffffffffffffffffffffffffffffffffff\n      and\n      0xffffffffffffffffffffffffffffffffffffffff\n      and\n      dup2\n      mstore\n      0x20\n      add\n      swap1\n      dup2\n      mstore\n      0x20\n      add\n      0x00\n      keccak256\n        /* \"https://github.com/OpenZeppelin/openzeppelin-contracts/blob/v3.4.2-solc-0.7/contracts/token/ERC20/ERC20.sol\":6417:6451   */\n      0x00\n        /* \"https://github.com/OpenZeppelin/openzeppelin-contracts/blob/v3.4.2-solc-0.7/contracts/token/ERC20/ERC20.sol\":6443:6450   */\n      dup11\n        /* \"https://github.com/OpenZeppelin/openzeppelin-contracts/blob/v3.4.2-solc-0.7/contracts/token/ERC20/ERC20.sol\":6417:6451   */\n      0xffffffffffffffffffffffffffffffffffffffff\n      and\n      0xffffffffffffffffffffffffffffffffffffffff\n      and\n      dup2\n      mstore\n      0x20\n      add\n      swap1\n      dup2\n      mstore\n      0x20\n      add\n      0x00\n      keccak256\n      sload\n        /* \"https://github.com/OpenZeppelin/openzeppelin-contracts/blob/v3.4.2-solc-0.7/contracts/token/ERC20/ERC20.sol\":6417:6455   */\n      tag_289\n      swap1\n        /* \"https://github.com/OpenZeppelin/openzeppelin-contracts/blob/v3.4.2-solc-0.7/contracts/token/ERC20/ERC20.sol\":6417:6513   */\n      swap3\n      swap2\n      swap1\n      0xffffffff\n      and\n      jump\t// in\n    tag_474:\n        /* \"https://github.com/OpenZeppelin/openzeppelin-contracts/blob/v3.4.2-solc-0.7/contracts/token/ERC20/ERC20.sol\":6385:6393   */\n      tag_278\n        /* \"https://github.com/OpenZeppelin/openzeppelin-contracts/blob/v3.4.2-solc-0.7/contracts/token/ERC20/ERC20.sol\":6385:6514   */\n      jump\t// in\n    tag_472:\n        /* \"https://github.com/OpenZeppelin/openzeppelin-contracts/blob/v3.4.2-solc-0.7/contracts/token/ERC20/ERC20.sol\":6531:6535   */\n      0x01\n        /* \"https://github.com/OpenZeppelin/openzeppelin-contracts/blob/v3.4.2-solc-0.7/contracts/token/ERC20/ERC20.sol\":6524:6535   */\n      swap1\n      pop\n        /* \"https://github.com/OpenZeppelin/openzeppelin-contracts/blob/v3.4.2-solc-0.7/contracts/token/ERC20/ERC20.sol\":6276:6542   */\n      swap3\n      swap2\n      pop\n      pop\n      jump\t// out\n        /* \"LiquidityToken.sol\":5158:5406  function enableOrDisableUserFunctions() public onlyOwner() {... */\n    tag_218:\n        /* \"https://github.com/OpenZeppelin/openzeppelin-contracts/blob/v3.4.2-solc-0.7/contracts/access/Ownable.sol\":1291:1303   */\n      tag_477\n        /* \"https://github.com/OpenZeppelin/openzeppelin-contracts/blob/v3.4.2-solc-0.7/contracts/access/Ownable.sol\":1291:1301   */\n      tag_277\n        /* \"https://github.com/OpenZeppelin/openzeppelin-contracts/blob/v3.4.2-solc-0.7/contracts/access/Ownable.sol\":1291:1303   */\n      jump\t// in\n    tag_477:\n        /* \"https://github.com/OpenZeppelin/openzeppelin-contracts/blob/v3.4.2-solc-0.7/contracts/access/Ownable.sol\":1280:1303   */\n      0xffffffffffffffffffffffffffffffffffffffff\n      and\n        /* \"https://github.com/OpenZeppelin/openzeppelin-contracts/blob/v3.4.2-solc-0.7/contracts/access/Ownable.sol\":1280:1287   */\n      tag_478\n        /* \"https://github.com/OpenZeppelin/openzeppelin-contracts/blob/v3.4.2-solc-0.7/contracts/access/Ownable.sol\":1280:1285   */\n      tag_189\n        /* \"https://github.com/OpenZeppelin/openzeppelin-contracts/blob/v3.4.2-solc-0.7/contracts/access/Ownable.sol\":1280:1287   */\n      jump\t// in\n    tag_478:\n        /* \"https://github.com/OpenZeppelin/openzeppelin-contracts/blob/v3.4.2-solc-0.7/contracts/access/Ownable.sol\":1280:1303   */\n      0xffffffffffffffffffffffffffffffffffffffff\n      and\n      eq\n        /* \"https://github.com/OpenZeppelin/openzeppelin-contracts/blob/v3.4.2-solc-0.7/contracts/access/Ownable.sol\":1272:1340   */\n      tag_479\n      jumpi\n      mload(0x40)\n      0x08c379a000000000000000000000000000000000000000000000000000000000\n      dup2\n      mstore\n      0x04\n      add\n      dup1\n      dup1\n      0x20\n      add\n      dup3\n      dup2\n      sub\n      dup3\n      mstore\n      0x20\n      dup2\n      mstore\n      0x20\n      add\n      dup1\n      0x4f776e61626c653a2063616c6c6572206973206e6f7420746865206f776e6572\n      dup2\n      mstore\n      pop\n      0x20\n      add\n      swap2\n      pop\n      pop\n      mload(0x40)\n      dup1\n      swap2\n      sub\n      swap1\n      revert\n    tag_479:\n        /* \"LiquidityToken.sol\":5223:5253  bool _areUserFunctionsDisabled */\n      0x00\n        /* \"LiquidityToken.sol\":5257:5281  areUserFunctionsDisabled */\n      0x11\n      0x00\n      swap1\n      sload\n      swap1\n      0x0100\n      exp\n      swap1\n      div\n      0xff\n      and\n        /* \"LiquidityToken.sol\":5256:5281  !areUserFunctionsDisabled */\n      iszero\n        /* \"LiquidityToken.sol\":5223:5281  bool _areUserFunctionsDisabled = !areUserFunctionsDisabled */\n      swap1\n      pop\n        /* \"LiquidityToken.sol\":5314:5339  _areUserFunctionsDisabled */\n      dup1\n        /* \"LiquidityToken.sol\":5287:5311  areUserFunctionsDisabled */\n      0x11\n      0x00\n        /* \"LiquidityToken.sol\":5287:5339  areUserFunctionsDisabled = _areUserFunctionsDisabled */\n      0x0100\n      exp\n      dup2\n      sload\n      dup2\n      0xff\n      mul\n      not\n      and\n      swap1\n      dup4\n      iszero\n      iszero\n      mul\n      or\n      swap1\n      sstore\n      pop\n        /* \"LiquidityToken.sol\":5350:5401  UserFunctionsAreDisabled(_areUserFunctionsDisabled) */\n      0x34d5714013380d0dd2de54669941a1e6ffeb94f624def9a559f03abd0e8e4a5c\n        /* \"LiquidityToken.sol\":5375:5400  _areUserFunctionsDisabled */\n      dup2\n        /* \"LiquidityToken.sol\":5350:5401  UserFunctionsAreDisabled(_areUserFunctionsDisabled) */\n      mload(0x40)\n      dup1\n      dup3\n      iszero\n      iszero\n      dup2\n      mstore\n      0x20\n      add\n      swap2\n      pop\n      pop\n      mload(0x40)\n      dup1\n      swap2\n      sub\n      swap1\n      log1\n        /* \"https://github.com/OpenZeppelin/openzeppelin-contracts/blob/v3.4.2-solc-0.7/contracts/access/Ownable.sol\":1350:1351   */\n      pop\n        /* \"LiquidityToken.sol\":5158:5406  function enableOrDisableUserFunctions() public onlyOwner() {... */\n      jump\t// out\n        /* \"https://github.com/OpenZeppelin/openzeppelin-contracts/blob/v3.4.2-solc-0.7/contracts/token/ERC20/ERC20.sol\":3712:3884   */\n    tag_221:\n        /* \"https://github.com/OpenZeppelin/openzeppelin-contracts/blob/v3.4.2-solc-0.7/contracts/token/ERC20/ERC20.sol\":3798:3802   */\n      0x00\n        /* \"https://github.com/OpenZeppelin/openzeppelin-contracts/blob/v3.4.2-solc-0.7/contracts/token/ERC20/ERC20.sol\":3814:3856   */\n      tag_482\n        /* \"https://github.com/OpenZeppelin/openzeppelin-contracts/blob/v3.4.2-solc-0.7/contracts/token/ERC20/ERC20.sol\":3824:3836   */\n      tag_483\n        /* \"https://github.com/OpenZeppelin/openzeppelin-contracts/blob/v3.4.2-solc-0.7/contracts/token/ERC20/ERC20.sol\":3824:3834   */\n      tag_277\n        /* \"https://github.com/OpenZeppelin/openzeppelin-contracts/blob/v3.4.2-solc-0.7/contracts/token/ERC20/ERC20.sol\":3824:3836   */\n      jump\t// in\n    tag_483:\n        /* \"https://github.com/OpenZeppelin/openzeppelin-contracts/blob/v3.4.2-solc-0.7/contracts/token/ERC20/ERC20.sol\":3838:3847   */\n      dup5\n        /* \"https://github.com/OpenZeppelin/openzeppelin-contracts/blob/v3.4.2-solc-0.7/contracts/token/ERC20/ERC20.sol\":3849:3855   */\n      dup5\n        /* \"https://github.com/OpenZeppelin/openzeppelin-contracts/blob/v3.4.2-solc-0.7/contracts/token/ERC20/ERC20.sol\":3814:3823   */\n      tag_284\n        /* \"https://github.com/OpenZeppelin/openzeppelin-contracts/blob/v3.4.2-solc-0.7/contracts/token/ERC20/ERC20.sol\":3814:3856   */\n      jump\t// in\n    tag_482:\n        /* \"https://github.com/OpenZeppelin/openzeppelin-contracts/blob/v3.4.2-solc-0.7/contracts/token/ERC20/ERC20.sol\":3873:3877   */\n      0x01\n        /* \"https://github.com/OpenZeppelin/openzeppelin-contracts/blob/v3.4.2-solc-0.7/contracts/token/ERC20/ERC20.sol\":3866:3877   */\n      swap1\n      pop\n        /* \"https://github.com/OpenZeppelin/openzeppelin-contracts/blob/v3.4.2-solc-0.7/contracts/token/ERC20/ERC20.sol\":3712:3884   */\n      swap3\n      swap2\n      pop\n      pop\n      jump\t// out\n        /* \"LiquidityToken.sol\":957:997  uint public withdrawFeesPerThousandForLT */\n    tag_223:\n      sload(0x10)\n      dup2\n      jump\t// out\n        /* \"LiquidityToken.sol\":11379:11712  function changeFundraisingStatus() public onlyOwner() {... */\n    tag_225:\n        /* \"https://github.com/OpenZeppelin/openzeppelin-contracts/blob/v3.4.2-solc-0.7/contracts/access/Ownable.sol\":1291:1303   */\n      tag_485\n        /* \"https://github.com/OpenZeppelin/openzeppelin-contracts/blob/v3.4.2-solc-0.7/contracts/access/Ownable.sol\":1291:1301   */\n      tag_277\n        /* \"https://github.com/OpenZeppelin/openzeppelin-contracts/blob/v3.4.2-solc-0.7/contracts/access/Ownable.sol\":1291:1303   */\n      jump\t// in\n    tag_485:\n        /* \"https://github.com/OpenZeppelin/openzeppelin-contracts/blob/v3.4.2-solc-0.7/contracts/access/Ownable.sol\":1280:1303   */\n      0xffffffffffffffffffffffffffffffffffffffff\n      and\n        /* \"https://github.com/OpenZeppelin/openzeppelin-contracts/blob/v3.4.2-solc-0.7/contracts/access/Ownable.sol\":1280:1287   */\n      tag_486\n        /* \"https://github.com/OpenZeppelin/openzeppelin-contracts/blob/v3.4.2-solc-0.7/contracts/access/Ownable.sol\":1280:1285   */\n      tag_189\n        /* \"https://github.com/OpenZeppelin/openzeppelin-contracts/blob/v3.4.2-solc-0.7/contracts/access/Ownable.sol\":1280:1287   */\n      jump\t// in\n    tag_486:\n        /* \"https://github.com/OpenZeppelin/openzeppelin-contracts/blob/v3.4.2-solc-0.7/contracts/access/Ownable.sol\":1280:1303   */\n      0xffffffffffffffffffffffffffffffffffffffff\n      and\n      eq\n        /* \"https://github.com/OpenZeppelin/openzeppelin-contracts/blob/v3.4.2-solc-0.7/contracts/access/Ownable.sol\":1272:1340   */\n      tag_487\n      jumpi\n      mload(0x40)\n      0x08c379a000000000000000000000000000000000000000000000000000000000\n      dup2\n      mstore\n      0x04\n      add\n      dup1\n      dup1\n      0x20\n      add\n      dup3\n      dup2\n      sub\n      dup3\n      mstore\n      0x20\n      dup2\n      mstore\n      0x20\n      add\n      dup1\n      0x4f776e61626c653a2063616c6c6572206973206e6f7420746865206f776e6572\n      dup2\n      mstore\n      pop\n      0x20\n      add\n      swap2\n      pop\n      pop\n      mload(0x40)\n      dup1\n      swap2\n      sub\n      swap1\n      revert\n    tag_487:\n        /* \"LiquidityToken.sol\":11440:11495  checkAllocationsNotTerminatedAndProjectNotYetLaunched() */\n      tag_489\n        /* \"LiquidityToken.sol\":11440:11493  checkAllocationsNotTerminatedAndProjectNotYetLaunched */\n      tag_304\n        /* \"LiquidityToken.sol\":11440:11495  checkAllocationsNotTerminatedAndProjectNotYetLaunched() */\n      jump\t// in\n    tag_489:\n        /* \"LiquidityToken.sol\":11545:11548  0x0 */\n      0x00\n        /* \"LiquidityToken.sol\":11517:11549  fundraisingToken != address(0x0) */\n      0xffffffffffffffffffffffffffffffffffffffff\n      and\n        /* \"LiquidityToken.sol\":11517:11533  fundraisingToken */\n      0x16\n      0x00\n      swap1\n      sload\n      swap1\n      0x0100\n      exp\n      swap1\n      div\n      0xffffffffffffffffffffffffffffffffffffffff\n      and\n        /* \"LiquidityToken.sol\":11517:11549  fundraisingToken != address(0x0) */\n      0xffffffffffffffffffffffffffffffffffffffff\n      and\n      eq\n      iszero\n        /* \"LiquidityToken.sol\":11517:11580  fundraisingToken != address(0x0)... */\n      dup1\n      iszero\n      tag_490\n      jumpi\n      pop\n        /* \"LiquidityToken.sol\":11579:11580  0 */\n      0x00\n        /* \"LiquidityToken.sol\":11559:11576  priceTokenPer1e18 */\n      sload(0x15)\n        /* \"LiquidityToken.sol\":11559:11580  priceTokenPer1e18 > 0 */\n      gt\n        /* \"LiquidityToken.sol\":11517:11580  fundraisingToken != address(0x0)... */\n    tag_490:\n        /* \"LiquidityToken.sol\":11502:11621  require(... */\n      tag_491\n      jumpi\n      mload(0x40)\n      0x08c379a000000000000000000000000000000000000000000000000000000000\n      dup2\n      mstore\n      0x04\n      add\n      dup1\n      dup1\n      0x20\n      add\n      dup3\n      dup2\n      sub\n      dup3\n      mstore\n      0x1e\n      dup2\n      mstore\n      0x20\n      add\n      dup1\n      0x66756e6472616973696e6720636f6e646974696f6e73206e6f74207365740000\n      dup2\n      mstore\n      pop\n      0x20\n      add\n      swap2\n      pop\n      pop\n      mload(0x40)\n      dup1\n      swap2\n      sub\n      swap1\n      revert\n    tag_491:\n        /* \"LiquidityToken.sol\":11651:11670  isFundraisingActive */\n      0x16\n      0x14\n      swap1\n      sload\n      swap1\n      0x0100\n      exp\n      swap1\n      div\n      0xff\n      and\n        /* \"LiquidityToken.sol\":11650:11670  !isFundraisingActive */\n      iszero\n        /* \"LiquidityToken.sol\":11628:11647  isFundraisingActive */\n      0x16\n      0x14\n        /* \"LiquidityToken.sol\":11628:11670  isFundraisingActive = !isFundraisingActive */\n      0x0100\n      exp\n      dup2\n      sload\n      dup2\n      0xff\n      mul\n      not\n      and\n      swap1\n      dup4\n      iszero\n      iszero\n      mul\n      or\n      swap1\n      sstore\n      pop\n        /* \"LiquidityToken.sol\":11681:11707  FundraisingStatusChanged() */\n      0x0f6ae9076fe3e43ad95110a1c5acd02c62ec5f1bf82c64f45ebd383fd6ac5f0d\n      mload(0x40)\n      mload(0x40)\n      dup1\n      swap2\n      sub\n      swap1\n      log1\n        /* \"LiquidityToken.sol\":11379:11712  function changeFundraisingStatus() public onlyOwner() {... */\n      jump\t// out\n        /* \"LiquidityToken.sol\":17561:17837  function updateWithdrawalFeesForLT(uint _valuePerThousand) public onlyOwner() {... */\n    tag_228:\n        /* \"https://github.com/OpenZeppelin/openzeppelin-contracts/blob/v3.4.2-solc-0.7/contracts/access/Ownable.sol\":1291:1303   */\n      tag_493\n        /* \"https://github.com/OpenZeppelin/openzeppelin-contracts/blob/v3.4.2-solc-0.7/contracts/access/Ownable.sol\":1291:1301   */\n      tag_277\n        /* \"https://github.com/OpenZeppelin/openzeppelin-contracts/blob/v3.4.2-solc-0.7/contracts/access/Ownable.sol\":1291:1303   */\n      jump\t// in\n    tag_493:\n        /* \"https://github.com/OpenZeppelin/openzeppelin-contracts/blob/v3.4.2-solc-0.7/contracts/access/Ownable.sol\":1280:1303   */\n      0xffffffffffffffffffffffffffffffffffffffff\n      and\n        /* \"https://github.com/OpenZeppelin/openzeppelin-contracts/blob/v3.4.2-solc-0.7/contracts/access/Ownable.sol\":1280:1287   */\n      tag_494\n        /* \"https://github.com/OpenZeppelin/openzeppelin-contracts/blob/v3.4.2-solc-0.7/contracts/access/Ownable.sol\":1280:1285   */\n      tag_189\n        /* \"https://github.com/OpenZeppelin/openzeppelin-contracts/blob/v3.4.2-solc-0.7/contracts/access/Ownable.sol\":1280:1287   */\n      jump\t// in\n    tag_494:\n        /* \"https://github.com/OpenZeppelin/openzeppelin-contracts/blob/v3.4.2-solc-0.7/contracts/access/Ownable.sol\":1280:1303   */\n      0xffffffffffffffffffffffffffffffffffffffff\n      and\n      eq\n        /* \"https://github.com/OpenZeppelin/openzeppelin-contracts/blob/v3.4.2-solc-0.7/contracts/access/Ownable.sol\":1272:1340   */\n      tag_495\n      jumpi\n      mload(0x40)\n      0x08c379a000000000000000000000000000000000000000000000000000000000\n      dup2\n      mstore\n      0x04\n      add\n      dup1\n      dup1\n      0x20\n      add\n      dup3\n      dup2\n      sub\n      dup3\n      mstore\n      0x20\n      dup2\n      mstore\n      0x20\n      add\n      dup1\n      0x4f776e61626c653a2063616c6c6572206973206e6f7420746865206f776e6572\n      dup2\n      mstore\n      pop\n      0x20\n      add\n      swap2\n      pop\n      pop\n      mload(0x40)\n      dup1\n      swap2\n      sub\n      swap1\n      revert\n    tag_495:\n        /* \"LiquidityToken.sol\":17674:17705  maxWithdrawFeesPerThousandForLT */\n      immutable(\"0xcd3b8a75131b09c18fac61f93bac9440f7b768b1c243a93eca5a67eb03b07828\")\n        /* \"LiquidityToken.sol\":17653:17670  _valuePerThousand */\n      dup2\n        /* \"LiquidityToken.sol\":17653:17705  _valuePerThousand <= maxWithdrawFeesPerThousandForLT */\n      gt\n      iszero\n        /* \"LiquidityToken.sol\":17645:17723  require(_valuePerThousand <= maxWithdrawFeesPerThousandForLT, \"Invalid value\") */\n      tag_497\n      jumpi\n      mload(0x40)\n      0x08c379a000000000000000000000000000000000000000000000000000000000\n      dup2\n      mstore\n      0x04\n      add\n      dup1\n      dup1\n      0x20\n      add\n      dup3\n      dup2\n      sub\n      dup3\n      mstore\n      0x0d\n      dup2\n      mstore\n      0x20\n      add\n      dup1\n      0x496e76616c69642076616c756500000000000000000000000000000000000000\n      dup2\n      mstore\n      pop\n      0x20\n      add\n      swap2\n      pop\n      pop\n      mload(0x40)\n      dup1\n      swap2\n      sub\n      swap1\n      revert\n    tag_497:\n        /* \"LiquidityToken.sol\":17760:17777  _valuePerThousand */\n      dup1\n        /* \"LiquidityToken.sol\":17729:17757  withdrawFeesPerThousandForLT */\n      0x10\n        /* \"LiquidityToken.sol\":17729:17777  withdrawFeesPerThousandForLT = _valuePerThousand */\n      dup2\n      swap1\n      sstore\n      pop\n        /* \"LiquidityToken.sol\":17788:17828  WithdrawalFeesUpdated(_valuePerThousand) */\n      0x74cd83192c2667eba495e3b4578522f84af3168fbb19d3bed7729a03bd5e2a41\n        /* \"LiquidityToken.sol\":17810:17827  _valuePerThousand */\n      dup2\n        /* \"LiquidityToken.sol\":17788:17828  WithdrawalFeesUpdated(_valuePerThousand) */\n      mload(0x40)\n      dup1\n      dup3\n      dup2\n      mstore\n      0x20\n      add\n      swap2\n      pop\n      pop\n      mload(0x40)\n      dup1\n      swap2\n      sub\n      swap1\n      log1\n        /* \"LiquidityToken.sol\":17561:17837  function updateWithdrawalFeesForLT(uint _valuePerThousand) public onlyOwner() {... */\n      pop\n      jump\t// out\n        /* \"LiquidityToken.sol\":898:918  uint public stakedLT */\n    tag_230:\n      sload(0x0e)\n      dup2\n      jump\t// out\n        /* \"LiquidityToken.sol\":15469:16183  function depositLT(uint _value) public {... */\n    tag_233:\n        /* \"LiquidityToken.sol\":15518:15553  ensureUserFunctionsAreNotDisabled() */\n      tag_499\n        /* \"LiquidityToken.sol\":15518:15551  ensureUserFunctionsAreNotDisabled */\n      tag_102\n        /* \"LiquidityToken.sol\":15518:15553  ensureUserFunctionsAreNotDisabled() */\n      jump\t// in\n    tag_499:\n        /* \"LiquidityToken.sol\":15585:15606  balanceOf(msg.sender) */\n      tag_500\n        /* \"LiquidityToken.sol\":15595:15605  msg.sender */\n      caller\n        /* \"LiquidityToken.sol\":15585:15594  balanceOf */\n      tag_155\n        /* \"LiquidityToken.sol\":15585:15606  balanceOf(msg.sender) */\n      jump\t// in\n    tag_500:\n        /* \"LiquidityToken.sol\":15575:15581  _value */\n      dup2\n        /* \"LiquidityToken.sol\":15575:15606  _value <= balanceOf(msg.sender) */\n      gt\n      iszero\n        /* \"LiquidityToken.sol\":15560:15644  require(... */\n      tag_501\n      jumpi\n      mload(0x40)\n      0x08c379a000000000000000000000000000000000000000000000000000000000\n      dup2\n      mstore\n      0x04\n      add\n      dup1\n      dup1\n      0x20\n      add\n      dup3\n      dup2\n      sub\n      dup3\n      mstore\n      0x14\n      dup2\n      mstore\n      0x20\n      add\n      dup1\n      0x496e73756666696369656e742062616c616e6365000000000000000000000000\n      dup2\n      mstore\n      pop\n      0x20\n      add\n      swap2\n      pop\n      pop\n      mload(0x40)\n      dup1\n      swap2\n      sub\n      swap1\n      revert\n    tag_501:\n        /* \"LiquidityToken.sol\":15655:15672  uint _hodlRewards */\n      0x00\n        /* \"LiquidityToken.sol\":15675:15717  updateStakingAndGetHodlRewards(msg.sender) */\n      tag_502\n        /* \"LiquidityToken.sol\":15706:15716  msg.sender */\n      caller\n        /* \"LiquidityToken.sol\":15675:15705  updateStakingAndGetHodlRewards */\n      tag_342\n        /* \"LiquidityToken.sol\":15675:15717  updateStakingAndGetHodlRewards(msg.sender) */\n      jump\t// in\n    tag_502:\n        /* \"LiquidityToken.sol\":15655:15717  uint _hodlRewards = updateStakingAndGetHodlRewards(msg.sender) */\n      swap1\n      pop\n        /* \"LiquidityToken.sol\":15723:15745  uint _valueWithRewards */\n      0x00\n        /* \"LiquidityToken.sol\":15748:15772  _value.add(_hodlRewards) */\n      tag_503\n        /* \"LiquidityToken.sol\":15759:15771  _hodlRewards */\n      dup3\n        /* \"LiquidityToken.sol\":15748:15754  _value */\n      dup5\n        /* \"LiquidityToken.sol\":15748:15758  _value.add */\n      tag_297\n      swap1\n        /* \"LiquidityToken.sol\":15748:15772  _value.add(_hodlRewards) */\n      swap2\n      swap1\n      0xffffffff\n      and\n      jump\t// in\n    tag_503:\n        /* \"LiquidityToken.sol\":15723:15772  uint _valueWithRewards = _value.add(_hodlRewards) */\n      swap1\n      pop\n        /* \"LiquidityToken.sol\":15828:15897  userLiquiToken[msg.sender].fullyChargedBalance.add(_valueWithRewards) */\n      tag_504\n        /* \"LiquidityToken.sol\":15879:15896  _valueWithRewards */\n      dup2\n        /* \"LiquidityToken.sol\":15828:15842  userLiquiToken */\n      0x13\n        /* \"LiquidityToken.sol\":15828:15854  userLiquiToken[msg.sender] */\n      0x00\n        /* \"LiquidityToken.sol\":15843:15853  msg.sender */\n      caller\n        /* \"LiquidityToken.sol\":15828:15854  userLiquiToken[msg.sender] */\n      0xffffffffffffffffffffffffffffffffffffffff\n      and\n      0xffffffffffffffffffffffffffffffffffffffff\n      and\n      dup2\n      mstore\n      0x20\n      add\n      swap1\n      dup2\n      mstore\n      0x20\n      add\n      0x00\n      keccak256\n        /* \"LiquidityToken.sol\":15828:15874  userLiquiToken[msg.sender].fullyChargedBalance */\n      0x00\n      add\n      sload\n        /* \"LiquidityToken.sol\":15828:15878  userLiquiToken[msg.sender].fullyChargedBalance.add */\n      tag_297\n      swap1\n        /* \"LiquidityToken.sol\":15828:15897  userLiquiToken[msg.sender].fullyChargedBalance.add(_valueWithRewards) */\n      swap2\n      swap1\n      0xffffffff\n      and\n      jump\t// in\n    tag_504:\n        /* \"LiquidityToken.sol\":15779:15793  userLiquiToken */\n      0x13\n        /* \"LiquidityToken.sol\":15779:15805  userLiquiToken[msg.sender] */\n      0x00\n        /* \"LiquidityToken.sol\":15794:15804  msg.sender */\n      caller\n        /* \"LiquidityToken.sol\":15779:15805  userLiquiToken[msg.sender] */\n      0xffffffffffffffffffffffffffffffffffffffff\n      and\n      0xffffffffffffffffffffffffffffffffffffffff\n      and\n      dup2\n      mstore\n      0x20\n      add\n      swap1\n      dup2\n      mstore\n      0x20\n      add\n      0x00\n      keccak256\n        /* \"LiquidityToken.sol\":15779:15825  userLiquiToken[msg.sender].fullyChargedBalance */\n      0x00\n      add\n        /* \"LiquidityToken.sol\":15779:15897  userLiquiToken[msg.sender].fullyChargedBalance = userLiquiToken[msg.sender].fullyChargedBalance.add(_valueWithRewards) */\n      dup2\n      swap1\n      sstore\n      pop\n        /* \"LiquidityToken.sol\":15908:15967  IncreasedFullyChargedBalance(msg.sender, _valueWithRewards) */\n      0xae2006c94e89f8083efda0c0a1d0c7d6fef3ec90d68506aa822854f3ba31f9cf\n        /* \"LiquidityToken.sol\":15937:15947  msg.sender */\n      caller\n        /* \"LiquidityToken.sol\":15949:15966  _valueWithRewards */\n      dup3\n        /* \"LiquidityToken.sol\":15908:15967  IncreasedFullyChargedBalance(msg.sender, _valueWithRewards) */\n      mload(0x40)\n      dup1\n      dup4\n      0xffffffffffffffffffffffffffffffffffffffff\n      and\n      dup2\n      mstore\n      0x20\n      add\n      dup3\n      dup2\n      mstore\n      0x20\n      add\n      swap3\n      pop\n      pop\n      pop\n      mload(0x40)\n      dup1\n      swap2\n      sub\n      swap1\n      log1\n        /* \"LiquidityToken.sol\":15984:16015  stakedLT.add(_valueWithRewards) */\n      tag_505\n        /* \"LiquidityToken.sol\":15997:16014  _valueWithRewards */\n      dup2\n        /* \"LiquidityToken.sol\":15984:15992  stakedLT */\n      sload(0x0e)\n        /* \"LiquidityToken.sol\":15984:15996  stakedLT.add */\n      tag_297\n      swap1\n        /* \"LiquidityToken.sol\":15984:16015  stakedLT.add(_valueWithRewards) */\n      swap2\n      swap1\n      0xffffffff\n      and\n      jump\t// in\n    tag_505:\n        /* \"LiquidityToken.sol\":15973:15981  stakedLT */\n      0x0e\n        /* \"LiquidityToken.sol\":15973:16015  stakedLT = stakedLT.add(_valueWithRewards) */\n      dup2\n      swap1\n      sstore\n      pop\n        /* \"LiquidityToken.sol\":16026:16062  IncreasedStakedLT(_valueWithRewards) */\n      0x12129930c15dad4632242378dc39162db4c36a82482777c2e8f791d3752bb70f\n        /* \"LiquidityToken.sol\":16044:16061  _valueWithRewards */\n      dup2\n        /* \"LiquidityToken.sol\":16026:16062  IncreasedStakedLT(_valueWithRewards) */\n      mload(0x40)\n      dup1\n      dup3\n      dup2\n      mstore\n      0x20\n      add\n      swap2\n      pop\n      pop\n      mload(0x40)\n      dup1\n      swap2\n      sub\n      swap1\n      log1\n        /* \"LiquidityToken.sol\":16073:16117  _transfer(msg.sender, address(this), _value) */\n      tag_506\n        /* \"LiquidityToken.sol\":16083:16093  msg.sender */\n      caller\n        /* \"LiquidityToken.sol\":16103:16107  this */\n      address\n        /* \"LiquidityToken.sol\":16110:16116  _value */\n      dup6\n        /* \"LiquidityToken.sol\":16073:16082  _transfer */\n      tag_284\n        /* \"LiquidityToken.sol\":16073:16117  _transfer(msg.sender, address(this), _value) */\n      jump\t// in\n    tag_506:\n        /* \"LiquidityToken.sol\":16133:16178  LTDeposited(msg.sender, _value, _hodlRewards) */\n      0x6f5036100ec84840f4ca7c243e6ca7c042949756211bdfb358406a77dc41a42e\n        /* \"LiquidityToken.sol\":16145:16155  msg.sender */\n      caller\n        /* \"LiquidityToken.sol\":16157:16163  _value */\n      dup5\n        /* \"LiquidityToken.sol\":16165:16177  _hodlRewards */\n      dup5\n        /* \"LiquidityToken.sol\":16133:16178  LTDeposited(msg.sender, _value, _hodlRewards) */\n      mload(0x40)\n      dup1\n      dup5\n      0xffffffffffffffffffffffffffffffffffffffff\n      and\n      dup2\n      mstore\n      0x20\n      add\n      dup4\n      dup2\n      mstore\n      0x20\n      add\n      dup3\n      dup2\n      mstore\n      0x20\n      add\n      swap4\n      pop\n      pop\n      pop\n      pop\n      mload(0x40)\n      dup1\n      swap2\n      sub\n      swap1\n      log1\n        /* \"LiquidityToken.sol\":15469:16183  function depositLT(uint _value) public {... */\n      pop\n      pop\n      pop\n      jump\t// out\n        /* \"LiquidityToken.sol\":20164:20288  function mintByInterfaceProjectToken(uint _value) public onlyInterfaceProjectToken() {... */\n    tag_236:\n        /* \"LiquidityToken.sol\":18244:18277  ensureOnlyInterfaceProjectToken() */\n      tag_508\n        /* \"LiquidityToken.sol\":18244:18275  ensureOnlyInterfaceProjectToken */\n      tag_397\n        /* \"LiquidityToken.sol\":18244:18277  ensureOnlyInterfaceProjectToken() */\n      jump\t// in\n    tag_508:\n        /* \"LiquidityToken.sol\":20255:20283  _mint(address(this), _value) */\n      tag_510\n        /* \"LiquidityToken.sol\":20269:20273  this */\n      address\n        /* \"LiquidityToken.sol\":20276:20282  _value */\n      dup3\n        /* \"LiquidityToken.sol\":20255:20260  _mint */\n      tag_351\n        /* \"LiquidityToken.sol\":20255:20283  _mint(address(this), _value) */\n      jump\t// in\n    tag_510:\n        /* \"LiquidityToken.sol\":20164:20288  function mintByInterfaceProjectToken(uint _value) public onlyInterfaceProjectToken() {... */\n      pop\n      jump\t// out\n        /* \"LiquidityToken.sol\":5569:5974  function setInterfaceProjectToken(InterfaceProjectToken _interfaceProjectToken)... */\n    tag_239:\n        /* \"https://github.com/OpenZeppelin/openzeppelin-contracts/blob/v3.4.2-solc-0.7/contracts/access/Ownable.sol\":1291:1303   */\n      tag_512\n        /* \"https://github.com/OpenZeppelin/openzeppelin-contracts/blob/v3.4.2-solc-0.7/contracts/access/Ownable.sol\":1291:1301   */\n      tag_277\n        /* \"https://github.com/OpenZeppelin/openzeppelin-contracts/blob/v3.4.2-solc-0.7/contracts/access/Ownable.sol\":1291:1303   */\n      jump\t// in\n    tag_512:\n        /* \"https://github.com/OpenZeppelin/openzeppelin-contracts/blob/v3.4.2-solc-0.7/contracts/access/Ownable.sol\":1280:1303   */\n      0xffffffffffffffffffffffffffffffffffffffff\n      and\n        /* \"https://github.com/OpenZeppelin/openzeppelin-contracts/blob/v3.4.2-solc-0.7/contracts/access/Ownable.sol\":1280:1287   */\n      tag_513\n        /* \"https://github.com/OpenZeppelin/openzeppelin-contracts/blob/v3.4.2-solc-0.7/contracts/access/Ownable.sol\":1280:1285   */\n      tag_189\n        /* \"https://github.com/OpenZeppelin/openzeppelin-contracts/blob/v3.4.2-solc-0.7/contracts/access/Ownable.sol\":1280:1287   */\n      jump\t// in\n    tag_513:\n        /* \"https://github.com/OpenZeppelin/openzeppelin-contracts/blob/v3.4.2-solc-0.7/contracts/access/Ownable.sol\":1280:1303   */\n      0xffffffffffffffffffffffffffffffffffffffff\n      and\n      eq\n        /* \"https://github.com/OpenZeppelin/openzeppelin-contracts/blob/v3.4.2-solc-0.7/contracts/access/Ownable.sol\":1272:1340   */\n      tag_514\n      jumpi\n      mload(0x40)\n      0x08c379a000000000000000000000000000000000000000000000000000000000\n      dup2\n      mstore\n      0x04\n      add\n      dup1\n      dup1\n      0x20\n      add\n      dup3\n      dup2\n      sub\n      dup3\n      mstore\n      0x20\n      dup2\n      mstore\n      0x20\n      add\n      dup1\n      0x4f776e61626c653a2063616c6c6572206973206e6f7420746865206f776e6572\n      dup2\n      mstore\n      pop\n      0x20\n      add\n      swap2\n      pop\n      pop\n      mload(0x40)\n      dup1\n      swap2\n      sub\n      swap1\n      revert\n    tag_514:\n        /* \"LiquidityToken.sol\":5737:5740  0x0 */\n      0x00\n        /* \"LiquidityToken.sol\":5694:5741  address(_interfaceProjectToken) != address(0x0) */\n      0xffffffffffffffffffffffffffffffffffffffff\n      and\n        /* \"LiquidityToken.sol\":5702:5724  _interfaceProjectToken */\n      dup2\n        /* \"LiquidityToken.sol\":5694:5741  address(_interfaceProjectToken) != address(0x0) */\n      0xffffffffffffffffffffffffffffffffffffffff\n      and\n      eq\n      iszero\n        /* \"LiquidityToken.sol\":5679:5767  require(... */\n      tag_516\n      jumpi\n      mload(0x40)\n      0x08c379a000000000000000000000000000000000000000000000000000000000\n      dup2\n      mstore\n      0x04\n      add\n      dup1\n      dup1\n      0x20\n      add\n      dup3\n      dup2\n      sub\n      dup3\n      mstore\n      0x0f\n      dup2\n      mstore\n      0x20\n      add\n      dup1\n      0x496e76616c696420616464726573730000000000000000000000000000000000\n      dup2\n      mstore\n      pop\n      0x20\n      add\n      swap2\n      pop\n      pop\n      mload(0x40)\n      dup1\n      swap2\n      sub\n      swap1\n      revert\n    tag_516:\n        /* \"LiquidityToken.sol\":5825:5830  false */\n      0x00\n        /* \"LiquidityToken.sol\":5792:5830  isInterfaceProjectTokenLocked == false */\n      iszero\n      iszero\n        /* \"LiquidityToken.sol\":5792:5821  isInterfaceProjectTokenLocked */\n      0x11\n      0x01\n      swap1\n      sload\n      swap1\n      0x0100\n      exp\n      swap1\n      div\n      0xff\n      and\n        /* \"LiquidityToken.sol\":5792:5830  isInterfaceProjectTokenLocked == false */\n      iszero\n      iszero\n      eq\n        /* \"LiquidityToken.sol\":5777:5857  require(... */\n      tag_517\n      jumpi\n      mload(0x40)\n      0x08c379a000000000000000000000000000000000000000000000000000000000\n      dup2\n      mstore\n      0x04\n      add\n      dup1\n      dup1\n      0x20\n      add\n      dup3\n      dup2\n      sub\n      dup3\n      mstore\n      0x10\n      dup2\n      mstore\n      0x20\n      add\n      dup1\n      0x696e74657266616365206c6f636b656400000000000000000000000000000000\n      dup2\n      mstore\n      pop\n      0x20\n      add\n      swap2\n      pop\n      pop\n      mload(0x40)\n      dup1\n      swap2\n      sub\n      swap1\n      revert\n    tag_517:\n        /* \"LiquidityToken.sol\":5888:5910  _interfaceProjectToken */\n      dup1\n        /* \"LiquidityToken.sol\":5864:5885  interfaceProjectToken */\n      0x06\n      0x00\n        /* \"LiquidityToken.sol\":5864:5910  interfaceProjectToken = _interfaceProjectToken */\n      0x0100\n      exp\n      dup2\n      sload\n      dup2\n      0xffffffffffffffffffffffffffffffffffffffff\n      mul\n      not\n      and\n      swap1\n      dup4\n      0xffffffffffffffffffffffffffffffffffffffff\n      and\n      mul\n      or\n      swap1\n      sstore\n      pop\n        /* \"LiquidityToken.sol\":5921:5969  InterfaceProjectTokenSet(_interfaceProjectToken) */\n      0xdbfb95fe8e19209e063b2852c867a8aa47acd7eb4ab8cf1e3ba86e046c196ad1\n        /* \"LiquidityToken.sol\":5946:5968  _interfaceProjectToken */\n      dup2\n        /* \"LiquidityToken.sol\":5921:5969  InterfaceProjectTokenSet(_interfaceProjectToken) */\n      mload(0x40)\n      dup1\n      dup3\n      0xffffffffffffffffffffffffffffffffffffffff\n      and\n      dup2\n      mstore\n      0x20\n      add\n      swap2\n      pop\n      pop\n      mload(0x40)\n      dup1\n      swap2\n      sub\n      swap1\n      log1\n        /* \"LiquidityToken.sol\":5569:5974  function setInterfaceProjectToken(InterfaceProjectToken _interfaceProjectToken)... */\n      pop\n      jump\t// out\n        /* \"https://github.com/OpenZeppelin/openzeppelin-contracts/blob/v3.4.2-solc-0.7/contracts/token/ERC20/ERC20.sol\":3942:4091   */\n    tag_242:\n        /* \"https://github.com/OpenZeppelin/openzeppelin-contracts/blob/v3.4.2-solc-0.7/contracts/token/ERC20/ERC20.sol\":4031:4038   */\n      0x00\n        /* \"https://github.com/OpenZeppelin/openzeppelin-contracts/blob/v3.4.2-solc-0.7/contracts/token/ERC20/ERC20.sol\":4057:4068   */\n      0x01\n        /* \"https://github.com/OpenZeppelin/openzeppelin-contracts/blob/v3.4.2-solc-0.7/contracts/token/ERC20/ERC20.sol\":4057:4075   */\n      0x00\n        /* \"https://github.com/OpenZeppelin/openzeppelin-contracts/blob/v3.4.2-solc-0.7/contracts/token/ERC20/ERC20.sol\":4069:4074   */\n      dup5\n        /* \"https://github.com/OpenZeppelin/openzeppelin-contracts/blob/v3.4.2-solc-0.7/contracts/token/ERC20/ERC20.sol\":4057:4075   */\n      0xffffffffffffffffffffffffffffffffffffffff\n      and\n      0xffffffffffffffffffffffffffffffffffffffff\n      and\n      dup2\n      mstore\n      0x20\n      add\n      swap1\n      dup2\n      mstore\n      0x20\n      add\n      0x00\n      keccak256\n        /* \"https://github.com/OpenZeppelin/openzeppelin-contracts/blob/v3.4.2-solc-0.7/contracts/token/ERC20/ERC20.sol\":4057:4084   */\n      0x00\n        /* \"https://github.com/OpenZeppelin/openzeppelin-contracts/blob/v3.4.2-solc-0.7/contracts/token/ERC20/ERC20.sol\":4076:4083   */\n      dup4\n        /* \"https://github.com/OpenZeppelin/openzeppelin-contracts/blob/v3.4.2-solc-0.7/contracts/token/ERC20/ERC20.sol\":4057:4084   */\n      0xffffffffffffffffffffffffffffffffffffffff\n      and\n      0xffffffffffffffffffffffffffffffffffffffff\n      and\n      dup2\n      mstore\n      0x20\n      add\n      swap1\n      dup2\n      mstore\n      0x20\n      add\n      0x00\n      keccak256\n      sload\n        /* \"https://github.com/OpenZeppelin/openzeppelin-contracts/blob/v3.4.2-solc-0.7/contracts/token/ERC20/ERC20.sol\":4050:4084   */\n      swap1\n      pop\n        /* \"https://github.com/OpenZeppelin/openzeppelin-contracts/blob/v3.4.2-solc-0.7/contracts/token/ERC20/ERC20.sol\":3942:4091   */\n      swap3\n      swap2\n      pop\n      pop\n      jump\t// out\n        /* \"LiquidityToken.sol\":6215:7988  function allocateLTByOwner(address[] memory _users, uint[] memory _values, bool _areAllocationsToBeStaked)... */\n    tag_251:\n        /* \"https://github.com/OpenZeppelin/openzeppelin-contracts/blob/v3.4.2-solc-0.7/contracts/access/Ownable.sol\":1291:1303   */\n      tag_520\n        /* \"https://github.com/OpenZeppelin/openzeppelin-contracts/blob/v3.4.2-solc-0.7/contracts/access/Ownable.sol\":1291:1301   */\n      tag_277\n        /* \"https://github.com/OpenZeppelin/openzeppelin-contracts/blob/v3.4.2-solc-0.7/contracts/access/Ownable.sol\":1291:1303   */\n      jump\t// in\n    tag_520:\n        /* \"https://github.com/OpenZeppelin/openzeppelin-contracts/blob/v3.4.2-solc-0.7/contracts/access/Ownable.sol\":1280:1303   */\n      0xffffffffffffffffffffffffffffffffffffffff\n      and\n        /* \"https://github.com/OpenZeppelin/openzeppelin-contracts/blob/v3.4.2-solc-0.7/contracts/access/Ownable.sol\":1280:1287   */\n      tag_521\n        /* \"https://github.com/OpenZeppelin/openzeppelin-contracts/blob/v3.4.2-solc-0.7/contracts/access/Ownable.sol\":1280:1285   */\n      tag_189\n        /* \"https://github.com/OpenZeppelin/openzeppelin-contracts/blob/v3.4.2-solc-0.7/contracts/access/Ownable.sol\":1280:1287   */\n      jump\t// in\n    tag_521:\n        /* \"https://github.com/OpenZeppelin/openzeppelin-contracts/blob/v3.4.2-solc-0.7/contracts/access/Ownable.sol\":1280:1303   */\n      0xffffffffffffffffffffffffffffffffffffffff\n      and\n      eq\n        /* \"https://github.com/OpenZeppelin/openzeppelin-contracts/blob/v3.4.2-solc-0.7/contracts/access/Ownable.sol\":1272:1340   */\n      tag_522\n      jumpi\n      mload(0x40)\n      0x08c379a000000000000000000000000000000000000000000000000000000000\n      dup2\n      mstore\n      0x04\n      add\n      dup1\n      dup1\n      0x20\n      add\n      dup3\n      dup2\n      sub\n      dup3\n      mstore\n      0x20\n      dup2\n      mstore\n      0x20\n      add\n      dup1\n      0x4f776e61626c653a2063616c6c6572206973206e6f7420746865206f776e6572\n      dup2\n      mstore\n      pop\n      0x20\n      add\n      swap2\n      pop\n      pop\n      mload(0x40)\n      dup1\n      swap2\n      sub\n      swap1\n      revert\n    tag_522:\n        /* \"LiquidityToken.sol\":6356:6411  checkAllocationsNotTerminatedAndProjectNotYetLaunched() */\n      tag_524\n        /* \"LiquidityToken.sol\":6356:6409  checkAllocationsNotTerminatedAndProjectNotYetLaunched */\n      tag_304\n        /* \"LiquidityToken.sol\":6356:6411  checkAllocationsNotTerminatedAndProjectNotYetLaunched() */\n      jump\t// in\n    tag_524:\n        /* \"LiquidityToken.sol\":6418:6444  uint _allocatedTokenSupply */\n      0x00\n        /* \"LiquidityToken.sol\":6450:6471  uint _usersListLength */\n      dup1\n        /* \"LiquidityToken.sol\":6474:6480  _users */\n      dup5\n        /* \"LiquidityToken.sol\":6474:6487  _users.length */\n      mload\n        /* \"LiquidityToken.sol\":6450:6487  uint _usersListLength = _users.length */\n      swap1\n      pop\n        /* \"LiquidityToken.sol\":6493:6506  address _user */\n      0x00\n        /* \"LiquidityToken.sol\":6512:6523  uint _value */\n      dup1\n        /* \"LiquidityToken.sol\":6529:6546  uint _hodlRewards */\n      0x00\n        /* \"LiquidityToken.sol\":6552:6570  uint _totalRewards */\n      dup1\n        /* \"LiquidityToken.sol\":6614:6621  _values */\n      dup8\n        /* \"LiquidityToken.sol\":6614:6628  _values.length */\n      mload\n        /* \"LiquidityToken.sol\":6594:6610  _usersListLength */\n      dup6\n        /* \"LiquidityToken.sol\":6594:6628  _usersListLength == _values.length */\n      eq\n        /* \"LiquidityToken.sol\":6579:6673  require(... */\n      tag_525\n      jumpi\n      mload(0x40)\n      0x08c379a000000000000000000000000000000000000000000000000000000000\n      dup2\n      mstore\n      0x04\n      add\n      dup1\n      dup1\n      0x20\n      add\n      dup3\n      dup2\n      sub\n      dup3\n      mstore\n      0x22\n      dup2\n      mstore\n      0x20\n      add\n      dup1\n      data_cfd424659c4ccd40882a68ac979c48ccbd4d42f277fe8a572a658f5de0c338c4\n      0x22\n      swap2\n      codecopy\n      0x40\n      add\n      swap2\n      pop\n      pop\n      mload(0x40)\n      dup1\n      swap2\n      sub\n      swap1\n      revert\n    tag_525:\n        /* \"LiquidityToken.sol\":6685:6693  uint _id */\n      0x00\n        /* \"LiquidityToken.sol\":6680:7456  for (uint _id = 0 ; _id < _usersListLength ; _id++) {... */\n    tag_526:\n        /* \"LiquidityToken.sol\":6706:6722  _usersListLength */\n      dup6\n        /* \"LiquidityToken.sol\":6700:6703  _id */\n      dup2\n        /* \"LiquidityToken.sol\":6700:6722  _id < _usersListLength */\n      lt\n        /* \"LiquidityToken.sol\":6680:7456  for (uint _id = 0 ; _id < _usersListLength ; _id++) {... */\n      iszero\n      tag_527\n      jumpi\n        /* \"LiquidityToken.sol\":6748:6754  _users */\n      dup10\n        /* \"LiquidityToken.sol\":6755:6758  _id */\n      dup2\n        /* \"LiquidityToken.sol\":6748:6759  _users[_id] */\n      dup2\n      mload\n      dup2\n      lt\n      tag_529\n      jumpi\n      invalid\n    tag_529:\n      0x20\n      mul\n      0x20\n      add\n      add\n      mload\n        /* \"LiquidityToken.sol\":6740:6759  _user = _users[_id] */\n      swap5\n      pop\n        /* \"LiquidityToken.sol\":6776:6783  _values */\n      dup9\n        /* \"LiquidityToken.sol\":6784:6787  _id */\n      dup2\n        /* \"LiquidityToken.sol\":6776:6788  _values[_id] */\n      dup2\n      mload\n      dup2\n      lt\n      tag_530\n      jumpi\n      invalid\n    tag_530:\n      0x20\n      mul\n      0x20\n      add\n      add\n      mload\n        /* \"LiquidityToken.sol\":6767:6788  _value = _values[_id] */\n      swap4\n      pop\n        /* \"LiquidityToken.sol\":6801:6826  _areAllocationsToBeStaked */\n      dup8\n        /* \"LiquidityToken.sol\":6797:7290  if (_areAllocationsToBeStaked) {... */\n      iszero\n      tag_531\n      jumpi\n        /* \"LiquidityToken.sol\":6853:6890  updateStakingAndGetHodlRewards(_user) */\n      tag_532\n        /* \"LiquidityToken.sol\":6884:6889  _user */\n      dup6\n        /* \"LiquidityToken.sol\":6853:6883  updateStakingAndGetHodlRewards */\n      tag_342\n        /* \"LiquidityToken.sol\":6853:6890  updateStakingAndGetHodlRewards(_user) */\n      jump\t// in\n    tag_532:\n        /* \"LiquidityToken.sol\":6838:6890  _hodlRewards = updateStakingAndGetHodlRewards(_user) */\n      swap3\n      pop\n        /* \"LiquidityToken.sol\":6900:6934  uint _fullyChargedBalanceIncreased */\n      0x00\n        /* \"LiquidityToken.sol\":6937:6961  _value.add(_hodlRewards) */\n      tag_533\n        /* \"LiquidityToken.sol\":6948:6960  _hodlRewards */\n      dup5\n        /* \"LiquidityToken.sol\":6937:6943  _value */\n      dup7\n        /* \"LiquidityToken.sol\":6937:6947  _value.add */\n      tag_297\n      swap1\n        /* \"LiquidityToken.sol\":6937:6961  _value.add(_hodlRewards) */\n      swap2\n      swap1\n      0xffffffff\n      and\n      jump\t// in\n    tag_533:\n        /* \"LiquidityToken.sol\":6900:6961  uint _fullyChargedBalanceIncreased = _value.add(_hodlRewards) */\n      swap1\n      pop\n        /* \"LiquidityToken.sol\":7026:7102  userLiquiToken[_user].fullyChargedBalance.add(_fullyChargedBalanceIncreased) */\n      tag_534\n        /* \"LiquidityToken.sol\":7072:7101  _fullyChargedBalanceIncreased */\n      dup2\n        /* \"LiquidityToken.sol\":7026:7040  userLiquiToken */\n      0x13\n        /* \"LiquidityToken.sol\":7026:7047  userLiquiToken[_user] */\n      0x00\n        /* \"LiquidityToken.sol\":7041:7046  _user */\n      dup10\n        /* \"LiquidityToken.sol\":7026:7047  userLiquiToken[_user] */\n      0xffffffffffffffffffffffffffffffffffffffff\n      and\n      0xffffffffffffffffffffffffffffffffffffffff\n      and\n      dup2\n      mstore\n      0x20\n      add\n      swap1\n      dup2\n      mstore\n      0x20\n      add\n      0x00\n      keccak256\n        /* \"LiquidityToken.sol\":7026:7067  userLiquiToken[_user].fullyChargedBalance */\n      0x00\n      add\n      sload\n        /* \"LiquidityToken.sol\":7026:7071  userLiquiToken[_user].fullyChargedBalance.add */\n      tag_297\n      swap1\n        /* \"LiquidityToken.sol\":7026:7102  userLiquiToken[_user].fullyChargedBalance.add(_fullyChargedBalanceIncreased) */\n      swap2\n      swap1\n      0xffffffff\n      and\n      jump\t// in\n    tag_534:\n        /* \"LiquidityToken.sol\":6971:6985  userLiquiToken */\n      0x13\n        /* \"LiquidityToken.sol\":6971:6992  userLiquiToken[_user] */\n      0x00\n        /* \"LiquidityToken.sol\":6986:6991  _user */\n      dup9\n        /* \"LiquidityToken.sol\":6971:6992  userLiquiToken[_user] */\n      0xffffffffffffffffffffffffffffffffffffffff\n      and\n      0xffffffffffffffffffffffffffffffffffffffff\n      and\n      dup2\n      mstore\n      0x20\n      add\n      swap1\n      dup2\n      mstore\n      0x20\n      add\n      0x00\n      keccak256\n        /* \"LiquidityToken.sol\":6971:7012  userLiquiToken[_user].fullyChargedBalance */\n      0x00\n      add\n        /* \"LiquidityToken.sol\":6971:7102  userLiquiToken[_user].fullyChargedBalance = ... */\n      dup2\n      swap1\n      sstore\n      pop\n        /* \"LiquidityToken.sol\":7117:7183  IncreasedFullyChargedBalance(_user, _fullyChargedBalanceIncreased) */\n      0xae2006c94e89f8083efda0c0a1d0c7d6fef3ec90d68506aa822854f3ba31f9cf\n        /* \"LiquidityToken.sol\":7146:7151  _user */\n      dup7\n        /* \"LiquidityToken.sol\":7153:7182  _fullyChargedBalanceIncreased */\n      dup3\n        /* \"LiquidityToken.sol\":7117:7183  IncreasedFullyChargedBalance(_user, _fullyChargedBalanceIncreased) */\n      mload(0x40)\n      dup1\n      dup4\n      0xffffffffffffffffffffffffffffffffffffffff\n      and\n      dup2\n      mstore\n      0x20\n      add\n      dup3\n      dup2\n      mstore\n      0x20\n      add\n      swap3\n      pop\n      pop\n      pop\n      mload(0x40)\n      dup1\n      swap2\n      sub\n      swap1\n      log1\n        /* \"LiquidityToken.sol\":7209:7240  _totalRewards.add(_hodlRewards) */\n      tag_535\n        /* \"LiquidityToken.sol\":7227:7239  _hodlRewards */\n      dup5\n        /* \"LiquidityToken.sol\":7209:7222  _totalRewards */\n      dup5\n        /* \"LiquidityToken.sol\":7209:7226  _totalRewards.add */\n      tag_297\n      swap1\n        /* \"LiquidityToken.sol\":7209:7240  _totalRewards.add(_hodlRewards) */\n      swap2\n      swap1\n      0xffffffff\n      and\n      jump\t// in\n    tag_535:\n        /* \"LiquidityToken.sol\":7193:7240  _totalRewards = _totalRewards.add(_hodlRewards) */\n      swap3\n      pop\n        /* \"LiquidityToken.sol\":6797:7290  if (_areAllocationsToBeStaked) {... */\n      pop\n      jump(tag_536)\n    tag_531:\n        /* \"LiquidityToken.sol\":7270:7290  _mint(_user, _value) */\n      tag_537\n        /* \"LiquidityToken.sol\":7276:7281  _user */\n      dup6\n        /* \"LiquidityToken.sol\":7283:7289  _value */\n      dup6\n        /* \"LiquidityToken.sol\":7270:7275  _mint */\n      tag_351\n        /* \"LiquidityToken.sol\":7270:7290  _mint(_user, _value) */\n      jump\t// in\n    tag_537:\n        /* \"LiquidityToken.sol\":6797:7290  if (_areAllocationsToBeStaked) {... */\n    tag_536:\n        /* \"LiquidityToken.sol\":7329:7362  _allocatedTokenSupply.add(_value) */\n      tag_538\n        /* \"LiquidityToken.sol\":7355:7361  _value */\n      dup5\n        /* \"LiquidityToken.sol\":7329:7350  _allocatedTokenSupply */\n      dup9\n        /* \"LiquidityToken.sol\":7329:7354  _allocatedTokenSupply.add */\n      tag_297\n      swap1\n        /* \"LiquidityToken.sol\":7329:7362  _allocatedTokenSupply.add(_value) */\n      swap2\n      swap1\n      0xffffffff\n      and\n      jump\t// in\n    tag_538:\n        /* \"LiquidityToken.sol\":7305:7362  _allocatedTokenSupply = _allocatedTokenSupply.add(_value) */\n      swap7\n      pop\n        /* \"LiquidityToken.sol\":7375:7449  LTAllocatedByOwner(_user, _value, _hodlRewards, _areAllocationsToBeStaked) */\n      0xa984939d0059bc688e1c5458f72ad05b51fc8a6ba959556f5e2ee91c1ab8c7d2\n        /* \"LiquidityToken.sol\":7394:7399  _user */\n      dup6\n        /* \"LiquidityToken.sol\":7401:7407  _value */\n      dup6\n        /* \"LiquidityToken.sol\":7409:7421  _hodlRewards */\n      dup6\n        /* \"LiquidityToken.sol\":7423:7448  _areAllocationsToBeStaked */\n      dup12\n        /* \"LiquidityToken.sol\":7375:7449  LTAllocatedByOwner(_user, _value, _hodlRewards, _areAllocationsToBeStaked) */\n      mload(0x40)\n      dup1\n      dup6\n      0xffffffffffffffffffffffffffffffffffffffff\n      and\n      dup2\n      mstore\n      0x20\n      add\n      dup5\n      dup2\n      mstore\n      0x20\n      add\n      dup4\n      dup2\n      mstore\n      0x20\n      add\n      dup3\n      iszero\n      iszero\n      dup2\n      mstore\n      0x20\n      add\n      swap5\n      pop\n      pop\n      pop\n      pop\n      pop\n      mload(0x40)\n      dup1\n      swap2\n      sub\n      swap1\n      log1\n        /* \"LiquidityToken.sol\":6725:6730  _id++ */\n      dup1\n      dup1\n      0x01\n      add\n      swap2\n      pop\n      pop\n        /* \"LiquidityToken.sol\":6680:7456  for (uint _id = 0 ; _id < _usersListLength ; _id++) {... */\n      jump(tag_526)\n    tag_527:\n      pop\n        /* \"LiquidityToken.sol\":7484:7530  totalTokenAllocated.add(_allocatedTokenSupply) */\n      tag_539\n        /* \"LiquidityToken.sol\":7508:7529  _allocatedTokenSupply */\n      dup7\n        /* \"LiquidityToken.sol\":7484:7503  totalTokenAllocated */\n      sload(0x0f)\n        /* \"LiquidityToken.sol\":7484:7507  totalTokenAllocated.add */\n      tag_297\n      swap1\n        /* \"LiquidityToken.sol\":7484:7530  totalTokenAllocated.add(_allocatedTokenSupply) */\n      swap2\n      swap1\n      0xffffffff\n      and\n      jump\t// in\n    tag_539:\n        /* \"LiquidityToken.sol\":7462:7481  totalTokenAllocated */\n      0x0f\n        /* \"LiquidityToken.sol\":7462:7530  totalTokenAllocated = totalTokenAllocated.add(_allocatedTokenSupply) */\n      dup2\n      swap1\n      sstore\n      pop\n        /* \"LiquidityToken.sol\":7541:7592  IncreasedTotalTokenAllocated(_allocatedTokenSupply) */\n      0x83460f65bdb244889b764a63576252cf32e10e1a058af241da584c1f1610e6db\n        /* \"LiquidityToken.sol\":7570:7591  _allocatedTokenSupply */\n      dup7\n        /* \"LiquidityToken.sol\":7541:7592  IncreasedTotalTokenAllocated(_allocatedTokenSupply) */\n      mload(0x40)\n      dup1\n      dup3\n      dup2\n      mstore\n      0x20\n      add\n      swap2\n      pop\n      pop\n      mload(0x40)\n      dup1\n      swap2\n      sub\n      swap1\n      log1\n        /* \"LiquidityToken.sol\":7662:7687  maxInitialTokenAllocation */\n      immutable(\"0x27f63464b9731b972604804953e204cb89525ac66e46cd091b2739ad01222f8b\")\n        /* \"LiquidityToken.sol\":7614:7658  totalTokenAllocated.sub(totalStakingRewards) */\n      tag_540\n        /* \"LiquidityToken.sol\":7638:7657  totalStakingRewards */\n      sload(0x0b)\n        /* \"LiquidityToken.sol\":7614:7633  totalTokenAllocated */\n      sload(0x0f)\n        /* \"LiquidityToken.sol\":7614:7637  totalTokenAllocated.sub */\n      tag_348\n      swap1\n        /* \"LiquidityToken.sol\":7614:7658  totalTokenAllocated.sub(totalStakingRewards) */\n      swap2\n      swap1\n      0xffffffff\n      and\n      jump\t// in\n    tag_540:\n        /* \"LiquidityToken.sol\":7614:7687  totalTokenAllocated.sub(totalStakingRewards) <= maxInitialTokenAllocation */\n      gt\n      iszero\n        /* \"LiquidityToken.sol\":7599:7713  require(... */\n      tag_541\n      jumpi\n      mload(0x40)\n      0x08c379a000000000000000000000000000000000000000000000000000000000\n      dup2\n      mstore\n      0x04\n      add\n      dup1\n      dup1\n      0x20\n      add\n      dup3\n      dup2\n      sub\n      dup3\n      mstore\n      0x0f\n      dup2\n      mstore\n      0x20\n      add\n      dup1\n      0x416c6c6f636174696f6e206f7665720000000000000000000000000000000000\n      dup2\n      mstore\n      pop\n      0x20\n      add\n      swap2\n      pop\n      pop\n      mload(0x40)\n      dup1\n      swap2\n      sub\n      swap1\n      revert\n    tag_541:\n        /* \"LiquidityToken.sol\":7724:7749  _areAllocationsToBeStaked */\n      dup7\n        /* \"LiquidityToken.sol\":7720:7984  if (_areAllocationsToBeStaked) {... */\n      iszero\n      tag_542\n      jumpi\n        /* \"LiquidityToken.sol\":7759:7802  _mint(address(this), _allocatedTokenSupply) */\n      tag_543\n        /* \"LiquidityToken.sol\":7773:7777  this */\n      address\n        /* \"LiquidityToken.sol\":7780:7801  _allocatedTokenSupply */\n      dup8\n        /* \"LiquidityToken.sol\":7759:7764  _mint */\n      tag_351\n        /* \"LiquidityToken.sol\":7759:7802  _mint(address(this), _allocatedTokenSupply) */\n      jump\t// in\n    tag_543:\n        /* \"LiquidityToken.sol\":7810:7833  uint _increasedStakedLT */\n      0x00\n        /* \"LiquidityToken.sol\":7836:7876  _allocatedTokenSupply.add(_totalRewards) */\n      tag_544\n        /* \"LiquidityToken.sol\":7862:7875  _totalRewards */\n      dup3\n        /* \"LiquidityToken.sol\":7836:7857  _allocatedTokenSupply */\n      dup9\n        /* \"LiquidityToken.sol\":7836:7861  _allocatedTokenSupply.add */\n      tag_297\n      swap1\n        /* \"LiquidityToken.sol\":7836:7876  _allocatedTokenSupply.add(_totalRewards) */\n      swap2\n      swap1\n      0xffffffff\n      and\n      jump\t// in\n    tag_544:\n        /* \"LiquidityToken.sol\":7810:7876  uint _increasedStakedLT = _allocatedTokenSupply.add(_totalRewards) */\n      swap1\n      pop\n        /* \"LiquidityToken.sol\":7895:7927  stakedLT.add(_increasedStakedLT) */\n      tag_545\n        /* \"LiquidityToken.sol\":7908:7926  _increasedStakedLT */\n      dup2\n        /* \"LiquidityToken.sol\":7895:7903  stakedLT */\n      sload(0x0e)\n        /* \"LiquidityToken.sol\":7895:7907  stakedLT.add */\n      tag_297\n      swap1\n        /* \"LiquidityToken.sol\":7895:7927  stakedLT.add(_increasedStakedLT) */\n      swap2\n      swap1\n      0xffffffff\n      and\n      jump\t// in\n    tag_545:\n        /* \"LiquidityToken.sol\":7884:7892  stakedLT */\n      0x0e\n        /* \"LiquidityToken.sol\":7884:7927  stakedLT = stakedLT.add(_increasedStakedLT) */\n      dup2\n      swap1\n      sstore\n      pop\n        /* \"LiquidityToken.sol\":7940:7977  IncreasedStakedLT(_increasedStakedLT) */\n      0x12129930c15dad4632242378dc39162db4c36a82482777c2e8f791d3752bb70f\n        /* \"LiquidityToken.sol\":7958:7976  _increasedStakedLT */\n      dup2\n        /* \"LiquidityToken.sol\":7940:7977  IncreasedStakedLT(_increasedStakedLT) */\n      mload(0x40)\n      dup1\n      dup3\n      dup2\n      mstore\n      0x20\n      add\n      swap2\n      pop\n      pop\n      mload(0x40)\n      dup1\n      swap2\n      sub\n      swap1\n      log1\n        /* \"LiquidityToken.sol\":7720:7984  if (_areAllocationsToBeStaked) {... */\n      pop\n    tag_542:\n        /* \"https://github.com/OpenZeppelin/openzeppelin-contracts/blob/v3.4.2-solc-0.7/contracts/access/Ownable.sol\":1350:1351   */\n      pop\n      pop\n      pop\n      pop\n      pop\n      pop\n        /* \"LiquidityToken.sol\":6215:7988  function allocateLTByOwner(address[] memory _users, uint[] memory _values, bool _areAllocationsToBeStaked)... */\n      pop\n      pop\n      pop\n      jump\t// out\n        /* \"LiquidityToken.sol\":857:894  uint public currentRewardPerShare1e18 */\n    tag_253:\n      sload(0x0d)\n      dup2\n      jump\t// out\n        /* \"LiquidityToken.sol\":1226:1269  uint public immutable durationLinearVesting */\n    tag_255:\n      immutable(\"0x7fac02d34be0cf003870fc1ca20de764e3d24f4510f938a3d8c85c13150f33d3\")\n      dup2\n      jump\t// out\n        /* \"LiquidityToken.sol\":1959:1988  uint public priceTokenPer1e18 */\n    tag_257:\n      sload(0x15)\n      dup2\n      jump\t// out\n        /* \"LiquidityToken.sol\":18465:18655  function updateStakingAndGetHodlRewardsByInterfacePT(address _user) public onlyInterfaceProjectToken() returns (uint) {... */\n    tag_260:\n        /* \"LiquidityToken.sol\":18577:18581  uint */\n      0x00\n        /* \"LiquidityToken.sol\":18244:18277  ensureOnlyInterfaceProjectToken() */\n      tag_547\n        /* \"LiquidityToken.sol\":18244:18275  ensureOnlyInterfaceProjectToken */\n      tag_397\n        /* \"LiquidityToken.sol\":18244:18277  ensureOnlyInterfaceProjectToken() */\n      jump\t// in\n    tag_547:\n        /* \"LiquidityToken.sol\":18603:18640  updateStakingAndGetHodlRewards(_user) */\n      tag_549\n        /* \"LiquidityToken.sol\":18634:18639  _user */\n      dup3\n        /* \"LiquidityToken.sol\":18603:18633  updateStakingAndGetHodlRewards */\n      tag_342\n        /* \"LiquidityToken.sol\":18603:18640  updateStakingAndGetHodlRewards(_user) */\n      jump\t// in\n    tag_549:\n        /* \"LiquidityToken.sol\":18589:18648  return(... */\n      swap1\n      pop\n        /* \"LiquidityToken.sol\":18465:18655  function updateStakingAndGetHodlRewardsByInterfacePT(address _user) public onlyInterfaceProjectToken() returns (uint) {... */\n      swap2\n      swap1\n      pop\n      jump\t// out\n        /* \"https://github.com/OpenZeppelin/openzeppelin-contracts/blob/v3.4.2-solc-0.7/contracts/access/Ownable.sol\":1994:2234   */\n    tag_263:\n        /* \"https://github.com/OpenZeppelin/openzeppelin-contracts/blob/v3.4.2-solc-0.7/contracts/access/Ownable.sol\":1291:1303   */\n      tag_551\n        /* \"https://github.com/OpenZeppelin/openzeppelin-contracts/blob/v3.4.2-solc-0.7/contracts/access/Ownable.sol\":1291:1301   */\n      tag_277\n        /* \"https://github.com/OpenZeppelin/openzeppelin-contracts/blob/v3.4.2-solc-0.7/contracts/access/Ownable.sol\":1291:1303   */\n      jump\t// in\n    tag_551:\n        /* \"https://github.com/OpenZeppelin/openzeppelin-contracts/blob/v3.4.2-solc-0.7/contracts/access/Ownable.sol\":1280:1303   */\n      0xffffffffffffffffffffffffffffffffffffffff\n      and\n        /* \"https://github.com/OpenZeppelin/openzeppelin-contracts/blob/v3.4.2-solc-0.7/contracts/access/Ownable.sol\":1280:1287   */\n      tag_552\n        /* \"https://github.com/OpenZeppelin/openzeppelin-contracts/blob/v3.4.2-solc-0.7/contracts/access/Ownable.sol\":1280:1285   */\n      tag_189\n        /* \"https://github.com/OpenZeppelin/openzeppelin-contracts/blob/v3.4.2-solc-0.7/contracts/access/Ownable.sol\":1280:1287   */\n      jump\t// in\n    tag_552:\n        /* \"https://github.com/OpenZeppelin/openzeppelin-contracts/blob/v3.4.2-solc-0.7/contracts/access/Ownable.sol\":1280:1303   */\n      0xffffffffffffffffffffffffffffffffffffffff\n      and\n      eq\n        /* \"https://github.com/OpenZeppelin/openzeppelin-contracts/blob/v3.4.2-solc-0.7/contracts/access/Ownable.sol\":1272:1340   */\n      tag_553\n      jumpi\n      mload(0x40)\n      0x08c379a000000000000000000000000000000000000000000000000000000000\n      dup2\n      mstore\n      0x04\n      add\n      dup1\n      dup1\n      0x20\n      add\n      dup3\n      dup2\n      sub\n      dup3\n      mstore\n      0x20\n      dup2\n      mstore\n      0x20\n      add\n      dup1\n      0x4f776e61626c653a2063616c6c6572206973206e6f7420746865206f776e6572\n      dup2\n      mstore\n      pop\n      0x20\n      add\n      swap2\n      pop\n      pop\n      mload(0x40)\n      dup1\n      swap2\n      sub\n      swap1\n      revert\n    tag_553:\n        /* \"https://github.com/OpenZeppelin/openzeppelin-contracts/blob/v3.4.2-solc-0.7/contracts/access/Ownable.sol\":2102:2103   */\n      0x00\n        /* \"https://github.com/OpenZeppelin/openzeppelin-contracts/blob/v3.4.2-solc-0.7/contracts/access/Ownable.sol\":2082:2104   */\n      0xffffffffffffffffffffffffffffffffffffffff\n      and\n        /* \"https://github.com/OpenZeppelin/openzeppelin-contracts/blob/v3.4.2-solc-0.7/contracts/access/Ownable.sol\":2082:2090   */\n      dup2\n        /* \"https://github.com/OpenZeppelin/openzeppelin-contracts/blob/v3.4.2-solc-0.7/contracts/access/Ownable.sol\":2082:2104   */\n      0xffffffffffffffffffffffffffffffffffffffff\n      and\n      eq\n      iszero\n        /* \"https://github.com/OpenZeppelin/openzeppelin-contracts/blob/v3.4.2-solc-0.7/contracts/access/Ownable.sol\":2074:2147   */\n      tag_555\n      jumpi\n      mload(0x40)\n      0x08c379a000000000000000000000000000000000000000000000000000000000\n      dup2\n      mstore\n      0x04\n      add\n      dup1\n      dup1\n      0x20\n      add\n      dup3\n      dup2\n      sub\n      dup3\n      mstore\n      0x26\n      dup2\n      mstore\n      0x20\n      add\n      dup1\n      data_245f15ff17f551913a7a18385165551503906a406f905ac1c2437281a7cd0cfe\n      0x26\n      swap2\n      codecopy\n      0x40\n      add\n      swap2\n      pop\n      pop\n      mload(0x40)\n      dup1\n      swap2\n      sub\n      swap1\n      revert\n    tag_555:\n        /* \"https://github.com/OpenZeppelin/openzeppelin-contracts/blob/v3.4.2-solc-0.7/contracts/access/Ownable.sol\":2191:2199   */\n      dup1\n        /* \"https://github.com/OpenZeppelin/openzeppelin-contracts/blob/v3.4.2-solc-0.7/contracts/access/Ownable.sol\":2162:2200   */\n      0xffffffffffffffffffffffffffffffffffffffff\n      and\n        /* \"https://github.com/OpenZeppelin/openzeppelin-contracts/blob/v3.4.2-solc-0.7/contracts/access/Ownable.sol\":2183:2189   */\n      0x05\n      0x01\n      swap1\n      sload\n      swap1\n      0x0100\n      exp\n      swap1\n      div\n      0xffffffffffffffffffffffffffffffffffffffff\n      and\n        /* \"https://github.com/OpenZeppelin/openzeppelin-contracts/blob/v3.4.2-solc-0.7/contracts/access/Ownable.sol\":2162:2200   */\n      0xffffffffffffffffffffffffffffffffffffffff\n      and\n      0x8be0079c531659141344cd1fd0a4f28419497f9722a3daafe3b4186f6b6457e0\n      mload(0x40)\n      mload(0x40)\n      dup1\n      swap2\n      sub\n      swap1\n      log3\n        /* \"https://github.com/OpenZeppelin/openzeppelin-contracts/blob/v3.4.2-solc-0.7/contracts/access/Ownable.sol\":2219:2227   */\n      dup1\n        /* \"https://github.com/OpenZeppelin/openzeppelin-contracts/blob/v3.4.2-solc-0.7/contracts/access/Ownable.sol\":2210:2216   */\n      0x05\n      0x01\n        /* \"https://github.com/OpenZeppelin/openzeppelin-contracts/blob/v3.4.2-solc-0.7/contracts/access/Ownable.sol\":2210:2227   */\n      0x0100\n      exp\n      dup2\n      sload\n      dup2\n      0xffffffffffffffffffffffffffffffffffffffff\n      mul\n      not\n      and\n      swap1\n      dup4\n      0xffffffffffffffffffffffffffffffffffffffff\n      and\n      mul\n      or\n      swap1\n      sstore\n      pop\n        /* \"https://github.com/OpenZeppelin/openzeppelin-contracts/blob/v3.4.2-solc-0.7/contracts/access/Ownable.sol\":1994:2234   */\n      pop\n      jump\t// out\n        /* \"LiquidityToken.sol\":20423:20567  function updateRewardsAfterFeesPaymentByInterface(uint _fees) public onlyInterfaceProjectToken() {... */\n    tag_266:\n        /* \"LiquidityToken.sol\":18244:18277  ensureOnlyInterfaceProjectToken() */\n      tag_557\n        /* \"LiquidityToken.sol\":18244:18275  ensureOnlyInterfaceProjectToken */\n      tag_397\n        /* \"LiquidityToken.sol\":18244:18277  ensureOnlyInterfaceProjectToken() */\n      jump\t// in\n    tag_557:\n        /* \"LiquidityToken.sol\":20526:20562  updateRewardsAfterFeesPayment(_fees) */\n      tag_559\n        /* \"LiquidityToken.sol\":20556:20561  _fees */\n      dup2\n        /* \"LiquidityToken.sol\":20526:20555  updateRewardsAfterFeesPayment */\n      tag_389\n        /* \"LiquidityToken.sol\":20526:20562  updateRewardsAfterFeesPayment(_fees) */\n      jump\t// in\n    tag_559:\n        /* \"LiquidityToken.sol\":20423:20567  function updateRewardsAfterFeesPaymentByInterface(uint _fees) public onlyInterfaceProjectToken() {... */\n      pop\n      jump\t// out\n        /* \"LiquidityToken.sol\":14457:15012  function getHodlRewards(address _user, uint _currentRewardPerShare1e18) public view returns(uint _hodlRewards) {... */\n    tag_269:\n        /* \"LiquidityToken.sol\":14549:14566  uint _hodlRewards */\n      0x00\n        /* \"LiquidityToken.sol\":14575:14596  uint _totalTokenOwned */\n      dup1\n        /* \"LiquidityToken.sol\":14599:14691  userLiquiToken[_user].fullyChargedBalance.add(userLiquiToken[_user].partiallyChargedBalance) */\n      tag_561\n        /* \"LiquidityToken.sol\":14645:14659  userLiquiToken */\n      0x13\n        /* \"LiquidityToken.sol\":14645:14666  userLiquiToken[_user] */\n      0x00\n        /* \"LiquidityToken.sol\":14660:14665  _user */\n      dup7\n        /* \"LiquidityToken.sol\":14645:14666  userLiquiToken[_user] */\n      0xffffffffffffffffffffffffffffffffffffffff\n      and\n      0xffffffffffffffffffffffffffffffffffffffff\n      and\n      dup2\n      mstore\n      0x20\n      add\n      swap1\n      dup2\n      mstore\n      0x20\n      add\n      0x00\n      keccak256\n        /* \"LiquidityToken.sol\":14645:14690  userLiquiToken[_user].partiallyChargedBalance */\n      0x01\n      add\n      sload\n        /* \"LiquidityToken.sol\":14599:14613  userLiquiToken */\n      0x13\n        /* \"LiquidityToken.sol\":14599:14620  userLiquiToken[_user] */\n      0x00\n        /* \"LiquidityToken.sol\":14614:14619  _user */\n      dup8\n        /* \"LiquidityToken.sol\":14599:14620  userLiquiToken[_user] */\n      0xffffffffffffffffffffffffffffffffffffffff\n      and\n      0xffffffffffffffffffffffffffffffffffffffff\n      and\n      dup2\n      mstore\n      0x20\n      add\n      swap1\n      dup2\n      mstore\n      0x20\n      add\n      0x00\n      keccak256\n        /* \"LiquidityToken.sol\":14599:14640  userLiquiToken[_user].fullyChargedBalance */\n      0x00\n      add\n      sload\n        /* \"LiquidityToken.sol\":14599:14644  userLiquiToken[_user].fullyChargedBalance.add */\n      tag_297\n      swap1\n        /* \"LiquidityToken.sol\":14599:14691  userLiquiToken[_user].fullyChargedBalance.add(userLiquiToken[_user].partiallyChargedBalance) */\n      swap2\n      swap1\n      0xffffffff\n      and\n      jump\t// in\n    tag_561:\n        /* \"LiquidityToken.sol\":14575:14691  uint _totalTokenOwned = userLiquiToken[_user].fullyChargedBalance.add(userLiquiToken[_user].partiallyChargedBalance) */\n      swap1\n      pop\n        /* \"LiquidityToken.sol\":14743:14746  0x0 */\n      0x00\n        /* \"LiquidityToken.sol\":14701:14747  address(interfaceProjectToken) != address(0x0) */\n      0xffffffffffffffffffffffffffffffffffffffff\n      and\n        /* \"LiquidityToken.sol\":14709:14730  interfaceProjectToken */\n      0x06\n      0x00\n      swap1\n      sload\n      swap1\n      0x0100\n      exp\n      swap1\n      div\n      0xffffffffffffffffffffffffffffffffffffffff\n      and\n        /* \"LiquidityToken.sol\":14701:14747  address(interfaceProjectToken) != address(0x0) */\n      0xffffffffffffffffffffffffffffffffffffffff\n      and\n      eq\n        /* \"LiquidityToken.sol\":14697:14857  if (address(interfaceProjectToken) != address(0x0)) ... */\n      tag_562\n      jumpi\n        /* \"LiquidityToken.sol\":14775:14857  _totalTokenOwned.sub(interfaceProjectToken.valueProjectTokenToFullRecharge(_user)) */\n      tag_563\n        /* \"LiquidityToken.sol\":14796:14817  interfaceProjectToken */\n      0x06\n      0x00\n      swap1\n      sload\n      swap1\n      0x0100\n      exp\n      swap1\n      div\n      0xffffffffffffffffffffffffffffffffffffffff\n      and\n        /* \"LiquidityToken.sol\":14796:14849  interfaceProjectToken.valueProjectTokenToFullRecharge */\n      0xffffffffffffffffffffffffffffffffffffffff\n      and\n      0xba01ecef\n        /* \"LiquidityToken.sol\":14850:14855  _user */\n      dup7\n        /* \"LiquidityToken.sol\":14796:14856  interfaceProjectToken.valueProjectTokenToFullRecharge(_user) */\n      mload(0x40)\n      dup3\n      0xffffffff\n      and\n      0xe0\n      shl\n      dup2\n      mstore\n      0x04\n      add\n      dup1\n      dup3\n      0xffffffffffffffffffffffffffffffffffffffff\n      and\n      dup2\n      mstore\n      0x20\n      add\n      swap2\n      pop\n      pop\n      0x20\n      mload(0x40)\n      dup1\n      dup4\n      sub\n      dup2\n      dup7\n      dup1\n      extcodesize\n      iszero\n      dup1\n      iszero\n      tag_564\n      jumpi\n      0x00\n      dup1\n      revert\n    tag_564:\n      pop\n      gas\n      staticcall\n      iszero\n      dup1\n      iszero\n      tag_566\n      jumpi\n      returndatasize\n      0x00\n      dup1\n      returndatacopy\n      revert(0x00, returndatasize)\n    tag_566:\n      pop\n      pop\n      pop\n      pop\n      mload(0x40)\n      returndatasize\n      0x20\n      dup2\n      lt\n      iszero\n      tag_567\n      jumpi\n      0x00\n      dup1\n      revert\n    tag_567:\n      dup2\n      add\n      swap1\n      dup1\n      dup1\n      mload\n      swap1\n      0x20\n      add\n      swap1\n      swap3\n      swap2\n      swap1\n      pop\n      pop\n      pop\n        /* \"LiquidityToken.sol\":14775:14791  _totalTokenOwned */\n      dup3\n        /* \"LiquidityToken.sol\":14775:14795  _totalTokenOwned.sub */\n      tag_348\n      swap1\n        /* \"LiquidityToken.sol\":14775:14857  _totalTokenOwned.sub(interfaceProjectToken.valueProjectTokenToFullRecharge(_user)) */\n      swap2\n      swap1\n      0xffffffff\n      and\n      jump\t// in\n    tag_563:\n        /* \"LiquidityToken.sol\":14756:14857  _totalTokenOwned = _totalTokenOwned.sub(interfaceProjectToken.valueProjectTokenToFullRecharge(_user)) */\n      swap1\n      pop\n        /* \"LiquidityToken.sol\":14697:14857  if (address(interfaceProjectToken) != address(0x0)) ... */\n    tag_562:\n        /* \"LiquidityToken.sol\":14883:15007  _totalTokenOwned... */\n      tag_568\n        /* \"LiquidityToken.sol\":15002:15006  1e18 */\n      0x0de0b6b3a7640000\n        /* \"LiquidityToken.sol\":14883:14990  _totalTokenOwned... */\n      tag_569\n        /* \"LiquidityToken.sol\":14918:14982  _currentRewardPerShare1e18.sub(claimedRewardPerShare1e18[_user]) */\n      tag_570\n        /* \"LiquidityToken.sol\":14949:14974  claimedRewardPerShare1e18 */\n      0x12\n        /* \"LiquidityToken.sol\":14949:14981  claimedRewardPerShare1e18[_user] */\n      0x00\n        /* \"LiquidityToken.sol\":14975:14980  _user */\n      dup10\n        /* \"LiquidityToken.sol\":14949:14981  claimedRewardPerShare1e18[_user] */\n      0xffffffffffffffffffffffffffffffffffffffff\n      and\n      0xffffffffffffffffffffffffffffffffffffffff\n      and\n      dup2\n      mstore\n      0x20\n      add\n      swap1\n      dup2\n      mstore\n      0x20\n      add\n      0x00\n      keccak256\n      sload\n        /* \"LiquidityToken.sol\":14918:14944  _currentRewardPerShare1e18 */\n      dup8\n        /* \"LiquidityToken.sol\":14918:14948  _currentRewardPerShare1e18.sub */\n      tag_348\n      swap1\n        /* \"LiquidityToken.sol\":14918:14982  _currentRewardPerShare1e18.sub(claimedRewardPerShare1e18[_user]) */\n      swap2\n      swap1\n      0xffffffff\n      and\n      jump\t// in\n    tag_570:\n        /* \"LiquidityToken.sol\":14883:14899  _totalTokenOwned */\n      dup5\n        /* \"LiquidityToken.sol\":14883:14910  _totalTokenOwned... */\n      tag_336\n      swap1\n        /* \"LiquidityToken.sol\":14883:14990  _totalTokenOwned... */\n      swap2\n      swap1\n      0xffffffff\n      and\n      jump\t// in\n    tag_569:\n        /* \"LiquidityToken.sol\":14883:15001  _totalTokenOwned... */\n      tag_340\n      swap1\n        /* \"LiquidityToken.sol\":14883:15007  _totalTokenOwned... */\n      swap2\n      swap1\n      0xffffffff\n      and\n      jump\t// in\n    tag_568:\n        /* \"LiquidityToken.sol\":14868:15007  _hodlRewards = _totalTokenOwned... */\n      swap2\n      pop\n        /* \"LiquidityToken.sol\":14457:15012  function getHodlRewards(address _user, uint _currentRewardPerShare1e18) public view returns(uint _hodlRewards) {... */\n      pop\n      swap3\n      swap2\n      pop\n      pop\n      jump\t// out\n        /* \"https://github.com/OpenZeppelin/openzeppelin-contracts/blob/v3.4.2-solc-0.7/contracts/utils/Context.sol\":598:702   */\n    tag_277:\n        /* \"https://github.com/OpenZeppelin/openzeppelin-contracts/blob/v3.4.2-solc-0.7/contracts/utils/Context.sol\":651:666   */\n      0x00\n        /* \"https://github.com/OpenZeppelin/openzeppelin-contracts/blob/v3.4.2-solc-0.7/contracts/utils/Context.sol\":685:695   */\n      caller\n        /* \"https://github.com/OpenZeppelin/openzeppelin-contracts/blob/v3.4.2-solc-0.7/contracts/utils/Context.sol\":678:695   */\n      swap1\n      pop\n        /* \"https://github.com/OpenZeppelin/openzeppelin-contracts/blob/v3.4.2-solc-0.7/contracts/utils/Context.sol\":598:702   */\n      swap1\n      jump\t// out\n        /* \"https://github.com/OpenZeppelin/openzeppelin-contracts/blob/v3.4.2-solc-0.7/contracts/token/ERC20/ERC20.sol\":9340:9680   */\n    tag_278:\n        /* \"https://github.com/OpenZeppelin/openzeppelin-contracts/blob/v3.4.2-solc-0.7/contracts/token/ERC20/ERC20.sol\":9458:9459   */\n      0x00\n        /* \"https://github.com/OpenZeppelin/openzeppelin-contracts/blob/v3.4.2-solc-0.7/contracts/token/ERC20/ERC20.sol\":9441:9460   */\n      0xffffffffffffffffffffffffffffffffffffffff\n      and\n        /* \"https://github.com/OpenZeppelin/openzeppelin-contracts/blob/v3.4.2-solc-0.7/contracts/token/ERC20/ERC20.sol\":9441:9446   */\n      dup4\n        /* \"https://github.com/OpenZeppelin/openzeppelin-contracts/blob/v3.4.2-solc-0.7/contracts/token/ERC20/ERC20.sol\":9441:9460   */\n      0xffffffffffffffffffffffffffffffffffffffff\n      and\n      eq\n      iszero\n        /* \"https://github.com/OpenZeppelin/openzeppelin-contracts/blob/v3.4.2-solc-0.7/contracts/token/ERC20/ERC20.sol\":9433:9501   */\n      tag_573\n      jumpi\n      mload(0x40)\n      0x08c379a000000000000000000000000000000000000000000000000000000000\n      dup2\n      mstore\n      0x04\n      add\n      dup1\n      dup1\n      0x20\n      add\n      dup3\n      dup2\n      sub\n      dup3\n      mstore\n      0x24\n      dup2\n      mstore\n      0x20\n      add\n      dup1\n      data_c953f4879035ed60e766b34720f656aab5c697b141d924c283124ecedb91c208\n      0x24\n      swap2\n      codecopy\n      0x40\n      add\n      swap2\n      pop\n      pop\n      mload(0x40)\n      dup1\n      swap2\n      sub\n      swap1\n      revert\n    tag_573:\n        /* \"https://github.com/OpenZeppelin/openzeppelin-contracts/blob/v3.4.2-solc-0.7/contracts/token/ERC20/ERC20.sol\":9538:9539   */\n      0x00\n        /* \"https://github.com/OpenZeppelin/openzeppelin-contracts/blob/v3.4.2-solc-0.7/contracts/token/ERC20/ERC20.sol\":9519:9540   */\n      0xffffffffffffffffffffffffffffffffffffffff\n      and\n        /* \"https://github.com/OpenZeppelin/openzeppelin-contracts/blob/v3.4.2-solc-0.7/contracts/token/ERC20/ERC20.sol\":9519:9526   */\n      dup3\n        /* \"https://github.com/OpenZeppelin/openzeppelin-contracts/blob/v3.4.2-solc-0.7/contracts/token/ERC20/ERC20.sol\":9519:9540   */\n      0xffffffffffffffffffffffffffffffffffffffff\n      and\n      eq\n      iszero\n        /* \"https://github.com/OpenZeppelin/openzeppelin-contracts/blob/v3.4.2-solc-0.7/contracts/token/ERC20/ERC20.sol\":9511:9579   */\n      tag_574\n      jumpi\n      mload(0x40)\n      0x08c379a000000000000000000000000000000000000000000000000000000000\n      dup2\n      mstore\n      0x04\n      add\n      dup1\n      dup1\n      0x20\n      add\n      dup3\n      dup2\n      sub\n      dup3\n      mstore\n      0x22\n      dup2\n      mstore\n      0x20\n      add\n      dup1\n      data_24883cc5fe64ace9d0df1893501ecb93c77180f0ff69cca79affb3c316dc8029\n      0x22\n      swap2\n      codecopy\n      0x40\n      add\n      swap2\n      pop\n      pop\n      mload(0x40)\n      dup1\n      swap2\n      sub\n      swap1\n      revert\n    tag_574:\n        /* \"https://github.com/OpenZeppelin/openzeppelin-contracts/blob/v3.4.2-solc-0.7/contracts/token/ERC20/ERC20.sol\":9620:9626   */\n      dup1\n        /* \"https://github.com/OpenZeppelin/openzeppelin-contracts/blob/v3.4.2-solc-0.7/contracts/token/ERC20/ERC20.sol\":9590:9601   */\n      0x01\n        /* \"https://github.com/OpenZeppelin/openzeppelin-contracts/blob/v3.4.2-solc-0.7/contracts/token/ERC20/ERC20.sol\":9590:9608   */\n      0x00\n        /* \"https://github.com/OpenZeppelin/openzeppelin-contracts/blob/v3.4.2-solc-0.7/contracts/token/ERC20/ERC20.sol\":9602:9607   */\n      dup6\n        /* \"https://github.com/OpenZeppelin/openzeppelin-contracts/blob/v3.4.2-solc-0.7/contracts/token/ERC20/ERC20.sol\":9590:9608   */\n      0xffffffffffffffffffffffffffffffffffffffff\n      and\n      0xffffffffffffffffffffffffffffffffffffffff\n      and\n      dup2\n      mstore\n      0x20\n      add\n      swap1\n      dup2\n      mstore\n      0x20\n      add\n      0x00\n      keccak256\n        /* \"https://github.com/OpenZeppelin/openzeppelin-contracts/blob/v3.4.2-solc-0.7/contracts/token/ERC20/ERC20.sol\":9590:9617   */\n      0x00\n        /* \"https://github.com/OpenZeppelin/openzeppelin-contracts/blob/v3.4.2-solc-0.7/contracts/token/ERC20/ERC20.sol\":9609:9616   */\n      dup5\n        /* \"https://github.com/OpenZeppelin/openzeppelin-contracts/blob/v3.4.2-solc-0.7/contracts/token/ERC20/ERC20.sol\":9590:9617   */\n      0xffffffffffffffffffffffffffffffffffffffff\n      and\n      0xffffffffffffffffffffffffffffffffffffffff\n      and\n      dup2\n      mstore\n      0x20\n      add\n      swap1\n      dup2\n      mstore\n      0x20\n      add\n      0x00\n      keccak256\n        /* \"https://github.com/OpenZeppelin/openzeppelin-contracts/blob/v3.4.2-solc-0.7/contracts/token/ERC20/ERC20.sol\":9590:9626   */\n      dup2\n      swap1\n      sstore\n      pop\n        /* \"https://github.com/OpenZeppelin/openzeppelin-contracts/blob/v3.4.2-solc-0.7/contracts/token/ERC20/ERC20.sol\":9657:9664   */\n      dup2\n        /* \"https://github.com/OpenZeppelin/openzeppelin-contracts/blob/v3.4.2-solc-0.7/contracts/token/ERC20/ERC20.sol\":9641:9673   */\n      0xffffffffffffffffffffffffffffffffffffffff\n      and\n        /* \"https://github.com/OpenZeppelin/openzeppelin-contracts/blob/v3.4.2-solc-0.7/contracts/token/ERC20/ERC20.sol\":9650:9655   */\n      dup4\n        /* \"https://github.com/OpenZeppelin/openzeppelin-contracts/blob/v3.4.2-solc-0.7/contracts/token/ERC20/ERC20.sol\":9641:9673   */\n      0xffffffffffffffffffffffffffffffffffffffff\n      and\n      0x8c5be1e5ebec7d5bd14f71427d1e84f3dd0314c0f7b2291e5b200ac8c7c3b925\n        /* \"https://github.com/OpenZeppelin/openzeppelin-contracts/blob/v3.4.2-solc-0.7/contracts/token/ERC20/ERC20.sol\":9666:9672   */\n      dup4\n        /* \"https://github.com/OpenZeppelin/openzeppelin-contracts/blob/v3.4.2-solc-0.7/contracts/token/ERC20/ERC20.sol\":9641:9673   */\n      mload(0x40)\n      dup1\n      dup3\n      dup2\n      mstore\n      0x20\n      add\n      swap2\n      pop\n      pop\n      mload(0x40)\n      dup1\n      swap2\n      sub\n      swap1\n      log3\n        /* \"https://github.com/OpenZeppelin/openzeppelin-contracts/blob/v3.4.2-solc-0.7/contracts/token/ERC20/ERC20.sol\":9340:9680   */\n      pop\n      pop\n      pop\n      jump\t// out\n        /* \"https://github.com/OpenZeppelin/openzeppelin-contracts/blob/v3.4.2-solc-0.7/contracts/token/ERC20/ERC20.sol\":7016:7546   */\n    tag_284:\n        /* \"https://github.com/OpenZeppelin/openzeppelin-contracts/blob/v3.4.2-solc-0.7/contracts/token/ERC20/ERC20.sol\":7139:7140   */\n      0x00\n        /* \"https://github.com/OpenZeppelin/openzeppelin-contracts/blob/v3.4.2-solc-0.7/contracts/token/ERC20/ERC20.sol\":7121:7141   */\n      0xffffffffffffffffffffffffffffffffffffffff\n      and\n        /* \"https://github.com/OpenZeppelin/openzeppelin-contracts/blob/v3.4.2-solc-0.7/contracts/token/ERC20/ERC20.sol\":7121:7127   */\n      dup4\n        /* \"https://github.com/OpenZeppelin/openzeppelin-contracts/blob/v3.4.2-solc-0.7/contracts/token/ERC20/ERC20.sol\":7121:7141   */\n      0xffffffffffffffffffffffffffffffffffffffff\n      and\n      eq\n      iszero\n        /* \"https://github.com/OpenZeppelin/openzeppelin-contracts/blob/v3.4.2-solc-0.7/contracts/token/ERC20/ERC20.sol\":7113:7183   */\n      tag_576\n      jumpi\n      mload(0x40)\n      0x08c379a000000000000000000000000000000000000000000000000000000000\n      dup2\n      mstore\n      0x04\n      add\n      dup1\n      dup1\n      0x20\n      add\n      dup3\n      dup2\n      sub\n      dup3\n      mstore\n      0x25\n      dup2\n      mstore\n      0x20\n      add\n      dup1\n      data_baecc556b46f4ed0f2b4cb599d60785ac8563dd2dc0a5bf12edea1c39e5e1fea\n      0x25\n      swap2\n      codecopy\n      0x40\n      add\n      swap2\n      pop\n      pop\n      mload(0x40)\n      dup1\n      swap2\n      sub\n      swap1\n      revert\n    tag_576:\n        /* \"https://github.com/OpenZeppelin/openzeppelin-contracts/blob/v3.4.2-solc-0.7/contracts/token/ERC20/ERC20.sol\":7222:7223   */\n      0x00\n        /* \"https://github.com/OpenZeppelin/openzeppelin-contracts/blob/v3.4.2-solc-0.7/contracts/token/ERC20/ERC20.sol\":7201:7224   */\n      0xffffffffffffffffffffffffffffffffffffffff\n      and\n        /* \"https://github.com/OpenZeppelin/openzeppelin-contracts/blob/v3.4.2-solc-0.7/contracts/token/ERC20/ERC20.sol\":7201:7210   */\n      dup3\n        /* \"https://github.com/OpenZeppelin/openzeppelin-contracts/blob/v3.4.2-solc-0.7/contracts/token/ERC20/ERC20.sol\":7201:7224   */\n      0xffffffffffffffffffffffffffffffffffffffff\n      and\n      eq\n      iszero\n        /* \"https://github.com/OpenZeppelin/openzeppelin-contracts/blob/v3.4.2-solc-0.7/contracts/token/ERC20/ERC20.sol\":7193:7264   */\n      tag_577\n      jumpi\n      mload(0x40)\n      0x08c379a000000000000000000000000000000000000000000000000000000000\n      dup2\n      mstore\n      0x04\n      add\n      dup1\n      dup1\n      0x20\n      add\n      dup3\n      dup2\n      sub\n      dup3\n      mstore\n      0x23\n      dup2\n      mstore\n      0x20\n      add\n      dup1\n      data_0557e210f7a69a685100a7e4e3d0a7024c546085cee28910fd17d0b081d9516f\n      0x23\n      swap2\n      codecopy\n      0x40\n      add\n      swap2\n      pop\n      pop\n      mload(0x40)\n      dup1\n      swap2\n      sub\n      swap1\n      revert\n    tag_577:\n        /* \"https://github.com/OpenZeppelin/openzeppelin-contracts/blob/v3.4.2-solc-0.7/contracts/token/ERC20/ERC20.sol\":7275:7322   */\n      tag_578\n        /* \"https://github.com/OpenZeppelin/openzeppelin-contracts/blob/v3.4.2-solc-0.7/contracts/token/ERC20/ERC20.sol\":7296:7302   */\n      dup4\n        /* \"https://github.com/OpenZeppelin/openzeppelin-contracts/blob/v3.4.2-solc-0.7/contracts/token/ERC20/ERC20.sol\":7304:7313   */\n      dup4\n        /* \"https://github.com/OpenZeppelin/openzeppelin-contracts/blob/v3.4.2-solc-0.7/contracts/token/ERC20/ERC20.sol\":7315:7321   */\n      dup4\n        /* \"https://github.com/OpenZeppelin/openzeppelin-contracts/blob/v3.4.2-solc-0.7/contracts/token/ERC20/ERC20.sol\":7275:7295   */\n      tag_579\n        /* \"https://github.com/OpenZeppelin/openzeppelin-contracts/blob/v3.4.2-solc-0.7/contracts/token/ERC20/ERC20.sol\":7275:7322   */\n      jump\t// in\n    tag_578:\n        /* \"https://github.com/OpenZeppelin/openzeppelin-contracts/blob/v3.4.2-solc-0.7/contracts/token/ERC20/ERC20.sol\":7353:7424   */\n      tag_580\n        /* \"https://github.com/OpenZeppelin/openzeppelin-contracts/blob/v3.4.2-solc-0.7/contracts/token/ERC20/ERC20.sol\":7375:7381   */\n      dup2\n        /* \"https://github.com/OpenZeppelin/openzeppelin-contracts/blob/v3.4.2-solc-0.7/contracts/token/ERC20/ERC20.sol\":7353:7424   */\n      mload(0x40)\n      dup1\n      0x60\n      add\n      0x40\n      mstore\n      dup1\n      0x26\n      dup2\n      mstore\n      0x20\n      add\n      data_4107e8a8b9e94bf8ff83080ddec1c0bffe897ebc2241b89d44f66b3d274088b6\n      0x26\n      swap2\n      codecopy\n        /* \"https://github.com/OpenZeppelin/openzeppelin-contracts/blob/v3.4.2-solc-0.7/contracts/token/ERC20/ERC20.sol\":7353:7362   */\n      0x00\n        /* \"https://github.com/OpenZeppelin/openzeppelin-contracts/blob/v3.4.2-solc-0.7/contracts/token/ERC20/ERC20.sol\":7353:7370   */\n      dup1\n        /* \"https://github.com/OpenZeppelin/openzeppelin-contracts/blob/v3.4.2-solc-0.7/contracts/token/ERC20/ERC20.sol\":7363:7369   */\n      dup8\n        /* \"https://github.com/OpenZeppelin/openzeppelin-contracts/blob/v3.4.2-solc-0.7/contracts/token/ERC20/ERC20.sol\":7353:7370   */\n      0xffffffffffffffffffffffffffffffffffffffff\n      and\n      0xffffffffffffffffffffffffffffffffffffffff\n      and\n      dup2\n      mstore\n      0x20\n      add\n      swap1\n      dup2\n      mstore\n      0x20\n      add\n      0x00\n      keccak256\n      sload\n        /* \"https://github.com/OpenZeppelin/openzeppelin-contracts/blob/v3.4.2-solc-0.7/contracts/token/ERC20/ERC20.sol\":7353:7374   */\n      tag_289\n      swap1\n        /* \"https://github.com/OpenZeppelin/openzeppelin-contracts/blob/v3.4.2-solc-0.7/contracts/token/ERC20/ERC20.sol\":7353:7424   */\n      swap3\n      swap2\n      swap1\n      0xffffffff\n      and\n      jump\t// in\n    tag_580:\n        /* \"https://github.com/OpenZeppelin/openzeppelin-contracts/blob/v3.4.2-solc-0.7/contracts/token/ERC20/ERC20.sol\":7333:7342   */\n      0x00\n        /* \"https://github.com/OpenZeppelin/openzeppelin-contracts/blob/v3.4.2-solc-0.7/contracts/token/ERC20/ERC20.sol\":7333:7350   */\n      dup1\n        /* \"https://github.com/OpenZeppelin/openzeppelin-contracts/blob/v3.4.2-solc-0.7/contracts/token/ERC20/ERC20.sol\":7343:7349   */\n      dup6\n        /* \"https://github.com/OpenZeppelin/openzeppelin-contracts/blob/v3.4.2-solc-0.7/contracts/token/ERC20/ERC20.sol\":7333:7350   */\n      0xffffffffffffffffffffffffffffffffffffffff\n      and\n      0xffffffffffffffffffffffffffffffffffffffff\n      and\n      dup2\n      mstore\n      0x20\n      add\n      swap1\n      dup2\n      mstore\n      0x20\n      add\n      0x00\n      keccak256\n        /* \"https://github.com/OpenZeppelin/openzeppelin-contracts/blob/v3.4.2-solc-0.7/contracts/token/ERC20/ERC20.sol\":7333:7424   */\n      dup2\n      swap1\n      sstore\n      pop\n        /* \"https://github.com/OpenZeppelin/openzeppelin-contracts/blob/v3.4.2-solc-0.7/contracts/token/ERC20/ERC20.sol\":7457:7489   */\n      tag_581\n        /* \"https://github.com/OpenZeppelin/openzeppelin-contracts/blob/v3.4.2-solc-0.7/contracts/token/ERC20/ERC20.sol\":7482:7488   */\n      dup2\n        /* \"https://github.com/OpenZeppelin/openzeppelin-contracts/blob/v3.4.2-solc-0.7/contracts/token/ERC20/ERC20.sol\":7457:7466   */\n      0x00\n        /* \"https://github.com/OpenZeppelin/openzeppelin-contracts/blob/v3.4.2-solc-0.7/contracts/token/ERC20/ERC20.sol\":7457:7477   */\n      dup1\n        /* \"https://github.com/OpenZeppelin/openzeppelin-contracts/blob/v3.4.2-solc-0.7/contracts/token/ERC20/ERC20.sol\":7467:7476   */\n      dup6\n        /* \"https://github.com/OpenZeppelin/openzeppelin-contracts/blob/v3.4.2-solc-0.7/contracts/token/ERC20/ERC20.sol\":7457:7477   */\n      0xffffffffffffffffffffffffffffffffffffffff\n      and\n      0xffffffffffffffffffffffffffffffffffffffff\n      and\n      dup2\n      mstore\n      0x20\n      add\n      swap1\n      dup2\n      mstore\n      0x20\n      add\n      0x00\n      keccak256\n      sload\n        /* \"https://github.com/OpenZeppelin/openzeppelin-contracts/blob/v3.4.2-solc-0.7/contracts/token/ERC20/ERC20.sol\":7457:7481   */\n      tag_297\n      swap1\n        /* \"https://github.com/OpenZeppelin/openzeppelin-contracts/blob/v3.4.2-solc-0.7/contracts/token/ERC20/ERC20.sol\":7457:7489   */\n      swap2\n      swap1\n      0xffffffff\n      and\n      jump\t// in\n    tag_581:\n        /* \"https://github.com/OpenZeppelin/openzeppelin-contracts/blob/v3.4.2-solc-0.7/contracts/token/ERC20/ERC20.sol\":7434:7443   */\n      0x00\n        /* \"https://github.com/OpenZeppelin/openzeppelin-contracts/blob/v3.4.2-solc-0.7/contracts/token/ERC20/ERC20.sol\":7434:7454   */\n      dup1\n        /* \"https://github.com/OpenZeppelin/openzeppelin-contracts/blob/v3.4.2-solc-0.7/contracts/token/ERC20/ERC20.sol\":7444:7453   */\n      dup5\n        /* \"https://github.com/OpenZeppelin/openzeppelin-contracts/blob/v3.4.2-solc-0.7/contracts/token/ERC20/ERC20.sol\":7434:7454   */\n      0xffffffffffffffffffffffffffffffffffffffff\n      and\n      0xffffffffffffffffffffffffffffffffffffffff\n      and\n      dup2\n      mstore\n      0x20\n      add\n      swap1\n      dup2\n      mstore\n      0x20\n      add\n      0x00\n      keccak256\n        /* \"https://github.com/OpenZeppelin/openzeppelin-contracts/blob/v3.4.2-solc-0.7/contracts/token/ERC20/ERC20.sol\":7434:7489   */\n      dup2\n      swap1\n      sstore\n      pop\n        /* \"https://github.com/OpenZeppelin/openzeppelin-contracts/blob/v3.4.2-solc-0.7/contracts/token/ERC20/ERC20.sol\":7521:7530   */\n      dup2\n        /* \"https://github.com/OpenZeppelin/openzeppelin-contracts/blob/v3.4.2-solc-0.7/contracts/token/ERC20/ERC20.sol\":7504:7539   */\n      0xffffffffffffffffffffffffffffffffffffffff\n      and\n        /* \"https://github.com/OpenZeppelin/openzeppelin-contracts/blob/v3.4.2-solc-0.7/contracts/token/ERC20/ERC20.sol\":7513:7519   */\n      dup4\n        /* \"https://github.com/OpenZeppelin/openzeppelin-contracts/blob/v3.4.2-solc-0.7/contracts/token/ERC20/ERC20.sol\":7504:7539   */\n      0xffffffffffffffffffffffffffffffffffffffff\n      and\n      0xddf252ad1be2c89b69c2b068fc378daa952ba7f163c4a11628f55a4df523b3ef\n        /* \"https://github.com/OpenZeppelin/openzeppelin-contracts/blob/v3.4.2-solc-0.7/contracts/token/ERC20/ERC20.sol\":7532:7538   */\n      dup4\n        /* \"https://github.com/OpenZeppelin/openzeppelin-contracts/blob/v3.4.2-solc-0.7/contracts/token/ERC20/ERC20.sol\":7504:7539   */\n      mload(0x40)\n      dup1\n      dup3\n      dup2\n      mstore\n      0x20\n      add\n      swap2\n      pop\n      pop\n      mload(0x40)\n      dup1\n      swap2\n      sub\n      swap1\n      log3\n        /* \"https://github.com/OpenZeppelin/openzeppelin-contracts/blob/v3.4.2-solc-0.7/contracts/token/ERC20/ERC20.sol\":7016:7546   */\n      pop\n      pop\n      pop\n      jump\t// out\n        /* \"https://github.com/OpenZeppelin/openzeppelin-contracts/blob/v3.4.2-solc-0.7/contracts/math/SafeMath.sol\":5424:5587   */\n    tag_289:\n        /* \"https://github.com/OpenZeppelin/openzeppelin-contracts/blob/v3.4.2-solc-0.7/contracts/math/SafeMath.sol\":5510:5517   */\n      0x00\n        /* \"https://github.com/OpenZeppelin/openzeppelin-contracts/blob/v3.4.2-solc-0.7/contracts/math/SafeMath.sol\":5542:5543   */\n      dup4\n        /* \"https://github.com/OpenZeppelin/openzeppelin-contracts/blob/v3.4.2-solc-0.7/contracts/math/SafeMath.sol\":5537:5538   */\n      dup4\n        /* \"https://github.com/OpenZeppelin/openzeppelin-contracts/blob/v3.4.2-solc-0.7/contracts/math/SafeMath.sol\":5537:5543   */\n      gt\n      iszero\n        /* \"https://github.com/OpenZeppelin/openzeppelin-contracts/blob/v3.4.2-solc-0.7/contracts/math/SafeMath.sol\":5545:5557   */\n      dup3\n        /* \"https://github.com/OpenZeppelin/openzeppelin-contracts/blob/v3.4.2-solc-0.7/contracts/math/SafeMath.sol\":5529:5558   */\n      swap1\n      tag_583\n      jumpi\n      mload(0x40)\n      0x08c379a000000000000000000000000000000000000000000000000000000000\n      dup2\n      mstore\n      0x04\n      add\n      dup1\n      dup1\n      0x20\n      add\n      dup3\n      dup2\n      sub\n      dup3\n      mstore\n      dup4\n      dup2\n      dup2\n      mload\n      dup2\n      mstore\n      0x20\n      add\n      swap2\n      pop\n      dup1\n      mload\n      swap1\n      0x20\n      add\n      swap1\n      dup1\n      dup4\n      dup4\n      0x00\n    tag_584:\n      dup4\n      dup2\n      lt\n      iszero\n      tag_586\n      jumpi\n      dup1\n      dup3\n      add\n      mload\n      dup2\n      dup5\n      add\n      mstore\n      0x20\n      dup2\n      add\n      swap1\n      pop\n      jump(tag_584)\n    tag_586:\n      pop\n      pop\n      pop\n      pop\n      swap1\n      pop\n      swap1\n      dup2\n      add\n      swap1\n      0x1f\n      and\n      dup1\n      iszero\n      tag_587\n      jumpi\n      dup1\n      dup3\n      sub\n      dup1\n      mload\n      0x01\n      dup4\n      0x20\n      sub\n      0x0100\n      exp\n      sub\n      not\n      and\n      dup2\n      mstore\n      0x20\n      add\n      swap2\n      pop\n    tag_587:\n      pop\n      swap3\n      pop\n      pop\n      pop\n      mload(0x40)\n      dup1\n      swap2\n      sub\n      swap1\n      revert\n    tag_583:\n      pop\n        /* \"https://github.com/OpenZeppelin/openzeppelin-contracts/blob/v3.4.2-solc-0.7/contracts/math/SafeMath.sol\":5579:5580   */\n      dup3\n        /* \"https://github.com/OpenZeppelin/openzeppelin-contracts/blob/v3.4.2-solc-0.7/contracts/math/SafeMath.sol\":5575:5576   */\n      dup5\n        /* \"https://github.com/OpenZeppelin/openzeppelin-contracts/blob/v3.4.2-solc-0.7/contracts/math/SafeMath.sol\":5575:5580   */\n      sub\n        /* \"https://github.com/OpenZeppelin/openzeppelin-contracts/blob/v3.4.2-solc-0.7/contracts/math/SafeMath.sol\":5568:5580   */\n      swap1\n      pop\n        /* \"https://github.com/OpenZeppelin/openzeppelin-contracts/blob/v3.4.2-solc-0.7/contracts/math/SafeMath.sol\":5424:5587   */\n      swap4\n      swap3\n      pop\n      pop\n      pop\n      jump\t// out\n        /* \"https://github.com/OpenZeppelin/openzeppelin-contracts/blob/v3.4.2-solc-0.7/contracts/math/SafeMath.sol\":2682:2857   */\n    tag_297:\n        /* \"https://github.com/OpenZeppelin/openzeppelin-contracts/blob/v3.4.2-solc-0.7/contracts/math/SafeMath.sol\":2740:2747   */\n      0x00\n        /* \"https://github.com/OpenZeppelin/openzeppelin-contracts/blob/v3.4.2-solc-0.7/contracts/math/SafeMath.sol\":2759:2768   */\n      dup1\n        /* \"https://github.com/OpenZeppelin/openzeppelin-contracts/blob/v3.4.2-solc-0.7/contracts/math/SafeMath.sol\":2775:2776   */\n      dup3\n        /* \"https://github.com/OpenZeppelin/openzeppelin-contracts/blob/v3.4.2-solc-0.7/contracts/math/SafeMath.sol\":2771:2772   */\n      dup5\n        /* \"https://github.com/OpenZeppelin/openzeppelin-contracts/blob/v3.4.2-solc-0.7/contracts/math/SafeMath.sol\":2771:2776   */\n      add\n        /* \"https://github.com/OpenZeppelin/openzeppelin-contracts/blob/v3.4.2-solc-0.7/contracts/math/SafeMath.sol\":2759:2776   */\n      swap1\n      pop\n        /* \"https://github.com/OpenZeppelin/openzeppelin-contracts/blob/v3.4.2-solc-0.7/contracts/math/SafeMath.sol\":2799:2800   */\n      dup4\n        /* \"https://github.com/OpenZeppelin/openzeppelin-contracts/blob/v3.4.2-solc-0.7/contracts/math/SafeMath.sol\":2794:2795   */\n      dup2\n        /* \"https://github.com/OpenZeppelin/openzeppelin-contracts/blob/v3.4.2-solc-0.7/contracts/math/SafeMath.sol\":2794:2800   */\n      lt\n      iszero\n        /* \"https://github.com/OpenZeppelin/openzeppelin-contracts/blob/v3.4.2-solc-0.7/contracts/math/SafeMath.sol\":2786:2832   */\n      tag_589\n      jumpi\n      mload(0x40)\n      0x08c379a000000000000000000000000000000000000000000000000000000000\n      dup2\n      mstore\n      0x04\n      add\n      dup1\n      dup1\n      0x20\n      add\n      dup3\n      dup2\n      sub\n      dup3\n      mstore\n      0x1b\n      dup2\n      mstore\n      0x20\n      add\n      dup1\n      0x536166654d6174683a206164646974696f6e206f766572666c6f770000000000\n      dup2\n      mstore\n      pop\n      0x20\n      add\n      swap2\n      pop\n      pop\n      mload(0x40)\n      dup1\n      swap2\n      sub\n      swap1\n      revert\n    tag_589:\n        /* \"https://github.com/OpenZeppelin/openzeppelin-contracts/blob/v3.4.2-solc-0.7/contracts/math/SafeMath.sol\":2849:2850   */\n      dup1\n        /* \"https://github.com/OpenZeppelin/openzeppelin-contracts/blob/v3.4.2-solc-0.7/contracts/math/SafeMath.sol\":2842:2850   */\n      swap2\n      pop\n      pop\n        /* \"https://github.com/OpenZeppelin/openzeppelin-contracts/blob/v3.4.2-solc-0.7/contracts/math/SafeMath.sol\":2682:2857   */\n      swap3\n      swap2\n      pop\n      pop\n      jump\t// out\n        /* \"LiquidityToken.sol\":8126:8551  function checkAllocationsNotTerminatedAndProjectNotYetLaunched() private view {... */\n    tag_304:\n        /* \"LiquidityToken.sol\":8254:8259  false */\n      0x00\n        /* \"LiquidityToken.sol\":8226:8259  areAllocationsTerminated == false */\n      iszero\n      iszero\n        /* \"LiquidityToken.sol\":8226:8250  areAllocationsTerminated */\n      0x11\n      0x02\n      swap1\n      sload\n      swap1\n      0x0100\n      exp\n      swap1\n      div\n      0xff\n      and\n        /* \"LiquidityToken.sol\":8226:8259  areAllocationsTerminated == false */\n      iszero\n      iszero\n      eq\n        /* \"LiquidityToken.sol\":8211:8292  require(... */\n      tag_591\n      jumpi\n      mload(0x40)\n      0x08c379a000000000000000000000000000000000000000000000000000000000\n      dup2\n      mstore\n      0x04\n      add\n      dup1\n      dup1\n      0x20\n      add\n      dup3\n      dup2\n      sub\n      dup3\n      mstore\n      0x16\n      dup2\n      mstore\n      0x20\n      add\n      dup1\n      0x616c6c6f636174696f6e73207465726d696e6174656400000000000000000000\n      dup2\n      mstore\n      pop\n      0x20\n      add\n      swap2\n      pop\n      pop\n      mload(0x40)\n      dup1\n      swap2\n      sub\n      swap1\n      revert\n    tag_591:\n        /* \"LiquidityToken.sol\":8345:8348  0x0 */\n      0x00\n        /* \"LiquidityToken.sol\":8303:8349  address(interfaceProjectToken) != address(0x0) */\n      0xffffffffffffffffffffffffffffffffffffffff\n      and\n        /* \"LiquidityToken.sol\":8311:8332  interfaceProjectToken */\n      0x06\n      0x00\n      swap1\n      sload\n      swap1\n      0x0100\n      exp\n      swap1\n      div\n      0xffffffffffffffffffffffffffffffffffffffff\n      and\n        /* \"LiquidityToken.sol\":8303:8349  address(interfaceProjectToken) != address(0x0) */\n      0xffffffffffffffffffffffffffffffffffffffff\n      and\n      eq\n        /* \"LiquidityToken.sol\":8299:8547  if (address(interfaceProjectToken) != address(0x0)) {... */\n      tag_592\n      jumpi\n        /* \"LiquidityToken.sol\":8360:8376  uint _dateLaunch */\n      0x00\n        /* \"LiquidityToken.sol\":8379:8400  interfaceProjectToken */\n      0x06\n      0x00\n      swap1\n      sload\n      swap1\n      0x0100\n      exp\n      swap1\n      div\n      0xffffffffffffffffffffffffffffffffffffffff\n      and\n        /* \"LiquidityToken.sol\":8379:8411  interfaceProjectToken.dateLaunch */\n      0xffffffffffffffffffffffffffffffffffffffff\n      and\n      0xfd726827\n        /* \"LiquidityToken.sol\":8379:8413  interfaceProjectToken.dateLaunch() */\n      mload(0x40)\n      dup2\n      0xffffffff\n      and\n      0xe0\n      shl\n      dup2\n      mstore\n      0x04\n      add\n      0x20\n      mload(0x40)\n      dup1\n      dup4\n      sub\n      dup2\n      dup7\n      dup1\n      extcodesize\n      iszero\n      dup1\n      iszero\n      tag_593\n      jumpi\n      0x00\n      dup1\n      revert\n    tag_593:\n      pop\n      gas\n      staticcall\n      iszero\n      dup1\n      iszero\n      tag_595\n      jumpi\n      returndatasize\n      0x00\n      dup1\n      returndatacopy\n      revert(0x00, returndatasize)\n    tag_595:\n      pop\n      pop\n      pop\n      pop\n      mload(0x40)\n      returndatasize\n      0x20\n      dup2\n      lt\n      iszero\n      tag_596\n      jumpi\n      0x00\n      dup1\n      revert\n    tag_596:\n      dup2\n      add\n      swap1\n      dup1\n      dup1\n      mload\n      swap1\n      0x20\n      add\n      swap1\n      swap3\n      swap2\n      swap1\n      pop\n      pop\n      pop\n        /* \"LiquidityToken.sol\":8360:8413  uint _dateLaunch = interfaceProjectToken.dateLaunch() */\n      swap1\n      pop\n        /* \"LiquidityToken.sol\":8440:8441  0 */\n      0x00\n        /* \"LiquidityToken.sol\":8426:8437  _dateLaunch */\n      dup2\n        /* \"LiquidityToken.sol\":8426:8441  _dateLaunch > 0 */\n      gt\n        /* \"LiquidityToken.sol\":8422:8541  if (_dateLaunch > 0) {... */\n      iszero\n      tag_597\n      jumpi\n        /* \"LiquidityToken.sol\":8490:8501  _dateLaunch */\n      dup1\n        /* \"LiquidityToken.sol\":8472:8487  block.timestamp */\n      timestamp\n        /* \"LiquidityToken.sol\":8472:8501  block.timestamp < _dateLaunch */\n      lt\n        /* \"LiquidityToken.sol\":8453:8532  require(... */\n      tag_598\n      jumpi\n      mload(0x40)\n      0x08c379a000000000000000000000000000000000000000000000000000000000\n      dup2\n      mstore\n      0x04\n      add\n      dup1\n      dup1\n      0x20\n      add\n      dup3\n      dup2\n      sub\n      dup3\n      mstore\n      0x10\n      dup2\n      mstore\n      0x20\n      add\n      dup1\n      0x416c7265616479206c61756e6368656400000000000000000000000000000000\n      dup2\n      mstore\n      pop\n      0x20\n      add\n      swap2\n      pop\n      pop\n      mload(0x40)\n      dup1\n      swap2\n      sub\n      swap1\n      revert\n    tag_598:\n        /* \"LiquidityToken.sol\":8422:8541  if (_dateLaunch > 0) {... */\n    tag_597:\n        /* \"LiquidityToken.sol\":8299:8547  if (address(interfaceProjectToken) != address(0x0)) {... */\n      pop\n    tag_592:\n        /* \"LiquidityToken.sol\":8126:8551  function checkAllocationsNotTerminatedAndProjectNotYetLaunched() private view {... */\n      jump\t// out\n        /* \"https://github.com/OpenZeppelin/openzeppelin-contracts/blob/v3.4.2-solc-0.7/contracts/math/SafeMath.sol\":3530:3745   */\n    tag_336:\n        /* \"https://github.com/OpenZeppelin/openzeppelin-contracts/blob/v3.4.2-solc-0.7/contracts/math/SafeMath.sol\":3588:3595   */\n      0x00\n        /* \"https://github.com/OpenZeppelin/openzeppelin-contracts/blob/v3.4.2-solc-0.7/contracts/math/SafeMath.sol\":3616:3617   */\n      dup1\n        /* \"https://github.com/OpenZeppelin/openzeppelin-contracts/blob/v3.4.2-solc-0.7/contracts/math/SafeMath.sol\":3611:3612   */\n      dup4\n        /* \"https://github.com/OpenZeppelin/openzeppelin-contracts/blob/v3.4.2-solc-0.7/contracts/math/SafeMath.sol\":3611:3617   */\n      eq\n        /* \"https://github.com/OpenZeppelin/openzeppelin-contracts/blob/v3.4.2-solc-0.7/contracts/math/SafeMath.sol\":3607:3627   */\n      iszero\n      tag_600\n      jumpi\n        /* \"https://github.com/OpenZeppelin/openzeppelin-contracts/blob/v3.4.2-solc-0.7/contracts/math/SafeMath.sol\":3626:3627   */\n      0x00\n        /* \"https://github.com/OpenZeppelin/openzeppelin-contracts/blob/v3.4.2-solc-0.7/contracts/math/SafeMath.sol\":3619:3627   */\n      swap1\n      pop\n      jump(tag_599)\n        /* \"https://github.com/OpenZeppelin/openzeppelin-contracts/blob/v3.4.2-solc-0.7/contracts/math/SafeMath.sol\":3607:3627   */\n    tag_600:\n        /* \"https://github.com/OpenZeppelin/openzeppelin-contracts/blob/v3.4.2-solc-0.7/contracts/math/SafeMath.sol\":3637:3646   */\n      0x00\n        /* \"https://github.com/OpenZeppelin/openzeppelin-contracts/blob/v3.4.2-solc-0.7/contracts/math/SafeMath.sol\":3653:3654   */\n      dup3\n        /* \"https://github.com/OpenZeppelin/openzeppelin-contracts/blob/v3.4.2-solc-0.7/contracts/math/SafeMath.sol\":3649:3650   */\n      dup5\n        /* \"https://github.com/OpenZeppelin/openzeppelin-contracts/blob/v3.4.2-solc-0.7/contracts/math/SafeMath.sol\":3649:3654   */\n      mul\n        /* \"https://github.com/OpenZeppelin/openzeppelin-contracts/blob/v3.4.2-solc-0.7/contracts/math/SafeMath.sol\":3637:3654   */\n      swap1\n      pop\n        /* \"https://github.com/OpenZeppelin/openzeppelin-contracts/blob/v3.4.2-solc-0.7/contracts/math/SafeMath.sol\":3681:3682   */\n      dup3\n        /* \"https://github.com/OpenZeppelin/openzeppelin-contracts/blob/v3.4.2-solc-0.7/contracts/math/SafeMath.sol\":3676:3677   */\n      dup5\n        /* \"https://github.com/OpenZeppelin/openzeppelin-contracts/blob/v3.4.2-solc-0.7/contracts/math/SafeMath.sol\":3672:3673   */\n      dup3\n        /* \"https://github.com/OpenZeppelin/openzeppelin-contracts/blob/v3.4.2-solc-0.7/contracts/math/SafeMath.sol\":3672:3677   */\n      dup2\n      tag_601\n      jumpi\n      invalid\n    tag_601:\n      div\n        /* \"https://github.com/OpenZeppelin/openzeppelin-contracts/blob/v3.4.2-solc-0.7/contracts/math/SafeMath.sol\":3672:3682   */\n      eq\n        /* \"https://github.com/OpenZeppelin/openzeppelin-contracts/blob/v3.4.2-solc-0.7/contracts/math/SafeMath.sol\":3664:3720   */\n      tag_602\n      jumpi\n      mload(0x40)\n      0x08c379a000000000000000000000000000000000000000000000000000000000\n      dup2\n      mstore\n      0x04\n      add\n      dup1\n      dup1\n      0x20\n      add\n      dup3\n      dup2\n      sub\n      dup3\n      mstore\n      0x21\n      dup2\n      mstore\n      0x20\n      add\n      dup1\n      data_9113bb53c2876a3805b2c9242029423fc540a728243ce887ab24c82cf119fba3\n      0x21\n      swap2\n      codecopy\n      0x40\n      add\n      swap2\n      pop\n      pop\n      mload(0x40)\n      dup1\n      swap2\n      sub\n      swap1\n      revert\n    tag_602:\n        /* \"https://github.com/OpenZeppelin/openzeppelin-contracts/blob/v3.4.2-solc-0.7/contracts/math/SafeMath.sol\":3737:3738   */\n      dup1\n        /* \"https://github.com/OpenZeppelin/openzeppelin-contracts/blob/v3.4.2-solc-0.7/contracts/math/SafeMath.sol\":3730:3738   */\n      swap2\n      pop\n      pop\n        /* \"https://github.com/OpenZeppelin/openzeppelin-contracts/blob/v3.4.2-solc-0.7/contracts/math/SafeMath.sol\":3530:3745   */\n    tag_599:\n      swap3\n      swap2\n      pop\n      pop\n      jump\t// out\n        /* \"https://github.com/OpenZeppelin/openzeppelin-contracts/blob/v3.4.2-solc-0.7/contracts/math/SafeMath.sol\":4209:4359   */\n    tag_340:\n        /* \"https://github.com/OpenZeppelin/openzeppelin-contracts/blob/v3.4.2-solc-0.7/contracts/math/SafeMath.sol\":4267:4274   */\n      0x00\n        /* \"https://github.com/OpenZeppelin/openzeppelin-contracts/blob/v3.4.2-solc-0.7/contracts/math/SafeMath.sol\":4298:4299   */\n      dup1\n        /* \"https://github.com/OpenZeppelin/openzeppelin-contracts/blob/v3.4.2-solc-0.7/contracts/math/SafeMath.sol\":4294:4295   */\n      dup3\n        /* \"https://github.com/OpenZeppelin/openzeppelin-contracts/blob/v3.4.2-solc-0.7/contracts/math/SafeMath.sol\":4294:4299   */\n      gt\n        /* \"https://github.com/OpenZeppelin/openzeppelin-contracts/blob/v3.4.2-solc-0.7/contracts/math/SafeMath.sol\":4286:4330   */\n      tag_604\n      jumpi\n      mload(0x40)\n      0x08c379a000000000000000000000000000000000000000000000000000000000\n      dup2\n      mstore\n      0x04\n      add\n      dup1\n      dup1\n      0x20\n      add\n      dup3\n      dup2\n      sub\n      dup3\n      mstore\n      0x1a\n      dup2\n      mstore\n      0x20\n      add\n      dup1\n      0x536166654d6174683a206469766973696f6e206279207a65726f000000000000\n      dup2\n      mstore\n      pop\n      0x20\n      add\n      swap2\n      pop\n      pop\n      mload(0x40)\n      dup1\n      swap2\n      sub\n      swap1\n      revert\n    tag_604:\n        /* \"https://github.com/OpenZeppelin/openzeppelin-contracts/blob/v3.4.2-solc-0.7/contracts/math/SafeMath.sol\":4351:4352   */\n      dup2\n        /* \"https://github.com/OpenZeppelin/openzeppelin-contracts/blob/v3.4.2-solc-0.7/contracts/math/SafeMath.sol\":4347:4348   */\n      dup4\n        /* \"https://github.com/OpenZeppelin/openzeppelin-contracts/blob/v3.4.2-solc-0.7/contracts/math/SafeMath.sol\":4347:4352   */\n      dup2\n      tag_605\n      jumpi\n      invalid\n    tag_605:\n      div\n        /* \"https://github.com/OpenZeppelin/openzeppelin-contracts/blob/v3.4.2-solc-0.7/contracts/math/SafeMath.sol\":4340:4352   */\n      swap1\n      pop\n        /* \"https://github.com/OpenZeppelin/openzeppelin-contracts/blob/v3.4.2-solc-0.7/contracts/math/SafeMath.sol\":4209:4359   */\n      swap3\n      swap2\n      pop\n      pop\n      jump\t// out\n        /* \"LiquidityToken.sol\":12906:13326  function updateStakingAndGetHodlRewards(address _user) private returns (uint _hodlRewards) {... */\n    tag_342:\n        /* \"LiquidityToken.sol\":12978:12995  uint _hodlRewards */\n      0x00\n        /* \"LiquidityToken.sol\":13003:13043  updateStakingParameters(block.timestamp) */\n      tag_607\n        /* \"LiquidityToken.sol\":13027:13042  block.timestamp */\n      timestamp\n        /* \"LiquidityToken.sol\":13003:13026  updateStakingParameters */\n      tag_467\n        /* \"LiquidityToken.sol\":13003:13043  updateStakingParameters(block.timestamp) */\n      jump\t// in\n    tag_607:\n        /* \"LiquidityToken.sol\":13050:13081  uint _currentRewardPerShare1e18 */\n      0x00\n        /* \"LiquidityToken.sol\":13084:13109  currentRewardPerShare1e18 */\n      sload(0x0d)\n        /* \"LiquidityToken.sol\":13050:13109  uint _currentRewardPerShare1e18 = currentRewardPerShare1e18 */\n      swap1\n      pop\n        /* \"LiquidityToken.sol\":13130:13179  getHodlRewards(_user, _currentRewardPerShare1e18) */\n      tag_608\n        /* \"LiquidityToken.sol\":13145:13150  _user */\n      dup4\n        /* \"LiquidityToken.sol\":13152:13178  _currentRewardPerShare1e18 */\n      dup3\n        /* \"LiquidityToken.sol\":13130:13144  getHodlRewards */\n      tag_269\n        /* \"LiquidityToken.sol\":13130:13179  getHodlRewards(_user, _currentRewardPerShare1e18) */\n      jump\t// in\n    tag_608:\n        /* \"LiquidityToken.sol\":13115:13179  _hodlRewards = getHodlRewards(_user, _currentRewardPerShare1e18) */\n      swap2\n      pop\n        /* \"LiquidityToken.sol\":13220:13246  _currentRewardPerShare1e18 */\n      dup1\n        /* \"LiquidityToken.sol\":13185:13210  claimedRewardPerShare1e18 */\n      0x12\n        /* \"LiquidityToken.sol\":13185:13217  claimedRewardPerShare1e18[_user] */\n      0x00\n        /* \"LiquidityToken.sol\":13211:13216  _user */\n      dup6\n        /* \"LiquidityToken.sol\":13185:13217  claimedRewardPerShare1e18[_user] */\n      0xffffffffffffffffffffffffffffffffffffffff\n      and\n      0xffffffffffffffffffffffffffffffffffffffff\n      and\n      dup2\n      mstore\n      0x20\n      add\n      swap1\n      dup2\n      mstore\n      0x20\n      add\n      0x00\n      keccak256\n        /* \"LiquidityToken.sol\":13185:13246  claimedRewardPerShare1e18[_user] = _currentRewardPerShare1e18 */\n      dup2\n      swap1\n      sstore\n      pop\n        /* \"LiquidityToken.sol\":13257:13320  ClaimedRewardPerShareUpdated(_user, _currentRewardPerShare1e18) */\n      0x85d06bbafc9dfd05707e7a9369f98dcc505c964d1c4057022d7799ab84319f88\n        /* \"LiquidityToken.sol\":13286:13291  _user */\n      dup4\n        /* \"LiquidityToken.sol\":13293:13319  _currentRewardPerShare1e18 */\n      dup3\n        /* \"LiquidityToken.sol\":13257:13320  ClaimedRewardPerShareUpdated(_user, _currentRewardPerShare1e18) */\n      mload(0x40)\n      dup1\n      dup4\n      0xffffffffffffffffffffffffffffffffffffffff\n      and\n      dup2\n      mstore\n      0x20\n      add\n      dup3\n      dup2\n      mstore\n      0x20\n      add\n      swap3\n      pop\n      pop\n      pop\n      mload(0x40)\n      dup1\n      swap2\n      sub\n      swap1\n      log1\n        /* \"LiquidityToken.sol\":12906:13326  function updateStakingAndGetHodlRewards(address _user) private returns (uint _hodlRewards) {... */\n      pop\n      swap2\n      swap1\n      pop\n      jump\t// out\n        /* \"https://github.com/OpenZeppelin/openzeppelin-contracts/blob/v3.4.2-solc-0.7/contracts/math/SafeMath.sol\":3128:3283   */\n    tag_348:\n        /* \"https://github.com/OpenZeppelin/openzeppelin-contracts/blob/v3.4.2-solc-0.7/contracts/math/SafeMath.sol\":3186:3193   */\n      0x00\n        /* \"https://github.com/OpenZeppelin/openzeppelin-contracts/blob/v3.4.2-solc-0.7/contracts/math/SafeMath.sol\":3218:3219   */\n      dup3\n        /* \"https://github.com/OpenZeppelin/openzeppelin-contracts/blob/v3.4.2-solc-0.7/contracts/math/SafeMath.sol\":3213:3214   */\n      dup3\n        /* \"https://github.com/OpenZeppelin/openzeppelin-contracts/blob/v3.4.2-solc-0.7/contracts/math/SafeMath.sol\":3213:3219   */\n      gt\n      iszero\n        /* \"https://github.com/OpenZeppelin/openzeppelin-contracts/blob/v3.4.2-solc-0.7/contracts/math/SafeMath.sol\":3205:3254   */\n      tag_610\n      jumpi\n      mload(0x40)\n      0x08c379a000000000000000000000000000000000000000000000000000000000\n      dup2\n      mstore\n      0x04\n      add\n      dup1\n      dup1\n      0x20\n      add\n      dup3\n      dup2\n      sub\n      dup3\n      mstore\n      0x1e\n      dup2\n      mstore\n      0x20\n      add\n      dup1\n      0x536166654d6174683a207375627472616374696f6e206f766572666c6f770000\n      dup2\n      mstore\n      pop\n      0x20\n      add\n      swap2\n      pop\n      pop\n      mload(0x40)\n      dup1\n      swap2\n      sub\n      swap1\n      revert\n    tag_610:\n        /* \"https://github.com/OpenZeppelin/openzeppelin-contracts/blob/v3.4.2-solc-0.7/contracts/math/SafeMath.sol\":3275:3276   */\n      dup2\n        /* \"https://github.com/OpenZeppelin/openzeppelin-contracts/blob/v3.4.2-solc-0.7/contracts/math/SafeMath.sol\":3271:3272   */\n      dup4\n        /* \"https://github.com/OpenZeppelin/openzeppelin-contracts/blob/v3.4.2-solc-0.7/contracts/math/SafeMath.sol\":3271:3276   */\n      sub\n        /* \"https://github.com/OpenZeppelin/openzeppelin-contracts/blob/v3.4.2-solc-0.7/contracts/math/SafeMath.sol\":3264:3276   */\n      swap1\n      pop\n        /* \"https://github.com/OpenZeppelin/openzeppelin-contracts/blob/v3.4.2-solc-0.7/contracts/math/SafeMath.sol\":3128:3283   */\n      swap3\n      swap2\n      pop\n      pop\n      jump\t// out\n        /* \"https://github.com/OpenZeppelin/openzeppelin-contracts/blob/v3.4.2-solc-0.7/contracts/token/ERC20/ERC20.sol\":7817:8187   */\n    tag_351:\n        /* \"https://github.com/OpenZeppelin/openzeppelin-contracts/blob/v3.4.2-solc-0.7/contracts/token/ERC20/ERC20.sol\":7919:7920   */\n      0x00\n        /* \"https://github.com/OpenZeppelin/openzeppelin-contracts/blob/v3.4.2-solc-0.7/contracts/token/ERC20/ERC20.sol\":7900:7921   */\n      0xffffffffffffffffffffffffffffffffffffffff\n      and\n        /* \"https://github.com/OpenZeppelin/openzeppelin-contracts/blob/v3.4.2-solc-0.7/contracts/token/ERC20/ERC20.sol\":7900:7907   */\n      dup3\n        /* \"https://github.com/OpenZeppelin/openzeppelin-contracts/blob/v3.4.2-solc-0.7/contracts/token/ERC20/ERC20.sol\":7900:7921   */\n      0xffffffffffffffffffffffffffffffffffffffff\n      and\n      eq\n      iszero\n        /* \"https://github.com/OpenZeppelin/openzeppelin-contracts/blob/v3.4.2-solc-0.7/contracts/token/ERC20/ERC20.sol\":7892:7957   */\n      tag_612\n      jumpi\n      mload(0x40)\n      0x08c379a000000000000000000000000000000000000000000000000000000000\n      dup2\n      mstore\n      0x04\n      add\n      dup1\n      dup1\n      0x20\n      add\n      dup3\n      dup2\n      sub\n      dup3\n      mstore\n      0x1f\n      dup2\n      mstore\n      0x20\n      add\n      dup1\n      0x45524332303a206d696e7420746f20746865207a65726f206164647265737300\n      dup2\n      mstore\n      pop\n      0x20\n      add\n      swap2\n      pop\n      pop\n      mload(0x40)\n      dup1\n      swap2\n      sub\n      swap1\n      revert\n    tag_612:\n        /* \"https://github.com/OpenZeppelin/openzeppelin-contracts/blob/v3.4.2-solc-0.7/contracts/token/ERC20/ERC20.sol\":7968:8017   */\n      tag_613\n        /* \"https://github.com/OpenZeppelin/openzeppelin-contracts/blob/v3.4.2-solc-0.7/contracts/token/ERC20/ERC20.sol\":7997:7998   */\n      0x00\n        /* \"https://github.com/OpenZeppelin/openzeppelin-contracts/blob/v3.4.2-solc-0.7/contracts/token/ERC20/ERC20.sol\":8001:8008   */\n      dup4\n        /* \"https://github.com/OpenZeppelin/openzeppelin-contracts/blob/v3.4.2-solc-0.7/contracts/token/ERC20/ERC20.sol\":8010:8016   */\n      dup4\n        /* \"https://github.com/OpenZeppelin/openzeppelin-contracts/blob/v3.4.2-solc-0.7/contracts/token/ERC20/ERC20.sol\":7968:7988   */\n      tag_579\n        /* \"https://github.com/OpenZeppelin/openzeppelin-contracts/blob/v3.4.2-solc-0.7/contracts/token/ERC20/ERC20.sol\":7968:8017   */\n      jump\t// in\n    tag_613:\n        /* \"https://github.com/OpenZeppelin/openzeppelin-contracts/blob/v3.4.2-solc-0.7/contracts/token/ERC20/ERC20.sol\":8043:8067   */\n      tag_614\n        /* \"https://github.com/OpenZeppelin/openzeppelin-contracts/blob/v3.4.2-solc-0.7/contracts/token/ERC20/ERC20.sol\":8060:8066   */\n      dup2\n        /* \"https://github.com/OpenZeppelin/openzeppelin-contracts/blob/v3.4.2-solc-0.7/contracts/token/ERC20/ERC20.sol\":8043:8055   */\n      sload(0x02)\n        /* \"https://github.com/OpenZeppelin/openzeppelin-contracts/blob/v3.4.2-solc-0.7/contracts/token/ERC20/ERC20.sol\":8043:8059   */\n      tag_297\n      swap1\n        /* \"https://github.com/OpenZeppelin/openzeppelin-contracts/blob/v3.4.2-solc-0.7/contracts/token/ERC20/ERC20.sol\":8043:8067   */\n      swap2\n      swap1\n      0xffffffff\n      and\n      jump\t// in\n    tag_614:\n        /* \"https://github.com/OpenZeppelin/openzeppelin-contracts/blob/v3.4.2-solc-0.7/contracts/token/ERC20/ERC20.sol\":8028:8040   */\n      0x02\n        /* \"https://github.com/OpenZeppelin/openzeppelin-contracts/blob/v3.4.2-solc-0.7/contracts/token/ERC20/ERC20.sol\":8028:8067   */\n      dup2\n      swap1\n      sstore\n      pop\n        /* \"https://github.com/OpenZeppelin/openzeppelin-contracts/blob/v3.4.2-solc-0.7/contracts/token/ERC20/ERC20.sol\":8098:8128   */\n      tag_615\n        /* \"https://github.com/OpenZeppelin/openzeppelin-contracts/blob/v3.4.2-solc-0.7/contracts/token/ERC20/ERC20.sol\":8121:8127   */\n      dup2\n        /* \"https://github.com/OpenZeppelin/openzeppelin-contracts/blob/v3.4.2-solc-0.7/contracts/token/ERC20/ERC20.sol\":8098:8107   */\n      0x00\n        /* \"https://github.com/OpenZeppelin/openzeppelin-contracts/blob/v3.4.2-solc-0.7/contracts/token/ERC20/ERC20.sol\":8098:8116   */\n      dup1\n        /* \"https://github.com/OpenZeppelin/openzeppelin-contracts/blob/v3.4.2-solc-0.7/contracts/token/ERC20/ERC20.sol\":8108:8115   */\n      dup6\n        /* \"https://github.com/OpenZeppelin/openzeppelin-contracts/blob/v3.4.2-solc-0.7/contracts/token/ERC20/ERC20.sol\":8098:8116   */\n      0xffffffffffffffffffffffffffffffffffffffff\n      and\n      0xffffffffffffffffffffffffffffffffffffffff\n      and\n      dup2\n      mstore\n      0x20\n      add\n      swap1\n      dup2\n      mstore\n      0x20\n      add\n      0x00\n      keccak256\n      sload\n        /* \"https://github.com/OpenZeppelin/openzeppelin-contracts/blob/v3.4.2-solc-0.7/contracts/token/ERC20/ERC20.sol\":8098:8120   */\n      tag_297\n      swap1\n        /* \"https://github.com/OpenZeppelin/openzeppelin-contracts/blob/v3.4.2-solc-0.7/contracts/token/ERC20/ERC20.sol\":8098:8128   */\n      swap2\n      swap1\n      0xffffffff\n      and\n      jump\t// in\n    tag_615:\n        /* \"https://github.com/OpenZeppelin/openzeppelin-contracts/blob/v3.4.2-solc-0.7/contracts/token/ERC20/ERC20.sol\":8077:8086   */\n      0x00\n        /* \"https://github.com/OpenZeppelin/openzeppelin-contracts/blob/v3.4.2-solc-0.7/contracts/token/ERC20/ERC20.sol\":8077:8095   */\n      dup1\n        /* \"https://github.com/OpenZeppelin/openzeppelin-contracts/blob/v3.4.2-solc-0.7/contracts/token/ERC20/ERC20.sol\":8087:8094   */\n      dup5\n        /* \"https://github.com/OpenZeppelin/openzeppelin-contracts/blob/v3.4.2-solc-0.7/contracts/token/ERC20/ERC20.sol\":8077:8095   */\n      0xffffffffffffffffffffffffffffffffffffffff\n      and\n      0xffffffffffffffffffffffffffffffffffffffff\n      and\n      dup2\n      mstore\n      0x20\n      add\n      swap1\n      dup2\n      mstore\n      0x20\n      add\n      0x00\n      keccak256\n        /* \"https://github.com/OpenZeppelin/openzeppelin-contracts/blob/v3.4.2-solc-0.7/contracts/token/ERC20/ERC20.sol\":8077:8128   */\n      dup2\n      swap1\n      sstore\n      pop\n        /* \"https://github.com/OpenZeppelin/openzeppelin-contracts/blob/v3.4.2-solc-0.7/contracts/token/ERC20/ERC20.sol\":8164:8171   */\n      dup2\n        /* \"https://github.com/OpenZeppelin/openzeppelin-contracts/blob/v3.4.2-solc-0.7/contracts/token/ERC20/ERC20.sol\":8143:8180   */\n      0xffffffffffffffffffffffffffffffffffffffff\n      and\n        /* \"https://github.com/OpenZeppelin/openzeppelin-contracts/blob/v3.4.2-solc-0.7/contracts/token/ERC20/ERC20.sol\":8160:8161   */\n      0x00\n        /* \"https://github.com/OpenZeppelin/openzeppelin-contracts/blob/v3.4.2-solc-0.7/contracts/token/ERC20/ERC20.sol\":8143:8180   */\n      0xffffffffffffffffffffffffffffffffffffffff\n      and\n      0xddf252ad1be2c89b69c2b068fc378daa952ba7f163c4a11628f55a4df523b3ef\n        /* \"https://github.com/OpenZeppelin/openzeppelin-contracts/blob/v3.4.2-solc-0.7/contracts/token/ERC20/ERC20.sol\":8173:8179   */\n      dup4\n        /* \"https://github.com/OpenZeppelin/openzeppelin-contracts/blob/v3.4.2-solc-0.7/contracts/token/ERC20/ERC20.sol\":8143:8180   */\n      mload(0x40)\n      dup1\n      dup3\n      dup2\n      mstore\n      0x20\n      add\n      swap2\n      pop\n      pop\n      mload(0x40)\n      dup1\n      swap2\n      sub\n      swap1\n      log3\n        /* \"https://github.com/OpenZeppelin/openzeppelin-contracts/blob/v3.4.2-solc-0.7/contracts/token/ERC20/ERC20.sol\":7817:8187   */\n      pop\n      pop\n      jump\t// out\n        /* \"LiquidityToken.sol\":15016:15465  function updateRewardsAfterFeesPayment(uint _fees) private {... */\n    tag_389:\n        /* \"LiquidityToken.sol\":15081:15121  uint _increasedCurrentRewardPerShare1e18 */\n      0x00\n        /* \"LiquidityToken.sol\":15124:15153  _fees.mul(1e18).div(stakedLT) */\n      tag_617\n        /* \"LiquidityToken.sol\":15144:15152  stakedLT */\n      sload(0x0e)\n        /* \"LiquidityToken.sol\":15124:15139  _fees.mul(1e18) */\n      tag_618\n        /* \"LiquidityToken.sol\":15134:15138  1e18 */\n      0x0de0b6b3a7640000\n        /* \"LiquidityToken.sol\":15124:15129  _fees */\n      dup6\n        /* \"LiquidityToken.sol\":15124:15133  _fees.mul */\n      tag_336\n      swap1\n        /* \"LiquidityToken.sol\":15124:15139  _fees.mul(1e18) */\n      swap2\n      swap1\n      0xffffffff\n      and\n      jump\t// in\n    tag_618:\n        /* \"LiquidityToken.sol\":15124:15143  _fees.mul(1e18).div */\n      tag_340\n      swap1\n        /* \"LiquidityToken.sol\":15124:15153  _fees.mul(1e18).div(stakedLT) */\n      swap2\n      swap1\n      0xffffffff\n      and\n      jump\t// in\n    tag_617:\n        /* \"LiquidityToken.sol\":15081:15153  uint _increasedCurrentRewardPerShare1e18 = _fees.mul(1e18).div(stakedLT) */\n      swap1\n      pop\n        /* \"LiquidityToken.sol\":15315:15381  currentRewardPerShare1e18.add(_increasedCurrentRewardPerShare1e18) */\n      tag_619\n        /* \"LiquidityToken.sol\":15345:15380  _increasedCurrentRewardPerShare1e18 */\n      dup2\n        /* \"LiquidityToken.sol\":15315:15340  currentRewardPerShare1e18 */\n      sload(0x0d)\n        /* \"LiquidityToken.sol\":15315:15344  currentRewardPerShare1e18.add */\n      tag_297\n      swap1\n        /* \"LiquidityToken.sol\":15315:15381  currentRewardPerShare1e18.add(_increasedCurrentRewardPerShare1e18) */\n      swap2\n      swap1\n      0xffffffff\n      and\n      jump\t// in\n    tag_619:\n        /* \"LiquidityToken.sol\":15287:15312  currentRewardPerShare1e18 */\n      0x0d\n        /* \"LiquidityToken.sol\":15287:15381  currentRewardPerShare1e18 = currentRewardPerShare1e18.add(_increasedCurrentRewardPerShare1e18) */\n      dup2\n      swap1\n      sstore\n      pop\n        /* \"LiquidityToken.sol\":15393:15460  IncreasedCurrentRewardPerShare(_increasedCurrentRewardPerShare1e18) */\n      0xb0ad669b2c654a9352811be6e1330332677e69548b033f2af030e16697749ef6\n        /* \"LiquidityToken.sol\":15424:15459  _increasedCurrentRewardPerShare1e18 */\n      dup2\n        /* \"LiquidityToken.sol\":15393:15460  IncreasedCurrentRewardPerShare(_increasedCurrentRewardPerShare1e18) */\n      mload(0x40)\n      dup1\n      dup3\n      dup2\n      mstore\n      0x20\n      add\n      swap2\n      pop\n      pop\n      mload(0x40)\n      dup1\n      swap2\n      sub\n      swap1\n      log1\n        /* \"LiquidityToken.sol\":15016:15465  function updateRewardsAfterFeesPayment(uint _fees) private {... */\n      pop\n      pop\n      jump\t// out\n        /* \"LiquidityToken.sol\":18293:18461  function ensureOnlyInterfaceProjectToken() private view {... */\n    tag_397:\n        /* \"LiquidityToken.sol\":18392:18413  interfaceProjectToken */\n      0x06\n      0x00\n      swap1\n      sload\n      swap1\n      0x0100\n      exp\n      swap1\n      div\n      0xffffffffffffffffffffffffffffffffffffffff\n      and\n        /* \"LiquidityToken.sol\":18370:18414  msg.sender == address(interfaceProjectToken) */\n      0xffffffffffffffffffffffffffffffffffffffff\n      and\n        /* \"LiquidityToken.sol\":18370:18380  msg.sender */\n      caller\n        /* \"LiquidityToken.sol\":18370:18414  msg.sender == address(interfaceProjectToken) */\n      0xffffffffffffffffffffffffffffffffffffffff\n      and\n      eq\n        /* \"LiquidityToken.sol\":18355:18456  require(... */\n      tag_621\n      jumpi\n      mload(0x40)\n      0x08c379a000000000000000000000000000000000000000000000000000000000\n      dup2\n      mstore\n      0x04\n      add\n      dup1\n      dup1\n      0x20\n      add\n      dup3\n      dup2\n      sub\n      dup3\n      mstore\n      0x18\n      dup2\n      mstore\n      0x20\n      add\n      dup1\n      0x4f6e6c792076616c69646174656420496e746572666163650000000000000000\n      dup2\n      mstore\n      pop\n      0x20\n      add\n      swap2\n      pop\n      pop\n      mload(0x40)\n      dup1\n      swap2\n      sub\n      swap1\n      revert\n    tag_621:\n        /* \"LiquidityToken.sol\":18293:18461  function ensureOnlyInterfaceProjectToken() private view {... */\n      jump\t// out\n        /* \"https://github.com/OpenZeppelin/openzeppelin-contracts/blob/v3.4.2-solc-0.7/contracts/token/ERC20/ERC20.sol\":8507:8917   */\n    tag_400:\n        /* \"https://github.com/OpenZeppelin/openzeppelin-contracts/blob/v3.4.2-solc-0.7/contracts/token/ERC20/ERC20.sol\":8609:8610   */\n      0x00\n        /* \"https://github.com/OpenZeppelin/openzeppelin-contracts/blob/v3.4.2-solc-0.7/contracts/token/ERC20/ERC20.sol\":8590:8611   */\n      0xffffffffffffffffffffffffffffffffffffffff\n      and\n        /* \"https://github.com/OpenZeppelin/openzeppelin-contracts/blob/v3.4.2-solc-0.7/contracts/token/ERC20/ERC20.sol\":8590:8597   */\n      dup3\n        /* \"https://github.com/OpenZeppelin/openzeppelin-contracts/blob/v3.4.2-solc-0.7/contracts/token/ERC20/ERC20.sol\":8590:8611   */\n      0xffffffffffffffffffffffffffffffffffffffff\n      and\n      eq\n      iszero\n        /* \"https://github.com/OpenZeppelin/openzeppelin-contracts/blob/v3.4.2-solc-0.7/contracts/token/ERC20/ERC20.sol\":8582:8649   */\n      tag_623\n      jumpi\n      mload(0x40)\n      0x08c379a000000000000000000000000000000000000000000000000000000000\n      dup2\n      mstore\n      0x04\n      add\n      dup1\n      dup1\n      0x20\n      add\n      dup3\n      dup2\n      sub\n      dup3\n      mstore\n      0x21\n      dup2\n      mstore\n      0x20\n      add\n      dup1\n      data_b16788493b576042bb52c50ed56189e0b250db113c7bfb1c3897d25cf9632d7f\n      0x21\n      swap2\n      codecopy\n      0x40\n      add\n      swap2\n      pop\n      pop\n      mload(0x40)\n      dup1\n      swap2\n      sub\n      swap1\n      revert\n    tag_623:\n        /* \"https://github.com/OpenZeppelin/openzeppelin-contracts/blob/v3.4.2-solc-0.7/contracts/token/ERC20/ERC20.sol\":8660:8709   */\n      tag_624\n        /* \"https://github.com/OpenZeppelin/openzeppelin-contracts/blob/v3.4.2-solc-0.7/contracts/token/ERC20/ERC20.sol\":8681:8688   */\n      dup3\n        /* \"https://github.com/OpenZeppelin/openzeppelin-contracts/blob/v3.4.2-solc-0.7/contracts/token/ERC20/ERC20.sol\":8698:8699   */\n      0x00\n        /* \"https://github.com/OpenZeppelin/openzeppelin-contracts/blob/v3.4.2-solc-0.7/contracts/token/ERC20/ERC20.sol\":8702:8708   */\n      dup4\n        /* \"https://github.com/OpenZeppelin/openzeppelin-contracts/blob/v3.4.2-solc-0.7/contracts/token/ERC20/ERC20.sol\":8660:8680   */\n      tag_579\n        /* \"https://github.com/OpenZeppelin/openzeppelin-contracts/blob/v3.4.2-solc-0.7/contracts/token/ERC20/ERC20.sol\":8660:8709   */\n      jump\t// in\n    tag_624:\n        /* \"https://github.com/OpenZeppelin/openzeppelin-contracts/blob/v3.4.2-solc-0.7/contracts/token/ERC20/ERC20.sol\":8741:8809   */\n      tag_625\n        /* \"https://github.com/OpenZeppelin/openzeppelin-contracts/blob/v3.4.2-solc-0.7/contracts/token/ERC20/ERC20.sol\":8764:8770   */\n      dup2\n        /* \"https://github.com/OpenZeppelin/openzeppelin-contracts/blob/v3.4.2-solc-0.7/contracts/token/ERC20/ERC20.sol\":8741:8809   */\n      mload(0x40)\n      dup1\n      0x60\n      add\n      0x40\n      mstore\n      dup1\n      0x22\n      dup2\n      mstore\n      0x20\n      add\n      data_149b126e7125232b4200af45303d04fba8b74653b1a295a6a561a528c33fefdd\n      0x22\n      swap2\n      codecopy\n        /* \"https://github.com/OpenZeppelin/openzeppelin-contracts/blob/v3.4.2-solc-0.7/contracts/token/ERC20/ERC20.sol\":8741:8750   */\n      0x00\n        /* \"https://github.com/OpenZeppelin/openzeppelin-contracts/blob/v3.4.2-solc-0.7/contracts/token/ERC20/ERC20.sol\":8741:8759   */\n      dup1\n        /* \"https://github.com/OpenZeppelin/openzeppelin-contracts/blob/v3.4.2-solc-0.7/contracts/token/ERC20/ERC20.sol\":8751:8758   */\n      dup7\n        /* \"https://github.com/OpenZeppelin/openzeppelin-contracts/blob/v3.4.2-solc-0.7/contracts/token/ERC20/ERC20.sol\":8741:8759   */\n      0xffffffffffffffffffffffffffffffffffffffff\n      and\n      0xffffffffffffffffffffffffffffffffffffffff\n      and\n      dup2\n      mstore\n      0x20\n      add\n      swap1\n      dup2\n      mstore\n      0x20\n      add\n      0x00\n      keccak256\n      sload\n        /* \"https://github.com/OpenZeppelin/openzeppelin-contracts/blob/v3.4.2-solc-0.7/contracts/token/ERC20/ERC20.sol\":8741:8763   */\n      tag_289\n      swap1\n        /* \"https://github.com/OpenZeppelin/openzeppelin-contracts/blob/v3.4.2-solc-0.7/contracts/token/ERC20/ERC20.sol\":8741:8809   */\n      swap3\n      swap2\n      swap1\n      0xffffffff\n      and\n      jump\t// in\n    tag_625:\n        /* \"https://github.com/OpenZeppelin/openzeppelin-contracts/blob/v3.4.2-solc-0.7/contracts/token/ERC20/ERC20.sol\":8720:8729   */\n      0x00\n        /* \"https://github.com/OpenZeppelin/openzeppelin-contracts/blob/v3.4.2-solc-0.7/contracts/token/ERC20/ERC20.sol\":8720:8738   */\n      dup1\n        /* \"https://github.com/OpenZeppelin/openzeppelin-contracts/blob/v3.4.2-solc-0.7/contracts/token/ERC20/ERC20.sol\":8730:8737   */\n      dup5\n        /* \"https://github.com/OpenZeppelin/openzeppelin-contracts/blob/v3.4.2-solc-0.7/contracts/token/ERC20/ERC20.sol\":8720:8738   */\n      0xffffffffffffffffffffffffffffffffffffffff\n      and\n      0xffffffffffffffffffffffffffffffffffffffff\n      and\n      dup2\n      mstore\n      0x20\n      add\n      swap1\n      dup2\n      mstore\n      0x20\n      add\n      0x00\n      keccak256\n        /* \"https://github.com/OpenZeppelin/openzeppelin-contracts/blob/v3.4.2-solc-0.7/contracts/token/ERC20/ERC20.sol\":8720:8809   */\n      dup2\n      swap1\n      sstore\n      pop\n        /* \"https://github.com/OpenZeppelin/openzeppelin-contracts/blob/v3.4.2-solc-0.7/contracts/token/ERC20/ERC20.sol\":8834:8858   */\n      tag_626\n        /* \"https://github.com/OpenZeppelin/openzeppelin-contracts/blob/v3.4.2-solc-0.7/contracts/token/ERC20/ERC20.sol\":8851:8857   */\n      dup2\n        /* \"https://github.com/OpenZeppelin/openzeppelin-contracts/blob/v3.4.2-solc-0.7/contracts/token/ERC20/ERC20.sol\":8834:8846   */\n      sload(0x02)\n        /* \"https://github.com/OpenZeppelin/openzeppelin-contracts/blob/v3.4.2-solc-0.7/contracts/token/ERC20/ERC20.sol\":8834:8850   */\n      tag_348\n      swap1\n        /* \"https://github.com/OpenZeppelin/openzeppelin-contracts/blob/v3.4.2-solc-0.7/contracts/token/ERC20/ERC20.sol\":8834:8858   */\n      swap2\n      swap1\n      0xffffffff\n      and\n      jump\t// in\n    tag_626:\n        /* \"https://github.com/OpenZeppelin/openzeppelin-contracts/blob/v3.4.2-solc-0.7/contracts/token/ERC20/ERC20.sol\":8819:8831   */\n      0x02\n        /* \"https://github.com/OpenZeppelin/openzeppelin-contracts/blob/v3.4.2-solc-0.7/contracts/token/ERC20/ERC20.sol\":8819:8858   */\n      dup2\n      swap1\n      sstore\n      pop\n        /* \"https://github.com/OpenZeppelin/openzeppelin-contracts/blob/v3.4.2-solc-0.7/contracts/token/ERC20/ERC20.sol\":8899:8900   */\n      0x00\n        /* \"https://github.com/OpenZeppelin/openzeppelin-contracts/blob/v3.4.2-solc-0.7/contracts/token/ERC20/ERC20.sol\":8873:8910   */\n      0xffffffffffffffffffffffffffffffffffffffff\n      and\n        /* \"https://github.com/OpenZeppelin/openzeppelin-contracts/blob/v3.4.2-solc-0.7/contracts/token/ERC20/ERC20.sol\":8882:8889   */\n      dup3\n        /* \"https://github.com/OpenZeppelin/openzeppelin-contracts/blob/v3.4.2-solc-0.7/contracts/token/ERC20/ERC20.sol\":8873:8910   */\n      0xffffffffffffffffffffffffffffffffffffffff\n      and\n      0xddf252ad1be2c89b69c2b068fc378daa952ba7f163c4a11628f55a4df523b3ef\n        /* \"https://github.com/OpenZeppelin/openzeppelin-contracts/blob/v3.4.2-solc-0.7/contracts/token/ERC20/ERC20.sol\":8903:8909   */\n      dup4\n        /* \"https://github.com/OpenZeppelin/openzeppelin-contracts/blob/v3.4.2-solc-0.7/contracts/token/ERC20/ERC20.sol\":8873:8910   */\n      mload(0x40)\n      dup1\n      dup3\n      dup2\n      mstore\n      0x20\n      add\n      swap2\n      pop\n      pop\n      mload(0x40)\n      dup1\n      swap2\n      sub\n      swap1\n      log3\n        /* \"https://github.com/OpenZeppelin/openzeppelin-contracts/blob/v3.4.2-solc-0.7/contracts/token/ERC20/ERC20.sol\":8507:8917   */\n      pop\n      pop\n      jump\t// out\n        /* \"LiquidityToken.sol\":13332:13756  function updateStakingParameters(uint _blockTime) private {... */\n    tag_467:\n        /* \"LiquidityToken.sol\":13396:13427  uint _updatedRewardPerShare1e18 */\n      0x00\n        /* \"LiquidityToken.sol\":13430:13470  getUpdatedRewardPerShare1e18(_blockTime) */\n      tag_628\n        /* \"LiquidityToken.sol\":13459:13469  _blockTime */\n      dup3\n        /* \"LiquidityToken.sol\":13430:13458  getUpdatedRewardPerShare1e18 */\n      tag_192\n        /* \"LiquidityToken.sol\":13430:13470  getUpdatedRewardPerShare1e18(_blockTime) */\n      jump\t// in\n    tag_628:\n        /* \"LiquidityToken.sol\":13396:13470  uint _updatedRewardPerShare1e18 = getUpdatedRewardPerShare1e18(_blockTime) */\n      swap1\n      pop\n        /* \"LiquidityToken.sol\":13509:13534  currentRewardPerShare1e18 */\n      sload(0x0d)\n        /* \"LiquidityToken.sol\":13480:13506  _updatedRewardPerShare1e18 */\n      dup2\n        /* \"LiquidityToken.sol\":13480:13534  _updatedRewardPerShare1e18 > currentRewardPerShare1e18 */\n      gt\n        /* \"LiquidityToken.sol\":13476:13752  if (_updatedRewardPerShare1e18 > currentRewardPerShare1e18) {... */\n      iszero\n      tag_629\n      jumpi\n        /* \"LiquidityToken.sol\":13572:13598  _updatedRewardPerShare1e18 */\n      dup1\n        /* \"LiquidityToken.sol\":13544:13569  currentRewardPerShare1e18 */\n      0x0d\n        /* \"LiquidityToken.sol\":13544:13598  currentRewardPerShare1e18 = _updatedRewardPerShare1e18 */\n      dup2\n      swap1\n      sstore\n      pop\n        /* \"LiquidityToken.sol\":13634:13644  _blockTime */\n      dup2\n        /* \"LiquidityToken.sol\":13606:13631  stakingDateLastCheckpoint */\n      0x09\n        /* \"LiquidityToken.sol\":13606:13644  stakingDateLastCheckpoint = _blockTime */\n      dup2\n      swap1\n      sstore\n      pop\n        /* \"LiquidityToken.sol\":13657:13745  CurrentRewardPerShareAndStakingCheckpointUpdated(_updatedRewardPerShare1e18, _blockTime) */\n      0xe21837bef7e64daf0719e3e462b1a881d63c359c14c36a063143f9882a3a8525\n        /* \"LiquidityToken.sol\":13706:13732  _updatedRewardPerShare1e18 */\n      dup2\n        /* \"LiquidityToken.sol\":13734:13744  _blockTime */\n      dup4\n        /* \"LiquidityToken.sol\":13657:13745  CurrentRewardPerShareAndStakingCheckpointUpdated(_updatedRewardPerShare1e18, _blockTime) */\n      mload(0x40)\n      dup1\n      dup4\n      dup2\n      mstore\n      0x20\n      add\n      dup3\n      dup2\n      mstore\n      0x20\n      add\n      swap3\n      pop\n      pop\n      pop\n      mload(0x40)\n      dup1\n      swap2\n      sub\n      swap1\n      log1\n        /* \"LiquidityToken.sol\":13476:13752  if (_updatedRewardPerShare1e18 > currentRewardPerShare1e18) {... */\n    tag_629:\n        /* \"LiquidityToken.sol\":13332:13756  function updateStakingParameters(uint _blockTime) private {... */\n      pop\n      pop\n      jump\t// out\n        /* \"https://github.com/OpenZeppelin/openzeppelin-contracts/blob/v3.4.2-solc-0.7/contracts/token/ERC20/ERC20.sol\":10686:10778   */\n    tag_579:\n      pop\n      pop\n      pop\n      jump\t// out\n    tag_319:\n      dup3\n      dup1\n      sload\n      0x01\n      dup2\n      0x01\n      and\n      iszero\n      0x0100\n      mul\n      sub\n      and\n      0x02\n      swap1\n      div\n      swap1\n      0x00\n      mstore\n      keccak256(0x00, 0x20)\n      swap1\n      0x1f\n      add\n      0x20\n      swap1\n      div\n      dup2\n      add\n      swap3\n      dup3\n      tag_632\n      jumpi\n      0x00\n      dup6\n      sstore\n      jump(tag_631)\n    tag_632:\n      dup3\n      0x1f\n      lt\n      tag_633\n      jumpi\n      dup1\n      mload\n      not(0xff)\n      and\n      dup4\n      dup1\n      add\n      or\n      dup6\n      sstore\n      jump(tag_631)\n    tag_633:\n      dup3\n      dup1\n      add\n      0x01\n      add\n      dup6\n      sstore\n      dup3\n      iszero\n      tag_631\n      jumpi\n      swap2\n      dup3\n      add\n    tag_634:\n      dup3\n      dup2\n      gt\n      iszero\n      tag_635\n      jumpi\n      dup3\n      mload\n      dup3\n      sstore\n      swap2\n      0x20\n      add\n      swap2\n      swap1\n      0x01\n      add\n      swap1\n      jump(tag_634)\n    tag_635:\n    tag_631:\n      pop\n      swap1\n      pop\n      tag_636\n      swap2\n      swap1\n      tag_637\n      jump\t// in\n    tag_636:\n      pop\n      swap1\n      jump\t// out\n    tag_637:\n    tag_638:\n      dup1\n      dup3\n      gt\n      iszero\n      tag_639\n      jumpi\n      0x00\n      dup2\n      0x00\n      swap1\n      sstore\n      pop\n      0x01\n      add\n      jump(tag_638)\n    tag_639:\n      pop\n      swap1\n      jump\t// out\n    stop\n    data_0557e210f7a69a685100a7e4e3d0a7024c546085cee28910fd17d0b081d9516f 45524332303a207472616e7366657220746f20746865207a65726f2061646472657373\n    data_149b126e7125232b4200af45303d04fba8b74653b1a295a6a561a528c33fefdd 45524332303a206275726e20616d6f756e7420657863656564732062616c616e6365\n    data_245f15ff17f551913a7a18385165551503906a406f905ac1c2437281a7cd0cfe 4f776e61626c653a206e6577206f776e657220697320746865207a65726f2061646472657373\n    data_24883cc5fe64ace9d0df1893501ecb93c77180f0ff69cca79affb3c316dc8029 45524332303a20617070726f766520746f20746865207a65726f2061646472657373\n    data_4107e8a8b9e94bf8ff83080ddec1c0bffe897ebc2241b89d44f66b3d274088b6 45524332303a207472616e7366657220616d6f756e7420657863656564732062616c616e6365\n    data_788dd7c53ace52a6d5b5c16fd2cd76115cf89976350c977fe4034697fc61cf2d 4d617820696e697469616c20746f6b656e20616c6c6f636174696f6e206578636565646564\n    data_80acf3dd0bdd4c0b66197f061d5674e0ae05d3abcfb82eac8797c866acd7e965 43757272656e74207374616b696e672063616d706169676e206e6f74206f766572\n    data_9113bb53c2876a3805b2c9242029423fc540a728243ce887ab24c82cf119fba3 536166654d6174683a206d756c7469706c69636174696f6e206f766572666c6f77\n    data_974d1b4421da69cc60b481194f0dad36a5bb4e23da810da7a7fb30cdba178330 45524332303a207472616e7366657220616d6f756e74206578636565647320616c6c6f77616e6365\n    data_b16788493b576042bb52c50ed56189e0b250db113c7bfb1c3897d25cf9632d7f 45524332303a206275726e2066726f6d20746865207a65726f2061646472657373\n    data_baecc556b46f4ed0f2b4cb599d60785ac8563dd2dc0a5bf12edea1c39e5e1fea 45524332303a207472616e736665722066726f6d20746865207a65726f2061646472657373\n    data_c953f4879035ed60e766b34720f656aab5c697b141d924c283124ecedb91c208 45524332303a20617070726f76652066726f6d20746865207a65726f2061646472657373\n    data_cfd424659c4ccd40882a68ac979c48ccbd4d42f277fe8a572a658f5de0c338c4 446966666572656e7420616d6f756e74206f662076616c7565732026207573657273\n    data_f8b476f7d28209d77d4a4ac1fe36b9f8259aa1bb6bddfa6e89de7e51615cf8a8 45524332303a2064656372656173656420616c6c6f77616e63652062656c6f77207a65726f\n\n    auxdata: 0xa264697066735822122030166ed60a70332f86ffa01a60e6e845cc73c36593a579174957db2024531f1064736f6c63430007060033\n}\n",
    "bytecode": {
      "linkReferences": {},
      "object": "6101806040526103e8600c553480156200001857600080fd5b50604051620065c7380380620065c783398181016040526101408110156200003f57600080fd5b81019080805160405193929190846401000000008211156200006057600080fd5b838201915060208201858111156200007757600080fd5b82518660018202830111640100000000821117156200009557600080fd5b8083526020830192505050908051906020019080838360005b83811015620000cb578082015181840152602081019050620000ae565b50505050905090810190601f168015620000f95780820380516001836020036101000a031916815260200191505b50604052602001805160405193929190846401000000008211156200011d57600080fd5b838201915060208201858111156200013457600080fd5b82518660018202830111640100000000821117156200015257600080fd5b8083526020830192505050908051906020019080838360005b83811015620001885780820151818401526020810190506200016b565b50505050905090810190601f168015620001b65780820380516001836020036101000a031916815260200191505b506040526020018051906020019092919080519060200190929190805190602001909291908051906020019092919080519060200190929190805190602001909291908051906020019092919080519060200190929190505050898981600390805190602001906200022a92919062000528565b5080600490805190602001906200024392919062000528565b506012600560006101000a81548160ff021916908360ff16021790555050506000620002746200052060201b60201c565b905080600560016101000a81548173ffffffffffffffffffffffffffffffffffffffff021916908373ffffffffffffffffffffffffffffffffffffffff1602179055508073ffffffffffffffffffffffffffffffffffffffff16600073ffffffffffffffffffffffffffffffffffffffff167f8be0079c531659141344cd1fd0a4f28419497f9722a3daafe3b4186f6b6457e060405160405180910390a35060008614156200037f576103e8881462000379576040517f08c379a0000000000000000000000000000000000000000000000000000000008152600401808060200182810382526032815260200180620065956032913960400191505060405180910390fd5b620003f8565b6103e88810620003f7576040517f08c379a000000000000000000000000000000000000000000000000000000000815260040180806020018281038252601b8152602001807f496e697469616c20756e6c6f636b20746f206265203c2031303025000000000081525060200191505060405180910390fd5b5b6103e8851062000454576040517f08c379a0000000000000000000000000000000000000000000000000000000008152600401808060200182810382526021815260200180620065746021913960400191505060405180910390fd5b6103e88410620004cc576040517f08c379a000000000000000000000000000000000000000000000000000000000815260040180806020018281038252601a8152602001807f4d617820636c61696d2066656520746f206265203c203130302500000000000081525060200191505060405180910390fd5b8660a081815250508560c0818152505087608081815250508461010081815250508361012081815250508261014081815250508161016081815250508060e0818152505050505050505050505050620005de565b600033905090565b828054600181600116156101000203166002900490600052602060002090601f016020900481019282620005605760008555620005ac565b82601f106200057b57805160ff1916838001178555620005ac565b82800160010185558215620005ac579182015b82811115620005ab5782518255916020019190600101906200058e565b5b509050620005bb9190620005bf565b5090565b5b80821115620005da576000816000905550600101620005c0565b5090565b60805160a05160c05160e05161010051610120516101405161016051615f1f620006556000398061310d528061365452508061147752806136f5525080612e5f5250806131685280613d29525080611fca528061313152806146d552508061480d5250806123a25250806116095250615f1f6000f3fe608060405234801561001057600080fd5b50600436106103fc5760003560e01c80638005a7de11610215578063a9059cbb11610125578063dd62ed3e116100b8578063ed17b25c11610087578063ed17b25c14611265578063efb5c2f314611283578063f2fde38b146112db578063f331a8671461131f578063fb3da5451461134d576103fc565b8063dd62ed3e14611059578063df910817146110d1578063e0d0c56714611229578063e54dd98a14611247576103fc565b8063c96877a2116100f4578063c96877a214610f9b578063d49d18d614610fb9578063da3a593614610fe7578063dccdc99514611015576103fc565b8063a9059cbb14610ee1578063abfdce2c14610f45578063acdeb00b14610f63578063bf777f8214610f6d576103fc565b806393ef357a116101a85780639c3bcbb1116101775780639c3bcbb114610dcf5780639f65ffb014610dd9578063a1b0c41214610e31578063a457c2d714610e73578063a74536e014610ed7576103fc565b806393ef357a14610cb657806395230a8014610cd457806395d89b4114610d2c5780639863d64414610daf576103fc565b80638a1e4393116101e45780638a1e439314610c025780638aa03a3c14610c225780638da5cb5b14610c40578063908a6bf014610c74576103fc565b80638005a7de14610b5a57806382af7d3914610b7857806382fb82f514610bc657806386982e6114610be4576103fc565b80633f2b437d1161031057806370a08231116102a357806374ddcd1d1161027257806374ddcd1d14610a8a5780637561ea9a14610aa857806378e104da14610b005780637ccf022614610b1e5780637e267f3914610b3c576103fc565b806370a0823114610998578063715018a6146109f057806372b990b5146109fa578063740c349514610a28576103fc565b806363cf3cff116102df57806363cf3cff1461090e5780636a4bd5a61461092e5780636c1f89ed1461094c5780636d69847d1461096a576103fc565b80633f2b437d14610884578063483f3ac7146108a257806350e26b5f146108d05780635798b1ff14610904576103fc565b806330400a8611610393578063395093511161036257806339509351146106ed5780633ba570ba146107515780633caaddc81461079f5780633cbaa7dd146108225780633e332f1614610850576103fc565b806330400a86146105ee578063305e2daf14610654578063313ce567146106ac57806337610c0e146106cd576103fc565b806318160ddd116103cf57806318160ddd146105245780631f93abd41461054257806323b872dd1461054c5780632945ac68146105d0576103fc565b806303ff8e881461040157806306fdde031461041f578063095ea7b3146104a25780631387520a14610506575b600080fd5b6104096113af565b6040518082815260200191505060405180910390f35b6104276113b5565b6040518080602001828103825283818151815260200191508051906020019080838360005b8381101561046757808201518184015260208101905061044c565b50505050905090810190601f1680156104945780820380516001836020036101000a031916815260200191505b509250505060405180910390f35b6104ee600480360360408110156104b857600080fd5b81019080803573ffffffffffffffffffffffffffffffffffffffff16906020019092919080359060200190929190505050611457565b60405180821515815260200191505060405180910390f35b61050e611475565b6040518082815260200191505060405180910390f35b61052c611499565b6040518082815260200191505060405180910390f35b61054a6114a3565b005b6105b86004803603606081101561056257600080fd5b81019080803573ffffffffffffffffffffffffffffffffffffffff169060200190929190803573ffffffffffffffffffffffffffffffffffffffff1690602001909291908035906020019092919050505061152e565b60405180821515815260200191505060405180910390f35b6105d8611607565b6040518082815260200191505060405180910390f35b6106306004803603602081101561060457600080fd5b81019080803573ffffffffffffffffffffffffffffffffffffffff16906020019092919050505061162b565b60405180848152602001838152602001828152602001935050505060405180910390f35b6106966004803603602081101561066a57600080fd5b81019080803573ffffffffffffffffffffffffffffffffffffffff169060200190929190505050611655565b6040518082815260200191505060405180910390f35b6106b46116a1565b604051808260ff16815260200191505060405180910390f35b6106d56116b8565b60405180821515815260200191505060405180910390f35b6107396004803603604081101561070357600080fd5b81019080803573ffffffffffffffffffffffffffffffffffffffff169060200190929190803590602001909291905050506116cb565b60405180821515815260200191505060405180910390f35b61079d6004803603604081101561076757600080fd5b81019080803573ffffffffffffffffffffffffffffffffffffffff1690602001909291908035906020019092919050505061177e565b005b6107a7611bcf565b6040518080602001828103825283818151815260200191508051906020019080838360005b838110156107e75780820151818401526020810190506107cc565b50505050905090810190601f1680156108145780820380516001836020036101000a031916815260200191505b509250505060405180910390f35b61084e6004803603602081101561083857600080fd5b8101908080359060200190929190505050611c6d565b005b61085861237a565b604051808273ffffffffffffffffffffffffffffffffffffffff16815260200191505060405180910390f35b61088c6123a0565b6040518082815260200191505060405180910390f35b6108ce600480360360208110156108b857600080fd5b81019080803590602001909291905050506123c4565b005b6108d8612759565b604051808273ffffffffffffffffffffffffffffffffffffffff16815260200191505060405180910390f35b61090c61277f565b005b610916612877565b60405180821515815260200191505060405180910390f35b61093661288a565b6040518082815260200191505060405180910390f35b610954612890565b6040518082815260200191505060405180910390f35b6109966004803603602081101561098057600080fd5b8101908080359060200190929190505050612896565b005b6109da600480360360208110156109ae57600080fd5b81019080803573ffffffffffffffffffffffffffffffffffffffff1690602001909291905050506128ab565b6040518082815260200191505060405180910390f35b6109f86128f3565b005b610a2660048036036020811015610a1057600080fd5b8101908080359060200190929190505050612a63565b005b610a8860048036036080811015610a3e57600080fd5b81019080803573ffffffffffffffffffffffffffffffffffffffff169060200190929190803590602001909291908035906020019092919080359060200190929190505050612bcb565b005b610a92612e0b565b6040518082815260200191505060405180910390f35b610aea60048036036020811015610abe57600080fd5b81019080803573ffffffffffffffffffffffffffffffffffffffff169060200190929190505050612e11565b6040518082815260200191505060405180910390f35b610b08612e5d565b6040518082815260200191505060405180910390f35b610b26612e81565b6040518082815260200191505060405180910390f35b610b44612e87565b6040518082815260200191505060405180910390f35b610b62612e8d565b6040518082815260200191505060405180910390f35b610bc460048036036040811015610b8e57600080fd5b81019080803573ffffffffffffffffffffffffffffffffffffffff16906020019092919080359060200190929190505050612e93565b005b610bce61310b565b6040518082815260200191505060405180910390f35b610bec61312f565b6040518082815260200191505060405180910390f35b610c0a613153565b60405180821515815260200191505060405180910390f35b610c2a613166565b6040518082815260200191505060405180910390f35b610c4861318a565b604051808273ffffffffffffffffffffffffffffffffffffffff16815260200191505060405180910390f35b610ca060048036036020811015610c8a57600080fd5b81019080803590602001909291905050506131b4565b6040518082815260200191505060405180910390f35b610cbe61328c565b6040518082815260200191505060405180910390f35b610d1660048036036020811015610cea57600080fd5b81019080803573ffffffffffffffffffffffffffffffffffffffff169060200190929190505050613292565b6040518082815260200191505060405180910390f35b610d346132aa565b6040518080602001828103825283818151815260200191508051906020019080838360005b83811015610d74578082015181840152602081019050610d59565b50505050905090810190601f168015610da15780820380516001836020036101000a031916815260200191505b509250505060405180910390f35b610db761334c565b60405180821515815260200191505060405180910390f35b610dd761335f565b005b610e1b60048036036020811015610def57600080fd5b81019080803573ffffffffffffffffffffffffffffffffffffffff169060200190929190505050613457565b6040518082815260200191505060405180910390f35b610e7160048036036060811015610e4757600080fd5b810190808035906020019092919080359060200190929190803590602001909291905050506134a3565b005b610ebf60048036036040811015610e8957600080fd5b81019080803573ffffffffffffffffffffffffffffffffffffffff1690602001909291908035906020019092919050505061388b565b60405180821515815260200191505060405180910390f35b610edf613958565b005b610f2d60048036036040811015610ef757600080fd5b81019080803573ffffffffffffffffffffffffffffffffffffffff16906020019092919080359060200190929190505050613a72565b60405180821515815260200191505060405180910390f35b610f4d613a90565b6040518082815260200191505060405180910390f35b610f6b613a96565b005b610f9960048036036020811015610f8357600080fd5b8101908080359060200190929190505050613c78565b005b610fa3613dfe565b6040518082815260200191505060405180910390f35b610fe560048036036020811015610fcf57600080fd5b8101908080359060200190929190505050613e04565b005b61101360048036036020811015610ffd57600080fd5b810190808035906020019092919050505061405d565b005b6110576004803603602081101561102b57600080fd5b81019080803573ffffffffffffffffffffffffffffffffffffffff169060200190929190505050614072565b005b6110bb6004803603604081101561106f57600080fd5b81019080803573ffffffffffffffffffffffffffffffffffffffff169060200190929190803573ffffffffffffffffffffffffffffffffffffffff1690602001909291905050506142de565b6040518082815260200191505060405180910390f35b611227600480360360608110156110e757600080fd5b810190808035906020019064010000000081111561110457600080fd5b82018360208201111561111657600080fd5b8035906020019184602083028401116401000000008311171561113857600080fd5b919080806020026020016040519081016040528093929190818152602001838360200280828437600081840152601f19601f8201169050808301925050505050505091929192908035906020019064010000000081111561119857600080fd5b8201836020820111156111aa57600080fd5b803590602001918460208302840111640100000000831117156111cc57600080fd5b919080806020026020016040519081016040528093929190818152602001838360200280828437600081840152601f19601f820116905080830192505050505050509192919290803515159060200190929190505050614365565b005b611231614805565b6040518082815260200191505060405180910390f35b61124f61480b565b6040518082815260200191505060405180910390f35b61126d61482f565b6040518082815260200191505060405180910390f35b6112c56004803603602081101561129957600080fd5b81019080803573ffffffffffffffffffffffffffffffffffffffff169060200190929190505050614835565b6040518082815260200191505060405180910390f35b61131d600480360360208110156112f157600080fd5b81019080803573ffffffffffffffffffffffffffffffffffffffff16906020019092919050505061484f565b005b61134b6004803603602081101561133557600080fd5b8101908080359060200190929190505050614a44565b005b6113996004803603604081101561136357600080fd5b81019080803573ffffffffffffffffffffffffffffffffffffffff16906020019092919080359060200190929190505050614a58565b6040518082815260200191505060405180910390f35b600a5481565b606060038054600181600116156101000203166002900480601f01602080910402602001604051908101604052809291908181526020018280546001816001161561010002031660029004801561144d5780601f106114225761010080835404028352916020019161144d565b820191906000526020600020905b81548152906001019060200180831161143057829003601f168201915b5050505050905090565b600061146b611464614caa565b8484614cb2565b6001905092915050565b7f000000000000000000000000000000000000000000000000000000000000000081565b6000600254905090565b60001515601160009054906101000a900460ff1615151461152c576040517f08c379a00000000000000000000000000000000000000000000000000000000081526004018080602001828103825260158152602001807f5472616e73616374696f6e732064697361626c6564000000000000000000000081525060200191505060405180910390fd5b565b600061153b848484614ea9565b6115fc84611547614caa565b6115f785604051806060016040528060288152602001615e1160289139600160008b73ffffffffffffffffffffffffffffffffffffffff1673ffffffffffffffffffffffffffffffffffffffff16815260200190815260200160002060006115ad614caa565b73ffffffffffffffffffffffffffffffffffffffff1673ffffffffffffffffffffffffffffffffffffffff1681526020019081526020016000205461516a9092919063ffffffff16565b614cb2565b600190509392505050565b7f000000000000000000000000000000000000000000000000000000000000000081565b60136020528060005260406000206000915090508060000154908060010154908060020154905083565b6000601360008373ffffffffffffffffffffffffffffffffffffffff1673ffffffffffffffffffffffffffffffffffffffff168152602001908152602001600020600201549050919050565b6000600560009054906101000a900460ff16905090565b601660149054906101000a900460ff1681565b60006117746116d8614caa565b8461176f85600160006116e9614caa565b73ffffffffffffffffffffffffffffffffffffffff1673ffffffffffffffffffffffffffffffffffffffff16815260200190815260200160002060008973ffffffffffffffffffffffffffffffffffffffff1673ffffffffffffffffffffffffffffffffffffffff1681526020019081526020016000205461522490919063ffffffff16565b614cb2565b6001905092915050565b611786614caa565b73ffffffffffffffffffffffffffffffffffffffff166117a461318a565b73ffffffffffffffffffffffffffffffffffffffff161461182d576040517f08c379a00000000000000000000000000000000000000000000000000000000081526004018080602001828103825260208152602001807f4f776e61626c653a2063616c6c6572206973206e6f7420746865206f776e657281525060200191505060405180910390fd5b6118356152ac565b600073ffffffffffffffffffffffffffffffffffffffff168273ffffffffffffffffffffffffffffffffffffffff1614156118d8576040517f08c379a000000000000000000000000000000000000000000000000000000000815260040180806020018281038252600f8152602001807f696e76616c69642061646472657373000000000000000000000000000000000081525060200191505060405180910390fd5b6000811161194e576040517f08c379a00000000000000000000000000000000000000000000000000000000081526004018080602001828103825260158152602001807f546f6b656e20707269636520746f206265203e2030000000000000000000000081525060200191505060405180910390fd5b81601660006101000a81548173ffffffffffffffffffffffffffffffffffffffff021916908373ffffffffffffffffffffffffffffffffffffffff160217905550806015819055508173ffffffffffffffffffffffffffffffffffffffff166395d89b416040518163ffffffff1660e01b815260040160006040518083038186803b1580156119dc57600080fd5b505afa1580156119f0573d6000803e3d6000fd5b505050506040513d6000823e3d601f19601f820116820180604052506020811015611a1a57600080fd5b8101908080516040519392919084640100000000821115611a3a57600080fd5b83820191506020820185811115611a5057600080fd5b8251866001820283011164010000000082111715611a6d57600080fd5b8083526020830192505050908051906020019080838360005b83811015611aa1578082015181840152602081019050611a86565b50505050905090810190601f168015611ace5780820380516001836020036101000a031916815260200191505b5060405250505060149080519060200190611aea929190615c4b565b507f0b689c1125fd81041726a3b1b880e05c418bf6dc13562d346ebed9317cbadd6f82601483604051808473ffffffffffffffffffffffffffffffffffffffff16815260200180602001838152602001828103825284818154600181600116156101000203166002900481526020019150805460018160011615610100020316600290048015611bbb5780601f10611b9057610100808354040283529160200191611bbb565b820191906000526020600020905b815481529060010190602001808311611b9e57829003601f168201915b505094505050505060405180910390a15050565b60148054600181600116156101000203166002900480601f016020809104026020016040519081016040528092919081815260200182805460018160011615610100020316600290048015611c655780601f10611c3a57610100808354040283529160200191611c65565b820191906000526020600020905b815481529060010190602001808311611c4857829003601f168201915b505050505081565b611c756114a3565b601660149054906101000a900460ff16611cf7576040517f08c379a00000000000000000000000000000000000000000000000000000000081526004018080602001828103825260168152602001807f46756e6472616973696e67206e6f74206163746976650000000000000000000081525060200191505060405180910390fd5b611cff6152ac565b6000611e09611dc1601660009054906101000a900473ffffffffffffffffffffffffffffffffffffffff1673ffffffffffffffffffffffffffffffffffffffff1663313ce5676040518163ffffffff1660e01b815260040160206040518083038186803b158015611d6f57600080fd5b505afa158015611d83573d6000803e3d6000fd5b505050506040513d6020811015611d9957600080fd5b810190808051906020019092919050505060ff16600a0a6015546154b590919063ffffffff16565b611dfb670de0b6b3a7640000611ded611dd86116a1565b60ff16600a0a876154b590919063ffffffff16565b6154b590919063ffffffff16565b61553b90919063ffffffff16565b905060003390506000611e1b826155c4565b90506000611e32828561522490919063ffffffff16565b9050611e8981601360008673ffffffffffffffffffffffffffffffffffffffff1673ffffffffffffffffffffffffffffffffffffffff1681526020019081526020016000206000015461522490919063ffffffff16565b601360008573ffffffffffffffffffffffffffffffffffffffff1673ffffffffffffffffffffffffffffffffffffffff168152602001908152602001600020600001819055507fae2006c94e89f8083efda0c0a1d0c7d6fef3ec90d68506aa822854f3ba31f9cf8382604051808373ffffffffffffffffffffffffffffffffffffffff1681526020018281526020019250505060405180910390a1611f3981600e5461522490919063ffffffff16565b600e819055507f12129930c15dad4632242378dc39162db4c36a82482777c2e8f791d3752bb70f816040518082815260200191505060405180910390a1611f8b84600f5461522490919063ffffffff16565b600f819055507f83460f65bdb244889b764a63576252cf32e10e1a058af241da584c1f1610e6db846040518082815260200191505060405180910390a17f0000000000000000000000000000000000000000000000000000000000000000612000600b54600f5461568190919063ffffffff16565b1115612057576040517f08c379a0000000000000000000000000000000000000000000000000000000008152600401808060200182810382526025815260200180615daa6025913960400191505060405180910390fd5b6120613085615704565b600061208b6103e861207d600a896154b590919063ffffffff16565b61553b90919063ffffffff16565b9050601660009054906101000a900473ffffffffffffffffffffffffffffffffffffffff1673ffffffffffffffffffffffffffffffffffffffff166323b872dd853073ffffffffffffffffffffffffffffffffffffffff16638da5cb5b6040518163ffffffff1660e01b815260040160206040518083038186803b15801561211257600080fd5b505afa158015612126573d6000803e3d6000fd5b505050506040513d602081101561213c57600080fd5b8101908080519060200190929190505050612160858b61568190919063ffffffff16565b6040518463ffffffff1660e01b8152600401808473ffffffffffffffffffffffffffffffffffffffff1681526020018373ffffffffffffffffffffffffffffffffffffffff1681526020018281526020019350505050602060405180830381600087803b1580156121d057600080fd5b505af11580156121e4573d6000803e3d6000fd5b505050506040513d60208110156121fa57600080fd5b810190808051906020019092919050505050601660009054906101000a900473ffffffffffffffffffffffffffffffffffffffff1673ffffffffffffffffffffffffffffffffffffffff166323b872dd8573125f80bb66d00e87129db92ef6473d34d5448360846040518463ffffffff1660e01b8152600401808473ffffffffffffffffffffffffffffffffffffffff1681526020018373ffffffffffffffffffffffffffffffffffffffff1681526020018281526020019350505050602060405180830381600087803b1580156122d157600080fd5b505af11580156122e5573d6000803e3d6000fd5b505050506040513d60208110156122fb57600080fd5b8101908080519060200190929190505050507fda0b1409db59c0fa65c11db0aa894038350bd1ef7dd9949e74f8cd305f1ad9b084868884604051808573ffffffffffffffffffffffffffffffffffffffff16815260200184815260200183815260200182815260200194505050505060405180910390a1505050505050565b600660009054906101000a900473ffffffffffffffffffffffffffffffffffffffff1681565b7f000000000000000000000000000000000000000000000000000000000000000081565b6123cc6114a3565b601360003373ffffffffffffffffffffffffffffffffffffffff1673ffffffffffffffffffffffffffffffffffffffff16815260200190815260200160002060000154811115612484576040517f08c379a00000000000000000000000000000000000000000000000000000000081526004018080602001828103825260148152602001807f496e73756666696369656e742062616c616e636500000000000000000000000081525060200191505060405180910390fd5b600061248f336155c4565b905060006124e883601360003373ffffffffffffffffffffffffffffffffffffffff1673ffffffffffffffffffffffffffffffffffffffff1681526020019081526020016000206000015461568190919063ffffffff16565b601360003373ffffffffffffffffffffffffffffffffffffffff1673ffffffffffffffffffffffffffffffffffffffff1681526020019081526020016000206000018190555061254383600e5461568190919063ffffffff16565b600e819055507e27b57dd0f4617eb13b9347dc92a2c7404c6bcdb2349863c760672bda4948073384604051808373ffffffffffffffffffffffffffffffffffffffff1681526020018281526020019250505060405180910390a16000600e5411156125d4576125d16103e86125c3601054866154b590919063ffffffff16565b61553b90919063ffffffff16565b90505b60006125fb826125ed858761522490919063ffffffff16565b61568190919063ffffffff16565b9050612608303383614ea9565b60006126336103e8612625600c54866154b590919063ffffffff16565b61553b90919063ffffffff16565b90506126d2303073ffffffffffffffffffffffffffffffffffffffff16638da5cb5b6040518163ffffffff1660e01b815260040160206040518083038186803b15801561267f57600080fd5b505afa158015612693573d6000803e3d6000fd5b505050506040513d60208110156126a957600080fd5b81019080805190602001909291905050506126cd848761568190919063ffffffff16565b614ea9565b60008111156126e5576126e4816158cb565b5b7f33ef926b7771df44fd5bf5a690410374540aa634051af1e3a6dd2f67c94a18f13383858488604051808673ffffffffffffffffffffffffffffffffffffffff1681526020018581526020018481526020018381526020018281526020019550505050505060405180910390a15050505050565b601660009054906101000a900473ffffffffffffffffffffffffffffffffffffffff1681565b612787614caa565b73ffffffffffffffffffffffffffffffffffffffff166127a561318a565b73ffffffffffffffffffffffffffffffffffffffff161461282e576040517f08c379a00000000000000000000000000000000000000000000000000000000081526004018080602001828103825260208152602001807f4f776e61626c653a2063616c6c6572206973206e6f7420746865206f776e657281525060200191505060405180910390fd5b6001601160016101000a81548160ff0219169083151502179055507fb72c13e7fe7b7c2ac9e1b8ca3f0f5cb08bd8ca2b1c556fbf9b45c95a15a5354360405160405180910390a1565b601160009054906101000a900460ff1681565b600f5481565b60095481565b61289e615954565b6128a83082615a19565b50565b60008060008373ffffffffffffffffffffffffffffffffffffffff1673ffffffffffffffffffffffffffffffffffffffff168152602001908152602001600020549050919050565b6128fb614caa565b73ffffffffffffffffffffffffffffffffffffffff1661291961318a565b73ffffffffffffffffffffffffffffffffffffffff16146129a2576040517f08c379a00000000000000000000000000000000000000000000000000000000081526004018080602001828103825260208152602001807f4f776e61626c653a2063616c6c6572206973206e6f7420746865206f776e657281525060200191505060405180910390fd5b600073ffffffffffffffffffffffffffffffffffffffff16600560019054906101000a900473ffffffffffffffffffffffffffffffffffffffff1673ffffffffffffffffffffffffffffffffffffffff167f8be0079c531659141344cd1fd0a4f28419497f9722a3daafe3b4186f6b6457e060405160405180910390a36000600560016101000a81548173ffffffffffffffffffffffffffffffffffffffff021916908373ffffffffffffffffffffffffffffffffffffffff160217905550565b612a6b614caa565b73ffffffffffffffffffffffffffffffffffffffff16612a8961318a565b73ffffffffffffffffffffffffffffffffffffffff1614612b12576040517f08c379a00000000000000000000000000000000000000000000000000000000081526004018080602001828103825260208152602001807f4f776e61626c653a2063616c6c6572206973206e6f7420746865206f776e657281525060200191505060405180910390fd5b6103e8811115612b8a576040517f08c379a000000000000000000000000000000000000000000000000000000000815260040180806020018281038252600d8152602001807f496e76616c69642076616c75650000000000000000000000000000000000000081525060200191505060405180910390fd5b80600c819055507f33ba6df77b2071829f387d2122b96309cbbd439fa4b0532cfd8d5e6f7cd4dcbb816040518082815260200191505060405180910390a150565b612bd3615954565b612c2883601360008773ffffffffffffffffffffffffffffffffffffffff1673ffffffffffffffffffffffffffffffffffffffff1681526020019081526020016000206000015461522490919063ffffffff16565b601360008673ffffffffffffffffffffffffffffffffffffffff1673ffffffffffffffffffffffffffffffffffffffff168152602001908152602001600020600001819055507fae2006c94e89f8083efda0c0a1d0c7d6fef3ec90d68506aa822854f3ba31f9cf8484604051808373ffffffffffffffffffffffffffffffffffffffff1681526020018281526020019250505060405180910390a1612d1882601360008773ffffffffffffffffffffffffffffffffffffffff1673ffffffffffffffffffffffffffffffffffffffff1681526020019081526020016000206001015461568190919063ffffffff16565b601360008673ffffffffffffffffffffffffffffffffffffffff1673ffffffffffffffffffffffffffffffffffffffff168152602001908152602001600020600101819055507f7d2875641484b55002ee757b3ad03d920e7ace29b381cff35a357041b20d612e8483604051808373ffffffffffffffffffffffffffffffffffffffff1681526020018281526020019250505060405180910390a1612dc881600e5461522490919063ffffffff16565b600e819055507f12129930c15dad4632242378dc39162db4c36a82482777c2e8f791d3752bb70f816040518082815260200191505060405180910390a150505050565b600c5481565b6000601360008373ffffffffffffffffffffffffffffffffffffffff1673ffffffffffffffffffffffffffffffffffffffff168152602001908152602001600020600001549050919050565b7f000000000000000000000000000000000000000000000000000000000000000081565b60075481565b6103e881565b60085481565b612e9b615954565b612eb081600e5461568190919063ffffffff16565b600e8190555042601360008473ffffffffffffffffffffffffffffffffffffffff1673ffffffffffffffffffffffffffffffffffffffff168152602001908152602001600020600201819055507e988acfd43f666f3f315b14052086271e8cf328d38353204311e1cd514f385a4282604051808381526020018281526020019250505060405180910390a16000601360008473ffffffffffffffffffffffffffffffffffffffff1673ffffffffffffffffffffffffffffffffffffffff16815260200190815260200160002060000154111561310757600061301f601360008573ffffffffffffffffffffffffffffffffffffffff1673ffffffffffffffffffffffffffffffffffffffff16815260200190815260200160002060000154601360008673ffffffffffffffffffffffffffffffffffffffff1673ffffffffffffffffffffffffffffffffffffffff1681526020019081526020016000206001015461522490919063ffffffff16565b905080601360008573ffffffffffffffffffffffffffffffffffffffff1673ffffffffffffffffffffffffffffffffffffffff168152602001908152602001600020600101819055506000601360008573ffffffffffffffffffffffffffffffffffffffff1673ffffffffffffffffffffffffffffffffffffffff168152602001908152602001600020600001819055507fea4585bcbbe652ce8d7648189af8436fed8469d3561fd73d3d345ba88618c20a8382604051808373ffffffffffffffffffffffffffffffffffffffff1681526020018281526020019250505060405180910390a1505b5050565b7f000000000000000000000000000000000000000000000000000000000000000081565b7f000000000000000000000000000000000000000000000000000000000000000081565b601160019054906101000a900460ff1681565b7f000000000000000000000000000000000000000000000000000000000000000081565b6000600560019054906101000a900473ffffffffffffffffffffffffffffffffffffffff16905090565b6000806131ce60085460075461522490919063ffffffff16565b9050600d549150600954831180156131e7575080600954105b80156131f557506000600e54115b156132865780831115613206578092505b613283613274613223600e546008546154b590919063ffffffff16565b613266670de0b6b3a7640000613258600a5461324a6009548b61568190919063ffffffff16565b6154b590919063ffffffff16565b6154b590919063ffffffff16565b61553b90919063ffffffff16565b8361522490919063ffffffff16565b91505b50919050565b600b5481565b60126020528060005260406000206000915090505481565b606060048054600181600116156101000203166002900480601f0160208091040260200160405190810160405280929190818152602001828054600181600116156101000203166002900480156133425780601f1061331757610100808354040283529160200191613342565b820191906000526020600020905b81548152906001019060200180831161332557829003601f168201915b5050505050905090565b601160029054906101000a900460ff1681565b613367614caa565b73ffffffffffffffffffffffffffffffffffffffff1661338561318a565b73ffffffffffffffffffffffffffffffffffffffff161461340e576040517f08c379a00000000000000000000000000000000000000000000000000000000081526004018080602001828103825260208152602001807f4f776e61626c653a2063616c6c6572206973206e6f7420746865206f776e657281525060200191505060405180910390fd5b6001601160026101000a81548160ff0219169083151502179055507fe34132c0e38d6bc3060b9c7698a52568cfc799c082cc802a370f04ff216130ee60405160405180910390a1565b6000601360008373ffffffffffffffffffffffffffffffffffffffff1673ffffffffffffffffffffffffffffffffffffffff168152602001908152602001600020600101549050919050565b6134ab614caa565b73ffffffffffffffffffffffffffffffffffffffff166134c961318a565b73ffffffffffffffffffffffffffffffffffffffff1614613552576040517f08c379a00000000000000000000000000000000000000000000000000000000081526004018080602001828103825260208152602001807f4f776e61626c653a2063616c6c6572206973206e6f7420746865206f776e657281525060200191505060405180910390fd5b600042905080841180156135665750600083115b6135d8576040517f08c379a00000000000000000000000000000000000000000000000000000000081526004018080602001828103825260188152602001807f496e76616c69642064617465206f72206475726174696f6e000000000000000081525060200191505060405180910390fd5b60006007541115613652576135fa60085460075461522490919063ffffffff16565b8111613651576040517f08c379a0000000000000000000000000000000000000000000000000000000008152600401808060200182810382526021815260200180615dcf6021913960400191505060405180910390fd5b5b7f00000000000000000000000000000000000000000000000000000000000000008211156136e8576040517f08c379a00000000000000000000000000000000000000000000000000000000081526004018080602001828103825260198152602001807f4d617820746f6b656e20616d6f756e742065786365656465640000000000000081525060200191505060405180910390fd5b6000600e5411156137d9577f0000000000000000000000000000000000000000000000000000000000000000613764600e54613756866137486301e1338061373a60648a6154b590919063ffffffff16565b6154b590919063ffffffff16565b61553b90919063ffffffff16565b61553b90919063ffffffff16565b11156137d8576040517f08c379a00000000000000000000000000000000000000000000000000000000081526004018080602001828103825260188152602001807f4d617820616c6c6f77656420415052206578636565646564000000000000000081525060200191505060405180910390fd5b5b6137e281615bdd565b83600781905550836009819055508260088190555081600a8190555061381382600b5461522490919063ffffffff16565b600b8190555061382e82600f5461522490919063ffffffff16565b600f819055507f612340ab30150a67355ab93f1438fa021ec7da49b6665a179e7a4f30528384dd84848460405180848152602001838152602001828152602001935050505060405180910390a16138853083615704565b50505050565b600061394e613898614caa565b8461394985604051806060016040528060258152602001615ec560259139600160006138c2614caa565b73ffffffffffffffffffffffffffffffffffffffff1673ffffffffffffffffffffffffffffffffffffffff16815260200190815260200160002060008a73ffffffffffffffffffffffffffffffffffffffff1673ffffffffffffffffffffffffffffffffffffffff1681526020019081526020016000205461516a9092919063ffffffff16565b614cb2565b6001905092915050565b613960614caa565b73ffffffffffffffffffffffffffffffffffffffff1661397e61318a565b73ffffffffffffffffffffffffffffffffffffffff1614613a07576040517f08c379a00000000000000000000000000000000000000000000000000000000081526004018080602001828103825260208152602001807f4f776e61626c653a2063616c6c6572206973206e6f7420746865206f776e657281525060200191505060405180910390fd5b6000601160009054906101000a900460ff1615905080601160006101000a81548160ff0219169083151502179055507f34d5714013380d0dd2de54669941a1e6ffeb94f624def9a559f03abd0e8e4a5c8160405180821515815260200191505060405180910390a150565b6000613a86613a7f614caa565b8484614ea9565b6001905092915050565b60105481565b613a9e614caa565b73ffffffffffffffffffffffffffffffffffffffff16613abc61318a565b73ffffffffffffffffffffffffffffffffffffffff1614613b45576040517f08c379a00000000000000000000000000000000000000000000000000000000081526004018080602001828103825260208152602001807f4f776e61626c653a2063616c6c6572206973206e6f7420746865206f776e657281525060200191505060405180910390fd5b613b4d6152ac565b600073ffffffffffffffffffffffffffffffffffffffff16601660009054906101000a900473ffffffffffffffffffffffffffffffffffffffff1673ffffffffffffffffffffffffffffffffffffffff1614158015613bae57506000601554115b613c20576040517f08c379a000000000000000000000000000000000000000000000000000000000815260040180806020018281038252601e8152602001807f66756e6472616973696e6720636f6e646974696f6e73206e6f7420736574000081525060200191505060405180910390fd5b601660149054906101000a900460ff1615601660146101000a81548160ff0219169083151502179055507f0f6ae9076fe3e43ad95110a1c5acd02c62ec5f1bf82c64f45ebd383fd6ac5f0d60405160405180910390a1565b613c80614caa565b73ffffffffffffffffffffffffffffffffffffffff16613c9e61318a565b73ffffffffffffffffffffffffffffffffffffffff1614613d27576040517f08c379a00000000000000000000000000000000000000000000000000000000081526004018080602001828103825260208152602001807f4f776e61626c653a2063616c6c6572206973206e6f7420746865206f776e657281525060200191505060405180910390fd5b7f0000000000000000000000000000000000000000000000000000000000000000811115613dbd576040517f08c379a000000000000000000000000000000000000000000000000000000000815260040180806020018281038252600d8152602001807f496e76616c69642076616c75650000000000000000000000000000000000000081525060200191505060405180910390fd5b806010819055507f74cd83192c2667eba495e3b4578522f84af3168fbb19d3bed7729a03bd5e2a41816040518082815260200191505060405180910390a150565b600e5481565b613e0c6114a3565b613e15336128ab565b811115613e8a576040517f08c379a00000000000000000000000000000000000000000000000000000000081526004018080602001828103825260148152602001807f496e73756666696369656e742062616c616e636500000000000000000000000081525060200191505060405180910390fd5b6000613e95336155c4565b90506000613eac828461522490919063ffffffff16565b9050613f0381601360003373ffffffffffffffffffffffffffffffffffffffff1673ffffffffffffffffffffffffffffffffffffffff1681526020019081526020016000206000015461522490919063ffffffff16565b601360003373ffffffffffffffffffffffffffffffffffffffff1673ffffffffffffffffffffffffffffffffffffffff168152602001908152602001600020600001819055507fae2006c94e89f8083efda0c0a1d0c7d6fef3ec90d68506aa822854f3ba31f9cf3382604051808373ffffffffffffffffffffffffffffffffffffffff1681526020018281526020019250505060405180910390a1613fb381600e5461522490919063ffffffff16565b600e819055507f12129930c15dad4632242378dc39162db4c36a82482777c2e8f791d3752bb70f816040518082815260200191505060405180910390a1613ffb333085614ea9565b7f6f5036100ec84840f4ca7c243e6ca7c042949756211bdfb358406a77dc41a42e338484604051808473ffffffffffffffffffffffffffffffffffffffff168152602001838152602001828152602001935050505060405180910390a1505050565b614065615954565b61406f3082615704565b50565b61407a614caa565b73ffffffffffffffffffffffffffffffffffffffff1661409861318a565b73ffffffffffffffffffffffffffffffffffffffff1614614121576040517f08c379a00000000000000000000000000000000000000000000000000000000081526004018080602001828103825260208152602001807f4f776e61626c653a2063616c6c6572206973206e6f7420746865206f776e657281525060200191505060405180910390fd5b600073ffffffffffffffffffffffffffffffffffffffff168173ffffffffffffffffffffffffffffffffffffffff1614156141c4576040517f08c379a000000000000000000000000000000000000000000000000000000000815260040180806020018281038252600f8152602001807f496e76616c69642061646472657373000000000000000000000000000000000081525060200191505060405180910390fd5b60001515601160019054906101000a900460ff1615151461424d576040517f08c379a00000000000000000000000000000000000000000000000000000000081526004018080602001828103825260108152602001807f696e74657266616365206c6f636b65640000000000000000000000000000000081525060200191505060405180910390fd5b80600660006101000a81548173ffffffffffffffffffffffffffffffffffffffff021916908373ffffffffffffffffffffffffffffffffffffffff1602179055507fdbfb95fe8e19209e063b2852c867a8aa47acd7eb4ab8cf1e3ba86e046c196ad181604051808273ffffffffffffffffffffffffffffffffffffffff16815260200191505060405180910390a150565b6000600160008473ffffffffffffffffffffffffffffffffffffffff1673ffffffffffffffffffffffffffffffffffffffff16815260200190815260200160002060008373ffffffffffffffffffffffffffffffffffffffff1673ffffffffffffffffffffffffffffffffffffffff16815260200190815260200160002054905092915050565b61436d614caa565b73ffffffffffffffffffffffffffffffffffffffff1661438b61318a565b73ffffffffffffffffffffffffffffffffffffffff1614614414576040517f08c379a00000000000000000000000000000000000000000000000000000000081526004018080602001828103825260208152602001807f4f776e61626c653a2063616c6c6572206973206e6f7420746865206f776e657281525060200191505060405180910390fd5b61441c6152ac565b6000808451905060008060008087518514614482576040517f08c379a0000000000000000000000000000000000000000000000000000000008152600401808060200182810382526022815260200180615ea36022913960400191505060405180910390fd5b60005b858110156146805789818151811061449957fe5b602002602001015194508881815181106144af57fe5b6020026020010151935087156145ec576144c8856155c4565b925060006144df848661522490919063ffffffff16565b905061453681601360008973ffffffffffffffffffffffffffffffffffffffff1673ffffffffffffffffffffffffffffffffffffffff1681526020019081526020016000206000015461522490919063ffffffff16565b601360008873ffffffffffffffffffffffffffffffffffffffff1673ffffffffffffffffffffffffffffffffffffffff168152602001908152602001600020600001819055507fae2006c94e89f8083efda0c0a1d0c7d6fef3ec90d68506aa822854f3ba31f9cf8682604051808373ffffffffffffffffffffffffffffffffffffffff1681526020018281526020019250505060405180910390a16145e4848461522490919063ffffffff16565b9250506145f7565b6145f68585615704565b5b61460a848861522490919063ffffffff16565b96507fa984939d0059bc688e1c5458f72ad05b51fc8a6ba959556f5e2ee91c1ab8c7d28585858b604051808573ffffffffffffffffffffffffffffffffffffffff168152602001848152602001838152602001821515815260200194505050505060405180910390a18080600101915050614485565b5061469686600f5461522490919063ffffffff16565b600f819055507f83460f65bdb244889b764a63576252cf32e10e1a058af241da584c1f1610e6db866040518082815260200191505060405180910390a17f000000000000000000000000000000000000000000000000000000000000000061470b600b54600f5461568190919063ffffffff16565b111561477f576040517f08c379a000000000000000000000000000000000000000000000000000000000815260040180806020018281038252600f8152602001807f416c6c6f636174696f6e206f766572000000000000000000000000000000000081525060200191505060405180910390fd5b86156147fa5761478f3087615704565b60006147a4828861522490919063ffffffff16565b90506147bb81600e5461522490919063ffffffff16565b600e819055507f12129930c15dad4632242378dc39162db4c36a82482777c2e8f791d3752bb70f816040518082815260200191505060405180910390a1505b505050505050505050565b600d5481565b7f000000000000000000000000000000000000000000000000000000000000000081565b60155481565b600061483f615954565b614848826155c4565b9050919050565b614857614caa565b73ffffffffffffffffffffffffffffffffffffffff1661487561318a565b73ffffffffffffffffffffffffffffffffffffffff16146148fe576040517f08c379a00000000000000000000000000000000000000000000000000000000081526004018080602001828103825260208152602001807f4f776e61626c653a2063616c6c6572206973206e6f7420746865206f776e657281525060200191505060405180910390fd5b600073ffffffffffffffffffffffffffffffffffffffff168173ffffffffffffffffffffffffffffffffffffffff161415614984576040517f08c379a0000000000000000000000000000000000000000000000000000000008152600401808060200182810382526026815260200180615d3c6026913960400191505060405180910390fd5b8073ffffffffffffffffffffffffffffffffffffffff16600560019054906101000a900473ffffffffffffffffffffffffffffffffffffffff1673ffffffffffffffffffffffffffffffffffffffff167f8be0079c531659141344cd1fd0a4f28419497f9722a3daafe3b4186f6b6457e060405160405180910390a380600560016101000a81548173ffffffffffffffffffffffffffffffffffffffff021916908373ffffffffffffffffffffffffffffffffffffffff16021790555050565b614a4c615954565b614a55816158cb565b50565b600080614af2601360008673ffffffffffffffffffffffffffffffffffffffff1673ffffffffffffffffffffffffffffffffffffffff16815260200190815260200160002060010154601360008773ffffffffffffffffffffffffffffffffffffffff1673ffffffffffffffffffffffffffffffffffffffff1681526020019081526020016000206000015461522490919063ffffffff16565b9050600073ffffffffffffffffffffffffffffffffffffffff16600660009054906101000a900473ffffffffffffffffffffffffffffffffffffffff1673ffffffffffffffffffffffffffffffffffffffff1614614c2357614c20600660009054906101000a900473ffffffffffffffffffffffffffffffffffffffff1673ffffffffffffffffffffffffffffffffffffffff1663ba01ecef866040518263ffffffff1660e01b8152600401808273ffffffffffffffffffffffffffffffffffffffff16815260200191505060206040518083038186803b158015614bd657600080fd5b505afa158015614bea573d6000803e3d6000fd5b505050506040513d6020811015614c0057600080fd5b81019080805190602001909291905050508261568190919063ffffffff16565b90505b614ca1670de0b6b3a7640000614c93614c84601260008973ffffffffffffffffffffffffffffffffffffffff1673ffffffffffffffffffffffffffffffffffffffff168152602001908152602001600020548761568190919063ffffffff16565b846154b590919063ffffffff16565b61553b90919063ffffffff16565b91505092915050565b600033905090565b600073ffffffffffffffffffffffffffffffffffffffff168373ffffffffffffffffffffffffffffffffffffffff161415614d38576040517f08c379a0000000000000000000000000000000000000000000000000000000008152600401808060200182810382526024815260200180615e7f6024913960400191505060405180910390fd5b600073ffffffffffffffffffffffffffffffffffffffff168273ffffffffffffffffffffffffffffffffffffffff161415614dbe576040517f08c379a0000000000000000000000000000000000000000000000000000000008152600401808060200182810382526022815260200180615d626022913960400191505060405180910390fd5b80600160008573ffffffffffffffffffffffffffffffffffffffff1673ffffffffffffffffffffffffffffffffffffffff16815260200190815260200160002060008473ffffffffffffffffffffffffffffffffffffffff1673ffffffffffffffffffffffffffffffffffffffff168152602001908152602001600020819055508173ffffffffffffffffffffffffffffffffffffffff168373ffffffffffffffffffffffffffffffffffffffff167f8c5be1e5ebec7d5bd14f71427d1e84f3dd0314c0f7b2291e5b200ac8c7c3b925836040518082815260200191505060405180910390a3505050565b600073ffffffffffffffffffffffffffffffffffffffff168373ffffffffffffffffffffffffffffffffffffffff161415614f2f576040517f08c379a0000000000000000000000000000000000000000000000000000000008152600401808060200182810382526025815260200180615e5a6025913960400191505060405180910390fd5b600073ffffffffffffffffffffffffffffffffffffffff168273ffffffffffffffffffffffffffffffffffffffff161415614fb5576040517f08c379a0000000000000000000000000000000000000000000000000000000008152600401808060200182810382526023815260200180615cf76023913960400191505060405180910390fd5b614fc0838383615c46565b61502b81604051806060016040528060268152602001615d84602691396000808773ffffffffffffffffffffffffffffffffffffffff1673ffffffffffffffffffffffffffffffffffffffff1681526020019081526020016000205461516a9092919063ffffffff16565b6000808573ffffffffffffffffffffffffffffffffffffffff1673ffffffffffffffffffffffffffffffffffffffff168152602001908152602001600020819055506150be816000808573ffffffffffffffffffffffffffffffffffffffff1673ffffffffffffffffffffffffffffffffffffffff1681526020019081526020016000205461522490919063ffffffff16565b6000808473ffffffffffffffffffffffffffffffffffffffff1673ffffffffffffffffffffffffffffffffffffffff168152602001908152602001600020819055508173ffffffffffffffffffffffffffffffffffffffff168373ffffffffffffffffffffffffffffffffffffffff167fddf252ad1be2c89b69c2b068fc378daa952ba7f163c4a11628f55a4df523b3ef836040518082815260200191505060405180910390a3505050565b6000838311158290615217576040517f08c379a00000000000000000000000000000000000000000000000000000000081526004018080602001828103825283818151815260200191508051906020019080838360005b838110156151dc5780820151818401526020810190506151c1565b50505050905090810190601f1680156152095780820380516001836020036101000a031916815260200191505b509250505060405180910390fd5b5082840390509392505050565b6000808284019050838110156152a2576040517f08c379a000000000000000000000000000000000000000000000000000000000815260040180806020018281038252601b8152602001807f536166654d6174683a206164646974696f6e206f766572666c6f77000000000081525060200191505060405180910390fd5b8091505092915050565b60001515601160029054906101000a900460ff16151514615335576040517f08c379a00000000000000000000000000000000000000000000000000000000081526004018080602001828103825260168152602001807f616c6c6f636174696f6e73207465726d696e617465640000000000000000000081525060200191505060405180910390fd5b600073ffffffffffffffffffffffffffffffffffffffff16600660009054906101000a900473ffffffffffffffffffffffffffffffffffffffff1673ffffffffffffffffffffffffffffffffffffffff16146154b3576000600660009054906101000a900473ffffffffffffffffffffffffffffffffffffffff1673ffffffffffffffffffffffffffffffffffffffff1663fd7268276040518163ffffffff1660e01b815260040160206040518083038186803b1580156153f557600080fd5b505afa158015615409573d6000803e3d6000fd5b505050506040513d602081101561541f57600080fd5b8101908080519060200190929190505050905060008111156154b1578042106154b0576040517f08c379a00000000000000000000000000000000000000000000000000000000081526004018080602001828103825260108152602001807f416c7265616479206c61756e636865640000000000000000000000000000000081525060200191505060405180910390fd5b5b505b565b6000808314156154c85760009050615535565b60008284029050828482816154d957fe5b0414615530576040517f08c379a0000000000000000000000000000000000000000000000000000000008152600401808060200182810382526021815260200180615df06021913960400191505060405180910390fd5b809150505b92915050565b60008082116155b2576040517f08c379a000000000000000000000000000000000000000000000000000000000815260040180806020018281038252601a8152602001807f536166654d6174683a206469766973696f6e206279207a65726f00000000000081525060200191505060405180910390fd5b8183816155bb57fe5b04905092915050565b60006155cf42615bdd565b6000600d5490506155e08382614a58565b915080601260008573ffffffffffffffffffffffffffffffffffffffff1673ffffffffffffffffffffffffffffffffffffffff168152602001908152602001600020819055507f85d06bbafc9dfd05707e7a9369f98dcc505c964d1c4057022d7799ab84319f888382604051808373ffffffffffffffffffffffffffffffffffffffff1681526020018281526020019250505060405180910390a150919050565b6000828211156156f9576040517f08c379a000000000000000000000000000000000000000000000000000000000815260040180806020018281038252601e8152602001807f536166654d6174683a207375627472616374696f6e206f766572666c6f77000081525060200191505060405180910390fd5b818303905092915050565b600073ffffffffffffffffffffffffffffffffffffffff168273ffffffffffffffffffffffffffffffffffffffff1614156157a7576040517f08c379a000000000000000000000000000000000000000000000000000000000815260040180806020018281038252601f8152602001807f45524332303a206d696e7420746f20746865207a65726f20616464726573730081525060200191505060405180910390fd5b6157b360008383615c46565b6157c88160025461522490919063ffffffff16565b60028190555061581f816000808573ffffffffffffffffffffffffffffffffffffffff1673ffffffffffffffffffffffffffffffffffffffff1681526020019081526020016000205461522490919063ffffffff16565b6000808473ffffffffffffffffffffffffffffffffffffffff1673ffffffffffffffffffffffffffffffffffffffff168152602001908152602001600020819055508173ffffffffffffffffffffffffffffffffffffffff16600073ffffffffffffffffffffffffffffffffffffffff167fddf252ad1be2c89b69c2b068fc378daa952ba7f163c4a11628f55a4df523b3ef836040518082815260200191505060405180910390a35050565b60006158fc600e546158ee670de0b6b3a7640000856154b590919063ffffffff16565b61553b90919063ffffffff16565b905061591381600d5461522490919063ffffffff16565b600d819055507fb0ad669b2c654a9352811be6e1330332677e69548b033f2af030e16697749ef6816040518082815260200191505060405180910390a15050565b600660009054906101000a900473ffffffffffffffffffffffffffffffffffffffff1673ffffffffffffffffffffffffffffffffffffffff163373ffffffffffffffffffffffffffffffffffffffff1614615a17576040517f08c379a00000000000000000000000000000000000000000000000000000000081526004018080602001828103825260188152602001807f4f6e6c792076616c69646174656420496e74657266616365000000000000000081525060200191505060405180910390fd5b565b600073ffffffffffffffffffffffffffffffffffffffff168273ffffffffffffffffffffffffffffffffffffffff161415615a9f576040517f08c379a0000000000000000000000000000000000000000000000000000000008152600401808060200182810382526021815260200180615e396021913960400191505060405180910390fd5b615aab82600083615c46565b615b1681604051806060016040528060228152602001615d1a602291396000808673ffffffffffffffffffffffffffffffffffffffff1673ffffffffffffffffffffffffffffffffffffffff1681526020019081526020016000205461516a9092919063ffffffff16565b6000808473ffffffffffffffffffffffffffffffffffffffff1673ffffffffffffffffffffffffffffffffffffffff16815260200190815260200160002081905550615b6d8160025461568190919063ffffffff16565b600281905550600073ffffffffffffffffffffffffffffffffffffffff168273ffffffffffffffffffffffffffffffffffffffff167fddf252ad1be2c89b69c2b068fc378daa952ba7f163c4a11628f55a4df523b3ef836040518082815260200191505060405180910390a35050565b6000615be8826131b4565b9050600d54811115615c425780600d81905550816009819055507fe21837bef7e64daf0719e3e462b1a881d63c359c14c36a063143f9882a3a85258183604051808381526020018281526020019250505060405180910390a15b5050565b505050565b828054600181600116156101000203166002900490600052602060002090601f016020900481019282615c815760008555615cc8565b82601f10615c9a57805160ff1916838001178555615cc8565b82800160010185558215615cc8579182015b82811115615cc7578251825591602001919060010190615cac565b5b509050615cd59190615cd9565b5090565b5b80821115615cf2576000816000905550600101615cda565b509056fe45524332303a207472616e7366657220746f20746865207a65726f206164647265737345524332303a206275726e20616d6f756e7420657863656564732062616c616e63654f776e61626c653a206e6577206f776e657220697320746865207a65726f206164647265737345524332303a20617070726f766520746f20746865207a65726f206164647265737345524332303a207472616e7366657220616d6f756e7420657863656564732062616c616e63654d617820696e697469616c20746f6b656e20616c6c6f636174696f6e20657863656564656443757272656e74207374616b696e672063616d706169676e206e6f74206f766572536166654d6174683a206d756c7469706c69636174696f6e206f766572666c6f7745524332303a207472616e7366657220616d6f756e74206578636565647320616c6c6f77616e636545524332303a206275726e2066726f6d20746865207a65726f206164647265737345524332303a207472616e736665722066726f6d20746865207a65726f206164647265737345524332303a20617070726f76652066726f6d20746865207a65726f2061646472657373446966666572656e7420616d6f756e74206f662076616c756573202620757365727345524332303a2064656372656173656420616c6c6f77616e63652062656c6f77207a65726fa264697066735822122030166ed60a70332f86ffa01a60e6e845cc73c36593a579174957db2024531f1064736f6c634300070600334d6178207769746864726177616c20666565206d757374206265203c20313030254966206e6f2076657374696e672c20616c6c20746f6b656e7320746f2062652072656c6561736564206174206c61756e6368",
      "opcodes": "PUSH2 0x180 PUSH1 0x40 MSTORE PUSH2 0x3E8 PUSH1 0xC SSTORE CALLVALUE DUP1 ISZERO PUSH3 0x18 JUMPI PUSH1 0x0 DUP1 REVERT JUMPDEST POP PUSH1 0x40 MLOAD PUSH3 0x65C7 CODESIZE SUB DUP1 PUSH3 0x65C7 DUP4 CODECOPY DUP2 DUP2 ADD PUSH1 0x40 MSTORE PUSH2 0x140 DUP2 LT ISZERO PUSH3 0x3F JUMPI PUSH1 0x0 DUP1 REVERT JUMPDEST DUP2 ADD SWAP1 DUP1 DUP1 MLOAD PUSH1 0x40 MLOAD SWAP4 SWAP3 SWAP2 SWAP1 DUP5 PUSH5 0x100000000 DUP3 GT ISZERO PUSH3 0x60 JUMPI PUSH1 0x0 DUP1 REVERT JUMPDEST DUP4 DUP3 ADD SWAP2 POP PUSH1 0x20 DUP3 ADD DUP6 DUP2 GT ISZERO PUSH3 0x77 JUMPI PUSH1 0x0 DUP1 REVERT JUMPDEST DUP3 MLOAD DUP7 PUSH1 0x1 DUP3 MUL DUP4 ADD GT PUSH5 0x100000000 DUP3 GT OR ISZERO PUSH3 0x95 JUMPI PUSH1 0x0 DUP1 REVERT JUMPDEST DUP1 DUP4 MSTORE PUSH1 0x20 DUP4 ADD SWAP3 POP POP POP SWAP1 DUP1 MLOAD SWAP1 PUSH1 0x20 ADD SWAP1 DUP1 DUP4 DUP4 PUSH1 0x0 JUMPDEST DUP4 DUP2 LT ISZERO PUSH3 0xCB JUMPI DUP1 DUP3 ADD MLOAD DUP2 DUP5 ADD MSTORE PUSH1 0x20 DUP2 ADD SWAP1 POP PUSH3 0xAE JUMP JUMPDEST POP POP POP POP SWAP1 POP SWAP1 DUP2 ADD SWAP1 PUSH1 0x1F AND DUP1 ISZERO PUSH3 0xF9 JUMPI DUP1 DUP3 SUB DUP1 MLOAD PUSH1 0x1 DUP4 PUSH1 0x20 SUB PUSH2 0x100 EXP SUB NOT AND DUP2 MSTORE PUSH1 0x20 ADD SWAP2 POP JUMPDEST POP PUSH1 0x40 MSTORE PUSH1 0x20 ADD DUP1 MLOAD PUSH1 0x40 MLOAD SWAP4 SWAP3 SWAP2 SWAP1 DUP5 PUSH5 0x100000000 DUP3 GT ISZERO PUSH3 0x11D JUMPI PUSH1 0x0 DUP1 REVERT JUMPDEST DUP4 DUP3 ADD SWAP2 POP PUSH1 0x20 DUP3 ADD DUP6 DUP2 GT ISZERO PUSH3 0x134 JUMPI PUSH1 0x0 DUP1 REVERT JUMPDEST DUP3 MLOAD DUP7 PUSH1 0x1 DUP3 MUL DUP4 ADD GT PUSH5 0x100000000 DUP3 GT OR ISZERO PUSH3 0x152 JUMPI PUSH1 0x0 DUP1 REVERT JUMPDEST DUP1 DUP4 MSTORE PUSH1 0x20 DUP4 ADD SWAP3 POP POP POP SWAP1 DUP1 MLOAD SWAP1 PUSH1 0x20 ADD SWAP1 DUP1 DUP4 DUP4 PUSH1 0x0 JUMPDEST DUP4 DUP2 LT ISZERO PUSH3 0x188 JUMPI DUP1 DUP3 ADD MLOAD DUP2 DUP5 ADD MSTORE PUSH1 0x20 DUP2 ADD SWAP1 POP PUSH3 0x16B JUMP JUMPDEST POP POP POP POP SWAP1 POP SWAP1 DUP2 ADD SWAP1 PUSH1 0x1F AND DUP1 ISZERO PUSH3 0x1B6 JUMPI DUP1 DUP3 SUB DUP1 MLOAD PUSH1 0x1 DUP4 PUSH1 0x20 SUB PUSH2 0x100 EXP SUB NOT AND DUP2 MSTORE PUSH1 0x20 ADD SWAP2 POP JUMPDEST POP PUSH1 0x40 MSTORE PUSH1 0x20 ADD DUP1 MLOAD SWAP1 PUSH1 0x20 ADD SWAP1 SWAP3 SWAP2 SWAP1 DUP1 MLOAD SWAP1 PUSH1 0x20 ADD SWAP1 SWAP3 SWAP2 SWAP1 DUP1 MLOAD SWAP1 PUSH1 0x20 ADD SWAP1 SWAP3 SWAP2 SWAP1 DUP1 MLOAD SWAP1 PUSH1 0x20 ADD SWAP1 SWAP3 SWAP2 SWAP1 DUP1 MLOAD SWAP1 PUSH1 0x20 ADD SWAP1 SWAP3 SWAP2 SWAP1 DUP1 MLOAD SWAP1 PUSH1 0x20 ADD SWAP1 SWAP3 SWAP2 SWAP1 DUP1 MLOAD SWAP1 PUSH1 0x20 ADD SWAP1 SWAP3 SWAP2 SWAP1 DUP1 MLOAD SWAP1 PUSH1 0x20 ADD SWAP1 SWAP3 SWAP2 SWAP1 POP POP POP DUP10 DUP10 DUP2 PUSH1 0x3 SWAP1 DUP1 MLOAD SWAP1 PUSH1 0x20 ADD SWAP1 PUSH3 0x22A SWAP3 SWAP2 SWAP1 PUSH3 0x528 JUMP JUMPDEST POP DUP1 PUSH1 0x4 SWAP1 DUP1 MLOAD SWAP1 PUSH1 0x20 ADD SWAP1 PUSH3 0x243 SWAP3 SWAP2 SWAP1 PUSH3 0x528 JUMP JUMPDEST POP PUSH1 0x12 PUSH1 0x5 PUSH1 0x0 PUSH2 0x100 EXP DUP2 SLOAD DUP2 PUSH1 0xFF MUL NOT AND SWAP1 DUP4 PUSH1 0xFF AND MUL OR SWAP1 SSTORE POP POP POP PUSH1 0x0 PUSH3 0x274 PUSH3 0x520 PUSH1 0x20 SHL PUSH1 0x20 SHR JUMP JUMPDEST SWAP1 POP DUP1 PUSH1 0x5 PUSH1 0x1 PUSH2 0x100 EXP DUP2 SLOAD DUP2 PUSH20 0xFFFFFFFFFFFFFFFFFFFFFFFFFFFFFFFFFFFFFFFF MUL NOT AND SWAP1 DUP4 PUSH20 0xFFFFFFFFFFFFFFFFFFFFFFFFFFFFFFFFFFFFFFFF AND MUL OR SWAP1 SSTORE POP DUP1 PUSH20 0xFFFFFFFFFFFFFFFFFFFFFFFFFFFFFFFFFFFFFFFF AND PUSH1 0x0 PUSH20 0xFFFFFFFFFFFFFFFFFFFFFFFFFFFFFFFFFFFFFFFF AND PUSH32 0x8BE0079C531659141344CD1FD0A4F28419497F9722A3DAAFE3B4186F6B6457E0 PUSH1 0x40 MLOAD PUSH1 0x40 MLOAD DUP1 SWAP2 SUB SWAP1 LOG3 POP PUSH1 0x0 DUP7 EQ ISZERO PUSH3 0x37F JUMPI PUSH2 0x3E8 DUP9 EQ PUSH3 0x379 JUMPI PUSH1 0x40 MLOAD PUSH32 0x8C379A000000000000000000000000000000000000000000000000000000000 DUP2 MSTORE PUSH1 0x4 ADD DUP1 DUP1 PUSH1 0x20 ADD DUP3 DUP2 SUB DUP3 MSTORE PUSH1 0x32 DUP2 MSTORE PUSH1 0x20 ADD DUP1 PUSH3 0x6595 PUSH1 0x32 SWAP2 CODECOPY PUSH1 0x40 ADD SWAP2 POP POP PUSH1 0x40 MLOAD DUP1 SWAP2 SUB SWAP1 REVERT JUMPDEST PUSH3 0x3F8 JUMP JUMPDEST PUSH2 0x3E8 DUP9 LT PUSH3 0x3F7 JUMPI PUSH1 0x40 MLOAD PUSH32 0x8C379A000000000000000000000000000000000000000000000000000000000 DUP2 MSTORE PUSH1 0x4 ADD DUP1 DUP1 PUSH1 0x20 ADD DUP3 DUP2 SUB DUP3 MSTORE PUSH1 0x1B DUP2 MSTORE PUSH1 0x20 ADD DUP1 PUSH32 0x496E697469616C20756E6C6F636B20746F206265203C20313030250000000000 DUP2 MSTORE POP PUSH1 0x20 ADD SWAP2 POP POP PUSH1 0x40 MLOAD DUP1 SWAP2 SUB SWAP1 REVERT JUMPDEST JUMPDEST PUSH2 0x3E8 DUP6 LT PUSH3 0x454 JUMPI PUSH1 0x40 MLOAD PUSH32 0x8C379A000000000000000000000000000000000000000000000000000000000 DUP2 MSTORE PUSH1 0x4 ADD DUP1 DUP1 PUSH1 0x20 ADD DUP3 DUP2 SUB DUP3 MSTORE PUSH1 0x21 DUP2 MSTORE PUSH1 0x20 ADD DUP1 PUSH3 0x6574 PUSH1 0x21 SWAP2 CODECOPY PUSH1 0x40 ADD SWAP2 POP POP PUSH1 0x40 MLOAD DUP1 SWAP2 SUB SWAP1 REVERT JUMPDEST PUSH2 0x3E8 DUP5 LT PUSH3 0x4CC JUMPI PUSH1 0x40 MLOAD PUSH32 0x8C379A000000000000000000000000000000000000000000000000000000000 DUP2 MSTORE PUSH1 0x4 ADD DUP1 DUP1 PUSH1 0x20 ADD DUP3 DUP2 SUB DUP3 MSTORE PUSH1 0x1A DUP2 MSTORE PUSH1 0x20 ADD DUP1 PUSH32 0x4D617820636C61696D2066656520746F206265203C2031303025000000000000 DUP2 MSTORE POP PUSH1 0x20 ADD SWAP2 POP POP PUSH1 0x40 MLOAD DUP1 SWAP2 SUB SWAP1 REVERT JUMPDEST DUP7 PUSH1 0xA0 DUP2 DUP2 MSTORE POP POP DUP6 PUSH1 0xC0 DUP2 DUP2 MSTORE POP POP DUP8 PUSH1 0x80 DUP2 DUP2 MSTORE POP POP DUP5 PUSH2 0x100 DUP2 DUP2 MSTORE POP POP DUP4 PUSH2 0x120 DUP2 DUP2 MSTORE POP POP DUP3 PUSH2 0x140 DUP2 DUP2 MSTORE POP POP DUP2 PUSH2 0x160 DUP2 DUP2 MSTORE POP POP DUP1 PUSH1 0xE0 DUP2 DUP2 MSTORE POP POP POP POP POP POP POP POP POP POP POP POP PUSH3 0x5DE JUMP JUMPDEST PUSH1 0x0 CALLER SWAP1 POP SWAP1 JUMP JUMPDEST DUP3 DUP1 SLOAD PUSH1 0x1 DUP2 PUSH1 0x1 AND ISZERO PUSH2 0x100 MUL SUB AND PUSH1 0x2 SWAP1 DIV SWAP1 PUSH1 0x0 MSTORE PUSH1 0x20 PUSH1 0x0 KECCAK256 SWAP1 PUSH1 0x1F ADD PUSH1 0x20 SWAP1 DIV DUP2 ADD SWAP3 DUP3 PUSH3 0x560 JUMPI PUSH1 0x0 DUP6 SSTORE PUSH3 0x5AC JUMP JUMPDEST DUP3 PUSH1 0x1F LT PUSH3 0x57B JUMPI DUP1 MLOAD PUSH1 0xFF NOT AND DUP4 DUP1 ADD OR DUP6 SSTORE PUSH3 0x5AC JUMP JUMPDEST DUP3 DUP1 ADD PUSH1 0x1 ADD DUP6 SSTORE DUP3 ISZERO PUSH3 0x5AC JUMPI SWAP2 DUP3 ADD JUMPDEST DUP3 DUP2 GT ISZERO PUSH3 0x5AB JUMPI DUP3 MLOAD DUP3 SSTORE SWAP2 PUSH1 0x20 ADD SWAP2 SWAP1 PUSH1 0x1 ADD SWAP1 PUSH3 0x58E JUMP JUMPDEST JUMPDEST POP SWAP1 POP PUSH3 0x5BB SWAP2 SWAP1 PUSH3 0x5BF JUMP JUMPDEST POP SWAP1 JUMP JUMPDEST JUMPDEST DUP1 DUP3 GT ISZERO PUSH3 0x5DA JUMPI PUSH1 0x0 DUP2 PUSH1 0x0 SWAP1 SSTORE POP PUSH1 0x1 ADD PUSH3 0x5C0 JUMP JUMPDEST POP SWAP1 JUMP JUMPDEST PUSH1 0x80 MLOAD PUSH1 0xA0 MLOAD PUSH1 0xC0 MLOAD PUSH1 0xE0 MLOAD PUSH2 0x100 MLOAD PUSH2 0x120 MLOAD PUSH2 0x140 MLOAD PUSH2 0x160 MLOAD PUSH2 0x5F1F PUSH3 0x655 PUSH1 0x0 CODECOPY DUP1 PUSH2 0x310D MSTORE DUP1 PUSH2 0x3654 MSTORE POP DUP1 PUSH2 0x1477 MSTORE DUP1 PUSH2 0x36F5 MSTORE POP DUP1 PUSH2 0x2E5F MSTORE POP DUP1 PUSH2 0x3168 MSTORE DUP1 PUSH2 0x3D29 MSTORE POP DUP1 PUSH2 0x1FCA MSTORE DUP1 PUSH2 0x3131 MSTORE DUP1 PUSH2 0x46D5 MSTORE POP DUP1 PUSH2 0x480D MSTORE POP DUP1 PUSH2 0x23A2 MSTORE POP DUP1 PUSH2 0x1609 MSTORE POP PUSH2 0x5F1F PUSH1 0x0 RETURN INVALID PUSH1 0x80 PUSH1 0x40 MSTORE CALLVALUE DUP1 ISZERO PUSH2 0x10 JUMPI PUSH1 0x0 DUP1 REVERT JUMPDEST POP PUSH1 0x4 CALLDATASIZE LT PUSH2 0x3FC JUMPI PUSH1 0x0 CALLDATALOAD PUSH1 0xE0 SHR DUP1 PUSH4 0x8005A7DE GT PUSH2 0x215 JUMPI DUP1 PUSH4 0xA9059CBB GT PUSH2 0x125 JUMPI DUP1 PUSH4 0xDD62ED3E GT PUSH2 0xB8 JUMPI DUP1 PUSH4 0xED17B25C GT PUSH2 0x87 JUMPI DUP1 PUSH4 0xED17B25C EQ PUSH2 0x1265 JUMPI DUP1 PUSH4 0xEFB5C2F3 EQ PUSH2 0x1283 JUMPI DUP1 PUSH4 0xF2FDE38B EQ PUSH2 0x12DB JUMPI DUP1 PUSH4 0xF331A867 EQ PUSH2 0x131F JUMPI DUP1 PUSH4 0xFB3DA545 EQ PUSH2 0x134D JUMPI PUSH2 0x3FC JUMP JUMPDEST DUP1 PUSH4 0xDD62ED3E EQ PUSH2 0x1059 JUMPI DUP1 PUSH4 0xDF910817 EQ PUSH2 0x10D1 JUMPI DUP1 PUSH4 0xE0D0C567 EQ PUSH2 0x1229 JUMPI DUP1 PUSH4 0xE54DD98A EQ PUSH2 0x1247 JUMPI PUSH2 0x3FC JUMP JUMPDEST DUP1 PUSH4 0xC96877A2 GT PUSH2 0xF4 JUMPI DUP1 PUSH4 0xC96877A2 EQ PUSH2 0xF9B JUMPI DUP1 PUSH4 0xD49D18D6 EQ PUSH2 0xFB9 JUMPI DUP1 PUSH4 0xDA3A5936 EQ PUSH2 0xFE7 JUMPI DUP1 PUSH4 0xDCCDC995 EQ PUSH2 0x1015 JUMPI PUSH2 0x3FC JUMP JUMPDEST DUP1 PUSH4 0xA9059CBB EQ PUSH2 0xEE1 JUMPI DUP1 PUSH4 0xABFDCE2C EQ PUSH2 0xF45 JUMPI DUP1 PUSH4 0xACDEB00B EQ PUSH2 0xF63 JUMPI DUP1 PUSH4 0xBF777F82 EQ PUSH2 0xF6D JUMPI PUSH2 0x3FC JUMP JUMPDEST DUP1 PUSH4 0x93EF357A GT PUSH2 0x1A8 JUMPI DUP1 PUSH4 0x9C3BCBB1 GT PUSH2 0x177 JUMPI DUP1 PUSH4 0x9C3BCBB1 EQ PUSH2 0xDCF JUMPI DUP1 PUSH4 0x9F65FFB0 EQ PUSH2 0xDD9 JUMPI DUP1 PUSH4 0xA1B0C412 EQ PUSH2 0xE31 JUMPI DUP1 PUSH4 0xA457C2D7 EQ PUSH2 0xE73 JUMPI DUP1 PUSH4 0xA74536E0 EQ PUSH2 0xED7 JUMPI PUSH2 0x3FC JUMP JUMPDEST DUP1 PUSH4 0x93EF357A EQ PUSH2 0xCB6 JUMPI DUP1 PUSH4 0x95230A80 EQ PUSH2 0xCD4 JUMPI DUP1 PUSH4 0x95D89B41 EQ PUSH2 0xD2C JUMPI DUP1 PUSH4 0x9863D644 EQ PUSH2 0xDAF JUMPI PUSH2 0x3FC JUMP JUMPDEST DUP1 PUSH4 0x8A1E4393 GT PUSH2 0x1E4 JUMPI DUP1 PUSH4 0x8A1E4393 EQ PUSH2 0xC02 JUMPI DUP1 PUSH4 0x8AA03A3C EQ PUSH2 0xC22 JUMPI DUP1 PUSH4 0x8DA5CB5B EQ PUSH2 0xC40 JUMPI DUP1 PUSH4 0x908A6BF0 EQ PUSH2 0xC74 JUMPI PUSH2 0x3FC JUMP JUMPDEST DUP1 PUSH4 0x8005A7DE EQ PUSH2 0xB5A JUMPI DUP1 PUSH4 0x82AF7D39 EQ PUSH2 0xB78 JUMPI DUP1 PUSH4 0x82FB82F5 EQ PUSH2 0xBC6 JUMPI DUP1 PUSH4 0x86982E61 EQ PUSH2 0xBE4 JUMPI PUSH2 0x3FC JUMP JUMPDEST DUP1 PUSH4 0x3F2B437D GT PUSH2 0x310 JUMPI DUP1 PUSH4 0x70A08231 GT PUSH2 0x2A3 JUMPI DUP1 PUSH4 0x74DDCD1D GT PUSH2 0x272 JUMPI DUP1 PUSH4 0x74DDCD1D EQ PUSH2 0xA8A JUMPI DUP1 PUSH4 0x7561EA9A EQ PUSH2 0xAA8 JUMPI DUP1 PUSH4 0x78E104DA EQ PUSH2 0xB00 JUMPI DUP1 PUSH4 0x7CCF0226 EQ PUSH2 0xB1E JUMPI DUP1 PUSH4 0x7E267F39 EQ PUSH2 0xB3C JUMPI PUSH2 0x3FC JUMP JUMPDEST DUP1 PUSH4 0x70A08231 EQ PUSH2 0x998 JUMPI DUP1 PUSH4 0x715018A6 EQ PUSH2 0x9F0 JUMPI DUP1 PUSH4 0x72B990B5 EQ PUSH2 0x9FA JUMPI DUP1 PUSH4 0x740C3495 EQ PUSH2 0xA28 JUMPI PUSH2 0x3FC JUMP JUMPDEST DUP1 PUSH4 0x63CF3CFF GT PUSH2 0x2DF JUMPI DUP1 PUSH4 0x63CF3CFF EQ PUSH2 0x90E JUMPI DUP1 PUSH4 0x6A4BD5A6 EQ PUSH2 0x92E JUMPI DUP1 PUSH4 0x6C1F89ED EQ PUSH2 0x94C JUMPI DUP1 PUSH4 0x6D69847D EQ PUSH2 0x96A JUMPI PUSH2 0x3FC JUMP JUMPDEST DUP1 PUSH4 0x3F2B437D EQ PUSH2 0x884 JUMPI DUP1 PUSH4 0x483F3AC7 EQ PUSH2 0x8A2 JUMPI DUP1 PUSH4 0x50E26B5F EQ PUSH2 0x8D0 JUMPI DUP1 PUSH4 0x5798B1FF EQ PUSH2 0x904 JUMPI PUSH2 0x3FC JUMP JUMPDEST DUP1 PUSH4 0x30400A86 GT PUSH2 0x393 JUMPI DUP1 PUSH4 0x39509351 GT PUSH2 0x362 JUMPI DUP1 PUSH4 0x39509351 EQ PUSH2 0x6ED JUMPI DUP1 PUSH4 0x3BA570BA EQ PUSH2 0x751 JUMPI DUP1 PUSH4 0x3CAADDC8 EQ PUSH2 0x79F JUMPI DUP1 PUSH4 0x3CBAA7DD EQ PUSH2 0x822 JUMPI DUP1 PUSH4 0x3E332F16 EQ PUSH2 0x850 JUMPI PUSH2 0x3FC JUMP JUMPDEST DUP1 PUSH4 0x30400A86 EQ PUSH2 0x5EE JUMPI DUP1 PUSH4 0x305E2DAF EQ PUSH2 0x654 JUMPI DUP1 PUSH4 0x313CE567 EQ PUSH2 0x6AC JUMPI DUP1 PUSH4 0x37610C0E EQ PUSH2 0x6CD JUMPI PUSH2 0x3FC JUMP JUMPDEST DUP1 PUSH4 0x18160DDD GT PUSH2 0x3CF JUMPI DUP1 PUSH4 0x18160DDD EQ PUSH2 0x524 JUMPI DUP1 PUSH4 0x1F93ABD4 EQ PUSH2 0x542 JUMPI DUP1 PUSH4 0x23B872DD EQ PUSH2 0x54C JUMPI DUP1 PUSH4 0x2945AC68 EQ PUSH2 0x5D0 JUMPI PUSH2 0x3FC JUMP JUMPDEST DUP1 PUSH4 0x3FF8E88 EQ PUSH2 0x401 JUMPI DUP1 PUSH4 0x6FDDE03 EQ PUSH2 0x41F JUMPI DUP1 PUSH4 0x95EA7B3 EQ PUSH2 0x4A2 JUMPI DUP1 PUSH4 0x1387520A EQ PUSH2 0x506 JUMPI JUMPDEST PUSH1 0x0 DUP1 REVERT JUMPDEST PUSH2 0x409 PUSH2 0x13AF JUMP JUMPDEST PUSH1 0x40 MLOAD DUP1 DUP3 DUP2 MSTORE PUSH1 0x20 ADD SWAP2 POP POP PUSH1 0x40 MLOAD DUP1 SWAP2 SUB SWAP1 RETURN JUMPDEST PUSH2 0x427 PUSH2 0x13B5 JUMP JUMPDEST PUSH1 0x40 MLOAD DUP1 DUP1 PUSH1 0x20 ADD DUP3 DUP2 SUB DUP3 MSTORE DUP4 DUP2 DUP2 MLOAD DUP2 MSTORE PUSH1 0x20 ADD SWAP2 POP DUP1 MLOAD SWAP1 PUSH1 0x20 ADD SWAP1 DUP1 DUP4 DUP4 PUSH1 0x0 JUMPDEST DUP4 DUP2 LT ISZERO PUSH2 0x467 JUMPI DUP1 DUP3 ADD MLOAD DUP2 DUP5 ADD MSTORE PUSH1 0x20 DUP2 ADD SWAP1 POP PUSH2 0x44C JUMP JUMPDEST POP POP POP POP SWAP1 POP SWAP1 DUP2 ADD SWAP1 PUSH1 0x1F AND DUP1 ISZERO PUSH2 0x494 JUMPI DUP1 DUP3 SUB DUP1 MLOAD PUSH1 0x1 DUP4 PUSH1 0x20 SUB PUSH2 0x100 EXP SUB NOT AND DUP2 MSTORE PUSH1 0x20 ADD SWAP2 POP JUMPDEST POP SWAP3 POP POP POP PUSH1 0x40 MLOAD DUP1 SWAP2 SUB SWAP1 RETURN JUMPDEST PUSH2 0x4EE PUSH1 0x4 DUP1 CALLDATASIZE SUB PUSH1 0x40 DUP2 LT ISZERO PUSH2 0x4B8 JUMPI PUSH1 0x0 DUP1 REVERT JUMPDEST DUP2 ADD SWAP1 DUP1 DUP1 CALLDATALOAD PUSH20 0xFFFFFFFFFFFFFFFFFFFFFFFFFFFFFFFFFFFFFFFF AND SWAP1 PUSH1 0x20 ADD SWAP1 SWAP3 SWAP2 SWAP1 DUP1 CALLDATALOAD SWAP1 PUSH1 0x20 ADD SWAP1 SWAP3 SWAP2 SWAP1 POP POP POP PUSH2 0x1457 JUMP JUMPDEST PUSH1 0x40 MLOAD DUP1 DUP3 ISZERO ISZERO DUP2 MSTORE PUSH1 0x20 ADD SWAP2 POP POP PUSH1 0x40 MLOAD DUP1 SWAP2 SUB SWAP1 RETURN JUMPDEST PUSH2 0x50E PUSH2 0x1475 JUMP JUMPDEST PUSH1 0x40 MLOAD DUP1 DUP3 DUP2 MSTORE PUSH1 0x20 ADD SWAP2 POP POP PUSH1 0x40 MLOAD DUP1 SWAP2 SUB SWAP1 RETURN JUMPDEST PUSH2 0x52C PUSH2 0x1499 JUMP JUMPDEST PUSH1 0x40 MLOAD DUP1 DUP3 DUP2 MSTORE PUSH1 0x20 ADD SWAP2 POP POP PUSH1 0x40 MLOAD DUP1 SWAP2 SUB SWAP1 RETURN JUMPDEST PUSH2 0x54A PUSH2 0x14A3 JUMP JUMPDEST STOP JUMPDEST PUSH2 0x5B8 PUSH1 0x4 DUP1 CALLDATASIZE SUB PUSH1 0x60 DUP2 LT ISZERO PUSH2 0x562 JUMPI PUSH1 0x0 DUP1 REVERT JUMPDEST DUP2 ADD SWAP1 DUP1 DUP1 CALLDATALOAD PUSH20 0xFFFFFFFFFFFFFFFFFFFFFFFFFFFFFFFFFFFFFFFF AND SWAP1 PUSH1 0x20 ADD SWAP1 SWAP3 SWAP2 SWAP1 DUP1 CALLDATALOAD PUSH20 0xFFFFFFFFFFFFFFFFFFFFFFFFFFFFFFFFFFFFFFFF AND SWAP1 PUSH1 0x20 ADD SWAP1 SWAP3 SWAP2 SWAP1 DUP1 CALLDATALOAD SWAP1 PUSH1 0x20 ADD SWAP1 SWAP3 SWAP2 SWAP1 POP POP POP PUSH2 0x152E JUMP JUMPDEST PUSH1 0x40 MLOAD DUP1 DUP3 ISZERO ISZERO DUP2 MSTORE PUSH1 0x20 ADD SWAP2 POP POP PUSH1 0x40 MLOAD DUP1 SWAP2 SUB SWAP1 RETURN JUMPDEST PUSH2 0x5D8 PUSH2 0x1607 JUMP JUMPDEST PUSH1 0x40 MLOAD DUP1 DUP3 DUP2 MSTORE PUSH1 0x20 ADD SWAP2 POP POP PUSH1 0x40 MLOAD DUP1 SWAP2 SUB SWAP1 RETURN JUMPDEST PUSH2 0x630 PUSH1 0x4 DUP1 CALLDATASIZE SUB PUSH1 0x20 DUP2 LT ISZERO PUSH2 0x604 JUMPI PUSH1 0x0 DUP1 REVERT JUMPDEST DUP2 ADD SWAP1 DUP1 DUP1 CALLDATALOAD PUSH20 0xFFFFFFFFFFFFFFFFFFFFFFFFFFFFFFFFFFFFFFFF AND SWAP1 PUSH1 0x20 ADD SWAP1 SWAP3 SWAP2 SWAP1 POP POP POP PUSH2 0x162B JUMP JUMPDEST PUSH1 0x40 MLOAD DUP1 DUP5 DUP2 MSTORE PUSH1 0x20 ADD DUP4 DUP2 MSTORE PUSH1 0x20 ADD DUP3 DUP2 MSTORE PUSH1 0x20 ADD SWAP4 POP POP POP POP PUSH1 0x40 MLOAD DUP1 SWAP2 SUB SWAP1 RETURN JUMPDEST PUSH2 0x696 PUSH1 0x4 DUP1 CALLDATASIZE SUB PUSH1 0x20 DUP2 LT ISZERO PUSH2 0x66A JUMPI PUSH1 0x0 DUP1 REVERT JUMPDEST DUP2 ADD SWAP1 DUP1 DUP1 CALLDATALOAD PUSH20 0xFFFFFFFFFFFFFFFFFFFFFFFFFFFFFFFFFFFFFFFF AND SWAP1 PUSH1 0x20 ADD SWAP1 SWAP3 SWAP2 SWAP1 POP POP POP PUSH2 0x1655 JUMP JUMPDEST PUSH1 0x40 MLOAD DUP1 DUP3 DUP2 MSTORE PUSH1 0x20 ADD SWAP2 POP POP PUSH1 0x40 MLOAD DUP1 SWAP2 SUB SWAP1 RETURN JUMPDEST PUSH2 0x6B4 PUSH2 0x16A1 JUMP JUMPDEST PUSH1 0x40 MLOAD DUP1 DUP3 PUSH1 0xFF AND DUP2 MSTORE PUSH1 0x20 ADD SWAP2 POP POP PUSH1 0x40 MLOAD DUP1 SWAP2 SUB SWAP1 RETURN JUMPDEST PUSH2 0x6D5 PUSH2 0x16B8 JUMP JUMPDEST PUSH1 0x40 MLOAD DUP1 DUP3 ISZERO ISZERO DUP2 MSTORE PUSH1 0x20 ADD SWAP2 POP POP PUSH1 0x40 MLOAD DUP1 SWAP2 SUB SWAP1 RETURN JUMPDEST PUSH2 0x739 PUSH1 0x4 DUP1 CALLDATASIZE SUB PUSH1 0x40 DUP2 LT ISZERO PUSH2 0x703 JUMPI PUSH1 0x0 DUP1 REVERT JUMPDEST DUP2 ADD SWAP1 DUP1 DUP1 CALLDATALOAD PUSH20 0xFFFFFFFFFFFFFFFFFFFFFFFFFFFFFFFFFFFFFFFF AND SWAP1 PUSH1 0x20 ADD SWAP1 SWAP3 SWAP2 SWAP1 DUP1 CALLDATALOAD SWAP1 PUSH1 0x20 ADD SWAP1 SWAP3 SWAP2 SWAP1 POP POP POP PUSH2 0x16CB JUMP JUMPDEST PUSH1 0x40 MLOAD DUP1 DUP3 ISZERO ISZERO DUP2 MSTORE PUSH1 0x20 ADD SWAP2 POP POP PUSH1 0x40 MLOAD DUP1 SWAP2 SUB SWAP1 RETURN JUMPDEST PUSH2 0x79D PUSH1 0x4 DUP1 CALLDATASIZE SUB PUSH1 0x40 DUP2 LT ISZERO PUSH2 0x767 JUMPI PUSH1 0x0 DUP1 REVERT JUMPDEST DUP2 ADD SWAP1 DUP1 DUP1 CALLDATALOAD PUSH20 0xFFFFFFFFFFFFFFFFFFFFFFFFFFFFFFFFFFFFFFFF AND SWAP1 PUSH1 0x20 ADD SWAP1 SWAP3 SWAP2 SWAP1 DUP1 CALLDATALOAD SWAP1 PUSH1 0x20 ADD SWAP1 SWAP3 SWAP2 SWAP1 POP POP POP PUSH2 0x177E JUMP JUMPDEST STOP JUMPDEST PUSH2 0x7A7 PUSH2 0x1BCF JUMP JUMPDEST PUSH1 0x40 MLOAD DUP1 DUP1 PUSH1 0x20 ADD DUP3 DUP2 SUB DUP3 MSTORE DUP4 DUP2 DUP2 MLOAD DUP2 MSTORE PUSH1 0x20 ADD SWAP2 POP DUP1 MLOAD SWAP1 PUSH1 0x20 ADD SWAP1 DUP1 DUP4 DUP4 PUSH1 0x0 JUMPDEST DUP4 DUP2 LT ISZERO PUSH2 0x7E7 JUMPI DUP1 DUP3 ADD MLOAD DUP2 DUP5 ADD MSTORE PUSH1 0x20 DUP2 ADD SWAP1 POP PUSH2 0x7CC JUMP JUMPDEST POP POP POP POP SWAP1 POP SWAP1 DUP2 ADD SWAP1 PUSH1 0x1F AND DUP1 ISZERO PUSH2 0x814 JUMPI DUP1 DUP3 SUB DUP1 MLOAD PUSH1 0x1 DUP4 PUSH1 0x20 SUB PUSH2 0x100 EXP SUB NOT AND DUP2 MSTORE PUSH1 0x20 ADD SWAP2 POP JUMPDEST POP SWAP3 POP POP POP PUSH1 0x40 MLOAD DUP1 SWAP2 SUB SWAP1 RETURN JUMPDEST PUSH2 0x84E PUSH1 0x4 DUP1 CALLDATASIZE SUB PUSH1 0x20 DUP2 LT ISZERO PUSH2 0x838 JUMPI PUSH1 0x0 DUP1 REVERT JUMPDEST DUP2 ADD SWAP1 DUP1 DUP1 CALLDATALOAD SWAP1 PUSH1 0x20 ADD SWAP1 SWAP3 SWAP2 SWAP1 POP POP POP PUSH2 0x1C6D JUMP JUMPDEST STOP JUMPDEST PUSH2 0x858 PUSH2 0x237A JUMP JUMPDEST PUSH1 0x40 MLOAD DUP1 DUP3 PUSH20 0xFFFFFFFFFFFFFFFFFFFFFFFFFFFFFFFFFFFFFFFF AND DUP2 MSTORE PUSH1 0x20 ADD SWAP2 POP POP PUSH1 0x40 MLOAD DUP1 SWAP2 SUB SWAP1 RETURN JUMPDEST PUSH2 0x88C PUSH2 0x23A0 JUMP JUMPDEST PUSH1 0x40 MLOAD DUP1 DUP3 DUP2 MSTORE PUSH1 0x20 ADD SWAP2 POP POP PUSH1 0x40 MLOAD DUP1 SWAP2 SUB SWAP1 RETURN JUMPDEST PUSH2 0x8CE PUSH1 0x4 DUP1 CALLDATASIZE SUB PUSH1 0x20 DUP2 LT ISZERO PUSH2 0x8B8 JUMPI PUSH1 0x0 DUP1 REVERT JUMPDEST DUP2 ADD SWAP1 DUP1 DUP1 CALLDATALOAD SWAP1 PUSH1 0x20 ADD SWAP1 SWAP3 SWAP2 SWAP1 POP POP POP PUSH2 0x23C4 JUMP JUMPDEST STOP JUMPDEST PUSH2 0x8D8 PUSH2 0x2759 JUMP JUMPDEST PUSH1 0x40 MLOAD DUP1 DUP3 PUSH20 0xFFFFFFFFFFFFFFFFFFFFFFFFFFFFFFFFFFFFFFFF AND DUP2 MSTORE PUSH1 0x20 ADD SWAP2 POP POP PUSH1 0x40 MLOAD DUP1 SWAP2 SUB SWAP1 RETURN JUMPDEST PUSH2 0x90C PUSH2 0x277F JUMP JUMPDEST STOP JUMPDEST PUSH2 0x916 PUSH2 0x2877 JUMP JUMPDEST PUSH1 0x40 MLOAD DUP1 DUP3 ISZERO ISZERO DUP2 MSTORE PUSH1 0x20 ADD SWAP2 POP POP PUSH1 0x40 MLOAD DUP1 SWAP2 SUB SWAP1 RETURN JUMPDEST PUSH2 0x936 PUSH2 0x288A JUMP JUMPDEST PUSH1 0x40 MLOAD DUP1 DUP3 DUP2 MSTORE PUSH1 0x20 ADD SWAP2 POP POP PUSH1 0x40 MLOAD DUP1 SWAP2 SUB SWAP1 RETURN JUMPDEST PUSH2 0x954 PUSH2 0x2890 JUMP JUMPDEST PUSH1 0x40 MLOAD DUP1 DUP3 DUP2 MSTORE PUSH1 0x20 ADD SWAP2 POP POP PUSH1 0x40 MLOAD DUP1 SWAP2 SUB SWAP1 RETURN JUMPDEST PUSH2 0x996 PUSH1 0x4 DUP1 CALLDATASIZE SUB PUSH1 0x20 DUP2 LT ISZERO PUSH2 0x980 JUMPI PUSH1 0x0 DUP1 REVERT JUMPDEST DUP2 ADD SWAP1 DUP1 DUP1 CALLDATALOAD SWAP1 PUSH1 0x20 ADD SWAP1 SWAP3 SWAP2 SWAP1 POP POP POP PUSH2 0x2896 JUMP JUMPDEST STOP JUMPDEST PUSH2 0x9DA PUSH1 0x4 DUP1 CALLDATASIZE SUB PUSH1 0x20 DUP2 LT ISZERO PUSH2 0x9AE JUMPI PUSH1 0x0 DUP1 REVERT JUMPDEST DUP2 ADD SWAP1 DUP1 DUP1 CALLDATALOAD PUSH20 0xFFFFFFFFFFFFFFFFFFFFFFFFFFFFFFFFFFFFFFFF AND SWAP1 PUSH1 0x20 ADD SWAP1 SWAP3 SWAP2 SWAP1 POP POP POP PUSH2 0x28AB JUMP JUMPDEST PUSH1 0x40 MLOAD DUP1 DUP3 DUP2 MSTORE PUSH1 0x20 ADD SWAP2 POP POP PUSH1 0x40 MLOAD DUP1 SWAP2 SUB SWAP1 RETURN JUMPDEST PUSH2 0x9F8 PUSH2 0x28F3 JUMP JUMPDEST STOP JUMPDEST PUSH2 0xA26 PUSH1 0x4 DUP1 CALLDATASIZE SUB PUSH1 0x20 DUP2 LT ISZERO PUSH2 0xA10 JUMPI PUSH1 0x0 DUP1 REVERT JUMPDEST DUP2 ADD SWAP1 DUP1 DUP1 CALLDATALOAD SWAP1 PUSH1 0x20 ADD SWAP1 SWAP3 SWAP2 SWAP1 POP POP POP PUSH2 0x2A63 JUMP JUMPDEST STOP JUMPDEST PUSH2 0xA88 PUSH1 0x4 DUP1 CALLDATASIZE SUB PUSH1 0x80 DUP2 LT ISZERO PUSH2 0xA3E JUMPI PUSH1 0x0 DUP1 REVERT JUMPDEST DUP2 ADD SWAP1 DUP1 DUP1 CALLDATALOAD PUSH20 0xFFFFFFFFFFFFFFFFFFFFFFFFFFFFFFFFFFFFFFFF AND SWAP1 PUSH1 0x20 ADD SWAP1 SWAP3 SWAP2 SWAP1 DUP1 CALLDATALOAD SWAP1 PUSH1 0x20 ADD SWAP1 SWAP3 SWAP2 SWAP1 DUP1 CALLDATALOAD SWAP1 PUSH1 0x20 ADD SWAP1 SWAP3 SWAP2 SWAP1 DUP1 CALLDATALOAD SWAP1 PUSH1 0x20 ADD SWAP1 SWAP3 SWAP2 SWAP1 POP POP POP PUSH2 0x2BCB JUMP JUMPDEST STOP JUMPDEST PUSH2 0xA92 PUSH2 0x2E0B JUMP JUMPDEST PUSH1 0x40 MLOAD DUP1 DUP3 DUP2 MSTORE PUSH1 0x20 ADD SWAP2 POP POP PUSH1 0x40 MLOAD DUP1 SWAP2 SUB SWAP1 RETURN JUMPDEST PUSH2 0xAEA PUSH1 0x4 DUP1 CALLDATASIZE SUB PUSH1 0x20 DUP2 LT ISZERO PUSH2 0xABE JUMPI PUSH1 0x0 DUP1 REVERT JUMPDEST DUP2 ADD SWAP1 DUP1 DUP1 CALLDATALOAD PUSH20 0xFFFFFFFFFFFFFFFFFFFFFFFFFFFFFFFFFFFFFFFF AND SWAP1 PUSH1 0x20 ADD SWAP1 SWAP3 SWAP2 SWAP1 POP POP POP PUSH2 0x2E11 JUMP JUMPDEST PUSH1 0x40 MLOAD DUP1 DUP3 DUP2 MSTORE PUSH1 0x20 ADD SWAP2 POP POP PUSH1 0x40 MLOAD DUP1 SWAP2 SUB SWAP1 RETURN JUMPDEST PUSH2 0xB08 PUSH2 0x2E5D JUMP JUMPDEST PUSH1 0x40 MLOAD DUP1 DUP3 DUP2 MSTORE PUSH1 0x20 ADD SWAP2 POP POP PUSH1 0x40 MLOAD DUP1 SWAP2 SUB SWAP1 RETURN JUMPDEST PUSH2 0xB26 PUSH2 0x2E81 JUMP JUMPDEST PUSH1 0x40 MLOAD DUP1 DUP3 DUP2 MSTORE PUSH1 0x20 ADD SWAP2 POP POP PUSH1 0x40 MLOAD DUP1 SWAP2 SUB SWAP1 RETURN JUMPDEST PUSH2 0xB44 PUSH2 0x2E87 JUMP JUMPDEST PUSH1 0x40 MLOAD DUP1 DUP3 DUP2 MSTORE PUSH1 0x20 ADD SWAP2 POP POP PUSH1 0x40 MLOAD DUP1 SWAP2 SUB SWAP1 RETURN JUMPDEST PUSH2 0xB62 PUSH2 0x2E8D JUMP JUMPDEST PUSH1 0x40 MLOAD DUP1 DUP3 DUP2 MSTORE PUSH1 0x20 ADD SWAP2 POP POP PUSH1 0x40 MLOAD DUP1 SWAP2 SUB SWAP1 RETURN JUMPDEST PUSH2 0xBC4 PUSH1 0x4 DUP1 CALLDATASIZE SUB PUSH1 0x40 DUP2 LT ISZERO PUSH2 0xB8E JUMPI PUSH1 0x0 DUP1 REVERT JUMPDEST DUP2 ADD SWAP1 DUP1 DUP1 CALLDATALOAD PUSH20 0xFFFFFFFFFFFFFFFFFFFFFFFFFFFFFFFFFFFFFFFF AND SWAP1 PUSH1 0x20 ADD SWAP1 SWAP3 SWAP2 SWAP1 DUP1 CALLDATALOAD SWAP1 PUSH1 0x20 ADD SWAP1 SWAP3 SWAP2 SWAP1 POP POP POP PUSH2 0x2E93 JUMP JUMPDEST STOP JUMPDEST PUSH2 0xBCE PUSH2 0x310B JUMP JUMPDEST PUSH1 0x40 MLOAD DUP1 DUP3 DUP2 MSTORE PUSH1 0x20 ADD SWAP2 POP POP PUSH1 0x40 MLOAD DUP1 SWAP2 SUB SWAP1 RETURN JUMPDEST PUSH2 0xBEC PUSH2 0x312F JUMP JUMPDEST PUSH1 0x40 MLOAD DUP1 DUP3 DUP2 MSTORE PUSH1 0x20 ADD SWAP2 POP POP PUSH1 0x40 MLOAD DUP1 SWAP2 SUB SWAP1 RETURN JUMPDEST PUSH2 0xC0A PUSH2 0x3153 JUMP JUMPDEST PUSH1 0x40 MLOAD DUP1 DUP3 ISZERO ISZERO DUP2 MSTORE PUSH1 0x20 ADD SWAP2 POP POP PUSH1 0x40 MLOAD DUP1 SWAP2 SUB SWAP1 RETURN JUMPDEST PUSH2 0xC2A PUSH2 0x3166 JUMP JUMPDEST PUSH1 0x40 MLOAD DUP1 DUP3 DUP2 MSTORE PUSH1 0x20 ADD SWAP2 POP POP PUSH1 0x40 MLOAD DUP1 SWAP2 SUB SWAP1 RETURN JUMPDEST PUSH2 0xC48 PUSH2 0x318A JUMP JUMPDEST PUSH1 0x40 MLOAD DUP1 DUP3 PUSH20 0xFFFFFFFFFFFFFFFFFFFFFFFFFFFFFFFFFFFFFFFF AND DUP2 MSTORE PUSH1 0x20 ADD SWAP2 POP POP PUSH1 0x40 MLOAD DUP1 SWAP2 SUB SWAP1 RETURN JUMPDEST PUSH2 0xCA0 PUSH1 0x4 DUP1 CALLDATASIZE SUB PUSH1 0x20 DUP2 LT ISZERO PUSH2 0xC8A JUMPI PUSH1 0x0 DUP1 REVERT JUMPDEST DUP2 ADD SWAP1 DUP1 DUP1 CALLDATALOAD SWAP1 PUSH1 0x20 ADD SWAP1 SWAP3 SWAP2 SWAP1 POP POP POP PUSH2 0x31B4 JUMP JUMPDEST PUSH1 0x40 MLOAD DUP1 DUP3 DUP2 MSTORE PUSH1 0x20 ADD SWAP2 POP POP PUSH1 0x40 MLOAD DUP1 SWAP2 SUB SWAP1 RETURN JUMPDEST PUSH2 0xCBE PUSH2 0x328C JUMP JUMPDEST PUSH1 0x40 MLOAD DUP1 DUP3 DUP2 MSTORE PUSH1 0x20 ADD SWAP2 POP POP PUSH1 0x40 MLOAD DUP1 SWAP2 SUB SWAP1 RETURN JUMPDEST PUSH2 0xD16 PUSH1 0x4 DUP1 CALLDATASIZE SUB PUSH1 0x20 DUP2 LT ISZERO PUSH2 0xCEA JUMPI PUSH1 0x0 DUP1 REVERT JUMPDEST DUP2 ADD SWAP1 DUP1 DUP1 CALLDATALOAD PUSH20 0xFFFFFFFFFFFFFFFFFFFFFFFFFFFFFFFFFFFFFFFF AND SWAP1 PUSH1 0x20 ADD SWAP1 SWAP3 SWAP2 SWAP1 POP POP POP PUSH2 0x3292 JUMP JUMPDEST PUSH1 0x40 MLOAD DUP1 DUP3 DUP2 MSTORE PUSH1 0x20 ADD SWAP2 POP POP PUSH1 0x40 MLOAD DUP1 SWAP2 SUB SWAP1 RETURN JUMPDEST PUSH2 0xD34 PUSH2 0x32AA JUMP JUMPDEST PUSH1 0x40 MLOAD DUP1 DUP1 PUSH1 0x20 ADD DUP3 DUP2 SUB DUP3 MSTORE DUP4 DUP2 DUP2 MLOAD DUP2 MSTORE PUSH1 0x20 ADD SWAP2 POP DUP1 MLOAD SWAP1 PUSH1 0x20 ADD SWAP1 DUP1 DUP4 DUP4 PUSH1 0x0 JUMPDEST DUP4 DUP2 LT ISZERO PUSH2 0xD74 JUMPI DUP1 DUP3 ADD MLOAD DUP2 DUP5 ADD MSTORE PUSH1 0x20 DUP2 ADD SWAP1 POP PUSH2 0xD59 JUMP JUMPDEST POP POP POP POP SWAP1 POP SWAP1 DUP2 ADD SWAP1 PUSH1 0x1F AND DUP1 ISZERO PUSH2 0xDA1 JUMPI DUP1 DUP3 SUB DUP1 MLOAD PUSH1 0x1 DUP4 PUSH1 0x20 SUB PUSH2 0x100 EXP SUB NOT AND DUP2 MSTORE PUSH1 0x20 ADD SWAP2 POP JUMPDEST POP SWAP3 POP POP POP PUSH1 0x40 MLOAD DUP1 SWAP2 SUB SWAP1 RETURN JUMPDEST PUSH2 0xDB7 PUSH2 0x334C JUMP JUMPDEST PUSH1 0x40 MLOAD DUP1 DUP3 ISZERO ISZERO DUP2 MSTORE PUSH1 0x20 ADD SWAP2 POP POP PUSH1 0x40 MLOAD DUP1 SWAP2 SUB SWAP1 RETURN JUMPDEST PUSH2 0xDD7 PUSH2 0x335F JUMP JUMPDEST STOP JUMPDEST PUSH2 0xE1B PUSH1 0x4 DUP1 CALLDATASIZE SUB PUSH1 0x20 DUP2 LT ISZERO PUSH2 0xDEF JUMPI PUSH1 0x0 DUP1 REVERT JUMPDEST DUP2 ADD SWAP1 DUP1 DUP1 CALLDATALOAD PUSH20 0xFFFFFFFFFFFFFFFFFFFFFFFFFFFFFFFFFFFFFFFF AND SWAP1 PUSH1 0x20 ADD SWAP1 SWAP3 SWAP2 SWAP1 POP POP POP PUSH2 0x3457 JUMP JUMPDEST PUSH1 0x40 MLOAD DUP1 DUP3 DUP2 MSTORE PUSH1 0x20 ADD SWAP2 POP POP PUSH1 0x40 MLOAD DUP1 SWAP2 SUB SWAP1 RETURN JUMPDEST PUSH2 0xE71 PUSH1 0x4 DUP1 CALLDATASIZE SUB PUSH1 0x60 DUP2 LT ISZERO PUSH2 0xE47 JUMPI PUSH1 0x0 DUP1 REVERT JUMPDEST DUP2 ADD SWAP1 DUP1 DUP1 CALLDATALOAD SWAP1 PUSH1 0x20 ADD SWAP1 SWAP3 SWAP2 SWAP1 DUP1 CALLDATALOAD SWAP1 PUSH1 0x20 ADD SWAP1 SWAP3 SWAP2 SWAP1 DUP1 CALLDATALOAD SWAP1 PUSH1 0x20 ADD SWAP1 SWAP3 SWAP2 SWAP1 POP POP POP PUSH2 0x34A3 JUMP JUMPDEST STOP JUMPDEST PUSH2 0xEBF PUSH1 0x4 DUP1 CALLDATASIZE SUB PUSH1 0x40 DUP2 LT ISZERO PUSH2 0xE89 JUMPI PUSH1 0x0 DUP1 REVERT JUMPDEST DUP2 ADD SWAP1 DUP1 DUP1 CALLDATALOAD PUSH20 0xFFFFFFFFFFFFFFFFFFFFFFFFFFFFFFFFFFFFFFFF AND SWAP1 PUSH1 0x20 ADD SWAP1 SWAP3 SWAP2 SWAP1 DUP1 CALLDATALOAD SWAP1 PUSH1 0x20 ADD SWAP1 SWAP3 SWAP2 SWAP1 POP POP POP PUSH2 0x388B JUMP JUMPDEST PUSH1 0x40 MLOAD DUP1 DUP3 ISZERO ISZERO DUP2 MSTORE PUSH1 0x20 ADD SWAP2 POP POP PUSH1 0x40 MLOAD DUP1 SWAP2 SUB SWAP1 RETURN JUMPDEST PUSH2 0xEDF PUSH2 0x3958 JUMP JUMPDEST STOP JUMPDEST PUSH2 0xF2D PUSH1 0x4 DUP1 CALLDATASIZE SUB PUSH1 0x40 DUP2 LT ISZERO PUSH2 0xEF7 JUMPI PUSH1 0x0 DUP1 REVERT JUMPDEST DUP2 ADD SWAP1 DUP1 DUP1 CALLDATALOAD PUSH20 0xFFFFFFFFFFFFFFFFFFFFFFFFFFFFFFFFFFFFFFFF AND SWAP1 PUSH1 0x20 ADD SWAP1 SWAP3 SWAP2 SWAP1 DUP1 CALLDATALOAD SWAP1 PUSH1 0x20 ADD SWAP1 SWAP3 SWAP2 SWAP1 POP POP POP PUSH2 0x3A72 JUMP JUMPDEST PUSH1 0x40 MLOAD DUP1 DUP3 ISZERO ISZERO DUP2 MSTORE PUSH1 0x20 ADD SWAP2 POP POP PUSH1 0x40 MLOAD DUP1 SWAP2 SUB SWAP1 RETURN JUMPDEST PUSH2 0xF4D PUSH2 0x3A90 JUMP JUMPDEST PUSH1 0x40 MLOAD DUP1 DUP3 DUP2 MSTORE PUSH1 0x20 ADD SWAP2 POP POP PUSH1 0x40 MLOAD DUP1 SWAP2 SUB SWAP1 RETURN JUMPDEST PUSH2 0xF6B PUSH2 0x3A96 JUMP JUMPDEST STOP JUMPDEST PUSH2 0xF99 PUSH1 0x4 DUP1 CALLDATASIZE SUB PUSH1 0x20 DUP2 LT ISZERO PUSH2 0xF83 JUMPI PUSH1 0x0 DUP1 REVERT JUMPDEST DUP2 ADD SWAP1 DUP1 DUP1 CALLDATALOAD SWAP1 PUSH1 0x20 ADD SWAP1 SWAP3 SWAP2 SWAP1 POP POP POP PUSH2 0x3C78 JUMP JUMPDEST STOP JUMPDEST PUSH2 0xFA3 PUSH2 0x3DFE JUMP JUMPDEST PUSH1 0x40 MLOAD DUP1 DUP3 DUP2 MSTORE PUSH1 0x20 ADD SWAP2 POP POP PUSH1 0x40 MLOAD DUP1 SWAP2 SUB SWAP1 RETURN JUMPDEST PUSH2 0xFE5 PUSH1 0x4 DUP1 CALLDATASIZE SUB PUSH1 0x20 DUP2 LT ISZERO PUSH2 0xFCF JUMPI PUSH1 0x0 DUP1 REVERT JUMPDEST DUP2 ADD SWAP1 DUP1 DUP1 CALLDATALOAD SWAP1 PUSH1 0x20 ADD SWAP1 SWAP3 SWAP2 SWAP1 POP POP POP PUSH2 0x3E04 JUMP JUMPDEST STOP JUMPDEST PUSH2 0x1013 PUSH1 0x4 DUP1 CALLDATASIZE SUB PUSH1 0x20 DUP2 LT ISZERO PUSH2 0xFFD JUMPI PUSH1 0x0 DUP1 REVERT JUMPDEST DUP2 ADD SWAP1 DUP1 DUP1 CALLDATALOAD SWAP1 PUSH1 0x20 ADD SWAP1 SWAP3 SWAP2 SWAP1 POP POP POP PUSH2 0x405D JUMP JUMPDEST STOP JUMPDEST PUSH2 0x1057 PUSH1 0x4 DUP1 CALLDATASIZE SUB PUSH1 0x20 DUP2 LT ISZERO PUSH2 0x102B JUMPI PUSH1 0x0 DUP1 REVERT JUMPDEST DUP2 ADD SWAP1 DUP1 DUP1 CALLDATALOAD PUSH20 0xFFFFFFFFFFFFFFFFFFFFFFFFFFFFFFFFFFFFFFFF AND SWAP1 PUSH1 0x20 ADD SWAP1 SWAP3 SWAP2 SWAP1 POP POP POP PUSH2 0x4072 JUMP JUMPDEST STOP JUMPDEST PUSH2 0x10BB PUSH1 0x4 DUP1 CALLDATASIZE SUB PUSH1 0x40 DUP2 LT ISZERO PUSH2 0x106F JUMPI PUSH1 0x0 DUP1 REVERT JUMPDEST DUP2 ADD SWAP1 DUP1 DUP1 CALLDATALOAD PUSH20 0xFFFFFFFFFFFFFFFFFFFFFFFFFFFFFFFFFFFFFFFF AND SWAP1 PUSH1 0x20 ADD SWAP1 SWAP3 SWAP2 SWAP1 DUP1 CALLDATALOAD PUSH20 0xFFFFFFFFFFFFFFFFFFFFFFFFFFFFFFFFFFFFFFFF AND SWAP1 PUSH1 0x20 ADD SWAP1 SWAP3 SWAP2 SWAP1 POP POP POP PUSH2 0x42DE JUMP JUMPDEST PUSH1 0x40 MLOAD DUP1 DUP3 DUP2 MSTORE PUSH1 0x20 ADD SWAP2 POP POP PUSH1 0x40 MLOAD DUP1 SWAP2 SUB SWAP1 RETURN JUMPDEST PUSH2 0x1227 PUSH1 0x4 DUP1 CALLDATASIZE SUB PUSH1 0x60 DUP2 LT ISZERO PUSH2 0x10E7 JUMPI PUSH1 0x0 DUP1 REVERT JUMPDEST DUP2 ADD SWAP1 DUP1 DUP1 CALLDATALOAD SWAP1 PUSH1 0x20 ADD SWAP1 PUSH5 0x100000000 DUP2 GT ISZERO PUSH2 0x1104 JUMPI PUSH1 0x0 DUP1 REVERT JUMPDEST DUP3 ADD DUP4 PUSH1 0x20 DUP3 ADD GT ISZERO PUSH2 0x1116 JUMPI PUSH1 0x0 DUP1 REVERT JUMPDEST DUP1 CALLDATALOAD SWAP1 PUSH1 0x20 ADD SWAP2 DUP5 PUSH1 0x20 DUP4 MUL DUP5 ADD GT PUSH5 0x100000000 DUP4 GT OR ISZERO PUSH2 0x1138 JUMPI PUSH1 0x0 DUP1 REVERT JUMPDEST SWAP2 SWAP1 DUP1 DUP1 PUSH1 0x20 MUL PUSH1 0x20 ADD PUSH1 0x40 MLOAD SWAP1 DUP2 ADD PUSH1 0x40 MSTORE DUP1 SWAP4 SWAP3 SWAP2 SWAP1 DUP2 DUP2 MSTORE PUSH1 0x20 ADD DUP4 DUP4 PUSH1 0x20 MUL DUP1 DUP3 DUP5 CALLDATACOPY PUSH1 0x0 DUP2 DUP5 ADD MSTORE PUSH1 0x1F NOT PUSH1 0x1F DUP3 ADD AND SWAP1 POP DUP1 DUP4 ADD SWAP3 POP POP POP POP POP POP POP SWAP2 SWAP3 SWAP2 SWAP3 SWAP1 DUP1 CALLDATALOAD SWAP1 PUSH1 0x20 ADD SWAP1 PUSH5 0x100000000 DUP2 GT ISZERO PUSH2 0x1198 JUMPI PUSH1 0x0 DUP1 REVERT JUMPDEST DUP3 ADD DUP4 PUSH1 0x20 DUP3 ADD GT ISZERO PUSH2 0x11AA JUMPI PUSH1 0x0 DUP1 REVERT JUMPDEST DUP1 CALLDATALOAD SWAP1 PUSH1 0x20 ADD SWAP2 DUP5 PUSH1 0x20 DUP4 MUL DUP5 ADD GT PUSH5 0x100000000 DUP4 GT OR ISZERO PUSH2 0x11CC JUMPI PUSH1 0x0 DUP1 REVERT JUMPDEST SWAP2 SWAP1 DUP1 DUP1 PUSH1 0x20 MUL PUSH1 0x20 ADD PUSH1 0x40 MLOAD SWAP1 DUP2 ADD PUSH1 0x40 MSTORE DUP1 SWAP4 SWAP3 SWAP2 SWAP1 DUP2 DUP2 MSTORE PUSH1 0x20 ADD DUP4 DUP4 PUSH1 0x20 MUL DUP1 DUP3 DUP5 CALLDATACOPY PUSH1 0x0 DUP2 DUP5 ADD MSTORE PUSH1 0x1F NOT PUSH1 0x1F DUP3 ADD AND SWAP1 POP DUP1 DUP4 ADD SWAP3 POP POP POP POP POP POP POP SWAP2 SWAP3 SWAP2 SWAP3 SWAP1 DUP1 CALLDATALOAD ISZERO ISZERO SWAP1 PUSH1 0x20 ADD SWAP1 SWAP3 SWAP2 SWAP1 POP POP POP PUSH2 0x4365 JUMP JUMPDEST STOP JUMPDEST PUSH2 0x1231 PUSH2 0x4805 JUMP JUMPDEST PUSH1 0x40 MLOAD DUP1 DUP3 DUP2 MSTORE PUSH1 0x20 ADD SWAP2 POP POP PUSH1 0x40 MLOAD DUP1 SWAP2 SUB SWAP1 RETURN JUMPDEST PUSH2 0x124F PUSH2 0x480B JUMP JUMPDEST PUSH1 0x40 MLOAD DUP1 DUP3 DUP2 MSTORE PUSH1 0x20 ADD SWAP2 POP POP PUSH1 0x40 MLOAD DUP1 SWAP2 SUB SWAP1 RETURN JUMPDEST PUSH2 0x126D PUSH2 0x482F JUMP JUMPDEST PUSH1 0x40 MLOAD DUP1 DUP3 DUP2 MSTORE PUSH1 0x20 ADD SWAP2 POP POP PUSH1 0x40 MLOAD DUP1 SWAP2 SUB SWAP1 RETURN JUMPDEST PUSH2 0x12C5 PUSH1 0x4 DUP1 CALLDATASIZE SUB PUSH1 0x20 DUP2 LT ISZERO PUSH2 0x1299 JUMPI PUSH1 0x0 DUP1 REVERT JUMPDEST DUP2 ADD SWAP1 DUP1 DUP1 CALLDATALOAD PUSH20 0xFFFFFFFFFFFFFFFFFFFFFFFFFFFFFFFFFFFFFFFF AND SWAP1 PUSH1 0x20 ADD SWAP1 SWAP3 SWAP2 SWAP1 POP POP POP PUSH2 0x4835 JUMP JUMPDEST PUSH1 0x40 MLOAD DUP1 DUP3 DUP2 MSTORE PUSH1 0x20 ADD SWAP2 POP POP PUSH1 0x40 MLOAD DUP1 SWAP2 SUB SWAP1 RETURN JUMPDEST PUSH2 0x131D PUSH1 0x4 DUP1 CALLDATASIZE SUB PUSH1 0x20 DUP2 LT ISZERO PUSH2 0x12F1 JUMPI PUSH1 0x0 DUP1 REVERT JUMPDEST DUP2 ADD SWAP1 DUP1 DUP1 CALLDATALOAD PUSH20 0xFFFFFFFFFFFFFFFFFFFFFFFFFFFFFFFFFFFFFFFF AND SWAP1 PUSH1 0x20 ADD SWAP1 SWAP3 SWAP2 SWAP1 POP POP POP PUSH2 0x484F JUMP JUMPDEST STOP JUMPDEST PUSH2 0x134B PUSH1 0x4 DUP1 CALLDATASIZE SUB PUSH1 0x20 DUP2 LT ISZERO PUSH2 0x1335 JUMPI PUSH1 0x0 DUP1 REVERT JUMPDEST DUP2 ADD SWAP1 DUP1 DUP1 CALLDATALOAD SWAP1 PUSH1 0x20 ADD SWAP1 SWAP3 SWAP2 SWAP1 POP POP POP PUSH2 0x4A44 JUMP JUMPDEST STOP JUMPDEST PUSH2 0x1399 PUSH1 0x4 DUP1 CALLDATASIZE SUB PUSH1 0x40 DUP2 LT ISZERO PUSH2 0x1363 JUMPI PUSH1 0x0 DUP1 REVERT JUMPDEST DUP2 ADD SWAP1 DUP1 DUP1 CALLDATALOAD PUSH20 0xFFFFFFFFFFFFFFFFFFFFFFFFFFFFFFFFFFFFFFFF AND SWAP1 PUSH1 0x20 ADD SWAP1 SWAP3 SWAP2 SWAP1 DUP1 CALLDATALOAD SWAP1 PUSH1 0x20 ADD SWAP1 SWAP3 SWAP2 SWAP1 POP POP POP PUSH2 0x4A58 JUMP JUMPDEST PUSH1 0x40 MLOAD DUP1 DUP3 DUP2 MSTORE PUSH1 0x20 ADD SWAP2 POP POP PUSH1 0x40 MLOAD DUP1 SWAP2 SUB SWAP1 RETURN JUMPDEST PUSH1 0xA SLOAD DUP2 JUMP JUMPDEST PUSH1 0x60 PUSH1 0x3 DUP1 SLOAD PUSH1 0x1 DUP2 PUSH1 0x1 AND ISZERO PUSH2 0x100 MUL SUB AND PUSH1 0x2 SWAP1 DIV DUP1 PUSH1 0x1F ADD PUSH1 0x20 DUP1 SWAP2 DIV MUL PUSH1 0x20 ADD PUSH1 0x40 MLOAD SWAP1 DUP2 ADD PUSH1 0x40 MSTORE DUP1 SWAP3 SWAP2 SWAP1 DUP2 DUP2 MSTORE PUSH1 0x20 ADD DUP3 DUP1 SLOAD PUSH1 0x1 DUP2 PUSH1 0x1 AND ISZERO PUSH2 0x100 MUL SUB AND PUSH1 0x2 SWAP1 DIV DUP1 ISZERO PUSH2 0x144D JUMPI DUP1 PUSH1 0x1F LT PUSH2 0x1422 JUMPI PUSH2 0x100 DUP1 DUP4 SLOAD DIV MUL DUP4 MSTORE SWAP2 PUSH1 0x20 ADD SWAP2 PUSH2 0x144D JUMP JUMPDEST DUP3 ADD SWAP2 SWAP1 PUSH1 0x0 MSTORE PUSH1 0x20 PUSH1 0x0 KECCAK256 SWAP1 JUMPDEST DUP2 SLOAD DUP2 MSTORE SWAP1 PUSH1 0x1 ADD SWAP1 PUSH1 0x20 ADD DUP1 DUP4 GT PUSH2 0x1430 JUMPI DUP3 SWAP1 SUB PUSH1 0x1F AND DUP3 ADD SWAP2 JUMPDEST POP POP POP POP POP SWAP1 POP SWAP1 JUMP JUMPDEST PUSH1 0x0 PUSH2 0x146B PUSH2 0x1464 PUSH2 0x4CAA JUMP JUMPDEST DUP5 DUP5 PUSH2 0x4CB2 JUMP JUMPDEST PUSH1 0x1 SWAP1 POP SWAP3 SWAP2 POP POP JUMP JUMPDEST PUSH32 0x0 DUP2 JUMP JUMPDEST PUSH1 0x0 PUSH1 0x2 SLOAD SWAP1 POP SWAP1 JUMP JUMPDEST PUSH1 0x0 ISZERO ISZERO PUSH1 0x11 PUSH1 0x0 SWAP1 SLOAD SWAP1 PUSH2 0x100 EXP SWAP1 DIV PUSH1 0xFF AND ISZERO ISZERO EQ PUSH2 0x152C JUMPI PUSH1 0x40 MLOAD PUSH32 0x8C379A000000000000000000000000000000000000000000000000000000000 DUP2 MSTORE PUSH1 0x4 ADD DUP1 DUP1 PUSH1 0x20 ADD DUP3 DUP2 SUB DUP3 MSTORE PUSH1 0x15 DUP2 MSTORE PUSH1 0x20 ADD DUP1 PUSH32 0x5472616E73616374696F6E732064697361626C65640000000000000000000000 DUP2 MSTORE POP PUSH1 0x20 ADD SWAP2 POP POP PUSH1 0x40 MLOAD DUP1 SWAP2 SUB SWAP1 REVERT JUMPDEST JUMP JUMPDEST PUSH1 0x0 PUSH2 0x153B DUP5 DUP5 DUP5 PUSH2 0x4EA9 JUMP JUMPDEST PUSH2 0x15FC DUP5 PUSH2 0x1547 PUSH2 0x4CAA JUMP JUMPDEST PUSH2 0x15F7 DUP6 PUSH1 0x40 MLOAD DUP1 PUSH1 0x60 ADD PUSH1 0x40 MSTORE DUP1 PUSH1 0x28 DUP2 MSTORE PUSH1 0x20 ADD PUSH2 0x5E11 PUSH1 0x28 SWAP2 CODECOPY PUSH1 0x1 PUSH1 0x0 DUP12 PUSH20 0xFFFFFFFFFFFFFFFFFFFFFFFFFFFFFFFFFFFFFFFF AND PUSH20 0xFFFFFFFFFFFFFFFFFFFFFFFFFFFFFFFFFFFFFFFF AND DUP2 MSTORE PUSH1 0x20 ADD SWAP1 DUP2 MSTORE PUSH1 0x20 ADD PUSH1 0x0 KECCAK256 PUSH1 0x0 PUSH2 0x15AD PUSH2 0x4CAA JUMP JUMPDEST PUSH20 0xFFFFFFFFFFFFFFFFFFFFFFFFFFFFFFFFFFFFFFFF AND PUSH20 0xFFFFFFFFFFFFFFFFFFFFFFFFFFFFFFFFFFFFFFFF AND DUP2 MSTORE PUSH1 0x20 ADD SWAP1 DUP2 MSTORE PUSH1 0x20 ADD PUSH1 0x0 KECCAK256 SLOAD PUSH2 0x516A SWAP1 SWAP3 SWAP2 SWAP1 PUSH4 0xFFFFFFFF AND JUMP JUMPDEST PUSH2 0x4CB2 JUMP JUMPDEST PUSH1 0x1 SWAP1 POP SWAP4 SWAP3 POP POP POP JUMP JUMPDEST PUSH32 0x0 DUP2 JUMP JUMPDEST PUSH1 0x13 PUSH1 0x20 MSTORE DUP1 PUSH1 0x0 MSTORE PUSH1 0x40 PUSH1 0x0 KECCAK256 PUSH1 0x0 SWAP2 POP SWAP1 POP DUP1 PUSH1 0x0 ADD SLOAD SWAP1 DUP1 PUSH1 0x1 ADD SLOAD SWAP1 DUP1 PUSH1 0x2 ADD SLOAD SWAP1 POP DUP4 JUMP JUMPDEST PUSH1 0x0 PUSH1 0x13 PUSH1 0x0 DUP4 PUSH20 0xFFFFFFFFFFFFFFFFFFFFFFFFFFFFFFFFFFFFFFFF AND PUSH20 0xFFFFFFFFFFFFFFFFFFFFFFFFFFFFFFFFFFFFFFFF AND DUP2 MSTORE PUSH1 0x20 ADD SWAP1 DUP2 MSTORE PUSH1 0x20 ADD PUSH1 0x0 KECCAK256 PUSH1 0x2 ADD SLOAD SWAP1 POP SWAP2 SWAP1 POP JUMP JUMPDEST PUSH1 0x0 PUSH1 0x5 PUSH1 0x0 SWAP1 SLOAD SWAP1 PUSH2 0x100 EXP SWAP1 DIV PUSH1 0xFF AND SWAP1 POP SWAP1 JUMP JUMPDEST PUSH1 0x16 PUSH1 0x14 SWAP1 SLOAD SWAP1 PUSH2 0x100 EXP SWAP1 DIV PUSH1 0xFF AND DUP2 JUMP JUMPDEST PUSH1 0x0 PUSH2 0x1774 PUSH2 0x16D8 PUSH2 0x4CAA JUMP JUMPDEST DUP5 PUSH2 0x176F DUP6 PUSH1 0x1 PUSH1 0x0 PUSH2 0x16E9 PUSH2 0x4CAA JUMP JUMPDEST PUSH20 0xFFFFFFFFFFFFFFFFFFFFFFFFFFFFFFFFFFFFFFFF AND PUSH20 0xFFFFFFFFFFFFFFFFFFFFFFFFFFFFFFFFFFFFFFFF AND DUP2 MSTORE PUSH1 0x20 ADD SWAP1 DUP2 MSTORE PUSH1 0x20 ADD PUSH1 0x0 KECCAK256 PUSH1 0x0 DUP10 PUSH20 0xFFFFFFFFFFFFFFFFFFFFFFFFFFFFFFFFFFFFFFFF AND PUSH20 0xFFFFFFFFFFFFFFFFFFFFFFFFFFFFFFFFFFFFFFFF AND DUP2 MSTORE PUSH1 0x20 ADD SWAP1 DUP2 MSTORE PUSH1 0x20 ADD PUSH1 0x0 KECCAK256 SLOAD PUSH2 0x5224 SWAP1 SWAP2 SWAP1 PUSH4 0xFFFFFFFF AND JUMP JUMPDEST PUSH2 0x4CB2 JUMP JUMPDEST PUSH1 0x1 SWAP1 POP SWAP3 SWAP2 POP POP JUMP JUMPDEST PUSH2 0x1786 PUSH2 0x4CAA JUMP JUMPDEST PUSH20 0xFFFFFFFFFFFFFFFFFFFFFFFFFFFFFFFFFFFFFFFF AND PUSH2 0x17A4 PUSH2 0x318A JUMP JUMPDEST PUSH20 0xFFFFFFFFFFFFFFFFFFFFFFFFFFFFFFFFFFFFFFFF AND EQ PUSH2 0x182D JUMPI PUSH1 0x40 MLOAD PUSH32 0x8C379A000000000000000000000000000000000000000000000000000000000 DUP2 MSTORE PUSH1 0x4 ADD DUP1 DUP1 PUSH1 0x20 ADD DUP3 DUP2 SUB DUP3 MSTORE PUSH1 0x20 DUP2 MSTORE PUSH1 0x20 ADD DUP1 PUSH32 0x4F776E61626C653A2063616C6C6572206973206E6F7420746865206F776E6572 DUP2 MSTORE POP PUSH1 0x20 ADD SWAP2 POP POP PUSH1 0x40 MLOAD DUP1 SWAP2 SUB SWAP1 REVERT JUMPDEST PUSH2 0x1835 PUSH2 0x52AC JUMP JUMPDEST PUSH1 0x0 PUSH20 0xFFFFFFFFFFFFFFFFFFFFFFFFFFFFFFFFFFFFFFFF AND DUP3 PUSH20 0xFFFFFFFFFFFFFFFFFFFFFFFFFFFFFFFFFFFFFFFF AND EQ ISZERO PUSH2 0x18D8 JUMPI PUSH1 0x40 MLOAD PUSH32 0x8C379A000000000000000000000000000000000000000000000000000000000 DUP2 MSTORE PUSH1 0x4 ADD DUP1 DUP1 PUSH1 0x20 ADD DUP3 DUP2 SUB DUP3 MSTORE PUSH1 0xF DUP2 MSTORE PUSH1 0x20 ADD DUP1 PUSH32 0x696E76616C696420616464726573730000000000000000000000000000000000 DUP2 MSTORE POP PUSH1 0x20 ADD SWAP2 POP POP PUSH1 0x40 MLOAD DUP1 SWAP2 SUB SWAP1 REVERT JUMPDEST PUSH1 0x0 DUP2 GT PUSH2 0x194E JUMPI PUSH1 0x40 MLOAD PUSH32 0x8C379A000000000000000000000000000000000000000000000000000000000 DUP2 MSTORE PUSH1 0x4 ADD DUP1 DUP1 PUSH1 0x20 ADD DUP3 DUP2 SUB DUP3 MSTORE PUSH1 0x15 DUP2 MSTORE PUSH1 0x20 ADD DUP1 PUSH32 0x546F6B656E20707269636520746F206265203E20300000000000000000000000 DUP2 MSTORE POP PUSH1 0x20 ADD SWAP2 POP POP PUSH1 0x40 MLOAD DUP1 SWAP2 SUB SWAP1 REVERT JUMPDEST DUP2 PUSH1 0x16 PUSH1 0x0 PUSH2 0x100 EXP DUP2 SLOAD DUP2 PUSH20 0xFFFFFFFFFFFFFFFFFFFFFFFFFFFFFFFFFFFFFFFF MUL NOT AND SWAP1 DUP4 PUSH20 0xFFFFFFFFFFFFFFFFFFFFFFFFFFFFFFFFFFFFFFFF AND MUL OR SWAP1 SSTORE POP DUP1 PUSH1 0x15 DUP2 SWAP1 SSTORE POP DUP2 PUSH20 0xFFFFFFFFFFFFFFFFFFFFFFFFFFFFFFFFFFFFFFFF AND PUSH4 0x95D89B41 PUSH1 0x40 MLOAD DUP2 PUSH4 0xFFFFFFFF AND PUSH1 0xE0 SHL DUP2 MSTORE PUSH1 0x4 ADD PUSH1 0x0 PUSH1 0x40 MLOAD DUP1 DUP4 SUB DUP2 DUP7 DUP1 EXTCODESIZE ISZERO DUP1 ISZERO PUSH2 0x19DC JUMPI PUSH1 0x0 DUP1 REVERT JUMPDEST POP GAS STATICCALL ISZERO DUP1 ISZERO PUSH2 0x19F0 JUMPI RETURNDATASIZE PUSH1 0x0 DUP1 RETURNDATACOPY RETURNDATASIZE PUSH1 0x0 REVERT JUMPDEST POP POP POP POP PUSH1 0x40 MLOAD RETURNDATASIZE PUSH1 0x0 DUP3 RETURNDATACOPY RETURNDATASIZE PUSH1 0x1F NOT PUSH1 0x1F DUP3 ADD AND DUP3 ADD DUP1 PUSH1 0x40 MSTORE POP PUSH1 0x20 DUP2 LT ISZERO PUSH2 0x1A1A JUMPI PUSH1 0x0 DUP1 REVERT JUMPDEST DUP2 ADD SWAP1 DUP1 DUP1 MLOAD PUSH1 0x40 MLOAD SWAP4 SWAP3 SWAP2 SWAP1 DUP5 PUSH5 0x100000000 DUP3 GT ISZERO PUSH2 0x1A3A JUMPI PUSH1 0x0 DUP1 REVERT JUMPDEST DUP4 DUP3 ADD SWAP2 POP PUSH1 0x20 DUP3 ADD DUP6 DUP2 GT ISZERO PUSH2 0x1A50 JUMPI PUSH1 0x0 DUP1 REVERT JUMPDEST DUP3 MLOAD DUP7 PUSH1 0x1 DUP3 MUL DUP4 ADD GT PUSH5 0x100000000 DUP3 GT OR ISZERO PUSH2 0x1A6D JUMPI PUSH1 0x0 DUP1 REVERT JUMPDEST DUP1 DUP4 MSTORE PUSH1 0x20 DUP4 ADD SWAP3 POP POP POP SWAP1 DUP1 MLOAD SWAP1 PUSH1 0x20 ADD SWAP1 DUP1 DUP4 DUP4 PUSH1 0x0 JUMPDEST DUP4 DUP2 LT ISZERO PUSH2 0x1AA1 JUMPI DUP1 DUP3 ADD MLOAD DUP2 DUP5 ADD MSTORE PUSH1 0x20 DUP2 ADD SWAP1 POP PUSH2 0x1A86 JUMP JUMPDEST POP POP POP POP SWAP1 POP SWAP1 DUP2 ADD SWAP1 PUSH1 0x1F AND DUP1 ISZERO PUSH2 0x1ACE JUMPI DUP1 DUP3 SUB DUP1 MLOAD PUSH1 0x1 DUP4 PUSH1 0x20 SUB PUSH2 0x100 EXP SUB NOT AND DUP2 MSTORE PUSH1 0x20 ADD SWAP2 POP JUMPDEST POP PUSH1 0x40 MSTORE POP POP POP PUSH1 0x14 SWAP1 DUP1 MLOAD SWAP1 PUSH1 0x20 ADD SWAP1 PUSH2 0x1AEA SWAP3 SWAP2 SWAP1 PUSH2 0x5C4B JUMP JUMPDEST POP PUSH32 0xB689C1125FD81041726A3B1B880E05C418BF6DC13562D346EBED9317CBADD6F DUP3 PUSH1 0x14 DUP4 PUSH1 0x40 MLOAD DUP1 DUP5 PUSH20 0xFFFFFFFFFFFFFFFFFFFFFFFFFFFFFFFFFFFFFFFF AND DUP2 MSTORE PUSH1 0x20 ADD DUP1 PUSH1 0x20 ADD DUP4 DUP2 MSTORE PUSH1 0x20 ADD DUP3 DUP2 SUB DUP3 MSTORE DUP5 DUP2 DUP2 SLOAD PUSH1 0x1 DUP2 PUSH1 0x1 AND ISZERO PUSH2 0x100 MUL SUB AND PUSH1 0x2 SWAP1 DIV DUP2 MSTORE PUSH1 0x20 ADD SWAP2 POP DUP1 SLOAD PUSH1 0x1 DUP2 PUSH1 0x1 AND ISZERO PUSH2 0x100 MUL SUB AND PUSH1 0x2 SWAP1 DIV DUP1 ISZERO PUSH2 0x1BBB JUMPI DUP1 PUSH1 0x1F LT PUSH2 0x1B90 JUMPI PUSH2 0x100 DUP1 DUP4 SLOAD DIV MUL DUP4 MSTORE SWAP2 PUSH1 0x20 ADD SWAP2 PUSH2 0x1BBB JUMP JUMPDEST DUP3 ADD SWAP2 SWAP1 PUSH1 0x0 MSTORE PUSH1 0x20 PUSH1 0x0 KECCAK256 SWAP1 JUMPDEST DUP2 SLOAD DUP2 MSTORE SWAP1 PUSH1 0x1 ADD SWAP1 PUSH1 0x20 ADD DUP1 DUP4 GT PUSH2 0x1B9E JUMPI DUP3 SWAP1 SUB PUSH1 0x1F AND DUP3 ADD SWAP2 JUMPDEST POP POP SWAP5 POP POP POP POP POP PUSH1 0x40 MLOAD DUP1 SWAP2 SUB SWAP1 LOG1 POP POP JUMP JUMPDEST PUSH1 0x14 DUP1 SLOAD PUSH1 0x1 DUP2 PUSH1 0x1 AND ISZERO PUSH2 0x100 MUL SUB AND PUSH1 0x2 SWAP1 DIV DUP1 PUSH1 0x1F ADD PUSH1 0x20 DUP1 SWAP2 DIV MUL PUSH1 0x20 ADD PUSH1 0x40 MLOAD SWAP1 DUP2 ADD PUSH1 0x40 MSTORE DUP1 SWAP3 SWAP2 SWAP1 DUP2 DUP2 MSTORE PUSH1 0x20 ADD DUP3 DUP1 SLOAD PUSH1 0x1 DUP2 PUSH1 0x1 AND ISZERO PUSH2 0x100 MUL SUB AND PUSH1 0x2 SWAP1 DIV DUP1 ISZERO PUSH2 0x1C65 JUMPI DUP1 PUSH1 0x1F LT PUSH2 0x1C3A JUMPI PUSH2 0x100 DUP1 DUP4 SLOAD DIV MUL DUP4 MSTORE SWAP2 PUSH1 0x20 ADD SWAP2 PUSH2 0x1C65 JUMP JUMPDEST DUP3 ADD SWAP2 SWAP1 PUSH1 0x0 MSTORE PUSH1 0x20 PUSH1 0x0 KECCAK256 SWAP1 JUMPDEST DUP2 SLOAD DUP2 MSTORE SWAP1 PUSH1 0x1 ADD SWAP1 PUSH1 0x20 ADD DUP1 DUP4 GT PUSH2 0x1C48 JUMPI DUP3 SWAP1 SUB PUSH1 0x1F AND DUP3 ADD SWAP2 JUMPDEST POP POP POP POP POP DUP2 JUMP JUMPDEST PUSH2 0x1C75 PUSH2 0x14A3 JUMP JUMPDEST PUSH1 0x16 PUSH1 0x14 SWAP1 SLOAD SWAP1 PUSH2 0x100 EXP SWAP1 DIV PUSH1 0xFF AND PUSH2 0x1CF7 JUMPI PUSH1 0x40 MLOAD PUSH32 0x8C379A000000000000000000000000000000000000000000000000000000000 DUP2 MSTORE PUSH1 0x4 ADD DUP1 DUP1 PUSH1 0x20 ADD DUP3 DUP2 SUB DUP3 MSTORE PUSH1 0x16 DUP2 MSTORE PUSH1 0x20 ADD DUP1 PUSH32 0x46756E6472616973696E67206E6F742061637469766500000000000000000000 DUP2 MSTORE POP PUSH1 0x20 ADD SWAP2 POP POP PUSH1 0x40 MLOAD DUP1 SWAP2 SUB SWAP1 REVERT JUMPDEST PUSH2 0x1CFF PUSH2 0x52AC JUMP JUMPDEST PUSH1 0x0 PUSH2 0x1E09 PUSH2 0x1DC1 PUSH1 0x16 PUSH1 0x0 SWAP1 SLOAD SWAP1 PUSH2 0x100 EXP SWAP1 DIV PUSH20 0xFFFFFFFFFFFFFFFFFFFFFFFFFFFFFFFFFFFFFFFF AND PUSH20 0xFFFFFFFFFFFFFFFFFFFFFFFFFFFFFFFFFFFFFFFF AND PUSH4 0x313CE567 PUSH1 0x40 MLOAD DUP2 PUSH4 0xFFFFFFFF AND PUSH1 0xE0 SHL DUP2 MSTORE PUSH1 0x4 ADD PUSH1 0x20 PUSH1 0x40 MLOAD DUP1 DUP4 SUB DUP2 DUP7 DUP1 EXTCODESIZE ISZERO DUP1 ISZERO PUSH2 0x1D6F JUMPI PUSH1 0x0 DUP1 REVERT JUMPDEST POP GAS STATICCALL ISZERO DUP1 ISZERO PUSH2 0x1D83 JUMPI RETURNDATASIZE PUSH1 0x0 DUP1 RETURNDATACOPY RETURNDATASIZE PUSH1 0x0 REVERT JUMPDEST POP POP POP POP PUSH1 0x40 MLOAD RETURNDATASIZE PUSH1 0x20 DUP2 LT ISZERO PUSH2 0x1D99 JUMPI PUSH1 0x0 DUP1 REVERT JUMPDEST DUP2 ADD SWAP1 DUP1 DUP1 MLOAD SWAP1 PUSH1 0x20 ADD SWAP1 SWAP3 SWAP2 SWAP1 POP POP POP PUSH1 0xFF AND PUSH1 0xA EXP PUSH1 0x15 SLOAD PUSH2 0x54B5 SWAP1 SWAP2 SWAP1 PUSH4 0xFFFFFFFF AND JUMP JUMPDEST PUSH2 0x1DFB PUSH8 0xDE0B6B3A7640000 PUSH2 0x1DED PUSH2 0x1DD8 PUSH2 0x16A1 JUMP JUMPDEST PUSH1 0xFF AND PUSH1 0xA EXP DUP8 PUSH2 0x54B5 SWAP1 SWAP2 SWAP1 PUSH4 0xFFFFFFFF AND JUMP JUMPDEST PUSH2 0x54B5 SWAP1 SWAP2 SWAP1 PUSH4 0xFFFFFFFF AND JUMP JUMPDEST PUSH2 0x553B SWAP1 SWAP2 SWAP1 PUSH4 0xFFFFFFFF AND JUMP JUMPDEST SWAP1 POP PUSH1 0x0 CALLER SWAP1 POP PUSH1 0x0 PUSH2 0x1E1B DUP3 PUSH2 0x55C4 JUMP JUMPDEST SWAP1 POP PUSH1 0x0 PUSH2 0x1E32 DUP3 DUP6 PUSH2 0x5224 SWAP1 SWAP2 SWAP1 PUSH4 0xFFFFFFFF AND JUMP JUMPDEST SWAP1 POP PUSH2 0x1E89 DUP2 PUSH1 0x13 PUSH1 0x0 DUP7 PUSH20 0xFFFFFFFFFFFFFFFFFFFFFFFFFFFFFFFFFFFFFFFF AND PUSH20 0xFFFFFFFFFFFFFFFFFFFFFFFFFFFFFFFFFFFFFFFF AND DUP2 MSTORE PUSH1 0x20 ADD SWAP1 DUP2 MSTORE PUSH1 0x20 ADD PUSH1 0x0 KECCAK256 PUSH1 0x0 ADD SLOAD PUSH2 0x5224 SWAP1 SWAP2 SWAP1 PUSH4 0xFFFFFFFF AND JUMP JUMPDEST PUSH1 0x13 PUSH1 0x0 DUP6 PUSH20 0xFFFFFFFFFFFFFFFFFFFFFFFFFFFFFFFFFFFFFFFF AND PUSH20 0xFFFFFFFFFFFFFFFFFFFFFFFFFFFFFFFFFFFFFFFF AND DUP2 MSTORE PUSH1 0x20 ADD SWAP1 DUP2 MSTORE PUSH1 0x20 ADD PUSH1 0x0 KECCAK256 PUSH1 0x0 ADD DUP2 SWAP1 SSTORE POP PUSH32 0xAE2006C94E89F8083EFDA0C0A1D0C7D6FEF3EC90D68506AA822854F3BA31F9CF DUP4 DUP3 PUSH1 0x40 MLOAD DUP1 DUP4 PUSH20 0xFFFFFFFFFFFFFFFFFFFFFFFFFFFFFFFFFFFFFFFF AND DUP2 MSTORE PUSH1 0x20 ADD DUP3 DUP2 MSTORE PUSH1 0x20 ADD SWAP3 POP POP POP PUSH1 0x40 MLOAD DUP1 SWAP2 SUB SWAP1 LOG1 PUSH2 0x1F39 DUP2 PUSH1 0xE SLOAD PUSH2 0x5224 SWAP1 SWAP2 SWAP1 PUSH4 0xFFFFFFFF AND JUMP JUMPDEST PUSH1 0xE DUP2 SWAP1 SSTORE POP PUSH32 0x12129930C15DAD4632242378DC39162DB4C36A82482777C2E8F791D3752BB70F DUP2 PUSH1 0x40 MLOAD DUP1 DUP3 DUP2 MSTORE PUSH1 0x20 ADD SWAP2 POP POP PUSH1 0x40 MLOAD DUP1 SWAP2 SUB SWAP1 LOG1 PUSH2 0x1F8B DUP5 PUSH1 0xF SLOAD PUSH2 0x5224 SWAP1 SWAP2 SWAP1 PUSH4 0xFFFFFFFF AND JUMP JUMPDEST PUSH1 0xF DUP2 SWAP1 SSTORE POP PUSH32 0x83460F65BDB244889B764A63576252CF32E10E1A058AF241DA584C1F1610E6DB DUP5 PUSH1 0x40 MLOAD DUP1 DUP3 DUP2 MSTORE PUSH1 0x20 ADD SWAP2 POP POP PUSH1 0x40 MLOAD DUP1 SWAP2 SUB SWAP1 LOG1 PUSH32 0x0 PUSH2 0x2000 PUSH1 0xB SLOAD PUSH1 0xF SLOAD PUSH2 0x5681 SWAP1 SWAP2 SWAP1 PUSH4 0xFFFFFFFF AND JUMP JUMPDEST GT ISZERO PUSH2 0x2057 JUMPI PUSH1 0x40 MLOAD PUSH32 0x8C379A000000000000000000000000000000000000000000000000000000000 DUP2 MSTORE PUSH1 0x4 ADD DUP1 DUP1 PUSH1 0x20 ADD DUP3 DUP2 SUB DUP3 MSTORE PUSH1 0x25 DUP2 MSTORE PUSH1 0x20 ADD DUP1 PUSH2 0x5DAA PUSH1 0x25 SWAP2 CODECOPY PUSH1 0x40 ADD SWAP2 POP POP PUSH1 0x40 MLOAD DUP1 SWAP2 SUB SWAP1 REVERT JUMPDEST PUSH2 0x2061 ADDRESS DUP6 PUSH2 0x5704 JUMP JUMPDEST PUSH1 0x0 PUSH2 0x208B PUSH2 0x3E8 PUSH2 0x207D PUSH1 0xA DUP10 PUSH2 0x54B5 SWAP1 SWAP2 SWAP1 PUSH4 0xFFFFFFFF AND JUMP JUMPDEST PUSH2 0x553B SWAP1 SWAP2 SWAP1 PUSH4 0xFFFFFFFF AND JUMP JUMPDEST SWAP1 POP PUSH1 0x16 PUSH1 0x0 SWAP1 SLOAD SWAP1 PUSH2 0x100 EXP SWAP1 DIV PUSH20 0xFFFFFFFFFFFFFFFFFFFFFFFFFFFFFFFFFFFFFFFF AND PUSH20 0xFFFFFFFFFFFFFFFFFFFFFFFFFFFFFFFFFFFFFFFF AND PUSH4 0x23B872DD DUP6 ADDRESS PUSH20 0xFFFFFFFFFFFFFFFFFFFFFFFFFFFFFFFFFFFFFFFF AND PUSH4 0x8DA5CB5B PUSH1 0x40 MLOAD DUP2 PUSH4 0xFFFFFFFF AND PUSH1 0xE0 SHL DUP2 MSTORE PUSH1 0x4 ADD PUSH1 0x20 PUSH1 0x40 MLOAD DUP1 DUP4 SUB DUP2 DUP7 DUP1 EXTCODESIZE ISZERO DUP1 ISZERO PUSH2 0x2112 JUMPI PUSH1 0x0 DUP1 REVERT JUMPDEST POP GAS STATICCALL ISZERO DUP1 ISZERO PUSH2 0x2126 JUMPI RETURNDATASIZE PUSH1 0x0 DUP1 RETURNDATACOPY RETURNDATASIZE PUSH1 0x0 REVERT JUMPDEST POP POP POP POP PUSH1 0x40 MLOAD RETURNDATASIZE PUSH1 0x20 DUP2 LT ISZERO PUSH2 0x213C JUMPI PUSH1 0x0 DUP1 REVERT JUMPDEST DUP2 ADD SWAP1 DUP1 DUP1 MLOAD SWAP1 PUSH1 0x20 ADD SWAP1 SWAP3 SWAP2 SWAP1 POP POP POP PUSH2 0x2160 DUP6 DUP12 PUSH2 0x5681 SWAP1 SWAP2 SWAP1 PUSH4 0xFFFFFFFF AND JUMP JUMPDEST PUSH1 0x40 MLOAD DUP5 PUSH4 0xFFFFFFFF AND PUSH1 0xE0 SHL DUP2 MSTORE PUSH1 0x4 ADD DUP1 DUP5 PUSH20 0xFFFFFFFFFFFFFFFFFFFFFFFFFFFFFFFFFFFFFFFF AND DUP2 MSTORE PUSH1 0x20 ADD DUP4 PUSH20 0xFFFFFFFFFFFFFFFFFFFFFFFFFFFFFFFFFFFFFFFF AND DUP2 MSTORE PUSH1 0x20 ADD DUP3 DUP2 MSTORE PUSH1 0x20 ADD SWAP4 POP POP POP POP PUSH1 0x20 PUSH1 0x40 MLOAD DUP1 DUP4 SUB DUP2 PUSH1 0x0 DUP8 DUP1 EXTCODESIZE ISZERO DUP1 ISZERO PUSH2 0x21D0 JUMPI PUSH1 0x0 DUP1 REVERT JUMPDEST POP GAS CALL ISZERO DUP1 ISZERO PUSH2 0x21E4 JUMPI RETURNDATASIZE PUSH1 0x0 DUP1 RETURNDATACOPY RETURNDATASIZE PUSH1 0x0 REVERT JUMPDEST POP POP POP POP PUSH1 0x40 MLOAD RETURNDATASIZE PUSH1 0x20 DUP2 LT ISZERO PUSH2 0x21FA JUMPI PUSH1 0x0 DUP1 REVERT JUMPDEST DUP2 ADD SWAP1 DUP1 DUP1 MLOAD SWAP1 PUSH1 0x20 ADD SWAP1 SWAP3 SWAP2 SWAP1 POP POP POP POP PUSH1 0x16 PUSH1 0x0 SWAP1 SLOAD SWAP1 PUSH2 0x100 EXP SWAP1 DIV PUSH20 0xFFFFFFFFFFFFFFFFFFFFFFFFFFFFFFFFFFFFFFFF AND PUSH20 0xFFFFFFFFFFFFFFFFFFFFFFFFFFFFFFFFFFFFFFFF AND PUSH4 0x23B872DD DUP6 PUSH20 0x125F80BB66D00E87129DB92EF6473D34D5448360 DUP5 PUSH1 0x40 MLOAD DUP5 PUSH4 0xFFFFFFFF AND PUSH1 0xE0 SHL DUP2 MSTORE PUSH1 0x4 ADD DUP1 DUP5 PUSH20 0xFFFFFFFFFFFFFFFFFFFFFFFFFFFFFFFFFFFFFFFF AND DUP2 MSTORE PUSH1 0x20 ADD DUP4 PUSH20 0xFFFFFFFFFFFFFFFFFFFFFFFFFFFFFFFFFFFFFFFF AND DUP2 MSTORE PUSH1 0x20 ADD DUP3 DUP2 MSTORE PUSH1 0x20 ADD SWAP4 POP POP POP POP PUSH1 0x20 PUSH1 0x40 MLOAD DUP1 DUP4 SUB DUP2 PUSH1 0x0 DUP8 DUP1 EXTCODESIZE ISZERO DUP1 ISZERO PUSH2 0x22D1 JUMPI PUSH1 0x0 DUP1 REVERT JUMPDEST POP GAS CALL ISZERO DUP1 ISZERO PUSH2 0x22E5 JUMPI RETURNDATASIZE PUSH1 0x0 DUP1 RETURNDATACOPY RETURNDATASIZE PUSH1 0x0 REVERT JUMPDEST POP POP POP POP PUSH1 0x40 MLOAD RETURNDATASIZE PUSH1 0x20 DUP2 LT ISZERO PUSH2 0x22FB JUMPI PUSH1 0x0 DUP1 REVERT JUMPDEST DUP2 ADD SWAP1 DUP1 DUP1 MLOAD SWAP1 PUSH1 0x20 ADD SWAP1 SWAP3 SWAP2 SWAP1 POP POP POP POP PUSH32 0xDA0B1409DB59C0FA65C11DB0AA894038350BD1EF7DD9949E74F8CD305F1AD9B0 DUP5 DUP7 DUP9 DUP5 PUSH1 0x40 MLOAD DUP1 DUP6 PUSH20 0xFFFFFFFFFFFFFFFFFFFFFFFFFFFFFFFFFFFFFFFF AND DUP2 MSTORE PUSH1 0x20 ADD DUP5 DUP2 MSTORE PUSH1 0x20 ADD DUP4 DUP2 MSTORE PUSH1 0x20 ADD DUP3 DUP2 MSTORE PUSH1 0x20 ADD SWAP5 POP POP POP POP POP PUSH1 0x40 MLOAD DUP1 SWAP2 SUB SWAP1 LOG1 POP POP POP POP POP POP JUMP JUMPDEST PUSH1 0x6 PUSH1 0x0 SWAP1 SLOAD SWAP1 PUSH2 0x100 EXP SWAP1 DIV PUSH20 0xFFFFFFFFFFFFFFFFFFFFFFFFFFFFFFFFFFFFFFFF AND DUP2 JUMP JUMPDEST PUSH32 0x0 DUP2 JUMP JUMPDEST PUSH2 0x23CC PUSH2 0x14A3 JUMP JUMPDEST PUSH1 0x13 PUSH1 0x0 CALLER PUSH20 0xFFFFFFFFFFFFFFFFFFFFFFFFFFFFFFFFFFFFFFFF AND PUSH20 0xFFFFFFFFFFFFFFFFFFFFFFFFFFFFFFFFFFFFFFFF AND DUP2 MSTORE PUSH1 0x20 ADD SWAP1 DUP2 MSTORE PUSH1 0x20 ADD PUSH1 0x0 KECCAK256 PUSH1 0x0 ADD SLOAD DUP2 GT ISZERO PUSH2 0x2484 JUMPI PUSH1 0x40 MLOAD PUSH32 0x8C379A000000000000000000000000000000000000000000000000000000000 DUP2 MSTORE PUSH1 0x4 ADD DUP1 DUP1 PUSH1 0x20 ADD DUP3 DUP2 SUB DUP3 MSTORE PUSH1 0x14 DUP2 MSTORE PUSH1 0x20 ADD DUP1 PUSH32 0x496E73756666696369656E742062616C616E6365000000000000000000000000 DUP2 MSTORE POP PUSH1 0x20 ADD SWAP2 POP POP PUSH1 0x40 MLOAD DUP1 SWAP2 SUB SWAP1 REVERT JUMPDEST PUSH1 0x0 PUSH2 0x248F CALLER PUSH2 0x55C4 JUMP JUMPDEST SWAP1 POP PUSH1 0x0 PUSH2 0x24E8 DUP4 PUSH1 0x13 PUSH1 0x0 CALLER PUSH20 0xFFFFFFFFFFFFFFFFFFFFFFFFFFFFFFFFFFFFFFFF AND PUSH20 0xFFFFFFFFFFFFFFFFFFFFFFFFFFFFFFFFFFFFFFFF AND DUP2 MSTORE PUSH1 0x20 ADD SWAP1 DUP2 MSTORE PUSH1 0x20 ADD PUSH1 0x0 KECCAK256 PUSH1 0x0 ADD SLOAD PUSH2 0x5681 SWAP1 SWAP2 SWAP1 PUSH4 0xFFFFFFFF AND JUMP JUMPDEST PUSH1 0x13 PUSH1 0x0 CALLER PUSH20 0xFFFFFFFFFFFFFFFFFFFFFFFFFFFFFFFFFFFFFFFF AND PUSH20 0xFFFFFFFFFFFFFFFFFFFFFFFFFFFFFFFFFFFFFFFF AND DUP2 MSTORE PUSH1 0x20 ADD SWAP1 DUP2 MSTORE PUSH1 0x20 ADD PUSH1 0x0 KECCAK256 PUSH1 0x0 ADD DUP2 SWAP1 SSTORE POP PUSH2 0x2543 DUP4 PUSH1 0xE SLOAD PUSH2 0x5681 SWAP1 SWAP2 SWAP1 PUSH4 0xFFFFFFFF AND JUMP JUMPDEST PUSH1 0xE DUP2 SWAP1 SSTORE POP PUSH31 0x27B57DD0F4617EB13B9347DC92A2C7404C6BCDB2349863C760672BDA494807 CALLER DUP5 PUSH1 0x40 MLOAD DUP1 DUP4 PUSH20 0xFFFFFFFFFFFFFFFFFFFFFFFFFFFFFFFFFFFFFFFF AND DUP2 MSTORE PUSH1 0x20 ADD DUP3 DUP2 MSTORE PUSH1 0x20 ADD SWAP3 POP POP POP PUSH1 0x40 MLOAD DUP1 SWAP2 SUB SWAP1 LOG1 PUSH1 0x0 PUSH1 0xE SLOAD GT ISZERO PUSH2 0x25D4 JUMPI PUSH2 0x25D1 PUSH2 0x3E8 PUSH2 0x25C3 PUSH1 0x10 SLOAD DUP7 PUSH2 0x54B5 SWAP1 SWAP2 SWAP1 PUSH4 0xFFFFFFFF AND JUMP JUMPDEST PUSH2 0x553B SWAP1 SWAP2 SWAP1 PUSH4 0xFFFFFFFF AND JUMP JUMPDEST SWAP1 POP JUMPDEST PUSH1 0x0 PUSH2 0x25FB DUP3 PUSH2 0x25ED DUP6 DUP8 PUSH2 0x5224 SWAP1 SWAP2 SWAP1 PUSH4 0xFFFFFFFF AND JUMP JUMPDEST PUSH2 0x5681 SWAP1 SWAP2 SWAP1 PUSH4 0xFFFFFFFF AND JUMP JUMPDEST SWAP1 POP PUSH2 0x2608 ADDRESS CALLER DUP4 PUSH2 0x4EA9 JUMP JUMPDEST PUSH1 0x0 PUSH2 0x2633 PUSH2 0x3E8 PUSH2 0x2625 PUSH1 0xC SLOAD DUP7 PUSH2 0x54B5 SWAP1 SWAP2 SWAP1 PUSH4 0xFFFFFFFF AND JUMP JUMPDEST PUSH2 0x553B SWAP1 SWAP2 SWAP1 PUSH4 0xFFFFFFFF AND JUMP JUMPDEST SWAP1 POP PUSH2 0x26D2 ADDRESS ADDRESS PUSH20 0xFFFFFFFFFFFFFFFFFFFFFFFFFFFFFFFFFFFFFFFF AND PUSH4 0x8DA5CB5B PUSH1 0x40 MLOAD DUP2 PUSH4 0xFFFFFFFF AND PUSH1 0xE0 SHL DUP2 MSTORE PUSH1 0x4 ADD PUSH1 0x20 PUSH1 0x40 MLOAD DUP1 DUP4 SUB DUP2 DUP7 DUP1 EXTCODESIZE ISZERO DUP1 ISZERO PUSH2 0x267F JUMPI PUSH1 0x0 DUP1 REVERT JUMPDEST POP GAS STATICCALL ISZERO DUP1 ISZERO PUSH2 0x2693 JUMPI RETURNDATASIZE PUSH1 0x0 DUP1 RETURNDATACOPY RETURNDATASIZE PUSH1 0x0 REVERT JUMPDEST POP POP POP POP PUSH1 0x40 MLOAD RETURNDATASIZE PUSH1 0x20 DUP2 LT ISZERO PUSH2 0x26A9 JUMPI PUSH1 0x0 DUP1 REVERT JUMPDEST DUP2 ADD SWAP1 DUP1 DUP1 MLOAD SWAP1 PUSH1 0x20 ADD SWAP1 SWAP3 SWAP2 SWAP1 POP POP POP PUSH2 0x26CD DUP5 DUP8 PUSH2 0x5681 SWAP1 SWAP2 SWAP1 PUSH4 0xFFFFFFFF AND JUMP JUMPDEST PUSH2 0x4EA9 JUMP JUMPDEST PUSH1 0x0 DUP2 GT ISZERO PUSH2 0x26E5 JUMPI PUSH2 0x26E4 DUP2 PUSH2 0x58CB JUMP JUMPDEST JUMPDEST PUSH32 0x33EF926B7771DF44FD5BF5A690410374540AA634051AF1E3A6DD2F67C94A18F1 CALLER DUP4 DUP6 DUP5 DUP9 PUSH1 0x40 MLOAD DUP1 DUP7 PUSH20 0xFFFFFFFFFFFFFFFFFFFFFFFFFFFFFFFFFFFFFFFF AND DUP2 MSTORE PUSH1 0x20 ADD DUP6 DUP2 MSTORE PUSH1 0x20 ADD DUP5 DUP2 MSTORE PUSH1 0x20 ADD DUP4 DUP2 MSTORE PUSH1 0x20 ADD DUP3 DUP2 MSTORE PUSH1 0x20 ADD SWAP6 POP POP POP POP POP POP PUSH1 0x40 MLOAD DUP1 SWAP2 SUB SWAP1 LOG1 POP POP POP POP POP JUMP JUMPDEST PUSH1 0x16 PUSH1 0x0 SWAP1 SLOAD SWAP1 PUSH2 0x100 EXP SWAP1 DIV PUSH20 0xFFFFFFFFFFFFFFFFFFFFFFFFFFFFFFFFFFFFFFFF AND DUP2 JUMP JUMPDEST PUSH2 0x2787 PUSH2 0x4CAA JUMP JUMPDEST PUSH20 0xFFFFFFFFFFFFFFFFFFFFFFFFFFFFFFFFFFFFFFFF AND PUSH2 0x27A5 PUSH2 0x318A JUMP JUMPDEST PUSH20 0xFFFFFFFFFFFFFFFFFFFFFFFFFFFFFFFFFFFFFFFF AND EQ PUSH2 0x282E JUMPI PUSH1 0x40 MLOAD PUSH32 0x8C379A000000000000000000000000000000000000000000000000000000000 DUP2 MSTORE PUSH1 0x4 ADD DUP1 DUP1 PUSH1 0x20 ADD DUP3 DUP2 SUB DUP3 MSTORE PUSH1 0x20 DUP2 MSTORE PUSH1 0x20 ADD DUP1 PUSH32 0x4F776E61626C653A2063616C6C6572206973206E6F7420746865206F776E6572 DUP2 MSTORE POP PUSH1 0x20 ADD SWAP2 POP POP PUSH1 0x40 MLOAD DUP1 SWAP2 SUB SWAP1 REVERT JUMPDEST PUSH1 0x1 PUSH1 0x11 PUSH1 0x1 PUSH2 0x100 EXP DUP2 SLOAD DUP2 PUSH1 0xFF MUL NOT AND SWAP1 DUP4 ISZERO ISZERO MUL OR SWAP1 SSTORE POP PUSH32 0xB72C13E7FE7B7C2AC9E1B8CA3F0F5CB08BD8CA2B1C556FBF9B45C95A15A53543 PUSH1 0x40 MLOAD PUSH1 0x40 MLOAD DUP1 SWAP2 SUB SWAP1 LOG1 JUMP JUMPDEST PUSH1 0x11 PUSH1 0x0 SWAP1 SLOAD SWAP1 PUSH2 0x100 EXP SWAP1 DIV PUSH1 0xFF AND DUP2 JUMP JUMPDEST PUSH1 0xF SLOAD DUP2 JUMP JUMPDEST PUSH1 0x9 SLOAD DUP2 JUMP JUMPDEST PUSH2 0x289E PUSH2 0x5954 JUMP JUMPDEST PUSH2 0x28A8 ADDRESS DUP3 PUSH2 0x5A19 JUMP JUMPDEST POP JUMP JUMPDEST PUSH1 0x0 DUP1 PUSH1 0x0 DUP4 PUSH20 0xFFFFFFFFFFFFFFFFFFFFFFFFFFFFFFFFFFFFFFFF AND PUSH20 0xFFFFFFFFFFFFFFFFFFFFFFFFFFFFFFFFFFFFFFFF AND DUP2 MSTORE PUSH1 0x20 ADD SWAP1 DUP2 MSTORE PUSH1 0x20 ADD PUSH1 0x0 KECCAK256 SLOAD SWAP1 POP SWAP2 SWAP1 POP JUMP JUMPDEST PUSH2 0x28FB PUSH2 0x4CAA JUMP JUMPDEST PUSH20 0xFFFFFFFFFFFFFFFFFFFFFFFFFFFFFFFFFFFFFFFF AND PUSH2 0x2919 PUSH2 0x318A JUMP JUMPDEST PUSH20 0xFFFFFFFFFFFFFFFFFFFFFFFFFFFFFFFFFFFFFFFF AND EQ PUSH2 0x29A2 JUMPI PUSH1 0x40 MLOAD PUSH32 0x8C379A000000000000000000000000000000000000000000000000000000000 DUP2 MSTORE PUSH1 0x4 ADD DUP1 DUP1 PUSH1 0x20 ADD DUP3 DUP2 SUB DUP3 MSTORE PUSH1 0x20 DUP2 MSTORE PUSH1 0x20 ADD DUP1 PUSH32 0x4F776E61626C653A2063616C6C6572206973206E6F7420746865206F776E6572 DUP2 MSTORE POP PUSH1 0x20 ADD SWAP2 POP POP PUSH1 0x40 MLOAD DUP1 SWAP2 SUB SWAP1 REVERT JUMPDEST PUSH1 0x0 PUSH20 0xFFFFFFFFFFFFFFFFFFFFFFFFFFFFFFFFFFFFFFFF AND PUSH1 0x5 PUSH1 0x1 SWAP1 SLOAD SWAP1 PUSH2 0x100 EXP SWAP1 DIV PUSH20 0xFFFFFFFFFFFFFFFFFFFFFFFFFFFFFFFFFFFFFFFF AND PUSH20 0xFFFFFFFFFFFFFFFFFFFFFFFFFFFFFFFFFFFFFFFF AND PUSH32 0x8BE0079C531659141344CD1FD0A4F28419497F9722A3DAAFE3B4186F6B6457E0 PUSH1 0x40 MLOAD PUSH1 0x40 MLOAD DUP1 SWAP2 SUB SWAP1 LOG3 PUSH1 0x0 PUSH1 0x5 PUSH1 0x1 PUSH2 0x100 EXP DUP2 SLOAD DUP2 PUSH20 0xFFFFFFFFFFFFFFFFFFFFFFFFFFFFFFFFFFFFFFFF MUL NOT AND SWAP1 DUP4 PUSH20 0xFFFFFFFFFFFFFFFFFFFFFFFFFFFFFFFFFFFFFFFF AND MUL OR SWAP1 SSTORE POP JUMP JUMPDEST PUSH2 0x2A6B PUSH2 0x4CAA JUMP JUMPDEST PUSH20 0xFFFFFFFFFFFFFFFFFFFFFFFFFFFFFFFFFFFFFFFF AND PUSH2 0x2A89 PUSH2 0x318A JUMP JUMPDEST PUSH20 0xFFFFFFFFFFFFFFFFFFFFFFFFFFFFFFFFFFFFFFFF AND EQ PUSH2 0x2B12 JUMPI PUSH1 0x40 MLOAD PUSH32 0x8C379A000000000000000000000000000000000000000000000000000000000 DUP2 MSTORE PUSH1 0x4 ADD DUP1 DUP1 PUSH1 0x20 ADD DUP3 DUP2 SUB DUP3 MSTORE PUSH1 0x20 DUP2 MSTORE PUSH1 0x20 ADD DUP1 PUSH32 0x4F776E61626C653A2063616C6C6572206973206E6F7420746865206F776E6572 DUP2 MSTORE POP PUSH1 0x20 ADD SWAP2 POP POP PUSH1 0x40 MLOAD DUP1 SWAP2 SUB SWAP1 REVERT JUMPDEST PUSH2 0x3E8 DUP2 GT ISZERO PUSH2 0x2B8A JUMPI PUSH1 0x40 MLOAD PUSH32 0x8C379A000000000000000000000000000000000000000000000000000000000 DUP2 MSTORE PUSH1 0x4 ADD DUP1 DUP1 PUSH1 0x20 ADD DUP3 DUP2 SUB DUP3 MSTORE PUSH1 0xD DUP2 MSTORE PUSH1 0x20 ADD DUP1 PUSH32 0x496E76616C69642076616C756500000000000000000000000000000000000000 DUP2 MSTORE POP PUSH1 0x20 ADD SWAP2 POP POP PUSH1 0x40 MLOAD DUP1 SWAP2 SUB SWAP1 REVERT JUMPDEST DUP1 PUSH1 0xC DUP2 SWAP1 SSTORE POP PUSH32 0x33BA6DF77B2071829F387D2122B96309CBBD439FA4B0532CFD8D5E6F7CD4DCBB DUP2 PUSH1 0x40 MLOAD DUP1 DUP3 DUP2 MSTORE PUSH1 0x20 ADD SWAP2 POP POP PUSH1 0x40 MLOAD DUP1 SWAP2 SUB SWAP1 LOG1 POP JUMP JUMPDEST PUSH2 0x2BD3 PUSH2 0x5954 JUMP JUMPDEST PUSH2 0x2C28 DUP4 PUSH1 0x13 PUSH1 0x0 DUP8 PUSH20 0xFFFFFFFFFFFFFFFFFFFFFFFFFFFFFFFFFFFFFFFF AND PUSH20 0xFFFFFFFFFFFFFFFFFFFFFFFFFFFFFFFFFFFFFFFF AND DUP2 MSTORE PUSH1 0x20 ADD SWAP1 DUP2 MSTORE PUSH1 0x20 ADD PUSH1 0x0 KECCAK256 PUSH1 0x0 ADD SLOAD PUSH2 0x5224 SWAP1 SWAP2 SWAP1 PUSH4 0xFFFFFFFF AND JUMP JUMPDEST PUSH1 0x13 PUSH1 0x0 DUP7 PUSH20 0xFFFFFFFFFFFFFFFFFFFFFFFFFFFFFFFFFFFFFFFF AND PUSH20 0xFFFFFFFFFFFFFFFFFFFFFFFFFFFFFFFFFFFFFFFF AND DUP2 MSTORE PUSH1 0x20 ADD SWAP1 DUP2 MSTORE PUSH1 0x20 ADD PUSH1 0x0 KECCAK256 PUSH1 0x0 ADD DUP2 SWAP1 SSTORE POP PUSH32 0xAE2006C94E89F8083EFDA0C0A1D0C7D6FEF3EC90D68506AA822854F3BA31F9CF DUP5 DUP5 PUSH1 0x40 MLOAD DUP1 DUP4 PUSH20 0xFFFFFFFFFFFFFFFFFFFFFFFFFFFFFFFFFFFFFFFF AND DUP2 MSTORE PUSH1 0x20 ADD DUP3 DUP2 MSTORE PUSH1 0x20 ADD SWAP3 POP POP POP PUSH1 0x40 MLOAD DUP1 SWAP2 SUB SWAP1 LOG1 PUSH2 0x2D18 DUP3 PUSH1 0x13 PUSH1 0x0 DUP8 PUSH20 0xFFFFFFFFFFFFFFFFFFFFFFFFFFFFFFFFFFFFFFFF AND PUSH20 0xFFFFFFFFFFFFFFFFFFFFFFFFFFFFFFFFFFFFFFFF AND DUP2 MSTORE PUSH1 0x20 ADD SWAP1 DUP2 MSTORE PUSH1 0x20 ADD PUSH1 0x0 KECCAK256 PUSH1 0x1 ADD SLOAD PUSH2 0x5681 SWAP1 SWAP2 SWAP1 PUSH4 0xFFFFFFFF AND JUMP JUMPDEST PUSH1 0x13 PUSH1 0x0 DUP7 PUSH20 0xFFFFFFFFFFFFFFFFFFFFFFFFFFFFFFFFFFFFFFFF AND PUSH20 0xFFFFFFFFFFFFFFFFFFFFFFFFFFFFFFFFFFFFFFFF AND DUP2 MSTORE PUSH1 0x20 ADD SWAP1 DUP2 MSTORE PUSH1 0x20 ADD PUSH1 0x0 KECCAK256 PUSH1 0x1 ADD DUP2 SWAP1 SSTORE POP PUSH32 0x7D2875641484B55002EE757B3AD03D920E7ACE29B381CFF35A357041B20D612E DUP5 DUP4 PUSH1 0x40 MLOAD DUP1 DUP4 PUSH20 0xFFFFFFFFFFFFFFFFFFFFFFFFFFFFFFFFFFFFFFFF AND DUP2 MSTORE PUSH1 0x20 ADD DUP3 DUP2 MSTORE PUSH1 0x20 ADD SWAP3 POP POP POP PUSH1 0x40 MLOAD DUP1 SWAP2 SUB SWAP1 LOG1 PUSH2 0x2DC8 DUP2 PUSH1 0xE SLOAD PUSH2 0x5224 SWAP1 SWAP2 SWAP1 PUSH4 0xFFFFFFFF AND JUMP JUMPDEST PUSH1 0xE DUP2 SWAP1 SSTORE POP PUSH32 0x12129930C15DAD4632242378DC39162DB4C36A82482777C2E8F791D3752BB70F DUP2 PUSH1 0x40 MLOAD DUP1 DUP3 DUP2 MSTORE PUSH1 0x20 ADD SWAP2 POP POP PUSH1 0x40 MLOAD DUP1 SWAP2 SUB SWAP1 LOG1 POP POP POP POP JUMP JUMPDEST PUSH1 0xC SLOAD DUP2 JUMP JUMPDEST PUSH1 0x0 PUSH1 0x13 PUSH1 0x0 DUP4 PUSH20 0xFFFFFFFFFFFFFFFFFFFFFFFFFFFFFFFFFFFFFFFF AND PUSH20 0xFFFFFFFFFFFFFFFFFFFFFFFFFFFFFFFFFFFFFFFF AND DUP2 MSTORE PUSH1 0x20 ADD SWAP1 DUP2 MSTORE PUSH1 0x20 ADD PUSH1 0x0 KECCAK256 PUSH1 0x0 ADD SLOAD SWAP1 POP SWAP2 SWAP1 POP JUMP JUMPDEST PUSH32 0x0 DUP2 JUMP JUMPDEST PUSH1 0x7 SLOAD DUP2 JUMP JUMPDEST PUSH2 0x3E8 DUP2 JUMP JUMPDEST PUSH1 0x8 SLOAD DUP2 JUMP JUMPDEST PUSH2 0x2E9B PUSH2 0x5954 JUMP JUMPDEST PUSH2 0x2EB0 DUP2 PUSH1 0xE SLOAD PUSH2 0x5681 SWAP1 SWAP2 SWAP1 PUSH4 0xFFFFFFFF AND JUMP JUMPDEST PUSH1 0xE DUP2 SWAP1 SSTORE POP TIMESTAMP PUSH1 0x13 PUSH1 0x0 DUP5 PUSH20 0xFFFFFFFFFFFFFFFFFFFFFFFFFFFFFFFFFFFFFFFF AND PUSH20 0xFFFFFFFFFFFFFFFFFFFFFFFFFFFFFFFFFFFFFFFF AND DUP2 MSTORE PUSH1 0x20 ADD SWAP1 DUP2 MSTORE PUSH1 0x20 ADD PUSH1 0x0 KECCAK256 PUSH1 0x2 ADD DUP2 SWAP1 SSTORE POP PUSH31 0x988ACFD43F666F3F315B14052086271E8CF328D38353204311E1CD514F385A TIMESTAMP DUP3 PUSH1 0x40 MLOAD DUP1 DUP4 DUP2 MSTORE PUSH1 0x20 ADD DUP3 DUP2 MSTORE PUSH1 0x20 ADD SWAP3 POP POP POP PUSH1 0x40 MLOAD DUP1 SWAP2 SUB SWAP1 LOG1 PUSH1 0x0 PUSH1 0x13 PUSH1 0x0 DUP5 PUSH20 0xFFFFFFFFFFFFFFFFFFFFFFFFFFFFFFFFFFFFFFFF AND PUSH20 0xFFFFFFFFFFFFFFFFFFFFFFFFFFFFFFFFFFFFFFFF AND DUP2 MSTORE PUSH1 0x20 ADD SWAP1 DUP2 MSTORE PUSH1 0x20 ADD PUSH1 0x0 KECCAK256 PUSH1 0x0 ADD SLOAD GT ISZERO PUSH2 0x3107 JUMPI PUSH1 0x0 PUSH2 0x301F PUSH1 0x13 PUSH1 0x0 DUP6 PUSH20 0xFFFFFFFFFFFFFFFFFFFFFFFFFFFFFFFFFFFFFFFF AND PUSH20 0xFFFFFFFFFFFFFFFFFFFFFFFFFFFFFFFFFFFFFFFF AND DUP2 MSTORE PUSH1 0x20 ADD SWAP1 DUP2 MSTORE PUSH1 0x20 ADD PUSH1 0x0 KECCAK256 PUSH1 0x0 ADD SLOAD PUSH1 0x13 PUSH1 0x0 DUP7 PUSH20 0xFFFFFFFFFFFFFFFFFFFFFFFFFFFFFFFFFFFFFFFF AND PUSH20 0xFFFFFFFFFFFFFFFFFFFFFFFFFFFFFFFFFFFFFFFF AND DUP2 MSTORE PUSH1 0x20 ADD SWAP1 DUP2 MSTORE PUSH1 0x20 ADD PUSH1 0x0 KECCAK256 PUSH1 0x1 ADD SLOAD PUSH2 0x5224 SWAP1 SWAP2 SWAP1 PUSH4 0xFFFFFFFF AND JUMP JUMPDEST SWAP1 POP DUP1 PUSH1 0x13 PUSH1 0x0 DUP6 PUSH20 0xFFFFFFFFFFFFFFFFFFFFFFFFFFFFFFFFFFFFFFFF AND PUSH20 0xFFFFFFFFFFFFFFFFFFFFFFFFFFFFFFFFFFFFFFFF AND DUP2 MSTORE PUSH1 0x20 ADD SWAP1 DUP2 MSTORE PUSH1 0x20 ADD PUSH1 0x0 KECCAK256 PUSH1 0x1 ADD DUP2 SWAP1 SSTORE POP PUSH1 0x0 PUSH1 0x13 PUSH1 0x0 DUP6 PUSH20 0xFFFFFFFFFFFFFFFFFFFFFFFFFFFFFFFFFFFFFFFF AND PUSH20 0xFFFFFFFFFFFFFFFFFFFFFFFFFFFFFFFFFFFFFFFF AND DUP2 MSTORE PUSH1 0x20 ADD SWAP1 DUP2 MSTORE PUSH1 0x20 ADD PUSH1 0x0 KECCAK256 PUSH1 0x0 ADD DUP2 SWAP1 SSTORE POP PUSH32 0xEA4585BCBBE652CE8D7648189AF8436FED8469D3561FD73D3D345BA88618C20A DUP4 DUP3 PUSH1 0x40 MLOAD DUP1 DUP4 PUSH20 0xFFFFFFFFFFFFFFFFFFFFFFFFFFFFFFFFFFFFFFFF AND DUP2 MSTORE PUSH1 0x20 ADD DUP3 DUP2 MSTORE PUSH1 0x20 ADD SWAP3 POP POP POP PUSH1 0x40 MLOAD DUP1 SWAP2 SUB SWAP1 LOG1 POP JUMPDEST POP POP JUMP JUMPDEST PUSH32 0x0 DUP2 JUMP JUMPDEST PUSH32 0x0 DUP2 JUMP JUMPDEST PUSH1 0x11 PUSH1 0x1 SWAP1 SLOAD SWAP1 PUSH2 0x100 EXP SWAP1 DIV PUSH1 0xFF AND DUP2 JUMP JUMPDEST PUSH32 0x0 DUP2 JUMP JUMPDEST PUSH1 0x0 PUSH1 0x5 PUSH1 0x1 SWAP1 SLOAD SWAP1 PUSH2 0x100 EXP SWAP1 DIV PUSH20 0xFFFFFFFFFFFFFFFFFFFFFFFFFFFFFFFFFFFFFFFF AND SWAP1 POP SWAP1 JUMP JUMPDEST PUSH1 0x0 DUP1 PUSH2 0x31CE PUSH1 0x8 SLOAD PUSH1 0x7 SLOAD PUSH2 0x5224 SWAP1 SWAP2 SWAP1 PUSH4 0xFFFFFFFF AND JUMP JUMPDEST SWAP1 POP PUSH1 0xD SLOAD SWAP2 POP PUSH1 0x9 SLOAD DUP4 GT DUP1 ISZERO PUSH2 0x31E7 JUMPI POP DUP1 PUSH1 0x9 SLOAD LT JUMPDEST DUP1 ISZERO PUSH2 0x31F5 JUMPI POP PUSH1 0x0 PUSH1 0xE SLOAD GT JUMPDEST ISZERO PUSH2 0x3286 JUMPI DUP1 DUP4 GT ISZERO PUSH2 0x3206 JUMPI DUP1 SWAP3 POP JUMPDEST PUSH2 0x3283 PUSH2 0x3274 PUSH2 0x3223 PUSH1 0xE SLOAD PUSH1 0x8 SLOAD PUSH2 0x54B5 SWAP1 SWAP2 SWAP1 PUSH4 0xFFFFFFFF AND JUMP JUMPDEST PUSH2 0x3266 PUSH8 0xDE0B6B3A7640000 PUSH2 0x3258 PUSH1 0xA SLOAD PUSH2 0x324A PUSH1 0x9 SLOAD DUP12 PUSH2 0x5681 SWAP1 SWAP2 SWAP1 PUSH4 0xFFFFFFFF AND JUMP JUMPDEST PUSH2 0x54B5 SWAP1 SWAP2 SWAP1 PUSH4 0xFFFFFFFF AND JUMP JUMPDEST PUSH2 0x54B5 SWAP1 SWAP2 SWAP1 PUSH4 0xFFFFFFFF AND JUMP JUMPDEST PUSH2 0x553B SWAP1 SWAP2 SWAP1 PUSH4 0xFFFFFFFF AND JUMP JUMPDEST DUP4 PUSH2 0x5224 SWAP1 SWAP2 SWAP1 PUSH4 0xFFFFFFFF AND JUMP JUMPDEST SWAP2 POP JUMPDEST POP SWAP2 SWAP1 POP JUMP JUMPDEST PUSH1 0xB SLOAD DUP2 JUMP JUMPDEST PUSH1 0x12 PUSH1 0x20 MSTORE DUP1 PUSH1 0x0 MSTORE PUSH1 0x40 PUSH1 0x0 KECCAK256 PUSH1 0x0 SWAP2 POP SWAP1 POP SLOAD DUP2 JUMP JUMPDEST PUSH1 0x60 PUSH1 0x4 DUP1 SLOAD PUSH1 0x1 DUP2 PUSH1 0x1 AND ISZERO PUSH2 0x100 MUL SUB AND PUSH1 0x2 SWAP1 DIV DUP1 PUSH1 0x1F ADD PUSH1 0x20 DUP1 SWAP2 DIV MUL PUSH1 0x20 ADD PUSH1 0x40 MLOAD SWAP1 DUP2 ADD PUSH1 0x40 MSTORE DUP1 SWAP3 SWAP2 SWAP1 DUP2 DUP2 MSTORE PUSH1 0x20 ADD DUP3 DUP1 SLOAD PUSH1 0x1 DUP2 PUSH1 0x1 AND ISZERO PUSH2 0x100 MUL SUB AND PUSH1 0x2 SWAP1 DIV DUP1 ISZERO PUSH2 0x3342 JUMPI DUP1 PUSH1 0x1F LT PUSH2 0x3317 JUMPI PUSH2 0x100 DUP1 DUP4 SLOAD DIV MUL DUP4 MSTORE SWAP2 PUSH1 0x20 ADD SWAP2 PUSH2 0x3342 JUMP JUMPDEST DUP3 ADD SWAP2 SWAP1 PUSH1 0x0 MSTORE PUSH1 0x20 PUSH1 0x0 KECCAK256 SWAP1 JUMPDEST DUP2 SLOAD DUP2 MSTORE SWAP1 PUSH1 0x1 ADD SWAP1 PUSH1 0x20 ADD DUP1 DUP4 GT PUSH2 0x3325 JUMPI DUP3 SWAP1 SUB PUSH1 0x1F AND DUP3 ADD SWAP2 JUMPDEST POP POP POP POP POP SWAP1 POP SWAP1 JUMP JUMPDEST PUSH1 0x11 PUSH1 0x2 SWAP1 SLOAD SWAP1 PUSH2 0x100 EXP SWAP1 DIV PUSH1 0xFF AND DUP2 JUMP JUMPDEST PUSH2 0x3367 PUSH2 0x4CAA JUMP JUMPDEST PUSH20 0xFFFFFFFFFFFFFFFFFFFFFFFFFFFFFFFFFFFFFFFF AND PUSH2 0x3385 PUSH2 0x318A JUMP JUMPDEST PUSH20 0xFFFFFFFFFFFFFFFFFFFFFFFFFFFFFFFFFFFFFFFF AND EQ PUSH2 0x340E JUMPI PUSH1 0x40 MLOAD PUSH32 0x8C379A000000000000000000000000000000000000000000000000000000000 DUP2 MSTORE PUSH1 0x4 ADD DUP1 DUP1 PUSH1 0x20 ADD DUP3 DUP2 SUB DUP3 MSTORE PUSH1 0x20 DUP2 MSTORE PUSH1 0x20 ADD DUP1 PUSH32 0x4F776E61626C653A2063616C6C6572206973206E6F7420746865206F776E6572 DUP2 MSTORE POP PUSH1 0x20 ADD SWAP2 POP POP PUSH1 0x40 MLOAD DUP1 SWAP2 SUB SWAP1 REVERT JUMPDEST PUSH1 0x1 PUSH1 0x11 PUSH1 0x2 PUSH2 0x100 EXP DUP2 SLOAD DUP2 PUSH1 0xFF MUL NOT AND SWAP1 DUP4 ISZERO ISZERO MUL OR SWAP1 SSTORE POP PUSH32 0xE34132C0E38D6BC3060B9C7698A52568CFC799C082CC802A370F04FF216130EE PUSH1 0x40 MLOAD PUSH1 0x40 MLOAD DUP1 SWAP2 SUB SWAP1 LOG1 JUMP JUMPDEST PUSH1 0x0 PUSH1 0x13 PUSH1 0x0 DUP4 PUSH20 0xFFFFFFFFFFFFFFFFFFFFFFFFFFFFFFFFFFFFFFFF AND PUSH20 0xFFFFFFFFFFFFFFFFFFFFFFFFFFFFFFFFFFFFFFFF AND DUP2 MSTORE PUSH1 0x20 ADD SWAP1 DUP2 MSTORE PUSH1 0x20 ADD PUSH1 0x0 KECCAK256 PUSH1 0x1 ADD SLOAD SWAP1 POP SWAP2 SWAP1 POP JUMP JUMPDEST PUSH2 0x34AB PUSH2 0x4CAA JUMP JUMPDEST PUSH20 0xFFFFFFFFFFFFFFFFFFFFFFFFFFFFFFFFFFFFFFFF AND PUSH2 0x34C9 PUSH2 0x318A JUMP JUMPDEST PUSH20 0xFFFFFFFFFFFFFFFFFFFFFFFFFFFFFFFFFFFFFFFF AND EQ PUSH2 0x3552 JUMPI PUSH1 0x40 MLOAD PUSH32 0x8C379A000000000000000000000000000000000000000000000000000000000 DUP2 MSTORE PUSH1 0x4 ADD DUP1 DUP1 PUSH1 0x20 ADD DUP3 DUP2 SUB DUP3 MSTORE PUSH1 0x20 DUP2 MSTORE PUSH1 0x20 ADD DUP1 PUSH32 0x4F776E61626C653A2063616C6C6572206973206E6F7420746865206F776E6572 DUP2 MSTORE POP PUSH1 0x20 ADD SWAP2 POP POP PUSH1 0x40 MLOAD DUP1 SWAP2 SUB SWAP1 REVERT JUMPDEST PUSH1 0x0 TIMESTAMP SWAP1 POP DUP1 DUP5 GT DUP1 ISZERO PUSH2 0x3566 JUMPI POP PUSH1 0x0 DUP4 GT JUMPDEST PUSH2 0x35D8 JUMPI PUSH1 0x40 MLOAD PUSH32 0x8C379A000000000000000000000000000000000000000000000000000000000 DUP2 MSTORE PUSH1 0x4 ADD DUP1 DUP1 PUSH1 0x20 ADD DUP3 DUP2 SUB DUP3 MSTORE PUSH1 0x18 DUP2 MSTORE PUSH1 0x20 ADD DUP1 PUSH32 0x496E76616C69642064617465206F72206475726174696F6E0000000000000000 DUP2 MSTORE POP PUSH1 0x20 ADD SWAP2 POP POP PUSH1 0x40 MLOAD DUP1 SWAP2 SUB SWAP1 REVERT JUMPDEST PUSH1 0x0 PUSH1 0x7 SLOAD GT ISZERO PUSH2 0x3652 JUMPI PUSH2 0x35FA PUSH1 0x8 SLOAD PUSH1 0x7 SLOAD PUSH2 0x5224 SWAP1 SWAP2 SWAP1 PUSH4 0xFFFFFFFF AND JUMP JUMPDEST DUP2 GT PUSH2 0x3651 JUMPI PUSH1 0x40 MLOAD PUSH32 0x8C379A000000000000000000000000000000000000000000000000000000000 DUP2 MSTORE PUSH1 0x4 ADD DUP1 DUP1 PUSH1 0x20 ADD DUP3 DUP2 SUB DUP3 MSTORE PUSH1 0x21 DUP2 MSTORE PUSH1 0x20 ADD DUP1 PUSH2 0x5DCF PUSH1 0x21 SWAP2 CODECOPY PUSH1 0x40 ADD SWAP2 POP POP PUSH1 0x40 MLOAD DUP1 SWAP2 SUB SWAP1 REVERT JUMPDEST JUMPDEST PUSH32 0x0 DUP3 GT ISZERO PUSH2 0x36E8 JUMPI PUSH1 0x40 MLOAD PUSH32 0x8C379A000000000000000000000000000000000000000000000000000000000 DUP2 MSTORE PUSH1 0x4 ADD DUP1 DUP1 PUSH1 0x20 ADD DUP3 DUP2 SUB DUP3 MSTORE PUSH1 0x19 DUP2 MSTORE PUSH1 0x20 ADD DUP1 PUSH32 0x4D617820746F6B656E20616D6F756E7420657863656564656400000000000000 DUP2 MSTORE POP PUSH1 0x20 ADD SWAP2 POP POP PUSH1 0x40 MLOAD DUP1 SWAP2 SUB SWAP1 REVERT JUMPDEST PUSH1 0x0 PUSH1 0xE SLOAD GT ISZERO PUSH2 0x37D9 JUMPI PUSH32 0x0 PUSH2 0x3764 PUSH1 0xE SLOAD PUSH2 0x3756 DUP7 PUSH2 0x3748 PUSH4 0x1E13380 PUSH2 0x373A PUSH1 0x64 DUP11 PUSH2 0x54B5 SWAP1 SWAP2 SWAP1 PUSH4 0xFFFFFFFF AND JUMP JUMPDEST PUSH2 0x54B5 SWAP1 SWAP2 SWAP1 PUSH4 0xFFFFFFFF AND JUMP JUMPDEST PUSH2 0x553B SWAP1 SWAP2 SWAP1 PUSH4 0xFFFFFFFF AND JUMP JUMPDEST PUSH2 0x553B SWAP1 SWAP2 SWAP1 PUSH4 0xFFFFFFFF AND JUMP JUMPDEST GT ISZERO PUSH2 0x37D8 JUMPI PUSH1 0x40 MLOAD PUSH32 0x8C379A000000000000000000000000000000000000000000000000000000000 DUP2 MSTORE PUSH1 0x4 ADD DUP1 DUP1 PUSH1 0x20 ADD DUP3 DUP2 SUB DUP3 MSTORE PUSH1 0x18 DUP2 MSTORE PUSH1 0x20 ADD DUP1 PUSH32 0x4D617820616C6C6F776564204150522065786365656465640000000000000000 DUP2 MSTORE POP PUSH1 0x20 ADD SWAP2 POP POP PUSH1 0x40 MLOAD DUP1 SWAP2 SUB SWAP1 REVERT JUMPDEST JUMPDEST PUSH2 0x37E2 DUP2 PUSH2 0x5BDD JUMP JUMPDEST DUP4 PUSH1 0x7 DUP2 SWAP1 SSTORE POP DUP4 PUSH1 0x9 DUP2 SWAP1 SSTORE POP DUP3 PUSH1 0x8 DUP2 SWAP1 SSTORE POP DUP2 PUSH1 0xA DUP2 SWAP1 SSTORE POP PUSH2 0x3813 DUP3 PUSH1 0xB SLOAD PUSH2 0x5224 SWAP1 SWAP2 SWAP1 PUSH4 0xFFFFFFFF AND JUMP JUMPDEST PUSH1 0xB DUP2 SWAP1 SSTORE POP PUSH2 0x382E DUP3 PUSH1 0xF SLOAD PUSH2 0x5224 SWAP1 SWAP2 SWAP1 PUSH4 0xFFFFFFFF AND JUMP JUMPDEST PUSH1 0xF DUP2 SWAP1 SSTORE POP PUSH32 0x612340AB30150A67355AB93F1438FA021EC7DA49B6665A179E7A4F30528384DD DUP5 DUP5 DUP5 PUSH1 0x40 MLOAD DUP1 DUP5 DUP2 MSTORE PUSH1 0x20 ADD DUP4 DUP2 MSTORE PUSH1 0x20 ADD DUP3 DUP2 MSTORE PUSH1 0x20 ADD SWAP4 POP POP POP POP PUSH1 0x40 MLOAD DUP1 SWAP2 SUB SWAP1 LOG1 PUSH2 0x3885 ADDRESS DUP4 PUSH2 0x5704 JUMP JUMPDEST POP POP POP POP JUMP JUMPDEST PUSH1 0x0 PUSH2 0x394E PUSH2 0x3898 PUSH2 0x4CAA JUMP JUMPDEST DUP5 PUSH2 0x3949 DUP6 PUSH1 0x40 MLOAD DUP1 PUSH1 0x60 ADD PUSH1 0x40 MSTORE DUP1 PUSH1 0x25 DUP2 MSTORE PUSH1 0x20 ADD PUSH2 0x5EC5 PUSH1 0x25 SWAP2 CODECOPY PUSH1 0x1 PUSH1 0x0 PUSH2 0x38C2 PUSH2 0x4CAA JUMP JUMPDEST PUSH20 0xFFFFFFFFFFFFFFFFFFFFFFFFFFFFFFFFFFFFFFFF AND PUSH20 0xFFFFFFFFFFFFFFFFFFFFFFFFFFFFFFFFFFFFFFFF AND DUP2 MSTORE PUSH1 0x20 ADD SWAP1 DUP2 MSTORE PUSH1 0x20 ADD PUSH1 0x0 KECCAK256 PUSH1 0x0 DUP11 PUSH20 0xFFFFFFFFFFFFFFFFFFFFFFFFFFFFFFFFFFFFFFFF AND PUSH20 0xFFFFFFFFFFFFFFFFFFFFFFFFFFFFFFFFFFFFFFFF AND DUP2 MSTORE PUSH1 0x20 ADD SWAP1 DUP2 MSTORE PUSH1 0x20 ADD PUSH1 0x0 KECCAK256 SLOAD PUSH2 0x516A SWAP1 SWAP3 SWAP2 SWAP1 PUSH4 0xFFFFFFFF AND JUMP JUMPDEST PUSH2 0x4CB2 JUMP JUMPDEST PUSH1 0x1 SWAP1 POP SWAP3 SWAP2 POP POP JUMP JUMPDEST PUSH2 0x3960 PUSH2 0x4CAA JUMP JUMPDEST PUSH20 0xFFFFFFFFFFFFFFFFFFFFFFFFFFFFFFFFFFFFFFFF AND PUSH2 0x397E PUSH2 0x318A JUMP JUMPDEST PUSH20 0xFFFFFFFFFFFFFFFFFFFFFFFFFFFFFFFFFFFFFFFF AND EQ PUSH2 0x3A07 JUMPI PUSH1 0x40 MLOAD PUSH32 0x8C379A000000000000000000000000000000000000000000000000000000000 DUP2 MSTORE PUSH1 0x4 ADD DUP1 DUP1 PUSH1 0x20 ADD DUP3 DUP2 SUB DUP3 MSTORE PUSH1 0x20 DUP2 MSTORE PUSH1 0x20 ADD DUP1 PUSH32 0x4F776E61626C653A2063616C6C6572206973206E6F7420746865206F776E6572 DUP2 MSTORE POP PUSH1 0x20 ADD SWAP2 POP POP PUSH1 0x40 MLOAD DUP1 SWAP2 SUB SWAP1 REVERT JUMPDEST PUSH1 0x0 PUSH1 0x11 PUSH1 0x0 SWAP1 SLOAD SWAP1 PUSH2 0x100 EXP SWAP1 DIV PUSH1 0xFF AND ISZERO SWAP1 POP DUP1 PUSH1 0x11 PUSH1 0x0 PUSH2 0x100 EXP DUP2 SLOAD DUP2 PUSH1 0xFF MUL NOT AND SWAP1 DUP4 ISZERO ISZERO MUL OR SWAP1 SSTORE POP PUSH32 0x34D5714013380D0DD2DE54669941A1E6FFEB94F624DEF9A559F03ABD0E8E4A5C DUP2 PUSH1 0x40 MLOAD DUP1 DUP3 ISZERO ISZERO DUP2 MSTORE PUSH1 0x20 ADD SWAP2 POP POP PUSH1 0x40 MLOAD DUP1 SWAP2 SUB SWAP1 LOG1 POP JUMP JUMPDEST PUSH1 0x0 PUSH2 0x3A86 PUSH2 0x3A7F PUSH2 0x4CAA JUMP JUMPDEST DUP5 DUP5 PUSH2 0x4EA9 JUMP JUMPDEST PUSH1 0x1 SWAP1 POP SWAP3 SWAP2 POP POP JUMP JUMPDEST PUSH1 0x10 SLOAD DUP2 JUMP JUMPDEST PUSH2 0x3A9E PUSH2 0x4CAA JUMP JUMPDEST PUSH20 0xFFFFFFFFFFFFFFFFFFFFFFFFFFFFFFFFFFFFFFFF AND PUSH2 0x3ABC PUSH2 0x318A JUMP JUMPDEST PUSH20 0xFFFFFFFFFFFFFFFFFFFFFFFFFFFFFFFFFFFFFFFF AND EQ PUSH2 0x3B45 JUMPI PUSH1 0x40 MLOAD PUSH32 0x8C379A000000000000000000000000000000000000000000000000000000000 DUP2 MSTORE PUSH1 0x4 ADD DUP1 DUP1 PUSH1 0x20 ADD DUP3 DUP2 SUB DUP3 MSTORE PUSH1 0x20 DUP2 MSTORE PUSH1 0x20 ADD DUP1 PUSH32 0x4F776E61626C653A2063616C6C6572206973206E6F7420746865206F776E6572 DUP2 MSTORE POP PUSH1 0x20 ADD SWAP2 POP POP PUSH1 0x40 MLOAD DUP1 SWAP2 SUB SWAP1 REVERT JUMPDEST PUSH2 0x3B4D PUSH2 0x52AC JUMP JUMPDEST PUSH1 0x0 PUSH20 0xFFFFFFFFFFFFFFFFFFFFFFFFFFFFFFFFFFFFFFFF AND PUSH1 0x16 PUSH1 0x0 SWAP1 SLOAD SWAP1 PUSH2 0x100 EXP SWAP1 DIV PUSH20 0xFFFFFFFFFFFFFFFFFFFFFFFFFFFFFFFFFFFFFFFF AND PUSH20 0xFFFFFFFFFFFFFFFFFFFFFFFFFFFFFFFFFFFFFFFF AND EQ ISZERO DUP1 ISZERO PUSH2 0x3BAE JUMPI POP PUSH1 0x0 PUSH1 0x15 SLOAD GT JUMPDEST PUSH2 0x3C20 JUMPI PUSH1 0x40 MLOAD PUSH32 0x8C379A000000000000000000000000000000000000000000000000000000000 DUP2 MSTORE PUSH1 0x4 ADD DUP1 DUP1 PUSH1 0x20 ADD DUP3 DUP2 SUB DUP3 MSTORE PUSH1 0x1E DUP2 MSTORE PUSH1 0x20 ADD DUP1 PUSH32 0x66756E6472616973696E6720636F6E646974696F6E73206E6F74207365740000 DUP2 MSTORE POP PUSH1 0x20 ADD SWAP2 POP POP PUSH1 0x40 MLOAD DUP1 SWAP2 SUB SWAP1 REVERT JUMPDEST PUSH1 0x16 PUSH1 0x14 SWAP1 SLOAD SWAP1 PUSH2 0x100 EXP SWAP1 DIV PUSH1 0xFF AND ISZERO PUSH1 0x16 PUSH1 0x14 PUSH2 0x100 EXP DUP2 SLOAD DUP2 PUSH1 0xFF MUL NOT AND SWAP1 DUP4 ISZERO ISZERO MUL OR SWAP1 SSTORE POP PUSH32 0xF6AE9076FE3E43AD95110A1C5ACD02C62EC5F1BF82C64F45EBD383FD6AC5F0D PUSH1 0x40 MLOAD PUSH1 0x40 MLOAD DUP1 SWAP2 SUB SWAP1 LOG1 JUMP JUMPDEST PUSH2 0x3C80 PUSH2 0x4CAA JUMP JUMPDEST PUSH20 0xFFFFFFFFFFFFFFFFFFFFFFFFFFFFFFFFFFFFFFFF AND PUSH2 0x3C9E PUSH2 0x318A JUMP JUMPDEST PUSH20 0xFFFFFFFFFFFFFFFFFFFFFFFFFFFFFFFFFFFFFFFF AND EQ PUSH2 0x3D27 JUMPI PUSH1 0x40 MLOAD PUSH32 0x8C379A000000000000000000000000000000000000000000000000000000000 DUP2 MSTORE PUSH1 0x4 ADD DUP1 DUP1 PUSH1 0x20 ADD DUP3 DUP2 SUB DUP3 MSTORE PUSH1 0x20 DUP2 MSTORE PUSH1 0x20 ADD DUP1 PUSH32 0x4F776E61626C653A2063616C6C6572206973206E6F7420746865206F776E6572 DUP2 MSTORE POP PUSH1 0x20 ADD SWAP2 POP POP PUSH1 0x40 MLOAD DUP1 SWAP2 SUB SWAP1 REVERT JUMPDEST PUSH32 0x0 DUP2 GT ISZERO PUSH2 0x3DBD JUMPI PUSH1 0x40 MLOAD PUSH32 0x8C379A000000000000000000000000000000000000000000000000000000000 DUP2 MSTORE PUSH1 0x4 ADD DUP1 DUP1 PUSH1 0x20 ADD DUP3 DUP2 SUB DUP3 MSTORE PUSH1 0xD DUP2 MSTORE PUSH1 0x20 ADD DUP1 PUSH32 0x496E76616C69642076616C756500000000000000000000000000000000000000 DUP2 MSTORE POP PUSH1 0x20 ADD SWAP2 POP POP PUSH1 0x40 MLOAD DUP1 SWAP2 SUB SWAP1 REVERT JUMPDEST DUP1 PUSH1 0x10 DUP2 SWAP1 SSTORE POP PUSH32 0x74CD83192C2667EBA495E3B4578522F84AF3168FBB19D3BED7729A03BD5E2A41 DUP2 PUSH1 0x40 MLOAD DUP1 DUP3 DUP2 MSTORE PUSH1 0x20 ADD SWAP2 POP POP PUSH1 0x40 MLOAD DUP1 SWAP2 SUB SWAP1 LOG1 POP JUMP JUMPDEST PUSH1 0xE SLOAD DUP2 JUMP JUMPDEST PUSH2 0x3E0C PUSH2 0x14A3 JUMP JUMPDEST PUSH2 0x3E15 CALLER PUSH2 0x28AB JUMP JUMPDEST DUP2 GT ISZERO PUSH2 0x3E8A JUMPI PUSH1 0x40 MLOAD PUSH32 0x8C379A000000000000000000000000000000000000000000000000000000000 DUP2 MSTORE PUSH1 0x4 ADD DUP1 DUP1 PUSH1 0x20 ADD DUP3 DUP2 SUB DUP3 MSTORE PUSH1 0x14 DUP2 MSTORE PUSH1 0x20 ADD DUP1 PUSH32 0x496E73756666696369656E742062616C616E6365000000000000000000000000 DUP2 MSTORE POP PUSH1 0x20 ADD SWAP2 POP POP PUSH1 0x40 MLOAD DUP1 SWAP2 SUB SWAP1 REVERT JUMPDEST PUSH1 0x0 PUSH2 0x3E95 CALLER PUSH2 0x55C4 JUMP JUMPDEST SWAP1 POP PUSH1 0x0 PUSH2 0x3EAC DUP3 DUP5 PUSH2 0x5224 SWAP1 SWAP2 SWAP1 PUSH4 0xFFFFFFFF AND JUMP JUMPDEST SWAP1 POP PUSH2 0x3F03 DUP2 PUSH1 0x13 PUSH1 0x0 CALLER PUSH20 0xFFFFFFFFFFFFFFFFFFFFFFFFFFFFFFFFFFFFFFFF AND PUSH20 0xFFFFFFFFFFFFFFFFFFFFFFFFFFFFFFFFFFFFFFFF AND DUP2 MSTORE PUSH1 0x20 ADD SWAP1 DUP2 MSTORE PUSH1 0x20 ADD PUSH1 0x0 KECCAK256 PUSH1 0x0 ADD SLOAD PUSH2 0x5224 SWAP1 SWAP2 SWAP1 PUSH4 0xFFFFFFFF AND JUMP JUMPDEST PUSH1 0x13 PUSH1 0x0 CALLER PUSH20 0xFFFFFFFFFFFFFFFFFFFFFFFFFFFFFFFFFFFFFFFF AND PUSH20 0xFFFFFFFFFFFFFFFFFFFFFFFFFFFFFFFFFFFFFFFF AND DUP2 MSTORE PUSH1 0x20 ADD SWAP1 DUP2 MSTORE PUSH1 0x20 ADD PUSH1 0x0 KECCAK256 PUSH1 0x0 ADD DUP2 SWAP1 SSTORE POP PUSH32 0xAE2006C94E89F8083EFDA0C0A1D0C7D6FEF3EC90D68506AA822854F3BA31F9CF CALLER DUP3 PUSH1 0x40 MLOAD DUP1 DUP4 PUSH20 0xFFFFFFFFFFFFFFFFFFFFFFFFFFFFFFFFFFFFFFFF AND DUP2 MSTORE PUSH1 0x20 ADD DUP3 DUP2 MSTORE PUSH1 0x20 ADD SWAP3 POP POP POP PUSH1 0x40 MLOAD DUP1 SWAP2 SUB SWAP1 LOG1 PUSH2 0x3FB3 DUP2 PUSH1 0xE SLOAD PUSH2 0x5224 SWAP1 SWAP2 SWAP1 PUSH4 0xFFFFFFFF AND JUMP JUMPDEST PUSH1 0xE DUP2 SWAP1 SSTORE POP PUSH32 0x12129930C15DAD4632242378DC39162DB4C36A82482777C2E8F791D3752BB70F DUP2 PUSH1 0x40 MLOAD DUP1 DUP3 DUP2 MSTORE PUSH1 0x20 ADD SWAP2 POP POP PUSH1 0x40 MLOAD DUP1 SWAP2 SUB SWAP1 LOG1 PUSH2 0x3FFB CALLER ADDRESS DUP6 PUSH2 0x4EA9 JUMP JUMPDEST PUSH32 0x6F5036100EC84840F4CA7C243E6CA7C042949756211BDFB358406A77DC41A42E CALLER DUP5 DUP5 PUSH1 0x40 MLOAD DUP1 DUP5 PUSH20 0xFFFFFFFFFFFFFFFFFFFFFFFFFFFFFFFFFFFFFFFF AND DUP2 MSTORE PUSH1 0x20 ADD DUP4 DUP2 MSTORE PUSH1 0x20 ADD DUP3 DUP2 MSTORE PUSH1 0x20 ADD SWAP4 POP POP POP POP PUSH1 0x40 MLOAD DUP1 SWAP2 SUB SWAP1 LOG1 POP POP POP JUMP JUMPDEST PUSH2 0x4065 PUSH2 0x5954 JUMP JUMPDEST PUSH2 0x406F ADDRESS DUP3 PUSH2 0x5704 JUMP JUMPDEST POP JUMP JUMPDEST PUSH2 0x407A PUSH2 0x4CAA JUMP JUMPDEST PUSH20 0xFFFFFFFFFFFFFFFFFFFFFFFFFFFFFFFFFFFFFFFF AND PUSH2 0x4098 PUSH2 0x318A JUMP JUMPDEST PUSH20 0xFFFFFFFFFFFFFFFFFFFFFFFFFFFFFFFFFFFFFFFF AND EQ PUSH2 0x4121 JUMPI PUSH1 0x40 MLOAD PUSH32 0x8C379A000000000000000000000000000000000000000000000000000000000 DUP2 MSTORE PUSH1 0x4 ADD DUP1 DUP1 PUSH1 0x20 ADD DUP3 DUP2 SUB DUP3 MSTORE PUSH1 0x20 DUP2 MSTORE PUSH1 0x20 ADD DUP1 PUSH32 0x4F776E61626C653A2063616C6C6572206973206E6F7420746865206F776E6572 DUP2 MSTORE POP PUSH1 0x20 ADD SWAP2 POP POP PUSH1 0x40 MLOAD DUP1 SWAP2 SUB SWAP1 REVERT JUMPDEST PUSH1 0x0 PUSH20 0xFFFFFFFFFFFFFFFFFFFFFFFFFFFFFFFFFFFFFFFF AND DUP2 PUSH20 0xFFFFFFFFFFFFFFFFFFFFFFFFFFFFFFFFFFFFFFFF AND EQ ISZERO PUSH2 0x41C4 JUMPI PUSH1 0x40 MLOAD PUSH32 0x8C379A000000000000000000000000000000000000000000000000000000000 DUP2 MSTORE PUSH1 0x4 ADD DUP1 DUP1 PUSH1 0x20 ADD DUP3 DUP2 SUB DUP3 MSTORE PUSH1 0xF DUP2 MSTORE PUSH1 0x20 ADD DUP1 PUSH32 0x496E76616C696420616464726573730000000000000000000000000000000000 DUP2 MSTORE POP PUSH1 0x20 ADD SWAP2 POP POP PUSH1 0x40 MLOAD DUP1 SWAP2 SUB SWAP1 REVERT JUMPDEST PUSH1 0x0 ISZERO ISZERO PUSH1 0x11 PUSH1 0x1 SWAP1 SLOAD SWAP1 PUSH2 0x100 EXP SWAP1 DIV PUSH1 0xFF AND ISZERO ISZERO EQ PUSH2 0x424D JUMPI PUSH1 0x40 MLOAD PUSH32 0x8C379A000000000000000000000000000000000000000000000000000000000 DUP2 MSTORE PUSH1 0x4 ADD DUP1 DUP1 PUSH1 0x20 ADD DUP3 DUP2 SUB DUP3 MSTORE PUSH1 0x10 DUP2 MSTORE PUSH1 0x20 ADD DUP1 PUSH32 0x696E74657266616365206C6F636B656400000000000000000000000000000000 DUP2 MSTORE POP PUSH1 0x20 ADD SWAP2 POP POP PUSH1 0x40 MLOAD DUP1 SWAP2 SUB SWAP1 REVERT JUMPDEST DUP1 PUSH1 0x6 PUSH1 0x0 PUSH2 0x100 EXP DUP2 SLOAD DUP2 PUSH20 0xFFFFFFFFFFFFFFFFFFFFFFFFFFFFFFFFFFFFFFFF MUL NOT AND SWAP1 DUP4 PUSH20 0xFFFFFFFFFFFFFFFFFFFFFFFFFFFFFFFFFFFFFFFF AND MUL OR SWAP1 SSTORE POP PUSH32 0xDBFB95FE8E19209E063B2852C867A8AA47ACD7EB4AB8CF1E3BA86E046C196AD1 DUP2 PUSH1 0x40 MLOAD DUP1 DUP3 PUSH20 0xFFFFFFFFFFFFFFFFFFFFFFFFFFFFFFFFFFFFFFFF AND DUP2 MSTORE PUSH1 0x20 ADD SWAP2 POP POP PUSH1 0x40 MLOAD DUP1 SWAP2 SUB SWAP1 LOG1 POP JUMP JUMPDEST PUSH1 0x0 PUSH1 0x1 PUSH1 0x0 DUP5 PUSH20 0xFFFFFFFFFFFFFFFFFFFFFFFFFFFFFFFFFFFFFFFF AND PUSH20 0xFFFFFFFFFFFFFFFFFFFFFFFFFFFFFFFFFFFFFFFF AND DUP2 MSTORE PUSH1 0x20 ADD SWAP1 DUP2 MSTORE PUSH1 0x20 ADD PUSH1 0x0 KECCAK256 PUSH1 0x0 DUP4 PUSH20 0xFFFFFFFFFFFFFFFFFFFFFFFFFFFFFFFFFFFFFFFF AND PUSH20 0xFFFFFFFFFFFFFFFFFFFFFFFFFFFFFFFFFFFFFFFF AND DUP2 MSTORE PUSH1 0x20 ADD SWAP1 DUP2 MSTORE PUSH1 0x20 ADD PUSH1 0x0 KECCAK256 SLOAD SWAP1 POP SWAP3 SWAP2 POP POP JUMP JUMPDEST PUSH2 0x436D PUSH2 0x4CAA JUMP JUMPDEST PUSH20 0xFFFFFFFFFFFFFFFFFFFFFFFFFFFFFFFFFFFFFFFF AND PUSH2 0x438B PUSH2 0x318A JUMP JUMPDEST PUSH20 0xFFFFFFFFFFFFFFFFFFFFFFFFFFFFFFFFFFFFFFFF AND EQ PUSH2 0x4414 JUMPI PUSH1 0x40 MLOAD PUSH32 0x8C379A000000000000000000000000000000000000000000000000000000000 DUP2 MSTORE PUSH1 0x4 ADD DUP1 DUP1 PUSH1 0x20 ADD DUP3 DUP2 SUB DUP3 MSTORE PUSH1 0x20 DUP2 MSTORE PUSH1 0x20 ADD DUP1 PUSH32 0x4F776E61626C653A2063616C6C6572206973206E6F7420746865206F776E6572 DUP2 MSTORE POP PUSH1 0x20 ADD SWAP2 POP POP PUSH1 0x40 MLOAD DUP1 SWAP2 SUB SWAP1 REVERT JUMPDEST PUSH2 0x441C PUSH2 0x52AC JUMP JUMPDEST PUSH1 0x0 DUP1 DUP5 MLOAD SWAP1 POP PUSH1 0x0 DUP1 PUSH1 0x0 DUP1 DUP8 MLOAD DUP6 EQ PUSH2 0x4482 JUMPI PUSH1 0x40 MLOAD PUSH32 0x8C379A000000000000000000000000000000000000000000000000000000000 DUP2 MSTORE PUSH1 0x4 ADD DUP1 DUP1 PUSH1 0x20 ADD DUP3 DUP2 SUB DUP3 MSTORE PUSH1 0x22 DUP2 MSTORE PUSH1 0x20 ADD DUP1 PUSH2 0x5EA3 PUSH1 0x22 SWAP2 CODECOPY PUSH1 0x40 ADD SWAP2 POP POP PUSH1 0x40 MLOAD DUP1 SWAP2 SUB SWAP1 REVERT JUMPDEST PUSH1 0x0 JUMPDEST DUP6 DUP2 LT ISZERO PUSH2 0x4680 JUMPI DUP10 DUP2 DUP2 MLOAD DUP2 LT PUSH2 0x4499 JUMPI INVALID JUMPDEST PUSH1 0x20 MUL PUSH1 0x20 ADD ADD MLOAD SWAP5 POP DUP9 DUP2 DUP2 MLOAD DUP2 LT PUSH2 0x44AF JUMPI INVALID JUMPDEST PUSH1 0x20 MUL PUSH1 0x20 ADD ADD MLOAD SWAP4 POP DUP8 ISZERO PUSH2 0x45EC JUMPI PUSH2 0x44C8 DUP6 PUSH2 0x55C4 JUMP JUMPDEST SWAP3 POP PUSH1 0x0 PUSH2 0x44DF DUP5 DUP7 PUSH2 0x5224 SWAP1 SWAP2 SWAP1 PUSH4 0xFFFFFFFF AND JUMP JUMPDEST SWAP1 POP PUSH2 0x4536 DUP2 PUSH1 0x13 PUSH1 0x0 DUP10 PUSH20 0xFFFFFFFFFFFFFFFFFFFFFFFFFFFFFFFFFFFFFFFF AND PUSH20 0xFFFFFFFFFFFFFFFFFFFFFFFFFFFFFFFFFFFFFFFF AND DUP2 MSTORE PUSH1 0x20 ADD SWAP1 DUP2 MSTORE PUSH1 0x20 ADD PUSH1 0x0 KECCAK256 PUSH1 0x0 ADD SLOAD PUSH2 0x5224 SWAP1 SWAP2 SWAP1 PUSH4 0xFFFFFFFF AND JUMP JUMPDEST PUSH1 0x13 PUSH1 0x0 DUP9 PUSH20 0xFFFFFFFFFFFFFFFFFFFFFFFFFFFFFFFFFFFFFFFF AND PUSH20 0xFFFFFFFFFFFFFFFFFFFFFFFFFFFFFFFFFFFFFFFF AND DUP2 MSTORE PUSH1 0x20 ADD SWAP1 DUP2 MSTORE PUSH1 0x20 ADD PUSH1 0x0 KECCAK256 PUSH1 0x0 ADD DUP2 SWAP1 SSTORE POP PUSH32 0xAE2006C94E89F8083EFDA0C0A1D0C7D6FEF3EC90D68506AA822854F3BA31F9CF DUP7 DUP3 PUSH1 0x40 MLOAD DUP1 DUP4 PUSH20 0xFFFFFFFFFFFFFFFFFFFFFFFFFFFFFFFFFFFFFFFF AND DUP2 MSTORE PUSH1 0x20 ADD DUP3 DUP2 MSTORE PUSH1 0x20 ADD SWAP3 POP POP POP PUSH1 0x40 MLOAD DUP1 SWAP2 SUB SWAP1 LOG1 PUSH2 0x45E4 DUP5 DUP5 PUSH2 0x5224 SWAP1 SWAP2 SWAP1 PUSH4 0xFFFFFFFF AND JUMP JUMPDEST SWAP3 POP POP PUSH2 0x45F7 JUMP JUMPDEST PUSH2 0x45F6 DUP6 DUP6 PUSH2 0x5704 JUMP JUMPDEST JUMPDEST PUSH2 0x460A DUP5 DUP9 PUSH2 0x5224 SWAP1 SWAP2 SWAP1 PUSH4 0xFFFFFFFF AND JUMP JUMPDEST SWAP7 POP PUSH32 0xA984939D0059BC688E1C5458F72AD05B51FC8A6BA959556F5E2EE91C1AB8C7D2 DUP6 DUP6 DUP6 DUP12 PUSH1 0x40 MLOAD DUP1 DUP6 PUSH20 0xFFFFFFFFFFFFFFFFFFFFFFFFFFFFFFFFFFFFFFFF AND DUP2 MSTORE PUSH1 0x20 ADD DUP5 DUP2 MSTORE PUSH1 0x20 ADD DUP4 DUP2 MSTORE PUSH1 0x20 ADD DUP3 ISZERO ISZERO DUP2 MSTORE PUSH1 0x20 ADD SWAP5 POP POP POP POP POP PUSH1 0x40 MLOAD DUP1 SWAP2 SUB SWAP1 LOG1 DUP1 DUP1 PUSH1 0x1 ADD SWAP2 POP POP PUSH2 0x4485 JUMP JUMPDEST POP PUSH2 0x4696 DUP7 PUSH1 0xF SLOAD PUSH2 0x5224 SWAP1 SWAP2 SWAP1 PUSH4 0xFFFFFFFF AND JUMP JUMPDEST PUSH1 0xF DUP2 SWAP1 SSTORE POP PUSH32 0x83460F65BDB244889B764A63576252CF32E10E1A058AF241DA584C1F1610E6DB DUP7 PUSH1 0x40 MLOAD DUP1 DUP3 DUP2 MSTORE PUSH1 0x20 ADD SWAP2 POP POP PUSH1 0x40 MLOAD DUP1 SWAP2 SUB SWAP1 LOG1 PUSH32 0x0 PUSH2 0x470B PUSH1 0xB SLOAD PUSH1 0xF SLOAD PUSH2 0x5681 SWAP1 SWAP2 SWAP1 PUSH4 0xFFFFFFFF AND JUMP JUMPDEST GT ISZERO PUSH2 0x477F JUMPI PUSH1 0x40 MLOAD PUSH32 0x8C379A000000000000000000000000000000000000000000000000000000000 DUP2 MSTORE PUSH1 0x4 ADD DUP1 DUP1 PUSH1 0x20 ADD DUP3 DUP2 SUB DUP3 MSTORE PUSH1 0xF DUP2 MSTORE PUSH1 0x20 ADD DUP1 PUSH32 0x416C6C6F636174696F6E206F7665720000000000000000000000000000000000 DUP2 MSTORE POP PUSH1 0x20 ADD SWAP2 POP POP PUSH1 0x40 MLOAD DUP1 SWAP2 SUB SWAP1 REVERT JUMPDEST DUP7 ISZERO PUSH2 0x47FA JUMPI PUSH2 0x478F ADDRESS DUP8 PUSH2 0x5704 JUMP JUMPDEST PUSH1 0x0 PUSH2 0x47A4 DUP3 DUP9 PUSH2 0x5224 SWAP1 SWAP2 SWAP1 PUSH4 0xFFFFFFFF AND JUMP JUMPDEST SWAP1 POP PUSH2 0x47BB DUP2 PUSH1 0xE SLOAD PUSH2 0x5224 SWAP1 SWAP2 SWAP1 PUSH4 0xFFFFFFFF AND JUMP JUMPDEST PUSH1 0xE DUP2 SWAP1 SSTORE POP PUSH32 0x12129930C15DAD4632242378DC39162DB4C36A82482777C2E8F791D3752BB70F DUP2 PUSH1 0x40 MLOAD DUP1 DUP3 DUP2 MSTORE PUSH1 0x20 ADD SWAP2 POP POP PUSH1 0x40 MLOAD DUP1 SWAP2 SUB SWAP1 LOG1 POP JUMPDEST POP POP POP POP POP POP POP POP POP JUMP JUMPDEST PUSH1 0xD SLOAD DUP2 JUMP JUMPDEST PUSH32 0x0 DUP2 JUMP JUMPDEST PUSH1 0x15 SLOAD DUP2 JUMP JUMPDEST PUSH1 0x0 PUSH2 0x483F PUSH2 0x5954 JUMP JUMPDEST PUSH2 0x4848 DUP3 PUSH2 0x55C4 JUMP JUMPDEST SWAP1 POP SWAP2 SWAP1 POP JUMP JUMPDEST PUSH2 0x4857 PUSH2 0x4CAA JUMP JUMPDEST PUSH20 0xFFFFFFFFFFFFFFFFFFFFFFFFFFFFFFFFFFFFFFFF AND PUSH2 0x4875 PUSH2 0x318A JUMP JUMPDEST PUSH20 0xFFFFFFFFFFFFFFFFFFFFFFFFFFFFFFFFFFFFFFFF AND EQ PUSH2 0x48FE JUMPI PUSH1 0x40 MLOAD PUSH32 0x8C379A000000000000000000000000000000000000000000000000000000000 DUP2 MSTORE PUSH1 0x4 ADD DUP1 DUP1 PUSH1 0x20 ADD DUP3 DUP2 SUB DUP3 MSTORE PUSH1 0x20 DUP2 MSTORE PUSH1 0x20 ADD DUP1 PUSH32 0x4F776E61626C653A2063616C6C6572206973206E6F7420746865206F776E6572 DUP2 MSTORE POP PUSH1 0x20 ADD SWAP2 POP POP PUSH1 0x40 MLOAD DUP1 SWAP2 SUB SWAP1 REVERT JUMPDEST PUSH1 0x0 PUSH20 0xFFFFFFFFFFFFFFFFFFFFFFFFFFFFFFFFFFFFFFFF AND DUP2 PUSH20 0xFFFFFFFFFFFFFFFFFFFFFFFFFFFFFFFFFFFFFFFF AND EQ ISZERO PUSH2 0x4984 JUMPI PUSH1 0x40 MLOAD PUSH32 0x8C379A000000000000000000000000000000000000000000000000000000000 DUP2 MSTORE PUSH1 0x4 ADD DUP1 DUP1 PUSH1 0x20 ADD DUP3 DUP2 SUB DUP3 MSTORE PUSH1 0x26 DUP2 MSTORE PUSH1 0x20 ADD DUP1 PUSH2 0x5D3C PUSH1 0x26 SWAP2 CODECOPY PUSH1 0x40 ADD SWAP2 POP POP PUSH1 0x40 MLOAD DUP1 SWAP2 SUB SWAP1 REVERT JUMPDEST DUP1 PUSH20 0xFFFFFFFFFFFFFFFFFFFFFFFFFFFFFFFFFFFFFFFF AND PUSH1 0x5 PUSH1 0x1 SWAP1 SLOAD SWAP1 PUSH2 0x100 EXP SWAP1 DIV PUSH20 0xFFFFFFFFFFFFFFFFFFFFFFFFFFFFFFFFFFFFFFFF AND PUSH20 0xFFFFFFFFFFFFFFFFFFFFFFFFFFFFFFFFFFFFFFFF AND PUSH32 0x8BE0079C531659141344CD1FD0A4F28419497F9722A3DAAFE3B4186F6B6457E0 PUSH1 0x40 MLOAD PUSH1 0x40 MLOAD DUP1 SWAP2 SUB SWAP1 LOG3 DUP1 PUSH1 0x5 PUSH1 0x1 PUSH2 0x100 EXP DUP2 SLOAD DUP2 PUSH20 0xFFFFFFFFFFFFFFFFFFFFFFFFFFFFFFFFFFFFFFFF MUL NOT AND SWAP1 DUP4 PUSH20 0xFFFFFFFFFFFFFFFFFFFFFFFFFFFFFFFFFFFFFFFF AND MUL OR SWAP1 SSTORE POP POP JUMP JUMPDEST PUSH2 0x4A4C PUSH2 0x5954 JUMP JUMPDEST PUSH2 0x4A55 DUP2 PUSH2 0x58CB JUMP JUMPDEST POP JUMP JUMPDEST PUSH1 0x0 DUP1 PUSH2 0x4AF2 PUSH1 0x13 PUSH1 0x0 DUP7 PUSH20 0xFFFFFFFFFFFFFFFFFFFFFFFFFFFFFFFFFFFFFFFF AND PUSH20 0xFFFFFFFFFFFFFFFFFFFFFFFFFFFFFFFFFFFFFFFF AND DUP2 MSTORE PUSH1 0x20 ADD SWAP1 DUP2 MSTORE PUSH1 0x20 ADD PUSH1 0x0 KECCAK256 PUSH1 0x1 ADD SLOAD PUSH1 0x13 PUSH1 0x0 DUP8 PUSH20 0xFFFFFFFFFFFFFFFFFFFFFFFFFFFFFFFFFFFFFFFF AND PUSH20 0xFFFFFFFFFFFFFFFFFFFFFFFFFFFFFFFFFFFFFFFF AND DUP2 MSTORE PUSH1 0x20 ADD SWAP1 DUP2 MSTORE PUSH1 0x20 ADD PUSH1 0x0 KECCAK256 PUSH1 0x0 ADD SLOAD PUSH2 0x5224 SWAP1 SWAP2 SWAP1 PUSH4 0xFFFFFFFF AND JUMP JUMPDEST SWAP1 POP PUSH1 0x0 PUSH20 0xFFFFFFFFFFFFFFFFFFFFFFFFFFFFFFFFFFFFFFFF AND PUSH1 0x6 PUSH1 0x0 SWAP1 SLOAD SWAP1 PUSH2 0x100 EXP SWAP1 DIV PUSH20 0xFFFFFFFFFFFFFFFFFFFFFFFFFFFFFFFFFFFFFFFF AND PUSH20 0xFFFFFFFFFFFFFFFFFFFFFFFFFFFFFFFFFFFFFFFF AND EQ PUSH2 0x4C23 JUMPI PUSH2 0x4C20 PUSH1 0x6 PUSH1 0x0 SWAP1 SLOAD SWAP1 PUSH2 0x100 EXP SWAP1 DIV PUSH20 0xFFFFFFFFFFFFFFFFFFFFFFFFFFFFFFFFFFFFFFFF AND PUSH20 0xFFFFFFFFFFFFFFFFFFFFFFFFFFFFFFFFFFFFFFFF AND PUSH4 0xBA01ECEF DUP7 PUSH1 0x40 MLOAD DUP3 PUSH4 0xFFFFFFFF AND PUSH1 0xE0 SHL DUP2 MSTORE PUSH1 0x4 ADD DUP1 DUP3 PUSH20 0xFFFFFFFFFFFFFFFFFFFFFFFFFFFFFFFFFFFFFFFF AND DUP2 MSTORE PUSH1 0x20 ADD SWAP2 POP POP PUSH1 0x20 PUSH1 0x40 MLOAD DUP1 DUP4 SUB DUP2 DUP7 DUP1 EXTCODESIZE ISZERO DUP1 ISZERO PUSH2 0x4BD6 JUMPI PUSH1 0x0 DUP1 REVERT JUMPDEST POP GAS STATICCALL ISZERO DUP1 ISZERO PUSH2 0x4BEA JUMPI RETURNDATASIZE PUSH1 0x0 DUP1 RETURNDATACOPY RETURNDATASIZE PUSH1 0x0 REVERT JUMPDEST POP POP POP POP PUSH1 0x40 MLOAD RETURNDATASIZE PUSH1 0x20 DUP2 LT ISZERO PUSH2 0x4C00 JUMPI PUSH1 0x0 DUP1 REVERT JUMPDEST DUP2 ADD SWAP1 DUP1 DUP1 MLOAD SWAP1 PUSH1 0x20 ADD SWAP1 SWAP3 SWAP2 SWAP1 POP POP POP DUP3 PUSH2 0x5681 SWAP1 SWAP2 SWAP1 PUSH4 0xFFFFFFFF AND JUMP JUMPDEST SWAP1 POP JUMPDEST PUSH2 0x4CA1 PUSH8 0xDE0B6B3A7640000 PUSH2 0x4C93 PUSH2 0x4C84 PUSH1 0x12 PUSH1 0x0 DUP10 PUSH20 0xFFFFFFFFFFFFFFFFFFFFFFFFFFFFFFFFFFFFFFFF AND PUSH20 0xFFFFFFFFFFFFFFFFFFFFFFFFFFFFFFFFFFFFFFFF AND DUP2 MSTORE PUSH1 0x20 ADD SWAP1 DUP2 MSTORE PUSH1 0x20 ADD PUSH1 0x0 KECCAK256 SLOAD DUP8 PUSH2 0x5681 SWAP1 SWAP2 SWAP1 PUSH4 0xFFFFFFFF AND JUMP JUMPDEST DUP5 PUSH2 0x54B5 SWAP1 SWAP2 SWAP1 PUSH4 0xFFFFFFFF AND JUMP JUMPDEST PUSH2 0x553B SWAP1 SWAP2 SWAP1 PUSH4 0xFFFFFFFF AND JUMP JUMPDEST SWAP2 POP POP SWAP3 SWAP2 POP POP JUMP JUMPDEST PUSH1 0x0 CALLER SWAP1 POP SWAP1 JUMP JUMPDEST PUSH1 0x0 PUSH20 0xFFFFFFFFFFFFFFFFFFFFFFFFFFFFFFFFFFFFFFFF AND DUP4 PUSH20 0xFFFFFFFFFFFFFFFFFFFFFFFFFFFFFFFFFFFFFFFF AND EQ ISZERO PUSH2 0x4D38 JUMPI PUSH1 0x40 MLOAD PUSH32 0x8C379A000000000000000000000000000000000000000000000000000000000 DUP2 MSTORE PUSH1 0x4 ADD DUP1 DUP1 PUSH1 0x20 ADD DUP3 DUP2 SUB DUP3 MSTORE PUSH1 0x24 DUP2 MSTORE PUSH1 0x20 ADD DUP1 PUSH2 0x5E7F PUSH1 0x24 SWAP2 CODECOPY PUSH1 0x40 ADD SWAP2 POP POP PUSH1 0x40 MLOAD DUP1 SWAP2 SUB SWAP1 REVERT JUMPDEST PUSH1 0x0 PUSH20 0xFFFFFFFFFFFFFFFFFFFFFFFFFFFFFFFFFFFFFFFF AND DUP3 PUSH20 0xFFFFFFFFFFFFFFFFFFFFFFFFFFFFFFFFFFFFFFFF AND EQ ISZERO PUSH2 0x4DBE JUMPI PUSH1 0x40 MLOAD PUSH32 0x8C379A000000000000000000000000000000000000000000000000000000000 DUP2 MSTORE PUSH1 0x4 ADD DUP1 DUP1 PUSH1 0x20 ADD DUP3 DUP2 SUB DUP3 MSTORE PUSH1 0x22 DUP2 MSTORE PUSH1 0x20 ADD DUP1 PUSH2 0x5D62 PUSH1 0x22 SWAP2 CODECOPY PUSH1 0x40 ADD SWAP2 POP POP PUSH1 0x40 MLOAD DUP1 SWAP2 SUB SWAP1 REVERT JUMPDEST DUP1 PUSH1 0x1 PUSH1 0x0 DUP6 PUSH20 0xFFFFFFFFFFFFFFFFFFFFFFFFFFFFFFFFFFFFFFFF AND PUSH20 0xFFFFFFFFFFFFFFFFFFFFFFFFFFFFFFFFFFFFFFFF AND DUP2 MSTORE PUSH1 0x20 ADD SWAP1 DUP2 MSTORE PUSH1 0x20 ADD PUSH1 0x0 KECCAK256 PUSH1 0x0 DUP5 PUSH20 0xFFFFFFFFFFFFFFFFFFFFFFFFFFFFFFFFFFFFFFFF AND PUSH20 0xFFFFFFFFFFFFFFFFFFFFFFFFFFFFFFFFFFFFFFFF AND DUP2 MSTORE PUSH1 0x20 ADD SWAP1 DUP2 MSTORE PUSH1 0x20 ADD PUSH1 0x0 KECCAK256 DUP2 SWAP1 SSTORE POP DUP2 PUSH20 0xFFFFFFFFFFFFFFFFFFFFFFFFFFFFFFFFFFFFFFFF AND DUP4 PUSH20 0xFFFFFFFFFFFFFFFFFFFFFFFFFFFFFFFFFFFFFFFF AND PUSH32 0x8C5BE1E5EBEC7D5BD14F71427D1E84F3DD0314C0F7B2291E5B200AC8C7C3B925 DUP4 PUSH1 0x40 MLOAD DUP1 DUP3 DUP2 MSTORE PUSH1 0x20 ADD SWAP2 POP POP PUSH1 0x40 MLOAD DUP1 SWAP2 SUB SWAP1 LOG3 POP POP POP JUMP JUMPDEST PUSH1 0x0 PUSH20 0xFFFFFFFFFFFFFFFFFFFFFFFFFFFFFFFFFFFFFFFF AND DUP4 PUSH20 0xFFFFFFFFFFFFFFFFFFFFFFFFFFFFFFFFFFFFFFFF AND EQ ISZERO PUSH2 0x4F2F JUMPI PUSH1 0x40 MLOAD PUSH32 0x8C379A000000000000000000000000000000000000000000000000000000000 DUP2 MSTORE PUSH1 0x4 ADD DUP1 DUP1 PUSH1 0x20 ADD DUP3 DUP2 SUB DUP3 MSTORE PUSH1 0x25 DUP2 MSTORE PUSH1 0x20 ADD DUP1 PUSH2 0x5E5A PUSH1 0x25 SWAP2 CODECOPY PUSH1 0x40 ADD SWAP2 POP POP PUSH1 0x40 MLOAD DUP1 SWAP2 SUB SWAP1 REVERT JUMPDEST PUSH1 0x0 PUSH20 0xFFFFFFFFFFFFFFFFFFFFFFFFFFFFFFFFFFFFFFFF AND DUP3 PUSH20 0xFFFFFFFFFFFFFFFFFFFFFFFFFFFFFFFFFFFFFFFF AND EQ ISZERO PUSH2 0x4FB5 JUMPI PUSH1 0x40 MLOAD PUSH32 0x8C379A000000000000000000000000000000000000000000000000000000000 DUP2 MSTORE PUSH1 0x4 ADD DUP1 DUP1 PUSH1 0x20 ADD DUP3 DUP2 SUB DUP3 MSTORE PUSH1 0x23 DUP2 MSTORE PUSH1 0x20 ADD DUP1 PUSH2 0x5CF7 PUSH1 0x23 SWAP2 CODECOPY PUSH1 0x40 ADD SWAP2 POP POP PUSH1 0x40 MLOAD DUP1 SWAP2 SUB SWAP1 REVERT JUMPDEST PUSH2 0x4FC0 DUP4 DUP4 DUP4 PUSH2 0x5C46 JUMP JUMPDEST PUSH2 0x502B DUP2 PUSH1 0x40 MLOAD DUP1 PUSH1 0x60 ADD PUSH1 0x40 MSTORE DUP1 PUSH1 0x26 DUP2 MSTORE PUSH1 0x20 ADD PUSH2 0x5D84 PUSH1 0x26 SWAP2 CODECOPY PUSH1 0x0 DUP1 DUP8 PUSH20 0xFFFFFFFFFFFFFFFFFFFFFFFFFFFFFFFFFFFFFFFF AND PUSH20 0xFFFFFFFFFFFFFFFFFFFFFFFFFFFFFFFFFFFFFFFF AND DUP2 MSTORE PUSH1 0x20 ADD SWAP1 DUP2 MSTORE PUSH1 0x20 ADD PUSH1 0x0 KECCAK256 SLOAD PUSH2 0x516A SWAP1 SWAP3 SWAP2 SWAP1 PUSH4 0xFFFFFFFF AND JUMP JUMPDEST PUSH1 0x0 DUP1 DUP6 PUSH20 0xFFFFFFFFFFFFFFFFFFFFFFFFFFFFFFFFFFFFFFFF AND PUSH20 0xFFFFFFFFFFFFFFFFFFFFFFFFFFFFFFFFFFFFFFFF AND DUP2 MSTORE PUSH1 0x20 ADD SWAP1 DUP2 MSTORE PUSH1 0x20 ADD PUSH1 0x0 KECCAK256 DUP2 SWAP1 SSTORE POP PUSH2 0x50BE DUP2 PUSH1 0x0 DUP1 DUP6 PUSH20 0xFFFFFFFFFFFFFFFFFFFFFFFFFFFFFFFFFFFFFFFF AND PUSH20 0xFFFFFFFFFFFFFFFFFFFFFFFFFFFFFFFFFFFFFFFF AND DUP2 MSTORE PUSH1 0x20 ADD SWAP1 DUP2 MSTORE PUSH1 0x20 ADD PUSH1 0x0 KECCAK256 SLOAD PUSH2 0x5224 SWAP1 SWAP2 SWAP1 PUSH4 0xFFFFFFFF AND JUMP JUMPDEST PUSH1 0x0 DUP1 DUP5 PUSH20 0xFFFFFFFFFFFFFFFFFFFFFFFFFFFFFFFFFFFFFFFF AND PUSH20 0xFFFFFFFFFFFFFFFFFFFFFFFFFFFFFFFFFFFFFFFF AND DUP2 MSTORE PUSH1 0x20 ADD SWAP1 DUP2 MSTORE PUSH1 0x20 ADD PUSH1 0x0 KECCAK256 DUP2 SWAP1 SSTORE POP DUP2 PUSH20 0xFFFFFFFFFFFFFFFFFFFFFFFFFFFFFFFFFFFFFFFF AND DUP4 PUSH20 0xFFFFFFFFFFFFFFFFFFFFFFFFFFFFFFFFFFFFFFFF AND PUSH32 0xDDF252AD1BE2C89B69C2B068FC378DAA952BA7F163C4A11628F55A4DF523B3EF DUP4 PUSH1 0x40 MLOAD DUP1 DUP3 DUP2 MSTORE PUSH1 0x20 ADD SWAP2 POP POP PUSH1 0x40 MLOAD DUP1 SWAP2 SUB SWAP1 LOG3 POP POP POP JUMP JUMPDEST PUSH1 0x0 DUP4 DUP4 GT ISZERO DUP3 SWAP1 PUSH2 0x5217 JUMPI PUSH1 0x40 MLOAD PUSH32 0x8C379A000000000000000000000000000000000000000000000000000000000 DUP2 MSTORE PUSH1 0x4 ADD DUP1 DUP1 PUSH1 0x20 ADD DUP3 DUP2 SUB DUP3 MSTORE DUP4 DUP2 DUP2 MLOAD DUP2 MSTORE PUSH1 0x20 ADD SWAP2 POP DUP1 MLOAD SWAP1 PUSH1 0x20 ADD SWAP1 DUP1 DUP4 DUP4 PUSH1 0x0 JUMPDEST DUP4 DUP2 LT ISZERO PUSH2 0x51DC JUMPI DUP1 DUP3 ADD MLOAD DUP2 DUP5 ADD MSTORE PUSH1 0x20 DUP2 ADD SWAP1 POP PUSH2 0x51C1 JUMP JUMPDEST POP POP POP POP SWAP1 POP SWAP1 DUP2 ADD SWAP1 PUSH1 0x1F AND DUP1 ISZERO PUSH2 0x5209 JUMPI DUP1 DUP3 SUB DUP1 MLOAD PUSH1 0x1 DUP4 PUSH1 0x20 SUB PUSH2 0x100 EXP SUB NOT AND DUP2 MSTORE PUSH1 0x20 ADD SWAP2 POP JUMPDEST POP SWAP3 POP POP POP PUSH1 0x40 MLOAD DUP1 SWAP2 SUB SWAP1 REVERT JUMPDEST POP DUP3 DUP5 SUB SWAP1 POP SWAP4 SWAP3 POP POP POP JUMP JUMPDEST PUSH1 0x0 DUP1 DUP3 DUP5 ADD SWAP1 POP DUP4 DUP2 LT ISZERO PUSH2 0x52A2 JUMPI PUSH1 0x40 MLOAD PUSH32 0x8C379A000000000000000000000000000000000000000000000000000000000 DUP2 MSTORE PUSH1 0x4 ADD DUP1 DUP1 PUSH1 0x20 ADD DUP3 DUP2 SUB DUP3 MSTORE PUSH1 0x1B DUP2 MSTORE PUSH1 0x20 ADD DUP1 PUSH32 0x536166654D6174683A206164646974696F6E206F766572666C6F770000000000 DUP2 MSTORE POP PUSH1 0x20 ADD SWAP2 POP POP PUSH1 0x40 MLOAD DUP1 SWAP2 SUB SWAP1 REVERT JUMPDEST DUP1 SWAP2 POP POP SWAP3 SWAP2 POP POP JUMP JUMPDEST PUSH1 0x0 ISZERO ISZERO PUSH1 0x11 PUSH1 0x2 SWAP1 SLOAD SWAP1 PUSH2 0x100 EXP SWAP1 DIV PUSH1 0xFF AND ISZERO ISZERO EQ PUSH2 0x5335 JUMPI PUSH1 0x40 MLOAD PUSH32 0x8C379A000000000000000000000000000000000000000000000000000000000 DUP2 MSTORE PUSH1 0x4 ADD DUP1 DUP1 PUSH1 0x20 ADD DUP3 DUP2 SUB DUP3 MSTORE PUSH1 0x16 DUP2 MSTORE PUSH1 0x20 ADD DUP1 PUSH32 0x616C6C6F636174696F6E73207465726D696E6174656400000000000000000000 DUP2 MSTORE POP PUSH1 0x20 ADD SWAP2 POP POP PUSH1 0x40 MLOAD DUP1 SWAP2 SUB SWAP1 REVERT JUMPDEST PUSH1 0x0 PUSH20 0xFFFFFFFFFFFFFFFFFFFFFFFFFFFFFFFFFFFFFFFF AND PUSH1 0x6 PUSH1 0x0 SWAP1 SLOAD SWAP1 PUSH2 0x100 EXP SWAP1 DIV PUSH20 0xFFFFFFFFFFFFFFFFFFFFFFFFFFFFFFFFFFFFFFFF AND PUSH20 0xFFFFFFFFFFFFFFFFFFFFFFFFFFFFFFFFFFFFFFFF AND EQ PUSH2 0x54B3 JUMPI PUSH1 0x0 PUSH1 0x6 PUSH1 0x0 SWAP1 SLOAD SWAP1 PUSH2 0x100 EXP SWAP1 DIV PUSH20 0xFFFFFFFFFFFFFFFFFFFFFFFFFFFFFFFFFFFFFFFF AND PUSH20 0xFFFFFFFFFFFFFFFFFFFFFFFFFFFFFFFFFFFFFFFF AND PUSH4 0xFD726827 PUSH1 0x40 MLOAD DUP2 PUSH4 0xFFFFFFFF AND PUSH1 0xE0 SHL DUP2 MSTORE PUSH1 0x4 ADD PUSH1 0x20 PUSH1 0x40 MLOAD DUP1 DUP4 SUB DUP2 DUP7 DUP1 EXTCODESIZE ISZERO DUP1 ISZERO PUSH2 0x53F5 JUMPI PUSH1 0x0 DUP1 REVERT JUMPDEST POP GAS STATICCALL ISZERO DUP1 ISZERO PUSH2 0x5409 JUMPI RETURNDATASIZE PUSH1 0x0 DUP1 RETURNDATACOPY RETURNDATASIZE PUSH1 0x0 REVERT JUMPDEST POP POP POP POP PUSH1 0x40 MLOAD RETURNDATASIZE PUSH1 0x20 DUP2 LT ISZERO PUSH2 0x541F JUMPI PUSH1 0x0 DUP1 REVERT JUMPDEST DUP2 ADD SWAP1 DUP1 DUP1 MLOAD SWAP1 PUSH1 0x20 ADD SWAP1 SWAP3 SWAP2 SWAP1 POP POP POP SWAP1 POP PUSH1 0x0 DUP2 GT ISZERO PUSH2 0x54B1 JUMPI DUP1 TIMESTAMP LT PUSH2 0x54B0 JUMPI PUSH1 0x40 MLOAD PUSH32 0x8C379A000000000000000000000000000000000000000000000000000000000 DUP2 MSTORE PUSH1 0x4 ADD DUP1 DUP1 PUSH1 0x20 ADD DUP3 DUP2 SUB DUP3 MSTORE PUSH1 0x10 DUP2 MSTORE PUSH1 0x20 ADD DUP1 PUSH32 0x416C7265616479206C61756E6368656400000000000000000000000000000000 DUP2 MSTORE POP PUSH1 0x20 ADD SWAP2 POP POP PUSH1 0x40 MLOAD DUP1 SWAP2 SUB SWAP1 REVERT JUMPDEST JUMPDEST POP JUMPDEST JUMP JUMPDEST PUSH1 0x0 DUP1 DUP4 EQ ISZERO PUSH2 0x54C8 JUMPI PUSH1 0x0 SWAP1 POP PUSH2 0x5535 JUMP JUMPDEST PUSH1 0x0 DUP3 DUP5 MUL SWAP1 POP DUP3 DUP5 DUP3 DUP2 PUSH2 0x54D9 JUMPI INVALID JUMPDEST DIV EQ PUSH2 0x5530 JUMPI PUSH1 0x40 MLOAD PUSH32 0x8C379A000000000000000000000000000000000000000000000000000000000 DUP2 MSTORE PUSH1 0x4 ADD DUP1 DUP1 PUSH1 0x20 ADD DUP3 DUP2 SUB DUP3 MSTORE PUSH1 0x21 DUP2 MSTORE PUSH1 0x20 ADD DUP1 PUSH2 0x5DF0 PUSH1 0x21 SWAP2 CODECOPY PUSH1 0x40 ADD SWAP2 POP POP PUSH1 0x40 MLOAD DUP1 SWAP2 SUB SWAP1 REVERT JUMPDEST DUP1 SWAP2 POP POP JUMPDEST SWAP3 SWAP2 POP POP JUMP JUMPDEST PUSH1 0x0 DUP1 DUP3 GT PUSH2 0x55B2 JUMPI PUSH1 0x40 MLOAD PUSH32 0x8C379A000000000000000000000000000000000000000000000000000000000 DUP2 MSTORE PUSH1 0x4 ADD DUP1 DUP1 PUSH1 0x20 ADD DUP3 DUP2 SUB DUP3 MSTORE PUSH1 0x1A DUP2 MSTORE PUSH1 0x20 ADD DUP1 PUSH32 0x536166654D6174683A206469766973696F6E206279207A65726F000000000000 DUP2 MSTORE POP PUSH1 0x20 ADD SWAP2 POP POP PUSH1 0x40 MLOAD DUP1 SWAP2 SUB SWAP1 REVERT JUMPDEST DUP2 DUP4 DUP2 PUSH2 0x55BB JUMPI INVALID JUMPDEST DIV SWAP1 POP SWAP3 SWAP2 POP POP JUMP JUMPDEST PUSH1 0x0 PUSH2 0x55CF TIMESTAMP PUSH2 0x5BDD JUMP JUMPDEST PUSH1 0x0 PUSH1 0xD SLOAD SWAP1 POP PUSH2 0x55E0 DUP4 DUP3 PUSH2 0x4A58 JUMP JUMPDEST SWAP2 POP DUP1 PUSH1 0x12 PUSH1 0x0 DUP6 PUSH20 0xFFFFFFFFFFFFFFFFFFFFFFFFFFFFFFFFFFFFFFFF AND PUSH20 0xFFFFFFFFFFFFFFFFFFFFFFFFFFFFFFFFFFFFFFFF AND DUP2 MSTORE PUSH1 0x20 ADD SWAP1 DUP2 MSTORE PUSH1 0x20 ADD PUSH1 0x0 KECCAK256 DUP2 SWAP1 SSTORE POP PUSH32 0x85D06BBAFC9DFD05707E7A9369F98DCC505C964D1C4057022D7799AB84319F88 DUP4 DUP3 PUSH1 0x40 MLOAD DUP1 DUP4 PUSH20 0xFFFFFFFFFFFFFFFFFFFFFFFFFFFFFFFFFFFFFFFF AND DUP2 MSTORE PUSH1 0x20 ADD DUP3 DUP2 MSTORE PUSH1 0x20 ADD SWAP3 POP POP POP PUSH1 0x40 MLOAD DUP1 SWAP2 SUB SWAP1 LOG1 POP SWAP2 SWAP1 POP JUMP JUMPDEST PUSH1 0x0 DUP3 DUP3 GT ISZERO PUSH2 0x56F9 JUMPI PUSH1 0x40 MLOAD PUSH32 0x8C379A000000000000000000000000000000000000000000000000000000000 DUP2 MSTORE PUSH1 0x4 ADD DUP1 DUP1 PUSH1 0x20 ADD DUP3 DUP2 SUB DUP3 MSTORE PUSH1 0x1E DUP2 MSTORE PUSH1 0x20 ADD DUP1 PUSH32 0x536166654D6174683A207375627472616374696F6E206F766572666C6F770000 DUP2 MSTORE POP PUSH1 0x20 ADD SWAP2 POP POP PUSH1 0x40 MLOAD DUP1 SWAP2 SUB SWAP1 REVERT JUMPDEST DUP2 DUP4 SUB SWAP1 POP SWAP3 SWAP2 POP POP JUMP JUMPDEST PUSH1 0x0 PUSH20 0xFFFFFFFFFFFFFFFFFFFFFFFFFFFFFFFFFFFFFFFF AND DUP3 PUSH20 0xFFFFFFFFFFFFFFFFFFFFFFFFFFFFFFFFFFFFFFFF AND EQ ISZERO PUSH2 0x57A7 JUMPI PUSH1 0x40 MLOAD PUSH32 0x8C379A000000000000000000000000000000000000000000000000000000000 DUP2 MSTORE PUSH1 0x4 ADD DUP1 DUP1 PUSH1 0x20 ADD DUP3 DUP2 SUB DUP3 MSTORE PUSH1 0x1F DUP2 MSTORE PUSH1 0x20 ADD DUP1 PUSH32 0x45524332303A206D696E7420746F20746865207A65726F206164647265737300 DUP2 MSTORE POP PUSH1 0x20 ADD SWAP2 POP POP PUSH1 0x40 MLOAD DUP1 SWAP2 SUB SWAP1 REVERT JUMPDEST PUSH2 0x57B3 PUSH1 0x0 DUP4 DUP4 PUSH2 0x5C46 JUMP JUMPDEST PUSH2 0x57C8 DUP2 PUSH1 0x2 SLOAD PUSH2 0x5224 SWAP1 SWAP2 SWAP1 PUSH4 0xFFFFFFFF AND JUMP JUMPDEST PUSH1 0x2 DUP2 SWAP1 SSTORE POP PUSH2 0x581F DUP2 PUSH1 0x0 DUP1 DUP6 PUSH20 0xFFFFFFFFFFFFFFFFFFFFFFFFFFFFFFFFFFFFFFFF AND PUSH20 0xFFFFFFFFFFFFFFFFFFFFFFFFFFFFFFFFFFFFFFFF AND DUP2 MSTORE PUSH1 0x20 ADD SWAP1 DUP2 MSTORE PUSH1 0x20 ADD PUSH1 0x0 KECCAK256 SLOAD PUSH2 0x5224 SWAP1 SWAP2 SWAP1 PUSH4 0xFFFFFFFF AND JUMP JUMPDEST PUSH1 0x0 DUP1 DUP5 PUSH20 0xFFFFFFFFFFFFFFFFFFFFFFFFFFFFFFFFFFFFFFFF AND PUSH20 0xFFFFFFFFFFFFFFFFFFFFFFFFFFFFFFFFFFFFFFFF AND DUP2 MSTORE PUSH1 0x20 ADD SWAP1 DUP2 MSTORE PUSH1 0x20 ADD PUSH1 0x0 KECCAK256 DUP2 SWAP1 SSTORE POP DUP2 PUSH20 0xFFFFFFFFFFFFFFFFFFFFFFFFFFFFFFFFFFFFFFFF AND PUSH1 0x0 PUSH20 0xFFFFFFFFFFFFFFFFFFFFFFFFFFFFFFFFFFFFFFFF AND PUSH32 0xDDF252AD1BE2C89B69C2B068FC378DAA952BA7F163C4A11628F55A4DF523B3EF DUP4 PUSH1 0x40 MLOAD DUP1 DUP3 DUP2 MSTORE PUSH1 0x20 ADD SWAP2 POP POP PUSH1 0x40 MLOAD DUP1 SWAP2 SUB SWAP1 LOG3 POP POP JUMP JUMPDEST PUSH1 0x0 PUSH2 0x58FC PUSH1 0xE SLOAD PUSH2 0x58EE PUSH8 0xDE0B6B3A7640000 DUP6 PUSH2 0x54B5 SWAP1 SWAP2 SWAP1 PUSH4 0xFFFFFFFF AND JUMP JUMPDEST PUSH2 0x553B SWAP1 SWAP2 SWAP1 PUSH4 0xFFFFFFFF AND JUMP JUMPDEST SWAP1 POP PUSH2 0x5913 DUP2 PUSH1 0xD SLOAD PUSH2 0x5224 SWAP1 SWAP2 SWAP1 PUSH4 0xFFFFFFFF AND JUMP JUMPDEST PUSH1 0xD DUP2 SWAP1 SSTORE POP PUSH32 0xB0AD669B2C654A9352811BE6E1330332677E69548B033F2AF030E16697749EF6 DUP2 PUSH1 0x40 MLOAD DUP1 DUP3 DUP2 MSTORE PUSH1 0x20 ADD SWAP2 POP POP PUSH1 0x40 MLOAD DUP1 SWAP2 SUB SWAP1 LOG1 POP POP JUMP JUMPDEST PUSH1 0x6 PUSH1 0x0 SWAP1 SLOAD SWAP1 PUSH2 0x100 EXP SWAP1 DIV PUSH20 0xFFFFFFFFFFFFFFFFFFFFFFFFFFFFFFFFFFFFFFFF AND PUSH20 0xFFFFFFFFFFFFFFFFFFFFFFFFFFFFFFFFFFFFFFFF AND CALLER PUSH20 0xFFFFFFFFFFFFFFFFFFFFFFFFFFFFFFFFFFFFFFFF AND EQ PUSH2 0x5A17 JUMPI PUSH1 0x40 MLOAD PUSH32 0x8C379A000000000000000000000000000000000000000000000000000000000 DUP2 MSTORE PUSH1 0x4 ADD DUP1 DUP1 PUSH1 0x20 ADD DUP3 DUP2 SUB DUP3 MSTORE PUSH1 0x18 DUP2 MSTORE PUSH1 0x20 ADD DUP1 PUSH32 0x4F6E6C792076616C69646174656420496E746572666163650000000000000000 DUP2 MSTORE POP PUSH1 0x20 ADD SWAP2 POP POP PUSH1 0x40 MLOAD DUP1 SWAP2 SUB SWAP1 REVERT JUMPDEST JUMP JUMPDEST PUSH1 0x0 PUSH20 0xFFFFFFFFFFFFFFFFFFFFFFFFFFFFFFFFFFFFFFFF AND DUP3 PUSH20 0xFFFFFFFFFFFFFFFFFFFFFFFFFFFFFFFFFFFFFFFF AND EQ ISZERO PUSH2 0x5A9F JUMPI PUSH1 0x40 MLOAD PUSH32 0x8C379A000000000000000000000000000000000000000000000000000000000 DUP2 MSTORE PUSH1 0x4 ADD DUP1 DUP1 PUSH1 0x20 ADD DUP3 DUP2 SUB DUP3 MSTORE PUSH1 0x21 DUP2 MSTORE PUSH1 0x20 ADD DUP1 PUSH2 0x5E39 PUSH1 0x21 SWAP2 CODECOPY PUSH1 0x40 ADD SWAP2 POP POP PUSH1 0x40 MLOAD DUP1 SWAP2 SUB SWAP1 REVERT JUMPDEST PUSH2 0x5AAB DUP3 PUSH1 0x0 DUP4 PUSH2 0x5C46 JUMP JUMPDEST PUSH2 0x5B16 DUP2 PUSH1 0x40 MLOAD DUP1 PUSH1 0x60 ADD PUSH1 0x40 MSTORE DUP1 PUSH1 0x22 DUP2 MSTORE PUSH1 0x20 ADD PUSH2 0x5D1A PUSH1 0x22 SWAP2 CODECOPY PUSH1 0x0 DUP1 DUP7 PUSH20 0xFFFFFFFFFFFFFFFFFFFFFFFFFFFFFFFFFFFFFFFF AND PUSH20 0xFFFFFFFFFFFFFFFFFFFFFFFFFFFFFFFFFFFFFFFF AND DUP2 MSTORE PUSH1 0x20 ADD SWAP1 DUP2 MSTORE PUSH1 0x20 ADD PUSH1 0x0 KECCAK256 SLOAD PUSH2 0x516A SWAP1 SWAP3 SWAP2 SWAP1 PUSH4 0xFFFFFFFF AND JUMP JUMPDEST PUSH1 0x0 DUP1 DUP5 PUSH20 0xFFFFFFFFFFFFFFFFFFFFFFFFFFFFFFFFFFFFFFFF AND PUSH20 0xFFFFFFFFFFFFFFFFFFFFFFFFFFFFFFFFFFFFFFFF AND DUP2 MSTORE PUSH1 0x20 ADD SWAP1 DUP2 MSTORE PUSH1 0x20 ADD PUSH1 0x0 KECCAK256 DUP2 SWAP1 SSTORE POP PUSH2 0x5B6D DUP2 PUSH1 0x2 SLOAD PUSH2 0x5681 SWAP1 SWAP2 SWAP1 PUSH4 0xFFFFFFFF AND JUMP JUMPDEST PUSH1 0x2 DUP2 SWAP1 SSTORE POP PUSH1 0x0 PUSH20 0xFFFFFFFFFFFFFFFFFFFFFFFFFFFFFFFFFFFFFFFF AND DUP3 PUSH20 0xFFFFFFFFFFFFFFFFFFFFFFFFFFFFFFFFFFFFFFFF AND PUSH32 0xDDF252AD1BE2C89B69C2B068FC378DAA952BA7F163C4A11628F55A4DF523B3EF DUP4 PUSH1 0x40 MLOAD DUP1 DUP3 DUP2 MSTORE PUSH1 0x20 ADD SWAP2 POP POP PUSH1 0x40 MLOAD DUP1 SWAP2 SUB SWAP1 LOG3 POP POP JUMP JUMPDEST PUSH1 0x0 PUSH2 0x5BE8 DUP3 PUSH2 0x31B4 JUMP JUMPDEST SWAP1 POP PUSH1 0xD SLOAD DUP2 GT ISZERO PUSH2 0x5C42 JUMPI DUP1 PUSH1 0xD DUP2 SWAP1 SSTORE POP DUP2 PUSH1 0x9 DUP2 SWAP1 SSTORE POP PUSH32 0xE21837BEF7E64DAF0719E3E462B1A881D63C359C14C36A063143F9882A3A8525 DUP2 DUP4 PUSH1 0x40 MLOAD DUP1 DUP4 DUP2 MSTORE PUSH1 0x20 ADD DUP3 DUP2 MSTORE PUSH1 0x20 ADD SWAP3 POP POP POP PUSH1 0x40 MLOAD DUP1 SWAP2 SUB SWAP1 LOG1 JUMPDEST POP POP JUMP JUMPDEST POP POP POP JUMP JUMPDEST DUP3 DUP1 SLOAD PUSH1 0x1 DUP2 PUSH1 0x1 AND ISZERO PUSH2 0x100 MUL SUB AND PUSH1 0x2 SWAP1 DIV SWAP1 PUSH1 0x0 MSTORE PUSH1 0x20 PUSH1 0x0 KECCAK256 SWAP1 PUSH1 0x1F ADD PUSH1 0x20 SWAP1 DIV DUP2 ADD SWAP3 DUP3 PUSH2 0x5C81 JUMPI PUSH1 0x0 DUP6 SSTORE PUSH2 0x5CC8 JUMP JUMPDEST DUP3 PUSH1 0x1F LT PUSH2 0x5C9A JUMPI DUP1 MLOAD PUSH1 0xFF NOT AND DUP4 DUP1 ADD OR DUP6 SSTORE PUSH2 0x5CC8 JUMP JUMPDEST DUP3 DUP1 ADD PUSH1 0x1 ADD DUP6 SSTORE DUP3 ISZERO PUSH2 0x5CC8 JUMPI SWAP2 DUP3 ADD JUMPDEST DUP3 DUP2 GT ISZERO PUSH2 0x5CC7 JUMPI DUP3 MLOAD DUP3 SSTORE SWAP2 PUSH1 0x20 ADD SWAP2 SWAP1 PUSH1 0x1 ADD SWAP1 PUSH2 0x5CAC JUMP JUMPDEST JUMPDEST POP SWAP1 POP PUSH2 0x5CD5 SWAP2 SWAP1 PUSH2 0x5CD9 JUMP JUMPDEST POP SWAP1 JUMP JUMPDEST JUMPDEST DUP1 DUP3 GT ISZERO PUSH2 0x5CF2 JUMPI PUSH1 0x0 DUP2 PUSH1 0x0 SWAP1 SSTORE POP PUSH1 0x1 ADD PUSH2 0x5CDA JUMP JUMPDEST POP SWAP1 JUMP INVALID GASLIMIT MSTORE NUMBER ORIGIN ADDRESS GASPRICE KECCAK256 PUSH21 0x72616E7366657220746F20746865207A65726F2061 PUSH5 0x6472657373 GASLIMIT MSTORE NUMBER ORIGIN ADDRESS GASPRICE KECCAK256 PUSH3 0x75726E KECCAK256 PUSH2 0x6D6F PUSH22 0x6E7420657863656564732062616C616E63654F776E61 PUSH3 0x6C653A KECCAK256 PUSH15 0x6577206F776E657220697320746865 KECCAK256 PUSH27 0x65726F206164647265737345524332303A20617070726F76652074 PUSH16 0x20746865207A65726F20616464726573 PUSH20 0x45524332303A207472616E7366657220616D6F75 PUSH15 0x7420657863656564732062616C616E PUSH4 0x654D6178 KECCAK256 PUSH10 0x6E697469616C20746F6B PUSH6 0x6E20616C6C6F PUSH4 0x6174696F PUSH15 0x20657863656564656443757272656E PUSH21 0x207374616B696E672063616D706169676E206E6F74 KECCAK256 PUSH16 0x766572536166654D6174683A206D756C PUSH21 0x69706C69636174696F6E206F766572666C6F774552 NUMBER ORIGIN ADDRESS GASPRICE KECCAK256 PUSH21 0x72616E7366657220616D6F756E7420657863656564 PUSH20 0x20616C6C6F77616E636545524332303A20627572 PUSH15 0x2066726F6D20746865207A65726F20 PUSH2 0x6464 PUSH19 0x65737345524332303A207472616E7366657220 PUSH7 0x726F6D20746865 KECCAK256 PUSH27 0x65726F206164647265737345524332303A20617070726F76652066 PUSH19 0x6F6D20746865207A65726F2061646472657373 DIFFICULTY PUSH10 0x66666572656E7420616D PUSH16 0x756E74206F662076616C756573202620 PUSH22 0x7365727345524332303A206465637265617365642061 PUSH13 0x6C6F77616E63652062656C6F77 KECCAK256 PUSH27 0x65726FA264697066735822122030166ED60A70332F86FFA01A60E6 0xE8 GASLIMIT 0xCC PUSH20 0xC36593A579174957DB2024531F1064736F6C6343 STOP SMOD MOD STOP CALLER 0x4D PUSH2 0x7820 PUSH24 0x69746864726177616C20666565206D757374206265203C20 BALANCE ADDRESS ADDRESS 0x25 0x49 PUSH7 0x206E6F20766573 PUSH21 0x696E672C20616C6C20746F6B656E7320746F206265 KECCAK256 PUSH19 0x656C6561736564206174206C61756E63680000 "
    },
    "gasEstimates": {
      "creation": {
        "codeDepositCost": "4870200",
        "executionCost": "infinite",
        "totalCost": "infinite"
      },
      "external": {
        "allocateLTByOwner(address[],uint256[],bool)": "infinite",
        "allowance(address,address)": "1388",
        "approve(address,uint256)": "infinite",
        "areAllocationsTerminated()": "1231",
        "areUserFunctionsDisabled()": "1115",
        "balanceOf(address)": "1264",
        "burnByInterfaceProjectToken(uint256)": "infinite",
        "campaignStakingRewards()": "1075",
        "changeFundraisingStatus()": "infinite",
        "claimedRewardPerShare1e18(address)": "1259",
        "currentRewardPerShare1e18()": "1116",
        "decimals()": "1168",
        "decreaseAllowance(address,uint256)": "infinite",
        "depositLT(uint256)": "infinite",
        "dischargeUserTokens(address,uint256)": "infinite",
        "durationCliff()": "infinite",
        "durationLinearVesting()": "infinite",
        "enableOrDisableUserFunctions()": "24081",
        "ensureUserFunctionsAreNotDisabled()": "1219",
        "fractionInitialUnlockPerThousand()": "infinite",
        "fundraisingToken()": "1160",
        "fundraisingTokenSymbol()": "infinite",
        "getHodlRewards(address,uint256)": "infinite",
        "getUpdatedRewardPerShare1e18(uint256)": "infinite",
        "getUserDateOfPartiallyChargedToken(address)": "1293",
        "getUserFullyChargedBalanceLiquiToken(address)": "1291",
        "getUserPartiallyChargedBalanceLiquiToken(address)": "1291",
        "increaseAllowance(address,uint256)": "infinite",
        "interfaceProjectToken()": "1203",
        "investByUser(uint256)": "infinite",
        "isFundraisingActive()": "1232",
        "isInterfaceProjectTokenLocked()": "1165",
        "lockInterfaceProjectToken()": "22963",
        "maxClaimFeesPerThousandForPT()": "infinite",
        "maxInitialTokenAllocation()": "infinite",
        "maxStakingAPR()": "infinite",
        "maxStakingTokenAmount()": "infinite",
        "maxWithdrawFeesPerThousandForLT()": "infinite",
        "mintByInterfaceProjectToken(uint256)": "infinite",
        "multiplier1K()": "360",
        "name()": "infinite",
        "owner()": "1217",
        "priceTokenPer1e18()": "1071",
        "ratioFeesToRewardHodlersPerThousand()": "1072",
        "rechargeUserTokens(address,uint256,uint256,uint256)": "infinite",
        "renounceOwnership()": "24572",
        "setFundraisingConditions(address,uint256)": "infinite",
        "setInterfaceProjectToken(address)": "24256",
        "setStakingRewards(uint256,uint256,uint256)": "infinite",
        "stakedLT()": "1072",
        "stakingDateLastCheckpoint()": "1117",
        "stakingDuration()": "1074",
        "stakingStartDate()": "1138",
        "symbol()": "infinite",
        "terminateAllocations()": "22895",
        "totalStakingRewards()": "1073",
        "totalSupply()": "1082",
        "totalTokenAllocated()": "1095",
        "transfer(address,uint256)": "infinite",
        "transferFrom(address,address,uint256)": "infinite",
        "transferOwnership(address)": "infinite",
        "updateRatioFeesToRewardHodlers(uint256)": "22437",
        "updateRewardsAfterFeesPaymentByInterface(uint256)": "infinite",
        "updateStakingAndGetHodlRewardsByInterfacePT(address)": "infinite",
        "updateWithdrawalFeesForLT(uint256)": "infinite",
        "userLiquiToken(address)": "2916",
        "withdrawFeesPerThousandForLT()": "1095",
        "withdrawLT(uint256)": "infinite"
      },
      "internal": {
        "checkAllocationsNotTerminatedAndProjectNotYetLaunched()": "infinite",
        "ensureOnlyInterfaceProjectToken()": "infinite",
        "updateRewardsAfterFeesPayment(uint256)": "infinite",
        "updateStakingAndGetHodlRewards(address)": "infinite",
        "updateStakingParameters(uint256)": "infinite"
      }
    },
    "methodIdentifiers": {
      "allocateLTByOwner(address[],uint256[],bool)": "df910817",
      "allowance(address,address)": "dd62ed3e",
      "approve(address,uint256)": "095ea7b3",
      "areAllocationsTerminated()": "9863d644",
      "areUserFunctionsDisabled()": "63cf3cff",
      "balanceOf(address)": "70a08231",
      "burnByInterfaceProjectToken(uint256)": "6d69847d",
      "campaignStakingRewards()": "03ff8e88",
      "changeFundraisingStatus()": "acdeb00b",
      "claimedRewardPerShare1e18(address)": "95230a80",
      "currentRewardPerShare1e18()": "e0d0c567",
      "decimals()": "313ce567",
      "decreaseAllowance(address,uint256)": "a457c2d7",
      "depositLT(uint256)": "d49d18d6",
      "dischargeUserTokens(address,uint256)": "82af7d39",
      "durationCliff()": "3f2b437d",
      "durationLinearVesting()": "e54dd98a",
      "enableOrDisableUserFunctions()": "a74536e0",
      "ensureUserFunctionsAreNotDisabled()": "1f93abd4",
      "fractionInitialUnlockPerThousand()": "2945ac68",
      "fundraisingToken()": "50e26b5f",
      "fundraisingTokenSymbol()": "3caaddc8",
      "getHodlRewards(address,uint256)": "fb3da545",
      "getUpdatedRewardPerShare1e18(uint256)": "908a6bf0",
      "getUserDateOfPartiallyChargedToken(address)": "305e2daf",
      "getUserFullyChargedBalanceLiquiToken(address)": "7561ea9a",
      "getUserPartiallyChargedBalanceLiquiToken(address)": "9f65ffb0",
      "increaseAllowance(address,uint256)": "39509351",
      "interfaceProjectToken()": "3e332f16",
      "investByUser(uint256)": "3cbaa7dd",
      "isFundraisingActive()": "37610c0e",
      "isInterfaceProjectTokenLocked()": "8a1e4393",
      "lockInterfaceProjectToken()": "5798b1ff",
      "maxClaimFeesPerThousandForPT()": "78e104da",
      "maxInitialTokenAllocation()": "86982e61",
      "maxStakingAPR()": "1387520a",
      "maxStakingTokenAmount()": "82fb82f5",
      "maxWithdrawFeesPerThousandForLT()": "8aa03a3c",
      "mintByInterfaceProjectToken(uint256)": "da3a5936",
      "multiplier1K()": "7e267f39",
      "name()": "06fdde03",
      "owner()": "8da5cb5b",
      "priceTokenPer1e18()": "ed17b25c",
      "ratioFeesToRewardHodlersPerThousand()": "74ddcd1d",
      "rechargeUserTokens(address,uint256,uint256,uint256)": "740c3495",
      "renounceOwnership()": "715018a6",
      "setFundraisingConditions(address,uint256)": "3ba570ba",
      "setInterfaceProjectToken(address)": "dccdc995",
      "setStakingRewards(uint256,uint256,uint256)": "a1b0c412",
      "stakedLT()": "c96877a2",
      "stakingDateLastCheckpoint()": "6c1f89ed",
      "stakingDuration()": "8005a7de",
      "stakingStartDate()": "7ccf0226",
      "symbol()": "95d89b41",
      "terminateAllocations()": "9c3bcbb1",
      "totalStakingRewards()": "93ef357a",
      "totalSupply()": "18160ddd",
      "totalTokenAllocated()": "6a4bd5a6",
      "transfer(address,uint256)": "a9059cbb",
      "transferFrom(address,address,uint256)": "23b872dd",
      "transferOwnership(address)": "f2fde38b",
      "updateRatioFeesToRewardHodlers(uint256)": "72b990b5",
      "updateRewardsAfterFeesPaymentByInterface(uint256)": "f331a867",
      "updateStakingAndGetHodlRewardsByInterfacePT(address)": "efb5c2f3",
      "updateWithdrawalFeesForLT(uint256)": "bf777f82",
      "userLiquiToken(address)": "30400a86",
      "withdrawFeesPerThousandForLT()": "abfdce2c",
      "withdrawLT(uint256)": "483f3ac7"
    }
  },
  "storageLayout": {
    "storage": [
      {
        "astId": 3609,
        "contract": "LiquidityToken.sol:LiquidityToken",
        "label": "_balances",
        "offset": 0,
        "slot": "0",
        "type": "t_mapping(t_address,t_uint256)"
      },
      {
        "astId": 3615,
        "contract": "LiquidityToken.sol:LiquidityToken",
        "label": "_allowances",
        "offset": 0,
        "slot": "1",
        "type": "t_mapping(t_address,t_mapping(t_address,t_uint256))"
      },
      {
        "astId": 3617,
        "contract": "LiquidityToken.sol:LiquidityToken",
        "label": "_totalSupply",
        "offset": 0,
        "slot": "2",
        "type": "t_uint256"
      },
      {
        "astId": 3619,
        "contract": "LiquidityToken.sol:LiquidityToken",
        "label": "_name",
        "offset": 0,
        "slot": "3",
        "type": "t_string_storage"
      },
      {
        "astId": 3621,
        "contract": "LiquidityToken.sol:LiquidityToken",
        "label": "_symbol",
        "offset": 0,
        "slot": "4",
        "type": "t_string_storage"
      },
      {
        "astId": 3623,
        "contract": "LiquidityToken.sol:LiquidityToken",
        "label": "_decimals",
        "offset": 0,
        "slot": "5",
        "type": "t_uint8"
      },
      {
        "astId": 3100,
        "contract": "LiquidityToken.sol:LiquidityToken",
        "label": "_owner",
        "offset": 1,
        "slot": "5",
        "type": "t_address"
      },
      {
        "astId": 1364,
        "contract": "LiquidityToken.sol:LiquidityToken",
        "label": "interfaceProjectToken",
        "offset": 0,
        "slot": "6",
        "type": "t_contract(InterfaceProjectToken)1349"
      },
      {
        "astId": 1369,
        "contract": "LiquidityToken.sol:LiquidityToken",
        "label": "stakingStartDate",
        "offset": 0,
        "slot": "7",
        "type": "t_uint256"
      },
      {
        "astId": 1371,
        "contract": "LiquidityToken.sol:LiquidityToken",
        "label": "stakingDuration",
        "offset": 0,
        "slot": "8",
        "type": "t_uint256"
      },
      {
        "astId": 1373,
        "contract": "LiquidityToken.sol:LiquidityToken",
        "label": "stakingDateLastCheckpoint",
        "offset": 0,
        "slot": "9",
        "type": "t_uint256"
      },
      {
        "astId": 1375,
        "contract": "LiquidityToken.sol:LiquidityToken",
        "label": "campaignStakingRewards",
        "offset": 0,
        "slot": "10",
        "type": "t_uint256"
      },
      {
        "astId": 1377,
        "contract": "LiquidityToken.sol:LiquidityToken",
        "label": "totalStakingRewards",
        "offset": 0,
        "slot": "11",
        "type": "t_uint256"
      },
      {
        "astId": 1380,
        "contract": "LiquidityToken.sol:LiquidityToken",
        "label": "ratioFeesToRewardHodlersPerThousand",
        "offset": 0,
        "slot": "12",
        "type": "t_uint256"
      },
      {
        "astId": 1382,
        "contract": "LiquidityToken.sol:LiquidityToken",
        "label": "currentRewardPerShare1e18",
        "offset": 0,
        "slot": "13",
        "type": "t_uint256"
      },
      {
        "astId": 1384,
        "contract": "LiquidityToken.sol:LiquidityToken",
        "label": "stakedLT",
        "offset": 0,
        "slot": "14",
        "type": "t_uint256"
      },
      {
        "astId": 1386,
        "contract": "LiquidityToken.sol:LiquidityToken",
        "label": "totalTokenAllocated",
        "offset": 0,
        "slot": "15",
        "type": "t_uint256"
      },
      {
        "astId": 1388,
        "contract": "LiquidityToken.sol:LiquidityToken",
        "label": "withdrawFeesPerThousandForLT",
        "offset": 0,
        "slot": "16",
        "type": "t_uint256"
      },
      {
        "astId": 1390,
        "contract": "LiquidityToken.sol:LiquidityToken",
        "label": "areUserFunctionsDisabled",
        "offset": 0,
        "slot": "17",
        "type": "t_bool"
      },
      {
        "astId": 1392,
        "contract": "LiquidityToken.sol:LiquidityToken",
        "label": "isInterfaceProjectTokenLocked",
        "offset": 1,
        "slot": "17",
        "type": "t_bool"
      },
      {
        "astId": 1394,
        "contract": "LiquidityToken.sol:LiquidityToken",
        "label": "areAllocationsTerminated",
        "offset": 2,
        "slot": "17",
        "type": "t_bool"
      },
      {
        "astId": 1414,
        "contract": "LiquidityToken.sol:LiquidityToken",
        "label": "claimedRewardPerShare1e18",
        "offset": 0,
        "slot": "18",
        "type": "t_mapping(t_address,t_uint256)"
      },
      {
        "astId": 1425,
        "contract": "LiquidityToken.sol:LiquidityToken",
        "label": "userLiquiToken",
        "offset": 0,
        "slot": "19",
        "type": "t_mapping(t_address,t_struct(LiquiToken)1421_storage)"
      },
      {
        "astId": 1433,
        "contract": "LiquidityToken.sol:LiquidityToken",
        "label": "fundraisingTokenSymbol",
        "offset": 0,
        "slot": "20",
        "type": "t_string_storage"
      },
      {
        "astId": 1435,
        "contract": "LiquidityToken.sol:LiquidityToken",
        "label": "priceTokenPer1e18",
        "offset": 0,
        "slot": "21",
        "type": "t_uint256"
      },
      {
        "astId": 1437,
        "contract": "LiquidityToken.sol:LiquidityToken",
        "label": "fundraisingToken",
        "offset": 0,
        "slot": "22",
        "type": "t_address"
      },
      {
        "astId": 1439,
        "contract": "LiquidityToken.sol:LiquidityToken",
        "label": "isFundraisingActive",
        "offset": 20,
        "slot": "22",
        "type": "t_bool"
      }
    ],
    "types": {
      "t_address": {
        "encoding": "inplace",
        "label": "address",
        "numberOfBytes": "20"
      },
      "t_bool": {
        "encoding": "inplace",
        "label": "bool",
        "numberOfBytes": "1"
      },
      "t_contract(InterfaceProjectToken)1349": {
        "encoding": "inplace",
        "label": "contract InterfaceProjectToken",
        "numberOfBytes": "20"
      },
      "t_mapping(t_address,t_mapping(t_address,t_uint256))": {
        "encoding": "mapping",
        "key": "t_address",
        "label": "mapping(address => mapping(address => uint256))",
        "numberOfBytes": "32",
        "value": "t_mapping(t_address,t_uint256)"
      },
      "t_mapping(t_address,t_struct(LiquiToken)1421_storage)": {
        "encoding": "mapping",
        "key": "t_address",
        "label": "mapping(address => struct LiquidityToken.LiquiToken)",
        "numberOfBytes": "32",
        "value": "t_struct(LiquiToken)1421_storage"
      },
      "t_mapping(t_address,t_uint256)": {
        "encoding": "mapping",
        "key": "t_address",
        "label": "mapping(address => uint256)",
        "numberOfBytes": "32",
        "value": "t_uint256"
      },
      "t_string_storage": {
        "encoding": "bytes",
        "label": "string",
        "numberOfBytes": "32"
      },
      "t_struct(LiquiToken)1421_storage": {
        "encoding": "inplace",
        "label": "struct LiquidityToken.LiquiToken",
        "members": [
          {
            "astId": 1416,
            "contract": "LiquidityToken.sol:LiquidityToken",
            "label": "fullyChargedBalance",
            "offset": 0,
            "slot": "0",
            "type": "t_uint256"
          },
          {
            "astId": 1418,
            "contract": "LiquidityToken.sol:LiquidityToken",
            "label": "partiallyChargedBalance",
            "offset": 0,
            "slot": "1",
            "type": "t_uint256"
          },
          {
            "astId": 1420,
            "contract": "LiquidityToken.sol:LiquidityToken",
            "label": "dateOfPartiallyCharged",
            "offset": 0,
            "slot": "2",
            "type": "t_uint256"
          }
        ],
        "numberOfBytes": "96"
      },
      "t_uint256": {
        "encoding": "inplace",
        "label": "uint256",
        "numberOfBytes": "32"
      },
      "t_uint8": {
        "encoding": "inplace",
        "label": "uint8",
        "numberOfBytes": "1"
      }
    }
  },
  "userdoc": {
    "events": {
      "FundraisingConditionsSet(address,string,uint256)": {
        "notice": "Events ///////////////////////////////////////////////////////////////////"
      }
    },
    "kind": "user",
    "methods": {},
    "version": 1
  }
}