{
  "abi": [
    {
      "inputs": [
        {
          "internalType": "string",
          "name": "_name",
          "type": "string"
        },
        {
          "internalType": "string",
          "name": "_symbol",
          "type": "string"
        },
        {
          "internalType": "uint256",
          "name": "_fractionInitialUnlockPerThousand",
          "type": "uint256"
        },
        {
          "internalType": "uint256",
          "name": "_durationCliff",
          "type": "uint256"
        },
        {
          "internalType": "uint256",
          "name": "_durationLinearVesting",
          "type": "uint256"
        },
        {
          "internalType": "uint256",
          "name": "_maxWithdrawFeesPerThousandForLT",
          "type": "uint256"
        },
        {
          "internalType": "uint256",
          "name": "_maxClaimFeesPerThousandForPT",
          "type": "uint256"
        },
        {
          "internalType": "uint256",
          "name": "_maxStakingAPR",
          "type": "uint256"
        },
        {
          "internalType": "uint256",
          "name": "_maxStakingTokenAmount",
          "type": "uint256"
        },
        {
          "internalType": "uint256",
          "name": "_maxInitialTokenAllocation",
          "type": "uint256"
        }
      ],
      "stateMutability": "nonpayable",
      "type": "constructor"
    },
    {
      "anonymous": false,
      "inputs": [],
      "name": "AllocationsAreTerminated",
      "type": "event"
    },
    {
      "anonymous": false,
      "inputs": [
        {
          "indexed": true,
          "internalType": "address",
          "name": "owner",
          "type": "address"
        },
        {
          "indexed": true,
          "internalType": "address",
          "name": "spender",
          "type": "address"
        },
        {
          "indexed": false,
          "internalType": "uint256",
          "name": "value",
          "type": "uint256"
        }
      ],
      "name": "Approval",
      "type": "event"
    },
    {
      "anonymous": false,
      "inputs": [
        {
          "indexed": false,
          "internalType": "address",
          "name": "_user",
          "type": "address"
        },
        {
          "indexed": false,
          "internalType": "uint256",
          "name": "_value",
          "type": "uint256"
        }
      ],
      "name": "ClaimedRewardPerShareUpdated",
      "type": "event"
    },
    {
      "anonymous": false,
      "inputs": [
        {
          "indexed": false,
          "internalType": "uint256",
          "name": "_rewardPerShare1e18",
          "type": "uint256"
        },
        {
          "indexed": false,
          "internalType": "uint256",
          "name": "_blockTime",
          "type": "uint256"
        }
      ],
      "name": "CurrentRewardPerShareAndStakingCheckpointUpdated",
      "type": "event"
    },
    {
      "anonymous": false,
      "inputs": [
        {
          "indexed": false,
          "internalType": "address",
          "name": "_user",
          "type": "address"
        },
        {
          "indexed": false,
          "internalType": "uint256",
          "name": "_value",
          "type": "uint256"
        }
      ],
      "name": "DecreasedFullyChargedBalanceAndStakedLT",
      "type": "event"
    },
    {
      "anonymous": false,
      "inputs": [
        {
          "indexed": false,
          "internalType": "address",
          "name": "_user",
          "type": "address"
        },
        {
          "indexed": false,
          "internalType": "uint256",
          "name": "_value",
          "type": "uint256"
        }
      ],
      "name": "DecreasedPartiallyChargedBalance",
      "type": "event"
    },
    {
      "anonymous": false,
      "inputs": [
        {
          "indexed": false,
          "internalType": "uint256",
          "name": "_value",
          "type": "uint256"
        }
      ],
      "name": "IncreasedCurrentRewardPerShare",
      "type": "event"
    },
    {
      "anonymous": false,
      "inputs": [
        {
          "indexed": false,
          "internalType": "address",
          "name": "_user",
          "type": "address"
        },
        {
          "indexed": false,
          "internalType": "uint256",
          "name": "_value",
          "type": "uint256"
        }
      ],
      "name": "IncreasedFullyChargedBalance",
      "type": "event"
    },
    {
      "anonymous": false,
      "inputs": [
        {
          "indexed": false,
          "internalType": "uint256",
          "name": "_value",
          "type": "uint256"
        }
      ],
      "name": "IncreasedStakedLT",
      "type": "event"
    },
    {
      "anonymous": false,
      "inputs": [
        {
          "indexed": false,
          "internalType": "uint256",
          "name": "_value",
          "type": "uint256"
        }
      ],
      "name": "IncreasedTotalTokenAllocated",
      "type": "event"
    },
    {
      "anonymous": false,
      "inputs": [],
      "name": "InterfaceProjectTokenIsLocked",
      "type": "event"
    },
    {
      "anonymous": false,
      "inputs": [
        {
          "indexed": false,
          "internalType": "contract InterfaceProjectToken",
          "name": "_interfaceProjectToken",
          "type": "address"
        }
      ],
      "name": "InterfaceProjectTokenSet",
      "type": "event"
    },
    {
      "anonymous": false,
      "inputs": [
        {
          "indexed": false,
          "internalType": "address",
          "name": "_user",
          "type": "address"
        },
        {
          "indexed": false,
          "internalType": "uint256",
          "name": "_value",
          "type": "uint256"
        },
        {
          "indexed": false,
          "internalType": "uint256",
          "name": "_hodlRewards",
          "type": "uint256"
        },
        {
          "indexed": false,
          "internalType": "bool",
          "name": "_isAllocationStaked",
          "type": "bool"
        }
      ],
      "name": "LTAllocatedByOwner",
      "type": "event"
    },
    {
      "anonymous": false,
      "inputs": [
        {
          "indexed": false,
          "internalType": "address",
          "name": "_user",
          "type": "address"
        },
        {
          "indexed": false,
          "internalType": "uint256",
          "name": "_value",
          "type": "uint256"
        },
        {
          "indexed": false,
          "internalType": "uint256",
          "name": "_hodlRewards",
          "type": "uint256"
        }
      ],
      "name": "LTDeposited",
      "type": "event"
    },
    {
      "anonymous": false,
      "inputs": [
        {
          "indexed": false,
          "internalType": "address",
          "name": "_user",
          "type": "address"
        },
        {
          "indexed": false,
          "internalType": "uint256",
          "name": "_value",
          "type": "uint256"
        },
        {
          "indexed": false,
          "internalType": "uint256",
          "name": "_totalFees",
          "type": "uint256"
        },
        {
          "indexed": false,
          "internalType": "uint256",
          "name": "_feesToRewardHodlers",
          "type": "uint256"
        },
        {
          "indexed": false,
          "internalType": "uint256",
          "name": "_hodlRewards",
          "type": "uint256"
        }
      ],
      "name": "LTReceived",
      "type": "event"
    },
    {
      "anonymous": false,
      "inputs": [
        {
          "indexed": true,
          "internalType": "address",
          "name": "previousOwner",
          "type": "address"
        },
        {
          "indexed": true,
          "internalType": "address",
          "name": "newOwner",
          "type": "address"
        }
      ],
      "name": "OwnershipTransferred",
      "type": "event"
    },
    {
      "anonymous": false,
      "inputs": [
        {
          "indexed": false,
          "internalType": "uint256",
          "name": "_value",
          "type": "uint256"
        }
      ],
      "name": "RatioFeesToRewardHodlersUpdated",
      "type": "event"
    },
    {
      "anonymous": false,
      "inputs": [
        {
          "indexed": false,
          "internalType": "uint256",
          "name": "_startDate",
          "type": "uint256"
        },
        {
          "indexed": false,
          "internalType": "uint256",
          "name": "_duration",
          "type": "uint256"
        },
        {
          "indexed": false,
          "internalType": "uint256",
          "name": "_rewards",
          "type": "uint256"
        }
      ],
      "name": "StakingCampaignCreated",
      "type": "event"
    },
    {
      "anonymous": false,
      "inputs": [
        {
          "indexed": false,
          "internalType": "address",
          "name": "_user",
          "type": "address"
        },
        {
          "indexed": false,
          "internalType": "uint256",
          "name": "_partiallyChargedBalance",
          "type": "uint256"
        }
      ],
      "name": "TokensDischarged",
      "type": "event"
    },
    {
      "anonymous": false,
      "inputs": [
        {
          "indexed": true,
          "internalType": "address",
          "name": "from",
          "type": "address"
        },
        {
          "indexed": true,
          "internalType": "address",
          "name": "to",
          "type": "address"
        },
        {
          "indexed": false,
          "internalType": "uint256",
          "name": "value",
          "type": "uint256"
        }
      ],
      "name": "Transfer",
      "type": "event"
    },
    {
      "anonymous": false,
      "inputs": [
        {
          "indexed": false,
          "internalType": "uint256",
          "name": "_blockTime",
          "type": "uint256"
        },
        {
          "indexed": false,
          "internalType": "uint256",
          "name": "_value",
          "type": "uint256"
        }
      ],
      "name": "UpdatedDateOfPartiallyChargedAndDecreasedStakedLT",
      "type": "event"
    },
    {
      "anonymous": false,
      "inputs": [
        {
          "indexed": false,
          "internalType": "bool",
          "name": "_areUserFunctionsDisabled",
          "type": "bool"
        }
      ],
      "name": "UserFunctionsAreDisabled",
      "type": "event"
    },
    {
      "anonymous": false,
      "inputs": [
        {
          "indexed": false,
          "internalType": "uint256",
          "name": "_value",
          "type": "uint256"
        }
      ],
      "name": "WithdrawalFeesUpdated",
      "type": "event"
    },
    {
      "inputs": [
        {
          "internalType": "address[]",
          "name": "_users",
          "type": "address[]"
        },
        {
          "internalType": "uint256[]",
          "name": "_values",
          "type": "uint256[]"
        },
        {
          "internalType": "bool",
          "name": "_areAllocationsToBeStaked",
          "type": "bool"
        }
      ],
      "name": "allocateLTByOwner",
      "outputs": [],
      "stateMutability": "nonpayable",
      "type": "function"
    },
    {
      "inputs": [
        {
          "internalType": "address",
          "name": "owner",
          "type": "address"
        },
        {
          "internalType": "address",
          "name": "spender",
          "type": "address"
        }
      ],
      "name": "allowance",
      "outputs": [
        {
          "internalType": "uint256",
          "name": "",
          "type": "uint256"
        }
      ],
      "stateMutability": "view",
      "type": "function"
    },
    {
      "inputs": [
        {
          "internalType": "address",
          "name": "spender",
          "type": "address"
        },
        {
          "internalType": "uint256",
          "name": "amount",
          "type": "uint256"
        }
      ],
      "name": "approve",
      "outputs": [
        {
          "internalType": "bool",
          "name": "",
          "type": "bool"
        }
      ],
      "stateMutability": "nonpayable",
      "type": "function"
    },
    {
      "inputs": [],
      "name": "areAllocationsTerminated",
      "outputs": [
        {
          "internalType": "bool",
          "name": "",
          "type": "bool"
        }
      ],
      "stateMutability": "view",
      "type": "function"
    },
    {
      "inputs": [],
      "name": "areUserFunctionsDisabled",
      "outputs": [
        {
          "internalType": "bool",
          "name": "",
          "type": "bool"
        }
      ],
      "stateMutability": "view",
      "type": "function"
    },
    {
      "inputs": [
        {
          "internalType": "address",
          "name": "account",
          "type": "address"
        }
      ],
      "name": "balanceOf",
      "outputs": [
        {
          "internalType": "uint256",
          "name": "",
          "type": "uint256"
        }
      ],
      "stateMutability": "view",
      "type": "function"
    },
    {
      "inputs": [
        {
          "internalType": "uint256",
          "name": "_value",
          "type": "uint256"
        }
      ],
      "name": "burnByInterfaceProjectToken",
      "outputs": [],
      "stateMutability": "nonpayable",
      "type": "function"
    },
    {
      "inputs": [],
      "name": "campaignStakingRewards",
      "outputs": [
        {
          "internalType": "uint256",
          "name": "",
          "type": "uint256"
        }
      ],
      "stateMutability": "view",
      "type": "function"
    },
    {
      "inputs": [
        {
          "internalType": "address",
          "name": "",
          "type": "address"
        }
      ],
      "name": "claimedRewardPerShare1e18",
      "outputs": [
        {
          "internalType": "uint256",
          "name": "",
          "type": "uint256"
        }
      ],
      "stateMutability": "view",
      "type": "function"
    },
    {
      "inputs": [],
      "name": "currentRewardPerShare1e18",
      "outputs": [
        {
          "internalType": "uint256",
          "name": "",
          "type": "uint256"
        }
      ],
      "stateMutability": "view",
      "type": "function"
    },
    {
      "inputs": [],
      "name": "decimals",
      "outputs": [
        {
          "internalType": "uint8",
          "name": "",
          "type": "uint8"
        }
      ],
      "stateMutability": "view",
      "type": "function"
    },
    {
      "inputs": [
        {
          "internalType": "address",
          "name": "spender",
          "type": "address"
        },
        {
          "internalType": "uint256",
          "name": "subtractedValue",
          "type": "uint256"
        }
      ],
      "name": "decreaseAllowance",
      "outputs": [
        {
          "internalType": "bool",
          "name": "",
          "type": "bool"
        }
      ],
      "stateMutability": "nonpayable",
      "type": "function"
    },
    {
      "inputs": [
        {
          "internalType": "uint256",
          "name": "_value",
          "type": "uint256"
        }
      ],
      "name": "depositLT",
      "outputs": [],
      "stateMutability": "nonpayable",
      "type": "function"
    },
    {
      "inputs": [
        {
          "internalType": "address",
          "name": "_user",
          "type": "address"
        },
        {
          "internalType": "uint256",
          "name": "_valueProjectToken",
          "type": "uint256"
        }
      ],
      "name": "dischargeUserTokens",
      "outputs": [],
      "stateMutability": "nonpayable",
      "type": "function"
    },
    {
      "inputs": [],
      "name": "durationCliff",
      "outputs": [
        {
          "internalType": "uint256",
          "name": "",
          "type": "uint256"
        }
      ],
      "stateMutability": "view",
      "type": "function"
    },
    {
      "inputs": [],
      "name": "durationLinearVesting",
      "outputs": [
        {
          "internalType": "uint256",
          "name": "",
          "type": "uint256"
        }
      ],
      "stateMutability": "view",
      "type": "function"
    },
    {
      "inputs": [],
      "name": "enableOrDisableUserFunctions",
      "outputs": [],
      "stateMutability": "nonpayable",
      "type": "function"
    },
    {
      "inputs": [],
      "name": "ensureUserFunctionsAreNotDisabled",
      "outputs": [],
      "stateMutability": "view",
      "type": "function"
    },
    {
      "inputs": [],
      "name": "fractionInitialUnlockPerThousand",
      "outputs": [
        {
          "internalType": "uint256",
          "name": "",
          "type": "uint256"
        }
      ],
      "stateMutability": "view",
      "type": "function"
    },
    {
      "inputs": [
        {
          "internalType": "address",
          "name": "_user",
          "type": "address"
        },
        {
          "internalType": "uint256",
          "name": "_currentRewardPerShare1e18",
          "type": "uint256"
        }
      ],
      "name": "getHodlRewards",
      "outputs": [
        {
          "internalType": "uint256",
          "name": "_hodlRewards",
          "type": "uint256"
        }
      ],
      "stateMutability": "view",
      "type": "function"
    },
    {
      "inputs": [
        {
          "internalType": "uint256",
          "name": "_blockTime",
          "type": "uint256"
        }
      ],
      "name": "getUpdatedRewardPerShare1e18",
      "outputs": [
        {
          "internalType": "uint256",
          "name": "_updatedRewardPerShare1e18",
          "type": "uint256"
        }
      ],
      "stateMutability": "view",
      "type": "function"
    },
    {
      "inputs": [
        {
          "internalType": "address",
          "name": "_user",
          "type": "address"
        }
      ],
      "name": "getUserDateOfPartiallyChargedToken",
      "outputs": [
        {
          "internalType": "uint256",
          "name": "_dateOfPartiallyCharged",
          "type": "uint256"
        }
      ],
      "stateMutability": "view",
      "type": "function"
    },
    {
      "inputs": [
        {
          "internalType": "address",
          "name": "_user",
          "type": "address"
        }
      ],
      "name": "getUserFullyChargedBalanceLiquiToken",
      "outputs": [
        {
          "internalType": "uint256",
          "name": "_fullyChargedBalance",
          "type": "uint256"
        }
      ],
      "stateMutability": "view",
      "type": "function"
    },
    {
      "inputs": [
        {
          "internalType": "address",
          "name": "_user",
          "type": "address"
        }
      ],
      "name": "getUserPartiallyChargedBalanceLiquiToken",
      "outputs": [
        {
          "internalType": "uint256",
          "name": "_partiallyChargedBalance",
          "type": "uint256"
        }
      ],
      "stateMutability": "view",
      "type": "function"
    },
    {
      "inputs": [
        {
          "internalType": "address",
          "name": "spender",
          "type": "address"
        },
        {
          "internalType": "uint256",
          "name": "addedValue",
          "type": "uint256"
        }
      ],
      "name": "increaseAllowance",
      "outputs": [
        {
          "internalType": "bool",
          "name": "",
          "type": "bool"
        }
      ],
      "stateMutability": "nonpayable",
      "type": "function"
    },
    {
      "inputs": [],
      "name": "interfaceProjectToken",
      "outputs": [
        {
          "internalType": "contract InterfaceProjectToken",
          "name": "",
          "type": "address"
        }
      ],
      "stateMutability": "view",
      "type": "function"
    },
    {
      "inputs": [],
      "name": "isInterfaceProjectTokenLocked",
      "outputs": [
        {
          "internalType": "bool",
          "name": "",
          "type": "bool"
        }
      ],
      "stateMutability": "view",
      "type": "function"
    },
    {
      "inputs": [],
      "name": "lockInterfaceProjectToken",
      "outputs": [],
      "stateMutability": "nonpayable",
      "type": "function"
    },
    {
      "inputs": [],
      "name": "maxClaimFeesPerThousandForPT",
      "outputs": [
        {
          "internalType": "uint256",
          "name": "",
          "type": "uint256"
        }
      ],
      "stateMutability": "view",
      "type": "function"
    },
    {
      "inputs": [],
      "name": "maxInitialTokenAllocation",
      "outputs": [
        {
          "internalType": "uint256",
          "name": "",
          "type": "uint256"
        }
      ],
      "stateMutability": "view",
      "type": "function"
    },
    {
      "inputs": [],
      "name": "maxStakingAPR",
      "outputs": [
        {
          "internalType": "uint256",
          "name": "",
          "type": "uint256"
        }
      ],
      "stateMutability": "view",
      "type": "function"
    },
    {
      "inputs": [],
      "name": "maxStakingTokenAmount",
      "outputs": [
        {
          "internalType": "uint256",
          "name": "",
          "type": "uint256"
        }
      ],
      "stateMutability": "view",
      "type": "function"
    },
    {
      "inputs": [],
      "name": "maxWithdrawFeesPerThousandForLT",
      "outputs": [
        {
          "internalType": "uint256",
          "name": "",
          "type": "uint256"
        }
      ],
      "stateMutability": "view",
      "type": "function"
    },
    {
      "inputs": [
        {
          "internalType": "uint256",
          "name": "_value",
          "type": "uint256"
        }
      ],
      "name": "mintByInterfaceProjectToken",
      "outputs": [],
      "stateMutability": "nonpayable",
      "type": "function"
    },
    {
      "inputs": [],
      "name": "multiplier1K",
      "outputs": [
        {
          "internalType": "uint256",
          "name": "",
          "type": "uint256"
        }
      ],
      "stateMutability": "view",
      "type": "function"
    },
    {
      "inputs": [],
      "name": "name",
      "outputs": [
        {
          "internalType": "string",
          "name": "",
          "type": "string"
        }
      ],
      "stateMutability": "view",
      "type": "function"
    },
    {
      "inputs": [],
      "name": "owner",
      "outputs": [
        {
          "internalType": "address",
          "name": "",
          "type": "address"
        }
      ],
      "stateMutability": "view",
      "type": "function"
    },
    {
      "inputs": [],
      "name": "ratioFeesToRewardHodlersPerThousand",
      "outputs": [
        {
          "internalType": "uint256",
          "name": "",
          "type": "uint256"
        }
      ],
      "stateMutability": "view",
      "type": "function"
    },
    {
      "inputs": [
        {
          "internalType": "address",
          "name": "_user",
          "type": "address"
        },
        {
          "internalType": "uint256",
          "name": "_valueFullyChargedToIncrease",
          "type": "uint256"
        },
        {
          "internalType": "uint256",
          "name": "_valuePartiallyChargedToDecrease",
          "type": "uint256"
        },
        {
          "internalType": "uint256",
          "name": "_valueProjectTokenWithRewards",
          "type": "uint256"
        }
      ],
      "name": "rechargeUserTokens",
      "outputs": [],
      "stateMutability": "nonpayable",
      "type": "function"
    },
    {
      "inputs": [],
      "name": "renounceOwnership",
      "outputs": [],
      "stateMutability": "nonpayable",
      "type": "function"
    },
    {
      "inputs": [
        {
          "internalType": "contract InterfaceProjectToken",
          "name": "_interfaceProjectToken",
          "type": "address"
        }
      ],
      "name": "setInterfaceProjectToken",
      "outputs": [],
      "stateMutability": "nonpayable",
      "type": "function"
    },
    {
      "inputs": [
        {
          "internalType": "uint256",
          "name": "_stakingStartDate",
          "type": "uint256"
        },
        {
          "internalType": "uint256",
          "name": "_stakingDuration",
          "type": "uint256"
        },
        {
          "internalType": "uint256",
          "name": "_campaignStakingRewards",
          "type": "uint256"
        }
      ],
      "name": "setStakingRewards",
      "outputs": [],
      "stateMutability": "nonpayable",
      "type": "function"
    },
    {
      "inputs": [],
      "name": "stakedLT",
      "outputs": [
        {
          "internalType": "uint256",
          "name": "",
          "type": "uint256"
        }
      ],
      "stateMutability": "view",
      "type": "function"
    },
    {
      "inputs": [],
      "name": "stakingDateLastCheckpoint",
      "outputs": [
        {
          "internalType": "uint256",
          "name": "",
          "type": "uint256"
        }
      ],
      "stateMutability": "view",
      "type": "function"
    },
    {
      "inputs": [],
      "name": "stakingDuration",
      "outputs": [
        {
          "internalType": "uint256",
          "name": "",
          "type": "uint256"
        }
      ],
      "stateMutability": "view",
      "type": "function"
    },
    {
      "inputs": [],
      "name": "stakingStartDate",
      "outputs": [
        {
          "internalType": "uint256",
          "name": "",
          "type": "uint256"
        }
      ],
      "stateMutability": "view",
      "type": "function"
    },
    {
      "inputs": [],
      "name": "symbol",
      "outputs": [
        {
          "internalType": "string",
          "name": "",
          "type": "string"
        }
      ],
      "stateMutability": "view",
      "type": "function"
    },
    {
      "inputs": [],
      "name": "terminateAllocations",
      "outputs": [],
      "stateMutability": "nonpayable",
      "type": "function"
    },
    {
      "inputs": [],
      "name": "totalStakingRewards",
      "outputs": [
        {
          "internalType": "uint256",
          "name": "",
          "type": "uint256"
        }
      ],
      "stateMutability": "view",
      "type": "function"
    },
    {
      "inputs": [],
      "name": "totalSupply",
      "outputs": [
        {
          "internalType": "uint256",
          "name": "",
          "type": "uint256"
        }
      ],
      "stateMutability": "view",
      "type": "function"
    },
    {
      "inputs": [],
      "name": "totalTokenAllocated",
      "outputs": [
        {
          "internalType": "uint256",
          "name": "",
          "type": "uint256"
        }
      ],
      "stateMutability": "view",
      "type": "function"
    },
    {
      "inputs": [
        {
          "internalType": "address",
          "name": "recipient",
          "type": "address"
        },
        {
          "internalType": "uint256",
          "name": "amount",
          "type": "uint256"
        }
      ],
      "name": "transfer",
      "outputs": [
        {
          "internalType": "bool",
          "name": "",
          "type": "bool"
        }
      ],
      "stateMutability": "nonpayable",
      "type": "function"
    },
    {
      "inputs": [
        {
          "internalType": "address",
          "name": "sender",
          "type": "address"
        },
        {
          "internalType": "address",
          "name": "recipient",
          "type": "address"
        },
        {
          "internalType": "uint256",
          "name": "amount",
          "type": "uint256"
        }
      ],
      "name": "transferFrom",
      "outputs": [
        {
          "internalType": "bool",
          "name": "",
          "type": "bool"
        }
      ],
      "stateMutability": "nonpayable",
      "type": "function"
    },
    {
      "inputs": [
        {
          "internalType": "address",
          "name": "newOwner",
          "type": "address"
        }
      ],
      "name": "transferOwnership",
      "outputs": [],
      "stateMutability": "nonpayable",
      "type": "function"
    },
    {
      "inputs": [
        {
          "internalType": "uint256",
          "name": "_valuePerThousand",
          "type": "uint256"
        }
      ],
      "name": "updateRatioFeesToRewardHodlers",
      "outputs": [],
      "stateMutability": "nonpayable",
      "type": "function"
    },
    {
      "inputs": [
        {
          "internalType": "uint256",
          "name": "_fees",
          "type": "uint256"
        }
      ],
      "name": "updateRewardsAfterFeesPaymentByInterface",
      "outputs": [],
      "stateMutability": "nonpayable",
      "type": "function"
    },
    {
      "inputs": [
        {
          "internalType": "address",
          "name": "_user",
          "type": "address"
        }
      ],
      "name": "updateStakingAndGetHodlRewardsByInterfacePT",
      "outputs": [
        {
          "internalType": "uint256",
          "name": "",
          "type": "uint256"
        }
      ],
      "stateMutability": "nonpayable",
      "type": "function"
    },
    {
      "inputs": [
        {
          "internalType": "uint256",
          "name": "_valuePerThousand",
          "type": "uint256"
        }
      ],
      "name": "updateWithdrawalFeesForLT",
      "outputs": [],
      "stateMutability": "nonpayable",
      "type": "function"
    },
    {
      "inputs": [
        {
          "internalType": "address",
          "name": "",
          "type": "address"
        }
      ],
      "name": "userLiquiToken",
      "outputs": [
        {
          "internalType": "uint256",
          "name": "fullyChargedBalance",
          "type": "uint256"
        },
        {
          "internalType": "uint256",
          "name": "partiallyChargedBalance",
          "type": "uint256"
        },
        {
          "internalType": "uint256",
          "name": "dateOfPartiallyCharged",
          "type": "uint256"
        }
      ],
      "stateMutability": "view",
      "type": "function"
    },
    {
      "inputs": [],
      "name": "withdrawFeesPerThousandForLT",
      "outputs": [
        {
          "internalType": "uint256",
          "name": "",
          "type": "uint256"
        }
      ],
      "stateMutability": "view",
      "type": "function"
    },
    {
      "inputs": [
        {
          "internalType": "uint256",
          "name": "_value",
          "type": "uint256"
        }
      ],
      "name": "withdrawLT",
      "outputs": [],
      "stateMutability": "nonpayable",
      "type": "function"
    }
  ],
  "devdoc": {
    "kind": "dev",
    "methods": {
      "allowance(address,address)": {
        "details": "See {IERC20-allowance}."
      },
      "approve(address,uint256)": {
        "details": "See {IERC20-approve}. Requirements: - `spender` cannot be the zero address."
      },
      "balanceOf(address)": {
        "details": "See {IERC20-balanceOf}."
      },
      "decimals()": {
        "details": "Returns the number of decimals used to get its user representation. For example, if `decimals` equals `2`, a balance of `505` tokens should be displayed to a user as `5,05` (`505 / 10 ** 2`). Tokens usually opt for a value of 18, imitating the relationship between Ether and Wei. This is the value {ERC20} uses, unless {_setupDecimals} is called. NOTE: This information is only used for _display_ purposes: it in no way affects any of the arithmetic of the contract, including {IERC20-balanceOf} and {IERC20-transfer}."
      },
      "decreaseAllowance(address,uint256)": {
        "details": "Atomically decreases the allowance granted to `spender` by the caller. This is an alternative to {approve} that can be used as a mitigation for problems described in {IERC20-approve}. Emits an {Approval} event indicating the updated allowance. Requirements: - `spender` cannot be the zero address. - `spender` must have allowance for the caller of at least `subtractedValue`."
      },
      "increaseAllowance(address,uint256)": {
        "details": "Atomically increases the allowance granted to `spender` by the caller. This is an alternative to {approve} that can be used as a mitigation for problems described in {IERC20-approve}. Emits an {Approval} event indicating the updated allowance. Requirements: - `spender` cannot be the zero address."
      },
      "name()": {
        "details": "Returns the name of the token."
      },
      "owner()": {
        "details": "Returns the address of the current owner."
      },
      "renounceOwnership()": {
        "details": "Leaves the contract without owner. It will not be possible to call `onlyOwner` functions anymore. Can only be called by the current owner. NOTE: Renouncing ownership will leave the contract without an owner, thereby removing any functionality that is only available to the owner."
      },
      "symbol()": {
        "details": "Returns the symbol of the token, usually a shorter version of the name."
      },
      "totalSupply()": {
        "details": "See {IERC20-totalSupply}."
      },
      "transfer(address,uint256)": {
        "details": "See {IERC20-transfer}. Requirements: - `recipient` cannot be the zero address. - the caller must have a balance of at least `amount`."
      },
      "transferFrom(address,address,uint256)": {
        "details": "See {IERC20-transferFrom}. Emits an {Approval} event indicating the updated allowance. This is not required by the EIP. See the note at the beginning of {ERC20}. Requirements: - `sender` and `recipient` cannot be the zero address. - `sender` must have a balance of at least `amount`. - the caller must have allowance for ``sender``'s tokens of at least `amount`."
      },
      "transferOwnership(address)": {
        "details": "Transfers ownership of the contract to a new account (`newOwner`). Can only be called by the current owner."
      }
    },
    "version": 1
  },
  "evm": {
    "assembly": "    /* \"LiquidityToken.sol\":449:17796  contract LiquidityToken is ERC20, Ownable {... */\n  mstore(0x40, 0x0180)\n    /* \"LiquidityToken.sol\":849:853  1000 */\n  0x03e8\n    /* \"LiquidityToken.sol\":799:853  uint public ratioFeesToRewardHodlersPerThousand = 1000 */\n  0x0c\n  sstore\n    /* \"LiquidityToken.sol\":3297:4641  constructor(string memory _name, string memory _symbol, uint _fractionInitialUnlockPerThousand, uint _durationCliff, ... */\n  callvalue\n  dup1\n  iszero\n  tag_1\n  jumpi\n  0x00\n  dup1\n  revert\ntag_1:\n  pop\n  mload(0x40)\n  sub(codesize, bytecodeSize)\n  dup1\n  bytecodeSize\n  dup4\n  codecopy\n  dup2\n  dup2\n  add\n  0x40\n  mstore\n  0x0140\n  dup2\n  lt\n  iszero\n  tag_2\n  jumpi\n  0x00\n  dup1\n  revert\ntag_2:\n  dup2\n  add\n  swap1\n  dup1\n  dup1\n  mload\n  mload(0x40)\n  swap4\n  swap3\n  swap2\n  swap1\n  dup5\n  0x0100000000\n  dup3\n  gt\n  iszero\n  tag_3\n  jumpi\n  0x00\n  dup1\n  revert\ntag_3:\n  dup4\n  dup3\n  add\n  swap2\n  pop\n  0x20\n  dup3\n  add\n  dup6\n  dup2\n  gt\n  iszero\n  tag_4\n  jumpi\n  0x00\n  dup1\n  revert\ntag_4:\n  dup3\n  mload\n  dup7\n  0x01\n  dup3\n  mul\n  dup4\n  add\n  gt\n  0x0100000000\n  dup3\n  gt\n  or\n  iszero\n  tag_5\n  jumpi\n  0x00\n  dup1\n  revert\ntag_5:\n  dup1\n  dup4\n  mstore\n  0x20\n  dup4\n  add\n  swap3\n  pop\n  pop\n  pop\n  swap1\n  dup1\n  mload\n  swap1\n  0x20\n  add\n  swap1\n  dup1\n  dup4\n  dup4\n  0x00\ntag_6:\n  dup4\n  dup2\n  lt\n  iszero\n  tag_8\n  jumpi\n  dup1\n  dup3\n  add\n  mload\n  dup2\n  dup5\n  add\n  mstore\n  0x20\n  dup2\n  add\n  swap1\n  pop\n  jump(tag_6)\ntag_8:\n  pop\n  pop\n  pop\n  pop\n  swap1\n  pop\n  swap1\n  dup2\n  add\n  swap1\n  0x1f\n  and\n  dup1\n  iszero\n  tag_9\n  jumpi\n  dup1\n  dup3\n  sub\n  dup1\n  mload\n  0x01\n  dup4\n  0x20\n  sub\n  0x0100\n  exp\n  sub\n  not\n  and\n  dup2\n  mstore\n  0x20\n  add\n  swap2\n  pop\ntag_9:\n  pop\n  0x40\n  mstore\n  0x20\n  add\n  dup1\n  mload\n  mload(0x40)\n  swap4\n  swap3\n  swap2\n  swap1\n  dup5\n  0x0100000000\n  dup3\n  gt\n  iszero\n  tag_10\n  jumpi\n  0x00\n  dup1\n  revert\ntag_10:\n  dup4\n  dup3\n  add\n  swap2\n  pop\n  0x20\n  dup3\n  add\n  dup6\n  dup2\n  gt\n  iszero\n  tag_11\n  jumpi\n  0x00\n  dup1\n  revert\ntag_11:\n  dup3\n  mload\n  dup7\n  0x01\n  dup3\n  mul\n  dup4\n  add\n  gt\n  0x0100000000\n  dup3\n  gt\n  or\n  iszero\n  tag_12\n  jumpi\n  0x00\n  dup1\n  revert\ntag_12:\n  dup1\n  dup4\n  mstore\n  0x20\n  dup4\n  add\n  swap3\n  pop\n  pop\n  pop\n  swap1\n  dup1\n  mload\n  swap1\n  0x20\n  add\n  swap1\n  dup1\n  dup4\n  dup4\n  0x00\ntag_13:\n  dup4\n  dup2\n  lt\n  iszero\n  tag_15\n  jumpi\n  dup1\n  dup3\n  add\n  mload\n  dup2\n  dup5\n  add\n  mstore\n  0x20\n  dup2\n  add\n  swap1\n  pop\n  jump(tag_13)\ntag_15:\n  pop\n  pop\n  pop\n  pop\n  swap1\n  pop\n  swap1\n  dup2\n  add\n  swap1\n  0x1f\n  and\n  dup1\n  iszero\n  tag_16\n  jumpi\n  dup1\n  dup3\n  sub\n  dup1\n  mload\n  0x01\n  dup4\n  0x20\n  sub\n  0x0100\n  exp\n  sub\n  not\n  and\n  dup2\n  mstore\n  0x20\n  add\n  swap2\n  pop\ntag_16:\n  pop\n  0x40\n  mstore\n  0x20\n  add\n  dup1\n  mload\n  swap1\n  0x20\n  add\n  swap1\n  swap3\n  swap2\n  swap1\n  dup1\n  mload\n  swap1\n  0x20\n  add\n  swap1\n  swap3\n  swap2\n  swap1\n  dup1\n  mload\n  swap1\n  0x20\n  add\n  swap1\n  swap3\n  swap2\n  swap1\n  dup1\n  mload\n  swap1\n  0x20\n  add\n  swap1\n  swap3\n  swap2\n  swap1\n  dup1\n  mload\n  swap1\n  0x20\n  add\n  swap1\n  swap3\n  swap2\n  swap1\n  dup1\n  mload\n  swap1\n  0x20\n  add\n  swap1\n  swap3\n  swap2\n  swap1\n  dup1\n  mload\n  swap1\n  0x20\n  add\n  swap1\n  swap3\n  swap2\n  swap1\n  dup1\n  mload\n  swap1\n  0x20\n  add\n  swap1\n  swap3\n  swap2\n  swap1\n  pop\n  pop\n  pop\n    /* \"LiquidityToken.sol\":3616:3621  _name */\n  dup10\n    /* \"LiquidityToken.sol\":3623:3630  _symbol */\n  dup10\n    /* \"https://github.com/OpenZeppelin/openzeppelin-contracts/blob/v3.4.2-solc-0.7/contracts/token/ERC20/ERC20.sol\":2025:2030   */\n  dup2\n    /* \"https://github.com/OpenZeppelin/openzeppelin-contracts/blob/v3.4.2-solc-0.7/contracts/token/ERC20/ERC20.sol\":2017:2022   */\n  0x03\n    /* \"https://github.com/OpenZeppelin/openzeppelin-contracts/blob/v3.4.2-solc-0.7/contracts/token/ERC20/ERC20.sol\":2017:2030   */\n  swap1\n  dup1\n  mload\n  swap1\n  0x20\n  add\n  swap1\n  tag_21\n  swap3\n  swap2\n  swap1\n  tag_22\n  jump\t// in\ntag_21:\n  pop\n    /* \"https://github.com/OpenZeppelin/openzeppelin-contracts/blob/v3.4.2-solc-0.7/contracts/token/ERC20/ERC20.sol\":2050:2057   */\n  dup1\n    /* \"https://github.com/OpenZeppelin/openzeppelin-contracts/blob/v3.4.2-solc-0.7/contracts/token/ERC20/ERC20.sol\":2040:2047   */\n  0x04\n    /* \"https://github.com/OpenZeppelin/openzeppelin-contracts/blob/v3.4.2-solc-0.7/contracts/token/ERC20/ERC20.sol\":2040:2057   */\n  swap1\n  dup1\n  mload\n  swap1\n  0x20\n  add\n  swap1\n  tag_23\n  swap3\n  swap2\n  swap1\n  tag_22\n  jump\t// in\ntag_23:\n  pop\n    /* \"https://github.com/OpenZeppelin/openzeppelin-contracts/blob/v3.4.2-solc-0.7/contracts/token/ERC20/ERC20.sol\":2079:2081   */\n  0x12\n    /* \"https://github.com/OpenZeppelin/openzeppelin-contracts/blob/v3.4.2-solc-0.7/contracts/token/ERC20/ERC20.sol\":2067:2076   */\n  0x05\n  0x00\n    /* \"https://github.com/OpenZeppelin/openzeppelin-contracts/blob/v3.4.2-solc-0.7/contracts/token/ERC20/ERC20.sol\":2067:2081   */\n  0x0100\n  exp\n  dup2\n  sload\n  dup2\n  0xff\n  mul\n  not\n  and\n  swap1\n  dup4\n  0xff\n  and\n  mul\n  or\n  swap1\n  sstore\n  pop\n    /* \"https://github.com/OpenZeppelin/openzeppelin-contracts/blob/v3.4.2-solc-0.7/contracts/token/ERC20/ERC20.sol\":1950:2088   */\n  pop\n  pop\n    /* \"https://github.com/OpenZeppelin/openzeppelin-contracts/blob/v3.4.2-solc-0.7/contracts/access/Ownable.sol\":867:884   */\n  0x00\n    /* \"https://github.com/OpenZeppelin/openzeppelin-contracts/blob/v3.4.2-solc-0.7/contracts/access/Ownable.sol\":887:899   */\n  tag_25\n    /* \"https://github.com/OpenZeppelin/openzeppelin-contracts/blob/v3.4.2-solc-0.7/contracts/access/Ownable.sol\":887:897   */\n  shl(0x20, tag_26)\n    /* \"https://github.com/OpenZeppelin/openzeppelin-contracts/blob/v3.4.2-solc-0.7/contracts/access/Ownable.sol\":887:899   */\n  0x20\n  shr\n  jump\t// in\ntag_25:\n    /* \"https://github.com/OpenZeppelin/openzeppelin-contracts/blob/v3.4.2-solc-0.7/contracts/access/Ownable.sol\":867:899   */\n  swap1\n  pop\n    /* \"https://github.com/OpenZeppelin/openzeppelin-contracts/blob/v3.4.2-solc-0.7/contracts/access/Ownable.sol\":918:927   */\n  dup1\n    /* \"https://github.com/OpenZeppelin/openzeppelin-contracts/blob/v3.4.2-solc-0.7/contracts/access/Ownable.sol\":909:915   */\n  0x05\n  0x01\n    /* \"https://github.com/OpenZeppelin/openzeppelin-contracts/blob/v3.4.2-solc-0.7/contracts/access/Ownable.sol\":909:927   */\n  0x0100\n  exp\n  dup2\n  sload\n  dup2\n  0xffffffffffffffffffffffffffffffffffffffff\n  mul\n  not\n  and\n  swap1\n  dup4\n  0xffffffffffffffffffffffffffffffffffffffff\n  and\n  mul\n  or\n  swap1\n  sstore\n  pop\n    /* \"https://github.com/OpenZeppelin/openzeppelin-contracts/blob/v3.4.2-solc-0.7/contracts/access/Ownable.sol\":975:984   */\n  dup1\n    /* \"https://github.com/OpenZeppelin/openzeppelin-contracts/blob/v3.4.2-solc-0.7/contracts/access/Ownable.sol\":942:985   */\n  0xffffffffffffffffffffffffffffffffffffffff\n  and\n    /* \"https://github.com/OpenZeppelin/openzeppelin-contracts/blob/v3.4.2-solc-0.7/contracts/access/Ownable.sol\":971:972   */\n  0x00\n    /* \"https://github.com/OpenZeppelin/openzeppelin-contracts/blob/v3.4.2-solc-0.7/contracts/access/Ownable.sol\":942:985   */\n  0xffffffffffffffffffffffffffffffffffffffff\n  and\n  0x8be0079c531659141344cd1fd0a4f28419497f9722a3daafe3b4186f6b6457e0\n  mload(0x40)\n  mload(0x40)\n  dup1\n  swap2\n  sub\n  swap1\n  log3\n    /* \"https://github.com/OpenZeppelin/openzeppelin-contracts/blob/v3.4.2-solc-0.7/contracts/access/Ownable.sol\":842:992   */\n  pop\n    /* \"LiquidityToken.sol\":3673:3674  0 */\n  0x00\n    /* \"LiquidityToken.sol\":3647:3669  _durationLinearVesting */\n  dup7\n    /* \"LiquidityToken.sol\":3647:3674  _durationLinearVesting == 0 */\n  eq\n    /* \"LiquidityToken.sol\":3643:3939  if (_durationLinearVesting == 0)... */\n  iszero\n  tag_28\n  jumpi\n    /* \"LiquidityToken.sol\":614:618  1000 */\n  0x03e8\n    /* \"LiquidityToken.sol\":3697:3730  _fractionInitialUnlockPerThousand */\n  dup9\n    /* \"LiquidityToken.sol\":3697:3746  _fractionInitialUnlockPerThousand == multiplier1K */\n  eq\n    /* \"LiquidityToken.sol\":3682:3809  require(... */\n  tag_29\n  jumpi\n  mload(0x40)\n  0x08c379a000000000000000000000000000000000000000000000000000000000\n  dup2\n  mstore\n  0x04\n  add\n  dup1\n  dup1\n  0x20\n  add\n  dup3\n  dup2\n  sub\n  dup3\n  mstore\n  0x34\n  dup2\n  mstore\n  0x20\n  add\n  dup1\n  data_7e81b32fd927359169ccb1edb0414674e72762a5e9e15a268cac5f3f749362cb\n  0x34\n  swap2\n  codecopy\n  0x40\n  add\n  swap2\n  pop\n  pop\n  mload(0x40)\n  dup1\n  swap2\n  sub\n  swap1\n  revert\ntag_29:\n    /* \"LiquidityToken.sol\":3643:3939  if (_durationLinearVesting == 0)... */\n  jump(tag_30)\ntag_28:\n    /* \"LiquidityToken.sol\":614:618  1000 */\n  0x03e8\n    /* \"LiquidityToken.sol\":3842:3875  _fractionInitialUnlockPerThousand */\n  dup9\n    /* \"LiquidityToken.sol\":3842:3890  _fractionInitialUnlockPerThousand < multiplier1K */\n  lt\n    /* \"LiquidityToken.sol\":3827:3939  require(... */\n  tag_31\n  jumpi\n  mload(0x40)\n  0x08c379a000000000000000000000000000000000000000000000000000000000\n  dup2\n  mstore\n  0x04\n  add\n  dup1\n  dup1\n  0x20\n  add\n  dup3\n  dup2\n  sub\n  dup3\n  mstore\n  0x26\n  dup2\n  mstore\n  0x20\n  add\n  dup1\n  data_7356afc65ac6923f056e171fb9d08bfe0fb95d5cb1f933201fa19a5844645158\n  0x26\n  swap2\n  codecopy\n  0x40\n  add\n  swap2\n  pop\n  pop\n  mload(0x40)\n  dup1\n  swap2\n  sub\n  swap1\n  revert\ntag_31:\n    /* \"LiquidityToken.sol\":3643:3939  if (_durationLinearVesting == 0)... */\ntag_30:\n    /* \"LiquidityToken.sol\":614:618  1000 */\n  0x03e8\n    /* \"LiquidityToken.sol\":3965:3997  _maxWithdrawFeesPerThousandForLT */\n  dup6\n    /* \"LiquidityToken.sol\":3965:4012  _maxWithdrawFeesPerThousandForLT < multiplier1K */\n  lt\n    /* \"LiquidityToken.sol\":3950:4069  require(... */\n  tag_32\n  jumpi\n  mload(0x40)\n  0x08c379a000000000000000000000000000000000000000000000000000000000\n  dup2\n  mstore\n  0x04\n  add\n  dup1\n  dup1\n  0x20\n  add\n  dup3\n  dup2\n  sub\n  dup3\n  mstore\n  0x2e\n  dup2\n  mstore\n  0x20\n  add\n  dup1\n  data_cca22e2ee1b442009fb59574a1023c1bac949e370b49ec9f67b31b9c2628f401\n  0x2e\n  swap2\n  codecopy\n  0x40\n  add\n  swap2\n  pop\n  pop\n  mload(0x40)\n  dup1\n  swap2\n  sub\n  swap1\n  revert\ntag_32:\n    /* \"LiquidityToken.sol\":614:618  1000 */\n  0x03e8\n    /* \"LiquidityToken.sol\":4091:4120  _maxClaimFeesPerThousandForPT */\n  dup5\n    /* \"LiquidityToken.sol\":4091:4135  _maxClaimFeesPerThousandForPT < multiplier1K */\n  lt\n    /* \"LiquidityToken.sol\":4076:4187  require(... */\n  tag_33\n  jumpi\n  mload(0x40)\n  0x08c379a000000000000000000000000000000000000000000000000000000000\n  dup2\n  mstore\n  0x04\n  add\n  dup1\n  dup1\n  0x20\n  add\n  dup3\n  dup2\n  sub\n  dup3\n  mstore\n  0x29\n  dup2\n  mstore\n  0x20\n  add\n  dup1\n  data_6fed3b276f0e592ceeab63ae6aba848f584543b6a54de015b93869f771efc447\n  0x29\n  swap2\n  codecopy\n  0x40\n  add\n  swap2\n  pop\n  pop\n  mload(0x40)\n  dup1\n  swap2\n  sub\n  swap1\n  revert\ntag_33:\n    /* \"LiquidityToken.sol\":4210:4224  _durationCliff */\n  dup7\n    /* \"LiquidityToken.sol\":4194:4224  durationCliff = _durationCliff */\n  0xa0\n  dup2\n  dup2\n  mstore\n  pop\n  pop\n    /* \"LiquidityToken.sol\":4254:4276  _durationLinearVesting */\n  dup6\n    /* \"LiquidityToken.sol\":4230:4276  durationLinearVesting = _durationLinearVesting */\n  0xc0\n  dup2\n  dup2\n  mstore\n  pop\n  pop\n    /* \"LiquidityToken.sol\":4317:4350  _fractionInitialUnlockPerThousand */\n  dup8\n    /* \"LiquidityToken.sol\":4282:4350  fractionInitialUnlockPerThousand = _fractionInitialUnlockPerThousand */\n  0x80\n  dup2\n  dup2\n  mstore\n  pop\n  pop\n    /* \"LiquidityToken.sol\":4390:4422  _maxWithdrawFeesPerThousandForLT */\n  dup5\n    /* \"LiquidityToken.sol\":4356:4422  maxWithdrawFeesPerThousandForLT = _maxWithdrawFeesPerThousandForLT */\n  0x0100\n  dup2\n  dup2\n  mstore\n  pop\n  pop\n    /* \"LiquidityToken.sol\":4459:4488  _maxClaimFeesPerThousandForPT */\n  dup4\n    /* \"LiquidityToken.sol\":4428:4488  maxClaimFeesPerThousandForPT = _maxClaimFeesPerThousandForPT */\n  0x0120\n  dup2\n  dup2\n  mstore\n  pop\n  pop\n    /* \"LiquidityToken.sol\":4510:4524  _maxStakingAPR */\n  dup3\n    /* \"LiquidityToken.sol\":4494:4524  maxStakingAPR = _maxStakingAPR */\n  0x0140\n  dup2\n  dup2\n  mstore\n  pop\n  pop\n    /* \"LiquidityToken.sol\":4554:4576  _maxStakingTokenAmount */\n  dup2\n    /* \"LiquidityToken.sol\":4530:4576  maxStakingTokenAmount = _maxStakingTokenAmount */\n  0x0160\n  dup2\n  dup2\n  mstore\n  pop\n  pop\n    /* \"LiquidityToken.sol\":4610:4636  _maxInitialTokenAllocation */\n  dup1\n    /* \"LiquidityToken.sol\":4582:4636  maxInitialTokenAllocation = _maxInitialTokenAllocation */\n  0xe0\n  dup2\n  dup2\n  mstore\n  pop\n  pop\n    /* \"LiquidityToken.sol\":3297:4641  constructor(string memory _name, string memory _symbol, uint _fractionInitialUnlockPerThousand, uint _durationCliff, ... */\n  pop\n  pop\n  pop\n  pop\n  pop\n  pop\n  pop\n  pop\n  pop\n  pop\n    /* \"LiquidityToken.sol\":449:17796  contract LiquidityToken is ERC20, Ownable {... */\n  jump(tag_34)\n    /* \"https://github.com/OpenZeppelin/openzeppelin-contracts/blob/v3.4.2-solc-0.7/contracts/utils/Context.sol\":598:702   */\ntag_26:\n    /* \"https://github.com/OpenZeppelin/openzeppelin-contracts/blob/v3.4.2-solc-0.7/contracts/utils/Context.sol\":651:666   */\n  0x00\n    /* \"https://github.com/OpenZeppelin/openzeppelin-contracts/blob/v3.4.2-solc-0.7/contracts/utils/Context.sol\":685:695   */\n  caller\n    /* \"https://github.com/OpenZeppelin/openzeppelin-contracts/blob/v3.4.2-solc-0.7/contracts/utils/Context.sol\":678:695   */\n  swap1\n  pop\n    /* \"https://github.com/OpenZeppelin/openzeppelin-contracts/blob/v3.4.2-solc-0.7/contracts/utils/Context.sol\":598:702   */\n  swap1\n  jump\t// out\n    /* \"LiquidityToken.sol\":449:17796  contract LiquidityToken is ERC20, Ownable {... */\ntag_22:\n  dup3\n  dup1\n  sload\n  0x01\n  dup2\n  0x01\n  and\n  iszero\n  0x0100\n  mul\n  sub\n  and\n  0x02\n  swap1\n  div\n  swap1\n  0x00\n  mstore\n  keccak256(0x00, 0x20)\n  swap1\n  0x1f\n  add\n  0x20\n  swap1\n  div\n  dup2\n  add\n  swap3\n  dup3\n  tag_37\n  jumpi\n  0x00\n  dup6\n  sstore\n  jump(tag_36)\ntag_37:\n  dup3\n  0x1f\n  lt\n  tag_38\n  jumpi\n  dup1\n  mload\n  not(0xff)\n  and\n  dup4\n  dup1\n  add\n  or\n  dup6\n  sstore\n  jump(tag_36)\ntag_38:\n  dup3\n  dup1\n  add\n  0x01\n  add\n  dup6\n  sstore\n  dup3\n  iszero\n  tag_36\n  jumpi\n  swap2\n  dup3\n  add\ntag_39:\n  dup3\n  dup2\n  gt\n  iszero\n  tag_40\n  jumpi\n  dup3\n  mload\n  dup3\n  sstore\n  swap2\n  0x20\n  add\n  swap2\n  swap1\n  0x01\n  add\n  swap1\n  jump(tag_39)\ntag_40:\ntag_36:\n  pop\n  swap1\n  pop\n  tag_41\n  swap2\n  swap1\n  tag_42\n  jump\t// in\ntag_41:\n  pop\n  swap1\n  jump\t// out\ntag_42:\ntag_43:\n  dup1\n  dup3\n  gt\n  iszero\n  tag_44\n  jumpi\n  0x00\n  dup2\n  0x00\n  swap1\n  sstore\n  pop\n  0x01\n  add\n  jump(tag_43)\ntag_44:\n  pop\n  swap1\n  jump\t// out\ntag_34:\n  mload(0x80)\n  mload(0xa0)\n  mload(0xc0)\n  mload(0xe0)\n  mload(0x0100)\n  mload(0x0120)\n  mload(0x0140)\n  mload(0x0160)\n  codecopy(0x00, dataOffset(sub_0), dataSize(sub_0))\n  assignImmutable(\"0x66547114649d5833daa7007ccc99ac262792882ea3d82e4ebe0b69f18704da0c\")\n  assignImmutable(\"0xbf42042e2237c6e6d1c29f4f02d65eeea252179805ed26cf71ad720e62900975\")\n  assignImmutable(\"0xd071d371589780369328e5437147bf8a672dd4f630ae4b82c7f8a4e9f9bcf7f4\")\n  assignImmutable(\"0xcd3b8a75131b09c18fac61f93bac9440f7b768b1c243a93eca5a67eb03b07828\")\n  assignImmutable(\"0x27f63464b9731b972604804953e204cb89525ac66e46cd091b2739ad01222f8b\")\n  assignImmutable(\"0x7fac02d34be0cf003870fc1ca20de764e3d24f4510f938a3d8c85c13150f33d3\")\n  assignImmutable(\"0x86890c29ff370c4b30973bbbaafda9b69a1419ebf78e3ecd48a68f972a0037ef\")\n  assignImmutable(\"0xc3259c45f9e3c1055fdcabf98c9c354977536b311a2495291202379be8e06e09\")\n  return(0x00, dataSize(sub_0))\nstop\ndata_6fed3b276f0e592ceeab63ae6aba848f584543b6a54de015b93869f771efc447 4d6178696d756d20636c61696d20666565206d757374206265206c6f776572207468616e2031303025\ndata_7356afc65ac6923f056e171fb9d08bfe0fb95d5cb1f933201fa19a5844645158 496e697469616c20756e6c6f636b206d757374206265206c6f776572207468616e2031303025\ndata_7e81b32fd927359169ccb1edb0414674e72762a5e9e15a268cac5f3f749362cb 4966206e6f2076657374696e672c20616c6c20746f6b656e73206d7573742062652072656c6561736564206174206c61756e6368\ndata_cca22e2ee1b442009fb59574a1023c1bac949e370b49ec9f67b31b9c2628f401 4d6178696d756d207769746864726177616c20666565206d757374206265206c6f776572207468616e2031303025\n\nsub_0: assembly {\n        /* \"LiquidityToken.sol\":449:17796  contract LiquidityToken is ERC20, Ownable {... */\n      mstore(0x40, 0x80)\n      callvalue\n      dup1\n      iszero\n      tag_1\n      jumpi\n      0x00\n      dup1\n      revert\n    tag_1:\n      pop\n      jumpi(tag_2, lt(calldatasize, 0x04))\n      shr(0xe0, calldataload(0x00))\n      dup1\n      0x82af7d39\n      gt\n      tag_64\n      jumpi\n      dup1\n      0xa74536e0\n      gt\n      tag_65\n      jumpi\n      dup1\n      0xdd62ed3e\n      gt\n      tag_66\n      jumpi\n      dup1\n      0xefb5c2f3\n      gt\n      tag_67\n      jumpi\n      dup1\n      0xefb5c2f3\n      eq\n      tag_60\n      jumpi\n      dup1\n      0xf2fde38b\n      eq\n      tag_61\n      jumpi\n      dup1\n      0xf331a867\n      eq\n      tag_62\n      jumpi\n      dup1\n      0xfb3da545\n      eq\n      tag_63\n      jumpi\n      jump(tag_2)\n    tag_67:\n      dup1\n      0xdd62ed3e\n      eq\n      tag_56\n      jumpi\n      dup1\n      0xdf910817\n      eq\n      tag_57\n      jumpi\n      dup1\n      0xe0d0c567\n      eq\n      tag_58\n      jumpi\n      dup1\n      0xe54dd98a\n      eq\n      tag_59\n      jumpi\n      jump(tag_2)\n    tag_66:\n      dup1\n      0xc96877a2\n      gt\n      tag_68\n      jumpi\n      dup1\n      0xc96877a2\n      eq\n      tag_52\n      jumpi\n      dup1\n      0xd49d18d6\n      eq\n      tag_53\n      jumpi\n      dup1\n      0xda3a5936\n      eq\n      tag_54\n      jumpi\n      dup1\n      0xdccdc995\n      eq\n      tag_55\n      jumpi\n      jump(tag_2)\n    tag_68:\n      dup1\n      0xa74536e0\n      eq\n      tag_48\n      jumpi\n      dup1\n      0xa9059cbb\n      eq\n      tag_49\n      jumpi\n      dup1\n      0xabfdce2c\n      eq\n      tag_50\n      jumpi\n      dup1\n      0xbf777f82\n      eq\n      tag_51\n      jumpi\n      jump(tag_2)\n    tag_65:\n      dup1\n      0x93ef357a\n      gt\n      tag_69\n      jumpi\n      dup1\n      0x9c3bcbb1\n      gt\n      tag_70\n      jumpi\n      dup1\n      0x9c3bcbb1\n      eq\n      tag_44\n      jumpi\n      dup1\n      0x9f65ffb0\n      eq\n      tag_45\n      jumpi\n      dup1\n      0xa1b0c412\n      eq\n      tag_46\n      jumpi\n      dup1\n      0xa457c2d7\n      eq\n      tag_47\n      jumpi\n      jump(tag_2)\n    tag_70:\n      dup1\n      0x93ef357a\n      eq\n      tag_40\n      jumpi\n      dup1\n      0x95230a80\n      eq\n      tag_41\n      jumpi\n      dup1\n      0x95d89b41\n      eq\n      tag_42\n      jumpi\n      dup1\n      0x9863d644\n      eq\n      tag_43\n      jumpi\n      jump(tag_2)\n    tag_69:\n      dup1\n      0x8a1e4393\n      gt\n      tag_71\n      jumpi\n      dup1\n      0x8a1e4393\n      eq\n      tag_36\n      jumpi\n      dup1\n      0x8aa03a3c\n      eq\n      tag_37\n      jumpi\n      dup1\n      0x8da5cb5b\n      eq\n      tag_38\n      jumpi\n      dup1\n      0x908a6bf0\n      eq\n      tag_39\n      jumpi\n      jump(tag_2)\n    tag_71:\n      dup1\n      0x82af7d39\n      eq\n      tag_33\n      jumpi\n      dup1\n      0x82fb82f5\n      eq\n      tag_34\n      jumpi\n      dup1\n      0x86982e61\n      eq\n      tag_35\n      jumpi\n      jump(tag_2)\n    tag_64:\n      dup1\n      0x5798b1ff\n      gt\n      tag_72\n      jumpi\n      dup1\n      0x72b990b5\n      gt\n      tag_73\n      jumpi\n      dup1\n      0x78e104da\n      gt\n      tag_74\n      jumpi\n      dup1\n      0x78e104da\n      eq\n      tag_29\n      jumpi\n      dup1\n      0x7ccf0226\n      eq\n      tag_30\n      jumpi\n      dup1\n      0x7e267f39\n      eq\n      tag_31\n      jumpi\n      dup1\n      0x8005a7de\n      eq\n      tag_32\n      jumpi\n      jump(tag_2)\n    tag_74:\n      dup1\n      0x72b990b5\n      eq\n      tag_25\n      jumpi\n      dup1\n      0x740c3495\n      eq\n      tag_26\n      jumpi\n      dup1\n      0x74ddcd1d\n      eq\n      tag_27\n      jumpi\n      dup1\n      0x7561ea9a\n      eq\n      tag_28\n      jumpi\n      jump(tag_2)\n    tag_73:\n      dup1\n      0x6c1f89ed\n      gt\n      tag_75\n      jumpi\n      dup1\n      0x6c1f89ed\n      eq\n      tag_21\n      jumpi\n      dup1\n      0x6d69847d\n      eq\n      tag_22\n      jumpi\n      dup1\n      0x70a08231\n      eq\n      tag_23\n      jumpi\n      dup1\n      0x715018a6\n      eq\n      tag_24\n      jumpi\n      jump(tag_2)\n    tag_75:\n      dup1\n      0x5798b1ff\n      eq\n      tag_18\n      jumpi\n      dup1\n      0x63cf3cff\n      eq\n      tag_19\n      jumpi\n      dup1\n      0x6a4bd5a6\n      eq\n      tag_20\n      jumpi\n      jump(tag_2)\n    tag_72:\n      dup1\n      0x2945ac68\n      gt\n      tag_76\n      jumpi\n      dup1\n      0x39509351\n      gt\n      tag_77\n      jumpi\n      dup1\n      0x39509351\n      eq\n      tag_14\n      jumpi\n      dup1\n      0x3e332f16\n      eq\n      tag_15\n      jumpi\n      dup1\n      0x3f2b437d\n      eq\n      tag_16\n      jumpi\n      dup1\n      0x483f3ac7\n      eq\n      tag_17\n      jumpi\n      jump(tag_2)\n    tag_77:\n      dup1\n      0x2945ac68\n      eq\n      tag_10\n      jumpi\n      dup1\n      0x30400a86\n      eq\n      tag_11\n      jumpi\n      dup1\n      0x305e2daf\n      eq\n      tag_12\n      jumpi\n      dup1\n      0x313ce567\n      eq\n      tag_13\n      jumpi\n      jump(tag_2)\n    tag_76:\n      dup1\n      0x1387520a\n      gt\n      tag_78\n      jumpi\n      dup1\n      0x1387520a\n      eq\n      tag_6\n      jumpi\n      dup1\n      0x18160ddd\n      eq\n      tag_7\n      jumpi\n      dup1\n      0x1f93abd4\n      eq\n      tag_8\n      jumpi\n      dup1\n      0x23b872dd\n      eq\n      tag_9\n      jumpi\n      jump(tag_2)\n    tag_78:\n      dup1\n      0x03ff8e88\n      eq\n      tag_3\n      jumpi\n      dup1\n      0x06fdde03\n      eq\n      tag_4\n      jumpi\n      dup1\n      0x095ea7b3\n      eq\n      tag_5\n      jumpi\n    tag_2:\n      0x00\n      dup1\n      revert\n        /* \"LiquidityToken.sol\":726:760  uint public campaignStakingRewards */\n    tag_3:\n      tag_79\n      tag_80\n      jump\t// in\n    tag_79:\n      mload(0x40)\n      dup1\n      dup3\n      dup2\n      mstore\n      0x20\n      add\n      swap2\n      pop\n      pop\n      mload(0x40)\n      dup1\n      swap2\n      sub\n      swap1\n      return\n        /* \"https://github.com/OpenZeppelin/openzeppelin-contracts/blob/v3.4.2-solc-0.7/contracts/token/ERC20/ERC20.sol\":2153:2242   */\n    tag_4:\n      tag_81\n      tag_82\n      jump\t// in\n    tag_81:\n      mload(0x40)\n      dup1\n      dup1\n      0x20\n      add\n      dup3\n      dup2\n      sub\n      dup3\n      mstore\n      dup4\n      dup2\n      dup2\n      mload\n      dup2\n      mstore\n      0x20\n      add\n      swap2\n      pop\n      dup1\n      mload\n      swap1\n      0x20\n      add\n      swap1\n      dup1\n      dup4\n      dup4\n      0x00\n    tag_83:\n      dup4\n      dup2\n      lt\n      iszero\n      tag_85\n      jumpi\n      dup1\n      dup3\n      add\n      mload\n      dup2\n      dup5\n      add\n      mstore\n      0x20\n      dup2\n      add\n      swap1\n      pop\n      jump(tag_83)\n    tag_85:\n      pop\n      pop\n      pop\n      pop\n      swap1\n      pop\n      swap1\n      dup2\n      add\n      swap1\n      0x1f\n      and\n      dup1\n      iszero\n      tag_86\n      jumpi\n      dup1\n      dup3\n      sub\n      dup1\n      mload\n      0x01\n      dup4\n      0x20\n      sub\n      0x0100\n      exp\n      sub\n      not\n      and\n      dup2\n      mstore\n      0x20\n      add\n      swap2\n      pop\n    tag_86:\n      pop\n      swap3\n      pop\n      pop\n      pop\n      mload(0x40)\n      dup1\n      swap2\n      sub\n      swap1\n      return\n        /* \"https://github.com/OpenZeppelin/openzeppelin-contracts/blob/v3.4.2-solc-0.7/contracts/token/ERC20/ERC20.sol\":4229:4395   */\n    tag_5:\n      tag_87\n      0x04\n      dup1\n      calldatasize\n      sub\n      0x40\n      dup2\n      lt\n      iszero\n      tag_88\n      jumpi\n      0x00\n      dup1\n      revert\n    tag_88:\n      dup2\n      add\n      swap1\n      dup1\n      dup1\n      calldataload\n      0xffffffffffffffffffffffffffffffffffffffff\n      and\n      swap1\n      0x20\n      add\n      swap1\n      swap3\n      swap2\n      swap1\n      dup1\n      calldataload\n      swap1\n      0x20\n      add\n      swap1\n      swap3\n      swap2\n      swap1\n      pop\n      pop\n      pop\n      tag_89\n      jump\t// in\n    tag_87:\n      mload(0x40)\n      dup1\n      dup3\n      iszero\n      iszero\n      dup2\n      mstore\n      0x20\n      add\n      swap2\n      pop\n      pop\n      mload(0x40)\n      dup1\n      swap2\n      sub\n      swap1\n      return\n        /* \"LiquidityToken.sol\":1435:1470  uint public immutable maxStakingAPR */\n    tag_6:\n      tag_90\n      tag_91\n      jump\t// in\n    tag_90:\n      mload(0x40)\n      dup1\n      dup3\n      dup2\n      mstore\n      0x20\n      add\n      swap2\n      pop\n      pop\n      mload(0x40)\n      dup1\n      swap2\n      sub\n      swap1\n      return\n        /* \"https://github.com/OpenZeppelin/openzeppelin-contracts/blob/v3.4.2-solc-0.7/contracts/token/ERC20/ERC20.sol\":3220:3326   */\n    tag_7:\n      tag_92\n      tag_93\n      jump\t// in\n    tag_92:\n      mload(0x40)\n      dup1\n      dup3\n      dup2\n      mstore\n      0x20\n      add\n      swap2\n      pop\n      pop\n      mload(0x40)\n      dup1\n      swap2\n      sub\n      swap1\n      return\n        /* \"LiquidityToken.sol\":4897:5066  function ensureUserFunctionsAreNotDisabled() public view {... */\n    tag_8:\n      tag_94\n      tag_95\n      jump\t// in\n    tag_94:\n      stop\n        /* \"https://github.com/OpenZeppelin/openzeppelin-contracts/blob/v3.4.2-solc-0.7/contracts/token/ERC20/ERC20.sol\":4862:5179   */\n    tag_9:\n      tag_96\n      0x04\n      dup1\n      calldatasize\n      sub\n      0x60\n      dup2\n      lt\n      iszero\n      tag_97\n      jumpi\n      0x00\n      dup1\n      revert\n    tag_97:\n      dup2\n      add\n      swap1\n      dup1\n      dup1\n      calldataload\n      0xffffffffffffffffffffffffffffffffffffffff\n      and\n      swap1\n      0x20\n      add\n      swap1\n      swap3\n      swap2\n      swap1\n      dup1\n      calldataload\n      0xffffffffffffffffffffffffffffffffffffffff\n      and\n      swap1\n      0x20\n      add\n      swap1\n      swap3\n      swap2\n      swap1\n      dup1\n      calldataload\n      swap1\n      0x20\n      add\n      swap1\n      swap3\n      swap2\n      swap1\n      pop\n      pop\n      pop\n      tag_98\n      jump\t// in\n    tag_96:\n      mload(0x40)\n      dup1\n      dup3\n      iszero\n      iszero\n      dup2\n      mstore\n      0x20\n      add\n      swap2\n      pop\n      pop\n      mload(0x40)\n      dup1\n      swap2\n      sub\n      swap1\n      return\n        /* \"LiquidityToken.sol\":1129:1183  uint public immutable fractionInitialUnlockPerThousand */\n    tag_10:\n      tag_99\n      tag_100\n      jump\t// in\n    tag_99:\n      mload(0x40)\n      dup1\n      dup3\n      dup2\n      mstore\n      0x20\n      add\n      swap2\n      pop\n      pop\n      mload(0x40)\n      dup1\n      swap2\n      sub\n      swap1\n      return\n        /* \"LiquidityToken.sol\":1709:1762  mapping (address => LiquiToken) public userLiquiToken */\n    tag_11:\n      tag_101\n      0x04\n      dup1\n      calldatasize\n      sub\n      0x20\n      dup2\n      lt\n      iszero\n      tag_102\n      jumpi\n      0x00\n      dup1\n      revert\n    tag_102:\n      dup2\n      add\n      swap1\n      dup1\n      dup1\n      calldataload\n      0xffffffffffffffffffffffffffffffffffffffff\n      and\n      swap1\n      0x20\n      add\n      swap1\n      swap3\n      swap2\n      swap1\n      pop\n      pop\n      pop\n      tag_103\n      jump\t// in\n    tag_101:\n      mload(0x40)\n      dup1\n      dup5\n      dup2\n      mstore\n      0x20\n      add\n      dup4\n      dup2\n      mstore\n      0x20\n      add\n      dup3\n      dup2\n      mstore\n      0x20\n      add\n      swap4\n      pop\n      pop\n      pop\n      pop\n      mload(0x40)\n      dup1\n      swap2\n      sub\n      swap1\n      return\n        /* \"LiquidityToken.sol\":17598:17793  function getUserDateOfPartiallyChargedToken(address _user) public view... */\n    tag_12:\n      tag_104\n      0x04\n      dup1\n      calldatasize\n      sub\n      0x20\n      dup2\n      lt\n      iszero\n      tag_105\n      jumpi\n      0x00\n      dup1\n      revert\n    tag_105:\n      dup2\n      add\n      swap1\n      dup1\n      dup1\n      calldataload\n      0xffffffffffffffffffffffffffffffffffffffff\n      and\n      swap1\n      0x20\n      add\n      swap1\n      swap3\n      swap2\n      swap1\n      pop\n      pop\n      pop\n      tag_106\n      jump\t// in\n    tag_104:\n      mload(0x40)\n      dup1\n      dup3\n      dup2\n      mstore\n      0x20\n      add\n      swap2\n      pop\n      pop\n      mload(0x40)\n      dup1\n      swap2\n      sub\n      swap1\n      return\n        /* \"https://github.com/OpenZeppelin/openzeppelin-contracts/blob/v3.4.2-solc-0.7/contracts/token/ERC20/ERC20.sol\":3071:3160   */\n    tag_13:\n      tag_107\n      tag_108\n      jump\t// in\n    tag_107:\n      mload(0x40)\n      dup1\n      dup3\n      0xff\n      and\n      dup2\n      mstore\n      0x20\n      add\n      swap2\n      pop\n      pop\n      mload(0x40)\n      dup1\n      swap2\n      sub\n      swap1\n      return\n        /* \"https://github.com/OpenZeppelin/openzeppelin-contracts/blob/v3.4.2-solc-0.7/contracts/token/ERC20/ERC20.sol\":5574:5789   */\n    tag_14:\n      tag_109\n      0x04\n      dup1\n      calldatasize\n      sub\n      0x40\n      dup2\n      lt\n      iszero\n      tag_110\n      jumpi\n      0x00\n      dup1\n      revert\n    tag_110:\n      dup2\n      add\n      swap1\n      dup1\n      dup1\n      calldataload\n      0xffffffffffffffffffffffffffffffffffffffff\n      and\n      swap1\n      0x20\n      add\n      swap1\n      swap3\n      swap2\n      swap1\n      dup1\n      calldataload\n      swap1\n      0x20\n      add\n      swap1\n      swap3\n      swap2\n      swap1\n      pop\n      pop\n      pop\n      tag_111\n      jump\t// in\n    tag_109:\n      mload(0x40)\n      dup1\n      dup3\n      iszero\n      iszero\n      dup2\n      mstore\n      0x20\n      add\n      swap2\n      pop\n      pop\n      mload(0x40)\n      dup1\n      swap2\n      sub\n      swap1\n      return\n        /* \"LiquidityToken.sol\":523:573  InterfaceProjectToken public interfaceProjectToken */\n    tag_15:\n      tag_112\n      tag_113\n      jump\t// in\n    tag_112:\n      mload(0x40)\n      dup1\n      dup3\n      0xffffffffffffffffffffffffffffffffffffffff\n      and\n      dup2\n      mstore\n      0x20\n      add\n      swap2\n      pop\n      pop\n      mload(0x40)\n      dup1\n      swap2\n      sub\n      swap1\n      return\n        /* \"LiquidityToken.sol\":1187:1222  uint public immutable durationCliff */\n    tag_16:\n      tag_114\n      tag_115\n      jump\t// in\n    tag_114:\n      mload(0x40)\n      dup1\n      dup3\n      dup2\n      mstore\n      0x20\n      add\n      swap2\n      pop\n      pop\n      mload(0x40)\n      dup1\n      swap2\n      sub\n      swap1\n      return\n        /* \"LiquidityToken.sol\":8144:9260  function withdrawLT(uint _value) public {... */\n    tag_17:\n      tag_116\n      0x04\n      dup1\n      calldatasize\n      sub\n      0x20\n      dup2\n      lt\n      iszero\n      tag_117\n      jumpi\n      0x00\n      dup1\n      revert\n    tag_117:\n      dup2\n      add\n      swap1\n      dup1\n      dup1\n      calldataload\n      swap1\n      0x20\n      add\n      swap1\n      swap3\n      swap2\n      swap1\n      pop\n      pop\n      pop\n      tag_118\n      jump\t// in\n    tag_116:\n      stop\n        /* \"LiquidityToken.sol\":5498:5643  function lockInterfaceProjectToken() public onlyOwner() {... */\n    tag_18:\n      tag_119\n      tag_120\n      jump\t// in\n    tag_119:\n      stop\n        /* \"LiquidityToken.sol\":1003:1039  bool public areUserFunctionsDisabled */\n    tag_19:\n      tag_121\n      tag_122\n      jump\t// in\n    tag_121:\n      mload(0x40)\n      dup1\n      dup3\n      iszero\n      iszero\n      dup2\n      mstore\n      0x20\n      add\n      swap2\n      pop\n      pop\n      mload(0x40)\n      dup1\n      swap2\n      sub\n      swap1\n      return\n        /* \"LiquidityToken.sol\":922:953  uint public totalTokenAllocated */\n    tag_20:\n      tag_123\n      tag_124\n      jump\t// in\n    tag_123:\n      mload(0x40)\n      dup1\n      dup3\n      dup2\n      mstore\n      0x20\n      add\n      swap2\n      pop\n      pop\n      mload(0x40)\n      dup1\n      swap2\n      sub\n      swap1\n      return\n        /* \"LiquidityToken.sol\":685:722  uint public stakingDateLastCheckpoint */\n    tag_21:\n      tag_125\n      tag_126\n      jump\t// in\n    tag_125:\n      mload(0x40)\n      dup1\n      dup3\n      dup2\n      mstore\n      0x20\n      add\n      swap2\n      pop\n      pop\n      mload(0x40)\n      dup1\n      swap2\n      sub\n      swap1\n      return\n        /* \"LiquidityToken.sol\":16757:16884  function burnByInterfaceProjectToken(uint _value) public onlyInterfaceProjectToken() {... */\n    tag_22:\n      tag_127\n      0x04\n      dup1\n      calldatasize\n      sub\n      0x20\n      dup2\n      lt\n      iszero\n      tag_128\n      jumpi\n      0x00\n      dup1\n      revert\n    tag_128:\n      dup2\n      add\n      swap1\n      dup1\n      dup1\n      calldataload\n      swap1\n      0x20\n      add\n      swap1\n      swap3\n      swap2\n      swap1\n      pop\n      pop\n      pop\n      tag_129\n      jump\t// in\n    tag_127:\n      stop\n        /* \"https://github.com/OpenZeppelin/openzeppelin-contracts/blob/v3.4.2-solc-0.7/contracts/token/ERC20/ERC20.sol\":3384:3509   */\n    tag_23:\n      tag_130\n      0x04\n      dup1\n      calldatasize\n      sub\n      0x20\n      dup2\n      lt\n      iszero\n      tag_131\n      jumpi\n      0x00\n      dup1\n      revert\n    tag_131:\n      dup2\n      add\n      swap1\n      dup1\n      dup1\n      calldataload\n      0xffffffffffffffffffffffffffffffffffffffff\n      and\n      swap1\n      0x20\n      add\n      swap1\n      swap3\n      swap2\n      swap1\n      pop\n      pop\n      pop\n      tag_132\n      jump\t// in\n    tag_130:\n      mload(0x40)\n      dup1\n      dup3\n      dup2\n      mstore\n      0x20\n      add\n      swap2\n      pop\n      pop\n      mload(0x40)\n      dup1\n      swap2\n      sub\n      swap1\n      return\n        /* \"https://github.com/OpenZeppelin/openzeppelin-contracts/blob/v3.4.2-solc-0.7/contracts/access/Ownable.sol\":1700:1845   */\n    tag_24:\n      tag_133\n      tag_134\n      jump\t// in\n    tag_133:\n      stop\n        /* \"LiquidityToken.sol\":14285:14560  function updateRatioFeesToRewardHodlers(uint _valuePerThousand) public onlyOwner() {... */\n    tag_25:\n      tag_135\n      0x04\n      dup1\n      calldatasize\n      sub\n      0x20\n      dup2\n      lt\n      iszero\n      tag_136\n      jumpi\n      0x00\n      dup1\n      revert\n    tag_136:\n      dup2\n      add\n      swap1\n      dup1\n      dup1\n      calldataload\n      swap1\n      0x20\n      add\n      swap1\n      swap3\n      swap2\n      swap1\n      pop\n      pop\n      pop\n      tag_137\n      jump\t// in\n    tag_135:\n      stop\n        /* \"LiquidityToken.sol\":15124:15876  function rechargeUserTokens(address _user, uint _valueFullyChargedToIncrease, uint _valuePartiallyChargedToDecrease, ... */\n    tag_26:\n      tag_138\n      0x04\n      dup1\n      calldatasize\n      sub\n      0x80\n      dup2\n      lt\n      iszero\n      tag_139\n      jumpi\n      0x00\n      dup1\n      revert\n    tag_139:\n      dup2\n      add\n      swap1\n      dup1\n      dup1\n      calldataload\n      0xffffffffffffffffffffffffffffffffffffffff\n      and\n      swap1\n      0x20\n      add\n      swap1\n      swap3\n      swap2\n      swap1\n      dup1\n      calldataload\n      swap1\n      0x20\n      add\n      swap1\n      swap3\n      swap2\n      swap1\n      dup1\n      calldataload\n      swap1\n      0x20\n      add\n      swap1\n      swap3\n      swap2\n      swap1\n      dup1\n      calldataload\n      swap1\n      0x20\n      add\n      swap1\n      swap3\n      swap2\n      swap1\n      pop\n      pop\n      pop\n      tag_140\n      jump\t// in\n    tag_138:\n      stop\n        /* \"LiquidityToken.sol\":799:853  uint public ratioFeesToRewardHodlersPerThousand = 1000 */\n    tag_27:\n      tag_141\n      tag_142\n      jump\t// in\n    tag_141:\n      mload(0x40)\n      dup1\n      dup3\n      dup2\n      mstore\n      0x20\n      add\n      swap2\n      pop\n      pop\n      mload(0x40)\n      dup1\n      swap2\n      sub\n      swap1\n      return\n        /* \"LiquidityToken.sol\":17198:17386  function getUserFullyChargedBalanceLiquiToken(address _user) public view... */\n    tag_28:\n      tag_143\n      0x04\n      dup1\n      calldatasize\n      sub\n      0x20\n      dup2\n      lt\n      iszero\n      tag_144\n      jumpi\n      0x00\n      dup1\n      revert\n    tag_144:\n      dup2\n      add\n      swap1\n      dup1\n      dup1\n      calldataload\n      0xffffffffffffffffffffffffffffffffffffffff\n      and\n      swap1\n      0x20\n      add\n      swap1\n      swap3\n      swap2\n      swap1\n      pop\n      pop\n      pop\n      tag_145\n      jump\t// in\n    tag_143:\n      mload(0x40)\n      dup1\n      dup3\n      dup2\n      mstore\n      0x20\n      add\n      swap2\n      pop\n      pop\n      mload(0x40)\n      dup1\n      swap2\n      sub\n      swap1\n      return\n        /* \"LiquidityToken.sol\":1381:1431  uint public immutable maxClaimFeesPerThousandForPT */\n    tag_29:\n      tag_146\n      tag_147\n      jump\t// in\n    tag_146:\n      mload(0x40)\n      dup1\n      dup3\n      dup2\n      mstore\n      0x20\n      add\n      swap2\n      pop\n      pop\n      mload(0x40)\n      dup1\n      swap2\n      sub\n      swap1\n      return\n        /* \"LiquidityToken.sol\":622:650  uint public stakingStartDate */\n    tag_30:\n      tag_148\n      tag_149\n      jump\t// in\n    tag_148:\n      mload(0x40)\n      dup1\n      dup3\n      dup2\n      mstore\n      0x20\n      add\n      swap2\n      pop\n      pop\n      mload(0x40)\n      dup1\n      swap2\n      sub\n      swap1\n      return\n        /* \"LiquidityToken.sol\":578:618  uint public constant multiplier1K = 1000 */\n    tag_31:\n      tag_150\n      tag_151\n      jump\t// in\n    tag_150:\n      mload(0x40)\n      dup1\n      dup3\n      dup2\n      mstore\n      0x20\n      add\n      swap2\n      pop\n      pop\n      mload(0x40)\n      dup1\n      swap2\n      sub\n      swap1\n      return\n        /* \"LiquidityToken.sol\":654:681  uint public stakingDuration */\n    tag_32:\n      tag_152\n      tag_153\n      jump\t// in\n    tag_152:\n      mload(0x40)\n      dup1\n      dup3\n      dup2\n      mstore\n      0x20\n      add\n      swap2\n      pop\n      pop\n      mload(0x40)\n      dup1\n      swap2\n      sub\n      swap1\n      return\n        /* \"LiquidityToken.sol\":15880:16625  function dischargeUserTokens(address _user, uint _valueProjectToken) public onlyInterfaceProjectToken() {... */\n    tag_33:\n      tag_154\n      0x04\n      dup1\n      calldatasize\n      sub\n      0x40\n      dup2\n      lt\n      iszero\n      tag_155\n      jumpi\n      0x00\n      dup1\n      revert\n    tag_155:\n      dup2\n      add\n      swap1\n      dup1\n      dup1\n      calldataload\n      0xffffffffffffffffffffffffffffffffffffffff\n      and\n      swap1\n      0x20\n      add\n      swap1\n      swap3\n      swap2\n      swap1\n      dup1\n      calldataload\n      swap1\n      0x20\n      add\n      swap1\n      swap3\n      swap2\n      swap1\n      pop\n      pop\n      pop\n      tag_156\n      jump\t// in\n    tag_154:\n      stop\n        /* \"LiquidityToken.sol\":1474:1517  uint public immutable maxStakingTokenAmount */\n    tag_34:\n      tag_157\n      tag_158\n      jump\t// in\n    tag_157:\n      mload(0x40)\n      dup1\n      dup3\n      dup2\n      mstore\n      0x20\n      add\n      swap2\n      pop\n      pop\n      mload(0x40)\n      dup1\n      swap2\n      sub\n      swap1\n      return\n        /* \"LiquidityToken.sol\":1273:1320  uint public immutable maxInitialTokenAllocation */\n    tag_35:\n      tag_159\n      tag_160\n      jump\t// in\n    tag_159:\n      mload(0x40)\n      dup1\n      dup3\n      dup2\n      mstore\n      0x20\n      add\n      swap2\n      pop\n      pop\n      mload(0x40)\n      dup1\n      swap2\n      sub\n      swap1\n      return\n        /* \"LiquidityToken.sol\":1043:1084  bool public isInterfaceProjectTokenLocked */\n    tag_36:\n      tag_161\n      tag_162\n      jump\t// in\n    tag_161:\n      mload(0x40)\n      dup1\n      dup3\n      iszero\n      iszero\n      dup2\n      mstore\n      0x20\n      add\n      swap2\n      pop\n      pop\n      mload(0x40)\n      dup1\n      swap2\n      sub\n      swap1\n      return\n        /* \"LiquidityToken.sol\":1324:1377  uint public immutable maxWithdrawFeesPerThousandForLT */\n    tag_37:\n      tag_163\n      tag_164\n      jump\t// in\n    tag_163:\n      mload(0x40)\n      dup1\n      dup3\n      dup2\n      mstore\n      0x20\n      add\n      swap2\n      pop\n      pop\n      mload(0x40)\n      dup1\n      swap2\n      sub\n      swap1\n      return\n        /* \"https://github.com/OpenZeppelin/openzeppelin-contracts/blob/v3.4.2-solc-0.7/contracts/access/Ownable.sol\":1068:1153   */\n    tag_38:\n      tag_165\n      tag_166\n      jump\t// in\n    tag_165:\n      mload(0x40)\n      dup1\n      dup3\n      0xffffffffffffffffffffffffffffffffffffffff\n      and\n      dup2\n      mstore\n      0x20\n      add\n      swap2\n      pop\n      pop\n      mload(0x40)\n      dup1\n      swap2\n      sub\n      swap1\n      return\n        /* \"LiquidityToken.sol\":10120:10811  function getUpdatedRewardPerShare1e18(uint _blockTime) public view returns(uint _updatedRewardPerShare1e18) {  ... */\n    tag_39:\n      tag_167\n      0x04\n      dup1\n      calldatasize\n      sub\n      0x20\n      dup2\n      lt\n      iszero\n      tag_168\n      jumpi\n      0x00\n      dup1\n      revert\n    tag_168:\n      dup2\n      add\n      swap1\n      dup1\n      dup1\n      calldataload\n      swap1\n      0x20\n      add\n      swap1\n      swap3\n      swap2\n      swap1\n      pop\n      pop\n      pop\n      tag_169\n      jump\t// in\n    tag_167:\n      mload(0x40)\n      dup1\n      dup3\n      dup2\n      mstore\n      0x20\n      add\n      swap2\n      pop\n      pop\n      mload(0x40)\n      dup1\n      swap2\n      sub\n      swap1\n      return\n        /* \"LiquidityToken.sol\":764:795  uint public totalStakingRewards */\n    tag_40:\n      tag_170\n      tag_171\n      jump\t// in\n    tag_170:\n      mload(0x40)\n      dup1\n      dup3\n      dup2\n      mstore\n      0x20\n      add\n      swap2\n      pop\n      pop\n      mload(0x40)\n      dup1\n      swap2\n      sub\n      swap1\n      return\n        /* \"LiquidityToken.sol\":1522:1580  mapping (address => uint) public claimedRewardPerShare1e18 */\n    tag_41:\n      tag_172\n      0x04\n      dup1\n      calldatasize\n      sub\n      0x20\n      dup2\n      lt\n      iszero\n      tag_173\n      jumpi\n      0x00\n      dup1\n      revert\n    tag_173:\n      dup2\n      add\n      swap1\n      dup1\n      dup1\n      calldataload\n      0xffffffffffffffffffffffffffffffffffffffff\n      and\n      swap1\n      0x20\n      add\n      swap1\n      swap3\n      swap2\n      swap1\n      pop\n      pop\n      pop\n      tag_174\n      jump\t// in\n    tag_172:\n      mload(0x40)\n      dup1\n      dup3\n      dup2\n      mstore\n      0x20\n      add\n      swap2\n      pop\n      pop\n      mload(0x40)\n      dup1\n      swap2\n      sub\n      swap1\n      return\n        /* \"https://github.com/OpenZeppelin/openzeppelin-contracts/blob/v3.4.2-solc-0.7/contracts/token/ERC20/ERC20.sol\":2355:2448   */\n    tag_42:\n      tag_175\n      tag_176\n      jump\t// in\n    tag_175:\n      mload(0x40)\n      dup1\n      dup1\n      0x20\n      add\n      dup3\n      dup2\n      sub\n      dup3\n      mstore\n      dup4\n      dup2\n      dup2\n      mload\n      dup2\n      mstore\n      0x20\n      add\n      swap2\n      pop\n      dup1\n      mload\n      swap1\n      0x20\n      add\n      swap1\n      dup1\n      dup4\n      dup4\n      0x00\n    tag_177:\n      dup4\n      dup2\n      lt\n      iszero\n      tag_179\n      jumpi\n      dup1\n      dup3\n      add\n      mload\n      dup2\n      dup5\n      add\n      mstore\n      0x20\n      dup2\n      add\n      swap1\n      pop\n      jump(tag_177)\n    tag_179:\n      pop\n      pop\n      pop\n      pop\n      swap1\n      pop\n      swap1\n      dup2\n      add\n      swap1\n      0x1f\n      and\n      dup1\n      iszero\n      tag_180\n      jumpi\n      dup1\n      dup3\n      sub\n      dup1\n      mload\n      0x01\n      dup4\n      0x20\n      sub\n      0x0100\n      exp\n      sub\n      not\n      and\n      dup2\n      mstore\n      0x20\n      add\n      swap2\n      pop\n    tag_180:\n      pop\n      swap3\n      pop\n      pop\n      pop\n      mload(0x40)\n      dup1\n      swap2\n      sub\n      swap1\n      return\n        /* \"LiquidityToken.sol\":1088:1124  bool public areAllocationsTerminated */\n    tag_43:\n      tag_181\n      tag_182\n      jump\t// in\n    tag_181:\n      mload(0x40)\n      dup1\n      dup3\n      iszero\n      iszero\n      dup2\n      mstore\n      0x20\n      add\n      swap2\n      pop\n      pop\n      mload(0x40)\n      dup1\n      swap2\n      sub\n      swap1\n      return\n        /* \"LiquidityToken.sol\":7607:7737  function terminateAllocations() public onlyOwner() {... */\n    tag_44:\n      tag_183\n      tag_184\n      jump\t// in\n    tag_183:\n      stop\n        /* \"LiquidityToken.sol\":17390:17594  function getUserPartiallyChargedBalanceLiquiToken(address _user) public view... */\n    tag_45:\n      tag_185\n      0x04\n      dup1\n      calldatasize\n      sub\n      0x20\n      dup2\n      lt\n      iszero\n      tag_186\n      jumpi\n      0x00\n      dup1\n      revert\n    tag_186:\n      dup2\n      add\n      swap1\n      dup1\n      dup1\n      calldataload\n      0xffffffffffffffffffffffffffffffffffffffff\n      and\n      swap1\n      0x20\n      add\n      swap1\n      swap3\n      swap2\n      swap1\n      pop\n      pop\n      pop\n      tag_187\n      jump\t// in\n    tag_185:\n      mload(0x40)\n      dup1\n      dup3\n      dup2\n      mstore\n      0x20\n      add\n      swap2\n      pop\n      pop\n      mload(0x40)\n      dup1\n      swap2\n      sub\n      swap1\n      return\n        /* \"LiquidityToken.sol\":12556:13999  function setStakingRewards(uint _stakingStartDate, uint _stakingDuration, uint _campaignStakingRewards) ... */\n    tag_46:\n      tag_188\n      0x04\n      dup1\n      calldatasize\n      sub\n      0x60\n      dup2\n      lt\n      iszero\n      tag_189\n      jumpi\n      0x00\n      dup1\n      revert\n    tag_189:\n      dup2\n      add\n      swap1\n      dup1\n      dup1\n      calldataload\n      swap1\n      0x20\n      add\n      swap1\n      swap3\n      swap2\n      swap1\n      dup1\n      calldataload\n      swap1\n      0x20\n      add\n      swap1\n      swap3\n      swap2\n      swap1\n      dup1\n      calldataload\n      swap1\n      0x20\n      add\n      swap1\n      swap3\n      swap2\n      swap1\n      pop\n      pop\n      pop\n      tag_190\n      jump\t// in\n    tag_188:\n      stop\n        /* \"https://github.com/OpenZeppelin/openzeppelin-contracts/blob/v3.4.2-solc-0.7/contracts/token/ERC20/ERC20.sol\":6276:6542   */\n    tag_47:\n      tag_191\n      0x04\n      dup1\n      calldatasize\n      sub\n      0x40\n      dup2\n      lt\n      iszero\n      tag_192\n      jumpi\n      0x00\n      dup1\n      revert\n    tag_192:\n      dup2\n      add\n      swap1\n      dup1\n      dup1\n      calldataload\n      0xffffffffffffffffffffffffffffffffffffffff\n      and\n      swap1\n      0x20\n      add\n      swap1\n      swap3\n      swap2\n      swap1\n      dup1\n      calldataload\n      swap1\n      0x20\n      add\n      swap1\n      swap3\n      swap2\n      swap1\n      pop\n      pop\n      pop\n      tag_193\n      jump\t// in\n    tag_191:\n      mload(0x40)\n      dup1\n      dup3\n      iszero\n      iszero\n      dup2\n      mstore\n      0x20\n      add\n      swap2\n      pop\n      pop\n      mload(0x40)\n      dup1\n      swap2\n      sub\n      swap1\n      return\n        /* \"LiquidityToken.sol\":4645:4893  function enableOrDisableUserFunctions() public onlyOwner() {... */\n    tag_48:\n      tag_194\n      tag_195\n      jump\t// in\n    tag_194:\n      stop\n        /* \"https://github.com/OpenZeppelin/openzeppelin-contracts/blob/v3.4.2-solc-0.7/contracts/token/ERC20/ERC20.sol\":3712:3884   */\n    tag_49:\n      tag_196\n      0x04\n      dup1\n      calldatasize\n      sub\n      0x40\n      dup2\n      lt\n      iszero\n      tag_197\n      jumpi\n      0x00\n      dup1\n      revert\n    tag_197:\n      dup2\n      add\n      swap1\n      dup1\n      dup1\n      calldataload\n      0xffffffffffffffffffffffffffffffffffffffff\n      and\n      swap1\n      0x20\n      add\n      swap1\n      swap3\n      swap2\n      swap1\n      dup1\n      calldataload\n      swap1\n      0x20\n      add\n      swap1\n      swap3\n      swap2\n      swap1\n      pop\n      pop\n      pop\n      tag_198\n      jump\t// in\n    tag_196:\n      mload(0x40)\n      dup1\n      dup3\n      iszero\n      iszero\n      dup2\n      mstore\n      0x20\n      add\n      swap2\n      pop\n      pop\n      mload(0x40)\n      dup1\n      swap2\n      sub\n      swap1\n      return\n        /* \"LiquidityToken.sol\":957:997  uint public withdrawFeesPerThousandForLT */\n    tag_50:\n      tag_199\n      tag_200\n      jump\t// in\n    tag_199:\n      mload(0x40)\n      dup1\n      dup3\n      dup2\n      mstore\n      0x20\n      add\n      swap2\n      pop\n      pop\n      mload(0x40)\n      dup1\n      swap2\n      sub\n      swap1\n      return\n        /* \"LiquidityToken.sol\":14005:14281  function updateWithdrawalFeesForLT(uint _valuePerThousand) public onlyOwner() {... */\n    tag_51:\n      tag_201\n      0x04\n      dup1\n      calldatasize\n      sub\n      0x20\n      dup2\n      lt\n      iszero\n      tag_202\n      jumpi\n      0x00\n      dup1\n      revert\n    tag_202:\n      dup2\n      add\n      swap1\n      dup1\n      dup1\n      calldataload\n      swap1\n      0x20\n      add\n      swap1\n      swap3\n      swap2\n      swap1\n      pop\n      pop\n      pop\n      tag_203\n      jump\t// in\n    tag_201:\n      stop\n        /* \"LiquidityToken.sol\":898:918  uint public stakedLT */\n    tag_52:\n      tag_204\n      tag_205\n      jump\t// in\n    tag_204:\n      mload(0x40)\n      dup1\n      dup3\n      dup2\n      mstore\n      0x20\n      add\n      swap2\n      pop\n      pop\n      mload(0x40)\n      dup1\n      swap2\n      sub\n      swap1\n      return\n        /* \"LiquidityToken.sol\":11827:12552  function depositLT(uint _value) public {... */\n    tag_53:\n      tag_206\n      0x04\n      dup1\n      calldatasize\n      sub\n      0x20\n      dup2\n      lt\n      iszero\n      tag_207\n      jumpi\n      0x00\n      dup1\n      revert\n    tag_207:\n      dup2\n      add\n      swap1\n      dup1\n      dup1\n      calldataload\n      swap1\n      0x20\n      add\n      swap1\n      swap3\n      swap2\n      swap1\n      pop\n      pop\n      pop\n      tag_208\n      jump\t// in\n    tag_206:\n      stop\n        /* \"LiquidityToken.sol\":16629:16753  function mintByInterfaceProjectToken(uint _value) public onlyInterfaceProjectToken() {... */\n    tag_54:\n      tag_209\n      0x04\n      dup1\n      calldatasize\n      sub\n      0x20\n      dup2\n      lt\n      iszero\n      tag_210\n      jumpi\n      0x00\n      dup1\n      revert\n    tag_210:\n      dup2\n      add\n      swap1\n      dup1\n      dup1\n      calldataload\n      swap1\n      0x20\n      add\n      swap1\n      swap3\n      swap2\n      swap1\n      pop\n      pop\n      pop\n      tag_211\n      jump\t// in\n    tag_209:\n      stop\n        /* \"LiquidityToken.sol\":5070:5494  function setInterfaceProjectToken(InterfaceProjectToken _interfaceProjectToken)... */\n    tag_55:\n      tag_212\n      0x04\n      dup1\n      calldatasize\n      sub\n      0x20\n      dup2\n      lt\n      iszero\n      tag_213\n      jumpi\n      0x00\n      dup1\n      revert\n    tag_213:\n      dup2\n      add\n      swap1\n      dup1\n      dup1\n      calldataload\n      0xffffffffffffffffffffffffffffffffffffffff\n      and\n      swap1\n      0x20\n      add\n      swap1\n      swap3\n      swap2\n      swap1\n      pop\n      pop\n      pop\n      tag_214\n      jump\t// in\n    tag_212:\n      stop\n        /* \"https://github.com/OpenZeppelin/openzeppelin-contracts/blob/v3.4.2-solc-0.7/contracts/token/ERC20/ERC20.sol\":3942:4091   */\n    tag_56:\n      tag_215\n      0x04\n      dup1\n      calldatasize\n      sub\n      0x40\n      dup2\n      lt\n      iszero\n      tag_216\n      jumpi\n      0x00\n      dup1\n      revert\n    tag_216:\n      dup2\n      add\n      swap1\n      dup1\n      dup1\n      calldataload\n      0xffffffffffffffffffffffffffffffffffffffff\n      and\n      swap1\n      0x20\n      add\n      swap1\n      swap3\n      swap2\n      swap1\n      dup1\n      calldataload\n      0xffffffffffffffffffffffffffffffffffffffff\n      and\n      swap1\n      0x20\n      add\n      swap1\n      swap3\n      swap2\n      swap1\n      pop\n      pop\n      pop\n      tag_217\n      jump\t// in\n    tag_215:\n      mload(0x40)\n      dup1\n      dup3\n      dup2\n      mstore\n      0x20\n      add\n      swap2\n      pop\n      pop\n      mload(0x40)\n      dup1\n      swap2\n      sub\n      swap1\n      return\n        /* \"LiquidityToken.sol\":5735:7603  function allocateLTByOwner(address[] memory _users, uint[] memory _values, bool _areAllocationsToBeStaked)... */\n    tag_57:\n      tag_218\n      0x04\n      dup1\n      calldatasize\n      sub\n      0x60\n      dup2\n      lt\n      iszero\n      tag_219\n      jumpi\n      0x00\n      dup1\n      revert\n    tag_219:\n      dup2\n      add\n      swap1\n      dup1\n      dup1\n      calldataload\n      swap1\n      0x20\n      add\n      swap1\n      0x0100000000\n      dup2\n      gt\n      iszero\n      tag_220\n      jumpi\n      0x00\n      dup1\n      revert\n    tag_220:\n      dup3\n      add\n      dup4\n      0x20\n      dup3\n      add\n      gt\n      iszero\n      tag_221\n      jumpi\n      0x00\n      dup1\n      revert\n    tag_221:\n      dup1\n      calldataload\n      swap1\n      0x20\n      add\n      swap2\n      dup5\n      0x20\n      dup4\n      mul\n      dup5\n      add\n      gt\n      0x0100000000\n      dup4\n      gt\n      or\n      iszero\n      tag_222\n      jumpi\n      0x00\n      dup1\n      revert\n    tag_222:\n      swap2\n      swap1\n      dup1\n      dup1\n      0x20\n      mul\n      0x20\n      add\n      mload(0x40)\n      swap1\n      dup2\n      add\n      0x40\n      mstore\n      dup1\n      swap4\n      swap3\n      swap2\n      swap1\n      dup2\n      dup2\n      mstore\n      0x20\n      add\n      dup4\n      dup4\n      0x20\n      mul\n      dup1\n      dup3\n      dup5\n      calldatacopy\n      0x00\n      dup2\n      dup5\n      add\n      mstore\n      not(0x1f)\n      0x1f\n      dup3\n      add\n      and\n      swap1\n      pop\n      dup1\n      dup4\n      add\n      swap3\n      pop\n      pop\n      pop\n      pop\n      pop\n      pop\n      pop\n      swap2\n      swap3\n      swap2\n      swap3\n      swap1\n      dup1\n      calldataload\n      swap1\n      0x20\n      add\n      swap1\n      0x0100000000\n      dup2\n      gt\n      iszero\n      tag_223\n      jumpi\n      0x00\n      dup1\n      revert\n    tag_223:\n      dup3\n      add\n      dup4\n      0x20\n      dup3\n      add\n      gt\n      iszero\n      tag_224\n      jumpi\n      0x00\n      dup1\n      revert\n    tag_224:\n      dup1\n      calldataload\n      swap1\n      0x20\n      add\n      swap2\n      dup5\n      0x20\n      dup4\n      mul\n      dup5\n      add\n      gt\n      0x0100000000\n      dup4\n      gt\n      or\n      iszero\n      tag_225\n      jumpi\n      0x00\n      dup1\n      revert\n    tag_225:\n      swap2\n      swap1\n      dup1\n      dup1\n      0x20\n      mul\n      0x20\n      add\n      mload(0x40)\n      swap1\n      dup2\n      add\n      0x40\n      mstore\n      dup1\n      swap4\n      swap3\n      swap2\n      swap1\n      dup2\n      dup2\n      mstore\n      0x20\n      add\n      dup4\n      dup4\n      0x20\n      mul\n      dup1\n      dup3\n      dup5\n      calldatacopy\n      0x00\n      dup2\n      dup5\n      add\n      mstore\n      not(0x1f)\n      0x1f\n      dup3\n      add\n      and\n      swap1\n      pop\n      dup1\n      dup4\n      add\n      swap3\n      pop\n      pop\n      pop\n      pop\n      pop\n      pop\n      pop\n      swap2\n      swap3\n      swap2\n      swap3\n      swap1\n      dup1\n      calldataload\n      iszero\n      iszero\n      swap1\n      0x20\n      add\n      swap1\n      swap3\n      swap2\n      swap1\n      pop\n      pop\n      pop\n      tag_226\n      jump\t// in\n    tag_218:\n      stop\n        /* \"LiquidityToken.sol\":857:894  uint public currentRewardPerShare1e18 */\n    tag_58:\n      tag_227\n      tag_228\n      jump\t// in\n    tag_227:\n      mload(0x40)\n      dup1\n      dup3\n      dup2\n      mstore\n      0x20\n      add\n      swap2\n      pop\n      pop\n      mload(0x40)\n      dup1\n      swap2\n      sub\n      swap1\n      return\n        /* \"LiquidityToken.sol\":1226:1269  uint public immutable durationLinearVesting */\n    tag_59:\n      tag_229\n      tag_230\n      jump\t// in\n    tag_229:\n      mload(0x40)\n      dup1\n      dup3\n      dup2\n      mstore\n      0x20\n      add\n      swap2\n      pop\n      pop\n      mload(0x40)\n      dup1\n      swap2\n      sub\n      swap1\n      return\n        /* \"LiquidityToken.sol\":14930:15120  function updateStakingAndGetHodlRewardsByInterfacePT(address _user) public onlyInterfaceProjectToken() returns (uint) {... */\n    tag_60:\n      tag_231\n      0x04\n      dup1\n      calldatasize\n      sub\n      0x20\n      dup2\n      lt\n      iszero\n      tag_232\n      jumpi\n      0x00\n      dup1\n      revert\n    tag_232:\n      dup2\n      add\n      swap1\n      dup1\n      dup1\n      calldataload\n      0xffffffffffffffffffffffffffffffffffffffff\n      and\n      swap1\n      0x20\n      add\n      swap1\n      swap3\n      swap2\n      swap1\n      pop\n      pop\n      pop\n      tag_233\n      jump\t// in\n    tag_231:\n      mload(0x40)\n      dup1\n      dup3\n      dup2\n      mstore\n      0x20\n      add\n      swap2\n      pop\n      pop\n      mload(0x40)\n      dup1\n      swap2\n      sub\n      swap1\n      return\n        /* \"https://github.com/OpenZeppelin/openzeppelin-contracts/blob/v3.4.2-solc-0.7/contracts/access/Ownable.sol\":1994:2234   */\n    tag_61:\n      tag_234\n      0x04\n      dup1\n      calldatasize\n      sub\n      0x20\n      dup2\n      lt\n      iszero\n      tag_235\n      jumpi\n      0x00\n      dup1\n      revert\n    tag_235:\n      dup2\n      add\n      swap1\n      dup1\n      dup1\n      calldataload\n      0xffffffffffffffffffffffffffffffffffffffff\n      and\n      swap1\n      0x20\n      add\n      swap1\n      swap3\n      swap2\n      swap1\n      pop\n      pop\n      pop\n      tag_236\n      jump\t// in\n    tag_234:\n      stop\n        /* \"LiquidityToken.sol\":16888:17032  function updateRewardsAfterFeesPaymentByInterface(uint _fees) public onlyInterfaceProjectToken() {... */\n    tag_62:\n      tag_237\n      0x04\n      dup1\n      calldatasize\n      sub\n      0x20\n      dup2\n      lt\n      iszero\n      tag_238\n      jumpi\n      0x00\n      dup1\n      revert\n    tag_238:\n      dup2\n      add\n      swap1\n      dup1\n      dup1\n      calldataload\n      swap1\n      0x20\n      add\n      swap1\n      swap3\n      swap2\n      swap1\n      pop\n      pop\n      pop\n      tag_239\n      jump\t// in\n    tag_237:\n      stop\n        /* \"LiquidityToken.sol\":10815:11370  function getHodlRewards(address _user, uint _currentRewardPerShare1e18) public view returns(uint _hodlRewards) {... */\n    tag_63:\n      tag_240\n      0x04\n      dup1\n      calldatasize\n      sub\n      0x40\n      dup2\n      lt\n      iszero\n      tag_241\n      jumpi\n      0x00\n      dup1\n      revert\n    tag_241:\n      dup2\n      add\n      swap1\n      dup1\n      dup1\n      calldataload\n      0xffffffffffffffffffffffffffffffffffffffff\n      and\n      swap1\n      0x20\n      add\n      swap1\n      swap3\n      swap2\n      swap1\n      dup1\n      calldataload\n      swap1\n      0x20\n      add\n      swap1\n      swap3\n      swap2\n      swap1\n      pop\n      pop\n      pop\n      tag_242\n      jump\t// in\n    tag_240:\n      mload(0x40)\n      dup1\n      dup3\n      dup2\n      mstore\n      0x20\n      add\n      swap2\n      pop\n      pop\n      mload(0x40)\n      dup1\n      swap2\n      sub\n      swap1\n      return\n        /* \"LiquidityToken.sol\":726:760  uint public campaignStakingRewards */\n    tag_80:\n      sload(0x0a)\n      dup2\n      jump\t// out\n        /* \"https://github.com/OpenZeppelin/openzeppelin-contracts/blob/v3.4.2-solc-0.7/contracts/token/ERC20/ERC20.sol\":2153:2242   */\n    tag_82:\n        /* \"https://github.com/OpenZeppelin/openzeppelin-contracts/blob/v3.4.2-solc-0.7/contracts/token/ERC20/ERC20.sol\":2198:2211   */\n      0x60\n        /* \"https://github.com/OpenZeppelin/openzeppelin-contracts/blob/v3.4.2-solc-0.7/contracts/token/ERC20/ERC20.sol\":2230:2235   */\n      0x03\n        /* \"https://github.com/OpenZeppelin/openzeppelin-contracts/blob/v3.4.2-solc-0.7/contracts/token/ERC20/ERC20.sol\":2223:2235   */\n      dup1\n      sload\n      0x01\n      dup2\n      0x01\n      and\n      iszero\n      0x0100\n      mul\n      sub\n      and\n      0x02\n      swap1\n      div\n      dup1\n      0x1f\n      add\n      0x20\n      dup1\n      swap2\n      div\n      mul\n      0x20\n      add\n      mload(0x40)\n      swap1\n      dup2\n      add\n      0x40\n      mstore\n      dup1\n      swap3\n      swap2\n      swap1\n      dup2\n      dup2\n      mstore\n      0x20\n      add\n      dup3\n      dup1\n      sload\n      0x01\n      dup2\n      0x01\n      and\n      iszero\n      0x0100\n      mul\n      sub\n      and\n      0x02\n      swap1\n      div\n      dup1\n      iszero\n      tag_244\n      jumpi\n      dup1\n      0x1f\n      lt\n      tag_245\n      jumpi\n      0x0100\n      dup1\n      dup4\n      sload\n      div\n      mul\n      dup4\n      mstore\n      swap2\n      0x20\n      add\n      swap2\n      jump(tag_244)\n    tag_245:\n      dup3\n      add\n      swap2\n      swap1\n      0x00\n      mstore\n      keccak256(0x00, 0x20)\n      swap1\n    tag_246:\n      dup2\n      sload\n      dup2\n      mstore\n      swap1\n      0x01\n      add\n      swap1\n      0x20\n      add\n      dup1\n      dup4\n      gt\n      tag_246\n      jumpi\n      dup3\n      swap1\n      sub\n      0x1f\n      and\n      dup3\n      add\n      swap2\n    tag_244:\n      pop\n      pop\n      pop\n      pop\n      pop\n      swap1\n      pop\n        /* \"https://github.com/OpenZeppelin/openzeppelin-contracts/blob/v3.4.2-solc-0.7/contracts/token/ERC20/ERC20.sol\":2153:2242   */\n      swap1\n      jump\t// out\n        /* \"https://github.com/OpenZeppelin/openzeppelin-contracts/blob/v3.4.2-solc-0.7/contracts/token/ERC20/ERC20.sol\":4229:4395   */\n    tag_89:\n        /* \"https://github.com/OpenZeppelin/openzeppelin-contracts/blob/v3.4.2-solc-0.7/contracts/token/ERC20/ERC20.sol\":4312:4316   */\n      0x00\n        /* \"https://github.com/OpenZeppelin/openzeppelin-contracts/blob/v3.4.2-solc-0.7/contracts/token/ERC20/ERC20.sol\":4328:4367   */\n      tag_248\n        /* \"https://github.com/OpenZeppelin/openzeppelin-contracts/blob/v3.4.2-solc-0.7/contracts/token/ERC20/ERC20.sol\":4337:4349   */\n      tag_249\n        /* \"https://github.com/OpenZeppelin/openzeppelin-contracts/blob/v3.4.2-solc-0.7/contracts/token/ERC20/ERC20.sol\":4337:4347   */\n      tag_250\n        /* \"https://github.com/OpenZeppelin/openzeppelin-contracts/blob/v3.4.2-solc-0.7/contracts/token/ERC20/ERC20.sol\":4337:4349   */\n      jump\t// in\n    tag_249:\n        /* \"https://github.com/OpenZeppelin/openzeppelin-contracts/blob/v3.4.2-solc-0.7/contracts/token/ERC20/ERC20.sol\":4351:4358   */\n      dup5\n        /* \"https://github.com/OpenZeppelin/openzeppelin-contracts/blob/v3.4.2-solc-0.7/contracts/token/ERC20/ERC20.sol\":4360:4366   */\n      dup5\n        /* \"https://github.com/OpenZeppelin/openzeppelin-contracts/blob/v3.4.2-solc-0.7/contracts/token/ERC20/ERC20.sol\":4328:4336   */\n      tag_251\n        /* \"https://github.com/OpenZeppelin/openzeppelin-contracts/blob/v3.4.2-solc-0.7/contracts/token/ERC20/ERC20.sol\":4328:4367   */\n      jump\t// in\n    tag_248:\n        /* \"https://github.com/OpenZeppelin/openzeppelin-contracts/blob/v3.4.2-solc-0.7/contracts/token/ERC20/ERC20.sol\":4384:4388   */\n      0x01\n        /* \"https://github.com/OpenZeppelin/openzeppelin-contracts/blob/v3.4.2-solc-0.7/contracts/token/ERC20/ERC20.sol\":4377:4388   */\n      swap1\n      pop\n        /* \"https://github.com/OpenZeppelin/openzeppelin-contracts/blob/v3.4.2-solc-0.7/contracts/token/ERC20/ERC20.sol\":4229:4395   */\n      swap3\n      swap2\n      pop\n      pop\n      jump\t// out\n        /* \"LiquidityToken.sol\":1435:1470  uint public immutable maxStakingAPR */\n    tag_91:\n      immutable(\"0xbf42042e2237c6e6d1c29f4f02d65eeea252179805ed26cf71ad720e62900975\")\n      dup2\n      jump\t// out\n        /* \"https://github.com/OpenZeppelin/openzeppelin-contracts/blob/v3.4.2-solc-0.7/contracts/token/ERC20/ERC20.sol\":3220:3326   */\n    tag_93:\n        /* \"https://github.com/OpenZeppelin/openzeppelin-contracts/blob/v3.4.2-solc-0.7/contracts/token/ERC20/ERC20.sol\":3281:3288   */\n      0x00\n        /* \"https://github.com/OpenZeppelin/openzeppelin-contracts/blob/v3.4.2-solc-0.7/contracts/token/ERC20/ERC20.sol\":3307:3319   */\n      sload(0x02)\n        /* \"https://github.com/OpenZeppelin/openzeppelin-contracts/blob/v3.4.2-solc-0.7/contracts/token/ERC20/ERC20.sol\":3300:3319   */\n      swap1\n      pop\n        /* \"https://github.com/OpenZeppelin/openzeppelin-contracts/blob/v3.4.2-solc-0.7/contracts/token/ERC20/ERC20.sol\":3220:3326   */\n      swap1\n      jump\t// out\n        /* \"LiquidityToken.sol\":4897:5066  function ensureUserFunctionsAreNotDisabled() public view {... */\n    tag_95:\n        /* \"LiquidityToken.sol\":5003:5008  false */\n      0x00\n        /* \"LiquidityToken.sol\":4975:5008  areUserFunctionsDisabled == false */\n      iszero\n      iszero\n        /* \"LiquidityToken.sol\":4975:4999  areUserFunctionsDisabled */\n      0x11\n      0x00\n      swap1\n      sload\n      swap1\n      0x0100\n      exp\n      swap1\n      div\n      0xff\n      and\n        /* \"LiquidityToken.sol\":4975:5008  areUserFunctionsDisabled == false */\n      iszero\n      iszero\n      eq\n        /* \"LiquidityToken.sol\":4960:5061  require(... */\n      tag_254\n      jumpi\n      mload(0x40)\n      0x08c379a000000000000000000000000000000000000000000000000000000000\n      dup2\n      mstore\n      0x04\n      add\n      dup1\n      dup1\n      0x20\n      add\n      dup3\n      dup2\n      sub\n      dup3\n      mstore\n      0x23\n      dup2\n      mstore\n      0x20\n      add\n      dup1\n      data_8e91a5b1272f4e4f61e64b47d7c1a5143a07d7fd64ea1b240af506d9edc55eeb\n      0x23\n      swap2\n      codecopy\n      0x40\n      add\n      swap2\n      pop\n      pop\n      mload(0x40)\n      dup1\n      swap2\n      sub\n      swap1\n      revert\n    tag_254:\n        /* \"LiquidityToken.sol\":4897:5066  function ensureUserFunctionsAreNotDisabled() public view {... */\n      jump\t// out\n        /* \"https://github.com/OpenZeppelin/openzeppelin-contracts/blob/v3.4.2-solc-0.7/contracts/token/ERC20/ERC20.sol\":4862:5179   */\n    tag_98:\n        /* \"https://github.com/OpenZeppelin/openzeppelin-contracts/blob/v3.4.2-solc-0.7/contracts/token/ERC20/ERC20.sol\":4968:4972   */\n      0x00\n        /* \"https://github.com/OpenZeppelin/openzeppelin-contracts/blob/v3.4.2-solc-0.7/contracts/token/ERC20/ERC20.sol\":4984:5020   */\n      tag_256\n        /* \"https://github.com/OpenZeppelin/openzeppelin-contracts/blob/v3.4.2-solc-0.7/contracts/token/ERC20/ERC20.sol\":4994:5000   */\n      dup5\n        /* \"https://github.com/OpenZeppelin/openzeppelin-contracts/blob/v3.4.2-solc-0.7/contracts/token/ERC20/ERC20.sol\":5002:5011   */\n      dup5\n        /* \"https://github.com/OpenZeppelin/openzeppelin-contracts/blob/v3.4.2-solc-0.7/contracts/token/ERC20/ERC20.sol\":5013:5019   */\n      dup5\n        /* \"https://github.com/OpenZeppelin/openzeppelin-contracts/blob/v3.4.2-solc-0.7/contracts/token/ERC20/ERC20.sol\":4984:4993   */\n      tag_257\n        /* \"https://github.com/OpenZeppelin/openzeppelin-contracts/blob/v3.4.2-solc-0.7/contracts/token/ERC20/ERC20.sol\":4984:5020   */\n      jump\t// in\n    tag_256:\n        /* \"https://github.com/OpenZeppelin/openzeppelin-contracts/blob/v3.4.2-solc-0.7/contracts/token/ERC20/ERC20.sol\":5030:5151   */\n      tag_258\n        /* \"https://github.com/OpenZeppelin/openzeppelin-contracts/blob/v3.4.2-solc-0.7/contracts/token/ERC20/ERC20.sol\":5039:5045   */\n      dup5\n        /* \"https://github.com/OpenZeppelin/openzeppelin-contracts/blob/v3.4.2-solc-0.7/contracts/token/ERC20/ERC20.sol\":5047:5059   */\n      tag_259\n        /* \"https://github.com/OpenZeppelin/openzeppelin-contracts/blob/v3.4.2-solc-0.7/contracts/token/ERC20/ERC20.sol\":5047:5057   */\n      tag_250\n        /* \"https://github.com/OpenZeppelin/openzeppelin-contracts/blob/v3.4.2-solc-0.7/contracts/token/ERC20/ERC20.sol\":5047:5059   */\n      jump\t// in\n    tag_259:\n        /* \"https://github.com/OpenZeppelin/openzeppelin-contracts/blob/v3.4.2-solc-0.7/contracts/token/ERC20/ERC20.sol\":5061:5150   */\n      tag_260\n        /* \"https://github.com/OpenZeppelin/openzeppelin-contracts/blob/v3.4.2-solc-0.7/contracts/token/ERC20/ERC20.sol\":5099:5105   */\n      dup6\n        /* \"https://github.com/OpenZeppelin/openzeppelin-contracts/blob/v3.4.2-solc-0.7/contracts/token/ERC20/ERC20.sol\":5061:5150   */\n      mload(0x40)\n      dup1\n      0x60\n      add\n      0x40\n      mstore\n      dup1\n      0x28\n      dup2\n      mstore\n      0x20\n      add\n      data_974d1b4421da69cc60b481194f0dad36a5bb4e23da810da7a7fb30cdba178330\n      0x28\n      swap2\n      codecopy\n        /* \"https://github.com/OpenZeppelin/openzeppelin-contracts/blob/v3.4.2-solc-0.7/contracts/token/ERC20/ERC20.sol\":5061:5072   */\n      0x01\n        /* \"https://github.com/OpenZeppelin/openzeppelin-contracts/blob/v3.4.2-solc-0.7/contracts/token/ERC20/ERC20.sol\":5061:5080   */\n      0x00\n        /* \"https://github.com/OpenZeppelin/openzeppelin-contracts/blob/v3.4.2-solc-0.7/contracts/token/ERC20/ERC20.sol\":5073:5079   */\n      dup12\n        /* \"https://github.com/OpenZeppelin/openzeppelin-contracts/blob/v3.4.2-solc-0.7/contracts/token/ERC20/ERC20.sol\":5061:5080   */\n      0xffffffffffffffffffffffffffffffffffffffff\n      and\n      0xffffffffffffffffffffffffffffffffffffffff\n      and\n      dup2\n      mstore\n      0x20\n      add\n      swap1\n      dup2\n      mstore\n      0x20\n      add\n      0x00\n      keccak256\n        /* \"https://github.com/OpenZeppelin/openzeppelin-contracts/blob/v3.4.2-solc-0.7/contracts/token/ERC20/ERC20.sol\":5061:5094   */\n      0x00\n        /* \"https://github.com/OpenZeppelin/openzeppelin-contracts/blob/v3.4.2-solc-0.7/contracts/token/ERC20/ERC20.sol\":5081:5093   */\n      tag_261\n        /* \"https://github.com/OpenZeppelin/openzeppelin-contracts/blob/v3.4.2-solc-0.7/contracts/token/ERC20/ERC20.sol\":5081:5091   */\n      tag_250\n        /* \"https://github.com/OpenZeppelin/openzeppelin-contracts/blob/v3.4.2-solc-0.7/contracts/token/ERC20/ERC20.sol\":5081:5093   */\n      jump\t// in\n    tag_261:\n        /* \"https://github.com/OpenZeppelin/openzeppelin-contracts/blob/v3.4.2-solc-0.7/contracts/token/ERC20/ERC20.sol\":5061:5094   */\n      0xffffffffffffffffffffffffffffffffffffffff\n      and\n      0xffffffffffffffffffffffffffffffffffffffff\n      and\n      dup2\n      mstore\n      0x20\n      add\n      swap1\n      dup2\n      mstore\n      0x20\n      add\n      0x00\n      keccak256\n      sload\n        /* \"https://github.com/OpenZeppelin/openzeppelin-contracts/blob/v3.4.2-solc-0.7/contracts/token/ERC20/ERC20.sol\":5061:5098   */\n      tag_262\n      swap1\n        /* \"https://github.com/OpenZeppelin/openzeppelin-contracts/blob/v3.4.2-solc-0.7/contracts/token/ERC20/ERC20.sol\":5061:5150   */\n      swap3\n      swap2\n      swap1\n      0xffffffff\n      and\n      jump\t// in\n    tag_260:\n        /* \"https://github.com/OpenZeppelin/openzeppelin-contracts/blob/v3.4.2-solc-0.7/contracts/token/ERC20/ERC20.sol\":5030:5038   */\n      tag_251\n        /* \"https://github.com/OpenZeppelin/openzeppelin-contracts/blob/v3.4.2-solc-0.7/contracts/token/ERC20/ERC20.sol\":5030:5151   */\n      jump\t// in\n    tag_258:\n        /* \"https://github.com/OpenZeppelin/openzeppelin-contracts/blob/v3.4.2-solc-0.7/contracts/token/ERC20/ERC20.sol\":5168:5172   */\n      0x01\n        /* \"https://github.com/OpenZeppelin/openzeppelin-contracts/blob/v3.4.2-solc-0.7/contracts/token/ERC20/ERC20.sol\":5161:5172   */\n      swap1\n      pop\n        /* \"https://github.com/OpenZeppelin/openzeppelin-contracts/blob/v3.4.2-solc-0.7/contracts/token/ERC20/ERC20.sol\":4862:5179   */\n      swap4\n      swap3\n      pop\n      pop\n      pop\n      jump\t// out\n        /* \"LiquidityToken.sol\":1129:1183  uint public immutable fractionInitialUnlockPerThousand */\n    tag_100:\n      immutable(\"0xc3259c45f9e3c1055fdcabf98c9c354977536b311a2495291202379be8e06e09\")\n      dup2\n      jump\t// out\n        /* \"LiquidityToken.sol\":1709:1762  mapping (address => LiquiToken) public userLiquiToken */\n    tag_103:\n      mstore(0x20, 0x13)\n      dup1\n      0x00\n      mstore\n      keccak256(0x00, 0x40)\n      0x00\n      swap2\n      pop\n      swap1\n      pop\n      dup1\n      0x00\n      add\n      sload\n      swap1\n      dup1\n      0x01\n      add\n      sload\n      swap1\n      dup1\n      0x02\n      add\n      sload\n      swap1\n      pop\n      dup4\n      jump\t// out\n        /* \"LiquidityToken.sol\":17598:17793  function getUserDateOfPartiallyChargedToken(address _user) public view... */\n    tag_106:\n        /* \"LiquidityToken.sol\":17681:17709  uint _dateOfPartiallyCharged */\n      0x00\n        /* \"LiquidityToken.sol\":17744:17758  userLiquiToken */\n      0x13\n        /* \"LiquidityToken.sol\":17744:17765  userLiquiToken[_user] */\n      0x00\n        /* \"LiquidityToken.sol\":17759:17764  _user */\n      dup4\n        /* \"LiquidityToken.sol\":17744:17765  userLiquiToken[_user] */\n      0xffffffffffffffffffffffffffffffffffffffff\n      and\n      0xffffffffffffffffffffffffffffffffffffffff\n      and\n      dup2\n      mstore\n      0x20\n      add\n      swap1\n      dup2\n      mstore\n      0x20\n      add\n      0x00\n      keccak256\n        /* \"LiquidityToken.sol\":17744:17788  userLiquiToken[_user].dateOfPartiallyCharged */\n      0x02\n      add\n      sload\n        /* \"LiquidityToken.sol\":17718:17788  _dateOfPartiallyCharged = userLiquiToken[_user].dateOfPartiallyCharged */\n      swap1\n      pop\n        /* \"LiquidityToken.sol\":17598:17793  function getUserDateOfPartiallyChargedToken(address _user) public view... */\n      swap2\n      swap1\n      pop\n      jump\t// out\n        /* \"https://github.com/OpenZeppelin/openzeppelin-contracts/blob/v3.4.2-solc-0.7/contracts/token/ERC20/ERC20.sol\":3071:3160   */\n    tag_108:\n        /* \"https://github.com/OpenZeppelin/openzeppelin-contracts/blob/v3.4.2-solc-0.7/contracts/token/ERC20/ERC20.sol\":3120:3125   */\n      0x00\n        /* \"https://github.com/OpenZeppelin/openzeppelin-contracts/blob/v3.4.2-solc-0.7/contracts/token/ERC20/ERC20.sol\":3144:3153   */\n      0x05\n      0x00\n      swap1\n      sload\n      swap1\n      0x0100\n      exp\n      swap1\n      div\n      0xff\n      and\n        /* \"https://github.com/OpenZeppelin/openzeppelin-contracts/blob/v3.4.2-solc-0.7/contracts/token/ERC20/ERC20.sol\":3137:3153   */\n      swap1\n      pop\n        /* \"https://github.com/OpenZeppelin/openzeppelin-contracts/blob/v3.4.2-solc-0.7/contracts/token/ERC20/ERC20.sol\":3071:3160   */\n      swap1\n      jump\t// out\n        /* \"https://github.com/OpenZeppelin/openzeppelin-contracts/blob/v3.4.2-solc-0.7/contracts/token/ERC20/ERC20.sol\":5574:5789   */\n    tag_111:\n        /* \"https://github.com/OpenZeppelin/openzeppelin-contracts/blob/v3.4.2-solc-0.7/contracts/token/ERC20/ERC20.sol\":5662:5666   */\n      0x00\n        /* \"https://github.com/OpenZeppelin/openzeppelin-contracts/blob/v3.4.2-solc-0.7/contracts/token/ERC20/ERC20.sol\":5678:5761   */\n      tag_266\n        /* \"https://github.com/OpenZeppelin/openzeppelin-contracts/blob/v3.4.2-solc-0.7/contracts/token/ERC20/ERC20.sol\":5687:5699   */\n      tag_267\n        /* \"https://github.com/OpenZeppelin/openzeppelin-contracts/blob/v3.4.2-solc-0.7/contracts/token/ERC20/ERC20.sol\":5687:5697   */\n      tag_250\n        /* \"https://github.com/OpenZeppelin/openzeppelin-contracts/blob/v3.4.2-solc-0.7/contracts/token/ERC20/ERC20.sol\":5687:5699   */\n      jump\t// in\n    tag_267:\n        /* \"https://github.com/OpenZeppelin/openzeppelin-contracts/blob/v3.4.2-solc-0.7/contracts/token/ERC20/ERC20.sol\":5701:5708   */\n      dup5\n        /* \"https://github.com/OpenZeppelin/openzeppelin-contracts/blob/v3.4.2-solc-0.7/contracts/token/ERC20/ERC20.sol\":5710:5760   */\n      tag_268\n        /* \"https://github.com/OpenZeppelin/openzeppelin-contracts/blob/v3.4.2-solc-0.7/contracts/token/ERC20/ERC20.sol\":5749:5759   */\n      dup6\n        /* \"https://github.com/OpenZeppelin/openzeppelin-contracts/blob/v3.4.2-solc-0.7/contracts/token/ERC20/ERC20.sol\":5710:5721   */\n      0x01\n        /* \"https://github.com/OpenZeppelin/openzeppelin-contracts/blob/v3.4.2-solc-0.7/contracts/token/ERC20/ERC20.sol\":5710:5735   */\n      0x00\n        /* \"https://github.com/OpenZeppelin/openzeppelin-contracts/blob/v3.4.2-solc-0.7/contracts/token/ERC20/ERC20.sol\":5722:5734   */\n      tag_269\n        /* \"https://github.com/OpenZeppelin/openzeppelin-contracts/blob/v3.4.2-solc-0.7/contracts/token/ERC20/ERC20.sol\":5722:5732   */\n      tag_250\n        /* \"https://github.com/OpenZeppelin/openzeppelin-contracts/blob/v3.4.2-solc-0.7/contracts/token/ERC20/ERC20.sol\":5722:5734   */\n      jump\t// in\n    tag_269:\n        /* \"https://github.com/OpenZeppelin/openzeppelin-contracts/blob/v3.4.2-solc-0.7/contracts/token/ERC20/ERC20.sol\":5710:5735   */\n      0xffffffffffffffffffffffffffffffffffffffff\n      and\n      0xffffffffffffffffffffffffffffffffffffffff\n      and\n      dup2\n      mstore\n      0x20\n      add\n      swap1\n      dup2\n      mstore\n      0x20\n      add\n      0x00\n      keccak256\n        /* \"https://github.com/OpenZeppelin/openzeppelin-contracts/blob/v3.4.2-solc-0.7/contracts/token/ERC20/ERC20.sol\":5710:5744   */\n      0x00\n        /* \"https://github.com/OpenZeppelin/openzeppelin-contracts/blob/v3.4.2-solc-0.7/contracts/token/ERC20/ERC20.sol\":5736:5743   */\n      dup10\n        /* \"https://github.com/OpenZeppelin/openzeppelin-contracts/blob/v3.4.2-solc-0.7/contracts/token/ERC20/ERC20.sol\":5710:5744   */\n      0xffffffffffffffffffffffffffffffffffffffff\n      and\n      0xffffffffffffffffffffffffffffffffffffffff\n      and\n      dup2\n      mstore\n      0x20\n      add\n      swap1\n      dup2\n      mstore\n      0x20\n      add\n      0x00\n      keccak256\n      sload\n        /* \"https://github.com/OpenZeppelin/openzeppelin-contracts/blob/v3.4.2-solc-0.7/contracts/token/ERC20/ERC20.sol\":5710:5748   */\n      tag_270\n      swap1\n        /* \"https://github.com/OpenZeppelin/openzeppelin-contracts/blob/v3.4.2-solc-0.7/contracts/token/ERC20/ERC20.sol\":5710:5760   */\n      swap2\n      swap1\n      0xffffffff\n      and\n      jump\t// in\n    tag_268:\n        /* \"https://github.com/OpenZeppelin/openzeppelin-contracts/blob/v3.4.2-solc-0.7/contracts/token/ERC20/ERC20.sol\":5678:5686   */\n      tag_251\n        /* \"https://github.com/OpenZeppelin/openzeppelin-contracts/blob/v3.4.2-solc-0.7/contracts/token/ERC20/ERC20.sol\":5678:5761   */\n      jump\t// in\n    tag_266:\n        /* \"https://github.com/OpenZeppelin/openzeppelin-contracts/blob/v3.4.2-solc-0.7/contracts/token/ERC20/ERC20.sol\":5778:5782   */\n      0x01\n        /* \"https://github.com/OpenZeppelin/openzeppelin-contracts/blob/v3.4.2-solc-0.7/contracts/token/ERC20/ERC20.sol\":5771:5782   */\n      swap1\n      pop\n        /* \"https://github.com/OpenZeppelin/openzeppelin-contracts/blob/v3.4.2-solc-0.7/contracts/token/ERC20/ERC20.sol\":5574:5789   */\n      swap3\n      swap2\n      pop\n      pop\n      jump\t// out\n        /* \"LiquidityToken.sol\":523:573  InterfaceProjectToken public interfaceProjectToken */\n    tag_113:\n      0x06\n      0x00\n      swap1\n      sload\n      swap1\n      0x0100\n      exp\n      swap1\n      div\n      0xffffffffffffffffffffffffffffffffffffffff\n      and\n      dup2\n      jump\t// out\n        /* \"LiquidityToken.sol\":1187:1222  uint public immutable durationCliff */\n    tag_115:\n      immutable(\"0x86890c29ff370c4b30973bbbaafda9b69a1419ebf78e3ecd48a68f972a0037ef\")\n      dup2\n      jump\t// out\n        /* \"LiquidityToken.sol\":8144:9260  function withdrawLT(uint _value) public {... */\n    tag_118:\n        /* \"LiquidityToken.sol\":8195:8230  ensureUserFunctionsAreNotDisabled() */\n      tag_272\n        /* \"LiquidityToken.sol\":8195:8228  ensureUserFunctionsAreNotDisabled */\n      tag_95\n        /* \"LiquidityToken.sol\":8195:8230  ensureUserFunctionsAreNotDisabled() */\n      jump\t// in\n    tag_272:\n        /* \"LiquidityToken.sol\":8266:8280  userLiquiToken */\n      0x13\n        /* \"LiquidityToken.sol\":8266:8292  userLiquiToken[msg.sender] */\n      0x00\n        /* \"LiquidityToken.sol\":8281:8291  msg.sender */\n      caller\n        /* \"LiquidityToken.sol\":8266:8292  userLiquiToken[msg.sender] */\n      0xffffffffffffffffffffffffffffffffffffffff\n      and\n      0xffffffffffffffffffffffffffffffffffffffff\n      and\n      dup2\n      mstore\n      0x20\n      add\n      swap1\n      dup2\n      mstore\n      0x20\n      add\n      0x00\n      keccak256\n        /* \"LiquidityToken.sol\":8266:8312  userLiquiToken[msg.sender].fullyChargedBalance */\n      0x00\n      add\n      sload\n        /* \"LiquidityToken.sol\":8256:8262  _value */\n      dup2\n        /* \"LiquidityToken.sol\":8256:8312  _value <= userLiquiToken[msg.sender].fullyChargedBalance */\n      gt\n      iszero\n        /* \"LiquidityToken.sol\":8241:8355  require(... */\n      tag_273\n      jumpi\n      mload(0x40)\n      0x08c379a000000000000000000000000000000000000000000000000000000000\n      dup2\n      mstore\n      0x04\n      add\n      dup1\n      dup1\n      0x20\n      add\n      dup3\n      dup2\n      sub\n      dup3\n      mstore\n      0x20\n      dup2\n      mstore\n      0x20\n      add\n      dup1\n      0x416d6f756e74206578636565647320617661696c61626c652062616c616e6365\n      dup2\n      mstore\n      pop\n      0x20\n      add\n      swap2\n      pop\n      pop\n      mload(0x40)\n      dup1\n      swap2\n      sub\n      swap1\n      revert\n    tag_273:\n        /* \"LiquidityToken.sol\":8362:8379  uint _hodlRewards */\n      0x00\n        /* \"LiquidityToken.sol\":8382:8424  updateStakingAndGetHodlRewards(msg.sender) */\n      tag_274\n        /* \"LiquidityToken.sol\":8413:8423  msg.sender */\n      caller\n        /* \"LiquidityToken.sol\":8382:8412  updateStakingAndGetHodlRewards */\n      tag_275\n        /* \"LiquidityToken.sol\":8382:8424  updateStakingAndGetHodlRewards(msg.sender) */\n      jump\t// in\n    tag_274:\n        /* \"LiquidityToken.sol\":8362:8424  uint _hodlRewards = updateStakingAndGetHodlRewards(msg.sender) */\n      swap1\n      pop\n        /* \"LiquidityToken.sol\":8430:8440  uint _fees */\n      0x00\n        /* \"LiquidityToken.sol\":8496:8554  userLiquiToken[msg.sender].fullyChargedBalance.sub(_value) */\n      tag_276\n        /* \"LiquidityToken.sol\":8547:8553  _value */\n      dup4\n        /* \"LiquidityToken.sol\":8496:8510  userLiquiToken */\n      0x13\n        /* \"LiquidityToken.sol\":8496:8522  userLiquiToken[msg.sender] */\n      0x00\n        /* \"LiquidityToken.sol\":8511:8521  msg.sender */\n      caller\n        /* \"LiquidityToken.sol\":8496:8522  userLiquiToken[msg.sender] */\n      0xffffffffffffffffffffffffffffffffffffffff\n      and\n      0xffffffffffffffffffffffffffffffffffffffff\n      and\n      dup2\n      mstore\n      0x20\n      add\n      swap1\n      dup2\n      mstore\n      0x20\n      add\n      0x00\n      keccak256\n        /* \"LiquidityToken.sol\":8496:8542  userLiquiToken[msg.sender].fullyChargedBalance */\n      0x00\n      add\n      sload\n        /* \"LiquidityToken.sol\":8496:8546  userLiquiToken[msg.sender].fullyChargedBalance.sub */\n      tag_277\n      swap1\n        /* \"LiquidityToken.sol\":8496:8554  userLiquiToken[msg.sender].fullyChargedBalance.sub(_value) */\n      swap2\n      swap1\n      0xffffffff\n      and\n      jump\t// in\n    tag_276:\n        /* \"LiquidityToken.sol\":8447:8461  userLiquiToken */\n      0x13\n        /* \"LiquidityToken.sol\":8447:8473  userLiquiToken[msg.sender] */\n      0x00\n        /* \"LiquidityToken.sol\":8462:8472  msg.sender */\n      caller\n        /* \"LiquidityToken.sol\":8447:8473  userLiquiToken[msg.sender] */\n      0xffffffffffffffffffffffffffffffffffffffff\n      and\n      0xffffffffffffffffffffffffffffffffffffffff\n      and\n      dup2\n      mstore\n      0x20\n      add\n      swap1\n      dup2\n      mstore\n      0x20\n      add\n      0x00\n      keccak256\n        /* \"LiquidityToken.sol\":8447:8493  userLiquiToken[msg.sender].fullyChargedBalance */\n      0x00\n      add\n        /* \"LiquidityToken.sol\":8447:8554  userLiquiToken[msg.sender].fullyChargedBalance = userLiquiToken[msg.sender].fullyChargedBalance.sub(_value) */\n      dup2\n      swap1\n      sstore\n      pop\n        /* \"LiquidityToken.sol\":8571:8591  stakedLT.sub(_value) */\n      tag_278\n        /* \"LiquidityToken.sol\":8584:8590  _value */\n      dup4\n        /* \"LiquidityToken.sol\":8571:8579  stakedLT */\n      sload(0x0e)\n        /* \"LiquidityToken.sol\":8571:8583  stakedLT.sub */\n      tag_277\n      swap1\n        /* \"LiquidityToken.sol\":8571:8591  stakedLT.sub(_value) */\n      swap2\n      swap1\n      0xffffffff\n      and\n      jump\t// in\n    tag_278:\n        /* \"LiquidityToken.sol\":8560:8568  stakedLT */\n      0x0e\n        /* \"LiquidityToken.sol\":8560:8591  stakedLT = stakedLT.sub(_value) */\n      dup2\n      swap1\n      sstore\n      pop\n        /* \"LiquidityToken.sol\":8602:8661  DecreasedFullyChargedBalanceAndStakedLT(msg.sender, _value) */\n      0x27b57dd0f4617eb13b9347dc92a2c7404c6bcdb2349863c760672bda494807\n        /* \"LiquidityToken.sol\":8642:8652  msg.sender */\n      caller\n        /* \"LiquidityToken.sol\":8654:8660  _value */\n      dup5\n        /* \"LiquidityToken.sol\":8602:8661  DecreasedFullyChargedBalanceAndStakedLT(msg.sender, _value) */\n      mload(0x40)\n      dup1\n      dup4\n      0xffffffffffffffffffffffffffffffffffffffff\n      and\n      dup2\n      mstore\n      0x20\n      add\n      dup3\n      dup2\n      mstore\n      0x20\n      add\n      swap3\n      pop\n      pop\n      pop\n      mload(0x40)\n      dup1\n      swap2\n      sub\n      swap1\n      log1\n        /* \"LiquidityToken.sol\":8687:8688  0 */\n      0x00\n        /* \"LiquidityToken.sol\":8676:8684  stakedLT */\n      sload(0x0e)\n        /* \"LiquidityToken.sol\":8676:8688  stakedLT > 0 */\n      gt\n        /* \"LiquidityToken.sol\":8672:8756  if (stakedLT > 0) _fees = _value.mul(withdrawFeesPerThousandForLT).div(multiplier1K) */\n      iszero\n      tag_279\n      jumpi\n        /* \"LiquidityToken.sol\":8698:8756  _value.mul(withdrawFeesPerThousandForLT).div(multiplier1K) */\n      tag_280\n        /* \"LiquidityToken.sol\":614:618  1000 */\n      0x03e8\n        /* \"LiquidityToken.sol\":8698:8738  _value.mul(withdrawFeesPerThousandForLT) */\n      tag_281\n        /* \"LiquidityToken.sol\":8709:8737  withdrawFeesPerThousandForLT */\n      sload(0x10)\n        /* \"LiquidityToken.sol\":8698:8704  _value */\n      dup7\n        /* \"LiquidityToken.sol\":8698:8708  _value.mul */\n      tag_282\n      swap1\n        /* \"LiquidityToken.sol\":8698:8738  _value.mul(withdrawFeesPerThousandForLT) */\n      swap2\n      swap1\n      0xffffffff\n      and\n      jump\t// in\n    tag_281:\n        /* \"LiquidityToken.sol\":8698:8742  _value.mul(withdrawFeesPerThousandForLT).div */\n      tag_283\n      swap1\n        /* \"LiquidityToken.sol\":8698:8756  _value.mul(withdrawFeesPerThousandForLT).div(multiplier1K) */\n      swap2\n      swap1\n      0xffffffff\n      and\n      jump\t// in\n    tag_280:\n        /* \"LiquidityToken.sol\":8690:8756  _fees = _value.mul(withdrawFeesPerThousandForLT).div(multiplier1K) */\n      swap1\n      pop\n        /* \"LiquidityToken.sol\":8672:8756  if (stakedLT > 0) _fees = _value.mul(withdrawFeesPerThousandForLT).div(multiplier1K) */\n    tag_279:\n        /* \"LiquidityToken.sol\":8763:8779  uint _valueToGet */\n      0x00\n        /* \"LiquidityToken.sol\":8782:8817  _value.add(_hodlRewards).sub(_fees) */\n      tag_284\n        /* \"LiquidityToken.sol\":8811:8816  _fees */\n      dup3\n        /* \"LiquidityToken.sol\":8782:8806  _value.add(_hodlRewards) */\n      tag_285\n        /* \"LiquidityToken.sol\":8793:8805  _hodlRewards */\n      dup6\n        /* \"LiquidityToken.sol\":8782:8788  _value */\n      dup8\n        /* \"LiquidityToken.sol\":8782:8792  _value.add */\n      tag_270\n      swap1\n        /* \"LiquidityToken.sol\":8782:8806  _value.add(_hodlRewards) */\n      swap2\n      swap1\n      0xffffffff\n      and\n      jump\t// in\n    tag_285:\n        /* \"LiquidityToken.sol\":8782:8810  _value.add(_hodlRewards).sub */\n      tag_277\n      swap1\n        /* \"LiquidityToken.sol\":8782:8817  _value.add(_hodlRewards).sub(_fees) */\n      swap2\n      swap1\n      0xffffffff\n      and\n      jump\t// in\n    tag_284:\n        /* \"LiquidityToken.sol\":8763:8817  uint _valueToGet = _value.add(_hodlRewards).sub(_fees) */\n      swap1\n      pop\n        /* \"LiquidityToken.sol\":8823:8872  _transfer(address(this), msg.sender, _valueToGet) */\n      tag_286\n        /* \"LiquidityToken.sol\":8841:8845  this */\n      address\n        /* \"LiquidityToken.sol\":8848:8858  msg.sender */\n      caller\n        /* \"LiquidityToken.sol\":8860:8871  _valueToGet */\n      dup4\n        /* \"LiquidityToken.sol\":8823:8832  _transfer */\n      tag_257\n        /* \"LiquidityToken.sol\":8823:8872  _transfer(address(this), msg.sender, _valueToGet) */\n      jump\t// in\n    tag_286:\n        /* \"LiquidityToken.sol\":8883:8908  uint _feesToRewardHodlers */\n      0x00\n        /* \"LiquidityToken.sol\":8911:8975  _fees.mul(ratioFeesToRewardHodlersPerThousand).div(multiplier1K) */\n      tag_287\n        /* \"LiquidityToken.sol\":614:618  1000 */\n      0x03e8\n        /* \"LiquidityToken.sol\":8911:8957  _fees.mul(ratioFeesToRewardHodlersPerThousand) */\n      tag_288\n        /* \"LiquidityToken.sol\":8921:8956  ratioFeesToRewardHodlersPerThousand */\n      sload(0x0c)\n        /* \"LiquidityToken.sol\":8911:8916  _fees */\n      dup7\n        /* \"LiquidityToken.sol\":8911:8920  _fees.mul */\n      tag_282\n      swap1\n        /* \"LiquidityToken.sol\":8911:8957  _fees.mul(ratioFeesToRewardHodlersPerThousand) */\n      swap2\n      swap1\n      0xffffffff\n      and\n      jump\t// in\n    tag_288:\n        /* \"LiquidityToken.sol\":8911:8961  _fees.mul(ratioFeesToRewardHodlersPerThousand).div */\n      tag_283\n      swap1\n        /* \"LiquidityToken.sol\":8911:8975  _fees.mul(ratioFeesToRewardHodlersPerThousand).div(multiplier1K) */\n      swap2\n      swap1\n      0xffffffff\n      and\n      jump\t// in\n    tag_287:\n        /* \"LiquidityToken.sol\":8883:8975  uint _feesToRewardHodlers = _fees.mul(ratioFeesToRewardHodlersPerThousand).div(multiplier1K) */\n      swap1\n      pop\n        /* \"LiquidityToken.sol\":8987:9072  _transfer(... */\n      tag_289\n        /* \"LiquidityToken.sol\":9012:9016  this */\n      address\n        /* \"LiquidityToken.sol\":9019:9023  this */\n      address\n        /* \"LiquidityToken.sol\":9019:9029  this.owner */\n      0xffffffffffffffffffffffffffffffffffffffff\n      and\n      0x8da5cb5b\n        /* \"LiquidityToken.sol\":9019:9031  this.owner() */\n      mload(0x40)\n      dup2\n      0xffffffff\n      and\n      0xe0\n      shl\n      dup2\n      mstore\n      0x04\n      add\n      0x20\n      mload(0x40)\n      dup1\n      dup4\n      sub\n      dup2\n      dup7\n      dup1\n      extcodesize\n      iszero\n      dup1\n      iszero\n      tag_290\n      jumpi\n      0x00\n      dup1\n      revert\n    tag_290:\n      pop\n      gas\n      staticcall\n      iszero\n      dup1\n      iszero\n      tag_292\n      jumpi\n      returndatasize\n      0x00\n      dup1\n      returndatacopy\n      revert(0x00, returndatasize)\n    tag_292:\n      pop\n      pop\n      pop\n      pop\n      mload(0x40)\n      returndatasize\n      0x20\n      dup2\n      lt\n      iszero\n      tag_293\n      jumpi\n      0x00\n      dup1\n      revert\n    tag_293:\n      dup2\n      add\n      swap1\n      dup1\n      dup1\n      mload\n      swap1\n      0x20\n      add\n      swap1\n      swap3\n      swap2\n      swap1\n      pop\n      pop\n      pop\n        /* \"LiquidityToken.sol\":9033:9064  _fees.sub(_feesToRewardHodlers) */\n      tag_294\n        /* \"LiquidityToken.sol\":9043:9063  _feesToRewardHodlers */\n      dup5\n        /* \"LiquidityToken.sol\":9033:9038  _fees */\n      dup8\n        /* \"LiquidityToken.sol\":9033:9042  _fees.sub */\n      tag_277\n      swap1\n        /* \"LiquidityToken.sol\":9033:9064  _fees.sub(_feesToRewardHodlers) */\n      swap2\n      swap1\n      0xffffffff\n      and\n      jump\t// in\n    tag_294:\n        /* \"LiquidityToken.sol\":8987:8996  _transfer */\n      tag_257\n        /* \"LiquidityToken.sol\":8987:9072  _transfer(... */\n      jump\t// in\n    tag_289:\n        /* \"LiquidityToken.sol\":9107:9108  0 */\n      0x00\n        /* \"LiquidityToken.sol\":9084:9104  _feesToRewardHodlers */\n      dup2\n        /* \"LiquidityToken.sol\":9084:9108  _feesToRewardHodlers > 0 */\n      gt\n        /* \"LiquidityToken.sol\":9080:9161  if (_feesToRewardHodlers > 0) updateRewardsAfterFeesPayment(_feesToRewardHodlers) */\n      iszero\n      tag_295\n      jumpi\n        /* \"LiquidityToken.sol\":9110:9161  updateRewardsAfterFeesPayment(_feesToRewardHodlers) */\n      tag_296\n        /* \"LiquidityToken.sol\":9140:9160  _feesToRewardHodlers */\n      dup2\n        /* \"LiquidityToken.sol\":9110:9139  updateRewardsAfterFeesPayment */\n      tag_297\n        /* \"LiquidityToken.sol\":9110:9161  updateRewardsAfterFeesPayment(_feesToRewardHodlers) */\n      jump\t// in\n    tag_296:\n        /* \"LiquidityToken.sol\":9080:9161  if (_feesToRewardHodlers > 0) updateRewardsAfterFeesPayment(_feesToRewardHodlers) */\n    tag_295:\n        /* \"LiquidityToken.sol\":9177:9255  LTReceived(msg.sender, _valueToGet, _fees, _feesToRewardHodlers, _hodlRewards) */\n      0x33ef926b7771df44fd5bf5a690410374540aa634051af1e3a6dd2f67c94a18f1\n        /* \"LiquidityToken.sol\":9188:9198  msg.sender */\n      caller\n        /* \"LiquidityToken.sol\":9200:9211  _valueToGet */\n      dup4\n        /* \"LiquidityToken.sol\":9213:9218  _fees */\n      dup6\n        /* \"LiquidityToken.sol\":9220:9240  _feesToRewardHodlers */\n      dup5\n        /* \"LiquidityToken.sol\":9242:9254  _hodlRewards */\n      dup9\n        /* \"LiquidityToken.sol\":9177:9255  LTReceived(msg.sender, _valueToGet, _fees, _feesToRewardHodlers, _hodlRewards) */\n      mload(0x40)\n      dup1\n      dup7\n      0xffffffffffffffffffffffffffffffffffffffff\n      and\n      dup2\n      mstore\n      0x20\n      add\n      dup6\n      dup2\n      mstore\n      0x20\n      add\n      dup5\n      dup2\n      mstore\n      0x20\n      add\n      dup4\n      dup2\n      mstore\n      0x20\n      add\n      dup3\n      dup2\n      mstore\n      0x20\n      add\n      swap6\n      pop\n      pop\n      pop\n      pop\n      pop\n      pop\n      mload(0x40)\n      dup1\n      swap2\n      sub\n      swap1\n      log1\n        /* \"LiquidityToken.sol\":8144:9260  function withdrawLT(uint _value) public {... */\n      pop\n      pop\n      pop\n      pop\n      pop\n      jump\t// out\n        /* \"LiquidityToken.sol\":5498:5643  function lockInterfaceProjectToken() public onlyOwner() {... */\n    tag_120:\n        /* \"https://github.com/OpenZeppelin/openzeppelin-contracts/blob/v3.4.2-solc-0.7/contracts/access/Ownable.sol\":1291:1303   */\n      tag_299\n        /* \"https://github.com/OpenZeppelin/openzeppelin-contracts/blob/v3.4.2-solc-0.7/contracts/access/Ownable.sol\":1291:1301   */\n      tag_250\n        /* \"https://github.com/OpenZeppelin/openzeppelin-contracts/blob/v3.4.2-solc-0.7/contracts/access/Ownable.sol\":1291:1303   */\n      jump\t// in\n    tag_299:\n        /* \"https://github.com/OpenZeppelin/openzeppelin-contracts/blob/v3.4.2-solc-0.7/contracts/access/Ownable.sol\":1280:1303   */\n      0xffffffffffffffffffffffffffffffffffffffff\n      and\n        /* \"https://github.com/OpenZeppelin/openzeppelin-contracts/blob/v3.4.2-solc-0.7/contracts/access/Ownable.sol\":1280:1287   */\n      tag_300\n        /* \"https://github.com/OpenZeppelin/openzeppelin-contracts/blob/v3.4.2-solc-0.7/contracts/access/Ownable.sol\":1280:1285   */\n      tag_166\n        /* \"https://github.com/OpenZeppelin/openzeppelin-contracts/blob/v3.4.2-solc-0.7/contracts/access/Ownable.sol\":1280:1287   */\n      jump\t// in\n    tag_300:\n        /* \"https://github.com/OpenZeppelin/openzeppelin-contracts/blob/v3.4.2-solc-0.7/contracts/access/Ownable.sol\":1280:1303   */\n      0xffffffffffffffffffffffffffffffffffffffff\n      and\n      eq\n        /* \"https://github.com/OpenZeppelin/openzeppelin-contracts/blob/v3.4.2-solc-0.7/contracts/access/Ownable.sol\":1272:1340   */\n      tag_301\n      jumpi\n      mload(0x40)\n      0x08c379a000000000000000000000000000000000000000000000000000000000\n      dup2\n      mstore\n      0x04\n      add\n      dup1\n      dup1\n      0x20\n      add\n      dup3\n      dup2\n      sub\n      dup3\n      mstore\n      0x20\n      dup2\n      mstore\n      0x20\n      add\n      dup1\n      0x4f776e61626c653a2063616c6c6572206973206e6f7420746865206f776e6572\n      dup2\n      mstore\n      pop\n      0x20\n      add\n      swap2\n      pop\n      pop\n      mload(0x40)\n      dup1\n      swap2\n      sub\n      swap1\n      revert\n    tag_301:\n        /* \"LiquidityToken.sol\":5592:5596  true */\n      0x01\n        /* \"LiquidityToken.sol\":5560:5589  isInterfaceProjectTokenLocked */\n      0x11\n      0x01\n        /* \"LiquidityToken.sol\":5560:5596  isInterfaceProjectTokenLocked = true */\n      0x0100\n      exp\n      dup2\n      sload\n      dup2\n      0xff\n      mul\n      not\n      and\n      swap1\n      dup4\n      iszero\n      iszero\n      mul\n      or\n      swap1\n      sstore\n      pop\n        /* \"LiquidityToken.sol\":5607:5638  InterfaceProjectTokenIsLocked() */\n      0xb72c13e7fe7b7c2ac9e1b8ca3f0f5cb08bd8ca2b1c556fbf9b45c95a15a53543\n      mload(0x40)\n      mload(0x40)\n      dup1\n      swap2\n      sub\n      swap1\n      log1\n        /* \"LiquidityToken.sol\":5498:5643  function lockInterfaceProjectToken() public onlyOwner() {... */\n      jump\t// out\n        /* \"LiquidityToken.sol\":1003:1039  bool public areUserFunctionsDisabled */\n    tag_122:\n      0x11\n      0x00\n      swap1\n      sload\n      swap1\n      0x0100\n      exp\n      swap1\n      div\n      0xff\n      and\n      dup2\n      jump\t// out\n        /* \"LiquidityToken.sol\":922:953  uint public totalTokenAllocated */\n    tag_124:\n      sload(0x0f)\n      dup2\n      jump\t// out\n        /* \"LiquidityToken.sol\":685:722  uint public stakingDateLastCheckpoint */\n    tag_126:\n      sload(0x09)\n      dup2\n      jump\t// out\n        /* \"LiquidityToken.sol\":16757:16884  function burnByInterfaceProjectToken(uint _value) public onlyInterfaceProjectToken() {... */\n    tag_129:\n        /* \"LiquidityToken.sol\":14688:14721  ensureOnlyInterfaceProjectToken() */\n      tag_304\n        /* \"LiquidityToken.sol\":14688:14719  ensureOnlyInterfaceProjectToken */\n      tag_305\n        /* \"LiquidityToken.sol\":14688:14721  ensureOnlyInterfaceProjectToken() */\n      jump\t// in\n    tag_304:\n        /* \"LiquidityToken.sol\":16848:16876  _burn(address(this), _value) */\n      tag_307\n        /* \"LiquidityToken.sol\":16862:16866  this */\n      address\n        /* \"LiquidityToken.sol\":16869:16875  _value */\n      dup3\n        /* \"LiquidityToken.sol\":16848:16853  _burn */\n      tag_308\n        /* \"LiquidityToken.sol\":16848:16876  _burn(address(this), _value) */\n      jump\t// in\n    tag_307:\n        /* \"LiquidityToken.sol\":16757:16884  function burnByInterfaceProjectToken(uint _value) public onlyInterfaceProjectToken() {... */\n      pop\n      jump\t// out\n        /* \"https://github.com/OpenZeppelin/openzeppelin-contracts/blob/v3.4.2-solc-0.7/contracts/token/ERC20/ERC20.sol\":3384:3509   */\n    tag_132:\n        /* \"https://github.com/OpenZeppelin/openzeppelin-contracts/blob/v3.4.2-solc-0.7/contracts/token/ERC20/ERC20.sol\":3458:3465   */\n      0x00\n        /* \"https://github.com/OpenZeppelin/openzeppelin-contracts/blob/v3.4.2-solc-0.7/contracts/token/ERC20/ERC20.sol\":3484:3493   */\n      dup1\n        /* \"https://github.com/OpenZeppelin/openzeppelin-contracts/blob/v3.4.2-solc-0.7/contracts/token/ERC20/ERC20.sol\":3484:3502   */\n      0x00\n        /* \"https://github.com/OpenZeppelin/openzeppelin-contracts/blob/v3.4.2-solc-0.7/contracts/token/ERC20/ERC20.sol\":3494:3501   */\n      dup4\n        /* \"https://github.com/OpenZeppelin/openzeppelin-contracts/blob/v3.4.2-solc-0.7/contracts/token/ERC20/ERC20.sol\":3484:3502   */\n      0xffffffffffffffffffffffffffffffffffffffff\n      and\n      0xffffffffffffffffffffffffffffffffffffffff\n      and\n      dup2\n      mstore\n      0x20\n      add\n      swap1\n      dup2\n      mstore\n      0x20\n      add\n      0x00\n      keccak256\n      sload\n        /* \"https://github.com/OpenZeppelin/openzeppelin-contracts/blob/v3.4.2-solc-0.7/contracts/token/ERC20/ERC20.sol\":3477:3502   */\n      swap1\n      pop\n        /* \"https://github.com/OpenZeppelin/openzeppelin-contracts/blob/v3.4.2-solc-0.7/contracts/token/ERC20/ERC20.sol\":3384:3509   */\n      swap2\n      swap1\n      pop\n      jump\t// out\n        /* \"https://github.com/OpenZeppelin/openzeppelin-contracts/blob/v3.4.2-solc-0.7/contracts/access/Ownable.sol\":1700:1845   */\n    tag_134:\n        /* \"https://github.com/OpenZeppelin/openzeppelin-contracts/blob/v3.4.2-solc-0.7/contracts/access/Ownable.sol\":1291:1303   */\n      tag_311\n        /* \"https://github.com/OpenZeppelin/openzeppelin-contracts/blob/v3.4.2-solc-0.7/contracts/access/Ownable.sol\":1291:1301   */\n      tag_250\n        /* \"https://github.com/OpenZeppelin/openzeppelin-contracts/blob/v3.4.2-solc-0.7/contracts/access/Ownable.sol\":1291:1303   */\n      jump\t// in\n    tag_311:\n        /* \"https://github.com/OpenZeppelin/openzeppelin-contracts/blob/v3.4.2-solc-0.7/contracts/access/Ownable.sol\":1280:1303   */\n      0xffffffffffffffffffffffffffffffffffffffff\n      and\n        /* \"https://github.com/OpenZeppelin/openzeppelin-contracts/blob/v3.4.2-solc-0.7/contracts/access/Ownable.sol\":1280:1287   */\n      tag_312\n        /* \"https://github.com/OpenZeppelin/openzeppelin-contracts/blob/v3.4.2-solc-0.7/contracts/access/Ownable.sol\":1280:1285   */\n      tag_166\n        /* \"https://github.com/OpenZeppelin/openzeppelin-contracts/blob/v3.4.2-solc-0.7/contracts/access/Ownable.sol\":1280:1287   */\n      jump\t// in\n    tag_312:\n        /* \"https://github.com/OpenZeppelin/openzeppelin-contracts/blob/v3.4.2-solc-0.7/contracts/access/Ownable.sol\":1280:1303   */\n      0xffffffffffffffffffffffffffffffffffffffff\n      and\n      eq\n        /* \"https://github.com/OpenZeppelin/openzeppelin-contracts/blob/v3.4.2-solc-0.7/contracts/access/Ownable.sol\":1272:1340   */\n      tag_313\n      jumpi\n      mload(0x40)\n      0x08c379a000000000000000000000000000000000000000000000000000000000\n      dup2\n      mstore\n      0x04\n      add\n      dup1\n      dup1\n      0x20\n      add\n      dup3\n      dup2\n      sub\n      dup3\n      mstore\n      0x20\n      dup2\n      mstore\n      0x20\n      add\n      dup1\n      0x4f776e61626c653a2063616c6c6572206973206e6f7420746865206f776e6572\n      dup2\n      mstore\n      pop\n      0x20\n      add\n      swap2\n      pop\n      pop\n      mload(0x40)\n      dup1\n      swap2\n      sub\n      swap1\n      revert\n    tag_313:\n        /* \"https://github.com/OpenZeppelin/openzeppelin-contracts/blob/v3.4.2-solc-0.7/contracts/access/Ownable.sol\":1806:1807   */\n      0x00\n        /* \"https://github.com/OpenZeppelin/openzeppelin-contracts/blob/v3.4.2-solc-0.7/contracts/access/Ownable.sol\":1769:1809   */\n      0xffffffffffffffffffffffffffffffffffffffff\n      and\n        /* \"https://github.com/OpenZeppelin/openzeppelin-contracts/blob/v3.4.2-solc-0.7/contracts/access/Ownable.sol\":1790:1796   */\n      0x05\n      0x01\n      swap1\n      sload\n      swap1\n      0x0100\n      exp\n      swap1\n      div\n      0xffffffffffffffffffffffffffffffffffffffff\n      and\n        /* \"https://github.com/OpenZeppelin/openzeppelin-contracts/blob/v3.4.2-solc-0.7/contracts/access/Ownable.sol\":1769:1809   */\n      0xffffffffffffffffffffffffffffffffffffffff\n      and\n      0x8be0079c531659141344cd1fd0a4f28419497f9722a3daafe3b4186f6b6457e0\n      mload(0x40)\n      mload(0x40)\n      dup1\n      swap2\n      sub\n      swap1\n      log3\n        /* \"https://github.com/OpenZeppelin/openzeppelin-contracts/blob/v3.4.2-solc-0.7/contracts/access/Ownable.sol\":1836:1837   */\n      0x00\n        /* \"https://github.com/OpenZeppelin/openzeppelin-contracts/blob/v3.4.2-solc-0.7/contracts/access/Ownable.sol\":1819:1825   */\n      0x05\n      0x01\n        /* \"https://github.com/OpenZeppelin/openzeppelin-contracts/blob/v3.4.2-solc-0.7/contracts/access/Ownable.sol\":1819:1838   */\n      0x0100\n      exp\n      dup2\n      sload\n      dup2\n      0xffffffffffffffffffffffffffffffffffffffff\n      mul\n      not\n      and\n      swap1\n      dup4\n      0xffffffffffffffffffffffffffffffffffffffff\n      and\n      mul\n      or\n      swap1\n      sstore\n      pop\n        /* \"https://github.com/OpenZeppelin/openzeppelin-contracts/blob/v3.4.2-solc-0.7/contracts/access/Ownable.sol\":1700:1845   */\n      jump\t// out\n        /* \"LiquidityToken.sol\":14285:14560  function updateRatioFeesToRewardHodlers(uint _valuePerThousand) public onlyOwner() {... */\n    tag_137:\n        /* \"https://github.com/OpenZeppelin/openzeppelin-contracts/blob/v3.4.2-solc-0.7/contracts/access/Ownable.sol\":1291:1303   */\n      tag_316\n        /* \"https://github.com/OpenZeppelin/openzeppelin-contracts/blob/v3.4.2-solc-0.7/contracts/access/Ownable.sol\":1291:1301   */\n      tag_250\n        /* \"https://github.com/OpenZeppelin/openzeppelin-contracts/blob/v3.4.2-solc-0.7/contracts/access/Ownable.sol\":1291:1303   */\n      jump\t// in\n    tag_316:\n        /* \"https://github.com/OpenZeppelin/openzeppelin-contracts/blob/v3.4.2-solc-0.7/contracts/access/Ownable.sol\":1280:1303   */\n      0xffffffffffffffffffffffffffffffffffffffff\n      and\n        /* \"https://github.com/OpenZeppelin/openzeppelin-contracts/blob/v3.4.2-solc-0.7/contracts/access/Ownable.sol\":1280:1287   */\n      tag_317\n        /* \"https://github.com/OpenZeppelin/openzeppelin-contracts/blob/v3.4.2-solc-0.7/contracts/access/Ownable.sol\":1280:1285   */\n      tag_166\n        /* \"https://github.com/OpenZeppelin/openzeppelin-contracts/blob/v3.4.2-solc-0.7/contracts/access/Ownable.sol\":1280:1287   */\n      jump\t// in\n    tag_317:\n        /* \"https://github.com/OpenZeppelin/openzeppelin-contracts/blob/v3.4.2-solc-0.7/contracts/access/Ownable.sol\":1280:1303   */\n      0xffffffffffffffffffffffffffffffffffffffff\n      and\n      eq\n        /* \"https://github.com/OpenZeppelin/openzeppelin-contracts/blob/v3.4.2-solc-0.7/contracts/access/Ownable.sol\":1272:1340   */\n      tag_318\n      jumpi\n      mload(0x40)\n      0x08c379a000000000000000000000000000000000000000000000000000000000\n      dup2\n      mstore\n      0x04\n      add\n      dup1\n      dup1\n      0x20\n      add\n      dup3\n      dup2\n      sub\n      dup3\n      mstore\n      0x20\n      dup2\n      mstore\n      0x20\n      add\n      dup1\n      0x4f776e61626c653a2063616c6c6572206973206e6f7420746865206f776e6572\n      dup2\n      mstore\n      pop\n      0x20\n      add\n      swap2\n      pop\n      pop\n      mload(0x40)\n      dup1\n      swap2\n      sub\n      swap1\n      revert\n    tag_318:\n        /* \"LiquidityToken.sol\":614:618  1000 */\n      0x03e8\n        /* \"LiquidityToken.sol\":14382:14399  _valuePerThousand */\n      dup2\n        /* \"LiquidityToken.sol\":14382:14415  _valuePerThousand <= multiplier1K */\n      gt\n      iszero\n        /* \"LiquidityToken.sol\":14374:14433  require(_valuePerThousand <= multiplier1K, \"Invalid value\") */\n      tag_320\n      jumpi\n      mload(0x40)\n      0x08c379a000000000000000000000000000000000000000000000000000000000\n      dup2\n      mstore\n      0x04\n      add\n      dup1\n      dup1\n      0x20\n      add\n      dup3\n      dup2\n      sub\n      dup3\n      mstore\n      0x0d\n      dup2\n      mstore\n      0x20\n      add\n      dup1\n      0x496e76616c69642076616c756500000000000000000000000000000000000000\n      dup2\n      mstore\n      pop\n      0x20\n      add\n      swap2\n      pop\n      pop\n      mload(0x40)\n      dup1\n      swap2\n      sub\n      swap1\n      revert\n    tag_320:\n        /* \"LiquidityToken.sol\":14477:14494  _valuePerThousand */\n      dup1\n        /* \"LiquidityToken.sol\":14439:14474  ratioFeesToRewardHodlersPerThousand */\n      0x0c\n        /* \"LiquidityToken.sol\":14439:14494  ratioFeesToRewardHodlersPerThousand = _valuePerThousand */\n      dup2\n      swap1\n      sstore\n      pop\n        /* \"LiquidityToken.sol\":14505:14555  RatioFeesToRewardHodlersUpdated(_valuePerThousand) */\n      0x33ba6df77b2071829f387d2122b96309cbbd439fa4b0532cfd8d5e6f7cd4dcbb\n        /* \"LiquidityToken.sol\":14537:14554  _valuePerThousand */\n      dup2\n        /* \"LiquidityToken.sol\":14505:14555  RatioFeesToRewardHodlersUpdated(_valuePerThousand) */\n      mload(0x40)\n      dup1\n      dup3\n      dup2\n      mstore\n      0x20\n      add\n      swap2\n      pop\n      pop\n      mload(0x40)\n      dup1\n      swap2\n      sub\n      swap1\n      log1\n        /* \"LiquidityToken.sol\":14285:14560  function updateRatioFeesToRewardHodlers(uint _valuePerThousand) public onlyOwner() {... */\n      pop\n      jump\t// out\n        /* \"LiquidityToken.sol\":15124:15876  function rechargeUserTokens(address _user, uint _valueFullyChargedToIncrease, uint _valuePartiallyChargedToDecrease, ... */\n    tag_140:\n        /* \"LiquidityToken.sol\":14688:14721  ensureOnlyInterfaceProjectToken() */\n      tag_322\n        /* \"LiquidityToken.sol\":14688:14719  ensureOnlyInterfaceProjectToken */\n      tag_305\n        /* \"LiquidityToken.sol\":14688:14721  ensureOnlyInterfaceProjectToken() */\n      jump\t// in\n    tag_322:\n        /* \"LiquidityToken.sol\":15374:15449  userLiquiToken[_user].fullyChargedBalance.add(_valueFullyChargedToIncrease) */\n      tag_324\n        /* \"LiquidityToken.sol\":15420:15448  _valueFullyChargedToIncrease */\n      dup4\n        /* \"LiquidityToken.sol\":15374:15388  userLiquiToken */\n      0x13\n        /* \"LiquidityToken.sol\":15374:15395  userLiquiToken[_user] */\n      0x00\n        /* \"LiquidityToken.sol\":15389:15394  _user */\n      dup8\n        /* \"LiquidityToken.sol\":15374:15395  userLiquiToken[_user] */\n      0xffffffffffffffffffffffffffffffffffffffff\n      and\n      0xffffffffffffffffffffffffffffffffffffffff\n      and\n      dup2\n      mstore\n      0x20\n      add\n      swap1\n      dup2\n      mstore\n      0x20\n      add\n      0x00\n      keccak256\n        /* \"LiquidityToken.sol\":15374:15415  userLiquiToken[_user].fullyChargedBalance */\n      0x00\n      add\n      sload\n        /* \"LiquidityToken.sol\":15374:15419  userLiquiToken[_user].fullyChargedBalance.add */\n      tag_270\n      swap1\n        /* \"LiquidityToken.sol\":15374:15449  userLiquiToken[_user].fullyChargedBalance.add(_valueFullyChargedToIncrease) */\n      swap2\n      swap1\n      0xffffffff\n      and\n      jump\t// in\n    tag_324:\n        /* \"LiquidityToken.sol\":15324:15338  userLiquiToken */\n      0x13\n        /* \"LiquidityToken.sol\":15324:15345  userLiquiToken[_user] */\n      0x00\n        /* \"LiquidityToken.sol\":15339:15344  _user */\n      dup7\n        /* \"LiquidityToken.sol\":15324:15345  userLiquiToken[_user] */\n      0xffffffffffffffffffffffffffffffffffffffff\n      and\n      0xffffffffffffffffffffffffffffffffffffffff\n      and\n      dup2\n      mstore\n      0x20\n      add\n      swap1\n      dup2\n      mstore\n      0x20\n      add\n      0x00\n      keccak256\n        /* \"LiquidityToken.sol\":15324:15365  userLiquiToken[_user].fullyChargedBalance */\n      0x00\n      add\n        /* \"LiquidityToken.sol\":15324:15449  userLiquiToken[_user].fullyChargedBalance =... */\n      dup2\n      swap1\n      sstore\n      pop\n        /* \"LiquidityToken.sol\":15460:15525  IncreasedFullyChargedBalance(_user, _valueFullyChargedToIncrease) */\n      0xae2006c94e89f8083efda0c0a1d0c7d6fef3ec90d68506aa822854f3ba31f9cf\n        /* \"LiquidityToken.sol\":15489:15494  _user */\n      dup5\n        /* \"LiquidityToken.sol\":15496:15524  _valueFullyChargedToIncrease */\n      dup5\n        /* \"LiquidityToken.sol\":15460:15525  IncreasedFullyChargedBalance(_user, _valueFullyChargedToIncrease) */\n      mload(0x40)\n      dup1\n      dup4\n      0xffffffffffffffffffffffffffffffffffffffff\n      and\n      dup2\n      mstore\n      0x20\n      add\n      dup3\n      dup2\n      mstore\n      0x20\n      add\n      swap3\n      pop\n      pop\n      pop\n      mload(0x40)\n      dup1\n      swap2\n      sub\n      swap1\n      log1\n        /* \"LiquidityToken.sol\":15585:15668  userLiquiToken[_user].partiallyChargedBalance.sub(_valuePartiallyChargedToDecrease) */\n      tag_325\n        /* \"LiquidityToken.sol\":15635:15667  _valuePartiallyChargedToDecrease */\n      dup3\n        /* \"LiquidityToken.sol\":15585:15599  userLiquiToken */\n      0x13\n        /* \"LiquidityToken.sol\":15585:15606  userLiquiToken[_user] */\n      0x00\n        /* \"LiquidityToken.sol\":15600:15605  _user */\n      dup8\n        /* \"LiquidityToken.sol\":15585:15606  userLiquiToken[_user] */\n      0xffffffffffffffffffffffffffffffffffffffff\n      and\n      0xffffffffffffffffffffffffffffffffffffffff\n      and\n      dup2\n      mstore\n      0x20\n      add\n      swap1\n      dup2\n      mstore\n      0x20\n      add\n      0x00\n      keccak256\n        /* \"LiquidityToken.sol\":15585:15630  userLiquiToken[_user].partiallyChargedBalance */\n      0x01\n      add\n      sload\n        /* \"LiquidityToken.sol\":15585:15634  userLiquiToken[_user].partiallyChargedBalance.sub */\n      tag_277\n      swap1\n        /* \"LiquidityToken.sol\":15585:15668  userLiquiToken[_user].partiallyChargedBalance.sub(_valuePartiallyChargedToDecrease) */\n      swap2\n      swap1\n      0xffffffff\n      and\n      jump\t// in\n    tag_325:\n        /* \"LiquidityToken.sol\":15531:15545  userLiquiToken */\n      0x13\n        /* \"LiquidityToken.sol\":15531:15552  userLiquiToken[_user] */\n      0x00\n        /* \"LiquidityToken.sol\":15546:15551  _user */\n      dup7\n        /* \"LiquidityToken.sol\":15531:15552  userLiquiToken[_user] */\n      0xffffffffffffffffffffffffffffffffffffffff\n      and\n      0xffffffffffffffffffffffffffffffffffffffff\n      and\n      dup2\n      mstore\n      0x20\n      add\n      swap1\n      dup2\n      mstore\n      0x20\n      add\n      0x00\n      keccak256\n        /* \"LiquidityToken.sol\":15531:15576  userLiquiToken[_user].partiallyChargedBalance */\n      0x01\n      add\n        /* \"LiquidityToken.sol\":15531:15668  userLiquiToken[_user].partiallyChargedBalance =... */\n      dup2\n      swap1\n      sstore\n      pop\n        /* \"LiquidityToken.sol\":15679:15752  DecreasedPartiallyChargedBalance(_user, _valuePartiallyChargedToDecrease) */\n      0x7d2875641484b55002ee757b3ad03d920e7ace29b381cff35a357041b20d612e\n        /* \"LiquidityToken.sol\":15712:15717  _user */\n      dup5\n        /* \"LiquidityToken.sol\":15719:15751  _valuePartiallyChargedToDecrease */\n      dup4\n        /* \"LiquidityToken.sol\":15679:15752  DecreasedPartiallyChargedBalance(_user, _valuePartiallyChargedToDecrease) */\n      mload(0x40)\n      dup1\n      dup4\n      0xffffffffffffffffffffffffffffffffffffffff\n      and\n      dup2\n      mstore\n      0x20\n      add\n      dup3\n      dup2\n      mstore\n      0x20\n      add\n      swap3\n      pop\n      pop\n      pop\n      mload(0x40)\n      dup1\n      swap2\n      sub\n      swap1\n      log1\n        /* \"LiquidityToken.sol\":15769:15812  stakedLT.add(_valueProjectTokenWithRewards) */\n      tag_326\n        /* \"LiquidityToken.sol\":15782:15811  _valueProjectTokenWithRewards */\n      dup2\n        /* \"LiquidityToken.sol\":15769:15777  stakedLT */\n      sload(0x0e)\n        /* \"LiquidityToken.sol\":15769:15781  stakedLT.add */\n      tag_270\n      swap1\n        /* \"LiquidityToken.sol\":15769:15812  stakedLT.add(_valueProjectTokenWithRewards) */\n      swap2\n      swap1\n      0xffffffff\n      and\n      jump\t// in\n    tag_326:\n        /* \"LiquidityToken.sol\":15758:15766  stakedLT */\n      0x0e\n        /* \"LiquidityToken.sol\":15758:15812  stakedLT = stakedLT.add(_valueProjectTokenWithRewards) */\n      dup2\n      swap1\n      sstore\n      pop\n        /* \"LiquidityToken.sol\":15823:15871  IncreasedStakedLT(_valueProjectTokenWithRewards) */\n      0x12129930c15dad4632242378dc39162db4c36a82482777c2e8f791d3752bb70f\n        /* \"LiquidityToken.sol\":15841:15870  _valueProjectTokenWithRewards */\n      dup2\n        /* \"LiquidityToken.sol\":15823:15871  IncreasedStakedLT(_valueProjectTokenWithRewards) */\n      mload(0x40)\n      dup1\n      dup3\n      dup2\n      mstore\n      0x20\n      add\n      swap2\n      pop\n      pop\n      mload(0x40)\n      dup1\n      swap2\n      sub\n      swap1\n      log1\n        /* \"LiquidityToken.sol\":15124:15876  function rechargeUserTokens(address _user, uint _valueFullyChargedToIncrease, uint _valuePartiallyChargedToDecrease, ... */\n      pop\n      pop\n      pop\n      pop\n      jump\t// out\n        /* \"LiquidityToken.sol\":799:853  uint public ratioFeesToRewardHodlersPerThousand = 1000 */\n    tag_142:\n      sload(0x0c)\n      dup2\n      jump\t// out\n        /* \"LiquidityToken.sol\":17198:17386  function getUserFullyChargedBalanceLiquiToken(address _user) public view... */\n    tag_145:\n        /* \"LiquidityToken.sol\":17283:17308  uint _fullyChargedBalance */\n      0x00\n        /* \"LiquidityToken.sol\":17340:17354  userLiquiToken */\n      0x13\n        /* \"LiquidityToken.sol\":17340:17361  userLiquiToken[_user] */\n      0x00\n        /* \"LiquidityToken.sol\":17355:17360  _user */\n      dup4\n        /* \"LiquidityToken.sol\":17340:17361  userLiquiToken[_user] */\n      0xffffffffffffffffffffffffffffffffffffffff\n      and\n      0xffffffffffffffffffffffffffffffffffffffff\n      and\n      dup2\n      mstore\n      0x20\n      add\n      swap1\n      dup2\n      mstore\n      0x20\n      add\n      0x00\n      keccak256\n        /* \"LiquidityToken.sol\":17340:17381  userLiquiToken[_user].fullyChargedBalance */\n      0x00\n      add\n      sload\n        /* \"LiquidityToken.sol\":17317:17381  _fullyChargedBalance = userLiquiToken[_user].fullyChargedBalance */\n      swap1\n      pop\n        /* \"LiquidityToken.sol\":17198:17386  function getUserFullyChargedBalanceLiquiToken(address _user) public view... */\n      swap2\n      swap1\n      pop\n      jump\t// out\n        /* \"LiquidityToken.sol\":1381:1431  uint public immutable maxClaimFeesPerThousandForPT */\n    tag_147:\n      immutable(\"0xd071d371589780369328e5437147bf8a672dd4f630ae4b82c7f8a4e9f9bcf7f4\")\n      dup2\n      jump\t// out\n        /* \"LiquidityToken.sol\":622:650  uint public stakingStartDate */\n    tag_149:\n      sload(0x07)\n      dup2\n      jump\t// out\n        /* \"LiquidityToken.sol\":578:618  uint public constant multiplier1K = 1000 */\n    tag_151:\n        /* \"LiquidityToken.sol\":614:618  1000 */\n      0x03e8\n        /* \"LiquidityToken.sol\":578:618  uint public constant multiplier1K = 1000 */\n      dup2\n      jump\t// out\n        /* \"LiquidityToken.sol\":654:681  uint public stakingDuration */\n    tag_153:\n      sload(0x08)\n      dup2\n      jump\t// out\n        /* \"LiquidityToken.sol\":15880:16625  function dischargeUserTokens(address _user, uint _valueProjectToken) public onlyInterfaceProjectToken() {... */\n    tag_156:\n        /* \"LiquidityToken.sol\":14688:14721  ensureOnlyInterfaceProjectToken() */\n      tag_329\n        /* \"LiquidityToken.sol\":14688:14719  ensureOnlyInterfaceProjectToken */\n      tag_305\n        /* \"LiquidityToken.sol\":14688:14721  ensureOnlyInterfaceProjectToken() */\n      jump\t// in\n    tag_329:\n        /* \"LiquidityToken.sol\":16006:16038  stakedLT.sub(_valueProjectToken) */\n      tag_331\n        /* \"LiquidityToken.sol\":16019:16037  _valueProjectToken */\n      dup2\n        /* \"LiquidityToken.sol\":16006:16014  stakedLT */\n      sload(0x0e)\n        /* \"LiquidityToken.sol\":16006:16018  stakedLT.sub */\n      tag_277\n      swap1\n        /* \"LiquidityToken.sol\":16006:16038  stakedLT.sub(_valueProjectToken) */\n      swap2\n      swap1\n      0xffffffff\n      and\n      jump\t// in\n    tag_331:\n        /* \"LiquidityToken.sol\":15995:16003  stakedLT */\n      0x0e\n        /* \"LiquidityToken.sol\":15995:16038  stakedLT = stakedLT.sub(_valueProjectToken) */\n      dup2\n      swap1\n      sstore\n      pop\n        /* \"LiquidityToken.sol\":16091:16106  block.timestamp */\n      timestamp\n        /* \"LiquidityToken.sol\":16044:16058  userLiquiToken */\n      0x13\n        /* \"LiquidityToken.sol\":16044:16065  userLiquiToken[_user] */\n      0x00\n        /* \"LiquidityToken.sol\":16059:16064  _user */\n      dup5\n        /* \"LiquidityToken.sol\":16044:16065  userLiquiToken[_user] */\n      0xffffffffffffffffffffffffffffffffffffffff\n      and\n      0xffffffffffffffffffffffffffffffffffffffff\n      and\n      dup2\n      mstore\n      0x20\n      add\n      swap1\n      dup2\n      mstore\n      0x20\n      add\n      0x00\n      keccak256\n        /* \"LiquidityToken.sol\":16044:16088  userLiquiToken[_user].dateOfPartiallyCharged */\n      0x02\n      add\n        /* \"LiquidityToken.sol\":16044:16106  userLiquiToken[_user].dateOfPartiallyCharged = block.timestamp */\n      dup2\n      swap1\n      sstore\n      pop\n        /* \"LiquidityToken.sol\":16117:16203  UpdatedDateOfPartiallyChargedAndDecreasedStakedLT(block.timestamp, _valueProjectToken) */\n      0x988acfd43f666f3f315b14052086271e8cf328d38353204311e1cd514f385a\n        /* \"LiquidityToken.sol\":16167:16182  block.timestamp */\n      timestamp\n        /* \"LiquidityToken.sol\":16184:16202  _valueProjectToken */\n      dup3\n        /* \"LiquidityToken.sol\":16117:16203  UpdatedDateOfPartiallyChargedAndDecreasedStakedLT(block.timestamp, _valueProjectToken) */\n      mload(0x40)\n      dup1\n      dup4\n      dup2\n      mstore\n      0x20\n      add\n      dup3\n      dup2\n      mstore\n      0x20\n      add\n      swap3\n      pop\n      pop\n      pop\n      mload(0x40)\n      dup1\n      swap2\n      sub\n      swap1\n      log1\n        /* \"LiquidityToken.sol\":16262:16263  0 */\n      0x00\n        /* \"LiquidityToken.sol\":16218:16232  userLiquiToken */\n      0x13\n        /* \"LiquidityToken.sol\":16218:16239  userLiquiToken[_user] */\n      0x00\n        /* \"LiquidityToken.sol\":16233:16238  _user */\n      dup5\n        /* \"LiquidityToken.sol\":16218:16239  userLiquiToken[_user] */\n      0xffffffffffffffffffffffffffffffffffffffff\n      and\n      0xffffffffffffffffffffffffffffffffffffffff\n      and\n      dup2\n      mstore\n      0x20\n      add\n      swap1\n      dup2\n      mstore\n      0x20\n      add\n      0x00\n      keccak256\n        /* \"LiquidityToken.sol\":16218:16259  userLiquiToken[_user].fullyChargedBalance */\n      0x00\n      add\n      sload\n        /* \"LiquidityToken.sol\":16218:16263  userLiquiToken[_user].fullyChargedBalance > 0 */\n      gt\n        /* \"LiquidityToken.sol\":16214:16608  if (userLiquiToken[_user].fullyChargedBalance > 0) {... */\n      iszero\n      tag_332\n      jumpi\n        /* \"LiquidityToken.sol\":16273:16302  uint _partiallyChargedBalance */\n      0x00\n        /* \"LiquidityToken.sol\":16314:16406  userLiquiToken[_user].partiallyChargedBalance.add(userLiquiToken[_user].fullyChargedBalance) */\n      tag_333\n        /* \"LiquidityToken.sol\":16364:16378  userLiquiToken */\n      0x13\n        /* \"LiquidityToken.sol\":16364:16385  userLiquiToken[_user] */\n      0x00\n        /* \"LiquidityToken.sol\":16379:16384  _user */\n      dup6\n        /* \"LiquidityToken.sol\":16364:16385  userLiquiToken[_user] */\n      0xffffffffffffffffffffffffffffffffffffffff\n      and\n      0xffffffffffffffffffffffffffffffffffffffff\n      and\n      dup2\n      mstore\n      0x20\n      add\n      swap1\n      dup2\n      mstore\n      0x20\n      add\n      0x00\n      keccak256\n        /* \"LiquidityToken.sol\":16364:16405  userLiquiToken[_user].fullyChargedBalance */\n      0x00\n      add\n      sload\n        /* \"LiquidityToken.sol\":16314:16328  userLiquiToken */\n      0x13\n        /* \"LiquidityToken.sol\":16314:16335  userLiquiToken[_user] */\n      0x00\n        /* \"LiquidityToken.sol\":16329:16334  _user */\n      dup7\n        /* \"LiquidityToken.sol\":16314:16335  userLiquiToken[_user] */\n      0xffffffffffffffffffffffffffffffffffffffff\n      and\n      0xffffffffffffffffffffffffffffffffffffffff\n      and\n      dup2\n      mstore\n      0x20\n      add\n      swap1\n      dup2\n      mstore\n      0x20\n      add\n      0x00\n      keccak256\n        /* \"LiquidityToken.sol\":16314:16359  userLiquiToken[_user].partiallyChargedBalance */\n      0x01\n      add\n      sload\n        /* \"LiquidityToken.sol\":16314:16363  userLiquiToken[_user].partiallyChargedBalance.add */\n      tag_270\n      swap1\n        /* \"LiquidityToken.sol\":16314:16406  userLiquiToken[_user].partiallyChargedBalance.add(userLiquiToken[_user].fullyChargedBalance) */\n      swap2\n      swap1\n      0xffffffff\n      and\n      jump\t// in\n    tag_333:\n        /* \"LiquidityToken.sol\":16273:16406  uint _partiallyChargedBalance = ... */\n      swap1\n      pop\n        /* \"LiquidityToken.sol\":16462:16486  _partiallyChargedBalance */\n      dup1\n        /* \"LiquidityToken.sol\":16414:16428  userLiquiToken */\n      0x13\n        /* \"LiquidityToken.sol\":16414:16435  userLiquiToken[_user] */\n      0x00\n        /* \"LiquidityToken.sol\":16429:16434  _user */\n      dup6\n        /* \"LiquidityToken.sol\":16414:16435  userLiquiToken[_user] */\n      0xffffffffffffffffffffffffffffffffffffffff\n      and\n      0xffffffffffffffffffffffffffffffffffffffff\n      and\n      dup2\n      mstore\n      0x20\n      add\n      swap1\n      dup2\n      mstore\n      0x20\n      add\n      0x00\n      keccak256\n        /* \"LiquidityToken.sol\":16414:16459  userLiquiToken[_user].partiallyChargedBalance */\n      0x01\n      add\n        /* \"LiquidityToken.sol\":16414:16486  userLiquiToken[_user].partiallyChargedBalance = _partiallyChargedBalance */\n      dup2\n      swap1\n      sstore\n      pop\n        /* \"LiquidityToken.sol\":16538:16539  0 */\n      0x00\n        /* \"LiquidityToken.sol\":16494:16508  userLiquiToken */\n      0x13\n        /* \"LiquidityToken.sol\":16494:16515  userLiquiToken[_user] */\n      0x00\n        /* \"LiquidityToken.sol\":16509:16514  _user */\n      dup6\n        /* \"LiquidityToken.sol\":16494:16515  userLiquiToken[_user] */\n      0xffffffffffffffffffffffffffffffffffffffff\n      and\n      0xffffffffffffffffffffffffffffffffffffffff\n      and\n      dup2\n      mstore\n      0x20\n      add\n      swap1\n      dup2\n      mstore\n      0x20\n      add\n      0x00\n      keccak256\n        /* \"LiquidityToken.sol\":16494:16535  userLiquiToken[_user].fullyChargedBalance */\n      0x00\n      add\n        /* \"LiquidityToken.sol\":16494:16539  userLiquiToken[_user].fullyChargedBalance = 0 */\n      dup2\n      swap1\n      sstore\n      pop\n        /* \"LiquidityToken.sol\":16552:16601  TokensDischarged(_user, _partiallyChargedBalance) */\n      0xea4585bcbbe652ce8d7648189af8436fed8469d3561fd73d3d345ba88618c20a\n        /* \"LiquidityToken.sol\":16569:16574  _user */\n      dup4\n        /* \"LiquidityToken.sol\":16576:16600  _partiallyChargedBalance */\n      dup3\n        /* \"LiquidityToken.sol\":16552:16601  TokensDischarged(_user, _partiallyChargedBalance) */\n      mload(0x40)\n      dup1\n      dup4\n      0xffffffffffffffffffffffffffffffffffffffff\n      and\n      dup2\n      mstore\n      0x20\n      add\n      dup3\n      dup2\n      mstore\n      0x20\n      add\n      swap3\n      pop\n      pop\n      pop\n      mload(0x40)\n      dup1\n      swap2\n      sub\n      swap1\n      log1\n        /* \"LiquidityToken.sol\":16214:16608  if (userLiquiToken[_user].fullyChargedBalance > 0) {... */\n      pop\n    tag_332:\n        /* \"LiquidityToken.sol\":15880:16625  function dischargeUserTokens(address _user, uint _valueProjectToken) public onlyInterfaceProjectToken() {... */\n      pop\n      pop\n      jump\t// out\n        /* \"LiquidityToken.sol\":1474:1517  uint public immutable maxStakingTokenAmount */\n    tag_158:\n      immutable(\"0x66547114649d5833daa7007ccc99ac262792882ea3d82e4ebe0b69f18704da0c\")\n      dup2\n      jump\t// out\n        /* \"LiquidityToken.sol\":1273:1320  uint public immutable maxInitialTokenAllocation */\n    tag_160:\n      immutable(\"0x27f63464b9731b972604804953e204cb89525ac66e46cd091b2739ad01222f8b\")\n      dup2\n      jump\t// out\n        /* \"LiquidityToken.sol\":1043:1084  bool public isInterfaceProjectTokenLocked */\n    tag_162:\n      0x11\n      0x01\n      swap1\n      sload\n      swap1\n      0x0100\n      exp\n      swap1\n      div\n      0xff\n      and\n      dup2\n      jump\t// out\n        /* \"LiquidityToken.sol\":1324:1377  uint public immutable maxWithdrawFeesPerThousandForLT */\n    tag_164:\n      immutable(\"0xcd3b8a75131b09c18fac61f93bac9440f7b768b1c243a93eca5a67eb03b07828\")\n      dup2\n      jump\t// out\n        /* \"https://github.com/OpenZeppelin/openzeppelin-contracts/blob/v3.4.2-solc-0.7/contracts/access/Ownable.sol\":1068:1153   */\n    tag_166:\n        /* \"https://github.com/OpenZeppelin/openzeppelin-contracts/blob/v3.4.2-solc-0.7/contracts/access/Ownable.sol\":1114:1121   */\n      0x00\n        /* \"https://github.com/OpenZeppelin/openzeppelin-contracts/blob/v3.4.2-solc-0.7/contracts/access/Ownable.sol\":1140:1146   */\n      0x05\n      0x01\n      swap1\n      sload\n      swap1\n      0x0100\n      exp\n      swap1\n      div\n      0xffffffffffffffffffffffffffffffffffffffff\n      and\n        /* \"https://github.com/OpenZeppelin/openzeppelin-contracts/blob/v3.4.2-solc-0.7/contracts/access/Ownable.sol\":1133:1146   */\n      swap1\n      pop\n        /* \"https://github.com/OpenZeppelin/openzeppelin-contracts/blob/v3.4.2-solc-0.7/contracts/access/Ownable.sol\":1068:1153   */\n      swap1\n      jump\t// out\n        /* \"LiquidityToken.sol\":10120:10811  function getUpdatedRewardPerShare1e18(uint _blockTime) public view returns(uint _updatedRewardPerShare1e18) {  ... */\n    tag_169:\n        /* \"LiquidityToken.sol\":10195:10226  uint _updatedRewardPerShare1e18 */\n      0x00\n        /* \"LiquidityToken.sol\":10239:10259  uint _stakingEndDate */\n      dup1\n        /* \"LiquidityToken.sol\":10262:10299  stakingStartDate.add(stakingDuration) */\n      tag_336\n        /* \"LiquidityToken.sol\":10283:10298  stakingDuration */\n      sload(0x08)\n        /* \"LiquidityToken.sol\":10262:10278  stakingStartDate */\n      sload(0x07)\n        /* \"LiquidityToken.sol\":10262:10282  stakingStartDate.add */\n      tag_270\n      swap1\n        /* \"LiquidityToken.sol\":10262:10299  stakingStartDate.add(stakingDuration) */\n      swap2\n      swap1\n      0xffffffff\n      and\n      jump\t// in\n    tag_336:\n        /* \"LiquidityToken.sol\":10239:10299  uint _stakingEndDate = stakingStartDate.add(stakingDuration) */\n      swap1\n      pop\n        /* \"LiquidityToken.sol\":10334:10359  currentRewardPerShare1e18 */\n      sload(0x0d)\n        /* \"LiquidityToken.sol\":10305:10359  _updatedRewardPerShare1e18 = currentRewardPerShare1e18 */\n      swap2\n      pop\n        /* \"LiquidityToken.sol\":10392:10417  stakingDateLastCheckpoint */\n      sload(0x09)\n        /* \"LiquidityToken.sol\":10379:10389  _blockTime */\n      dup4\n        /* \"LiquidityToken.sol\":10379:10417  _blockTime > stakingDateLastCheckpoint */\n      gt\n        /* \"LiquidityToken.sol\":10379:10471  _blockTime > stakingDateLastCheckpoint ... */\n      dup1\n      iszero\n      tag_337\n      jumpi\n      pop\n        /* \"LiquidityToken.sol\":10456:10471  _stakingEndDate */\n      dup1\n        /* \"LiquidityToken.sol\":10428:10453  stakingDateLastCheckpoint */\n      sload(0x09)\n        /* \"LiquidityToken.sol\":10428:10471  stakingDateLastCheckpoint < _stakingEndDate */\n      lt\n        /* \"LiquidityToken.sol\":10379:10471  _blockTime > stakingDateLastCheckpoint ... */\n    tag_337:\n        /* \"LiquidityToken.sol\":10379:10494  _blockTime > stakingDateLastCheckpoint ... */\n      dup1\n      iszero\n      tag_338\n      jumpi\n      pop\n        /* \"LiquidityToken.sol\":10493:10494  0 */\n      0x00\n        /* \"LiquidityToken.sol\":10482:10490  stakedLT */\n      sload(0x0e)\n        /* \"LiquidityToken.sol\":10482:10494  stakedLT > 0 */\n      gt\n        /* \"LiquidityToken.sol\":10379:10494  _blockTime > stakingDateLastCheckpoint ... */\n    tag_338:\n        /* \"LiquidityToken.sol\":10368:10806  if (... */\n      iszero\n      tag_339\n      jumpi\n        /* \"LiquidityToken.sol\":10530:10545  _stakingEndDate */\n      dup1\n        /* \"LiquidityToken.sol\":10517:10527  _blockTime */\n      dup4\n        /* \"LiquidityToken.sol\":10517:10545  _blockTime > _stakingEndDate */\n      gt\n        /* \"LiquidityToken.sol\":10513:10575  if (_blockTime > _stakingEndDate) _blockTime = _stakingEndDate */\n      iszero\n      tag_340\n      jumpi\n        /* \"LiquidityToken.sol\":10560:10575  _stakingEndDate */\n      dup1\n        /* \"LiquidityToken.sol\":10547:10575  _blockTime = _stakingEndDate */\n      swap3\n      pop\n        /* \"LiquidityToken.sol\":10513:10575  if (_blockTime > _stakingEndDate) _blockTime = _stakingEndDate */\n    tag_340:\n        /* \"LiquidityToken.sol\":10614:10795  _updatedRewardPerShare1e18.add(... */\n      tag_341\n        /* \"LiquidityToken.sol\":10656:10783  (_blockTime.sub(stakingDateLastCheckpoint)).mul(campaignStakingRewards).mul(1e18)... */\n      tag_342\n        /* \"LiquidityToken.sol\":10753:10782  stakingDuration.mul(stakedLT) */\n      tag_343\n        /* \"LiquidityToken.sol\":10773:10781  stakedLT */\n      sload(0x0e)\n        /* \"LiquidityToken.sol\":10753:10768  stakingDuration */\n      sload(0x08)\n        /* \"LiquidityToken.sol\":10753:10772  stakingDuration.mul */\n      tag_282\n      swap1\n        /* \"LiquidityToken.sol\":10753:10782  stakingDuration.mul(stakedLT) */\n      swap2\n      swap1\n      0xffffffff\n      and\n      jump\t// in\n    tag_343:\n        /* \"LiquidityToken.sol\":10656:10737  (_blockTime.sub(stakingDateLastCheckpoint)).mul(campaignStakingRewards).mul(1e18) */\n      tag_344\n        /* \"LiquidityToken.sol\":10732:10736  1e18 */\n      0x0de0b6b3a7640000\n        /* \"LiquidityToken.sol\":10656:10727  (_blockTime.sub(stakingDateLastCheckpoint)).mul(campaignStakingRewards) */\n      tag_345\n        /* \"LiquidityToken.sol\":10704:10726  campaignStakingRewards */\n      sload(0x0a)\n        /* \"LiquidityToken.sol\":10657:10698  _blockTime.sub(stakingDateLastCheckpoint) */\n      tag_346\n        /* \"LiquidityToken.sol\":10672:10697  stakingDateLastCheckpoint */\n      sload(0x09)\n        /* \"LiquidityToken.sol\":10657:10667  _blockTime */\n      dup12\n        /* \"LiquidityToken.sol\":10657:10671  _blockTime.sub */\n      tag_277\n      swap1\n        /* \"LiquidityToken.sol\":10657:10698  _blockTime.sub(stakingDateLastCheckpoint) */\n      swap2\n      swap1\n      0xffffffff\n      and\n      jump\t// in\n    tag_346:\n        /* \"LiquidityToken.sol\":10656:10703  (_blockTime.sub(stakingDateLastCheckpoint)).mul */\n      tag_282\n      swap1\n        /* \"LiquidityToken.sol\":10656:10727  (_blockTime.sub(stakingDateLastCheckpoint)).mul(campaignStakingRewards) */\n      swap2\n      swap1\n      0xffffffff\n      and\n      jump\t// in\n    tag_345:\n        /* \"LiquidityToken.sol\":10656:10731  (_blockTime.sub(stakingDateLastCheckpoint)).mul(campaignStakingRewards).mul */\n      tag_282\n      swap1\n        /* \"LiquidityToken.sol\":10656:10737  (_blockTime.sub(stakingDateLastCheckpoint)).mul(campaignStakingRewards).mul(1e18) */\n      swap2\n      swap1\n      0xffffffff\n      and\n      jump\t// in\n    tag_344:\n        /* \"LiquidityToken.sol\":10656:10752  (_blockTime.sub(stakingDateLastCheckpoint)).mul(campaignStakingRewards).mul(1e18)... */\n      tag_283\n      swap1\n        /* \"LiquidityToken.sol\":10656:10783  (_blockTime.sub(stakingDateLastCheckpoint)).mul(campaignStakingRewards).mul(1e18)... */\n      swap2\n      swap1\n      0xffffffff\n      and\n      jump\t// in\n    tag_342:\n        /* \"LiquidityToken.sol\":10614:10640  _updatedRewardPerShare1e18 */\n      dup4\n        /* \"LiquidityToken.sol\":10614:10644  _updatedRewardPerShare1e18.add */\n      tag_270\n      swap1\n        /* \"LiquidityToken.sol\":10614:10795  _updatedRewardPerShare1e18.add(... */\n      swap2\n      swap1\n      0xffffffff\n      and\n      jump\t// in\n    tag_341:\n        /* \"LiquidityToken.sol\":10585:10795  _updatedRewardPerShare1e18 = _updatedRewardPerShare1e18.add(... */\n      swap2\n      pop\n        /* \"LiquidityToken.sol\":10368:10806  if (... */\n    tag_339:\n        /* \"LiquidityToken.sol\":10120:10811  function getUpdatedRewardPerShare1e18(uint _blockTime) public view returns(uint _updatedRewardPerShare1e18) {  ... */\n      pop\n      swap2\n      swap1\n      pop\n      jump\t// out\n        /* \"LiquidityToken.sol\":764:795  uint public totalStakingRewards */\n    tag_171:\n      sload(0x0b)\n      dup2\n      jump\t// out\n        /* \"LiquidityToken.sol\":1522:1580  mapping (address => uint) public claimedRewardPerShare1e18 */\n    tag_174:\n      mstore(0x20, 0x12)\n      dup1\n      0x00\n      mstore\n      keccak256(0x00, 0x40)\n      0x00\n      swap2\n      pop\n      swap1\n      pop\n      sload\n      dup2\n      jump\t// out\n        /* \"https://github.com/OpenZeppelin/openzeppelin-contracts/blob/v3.4.2-solc-0.7/contracts/token/ERC20/ERC20.sol\":2355:2448   */\n    tag_176:\n        /* \"https://github.com/OpenZeppelin/openzeppelin-contracts/blob/v3.4.2-solc-0.7/contracts/token/ERC20/ERC20.sol\":2402:2415   */\n      0x60\n        /* \"https://github.com/OpenZeppelin/openzeppelin-contracts/blob/v3.4.2-solc-0.7/contracts/token/ERC20/ERC20.sol\":2434:2441   */\n      0x04\n        /* \"https://github.com/OpenZeppelin/openzeppelin-contracts/blob/v3.4.2-solc-0.7/contracts/token/ERC20/ERC20.sol\":2427:2441   */\n      dup1\n      sload\n      0x01\n      dup2\n      0x01\n      and\n      iszero\n      0x0100\n      mul\n      sub\n      and\n      0x02\n      swap1\n      div\n      dup1\n      0x1f\n      add\n      0x20\n      dup1\n      swap2\n      div\n      mul\n      0x20\n      add\n      mload(0x40)\n      swap1\n      dup2\n      add\n      0x40\n      mstore\n      dup1\n      swap3\n      swap2\n      swap1\n      dup2\n      dup2\n      mstore\n      0x20\n      add\n      dup3\n      dup1\n      sload\n      0x01\n      dup2\n      0x01\n      and\n      iszero\n      0x0100\n      mul\n      sub\n      and\n      0x02\n      swap1\n      div\n      dup1\n      iszero\n      tag_348\n      jumpi\n      dup1\n      0x1f\n      lt\n      tag_349\n      jumpi\n      0x0100\n      dup1\n      dup4\n      sload\n      div\n      mul\n      dup4\n      mstore\n      swap2\n      0x20\n      add\n      swap2\n      jump(tag_348)\n    tag_349:\n      dup3\n      add\n      swap2\n      swap1\n      0x00\n      mstore\n      keccak256(0x00, 0x20)\n      swap1\n    tag_350:\n      dup2\n      sload\n      dup2\n      mstore\n      swap1\n      0x01\n      add\n      swap1\n      0x20\n      add\n      dup1\n      dup4\n      gt\n      tag_350\n      jumpi\n      dup3\n      swap1\n      sub\n      0x1f\n      and\n      dup3\n      add\n      swap2\n    tag_348:\n      pop\n      pop\n      pop\n      pop\n      pop\n      swap1\n      pop\n        /* \"https://github.com/OpenZeppelin/openzeppelin-contracts/blob/v3.4.2-solc-0.7/contracts/token/ERC20/ERC20.sol\":2355:2448   */\n      swap1\n      jump\t// out\n        /* \"LiquidityToken.sol\":1088:1124  bool public areAllocationsTerminated */\n    tag_182:\n      0x11\n      0x02\n      swap1\n      sload\n      swap1\n      0x0100\n      exp\n      swap1\n      div\n      0xff\n      and\n      dup2\n      jump\t// out\n        /* \"LiquidityToken.sol\":7607:7737  function terminateAllocations() public onlyOwner() {... */\n    tag_184:\n        /* \"https://github.com/OpenZeppelin/openzeppelin-contracts/blob/v3.4.2-solc-0.7/contracts/access/Ownable.sol\":1291:1303   */\n      tag_352\n        /* \"https://github.com/OpenZeppelin/openzeppelin-contracts/blob/v3.4.2-solc-0.7/contracts/access/Ownable.sol\":1291:1301   */\n      tag_250\n        /* \"https://github.com/OpenZeppelin/openzeppelin-contracts/blob/v3.4.2-solc-0.7/contracts/access/Ownable.sol\":1291:1303   */\n      jump\t// in\n    tag_352:\n        /* \"https://github.com/OpenZeppelin/openzeppelin-contracts/blob/v3.4.2-solc-0.7/contracts/access/Ownable.sol\":1280:1303   */\n      0xffffffffffffffffffffffffffffffffffffffff\n      and\n        /* \"https://github.com/OpenZeppelin/openzeppelin-contracts/blob/v3.4.2-solc-0.7/contracts/access/Ownable.sol\":1280:1287   */\n      tag_353\n        /* \"https://github.com/OpenZeppelin/openzeppelin-contracts/blob/v3.4.2-solc-0.7/contracts/access/Ownable.sol\":1280:1285   */\n      tag_166\n        /* \"https://github.com/OpenZeppelin/openzeppelin-contracts/blob/v3.4.2-solc-0.7/contracts/access/Ownable.sol\":1280:1287   */\n      jump\t// in\n    tag_353:\n        /* \"https://github.com/OpenZeppelin/openzeppelin-contracts/blob/v3.4.2-solc-0.7/contracts/access/Ownable.sol\":1280:1303   */\n      0xffffffffffffffffffffffffffffffffffffffff\n      and\n      eq\n        /* \"https://github.com/OpenZeppelin/openzeppelin-contracts/blob/v3.4.2-solc-0.7/contracts/access/Ownable.sol\":1272:1340   */\n      tag_354\n      jumpi\n      mload(0x40)\n      0x08c379a000000000000000000000000000000000000000000000000000000000\n      dup2\n      mstore\n      0x04\n      add\n      dup1\n      dup1\n      0x20\n      add\n      dup3\n      dup2\n      sub\n      dup3\n      mstore\n      0x20\n      dup2\n      mstore\n      0x20\n      add\n      dup1\n      0x4f776e61626c653a2063616c6c6572206973206e6f7420746865206f776e6572\n      dup2\n      mstore\n      pop\n      0x20\n      add\n      swap2\n      pop\n      pop\n      mload(0x40)\n      dup1\n      swap2\n      sub\n      swap1\n      revert\n    tag_354:\n        /* \"LiquidityToken.sol\":7691:7695  true */\n      0x01\n        /* \"LiquidityToken.sol\":7664:7688  areAllocationsTerminated */\n      0x11\n      0x02\n        /* \"LiquidityToken.sol\":7664:7695  areAllocationsTerminated = true */\n      0x0100\n      exp\n      dup2\n      sload\n      dup2\n      0xff\n      mul\n      not\n      and\n      swap1\n      dup4\n      iszero\n      iszero\n      mul\n      or\n      swap1\n      sstore\n      pop\n        /* \"LiquidityToken.sol\":7706:7732  AllocationsAreTerminated() */\n      0xe34132c0e38d6bc3060b9c7698a52568cfc799c082cc802a370f04ff216130ee\n      mload(0x40)\n      mload(0x40)\n      dup1\n      swap2\n      sub\n      swap1\n      log1\n        /* \"LiquidityToken.sol\":7607:7737  function terminateAllocations() public onlyOwner() {... */\n      jump\t// out\n        /* \"LiquidityToken.sol\":17390:17594  function getUserPartiallyChargedBalanceLiquiToken(address _user) public view... */\n    tag_187:\n        /* \"LiquidityToken.sol\":17479:17508  uint _partiallyChargedBalance */\n      0x00\n        /* \"LiquidityToken.sol\":17544:17558  userLiquiToken */\n      0x13\n        /* \"LiquidityToken.sol\":17544:17565  userLiquiToken[_user] */\n      0x00\n        /* \"LiquidityToken.sol\":17559:17564  _user */\n      dup4\n        /* \"LiquidityToken.sol\":17544:17565  userLiquiToken[_user] */\n      0xffffffffffffffffffffffffffffffffffffffff\n      and\n      0xffffffffffffffffffffffffffffffffffffffff\n      and\n      dup2\n      mstore\n      0x20\n      add\n      swap1\n      dup2\n      mstore\n      0x20\n      add\n      0x00\n      keccak256\n        /* \"LiquidityToken.sol\":17544:17589  userLiquiToken[_user].partiallyChargedBalance */\n      0x01\n      add\n      sload\n        /* \"LiquidityToken.sol\":17517:17589  _partiallyChargedBalance = userLiquiToken[_user].partiallyChargedBalance */\n      swap1\n      pop\n        /* \"LiquidityToken.sol\":17390:17594  function getUserPartiallyChargedBalanceLiquiToken(address _user) public view... */\n      swap2\n      swap1\n      pop\n      jump\t// out\n        /* \"LiquidityToken.sol\":12556:13999  function setStakingRewards(uint _stakingStartDate, uint _stakingDuration, uint _campaignStakingRewards) ... */\n    tag_190:\n        /* \"https://github.com/OpenZeppelin/openzeppelin-contracts/blob/v3.4.2-solc-0.7/contracts/access/Ownable.sol\":1291:1303   */\n      tag_358\n        /* \"https://github.com/OpenZeppelin/openzeppelin-contracts/blob/v3.4.2-solc-0.7/contracts/access/Ownable.sol\":1291:1301   */\n      tag_250\n        /* \"https://github.com/OpenZeppelin/openzeppelin-contracts/blob/v3.4.2-solc-0.7/contracts/access/Ownable.sol\":1291:1303   */\n      jump\t// in\n    tag_358:\n        /* \"https://github.com/OpenZeppelin/openzeppelin-contracts/blob/v3.4.2-solc-0.7/contracts/access/Ownable.sol\":1280:1303   */\n      0xffffffffffffffffffffffffffffffffffffffff\n      and\n        /* \"https://github.com/OpenZeppelin/openzeppelin-contracts/blob/v3.4.2-solc-0.7/contracts/access/Ownable.sol\":1280:1287   */\n      tag_359\n        /* \"https://github.com/OpenZeppelin/openzeppelin-contracts/blob/v3.4.2-solc-0.7/contracts/access/Ownable.sol\":1280:1285   */\n      tag_166\n        /* \"https://github.com/OpenZeppelin/openzeppelin-contracts/blob/v3.4.2-solc-0.7/contracts/access/Ownable.sol\":1280:1287   */\n      jump\t// in\n    tag_359:\n        /* \"https://github.com/OpenZeppelin/openzeppelin-contracts/blob/v3.4.2-solc-0.7/contracts/access/Ownable.sol\":1280:1303   */\n      0xffffffffffffffffffffffffffffffffffffffff\n      and\n      eq\n        /* \"https://github.com/OpenZeppelin/openzeppelin-contracts/blob/v3.4.2-solc-0.7/contracts/access/Ownable.sol\":1272:1340   */\n      tag_360\n      jumpi\n      mload(0x40)\n      0x08c379a000000000000000000000000000000000000000000000000000000000\n      dup2\n      mstore\n      0x04\n      add\n      dup1\n      dup1\n      0x20\n      add\n      dup3\n      dup2\n      sub\n      dup3\n      mstore\n      0x20\n      dup2\n      mstore\n      0x20\n      add\n      dup1\n      0x4f776e61626c653a2063616c6c6572206973206e6f7420746865206f776e6572\n      dup2\n      mstore\n      pop\n      0x20\n      add\n      swap2\n      pop\n      pop\n      mload(0x40)\n      dup1\n      swap2\n      sub\n      swap1\n      revert\n    tag_360:\n        /* \"LiquidityToken.sol\":12691:12706  uint _blockTime */\n      0x00\n        /* \"LiquidityToken.sol\":12709:12724  block.timestamp */\n      timestamp\n        /* \"LiquidityToken.sol\":12691:12724  uint _blockTime = block.timestamp */\n      swap1\n      pop\n        /* \"LiquidityToken.sol\":12766:12776  _blockTime */\n      dup1\n        /* \"LiquidityToken.sol\":12746:12763  _stakingStartDate */\n      dup5\n        /* \"LiquidityToken.sol\":12746:12776  _stakingStartDate > _blockTime */\n      gt\n        /* \"LiquidityToken.sol\":12746:12800  _stakingStartDate > _blockTime && _stakingDuration > 0 */\n      dup1\n      iszero\n      tag_362\n      jumpi\n      pop\n        /* \"LiquidityToken.sol\":12799:12800  0 */\n      0x00\n        /* \"LiquidityToken.sol\":12780:12796  _stakingDuration */\n      dup4\n        /* \"LiquidityToken.sol\":12780:12800  _stakingDuration > 0 */\n      gt\n        /* \"LiquidityToken.sol\":12746:12800  _stakingStartDate > _blockTime && _stakingDuration > 0 */\n    tag_362:\n        /* \"LiquidityToken.sol\":12731:12902  require(... */\n      tag_363\n      jumpi\n      mload(0x40)\n      0x08c379a000000000000000000000000000000000000000000000000000000000\n      dup2\n      mstore\n      0x04\n      add\n      dup1\n      dup1\n      0x20\n      add\n      dup3\n      dup2\n      sub\n      dup3\n      mstore\n      0x54\n      dup2\n      mstore\n      0x20\n      add\n      dup1\n      data_cc1ac84f1f31a634a17a4ddce30b05f5fb9fdd55515de86fb1d919f165b3a5aa\n      0x54\n      swap2\n      codecopy\n      0x60\n      add\n      swap2\n      pop\n      pop\n      mload(0x40)\n      dup1\n      swap2\n      sub\n      swap1\n      revert\n    tag_363:\n        /* \"LiquidityToken.sol\":12936:12937  0 */\n      0x00\n        /* \"LiquidityToken.sol\":12917:12933  stakingStartDate */\n      sload(0x07)\n        /* \"LiquidityToken.sol\":12917:12937  stakingStartDate > 0 */\n      gt\n        /* \"LiquidityToken.sol\":12913:13066  if (stakingStartDate > 0)... */\n      iszero\n      tag_364\n      jumpi\n        /* \"LiquidityToken.sol\":12975:13012  stakingStartDate.add(stakingDuration) */\n      tag_365\n        /* \"LiquidityToken.sol\":12996:13011  stakingDuration */\n      sload(0x08)\n        /* \"LiquidityToken.sol\":12975:12991  stakingStartDate */\n      sload(0x07)\n        /* \"LiquidityToken.sol\":12975:12995  stakingStartDate.add */\n      tag_270\n      swap1\n        /* \"LiquidityToken.sol\":12975:13012  stakingStartDate.add(stakingDuration) */\n      swap2\n      swap1\n      0xffffffff\n      and\n      jump\t// in\n    tag_365:\n        /* \"LiquidityToken.sol\":12962:12972  _blockTime */\n      dup2\n        /* \"LiquidityToken.sol\":12962:13012  _blockTime > stakingStartDate.add(stakingDuration) */\n      gt\n        /* \"LiquidityToken.sol\":12945:13066  require(... */\n      tag_366\n      jumpi\n      mload(0x40)\n      0x08c379a000000000000000000000000000000000000000000000000000000000\n      dup2\n      mstore\n      0x04\n      add\n      dup1\n      dup1\n      0x20\n      add\n      dup3\n      dup2\n      sub\n      dup3\n      mstore\n      0x28\n      dup2\n      mstore\n      0x20\n      add\n      dup1\n      data_a795cebbe87cbaa718b98376a54958a9f2ac9be73ba32fe7cff080028a31f20e\n      0x28\n      swap2\n      codecopy\n      0x40\n      add\n      swap2\n      pop\n      pop\n      mload(0x40)\n      dup1\n      swap2\n      sub\n      swap1\n      revert\n    tag_366:\n        /* \"LiquidityToken.sol\":12913:13066  if (stakingStartDate > 0)... */\n    tag_364:\n        /* \"LiquidityToken.sol\":13116:13137  maxStakingTokenAmount */\n      immutable(\"0x66547114649d5833daa7007ccc99ac262792882ea3d82e4ebe0b69f18704da0c\")\n        /* \"LiquidityToken.sol\":13089:13112  _campaignStakingRewards */\n      dup3\n        /* \"LiquidityToken.sol\":13089:13137  _campaignStakingRewards <= maxStakingTokenAmount */\n      gt\n      iszero\n        /* \"LiquidityToken.sol\":13074:13188  require(... */\n      tag_367\n      jumpi\n      mload(0x40)\n      0x08c379a000000000000000000000000000000000000000000000000000000000\n      dup2\n      mstore\n      0x04\n      add\n      dup1\n      dup1\n      0x20\n      add\n      dup3\n      dup2\n      sub\n      dup3\n      mstore\n      0x21\n      dup2\n      mstore\n      0x20\n      add\n      dup1\n      data_91f8f41b83b29f8c4a639991eacdcd9c25ac1408b42ec8d46fde92bf8ffd9bf0\n      0x21\n      swap2\n      codecopy\n      0x40\n      add\n      swap2\n      pop\n      pop\n      mload(0x40)\n      dup1\n      swap2\n      sub\n      swap1\n      revert\n    tag_367:\n        /* \"LiquidityToken.sol\":13214:13215  0 */\n      0x00\n        /* \"LiquidityToken.sol\":13203:13211  stakedLT */\n      sload(0x0e)\n        /* \"LiquidityToken.sol\":13203:13215  stakedLT > 0 */\n      gt\n        /* \"LiquidityToken.sol\":13199:13386  if (stakedLT > 0)... */\n      iszero\n      tag_368\n      jumpi\n        /* \"LiquidityToken.sol\":13327:13340  maxStakingAPR */\n      immutable(\"0xbf42042e2237c6e6d1c29f4f02d65eeea252179805ed26cf71ad720e62900975\")\n        /* \"LiquidityToken.sol\":13240:13323  _campaignStakingRewards.mul(100).mul(86400*365).div(_stakingDuration).div(stakedLT) */\n      tag_369\n        /* \"LiquidityToken.sol\":13314:13322  stakedLT */\n      sload(0x0e)\n        /* \"LiquidityToken.sol\":13240:13309  _campaignStakingRewards.mul(100).mul(86400*365).div(_stakingDuration) */\n      tag_370\n        /* \"LiquidityToken.sol\":13292:13308  _stakingDuration */\n      dup7\n        /* \"LiquidityToken.sol\":13240:13287  _campaignStakingRewards.mul(100).mul(86400*365) */\n      tag_371\n        /* \"LiquidityToken.sol\":13277:13286  86400*365 */\n      0x01e13380\n        /* \"LiquidityToken.sol\":13240:13272  _campaignStakingRewards.mul(100) */\n      tag_372\n        /* \"LiquidityToken.sol\":13268:13271  100 */\n      0x64\n        /* \"LiquidityToken.sol\":13240:13263  _campaignStakingRewards */\n      dup11\n        /* \"LiquidityToken.sol\":13240:13267  _campaignStakingRewards.mul */\n      tag_282\n      swap1\n        /* \"LiquidityToken.sol\":13240:13272  _campaignStakingRewards.mul(100) */\n      swap2\n      swap1\n      0xffffffff\n      and\n      jump\t// in\n    tag_372:\n        /* \"LiquidityToken.sol\":13240:13276  _campaignStakingRewards.mul(100).mul */\n      tag_282\n      swap1\n        /* \"LiquidityToken.sol\":13240:13287  _campaignStakingRewards.mul(100).mul(86400*365) */\n      swap2\n      swap1\n      0xffffffff\n      and\n      jump\t// in\n    tag_371:\n        /* \"LiquidityToken.sol\":13240:13291  _campaignStakingRewards.mul(100).mul(86400*365).div */\n      tag_283\n      swap1\n        /* \"LiquidityToken.sol\":13240:13309  _campaignStakingRewards.mul(100).mul(86400*365).div(_stakingDuration) */\n      swap2\n      swap1\n      0xffffffff\n      and\n      jump\t// in\n    tag_370:\n        /* \"LiquidityToken.sol\":13240:13313  _campaignStakingRewards.mul(100).mul(86400*365).div(_stakingDuration).div */\n      tag_283\n      swap1\n        /* \"LiquidityToken.sol\":13240:13323  _campaignStakingRewards.mul(100).mul(86400*365).div(_stakingDuration).div(stakedLT) */\n      swap2\n      swap1\n      0xffffffff\n      and\n      jump\t// in\n    tag_369:\n        /* \"LiquidityToken.sol\":13240:13340  _campaignStakingRewards.mul(100).mul(86400*365).div(_stakingDuration).div(stakedLT) <= maxStakingAPR */\n      gt\n      iszero\n        /* \"LiquidityToken.sol\":13223:13386  require(... */\n      tag_373\n      jumpi\n      mload(0x40)\n      0x08c379a000000000000000000000000000000000000000000000000000000000\n      dup2\n      mstore\n      0x04\n      add\n      dup1\n      dup1\n      0x20\n      add\n      dup3\n      dup2\n      sub\n      dup3\n      mstore\n      0x18\n      dup2\n      mstore\n      0x20\n      add\n      dup1\n      0x4d617820616c6c6f776564204150522065786365656465640000000000000000\n      dup2\n      mstore\n      pop\n      0x20\n      add\n      swap2\n      pop\n      pop\n      mload(0x40)\n      dup1\n      swap2\n      sub\n      swap1\n      revert\n    tag_373:\n        /* \"LiquidityToken.sol\":13199:13386  if (stakedLT > 0)... */\n    tag_368:\n        /* \"LiquidityToken.sol\":13397:13432  updateStakingParameters(_blockTime) */\n      tag_374\n        /* \"LiquidityToken.sol\":13421:13431  _blockTime */\n      dup2\n        /* \"LiquidityToken.sol\":13397:13420  updateStakingParameters */\n      tag_375\n        /* \"LiquidityToken.sol\":13397:13432  updateStakingParameters(_blockTime) */\n      jump\t// in\n    tag_374:\n        /* \"LiquidityToken.sol\":13534:13551  _stakingStartDate */\n      dup4\n        /* \"LiquidityToken.sol\":13515:13531  stakingStartDate */\n      0x07\n        /* \"LiquidityToken.sol\":13515:13551  stakingStartDate = _stakingStartDate */\n      dup2\n      swap1\n      sstore\n      pop\n        /* \"LiquidityToken.sol\":13585:13602  _stakingStartDate */\n      dup4\n        /* \"LiquidityToken.sol\":13557:13582  stakingDateLastCheckpoint */\n      0x09\n        /* \"LiquidityToken.sol\":13557:13602  stakingDateLastCheckpoint = _stakingStartDate */\n      dup2\n      swap1\n      sstore\n      pop\n        /* \"LiquidityToken.sol\":13626:13642  _stakingDuration */\n      dup3\n        /* \"LiquidityToken.sol\":13608:13623  stakingDuration */\n      0x08\n        /* \"LiquidityToken.sol\":13608:13642  stakingDuration = _stakingDuration */\n      dup2\n      swap1\n      sstore\n      pop\n        /* \"LiquidityToken.sol\":13673:13696  _campaignStakingRewards */\n      dup2\n        /* \"LiquidityToken.sol\":13648:13670  campaignStakingRewards */\n      0x0a\n        /* \"LiquidityToken.sol\":13648:13696  campaignStakingRewards = _campaignStakingRewards */\n      dup2\n      swap1\n      sstore\n      pop\n        /* \"LiquidityToken.sol\":13724:13772  totalStakingRewards.add(_campaignStakingRewards) */\n      tag_376\n        /* \"LiquidityToken.sol\":13748:13771  _campaignStakingRewards */\n      dup3\n        /* \"LiquidityToken.sol\":13724:13743  totalStakingRewards */\n      sload(0x0b)\n        /* \"LiquidityToken.sol\":13724:13747  totalStakingRewards.add */\n      tag_270\n      swap1\n        /* \"LiquidityToken.sol\":13724:13772  totalStakingRewards.add(_campaignStakingRewards) */\n      swap2\n      swap1\n      0xffffffff\n      and\n      jump\t// in\n    tag_376:\n        /* \"LiquidityToken.sol\":13702:13721  totalStakingRewards */\n      0x0b\n        /* \"LiquidityToken.sol\":13702:13772  totalStakingRewards = totalStakingRewards.add(_campaignStakingRewards) */\n      dup2\n      swap1\n      sstore\n      pop\n        /* \"LiquidityToken.sol\":13800:13848  totalTokenAllocated.add(_campaignStakingRewards) */\n      tag_377\n        /* \"LiquidityToken.sol\":13824:13847  _campaignStakingRewards */\n      dup3\n        /* \"LiquidityToken.sol\":13800:13819  totalTokenAllocated */\n      sload(0x0f)\n        /* \"LiquidityToken.sol\":13800:13823  totalTokenAllocated.add */\n      tag_270\n      swap1\n        /* \"LiquidityToken.sol\":13800:13848  totalTokenAllocated.add(_campaignStakingRewards) */\n      swap2\n      swap1\n      0xffffffff\n      and\n      jump\t// in\n    tag_377:\n        /* \"LiquidityToken.sol\":13778:13797  totalTokenAllocated */\n      0x0f\n        /* \"LiquidityToken.sol\":13778:13848  totalTokenAllocated = totalTokenAllocated.add(_campaignStakingRewards) */\n      dup2\n      swap1\n      sstore\n      pop\n        /* \"LiquidityToken.sol\":13859:13943  StakingCampaignCreated(_stakingStartDate, _stakingDuration, _campaignStakingRewards) */\n      0x612340ab30150a67355ab93f1438fa021ec7da49b6665a179e7a4f30528384dd\n        /* \"LiquidityToken.sol\":13882:13899  _stakingStartDate */\n      dup5\n        /* \"LiquidityToken.sol\":13901:13917  _stakingDuration */\n      dup5\n        /* \"LiquidityToken.sol\":13919:13942  _campaignStakingRewards */\n      dup5\n        /* \"LiquidityToken.sol\":13859:13943  StakingCampaignCreated(_stakingStartDate, _stakingDuration, _campaignStakingRewards) */\n      mload(0x40)\n      dup1\n      dup5\n      dup2\n      mstore\n      0x20\n      add\n      dup4\n      dup2\n      mstore\n      0x20\n      add\n      dup3\n      dup2\n      mstore\n      0x20\n      add\n      swap4\n      pop\n      pop\n      pop\n      pop\n      mload(0x40)\n      dup1\n      swap2\n      sub\n      swap1\n      log1\n        /* \"LiquidityToken.sol\":13949:13994  _mint(address(this), _campaignStakingRewards) */\n      tag_378\n        /* \"LiquidityToken.sol\":13963:13967  this */\n      address\n        /* \"LiquidityToken.sol\":13970:13993  _campaignStakingRewards */\n      dup4\n        /* \"LiquidityToken.sol\":13949:13954  _mint */\n      tag_379\n        /* \"LiquidityToken.sol\":13949:13994  _mint(address(this), _campaignStakingRewards) */\n      jump\t// in\n    tag_378:\n        /* \"https://github.com/OpenZeppelin/openzeppelin-contracts/blob/v3.4.2-solc-0.7/contracts/access/Ownable.sol\":1350:1351   */\n      pop\n        /* \"LiquidityToken.sol\":12556:13999  function setStakingRewards(uint _stakingStartDate, uint _stakingDuration, uint _campaignStakingRewards) ... */\n      pop\n      pop\n      pop\n      jump\t// out\n        /* \"https://github.com/OpenZeppelin/openzeppelin-contracts/blob/v3.4.2-solc-0.7/contracts/token/ERC20/ERC20.sol\":6276:6542   */\n    tag_193:\n        /* \"https://github.com/OpenZeppelin/openzeppelin-contracts/blob/v3.4.2-solc-0.7/contracts/token/ERC20/ERC20.sol\":6369:6373   */\n      0x00\n        /* \"https://github.com/OpenZeppelin/openzeppelin-contracts/blob/v3.4.2-solc-0.7/contracts/token/ERC20/ERC20.sol\":6385:6514   */\n      tag_381\n        /* \"https://github.com/OpenZeppelin/openzeppelin-contracts/blob/v3.4.2-solc-0.7/contracts/token/ERC20/ERC20.sol\":6394:6406   */\n      tag_382\n        /* \"https://github.com/OpenZeppelin/openzeppelin-contracts/blob/v3.4.2-solc-0.7/contracts/token/ERC20/ERC20.sol\":6394:6404   */\n      tag_250\n        /* \"https://github.com/OpenZeppelin/openzeppelin-contracts/blob/v3.4.2-solc-0.7/contracts/token/ERC20/ERC20.sol\":6394:6406   */\n      jump\t// in\n    tag_382:\n        /* \"https://github.com/OpenZeppelin/openzeppelin-contracts/blob/v3.4.2-solc-0.7/contracts/token/ERC20/ERC20.sol\":6408:6415   */\n      dup5\n        /* \"https://github.com/OpenZeppelin/openzeppelin-contracts/blob/v3.4.2-solc-0.7/contracts/token/ERC20/ERC20.sol\":6417:6513   */\n      tag_383\n        /* \"https://github.com/OpenZeppelin/openzeppelin-contracts/blob/v3.4.2-solc-0.7/contracts/token/ERC20/ERC20.sol\":6456:6471   */\n      dup6\n        /* \"https://github.com/OpenZeppelin/openzeppelin-contracts/blob/v3.4.2-solc-0.7/contracts/token/ERC20/ERC20.sol\":6417:6513   */\n      mload(0x40)\n      dup1\n      0x60\n      add\n      0x40\n      mstore\n      dup1\n      0x25\n      dup2\n      mstore\n      0x20\n      add\n      data_f8b476f7d28209d77d4a4ac1fe36b9f8259aa1bb6bddfa6e89de7e51615cf8a8\n      0x25\n      swap2\n      codecopy\n        /* \"https://github.com/OpenZeppelin/openzeppelin-contracts/blob/v3.4.2-solc-0.7/contracts/token/ERC20/ERC20.sol\":6417:6428   */\n      0x01\n        /* \"https://github.com/OpenZeppelin/openzeppelin-contracts/blob/v3.4.2-solc-0.7/contracts/token/ERC20/ERC20.sol\":6417:6442   */\n      0x00\n        /* \"https://github.com/OpenZeppelin/openzeppelin-contracts/blob/v3.4.2-solc-0.7/contracts/token/ERC20/ERC20.sol\":6429:6441   */\n      tag_384\n        /* \"https://github.com/OpenZeppelin/openzeppelin-contracts/blob/v3.4.2-solc-0.7/contracts/token/ERC20/ERC20.sol\":6429:6439   */\n      tag_250\n        /* \"https://github.com/OpenZeppelin/openzeppelin-contracts/blob/v3.4.2-solc-0.7/contracts/token/ERC20/ERC20.sol\":6429:6441   */\n      jump\t// in\n    tag_384:\n        /* \"https://github.com/OpenZeppelin/openzeppelin-contracts/blob/v3.4.2-solc-0.7/contracts/token/ERC20/ERC20.sol\":6417:6442   */\n      0xffffffffffffffffffffffffffffffffffffffff\n      and\n      0xffffffffffffffffffffffffffffffffffffffff\n      and\n      dup2\n      mstore\n      0x20\n      add\n      swap1\n      dup2\n      mstore\n      0x20\n      add\n      0x00\n      keccak256\n        /* \"https://github.com/OpenZeppelin/openzeppelin-contracts/blob/v3.4.2-solc-0.7/contracts/token/ERC20/ERC20.sol\":6417:6451   */\n      0x00\n        /* \"https://github.com/OpenZeppelin/openzeppelin-contracts/blob/v3.4.2-solc-0.7/contracts/token/ERC20/ERC20.sol\":6443:6450   */\n      dup11\n        /* \"https://github.com/OpenZeppelin/openzeppelin-contracts/blob/v3.4.2-solc-0.7/contracts/token/ERC20/ERC20.sol\":6417:6451   */\n      0xffffffffffffffffffffffffffffffffffffffff\n      and\n      0xffffffffffffffffffffffffffffffffffffffff\n      and\n      dup2\n      mstore\n      0x20\n      add\n      swap1\n      dup2\n      mstore\n      0x20\n      add\n      0x00\n      keccak256\n      sload\n        /* \"https://github.com/OpenZeppelin/openzeppelin-contracts/blob/v3.4.2-solc-0.7/contracts/token/ERC20/ERC20.sol\":6417:6455   */\n      tag_262\n      swap1\n        /* \"https://github.com/OpenZeppelin/openzeppelin-contracts/blob/v3.4.2-solc-0.7/contracts/token/ERC20/ERC20.sol\":6417:6513   */\n      swap3\n      swap2\n      swap1\n      0xffffffff\n      and\n      jump\t// in\n    tag_383:\n        /* \"https://github.com/OpenZeppelin/openzeppelin-contracts/blob/v3.4.2-solc-0.7/contracts/token/ERC20/ERC20.sol\":6385:6393   */\n      tag_251\n        /* \"https://github.com/OpenZeppelin/openzeppelin-contracts/blob/v3.4.2-solc-0.7/contracts/token/ERC20/ERC20.sol\":6385:6514   */\n      jump\t// in\n    tag_381:\n        /* \"https://github.com/OpenZeppelin/openzeppelin-contracts/blob/v3.4.2-solc-0.7/contracts/token/ERC20/ERC20.sol\":6531:6535   */\n      0x01\n        /* \"https://github.com/OpenZeppelin/openzeppelin-contracts/blob/v3.4.2-solc-0.7/contracts/token/ERC20/ERC20.sol\":6524:6535   */\n      swap1\n      pop\n        /* \"https://github.com/OpenZeppelin/openzeppelin-contracts/blob/v3.4.2-solc-0.7/contracts/token/ERC20/ERC20.sol\":6276:6542   */\n      swap3\n      swap2\n      pop\n      pop\n      jump\t// out\n        /* \"LiquidityToken.sol\":4645:4893  function enableOrDisableUserFunctions() public onlyOwner() {... */\n    tag_195:\n        /* \"https://github.com/OpenZeppelin/openzeppelin-contracts/blob/v3.4.2-solc-0.7/contracts/access/Ownable.sol\":1291:1303   */\n      tag_386\n        /* \"https://github.com/OpenZeppelin/openzeppelin-contracts/blob/v3.4.2-solc-0.7/contracts/access/Ownable.sol\":1291:1301   */\n      tag_250\n        /* \"https://github.com/OpenZeppelin/openzeppelin-contracts/blob/v3.4.2-solc-0.7/contracts/access/Ownable.sol\":1291:1303   */\n      jump\t// in\n    tag_386:\n        /* \"https://github.com/OpenZeppelin/openzeppelin-contracts/blob/v3.4.2-solc-0.7/contracts/access/Ownable.sol\":1280:1303   */\n      0xffffffffffffffffffffffffffffffffffffffff\n      and\n        /* \"https://github.com/OpenZeppelin/openzeppelin-contracts/blob/v3.4.2-solc-0.7/contracts/access/Ownable.sol\":1280:1287   */\n      tag_387\n        /* \"https://github.com/OpenZeppelin/openzeppelin-contracts/blob/v3.4.2-solc-0.7/contracts/access/Ownable.sol\":1280:1285   */\n      tag_166\n        /* \"https://github.com/OpenZeppelin/openzeppelin-contracts/blob/v3.4.2-solc-0.7/contracts/access/Ownable.sol\":1280:1287   */\n      jump\t// in\n    tag_387:\n        /* \"https://github.com/OpenZeppelin/openzeppelin-contracts/blob/v3.4.2-solc-0.7/contracts/access/Ownable.sol\":1280:1303   */\n      0xffffffffffffffffffffffffffffffffffffffff\n      and\n      eq\n        /* \"https://github.com/OpenZeppelin/openzeppelin-contracts/blob/v3.4.2-solc-0.7/contracts/access/Ownable.sol\":1272:1340   */\n      tag_388\n      jumpi\n      mload(0x40)\n      0x08c379a000000000000000000000000000000000000000000000000000000000\n      dup2\n      mstore\n      0x04\n      add\n      dup1\n      dup1\n      0x20\n      add\n      dup3\n      dup2\n      sub\n      dup3\n      mstore\n      0x20\n      dup2\n      mstore\n      0x20\n      add\n      dup1\n      0x4f776e61626c653a2063616c6c6572206973206e6f7420746865206f776e6572\n      dup2\n      mstore\n      pop\n      0x20\n      add\n      swap2\n      pop\n      pop\n      mload(0x40)\n      dup1\n      swap2\n      sub\n      swap1\n      revert\n    tag_388:\n        /* \"LiquidityToken.sol\":4710:4740  bool _areUserFunctionsDisabled */\n      0x00\n        /* \"LiquidityToken.sol\":4744:4768  areUserFunctionsDisabled */\n      0x11\n      0x00\n      swap1\n      sload\n      swap1\n      0x0100\n      exp\n      swap1\n      div\n      0xff\n      and\n        /* \"LiquidityToken.sol\":4743:4768  !areUserFunctionsDisabled */\n      iszero\n        /* \"LiquidityToken.sol\":4710:4768  bool _areUserFunctionsDisabled = !areUserFunctionsDisabled */\n      swap1\n      pop\n        /* \"LiquidityToken.sol\":4801:4826  _areUserFunctionsDisabled */\n      dup1\n        /* \"LiquidityToken.sol\":4774:4798  areUserFunctionsDisabled */\n      0x11\n      0x00\n        /* \"LiquidityToken.sol\":4774:4826  areUserFunctionsDisabled = _areUserFunctionsDisabled */\n      0x0100\n      exp\n      dup2\n      sload\n      dup2\n      0xff\n      mul\n      not\n      and\n      swap1\n      dup4\n      iszero\n      iszero\n      mul\n      or\n      swap1\n      sstore\n      pop\n        /* \"LiquidityToken.sol\":4837:4888  UserFunctionsAreDisabled(_areUserFunctionsDisabled) */\n      0x34d5714013380d0dd2de54669941a1e6ffeb94f624def9a559f03abd0e8e4a5c\n        /* \"LiquidityToken.sol\":4862:4887  _areUserFunctionsDisabled */\n      dup2\n        /* \"LiquidityToken.sol\":4837:4888  UserFunctionsAreDisabled(_areUserFunctionsDisabled) */\n      mload(0x40)\n      dup1\n      dup3\n      iszero\n      iszero\n      dup2\n      mstore\n      0x20\n      add\n      swap2\n      pop\n      pop\n      mload(0x40)\n      dup1\n      swap2\n      sub\n      swap1\n      log1\n        /* \"https://github.com/OpenZeppelin/openzeppelin-contracts/blob/v3.4.2-solc-0.7/contracts/access/Ownable.sol\":1350:1351   */\n      pop\n        /* \"LiquidityToken.sol\":4645:4893  function enableOrDisableUserFunctions() public onlyOwner() {... */\n      jump\t// out\n        /* \"https://github.com/OpenZeppelin/openzeppelin-contracts/blob/v3.4.2-solc-0.7/contracts/token/ERC20/ERC20.sol\":3712:3884   */\n    tag_198:\n        /* \"https://github.com/OpenZeppelin/openzeppelin-contracts/blob/v3.4.2-solc-0.7/contracts/token/ERC20/ERC20.sol\":3798:3802   */\n      0x00\n        /* \"https://github.com/OpenZeppelin/openzeppelin-contracts/blob/v3.4.2-solc-0.7/contracts/token/ERC20/ERC20.sol\":3814:3856   */\n      tag_391\n        /* \"https://github.com/OpenZeppelin/openzeppelin-contracts/blob/v3.4.2-solc-0.7/contracts/token/ERC20/ERC20.sol\":3824:3836   */\n      tag_392\n        /* \"https://github.com/OpenZeppelin/openzeppelin-contracts/blob/v3.4.2-solc-0.7/contracts/token/ERC20/ERC20.sol\":3824:3834   */\n      tag_250\n        /* \"https://github.com/OpenZeppelin/openzeppelin-contracts/blob/v3.4.2-solc-0.7/contracts/token/ERC20/ERC20.sol\":3824:3836   */\n      jump\t// in\n    tag_392:\n        /* \"https://github.com/OpenZeppelin/openzeppelin-contracts/blob/v3.4.2-solc-0.7/contracts/token/ERC20/ERC20.sol\":3838:3847   */\n      dup5\n        /* \"https://github.com/OpenZeppelin/openzeppelin-contracts/blob/v3.4.2-solc-0.7/contracts/token/ERC20/ERC20.sol\":3849:3855   */\n      dup5\n        /* \"https://github.com/OpenZeppelin/openzeppelin-contracts/blob/v3.4.2-solc-0.7/contracts/token/ERC20/ERC20.sol\":3814:3823   */\n      tag_257\n        /* \"https://github.com/OpenZeppelin/openzeppelin-contracts/blob/v3.4.2-solc-0.7/contracts/token/ERC20/ERC20.sol\":3814:3856   */\n      jump\t// in\n    tag_391:\n        /* \"https://github.com/OpenZeppelin/openzeppelin-contracts/blob/v3.4.2-solc-0.7/contracts/token/ERC20/ERC20.sol\":3873:3877   */\n      0x01\n        /* \"https://github.com/OpenZeppelin/openzeppelin-contracts/blob/v3.4.2-solc-0.7/contracts/token/ERC20/ERC20.sol\":3866:3877   */\n      swap1\n      pop\n        /* \"https://github.com/OpenZeppelin/openzeppelin-contracts/blob/v3.4.2-solc-0.7/contracts/token/ERC20/ERC20.sol\":3712:3884   */\n      swap3\n      swap2\n      pop\n      pop\n      jump\t// out\n        /* \"LiquidityToken.sol\":957:997  uint public withdrawFeesPerThousandForLT */\n    tag_200:\n      sload(0x10)\n      dup2\n      jump\t// out\n        /* \"LiquidityToken.sol\":14005:14281  function updateWithdrawalFeesForLT(uint _valuePerThousand) public onlyOwner() {... */\n    tag_203:\n        /* \"https://github.com/OpenZeppelin/openzeppelin-contracts/blob/v3.4.2-solc-0.7/contracts/access/Ownable.sol\":1291:1303   */\n      tag_394\n        /* \"https://github.com/OpenZeppelin/openzeppelin-contracts/blob/v3.4.2-solc-0.7/contracts/access/Ownable.sol\":1291:1301   */\n      tag_250\n        /* \"https://github.com/OpenZeppelin/openzeppelin-contracts/blob/v3.4.2-solc-0.7/contracts/access/Ownable.sol\":1291:1303   */\n      jump\t// in\n    tag_394:\n        /* \"https://github.com/OpenZeppelin/openzeppelin-contracts/blob/v3.4.2-solc-0.7/contracts/access/Ownable.sol\":1280:1303   */\n      0xffffffffffffffffffffffffffffffffffffffff\n      and\n        /* \"https://github.com/OpenZeppelin/openzeppelin-contracts/blob/v3.4.2-solc-0.7/contracts/access/Ownable.sol\":1280:1287   */\n      tag_395\n        /* \"https://github.com/OpenZeppelin/openzeppelin-contracts/blob/v3.4.2-solc-0.7/contracts/access/Ownable.sol\":1280:1285   */\n      tag_166\n        /* \"https://github.com/OpenZeppelin/openzeppelin-contracts/blob/v3.4.2-solc-0.7/contracts/access/Ownable.sol\":1280:1287   */\n      jump\t// in\n    tag_395:\n        /* \"https://github.com/OpenZeppelin/openzeppelin-contracts/blob/v3.4.2-solc-0.7/contracts/access/Ownable.sol\":1280:1303   */\n      0xffffffffffffffffffffffffffffffffffffffff\n      and\n      eq\n        /* \"https://github.com/OpenZeppelin/openzeppelin-contracts/blob/v3.4.2-solc-0.7/contracts/access/Ownable.sol\":1272:1340   */\n      tag_396\n      jumpi\n      mload(0x40)\n      0x08c379a000000000000000000000000000000000000000000000000000000000\n      dup2\n      mstore\n      0x04\n      add\n      dup1\n      dup1\n      0x20\n      add\n      dup3\n      dup2\n      sub\n      dup3\n      mstore\n      0x20\n      dup2\n      mstore\n      0x20\n      add\n      dup1\n      0x4f776e61626c653a2063616c6c6572206973206e6f7420746865206f776e6572\n      dup2\n      mstore\n      pop\n      0x20\n      add\n      swap2\n      pop\n      pop\n      mload(0x40)\n      dup1\n      swap2\n      sub\n      swap1\n      revert\n    tag_396:\n        /* \"LiquidityToken.sol\":14118:14149  maxWithdrawFeesPerThousandForLT */\n      immutable(\"0xcd3b8a75131b09c18fac61f93bac9440f7b768b1c243a93eca5a67eb03b07828\")\n        /* \"LiquidityToken.sol\":14097:14114  _valuePerThousand */\n      dup2\n        /* \"LiquidityToken.sol\":14097:14149  _valuePerThousand <= maxWithdrawFeesPerThousandForLT */\n      gt\n      iszero\n        /* \"LiquidityToken.sol\":14089:14167  require(_valuePerThousand <= maxWithdrawFeesPerThousandForLT, \"Invalid value\") */\n      tag_398\n      jumpi\n      mload(0x40)\n      0x08c379a000000000000000000000000000000000000000000000000000000000\n      dup2\n      mstore\n      0x04\n      add\n      dup1\n      dup1\n      0x20\n      add\n      dup3\n      dup2\n      sub\n      dup3\n      mstore\n      0x0d\n      dup2\n      mstore\n      0x20\n      add\n      dup1\n      0x496e76616c69642076616c756500000000000000000000000000000000000000\n      dup2\n      mstore\n      pop\n      0x20\n      add\n      swap2\n      pop\n      pop\n      mload(0x40)\n      dup1\n      swap2\n      sub\n      swap1\n      revert\n    tag_398:\n        /* \"LiquidityToken.sol\":14204:14221  _valuePerThousand */\n      dup1\n        /* \"LiquidityToken.sol\":14173:14201  withdrawFeesPerThousandForLT */\n      0x10\n        /* \"LiquidityToken.sol\":14173:14221  withdrawFeesPerThousandForLT = _valuePerThousand */\n      dup2\n      swap1\n      sstore\n      pop\n        /* \"LiquidityToken.sol\":14232:14272  WithdrawalFeesUpdated(_valuePerThousand) */\n      0x74cd83192c2667eba495e3b4578522f84af3168fbb19d3bed7729a03bd5e2a41\n        /* \"LiquidityToken.sol\":14254:14271  _valuePerThousand */\n      dup2\n        /* \"LiquidityToken.sol\":14232:14272  WithdrawalFeesUpdated(_valuePerThousand) */\n      mload(0x40)\n      dup1\n      dup3\n      dup2\n      mstore\n      0x20\n      add\n      swap2\n      pop\n      pop\n      mload(0x40)\n      dup1\n      swap2\n      sub\n      swap1\n      log1\n        /* \"LiquidityToken.sol\":14005:14281  function updateWithdrawalFeesForLT(uint _valuePerThousand) public onlyOwner() {... */\n      pop\n      jump\t// out\n        /* \"LiquidityToken.sol\":898:918  uint public stakedLT */\n    tag_205:\n      sload(0x0e)\n      dup2\n      jump\t// out\n        /* \"LiquidityToken.sol\":11827:12552  function depositLT(uint _value) public {... */\n    tag_208:\n        /* \"LiquidityToken.sol\":11876:11911  ensureUserFunctionsAreNotDisabled() */\n      tag_400\n        /* \"LiquidityToken.sol\":11876:11909  ensureUserFunctionsAreNotDisabled */\n      tag_95\n        /* \"LiquidityToken.sol\":11876:11911  ensureUserFunctionsAreNotDisabled() */\n      jump\t// in\n    tag_400:\n        /* \"LiquidityToken.sol\":11943:11964  balanceOf(msg.sender) */\n      tag_401\n        /* \"LiquidityToken.sol\":11953:11963  msg.sender */\n      caller\n        /* \"LiquidityToken.sol\":11943:11952  balanceOf */\n      tag_132\n        /* \"LiquidityToken.sol\":11943:11964  balanceOf(msg.sender) */\n      jump\t// in\n    tag_401:\n        /* \"LiquidityToken.sol\":11933:11939  _value */\n      dup2\n        /* \"LiquidityToken.sol\":11933:11964  _value <= balanceOf(msg.sender) */\n      gt\n      iszero\n        /* \"LiquidityToken.sol\":11918:12013  require(... */\n      tag_402\n      jumpi\n      mload(0x40)\n      0x08c379a000000000000000000000000000000000000000000000000000000000\n      dup2\n      mstore\n      0x04\n      add\n      dup1\n      dup1\n      0x20\n      add\n      dup3\n      dup2\n      sub\n      dup3\n      mstore\n      0x1f\n      dup2\n      mstore\n      0x20\n      add\n      dup1\n      0x56616c7565206578636565647320617661696c61626c652062616c616e636500\n      dup2\n      mstore\n      pop\n      0x20\n      add\n      swap2\n      pop\n      pop\n      mload(0x40)\n      dup1\n      swap2\n      sub\n      swap1\n      revert\n    tag_402:\n        /* \"LiquidityToken.sol\":12024:12041  uint _hodlRewards */\n      0x00\n        /* \"LiquidityToken.sol\":12044:12086  updateStakingAndGetHodlRewards(msg.sender) */\n      tag_403\n        /* \"LiquidityToken.sol\":12075:12085  msg.sender */\n      caller\n        /* \"LiquidityToken.sol\":12044:12074  updateStakingAndGetHodlRewards */\n      tag_275\n        /* \"LiquidityToken.sol\":12044:12086  updateStakingAndGetHodlRewards(msg.sender) */\n      jump\t// in\n    tag_403:\n        /* \"LiquidityToken.sol\":12024:12086  uint _hodlRewards = updateStakingAndGetHodlRewards(msg.sender) */\n      swap1\n      pop\n        /* \"LiquidityToken.sol\":12092:12114  uint _valueWithRewards */\n      0x00\n        /* \"LiquidityToken.sol\":12117:12141  _value.add(_hodlRewards) */\n      tag_404\n        /* \"LiquidityToken.sol\":12128:12140  _hodlRewards */\n      dup3\n        /* \"LiquidityToken.sol\":12117:12123  _value */\n      dup5\n        /* \"LiquidityToken.sol\":12117:12127  _value.add */\n      tag_270\n      swap1\n        /* \"LiquidityToken.sol\":12117:12141  _value.add(_hodlRewards) */\n      swap2\n      swap1\n      0xffffffff\n      and\n      jump\t// in\n    tag_404:\n        /* \"LiquidityToken.sol\":12092:12141  uint _valueWithRewards = _value.add(_hodlRewards) */\n      swap1\n      pop\n        /* \"LiquidityToken.sol\":12197:12266  userLiquiToken[msg.sender].fullyChargedBalance.add(_valueWithRewards) */\n      tag_405\n        /* \"LiquidityToken.sol\":12248:12265  _valueWithRewards */\n      dup2\n        /* \"LiquidityToken.sol\":12197:12211  userLiquiToken */\n      0x13\n        /* \"LiquidityToken.sol\":12197:12223  userLiquiToken[msg.sender] */\n      0x00\n        /* \"LiquidityToken.sol\":12212:12222  msg.sender */\n      caller\n        /* \"LiquidityToken.sol\":12197:12223  userLiquiToken[msg.sender] */\n      0xffffffffffffffffffffffffffffffffffffffff\n      and\n      0xffffffffffffffffffffffffffffffffffffffff\n      and\n      dup2\n      mstore\n      0x20\n      add\n      swap1\n      dup2\n      mstore\n      0x20\n      add\n      0x00\n      keccak256\n        /* \"LiquidityToken.sol\":12197:12243  userLiquiToken[msg.sender].fullyChargedBalance */\n      0x00\n      add\n      sload\n        /* \"LiquidityToken.sol\":12197:12247  userLiquiToken[msg.sender].fullyChargedBalance.add */\n      tag_270\n      swap1\n        /* \"LiquidityToken.sol\":12197:12266  userLiquiToken[msg.sender].fullyChargedBalance.add(_valueWithRewards) */\n      swap2\n      swap1\n      0xffffffff\n      and\n      jump\t// in\n    tag_405:\n        /* \"LiquidityToken.sol\":12148:12162  userLiquiToken */\n      0x13\n        /* \"LiquidityToken.sol\":12148:12174  userLiquiToken[msg.sender] */\n      0x00\n        /* \"LiquidityToken.sol\":12163:12173  msg.sender */\n      caller\n        /* \"LiquidityToken.sol\":12148:12174  userLiquiToken[msg.sender] */\n      0xffffffffffffffffffffffffffffffffffffffff\n      and\n      0xffffffffffffffffffffffffffffffffffffffff\n      and\n      dup2\n      mstore\n      0x20\n      add\n      swap1\n      dup2\n      mstore\n      0x20\n      add\n      0x00\n      keccak256\n        /* \"LiquidityToken.sol\":12148:12194  userLiquiToken[msg.sender].fullyChargedBalance */\n      0x00\n      add\n        /* \"LiquidityToken.sol\":12148:12266  userLiquiToken[msg.sender].fullyChargedBalance = userLiquiToken[msg.sender].fullyChargedBalance.add(_valueWithRewards) */\n      dup2\n      swap1\n      sstore\n      pop\n        /* \"LiquidityToken.sol\":12277:12336  IncreasedFullyChargedBalance(msg.sender, _valueWithRewards) */\n      0xae2006c94e89f8083efda0c0a1d0c7d6fef3ec90d68506aa822854f3ba31f9cf\n        /* \"LiquidityToken.sol\":12306:12316  msg.sender */\n      caller\n        /* \"LiquidityToken.sol\":12318:12335  _valueWithRewards */\n      dup3\n        /* \"LiquidityToken.sol\":12277:12336  IncreasedFullyChargedBalance(msg.sender, _valueWithRewards) */\n      mload(0x40)\n      dup1\n      dup4\n      0xffffffffffffffffffffffffffffffffffffffff\n      and\n      dup2\n      mstore\n      0x20\n      add\n      dup3\n      dup2\n      mstore\n      0x20\n      add\n      swap3\n      pop\n      pop\n      pop\n      mload(0x40)\n      dup1\n      swap2\n      sub\n      swap1\n      log1\n        /* \"LiquidityToken.sol\":12353:12384  stakedLT.add(_valueWithRewards) */\n      tag_406\n        /* \"LiquidityToken.sol\":12366:12383  _valueWithRewards */\n      dup2\n        /* \"LiquidityToken.sol\":12353:12361  stakedLT */\n      sload(0x0e)\n        /* \"LiquidityToken.sol\":12353:12365  stakedLT.add */\n      tag_270\n      swap1\n        /* \"LiquidityToken.sol\":12353:12384  stakedLT.add(_valueWithRewards) */\n      swap2\n      swap1\n      0xffffffff\n      and\n      jump\t// in\n    tag_406:\n        /* \"LiquidityToken.sol\":12342:12350  stakedLT */\n      0x0e\n        /* \"LiquidityToken.sol\":12342:12384  stakedLT = stakedLT.add(_valueWithRewards) */\n      dup2\n      swap1\n      sstore\n      pop\n        /* \"LiquidityToken.sol\":12395:12431  IncreasedStakedLT(_valueWithRewards) */\n      0x12129930c15dad4632242378dc39162db4c36a82482777c2e8f791d3752bb70f\n        /* \"LiquidityToken.sol\":12413:12430  _valueWithRewards */\n      dup2\n        /* \"LiquidityToken.sol\":12395:12431  IncreasedStakedLT(_valueWithRewards) */\n      mload(0x40)\n      dup1\n      dup3\n      dup2\n      mstore\n      0x20\n      add\n      swap2\n      pop\n      pop\n      mload(0x40)\n      dup1\n      swap2\n      sub\n      swap1\n      log1\n        /* \"LiquidityToken.sol\":12442:12486  _transfer(msg.sender, address(this), _value) */\n      tag_407\n        /* \"LiquidityToken.sol\":12452:12462  msg.sender */\n      caller\n        /* \"LiquidityToken.sol\":12472:12476  this */\n      address\n        /* \"LiquidityToken.sol\":12479:12485  _value */\n      dup6\n        /* \"LiquidityToken.sol\":12442:12451  _transfer */\n      tag_257\n        /* \"LiquidityToken.sol\":12442:12486  _transfer(msg.sender, address(this), _value) */\n      jump\t// in\n    tag_407:\n        /* \"LiquidityToken.sol\":12502:12547  LTDeposited(msg.sender, _value, _hodlRewards) */\n      0x6f5036100ec84840f4ca7c243e6ca7c042949756211bdfb358406a77dc41a42e\n        /* \"LiquidityToken.sol\":12514:12524  msg.sender */\n      caller\n        /* \"LiquidityToken.sol\":12526:12532  _value */\n      dup5\n        /* \"LiquidityToken.sol\":12534:12546  _hodlRewards */\n      dup5\n        /* \"LiquidityToken.sol\":12502:12547  LTDeposited(msg.sender, _value, _hodlRewards) */\n      mload(0x40)\n      dup1\n      dup5\n      0xffffffffffffffffffffffffffffffffffffffff\n      and\n      dup2\n      mstore\n      0x20\n      add\n      dup4\n      dup2\n      mstore\n      0x20\n      add\n      dup3\n      dup2\n      mstore\n      0x20\n      add\n      swap4\n      pop\n      pop\n      pop\n      pop\n      mload(0x40)\n      dup1\n      swap2\n      sub\n      swap1\n      log1\n        /* \"LiquidityToken.sol\":11827:12552  function depositLT(uint _value) public {... */\n      pop\n      pop\n      pop\n      jump\t// out\n        /* \"LiquidityToken.sol\":16629:16753  function mintByInterfaceProjectToken(uint _value) public onlyInterfaceProjectToken() {... */\n    tag_211:\n        /* \"LiquidityToken.sol\":14688:14721  ensureOnlyInterfaceProjectToken() */\n      tag_409\n        /* \"LiquidityToken.sol\":14688:14719  ensureOnlyInterfaceProjectToken */\n      tag_305\n        /* \"LiquidityToken.sol\":14688:14721  ensureOnlyInterfaceProjectToken() */\n      jump\t// in\n    tag_409:\n        /* \"LiquidityToken.sol\":16720:16748  _mint(address(this), _value) */\n      tag_411\n        /* \"LiquidityToken.sol\":16734:16738  this */\n      address\n        /* \"LiquidityToken.sol\":16741:16747  _value */\n      dup3\n        /* \"LiquidityToken.sol\":16720:16725  _mint */\n      tag_379\n        /* \"LiquidityToken.sol\":16720:16748  _mint(address(this), _value) */\n      jump\t// in\n    tag_411:\n        /* \"LiquidityToken.sol\":16629:16753  function mintByInterfaceProjectToken(uint _value) public onlyInterfaceProjectToken() {... */\n      pop\n      jump\t// out\n        /* \"LiquidityToken.sol\":5070:5494  function setInterfaceProjectToken(InterfaceProjectToken _interfaceProjectToken)... */\n    tag_214:\n        /* \"https://github.com/OpenZeppelin/openzeppelin-contracts/blob/v3.4.2-solc-0.7/contracts/access/Ownable.sol\":1291:1303   */\n      tag_413\n        /* \"https://github.com/OpenZeppelin/openzeppelin-contracts/blob/v3.4.2-solc-0.7/contracts/access/Ownable.sol\":1291:1301   */\n      tag_250\n        /* \"https://github.com/OpenZeppelin/openzeppelin-contracts/blob/v3.4.2-solc-0.7/contracts/access/Ownable.sol\":1291:1303   */\n      jump\t// in\n    tag_413:\n        /* \"https://github.com/OpenZeppelin/openzeppelin-contracts/blob/v3.4.2-solc-0.7/contracts/access/Ownable.sol\":1280:1303   */\n      0xffffffffffffffffffffffffffffffffffffffff\n      and\n        /* \"https://github.com/OpenZeppelin/openzeppelin-contracts/blob/v3.4.2-solc-0.7/contracts/access/Ownable.sol\":1280:1287   */\n      tag_414\n        /* \"https://github.com/OpenZeppelin/openzeppelin-contracts/blob/v3.4.2-solc-0.7/contracts/access/Ownable.sol\":1280:1285   */\n      tag_166\n        /* \"https://github.com/OpenZeppelin/openzeppelin-contracts/blob/v3.4.2-solc-0.7/contracts/access/Ownable.sol\":1280:1287   */\n      jump\t// in\n    tag_414:\n        /* \"https://github.com/OpenZeppelin/openzeppelin-contracts/blob/v3.4.2-solc-0.7/contracts/access/Ownable.sol\":1280:1303   */\n      0xffffffffffffffffffffffffffffffffffffffff\n      and\n      eq\n        /* \"https://github.com/OpenZeppelin/openzeppelin-contracts/blob/v3.4.2-solc-0.7/contracts/access/Ownable.sol\":1272:1340   */\n      tag_415\n      jumpi\n      mload(0x40)\n      0x08c379a000000000000000000000000000000000000000000000000000000000\n      dup2\n      mstore\n      0x04\n      add\n      dup1\n      dup1\n      0x20\n      add\n      dup3\n      dup2\n      sub\n      dup3\n      mstore\n      0x20\n      dup2\n      mstore\n      0x20\n      add\n      dup1\n      0x4f776e61626c653a2063616c6c6572206973206e6f7420746865206f776e6572\n      dup2\n      mstore\n      pop\n      0x20\n      add\n      swap2\n      pop\n      pop\n      mload(0x40)\n      dup1\n      swap2\n      sub\n      swap1\n      revert\n    tag_415:\n        /* \"LiquidityToken.sol\":5238:5241  0x0 */\n      0x00\n        /* \"LiquidityToken.sol\":5195:5242  address(_interfaceProjectToken) != address(0x0) */\n      0xffffffffffffffffffffffffffffffffffffffff\n      and\n        /* \"LiquidityToken.sol\":5203:5225  _interfaceProjectToken */\n      dup2\n        /* \"LiquidityToken.sol\":5195:5242  address(_interfaceProjectToken) != address(0x0) */\n      0xffffffffffffffffffffffffffffffffffffffff\n      and\n      eq\n      iszero\n        /* \"LiquidityToken.sol\":5180:5272  require(... */\n      tag_417\n      jumpi\n      mload(0x40)\n      0x08c379a000000000000000000000000000000000000000000000000000000000\n      dup2\n      mstore\n      0x04\n      add\n      dup1\n      dup1\n      0x20\n      add\n      dup3\n      dup2\n      sub\n      dup3\n      mstore\n      0x13\n      dup2\n      mstore\n      0x20\n      add\n      dup1\n      0x53657420612076616c6964206164647265737300000000000000000000000000\n      dup2\n      mstore\n      pop\n      0x20\n      add\n      swap2\n      pop\n      pop\n      mload(0x40)\n      dup1\n      swap2\n      sub\n      swap1\n      revert\n    tag_417:\n        /* \"LiquidityToken.sol\":5330:5335  false */\n      0x00\n        /* \"LiquidityToken.sol\":5297:5335  isInterfaceProjectTokenLocked == false */\n      iszero\n      iszero\n        /* \"LiquidityToken.sol\":5297:5326  isInterfaceProjectTokenLocked */\n      0x11\n      0x01\n      swap1\n      sload\n      swap1\n      0x0100\n      exp\n      swap1\n      div\n      0xff\n      and\n        /* \"LiquidityToken.sol\":5297:5335  isInterfaceProjectTokenLocked == false */\n      iszero\n      iszero\n      eq\n        /* \"LiquidityToken.sol\":5282:5377  require(... */\n      tag_418\n      jumpi\n      mload(0x40)\n      0x08c379a000000000000000000000000000000000000000000000000000000000\n      dup2\n      mstore\n      0x04\n      add\n      dup1\n      dup1\n      0x20\n      add\n      dup3\n      dup2\n      sub\n      dup3\n      mstore\n      0x1f\n      dup2\n      mstore\n      0x20\n      add\n      dup1\n      0x696e7465726661636550726f6a656374546f6b656e206973206c6f636b656400\n      dup2\n      mstore\n      pop\n      0x20\n      add\n      swap2\n      pop\n      pop\n      mload(0x40)\n      dup1\n      swap2\n      sub\n      swap1\n      revert\n    tag_418:\n        /* \"LiquidityToken.sol\":5408:5430  _interfaceProjectToken */\n      dup1\n        /* \"LiquidityToken.sol\":5384:5405  interfaceProjectToken */\n      0x06\n      0x00\n        /* \"LiquidityToken.sol\":5384:5430  interfaceProjectToken = _interfaceProjectToken */\n      0x0100\n      exp\n      dup2\n      sload\n      dup2\n      0xffffffffffffffffffffffffffffffffffffffff\n      mul\n      not\n      and\n      swap1\n      dup4\n      0xffffffffffffffffffffffffffffffffffffffff\n      and\n      mul\n      or\n      swap1\n      sstore\n      pop\n        /* \"LiquidityToken.sol\":5441:5489  InterfaceProjectTokenSet(_interfaceProjectToken) */\n      0xdbfb95fe8e19209e063b2852c867a8aa47acd7eb4ab8cf1e3ba86e046c196ad1\n        /* \"LiquidityToken.sol\":5466:5488  _interfaceProjectToken */\n      dup2\n        /* \"LiquidityToken.sol\":5441:5489  InterfaceProjectTokenSet(_interfaceProjectToken) */\n      mload(0x40)\n      dup1\n      dup3\n      0xffffffffffffffffffffffffffffffffffffffff\n      and\n      dup2\n      mstore\n      0x20\n      add\n      swap2\n      pop\n      pop\n      mload(0x40)\n      dup1\n      swap2\n      sub\n      swap1\n      log1\n        /* \"LiquidityToken.sol\":5070:5494  function setInterfaceProjectToken(InterfaceProjectToken _interfaceProjectToken)... */\n      pop\n      jump\t// out\n        /* \"https://github.com/OpenZeppelin/openzeppelin-contracts/blob/v3.4.2-solc-0.7/contracts/token/ERC20/ERC20.sol\":3942:4091   */\n    tag_217:\n        /* \"https://github.com/OpenZeppelin/openzeppelin-contracts/blob/v3.4.2-solc-0.7/contracts/token/ERC20/ERC20.sol\":4031:4038   */\n      0x00\n        /* \"https://github.com/OpenZeppelin/openzeppelin-contracts/blob/v3.4.2-solc-0.7/contracts/token/ERC20/ERC20.sol\":4057:4068   */\n      0x01\n        /* \"https://github.com/OpenZeppelin/openzeppelin-contracts/blob/v3.4.2-solc-0.7/contracts/token/ERC20/ERC20.sol\":4057:4075   */\n      0x00\n        /* \"https://github.com/OpenZeppelin/openzeppelin-contracts/blob/v3.4.2-solc-0.7/contracts/token/ERC20/ERC20.sol\":4069:4074   */\n      dup5\n        /* \"https://github.com/OpenZeppelin/openzeppelin-contracts/blob/v3.4.2-solc-0.7/contracts/token/ERC20/ERC20.sol\":4057:4075   */\n      0xffffffffffffffffffffffffffffffffffffffff\n      and\n      0xffffffffffffffffffffffffffffffffffffffff\n      and\n      dup2\n      mstore\n      0x20\n      add\n      swap1\n      dup2\n      mstore\n      0x20\n      add\n      0x00\n      keccak256\n        /* \"https://github.com/OpenZeppelin/openzeppelin-contracts/blob/v3.4.2-solc-0.7/contracts/token/ERC20/ERC20.sol\":4057:4084   */\n      0x00\n        /* \"https://github.com/OpenZeppelin/openzeppelin-contracts/blob/v3.4.2-solc-0.7/contracts/token/ERC20/ERC20.sol\":4076:4083   */\n      dup4\n        /* \"https://github.com/OpenZeppelin/openzeppelin-contracts/blob/v3.4.2-solc-0.7/contracts/token/ERC20/ERC20.sol\":4057:4084   */\n      0xffffffffffffffffffffffffffffffffffffffff\n      and\n      0xffffffffffffffffffffffffffffffffffffffff\n      and\n      dup2\n      mstore\n      0x20\n      add\n      swap1\n      dup2\n      mstore\n      0x20\n      add\n      0x00\n      keccak256\n      sload\n        /* \"https://github.com/OpenZeppelin/openzeppelin-contracts/blob/v3.4.2-solc-0.7/contracts/token/ERC20/ERC20.sol\":4050:4084   */\n      swap1\n      pop\n        /* \"https://github.com/OpenZeppelin/openzeppelin-contracts/blob/v3.4.2-solc-0.7/contracts/token/ERC20/ERC20.sol\":3942:4091   */\n      swap3\n      swap2\n      pop\n      pop\n      jump\t// out\n        /* \"LiquidityToken.sol\":5735:7603  function allocateLTByOwner(address[] memory _users, uint[] memory _values, bool _areAllocationsToBeStaked)... */\n    tag_226:\n        /* \"https://github.com/OpenZeppelin/openzeppelin-contracts/blob/v3.4.2-solc-0.7/contracts/access/Ownable.sol\":1291:1303   */\n      tag_421\n        /* \"https://github.com/OpenZeppelin/openzeppelin-contracts/blob/v3.4.2-solc-0.7/contracts/access/Ownable.sol\":1291:1301   */\n      tag_250\n        /* \"https://github.com/OpenZeppelin/openzeppelin-contracts/blob/v3.4.2-solc-0.7/contracts/access/Ownable.sol\":1291:1303   */\n      jump\t// in\n    tag_421:\n        /* \"https://github.com/OpenZeppelin/openzeppelin-contracts/blob/v3.4.2-solc-0.7/contracts/access/Ownable.sol\":1280:1303   */\n      0xffffffffffffffffffffffffffffffffffffffff\n      and\n        /* \"https://github.com/OpenZeppelin/openzeppelin-contracts/blob/v3.4.2-solc-0.7/contracts/access/Ownable.sol\":1280:1287   */\n      tag_422\n        /* \"https://github.com/OpenZeppelin/openzeppelin-contracts/blob/v3.4.2-solc-0.7/contracts/access/Ownable.sol\":1280:1285   */\n      tag_166\n        /* \"https://github.com/OpenZeppelin/openzeppelin-contracts/blob/v3.4.2-solc-0.7/contracts/access/Ownable.sol\":1280:1287   */\n      jump\t// in\n    tag_422:\n        /* \"https://github.com/OpenZeppelin/openzeppelin-contracts/blob/v3.4.2-solc-0.7/contracts/access/Ownable.sol\":1280:1303   */\n      0xffffffffffffffffffffffffffffffffffffffff\n      and\n      eq\n        /* \"https://github.com/OpenZeppelin/openzeppelin-contracts/blob/v3.4.2-solc-0.7/contracts/access/Ownable.sol\":1272:1340   */\n      tag_423\n      jumpi\n      mload(0x40)\n      0x08c379a000000000000000000000000000000000000000000000000000000000\n      dup2\n      mstore\n      0x04\n      add\n      dup1\n      dup1\n      0x20\n      add\n      dup3\n      dup2\n      sub\n      dup3\n      mstore\n      0x20\n      dup2\n      mstore\n      0x20\n      add\n      dup1\n      0x4f776e61626c653a2063616c6c6572206973206e6f7420746865206f776e6572\n      dup2\n      mstore\n      pop\n      0x20\n      add\n      swap2\n      pop\n      pop\n      mload(0x40)\n      dup1\n      swap2\n      sub\n      swap1\n      revert\n    tag_423:\n        /* \"LiquidityToken.sol\":5919:5924  false */\n      0x00\n        /* \"LiquidityToken.sol\":5891:5924  areAllocationsTerminated == false */\n      iszero\n      iszero\n        /* \"LiquidityToken.sol\":5891:5915  areAllocationsTerminated */\n      0x11\n      0x02\n      swap1\n      sload\n      swap1\n      0x0100\n      exp\n      swap1\n      div\n      0xff\n      and\n        /* \"LiquidityToken.sol\":5891:5924  areAllocationsTerminated == false */\n      iszero\n      iszero\n      eq\n        /* \"LiquidityToken.sol\":5876:5961  require(... */\n      tag_425\n      jumpi\n      mload(0x40)\n      0x08c379a000000000000000000000000000000000000000000000000000000000\n      dup2\n      mstore\n      0x04\n      add\n      dup1\n      dup1\n      0x20\n      add\n      dup3\n      dup2\n      sub\n      dup3\n      mstore\n      0x1a\n      dup2\n      mstore\n      0x20\n      add\n      dup1\n      0x616c6c6f636174696f6e7320617265207465726d696e61746564000000000000\n      dup2\n      mstore\n      pop\n      0x20\n      add\n      swap2\n      pop\n      pop\n      mload(0x40)\n      dup1\n      swap2\n      sub\n      swap1\n      revert\n    tag_425:\n        /* \"LiquidityToken.sol\":5968:5996  checkProjectNotYetLaunched() */\n      tag_426\n        /* \"LiquidityToken.sol\":5968:5994  checkProjectNotYetLaunched */\n      tag_427\n        /* \"LiquidityToken.sol\":5968:5996  checkProjectNotYetLaunched() */\n      jump\t// in\n    tag_426:\n        /* \"LiquidityToken.sol\":6003:6029  uint _allocatedTokenSupply */\n      0x00\n        /* \"LiquidityToken.sol\":6035:6056  uint _usersListLength */\n      dup1\n        /* \"LiquidityToken.sol\":6059:6065  _users */\n      dup5\n        /* \"LiquidityToken.sol\":6059:6072  _users.length */\n      mload\n        /* \"LiquidityToken.sol\":6035:6072  uint _usersListLength = _users.length */\n      swap1\n      pop\n        /* \"LiquidityToken.sol\":6078:6091  address _user */\n      0x00\n        /* \"LiquidityToken.sol\":6097:6108  uint _value */\n      dup1\n        /* \"LiquidityToken.sol\":6114:6131  uint _hodlRewards */\n      0x00\n        /* \"LiquidityToken.sol\":6137:6155  uint _totalRewards */\n      dup1\n        /* \"LiquidityToken.sol\":6199:6206  _values */\n      dup8\n        /* \"LiquidityToken.sol\":6199:6213  _values.length */\n      mload\n        /* \"LiquidityToken.sol\":6179:6195  _usersListLength */\n      dup6\n        /* \"LiquidityToken.sol\":6179:6213  _usersListLength == _values.length */\n      eq\n        /* \"LiquidityToken.sol\":6164:6262  require(... */\n      tag_428\n      jumpi\n      mload(0x40)\n      0x08c379a000000000000000000000000000000000000000000000000000000000\n      dup2\n      mstore\n      0x04\n      add\n      dup1\n      dup1\n      0x20\n      add\n      dup3\n      dup2\n      sub\n      dup3\n      mstore\n      0x26\n      dup2\n      mstore\n      0x20\n      add\n      dup1\n      data_f2240f5a918e8df78ef0222ad9355ea418dab0d59997deefa8646c9cb441c6d5\n      0x26\n      swap2\n      codecopy\n      0x40\n      add\n      swap2\n      pop\n      pop\n      mload(0x40)\n      dup1\n      swap2\n      sub\n      swap1\n      revert\n    tag_428:\n        /* \"LiquidityToken.sol\":6274:6282  uint _id */\n      0x00\n        /* \"LiquidityToken.sol\":6269:7045  for (uint _id = 0 ; _id < _usersListLength ; _id++) {... */\n    tag_429:\n        /* \"LiquidityToken.sol\":6295:6311  _usersListLength */\n      dup6\n        /* \"LiquidityToken.sol\":6289:6292  _id */\n      dup2\n        /* \"LiquidityToken.sol\":6289:6311  _id < _usersListLength */\n      lt\n        /* \"LiquidityToken.sol\":6269:7045  for (uint _id = 0 ; _id < _usersListLength ; _id++) {... */\n      iszero\n      tag_430\n      jumpi\n        /* \"LiquidityToken.sol\":6337:6343  _users */\n      dup10\n        /* \"LiquidityToken.sol\":6344:6347  _id */\n      dup2\n        /* \"LiquidityToken.sol\":6337:6348  _users[_id] */\n      dup2\n      mload\n      dup2\n      lt\n      tag_432\n      jumpi\n      invalid\n    tag_432:\n      0x20\n      mul\n      0x20\n      add\n      add\n      mload\n        /* \"LiquidityToken.sol\":6329:6348  _user = _users[_id] */\n      swap5\n      pop\n        /* \"LiquidityToken.sol\":6365:6372  _values */\n      dup9\n        /* \"LiquidityToken.sol\":6373:6376  _id */\n      dup2\n        /* \"LiquidityToken.sol\":6365:6377  _values[_id] */\n      dup2\n      mload\n      dup2\n      lt\n      tag_433\n      jumpi\n      invalid\n    tag_433:\n      0x20\n      mul\n      0x20\n      add\n      add\n      mload\n        /* \"LiquidityToken.sol\":6356:6377  _value = _values[_id] */\n      swap4\n      pop\n        /* \"LiquidityToken.sol\":6390:6415  _areAllocationsToBeStaked */\n      dup8\n        /* \"LiquidityToken.sol\":6386:6879  if (_areAllocationsToBeStaked) {... */\n      iszero\n      tag_434\n      jumpi\n        /* \"LiquidityToken.sol\":6442:6479  updateStakingAndGetHodlRewards(_user) */\n      tag_435\n        /* \"LiquidityToken.sol\":6473:6478  _user */\n      dup6\n        /* \"LiquidityToken.sol\":6442:6472  updateStakingAndGetHodlRewards */\n      tag_275\n        /* \"LiquidityToken.sol\":6442:6479  updateStakingAndGetHodlRewards(_user) */\n      jump\t// in\n    tag_435:\n        /* \"LiquidityToken.sol\":6427:6479  _hodlRewards = updateStakingAndGetHodlRewards(_user) */\n      swap3\n      pop\n        /* \"LiquidityToken.sol\":6489:6523  uint _fullyChargedBalanceIncreased */\n      0x00\n        /* \"LiquidityToken.sol\":6526:6550  _value.add(_hodlRewards) */\n      tag_436\n        /* \"LiquidityToken.sol\":6537:6549  _hodlRewards */\n      dup5\n        /* \"LiquidityToken.sol\":6526:6532  _value */\n      dup7\n        /* \"LiquidityToken.sol\":6526:6536  _value.add */\n      tag_270\n      swap1\n        /* \"LiquidityToken.sol\":6526:6550  _value.add(_hodlRewards) */\n      swap2\n      swap1\n      0xffffffff\n      and\n      jump\t// in\n    tag_436:\n        /* \"LiquidityToken.sol\":6489:6550  uint _fullyChargedBalanceIncreased = _value.add(_hodlRewards) */\n      swap1\n      pop\n        /* \"LiquidityToken.sol\":6615:6691  userLiquiToken[_user].fullyChargedBalance.add(_fullyChargedBalanceIncreased) */\n      tag_437\n        /* \"LiquidityToken.sol\":6661:6690  _fullyChargedBalanceIncreased */\n      dup2\n        /* \"LiquidityToken.sol\":6615:6629  userLiquiToken */\n      0x13\n        /* \"LiquidityToken.sol\":6615:6636  userLiquiToken[_user] */\n      0x00\n        /* \"LiquidityToken.sol\":6630:6635  _user */\n      dup10\n        /* \"LiquidityToken.sol\":6615:6636  userLiquiToken[_user] */\n      0xffffffffffffffffffffffffffffffffffffffff\n      and\n      0xffffffffffffffffffffffffffffffffffffffff\n      and\n      dup2\n      mstore\n      0x20\n      add\n      swap1\n      dup2\n      mstore\n      0x20\n      add\n      0x00\n      keccak256\n        /* \"LiquidityToken.sol\":6615:6656  userLiquiToken[_user].fullyChargedBalance */\n      0x00\n      add\n      sload\n        /* \"LiquidityToken.sol\":6615:6660  userLiquiToken[_user].fullyChargedBalance.add */\n      tag_270\n      swap1\n        /* \"LiquidityToken.sol\":6615:6691  userLiquiToken[_user].fullyChargedBalance.add(_fullyChargedBalanceIncreased) */\n      swap2\n      swap1\n      0xffffffff\n      and\n      jump\t// in\n    tag_437:\n        /* \"LiquidityToken.sol\":6560:6574  userLiquiToken */\n      0x13\n        /* \"LiquidityToken.sol\":6560:6581  userLiquiToken[_user] */\n      0x00\n        /* \"LiquidityToken.sol\":6575:6580  _user */\n      dup9\n        /* \"LiquidityToken.sol\":6560:6581  userLiquiToken[_user] */\n      0xffffffffffffffffffffffffffffffffffffffff\n      and\n      0xffffffffffffffffffffffffffffffffffffffff\n      and\n      dup2\n      mstore\n      0x20\n      add\n      swap1\n      dup2\n      mstore\n      0x20\n      add\n      0x00\n      keccak256\n        /* \"LiquidityToken.sol\":6560:6601  userLiquiToken[_user].fullyChargedBalance */\n      0x00\n      add\n        /* \"LiquidityToken.sol\":6560:6691  userLiquiToken[_user].fullyChargedBalance = ... */\n      dup2\n      swap1\n      sstore\n      pop\n        /* \"LiquidityToken.sol\":6706:6772  IncreasedFullyChargedBalance(_user, _fullyChargedBalanceIncreased) */\n      0xae2006c94e89f8083efda0c0a1d0c7d6fef3ec90d68506aa822854f3ba31f9cf\n        /* \"LiquidityToken.sol\":6735:6740  _user */\n      dup7\n        /* \"LiquidityToken.sol\":6742:6771  _fullyChargedBalanceIncreased */\n      dup3\n        /* \"LiquidityToken.sol\":6706:6772  IncreasedFullyChargedBalance(_user, _fullyChargedBalanceIncreased) */\n      mload(0x40)\n      dup1\n      dup4\n      0xffffffffffffffffffffffffffffffffffffffff\n      and\n      dup2\n      mstore\n      0x20\n      add\n      dup3\n      dup2\n      mstore\n      0x20\n      add\n      swap3\n      pop\n      pop\n      pop\n      mload(0x40)\n      dup1\n      swap2\n      sub\n      swap1\n      log1\n        /* \"LiquidityToken.sol\":6798:6829  _totalRewards.add(_hodlRewards) */\n      tag_438\n        /* \"LiquidityToken.sol\":6816:6828  _hodlRewards */\n      dup5\n        /* \"LiquidityToken.sol\":6798:6811  _totalRewards */\n      dup5\n        /* \"LiquidityToken.sol\":6798:6815  _totalRewards.add */\n      tag_270\n      swap1\n        /* \"LiquidityToken.sol\":6798:6829  _totalRewards.add(_hodlRewards) */\n      swap2\n      swap1\n      0xffffffff\n      and\n      jump\t// in\n    tag_438:\n        /* \"LiquidityToken.sol\":6782:6829  _totalRewards = _totalRewards.add(_hodlRewards) */\n      swap3\n      pop\n        /* \"LiquidityToken.sol\":6386:6879  if (_areAllocationsToBeStaked) {... */\n      pop\n      jump(tag_439)\n    tag_434:\n        /* \"LiquidityToken.sol\":6859:6879  _mint(_user, _value) */\n      tag_440\n        /* \"LiquidityToken.sol\":6865:6870  _user */\n      dup6\n        /* \"LiquidityToken.sol\":6872:6878  _value */\n      dup6\n        /* \"LiquidityToken.sol\":6859:6864  _mint */\n      tag_379\n        /* \"LiquidityToken.sol\":6859:6879  _mint(_user, _value) */\n      jump\t// in\n    tag_440:\n        /* \"LiquidityToken.sol\":6386:6879  if (_areAllocationsToBeStaked) {... */\n    tag_439:\n        /* \"LiquidityToken.sol\":6918:6951  _allocatedTokenSupply.add(_value) */\n      tag_441\n        /* \"LiquidityToken.sol\":6944:6950  _value */\n      dup5\n        /* \"LiquidityToken.sol\":6918:6939  _allocatedTokenSupply */\n      dup9\n        /* \"LiquidityToken.sol\":6918:6943  _allocatedTokenSupply.add */\n      tag_270\n      swap1\n        /* \"LiquidityToken.sol\":6918:6951  _allocatedTokenSupply.add(_value) */\n      swap2\n      swap1\n      0xffffffff\n      and\n      jump\t// in\n    tag_441:\n        /* \"LiquidityToken.sol\":6894:6951  _allocatedTokenSupply = _allocatedTokenSupply.add(_value) */\n      swap7\n      pop\n        /* \"LiquidityToken.sol\":6964:7038  LTAllocatedByOwner(_user, _value, _hodlRewards, _areAllocationsToBeStaked) */\n      0xa984939d0059bc688e1c5458f72ad05b51fc8a6ba959556f5e2ee91c1ab8c7d2\n        /* \"LiquidityToken.sol\":6983:6988  _user */\n      dup6\n        /* \"LiquidityToken.sol\":6990:6996  _value */\n      dup6\n        /* \"LiquidityToken.sol\":6998:7010  _hodlRewards */\n      dup6\n        /* \"LiquidityToken.sol\":7012:7037  _areAllocationsToBeStaked */\n      dup12\n        /* \"LiquidityToken.sol\":6964:7038  LTAllocatedByOwner(_user, _value, _hodlRewards, _areAllocationsToBeStaked) */\n      mload(0x40)\n      dup1\n      dup6\n      0xffffffffffffffffffffffffffffffffffffffff\n      and\n      dup2\n      mstore\n      0x20\n      add\n      dup5\n      dup2\n      mstore\n      0x20\n      add\n      dup4\n      dup2\n      mstore\n      0x20\n      add\n      dup3\n      iszero\n      iszero\n      dup2\n      mstore\n      0x20\n      add\n      swap5\n      pop\n      pop\n      pop\n      pop\n      pop\n      mload(0x40)\n      dup1\n      swap2\n      sub\n      swap1\n      log1\n        /* \"LiquidityToken.sol\":6314:6319  _id++ */\n      dup1\n      dup1\n      0x01\n      add\n      swap2\n      pop\n      pop\n        /* \"LiquidityToken.sol\":6269:7045  for (uint _id = 0 ; _id < _usersListLength ; _id++) {... */\n      jump(tag_429)\n    tag_430:\n      pop\n        /* \"LiquidityToken.sol\":7073:7119  totalTokenAllocated.add(_allocatedTokenSupply) */\n      tag_442\n        /* \"LiquidityToken.sol\":7097:7118  _allocatedTokenSupply */\n      dup7\n        /* \"LiquidityToken.sol\":7073:7092  totalTokenAllocated */\n      sload(0x0f)\n        /* \"LiquidityToken.sol\":7073:7096  totalTokenAllocated.add */\n      tag_270\n      swap1\n        /* \"LiquidityToken.sol\":7073:7119  totalTokenAllocated.add(_allocatedTokenSupply) */\n      swap2\n      swap1\n      0xffffffff\n      and\n      jump\t// in\n    tag_442:\n        /* \"LiquidityToken.sol\":7051:7070  totalTokenAllocated */\n      0x0f\n        /* \"LiquidityToken.sol\":7051:7119  totalTokenAllocated = totalTokenAllocated.add(_allocatedTokenSupply) */\n      dup2\n      swap1\n      sstore\n      pop\n        /* \"LiquidityToken.sol\":7130:7181  IncreasedTotalTokenAllocated(_allocatedTokenSupply) */\n      0x83460f65bdb244889b764a63576252cf32e10e1a058af241da584c1f1610e6db\n        /* \"LiquidityToken.sol\":7159:7180  _allocatedTokenSupply */\n      dup7\n        /* \"LiquidityToken.sol\":7130:7181  IncreasedTotalTokenAllocated(_allocatedTokenSupply) */\n      mload(0x40)\n      dup1\n      dup3\n      dup2\n      mstore\n      0x20\n      add\n      swap2\n      pop\n      pop\n      mload(0x40)\n      dup1\n      swap2\n      sub\n      swap1\n      log1\n        /* \"LiquidityToken.sol\":7251:7276  maxInitialTokenAllocation */\n      immutable(\"0x27f63464b9731b972604804953e204cb89525ac66e46cd091b2739ad01222f8b\")\n        /* \"LiquidityToken.sol\":7203:7247  totalTokenAllocated.sub(totalStakingRewards) */\n      tag_443\n        /* \"LiquidityToken.sol\":7227:7246  totalStakingRewards */\n      sload(0x0b)\n        /* \"LiquidityToken.sol\":7203:7222  totalTokenAllocated */\n      sload(0x0f)\n        /* \"LiquidityToken.sol\":7203:7226  totalTokenAllocated.sub */\n      tag_277\n      swap1\n        /* \"LiquidityToken.sol\":7203:7247  totalTokenAllocated.sub(totalStakingRewards) */\n      swap2\n      swap1\n      0xffffffff\n      and\n      jump\t// in\n    tag_443:\n        /* \"LiquidityToken.sol\":7203:7276  totalTokenAllocated.sub(totalStakingRewards) <= maxInitialTokenAllocation */\n      gt\n      iszero\n        /* \"LiquidityToken.sol\":7188:7328  require(... */\n      tag_444\n      jumpi\n      mload(0x40)\n      0x08c379a000000000000000000000000000000000000000000000000000000000\n      dup2\n      mstore\n      0x04\n      add\n      dup1\n      dup1\n      0x20\n      add\n      dup3\n      dup2\n      sub\n      dup3\n      mstore\n      0x29\n      dup2\n      mstore\n      0x20\n      add\n      dup1\n      data_45ef06a394c98c8868792d544928cc991879a78fc8cb2f23d6e67cae100d6cc1\n      0x29\n      swap2\n      codecopy\n      0x40\n      add\n      swap2\n      pop\n      pop\n      mload(0x40)\n      dup1\n      swap2\n      sub\n      swap1\n      revert\n    tag_444:\n        /* \"LiquidityToken.sol\":7339:7364  _areAllocationsToBeStaked */\n      dup7\n        /* \"LiquidityToken.sol\":7335:7599  if (_areAllocationsToBeStaked) {... */\n      iszero\n      tag_445\n      jumpi\n        /* \"LiquidityToken.sol\":7374:7417  _mint(address(this), _allocatedTokenSupply) */\n      tag_446\n        /* \"LiquidityToken.sol\":7388:7392  this */\n      address\n        /* \"LiquidityToken.sol\":7395:7416  _allocatedTokenSupply */\n      dup8\n        /* \"LiquidityToken.sol\":7374:7379  _mint */\n      tag_379\n        /* \"LiquidityToken.sol\":7374:7417  _mint(address(this), _allocatedTokenSupply) */\n      jump\t// in\n    tag_446:\n        /* \"LiquidityToken.sol\":7425:7448  uint _increasedStakedLT */\n      0x00\n        /* \"LiquidityToken.sol\":7451:7491  _allocatedTokenSupply.add(_totalRewards) */\n      tag_447\n        /* \"LiquidityToken.sol\":7477:7490  _totalRewards */\n      dup3\n        /* \"LiquidityToken.sol\":7451:7472  _allocatedTokenSupply */\n      dup9\n        /* \"LiquidityToken.sol\":7451:7476  _allocatedTokenSupply.add */\n      tag_270\n      swap1\n        /* \"LiquidityToken.sol\":7451:7491  _allocatedTokenSupply.add(_totalRewards) */\n      swap2\n      swap1\n      0xffffffff\n      and\n      jump\t// in\n    tag_447:\n        /* \"LiquidityToken.sol\":7425:7491  uint _increasedStakedLT = _allocatedTokenSupply.add(_totalRewards) */\n      swap1\n      pop\n        /* \"LiquidityToken.sol\":7510:7542  stakedLT.add(_increasedStakedLT) */\n      tag_448\n        /* \"LiquidityToken.sol\":7523:7541  _increasedStakedLT */\n      dup2\n        /* \"LiquidityToken.sol\":7510:7518  stakedLT */\n      sload(0x0e)\n        /* \"LiquidityToken.sol\":7510:7522  stakedLT.add */\n      tag_270\n      swap1\n        /* \"LiquidityToken.sol\":7510:7542  stakedLT.add(_increasedStakedLT) */\n      swap2\n      swap1\n      0xffffffff\n      and\n      jump\t// in\n    tag_448:\n        /* \"LiquidityToken.sol\":7499:7507  stakedLT */\n      0x0e\n        /* \"LiquidityToken.sol\":7499:7542  stakedLT = stakedLT.add(_increasedStakedLT) */\n      dup2\n      swap1\n      sstore\n      pop\n        /* \"LiquidityToken.sol\":7555:7592  IncreasedStakedLT(_increasedStakedLT) */\n      0x12129930c15dad4632242378dc39162db4c36a82482777c2e8f791d3752bb70f\n        /* \"LiquidityToken.sol\":7573:7591  _increasedStakedLT */\n      dup2\n        /* \"LiquidityToken.sol\":7555:7592  IncreasedStakedLT(_increasedStakedLT) */\n      mload(0x40)\n      dup1\n      dup3\n      dup2\n      mstore\n      0x20\n      add\n      swap2\n      pop\n      pop\n      mload(0x40)\n      dup1\n      swap2\n      sub\n      swap1\n      log1\n        /* \"LiquidityToken.sol\":7335:7599  if (_areAllocationsToBeStaked) {... */\n      pop\n    tag_445:\n        /* \"https://github.com/OpenZeppelin/openzeppelin-contracts/blob/v3.4.2-solc-0.7/contracts/access/Ownable.sol\":1350:1351   */\n      pop\n      pop\n      pop\n      pop\n      pop\n      pop\n        /* \"LiquidityToken.sol\":5735:7603  function allocateLTByOwner(address[] memory _users, uint[] memory _values, bool _areAllocationsToBeStaked)... */\n      pop\n      pop\n      pop\n      jump\t// out\n        /* \"LiquidityToken.sol\":857:894  uint public currentRewardPerShare1e18 */\n    tag_228:\n      sload(0x0d)\n      dup2\n      jump\t// out\n        /* \"LiquidityToken.sol\":1226:1269  uint public immutable durationLinearVesting */\n    tag_230:\n      immutable(\"0x7fac02d34be0cf003870fc1ca20de764e3d24f4510f938a3d8c85c13150f33d3\")\n      dup2\n      jump\t// out\n        /* \"LiquidityToken.sol\":14930:15120  function updateStakingAndGetHodlRewardsByInterfacePT(address _user) public onlyInterfaceProjectToken() returns (uint) {... */\n    tag_233:\n        /* \"LiquidityToken.sol\":15042:15046  uint */\n      0x00\n        /* \"LiquidityToken.sol\":14688:14721  ensureOnlyInterfaceProjectToken() */\n      tag_450\n        /* \"LiquidityToken.sol\":14688:14719  ensureOnlyInterfaceProjectToken */\n      tag_305\n        /* \"LiquidityToken.sol\":14688:14721  ensureOnlyInterfaceProjectToken() */\n      jump\t// in\n    tag_450:\n        /* \"LiquidityToken.sol\":15068:15105  updateStakingAndGetHodlRewards(_user) */\n      tag_452\n        /* \"LiquidityToken.sol\":15099:15104  _user */\n      dup3\n        /* \"LiquidityToken.sol\":15068:15098  updateStakingAndGetHodlRewards */\n      tag_275\n        /* \"LiquidityToken.sol\":15068:15105  updateStakingAndGetHodlRewards(_user) */\n      jump\t// in\n    tag_452:\n        /* \"LiquidityToken.sol\":15054:15113  return(... */\n      swap1\n      pop\n        /* \"LiquidityToken.sol\":14930:15120  function updateStakingAndGetHodlRewardsByInterfacePT(address _user) public onlyInterfaceProjectToken() returns (uint) {... */\n      swap2\n      swap1\n      pop\n      jump\t// out\n        /* \"https://github.com/OpenZeppelin/openzeppelin-contracts/blob/v3.4.2-solc-0.7/contracts/access/Ownable.sol\":1994:2234   */\n    tag_236:\n        /* \"https://github.com/OpenZeppelin/openzeppelin-contracts/blob/v3.4.2-solc-0.7/contracts/access/Ownable.sol\":1291:1303   */\n      tag_454\n        /* \"https://github.com/OpenZeppelin/openzeppelin-contracts/blob/v3.4.2-solc-0.7/contracts/access/Ownable.sol\":1291:1301   */\n      tag_250\n        /* \"https://github.com/OpenZeppelin/openzeppelin-contracts/blob/v3.4.2-solc-0.7/contracts/access/Ownable.sol\":1291:1303   */\n      jump\t// in\n    tag_454:\n        /* \"https://github.com/OpenZeppelin/openzeppelin-contracts/blob/v3.4.2-solc-0.7/contracts/access/Ownable.sol\":1280:1303   */\n      0xffffffffffffffffffffffffffffffffffffffff\n      and\n        /* \"https://github.com/OpenZeppelin/openzeppelin-contracts/blob/v3.4.2-solc-0.7/contracts/access/Ownable.sol\":1280:1287   */\n      tag_455\n        /* \"https://github.com/OpenZeppelin/openzeppelin-contracts/blob/v3.4.2-solc-0.7/contracts/access/Ownable.sol\":1280:1285   */\n      tag_166\n        /* \"https://github.com/OpenZeppelin/openzeppelin-contracts/blob/v3.4.2-solc-0.7/contracts/access/Ownable.sol\":1280:1287   */\n      jump\t// in\n    tag_455:\n        /* \"https://github.com/OpenZeppelin/openzeppelin-contracts/blob/v3.4.2-solc-0.7/contracts/access/Ownable.sol\":1280:1303   */\n      0xffffffffffffffffffffffffffffffffffffffff\n      and\n      eq\n        /* \"https://github.com/OpenZeppelin/openzeppelin-contracts/blob/v3.4.2-solc-0.7/contracts/access/Ownable.sol\":1272:1340   */\n      tag_456\n      jumpi\n      mload(0x40)\n      0x08c379a000000000000000000000000000000000000000000000000000000000\n      dup2\n      mstore\n      0x04\n      add\n      dup1\n      dup1\n      0x20\n      add\n      dup3\n      dup2\n      sub\n      dup3\n      mstore\n      0x20\n      dup2\n      mstore\n      0x20\n      add\n      dup1\n      0x4f776e61626c653a2063616c6c6572206973206e6f7420746865206f776e6572\n      dup2\n      mstore\n      pop\n      0x20\n      add\n      swap2\n      pop\n      pop\n      mload(0x40)\n      dup1\n      swap2\n      sub\n      swap1\n      revert\n    tag_456:\n        /* \"https://github.com/OpenZeppelin/openzeppelin-contracts/blob/v3.4.2-solc-0.7/contracts/access/Ownable.sol\":2102:2103   */\n      0x00\n        /* \"https://github.com/OpenZeppelin/openzeppelin-contracts/blob/v3.4.2-solc-0.7/contracts/access/Ownable.sol\":2082:2104   */\n      0xffffffffffffffffffffffffffffffffffffffff\n      and\n        /* \"https://github.com/OpenZeppelin/openzeppelin-contracts/blob/v3.4.2-solc-0.7/contracts/access/Ownable.sol\":2082:2090   */\n      dup2\n        /* \"https://github.com/OpenZeppelin/openzeppelin-contracts/blob/v3.4.2-solc-0.7/contracts/access/Ownable.sol\":2082:2104   */\n      0xffffffffffffffffffffffffffffffffffffffff\n      and\n      eq\n      iszero\n        /* \"https://github.com/OpenZeppelin/openzeppelin-contracts/blob/v3.4.2-solc-0.7/contracts/access/Ownable.sol\":2074:2147   */\n      tag_458\n      jumpi\n      mload(0x40)\n      0x08c379a000000000000000000000000000000000000000000000000000000000\n      dup2\n      mstore\n      0x04\n      add\n      dup1\n      dup1\n      0x20\n      add\n      dup3\n      dup2\n      sub\n      dup3\n      mstore\n      0x26\n      dup2\n      mstore\n      0x20\n      add\n      dup1\n      data_245f15ff17f551913a7a18385165551503906a406f905ac1c2437281a7cd0cfe\n      0x26\n      swap2\n      codecopy\n      0x40\n      add\n      swap2\n      pop\n      pop\n      mload(0x40)\n      dup1\n      swap2\n      sub\n      swap1\n      revert\n    tag_458:\n        /* \"https://github.com/OpenZeppelin/openzeppelin-contracts/blob/v3.4.2-solc-0.7/contracts/access/Ownable.sol\":2191:2199   */\n      dup1\n        /* \"https://github.com/OpenZeppelin/openzeppelin-contracts/blob/v3.4.2-solc-0.7/contracts/access/Ownable.sol\":2162:2200   */\n      0xffffffffffffffffffffffffffffffffffffffff\n      and\n        /* \"https://github.com/OpenZeppelin/openzeppelin-contracts/blob/v3.4.2-solc-0.7/contracts/access/Ownable.sol\":2183:2189   */\n      0x05\n      0x01\n      swap1\n      sload\n      swap1\n      0x0100\n      exp\n      swap1\n      div\n      0xffffffffffffffffffffffffffffffffffffffff\n      and\n        /* \"https://github.com/OpenZeppelin/openzeppelin-contracts/blob/v3.4.2-solc-0.7/contracts/access/Ownable.sol\":2162:2200   */\n      0xffffffffffffffffffffffffffffffffffffffff\n      and\n      0x8be0079c531659141344cd1fd0a4f28419497f9722a3daafe3b4186f6b6457e0\n      mload(0x40)\n      mload(0x40)\n      dup1\n      swap2\n      sub\n      swap1\n      log3\n        /* \"https://github.com/OpenZeppelin/openzeppelin-contracts/blob/v3.4.2-solc-0.7/contracts/access/Ownable.sol\":2219:2227   */\n      dup1\n        /* \"https://github.com/OpenZeppelin/openzeppelin-contracts/blob/v3.4.2-solc-0.7/contracts/access/Ownable.sol\":2210:2216   */\n      0x05\n      0x01\n        /* \"https://github.com/OpenZeppelin/openzeppelin-contracts/blob/v3.4.2-solc-0.7/contracts/access/Ownable.sol\":2210:2227   */\n      0x0100\n      exp\n      dup2\n      sload\n      dup2\n      0xffffffffffffffffffffffffffffffffffffffff\n      mul\n      not\n      and\n      swap1\n      dup4\n      0xffffffffffffffffffffffffffffffffffffffff\n      and\n      mul\n      or\n      swap1\n      sstore\n      pop\n        /* \"https://github.com/OpenZeppelin/openzeppelin-contracts/blob/v3.4.2-solc-0.7/contracts/access/Ownable.sol\":1994:2234   */\n      pop\n      jump\t// out\n        /* \"LiquidityToken.sol\":16888:17032  function updateRewardsAfterFeesPaymentByInterface(uint _fees) public onlyInterfaceProjectToken() {... */\n    tag_239:\n        /* \"LiquidityToken.sol\":14688:14721  ensureOnlyInterfaceProjectToken() */\n      tag_460\n        /* \"LiquidityToken.sol\":14688:14719  ensureOnlyInterfaceProjectToken */\n      tag_305\n        /* \"LiquidityToken.sol\":14688:14721  ensureOnlyInterfaceProjectToken() */\n      jump\t// in\n    tag_460:\n        /* \"LiquidityToken.sol\":16991:17027  updateRewardsAfterFeesPayment(_fees) */\n      tag_462\n        /* \"LiquidityToken.sol\":17021:17026  _fees */\n      dup2\n        /* \"LiquidityToken.sol\":16991:17020  updateRewardsAfterFeesPayment */\n      tag_297\n        /* \"LiquidityToken.sol\":16991:17027  updateRewardsAfterFeesPayment(_fees) */\n      jump\t// in\n    tag_462:\n        /* \"LiquidityToken.sol\":16888:17032  function updateRewardsAfterFeesPaymentByInterface(uint _fees) public onlyInterfaceProjectToken() {... */\n      pop\n      jump\t// out\n        /* \"LiquidityToken.sol\":10815:11370  function getHodlRewards(address _user, uint _currentRewardPerShare1e18) public view returns(uint _hodlRewards) {... */\n    tag_242:\n        /* \"LiquidityToken.sol\":10907:10924  uint _hodlRewards */\n      0x00\n        /* \"LiquidityToken.sol\":10933:10954  uint _totalTokenOwned */\n      dup1\n        /* \"LiquidityToken.sol\":10957:11049  userLiquiToken[_user].fullyChargedBalance.add(userLiquiToken[_user].partiallyChargedBalance) */\n      tag_464\n        /* \"LiquidityToken.sol\":11003:11017  userLiquiToken */\n      0x13\n        /* \"LiquidityToken.sol\":11003:11024  userLiquiToken[_user] */\n      0x00\n        /* \"LiquidityToken.sol\":11018:11023  _user */\n      dup7\n        /* \"LiquidityToken.sol\":11003:11024  userLiquiToken[_user] */\n      0xffffffffffffffffffffffffffffffffffffffff\n      and\n      0xffffffffffffffffffffffffffffffffffffffff\n      and\n      dup2\n      mstore\n      0x20\n      add\n      swap1\n      dup2\n      mstore\n      0x20\n      add\n      0x00\n      keccak256\n        /* \"LiquidityToken.sol\":11003:11048  userLiquiToken[_user].partiallyChargedBalance */\n      0x01\n      add\n      sload\n        /* \"LiquidityToken.sol\":10957:10971  userLiquiToken */\n      0x13\n        /* \"LiquidityToken.sol\":10957:10978  userLiquiToken[_user] */\n      0x00\n        /* \"LiquidityToken.sol\":10972:10977  _user */\n      dup8\n        /* \"LiquidityToken.sol\":10957:10978  userLiquiToken[_user] */\n      0xffffffffffffffffffffffffffffffffffffffff\n      and\n      0xffffffffffffffffffffffffffffffffffffffff\n      and\n      dup2\n      mstore\n      0x20\n      add\n      swap1\n      dup2\n      mstore\n      0x20\n      add\n      0x00\n      keccak256\n        /* \"LiquidityToken.sol\":10957:10998  userLiquiToken[_user].fullyChargedBalance */\n      0x00\n      add\n      sload\n        /* \"LiquidityToken.sol\":10957:11002  userLiquiToken[_user].fullyChargedBalance.add */\n      tag_270\n      swap1\n        /* \"LiquidityToken.sol\":10957:11049  userLiquiToken[_user].fullyChargedBalance.add(userLiquiToken[_user].partiallyChargedBalance) */\n      swap2\n      swap1\n      0xffffffff\n      and\n      jump\t// in\n    tag_464:\n        /* \"LiquidityToken.sol\":10933:11049  uint _totalTokenOwned = userLiquiToken[_user].fullyChargedBalance.add(userLiquiToken[_user].partiallyChargedBalance) */\n      swap1\n      pop\n        /* \"LiquidityToken.sol\":11101:11104  0x0 */\n      0x00\n        /* \"LiquidityToken.sol\":11059:11105  address(interfaceProjectToken) != address(0x0) */\n      0xffffffffffffffffffffffffffffffffffffffff\n      and\n        /* \"LiquidityToken.sol\":11067:11088  interfaceProjectToken */\n      0x06\n      0x00\n      swap1\n      sload\n      swap1\n      0x0100\n      exp\n      swap1\n      div\n      0xffffffffffffffffffffffffffffffffffffffff\n      and\n        /* \"LiquidityToken.sol\":11059:11105  address(interfaceProjectToken) != address(0x0) */\n      0xffffffffffffffffffffffffffffffffffffffff\n      and\n      eq\n        /* \"LiquidityToken.sol\":11055:11215  if (address(interfaceProjectToken) != address(0x0)) ... */\n      tag_465\n      jumpi\n        /* \"LiquidityToken.sol\":11133:11215  _totalTokenOwned.sub(interfaceProjectToken.valueProjectTokenToFullRecharge(_user)) */\n      tag_466\n        /* \"LiquidityToken.sol\":11154:11175  interfaceProjectToken */\n      0x06\n      0x00\n      swap1\n      sload\n      swap1\n      0x0100\n      exp\n      swap1\n      div\n      0xffffffffffffffffffffffffffffffffffffffff\n      and\n        /* \"LiquidityToken.sol\":11154:11207  interfaceProjectToken.valueProjectTokenToFullRecharge */\n      0xffffffffffffffffffffffffffffffffffffffff\n      and\n      0xba01ecef\n        /* \"LiquidityToken.sol\":11208:11213  _user */\n      dup7\n        /* \"LiquidityToken.sol\":11154:11214  interfaceProjectToken.valueProjectTokenToFullRecharge(_user) */\n      mload(0x40)\n      dup3\n      0xffffffff\n      and\n      0xe0\n      shl\n      dup2\n      mstore\n      0x04\n      add\n      dup1\n      dup3\n      0xffffffffffffffffffffffffffffffffffffffff\n      and\n      dup2\n      mstore\n      0x20\n      add\n      swap2\n      pop\n      pop\n      0x20\n      mload(0x40)\n      dup1\n      dup4\n      sub\n      dup2\n      dup7\n      dup1\n      extcodesize\n      iszero\n      dup1\n      iszero\n      tag_467\n      jumpi\n      0x00\n      dup1\n      revert\n    tag_467:\n      pop\n      gas\n      staticcall\n      iszero\n      dup1\n      iszero\n      tag_469\n      jumpi\n      returndatasize\n      0x00\n      dup1\n      returndatacopy\n      revert(0x00, returndatasize)\n    tag_469:\n      pop\n      pop\n      pop\n      pop\n      mload(0x40)\n      returndatasize\n      0x20\n      dup2\n      lt\n      iszero\n      tag_470\n      jumpi\n      0x00\n      dup1\n      revert\n    tag_470:\n      dup2\n      add\n      swap1\n      dup1\n      dup1\n      mload\n      swap1\n      0x20\n      add\n      swap1\n      swap3\n      swap2\n      swap1\n      pop\n      pop\n      pop\n        /* \"LiquidityToken.sol\":11133:11149  _totalTokenOwned */\n      dup3\n        /* \"LiquidityToken.sol\":11133:11153  _totalTokenOwned.sub */\n      tag_277\n      swap1\n        /* \"LiquidityToken.sol\":11133:11215  _totalTokenOwned.sub(interfaceProjectToken.valueProjectTokenToFullRecharge(_user)) */\n      swap2\n      swap1\n      0xffffffff\n      and\n      jump\t// in\n    tag_466:\n        /* \"LiquidityToken.sol\":11114:11215  _totalTokenOwned = _totalTokenOwned.sub(interfaceProjectToken.valueProjectTokenToFullRecharge(_user)) */\n      swap1\n      pop\n        /* \"LiquidityToken.sol\":11055:11215  if (address(interfaceProjectToken) != address(0x0)) ... */\n    tag_465:\n        /* \"LiquidityToken.sol\":11241:11365  _totalTokenOwned... */\n      tag_471\n        /* \"LiquidityToken.sol\":11360:11364  1e18 */\n      0x0de0b6b3a7640000\n        /* \"LiquidityToken.sol\":11241:11348  _totalTokenOwned... */\n      tag_472\n        /* \"LiquidityToken.sol\":11276:11340  _currentRewardPerShare1e18.sub(claimedRewardPerShare1e18[_user]) */\n      tag_473\n        /* \"LiquidityToken.sol\":11307:11332  claimedRewardPerShare1e18 */\n      0x12\n        /* \"LiquidityToken.sol\":11307:11339  claimedRewardPerShare1e18[_user] */\n      0x00\n        /* \"LiquidityToken.sol\":11333:11338  _user */\n      dup10\n        /* \"LiquidityToken.sol\":11307:11339  claimedRewardPerShare1e18[_user] */\n      0xffffffffffffffffffffffffffffffffffffffff\n      and\n      0xffffffffffffffffffffffffffffffffffffffff\n      and\n      dup2\n      mstore\n      0x20\n      add\n      swap1\n      dup2\n      mstore\n      0x20\n      add\n      0x00\n      keccak256\n      sload\n        /* \"LiquidityToken.sol\":11276:11302  _currentRewardPerShare1e18 */\n      dup8\n        /* \"LiquidityToken.sol\":11276:11306  _currentRewardPerShare1e18.sub */\n      tag_277\n      swap1\n        /* \"LiquidityToken.sol\":11276:11340  _currentRewardPerShare1e18.sub(claimedRewardPerShare1e18[_user]) */\n      swap2\n      swap1\n      0xffffffff\n      and\n      jump\t// in\n    tag_473:\n        /* \"LiquidityToken.sol\":11241:11257  _totalTokenOwned */\n      dup5\n        /* \"LiquidityToken.sol\":11241:11268  _totalTokenOwned... */\n      tag_282\n      swap1\n        /* \"LiquidityToken.sol\":11241:11348  _totalTokenOwned... */\n      swap2\n      swap1\n      0xffffffff\n      and\n      jump\t// in\n    tag_472:\n        /* \"LiquidityToken.sol\":11241:11359  _totalTokenOwned... */\n      tag_283\n      swap1\n        /* \"LiquidityToken.sol\":11241:11365  _totalTokenOwned... */\n      swap2\n      swap1\n      0xffffffff\n      and\n      jump\t// in\n    tag_471:\n        /* \"LiquidityToken.sol\":11226:11365  _hodlRewards = _totalTokenOwned... */\n      swap2\n      pop\n        /* \"LiquidityToken.sol\":10815:11370  function getHodlRewards(address _user, uint _currentRewardPerShare1e18) public view returns(uint _hodlRewards) {... */\n      pop\n      swap3\n      swap2\n      pop\n      pop\n      jump\t// out\n        /* \"https://github.com/OpenZeppelin/openzeppelin-contracts/blob/v3.4.2-solc-0.7/contracts/utils/Context.sol\":598:702   */\n    tag_250:\n        /* \"https://github.com/OpenZeppelin/openzeppelin-contracts/blob/v3.4.2-solc-0.7/contracts/utils/Context.sol\":651:666   */\n      0x00\n        /* \"https://github.com/OpenZeppelin/openzeppelin-contracts/blob/v3.4.2-solc-0.7/contracts/utils/Context.sol\":685:695   */\n      caller\n        /* \"https://github.com/OpenZeppelin/openzeppelin-contracts/blob/v3.4.2-solc-0.7/contracts/utils/Context.sol\":678:695   */\n      swap1\n      pop\n        /* \"https://github.com/OpenZeppelin/openzeppelin-contracts/blob/v3.4.2-solc-0.7/contracts/utils/Context.sol\":598:702   */\n      swap1\n      jump\t// out\n        /* \"https://github.com/OpenZeppelin/openzeppelin-contracts/blob/v3.4.2-solc-0.7/contracts/token/ERC20/ERC20.sol\":9340:9680   */\n    tag_251:\n        /* \"https://github.com/OpenZeppelin/openzeppelin-contracts/blob/v3.4.2-solc-0.7/contracts/token/ERC20/ERC20.sol\":9458:9459   */\n      0x00\n        /* \"https://github.com/OpenZeppelin/openzeppelin-contracts/blob/v3.4.2-solc-0.7/contracts/token/ERC20/ERC20.sol\":9441:9460   */\n      0xffffffffffffffffffffffffffffffffffffffff\n      and\n        /* \"https://github.com/OpenZeppelin/openzeppelin-contracts/blob/v3.4.2-solc-0.7/contracts/token/ERC20/ERC20.sol\":9441:9446   */\n      dup4\n        /* \"https://github.com/OpenZeppelin/openzeppelin-contracts/blob/v3.4.2-solc-0.7/contracts/token/ERC20/ERC20.sol\":9441:9460   */\n      0xffffffffffffffffffffffffffffffffffffffff\n      and\n      eq\n      iszero\n        /* \"https://github.com/OpenZeppelin/openzeppelin-contracts/blob/v3.4.2-solc-0.7/contracts/token/ERC20/ERC20.sol\":9433:9501   */\n      tag_476\n      jumpi\n      mload(0x40)\n      0x08c379a000000000000000000000000000000000000000000000000000000000\n      dup2\n      mstore\n      0x04\n      add\n      dup1\n      dup1\n      0x20\n      add\n      dup3\n      dup2\n      sub\n      dup3\n      mstore\n      0x24\n      dup2\n      mstore\n      0x20\n      add\n      dup1\n      data_c953f4879035ed60e766b34720f656aab5c697b141d924c283124ecedb91c208\n      0x24\n      swap2\n      codecopy\n      0x40\n      add\n      swap2\n      pop\n      pop\n      mload(0x40)\n      dup1\n      swap2\n      sub\n      swap1\n      revert\n    tag_476:\n        /* \"https://github.com/OpenZeppelin/openzeppelin-contracts/blob/v3.4.2-solc-0.7/contracts/token/ERC20/ERC20.sol\":9538:9539   */\n      0x00\n        /* \"https://github.com/OpenZeppelin/openzeppelin-contracts/blob/v3.4.2-solc-0.7/contracts/token/ERC20/ERC20.sol\":9519:9540   */\n      0xffffffffffffffffffffffffffffffffffffffff\n      and\n        /* \"https://github.com/OpenZeppelin/openzeppelin-contracts/blob/v3.4.2-solc-0.7/contracts/token/ERC20/ERC20.sol\":9519:9526   */\n      dup3\n        /* \"https://github.com/OpenZeppelin/openzeppelin-contracts/blob/v3.4.2-solc-0.7/contracts/token/ERC20/ERC20.sol\":9519:9540   */\n      0xffffffffffffffffffffffffffffffffffffffff\n      and\n      eq\n      iszero\n        /* \"https://github.com/OpenZeppelin/openzeppelin-contracts/blob/v3.4.2-solc-0.7/contracts/token/ERC20/ERC20.sol\":9511:9579   */\n      tag_477\n      jumpi\n      mload(0x40)\n      0x08c379a000000000000000000000000000000000000000000000000000000000\n      dup2\n      mstore\n      0x04\n      add\n      dup1\n      dup1\n      0x20\n      add\n      dup3\n      dup2\n      sub\n      dup3\n      mstore\n      0x22\n      dup2\n      mstore\n      0x20\n      add\n      dup1\n      data_24883cc5fe64ace9d0df1893501ecb93c77180f0ff69cca79affb3c316dc8029\n      0x22\n      swap2\n      codecopy\n      0x40\n      add\n      swap2\n      pop\n      pop\n      mload(0x40)\n      dup1\n      swap2\n      sub\n      swap1\n      revert\n    tag_477:\n        /* \"https://github.com/OpenZeppelin/openzeppelin-contracts/blob/v3.4.2-solc-0.7/contracts/token/ERC20/ERC20.sol\":9620:9626   */\n      dup1\n        /* \"https://github.com/OpenZeppelin/openzeppelin-contracts/blob/v3.4.2-solc-0.7/contracts/token/ERC20/ERC20.sol\":9590:9601   */\n      0x01\n        /* \"https://github.com/OpenZeppelin/openzeppelin-contracts/blob/v3.4.2-solc-0.7/contracts/token/ERC20/ERC20.sol\":9590:9608   */\n      0x00\n        /* \"https://github.com/OpenZeppelin/openzeppelin-contracts/blob/v3.4.2-solc-0.7/contracts/token/ERC20/ERC20.sol\":9602:9607   */\n      dup6\n        /* \"https://github.com/OpenZeppelin/openzeppelin-contracts/blob/v3.4.2-solc-0.7/contracts/token/ERC20/ERC20.sol\":9590:9608   */\n      0xffffffffffffffffffffffffffffffffffffffff\n      and\n      0xffffffffffffffffffffffffffffffffffffffff\n      and\n      dup2\n      mstore\n      0x20\n      add\n      swap1\n      dup2\n      mstore\n      0x20\n      add\n      0x00\n      keccak256\n        /* \"https://github.com/OpenZeppelin/openzeppelin-contracts/blob/v3.4.2-solc-0.7/contracts/token/ERC20/ERC20.sol\":9590:9617   */\n      0x00\n        /* \"https://github.com/OpenZeppelin/openzeppelin-contracts/blob/v3.4.2-solc-0.7/contracts/token/ERC20/ERC20.sol\":9609:9616   */\n      dup5\n        /* \"https://github.com/OpenZeppelin/openzeppelin-contracts/blob/v3.4.2-solc-0.7/contracts/token/ERC20/ERC20.sol\":9590:9617   */\n      0xffffffffffffffffffffffffffffffffffffffff\n      and\n      0xffffffffffffffffffffffffffffffffffffffff\n      and\n      dup2\n      mstore\n      0x20\n      add\n      swap1\n      dup2\n      mstore\n      0x20\n      add\n      0x00\n      keccak256\n        /* \"https://github.com/OpenZeppelin/openzeppelin-contracts/blob/v3.4.2-solc-0.7/contracts/token/ERC20/ERC20.sol\":9590:9626   */\n      dup2\n      swap1\n      sstore\n      pop\n        /* \"https://github.com/OpenZeppelin/openzeppelin-contracts/blob/v3.4.2-solc-0.7/contracts/token/ERC20/ERC20.sol\":9657:9664   */\n      dup2\n        /* \"https://github.com/OpenZeppelin/openzeppelin-contracts/blob/v3.4.2-solc-0.7/contracts/token/ERC20/ERC20.sol\":9641:9673   */\n      0xffffffffffffffffffffffffffffffffffffffff\n      and\n        /* \"https://github.com/OpenZeppelin/openzeppelin-contracts/blob/v3.4.2-solc-0.7/contracts/token/ERC20/ERC20.sol\":9650:9655   */\n      dup4\n        /* \"https://github.com/OpenZeppelin/openzeppelin-contracts/blob/v3.4.2-solc-0.7/contracts/token/ERC20/ERC20.sol\":9641:9673   */\n      0xffffffffffffffffffffffffffffffffffffffff\n      and\n      0x8c5be1e5ebec7d5bd14f71427d1e84f3dd0314c0f7b2291e5b200ac8c7c3b925\n        /* \"https://github.com/OpenZeppelin/openzeppelin-contracts/blob/v3.4.2-solc-0.7/contracts/token/ERC20/ERC20.sol\":9666:9672   */\n      dup4\n        /* \"https://github.com/OpenZeppelin/openzeppelin-contracts/blob/v3.4.2-solc-0.7/contracts/token/ERC20/ERC20.sol\":9641:9673   */\n      mload(0x40)\n      dup1\n      dup3\n      dup2\n      mstore\n      0x20\n      add\n      swap2\n      pop\n      pop\n      mload(0x40)\n      dup1\n      swap2\n      sub\n      swap1\n      log3\n        /* \"https://github.com/OpenZeppelin/openzeppelin-contracts/blob/v3.4.2-solc-0.7/contracts/token/ERC20/ERC20.sol\":9340:9680   */\n      pop\n      pop\n      pop\n      jump\t// out\n        /* \"https://github.com/OpenZeppelin/openzeppelin-contracts/blob/v3.4.2-solc-0.7/contracts/token/ERC20/ERC20.sol\":7016:7546   */\n    tag_257:\n        /* \"https://github.com/OpenZeppelin/openzeppelin-contracts/blob/v3.4.2-solc-0.7/contracts/token/ERC20/ERC20.sol\":7139:7140   */\n      0x00\n        /* \"https://github.com/OpenZeppelin/openzeppelin-contracts/blob/v3.4.2-solc-0.7/contracts/token/ERC20/ERC20.sol\":7121:7141   */\n      0xffffffffffffffffffffffffffffffffffffffff\n      and\n        /* \"https://github.com/OpenZeppelin/openzeppelin-contracts/blob/v3.4.2-solc-0.7/contracts/token/ERC20/ERC20.sol\":7121:7127   */\n      dup4\n        /* \"https://github.com/OpenZeppelin/openzeppelin-contracts/blob/v3.4.2-solc-0.7/contracts/token/ERC20/ERC20.sol\":7121:7141   */\n      0xffffffffffffffffffffffffffffffffffffffff\n      and\n      eq\n      iszero\n        /* \"https://github.com/OpenZeppelin/openzeppelin-contracts/blob/v3.4.2-solc-0.7/contracts/token/ERC20/ERC20.sol\":7113:7183   */\n      tag_479\n      jumpi\n      mload(0x40)\n      0x08c379a000000000000000000000000000000000000000000000000000000000\n      dup2\n      mstore\n      0x04\n      add\n      dup1\n      dup1\n      0x20\n      add\n      dup3\n      dup2\n      sub\n      dup3\n      mstore\n      0x25\n      dup2\n      mstore\n      0x20\n      add\n      dup1\n      data_baecc556b46f4ed0f2b4cb599d60785ac8563dd2dc0a5bf12edea1c39e5e1fea\n      0x25\n      swap2\n      codecopy\n      0x40\n      add\n      swap2\n      pop\n      pop\n      mload(0x40)\n      dup1\n      swap2\n      sub\n      swap1\n      revert\n    tag_479:\n        /* \"https://github.com/OpenZeppelin/openzeppelin-contracts/blob/v3.4.2-solc-0.7/contracts/token/ERC20/ERC20.sol\":7222:7223   */\n      0x00\n        /* \"https://github.com/OpenZeppelin/openzeppelin-contracts/blob/v3.4.2-solc-0.7/contracts/token/ERC20/ERC20.sol\":7201:7224   */\n      0xffffffffffffffffffffffffffffffffffffffff\n      and\n        /* \"https://github.com/OpenZeppelin/openzeppelin-contracts/blob/v3.4.2-solc-0.7/contracts/token/ERC20/ERC20.sol\":7201:7210   */\n      dup3\n        /* \"https://github.com/OpenZeppelin/openzeppelin-contracts/blob/v3.4.2-solc-0.7/contracts/token/ERC20/ERC20.sol\":7201:7224   */\n      0xffffffffffffffffffffffffffffffffffffffff\n      and\n      eq\n      iszero\n        /* \"https://github.com/OpenZeppelin/openzeppelin-contracts/blob/v3.4.2-solc-0.7/contracts/token/ERC20/ERC20.sol\":7193:7264   */\n      tag_480\n      jumpi\n      mload(0x40)\n      0x08c379a000000000000000000000000000000000000000000000000000000000\n      dup2\n      mstore\n      0x04\n      add\n      dup1\n      dup1\n      0x20\n      add\n      dup3\n      dup2\n      sub\n      dup3\n      mstore\n      0x23\n      dup2\n      mstore\n      0x20\n      add\n      dup1\n      data_0557e210f7a69a685100a7e4e3d0a7024c546085cee28910fd17d0b081d9516f\n      0x23\n      swap2\n      codecopy\n      0x40\n      add\n      swap2\n      pop\n      pop\n      mload(0x40)\n      dup1\n      swap2\n      sub\n      swap1\n      revert\n    tag_480:\n        /* \"https://github.com/OpenZeppelin/openzeppelin-contracts/blob/v3.4.2-solc-0.7/contracts/token/ERC20/ERC20.sol\":7275:7322   */\n      tag_481\n        /* \"https://github.com/OpenZeppelin/openzeppelin-contracts/blob/v3.4.2-solc-0.7/contracts/token/ERC20/ERC20.sol\":7296:7302   */\n      dup4\n        /* \"https://github.com/OpenZeppelin/openzeppelin-contracts/blob/v3.4.2-solc-0.7/contracts/token/ERC20/ERC20.sol\":7304:7313   */\n      dup4\n        /* \"https://github.com/OpenZeppelin/openzeppelin-contracts/blob/v3.4.2-solc-0.7/contracts/token/ERC20/ERC20.sol\":7315:7321   */\n      dup4\n        /* \"https://github.com/OpenZeppelin/openzeppelin-contracts/blob/v3.4.2-solc-0.7/contracts/token/ERC20/ERC20.sol\":7275:7295   */\n      tag_482\n        /* \"https://github.com/OpenZeppelin/openzeppelin-contracts/blob/v3.4.2-solc-0.7/contracts/token/ERC20/ERC20.sol\":7275:7322   */\n      jump\t// in\n    tag_481:\n        /* \"https://github.com/OpenZeppelin/openzeppelin-contracts/blob/v3.4.2-solc-0.7/contracts/token/ERC20/ERC20.sol\":7353:7424   */\n      tag_483\n        /* \"https://github.com/OpenZeppelin/openzeppelin-contracts/blob/v3.4.2-solc-0.7/contracts/token/ERC20/ERC20.sol\":7375:7381   */\n      dup2\n        /* \"https://github.com/OpenZeppelin/openzeppelin-contracts/blob/v3.4.2-solc-0.7/contracts/token/ERC20/ERC20.sol\":7353:7424   */\n      mload(0x40)\n      dup1\n      0x60\n      add\n      0x40\n      mstore\n      dup1\n      0x26\n      dup2\n      mstore\n      0x20\n      add\n      data_4107e8a8b9e94bf8ff83080ddec1c0bffe897ebc2241b89d44f66b3d274088b6\n      0x26\n      swap2\n      codecopy\n        /* \"https://github.com/OpenZeppelin/openzeppelin-contracts/blob/v3.4.2-solc-0.7/contracts/token/ERC20/ERC20.sol\":7353:7362   */\n      0x00\n        /* \"https://github.com/OpenZeppelin/openzeppelin-contracts/blob/v3.4.2-solc-0.7/contracts/token/ERC20/ERC20.sol\":7353:7370   */\n      dup1\n        /* \"https://github.com/OpenZeppelin/openzeppelin-contracts/blob/v3.4.2-solc-0.7/contracts/token/ERC20/ERC20.sol\":7363:7369   */\n      dup8\n        /* \"https://github.com/OpenZeppelin/openzeppelin-contracts/blob/v3.4.2-solc-0.7/contracts/token/ERC20/ERC20.sol\":7353:7370   */\n      0xffffffffffffffffffffffffffffffffffffffff\n      and\n      0xffffffffffffffffffffffffffffffffffffffff\n      and\n      dup2\n      mstore\n      0x20\n      add\n      swap1\n      dup2\n      mstore\n      0x20\n      add\n      0x00\n      keccak256\n      sload\n        /* \"https://github.com/OpenZeppelin/openzeppelin-contracts/blob/v3.4.2-solc-0.7/contracts/token/ERC20/ERC20.sol\":7353:7374   */\n      tag_262\n      swap1\n        /* \"https://github.com/OpenZeppelin/openzeppelin-contracts/blob/v3.4.2-solc-0.7/contracts/token/ERC20/ERC20.sol\":7353:7424   */\n      swap3\n      swap2\n      swap1\n      0xffffffff\n      and\n      jump\t// in\n    tag_483:\n        /* \"https://github.com/OpenZeppelin/openzeppelin-contracts/blob/v3.4.2-solc-0.7/contracts/token/ERC20/ERC20.sol\":7333:7342   */\n      0x00\n        /* \"https://github.com/OpenZeppelin/openzeppelin-contracts/blob/v3.4.2-solc-0.7/contracts/token/ERC20/ERC20.sol\":7333:7350   */\n      dup1\n        /* \"https://github.com/OpenZeppelin/openzeppelin-contracts/blob/v3.4.2-solc-0.7/contracts/token/ERC20/ERC20.sol\":7343:7349   */\n      dup6\n        /* \"https://github.com/OpenZeppelin/openzeppelin-contracts/blob/v3.4.2-solc-0.7/contracts/token/ERC20/ERC20.sol\":7333:7350   */\n      0xffffffffffffffffffffffffffffffffffffffff\n      and\n      0xffffffffffffffffffffffffffffffffffffffff\n      and\n      dup2\n      mstore\n      0x20\n      add\n      swap1\n      dup2\n      mstore\n      0x20\n      add\n      0x00\n      keccak256\n        /* \"https://github.com/OpenZeppelin/openzeppelin-contracts/blob/v3.4.2-solc-0.7/contracts/token/ERC20/ERC20.sol\":7333:7424   */\n      dup2\n      swap1\n      sstore\n      pop\n        /* \"https://github.com/OpenZeppelin/openzeppelin-contracts/blob/v3.4.2-solc-0.7/contracts/token/ERC20/ERC20.sol\":7457:7489   */\n      tag_484\n        /* \"https://github.com/OpenZeppelin/openzeppelin-contracts/blob/v3.4.2-solc-0.7/contracts/token/ERC20/ERC20.sol\":7482:7488   */\n      dup2\n        /* \"https://github.com/OpenZeppelin/openzeppelin-contracts/blob/v3.4.2-solc-0.7/contracts/token/ERC20/ERC20.sol\":7457:7466   */\n      0x00\n        /* \"https://github.com/OpenZeppelin/openzeppelin-contracts/blob/v3.4.2-solc-0.7/contracts/token/ERC20/ERC20.sol\":7457:7477   */\n      dup1\n        /* \"https://github.com/OpenZeppelin/openzeppelin-contracts/blob/v3.4.2-solc-0.7/contracts/token/ERC20/ERC20.sol\":7467:7476   */\n      dup6\n        /* \"https://github.com/OpenZeppelin/openzeppelin-contracts/blob/v3.4.2-solc-0.7/contracts/token/ERC20/ERC20.sol\":7457:7477   */\n      0xffffffffffffffffffffffffffffffffffffffff\n      and\n      0xffffffffffffffffffffffffffffffffffffffff\n      and\n      dup2\n      mstore\n      0x20\n      add\n      swap1\n      dup2\n      mstore\n      0x20\n      add\n      0x00\n      keccak256\n      sload\n        /* \"https://github.com/OpenZeppelin/openzeppelin-contracts/blob/v3.4.2-solc-0.7/contracts/token/ERC20/ERC20.sol\":7457:7481   */\n      tag_270\n      swap1\n        /* \"https://github.com/OpenZeppelin/openzeppelin-contracts/blob/v3.4.2-solc-0.7/contracts/token/ERC20/ERC20.sol\":7457:7489   */\n      swap2\n      swap1\n      0xffffffff\n      and\n      jump\t// in\n    tag_484:\n        /* \"https://github.com/OpenZeppelin/openzeppelin-contracts/blob/v3.4.2-solc-0.7/contracts/token/ERC20/ERC20.sol\":7434:7443   */\n      0x00\n        /* \"https://github.com/OpenZeppelin/openzeppelin-contracts/blob/v3.4.2-solc-0.7/contracts/token/ERC20/ERC20.sol\":7434:7454   */\n      dup1\n        /* \"https://github.com/OpenZeppelin/openzeppelin-contracts/blob/v3.4.2-solc-0.7/contracts/token/ERC20/ERC20.sol\":7444:7453   */\n      dup5\n        /* \"https://github.com/OpenZeppelin/openzeppelin-contracts/blob/v3.4.2-solc-0.7/contracts/token/ERC20/ERC20.sol\":7434:7454   */\n      0xffffffffffffffffffffffffffffffffffffffff\n      and\n      0xffffffffffffffffffffffffffffffffffffffff\n      and\n      dup2\n      mstore\n      0x20\n      add\n      swap1\n      dup2\n      mstore\n      0x20\n      add\n      0x00\n      keccak256\n        /* \"https://github.com/OpenZeppelin/openzeppelin-contracts/blob/v3.4.2-solc-0.7/contracts/token/ERC20/ERC20.sol\":7434:7489   */\n      dup2\n      swap1\n      sstore\n      pop\n        /* \"https://github.com/OpenZeppelin/openzeppelin-contracts/blob/v3.4.2-solc-0.7/contracts/token/ERC20/ERC20.sol\":7521:7530   */\n      dup2\n        /* \"https://github.com/OpenZeppelin/openzeppelin-contracts/blob/v3.4.2-solc-0.7/contracts/token/ERC20/ERC20.sol\":7504:7539   */\n      0xffffffffffffffffffffffffffffffffffffffff\n      and\n        /* \"https://github.com/OpenZeppelin/openzeppelin-contracts/blob/v3.4.2-solc-0.7/contracts/token/ERC20/ERC20.sol\":7513:7519   */\n      dup4\n        /* \"https://github.com/OpenZeppelin/openzeppelin-contracts/blob/v3.4.2-solc-0.7/contracts/token/ERC20/ERC20.sol\":7504:7539   */\n      0xffffffffffffffffffffffffffffffffffffffff\n      and\n      0xddf252ad1be2c89b69c2b068fc378daa952ba7f163c4a11628f55a4df523b3ef\n        /* \"https://github.com/OpenZeppelin/openzeppelin-contracts/blob/v3.4.2-solc-0.7/contracts/token/ERC20/ERC20.sol\":7532:7538   */\n      dup4\n        /* \"https://github.com/OpenZeppelin/openzeppelin-contracts/blob/v3.4.2-solc-0.7/contracts/token/ERC20/ERC20.sol\":7504:7539   */\n      mload(0x40)\n      dup1\n      dup3\n      dup2\n      mstore\n      0x20\n      add\n      swap2\n      pop\n      pop\n      mload(0x40)\n      dup1\n      swap2\n      sub\n      swap1\n      log3\n        /* \"https://github.com/OpenZeppelin/openzeppelin-contracts/blob/v3.4.2-solc-0.7/contracts/token/ERC20/ERC20.sol\":7016:7546   */\n      pop\n      pop\n      pop\n      jump\t// out\n        /* \"https://github.com/OpenZeppelin/openzeppelin-contracts/blob/v3.4.2-solc-0.7/contracts/math/SafeMath.sol\":5424:5587   */\n    tag_262:\n        /* \"https://github.com/OpenZeppelin/openzeppelin-contracts/blob/v3.4.2-solc-0.7/contracts/math/SafeMath.sol\":5510:5517   */\n      0x00\n        /* \"https://github.com/OpenZeppelin/openzeppelin-contracts/blob/v3.4.2-solc-0.7/contracts/math/SafeMath.sol\":5542:5543   */\n      dup4\n        /* \"https://github.com/OpenZeppelin/openzeppelin-contracts/blob/v3.4.2-solc-0.7/contracts/math/SafeMath.sol\":5537:5538   */\n      dup4\n        /* \"https://github.com/OpenZeppelin/openzeppelin-contracts/blob/v3.4.2-solc-0.7/contracts/math/SafeMath.sol\":5537:5543   */\n      gt\n      iszero\n        /* \"https://github.com/OpenZeppelin/openzeppelin-contracts/blob/v3.4.2-solc-0.7/contracts/math/SafeMath.sol\":5545:5557   */\n      dup3\n        /* \"https://github.com/OpenZeppelin/openzeppelin-contracts/blob/v3.4.2-solc-0.7/contracts/math/SafeMath.sol\":5529:5558   */\n      swap1\n      tag_486\n      jumpi\n      mload(0x40)\n      0x08c379a000000000000000000000000000000000000000000000000000000000\n      dup2\n      mstore\n      0x04\n      add\n      dup1\n      dup1\n      0x20\n      add\n      dup3\n      dup2\n      sub\n      dup3\n      mstore\n      dup4\n      dup2\n      dup2\n      mload\n      dup2\n      mstore\n      0x20\n      add\n      swap2\n      pop\n      dup1\n      mload\n      swap1\n      0x20\n      add\n      swap1\n      dup1\n      dup4\n      dup4\n      0x00\n    tag_487:\n      dup4\n      dup2\n      lt\n      iszero\n      tag_489\n      jumpi\n      dup1\n      dup3\n      add\n      mload\n      dup2\n      dup5\n      add\n      mstore\n      0x20\n      dup2\n      add\n      swap1\n      pop\n      jump(tag_487)\n    tag_489:\n      pop\n      pop\n      pop\n      pop\n      swap1\n      pop\n      swap1\n      dup2\n      add\n      swap1\n      0x1f\n      and\n      dup1\n      iszero\n      tag_490\n      jumpi\n      dup1\n      dup3\n      sub\n      dup1\n      mload\n      0x01\n      dup4\n      0x20\n      sub\n      0x0100\n      exp\n      sub\n      not\n      and\n      dup2\n      mstore\n      0x20\n      add\n      swap2\n      pop\n    tag_490:\n      pop\n      swap3\n      pop\n      pop\n      pop\n      mload(0x40)\n      dup1\n      swap2\n      sub\n      swap1\n      revert\n    tag_486:\n      pop\n        /* \"https://github.com/OpenZeppelin/openzeppelin-contracts/blob/v3.4.2-solc-0.7/contracts/math/SafeMath.sol\":5579:5580   */\n      dup3\n        /* \"https://github.com/OpenZeppelin/openzeppelin-contracts/blob/v3.4.2-solc-0.7/contracts/math/SafeMath.sol\":5575:5576   */\n      dup5\n        /* \"https://github.com/OpenZeppelin/openzeppelin-contracts/blob/v3.4.2-solc-0.7/contracts/math/SafeMath.sol\":5575:5580   */\n      sub\n        /* \"https://github.com/OpenZeppelin/openzeppelin-contracts/blob/v3.4.2-solc-0.7/contracts/math/SafeMath.sol\":5568:5580   */\n      swap1\n      pop\n        /* \"https://github.com/OpenZeppelin/openzeppelin-contracts/blob/v3.4.2-solc-0.7/contracts/math/SafeMath.sol\":5424:5587   */\n      swap4\n      swap3\n      pop\n      pop\n      pop\n      jump\t// out\n        /* \"https://github.com/OpenZeppelin/openzeppelin-contracts/blob/v3.4.2-solc-0.7/contracts/math/SafeMath.sol\":2682:2857   */\n    tag_270:\n        /* \"https://github.com/OpenZeppelin/openzeppelin-contracts/blob/v3.4.2-solc-0.7/contracts/math/SafeMath.sol\":2740:2747   */\n      0x00\n        /* \"https://github.com/OpenZeppelin/openzeppelin-contracts/blob/v3.4.2-solc-0.7/contracts/math/SafeMath.sol\":2759:2768   */\n      dup1\n        /* \"https://github.com/OpenZeppelin/openzeppelin-contracts/blob/v3.4.2-solc-0.7/contracts/math/SafeMath.sol\":2775:2776   */\n      dup3\n        /* \"https://github.com/OpenZeppelin/openzeppelin-contracts/blob/v3.4.2-solc-0.7/contracts/math/SafeMath.sol\":2771:2772   */\n      dup5\n        /* \"https://github.com/OpenZeppelin/openzeppelin-contracts/blob/v3.4.2-solc-0.7/contracts/math/SafeMath.sol\":2771:2776   */\n      add\n        /* \"https://github.com/OpenZeppelin/openzeppelin-contracts/blob/v3.4.2-solc-0.7/contracts/math/SafeMath.sol\":2759:2776   */\n      swap1\n      pop\n        /* \"https://github.com/OpenZeppelin/openzeppelin-contracts/blob/v3.4.2-solc-0.7/contracts/math/SafeMath.sol\":2799:2800   */\n      dup4\n        /* \"https://github.com/OpenZeppelin/openzeppelin-contracts/blob/v3.4.2-solc-0.7/contracts/math/SafeMath.sol\":2794:2795   */\n      dup2\n        /* \"https://github.com/OpenZeppelin/openzeppelin-contracts/blob/v3.4.2-solc-0.7/contracts/math/SafeMath.sol\":2794:2800   */\n      lt\n      iszero\n        /* \"https://github.com/OpenZeppelin/openzeppelin-contracts/blob/v3.4.2-solc-0.7/contracts/math/SafeMath.sol\":2786:2832   */\n      tag_492\n      jumpi\n      mload(0x40)\n      0x08c379a000000000000000000000000000000000000000000000000000000000\n      dup2\n      mstore\n      0x04\n      add\n      dup1\n      dup1\n      0x20\n      add\n      dup3\n      dup2\n      sub\n      dup3\n      mstore\n      0x1b\n      dup2\n      mstore\n      0x20\n      add\n      dup1\n      0x536166654d6174683a206164646974696f6e206f766572666c6f770000000000\n      dup2\n      mstore\n      pop\n      0x20\n      add\n      swap2\n      pop\n      pop\n      mload(0x40)\n      dup1\n      swap2\n      sub\n      swap1\n      revert\n    tag_492:\n        /* \"https://github.com/OpenZeppelin/openzeppelin-contracts/blob/v3.4.2-solc-0.7/contracts/math/SafeMath.sol\":2849:2850   */\n      dup1\n        /* \"https://github.com/OpenZeppelin/openzeppelin-contracts/blob/v3.4.2-solc-0.7/contracts/math/SafeMath.sol\":2842:2850   */\n      swap2\n      pop\n      pop\n        /* \"https://github.com/OpenZeppelin/openzeppelin-contracts/blob/v3.4.2-solc-0.7/contracts/math/SafeMath.sol\":2682:2857   */\n      swap3\n      swap2\n      pop\n      pop\n      jump\t// out\n        /* \"LiquidityToken.sol\":9264:9684  function updateStakingAndGetHodlRewards(address _user) private returns (uint _hodlRewards) {... */\n    tag_275:\n        /* \"LiquidityToken.sol\":9336:9353  uint _hodlRewards */\n      0x00\n        /* \"LiquidityToken.sol\":9361:9401  updateStakingParameters(block.timestamp) */\n      tag_494\n        /* \"LiquidityToken.sol\":9385:9400  block.timestamp */\n      timestamp\n        /* \"LiquidityToken.sol\":9361:9384  updateStakingParameters */\n      tag_375\n        /* \"LiquidityToken.sol\":9361:9401  updateStakingParameters(block.timestamp) */\n      jump\t// in\n    tag_494:\n        /* \"LiquidityToken.sol\":9408:9439  uint _currentRewardPerShare1e18 */\n      0x00\n        /* \"LiquidityToken.sol\":9442:9467  currentRewardPerShare1e18 */\n      sload(0x0d)\n        /* \"LiquidityToken.sol\":9408:9467  uint _currentRewardPerShare1e18 = currentRewardPerShare1e18 */\n      swap1\n      pop\n        /* \"LiquidityToken.sol\":9488:9537  getHodlRewards(_user, _currentRewardPerShare1e18) */\n      tag_495\n        /* \"LiquidityToken.sol\":9503:9508  _user */\n      dup4\n        /* \"LiquidityToken.sol\":9510:9536  _currentRewardPerShare1e18 */\n      dup3\n        /* \"LiquidityToken.sol\":9488:9502  getHodlRewards */\n      tag_242\n        /* \"LiquidityToken.sol\":9488:9537  getHodlRewards(_user, _currentRewardPerShare1e18) */\n      jump\t// in\n    tag_495:\n        /* \"LiquidityToken.sol\":9473:9537  _hodlRewards = getHodlRewards(_user, _currentRewardPerShare1e18) */\n      swap2\n      pop\n        /* \"LiquidityToken.sol\":9578:9604  _currentRewardPerShare1e18 */\n      dup1\n        /* \"LiquidityToken.sol\":9543:9568  claimedRewardPerShare1e18 */\n      0x12\n        /* \"LiquidityToken.sol\":9543:9575  claimedRewardPerShare1e18[_user] */\n      0x00\n        /* \"LiquidityToken.sol\":9569:9574  _user */\n      dup6\n        /* \"LiquidityToken.sol\":9543:9575  claimedRewardPerShare1e18[_user] */\n      0xffffffffffffffffffffffffffffffffffffffff\n      and\n      0xffffffffffffffffffffffffffffffffffffffff\n      and\n      dup2\n      mstore\n      0x20\n      add\n      swap1\n      dup2\n      mstore\n      0x20\n      add\n      0x00\n      keccak256\n        /* \"LiquidityToken.sol\":9543:9604  claimedRewardPerShare1e18[_user] = _currentRewardPerShare1e18 */\n      dup2\n      swap1\n      sstore\n      pop\n        /* \"LiquidityToken.sol\":9615:9678  ClaimedRewardPerShareUpdated(_user, _currentRewardPerShare1e18) */\n      0x85d06bbafc9dfd05707e7a9369f98dcc505c964d1c4057022d7799ab84319f88\n        /* \"LiquidityToken.sol\":9644:9649  _user */\n      dup4\n        /* \"LiquidityToken.sol\":9651:9677  _currentRewardPerShare1e18 */\n      dup3\n        /* \"LiquidityToken.sol\":9615:9678  ClaimedRewardPerShareUpdated(_user, _currentRewardPerShare1e18) */\n      mload(0x40)\n      dup1\n      dup4\n      0xffffffffffffffffffffffffffffffffffffffff\n      and\n      dup2\n      mstore\n      0x20\n      add\n      dup3\n      dup2\n      mstore\n      0x20\n      add\n      swap3\n      pop\n      pop\n      pop\n      mload(0x40)\n      dup1\n      swap2\n      sub\n      swap1\n      log1\n        /* \"LiquidityToken.sol\":9264:9684  function updateStakingAndGetHodlRewards(address _user) private returns (uint _hodlRewards) {... */\n      pop\n      swap2\n      swap1\n      pop\n      jump\t// out\n        /* \"https://github.com/OpenZeppelin/openzeppelin-contracts/blob/v3.4.2-solc-0.7/contracts/math/SafeMath.sol\":3128:3283   */\n    tag_277:\n        /* \"https://github.com/OpenZeppelin/openzeppelin-contracts/blob/v3.4.2-solc-0.7/contracts/math/SafeMath.sol\":3186:3193   */\n      0x00\n        /* \"https://github.com/OpenZeppelin/openzeppelin-contracts/blob/v3.4.2-solc-0.7/contracts/math/SafeMath.sol\":3218:3219   */\n      dup3\n        /* \"https://github.com/OpenZeppelin/openzeppelin-contracts/blob/v3.4.2-solc-0.7/contracts/math/SafeMath.sol\":3213:3214   */\n      dup3\n        /* \"https://github.com/OpenZeppelin/openzeppelin-contracts/blob/v3.4.2-solc-0.7/contracts/math/SafeMath.sol\":3213:3219   */\n      gt\n      iszero\n        /* \"https://github.com/OpenZeppelin/openzeppelin-contracts/blob/v3.4.2-solc-0.7/contracts/math/SafeMath.sol\":3205:3254   */\n      tag_497\n      jumpi\n      mload(0x40)\n      0x08c379a000000000000000000000000000000000000000000000000000000000\n      dup2\n      mstore\n      0x04\n      add\n      dup1\n      dup1\n      0x20\n      add\n      dup3\n      dup2\n      sub\n      dup3\n      mstore\n      0x1e\n      dup2\n      mstore\n      0x20\n      add\n      dup1\n      0x536166654d6174683a207375627472616374696f6e206f766572666c6f770000\n      dup2\n      mstore\n      pop\n      0x20\n      add\n      swap2\n      pop\n      pop\n      mload(0x40)\n      dup1\n      swap2\n      sub\n      swap1\n      revert\n    tag_497:\n        /* \"https://github.com/OpenZeppelin/openzeppelin-contracts/blob/v3.4.2-solc-0.7/contracts/math/SafeMath.sol\":3275:3276   */\n      dup2\n        /* \"https://github.com/OpenZeppelin/openzeppelin-contracts/blob/v3.4.2-solc-0.7/contracts/math/SafeMath.sol\":3271:3272   */\n      dup4\n        /* \"https://github.com/OpenZeppelin/openzeppelin-contracts/blob/v3.4.2-solc-0.7/contracts/math/SafeMath.sol\":3271:3276   */\n      sub\n        /* \"https://github.com/OpenZeppelin/openzeppelin-contracts/blob/v3.4.2-solc-0.7/contracts/math/SafeMath.sol\":3264:3276   */\n      swap1\n      pop\n        /* \"https://github.com/OpenZeppelin/openzeppelin-contracts/blob/v3.4.2-solc-0.7/contracts/math/SafeMath.sol\":3128:3283   */\n      swap3\n      swap2\n      pop\n      pop\n      jump\t// out\n        /* \"https://github.com/OpenZeppelin/openzeppelin-contracts/blob/v3.4.2-solc-0.7/contracts/math/SafeMath.sol\":3530:3745   */\n    tag_282:\n        /* \"https://github.com/OpenZeppelin/openzeppelin-contracts/blob/v3.4.2-solc-0.7/contracts/math/SafeMath.sol\":3588:3595   */\n      0x00\n        /* \"https://github.com/OpenZeppelin/openzeppelin-contracts/blob/v3.4.2-solc-0.7/contracts/math/SafeMath.sol\":3616:3617   */\n      dup1\n        /* \"https://github.com/OpenZeppelin/openzeppelin-contracts/blob/v3.4.2-solc-0.7/contracts/math/SafeMath.sol\":3611:3612   */\n      dup4\n        /* \"https://github.com/OpenZeppelin/openzeppelin-contracts/blob/v3.4.2-solc-0.7/contracts/math/SafeMath.sol\":3611:3617   */\n      eq\n        /* \"https://github.com/OpenZeppelin/openzeppelin-contracts/blob/v3.4.2-solc-0.7/contracts/math/SafeMath.sol\":3607:3627   */\n      iszero\n      tag_499\n      jumpi\n        /* \"https://github.com/OpenZeppelin/openzeppelin-contracts/blob/v3.4.2-solc-0.7/contracts/math/SafeMath.sol\":3626:3627   */\n      0x00\n        /* \"https://github.com/OpenZeppelin/openzeppelin-contracts/blob/v3.4.2-solc-0.7/contracts/math/SafeMath.sol\":3619:3627   */\n      swap1\n      pop\n      jump(tag_498)\n        /* \"https://github.com/OpenZeppelin/openzeppelin-contracts/blob/v3.4.2-solc-0.7/contracts/math/SafeMath.sol\":3607:3627   */\n    tag_499:\n        /* \"https://github.com/OpenZeppelin/openzeppelin-contracts/blob/v3.4.2-solc-0.7/contracts/math/SafeMath.sol\":3637:3646   */\n      0x00\n        /* \"https://github.com/OpenZeppelin/openzeppelin-contracts/blob/v3.4.2-solc-0.7/contracts/math/SafeMath.sol\":3653:3654   */\n      dup3\n        /* \"https://github.com/OpenZeppelin/openzeppelin-contracts/blob/v3.4.2-solc-0.7/contracts/math/SafeMath.sol\":3649:3650   */\n      dup5\n        /* \"https://github.com/OpenZeppelin/openzeppelin-contracts/blob/v3.4.2-solc-0.7/contracts/math/SafeMath.sol\":3649:3654   */\n      mul\n        /* \"https://github.com/OpenZeppelin/openzeppelin-contracts/blob/v3.4.2-solc-0.7/contracts/math/SafeMath.sol\":3637:3654   */\n      swap1\n      pop\n        /* \"https://github.com/OpenZeppelin/openzeppelin-contracts/blob/v3.4.2-solc-0.7/contracts/math/SafeMath.sol\":3681:3682   */\n      dup3\n        /* \"https://github.com/OpenZeppelin/openzeppelin-contracts/blob/v3.4.2-solc-0.7/contracts/math/SafeMath.sol\":3676:3677   */\n      dup5\n        /* \"https://github.com/OpenZeppelin/openzeppelin-contracts/blob/v3.4.2-solc-0.7/contracts/math/SafeMath.sol\":3672:3673   */\n      dup3\n        /* \"https://github.com/OpenZeppelin/openzeppelin-contracts/blob/v3.4.2-solc-0.7/contracts/math/SafeMath.sol\":3672:3677   */\n      dup2\n      tag_500\n      jumpi\n      invalid\n    tag_500:\n      div\n        /* \"https://github.com/OpenZeppelin/openzeppelin-contracts/blob/v3.4.2-solc-0.7/contracts/math/SafeMath.sol\":3672:3682   */\n      eq\n        /* \"https://github.com/OpenZeppelin/openzeppelin-contracts/blob/v3.4.2-solc-0.7/contracts/math/SafeMath.sol\":3664:3720   */\n      tag_501\n      jumpi\n      mload(0x40)\n      0x08c379a000000000000000000000000000000000000000000000000000000000\n      dup2\n      mstore\n      0x04\n      add\n      dup1\n      dup1\n      0x20\n      add\n      dup3\n      dup2\n      sub\n      dup3\n      mstore\n      0x21\n      dup2\n      mstore\n      0x20\n      add\n      dup1\n      data_9113bb53c2876a3805b2c9242029423fc540a728243ce887ab24c82cf119fba3\n      0x21\n      swap2\n      codecopy\n      0x40\n      add\n      swap2\n      pop\n      pop\n      mload(0x40)\n      dup1\n      swap2\n      sub\n      swap1\n      revert\n    tag_501:\n        /* \"https://github.com/OpenZeppelin/openzeppelin-contracts/blob/v3.4.2-solc-0.7/contracts/math/SafeMath.sol\":3737:3738   */\n      dup1\n        /* \"https://github.com/OpenZeppelin/openzeppelin-contracts/blob/v3.4.2-solc-0.7/contracts/math/SafeMath.sol\":3730:3738   */\n      swap2\n      pop\n      pop\n        /* \"https://github.com/OpenZeppelin/openzeppelin-contracts/blob/v3.4.2-solc-0.7/contracts/math/SafeMath.sol\":3530:3745   */\n    tag_498:\n      swap3\n      swap2\n      pop\n      pop\n      jump\t// out\n        /* \"https://github.com/OpenZeppelin/openzeppelin-contracts/blob/v3.4.2-solc-0.7/contracts/math/SafeMath.sol\":4209:4359   */\n    tag_283:\n        /* \"https://github.com/OpenZeppelin/openzeppelin-contracts/blob/v3.4.2-solc-0.7/contracts/math/SafeMath.sol\":4267:4274   */\n      0x00\n        /* \"https://github.com/OpenZeppelin/openzeppelin-contracts/blob/v3.4.2-solc-0.7/contracts/math/SafeMath.sol\":4298:4299   */\n      dup1\n        /* \"https://github.com/OpenZeppelin/openzeppelin-contracts/blob/v3.4.2-solc-0.7/contracts/math/SafeMath.sol\":4294:4295   */\n      dup3\n        /* \"https://github.com/OpenZeppelin/openzeppelin-contracts/blob/v3.4.2-solc-0.7/contracts/math/SafeMath.sol\":4294:4299   */\n      gt\n        /* \"https://github.com/OpenZeppelin/openzeppelin-contracts/blob/v3.4.2-solc-0.7/contracts/math/SafeMath.sol\":4286:4330   */\n      tag_503\n      jumpi\n      mload(0x40)\n      0x08c379a000000000000000000000000000000000000000000000000000000000\n      dup2\n      mstore\n      0x04\n      add\n      dup1\n      dup1\n      0x20\n      add\n      dup3\n      dup2\n      sub\n      dup3\n      mstore\n      0x1a\n      dup2\n      mstore\n      0x20\n      add\n      dup1\n      0x536166654d6174683a206469766973696f6e206279207a65726f000000000000\n      dup2\n      mstore\n      pop\n      0x20\n      add\n      swap2\n      pop\n      pop\n      mload(0x40)\n      dup1\n      swap2\n      sub\n      swap1\n      revert\n    tag_503:\n        /* \"https://github.com/OpenZeppelin/openzeppelin-contracts/blob/v3.4.2-solc-0.7/contracts/math/SafeMath.sol\":4351:4352   */\n      dup2\n        /* \"https://github.com/OpenZeppelin/openzeppelin-contracts/blob/v3.4.2-solc-0.7/contracts/math/SafeMath.sol\":4347:4348   */\n      dup4\n        /* \"https://github.com/OpenZeppelin/openzeppelin-contracts/blob/v3.4.2-solc-0.7/contracts/math/SafeMath.sol\":4347:4352   */\n      dup2\n      tag_504\n      jumpi\n      invalid\n    tag_504:\n      div\n        /* \"https://github.com/OpenZeppelin/openzeppelin-contracts/blob/v3.4.2-solc-0.7/contracts/math/SafeMath.sol\":4340:4352   */\n      swap1\n      pop\n        /* \"https://github.com/OpenZeppelin/openzeppelin-contracts/blob/v3.4.2-solc-0.7/contracts/math/SafeMath.sol\":4209:4359   */\n      swap3\n      swap2\n      pop\n      pop\n      jump\t// out\n        /* \"LiquidityToken.sol\":11374:11823  function updateRewardsAfterFeesPayment(uint _fees) private {... */\n    tag_297:\n        /* \"LiquidityToken.sol\":11439:11479  uint _increasedCurrentRewardPerShare1e18 */\n      0x00\n        /* \"LiquidityToken.sol\":11482:11511  _fees.mul(1e18).div(stakedLT) */\n      tag_506\n        /* \"LiquidityToken.sol\":11502:11510  stakedLT */\n      sload(0x0e)\n        /* \"LiquidityToken.sol\":11482:11497  _fees.mul(1e18) */\n      tag_507\n        /* \"LiquidityToken.sol\":11492:11496  1e18 */\n      0x0de0b6b3a7640000\n        /* \"LiquidityToken.sol\":11482:11487  _fees */\n      dup6\n        /* \"LiquidityToken.sol\":11482:11491  _fees.mul */\n      tag_282\n      swap1\n        /* \"LiquidityToken.sol\":11482:11497  _fees.mul(1e18) */\n      swap2\n      swap1\n      0xffffffff\n      and\n      jump\t// in\n    tag_507:\n        /* \"LiquidityToken.sol\":11482:11501  _fees.mul(1e18).div */\n      tag_283\n      swap1\n        /* \"LiquidityToken.sol\":11482:11511  _fees.mul(1e18).div(stakedLT) */\n      swap2\n      swap1\n      0xffffffff\n      and\n      jump\t// in\n    tag_506:\n        /* \"LiquidityToken.sol\":11439:11511  uint _increasedCurrentRewardPerShare1e18 = _fees.mul(1e18).div(stakedLT) */\n      swap1\n      pop\n        /* \"LiquidityToken.sol\":11673:11739  currentRewardPerShare1e18.add(_increasedCurrentRewardPerShare1e18) */\n      tag_508\n        /* \"LiquidityToken.sol\":11703:11738  _increasedCurrentRewardPerShare1e18 */\n      dup2\n        /* \"LiquidityToken.sol\":11673:11698  currentRewardPerShare1e18 */\n      sload(0x0d)\n        /* \"LiquidityToken.sol\":11673:11702  currentRewardPerShare1e18.add */\n      tag_270\n      swap1\n        /* \"LiquidityToken.sol\":11673:11739  currentRewardPerShare1e18.add(_increasedCurrentRewardPerShare1e18) */\n      swap2\n      swap1\n      0xffffffff\n      and\n      jump\t// in\n    tag_508:\n        /* \"LiquidityToken.sol\":11645:11670  currentRewardPerShare1e18 */\n      0x0d\n        /* \"LiquidityToken.sol\":11645:11739  currentRewardPerShare1e18 = currentRewardPerShare1e18.add(_increasedCurrentRewardPerShare1e18) */\n      dup2\n      swap1\n      sstore\n      pop\n        /* \"LiquidityToken.sol\":11751:11818  IncreasedCurrentRewardPerShare(_increasedCurrentRewardPerShare1e18) */\n      0xb0ad669b2c654a9352811be6e1330332677e69548b033f2af030e16697749ef6\n        /* \"LiquidityToken.sol\":11782:11817  _increasedCurrentRewardPerShare1e18 */\n      dup2\n        /* \"LiquidityToken.sol\":11751:11818  IncreasedCurrentRewardPerShare(_increasedCurrentRewardPerShare1e18) */\n      mload(0x40)\n      dup1\n      dup3\n      dup2\n      mstore\n      0x20\n      add\n      swap2\n      pop\n      pop\n      mload(0x40)\n      dup1\n      swap2\n      sub\n      swap1\n      log1\n        /* \"LiquidityToken.sol\":11374:11823  function updateRewardsAfterFeesPayment(uint _fees) private {... */\n      pop\n      pop\n      jump\t// out\n        /* \"LiquidityToken.sol\":14737:14926  function ensureOnlyInterfaceProjectToken() private view {... */\n    tag_305:\n        /* \"LiquidityToken.sol\":14836:14857  interfaceProjectToken */\n      0x06\n      0x00\n      swap1\n      sload\n      swap1\n      0x0100\n      exp\n      swap1\n      div\n      0xffffffffffffffffffffffffffffffffffffffff\n      and\n        /* \"LiquidityToken.sol\":14814:14858  msg.sender == address(interfaceProjectToken) */\n      0xffffffffffffffffffffffffffffffffffffffff\n      and\n        /* \"LiquidityToken.sol\":14814:14824  msg.sender */\n      caller\n        /* \"LiquidityToken.sol\":14814:14858  msg.sender == address(interfaceProjectToken) */\n      0xffffffffffffffffffffffffffffffffffffffff\n      and\n      eq\n        /* \"LiquidityToken.sol\":14799:14921  require(... */\n      tag_510\n      jumpi\n      mload(0x40)\n      0x08c379a000000000000000000000000000000000000000000000000000000000\n      dup2\n      mstore\n      0x04\n      add\n      dup1\n      dup1\n      0x20\n      add\n      dup3\n      dup2\n      sub\n      dup3\n      mstore\n      0x2d\n      dup2\n      mstore\n      0x20\n      add\n      dup1\n      data_ab658a5d3838a0f64f2fac3f406bcac6858d06953f2c8db12e2c0c3d681620fb\n      0x2d\n      swap2\n      codecopy\n      0x40\n      add\n      swap2\n      pop\n      pop\n      mload(0x40)\n      dup1\n      swap2\n      sub\n      swap1\n      revert\n    tag_510:\n        /* \"LiquidityToken.sol\":14737:14926  function ensureOnlyInterfaceProjectToken() private view {... */\n      jump\t// out\n        /* \"https://github.com/OpenZeppelin/openzeppelin-contracts/blob/v3.4.2-solc-0.7/contracts/token/ERC20/ERC20.sol\":8507:8917   */\n    tag_308:\n        /* \"https://github.com/OpenZeppelin/openzeppelin-contracts/blob/v3.4.2-solc-0.7/contracts/token/ERC20/ERC20.sol\":8609:8610   */\n      0x00\n        /* \"https://github.com/OpenZeppelin/openzeppelin-contracts/blob/v3.4.2-solc-0.7/contracts/token/ERC20/ERC20.sol\":8590:8611   */\n      0xffffffffffffffffffffffffffffffffffffffff\n      and\n        /* \"https://github.com/OpenZeppelin/openzeppelin-contracts/blob/v3.4.2-solc-0.7/contracts/token/ERC20/ERC20.sol\":8590:8597   */\n      dup3\n        /* \"https://github.com/OpenZeppelin/openzeppelin-contracts/blob/v3.4.2-solc-0.7/contracts/token/ERC20/ERC20.sol\":8590:8611   */\n      0xffffffffffffffffffffffffffffffffffffffff\n      and\n      eq\n      iszero\n        /* \"https://github.com/OpenZeppelin/openzeppelin-contracts/blob/v3.4.2-solc-0.7/contracts/token/ERC20/ERC20.sol\":8582:8649   */\n      tag_512\n      jumpi\n      mload(0x40)\n      0x08c379a000000000000000000000000000000000000000000000000000000000\n      dup2\n      mstore\n      0x04\n      add\n      dup1\n      dup1\n      0x20\n      add\n      dup3\n      dup2\n      sub\n      dup3\n      mstore\n      0x21\n      dup2\n      mstore\n      0x20\n      add\n      dup1\n      data_b16788493b576042bb52c50ed56189e0b250db113c7bfb1c3897d25cf9632d7f\n      0x21\n      swap2\n      codecopy\n      0x40\n      add\n      swap2\n      pop\n      pop\n      mload(0x40)\n      dup1\n      swap2\n      sub\n      swap1\n      revert\n    tag_512:\n        /* \"https://github.com/OpenZeppelin/openzeppelin-contracts/blob/v3.4.2-solc-0.7/contracts/token/ERC20/ERC20.sol\":8660:8709   */\n      tag_513\n        /* \"https://github.com/OpenZeppelin/openzeppelin-contracts/blob/v3.4.2-solc-0.7/contracts/token/ERC20/ERC20.sol\":8681:8688   */\n      dup3\n        /* \"https://github.com/OpenZeppelin/openzeppelin-contracts/blob/v3.4.2-solc-0.7/contracts/token/ERC20/ERC20.sol\":8698:8699   */\n      0x00\n        /* \"https://github.com/OpenZeppelin/openzeppelin-contracts/blob/v3.4.2-solc-0.7/contracts/token/ERC20/ERC20.sol\":8702:8708   */\n      dup4\n        /* \"https://github.com/OpenZeppelin/openzeppelin-contracts/blob/v3.4.2-solc-0.7/contracts/token/ERC20/ERC20.sol\":8660:8680   */\n      tag_482\n        /* \"https://github.com/OpenZeppelin/openzeppelin-contracts/blob/v3.4.2-solc-0.7/contracts/token/ERC20/ERC20.sol\":8660:8709   */\n      jump\t// in\n    tag_513:\n        /* \"https://github.com/OpenZeppelin/openzeppelin-contracts/blob/v3.4.2-solc-0.7/contracts/token/ERC20/ERC20.sol\":8741:8809   */\n      tag_514\n        /* \"https://github.com/OpenZeppelin/openzeppelin-contracts/blob/v3.4.2-solc-0.7/contracts/token/ERC20/ERC20.sol\":8764:8770   */\n      dup2\n        /* \"https://github.com/OpenZeppelin/openzeppelin-contracts/blob/v3.4.2-solc-0.7/contracts/token/ERC20/ERC20.sol\":8741:8809   */\n      mload(0x40)\n      dup1\n      0x60\n      add\n      0x40\n      mstore\n      dup1\n      0x22\n      dup2\n      mstore\n      0x20\n      add\n      data_149b126e7125232b4200af45303d04fba8b74653b1a295a6a561a528c33fefdd\n      0x22\n      swap2\n      codecopy\n        /* \"https://github.com/OpenZeppelin/openzeppelin-contracts/blob/v3.4.2-solc-0.7/contracts/token/ERC20/ERC20.sol\":8741:8750   */\n      0x00\n        /* \"https://github.com/OpenZeppelin/openzeppelin-contracts/blob/v3.4.2-solc-0.7/contracts/token/ERC20/ERC20.sol\":8741:8759   */\n      dup1\n        /* \"https://github.com/OpenZeppelin/openzeppelin-contracts/blob/v3.4.2-solc-0.7/contracts/token/ERC20/ERC20.sol\":8751:8758   */\n      dup7\n        /* \"https://github.com/OpenZeppelin/openzeppelin-contracts/blob/v3.4.2-solc-0.7/contracts/token/ERC20/ERC20.sol\":8741:8759   */\n      0xffffffffffffffffffffffffffffffffffffffff\n      and\n      0xffffffffffffffffffffffffffffffffffffffff\n      and\n      dup2\n      mstore\n      0x20\n      add\n      swap1\n      dup2\n      mstore\n      0x20\n      add\n      0x00\n      keccak256\n      sload\n        /* \"https://github.com/OpenZeppelin/openzeppelin-contracts/blob/v3.4.2-solc-0.7/contracts/token/ERC20/ERC20.sol\":8741:8763   */\n      tag_262\n      swap1\n        /* \"https://github.com/OpenZeppelin/openzeppelin-contracts/blob/v3.4.2-solc-0.7/contracts/token/ERC20/ERC20.sol\":8741:8809   */\n      swap3\n      swap2\n      swap1\n      0xffffffff\n      and\n      jump\t// in\n    tag_514:\n        /* \"https://github.com/OpenZeppelin/openzeppelin-contracts/blob/v3.4.2-solc-0.7/contracts/token/ERC20/ERC20.sol\":8720:8729   */\n      0x00\n        /* \"https://github.com/OpenZeppelin/openzeppelin-contracts/blob/v3.4.2-solc-0.7/contracts/token/ERC20/ERC20.sol\":8720:8738   */\n      dup1\n        /* \"https://github.com/OpenZeppelin/openzeppelin-contracts/blob/v3.4.2-solc-0.7/contracts/token/ERC20/ERC20.sol\":8730:8737   */\n      dup5\n        /* \"https://github.com/OpenZeppelin/openzeppelin-contracts/blob/v3.4.2-solc-0.7/contracts/token/ERC20/ERC20.sol\":8720:8738   */\n      0xffffffffffffffffffffffffffffffffffffffff\n      and\n      0xffffffffffffffffffffffffffffffffffffffff\n      and\n      dup2\n      mstore\n      0x20\n      add\n      swap1\n      dup2\n      mstore\n      0x20\n      add\n      0x00\n      keccak256\n        /* \"https://github.com/OpenZeppelin/openzeppelin-contracts/blob/v3.4.2-solc-0.7/contracts/token/ERC20/ERC20.sol\":8720:8809   */\n      dup2\n      swap1\n      sstore\n      pop\n        /* \"https://github.com/OpenZeppelin/openzeppelin-contracts/blob/v3.4.2-solc-0.7/contracts/token/ERC20/ERC20.sol\":8834:8858   */\n      tag_515\n        /* \"https://github.com/OpenZeppelin/openzeppelin-contracts/blob/v3.4.2-solc-0.7/contracts/token/ERC20/ERC20.sol\":8851:8857   */\n      dup2\n        /* \"https://github.com/OpenZeppelin/openzeppelin-contracts/blob/v3.4.2-solc-0.7/contracts/token/ERC20/ERC20.sol\":8834:8846   */\n      sload(0x02)\n        /* \"https://github.com/OpenZeppelin/openzeppelin-contracts/blob/v3.4.2-solc-0.7/contracts/token/ERC20/ERC20.sol\":8834:8850   */\n      tag_277\n      swap1\n        /* \"https://github.com/OpenZeppelin/openzeppelin-contracts/blob/v3.4.2-solc-0.7/contracts/token/ERC20/ERC20.sol\":8834:8858   */\n      swap2\n      swap1\n      0xffffffff\n      and\n      jump\t// in\n    tag_515:\n        /* \"https://github.com/OpenZeppelin/openzeppelin-contracts/blob/v3.4.2-solc-0.7/contracts/token/ERC20/ERC20.sol\":8819:8831   */\n      0x02\n        /* \"https://github.com/OpenZeppelin/openzeppelin-contracts/blob/v3.4.2-solc-0.7/contracts/token/ERC20/ERC20.sol\":8819:8858   */\n      dup2\n      swap1\n      sstore\n      pop\n        /* \"https://github.com/OpenZeppelin/openzeppelin-contracts/blob/v3.4.2-solc-0.7/contracts/token/ERC20/ERC20.sol\":8899:8900   */\n      0x00\n        /* \"https://github.com/OpenZeppelin/openzeppelin-contracts/blob/v3.4.2-solc-0.7/contracts/token/ERC20/ERC20.sol\":8873:8910   */\n      0xffffffffffffffffffffffffffffffffffffffff\n      and\n        /* \"https://github.com/OpenZeppelin/openzeppelin-contracts/blob/v3.4.2-solc-0.7/contracts/token/ERC20/ERC20.sol\":8882:8889   */\n      dup3\n        /* \"https://github.com/OpenZeppelin/openzeppelin-contracts/blob/v3.4.2-solc-0.7/contracts/token/ERC20/ERC20.sol\":8873:8910   */\n      0xffffffffffffffffffffffffffffffffffffffff\n      and\n      0xddf252ad1be2c89b69c2b068fc378daa952ba7f163c4a11628f55a4df523b3ef\n        /* \"https://github.com/OpenZeppelin/openzeppelin-contracts/blob/v3.4.2-solc-0.7/contracts/token/ERC20/ERC20.sol\":8903:8909   */\n      dup4\n        /* \"https://github.com/OpenZeppelin/openzeppelin-contracts/blob/v3.4.2-solc-0.7/contracts/token/ERC20/ERC20.sol\":8873:8910   */\n      mload(0x40)\n      dup1\n      dup3\n      dup2\n      mstore\n      0x20\n      add\n      swap2\n      pop\n      pop\n      mload(0x40)\n      dup1\n      swap2\n      sub\n      swap1\n      log3\n        /* \"https://github.com/OpenZeppelin/openzeppelin-contracts/blob/v3.4.2-solc-0.7/contracts/token/ERC20/ERC20.sol\":8507:8917   */\n      pop\n      pop\n      jump\t// out\n        /* \"LiquidityToken.sol\":9690:10114  function updateStakingParameters(uint _blockTime) private {... */\n    tag_375:\n        /* \"LiquidityToken.sol\":9754:9785  uint _updatedRewardPerShare1e18 */\n      0x00\n        /* \"LiquidityToken.sol\":9788:9828  getUpdatedRewardPerShare1e18(_blockTime) */\n      tag_517\n        /* \"LiquidityToken.sol\":9817:9827  _blockTime */\n      dup3\n        /* \"LiquidityToken.sol\":9788:9816  getUpdatedRewardPerShare1e18 */\n      tag_169\n        /* \"LiquidityToken.sol\":9788:9828  getUpdatedRewardPerShare1e18(_blockTime) */\n      jump\t// in\n    tag_517:\n        /* \"LiquidityToken.sol\":9754:9828  uint _updatedRewardPerShare1e18 = getUpdatedRewardPerShare1e18(_blockTime) */\n      swap1\n      pop\n        /* \"LiquidityToken.sol\":9867:9892  currentRewardPerShare1e18 */\n      sload(0x0d)\n        /* \"LiquidityToken.sol\":9838:9864  _updatedRewardPerShare1e18 */\n      dup2\n        /* \"LiquidityToken.sol\":9838:9892  _updatedRewardPerShare1e18 > currentRewardPerShare1e18 */\n      gt\n        /* \"LiquidityToken.sol\":9834:10110  if (_updatedRewardPerShare1e18 > currentRewardPerShare1e18) {... */\n      iszero\n      tag_518\n      jumpi\n        /* \"LiquidityToken.sol\":9930:9956  _updatedRewardPerShare1e18 */\n      dup1\n        /* \"LiquidityToken.sol\":9902:9927  currentRewardPerShare1e18 */\n      0x0d\n        /* \"LiquidityToken.sol\":9902:9956  currentRewardPerShare1e18 = _updatedRewardPerShare1e18 */\n      dup2\n      swap1\n      sstore\n      pop\n        /* \"LiquidityToken.sol\":9992:10002  _blockTime */\n      dup2\n        /* \"LiquidityToken.sol\":9964:9989  stakingDateLastCheckpoint */\n      0x09\n        /* \"LiquidityToken.sol\":9964:10002  stakingDateLastCheckpoint = _blockTime */\n      dup2\n      swap1\n      sstore\n      pop\n        /* \"LiquidityToken.sol\":10015:10103  CurrentRewardPerShareAndStakingCheckpointUpdated(_updatedRewardPerShare1e18, _blockTime) */\n      0xe21837bef7e64daf0719e3e462b1a881d63c359c14c36a063143f9882a3a8525\n        /* \"LiquidityToken.sol\":10064:10090  _updatedRewardPerShare1e18 */\n      dup2\n        /* \"LiquidityToken.sol\":10092:10102  _blockTime */\n      dup4\n        /* \"LiquidityToken.sol\":10015:10103  CurrentRewardPerShareAndStakingCheckpointUpdated(_updatedRewardPerShare1e18, _blockTime) */\n      mload(0x40)\n      dup1\n      dup4\n      dup2\n      mstore\n      0x20\n      add\n      dup3\n      dup2\n      mstore\n      0x20\n      add\n      swap3\n      pop\n      pop\n      pop\n      mload(0x40)\n      dup1\n      swap2\n      sub\n      swap1\n      log1\n        /* \"LiquidityToken.sol\":9834:10110  if (_updatedRewardPerShare1e18 > currentRewardPerShare1e18) {... */\n    tag_518:\n        /* \"LiquidityToken.sol\":9690:10114  function updateStakingParameters(uint _blockTime) private {... */\n      pop\n      pop\n      jump\t// out\n        /* \"https://github.com/OpenZeppelin/openzeppelin-contracts/blob/v3.4.2-solc-0.7/contracts/token/ERC20/ERC20.sol\":7817:8187   */\n    tag_379:\n        /* \"https://github.com/OpenZeppelin/openzeppelin-contracts/blob/v3.4.2-solc-0.7/contracts/token/ERC20/ERC20.sol\":7919:7920   */\n      0x00\n        /* \"https://github.com/OpenZeppelin/openzeppelin-contracts/blob/v3.4.2-solc-0.7/contracts/token/ERC20/ERC20.sol\":7900:7921   */\n      0xffffffffffffffffffffffffffffffffffffffff\n      and\n        /* \"https://github.com/OpenZeppelin/openzeppelin-contracts/blob/v3.4.2-solc-0.7/contracts/token/ERC20/ERC20.sol\":7900:7907   */\n      dup3\n        /* \"https://github.com/OpenZeppelin/openzeppelin-contracts/blob/v3.4.2-solc-0.7/contracts/token/ERC20/ERC20.sol\":7900:7921   */\n      0xffffffffffffffffffffffffffffffffffffffff\n      and\n      eq\n      iszero\n        /* \"https://github.com/OpenZeppelin/openzeppelin-contracts/blob/v3.4.2-solc-0.7/contracts/token/ERC20/ERC20.sol\":7892:7957   */\n      tag_520\n      jumpi\n      mload(0x40)\n      0x08c379a000000000000000000000000000000000000000000000000000000000\n      dup2\n      mstore\n      0x04\n      add\n      dup1\n      dup1\n      0x20\n      add\n      dup3\n      dup2\n      sub\n      dup3\n      mstore\n      0x1f\n      dup2\n      mstore\n      0x20\n      add\n      dup1\n      0x45524332303a206d696e7420746f20746865207a65726f206164647265737300\n      dup2\n      mstore\n      pop\n      0x20\n      add\n      swap2\n      pop\n      pop\n      mload(0x40)\n      dup1\n      swap2\n      sub\n      swap1\n      revert\n    tag_520:\n        /* \"https://github.com/OpenZeppelin/openzeppelin-contracts/blob/v3.4.2-solc-0.7/contracts/token/ERC20/ERC20.sol\":7968:8017   */\n      tag_521\n        /* \"https://github.com/OpenZeppelin/openzeppelin-contracts/blob/v3.4.2-solc-0.7/contracts/token/ERC20/ERC20.sol\":7997:7998   */\n      0x00\n        /* \"https://github.com/OpenZeppelin/openzeppelin-contracts/blob/v3.4.2-solc-0.7/contracts/token/ERC20/ERC20.sol\":8001:8008   */\n      dup4\n        /* \"https://github.com/OpenZeppelin/openzeppelin-contracts/blob/v3.4.2-solc-0.7/contracts/token/ERC20/ERC20.sol\":8010:8016   */\n      dup4\n        /* \"https://github.com/OpenZeppelin/openzeppelin-contracts/blob/v3.4.2-solc-0.7/contracts/token/ERC20/ERC20.sol\":7968:7988   */\n      tag_482\n        /* \"https://github.com/OpenZeppelin/openzeppelin-contracts/blob/v3.4.2-solc-0.7/contracts/token/ERC20/ERC20.sol\":7968:8017   */\n      jump\t// in\n    tag_521:\n        /* \"https://github.com/OpenZeppelin/openzeppelin-contracts/blob/v3.4.2-solc-0.7/contracts/token/ERC20/ERC20.sol\":8043:8067   */\n      tag_522\n        /* \"https://github.com/OpenZeppelin/openzeppelin-contracts/blob/v3.4.2-solc-0.7/contracts/token/ERC20/ERC20.sol\":8060:8066   */\n      dup2\n        /* \"https://github.com/OpenZeppelin/openzeppelin-contracts/blob/v3.4.2-solc-0.7/contracts/token/ERC20/ERC20.sol\":8043:8055   */\n      sload(0x02)\n        /* \"https://github.com/OpenZeppelin/openzeppelin-contracts/blob/v3.4.2-solc-0.7/contracts/token/ERC20/ERC20.sol\":8043:8059   */\n      tag_270\n      swap1\n        /* \"https://github.com/OpenZeppelin/openzeppelin-contracts/blob/v3.4.2-solc-0.7/contracts/token/ERC20/ERC20.sol\":8043:8067   */\n      swap2\n      swap1\n      0xffffffff\n      and\n      jump\t// in\n    tag_522:\n        /* \"https://github.com/OpenZeppelin/openzeppelin-contracts/blob/v3.4.2-solc-0.7/contracts/token/ERC20/ERC20.sol\":8028:8040   */\n      0x02\n        /* \"https://github.com/OpenZeppelin/openzeppelin-contracts/blob/v3.4.2-solc-0.7/contracts/token/ERC20/ERC20.sol\":8028:8067   */\n      dup2\n      swap1\n      sstore\n      pop\n        /* \"https://github.com/OpenZeppelin/openzeppelin-contracts/blob/v3.4.2-solc-0.7/contracts/token/ERC20/ERC20.sol\":8098:8128   */\n      tag_523\n        /* \"https://github.com/OpenZeppelin/openzeppelin-contracts/blob/v3.4.2-solc-0.7/contracts/token/ERC20/ERC20.sol\":8121:8127   */\n      dup2\n        /* \"https://github.com/OpenZeppelin/openzeppelin-contracts/blob/v3.4.2-solc-0.7/contracts/token/ERC20/ERC20.sol\":8098:8107   */\n      0x00\n        /* \"https://github.com/OpenZeppelin/openzeppelin-contracts/blob/v3.4.2-solc-0.7/contracts/token/ERC20/ERC20.sol\":8098:8116   */\n      dup1\n        /* \"https://github.com/OpenZeppelin/openzeppelin-contracts/blob/v3.4.2-solc-0.7/contracts/token/ERC20/ERC20.sol\":8108:8115   */\n      dup6\n        /* \"https://github.com/OpenZeppelin/openzeppelin-contracts/blob/v3.4.2-solc-0.7/contracts/token/ERC20/ERC20.sol\":8098:8116   */\n      0xffffffffffffffffffffffffffffffffffffffff\n      and\n      0xffffffffffffffffffffffffffffffffffffffff\n      and\n      dup2\n      mstore\n      0x20\n      add\n      swap1\n      dup2\n      mstore\n      0x20\n      add\n      0x00\n      keccak256\n      sload\n        /* \"https://github.com/OpenZeppelin/openzeppelin-contracts/blob/v3.4.2-solc-0.7/contracts/token/ERC20/ERC20.sol\":8098:8120   */\n      tag_270\n      swap1\n        /* \"https://github.com/OpenZeppelin/openzeppelin-contracts/blob/v3.4.2-solc-0.7/contracts/token/ERC20/ERC20.sol\":8098:8128   */\n      swap2\n      swap1\n      0xffffffff\n      and\n      jump\t// in\n    tag_523:\n        /* \"https://github.com/OpenZeppelin/openzeppelin-contracts/blob/v3.4.2-solc-0.7/contracts/token/ERC20/ERC20.sol\":8077:8086   */\n      0x00\n        /* \"https://github.com/OpenZeppelin/openzeppelin-contracts/blob/v3.4.2-solc-0.7/contracts/token/ERC20/ERC20.sol\":8077:8095   */\n      dup1\n        /* \"https://github.com/OpenZeppelin/openzeppelin-contracts/blob/v3.4.2-solc-0.7/contracts/token/ERC20/ERC20.sol\":8087:8094   */\n      dup5\n        /* \"https://github.com/OpenZeppelin/openzeppelin-contracts/blob/v3.4.2-solc-0.7/contracts/token/ERC20/ERC20.sol\":8077:8095   */\n      0xffffffffffffffffffffffffffffffffffffffff\n      and\n      0xffffffffffffffffffffffffffffffffffffffff\n      and\n      dup2\n      mstore\n      0x20\n      add\n      swap1\n      dup2\n      mstore\n      0x20\n      add\n      0x00\n      keccak256\n        /* \"https://github.com/OpenZeppelin/openzeppelin-contracts/blob/v3.4.2-solc-0.7/contracts/token/ERC20/ERC20.sol\":8077:8128   */\n      dup2\n      swap1\n      sstore\n      pop\n        /* \"https://github.com/OpenZeppelin/openzeppelin-contracts/blob/v3.4.2-solc-0.7/contracts/token/ERC20/ERC20.sol\":8164:8171   */\n      dup2\n        /* \"https://github.com/OpenZeppelin/openzeppelin-contracts/blob/v3.4.2-solc-0.7/contracts/token/ERC20/ERC20.sol\":8143:8180   */\n      0xffffffffffffffffffffffffffffffffffffffff\n      and\n        /* \"https://github.com/OpenZeppelin/openzeppelin-contracts/blob/v3.4.2-solc-0.7/contracts/token/ERC20/ERC20.sol\":8160:8161   */\n      0x00\n        /* \"https://github.com/OpenZeppelin/openzeppelin-contracts/blob/v3.4.2-solc-0.7/contracts/token/ERC20/ERC20.sol\":8143:8180   */\n      0xffffffffffffffffffffffffffffffffffffffff\n      and\n      0xddf252ad1be2c89b69c2b068fc378daa952ba7f163c4a11628f55a4df523b3ef\n        /* \"https://github.com/OpenZeppelin/openzeppelin-contracts/blob/v3.4.2-solc-0.7/contracts/token/ERC20/ERC20.sol\":8173:8179   */\n      dup4\n        /* \"https://github.com/OpenZeppelin/openzeppelin-contracts/blob/v3.4.2-solc-0.7/contracts/token/ERC20/ERC20.sol\":8143:8180   */\n      mload(0x40)\n      dup1\n      dup3\n      dup2\n      mstore\n      0x20\n      add\n      swap2\n      pop\n      pop\n      mload(0x40)\n      dup1\n      swap2\n      sub\n      swap1\n      log3\n        /* \"https://github.com/OpenZeppelin/openzeppelin-contracts/blob/v3.4.2-solc-0.7/contracts/token/ERC20/ERC20.sol\":7817:8187   */\n      pop\n      pop\n      jump\t// out\n        /* \"LiquidityToken.sol\":7741:8058  function checkProjectNotYetLaunched() private view {... */\n    tag_427:\n        /* \"LiquidityToken.sol\":7844:7847  0x0 */\n      0x00\n        /* \"LiquidityToken.sol\":7802:7848  address(interfaceProjectToken) != address(0x0) */\n      0xffffffffffffffffffffffffffffffffffffffff\n      and\n        /* \"LiquidityToken.sol\":7810:7831  interfaceProjectToken */\n      0x06\n      0x00\n      swap1\n      sload\n      swap1\n      0x0100\n      exp\n      swap1\n      div\n      0xffffffffffffffffffffffffffffffffffffffff\n      and\n        /* \"LiquidityToken.sol\":7802:7848  address(interfaceProjectToken) != address(0x0) */\n      0xffffffffffffffffffffffffffffffffffffffff\n      and\n      eq\n        /* \"LiquidityToken.sol\":7798:8054  if (address(interfaceProjectToken) != address(0x0)) {... */\n      tag_525\n      jumpi\n        /* \"LiquidityToken.sol\":7859:7875  uint _dateLaunch */\n      0x00\n        /* \"LiquidityToken.sol\":7878:7899  interfaceProjectToken */\n      0x06\n      0x00\n      swap1\n      sload\n      swap1\n      0x0100\n      exp\n      swap1\n      div\n      0xffffffffffffffffffffffffffffffffffffffff\n      and\n        /* \"LiquidityToken.sol\":7878:7910  interfaceProjectToken.dateLaunch */\n      0xffffffffffffffffffffffffffffffffffffffff\n      and\n      0xfd726827\n        /* \"LiquidityToken.sol\":7878:7912  interfaceProjectToken.dateLaunch() */\n      mload(0x40)\n      dup2\n      0xffffffff\n      and\n      0xe0\n      shl\n      dup2\n      mstore\n      0x04\n      add\n      0x20\n      mload(0x40)\n      dup1\n      dup4\n      sub\n      dup2\n      dup7\n      dup1\n      extcodesize\n      iszero\n      dup1\n      iszero\n      tag_526\n      jumpi\n      0x00\n      dup1\n      revert\n    tag_526:\n      pop\n      gas\n      staticcall\n      iszero\n      dup1\n      iszero\n      tag_528\n      jumpi\n      returndatasize\n      0x00\n      dup1\n      returndatacopy\n      revert(0x00, returndatasize)\n    tag_528:\n      pop\n      pop\n      pop\n      pop\n      mload(0x40)\n      returndatasize\n      0x20\n      dup2\n      lt\n      iszero\n      tag_529\n      jumpi\n      0x00\n      dup1\n      revert\n    tag_529:\n      dup2\n      add\n      swap1\n      dup1\n      dup1\n      mload\n      swap1\n      0x20\n      add\n      swap1\n      swap3\n      swap2\n      swap1\n      pop\n      pop\n      pop\n        /* \"LiquidityToken.sol\":7859:7912  uint _dateLaunch = interfaceProjectToken.dateLaunch() */\n      swap1\n      pop\n        /* \"LiquidityToken.sol\":7939:7940  0 */\n      0x00\n        /* \"LiquidityToken.sol\":7925:7936  _dateLaunch */\n      dup2\n        /* \"LiquidityToken.sol\":7925:7940  _dateLaunch > 0 */\n      gt\n        /* \"LiquidityToken.sol\":7921:8048  if (_dateLaunch > 0) {... */\n      iszero\n      tag_530\n      jumpi\n        /* \"LiquidityToken.sol\":7989:8000  _dateLaunch */\n      dup1\n        /* \"LiquidityToken.sol\":7971:7986  block.timestamp */\n      timestamp\n        /* \"LiquidityToken.sol\":7971:8000  block.timestamp < _dateLaunch */\n      lt\n        /* \"LiquidityToken.sol\":7952:8039  require(... */\n      tag_531\n      jumpi\n      mload(0x40)\n      0x08c379a000000000000000000000000000000000000000000000000000000000\n      dup2\n      mstore\n      0x04\n      add\n      dup1\n      dup1\n      0x20\n      add\n      dup3\n      dup2\n      sub\n      dup3\n      mstore\n      0x18\n      dup2\n      mstore\n      0x20\n      add\n      dup1\n      0x50726f6a65637420616c7265616479206c61756e636865640000000000000000\n      dup2\n      mstore\n      pop\n      0x20\n      add\n      swap2\n      pop\n      pop\n      mload(0x40)\n      dup1\n      swap2\n      sub\n      swap1\n      revert\n    tag_531:\n        /* \"LiquidityToken.sol\":7921:8048  if (_dateLaunch > 0) {... */\n    tag_530:\n        /* \"LiquidityToken.sol\":7798:8054  if (address(interfaceProjectToken) != address(0x0)) {... */\n      pop\n    tag_525:\n        /* \"LiquidityToken.sol\":7741:8058  function checkProjectNotYetLaunched() private view {... */\n      jump\t// out\n        /* \"https://github.com/OpenZeppelin/openzeppelin-contracts/blob/v3.4.2-solc-0.7/contracts/token/ERC20/ERC20.sol\":10686:10778   */\n    tag_482:\n      pop\n      pop\n      pop\n      jump\t// out\n    stop\n    data_0557e210f7a69a685100a7e4e3d0a7024c546085cee28910fd17d0b081d9516f 45524332303a207472616e7366657220746f20746865207a65726f2061646472657373\n    data_149b126e7125232b4200af45303d04fba8b74653b1a295a6a561a528c33fefdd 45524332303a206275726e20616d6f756e7420657863656564732062616c616e6365\n    data_245f15ff17f551913a7a18385165551503906a406f905ac1c2437281a7cd0cfe 4f776e61626c653a206e6577206f776e657220697320746865207a65726f2061646472657373\n    data_24883cc5fe64ace9d0df1893501ecb93c77180f0ff69cca79affb3c316dc8029 45524332303a20617070726f766520746f20746865207a65726f2061646472657373\n    data_4107e8a8b9e94bf8ff83080ddec1c0bffe897ebc2241b89d44f66b3d274088b6 45524332303a207472616e7366657220616d6f756e7420657863656564732062616c616e6365\n    data_45ef06a394c98c8868792d544928cc991879a78fc8cb2f23d6e67cae100d6cc1 4d6178696d756d20696e697469616c20746f6b656e20616c6c6f636174696f6e206578636565646564\n    data_8e91a5b1272f4e4f61e64b47d7c1a5143a07d7fd64ea1b240af506d9edc55eeb 5472616e73616374696f6e73206172652063757272656e746c792064697361626c6564\n    data_9113bb53c2876a3805b2c9242029423fc540a728243ce887ab24c82cf119fba3 536166654d6174683a206d756c7469706c69636174696f6e206f766572666c6f77\n    data_91f8f41b83b29f8c4a639991eacdcd9c25ac1408b42ec8d46fde92bf8ffd9bf0 4d617820616c6c6f77656420746f6b656e20616d6f756e74206578636565646564\n    data_974d1b4421da69cc60b481194f0dad36a5bb4e23da810da7a7fb30cdba178330 45524332303a207472616e7366657220616d6f756e74206578636565647320616c6c6f77616e6365\n    data_a795cebbe87cbaa718b98376a54958a9f2ac9be73ba32fe7cff080028a31f20e 43757272656e74207374616b696e672063616d706169676e206973206e6f74206f76657220796574\n    data_ab658a5d3838a0f64f2fac3f406bcac6858d06953f2c8db12e2c0c3d681620fb 4f6e6c792076616c69646174656420496e7465726661636550726f6a656374546f6b656e20436f6e7472616374\n    data_b16788493b576042bb52c50ed56189e0b250db113c7bfb1c3897d25cf9632d7f 45524332303a206275726e2066726f6d20746865207a65726f2061646472657373\n    data_baecc556b46f4ed0f2b4cb599d60785ac8563dd2dc0a5bf12edea1c39e5e1fea 45524332303a207472616e736665722066726f6d20746865207a65726f2061646472657373\n    data_c953f4879035ed60e766b34720f656aab5c697b141d924c283124ecedb91c208 45524332303a20617070726f76652066726f6d20746865207a65726f2061646472657373\n    data_cc1ac84f1f31a634a17a4ddce30b05f5fb9fdd55515de86fb1d919f165b3a5aa 5374617274696e672064617465206d7573742062652061667465722063757272656e74206461746520616e64207374616b696e67206475726174696f6e206d7573742062652067726561746572207468616e2030\n    data_f2240f5a918e8df78ef0222ad9355ea418dab0d59997deefa8646c9cb441c6d5 50726f766964652073616d6520616d6f756e74206f662076616c756573206173207573657273\n    data_f8b476f7d28209d77d4a4ac1fe36b9f8259aa1bb6bddfa6e89de7e51615cf8a8 45524332303a2064656372656173656420616c6c6f77616e63652062656c6f77207a65726f\n\n    auxdata: 0xa2646970667358221220aab448da8d9bb5a9c3b74dea3465f5f659af530d7bf503d18083026967ac3c1b64736f6c63430007060033\n}\n",
    "bytecode": {
      "linkReferences": {},
      "object": "6101806040526103e8600c553480156200001857600080fd5b506040516200559b3803806200559b83398181016040526101408110156200003f57600080fd5b81019080805160405193929190846401000000008211156200006057600080fd5b838201915060208201858111156200007757600080fd5b82518660018202830111640100000000821117156200009557600080fd5b8083526020830192505050908051906020019080838360005b83811015620000cb578082015181840152602081019050620000ae565b50505050905090810190601f168015620000f95780820380516001836020036101000a031916815260200191505b50604052602001805160405193929190846401000000008211156200011d57600080fd5b838201915060208201858111156200013457600080fd5b82518660018202830111640100000000821117156200015257600080fd5b8083526020830192505050908051906020019080838360005b83811015620001885780820151818401526020810190506200016b565b50505050905090810190601f168015620001b65780820380516001836020036101000a031916815260200191505b506040526020018051906020019092919080519060200190929190805190602001909291908051906020019092919080519060200190929190805190602001909291908051906020019092919080519060200190929190505050898981600390805190602001906200022a929190620004f0565b50806004908051906020019062000243929190620004f0565b506012600560006101000a81548160ff021916908360ff1602179055505050600062000274620004e860201b60201c565b905080600560016101000a81548173ffffffffffffffffffffffffffffffffffffffff021916908373ffffffffffffffffffffffffffffffffffffffff1602179055508073ffffffffffffffffffffffffffffffffffffffff16600073ffffffffffffffffffffffffffffffffffffffff167f8be0079c531659141344cd1fd0a4f28419497f9722a3daafe3b4186f6b6457e060405160405180910390a35060008614156200037f576103e8881462000379576040517f08c379a0000000000000000000000000000000000000000000000000000000008152600401808060200182810382526034815260200180620055396034913960400191505060405180910390fd5b620003dc565b6103e88810620003db576040517f08c379a0000000000000000000000000000000000000000000000000000000008152600401808060200182810382526026815260200180620055136026913960400191505060405180910390fd5b5b6103e8851062000438576040517f08c379a000000000000000000000000000000000000000000000000000000000815260040180806020018281038252602e8152602001806200556d602e913960400191505060405180910390fd5b6103e8841062000494576040517f08c379a0000000000000000000000000000000000000000000000000000000008152600401808060200182810382526029815260200180620054ea6029913960400191505060405180910390fd5b8660a081815250508560c0818152505087608081815250508461010081815250508361012081815250508261014081815250508161016081815250508060e0818152505050505050505050505050620005a6565b600033905090565b828054600181600116156101000203166002900490600052602060002090601f01602090048101928262000528576000855562000574565b82601f106200054357805160ff191683800117855562000574565b8280016001018555821562000574579182015b828111156200057357825182559160200191906001019062000556565b5b50905062000583919062000587565b5090565b5b80821115620005a257600081600090555060010162000588565b5090565b60805160a05160c05160e05161010051610120516101405161016051614ed262000618600039806122f3528061281d5250806112af52806128a152508061204552508061234e5280612cf352508061231752806137285250806138435250806115ae5250806114245250614ed26000f3fe608060405234801561001057600080fd5b50600436106103af5760003560e01c806382af7d39116101f4578063a74536e01161011a578063dd62ed3e116100ad578063efb5c2f31161007c578063efb5c2f3146110bb578063f2fde38b14611113578063f331a86714611157578063fb3da54514611185576103af565b8063dd62ed3e14610eaf578063df91081714610f27578063e0d0c5671461107f578063e54dd98a1461109d576103af565b8063c96877a2116100e9578063c96877a214610df1578063d49d18d614610e0f578063da3a593614610e3d578063dccdc99514610e6b576103af565b8063a74536e014610d37578063a9059cbb14610d41578063abfdce2c14610da5578063bf777f8214610dc3576103af565b806393ef357a116101925780639c3bcbb1116101615780639c3bcbb114610c2f5780639f65ffb014610c39578063a1b0c41214610c91578063a457c2d714610cd3576103af565b806393ef357a14610b1657806395230a8014610b3457806395d89b4114610b8c5780639863d64414610c0f576103af565b80638a1e4393116101ce5780638a1e439314610a625780638aa03a3c14610a825780638da5cb5b14610aa0578063908a6bf014610ad4576103af565b806382af7d39146109d857806382fb82f514610a2657806386982e6114610a44576103af565b80635798b1ff116102d957806372b990b51161027757806378e104da1161024657806378e104da146109605780637ccf02261461097e5780637e267f391461099c5780638005a7de146109ba576103af565b806372b990b51461085a578063740c34951461088857806374ddcd1d146108ea5780637561ea9a14610908576103af565b80636c1f89ed116102b35780636c1f89ed146107ac5780636d69847d146107ca57806370a08231146107f8578063715018a614610850576103af565b80635798b1ff1461076457806363cf3cff1461076e5780636a4bd5a61461078e576103af565b80632945ac6811610351578063395093511161032057806339509351146106805780633e332f16146106e45780633f2b437d14610718578063483f3ac714610736576103af565b80632945ac681461058357806330400a86146105a1578063305e2daf14610607578063313ce5671461065f576103af565b80631387520a1161038d5780631387520a146104b957806318160ddd146104d75780631f93abd4146104f557806323b872dd146104ff576103af565b806303ff8e88146103b457806306fdde03146103d2578063095ea7b314610455575b600080fd5b6103bc6111e7565b6040518082815260200191505060405180910390f35b6103da6111ed565b6040518080602001828103825283818151815260200191508051906020019080838360005b8381101561041a5780820151818401526020810190506103ff565b50505050905090810190601f1680156104475780820380516001836020036101000a031916815260200191505b509250505060405180910390f35b6104a16004803603604081101561046b57600080fd5b81019080803573ffffffffffffffffffffffffffffffffffffffff1690602001909291908035906020019092919050505061128f565b60405180821515815260200191505060405180910390f35b6104c16112ad565b6040518082815260200191505060405180910390f35b6104df6112d1565b6040518082815260200191505060405180910390f35b6104fd6112db565b005b61056b6004803603606081101561051557600080fd5b81019080803573ffffffffffffffffffffffffffffffffffffffff169060200190929190803573ffffffffffffffffffffffffffffffffffffffff16906020019092919080359060200190929190505050611349565b60405180821515815260200191505060405180910390f35b61058b611422565b6040518082815260200191505060405180910390f35b6105e3600480360360208110156105b757600080fd5b81019080803573ffffffffffffffffffffffffffffffffffffffff169060200190929190505050611446565b60405180848152602001838152602001828152602001935050505060405180910390f35b6106496004803603602081101561061d57600080fd5b81019080803573ffffffffffffffffffffffffffffffffffffffff169060200190929190505050611470565b6040518082815260200191505060405180910390f35b6106676114bc565b604051808260ff16815260200191505060405180910390f35b6106cc6004803603604081101561069657600080fd5b81019080803573ffffffffffffffffffffffffffffffffffffffff169060200190929190803590602001909291905050506114d3565b60405180821515815260200191505060405180910390f35b6106ec611586565b604051808273ffffffffffffffffffffffffffffffffffffffff16815260200191505060405180910390f35b6107206115ac565b6040518082815260200191505060405180910390f35b6107626004803603602081101561074c57600080fd5b81019080803590602001909291905050506115d0565b005b61076c611965565b005b610776611a5d565b60405180821515815260200191505060405180910390f35b610796611a70565b6040518082815260200191505060405180910390f35b6107b4611a76565b6040518082815260200191505060405180910390f35b6107f6600480360360208110156107e057600080fd5b8101908080359060200190929190505050611a7c565b005b61083a6004803603602081101561080e57600080fd5b81019080803573ffffffffffffffffffffffffffffffffffffffff169060200190929190505050611a91565b6040518082815260200191505060405180910390f35b610858611ad9565b005b6108866004803603602081101561087057600080fd5b8101908080359060200190929190505050611c49565b005b6108e86004803603608081101561089e57600080fd5b81019080803573ffffffffffffffffffffffffffffffffffffffff169060200190929190803590602001909291908035906020019092919080359060200190929190505050611db1565b005b6108f2611ff1565b6040518082815260200191505060405180910390f35b61094a6004803603602081101561091e57600080fd5b81019080803573ffffffffffffffffffffffffffffffffffffffff169060200190929190505050611ff7565b6040518082815260200191505060405180910390f35b610968612043565b6040518082815260200191505060405180910390f35b610986612067565b6040518082815260200191505060405180910390f35b6109a461206d565b6040518082815260200191505060405180910390f35b6109c2612073565b6040518082815260200191505060405180910390f35b610a24600480360360408110156109ee57600080fd5b81019080803573ffffffffffffffffffffffffffffffffffffffff16906020019092919080359060200190929190505050612079565b005b610a2e6122f1565b6040518082815260200191505060405180910390f35b610a4c612315565b6040518082815260200191505060405180910390f35b610a6a612339565b60405180821515815260200191505060405180910390f35b610a8a61234c565b6040518082815260200191505060405180910390f35b610aa8612370565b604051808273ffffffffffffffffffffffffffffffffffffffff16815260200191505060405180910390f35b610b0060048036036020811015610aea57600080fd5b810190808035906020019092919050505061239a565b6040518082815260200191505060405180910390f35b610b1e612472565b6040518082815260200191505060405180910390f35b610b7660048036036020811015610b4a57600080fd5b81019080803573ffffffffffffffffffffffffffffffffffffffff169060200190929190505050612478565b6040518082815260200191505060405180910390f35b610b94612490565b6040518080602001828103825283818151815260200191508051906020019080838360005b83811015610bd4578082015181840152602081019050610bb9565b50505050905090810190601f168015610c015780820380516001836020036101000a031916815260200191505b509250505060405180910390f35b610c17612532565b60405180821515815260200191505060405180910390f35b610c37612545565b005b610c7b60048036036020811015610c4f57600080fd5b81019080803573ffffffffffffffffffffffffffffffffffffffff16906020019092919050505061263d565b6040518082815260200191505060405180910390f35b610cd160048036036060811015610ca757600080fd5b81019080803590602001909291908035906020019092919080359060200190929190505050612689565b005b610d1f60048036036040811015610ce957600080fd5b81019080803573ffffffffffffffffffffffffffffffffffffffff16906020019092919080359060200190929190505050612a37565b60405180821515815260200191505060405180910390f35b610d3f612b04565b005b610d8d60048036036040811015610d5757600080fd5b81019080803573ffffffffffffffffffffffffffffffffffffffff16906020019092919080359060200190929190505050612c1e565b60405180821515815260200191505060405180910390f35b610dad612c3c565b6040518082815260200191505060405180910390f35b610def60048036036020811015610dd957600080fd5b8101908080359060200190929190505050612c42565b005b610df9612dc8565b6040518082815260200191505060405180910390f35b610e3b60048036036020811015610e2557600080fd5b8101908080359060200190929190505050612dce565b005b610e6960048036036020811015610e5357600080fd5b8101908080359060200190929190505050613027565b005b610ead60048036036020811015610e8157600080fd5b81019080803573ffffffffffffffffffffffffffffffffffffffff16906020019092919050505061303c565b005b610f1160048036036040811015610ec557600080fd5b81019080803573ffffffffffffffffffffffffffffffffffffffff169060200190929190803573ffffffffffffffffffffffffffffffffffffffff1690602001909291905050506132a8565b6040518082815260200191505060405180910390f35b61107d60048036036060811015610f3d57600080fd5b8101908080359060200190640100000000811115610f5a57600080fd5b820183602082011115610f6c57600080fd5b80359060200191846020830284011164010000000083111715610f8e57600080fd5b919080806020026020016040519081016040528093929190818152602001838360200280828437600081840152601f19601f82011690508083019250505050505050919291929080359060200190640100000000811115610fee57600080fd5b82018360208201111561100057600080fd5b8035906020019184602083028401116401000000008311171561102257600080fd5b919080806020026020016040519081016040528093929190818152602001838360200280828437600081840152601f19601f82011690508083019250505050505050919291929080351515906020019092919050505061332f565b005b61108761383b565b6040518082815260200191505060405180910390f35b6110a5613841565b6040518082815260200191505060405180910390f35b6110fd600480360360208110156110d157600080fd5b81019080803573ffffffffffffffffffffffffffffffffffffffff169060200190929190505050613865565b6040518082815260200191505060405180910390f35b6111556004803603602081101561112957600080fd5b81019080803573ffffffffffffffffffffffffffffffffffffffff16906020019092919050505061387f565b005b6111836004803603602081101561116d57600080fd5b8101908080359060200190929190505050613a74565b005b6111d16004803603604081101561119b57600080fd5b81019080803573ffffffffffffffffffffffffffffffffffffffff16906020019092919080359060200190929190505050613a88565b6040518082815260200191505060405180910390f35b600a5481565b606060038054600181600116156101000203166002900480601f0160208091040260200160405190810160405280929190818152602001828054600181600116156101000203166002900480156112855780601f1061125a57610100808354040283529160200191611285565b820191906000526020600020905b81548152906001019060200180831161126857829003601f168201915b5050505050905090565b60006112a361129c613cda565b8484613ce2565b6001905092915050565b7f000000000000000000000000000000000000000000000000000000000000000081565b6000600254905090565b60001515601160009054906101000a900460ff16151514611347576040517f08c379a0000000000000000000000000000000000000000000000000000000008152600401808060200182810382526023815260200180614cb26023913960400191505060405180910390fd5b565b6000611356848484613ed9565b61141784611362613cda565b61141285604051806060016040528060288152602001614d1760289139600160008b73ffffffffffffffffffffffffffffffffffffffff1673ffffffffffffffffffffffffffffffffffffffff16815260200190815260200160002060006113c8613cda565b73ffffffffffffffffffffffffffffffffffffffff1673ffffffffffffffffffffffffffffffffffffffff1681526020019081526020016000205461419a9092919063ffffffff16565b613ce2565b600190509392505050565b7f000000000000000000000000000000000000000000000000000000000000000081565b60136020528060005260406000206000915090508060000154908060010154908060020154905083565b6000601360008373ffffffffffffffffffffffffffffffffffffffff1673ffffffffffffffffffffffffffffffffffffffff168152602001908152602001600020600201549050919050565b6000600560009054906101000a900460ff16905090565b600061157c6114e0613cda565b8461157785600160006114f1613cda565b73ffffffffffffffffffffffffffffffffffffffff1673ffffffffffffffffffffffffffffffffffffffff16815260200190815260200160002060008973ffffffffffffffffffffffffffffffffffffffff1673ffffffffffffffffffffffffffffffffffffffff1681526020019081526020016000205461425490919063ffffffff16565b613ce2565b6001905092915050565b600660009054906101000a900473ffffffffffffffffffffffffffffffffffffffff1681565b7f000000000000000000000000000000000000000000000000000000000000000081565b6115d86112db565b601360003373ffffffffffffffffffffffffffffffffffffffff1673ffffffffffffffffffffffffffffffffffffffff16815260200190815260200160002060000154811115611690576040517f08c379a00000000000000000000000000000000000000000000000000000000081526004018080602001828103825260208152602001807f416d6f756e74206578636565647320617661696c61626c652062616c616e636581525060200191505060405180910390fd5b600061169b336142dc565b905060006116f483601360003373ffffffffffffffffffffffffffffffffffffffff1673ffffffffffffffffffffffffffffffffffffffff1681526020019081526020016000206000015461439990919063ffffffff16565b601360003373ffffffffffffffffffffffffffffffffffffffff1673ffffffffffffffffffffffffffffffffffffffff1681526020019081526020016000206000018190555061174f83600e5461439990919063ffffffff16565b600e819055507e27b57dd0f4617eb13b9347dc92a2c7404c6bcdb2349863c760672bda4948073384604051808373ffffffffffffffffffffffffffffffffffffffff1681526020018281526020019250505060405180910390a16000600e5411156117e0576117dd6103e86117cf6010548661441c90919063ffffffff16565b6144a290919063ffffffff16565b90505b6000611807826117f9858761425490919063ffffffff16565b61439990919063ffffffff16565b9050611814303383613ed9565b600061183f6103e8611831600c548661441c90919063ffffffff16565b6144a290919063ffffffff16565b90506118de303073ffffffffffffffffffffffffffffffffffffffff16638da5cb5b6040518163ffffffff1660e01b815260040160206040518083038186803b15801561188b57600080fd5b505afa15801561189f573d6000803e3d6000fd5b505050506040513d60208110156118b557600080fd5b81019080805190602001909291905050506118d9848761439990919063ffffffff16565b613ed9565b60008111156118f1576118f08161452b565b5b7f33ef926b7771df44fd5bf5a690410374540aa634051af1e3a6dd2f67c94a18f13383858488604051808673ffffffffffffffffffffffffffffffffffffffff1681526020018581526020018481526020018381526020018281526020019550505050505060405180910390a15050505050565b61196d613cda565b73ffffffffffffffffffffffffffffffffffffffff1661198b612370565b73ffffffffffffffffffffffffffffffffffffffff1614611a14576040517f08c379a00000000000000000000000000000000000000000000000000000000081526004018080602001828103825260208152602001807f4f776e61626c653a2063616c6c6572206973206e6f7420746865206f776e657281525060200191505060405180910390fd5b6001601160016101000a81548160ff0219169083151502179055507fb72c13e7fe7b7c2ac9e1b8ca3f0f5cb08bd8ca2b1c556fbf9b45c95a15a5354360405160405180910390a1565b601160009054906101000a900460ff1681565b600f5481565b60095481565b611a846145b4565b611a8e308261465c565b50565b60008060008373ffffffffffffffffffffffffffffffffffffffff1673ffffffffffffffffffffffffffffffffffffffff168152602001908152602001600020549050919050565b611ae1613cda565b73ffffffffffffffffffffffffffffffffffffffff16611aff612370565b73ffffffffffffffffffffffffffffffffffffffff1614611b88576040517f08c379a00000000000000000000000000000000000000000000000000000000081526004018080602001828103825260208152602001807f4f776e61626c653a2063616c6c6572206973206e6f7420746865206f776e657281525060200191505060405180910390fd5b600073ffffffffffffffffffffffffffffffffffffffff16600560019054906101000a900473ffffffffffffffffffffffffffffffffffffffff1673ffffffffffffffffffffffffffffffffffffffff167f8be0079c531659141344cd1fd0a4f28419497f9722a3daafe3b4186f6b6457e060405160405180910390a36000600560016101000a81548173ffffffffffffffffffffffffffffffffffffffff021916908373ffffffffffffffffffffffffffffffffffffffff160217905550565b611c51613cda565b73ffffffffffffffffffffffffffffffffffffffff16611c6f612370565b73ffffffffffffffffffffffffffffffffffffffff1614611cf8576040517f08c379a00000000000000000000000000000000000000000000000000000000081526004018080602001828103825260208152602001807f4f776e61626c653a2063616c6c6572206973206e6f7420746865206f776e657281525060200191505060405180910390fd5b6103e8811115611d70576040517f08c379a000000000000000000000000000000000000000000000000000000000815260040180806020018281038252600d8152602001807f496e76616c69642076616c75650000000000000000000000000000000000000081525060200191505060405180910390fd5b80600c819055507f33ba6df77b2071829f387d2122b96309cbbd439fa4b0532cfd8d5e6f7cd4dcbb816040518082815260200191505060405180910390a150565b611db96145b4565b611e0e83601360008773ffffffffffffffffffffffffffffffffffffffff1673ffffffffffffffffffffffffffffffffffffffff1681526020019081526020016000206000015461425490919063ffffffff16565b601360008673ffffffffffffffffffffffffffffffffffffffff1673ffffffffffffffffffffffffffffffffffffffff168152602001908152602001600020600001819055507fae2006c94e89f8083efda0c0a1d0c7d6fef3ec90d68506aa822854f3ba31f9cf8484604051808373ffffffffffffffffffffffffffffffffffffffff1681526020018281526020019250505060405180910390a1611efe82601360008773ffffffffffffffffffffffffffffffffffffffff1673ffffffffffffffffffffffffffffffffffffffff1681526020019081526020016000206001015461439990919063ffffffff16565b601360008673ffffffffffffffffffffffffffffffffffffffff1673ffffffffffffffffffffffffffffffffffffffff168152602001908152602001600020600101819055507f7d2875641484b55002ee757b3ad03d920e7ace29b381cff35a357041b20d612e8483604051808373ffffffffffffffffffffffffffffffffffffffff1681526020018281526020019250505060405180910390a1611fae81600e5461425490919063ffffffff16565b600e819055507f12129930c15dad4632242378dc39162db4c36a82482777c2e8f791d3752bb70f816040518082815260200191505060405180910390a150505050565b600c5481565b6000601360008373ffffffffffffffffffffffffffffffffffffffff1673ffffffffffffffffffffffffffffffffffffffff168152602001908152602001600020600001549050919050565b7f000000000000000000000000000000000000000000000000000000000000000081565b60075481565b6103e881565b60085481565b6120816145b4565b61209681600e5461439990919063ffffffff16565b600e8190555042601360008473ffffffffffffffffffffffffffffffffffffffff1673ffffffffffffffffffffffffffffffffffffffff168152602001908152602001600020600201819055507e988acfd43f666f3f315b14052086271e8cf328d38353204311e1cd514f385a4282604051808381526020018281526020019250505060405180910390a16000601360008473ffffffffffffffffffffffffffffffffffffffff1673ffffffffffffffffffffffffffffffffffffffff1681526020019081526020016000206000015411156122ed576000612205601360008573ffffffffffffffffffffffffffffffffffffffff1673ffffffffffffffffffffffffffffffffffffffff16815260200190815260200160002060000154601360008673ffffffffffffffffffffffffffffffffffffffff1673ffffffffffffffffffffffffffffffffffffffff1681526020019081526020016000206001015461425490919063ffffffff16565b905080601360008573ffffffffffffffffffffffffffffffffffffffff1673ffffffffffffffffffffffffffffffffffffffff168152602001908152602001600020600101819055506000601360008573ffffffffffffffffffffffffffffffffffffffff1673ffffffffffffffffffffffffffffffffffffffff168152602001908152602001600020600001819055507fea4585bcbbe652ce8d7648189af8436fed8469d3561fd73d3d345ba88618c20a8382604051808373ffffffffffffffffffffffffffffffffffffffff1681526020018281526020019250505060405180910390a1505b5050565b7f000000000000000000000000000000000000000000000000000000000000000081565b7f000000000000000000000000000000000000000000000000000000000000000081565b601160019054906101000a900460ff1681565b7f000000000000000000000000000000000000000000000000000000000000000081565b6000600560019054906101000a900473ffffffffffffffffffffffffffffffffffffffff16905090565b6000806123b460085460075461425490919063ffffffff16565b9050600d549150600954831180156123cd575080600954105b80156123db57506000600e54115b1561246c57808311156123ec578092505b61246961245a612409600e5460085461441c90919063ffffffff16565b61244c670de0b6b3a764000061243e600a546124306009548b61439990919063ffffffff16565b61441c90919063ffffffff16565b61441c90919063ffffffff16565b6144a290919063ffffffff16565b8361425490919063ffffffff16565b91505b50919050565b600b5481565b60126020528060005260406000206000915090505481565b606060048054600181600116156101000203166002900480601f0160208091040260200160405190810160405280929190818152602001828054600181600116156101000203166002900480156125285780601f106124fd57610100808354040283529160200191612528565b820191906000526020600020905b81548152906001019060200180831161250b57829003601f168201915b5050505050905090565b601160029054906101000a900460ff1681565b61254d613cda565b73ffffffffffffffffffffffffffffffffffffffff1661256b612370565b73ffffffffffffffffffffffffffffffffffffffff16146125f4576040517f08c379a00000000000000000000000000000000000000000000000000000000081526004018080602001828103825260208152602001807f4f776e61626c653a2063616c6c6572206973206e6f7420746865206f776e657281525060200191505060405180910390fd5b6001601160026101000a81548160ff0219169083151502179055507fe34132c0e38d6bc3060b9c7698a52568cfc799c082cc802a370f04ff216130ee60405160405180910390a1565b6000601360008373ffffffffffffffffffffffffffffffffffffffff1673ffffffffffffffffffffffffffffffffffffffff168152602001908152602001600020600101549050919050565b612691613cda565b73ffffffffffffffffffffffffffffffffffffffff166126af612370565b73ffffffffffffffffffffffffffffffffffffffff1614612738576040517f08c379a00000000000000000000000000000000000000000000000000000000081526004018080602001828103825260208152602001807f4f776e61626c653a2063616c6c6572206973206e6f7420746865206f776e657281525060200191505060405180910390fd5b6000429050808411801561274c5750600083115b6127a1576040517f08c379a0000000000000000000000000000000000000000000000000000000008152600401808060200182810382526054815260200180614dfe6054913960600191505060405180910390fd5b6000600754111561281b576127c360085460075461425490919063ffffffff16565b811161281a576040517f08c379a0000000000000000000000000000000000000000000000000000000008152600401808060200182810382526028815260200180614d3f6028913960400191505060405180910390fd5b5b7f0000000000000000000000000000000000000000000000000000000000000000821115612894576040517f08c379a0000000000000000000000000000000000000000000000000000000008152600401808060200182810382526021815260200180614cf66021913960400191505060405180910390fd5b6000600e541115612985577f0000000000000000000000000000000000000000000000000000000000000000612910600e54612902866128f46301e133806128e660648a61441c90919063ffffffff16565b61441c90919063ffffffff16565b6144a290919063ffffffff16565b6144a290919063ffffffff16565b1115612984576040517f08c379a00000000000000000000000000000000000000000000000000000000081526004018080602001828103825260188152602001807f4d617820616c6c6f77656420415052206578636565646564000000000000000081525060200191505060405180910390fd5b5b61298e81614820565b83600781905550836009819055508260088190555081600a819055506129bf82600b5461425490919063ffffffff16565b600b819055506129da82600f5461425490919063ffffffff16565b600f819055507f612340ab30150a67355ab93f1438fa021ec7da49b6665a179e7a4f30528384dd84848460405180848152602001838152602001828152602001935050505060405180910390a1612a313083614889565b50505050565b6000612afa612a44613cda565b84612af585604051806060016040528060258152602001614e786025913960016000612a6e613cda565b73ffffffffffffffffffffffffffffffffffffffff1673ffffffffffffffffffffffffffffffffffffffff16815260200190815260200160002060008a73ffffffffffffffffffffffffffffffffffffffff1673ffffffffffffffffffffffffffffffffffffffff1681526020019081526020016000205461419a9092919063ffffffff16565b613ce2565b6001905092915050565b612b0c613cda565b73ffffffffffffffffffffffffffffffffffffffff16612b2a612370565b73ffffffffffffffffffffffffffffffffffffffff1614612bb3576040517f08c379a00000000000000000000000000000000000000000000000000000000081526004018080602001828103825260208152602001807f4f776e61626c653a2063616c6c6572206973206e6f7420746865206f776e657281525060200191505060405180910390fd5b6000601160009054906101000a900460ff1615905080601160006101000a81548160ff0219169083151502179055507f34d5714013380d0dd2de54669941a1e6ffeb94f624def9a559f03abd0e8e4a5c8160405180821515815260200191505060405180910390a150565b6000612c32612c2b613cda565b8484613ed9565b6001905092915050565b60105481565b612c4a613cda565b73ffffffffffffffffffffffffffffffffffffffff16612c68612370565b73ffffffffffffffffffffffffffffffffffffffff1614612cf1576040517f08c379a00000000000000000000000000000000000000000000000000000000081526004018080602001828103825260208152602001807f4f776e61626c653a2063616c6c6572206973206e6f7420746865206f776e657281525060200191505060405180910390fd5b7f0000000000000000000000000000000000000000000000000000000000000000811115612d87576040517f08c379a000000000000000000000000000000000000000000000000000000000815260040180806020018281038252600d8152602001807f496e76616c69642076616c75650000000000000000000000000000000000000081525060200191505060405180910390fd5b806010819055507f74cd83192c2667eba495e3b4578522f84af3168fbb19d3bed7729a03bd5e2a41816040518082815260200191505060405180910390a150565b600e5481565b612dd66112db565b612ddf33611a91565b811115612e54576040517f08c379a000000000000000000000000000000000000000000000000000000000815260040180806020018281038252601f8152602001807f56616c7565206578636565647320617661696c61626c652062616c616e63650081525060200191505060405180910390fd5b6000612e5f336142dc565b90506000612e76828461425490919063ffffffff16565b9050612ecd81601360003373ffffffffffffffffffffffffffffffffffffffff1673ffffffffffffffffffffffffffffffffffffffff1681526020019081526020016000206000015461425490919063ffffffff16565b601360003373ffffffffffffffffffffffffffffffffffffffff1673ffffffffffffffffffffffffffffffffffffffff168152602001908152602001600020600001819055507fae2006c94e89f8083efda0c0a1d0c7d6fef3ec90d68506aa822854f3ba31f9cf3382604051808373ffffffffffffffffffffffffffffffffffffffff1681526020018281526020019250505060405180910390a1612f7d81600e5461425490919063ffffffff16565b600e819055507f12129930c15dad4632242378dc39162db4c36a82482777c2e8f791d3752bb70f816040518082815260200191505060405180910390a1612fc5333085613ed9565b7f6f5036100ec84840f4ca7c243e6ca7c042949756211bdfb358406a77dc41a42e338484604051808473ffffffffffffffffffffffffffffffffffffffff168152602001838152602001828152602001935050505060405180910390a1505050565b61302f6145b4565b6130393082614889565b50565b613044613cda565b73ffffffffffffffffffffffffffffffffffffffff16613062612370565b73ffffffffffffffffffffffffffffffffffffffff16146130eb576040517f08c379a00000000000000000000000000000000000000000000000000000000081526004018080602001828103825260208152602001807f4f776e61626c653a2063616c6c6572206973206e6f7420746865206f776e657281525060200191505060405180910390fd5b600073ffffffffffffffffffffffffffffffffffffffff168173ffffffffffffffffffffffffffffffffffffffff16141561318e576040517f08c379a00000000000000000000000000000000000000000000000000000000081526004018080602001828103825260138152602001807f53657420612076616c696420616464726573730000000000000000000000000081525060200191505060405180910390fd5b60001515601160019054906101000a900460ff16151514613217576040517f08c379a000000000000000000000000000000000000000000000000000000000815260040180806020018281038252601f8152602001807f696e7465726661636550726f6a656374546f6b656e206973206c6f636b65640081525060200191505060405180910390fd5b80600660006101000a81548173ffffffffffffffffffffffffffffffffffffffff021916908373ffffffffffffffffffffffffffffffffffffffff1602179055507fdbfb95fe8e19209e063b2852c867a8aa47acd7eb4ab8cf1e3ba86e046c196ad181604051808273ffffffffffffffffffffffffffffffffffffffff16815260200191505060405180910390a150565b6000600160008473ffffffffffffffffffffffffffffffffffffffff1673ffffffffffffffffffffffffffffffffffffffff16815260200190815260200160002060008373ffffffffffffffffffffffffffffffffffffffff1673ffffffffffffffffffffffffffffffffffffffff16815260200190815260200160002054905092915050565b613337613cda565b73ffffffffffffffffffffffffffffffffffffffff16613355612370565b73ffffffffffffffffffffffffffffffffffffffff16146133de576040517f08c379a00000000000000000000000000000000000000000000000000000000081526004018080602001828103825260208152602001807f4f776e61626c653a2063616c6c6572206973206e6f7420746865206f776e657281525060200191505060405180910390fd5b60001515601160029054906101000a900460ff16151514613467576040517f08c379a000000000000000000000000000000000000000000000000000000000815260040180806020018281038252601a8152602001807f616c6c6f636174696f6e7320617265207465726d696e6174656400000000000081525060200191505060405180910390fd5b61346f614a50565b60008084519050600080600080875185146134d5576040517f08c379a0000000000000000000000000000000000000000000000000000000008152600401808060200182810382526026815260200180614e526026913960400191505060405180910390fd5b60005b858110156136d3578981815181106134ec57fe5b6020026020010151945088818151811061350257fe5b60200260200101519350871561363f5761351b856142dc565b92506000613532848661425490919063ffffffff16565b905061358981601360008973ffffffffffffffffffffffffffffffffffffffff1673ffffffffffffffffffffffffffffffffffffffff1681526020019081526020016000206000015461425490919063ffffffff16565b601360008873ffffffffffffffffffffffffffffffffffffffff1673ffffffffffffffffffffffffffffffffffffffff168152602001908152602001600020600001819055507fae2006c94e89f8083efda0c0a1d0c7d6fef3ec90d68506aa822854f3ba31f9cf8682604051808373ffffffffffffffffffffffffffffffffffffffff1681526020018281526020019250505060405180910390a1613637848461425490919063ffffffff16565b92505061364a565b6136498585614889565b5b61365d848861425490919063ffffffff16565b96507fa984939d0059bc688e1c5458f72ad05b51fc8a6ba959556f5e2ee91c1ab8c7d28585858b604051808573ffffffffffffffffffffffffffffffffffffffff168152602001848152602001838152602001821515815260200194505050505060405180910390a180806001019150506134d8565b506136e986600f5461425490919063ffffffff16565b600f819055507f83460f65bdb244889b764a63576252cf32e10e1a058af241da584c1f1610e6db866040518082815260200191505060405180910390a17f000000000000000000000000000000000000000000000000000000000000000061375e600b54600f5461439990919063ffffffff16565b11156137b5576040517f08c379a0000000000000000000000000000000000000000000000000000000008152600401808060200182810382526029815260200180614c896029913960400191505060405180910390fd5b8615613830576137c53087614889565b60006137da828861425490919063ffffffff16565b90506137f181600e5461425490919063ffffffff16565b600e819055507f12129930c15dad4632242378dc39162db4c36a82482777c2e8f791d3752bb70f816040518082815260200191505060405180910390a1505b505050505050505050565b600d5481565b7f000000000000000000000000000000000000000000000000000000000000000081565b600061386f6145b4565b613878826142dc565b9050919050565b613887613cda565b73ffffffffffffffffffffffffffffffffffffffff166138a5612370565b73ffffffffffffffffffffffffffffffffffffffff161461392e576040517f08c379a00000000000000000000000000000000000000000000000000000000081526004018080602001828103825260208152602001807f4f776e61626c653a2063616c6c6572206973206e6f7420746865206f776e657281525060200191505060405180910390fd5b600073ffffffffffffffffffffffffffffffffffffffff168173ffffffffffffffffffffffffffffffffffffffff1614156139b4576040517f08c379a0000000000000000000000000000000000000000000000000000000008152600401808060200182810382526026815260200180614c1b6026913960400191505060405180910390fd5b8073ffffffffffffffffffffffffffffffffffffffff16600560019054906101000a900473ffffffffffffffffffffffffffffffffffffffff1673ffffffffffffffffffffffffffffffffffffffff167f8be0079c531659141344cd1fd0a4f28419497f9722a3daafe3b4186f6b6457e060405160405180910390a380600560016101000a81548173ffffffffffffffffffffffffffffffffffffffff021916908373ffffffffffffffffffffffffffffffffffffffff16021790555050565b613a7c6145b4565b613a858161452b565b50565b600080613b22601360008673ffffffffffffffffffffffffffffffffffffffff1673ffffffffffffffffffffffffffffffffffffffff16815260200190815260200160002060010154601360008773ffffffffffffffffffffffffffffffffffffffff1673ffffffffffffffffffffffffffffffffffffffff1681526020019081526020016000206000015461425490919063ffffffff16565b9050600073ffffffffffffffffffffffffffffffffffffffff16600660009054906101000a900473ffffffffffffffffffffffffffffffffffffffff1673ffffffffffffffffffffffffffffffffffffffff1614613c5357613c50600660009054906101000a900473ffffffffffffffffffffffffffffffffffffffff1673ffffffffffffffffffffffffffffffffffffffff1663ba01ecef866040518263ffffffff1660e01b8152600401808273ffffffffffffffffffffffffffffffffffffffff16815260200191505060206040518083038186803b158015613c0657600080fd5b505afa158015613c1a573d6000803e3d6000fd5b505050506040513d6020811015613c3057600080fd5b81019080805190602001909291905050508261439990919063ffffffff16565b90505b613cd1670de0b6b3a7640000613cc3613cb4601260008973ffffffffffffffffffffffffffffffffffffffff1673ffffffffffffffffffffffffffffffffffffffff168152602001908152602001600020548761439990919063ffffffff16565b8461441c90919063ffffffff16565b6144a290919063ffffffff16565b91505092915050565b600033905090565b600073ffffffffffffffffffffffffffffffffffffffff168373ffffffffffffffffffffffffffffffffffffffff161415613d68576040517f08c379a0000000000000000000000000000000000000000000000000000000008152600401808060200182810382526024815260200180614dda6024913960400191505060405180910390fd5b600073ffffffffffffffffffffffffffffffffffffffff168273ffffffffffffffffffffffffffffffffffffffff161415613dee576040517f08c379a0000000000000000000000000000000000000000000000000000000008152600401808060200182810382526022815260200180614c416022913960400191505060405180910390fd5b80600160008573ffffffffffffffffffffffffffffffffffffffff1673ffffffffffffffffffffffffffffffffffffffff16815260200190815260200160002060008473ffffffffffffffffffffffffffffffffffffffff1673ffffffffffffffffffffffffffffffffffffffff168152602001908152602001600020819055508173ffffffffffffffffffffffffffffffffffffffff168373ffffffffffffffffffffffffffffffffffffffff167f8c5be1e5ebec7d5bd14f71427d1e84f3dd0314c0f7b2291e5b200ac8c7c3b925836040518082815260200191505060405180910390a3505050565b600073ffffffffffffffffffffffffffffffffffffffff168373ffffffffffffffffffffffffffffffffffffffff161415613f5f576040517f08c379a0000000000000000000000000000000000000000000000000000000008152600401808060200182810382526025815260200180614db56025913960400191505060405180910390fd5b600073ffffffffffffffffffffffffffffffffffffffff168273ffffffffffffffffffffffffffffffffffffffff161415613fe5576040517f08c379a0000000000000000000000000000000000000000000000000000000008152600401808060200182810382526023815260200180614bd66023913960400191505060405180910390fd5b613ff0838383614bd0565b61405b81604051806060016040528060268152602001614c63602691396000808773ffffffffffffffffffffffffffffffffffffffff1673ffffffffffffffffffffffffffffffffffffffff1681526020019081526020016000205461419a9092919063ffffffff16565b6000808573ffffffffffffffffffffffffffffffffffffffff1673ffffffffffffffffffffffffffffffffffffffff168152602001908152602001600020819055506140ee816000808573ffffffffffffffffffffffffffffffffffffffff1673ffffffffffffffffffffffffffffffffffffffff1681526020019081526020016000205461425490919063ffffffff16565b6000808473ffffffffffffffffffffffffffffffffffffffff1673ffffffffffffffffffffffffffffffffffffffff168152602001908152602001600020819055508173ffffffffffffffffffffffffffffffffffffffff168373ffffffffffffffffffffffffffffffffffffffff167fddf252ad1be2c89b69c2b068fc378daa952ba7f163c4a11628f55a4df523b3ef836040518082815260200191505060405180910390a3505050565b6000838311158290614247576040517f08c379a00000000000000000000000000000000000000000000000000000000081526004018080602001828103825283818151815260200191508051906020019080838360005b8381101561420c5780820151818401526020810190506141f1565b50505050905090810190601f1680156142395780820380516001836020036101000a031916815260200191505b509250505060405180910390fd5b5082840390509392505050565b6000808284019050838110156142d2576040517f08c379a000000000000000000000000000000000000000000000000000000000815260040180806020018281038252601b8152602001807f536166654d6174683a206164646974696f6e206f766572666c6f77000000000081525060200191505060405180910390fd5b8091505092915050565b60006142e742614820565b6000600d5490506142f88382613a88565b915080601260008573ffffffffffffffffffffffffffffffffffffffff1673ffffffffffffffffffffffffffffffffffffffff168152602001908152602001600020819055507f85d06bbafc9dfd05707e7a9369f98dcc505c964d1c4057022d7799ab84319f888382604051808373ffffffffffffffffffffffffffffffffffffffff1681526020018281526020019250505060405180910390a150919050565b600082821115614411576040517f08c379a000000000000000000000000000000000000000000000000000000000815260040180806020018281038252601e8152602001807f536166654d6174683a207375627472616374696f6e206f766572666c6f77000081525060200191505060405180910390fd5b818303905092915050565b60008083141561442f576000905061449c565b600082840290508284828161444057fe5b0414614497576040517f08c379a0000000000000000000000000000000000000000000000000000000008152600401808060200182810382526021815260200180614cd56021913960400191505060405180910390fd5b809150505b92915050565b6000808211614519576040517f08c379a000000000000000000000000000000000000000000000000000000000815260040180806020018281038252601a8152602001807f536166654d6174683a206469766973696f6e206279207a65726f00000000000081525060200191505060405180910390fd5b81838161452257fe5b04905092915050565b600061455c600e5461454e670de0b6b3a76400008561441c90919063ffffffff16565b6144a290919063ffffffff16565b905061457381600d5461425490919063ffffffff16565b600d819055507fb0ad669b2c654a9352811be6e1330332677e69548b033f2af030e16697749ef6816040518082815260200191505060405180910390a15050565b600660009054906101000a900473ffffffffffffffffffffffffffffffffffffffff1673ffffffffffffffffffffffffffffffffffffffff163373ffffffffffffffffffffffffffffffffffffffff161461465a576040517f08c379a000000000000000000000000000000000000000000000000000000000815260040180806020018281038252602d815260200180614d67602d913960400191505060405180910390fd5b565b600073ffffffffffffffffffffffffffffffffffffffff168273ffffffffffffffffffffffffffffffffffffffff1614156146e2576040517f08c379a0000000000000000000000000000000000000000000000000000000008152600401808060200182810382526021815260200180614d946021913960400191505060405180910390fd5b6146ee82600083614bd0565b61475981604051806060016040528060228152602001614bf9602291396000808673ffffffffffffffffffffffffffffffffffffffff1673ffffffffffffffffffffffffffffffffffffffff1681526020019081526020016000205461419a9092919063ffffffff16565b6000808473ffffffffffffffffffffffffffffffffffffffff1673ffffffffffffffffffffffffffffffffffffffff168152602001908152602001600020819055506147b08160025461439990919063ffffffff16565b600281905550600073ffffffffffffffffffffffffffffffffffffffff168273ffffffffffffffffffffffffffffffffffffffff167fddf252ad1be2c89b69c2b068fc378daa952ba7f163c4a11628f55a4df523b3ef836040518082815260200191505060405180910390a35050565b600061482b8261239a565b9050600d548111156148855780600d81905550816009819055507fe21837bef7e64daf0719e3e462b1a881d63c359c14c36a063143f9882a3a85258183604051808381526020018281526020019250505060405180910390a15b5050565b600073ffffffffffffffffffffffffffffffffffffffff168273ffffffffffffffffffffffffffffffffffffffff16141561492c576040517f08c379a000000000000000000000000000000000000000000000000000000000815260040180806020018281038252601f8152602001807f45524332303a206d696e7420746f20746865207a65726f20616464726573730081525060200191505060405180910390fd5b61493860008383614bd0565b61494d8160025461425490919063ffffffff16565b6002819055506149a4816000808573ffffffffffffffffffffffffffffffffffffffff1673ffffffffffffffffffffffffffffffffffffffff1681526020019081526020016000205461425490919063ffffffff16565b6000808473ffffffffffffffffffffffffffffffffffffffff1673ffffffffffffffffffffffffffffffffffffffff168152602001908152602001600020819055508173ffffffffffffffffffffffffffffffffffffffff16600073ffffffffffffffffffffffffffffffffffffffff167fddf252ad1be2c89b69c2b068fc378daa952ba7f163c4a11628f55a4df523b3ef836040518082815260200191505060405180910390a35050565b600073ffffffffffffffffffffffffffffffffffffffff16600660009054906101000a900473ffffffffffffffffffffffffffffffffffffffff1673ffffffffffffffffffffffffffffffffffffffff1614614bce576000600660009054906101000a900473ffffffffffffffffffffffffffffffffffffffff1673ffffffffffffffffffffffffffffffffffffffff1663fd7268276040518163ffffffff1660e01b815260040160206040518083038186803b158015614b1057600080fd5b505afa158015614b24573d6000803e3d6000fd5b505050506040513d6020811015614b3a57600080fd5b810190808051906020019092919050505090506000811115614bcc57804210614bcb576040517f08c379a00000000000000000000000000000000000000000000000000000000081526004018080602001828103825260188152602001807f50726f6a65637420616c7265616479206c61756e63686564000000000000000081525060200191505060405180910390fd5b5b505b565b50505056fe45524332303a207472616e7366657220746f20746865207a65726f206164647265737345524332303a206275726e20616d6f756e7420657863656564732062616c616e63654f776e61626c653a206e6577206f776e657220697320746865207a65726f206164647265737345524332303a20617070726f766520746f20746865207a65726f206164647265737345524332303a207472616e7366657220616d6f756e7420657863656564732062616c616e63654d6178696d756d20696e697469616c20746f6b656e20616c6c6f636174696f6e2065786365656465645472616e73616374696f6e73206172652063757272656e746c792064697361626c6564536166654d6174683a206d756c7469706c69636174696f6e206f766572666c6f774d617820616c6c6f77656420746f6b656e20616d6f756e7420657863656564656445524332303a207472616e7366657220616d6f756e74206578636565647320616c6c6f77616e636543757272656e74207374616b696e672063616d706169676e206973206e6f74206f766572207965744f6e6c792076616c69646174656420496e7465726661636550726f6a656374546f6b656e20436f6e747261637445524332303a206275726e2066726f6d20746865207a65726f206164647265737345524332303a207472616e736665722066726f6d20746865207a65726f206164647265737345524332303a20617070726f76652066726f6d20746865207a65726f20616464726573735374617274696e672064617465206d7573742062652061667465722063757272656e74206461746520616e64207374616b696e67206475726174696f6e206d7573742062652067726561746572207468616e203050726f766964652073616d6520616d6f756e74206f662076616c75657320617320757365727345524332303a2064656372656173656420616c6c6f77616e63652062656c6f77207a65726fa2646970667358221220aab448da8d9bb5a9c3b74dea3465f5f659af530d7bf503d18083026967ac3c1b64736f6c634300070600334d6178696d756d20636c61696d20666565206d757374206265206c6f776572207468616e2031303025496e697469616c20756e6c6f636b206d757374206265206c6f776572207468616e20313030254966206e6f2076657374696e672c20616c6c20746f6b656e73206d7573742062652072656c6561736564206174206c61756e63684d6178696d756d207769746864726177616c20666565206d757374206265206c6f776572207468616e2031303025",
      "opcodes": "PUSH2 0x180 PUSH1 0x40 MSTORE PUSH2 0x3E8 PUSH1 0xC SSTORE CALLVALUE DUP1 ISZERO PUSH3 0x18 JUMPI PUSH1 0x0 DUP1 REVERT JUMPDEST POP PUSH1 0x40 MLOAD PUSH3 0x559B CODESIZE SUB DUP1 PUSH3 0x559B DUP4 CODECOPY DUP2 DUP2 ADD PUSH1 0x40 MSTORE PUSH2 0x140 DUP2 LT ISZERO PUSH3 0x3F JUMPI PUSH1 0x0 DUP1 REVERT JUMPDEST DUP2 ADD SWAP1 DUP1 DUP1 MLOAD PUSH1 0x40 MLOAD SWAP4 SWAP3 SWAP2 SWAP1 DUP5 PUSH5 0x100000000 DUP3 GT ISZERO PUSH3 0x60 JUMPI PUSH1 0x0 DUP1 REVERT JUMPDEST DUP4 DUP3 ADD SWAP2 POP PUSH1 0x20 DUP3 ADD DUP6 DUP2 GT ISZERO PUSH3 0x77 JUMPI PUSH1 0x0 DUP1 REVERT JUMPDEST DUP3 MLOAD DUP7 PUSH1 0x1 DUP3 MUL DUP4 ADD GT PUSH5 0x100000000 DUP3 GT OR ISZERO PUSH3 0x95 JUMPI PUSH1 0x0 DUP1 REVERT JUMPDEST DUP1 DUP4 MSTORE PUSH1 0x20 DUP4 ADD SWAP3 POP POP POP SWAP1 DUP1 MLOAD SWAP1 PUSH1 0x20 ADD SWAP1 DUP1 DUP4 DUP4 PUSH1 0x0 JUMPDEST DUP4 DUP2 LT ISZERO PUSH3 0xCB JUMPI DUP1 DUP3 ADD MLOAD DUP2 DUP5 ADD MSTORE PUSH1 0x20 DUP2 ADD SWAP1 POP PUSH3 0xAE JUMP JUMPDEST POP POP POP POP SWAP1 POP SWAP1 DUP2 ADD SWAP1 PUSH1 0x1F AND DUP1 ISZERO PUSH3 0xF9 JUMPI DUP1 DUP3 SUB DUP1 MLOAD PUSH1 0x1 DUP4 PUSH1 0x20 SUB PUSH2 0x100 EXP SUB NOT AND DUP2 MSTORE PUSH1 0x20 ADD SWAP2 POP JUMPDEST POP PUSH1 0x40 MSTORE PUSH1 0x20 ADD DUP1 MLOAD PUSH1 0x40 MLOAD SWAP4 SWAP3 SWAP2 SWAP1 DUP5 PUSH5 0x100000000 DUP3 GT ISZERO PUSH3 0x11D JUMPI PUSH1 0x0 DUP1 REVERT JUMPDEST DUP4 DUP3 ADD SWAP2 POP PUSH1 0x20 DUP3 ADD DUP6 DUP2 GT ISZERO PUSH3 0x134 JUMPI PUSH1 0x0 DUP1 REVERT JUMPDEST DUP3 MLOAD DUP7 PUSH1 0x1 DUP3 MUL DUP4 ADD GT PUSH5 0x100000000 DUP3 GT OR ISZERO PUSH3 0x152 JUMPI PUSH1 0x0 DUP1 REVERT JUMPDEST DUP1 DUP4 MSTORE PUSH1 0x20 DUP4 ADD SWAP3 POP POP POP SWAP1 DUP1 MLOAD SWAP1 PUSH1 0x20 ADD SWAP1 DUP1 DUP4 DUP4 PUSH1 0x0 JUMPDEST DUP4 DUP2 LT ISZERO PUSH3 0x188 JUMPI DUP1 DUP3 ADD MLOAD DUP2 DUP5 ADD MSTORE PUSH1 0x20 DUP2 ADD SWAP1 POP PUSH3 0x16B JUMP JUMPDEST POP POP POP POP SWAP1 POP SWAP1 DUP2 ADD SWAP1 PUSH1 0x1F AND DUP1 ISZERO PUSH3 0x1B6 JUMPI DUP1 DUP3 SUB DUP1 MLOAD PUSH1 0x1 DUP4 PUSH1 0x20 SUB PUSH2 0x100 EXP SUB NOT AND DUP2 MSTORE PUSH1 0x20 ADD SWAP2 POP JUMPDEST POP PUSH1 0x40 MSTORE PUSH1 0x20 ADD DUP1 MLOAD SWAP1 PUSH1 0x20 ADD SWAP1 SWAP3 SWAP2 SWAP1 DUP1 MLOAD SWAP1 PUSH1 0x20 ADD SWAP1 SWAP3 SWAP2 SWAP1 DUP1 MLOAD SWAP1 PUSH1 0x20 ADD SWAP1 SWAP3 SWAP2 SWAP1 DUP1 MLOAD SWAP1 PUSH1 0x20 ADD SWAP1 SWAP3 SWAP2 SWAP1 DUP1 MLOAD SWAP1 PUSH1 0x20 ADD SWAP1 SWAP3 SWAP2 SWAP1 DUP1 MLOAD SWAP1 PUSH1 0x20 ADD SWAP1 SWAP3 SWAP2 SWAP1 DUP1 MLOAD SWAP1 PUSH1 0x20 ADD SWAP1 SWAP3 SWAP2 SWAP1 DUP1 MLOAD SWAP1 PUSH1 0x20 ADD SWAP1 SWAP3 SWAP2 SWAP1 POP POP POP DUP10 DUP10 DUP2 PUSH1 0x3 SWAP1 DUP1 MLOAD SWAP1 PUSH1 0x20 ADD SWAP1 PUSH3 0x22A SWAP3 SWAP2 SWAP1 PUSH3 0x4F0 JUMP JUMPDEST POP DUP1 PUSH1 0x4 SWAP1 DUP1 MLOAD SWAP1 PUSH1 0x20 ADD SWAP1 PUSH3 0x243 SWAP3 SWAP2 SWAP1 PUSH3 0x4F0 JUMP JUMPDEST POP PUSH1 0x12 PUSH1 0x5 PUSH1 0x0 PUSH2 0x100 EXP DUP2 SLOAD DUP2 PUSH1 0xFF MUL NOT AND SWAP1 DUP4 PUSH1 0xFF AND MUL OR SWAP1 SSTORE POP POP POP PUSH1 0x0 PUSH3 0x274 PUSH3 0x4E8 PUSH1 0x20 SHL PUSH1 0x20 SHR JUMP JUMPDEST SWAP1 POP DUP1 PUSH1 0x5 PUSH1 0x1 PUSH2 0x100 EXP DUP2 SLOAD DUP2 PUSH20 0xFFFFFFFFFFFFFFFFFFFFFFFFFFFFFFFFFFFFFFFF MUL NOT AND SWAP1 DUP4 PUSH20 0xFFFFFFFFFFFFFFFFFFFFFFFFFFFFFFFFFFFFFFFF AND MUL OR SWAP1 SSTORE POP DUP1 PUSH20 0xFFFFFFFFFFFFFFFFFFFFFFFFFFFFFFFFFFFFFFFF AND PUSH1 0x0 PUSH20 0xFFFFFFFFFFFFFFFFFFFFFFFFFFFFFFFFFFFFFFFF AND PUSH32 0x8BE0079C531659141344CD1FD0A4F28419497F9722A3DAAFE3B4186F6B6457E0 PUSH1 0x40 MLOAD PUSH1 0x40 MLOAD DUP1 SWAP2 SUB SWAP1 LOG3 POP PUSH1 0x0 DUP7 EQ ISZERO PUSH3 0x37F JUMPI PUSH2 0x3E8 DUP9 EQ PUSH3 0x379 JUMPI PUSH1 0x40 MLOAD PUSH32 0x8C379A000000000000000000000000000000000000000000000000000000000 DUP2 MSTORE PUSH1 0x4 ADD DUP1 DUP1 PUSH1 0x20 ADD DUP3 DUP2 SUB DUP3 MSTORE PUSH1 0x34 DUP2 MSTORE PUSH1 0x20 ADD DUP1 PUSH3 0x5539 PUSH1 0x34 SWAP2 CODECOPY PUSH1 0x40 ADD SWAP2 POP POP PUSH1 0x40 MLOAD DUP1 SWAP2 SUB SWAP1 REVERT JUMPDEST PUSH3 0x3DC JUMP JUMPDEST PUSH2 0x3E8 DUP9 LT PUSH3 0x3DB JUMPI PUSH1 0x40 MLOAD PUSH32 0x8C379A000000000000000000000000000000000000000000000000000000000 DUP2 MSTORE PUSH1 0x4 ADD DUP1 DUP1 PUSH1 0x20 ADD DUP3 DUP2 SUB DUP3 MSTORE PUSH1 0x26 DUP2 MSTORE PUSH1 0x20 ADD DUP1 PUSH3 0x5513 PUSH1 0x26 SWAP2 CODECOPY PUSH1 0x40 ADD SWAP2 POP POP PUSH1 0x40 MLOAD DUP1 SWAP2 SUB SWAP1 REVERT JUMPDEST JUMPDEST PUSH2 0x3E8 DUP6 LT PUSH3 0x438 JUMPI PUSH1 0x40 MLOAD PUSH32 0x8C379A000000000000000000000000000000000000000000000000000000000 DUP2 MSTORE PUSH1 0x4 ADD DUP1 DUP1 PUSH1 0x20 ADD DUP3 DUP2 SUB DUP3 MSTORE PUSH1 0x2E DUP2 MSTORE PUSH1 0x20 ADD DUP1 PUSH3 0x556D PUSH1 0x2E SWAP2 CODECOPY PUSH1 0x40 ADD SWAP2 POP POP PUSH1 0x40 MLOAD DUP1 SWAP2 SUB SWAP1 REVERT JUMPDEST PUSH2 0x3E8 DUP5 LT PUSH3 0x494 JUMPI PUSH1 0x40 MLOAD PUSH32 0x8C379A000000000000000000000000000000000000000000000000000000000 DUP2 MSTORE PUSH1 0x4 ADD DUP1 DUP1 PUSH1 0x20 ADD DUP3 DUP2 SUB DUP3 MSTORE PUSH1 0x29 DUP2 MSTORE PUSH1 0x20 ADD DUP1 PUSH3 0x54EA PUSH1 0x29 SWAP2 CODECOPY PUSH1 0x40 ADD SWAP2 POP POP PUSH1 0x40 MLOAD DUP1 SWAP2 SUB SWAP1 REVERT JUMPDEST DUP7 PUSH1 0xA0 DUP2 DUP2 MSTORE POP POP DUP6 PUSH1 0xC0 DUP2 DUP2 MSTORE POP POP DUP8 PUSH1 0x80 DUP2 DUP2 MSTORE POP POP DUP5 PUSH2 0x100 DUP2 DUP2 MSTORE POP POP DUP4 PUSH2 0x120 DUP2 DUP2 MSTORE POP POP DUP3 PUSH2 0x140 DUP2 DUP2 MSTORE POP POP DUP2 PUSH2 0x160 DUP2 DUP2 MSTORE POP POP DUP1 PUSH1 0xE0 DUP2 DUP2 MSTORE POP POP POP POP POP POP POP POP POP POP POP POP PUSH3 0x5A6 JUMP JUMPDEST PUSH1 0x0 CALLER SWAP1 POP SWAP1 JUMP JUMPDEST DUP3 DUP1 SLOAD PUSH1 0x1 DUP2 PUSH1 0x1 AND ISZERO PUSH2 0x100 MUL SUB AND PUSH1 0x2 SWAP1 DIV SWAP1 PUSH1 0x0 MSTORE PUSH1 0x20 PUSH1 0x0 KECCAK256 SWAP1 PUSH1 0x1F ADD PUSH1 0x20 SWAP1 DIV DUP2 ADD SWAP3 DUP3 PUSH3 0x528 JUMPI PUSH1 0x0 DUP6 SSTORE PUSH3 0x574 JUMP JUMPDEST DUP3 PUSH1 0x1F LT PUSH3 0x543 JUMPI DUP1 MLOAD PUSH1 0xFF NOT AND DUP4 DUP1 ADD OR DUP6 SSTORE PUSH3 0x574 JUMP JUMPDEST DUP3 DUP1 ADD PUSH1 0x1 ADD DUP6 SSTORE DUP3 ISZERO PUSH3 0x574 JUMPI SWAP2 DUP3 ADD JUMPDEST DUP3 DUP2 GT ISZERO PUSH3 0x573 JUMPI DUP3 MLOAD DUP3 SSTORE SWAP2 PUSH1 0x20 ADD SWAP2 SWAP1 PUSH1 0x1 ADD SWAP1 PUSH3 0x556 JUMP JUMPDEST JUMPDEST POP SWAP1 POP PUSH3 0x583 SWAP2 SWAP1 PUSH3 0x587 JUMP JUMPDEST POP SWAP1 JUMP JUMPDEST JUMPDEST DUP1 DUP3 GT ISZERO PUSH3 0x5A2 JUMPI PUSH1 0x0 DUP2 PUSH1 0x0 SWAP1 SSTORE POP PUSH1 0x1 ADD PUSH3 0x588 JUMP JUMPDEST POP SWAP1 JUMP JUMPDEST PUSH1 0x80 MLOAD PUSH1 0xA0 MLOAD PUSH1 0xC0 MLOAD PUSH1 0xE0 MLOAD PUSH2 0x100 MLOAD PUSH2 0x120 MLOAD PUSH2 0x140 MLOAD PUSH2 0x160 MLOAD PUSH2 0x4ED2 PUSH3 0x618 PUSH1 0x0 CODECOPY DUP1 PUSH2 0x22F3 MSTORE DUP1 PUSH2 0x281D MSTORE POP DUP1 PUSH2 0x12AF MSTORE DUP1 PUSH2 0x28A1 MSTORE POP DUP1 PUSH2 0x2045 MSTORE POP DUP1 PUSH2 0x234E MSTORE DUP1 PUSH2 0x2CF3 MSTORE POP DUP1 PUSH2 0x2317 MSTORE DUP1 PUSH2 0x3728 MSTORE POP DUP1 PUSH2 0x3843 MSTORE POP DUP1 PUSH2 0x15AE MSTORE POP DUP1 PUSH2 0x1424 MSTORE POP PUSH2 0x4ED2 PUSH1 0x0 RETURN INVALID PUSH1 0x80 PUSH1 0x40 MSTORE CALLVALUE DUP1 ISZERO PUSH2 0x10 JUMPI PUSH1 0x0 DUP1 REVERT JUMPDEST POP PUSH1 0x4 CALLDATASIZE LT PUSH2 0x3AF JUMPI PUSH1 0x0 CALLDATALOAD PUSH1 0xE0 SHR DUP1 PUSH4 0x82AF7D39 GT PUSH2 0x1F4 JUMPI DUP1 PUSH4 0xA74536E0 GT PUSH2 0x11A JUMPI DUP1 PUSH4 0xDD62ED3E GT PUSH2 0xAD JUMPI DUP1 PUSH4 0xEFB5C2F3 GT PUSH2 0x7C JUMPI DUP1 PUSH4 0xEFB5C2F3 EQ PUSH2 0x10BB JUMPI DUP1 PUSH4 0xF2FDE38B EQ PUSH2 0x1113 JUMPI DUP1 PUSH4 0xF331A867 EQ PUSH2 0x1157 JUMPI DUP1 PUSH4 0xFB3DA545 EQ PUSH2 0x1185 JUMPI PUSH2 0x3AF JUMP JUMPDEST DUP1 PUSH4 0xDD62ED3E EQ PUSH2 0xEAF JUMPI DUP1 PUSH4 0xDF910817 EQ PUSH2 0xF27 JUMPI DUP1 PUSH4 0xE0D0C567 EQ PUSH2 0x107F JUMPI DUP1 PUSH4 0xE54DD98A EQ PUSH2 0x109D JUMPI PUSH2 0x3AF JUMP JUMPDEST DUP1 PUSH4 0xC96877A2 GT PUSH2 0xE9 JUMPI DUP1 PUSH4 0xC96877A2 EQ PUSH2 0xDF1 JUMPI DUP1 PUSH4 0xD49D18D6 EQ PUSH2 0xE0F JUMPI DUP1 PUSH4 0xDA3A5936 EQ PUSH2 0xE3D JUMPI DUP1 PUSH4 0xDCCDC995 EQ PUSH2 0xE6B JUMPI PUSH2 0x3AF JUMP JUMPDEST DUP1 PUSH4 0xA74536E0 EQ PUSH2 0xD37 JUMPI DUP1 PUSH4 0xA9059CBB EQ PUSH2 0xD41 JUMPI DUP1 PUSH4 0xABFDCE2C EQ PUSH2 0xDA5 JUMPI DUP1 PUSH4 0xBF777F82 EQ PUSH2 0xDC3 JUMPI PUSH2 0x3AF JUMP JUMPDEST DUP1 PUSH4 0x93EF357A GT PUSH2 0x192 JUMPI DUP1 PUSH4 0x9C3BCBB1 GT PUSH2 0x161 JUMPI DUP1 PUSH4 0x9C3BCBB1 EQ PUSH2 0xC2F JUMPI DUP1 PUSH4 0x9F65FFB0 EQ PUSH2 0xC39 JUMPI DUP1 PUSH4 0xA1B0C412 EQ PUSH2 0xC91 JUMPI DUP1 PUSH4 0xA457C2D7 EQ PUSH2 0xCD3 JUMPI PUSH2 0x3AF JUMP JUMPDEST DUP1 PUSH4 0x93EF357A EQ PUSH2 0xB16 JUMPI DUP1 PUSH4 0x95230A80 EQ PUSH2 0xB34 JUMPI DUP1 PUSH4 0x95D89B41 EQ PUSH2 0xB8C JUMPI DUP1 PUSH4 0x9863D644 EQ PUSH2 0xC0F JUMPI PUSH2 0x3AF JUMP JUMPDEST DUP1 PUSH4 0x8A1E4393 GT PUSH2 0x1CE JUMPI DUP1 PUSH4 0x8A1E4393 EQ PUSH2 0xA62 JUMPI DUP1 PUSH4 0x8AA03A3C EQ PUSH2 0xA82 JUMPI DUP1 PUSH4 0x8DA5CB5B EQ PUSH2 0xAA0 JUMPI DUP1 PUSH4 0x908A6BF0 EQ PUSH2 0xAD4 JUMPI PUSH2 0x3AF JUMP JUMPDEST DUP1 PUSH4 0x82AF7D39 EQ PUSH2 0x9D8 JUMPI DUP1 PUSH4 0x82FB82F5 EQ PUSH2 0xA26 JUMPI DUP1 PUSH4 0x86982E61 EQ PUSH2 0xA44 JUMPI PUSH2 0x3AF JUMP JUMPDEST DUP1 PUSH4 0x5798B1FF GT PUSH2 0x2D9 JUMPI DUP1 PUSH4 0x72B990B5 GT PUSH2 0x277 JUMPI DUP1 PUSH4 0x78E104DA GT PUSH2 0x246 JUMPI DUP1 PUSH4 0x78E104DA EQ PUSH2 0x960 JUMPI DUP1 PUSH4 0x7CCF0226 EQ PUSH2 0x97E JUMPI DUP1 PUSH4 0x7E267F39 EQ PUSH2 0x99C JUMPI DUP1 PUSH4 0x8005A7DE EQ PUSH2 0x9BA JUMPI PUSH2 0x3AF JUMP JUMPDEST DUP1 PUSH4 0x72B990B5 EQ PUSH2 0x85A JUMPI DUP1 PUSH4 0x740C3495 EQ PUSH2 0x888 JUMPI DUP1 PUSH4 0x74DDCD1D EQ PUSH2 0x8EA JUMPI DUP1 PUSH4 0x7561EA9A EQ PUSH2 0x908 JUMPI PUSH2 0x3AF JUMP JUMPDEST DUP1 PUSH4 0x6C1F89ED GT PUSH2 0x2B3 JUMPI DUP1 PUSH4 0x6C1F89ED EQ PUSH2 0x7AC JUMPI DUP1 PUSH4 0x6D69847D EQ PUSH2 0x7CA JUMPI DUP1 PUSH4 0x70A08231 EQ PUSH2 0x7F8 JUMPI DUP1 PUSH4 0x715018A6 EQ PUSH2 0x850 JUMPI PUSH2 0x3AF JUMP JUMPDEST DUP1 PUSH4 0x5798B1FF EQ PUSH2 0x764 JUMPI DUP1 PUSH4 0x63CF3CFF EQ PUSH2 0x76E JUMPI DUP1 PUSH4 0x6A4BD5A6 EQ PUSH2 0x78E JUMPI PUSH2 0x3AF JUMP JUMPDEST DUP1 PUSH4 0x2945AC68 GT PUSH2 0x351 JUMPI DUP1 PUSH4 0x39509351 GT PUSH2 0x320 JUMPI DUP1 PUSH4 0x39509351 EQ PUSH2 0x680 JUMPI DUP1 PUSH4 0x3E332F16 EQ PUSH2 0x6E4 JUMPI DUP1 PUSH4 0x3F2B437D EQ PUSH2 0x718 JUMPI DUP1 PUSH4 0x483F3AC7 EQ PUSH2 0x736 JUMPI PUSH2 0x3AF JUMP JUMPDEST DUP1 PUSH4 0x2945AC68 EQ PUSH2 0x583 JUMPI DUP1 PUSH4 0x30400A86 EQ PUSH2 0x5A1 JUMPI DUP1 PUSH4 0x305E2DAF EQ PUSH2 0x607 JUMPI DUP1 PUSH4 0x313CE567 EQ PUSH2 0x65F JUMPI PUSH2 0x3AF JUMP JUMPDEST DUP1 PUSH4 0x1387520A GT PUSH2 0x38D JUMPI DUP1 PUSH4 0x1387520A EQ PUSH2 0x4B9 JUMPI DUP1 PUSH4 0x18160DDD EQ PUSH2 0x4D7 JUMPI DUP1 PUSH4 0x1F93ABD4 EQ PUSH2 0x4F5 JUMPI DUP1 PUSH4 0x23B872DD EQ PUSH2 0x4FF JUMPI PUSH2 0x3AF JUMP JUMPDEST DUP1 PUSH4 0x3FF8E88 EQ PUSH2 0x3B4 JUMPI DUP1 PUSH4 0x6FDDE03 EQ PUSH2 0x3D2 JUMPI DUP1 PUSH4 0x95EA7B3 EQ PUSH2 0x455 JUMPI JUMPDEST PUSH1 0x0 DUP1 REVERT JUMPDEST PUSH2 0x3BC PUSH2 0x11E7 JUMP JUMPDEST PUSH1 0x40 MLOAD DUP1 DUP3 DUP2 MSTORE PUSH1 0x20 ADD SWAP2 POP POP PUSH1 0x40 MLOAD DUP1 SWAP2 SUB SWAP1 RETURN JUMPDEST PUSH2 0x3DA PUSH2 0x11ED JUMP JUMPDEST PUSH1 0x40 MLOAD DUP1 DUP1 PUSH1 0x20 ADD DUP3 DUP2 SUB DUP3 MSTORE DUP4 DUP2 DUP2 MLOAD DUP2 MSTORE PUSH1 0x20 ADD SWAP2 POP DUP1 MLOAD SWAP1 PUSH1 0x20 ADD SWAP1 DUP1 DUP4 DUP4 PUSH1 0x0 JUMPDEST DUP4 DUP2 LT ISZERO PUSH2 0x41A JUMPI DUP1 DUP3 ADD MLOAD DUP2 DUP5 ADD MSTORE PUSH1 0x20 DUP2 ADD SWAP1 POP PUSH2 0x3FF JUMP JUMPDEST POP POP POP POP SWAP1 POP SWAP1 DUP2 ADD SWAP1 PUSH1 0x1F AND DUP1 ISZERO PUSH2 0x447 JUMPI DUP1 DUP3 SUB DUP1 MLOAD PUSH1 0x1 DUP4 PUSH1 0x20 SUB PUSH2 0x100 EXP SUB NOT AND DUP2 MSTORE PUSH1 0x20 ADD SWAP2 POP JUMPDEST POP SWAP3 POP POP POP PUSH1 0x40 MLOAD DUP1 SWAP2 SUB SWAP1 RETURN JUMPDEST PUSH2 0x4A1 PUSH1 0x4 DUP1 CALLDATASIZE SUB PUSH1 0x40 DUP2 LT ISZERO PUSH2 0x46B JUMPI PUSH1 0x0 DUP1 REVERT JUMPDEST DUP2 ADD SWAP1 DUP1 DUP1 CALLDATALOAD PUSH20 0xFFFFFFFFFFFFFFFFFFFFFFFFFFFFFFFFFFFFFFFF AND SWAP1 PUSH1 0x20 ADD SWAP1 SWAP3 SWAP2 SWAP1 DUP1 CALLDATALOAD SWAP1 PUSH1 0x20 ADD SWAP1 SWAP3 SWAP2 SWAP1 POP POP POP PUSH2 0x128F JUMP JUMPDEST PUSH1 0x40 MLOAD DUP1 DUP3 ISZERO ISZERO DUP2 MSTORE PUSH1 0x20 ADD SWAP2 POP POP PUSH1 0x40 MLOAD DUP1 SWAP2 SUB SWAP1 RETURN JUMPDEST PUSH2 0x4C1 PUSH2 0x12AD JUMP JUMPDEST PUSH1 0x40 MLOAD DUP1 DUP3 DUP2 MSTORE PUSH1 0x20 ADD SWAP2 POP POP PUSH1 0x40 MLOAD DUP1 SWAP2 SUB SWAP1 RETURN JUMPDEST PUSH2 0x4DF PUSH2 0x12D1 JUMP JUMPDEST PUSH1 0x40 MLOAD DUP1 DUP3 DUP2 MSTORE PUSH1 0x20 ADD SWAP2 POP POP PUSH1 0x40 MLOAD DUP1 SWAP2 SUB SWAP1 RETURN JUMPDEST PUSH2 0x4FD PUSH2 0x12DB JUMP JUMPDEST STOP JUMPDEST PUSH2 0x56B PUSH1 0x4 DUP1 CALLDATASIZE SUB PUSH1 0x60 DUP2 LT ISZERO PUSH2 0x515 JUMPI PUSH1 0x0 DUP1 REVERT JUMPDEST DUP2 ADD SWAP1 DUP1 DUP1 CALLDATALOAD PUSH20 0xFFFFFFFFFFFFFFFFFFFFFFFFFFFFFFFFFFFFFFFF AND SWAP1 PUSH1 0x20 ADD SWAP1 SWAP3 SWAP2 SWAP1 DUP1 CALLDATALOAD PUSH20 0xFFFFFFFFFFFFFFFFFFFFFFFFFFFFFFFFFFFFFFFF AND SWAP1 PUSH1 0x20 ADD SWAP1 SWAP3 SWAP2 SWAP1 DUP1 CALLDATALOAD SWAP1 PUSH1 0x20 ADD SWAP1 SWAP3 SWAP2 SWAP1 POP POP POP PUSH2 0x1349 JUMP JUMPDEST PUSH1 0x40 MLOAD DUP1 DUP3 ISZERO ISZERO DUP2 MSTORE PUSH1 0x20 ADD SWAP2 POP POP PUSH1 0x40 MLOAD DUP1 SWAP2 SUB SWAP1 RETURN JUMPDEST PUSH2 0x58B PUSH2 0x1422 JUMP JUMPDEST PUSH1 0x40 MLOAD DUP1 DUP3 DUP2 MSTORE PUSH1 0x20 ADD SWAP2 POP POP PUSH1 0x40 MLOAD DUP1 SWAP2 SUB SWAP1 RETURN JUMPDEST PUSH2 0x5E3 PUSH1 0x4 DUP1 CALLDATASIZE SUB PUSH1 0x20 DUP2 LT ISZERO PUSH2 0x5B7 JUMPI PUSH1 0x0 DUP1 REVERT JUMPDEST DUP2 ADD SWAP1 DUP1 DUP1 CALLDATALOAD PUSH20 0xFFFFFFFFFFFFFFFFFFFFFFFFFFFFFFFFFFFFFFFF AND SWAP1 PUSH1 0x20 ADD SWAP1 SWAP3 SWAP2 SWAP1 POP POP POP PUSH2 0x1446 JUMP JUMPDEST PUSH1 0x40 MLOAD DUP1 DUP5 DUP2 MSTORE PUSH1 0x20 ADD DUP4 DUP2 MSTORE PUSH1 0x20 ADD DUP3 DUP2 MSTORE PUSH1 0x20 ADD SWAP4 POP POP POP POP PUSH1 0x40 MLOAD DUP1 SWAP2 SUB SWAP1 RETURN JUMPDEST PUSH2 0x649 PUSH1 0x4 DUP1 CALLDATASIZE SUB PUSH1 0x20 DUP2 LT ISZERO PUSH2 0x61D JUMPI PUSH1 0x0 DUP1 REVERT JUMPDEST DUP2 ADD SWAP1 DUP1 DUP1 CALLDATALOAD PUSH20 0xFFFFFFFFFFFFFFFFFFFFFFFFFFFFFFFFFFFFFFFF AND SWAP1 PUSH1 0x20 ADD SWAP1 SWAP3 SWAP2 SWAP1 POP POP POP PUSH2 0x1470 JUMP JUMPDEST PUSH1 0x40 MLOAD DUP1 DUP3 DUP2 MSTORE PUSH1 0x20 ADD SWAP2 POP POP PUSH1 0x40 MLOAD DUP1 SWAP2 SUB SWAP1 RETURN JUMPDEST PUSH2 0x667 PUSH2 0x14BC JUMP JUMPDEST PUSH1 0x40 MLOAD DUP1 DUP3 PUSH1 0xFF AND DUP2 MSTORE PUSH1 0x20 ADD SWAP2 POP POP PUSH1 0x40 MLOAD DUP1 SWAP2 SUB SWAP1 RETURN JUMPDEST PUSH2 0x6CC PUSH1 0x4 DUP1 CALLDATASIZE SUB PUSH1 0x40 DUP2 LT ISZERO PUSH2 0x696 JUMPI PUSH1 0x0 DUP1 REVERT JUMPDEST DUP2 ADD SWAP1 DUP1 DUP1 CALLDATALOAD PUSH20 0xFFFFFFFFFFFFFFFFFFFFFFFFFFFFFFFFFFFFFFFF AND SWAP1 PUSH1 0x20 ADD SWAP1 SWAP3 SWAP2 SWAP1 DUP1 CALLDATALOAD SWAP1 PUSH1 0x20 ADD SWAP1 SWAP3 SWAP2 SWAP1 POP POP POP PUSH2 0x14D3 JUMP JUMPDEST PUSH1 0x40 MLOAD DUP1 DUP3 ISZERO ISZERO DUP2 MSTORE PUSH1 0x20 ADD SWAP2 POP POP PUSH1 0x40 MLOAD DUP1 SWAP2 SUB SWAP1 RETURN JUMPDEST PUSH2 0x6EC PUSH2 0x1586 JUMP JUMPDEST PUSH1 0x40 MLOAD DUP1 DUP3 PUSH20 0xFFFFFFFFFFFFFFFFFFFFFFFFFFFFFFFFFFFFFFFF AND DUP2 MSTORE PUSH1 0x20 ADD SWAP2 POP POP PUSH1 0x40 MLOAD DUP1 SWAP2 SUB SWAP1 RETURN JUMPDEST PUSH2 0x720 PUSH2 0x15AC JUMP JUMPDEST PUSH1 0x40 MLOAD DUP1 DUP3 DUP2 MSTORE PUSH1 0x20 ADD SWAP2 POP POP PUSH1 0x40 MLOAD DUP1 SWAP2 SUB SWAP1 RETURN JUMPDEST PUSH2 0x762 PUSH1 0x4 DUP1 CALLDATASIZE SUB PUSH1 0x20 DUP2 LT ISZERO PUSH2 0x74C JUMPI PUSH1 0x0 DUP1 REVERT JUMPDEST DUP2 ADD SWAP1 DUP1 DUP1 CALLDATALOAD SWAP1 PUSH1 0x20 ADD SWAP1 SWAP3 SWAP2 SWAP1 POP POP POP PUSH2 0x15D0 JUMP JUMPDEST STOP JUMPDEST PUSH2 0x76C PUSH2 0x1965 JUMP JUMPDEST STOP JUMPDEST PUSH2 0x776 PUSH2 0x1A5D JUMP JUMPDEST PUSH1 0x40 MLOAD DUP1 DUP3 ISZERO ISZERO DUP2 MSTORE PUSH1 0x20 ADD SWAP2 POP POP PUSH1 0x40 MLOAD DUP1 SWAP2 SUB SWAP1 RETURN JUMPDEST PUSH2 0x796 PUSH2 0x1A70 JUMP JUMPDEST PUSH1 0x40 MLOAD DUP1 DUP3 DUP2 MSTORE PUSH1 0x20 ADD SWAP2 POP POP PUSH1 0x40 MLOAD DUP1 SWAP2 SUB SWAP1 RETURN JUMPDEST PUSH2 0x7B4 PUSH2 0x1A76 JUMP JUMPDEST PUSH1 0x40 MLOAD DUP1 DUP3 DUP2 MSTORE PUSH1 0x20 ADD SWAP2 POP POP PUSH1 0x40 MLOAD DUP1 SWAP2 SUB SWAP1 RETURN JUMPDEST PUSH2 0x7F6 PUSH1 0x4 DUP1 CALLDATASIZE SUB PUSH1 0x20 DUP2 LT ISZERO PUSH2 0x7E0 JUMPI PUSH1 0x0 DUP1 REVERT JUMPDEST DUP2 ADD SWAP1 DUP1 DUP1 CALLDATALOAD SWAP1 PUSH1 0x20 ADD SWAP1 SWAP3 SWAP2 SWAP1 POP POP POP PUSH2 0x1A7C JUMP JUMPDEST STOP JUMPDEST PUSH2 0x83A PUSH1 0x4 DUP1 CALLDATASIZE SUB PUSH1 0x20 DUP2 LT ISZERO PUSH2 0x80E JUMPI PUSH1 0x0 DUP1 REVERT JUMPDEST DUP2 ADD SWAP1 DUP1 DUP1 CALLDATALOAD PUSH20 0xFFFFFFFFFFFFFFFFFFFFFFFFFFFFFFFFFFFFFFFF AND SWAP1 PUSH1 0x20 ADD SWAP1 SWAP3 SWAP2 SWAP1 POP POP POP PUSH2 0x1A91 JUMP JUMPDEST PUSH1 0x40 MLOAD DUP1 DUP3 DUP2 MSTORE PUSH1 0x20 ADD SWAP2 POP POP PUSH1 0x40 MLOAD DUP1 SWAP2 SUB SWAP1 RETURN JUMPDEST PUSH2 0x858 PUSH2 0x1AD9 JUMP JUMPDEST STOP JUMPDEST PUSH2 0x886 PUSH1 0x4 DUP1 CALLDATASIZE SUB PUSH1 0x20 DUP2 LT ISZERO PUSH2 0x870 JUMPI PUSH1 0x0 DUP1 REVERT JUMPDEST DUP2 ADD SWAP1 DUP1 DUP1 CALLDATALOAD SWAP1 PUSH1 0x20 ADD SWAP1 SWAP3 SWAP2 SWAP1 POP POP POP PUSH2 0x1C49 JUMP JUMPDEST STOP JUMPDEST PUSH2 0x8E8 PUSH1 0x4 DUP1 CALLDATASIZE SUB PUSH1 0x80 DUP2 LT ISZERO PUSH2 0x89E JUMPI PUSH1 0x0 DUP1 REVERT JUMPDEST DUP2 ADD SWAP1 DUP1 DUP1 CALLDATALOAD PUSH20 0xFFFFFFFFFFFFFFFFFFFFFFFFFFFFFFFFFFFFFFFF AND SWAP1 PUSH1 0x20 ADD SWAP1 SWAP3 SWAP2 SWAP1 DUP1 CALLDATALOAD SWAP1 PUSH1 0x20 ADD SWAP1 SWAP3 SWAP2 SWAP1 DUP1 CALLDATALOAD SWAP1 PUSH1 0x20 ADD SWAP1 SWAP3 SWAP2 SWAP1 DUP1 CALLDATALOAD SWAP1 PUSH1 0x20 ADD SWAP1 SWAP3 SWAP2 SWAP1 POP POP POP PUSH2 0x1DB1 JUMP JUMPDEST STOP JUMPDEST PUSH2 0x8F2 PUSH2 0x1FF1 JUMP JUMPDEST PUSH1 0x40 MLOAD DUP1 DUP3 DUP2 MSTORE PUSH1 0x20 ADD SWAP2 POP POP PUSH1 0x40 MLOAD DUP1 SWAP2 SUB SWAP1 RETURN JUMPDEST PUSH2 0x94A PUSH1 0x4 DUP1 CALLDATASIZE SUB PUSH1 0x20 DUP2 LT ISZERO PUSH2 0x91E JUMPI PUSH1 0x0 DUP1 REVERT JUMPDEST DUP2 ADD SWAP1 DUP1 DUP1 CALLDATALOAD PUSH20 0xFFFFFFFFFFFFFFFFFFFFFFFFFFFFFFFFFFFFFFFF AND SWAP1 PUSH1 0x20 ADD SWAP1 SWAP3 SWAP2 SWAP1 POP POP POP PUSH2 0x1FF7 JUMP JUMPDEST PUSH1 0x40 MLOAD DUP1 DUP3 DUP2 MSTORE PUSH1 0x20 ADD SWAP2 POP POP PUSH1 0x40 MLOAD DUP1 SWAP2 SUB SWAP1 RETURN JUMPDEST PUSH2 0x968 PUSH2 0x2043 JUMP JUMPDEST PUSH1 0x40 MLOAD DUP1 DUP3 DUP2 MSTORE PUSH1 0x20 ADD SWAP2 POP POP PUSH1 0x40 MLOAD DUP1 SWAP2 SUB SWAP1 RETURN JUMPDEST PUSH2 0x986 PUSH2 0x2067 JUMP JUMPDEST PUSH1 0x40 MLOAD DUP1 DUP3 DUP2 MSTORE PUSH1 0x20 ADD SWAP2 POP POP PUSH1 0x40 MLOAD DUP1 SWAP2 SUB SWAP1 RETURN JUMPDEST PUSH2 0x9A4 PUSH2 0x206D JUMP JUMPDEST PUSH1 0x40 MLOAD DUP1 DUP3 DUP2 MSTORE PUSH1 0x20 ADD SWAP2 POP POP PUSH1 0x40 MLOAD DUP1 SWAP2 SUB SWAP1 RETURN JUMPDEST PUSH2 0x9C2 PUSH2 0x2073 JUMP JUMPDEST PUSH1 0x40 MLOAD DUP1 DUP3 DUP2 MSTORE PUSH1 0x20 ADD SWAP2 POP POP PUSH1 0x40 MLOAD DUP1 SWAP2 SUB SWAP1 RETURN JUMPDEST PUSH2 0xA24 PUSH1 0x4 DUP1 CALLDATASIZE SUB PUSH1 0x40 DUP2 LT ISZERO PUSH2 0x9EE JUMPI PUSH1 0x0 DUP1 REVERT JUMPDEST DUP2 ADD SWAP1 DUP1 DUP1 CALLDATALOAD PUSH20 0xFFFFFFFFFFFFFFFFFFFFFFFFFFFFFFFFFFFFFFFF AND SWAP1 PUSH1 0x20 ADD SWAP1 SWAP3 SWAP2 SWAP1 DUP1 CALLDATALOAD SWAP1 PUSH1 0x20 ADD SWAP1 SWAP3 SWAP2 SWAP1 POP POP POP PUSH2 0x2079 JUMP JUMPDEST STOP JUMPDEST PUSH2 0xA2E PUSH2 0x22F1 JUMP JUMPDEST PUSH1 0x40 MLOAD DUP1 DUP3 DUP2 MSTORE PUSH1 0x20 ADD SWAP2 POP POP PUSH1 0x40 MLOAD DUP1 SWAP2 SUB SWAP1 RETURN JUMPDEST PUSH2 0xA4C PUSH2 0x2315 JUMP JUMPDEST PUSH1 0x40 MLOAD DUP1 DUP3 DUP2 MSTORE PUSH1 0x20 ADD SWAP2 POP POP PUSH1 0x40 MLOAD DUP1 SWAP2 SUB SWAP1 RETURN JUMPDEST PUSH2 0xA6A PUSH2 0x2339 JUMP JUMPDEST PUSH1 0x40 MLOAD DUP1 DUP3 ISZERO ISZERO DUP2 MSTORE PUSH1 0x20 ADD SWAP2 POP POP PUSH1 0x40 MLOAD DUP1 SWAP2 SUB SWAP1 RETURN JUMPDEST PUSH2 0xA8A PUSH2 0x234C JUMP JUMPDEST PUSH1 0x40 MLOAD DUP1 DUP3 DUP2 MSTORE PUSH1 0x20 ADD SWAP2 POP POP PUSH1 0x40 MLOAD DUP1 SWAP2 SUB SWAP1 RETURN JUMPDEST PUSH2 0xAA8 PUSH2 0x2370 JUMP JUMPDEST PUSH1 0x40 MLOAD DUP1 DUP3 PUSH20 0xFFFFFFFFFFFFFFFFFFFFFFFFFFFFFFFFFFFFFFFF AND DUP2 MSTORE PUSH1 0x20 ADD SWAP2 POP POP PUSH1 0x40 MLOAD DUP1 SWAP2 SUB SWAP1 RETURN JUMPDEST PUSH2 0xB00 PUSH1 0x4 DUP1 CALLDATASIZE SUB PUSH1 0x20 DUP2 LT ISZERO PUSH2 0xAEA JUMPI PUSH1 0x0 DUP1 REVERT JUMPDEST DUP2 ADD SWAP1 DUP1 DUP1 CALLDATALOAD SWAP1 PUSH1 0x20 ADD SWAP1 SWAP3 SWAP2 SWAP1 POP POP POP PUSH2 0x239A JUMP JUMPDEST PUSH1 0x40 MLOAD DUP1 DUP3 DUP2 MSTORE PUSH1 0x20 ADD SWAP2 POP POP PUSH1 0x40 MLOAD DUP1 SWAP2 SUB SWAP1 RETURN JUMPDEST PUSH2 0xB1E PUSH2 0x2472 JUMP JUMPDEST PUSH1 0x40 MLOAD DUP1 DUP3 DUP2 MSTORE PUSH1 0x20 ADD SWAP2 POP POP PUSH1 0x40 MLOAD DUP1 SWAP2 SUB SWAP1 RETURN JUMPDEST PUSH2 0xB76 PUSH1 0x4 DUP1 CALLDATASIZE SUB PUSH1 0x20 DUP2 LT ISZERO PUSH2 0xB4A JUMPI PUSH1 0x0 DUP1 REVERT JUMPDEST DUP2 ADD SWAP1 DUP1 DUP1 CALLDATALOAD PUSH20 0xFFFFFFFFFFFFFFFFFFFFFFFFFFFFFFFFFFFFFFFF AND SWAP1 PUSH1 0x20 ADD SWAP1 SWAP3 SWAP2 SWAP1 POP POP POP PUSH2 0x2478 JUMP JUMPDEST PUSH1 0x40 MLOAD DUP1 DUP3 DUP2 MSTORE PUSH1 0x20 ADD SWAP2 POP POP PUSH1 0x40 MLOAD DUP1 SWAP2 SUB SWAP1 RETURN JUMPDEST PUSH2 0xB94 PUSH2 0x2490 JUMP JUMPDEST PUSH1 0x40 MLOAD DUP1 DUP1 PUSH1 0x20 ADD DUP3 DUP2 SUB DUP3 MSTORE DUP4 DUP2 DUP2 MLOAD DUP2 MSTORE PUSH1 0x20 ADD SWAP2 POP DUP1 MLOAD SWAP1 PUSH1 0x20 ADD SWAP1 DUP1 DUP4 DUP4 PUSH1 0x0 JUMPDEST DUP4 DUP2 LT ISZERO PUSH2 0xBD4 JUMPI DUP1 DUP3 ADD MLOAD DUP2 DUP5 ADD MSTORE PUSH1 0x20 DUP2 ADD SWAP1 POP PUSH2 0xBB9 JUMP JUMPDEST POP POP POP POP SWAP1 POP SWAP1 DUP2 ADD SWAP1 PUSH1 0x1F AND DUP1 ISZERO PUSH2 0xC01 JUMPI DUP1 DUP3 SUB DUP1 MLOAD PUSH1 0x1 DUP4 PUSH1 0x20 SUB PUSH2 0x100 EXP SUB NOT AND DUP2 MSTORE PUSH1 0x20 ADD SWAP2 POP JUMPDEST POP SWAP3 POP POP POP PUSH1 0x40 MLOAD DUP1 SWAP2 SUB SWAP1 RETURN JUMPDEST PUSH2 0xC17 PUSH2 0x2532 JUMP JUMPDEST PUSH1 0x40 MLOAD DUP1 DUP3 ISZERO ISZERO DUP2 MSTORE PUSH1 0x20 ADD SWAP2 POP POP PUSH1 0x40 MLOAD DUP1 SWAP2 SUB SWAP1 RETURN JUMPDEST PUSH2 0xC37 PUSH2 0x2545 JUMP JUMPDEST STOP JUMPDEST PUSH2 0xC7B PUSH1 0x4 DUP1 CALLDATASIZE SUB PUSH1 0x20 DUP2 LT ISZERO PUSH2 0xC4F JUMPI PUSH1 0x0 DUP1 REVERT JUMPDEST DUP2 ADD SWAP1 DUP1 DUP1 CALLDATALOAD PUSH20 0xFFFFFFFFFFFFFFFFFFFFFFFFFFFFFFFFFFFFFFFF AND SWAP1 PUSH1 0x20 ADD SWAP1 SWAP3 SWAP2 SWAP1 POP POP POP PUSH2 0x263D JUMP JUMPDEST PUSH1 0x40 MLOAD DUP1 DUP3 DUP2 MSTORE PUSH1 0x20 ADD SWAP2 POP POP PUSH1 0x40 MLOAD DUP1 SWAP2 SUB SWAP1 RETURN JUMPDEST PUSH2 0xCD1 PUSH1 0x4 DUP1 CALLDATASIZE SUB PUSH1 0x60 DUP2 LT ISZERO PUSH2 0xCA7 JUMPI PUSH1 0x0 DUP1 REVERT JUMPDEST DUP2 ADD SWAP1 DUP1 DUP1 CALLDATALOAD SWAP1 PUSH1 0x20 ADD SWAP1 SWAP3 SWAP2 SWAP1 DUP1 CALLDATALOAD SWAP1 PUSH1 0x20 ADD SWAP1 SWAP3 SWAP2 SWAP1 DUP1 CALLDATALOAD SWAP1 PUSH1 0x20 ADD SWAP1 SWAP3 SWAP2 SWAP1 POP POP POP PUSH2 0x2689 JUMP JUMPDEST STOP JUMPDEST PUSH2 0xD1F PUSH1 0x4 DUP1 CALLDATASIZE SUB PUSH1 0x40 DUP2 LT ISZERO PUSH2 0xCE9 JUMPI PUSH1 0x0 DUP1 REVERT JUMPDEST DUP2 ADD SWAP1 DUP1 DUP1 CALLDATALOAD PUSH20 0xFFFFFFFFFFFFFFFFFFFFFFFFFFFFFFFFFFFFFFFF AND SWAP1 PUSH1 0x20 ADD SWAP1 SWAP3 SWAP2 SWAP1 DUP1 CALLDATALOAD SWAP1 PUSH1 0x20 ADD SWAP1 SWAP3 SWAP2 SWAP1 POP POP POP PUSH2 0x2A37 JUMP JUMPDEST PUSH1 0x40 MLOAD DUP1 DUP3 ISZERO ISZERO DUP2 MSTORE PUSH1 0x20 ADD SWAP2 POP POP PUSH1 0x40 MLOAD DUP1 SWAP2 SUB SWAP1 RETURN JUMPDEST PUSH2 0xD3F PUSH2 0x2B04 JUMP JUMPDEST STOP JUMPDEST PUSH2 0xD8D PUSH1 0x4 DUP1 CALLDATASIZE SUB PUSH1 0x40 DUP2 LT ISZERO PUSH2 0xD57 JUMPI PUSH1 0x0 DUP1 REVERT JUMPDEST DUP2 ADD SWAP1 DUP1 DUP1 CALLDATALOAD PUSH20 0xFFFFFFFFFFFFFFFFFFFFFFFFFFFFFFFFFFFFFFFF AND SWAP1 PUSH1 0x20 ADD SWAP1 SWAP3 SWAP2 SWAP1 DUP1 CALLDATALOAD SWAP1 PUSH1 0x20 ADD SWAP1 SWAP3 SWAP2 SWAP1 POP POP POP PUSH2 0x2C1E JUMP JUMPDEST PUSH1 0x40 MLOAD DUP1 DUP3 ISZERO ISZERO DUP2 MSTORE PUSH1 0x20 ADD SWAP2 POP POP PUSH1 0x40 MLOAD DUP1 SWAP2 SUB SWAP1 RETURN JUMPDEST PUSH2 0xDAD PUSH2 0x2C3C JUMP JUMPDEST PUSH1 0x40 MLOAD DUP1 DUP3 DUP2 MSTORE PUSH1 0x20 ADD SWAP2 POP POP PUSH1 0x40 MLOAD DUP1 SWAP2 SUB SWAP1 RETURN JUMPDEST PUSH2 0xDEF PUSH1 0x4 DUP1 CALLDATASIZE SUB PUSH1 0x20 DUP2 LT ISZERO PUSH2 0xDD9 JUMPI PUSH1 0x0 DUP1 REVERT JUMPDEST DUP2 ADD SWAP1 DUP1 DUP1 CALLDATALOAD SWAP1 PUSH1 0x20 ADD SWAP1 SWAP3 SWAP2 SWAP1 POP POP POP PUSH2 0x2C42 JUMP JUMPDEST STOP JUMPDEST PUSH2 0xDF9 PUSH2 0x2DC8 JUMP JUMPDEST PUSH1 0x40 MLOAD DUP1 DUP3 DUP2 MSTORE PUSH1 0x20 ADD SWAP2 POP POP PUSH1 0x40 MLOAD DUP1 SWAP2 SUB SWAP1 RETURN JUMPDEST PUSH2 0xE3B PUSH1 0x4 DUP1 CALLDATASIZE SUB PUSH1 0x20 DUP2 LT ISZERO PUSH2 0xE25 JUMPI PUSH1 0x0 DUP1 REVERT JUMPDEST DUP2 ADD SWAP1 DUP1 DUP1 CALLDATALOAD SWAP1 PUSH1 0x20 ADD SWAP1 SWAP3 SWAP2 SWAP1 POP POP POP PUSH2 0x2DCE JUMP JUMPDEST STOP JUMPDEST PUSH2 0xE69 PUSH1 0x4 DUP1 CALLDATASIZE SUB PUSH1 0x20 DUP2 LT ISZERO PUSH2 0xE53 JUMPI PUSH1 0x0 DUP1 REVERT JUMPDEST DUP2 ADD SWAP1 DUP1 DUP1 CALLDATALOAD SWAP1 PUSH1 0x20 ADD SWAP1 SWAP3 SWAP2 SWAP1 POP POP POP PUSH2 0x3027 JUMP JUMPDEST STOP JUMPDEST PUSH2 0xEAD PUSH1 0x4 DUP1 CALLDATASIZE SUB PUSH1 0x20 DUP2 LT ISZERO PUSH2 0xE81 JUMPI PUSH1 0x0 DUP1 REVERT JUMPDEST DUP2 ADD SWAP1 DUP1 DUP1 CALLDATALOAD PUSH20 0xFFFFFFFFFFFFFFFFFFFFFFFFFFFFFFFFFFFFFFFF AND SWAP1 PUSH1 0x20 ADD SWAP1 SWAP3 SWAP2 SWAP1 POP POP POP PUSH2 0x303C JUMP JUMPDEST STOP JUMPDEST PUSH2 0xF11 PUSH1 0x4 DUP1 CALLDATASIZE SUB PUSH1 0x40 DUP2 LT ISZERO PUSH2 0xEC5 JUMPI PUSH1 0x0 DUP1 REVERT JUMPDEST DUP2 ADD SWAP1 DUP1 DUP1 CALLDATALOAD PUSH20 0xFFFFFFFFFFFFFFFFFFFFFFFFFFFFFFFFFFFFFFFF AND SWAP1 PUSH1 0x20 ADD SWAP1 SWAP3 SWAP2 SWAP1 DUP1 CALLDATALOAD PUSH20 0xFFFFFFFFFFFFFFFFFFFFFFFFFFFFFFFFFFFFFFFF AND SWAP1 PUSH1 0x20 ADD SWAP1 SWAP3 SWAP2 SWAP1 POP POP POP PUSH2 0x32A8 JUMP JUMPDEST PUSH1 0x40 MLOAD DUP1 DUP3 DUP2 MSTORE PUSH1 0x20 ADD SWAP2 POP POP PUSH1 0x40 MLOAD DUP1 SWAP2 SUB SWAP1 RETURN JUMPDEST PUSH2 0x107D PUSH1 0x4 DUP1 CALLDATASIZE SUB PUSH1 0x60 DUP2 LT ISZERO PUSH2 0xF3D JUMPI PUSH1 0x0 DUP1 REVERT JUMPDEST DUP2 ADD SWAP1 DUP1 DUP1 CALLDATALOAD SWAP1 PUSH1 0x20 ADD SWAP1 PUSH5 0x100000000 DUP2 GT ISZERO PUSH2 0xF5A JUMPI PUSH1 0x0 DUP1 REVERT JUMPDEST DUP3 ADD DUP4 PUSH1 0x20 DUP3 ADD GT ISZERO PUSH2 0xF6C JUMPI PUSH1 0x0 DUP1 REVERT JUMPDEST DUP1 CALLDATALOAD SWAP1 PUSH1 0x20 ADD SWAP2 DUP5 PUSH1 0x20 DUP4 MUL DUP5 ADD GT PUSH5 0x100000000 DUP4 GT OR ISZERO PUSH2 0xF8E JUMPI PUSH1 0x0 DUP1 REVERT JUMPDEST SWAP2 SWAP1 DUP1 DUP1 PUSH1 0x20 MUL PUSH1 0x20 ADD PUSH1 0x40 MLOAD SWAP1 DUP2 ADD PUSH1 0x40 MSTORE DUP1 SWAP4 SWAP3 SWAP2 SWAP1 DUP2 DUP2 MSTORE PUSH1 0x20 ADD DUP4 DUP4 PUSH1 0x20 MUL DUP1 DUP3 DUP5 CALLDATACOPY PUSH1 0x0 DUP2 DUP5 ADD MSTORE PUSH1 0x1F NOT PUSH1 0x1F DUP3 ADD AND SWAP1 POP DUP1 DUP4 ADD SWAP3 POP POP POP POP POP POP POP SWAP2 SWAP3 SWAP2 SWAP3 SWAP1 DUP1 CALLDATALOAD SWAP1 PUSH1 0x20 ADD SWAP1 PUSH5 0x100000000 DUP2 GT ISZERO PUSH2 0xFEE JUMPI PUSH1 0x0 DUP1 REVERT JUMPDEST DUP3 ADD DUP4 PUSH1 0x20 DUP3 ADD GT ISZERO PUSH2 0x1000 JUMPI PUSH1 0x0 DUP1 REVERT JUMPDEST DUP1 CALLDATALOAD SWAP1 PUSH1 0x20 ADD SWAP2 DUP5 PUSH1 0x20 DUP4 MUL DUP5 ADD GT PUSH5 0x100000000 DUP4 GT OR ISZERO PUSH2 0x1022 JUMPI PUSH1 0x0 DUP1 REVERT JUMPDEST SWAP2 SWAP1 DUP1 DUP1 PUSH1 0x20 MUL PUSH1 0x20 ADD PUSH1 0x40 MLOAD SWAP1 DUP2 ADD PUSH1 0x40 MSTORE DUP1 SWAP4 SWAP3 SWAP2 SWAP1 DUP2 DUP2 MSTORE PUSH1 0x20 ADD DUP4 DUP4 PUSH1 0x20 MUL DUP1 DUP3 DUP5 CALLDATACOPY PUSH1 0x0 DUP2 DUP5 ADD MSTORE PUSH1 0x1F NOT PUSH1 0x1F DUP3 ADD AND SWAP1 POP DUP1 DUP4 ADD SWAP3 POP POP POP POP POP POP POP SWAP2 SWAP3 SWAP2 SWAP3 SWAP1 DUP1 CALLDATALOAD ISZERO ISZERO SWAP1 PUSH1 0x20 ADD SWAP1 SWAP3 SWAP2 SWAP1 POP POP POP PUSH2 0x332F JUMP JUMPDEST STOP JUMPDEST PUSH2 0x1087 PUSH2 0x383B JUMP JUMPDEST PUSH1 0x40 MLOAD DUP1 DUP3 DUP2 MSTORE PUSH1 0x20 ADD SWAP2 POP POP PUSH1 0x40 MLOAD DUP1 SWAP2 SUB SWAP1 RETURN JUMPDEST PUSH2 0x10A5 PUSH2 0x3841 JUMP JUMPDEST PUSH1 0x40 MLOAD DUP1 DUP3 DUP2 MSTORE PUSH1 0x20 ADD SWAP2 POP POP PUSH1 0x40 MLOAD DUP1 SWAP2 SUB SWAP1 RETURN JUMPDEST PUSH2 0x10FD PUSH1 0x4 DUP1 CALLDATASIZE SUB PUSH1 0x20 DUP2 LT ISZERO PUSH2 0x10D1 JUMPI PUSH1 0x0 DUP1 REVERT JUMPDEST DUP2 ADD SWAP1 DUP1 DUP1 CALLDATALOAD PUSH20 0xFFFFFFFFFFFFFFFFFFFFFFFFFFFFFFFFFFFFFFFF AND SWAP1 PUSH1 0x20 ADD SWAP1 SWAP3 SWAP2 SWAP1 POP POP POP PUSH2 0x3865 JUMP JUMPDEST PUSH1 0x40 MLOAD DUP1 DUP3 DUP2 MSTORE PUSH1 0x20 ADD SWAP2 POP POP PUSH1 0x40 MLOAD DUP1 SWAP2 SUB SWAP1 RETURN JUMPDEST PUSH2 0x1155 PUSH1 0x4 DUP1 CALLDATASIZE SUB PUSH1 0x20 DUP2 LT ISZERO PUSH2 0x1129 JUMPI PUSH1 0x0 DUP1 REVERT JUMPDEST DUP2 ADD SWAP1 DUP1 DUP1 CALLDATALOAD PUSH20 0xFFFFFFFFFFFFFFFFFFFFFFFFFFFFFFFFFFFFFFFF AND SWAP1 PUSH1 0x20 ADD SWAP1 SWAP3 SWAP2 SWAP1 POP POP POP PUSH2 0x387F JUMP JUMPDEST STOP JUMPDEST PUSH2 0x1183 PUSH1 0x4 DUP1 CALLDATASIZE SUB PUSH1 0x20 DUP2 LT ISZERO PUSH2 0x116D JUMPI PUSH1 0x0 DUP1 REVERT JUMPDEST DUP2 ADD SWAP1 DUP1 DUP1 CALLDATALOAD SWAP1 PUSH1 0x20 ADD SWAP1 SWAP3 SWAP2 SWAP1 POP POP POP PUSH2 0x3A74 JUMP JUMPDEST STOP JUMPDEST PUSH2 0x11D1 PUSH1 0x4 DUP1 CALLDATASIZE SUB PUSH1 0x40 DUP2 LT ISZERO PUSH2 0x119B JUMPI PUSH1 0x0 DUP1 REVERT JUMPDEST DUP2 ADD SWAP1 DUP1 DUP1 CALLDATALOAD PUSH20 0xFFFFFFFFFFFFFFFFFFFFFFFFFFFFFFFFFFFFFFFF AND SWAP1 PUSH1 0x20 ADD SWAP1 SWAP3 SWAP2 SWAP1 DUP1 CALLDATALOAD SWAP1 PUSH1 0x20 ADD SWAP1 SWAP3 SWAP2 SWAP1 POP POP POP PUSH2 0x3A88 JUMP JUMPDEST PUSH1 0x40 MLOAD DUP1 DUP3 DUP2 MSTORE PUSH1 0x20 ADD SWAP2 POP POP PUSH1 0x40 MLOAD DUP1 SWAP2 SUB SWAP1 RETURN JUMPDEST PUSH1 0xA SLOAD DUP2 JUMP JUMPDEST PUSH1 0x60 PUSH1 0x3 DUP1 SLOAD PUSH1 0x1 DUP2 PUSH1 0x1 AND ISZERO PUSH2 0x100 MUL SUB AND PUSH1 0x2 SWAP1 DIV DUP1 PUSH1 0x1F ADD PUSH1 0x20 DUP1 SWAP2 DIV MUL PUSH1 0x20 ADD PUSH1 0x40 MLOAD SWAP1 DUP2 ADD PUSH1 0x40 MSTORE DUP1 SWAP3 SWAP2 SWAP1 DUP2 DUP2 MSTORE PUSH1 0x20 ADD DUP3 DUP1 SLOAD PUSH1 0x1 DUP2 PUSH1 0x1 AND ISZERO PUSH2 0x100 MUL SUB AND PUSH1 0x2 SWAP1 DIV DUP1 ISZERO PUSH2 0x1285 JUMPI DUP1 PUSH1 0x1F LT PUSH2 0x125A JUMPI PUSH2 0x100 DUP1 DUP4 SLOAD DIV MUL DUP4 MSTORE SWAP2 PUSH1 0x20 ADD SWAP2 PUSH2 0x1285 JUMP JUMPDEST DUP3 ADD SWAP2 SWAP1 PUSH1 0x0 MSTORE PUSH1 0x20 PUSH1 0x0 KECCAK256 SWAP1 JUMPDEST DUP2 SLOAD DUP2 MSTORE SWAP1 PUSH1 0x1 ADD SWAP1 PUSH1 0x20 ADD DUP1 DUP4 GT PUSH2 0x1268 JUMPI DUP3 SWAP1 SUB PUSH1 0x1F AND DUP3 ADD SWAP2 JUMPDEST POP POP POP POP POP SWAP1 POP SWAP1 JUMP JUMPDEST PUSH1 0x0 PUSH2 0x12A3 PUSH2 0x129C PUSH2 0x3CDA JUMP JUMPDEST DUP5 DUP5 PUSH2 0x3CE2 JUMP JUMPDEST PUSH1 0x1 SWAP1 POP SWAP3 SWAP2 POP POP JUMP JUMPDEST PUSH32 0x0 DUP2 JUMP JUMPDEST PUSH1 0x0 PUSH1 0x2 SLOAD SWAP1 POP SWAP1 JUMP JUMPDEST PUSH1 0x0 ISZERO ISZERO PUSH1 0x11 PUSH1 0x0 SWAP1 SLOAD SWAP1 PUSH2 0x100 EXP SWAP1 DIV PUSH1 0xFF AND ISZERO ISZERO EQ PUSH2 0x1347 JUMPI PUSH1 0x40 MLOAD PUSH32 0x8C379A000000000000000000000000000000000000000000000000000000000 DUP2 MSTORE PUSH1 0x4 ADD DUP1 DUP1 PUSH1 0x20 ADD DUP3 DUP2 SUB DUP3 MSTORE PUSH1 0x23 DUP2 MSTORE PUSH1 0x20 ADD DUP1 PUSH2 0x4CB2 PUSH1 0x23 SWAP2 CODECOPY PUSH1 0x40 ADD SWAP2 POP POP PUSH1 0x40 MLOAD DUP1 SWAP2 SUB SWAP1 REVERT JUMPDEST JUMP JUMPDEST PUSH1 0x0 PUSH2 0x1356 DUP5 DUP5 DUP5 PUSH2 0x3ED9 JUMP JUMPDEST PUSH2 0x1417 DUP5 PUSH2 0x1362 PUSH2 0x3CDA JUMP JUMPDEST PUSH2 0x1412 DUP6 PUSH1 0x40 MLOAD DUP1 PUSH1 0x60 ADD PUSH1 0x40 MSTORE DUP1 PUSH1 0x28 DUP2 MSTORE PUSH1 0x20 ADD PUSH2 0x4D17 PUSH1 0x28 SWAP2 CODECOPY PUSH1 0x1 PUSH1 0x0 DUP12 PUSH20 0xFFFFFFFFFFFFFFFFFFFFFFFFFFFFFFFFFFFFFFFF AND PUSH20 0xFFFFFFFFFFFFFFFFFFFFFFFFFFFFFFFFFFFFFFFF AND DUP2 MSTORE PUSH1 0x20 ADD SWAP1 DUP2 MSTORE PUSH1 0x20 ADD PUSH1 0x0 KECCAK256 PUSH1 0x0 PUSH2 0x13C8 PUSH2 0x3CDA JUMP JUMPDEST PUSH20 0xFFFFFFFFFFFFFFFFFFFFFFFFFFFFFFFFFFFFFFFF AND PUSH20 0xFFFFFFFFFFFFFFFFFFFFFFFFFFFFFFFFFFFFFFFF AND DUP2 MSTORE PUSH1 0x20 ADD SWAP1 DUP2 MSTORE PUSH1 0x20 ADD PUSH1 0x0 KECCAK256 SLOAD PUSH2 0x419A SWAP1 SWAP3 SWAP2 SWAP1 PUSH4 0xFFFFFFFF AND JUMP JUMPDEST PUSH2 0x3CE2 JUMP JUMPDEST PUSH1 0x1 SWAP1 POP SWAP4 SWAP3 POP POP POP JUMP JUMPDEST PUSH32 0x0 DUP2 JUMP JUMPDEST PUSH1 0x13 PUSH1 0x20 MSTORE DUP1 PUSH1 0x0 MSTORE PUSH1 0x40 PUSH1 0x0 KECCAK256 PUSH1 0x0 SWAP2 POP SWAP1 POP DUP1 PUSH1 0x0 ADD SLOAD SWAP1 DUP1 PUSH1 0x1 ADD SLOAD SWAP1 DUP1 PUSH1 0x2 ADD SLOAD SWAP1 POP DUP4 JUMP JUMPDEST PUSH1 0x0 PUSH1 0x13 PUSH1 0x0 DUP4 PUSH20 0xFFFFFFFFFFFFFFFFFFFFFFFFFFFFFFFFFFFFFFFF AND PUSH20 0xFFFFFFFFFFFFFFFFFFFFFFFFFFFFFFFFFFFFFFFF AND DUP2 MSTORE PUSH1 0x20 ADD SWAP1 DUP2 MSTORE PUSH1 0x20 ADD PUSH1 0x0 KECCAK256 PUSH1 0x2 ADD SLOAD SWAP1 POP SWAP2 SWAP1 POP JUMP JUMPDEST PUSH1 0x0 PUSH1 0x5 PUSH1 0x0 SWAP1 SLOAD SWAP1 PUSH2 0x100 EXP SWAP1 DIV PUSH1 0xFF AND SWAP1 POP SWAP1 JUMP JUMPDEST PUSH1 0x0 PUSH2 0x157C PUSH2 0x14E0 PUSH2 0x3CDA JUMP JUMPDEST DUP5 PUSH2 0x1577 DUP6 PUSH1 0x1 PUSH1 0x0 PUSH2 0x14F1 PUSH2 0x3CDA JUMP JUMPDEST PUSH20 0xFFFFFFFFFFFFFFFFFFFFFFFFFFFFFFFFFFFFFFFF AND PUSH20 0xFFFFFFFFFFFFFFFFFFFFFFFFFFFFFFFFFFFFFFFF AND DUP2 MSTORE PUSH1 0x20 ADD SWAP1 DUP2 MSTORE PUSH1 0x20 ADD PUSH1 0x0 KECCAK256 PUSH1 0x0 DUP10 PUSH20 0xFFFFFFFFFFFFFFFFFFFFFFFFFFFFFFFFFFFFFFFF AND PUSH20 0xFFFFFFFFFFFFFFFFFFFFFFFFFFFFFFFFFFFFFFFF AND DUP2 MSTORE PUSH1 0x20 ADD SWAP1 DUP2 MSTORE PUSH1 0x20 ADD PUSH1 0x0 KECCAK256 SLOAD PUSH2 0x4254 SWAP1 SWAP2 SWAP1 PUSH4 0xFFFFFFFF AND JUMP JUMPDEST PUSH2 0x3CE2 JUMP JUMPDEST PUSH1 0x1 SWAP1 POP SWAP3 SWAP2 POP POP JUMP JUMPDEST PUSH1 0x6 PUSH1 0x0 SWAP1 SLOAD SWAP1 PUSH2 0x100 EXP SWAP1 DIV PUSH20 0xFFFFFFFFFFFFFFFFFFFFFFFFFFFFFFFFFFFFFFFF AND DUP2 JUMP JUMPDEST PUSH32 0x0 DUP2 JUMP JUMPDEST PUSH2 0x15D8 PUSH2 0x12DB JUMP JUMPDEST PUSH1 0x13 PUSH1 0x0 CALLER PUSH20 0xFFFFFFFFFFFFFFFFFFFFFFFFFFFFFFFFFFFFFFFF AND PUSH20 0xFFFFFFFFFFFFFFFFFFFFFFFFFFFFFFFFFFFFFFFF AND DUP2 MSTORE PUSH1 0x20 ADD SWAP1 DUP2 MSTORE PUSH1 0x20 ADD PUSH1 0x0 KECCAK256 PUSH1 0x0 ADD SLOAD DUP2 GT ISZERO PUSH2 0x1690 JUMPI PUSH1 0x40 MLOAD PUSH32 0x8C379A000000000000000000000000000000000000000000000000000000000 DUP2 MSTORE PUSH1 0x4 ADD DUP1 DUP1 PUSH1 0x20 ADD DUP3 DUP2 SUB DUP3 MSTORE PUSH1 0x20 DUP2 MSTORE PUSH1 0x20 ADD DUP1 PUSH32 0x416D6F756E74206578636565647320617661696C61626C652062616C616E6365 DUP2 MSTORE POP PUSH1 0x20 ADD SWAP2 POP POP PUSH1 0x40 MLOAD DUP1 SWAP2 SUB SWAP1 REVERT JUMPDEST PUSH1 0x0 PUSH2 0x169B CALLER PUSH2 0x42DC JUMP JUMPDEST SWAP1 POP PUSH1 0x0 PUSH2 0x16F4 DUP4 PUSH1 0x13 PUSH1 0x0 CALLER PUSH20 0xFFFFFFFFFFFFFFFFFFFFFFFFFFFFFFFFFFFFFFFF AND PUSH20 0xFFFFFFFFFFFFFFFFFFFFFFFFFFFFFFFFFFFFFFFF AND DUP2 MSTORE PUSH1 0x20 ADD SWAP1 DUP2 MSTORE PUSH1 0x20 ADD PUSH1 0x0 KECCAK256 PUSH1 0x0 ADD SLOAD PUSH2 0x4399 SWAP1 SWAP2 SWAP1 PUSH4 0xFFFFFFFF AND JUMP JUMPDEST PUSH1 0x13 PUSH1 0x0 CALLER PUSH20 0xFFFFFFFFFFFFFFFFFFFFFFFFFFFFFFFFFFFFFFFF AND PUSH20 0xFFFFFFFFFFFFFFFFFFFFFFFFFFFFFFFFFFFFFFFF AND DUP2 MSTORE PUSH1 0x20 ADD SWAP1 DUP2 MSTORE PUSH1 0x20 ADD PUSH1 0x0 KECCAK256 PUSH1 0x0 ADD DUP2 SWAP1 SSTORE POP PUSH2 0x174F DUP4 PUSH1 0xE SLOAD PUSH2 0x4399 SWAP1 SWAP2 SWAP1 PUSH4 0xFFFFFFFF AND JUMP JUMPDEST PUSH1 0xE DUP2 SWAP1 SSTORE POP PUSH31 0x27B57DD0F4617EB13B9347DC92A2C7404C6BCDB2349863C760672BDA494807 CALLER DUP5 PUSH1 0x40 MLOAD DUP1 DUP4 PUSH20 0xFFFFFFFFFFFFFFFFFFFFFFFFFFFFFFFFFFFFFFFF AND DUP2 MSTORE PUSH1 0x20 ADD DUP3 DUP2 MSTORE PUSH1 0x20 ADD SWAP3 POP POP POP PUSH1 0x40 MLOAD DUP1 SWAP2 SUB SWAP1 LOG1 PUSH1 0x0 PUSH1 0xE SLOAD GT ISZERO PUSH2 0x17E0 JUMPI PUSH2 0x17DD PUSH2 0x3E8 PUSH2 0x17CF PUSH1 0x10 SLOAD DUP7 PUSH2 0x441C SWAP1 SWAP2 SWAP1 PUSH4 0xFFFFFFFF AND JUMP JUMPDEST PUSH2 0x44A2 SWAP1 SWAP2 SWAP1 PUSH4 0xFFFFFFFF AND JUMP JUMPDEST SWAP1 POP JUMPDEST PUSH1 0x0 PUSH2 0x1807 DUP3 PUSH2 0x17F9 DUP6 DUP8 PUSH2 0x4254 SWAP1 SWAP2 SWAP1 PUSH4 0xFFFFFFFF AND JUMP JUMPDEST PUSH2 0x4399 SWAP1 SWAP2 SWAP1 PUSH4 0xFFFFFFFF AND JUMP JUMPDEST SWAP1 POP PUSH2 0x1814 ADDRESS CALLER DUP4 PUSH2 0x3ED9 JUMP JUMPDEST PUSH1 0x0 PUSH2 0x183F PUSH2 0x3E8 PUSH2 0x1831 PUSH1 0xC SLOAD DUP7 PUSH2 0x441C SWAP1 SWAP2 SWAP1 PUSH4 0xFFFFFFFF AND JUMP JUMPDEST PUSH2 0x44A2 SWAP1 SWAP2 SWAP1 PUSH4 0xFFFFFFFF AND JUMP JUMPDEST SWAP1 POP PUSH2 0x18DE ADDRESS ADDRESS PUSH20 0xFFFFFFFFFFFFFFFFFFFFFFFFFFFFFFFFFFFFFFFF AND PUSH4 0x8DA5CB5B PUSH1 0x40 MLOAD DUP2 PUSH4 0xFFFFFFFF AND PUSH1 0xE0 SHL DUP2 MSTORE PUSH1 0x4 ADD PUSH1 0x20 PUSH1 0x40 MLOAD DUP1 DUP4 SUB DUP2 DUP7 DUP1 EXTCODESIZE ISZERO DUP1 ISZERO PUSH2 0x188B JUMPI PUSH1 0x0 DUP1 REVERT JUMPDEST POP GAS STATICCALL ISZERO DUP1 ISZERO PUSH2 0x189F JUMPI RETURNDATASIZE PUSH1 0x0 DUP1 RETURNDATACOPY RETURNDATASIZE PUSH1 0x0 REVERT JUMPDEST POP POP POP POP PUSH1 0x40 MLOAD RETURNDATASIZE PUSH1 0x20 DUP2 LT ISZERO PUSH2 0x18B5 JUMPI PUSH1 0x0 DUP1 REVERT JUMPDEST DUP2 ADD SWAP1 DUP1 DUP1 MLOAD SWAP1 PUSH1 0x20 ADD SWAP1 SWAP3 SWAP2 SWAP1 POP POP POP PUSH2 0x18D9 DUP5 DUP8 PUSH2 0x4399 SWAP1 SWAP2 SWAP1 PUSH4 0xFFFFFFFF AND JUMP JUMPDEST PUSH2 0x3ED9 JUMP JUMPDEST PUSH1 0x0 DUP2 GT ISZERO PUSH2 0x18F1 JUMPI PUSH2 0x18F0 DUP2 PUSH2 0x452B JUMP JUMPDEST JUMPDEST PUSH32 0x33EF926B7771DF44FD5BF5A690410374540AA634051AF1E3A6DD2F67C94A18F1 CALLER DUP4 DUP6 DUP5 DUP9 PUSH1 0x40 MLOAD DUP1 DUP7 PUSH20 0xFFFFFFFFFFFFFFFFFFFFFFFFFFFFFFFFFFFFFFFF AND DUP2 MSTORE PUSH1 0x20 ADD DUP6 DUP2 MSTORE PUSH1 0x20 ADD DUP5 DUP2 MSTORE PUSH1 0x20 ADD DUP4 DUP2 MSTORE PUSH1 0x20 ADD DUP3 DUP2 MSTORE PUSH1 0x20 ADD SWAP6 POP POP POP POP POP POP PUSH1 0x40 MLOAD DUP1 SWAP2 SUB SWAP1 LOG1 POP POP POP POP POP JUMP JUMPDEST PUSH2 0x196D PUSH2 0x3CDA JUMP JUMPDEST PUSH20 0xFFFFFFFFFFFFFFFFFFFFFFFFFFFFFFFFFFFFFFFF AND PUSH2 0x198B PUSH2 0x2370 JUMP JUMPDEST PUSH20 0xFFFFFFFFFFFFFFFFFFFFFFFFFFFFFFFFFFFFFFFF AND EQ PUSH2 0x1A14 JUMPI PUSH1 0x40 MLOAD PUSH32 0x8C379A000000000000000000000000000000000000000000000000000000000 DUP2 MSTORE PUSH1 0x4 ADD DUP1 DUP1 PUSH1 0x20 ADD DUP3 DUP2 SUB DUP3 MSTORE PUSH1 0x20 DUP2 MSTORE PUSH1 0x20 ADD DUP1 PUSH32 0x4F776E61626C653A2063616C6C6572206973206E6F7420746865206F776E6572 DUP2 MSTORE POP PUSH1 0x20 ADD SWAP2 POP POP PUSH1 0x40 MLOAD DUP1 SWAP2 SUB SWAP1 REVERT JUMPDEST PUSH1 0x1 PUSH1 0x11 PUSH1 0x1 PUSH2 0x100 EXP DUP2 SLOAD DUP2 PUSH1 0xFF MUL NOT AND SWAP1 DUP4 ISZERO ISZERO MUL OR SWAP1 SSTORE POP PUSH32 0xB72C13E7FE7B7C2AC9E1B8CA3F0F5CB08BD8CA2B1C556FBF9B45C95A15A53543 PUSH1 0x40 MLOAD PUSH1 0x40 MLOAD DUP1 SWAP2 SUB SWAP1 LOG1 JUMP JUMPDEST PUSH1 0x11 PUSH1 0x0 SWAP1 SLOAD SWAP1 PUSH2 0x100 EXP SWAP1 DIV PUSH1 0xFF AND DUP2 JUMP JUMPDEST PUSH1 0xF SLOAD DUP2 JUMP JUMPDEST PUSH1 0x9 SLOAD DUP2 JUMP JUMPDEST PUSH2 0x1A84 PUSH2 0x45B4 JUMP JUMPDEST PUSH2 0x1A8E ADDRESS DUP3 PUSH2 0x465C JUMP JUMPDEST POP JUMP JUMPDEST PUSH1 0x0 DUP1 PUSH1 0x0 DUP4 PUSH20 0xFFFFFFFFFFFFFFFFFFFFFFFFFFFFFFFFFFFFFFFF AND PUSH20 0xFFFFFFFFFFFFFFFFFFFFFFFFFFFFFFFFFFFFFFFF AND DUP2 MSTORE PUSH1 0x20 ADD SWAP1 DUP2 MSTORE PUSH1 0x20 ADD PUSH1 0x0 KECCAK256 SLOAD SWAP1 POP SWAP2 SWAP1 POP JUMP JUMPDEST PUSH2 0x1AE1 PUSH2 0x3CDA JUMP JUMPDEST PUSH20 0xFFFFFFFFFFFFFFFFFFFFFFFFFFFFFFFFFFFFFFFF AND PUSH2 0x1AFF PUSH2 0x2370 JUMP JUMPDEST PUSH20 0xFFFFFFFFFFFFFFFFFFFFFFFFFFFFFFFFFFFFFFFF AND EQ PUSH2 0x1B88 JUMPI PUSH1 0x40 MLOAD PUSH32 0x8C379A000000000000000000000000000000000000000000000000000000000 DUP2 MSTORE PUSH1 0x4 ADD DUP1 DUP1 PUSH1 0x20 ADD DUP3 DUP2 SUB DUP3 MSTORE PUSH1 0x20 DUP2 MSTORE PUSH1 0x20 ADD DUP1 PUSH32 0x4F776E61626C653A2063616C6C6572206973206E6F7420746865206F776E6572 DUP2 MSTORE POP PUSH1 0x20 ADD SWAP2 POP POP PUSH1 0x40 MLOAD DUP1 SWAP2 SUB SWAP1 REVERT JUMPDEST PUSH1 0x0 PUSH20 0xFFFFFFFFFFFFFFFFFFFFFFFFFFFFFFFFFFFFFFFF AND PUSH1 0x5 PUSH1 0x1 SWAP1 SLOAD SWAP1 PUSH2 0x100 EXP SWAP1 DIV PUSH20 0xFFFFFFFFFFFFFFFFFFFFFFFFFFFFFFFFFFFFFFFF AND PUSH20 0xFFFFFFFFFFFFFFFFFFFFFFFFFFFFFFFFFFFFFFFF AND PUSH32 0x8BE0079C531659141344CD1FD0A4F28419497F9722A3DAAFE3B4186F6B6457E0 PUSH1 0x40 MLOAD PUSH1 0x40 MLOAD DUP1 SWAP2 SUB SWAP1 LOG3 PUSH1 0x0 PUSH1 0x5 PUSH1 0x1 PUSH2 0x100 EXP DUP2 SLOAD DUP2 PUSH20 0xFFFFFFFFFFFFFFFFFFFFFFFFFFFFFFFFFFFFFFFF MUL NOT AND SWAP1 DUP4 PUSH20 0xFFFFFFFFFFFFFFFFFFFFFFFFFFFFFFFFFFFFFFFF AND MUL OR SWAP1 SSTORE POP JUMP JUMPDEST PUSH2 0x1C51 PUSH2 0x3CDA JUMP JUMPDEST PUSH20 0xFFFFFFFFFFFFFFFFFFFFFFFFFFFFFFFFFFFFFFFF AND PUSH2 0x1C6F PUSH2 0x2370 JUMP JUMPDEST PUSH20 0xFFFFFFFFFFFFFFFFFFFFFFFFFFFFFFFFFFFFFFFF AND EQ PUSH2 0x1CF8 JUMPI PUSH1 0x40 MLOAD PUSH32 0x8C379A000000000000000000000000000000000000000000000000000000000 DUP2 MSTORE PUSH1 0x4 ADD DUP1 DUP1 PUSH1 0x20 ADD DUP3 DUP2 SUB DUP3 MSTORE PUSH1 0x20 DUP2 MSTORE PUSH1 0x20 ADD DUP1 PUSH32 0x4F776E61626C653A2063616C6C6572206973206E6F7420746865206F776E6572 DUP2 MSTORE POP PUSH1 0x20 ADD SWAP2 POP POP PUSH1 0x40 MLOAD DUP1 SWAP2 SUB SWAP1 REVERT JUMPDEST PUSH2 0x3E8 DUP2 GT ISZERO PUSH2 0x1D70 JUMPI PUSH1 0x40 MLOAD PUSH32 0x8C379A000000000000000000000000000000000000000000000000000000000 DUP2 MSTORE PUSH1 0x4 ADD DUP1 DUP1 PUSH1 0x20 ADD DUP3 DUP2 SUB DUP3 MSTORE PUSH1 0xD DUP2 MSTORE PUSH1 0x20 ADD DUP1 PUSH32 0x496E76616C69642076616C756500000000000000000000000000000000000000 DUP2 MSTORE POP PUSH1 0x20 ADD SWAP2 POP POP PUSH1 0x40 MLOAD DUP1 SWAP2 SUB SWAP1 REVERT JUMPDEST DUP1 PUSH1 0xC DUP2 SWAP1 SSTORE POP PUSH32 0x33BA6DF77B2071829F387D2122B96309CBBD439FA4B0532CFD8D5E6F7CD4DCBB DUP2 PUSH1 0x40 MLOAD DUP1 DUP3 DUP2 MSTORE PUSH1 0x20 ADD SWAP2 POP POP PUSH1 0x40 MLOAD DUP1 SWAP2 SUB SWAP1 LOG1 POP JUMP JUMPDEST PUSH2 0x1DB9 PUSH2 0x45B4 JUMP JUMPDEST PUSH2 0x1E0E DUP4 PUSH1 0x13 PUSH1 0x0 DUP8 PUSH20 0xFFFFFFFFFFFFFFFFFFFFFFFFFFFFFFFFFFFFFFFF AND PUSH20 0xFFFFFFFFFFFFFFFFFFFFFFFFFFFFFFFFFFFFFFFF AND DUP2 MSTORE PUSH1 0x20 ADD SWAP1 DUP2 MSTORE PUSH1 0x20 ADD PUSH1 0x0 KECCAK256 PUSH1 0x0 ADD SLOAD PUSH2 0x4254 SWAP1 SWAP2 SWAP1 PUSH4 0xFFFFFFFF AND JUMP JUMPDEST PUSH1 0x13 PUSH1 0x0 DUP7 PUSH20 0xFFFFFFFFFFFFFFFFFFFFFFFFFFFFFFFFFFFFFFFF AND PUSH20 0xFFFFFFFFFFFFFFFFFFFFFFFFFFFFFFFFFFFFFFFF AND DUP2 MSTORE PUSH1 0x20 ADD SWAP1 DUP2 MSTORE PUSH1 0x20 ADD PUSH1 0x0 KECCAK256 PUSH1 0x0 ADD DUP2 SWAP1 SSTORE POP PUSH32 0xAE2006C94E89F8083EFDA0C0A1D0C7D6FEF3EC90D68506AA822854F3BA31F9CF DUP5 DUP5 PUSH1 0x40 MLOAD DUP1 DUP4 PUSH20 0xFFFFFFFFFFFFFFFFFFFFFFFFFFFFFFFFFFFFFFFF AND DUP2 MSTORE PUSH1 0x20 ADD DUP3 DUP2 MSTORE PUSH1 0x20 ADD SWAP3 POP POP POP PUSH1 0x40 MLOAD DUP1 SWAP2 SUB SWAP1 LOG1 PUSH2 0x1EFE DUP3 PUSH1 0x13 PUSH1 0x0 DUP8 PUSH20 0xFFFFFFFFFFFFFFFFFFFFFFFFFFFFFFFFFFFFFFFF AND PUSH20 0xFFFFFFFFFFFFFFFFFFFFFFFFFFFFFFFFFFFFFFFF AND DUP2 MSTORE PUSH1 0x20 ADD SWAP1 DUP2 MSTORE PUSH1 0x20 ADD PUSH1 0x0 KECCAK256 PUSH1 0x1 ADD SLOAD PUSH2 0x4399 SWAP1 SWAP2 SWAP1 PUSH4 0xFFFFFFFF AND JUMP JUMPDEST PUSH1 0x13 PUSH1 0x0 DUP7 PUSH20 0xFFFFFFFFFFFFFFFFFFFFFFFFFFFFFFFFFFFFFFFF AND PUSH20 0xFFFFFFFFFFFFFFFFFFFFFFFFFFFFFFFFFFFFFFFF AND DUP2 MSTORE PUSH1 0x20 ADD SWAP1 DUP2 MSTORE PUSH1 0x20 ADD PUSH1 0x0 KECCAK256 PUSH1 0x1 ADD DUP2 SWAP1 SSTORE POP PUSH32 0x7D2875641484B55002EE757B3AD03D920E7ACE29B381CFF35A357041B20D612E DUP5 DUP4 PUSH1 0x40 MLOAD DUP1 DUP4 PUSH20 0xFFFFFFFFFFFFFFFFFFFFFFFFFFFFFFFFFFFFFFFF AND DUP2 MSTORE PUSH1 0x20 ADD DUP3 DUP2 MSTORE PUSH1 0x20 ADD SWAP3 POP POP POP PUSH1 0x40 MLOAD DUP1 SWAP2 SUB SWAP1 LOG1 PUSH2 0x1FAE DUP2 PUSH1 0xE SLOAD PUSH2 0x4254 SWAP1 SWAP2 SWAP1 PUSH4 0xFFFFFFFF AND JUMP JUMPDEST PUSH1 0xE DUP2 SWAP1 SSTORE POP PUSH32 0x12129930C15DAD4632242378DC39162DB4C36A82482777C2E8F791D3752BB70F DUP2 PUSH1 0x40 MLOAD DUP1 DUP3 DUP2 MSTORE PUSH1 0x20 ADD SWAP2 POP POP PUSH1 0x40 MLOAD DUP1 SWAP2 SUB SWAP1 LOG1 POP POP POP POP JUMP JUMPDEST PUSH1 0xC SLOAD DUP2 JUMP JUMPDEST PUSH1 0x0 PUSH1 0x13 PUSH1 0x0 DUP4 PUSH20 0xFFFFFFFFFFFFFFFFFFFFFFFFFFFFFFFFFFFFFFFF AND PUSH20 0xFFFFFFFFFFFFFFFFFFFFFFFFFFFFFFFFFFFFFFFF AND DUP2 MSTORE PUSH1 0x20 ADD SWAP1 DUP2 MSTORE PUSH1 0x20 ADD PUSH1 0x0 KECCAK256 PUSH1 0x0 ADD SLOAD SWAP1 POP SWAP2 SWAP1 POP JUMP JUMPDEST PUSH32 0x0 DUP2 JUMP JUMPDEST PUSH1 0x7 SLOAD DUP2 JUMP JUMPDEST PUSH2 0x3E8 DUP2 JUMP JUMPDEST PUSH1 0x8 SLOAD DUP2 JUMP JUMPDEST PUSH2 0x2081 PUSH2 0x45B4 JUMP JUMPDEST PUSH2 0x2096 DUP2 PUSH1 0xE SLOAD PUSH2 0x4399 SWAP1 SWAP2 SWAP1 PUSH4 0xFFFFFFFF AND JUMP JUMPDEST PUSH1 0xE DUP2 SWAP1 SSTORE POP TIMESTAMP PUSH1 0x13 PUSH1 0x0 DUP5 PUSH20 0xFFFFFFFFFFFFFFFFFFFFFFFFFFFFFFFFFFFFFFFF AND PUSH20 0xFFFFFFFFFFFFFFFFFFFFFFFFFFFFFFFFFFFFFFFF AND DUP2 MSTORE PUSH1 0x20 ADD SWAP1 DUP2 MSTORE PUSH1 0x20 ADD PUSH1 0x0 KECCAK256 PUSH1 0x2 ADD DUP2 SWAP1 SSTORE POP PUSH31 0x988ACFD43F666F3F315B14052086271E8CF328D38353204311E1CD514F385A TIMESTAMP DUP3 PUSH1 0x40 MLOAD DUP1 DUP4 DUP2 MSTORE PUSH1 0x20 ADD DUP3 DUP2 MSTORE PUSH1 0x20 ADD SWAP3 POP POP POP PUSH1 0x40 MLOAD DUP1 SWAP2 SUB SWAP1 LOG1 PUSH1 0x0 PUSH1 0x13 PUSH1 0x0 DUP5 PUSH20 0xFFFFFFFFFFFFFFFFFFFFFFFFFFFFFFFFFFFFFFFF AND PUSH20 0xFFFFFFFFFFFFFFFFFFFFFFFFFFFFFFFFFFFFFFFF AND DUP2 MSTORE PUSH1 0x20 ADD SWAP1 DUP2 MSTORE PUSH1 0x20 ADD PUSH1 0x0 KECCAK256 PUSH1 0x0 ADD SLOAD GT ISZERO PUSH2 0x22ED JUMPI PUSH1 0x0 PUSH2 0x2205 PUSH1 0x13 PUSH1 0x0 DUP6 PUSH20 0xFFFFFFFFFFFFFFFFFFFFFFFFFFFFFFFFFFFFFFFF AND PUSH20 0xFFFFFFFFFFFFFFFFFFFFFFFFFFFFFFFFFFFFFFFF AND DUP2 MSTORE PUSH1 0x20 ADD SWAP1 DUP2 MSTORE PUSH1 0x20 ADD PUSH1 0x0 KECCAK256 PUSH1 0x0 ADD SLOAD PUSH1 0x13 PUSH1 0x0 DUP7 PUSH20 0xFFFFFFFFFFFFFFFFFFFFFFFFFFFFFFFFFFFFFFFF AND PUSH20 0xFFFFFFFFFFFFFFFFFFFFFFFFFFFFFFFFFFFFFFFF AND DUP2 MSTORE PUSH1 0x20 ADD SWAP1 DUP2 MSTORE PUSH1 0x20 ADD PUSH1 0x0 KECCAK256 PUSH1 0x1 ADD SLOAD PUSH2 0x4254 SWAP1 SWAP2 SWAP1 PUSH4 0xFFFFFFFF AND JUMP JUMPDEST SWAP1 POP DUP1 PUSH1 0x13 PUSH1 0x0 DUP6 PUSH20 0xFFFFFFFFFFFFFFFFFFFFFFFFFFFFFFFFFFFFFFFF AND PUSH20 0xFFFFFFFFFFFFFFFFFFFFFFFFFFFFFFFFFFFFFFFF AND DUP2 MSTORE PUSH1 0x20 ADD SWAP1 DUP2 MSTORE PUSH1 0x20 ADD PUSH1 0x0 KECCAK256 PUSH1 0x1 ADD DUP2 SWAP1 SSTORE POP PUSH1 0x0 PUSH1 0x13 PUSH1 0x0 DUP6 PUSH20 0xFFFFFFFFFFFFFFFFFFFFFFFFFFFFFFFFFFFFFFFF AND PUSH20 0xFFFFFFFFFFFFFFFFFFFFFFFFFFFFFFFFFFFFFFFF AND DUP2 MSTORE PUSH1 0x20 ADD SWAP1 DUP2 MSTORE PUSH1 0x20 ADD PUSH1 0x0 KECCAK256 PUSH1 0x0 ADD DUP2 SWAP1 SSTORE POP PUSH32 0xEA4585BCBBE652CE8D7648189AF8436FED8469D3561FD73D3D345BA88618C20A DUP4 DUP3 PUSH1 0x40 MLOAD DUP1 DUP4 PUSH20 0xFFFFFFFFFFFFFFFFFFFFFFFFFFFFFFFFFFFFFFFF AND DUP2 MSTORE PUSH1 0x20 ADD DUP3 DUP2 MSTORE PUSH1 0x20 ADD SWAP3 POP POP POP PUSH1 0x40 MLOAD DUP1 SWAP2 SUB SWAP1 LOG1 POP JUMPDEST POP POP JUMP JUMPDEST PUSH32 0x0 DUP2 JUMP JUMPDEST PUSH32 0x0 DUP2 JUMP JUMPDEST PUSH1 0x11 PUSH1 0x1 SWAP1 SLOAD SWAP1 PUSH2 0x100 EXP SWAP1 DIV PUSH1 0xFF AND DUP2 JUMP JUMPDEST PUSH32 0x0 DUP2 JUMP JUMPDEST PUSH1 0x0 PUSH1 0x5 PUSH1 0x1 SWAP1 SLOAD SWAP1 PUSH2 0x100 EXP SWAP1 DIV PUSH20 0xFFFFFFFFFFFFFFFFFFFFFFFFFFFFFFFFFFFFFFFF AND SWAP1 POP SWAP1 JUMP JUMPDEST PUSH1 0x0 DUP1 PUSH2 0x23B4 PUSH1 0x8 SLOAD PUSH1 0x7 SLOAD PUSH2 0x4254 SWAP1 SWAP2 SWAP1 PUSH4 0xFFFFFFFF AND JUMP JUMPDEST SWAP1 POP PUSH1 0xD SLOAD SWAP2 POP PUSH1 0x9 SLOAD DUP4 GT DUP1 ISZERO PUSH2 0x23CD JUMPI POP DUP1 PUSH1 0x9 SLOAD LT JUMPDEST DUP1 ISZERO PUSH2 0x23DB JUMPI POP PUSH1 0x0 PUSH1 0xE SLOAD GT JUMPDEST ISZERO PUSH2 0x246C JUMPI DUP1 DUP4 GT ISZERO PUSH2 0x23EC JUMPI DUP1 SWAP3 POP JUMPDEST PUSH2 0x2469 PUSH2 0x245A PUSH2 0x2409 PUSH1 0xE SLOAD PUSH1 0x8 SLOAD PUSH2 0x441C SWAP1 SWAP2 SWAP1 PUSH4 0xFFFFFFFF AND JUMP JUMPDEST PUSH2 0x244C PUSH8 0xDE0B6B3A7640000 PUSH2 0x243E PUSH1 0xA SLOAD PUSH2 0x2430 PUSH1 0x9 SLOAD DUP12 PUSH2 0x4399 SWAP1 SWAP2 SWAP1 PUSH4 0xFFFFFFFF AND JUMP JUMPDEST PUSH2 0x441C SWAP1 SWAP2 SWAP1 PUSH4 0xFFFFFFFF AND JUMP JUMPDEST PUSH2 0x441C SWAP1 SWAP2 SWAP1 PUSH4 0xFFFFFFFF AND JUMP JUMPDEST PUSH2 0x44A2 SWAP1 SWAP2 SWAP1 PUSH4 0xFFFFFFFF AND JUMP JUMPDEST DUP4 PUSH2 0x4254 SWAP1 SWAP2 SWAP1 PUSH4 0xFFFFFFFF AND JUMP JUMPDEST SWAP2 POP JUMPDEST POP SWAP2 SWAP1 POP JUMP JUMPDEST PUSH1 0xB SLOAD DUP2 JUMP JUMPDEST PUSH1 0x12 PUSH1 0x20 MSTORE DUP1 PUSH1 0x0 MSTORE PUSH1 0x40 PUSH1 0x0 KECCAK256 PUSH1 0x0 SWAP2 POP SWAP1 POP SLOAD DUP2 JUMP JUMPDEST PUSH1 0x60 PUSH1 0x4 DUP1 SLOAD PUSH1 0x1 DUP2 PUSH1 0x1 AND ISZERO PUSH2 0x100 MUL SUB AND PUSH1 0x2 SWAP1 DIV DUP1 PUSH1 0x1F ADD PUSH1 0x20 DUP1 SWAP2 DIV MUL PUSH1 0x20 ADD PUSH1 0x40 MLOAD SWAP1 DUP2 ADD PUSH1 0x40 MSTORE DUP1 SWAP3 SWAP2 SWAP1 DUP2 DUP2 MSTORE PUSH1 0x20 ADD DUP3 DUP1 SLOAD PUSH1 0x1 DUP2 PUSH1 0x1 AND ISZERO PUSH2 0x100 MUL SUB AND PUSH1 0x2 SWAP1 DIV DUP1 ISZERO PUSH2 0x2528 JUMPI DUP1 PUSH1 0x1F LT PUSH2 0x24FD JUMPI PUSH2 0x100 DUP1 DUP4 SLOAD DIV MUL DUP4 MSTORE SWAP2 PUSH1 0x20 ADD SWAP2 PUSH2 0x2528 JUMP JUMPDEST DUP3 ADD SWAP2 SWAP1 PUSH1 0x0 MSTORE PUSH1 0x20 PUSH1 0x0 KECCAK256 SWAP1 JUMPDEST DUP2 SLOAD DUP2 MSTORE SWAP1 PUSH1 0x1 ADD SWAP1 PUSH1 0x20 ADD DUP1 DUP4 GT PUSH2 0x250B JUMPI DUP3 SWAP1 SUB PUSH1 0x1F AND DUP3 ADD SWAP2 JUMPDEST POP POP POP POP POP SWAP1 POP SWAP1 JUMP JUMPDEST PUSH1 0x11 PUSH1 0x2 SWAP1 SLOAD SWAP1 PUSH2 0x100 EXP SWAP1 DIV PUSH1 0xFF AND DUP2 JUMP JUMPDEST PUSH2 0x254D PUSH2 0x3CDA JUMP JUMPDEST PUSH20 0xFFFFFFFFFFFFFFFFFFFFFFFFFFFFFFFFFFFFFFFF AND PUSH2 0x256B PUSH2 0x2370 JUMP JUMPDEST PUSH20 0xFFFFFFFFFFFFFFFFFFFFFFFFFFFFFFFFFFFFFFFF AND EQ PUSH2 0x25F4 JUMPI PUSH1 0x40 MLOAD PUSH32 0x8C379A000000000000000000000000000000000000000000000000000000000 DUP2 MSTORE PUSH1 0x4 ADD DUP1 DUP1 PUSH1 0x20 ADD DUP3 DUP2 SUB DUP3 MSTORE PUSH1 0x20 DUP2 MSTORE PUSH1 0x20 ADD DUP1 PUSH32 0x4F776E61626C653A2063616C6C6572206973206E6F7420746865206F776E6572 DUP2 MSTORE POP PUSH1 0x20 ADD SWAP2 POP POP PUSH1 0x40 MLOAD DUP1 SWAP2 SUB SWAP1 REVERT JUMPDEST PUSH1 0x1 PUSH1 0x11 PUSH1 0x2 PUSH2 0x100 EXP DUP2 SLOAD DUP2 PUSH1 0xFF MUL NOT AND SWAP1 DUP4 ISZERO ISZERO MUL OR SWAP1 SSTORE POP PUSH32 0xE34132C0E38D6BC3060B9C7698A52568CFC799C082CC802A370F04FF216130EE PUSH1 0x40 MLOAD PUSH1 0x40 MLOAD DUP1 SWAP2 SUB SWAP1 LOG1 JUMP JUMPDEST PUSH1 0x0 PUSH1 0x13 PUSH1 0x0 DUP4 PUSH20 0xFFFFFFFFFFFFFFFFFFFFFFFFFFFFFFFFFFFFFFFF AND PUSH20 0xFFFFFFFFFFFFFFFFFFFFFFFFFFFFFFFFFFFFFFFF AND DUP2 MSTORE PUSH1 0x20 ADD SWAP1 DUP2 MSTORE PUSH1 0x20 ADD PUSH1 0x0 KECCAK256 PUSH1 0x1 ADD SLOAD SWAP1 POP SWAP2 SWAP1 POP JUMP JUMPDEST PUSH2 0x2691 PUSH2 0x3CDA JUMP JUMPDEST PUSH20 0xFFFFFFFFFFFFFFFFFFFFFFFFFFFFFFFFFFFFFFFF AND PUSH2 0x26AF PUSH2 0x2370 JUMP JUMPDEST PUSH20 0xFFFFFFFFFFFFFFFFFFFFFFFFFFFFFFFFFFFFFFFF AND EQ PUSH2 0x2738 JUMPI PUSH1 0x40 MLOAD PUSH32 0x8C379A000000000000000000000000000000000000000000000000000000000 DUP2 MSTORE PUSH1 0x4 ADD DUP1 DUP1 PUSH1 0x20 ADD DUP3 DUP2 SUB DUP3 MSTORE PUSH1 0x20 DUP2 MSTORE PUSH1 0x20 ADD DUP1 PUSH32 0x4F776E61626C653A2063616C6C6572206973206E6F7420746865206F776E6572 DUP2 MSTORE POP PUSH1 0x20 ADD SWAP2 POP POP PUSH1 0x40 MLOAD DUP1 SWAP2 SUB SWAP1 REVERT JUMPDEST PUSH1 0x0 TIMESTAMP SWAP1 POP DUP1 DUP5 GT DUP1 ISZERO PUSH2 0x274C JUMPI POP PUSH1 0x0 DUP4 GT JUMPDEST PUSH2 0x27A1 JUMPI PUSH1 0x40 MLOAD PUSH32 0x8C379A000000000000000000000000000000000000000000000000000000000 DUP2 MSTORE PUSH1 0x4 ADD DUP1 DUP1 PUSH1 0x20 ADD DUP3 DUP2 SUB DUP3 MSTORE PUSH1 0x54 DUP2 MSTORE PUSH1 0x20 ADD DUP1 PUSH2 0x4DFE PUSH1 0x54 SWAP2 CODECOPY PUSH1 0x60 ADD SWAP2 POP POP PUSH1 0x40 MLOAD DUP1 SWAP2 SUB SWAP1 REVERT JUMPDEST PUSH1 0x0 PUSH1 0x7 SLOAD GT ISZERO PUSH2 0x281B JUMPI PUSH2 0x27C3 PUSH1 0x8 SLOAD PUSH1 0x7 SLOAD PUSH2 0x4254 SWAP1 SWAP2 SWAP1 PUSH4 0xFFFFFFFF AND JUMP JUMPDEST DUP2 GT PUSH2 0x281A JUMPI PUSH1 0x40 MLOAD PUSH32 0x8C379A000000000000000000000000000000000000000000000000000000000 DUP2 MSTORE PUSH1 0x4 ADD DUP1 DUP1 PUSH1 0x20 ADD DUP3 DUP2 SUB DUP3 MSTORE PUSH1 0x28 DUP2 MSTORE PUSH1 0x20 ADD DUP1 PUSH2 0x4D3F PUSH1 0x28 SWAP2 CODECOPY PUSH1 0x40 ADD SWAP2 POP POP PUSH1 0x40 MLOAD DUP1 SWAP2 SUB SWAP1 REVERT JUMPDEST JUMPDEST PUSH32 0x0 DUP3 GT ISZERO PUSH2 0x2894 JUMPI PUSH1 0x40 MLOAD PUSH32 0x8C379A000000000000000000000000000000000000000000000000000000000 DUP2 MSTORE PUSH1 0x4 ADD DUP1 DUP1 PUSH1 0x20 ADD DUP3 DUP2 SUB DUP3 MSTORE PUSH1 0x21 DUP2 MSTORE PUSH1 0x20 ADD DUP1 PUSH2 0x4CF6 PUSH1 0x21 SWAP2 CODECOPY PUSH1 0x40 ADD SWAP2 POP POP PUSH1 0x40 MLOAD DUP1 SWAP2 SUB SWAP1 REVERT JUMPDEST PUSH1 0x0 PUSH1 0xE SLOAD GT ISZERO PUSH2 0x2985 JUMPI PUSH32 0x0 PUSH2 0x2910 PUSH1 0xE SLOAD PUSH2 0x2902 DUP7 PUSH2 0x28F4 PUSH4 0x1E13380 PUSH2 0x28E6 PUSH1 0x64 DUP11 PUSH2 0x441C SWAP1 SWAP2 SWAP1 PUSH4 0xFFFFFFFF AND JUMP JUMPDEST PUSH2 0x441C SWAP1 SWAP2 SWAP1 PUSH4 0xFFFFFFFF AND JUMP JUMPDEST PUSH2 0x44A2 SWAP1 SWAP2 SWAP1 PUSH4 0xFFFFFFFF AND JUMP JUMPDEST PUSH2 0x44A2 SWAP1 SWAP2 SWAP1 PUSH4 0xFFFFFFFF AND JUMP JUMPDEST GT ISZERO PUSH2 0x2984 JUMPI PUSH1 0x40 MLOAD PUSH32 0x8C379A000000000000000000000000000000000000000000000000000000000 DUP2 MSTORE PUSH1 0x4 ADD DUP1 DUP1 PUSH1 0x20 ADD DUP3 DUP2 SUB DUP3 MSTORE PUSH1 0x18 DUP2 MSTORE PUSH1 0x20 ADD DUP1 PUSH32 0x4D617820616C6C6F776564204150522065786365656465640000000000000000 DUP2 MSTORE POP PUSH1 0x20 ADD SWAP2 POP POP PUSH1 0x40 MLOAD DUP1 SWAP2 SUB SWAP1 REVERT JUMPDEST JUMPDEST PUSH2 0x298E DUP2 PUSH2 0x4820 JUMP JUMPDEST DUP4 PUSH1 0x7 DUP2 SWAP1 SSTORE POP DUP4 PUSH1 0x9 DUP2 SWAP1 SSTORE POP DUP3 PUSH1 0x8 DUP2 SWAP1 SSTORE POP DUP2 PUSH1 0xA DUP2 SWAP1 SSTORE POP PUSH2 0x29BF DUP3 PUSH1 0xB SLOAD PUSH2 0x4254 SWAP1 SWAP2 SWAP1 PUSH4 0xFFFFFFFF AND JUMP JUMPDEST PUSH1 0xB DUP2 SWAP1 SSTORE POP PUSH2 0x29DA DUP3 PUSH1 0xF SLOAD PUSH2 0x4254 SWAP1 SWAP2 SWAP1 PUSH4 0xFFFFFFFF AND JUMP JUMPDEST PUSH1 0xF DUP2 SWAP1 SSTORE POP PUSH32 0x612340AB30150A67355AB93F1438FA021EC7DA49B6665A179E7A4F30528384DD DUP5 DUP5 DUP5 PUSH1 0x40 MLOAD DUP1 DUP5 DUP2 MSTORE PUSH1 0x20 ADD DUP4 DUP2 MSTORE PUSH1 0x20 ADD DUP3 DUP2 MSTORE PUSH1 0x20 ADD SWAP4 POP POP POP POP PUSH1 0x40 MLOAD DUP1 SWAP2 SUB SWAP1 LOG1 PUSH2 0x2A31 ADDRESS DUP4 PUSH2 0x4889 JUMP JUMPDEST POP POP POP POP JUMP JUMPDEST PUSH1 0x0 PUSH2 0x2AFA PUSH2 0x2A44 PUSH2 0x3CDA JUMP JUMPDEST DUP5 PUSH2 0x2AF5 DUP6 PUSH1 0x40 MLOAD DUP1 PUSH1 0x60 ADD PUSH1 0x40 MSTORE DUP1 PUSH1 0x25 DUP2 MSTORE PUSH1 0x20 ADD PUSH2 0x4E78 PUSH1 0x25 SWAP2 CODECOPY PUSH1 0x1 PUSH1 0x0 PUSH2 0x2A6E PUSH2 0x3CDA JUMP JUMPDEST PUSH20 0xFFFFFFFFFFFFFFFFFFFFFFFFFFFFFFFFFFFFFFFF AND PUSH20 0xFFFFFFFFFFFFFFFFFFFFFFFFFFFFFFFFFFFFFFFF AND DUP2 MSTORE PUSH1 0x20 ADD SWAP1 DUP2 MSTORE PUSH1 0x20 ADD PUSH1 0x0 KECCAK256 PUSH1 0x0 DUP11 PUSH20 0xFFFFFFFFFFFFFFFFFFFFFFFFFFFFFFFFFFFFFFFF AND PUSH20 0xFFFFFFFFFFFFFFFFFFFFFFFFFFFFFFFFFFFFFFFF AND DUP2 MSTORE PUSH1 0x20 ADD SWAP1 DUP2 MSTORE PUSH1 0x20 ADD PUSH1 0x0 KECCAK256 SLOAD PUSH2 0x419A SWAP1 SWAP3 SWAP2 SWAP1 PUSH4 0xFFFFFFFF AND JUMP JUMPDEST PUSH2 0x3CE2 JUMP JUMPDEST PUSH1 0x1 SWAP1 POP SWAP3 SWAP2 POP POP JUMP JUMPDEST PUSH2 0x2B0C PUSH2 0x3CDA JUMP JUMPDEST PUSH20 0xFFFFFFFFFFFFFFFFFFFFFFFFFFFFFFFFFFFFFFFF AND PUSH2 0x2B2A PUSH2 0x2370 JUMP JUMPDEST PUSH20 0xFFFFFFFFFFFFFFFFFFFFFFFFFFFFFFFFFFFFFFFF AND EQ PUSH2 0x2BB3 JUMPI PUSH1 0x40 MLOAD PUSH32 0x8C379A000000000000000000000000000000000000000000000000000000000 DUP2 MSTORE PUSH1 0x4 ADD DUP1 DUP1 PUSH1 0x20 ADD DUP3 DUP2 SUB DUP3 MSTORE PUSH1 0x20 DUP2 MSTORE PUSH1 0x20 ADD DUP1 PUSH32 0x4F776E61626C653A2063616C6C6572206973206E6F7420746865206F776E6572 DUP2 MSTORE POP PUSH1 0x20 ADD SWAP2 POP POP PUSH1 0x40 MLOAD DUP1 SWAP2 SUB SWAP1 REVERT JUMPDEST PUSH1 0x0 PUSH1 0x11 PUSH1 0x0 SWAP1 SLOAD SWAP1 PUSH2 0x100 EXP SWAP1 DIV PUSH1 0xFF AND ISZERO SWAP1 POP DUP1 PUSH1 0x11 PUSH1 0x0 PUSH2 0x100 EXP DUP2 SLOAD DUP2 PUSH1 0xFF MUL NOT AND SWAP1 DUP4 ISZERO ISZERO MUL OR SWAP1 SSTORE POP PUSH32 0x34D5714013380D0DD2DE54669941A1E6FFEB94F624DEF9A559F03ABD0E8E4A5C DUP2 PUSH1 0x40 MLOAD DUP1 DUP3 ISZERO ISZERO DUP2 MSTORE PUSH1 0x20 ADD SWAP2 POP POP PUSH1 0x40 MLOAD DUP1 SWAP2 SUB SWAP1 LOG1 POP JUMP JUMPDEST PUSH1 0x0 PUSH2 0x2C32 PUSH2 0x2C2B PUSH2 0x3CDA JUMP JUMPDEST DUP5 DUP5 PUSH2 0x3ED9 JUMP JUMPDEST PUSH1 0x1 SWAP1 POP SWAP3 SWAP2 POP POP JUMP JUMPDEST PUSH1 0x10 SLOAD DUP2 JUMP JUMPDEST PUSH2 0x2C4A PUSH2 0x3CDA JUMP JUMPDEST PUSH20 0xFFFFFFFFFFFFFFFFFFFFFFFFFFFFFFFFFFFFFFFF AND PUSH2 0x2C68 PUSH2 0x2370 JUMP JUMPDEST PUSH20 0xFFFFFFFFFFFFFFFFFFFFFFFFFFFFFFFFFFFFFFFF AND EQ PUSH2 0x2CF1 JUMPI PUSH1 0x40 MLOAD PUSH32 0x8C379A000000000000000000000000000000000000000000000000000000000 DUP2 MSTORE PUSH1 0x4 ADD DUP1 DUP1 PUSH1 0x20 ADD DUP3 DUP2 SUB DUP3 MSTORE PUSH1 0x20 DUP2 MSTORE PUSH1 0x20 ADD DUP1 PUSH32 0x4F776E61626C653A2063616C6C6572206973206E6F7420746865206F776E6572 DUP2 MSTORE POP PUSH1 0x20 ADD SWAP2 POP POP PUSH1 0x40 MLOAD DUP1 SWAP2 SUB SWAP1 REVERT JUMPDEST PUSH32 0x0 DUP2 GT ISZERO PUSH2 0x2D87 JUMPI PUSH1 0x40 MLOAD PUSH32 0x8C379A000000000000000000000000000000000000000000000000000000000 DUP2 MSTORE PUSH1 0x4 ADD DUP1 DUP1 PUSH1 0x20 ADD DUP3 DUP2 SUB DUP3 MSTORE PUSH1 0xD DUP2 MSTORE PUSH1 0x20 ADD DUP1 PUSH32 0x496E76616C69642076616C756500000000000000000000000000000000000000 DUP2 MSTORE POP PUSH1 0x20 ADD SWAP2 POP POP PUSH1 0x40 MLOAD DUP1 SWAP2 SUB SWAP1 REVERT JUMPDEST DUP1 PUSH1 0x10 DUP2 SWAP1 SSTORE POP PUSH32 0x74CD83192C2667EBA495E3B4578522F84AF3168FBB19D3BED7729A03BD5E2A41 DUP2 PUSH1 0x40 MLOAD DUP1 DUP3 DUP2 MSTORE PUSH1 0x20 ADD SWAP2 POP POP PUSH1 0x40 MLOAD DUP1 SWAP2 SUB SWAP1 LOG1 POP JUMP JUMPDEST PUSH1 0xE SLOAD DUP2 JUMP JUMPDEST PUSH2 0x2DD6 PUSH2 0x12DB JUMP JUMPDEST PUSH2 0x2DDF CALLER PUSH2 0x1A91 JUMP JUMPDEST DUP2 GT ISZERO PUSH2 0x2E54 JUMPI PUSH1 0x40 MLOAD PUSH32 0x8C379A000000000000000000000000000000000000000000000000000000000 DUP2 MSTORE PUSH1 0x4 ADD DUP1 DUP1 PUSH1 0x20 ADD DUP3 DUP2 SUB DUP3 MSTORE PUSH1 0x1F DUP2 MSTORE PUSH1 0x20 ADD DUP1 PUSH32 0x56616C7565206578636565647320617661696C61626C652062616C616E636500 DUP2 MSTORE POP PUSH1 0x20 ADD SWAP2 POP POP PUSH1 0x40 MLOAD DUP1 SWAP2 SUB SWAP1 REVERT JUMPDEST PUSH1 0x0 PUSH2 0x2E5F CALLER PUSH2 0x42DC JUMP JUMPDEST SWAP1 POP PUSH1 0x0 PUSH2 0x2E76 DUP3 DUP5 PUSH2 0x4254 SWAP1 SWAP2 SWAP1 PUSH4 0xFFFFFFFF AND JUMP JUMPDEST SWAP1 POP PUSH2 0x2ECD DUP2 PUSH1 0x13 PUSH1 0x0 CALLER PUSH20 0xFFFFFFFFFFFFFFFFFFFFFFFFFFFFFFFFFFFFFFFF AND PUSH20 0xFFFFFFFFFFFFFFFFFFFFFFFFFFFFFFFFFFFFFFFF AND DUP2 MSTORE PUSH1 0x20 ADD SWAP1 DUP2 MSTORE PUSH1 0x20 ADD PUSH1 0x0 KECCAK256 PUSH1 0x0 ADD SLOAD PUSH2 0x4254 SWAP1 SWAP2 SWAP1 PUSH4 0xFFFFFFFF AND JUMP JUMPDEST PUSH1 0x13 PUSH1 0x0 CALLER PUSH20 0xFFFFFFFFFFFFFFFFFFFFFFFFFFFFFFFFFFFFFFFF AND PUSH20 0xFFFFFFFFFFFFFFFFFFFFFFFFFFFFFFFFFFFFFFFF AND DUP2 MSTORE PUSH1 0x20 ADD SWAP1 DUP2 MSTORE PUSH1 0x20 ADD PUSH1 0x0 KECCAK256 PUSH1 0x0 ADD DUP2 SWAP1 SSTORE POP PUSH32 0xAE2006C94E89F8083EFDA0C0A1D0C7D6FEF3EC90D68506AA822854F3BA31F9CF CALLER DUP3 PUSH1 0x40 MLOAD DUP1 DUP4 PUSH20 0xFFFFFFFFFFFFFFFFFFFFFFFFFFFFFFFFFFFFFFFF AND DUP2 MSTORE PUSH1 0x20 ADD DUP3 DUP2 MSTORE PUSH1 0x20 ADD SWAP3 POP POP POP PUSH1 0x40 MLOAD DUP1 SWAP2 SUB SWAP1 LOG1 PUSH2 0x2F7D DUP2 PUSH1 0xE SLOAD PUSH2 0x4254 SWAP1 SWAP2 SWAP1 PUSH4 0xFFFFFFFF AND JUMP JUMPDEST PUSH1 0xE DUP2 SWAP1 SSTORE POP PUSH32 0x12129930C15DAD4632242378DC39162DB4C36A82482777C2E8F791D3752BB70F DUP2 PUSH1 0x40 MLOAD DUP1 DUP3 DUP2 MSTORE PUSH1 0x20 ADD SWAP2 POP POP PUSH1 0x40 MLOAD DUP1 SWAP2 SUB SWAP1 LOG1 PUSH2 0x2FC5 CALLER ADDRESS DUP6 PUSH2 0x3ED9 JUMP JUMPDEST PUSH32 0x6F5036100EC84840F4CA7C243E6CA7C042949756211BDFB358406A77DC41A42E CALLER DUP5 DUP5 PUSH1 0x40 MLOAD DUP1 DUP5 PUSH20 0xFFFFFFFFFFFFFFFFFFFFFFFFFFFFFFFFFFFFFFFF AND DUP2 MSTORE PUSH1 0x20 ADD DUP4 DUP2 MSTORE PUSH1 0x20 ADD DUP3 DUP2 MSTORE PUSH1 0x20 ADD SWAP4 POP POP POP POP PUSH1 0x40 MLOAD DUP1 SWAP2 SUB SWAP1 LOG1 POP POP POP JUMP JUMPDEST PUSH2 0x302F PUSH2 0x45B4 JUMP JUMPDEST PUSH2 0x3039 ADDRESS DUP3 PUSH2 0x4889 JUMP JUMPDEST POP JUMP JUMPDEST PUSH2 0x3044 PUSH2 0x3CDA JUMP JUMPDEST PUSH20 0xFFFFFFFFFFFFFFFFFFFFFFFFFFFFFFFFFFFFFFFF AND PUSH2 0x3062 PUSH2 0x2370 JUMP JUMPDEST PUSH20 0xFFFFFFFFFFFFFFFFFFFFFFFFFFFFFFFFFFFFFFFF AND EQ PUSH2 0x30EB JUMPI PUSH1 0x40 MLOAD PUSH32 0x8C379A000000000000000000000000000000000000000000000000000000000 DUP2 MSTORE PUSH1 0x4 ADD DUP1 DUP1 PUSH1 0x20 ADD DUP3 DUP2 SUB DUP3 MSTORE PUSH1 0x20 DUP2 MSTORE PUSH1 0x20 ADD DUP1 PUSH32 0x4F776E61626C653A2063616C6C6572206973206E6F7420746865206F776E6572 DUP2 MSTORE POP PUSH1 0x20 ADD SWAP2 POP POP PUSH1 0x40 MLOAD DUP1 SWAP2 SUB SWAP1 REVERT JUMPDEST PUSH1 0x0 PUSH20 0xFFFFFFFFFFFFFFFFFFFFFFFFFFFFFFFFFFFFFFFF AND DUP2 PUSH20 0xFFFFFFFFFFFFFFFFFFFFFFFFFFFFFFFFFFFFFFFF AND EQ ISZERO PUSH2 0x318E JUMPI PUSH1 0x40 MLOAD PUSH32 0x8C379A000000000000000000000000000000000000000000000000000000000 DUP2 MSTORE PUSH1 0x4 ADD DUP1 DUP1 PUSH1 0x20 ADD DUP3 DUP2 SUB DUP3 MSTORE PUSH1 0x13 DUP2 MSTORE PUSH1 0x20 ADD DUP1 PUSH32 0x53657420612076616C6964206164647265737300000000000000000000000000 DUP2 MSTORE POP PUSH1 0x20 ADD SWAP2 POP POP PUSH1 0x40 MLOAD DUP1 SWAP2 SUB SWAP1 REVERT JUMPDEST PUSH1 0x0 ISZERO ISZERO PUSH1 0x11 PUSH1 0x1 SWAP1 SLOAD SWAP1 PUSH2 0x100 EXP SWAP1 DIV PUSH1 0xFF AND ISZERO ISZERO EQ PUSH2 0x3217 JUMPI PUSH1 0x40 MLOAD PUSH32 0x8C379A000000000000000000000000000000000000000000000000000000000 DUP2 MSTORE PUSH1 0x4 ADD DUP1 DUP1 PUSH1 0x20 ADD DUP3 DUP2 SUB DUP3 MSTORE PUSH1 0x1F DUP2 MSTORE PUSH1 0x20 ADD DUP1 PUSH32 0x696E7465726661636550726F6A656374546F6B656E206973206C6F636B656400 DUP2 MSTORE POP PUSH1 0x20 ADD SWAP2 POP POP PUSH1 0x40 MLOAD DUP1 SWAP2 SUB SWAP1 REVERT JUMPDEST DUP1 PUSH1 0x6 PUSH1 0x0 PUSH2 0x100 EXP DUP2 SLOAD DUP2 PUSH20 0xFFFFFFFFFFFFFFFFFFFFFFFFFFFFFFFFFFFFFFFF MUL NOT AND SWAP1 DUP4 PUSH20 0xFFFFFFFFFFFFFFFFFFFFFFFFFFFFFFFFFFFFFFFF AND MUL OR SWAP1 SSTORE POP PUSH32 0xDBFB95FE8E19209E063B2852C867A8AA47ACD7EB4AB8CF1E3BA86E046C196AD1 DUP2 PUSH1 0x40 MLOAD DUP1 DUP3 PUSH20 0xFFFFFFFFFFFFFFFFFFFFFFFFFFFFFFFFFFFFFFFF AND DUP2 MSTORE PUSH1 0x20 ADD SWAP2 POP POP PUSH1 0x40 MLOAD DUP1 SWAP2 SUB SWAP1 LOG1 POP JUMP JUMPDEST PUSH1 0x0 PUSH1 0x1 PUSH1 0x0 DUP5 PUSH20 0xFFFFFFFFFFFFFFFFFFFFFFFFFFFFFFFFFFFFFFFF AND PUSH20 0xFFFFFFFFFFFFFFFFFFFFFFFFFFFFFFFFFFFFFFFF AND DUP2 MSTORE PUSH1 0x20 ADD SWAP1 DUP2 MSTORE PUSH1 0x20 ADD PUSH1 0x0 KECCAK256 PUSH1 0x0 DUP4 PUSH20 0xFFFFFFFFFFFFFFFFFFFFFFFFFFFFFFFFFFFFFFFF AND PUSH20 0xFFFFFFFFFFFFFFFFFFFFFFFFFFFFFFFFFFFFFFFF AND DUP2 MSTORE PUSH1 0x20 ADD SWAP1 DUP2 MSTORE PUSH1 0x20 ADD PUSH1 0x0 KECCAK256 SLOAD SWAP1 POP SWAP3 SWAP2 POP POP JUMP JUMPDEST PUSH2 0x3337 PUSH2 0x3CDA JUMP JUMPDEST PUSH20 0xFFFFFFFFFFFFFFFFFFFFFFFFFFFFFFFFFFFFFFFF AND PUSH2 0x3355 PUSH2 0x2370 JUMP JUMPDEST PUSH20 0xFFFFFFFFFFFFFFFFFFFFFFFFFFFFFFFFFFFFFFFF AND EQ PUSH2 0x33DE JUMPI PUSH1 0x40 MLOAD PUSH32 0x8C379A000000000000000000000000000000000000000000000000000000000 DUP2 MSTORE PUSH1 0x4 ADD DUP1 DUP1 PUSH1 0x20 ADD DUP3 DUP2 SUB DUP3 MSTORE PUSH1 0x20 DUP2 MSTORE PUSH1 0x20 ADD DUP1 PUSH32 0x4F776E61626C653A2063616C6C6572206973206E6F7420746865206F776E6572 DUP2 MSTORE POP PUSH1 0x20 ADD SWAP2 POP POP PUSH1 0x40 MLOAD DUP1 SWAP2 SUB SWAP1 REVERT JUMPDEST PUSH1 0x0 ISZERO ISZERO PUSH1 0x11 PUSH1 0x2 SWAP1 SLOAD SWAP1 PUSH2 0x100 EXP SWAP1 DIV PUSH1 0xFF AND ISZERO ISZERO EQ PUSH2 0x3467 JUMPI PUSH1 0x40 MLOAD PUSH32 0x8C379A000000000000000000000000000000000000000000000000000000000 DUP2 MSTORE PUSH1 0x4 ADD DUP1 DUP1 PUSH1 0x20 ADD DUP3 DUP2 SUB DUP3 MSTORE PUSH1 0x1A DUP2 MSTORE PUSH1 0x20 ADD DUP1 PUSH32 0x616C6C6F636174696F6E7320617265207465726D696E61746564000000000000 DUP2 MSTORE POP PUSH1 0x20 ADD SWAP2 POP POP PUSH1 0x40 MLOAD DUP1 SWAP2 SUB SWAP1 REVERT JUMPDEST PUSH2 0x346F PUSH2 0x4A50 JUMP JUMPDEST PUSH1 0x0 DUP1 DUP5 MLOAD SWAP1 POP PUSH1 0x0 DUP1 PUSH1 0x0 DUP1 DUP8 MLOAD DUP6 EQ PUSH2 0x34D5 JUMPI PUSH1 0x40 MLOAD PUSH32 0x8C379A000000000000000000000000000000000000000000000000000000000 DUP2 MSTORE PUSH1 0x4 ADD DUP1 DUP1 PUSH1 0x20 ADD DUP3 DUP2 SUB DUP3 MSTORE PUSH1 0x26 DUP2 MSTORE PUSH1 0x20 ADD DUP1 PUSH2 0x4E52 PUSH1 0x26 SWAP2 CODECOPY PUSH1 0x40 ADD SWAP2 POP POP PUSH1 0x40 MLOAD DUP1 SWAP2 SUB SWAP1 REVERT JUMPDEST PUSH1 0x0 JUMPDEST DUP6 DUP2 LT ISZERO PUSH2 0x36D3 JUMPI DUP10 DUP2 DUP2 MLOAD DUP2 LT PUSH2 0x34EC JUMPI INVALID JUMPDEST PUSH1 0x20 MUL PUSH1 0x20 ADD ADD MLOAD SWAP5 POP DUP9 DUP2 DUP2 MLOAD DUP2 LT PUSH2 0x3502 JUMPI INVALID JUMPDEST PUSH1 0x20 MUL PUSH1 0x20 ADD ADD MLOAD SWAP4 POP DUP8 ISZERO PUSH2 0x363F JUMPI PUSH2 0x351B DUP6 PUSH2 0x42DC JUMP JUMPDEST SWAP3 POP PUSH1 0x0 PUSH2 0x3532 DUP5 DUP7 PUSH2 0x4254 SWAP1 SWAP2 SWAP1 PUSH4 0xFFFFFFFF AND JUMP JUMPDEST SWAP1 POP PUSH2 0x3589 DUP2 PUSH1 0x13 PUSH1 0x0 DUP10 PUSH20 0xFFFFFFFFFFFFFFFFFFFFFFFFFFFFFFFFFFFFFFFF AND PUSH20 0xFFFFFFFFFFFFFFFFFFFFFFFFFFFFFFFFFFFFFFFF AND DUP2 MSTORE PUSH1 0x20 ADD SWAP1 DUP2 MSTORE PUSH1 0x20 ADD PUSH1 0x0 KECCAK256 PUSH1 0x0 ADD SLOAD PUSH2 0x4254 SWAP1 SWAP2 SWAP1 PUSH4 0xFFFFFFFF AND JUMP JUMPDEST PUSH1 0x13 PUSH1 0x0 DUP9 PUSH20 0xFFFFFFFFFFFFFFFFFFFFFFFFFFFFFFFFFFFFFFFF AND PUSH20 0xFFFFFFFFFFFFFFFFFFFFFFFFFFFFFFFFFFFFFFFF AND DUP2 MSTORE PUSH1 0x20 ADD SWAP1 DUP2 MSTORE PUSH1 0x20 ADD PUSH1 0x0 KECCAK256 PUSH1 0x0 ADD DUP2 SWAP1 SSTORE POP PUSH32 0xAE2006C94E89F8083EFDA0C0A1D0C7D6FEF3EC90D68506AA822854F3BA31F9CF DUP7 DUP3 PUSH1 0x40 MLOAD DUP1 DUP4 PUSH20 0xFFFFFFFFFFFFFFFFFFFFFFFFFFFFFFFFFFFFFFFF AND DUP2 MSTORE PUSH1 0x20 ADD DUP3 DUP2 MSTORE PUSH1 0x20 ADD SWAP3 POP POP POP PUSH1 0x40 MLOAD DUP1 SWAP2 SUB SWAP1 LOG1 PUSH2 0x3637 DUP5 DUP5 PUSH2 0x4254 SWAP1 SWAP2 SWAP1 PUSH4 0xFFFFFFFF AND JUMP JUMPDEST SWAP3 POP POP PUSH2 0x364A JUMP JUMPDEST PUSH2 0x3649 DUP6 DUP6 PUSH2 0x4889 JUMP JUMPDEST JUMPDEST PUSH2 0x365D DUP5 DUP9 PUSH2 0x4254 SWAP1 SWAP2 SWAP1 PUSH4 0xFFFFFFFF AND JUMP JUMPDEST SWAP7 POP PUSH32 0xA984939D0059BC688E1C5458F72AD05B51FC8A6BA959556F5E2EE91C1AB8C7D2 DUP6 DUP6 DUP6 DUP12 PUSH1 0x40 MLOAD DUP1 DUP6 PUSH20 0xFFFFFFFFFFFFFFFFFFFFFFFFFFFFFFFFFFFFFFFF AND DUP2 MSTORE PUSH1 0x20 ADD DUP5 DUP2 MSTORE PUSH1 0x20 ADD DUP4 DUP2 MSTORE PUSH1 0x20 ADD DUP3 ISZERO ISZERO DUP2 MSTORE PUSH1 0x20 ADD SWAP5 POP POP POP POP POP PUSH1 0x40 MLOAD DUP1 SWAP2 SUB SWAP1 LOG1 DUP1 DUP1 PUSH1 0x1 ADD SWAP2 POP POP PUSH2 0x34D8 JUMP JUMPDEST POP PUSH2 0x36E9 DUP7 PUSH1 0xF SLOAD PUSH2 0x4254 SWAP1 SWAP2 SWAP1 PUSH4 0xFFFFFFFF AND JUMP JUMPDEST PUSH1 0xF DUP2 SWAP1 SSTORE POP PUSH32 0x83460F65BDB244889B764A63576252CF32E10E1A058AF241DA584C1F1610E6DB DUP7 PUSH1 0x40 MLOAD DUP1 DUP3 DUP2 MSTORE PUSH1 0x20 ADD SWAP2 POP POP PUSH1 0x40 MLOAD DUP1 SWAP2 SUB SWAP1 LOG1 PUSH32 0x0 PUSH2 0x375E PUSH1 0xB SLOAD PUSH1 0xF SLOAD PUSH2 0x4399 SWAP1 SWAP2 SWAP1 PUSH4 0xFFFFFFFF AND JUMP JUMPDEST GT ISZERO PUSH2 0x37B5 JUMPI PUSH1 0x40 MLOAD PUSH32 0x8C379A000000000000000000000000000000000000000000000000000000000 DUP2 MSTORE PUSH1 0x4 ADD DUP1 DUP1 PUSH1 0x20 ADD DUP3 DUP2 SUB DUP3 MSTORE PUSH1 0x29 DUP2 MSTORE PUSH1 0x20 ADD DUP1 PUSH2 0x4C89 PUSH1 0x29 SWAP2 CODECOPY PUSH1 0x40 ADD SWAP2 POP POP PUSH1 0x40 MLOAD DUP1 SWAP2 SUB SWAP1 REVERT JUMPDEST DUP7 ISZERO PUSH2 0x3830 JUMPI PUSH2 0x37C5 ADDRESS DUP8 PUSH2 0x4889 JUMP JUMPDEST PUSH1 0x0 PUSH2 0x37DA DUP3 DUP9 PUSH2 0x4254 SWAP1 SWAP2 SWAP1 PUSH4 0xFFFFFFFF AND JUMP JUMPDEST SWAP1 POP PUSH2 0x37F1 DUP2 PUSH1 0xE SLOAD PUSH2 0x4254 SWAP1 SWAP2 SWAP1 PUSH4 0xFFFFFFFF AND JUMP JUMPDEST PUSH1 0xE DUP2 SWAP1 SSTORE POP PUSH32 0x12129930C15DAD4632242378DC39162DB4C36A82482777C2E8F791D3752BB70F DUP2 PUSH1 0x40 MLOAD DUP1 DUP3 DUP2 MSTORE PUSH1 0x20 ADD SWAP2 POP POP PUSH1 0x40 MLOAD DUP1 SWAP2 SUB SWAP1 LOG1 POP JUMPDEST POP POP POP POP POP POP POP POP POP JUMP JUMPDEST PUSH1 0xD SLOAD DUP2 JUMP JUMPDEST PUSH32 0x0 DUP2 JUMP JUMPDEST PUSH1 0x0 PUSH2 0x386F PUSH2 0x45B4 JUMP JUMPDEST PUSH2 0x3878 DUP3 PUSH2 0x42DC JUMP JUMPDEST SWAP1 POP SWAP2 SWAP1 POP JUMP JUMPDEST PUSH2 0x3887 PUSH2 0x3CDA JUMP JUMPDEST PUSH20 0xFFFFFFFFFFFFFFFFFFFFFFFFFFFFFFFFFFFFFFFF AND PUSH2 0x38A5 PUSH2 0x2370 JUMP JUMPDEST PUSH20 0xFFFFFFFFFFFFFFFFFFFFFFFFFFFFFFFFFFFFFFFF AND EQ PUSH2 0x392E JUMPI PUSH1 0x40 MLOAD PUSH32 0x8C379A000000000000000000000000000000000000000000000000000000000 DUP2 MSTORE PUSH1 0x4 ADD DUP1 DUP1 PUSH1 0x20 ADD DUP3 DUP2 SUB DUP3 MSTORE PUSH1 0x20 DUP2 MSTORE PUSH1 0x20 ADD DUP1 PUSH32 0x4F776E61626C653A2063616C6C6572206973206E6F7420746865206F776E6572 DUP2 MSTORE POP PUSH1 0x20 ADD SWAP2 POP POP PUSH1 0x40 MLOAD DUP1 SWAP2 SUB SWAP1 REVERT JUMPDEST PUSH1 0x0 PUSH20 0xFFFFFFFFFFFFFFFFFFFFFFFFFFFFFFFFFFFFFFFF AND DUP2 PUSH20 0xFFFFFFFFFFFFFFFFFFFFFFFFFFFFFFFFFFFFFFFF AND EQ ISZERO PUSH2 0x39B4 JUMPI PUSH1 0x40 MLOAD PUSH32 0x8C379A000000000000000000000000000000000000000000000000000000000 DUP2 MSTORE PUSH1 0x4 ADD DUP1 DUP1 PUSH1 0x20 ADD DUP3 DUP2 SUB DUP3 MSTORE PUSH1 0x26 DUP2 MSTORE PUSH1 0x20 ADD DUP1 PUSH2 0x4C1B PUSH1 0x26 SWAP2 CODECOPY PUSH1 0x40 ADD SWAP2 POP POP PUSH1 0x40 MLOAD DUP1 SWAP2 SUB SWAP1 REVERT JUMPDEST DUP1 PUSH20 0xFFFFFFFFFFFFFFFFFFFFFFFFFFFFFFFFFFFFFFFF AND PUSH1 0x5 PUSH1 0x1 SWAP1 SLOAD SWAP1 PUSH2 0x100 EXP SWAP1 DIV PUSH20 0xFFFFFFFFFFFFFFFFFFFFFFFFFFFFFFFFFFFFFFFF AND PUSH20 0xFFFFFFFFFFFFFFFFFFFFFFFFFFFFFFFFFFFFFFFF AND PUSH32 0x8BE0079C531659141344CD1FD0A4F28419497F9722A3DAAFE3B4186F6B6457E0 PUSH1 0x40 MLOAD PUSH1 0x40 MLOAD DUP1 SWAP2 SUB SWAP1 LOG3 DUP1 PUSH1 0x5 PUSH1 0x1 PUSH2 0x100 EXP DUP2 SLOAD DUP2 PUSH20 0xFFFFFFFFFFFFFFFFFFFFFFFFFFFFFFFFFFFFFFFF MUL NOT AND SWAP1 DUP4 PUSH20 0xFFFFFFFFFFFFFFFFFFFFFFFFFFFFFFFFFFFFFFFF AND MUL OR SWAP1 SSTORE POP POP JUMP JUMPDEST PUSH2 0x3A7C PUSH2 0x45B4 JUMP JUMPDEST PUSH2 0x3A85 DUP2 PUSH2 0x452B JUMP JUMPDEST POP JUMP JUMPDEST PUSH1 0x0 DUP1 PUSH2 0x3B22 PUSH1 0x13 PUSH1 0x0 DUP7 PUSH20 0xFFFFFFFFFFFFFFFFFFFFFFFFFFFFFFFFFFFFFFFF AND PUSH20 0xFFFFFFFFFFFFFFFFFFFFFFFFFFFFFFFFFFFFFFFF AND DUP2 MSTORE PUSH1 0x20 ADD SWAP1 DUP2 MSTORE PUSH1 0x20 ADD PUSH1 0x0 KECCAK256 PUSH1 0x1 ADD SLOAD PUSH1 0x13 PUSH1 0x0 DUP8 PUSH20 0xFFFFFFFFFFFFFFFFFFFFFFFFFFFFFFFFFFFFFFFF AND PUSH20 0xFFFFFFFFFFFFFFFFFFFFFFFFFFFFFFFFFFFFFFFF AND DUP2 MSTORE PUSH1 0x20 ADD SWAP1 DUP2 MSTORE PUSH1 0x20 ADD PUSH1 0x0 KECCAK256 PUSH1 0x0 ADD SLOAD PUSH2 0x4254 SWAP1 SWAP2 SWAP1 PUSH4 0xFFFFFFFF AND JUMP JUMPDEST SWAP1 POP PUSH1 0x0 PUSH20 0xFFFFFFFFFFFFFFFFFFFFFFFFFFFFFFFFFFFFFFFF AND PUSH1 0x6 PUSH1 0x0 SWAP1 SLOAD SWAP1 PUSH2 0x100 EXP SWAP1 DIV PUSH20 0xFFFFFFFFFFFFFFFFFFFFFFFFFFFFFFFFFFFFFFFF AND PUSH20 0xFFFFFFFFFFFFFFFFFFFFFFFFFFFFFFFFFFFFFFFF AND EQ PUSH2 0x3C53 JUMPI PUSH2 0x3C50 PUSH1 0x6 PUSH1 0x0 SWAP1 SLOAD SWAP1 PUSH2 0x100 EXP SWAP1 DIV PUSH20 0xFFFFFFFFFFFFFFFFFFFFFFFFFFFFFFFFFFFFFFFF AND PUSH20 0xFFFFFFFFFFFFFFFFFFFFFFFFFFFFFFFFFFFFFFFF AND PUSH4 0xBA01ECEF DUP7 PUSH1 0x40 MLOAD DUP3 PUSH4 0xFFFFFFFF AND PUSH1 0xE0 SHL DUP2 MSTORE PUSH1 0x4 ADD DUP1 DUP3 PUSH20 0xFFFFFFFFFFFFFFFFFFFFFFFFFFFFFFFFFFFFFFFF AND DUP2 MSTORE PUSH1 0x20 ADD SWAP2 POP POP PUSH1 0x20 PUSH1 0x40 MLOAD DUP1 DUP4 SUB DUP2 DUP7 DUP1 EXTCODESIZE ISZERO DUP1 ISZERO PUSH2 0x3C06 JUMPI PUSH1 0x0 DUP1 REVERT JUMPDEST POP GAS STATICCALL ISZERO DUP1 ISZERO PUSH2 0x3C1A JUMPI RETURNDATASIZE PUSH1 0x0 DUP1 RETURNDATACOPY RETURNDATASIZE PUSH1 0x0 REVERT JUMPDEST POP POP POP POP PUSH1 0x40 MLOAD RETURNDATASIZE PUSH1 0x20 DUP2 LT ISZERO PUSH2 0x3C30 JUMPI PUSH1 0x0 DUP1 REVERT JUMPDEST DUP2 ADD SWAP1 DUP1 DUP1 MLOAD SWAP1 PUSH1 0x20 ADD SWAP1 SWAP3 SWAP2 SWAP1 POP POP POP DUP3 PUSH2 0x4399 SWAP1 SWAP2 SWAP1 PUSH4 0xFFFFFFFF AND JUMP JUMPDEST SWAP1 POP JUMPDEST PUSH2 0x3CD1 PUSH8 0xDE0B6B3A7640000 PUSH2 0x3CC3 PUSH2 0x3CB4 PUSH1 0x12 PUSH1 0x0 DUP10 PUSH20 0xFFFFFFFFFFFFFFFFFFFFFFFFFFFFFFFFFFFFFFFF AND PUSH20 0xFFFFFFFFFFFFFFFFFFFFFFFFFFFFFFFFFFFFFFFF AND DUP2 MSTORE PUSH1 0x20 ADD SWAP1 DUP2 MSTORE PUSH1 0x20 ADD PUSH1 0x0 KECCAK256 SLOAD DUP8 PUSH2 0x4399 SWAP1 SWAP2 SWAP1 PUSH4 0xFFFFFFFF AND JUMP JUMPDEST DUP5 PUSH2 0x441C SWAP1 SWAP2 SWAP1 PUSH4 0xFFFFFFFF AND JUMP JUMPDEST PUSH2 0x44A2 SWAP1 SWAP2 SWAP1 PUSH4 0xFFFFFFFF AND JUMP JUMPDEST SWAP2 POP POP SWAP3 SWAP2 POP POP JUMP JUMPDEST PUSH1 0x0 CALLER SWAP1 POP SWAP1 JUMP JUMPDEST PUSH1 0x0 PUSH20 0xFFFFFFFFFFFFFFFFFFFFFFFFFFFFFFFFFFFFFFFF AND DUP4 PUSH20 0xFFFFFFFFFFFFFFFFFFFFFFFFFFFFFFFFFFFFFFFF AND EQ ISZERO PUSH2 0x3D68 JUMPI PUSH1 0x40 MLOAD PUSH32 0x8C379A000000000000000000000000000000000000000000000000000000000 DUP2 MSTORE PUSH1 0x4 ADD DUP1 DUP1 PUSH1 0x20 ADD DUP3 DUP2 SUB DUP3 MSTORE PUSH1 0x24 DUP2 MSTORE PUSH1 0x20 ADD DUP1 PUSH2 0x4DDA PUSH1 0x24 SWAP2 CODECOPY PUSH1 0x40 ADD SWAP2 POP POP PUSH1 0x40 MLOAD DUP1 SWAP2 SUB SWAP1 REVERT JUMPDEST PUSH1 0x0 PUSH20 0xFFFFFFFFFFFFFFFFFFFFFFFFFFFFFFFFFFFFFFFF AND DUP3 PUSH20 0xFFFFFFFFFFFFFFFFFFFFFFFFFFFFFFFFFFFFFFFF AND EQ ISZERO PUSH2 0x3DEE JUMPI PUSH1 0x40 MLOAD PUSH32 0x8C379A000000000000000000000000000000000000000000000000000000000 DUP2 MSTORE PUSH1 0x4 ADD DUP1 DUP1 PUSH1 0x20 ADD DUP3 DUP2 SUB DUP3 MSTORE PUSH1 0x22 DUP2 MSTORE PUSH1 0x20 ADD DUP1 PUSH2 0x4C41 PUSH1 0x22 SWAP2 CODECOPY PUSH1 0x40 ADD SWAP2 POP POP PUSH1 0x40 MLOAD DUP1 SWAP2 SUB SWAP1 REVERT JUMPDEST DUP1 PUSH1 0x1 PUSH1 0x0 DUP6 PUSH20 0xFFFFFFFFFFFFFFFFFFFFFFFFFFFFFFFFFFFFFFFF AND PUSH20 0xFFFFFFFFFFFFFFFFFFFFFFFFFFFFFFFFFFFFFFFF AND DUP2 MSTORE PUSH1 0x20 ADD SWAP1 DUP2 MSTORE PUSH1 0x20 ADD PUSH1 0x0 KECCAK256 PUSH1 0x0 DUP5 PUSH20 0xFFFFFFFFFFFFFFFFFFFFFFFFFFFFFFFFFFFFFFFF AND PUSH20 0xFFFFFFFFFFFFFFFFFFFFFFFFFFFFFFFFFFFFFFFF AND DUP2 MSTORE PUSH1 0x20 ADD SWAP1 DUP2 MSTORE PUSH1 0x20 ADD PUSH1 0x0 KECCAK256 DUP2 SWAP1 SSTORE POP DUP2 PUSH20 0xFFFFFFFFFFFFFFFFFFFFFFFFFFFFFFFFFFFFFFFF AND DUP4 PUSH20 0xFFFFFFFFFFFFFFFFFFFFFFFFFFFFFFFFFFFFFFFF AND PUSH32 0x8C5BE1E5EBEC7D5BD14F71427D1E84F3DD0314C0F7B2291E5B200AC8C7C3B925 DUP4 PUSH1 0x40 MLOAD DUP1 DUP3 DUP2 MSTORE PUSH1 0x20 ADD SWAP2 POP POP PUSH1 0x40 MLOAD DUP1 SWAP2 SUB SWAP1 LOG3 POP POP POP JUMP JUMPDEST PUSH1 0x0 PUSH20 0xFFFFFFFFFFFFFFFFFFFFFFFFFFFFFFFFFFFFFFFF AND DUP4 PUSH20 0xFFFFFFFFFFFFFFFFFFFFFFFFFFFFFFFFFFFFFFFF AND EQ ISZERO PUSH2 0x3F5F JUMPI PUSH1 0x40 MLOAD PUSH32 0x8C379A000000000000000000000000000000000000000000000000000000000 DUP2 MSTORE PUSH1 0x4 ADD DUP1 DUP1 PUSH1 0x20 ADD DUP3 DUP2 SUB DUP3 MSTORE PUSH1 0x25 DUP2 MSTORE PUSH1 0x20 ADD DUP1 PUSH2 0x4DB5 PUSH1 0x25 SWAP2 CODECOPY PUSH1 0x40 ADD SWAP2 POP POP PUSH1 0x40 MLOAD DUP1 SWAP2 SUB SWAP1 REVERT JUMPDEST PUSH1 0x0 PUSH20 0xFFFFFFFFFFFFFFFFFFFFFFFFFFFFFFFFFFFFFFFF AND DUP3 PUSH20 0xFFFFFFFFFFFFFFFFFFFFFFFFFFFFFFFFFFFFFFFF AND EQ ISZERO PUSH2 0x3FE5 JUMPI PUSH1 0x40 MLOAD PUSH32 0x8C379A000000000000000000000000000000000000000000000000000000000 DUP2 MSTORE PUSH1 0x4 ADD DUP1 DUP1 PUSH1 0x20 ADD DUP3 DUP2 SUB DUP3 MSTORE PUSH1 0x23 DUP2 MSTORE PUSH1 0x20 ADD DUP1 PUSH2 0x4BD6 PUSH1 0x23 SWAP2 CODECOPY PUSH1 0x40 ADD SWAP2 POP POP PUSH1 0x40 MLOAD DUP1 SWAP2 SUB SWAP1 REVERT JUMPDEST PUSH2 0x3FF0 DUP4 DUP4 DUP4 PUSH2 0x4BD0 JUMP JUMPDEST PUSH2 0x405B DUP2 PUSH1 0x40 MLOAD DUP1 PUSH1 0x60 ADD PUSH1 0x40 MSTORE DUP1 PUSH1 0x26 DUP2 MSTORE PUSH1 0x20 ADD PUSH2 0x4C63 PUSH1 0x26 SWAP2 CODECOPY PUSH1 0x0 DUP1 DUP8 PUSH20 0xFFFFFFFFFFFFFFFFFFFFFFFFFFFFFFFFFFFFFFFF AND PUSH20 0xFFFFFFFFFFFFFFFFFFFFFFFFFFFFFFFFFFFFFFFF AND DUP2 MSTORE PUSH1 0x20 ADD SWAP1 DUP2 MSTORE PUSH1 0x20 ADD PUSH1 0x0 KECCAK256 SLOAD PUSH2 0x419A SWAP1 SWAP3 SWAP2 SWAP1 PUSH4 0xFFFFFFFF AND JUMP JUMPDEST PUSH1 0x0 DUP1 DUP6 PUSH20 0xFFFFFFFFFFFFFFFFFFFFFFFFFFFFFFFFFFFFFFFF AND PUSH20 0xFFFFFFFFFFFFFFFFFFFFFFFFFFFFFFFFFFFFFFFF AND DUP2 MSTORE PUSH1 0x20 ADD SWAP1 DUP2 MSTORE PUSH1 0x20 ADD PUSH1 0x0 KECCAK256 DUP2 SWAP1 SSTORE POP PUSH2 0x40EE DUP2 PUSH1 0x0 DUP1 DUP6 PUSH20 0xFFFFFFFFFFFFFFFFFFFFFFFFFFFFFFFFFFFFFFFF AND PUSH20 0xFFFFFFFFFFFFFFFFFFFFFFFFFFFFFFFFFFFFFFFF AND DUP2 MSTORE PUSH1 0x20 ADD SWAP1 DUP2 MSTORE PUSH1 0x20 ADD PUSH1 0x0 KECCAK256 SLOAD PUSH2 0x4254 SWAP1 SWAP2 SWAP1 PUSH4 0xFFFFFFFF AND JUMP JUMPDEST PUSH1 0x0 DUP1 DUP5 PUSH20 0xFFFFFFFFFFFFFFFFFFFFFFFFFFFFFFFFFFFFFFFF AND PUSH20 0xFFFFFFFFFFFFFFFFFFFFFFFFFFFFFFFFFFFFFFFF AND DUP2 MSTORE PUSH1 0x20 ADD SWAP1 DUP2 MSTORE PUSH1 0x20 ADD PUSH1 0x0 KECCAK256 DUP2 SWAP1 SSTORE POP DUP2 PUSH20 0xFFFFFFFFFFFFFFFFFFFFFFFFFFFFFFFFFFFFFFFF AND DUP4 PUSH20 0xFFFFFFFFFFFFFFFFFFFFFFFFFFFFFFFFFFFFFFFF AND PUSH32 0xDDF252AD1BE2C89B69C2B068FC378DAA952BA7F163C4A11628F55A4DF523B3EF DUP4 PUSH1 0x40 MLOAD DUP1 DUP3 DUP2 MSTORE PUSH1 0x20 ADD SWAP2 POP POP PUSH1 0x40 MLOAD DUP1 SWAP2 SUB SWAP1 LOG3 POP POP POP JUMP JUMPDEST PUSH1 0x0 DUP4 DUP4 GT ISZERO DUP3 SWAP1 PUSH2 0x4247 JUMPI PUSH1 0x40 MLOAD PUSH32 0x8C379A000000000000000000000000000000000000000000000000000000000 DUP2 MSTORE PUSH1 0x4 ADD DUP1 DUP1 PUSH1 0x20 ADD DUP3 DUP2 SUB DUP3 MSTORE DUP4 DUP2 DUP2 MLOAD DUP2 MSTORE PUSH1 0x20 ADD SWAP2 POP DUP1 MLOAD SWAP1 PUSH1 0x20 ADD SWAP1 DUP1 DUP4 DUP4 PUSH1 0x0 JUMPDEST DUP4 DUP2 LT ISZERO PUSH2 0x420C JUMPI DUP1 DUP3 ADD MLOAD DUP2 DUP5 ADD MSTORE PUSH1 0x20 DUP2 ADD SWAP1 POP PUSH2 0x41F1 JUMP JUMPDEST POP POP POP POP SWAP1 POP SWAP1 DUP2 ADD SWAP1 PUSH1 0x1F AND DUP1 ISZERO PUSH2 0x4239 JUMPI DUP1 DUP3 SUB DUP1 MLOAD PUSH1 0x1 DUP4 PUSH1 0x20 SUB PUSH2 0x100 EXP SUB NOT AND DUP2 MSTORE PUSH1 0x20 ADD SWAP2 POP JUMPDEST POP SWAP3 POP POP POP PUSH1 0x40 MLOAD DUP1 SWAP2 SUB SWAP1 REVERT JUMPDEST POP DUP3 DUP5 SUB SWAP1 POP SWAP4 SWAP3 POP POP POP JUMP JUMPDEST PUSH1 0x0 DUP1 DUP3 DUP5 ADD SWAP1 POP DUP4 DUP2 LT ISZERO PUSH2 0x42D2 JUMPI PUSH1 0x40 MLOAD PUSH32 0x8C379A000000000000000000000000000000000000000000000000000000000 DUP2 MSTORE PUSH1 0x4 ADD DUP1 DUP1 PUSH1 0x20 ADD DUP3 DUP2 SUB DUP3 MSTORE PUSH1 0x1B DUP2 MSTORE PUSH1 0x20 ADD DUP1 PUSH32 0x536166654D6174683A206164646974696F6E206F766572666C6F770000000000 DUP2 MSTORE POP PUSH1 0x20 ADD SWAP2 POP POP PUSH1 0x40 MLOAD DUP1 SWAP2 SUB SWAP1 REVERT JUMPDEST DUP1 SWAP2 POP POP SWAP3 SWAP2 POP POP JUMP JUMPDEST PUSH1 0x0 PUSH2 0x42E7 TIMESTAMP PUSH2 0x4820 JUMP JUMPDEST PUSH1 0x0 PUSH1 0xD SLOAD SWAP1 POP PUSH2 0x42F8 DUP4 DUP3 PUSH2 0x3A88 JUMP JUMPDEST SWAP2 POP DUP1 PUSH1 0x12 PUSH1 0x0 DUP6 PUSH20 0xFFFFFFFFFFFFFFFFFFFFFFFFFFFFFFFFFFFFFFFF AND PUSH20 0xFFFFFFFFFFFFFFFFFFFFFFFFFFFFFFFFFFFFFFFF AND DUP2 MSTORE PUSH1 0x20 ADD SWAP1 DUP2 MSTORE PUSH1 0x20 ADD PUSH1 0x0 KECCAK256 DUP2 SWAP1 SSTORE POP PUSH32 0x85D06BBAFC9DFD05707E7A9369F98DCC505C964D1C4057022D7799AB84319F88 DUP4 DUP3 PUSH1 0x40 MLOAD DUP1 DUP4 PUSH20 0xFFFFFFFFFFFFFFFFFFFFFFFFFFFFFFFFFFFFFFFF AND DUP2 MSTORE PUSH1 0x20 ADD DUP3 DUP2 MSTORE PUSH1 0x20 ADD SWAP3 POP POP POP PUSH1 0x40 MLOAD DUP1 SWAP2 SUB SWAP1 LOG1 POP SWAP2 SWAP1 POP JUMP JUMPDEST PUSH1 0x0 DUP3 DUP3 GT ISZERO PUSH2 0x4411 JUMPI PUSH1 0x40 MLOAD PUSH32 0x8C379A000000000000000000000000000000000000000000000000000000000 DUP2 MSTORE PUSH1 0x4 ADD DUP1 DUP1 PUSH1 0x20 ADD DUP3 DUP2 SUB DUP3 MSTORE PUSH1 0x1E DUP2 MSTORE PUSH1 0x20 ADD DUP1 PUSH32 0x536166654D6174683A207375627472616374696F6E206F766572666C6F770000 DUP2 MSTORE POP PUSH1 0x20 ADD SWAP2 POP POP PUSH1 0x40 MLOAD DUP1 SWAP2 SUB SWAP1 REVERT JUMPDEST DUP2 DUP4 SUB SWAP1 POP SWAP3 SWAP2 POP POP JUMP JUMPDEST PUSH1 0x0 DUP1 DUP4 EQ ISZERO PUSH2 0x442F JUMPI PUSH1 0x0 SWAP1 POP PUSH2 0x449C JUMP JUMPDEST PUSH1 0x0 DUP3 DUP5 MUL SWAP1 POP DUP3 DUP5 DUP3 DUP2 PUSH2 0x4440 JUMPI INVALID JUMPDEST DIV EQ PUSH2 0x4497 JUMPI PUSH1 0x40 MLOAD PUSH32 0x8C379A000000000000000000000000000000000000000000000000000000000 DUP2 MSTORE PUSH1 0x4 ADD DUP1 DUP1 PUSH1 0x20 ADD DUP3 DUP2 SUB DUP3 MSTORE PUSH1 0x21 DUP2 MSTORE PUSH1 0x20 ADD DUP1 PUSH2 0x4CD5 PUSH1 0x21 SWAP2 CODECOPY PUSH1 0x40 ADD SWAP2 POP POP PUSH1 0x40 MLOAD DUP1 SWAP2 SUB SWAP1 REVERT JUMPDEST DUP1 SWAP2 POP POP JUMPDEST SWAP3 SWAP2 POP POP JUMP JUMPDEST PUSH1 0x0 DUP1 DUP3 GT PUSH2 0x4519 JUMPI PUSH1 0x40 MLOAD PUSH32 0x8C379A000000000000000000000000000000000000000000000000000000000 DUP2 MSTORE PUSH1 0x4 ADD DUP1 DUP1 PUSH1 0x20 ADD DUP3 DUP2 SUB DUP3 MSTORE PUSH1 0x1A DUP2 MSTORE PUSH1 0x20 ADD DUP1 PUSH32 0x536166654D6174683A206469766973696F6E206279207A65726F000000000000 DUP2 MSTORE POP PUSH1 0x20 ADD SWAP2 POP POP PUSH1 0x40 MLOAD DUP1 SWAP2 SUB SWAP1 REVERT JUMPDEST DUP2 DUP4 DUP2 PUSH2 0x4522 JUMPI INVALID JUMPDEST DIV SWAP1 POP SWAP3 SWAP2 POP POP JUMP JUMPDEST PUSH1 0x0 PUSH2 0x455C PUSH1 0xE SLOAD PUSH2 0x454E PUSH8 0xDE0B6B3A7640000 DUP6 PUSH2 0x441C SWAP1 SWAP2 SWAP1 PUSH4 0xFFFFFFFF AND JUMP JUMPDEST PUSH2 0x44A2 SWAP1 SWAP2 SWAP1 PUSH4 0xFFFFFFFF AND JUMP JUMPDEST SWAP1 POP PUSH2 0x4573 DUP2 PUSH1 0xD SLOAD PUSH2 0x4254 SWAP1 SWAP2 SWAP1 PUSH4 0xFFFFFFFF AND JUMP JUMPDEST PUSH1 0xD DUP2 SWAP1 SSTORE POP PUSH32 0xB0AD669B2C654A9352811BE6E1330332677E69548B033F2AF030E16697749EF6 DUP2 PUSH1 0x40 MLOAD DUP1 DUP3 DUP2 MSTORE PUSH1 0x20 ADD SWAP2 POP POP PUSH1 0x40 MLOAD DUP1 SWAP2 SUB SWAP1 LOG1 POP POP JUMP JUMPDEST PUSH1 0x6 PUSH1 0x0 SWAP1 SLOAD SWAP1 PUSH2 0x100 EXP SWAP1 DIV PUSH20 0xFFFFFFFFFFFFFFFFFFFFFFFFFFFFFFFFFFFFFFFF AND PUSH20 0xFFFFFFFFFFFFFFFFFFFFFFFFFFFFFFFFFFFFFFFF AND CALLER PUSH20 0xFFFFFFFFFFFFFFFFFFFFFFFFFFFFFFFFFFFFFFFF AND EQ PUSH2 0x465A JUMPI PUSH1 0x40 MLOAD PUSH32 0x8C379A000000000000000000000000000000000000000000000000000000000 DUP2 MSTORE PUSH1 0x4 ADD DUP1 DUP1 PUSH1 0x20 ADD DUP3 DUP2 SUB DUP3 MSTORE PUSH1 0x2D DUP2 MSTORE PUSH1 0x20 ADD DUP1 PUSH2 0x4D67 PUSH1 0x2D SWAP2 CODECOPY PUSH1 0x40 ADD SWAP2 POP POP PUSH1 0x40 MLOAD DUP1 SWAP2 SUB SWAP1 REVERT JUMPDEST JUMP JUMPDEST PUSH1 0x0 PUSH20 0xFFFFFFFFFFFFFFFFFFFFFFFFFFFFFFFFFFFFFFFF AND DUP3 PUSH20 0xFFFFFFFFFFFFFFFFFFFFFFFFFFFFFFFFFFFFFFFF AND EQ ISZERO PUSH2 0x46E2 JUMPI PUSH1 0x40 MLOAD PUSH32 0x8C379A000000000000000000000000000000000000000000000000000000000 DUP2 MSTORE PUSH1 0x4 ADD DUP1 DUP1 PUSH1 0x20 ADD DUP3 DUP2 SUB DUP3 MSTORE PUSH1 0x21 DUP2 MSTORE PUSH1 0x20 ADD DUP1 PUSH2 0x4D94 PUSH1 0x21 SWAP2 CODECOPY PUSH1 0x40 ADD SWAP2 POP POP PUSH1 0x40 MLOAD DUP1 SWAP2 SUB SWAP1 REVERT JUMPDEST PUSH2 0x46EE DUP3 PUSH1 0x0 DUP4 PUSH2 0x4BD0 JUMP JUMPDEST PUSH2 0x4759 DUP2 PUSH1 0x40 MLOAD DUP1 PUSH1 0x60 ADD PUSH1 0x40 MSTORE DUP1 PUSH1 0x22 DUP2 MSTORE PUSH1 0x20 ADD PUSH2 0x4BF9 PUSH1 0x22 SWAP2 CODECOPY PUSH1 0x0 DUP1 DUP7 PUSH20 0xFFFFFFFFFFFFFFFFFFFFFFFFFFFFFFFFFFFFFFFF AND PUSH20 0xFFFFFFFFFFFFFFFFFFFFFFFFFFFFFFFFFFFFFFFF AND DUP2 MSTORE PUSH1 0x20 ADD SWAP1 DUP2 MSTORE PUSH1 0x20 ADD PUSH1 0x0 KECCAK256 SLOAD PUSH2 0x419A SWAP1 SWAP3 SWAP2 SWAP1 PUSH4 0xFFFFFFFF AND JUMP JUMPDEST PUSH1 0x0 DUP1 DUP5 PUSH20 0xFFFFFFFFFFFFFFFFFFFFFFFFFFFFFFFFFFFFFFFF AND PUSH20 0xFFFFFFFFFFFFFFFFFFFFFFFFFFFFFFFFFFFFFFFF AND DUP2 MSTORE PUSH1 0x20 ADD SWAP1 DUP2 MSTORE PUSH1 0x20 ADD PUSH1 0x0 KECCAK256 DUP2 SWAP1 SSTORE POP PUSH2 0x47B0 DUP2 PUSH1 0x2 SLOAD PUSH2 0x4399 SWAP1 SWAP2 SWAP1 PUSH4 0xFFFFFFFF AND JUMP JUMPDEST PUSH1 0x2 DUP2 SWAP1 SSTORE POP PUSH1 0x0 PUSH20 0xFFFFFFFFFFFFFFFFFFFFFFFFFFFFFFFFFFFFFFFF AND DUP3 PUSH20 0xFFFFFFFFFFFFFFFFFFFFFFFFFFFFFFFFFFFFFFFF AND PUSH32 0xDDF252AD1BE2C89B69C2B068FC378DAA952BA7F163C4A11628F55A4DF523B3EF DUP4 PUSH1 0x40 MLOAD DUP1 DUP3 DUP2 MSTORE PUSH1 0x20 ADD SWAP2 POP POP PUSH1 0x40 MLOAD DUP1 SWAP2 SUB SWAP1 LOG3 POP POP JUMP JUMPDEST PUSH1 0x0 PUSH2 0x482B DUP3 PUSH2 0x239A JUMP JUMPDEST SWAP1 POP PUSH1 0xD SLOAD DUP2 GT ISZERO PUSH2 0x4885 JUMPI DUP1 PUSH1 0xD DUP2 SWAP1 SSTORE POP DUP2 PUSH1 0x9 DUP2 SWAP1 SSTORE POP PUSH32 0xE21837BEF7E64DAF0719E3E462B1A881D63C359C14C36A063143F9882A3A8525 DUP2 DUP4 PUSH1 0x40 MLOAD DUP1 DUP4 DUP2 MSTORE PUSH1 0x20 ADD DUP3 DUP2 MSTORE PUSH1 0x20 ADD SWAP3 POP POP POP PUSH1 0x40 MLOAD DUP1 SWAP2 SUB SWAP1 LOG1 JUMPDEST POP POP JUMP JUMPDEST PUSH1 0x0 PUSH20 0xFFFFFFFFFFFFFFFFFFFFFFFFFFFFFFFFFFFFFFFF AND DUP3 PUSH20 0xFFFFFFFFFFFFFFFFFFFFFFFFFFFFFFFFFFFFFFFF AND EQ ISZERO PUSH2 0x492C JUMPI PUSH1 0x40 MLOAD PUSH32 0x8C379A000000000000000000000000000000000000000000000000000000000 DUP2 MSTORE PUSH1 0x4 ADD DUP1 DUP1 PUSH1 0x20 ADD DUP3 DUP2 SUB DUP3 MSTORE PUSH1 0x1F DUP2 MSTORE PUSH1 0x20 ADD DUP1 PUSH32 0x45524332303A206D696E7420746F20746865207A65726F206164647265737300 DUP2 MSTORE POP PUSH1 0x20 ADD SWAP2 POP POP PUSH1 0x40 MLOAD DUP1 SWAP2 SUB SWAP1 REVERT JUMPDEST PUSH2 0x4938 PUSH1 0x0 DUP4 DUP4 PUSH2 0x4BD0 JUMP JUMPDEST PUSH2 0x494D DUP2 PUSH1 0x2 SLOAD PUSH2 0x4254 SWAP1 SWAP2 SWAP1 PUSH4 0xFFFFFFFF AND JUMP JUMPDEST PUSH1 0x2 DUP2 SWAP1 SSTORE POP PUSH2 0x49A4 DUP2 PUSH1 0x0 DUP1 DUP6 PUSH20 0xFFFFFFFFFFFFFFFFFFFFFFFFFFFFFFFFFFFFFFFF AND PUSH20 0xFFFFFFFFFFFFFFFFFFFFFFFFFFFFFFFFFFFFFFFF AND DUP2 MSTORE PUSH1 0x20 ADD SWAP1 DUP2 MSTORE PUSH1 0x20 ADD PUSH1 0x0 KECCAK256 SLOAD PUSH2 0x4254 SWAP1 SWAP2 SWAP1 PUSH4 0xFFFFFFFF AND JUMP JUMPDEST PUSH1 0x0 DUP1 DUP5 PUSH20 0xFFFFFFFFFFFFFFFFFFFFFFFFFFFFFFFFFFFFFFFF AND PUSH20 0xFFFFFFFFFFFFFFFFFFFFFFFFFFFFFFFFFFFFFFFF AND DUP2 MSTORE PUSH1 0x20 ADD SWAP1 DUP2 MSTORE PUSH1 0x20 ADD PUSH1 0x0 KECCAK256 DUP2 SWAP1 SSTORE POP DUP2 PUSH20 0xFFFFFFFFFFFFFFFFFFFFFFFFFFFFFFFFFFFFFFFF AND PUSH1 0x0 PUSH20 0xFFFFFFFFFFFFFFFFFFFFFFFFFFFFFFFFFFFFFFFF AND PUSH32 0xDDF252AD1BE2C89B69C2B068FC378DAA952BA7F163C4A11628F55A4DF523B3EF DUP4 PUSH1 0x40 MLOAD DUP1 DUP3 DUP2 MSTORE PUSH1 0x20 ADD SWAP2 POP POP PUSH1 0x40 MLOAD DUP1 SWAP2 SUB SWAP1 LOG3 POP POP JUMP JUMPDEST PUSH1 0x0 PUSH20 0xFFFFFFFFFFFFFFFFFFFFFFFFFFFFFFFFFFFFFFFF AND PUSH1 0x6 PUSH1 0x0 SWAP1 SLOAD SWAP1 PUSH2 0x100 EXP SWAP1 DIV PUSH20 0xFFFFFFFFFFFFFFFFFFFFFFFFFFFFFFFFFFFFFFFF AND PUSH20 0xFFFFFFFFFFFFFFFFFFFFFFFFFFFFFFFFFFFFFFFF AND EQ PUSH2 0x4BCE JUMPI PUSH1 0x0 PUSH1 0x6 PUSH1 0x0 SWAP1 SLOAD SWAP1 PUSH2 0x100 EXP SWAP1 DIV PUSH20 0xFFFFFFFFFFFFFFFFFFFFFFFFFFFFFFFFFFFFFFFF AND PUSH20 0xFFFFFFFFFFFFFFFFFFFFFFFFFFFFFFFFFFFFFFFF AND PUSH4 0xFD726827 PUSH1 0x40 MLOAD DUP2 PUSH4 0xFFFFFFFF AND PUSH1 0xE0 SHL DUP2 MSTORE PUSH1 0x4 ADD PUSH1 0x20 PUSH1 0x40 MLOAD DUP1 DUP4 SUB DUP2 DUP7 DUP1 EXTCODESIZE ISZERO DUP1 ISZERO PUSH2 0x4B10 JUMPI PUSH1 0x0 DUP1 REVERT JUMPDEST POP GAS STATICCALL ISZERO DUP1 ISZERO PUSH2 0x4B24 JUMPI RETURNDATASIZE PUSH1 0x0 DUP1 RETURNDATACOPY RETURNDATASIZE PUSH1 0x0 REVERT JUMPDEST POP POP POP POP PUSH1 0x40 MLOAD RETURNDATASIZE PUSH1 0x20 DUP2 LT ISZERO PUSH2 0x4B3A JUMPI PUSH1 0x0 DUP1 REVERT JUMPDEST DUP2 ADD SWAP1 DUP1 DUP1 MLOAD SWAP1 PUSH1 0x20 ADD SWAP1 SWAP3 SWAP2 SWAP1 POP POP POP SWAP1 POP PUSH1 0x0 DUP2 GT ISZERO PUSH2 0x4BCC JUMPI DUP1 TIMESTAMP LT PUSH2 0x4BCB JUMPI PUSH1 0x40 MLOAD PUSH32 0x8C379A000000000000000000000000000000000000000000000000000000000 DUP2 MSTORE PUSH1 0x4 ADD DUP1 DUP1 PUSH1 0x20 ADD DUP3 DUP2 SUB DUP3 MSTORE PUSH1 0x18 DUP2 MSTORE PUSH1 0x20 ADD DUP1 PUSH32 0x50726F6A65637420616C7265616479206C61756E636865640000000000000000 DUP2 MSTORE POP PUSH1 0x20 ADD SWAP2 POP POP PUSH1 0x40 MLOAD DUP1 SWAP2 SUB SWAP1 REVERT JUMPDEST JUMPDEST POP JUMPDEST JUMP JUMPDEST POP POP POP JUMP INVALID GASLIMIT MSTORE NUMBER ORIGIN ADDRESS GASPRICE KECCAK256 PUSH21 0x72616E7366657220746F20746865207A65726F2061 PUSH5 0x6472657373 GASLIMIT MSTORE NUMBER ORIGIN ADDRESS GASPRICE KECCAK256 PUSH3 0x75726E KECCAK256 PUSH2 0x6D6F PUSH22 0x6E7420657863656564732062616C616E63654F776E61 PUSH3 0x6C653A KECCAK256 PUSH15 0x6577206F776E657220697320746865 KECCAK256 PUSH27 0x65726F206164647265737345524332303A20617070726F76652074 PUSH16 0x20746865207A65726F20616464726573 PUSH20 0x45524332303A207472616E7366657220616D6F75 PUSH15 0x7420657863656564732062616C616E PUSH4 0x654D6178 PUSH10 0x6D756D20696E69746961 PUSH13 0x20746F6B656E20616C6C6F6361 PUSH21 0x696F6E2065786365656465645472616E7361637469 PUSH16 0x6E73206172652063757272656E746C79 KECCAK256 PUSH5 0x697361626C PUSH6 0x64536166654D PUSH2 0x7468 GASPRICE KECCAK256 PUSH14 0x756C7469706C69636174696F6E20 PUSH16 0x766572666C6F774D617820616C6C6F77 PUSH6 0x6420746F6B65 PUSH15 0x20616D6F756E742065786365656465 PUSH5 0x4552433230 GASPRICE KECCAK256 PUSH21 0x72616E7366657220616D6F756E7420657863656564 PUSH20 0x20616C6C6F77616E636543757272656E74207374 PUSH2 0x6B69 PUSH15 0x672063616D706169676E206973206E PUSH16 0x74206F766572207965744F6E6C792076 PUSH2 0x6C69 PUSH5 0x6174656420 0x49 PUSH15 0x7465726661636550726F6A65637454 PUSH16 0x6B656E20436F6E747261637445524332 ADDRESS GASPRICE KECCAK256 PUSH3 0x75726E KECCAK256 PUSH7 0x726F6D20746865 KECCAK256 PUSH27 0x65726F206164647265737345524332303A207472616E7366657220 PUSH7 0x726F6D20746865 KECCAK256 PUSH27 0x65726F206164647265737345524332303A20617070726F76652066 PUSH19 0x6F6D20746865207A65726F2061646472657373 MSTORE8 PUSH21 0x617274696E672064617465206D7573742062652061 PUSH7 0x74657220637572 PUSH19 0x656E74206461746520616E64207374616B696E PUSH8 0x206475726174696F PUSH15 0x206D75737420626520677265617465 PUSH19 0x207468616E203050726F766964652073616D65 KECCAK256 PUSH2 0x6D6F PUSH22 0x6E74206F662076616C75657320617320757365727345 MSTORE NUMBER ORIGIN ADDRESS GASPRICE KECCAK256 PUSH5 0x6563726561 PUSH20 0x656420616C6C6F77616E63652062656C6F77207A PUSH6 0x726FA2646970 PUSH7 0x7358221220AAB4 0x48 0xDA DUP14 SWAP12 0xB5 0xA9 0xC3 0xB7 0x4D 0xEA CALLVALUE PUSH6 0xF5F659AF530D PUSH28 0xF503D18083026967AC3C1B64736F6C634300070600334D6178696D75 PUSH14 0x20636C61696D20666565206D7573 PUSH21 0x206265206C6F776572207468616E2031303025496E PUSH10 0x7469616C20756E6C6F63 PUSH12 0x206D757374206265206C6F77 PUSH6 0x72207468616E KECCAK256 BALANCE ADDRESS ADDRESS 0x25 0x49 PUSH7 0x206E6F20766573 PUSH21 0x696E672C20616C6C20746F6B656E73206D75737420 PUSH3 0x652072 PUSH6 0x6C6561736564 KECCAK256 PUSH2 0x7420 PUSH13 0x61756E63684D6178696D756D20 PUSH24 0x69746864726177616C20666565206D757374206265206C6F PUSH24 0x6572207468616E2031303025000000000000000000000000 "
    },
    "gasEstimates": {
      "creation": {
        "codeDepositCost": "4035600",
        "executionCost": "infinite",
        "totalCost": "infinite"
      },
      "external": {
        "allocateLTByOwner(address[],uint256[],bool)": "infinite",
        "allowance(address,address)": "1388",
        "approve(address,uint256)": "infinite",
        "areAllocationsTerminated()": "1231",
        "areUserFunctionsDisabled()": "1138",
        "balanceOf(address)": "1308",
        "burnByInterfaceProjectToken(uint256)": "infinite",
        "campaignStakingRewards()": "1075",
        "claimedRewardPerShare1e18(address)": "1259",
        "currentRewardPerShare1e18()": "1116",
        "decimals()": "1190",
        "decreaseAllowance(address,uint256)": "infinite",
        "depositLT(uint256)": "infinite",
        "dischargeUserTokens(address,uint256)": "infinite",
        "durationCliff()": "infinite",
        "durationLinearVesting()": "infinite",
        "enableOrDisableUserFunctions()": "23994",
        "ensureUserFunctionsAreNotDisabled()": "infinite",
        "fractionInitialUnlockPerThousand()": "infinite",
        "getHodlRewards(address,uint256)": "infinite",
        "getUpdatedRewardPerShare1e18(uint256)": "infinite",
        "getUserDateOfPartiallyChargedToken(address)": "1315",
        "getUserFullyChargedBalanceLiquiToken(address)": "1336",
        "getUserPartiallyChargedBalanceLiquiToken(address)": "1291",
        "increaseAllowance(address,uint256)": "infinite",
        "interfaceProjectToken()": "1137",
        "isInterfaceProjectTokenLocked()": "1165",
        "lockInterfaceProjectToken()": "22897",
        "maxClaimFeesPerThousandForPT()": "infinite",
        "maxInitialTokenAllocation()": "infinite",
        "maxStakingAPR()": "infinite",
        "maxStakingTokenAmount()": "infinite",
        "maxWithdrawFeesPerThousandForLT()": "infinite",
        "mintByInterfaceProjectToken(uint256)": "infinite",
        "multiplier1K()": "316",
        "name()": "infinite",
        "owner()": "1217",
        "ratioFeesToRewardHodlersPerThousand()": "1117",
        "rechargeUserTokens(address,uint256,uint256,uint256)": "infinite",
        "renounceOwnership()": "24616",
        "setInterfaceProjectToken(address)": "24256",
        "setStakingRewards(uint256,uint256,uint256)": "infinite",
        "stakedLT()": "1072",
        "stakingDateLastCheckpoint()": "1073",
        "stakingDuration()": "1138",
        "stakingStartDate()": "1094",
        "symbol()": "infinite",
        "terminateAllocations()": "22895",
        "totalStakingRewards()": "1073",
        "totalSupply()": "1104",
        "totalTokenAllocated()": "1118",
        "transfer(address,uint256)": "infinite",
        "transferFrom(address,address,uint256)": "infinite",
        "transferOwnership(address)": "infinite",
        "updateRatioFeesToRewardHodlers(uint256)": "22393",
        "updateRewardsAfterFeesPaymentByInterface(uint256)": "infinite",
        "updateStakingAndGetHodlRewardsByInterfacePT(address)": "infinite",
        "updateWithdrawalFeesForLT(uint256)": "infinite",
        "userLiquiToken(address)": "2938",
        "withdrawFeesPerThousandForLT()": "1117",
        "withdrawLT(uint256)": "infinite"
      },
      "internal": {
        "checkProjectNotYetLaunched()": "infinite",
        "ensureOnlyInterfaceProjectToken()": "infinite",
        "updateRewardsAfterFeesPayment(uint256)": "infinite",
        "updateStakingAndGetHodlRewards(address)": "infinite",
        "updateStakingParameters(uint256)": "infinite"
      }
    },
    "methodIdentifiers": {
      "allocateLTByOwner(address[],uint256[],bool)": "df910817",
      "allowance(address,address)": "dd62ed3e",
      "approve(address,uint256)": "095ea7b3",
      "areAllocationsTerminated()": "9863d644",
      "areUserFunctionsDisabled()": "63cf3cff",
      "balanceOf(address)": "70a08231",
      "burnByInterfaceProjectToken(uint256)": "6d69847d",
      "campaignStakingRewards()": "03ff8e88",
      "claimedRewardPerShare1e18(address)": "95230a80",
      "currentRewardPerShare1e18()": "e0d0c567",
      "decimals()": "313ce567",
      "decreaseAllowance(address,uint256)": "a457c2d7",
      "depositLT(uint256)": "d49d18d6",
      "dischargeUserTokens(address,uint256)": "82af7d39",
      "durationCliff()": "3f2b437d",
      "durationLinearVesting()": "e54dd98a",
      "enableOrDisableUserFunctions()": "a74536e0",
      "ensureUserFunctionsAreNotDisabled()": "1f93abd4",
      "fractionInitialUnlockPerThousand()": "2945ac68",
      "getHodlRewards(address,uint256)": "fb3da545",
      "getUpdatedRewardPerShare1e18(uint256)": "908a6bf0",
      "getUserDateOfPartiallyChargedToken(address)": "305e2daf",
      "getUserFullyChargedBalanceLiquiToken(address)": "7561ea9a",
      "getUserPartiallyChargedBalanceLiquiToken(address)": "9f65ffb0",
      "increaseAllowance(address,uint256)": "39509351",
      "interfaceProjectToken()": "3e332f16",
      "isInterfaceProjectTokenLocked()": "8a1e4393",
      "lockInterfaceProjectToken()": "5798b1ff",
      "maxClaimFeesPerThousandForPT()": "78e104da",
      "maxInitialTokenAllocation()": "86982e61",
      "maxStakingAPR()": "1387520a",
      "maxStakingTokenAmount()": "82fb82f5",
      "maxWithdrawFeesPerThousandForLT()": "8aa03a3c",
      "mintByInterfaceProjectToken(uint256)": "da3a5936",
      "multiplier1K()": "7e267f39",
      "name()": "06fdde03",
      "owner()": "8da5cb5b",
      "ratioFeesToRewardHodlersPerThousand()": "74ddcd1d",
      "rechargeUserTokens(address,uint256,uint256,uint256)": "740c3495",
      "renounceOwnership()": "715018a6",
      "setInterfaceProjectToken(address)": "dccdc995",
      "setStakingRewards(uint256,uint256,uint256)": "a1b0c412",
      "stakedLT()": "c96877a2",
      "stakingDateLastCheckpoint()": "6c1f89ed",
      "stakingDuration()": "8005a7de",
      "stakingStartDate()": "7ccf0226",
      "symbol()": "95d89b41",
      "terminateAllocations()": "9c3bcbb1",
      "totalStakingRewards()": "93ef357a",
      "totalSupply()": "18160ddd",
      "totalTokenAllocated()": "6a4bd5a6",
      "transfer(address,uint256)": "a9059cbb",
      "transferFrom(address,address,uint256)": "23b872dd",
      "transferOwnership(address)": "f2fde38b",
      "updateRatioFeesToRewardHodlers(uint256)": "72b990b5",
      "updateRewardsAfterFeesPaymentByInterface(uint256)": "f331a867",
      "updateStakingAndGetHodlRewardsByInterfacePT(address)": "efb5c2f3",
      "updateWithdrawalFeesForLT(uint256)": "bf777f82",
      "userLiquiToken(address)": "30400a86",
      "withdrawFeesPerThousandForLT()": "abfdce2c",
      "withdrawLT(uint256)": "483f3ac7"
    }
  },
  "storageLayout": {
    "storage": [
      {
        "astId": 3332,
        "contract": "LiquidityToken.sol:LiquidityToken",
        "label": "_balances",
        "offset": 0,
        "slot": "0",
        "type": "t_mapping(t_address,t_uint256)"
      },
      {
        "astId": 3338,
        "contract": "LiquidityToken.sol:LiquidityToken",
        "label": "_allowances",
        "offset": 0,
        "slot": "1",
        "type": "t_mapping(t_address,t_mapping(t_address,t_uint256))"
      },
      {
        "astId": 3340,
        "contract": "LiquidityToken.sol:LiquidityToken",
        "label": "_totalSupply",
        "offset": 0,
        "slot": "2",
        "type": "t_uint256"
      },
      {
        "astId": 3342,
        "contract": "LiquidityToken.sol:LiquidityToken",
        "label": "_name",
        "offset": 0,
        "slot": "3",
        "type": "t_string_storage"
      },
      {
        "astId": 3344,
        "contract": "LiquidityToken.sol:LiquidityToken",
        "label": "_symbol",
        "offset": 0,
        "slot": "4",
        "type": "t_string_storage"
      },
      {
        "astId": 3346,
        "contract": "LiquidityToken.sol:LiquidityToken",
        "label": "_decimals",
        "offset": 0,
        "slot": "5",
        "type": "t_uint8"
      },
      {
        "astId": 2823,
        "contract": "LiquidityToken.sol:LiquidityToken",
        "label": "_owner",
        "offset": 1,
        "slot": "5",
        "type": "t_address"
      },
      {
        "astId": 1364,
        "contract": "LiquidityToken.sol:LiquidityToken",
        "label": "interfaceProjectToken",
        "offset": 0,
        "slot": "6",
        "type": "t_contract(InterfaceProjectToken)1349"
      },
      {
        "astId": 1369,
        "contract": "LiquidityToken.sol:LiquidityToken",
        "label": "stakingStartDate",
        "offset": 0,
        "slot": "7",
        "type": "t_uint256"
      },
      {
        "astId": 1371,
        "contract": "LiquidityToken.sol:LiquidityToken",
        "label": "stakingDuration",
        "offset": 0,
        "slot": "8",
        "type": "t_uint256"
      },
      {
        "astId": 1373,
        "contract": "LiquidityToken.sol:LiquidityToken",
        "label": "stakingDateLastCheckpoint",
        "offset": 0,
        "slot": "9",
        "type": "t_uint256"
      },
      {
        "astId": 1375,
        "contract": "LiquidityToken.sol:LiquidityToken",
        "label": "campaignStakingRewards",
        "offset": 0,
        "slot": "10",
        "type": "t_uint256"
      },
      {
        "astId": 1377,
        "contract": "LiquidityToken.sol:LiquidityToken",
        "label": "totalStakingRewards",
        "offset": 0,
        "slot": "11",
        "type": "t_uint256"
      },
      {
        "astId": 1380,
        "contract": "LiquidityToken.sol:LiquidityToken",
        "label": "ratioFeesToRewardHodlersPerThousand",
        "offset": 0,
        "slot": "12",
        "type": "t_uint256"
      },
      {
        "astId": 1382,
        "contract": "LiquidityToken.sol:LiquidityToken",
        "label": "currentRewardPerShare1e18",
        "offset": 0,
        "slot": "13",
        "type": "t_uint256"
      },
      {
        "astId": 1384,
        "contract": "LiquidityToken.sol:LiquidityToken",
        "label": "stakedLT",
        "offset": 0,
        "slot": "14",
        "type": "t_uint256"
      },
      {
        "astId": 1386,
        "contract": "LiquidityToken.sol:LiquidityToken",
        "label": "totalTokenAllocated",
        "offset": 0,
        "slot": "15",
        "type": "t_uint256"
      },
      {
        "astId": 1388,
        "contract": "LiquidityToken.sol:LiquidityToken",
        "label": "withdrawFeesPerThousandForLT",
        "offset": 0,
        "slot": "16",
        "type": "t_uint256"
      },
      {
        "astId": 1390,
        "contract": "LiquidityToken.sol:LiquidityToken",
        "label": "areUserFunctionsDisabled",
        "offset": 0,
        "slot": "17",
        "type": "t_bool"
      },
      {
        "astId": 1392,
        "contract": "LiquidityToken.sol:LiquidityToken",
        "label": "isInterfaceProjectTokenLocked",
        "offset": 1,
        "slot": "17",
        "type": "t_bool"
      },
      {
        "astId": 1394,
        "contract": "LiquidityToken.sol:LiquidityToken",
        "label": "areAllocationsTerminated",
        "offset": 2,
        "slot": "17",
        "type": "t_bool"
      },
      {
        "astId": 1414,
        "contract": "LiquidityToken.sol:LiquidityToken",
        "label": "claimedRewardPerShare1e18",
        "offset": 0,
        "slot": "18",
        "type": "t_mapping(t_address,t_uint256)"
      },
      {
        "astId": 1425,
        "contract": "LiquidityToken.sol:LiquidityToken",
        "label": "userLiquiToken",
        "offset": 0,
        "slot": "19",
        "type": "t_mapping(t_address,t_struct(LiquiToken)1421_storage)"
      }
    ],
    "types": {
      "t_address": {
        "encoding": "inplace",
        "label": "address",
        "numberOfBytes": "20"
      },
      "t_bool": {
        "encoding": "inplace",
        "label": "bool",
        "numberOfBytes": "1"
      },
      "t_contract(InterfaceProjectToken)1349": {
        "encoding": "inplace",
        "label": "contract InterfaceProjectToken",
        "numberOfBytes": "20"
      },
      "t_mapping(t_address,t_mapping(t_address,t_uint256))": {
        "encoding": "mapping",
        "key": "t_address",
        "label": "mapping(address => mapping(address => uint256))",
        "numberOfBytes": "32",
        "value": "t_mapping(t_address,t_uint256)"
      },
      "t_mapping(t_address,t_struct(LiquiToken)1421_storage)": {
        "encoding": "mapping",
        "key": "t_address",
        "label": "mapping(address => struct LiquidityToken.LiquiToken)",
        "numberOfBytes": "32",
        "value": "t_struct(LiquiToken)1421_storage"
      },
      "t_mapping(t_address,t_uint256)": {
        "encoding": "mapping",
        "key": "t_address",
        "label": "mapping(address => uint256)",
        "numberOfBytes": "32",
        "value": "t_uint256"
      },
      "t_string_storage": {
        "encoding": "bytes",
        "label": "string",
        "numberOfBytes": "32"
      },
      "t_struct(LiquiToken)1421_storage": {
        "encoding": "inplace",
        "label": "struct LiquidityToken.LiquiToken",
        "members": [
          {
            "astId": 1416,
            "contract": "LiquidityToken.sol:LiquidityToken",
            "label": "fullyChargedBalance",
            "offset": 0,
            "slot": "0",
            "type": "t_uint256"
          },
          {
            "astId": 1418,
            "contract": "LiquidityToken.sol:LiquidityToken",
            "label": "partiallyChargedBalance",
            "offset": 0,
            "slot": "1",
            "type": "t_uint256"
          },
          {
            "astId": 1420,
            "contract": "LiquidityToken.sol:LiquidityToken",
            "label": "dateOfPartiallyCharged",
            "offset": 0,
            "slot": "2",
            "type": "t_uint256"
          }
        ],
        "numberOfBytes": "96"
      },
      "t_uint256": {
        "encoding": "inplace",
        "label": "uint256",
        "numberOfBytes": "32"
      },
      "t_uint8": {
        "encoding": "inplace",
        "label": "uint8",
        "numberOfBytes": "1"
      }
    }
  },
  "userdoc": {
    "events": {
      "UserFunctionsAreDisabled(bool)": {
        "notice": "Events ///////////////////////////////////////////////////////////////////"
      }
    },
    "kind": "user",
    "methods": {},
    "version": 1
  }
}