{
  "abi": [
    {
      "inputs": [
        {
          "internalType": "string",
          "name": "_name",
          "type": "string"
        },
        {
          "internalType": "string",
          "name": "_symbol",
          "type": "string"
        },
        {
          "internalType": "uint256",
          "name": "_fractionInitialUnlockPerThousand",
          "type": "uint256"
        },
        {
          "internalType": "uint256",
          "name": "_durationCliff",
          "type": "uint256"
        },
        {
          "internalType": "uint256",
          "name": "_durationLinearVesting",
          "type": "uint256"
        },
        {
          "internalType": "uint256",
          "name": "_maxWithdrawFeesPerThousandForLT",
          "type": "uint256"
        },
        {
          "internalType": "uint256",
          "name": "_maxClaimFeesPerThousandForPT",
          "type": "uint256"
        },
        {
          "internalType": "uint256",
          "name": "_maxStakingAPR",
          "type": "uint256"
        },
        {
          "internalType": "uint256",
          "name": "_maxStakingTokenAmount",
          "type": "uint256"
        },
        {
          "internalType": "uint256",
          "name": "_maxInitialTokenAllocation",
          "type": "uint256"
        }
      ],
      "stateMutability": "nonpayable",
      "type": "constructor"
    },
    {
      "anonymous": false,
      "inputs": [
        {
          "indexed": true,
          "internalType": "address",
          "name": "owner",
          "type": "address"
        },
        {
          "indexed": true,
          "internalType": "address",
          "name": "spender",
          "type": "address"
        },
        {
          "indexed": false,
          "internalType": "uint256",
          "name": "value",
          "type": "uint256"
        }
      ],
      "name": "Approval",
      "type": "event"
    },
    {
      "anonymous": false,
      "inputs": [
        {
          "indexed": false,
          "internalType": "address",
          "name": "_user",
          "type": "address"
        },
        {
          "indexed": false,
          "internalType": "uint256",
          "name": "_value",
          "type": "uint256"
        },
        {
          "indexed": false,
          "internalType": "uint256",
          "name": "_hodlRewards",
          "type": "uint256"
        },
        {
          "indexed": false,
          "internalType": "bool",
          "name": "_isAllocationStaked",
          "type": "bool"
        }
      ],
      "name": "LTAllocatedByOwner",
      "type": "event"
    },
    {
      "anonymous": false,
      "inputs": [
        {
          "indexed": false,
          "internalType": "address",
          "name": "_user",
          "type": "address"
        },
        {
          "indexed": false,
          "internalType": "uint256",
          "name": "_valueLT",
          "type": "uint256"
        },
        {
          "indexed": false,
          "internalType": "uint256",
          "name": "_valuePayment",
          "type": "uint256"
        },
        {
          "indexed": false,
          "internalType": "uint256",
          "name": "_hodlRewards",
          "type": "uint256"
        }
      ],
      "name": "LTAllocatedThroughSale",
      "type": "event"
    },
    {
      "anonymous": false,
      "inputs": [
        {
          "indexed": false,
          "internalType": "address",
          "name": "_user",
          "type": "address"
        },
        {
          "indexed": false,
          "internalType": "uint256",
          "name": "_value",
          "type": "uint256"
        },
        {
          "indexed": false,
          "internalType": "uint256",
          "name": "_hodlRewards",
          "type": "uint256"
        }
      ],
      "name": "LTDeposited",
      "type": "event"
    },
    {
      "anonymous": false,
      "inputs": [
        {
          "indexed": false,
          "internalType": "address",
          "name": "_user",
          "type": "address"
        },
        {
          "indexed": false,
          "internalType": "uint256",
          "name": "_value",
          "type": "uint256"
        },
        {
          "indexed": false,
          "internalType": "uint256",
          "name": "_totalFees",
          "type": "uint256"
        },
        {
          "indexed": false,
          "internalType": "uint256",
          "name": "_feesToRewardHodlers",
          "type": "uint256"
        },
        {
          "indexed": false,
          "internalType": "uint256",
          "name": "_hodlRewards",
          "type": "uint256"
        }
      ],
      "name": "LTReceived",
      "type": "event"
    },
    {
      "anonymous": false,
      "inputs": [
        {
          "indexed": true,
          "internalType": "address",
          "name": "previousOwner",
          "type": "address"
        },
        {
          "indexed": true,
          "internalType": "address",
          "name": "newOwner",
          "type": "address"
        }
      ],
      "name": "OwnershipTransferred",
      "type": "event"
    },
    {
      "anonymous": false,
      "inputs": [
        {
          "indexed": true,
          "internalType": "address",
          "name": "from",
          "type": "address"
        },
        {
          "indexed": true,
          "internalType": "address",
          "name": "to",
          "type": "address"
        },
        {
          "indexed": false,
          "internalType": "uint256",
          "name": "value",
          "type": "uint256"
        }
      ],
      "name": "Transfer",
      "type": "event"
    },
    {
      "inputs": [
        {
          "internalType": "address[]",
          "name": "_users",
          "type": "address[]"
        },
        {
          "internalType": "uint256[]",
          "name": "_values",
          "type": "uint256[]"
        },
        {
          "internalType": "bool",
          "name": "_areAllocationsToBeStaked",
          "type": "bool"
        }
      ],
      "name": "allocateLTByOwner",
      "outputs": [],
      "stateMutability": "nonpayable",
      "type": "function"
    },
    {
      "inputs": [
        {
          "internalType": "address",
          "name": "owner",
          "type": "address"
        },
        {
          "internalType": "address",
          "name": "spender",
          "type": "address"
        }
      ],
      "name": "allowance",
      "outputs": [
        {
          "internalType": "uint256",
          "name": "",
          "type": "uint256"
        }
      ],
      "stateMutability": "view",
      "type": "function"
    },
    {
      "inputs": [
        {
          "internalType": "address",
          "name": "spender",
          "type": "address"
        },
        {
          "internalType": "uint256",
          "name": "amount",
          "type": "uint256"
        }
      ],
      "name": "approve",
      "outputs": [
        {
          "internalType": "bool",
          "name": "",
          "type": "bool"
        }
      ],
      "stateMutability": "nonpayable",
      "type": "function"
    },
    {
      "inputs": [],
      "name": "areAllocationsTerminated",
      "outputs": [
        {
          "internalType": "bool",
          "name": "",
          "type": "bool"
        }
      ],
      "stateMutability": "view",
      "type": "function"
    },
    {
      "inputs": [],
      "name": "areUserFunctionsDisabled",
      "outputs": [
        {
          "internalType": "bool",
          "name": "",
          "type": "bool"
        }
      ],
      "stateMutability": "view",
      "type": "function"
    },
    {
      "inputs": [
        {
          "internalType": "address",
          "name": "account",
          "type": "address"
        }
      ],
      "name": "balanceOf",
      "outputs": [
        {
          "internalType": "uint256",
          "name": "",
          "type": "uint256"
        }
      ],
      "stateMutability": "view",
      "type": "function"
    },
    {
      "inputs": [
        {
          "internalType": "uint256",
          "name": "_value",
          "type": "uint256"
        }
      ],
      "name": "burnByInterfaceProjectToken",
      "outputs": [],
      "stateMutability": "nonpayable",
      "type": "function"
    },
    {
      "inputs": [],
      "name": "campaignStakingRewards",
      "outputs": [
        {
          "internalType": "uint256",
          "name": "",
          "type": "uint256"
        }
      ],
      "stateMutability": "view",
      "type": "function"
    },
    {
      "inputs": [
        {
          "internalType": "address",
          "name": "",
          "type": "address"
        }
      ],
      "name": "claimedRewardPerShare1e18",
      "outputs": [
        {
          "internalType": "uint256",
          "name": "",
          "type": "uint256"
        }
      ],
      "stateMutability": "view",
      "type": "function"
    },
    {
      "inputs": [],
      "name": "currentRewardPerShare1e18",
      "outputs": [
        {
          "internalType": "uint256",
          "name": "",
          "type": "uint256"
        }
      ],
      "stateMutability": "view",
      "type": "function"
    },
    {
      "inputs": [],
      "name": "decimals",
      "outputs": [
        {
          "internalType": "uint8",
          "name": "",
          "type": "uint8"
        }
      ],
      "stateMutability": "view",
      "type": "function"
    },
    {
      "inputs": [
        {
          "internalType": "address",
          "name": "spender",
          "type": "address"
        },
        {
          "internalType": "uint256",
          "name": "subtractedValue",
          "type": "uint256"
        }
      ],
      "name": "decreaseAllowance",
      "outputs": [
        {
          "internalType": "bool",
          "name": "",
          "type": "bool"
        }
      ],
      "stateMutability": "nonpayable",
      "type": "function"
    },
    {
      "inputs": [
        {
          "internalType": "uint256",
          "name": "_value",
          "type": "uint256"
        }
      ],
      "name": "depositLT",
      "outputs": [],
      "stateMutability": "nonpayable",
      "type": "function"
    },
    {
      "inputs": [
        {
          "internalType": "address",
          "name": "_user",
          "type": "address"
        },
        {
          "internalType": "uint256",
          "name": "_valueProjectToken",
          "type": "uint256"
        }
      ],
      "name": "dischargeUserTokens",
      "outputs": [],
      "stateMutability": "nonpayable",
      "type": "function"
    },
    {
      "inputs": [],
      "name": "durationCliff",
      "outputs": [
        {
          "internalType": "uint256",
          "name": "",
          "type": "uint256"
        }
      ],
      "stateMutability": "view",
      "type": "function"
    },
    {
      "inputs": [],
      "name": "durationLinearVesting",
      "outputs": [
        {
          "internalType": "uint256",
          "name": "",
          "type": "uint256"
        }
      ],
      "stateMutability": "view",
      "type": "function"
    },
    {
      "inputs": [],
      "name": "enableOrDisableUserFunctions",
      "outputs": [],
      "stateMutability": "nonpayable",
      "type": "function"
    },
    {
      "inputs": [],
      "name": "ensureUserFunctionsAreNotDisabled",
      "outputs": [],
      "stateMutability": "view",
      "type": "function"
    },
    {
      "inputs": [],
      "name": "fractionInitialUnlockPerThousand",
      "outputs": [
        {
          "internalType": "uint256",
          "name": "",
          "type": "uint256"
        }
      ],
      "stateMutability": "view",
      "type": "function"
    },
    {
      "inputs": [
        {
          "internalType": "address",
          "name": "_user",
          "type": "address"
        },
        {
          "internalType": "uint256",
          "name": "_currentRewardPerShare1e18",
          "type": "uint256"
        }
      ],
      "name": "getHodlRewards",
      "outputs": [
        {
          "internalType": "uint256",
          "name": "_hodlRewards",
          "type": "uint256"
        }
      ],
      "stateMutability": "view",
      "type": "function"
    },
    {
      "inputs": [
        {
          "internalType": "uint256",
          "name": "_blockTime",
          "type": "uint256"
        }
      ],
      "name": "getUpdatedRewardPerShare1e18",
      "outputs": [
        {
          "internalType": "uint256",
          "name": "_updatedRewardPerShare1e18",
          "type": "uint256"
        }
      ],
      "stateMutability": "view",
      "type": "function"
    },
    {
      "inputs": [
        {
          "internalType": "address",
          "name": "_user",
          "type": "address"
        }
      ],
      "name": "getUserDateOfPartiallyChargedToken",
      "outputs": [
        {
          "internalType": "uint256",
          "name": "_dateOfPartiallyCharged",
          "type": "uint256"
        }
      ],
      "stateMutability": "view",
      "type": "function"
    },
    {
      "inputs": [
        {
          "internalType": "address",
          "name": "_user",
          "type": "address"
        }
      ],
      "name": "getUserFullyChargedBalanceLiquiToken",
      "outputs": [
        {
          "internalType": "uint256",
          "name": "_fullyChargedBalance",
          "type": "uint256"
        }
      ],
      "stateMutability": "view",
      "type": "function"
    },
    {
      "inputs": [
        {
          "internalType": "address",
          "name": "_user",
          "type": "address"
        }
      ],
      "name": "getUserPartiallyChargedBalanceLiquiToken",
      "outputs": [
        {
          "internalType": "uint256",
          "name": "_partiallyChargedBalance",
          "type": "uint256"
        }
      ],
      "stateMutability": "view",
      "type": "function"
    },
    {
      "inputs": [
        {
          "internalType": "address",
          "name": "spender",
          "type": "address"
        },
        {
          "internalType": "uint256",
          "name": "addedValue",
          "type": "uint256"
        }
      ],
      "name": "increaseAllowance",
      "outputs": [
        {
          "internalType": "bool",
          "name": "",
          "type": "bool"
        }
      ],
      "stateMutability": "nonpayable",
      "type": "function"
    },
    {
      "inputs": [],
      "name": "interfaceProjectToken",
      "outputs": [
        {
          "internalType": "contract InterfaceProjectToken",
          "name": "",
          "type": "address"
        }
      ],
      "stateMutability": "view",
      "type": "function"
    },
    {
      "inputs": [],
      "name": "isInterfaceProjectTokenLocked",
      "outputs": [
        {
          "internalType": "bool",
          "name": "",
          "type": "bool"
        }
      ],
      "stateMutability": "view",
      "type": "function"
    },
    {
      "inputs": [],
      "name": "lockInterfaceProjectToken",
      "outputs": [],
      "stateMutability": "nonpayable",
      "type": "function"
    },
    {
      "inputs": [],
      "name": "maxClaimFeesPerThousandForPT",
      "outputs": [
        {
          "internalType": "uint256",
          "name": "",
          "type": "uint256"
        }
      ],
      "stateMutability": "view",
      "type": "function"
    },
    {
      "inputs": [],
      "name": "maxInitialTokenAllocation",
      "outputs": [
        {
          "internalType": "uint256",
          "name": "",
          "type": "uint256"
        }
      ],
      "stateMutability": "view",
      "type": "function"
    },
    {
      "inputs": [],
      "name": "maxStakingAPR",
      "outputs": [
        {
          "internalType": "uint256",
          "name": "",
          "type": "uint256"
        }
      ],
      "stateMutability": "view",
      "type": "function"
    },
    {
      "inputs": [],
      "name": "maxStakingTokenAmount",
      "outputs": [
        {
          "internalType": "uint256",
          "name": "",
          "type": "uint256"
        }
      ],
      "stateMutability": "view",
      "type": "function"
    },
    {
      "inputs": [],
      "name": "maxWithdrawFeesPerThousandForLT",
      "outputs": [
        {
          "internalType": "uint256",
          "name": "",
          "type": "uint256"
        }
      ],
      "stateMutability": "view",
      "type": "function"
    },
    {
      "inputs": [
        {
          "internalType": "uint256",
          "name": "_value",
          "type": "uint256"
        }
      ],
      "name": "mintByInterfaceProjectToken",
      "outputs": [],
      "stateMutability": "nonpayable",
      "type": "function"
    },
    {
      "inputs": [],
      "name": "multiplier1K",
      "outputs": [
        {
          "internalType": "uint256",
          "name": "",
          "type": "uint256"
        }
      ],
      "stateMutability": "view",
      "type": "function"
    },
    {
      "inputs": [],
      "name": "name",
      "outputs": [
        {
          "internalType": "string",
          "name": "",
          "type": "string"
        }
      ],
      "stateMutability": "view",
      "type": "function"
    },
    {
      "inputs": [],
      "name": "owner",
      "outputs": [
        {
          "internalType": "address",
          "name": "",
          "type": "address"
        }
      ],
      "stateMutability": "view",
      "type": "function"
    },
    {
      "inputs": [],
      "name": "ratioFeesToRewardHodlersPerThousand",
      "outputs": [
        {
          "internalType": "uint256",
          "name": "",
          "type": "uint256"
        }
      ],
      "stateMutability": "view",
      "type": "function"
    },
    {
      "inputs": [
        {
          "internalType": "address",
          "name": "_user",
          "type": "address"
        },
        {
          "internalType": "uint256",
          "name": "_valueFullyChargedToIncrease",
          "type": "uint256"
        },
        {
          "internalType": "uint256",
          "name": "_valuePartiallyChargedToDecrease",
          "type": "uint256"
        },
        {
          "internalType": "uint256",
          "name": "_valueProjectTokenWithRewards",
          "type": "uint256"
        }
      ],
      "name": "rechargeUserTokens",
      "outputs": [],
      "stateMutability": "nonpayable",
      "type": "function"
    },
    {
      "inputs": [],
      "name": "renounceOwnership",
      "outputs": [],
      "stateMutability": "nonpayable",
      "type": "function"
    },
    {
      "inputs": [
        {
          "internalType": "contract InterfaceProjectToken",
          "name": "_interfaceProjectToken",
          "type": "address"
        }
      ],
      "name": "setInterfaceProjectToken",
      "outputs": [],
      "stateMutability": "nonpayable",
      "type": "function"
    },
    {
      "inputs": [
        {
          "internalType": "uint256",
          "name": "_stakingStartDate",
          "type": "uint256"
        },
        {
          "internalType": "uint256",
          "name": "_stakingDuration",
          "type": "uint256"
        },
        {
          "internalType": "uint256",
          "name": "_campaignStakingRewards",
          "type": "uint256"
        }
      ],
      "name": "setStakingRewards",
      "outputs": [],
      "stateMutability": "nonpayable",
      "type": "function"
    },
    {
      "inputs": [],
      "name": "stakedLT",
      "outputs": [
        {
          "internalType": "uint256",
          "name": "",
          "type": "uint256"
        }
      ],
      "stateMutability": "view",
      "type": "function"
    },
    {
      "inputs": [],
      "name": "stakingDateLastCheckpoint",
      "outputs": [
        {
          "internalType": "uint256",
          "name": "",
          "type": "uint256"
        }
      ],
      "stateMutability": "view",
      "type": "function"
    },
    {
      "inputs": [],
      "name": "stakingDuration",
      "outputs": [
        {
          "internalType": "uint256",
          "name": "",
          "type": "uint256"
        }
      ],
      "stateMutability": "view",
      "type": "function"
    },
    {
      "inputs": [],
      "name": "stakingStartDate",
      "outputs": [
        {
          "internalType": "uint256",
          "name": "",
          "type": "uint256"
        }
      ],
      "stateMutability": "view",
      "type": "function"
    },
    {
      "inputs": [],
      "name": "symbol",
      "outputs": [
        {
          "internalType": "string",
          "name": "",
          "type": "string"
        }
      ],
      "stateMutability": "view",
      "type": "function"
    },
    {
      "inputs": [],
      "name": "terminateAllocations",
      "outputs": [],
      "stateMutability": "nonpayable",
      "type": "function"
    },
    {
      "inputs": [],
      "name": "totalStakingRewards",
      "outputs": [
        {
          "internalType": "uint256",
          "name": "",
          "type": "uint256"
        }
      ],
      "stateMutability": "view",
      "type": "function"
    },
    {
      "inputs": [],
      "name": "totalSupply",
      "outputs": [
        {
          "internalType": "uint256",
          "name": "",
          "type": "uint256"
        }
      ],
      "stateMutability": "view",
      "type": "function"
    },
    {
      "inputs": [],
      "name": "totalTokenAllocated",
      "outputs": [
        {
          "internalType": "uint256",
          "name": "",
          "type": "uint256"
        }
      ],
      "stateMutability": "view",
      "type": "function"
    },
    {
      "inputs": [
        {
          "internalType": "address",
          "name": "recipient",
          "type": "address"
        },
        {
          "internalType": "uint256",
          "name": "amount",
          "type": "uint256"
        }
      ],
      "name": "transfer",
      "outputs": [
        {
          "internalType": "bool",
          "name": "",
          "type": "bool"
        }
      ],
      "stateMutability": "nonpayable",
      "type": "function"
    },
    {
      "inputs": [
        {
          "internalType": "address",
          "name": "sender",
          "type": "address"
        },
        {
          "internalType": "address",
          "name": "recipient",
          "type": "address"
        },
        {
          "internalType": "uint256",
          "name": "amount",
          "type": "uint256"
        }
      ],
      "name": "transferFrom",
      "outputs": [
        {
          "internalType": "bool",
          "name": "",
          "type": "bool"
        }
      ],
      "stateMutability": "nonpayable",
      "type": "function"
    },
    {
      "inputs": [
        {
          "internalType": "address",
          "name": "newOwner",
          "type": "address"
        }
      ],
      "name": "transferOwnership",
      "outputs": [],
      "stateMutability": "nonpayable",
      "type": "function"
    },
    {
      "inputs": [
        {
          "internalType": "uint256",
          "name": "_valuePerThousand",
          "type": "uint256"
        }
      ],
      "name": "updateRatioFeesToRewardHodlers",
      "outputs": [],
      "stateMutability": "nonpayable",
      "type": "function"
    },
    {
      "inputs": [
        {
          "internalType": "uint256",
          "name": "_fees",
          "type": "uint256"
        }
      ],
      "name": "updateRewardsAfterFeesPaymentByInterface",
      "outputs": [],
      "stateMutability": "nonpayable",
      "type": "function"
    },
    {
      "inputs": [
        {
          "internalType": "address",
          "name": "_user",
          "type": "address"
        }
      ],
      "name": "updateStakingAndGetHodlRewardsByInterfacePT",
      "outputs": [
        {
          "internalType": "uint256",
          "name": "",
          "type": "uint256"
        }
      ],
      "stateMutability": "nonpayable",
      "type": "function"
    },
    {
      "inputs": [
        {
          "internalType": "uint256",
          "name": "_valuePerThousand",
          "type": "uint256"
        }
      ],
      "name": "updateWithdrawalFeesForLT",
      "outputs": [],
      "stateMutability": "nonpayable",
      "type": "function"
    },
    {
      "inputs": [
        {
          "internalType": "address",
          "name": "",
          "type": "address"
        }
      ],
      "name": "userLiquiToken",
      "outputs": [
        {
          "internalType": "uint256",
          "name": "fullyChargedBalance",
          "type": "uint256"
        },
        {
          "internalType": "uint256",
          "name": "partiallyChargedBalance",
          "type": "uint256"
        },
        {
          "internalType": "uint256",
          "name": "dateOfPartiallyCharged",
          "type": "uint256"
        }
      ],
      "stateMutability": "view",
      "type": "function"
    },
    {
      "inputs": [],
      "name": "withdrawFeesPerThousandForLT",
      "outputs": [
        {
          "internalType": "uint256",
          "name": "",
          "type": "uint256"
        }
      ],
      "stateMutability": "view",
      "type": "function"
    },
    {
      "inputs": [
        {
          "internalType": "uint256",
          "name": "_value",
          "type": "uint256"
        }
      ],
      "name": "withdrawLT",
      "outputs": [],
      "stateMutability": "nonpayable",
      "type": "function"
    }
  ],
  "devdoc": {
    "kind": "dev",
    "methods": {
      "allowance(address,address)": {
        "details": "See {IERC20-allowance}."
      },
      "approve(address,uint256)": {
        "details": "See {IERC20-approve}. Requirements: - `spender` cannot be the zero address."
      },
      "balanceOf(address)": {
        "details": "See {IERC20-balanceOf}."
      },
      "decimals()": {
        "details": "Returns the number of decimals used to get its user representation. For example, if `decimals` equals `2`, a balance of `505` tokens should be displayed to a user as `5,05` (`505 / 10 ** 2`). Tokens usually opt for a value of 18, imitating the relationship between Ether and Wei. This is the value {ERC20} uses, unless {_setupDecimals} is called. NOTE: This information is only used for _display_ purposes: it in no way affects any of the arithmetic of the contract, including {IERC20-balanceOf} and {IERC20-transfer}."
      },
      "decreaseAllowance(address,uint256)": {
        "details": "Atomically decreases the allowance granted to `spender` by the caller. This is an alternative to {approve} that can be used as a mitigation for problems described in {IERC20-approve}. Emits an {Approval} event indicating the updated allowance. Requirements: - `spender` cannot be the zero address. - `spender` must have allowance for the caller of at least `subtractedValue`."
      },
      "increaseAllowance(address,uint256)": {
        "details": "Atomically increases the allowance granted to `spender` by the caller. This is an alternative to {approve} that can be used as a mitigation for problems described in {IERC20-approve}. Emits an {Approval} event indicating the updated allowance. Requirements: - `spender` cannot be the zero address."
      },
      "name()": {
        "details": "Returns the name of the token."
      },
      "owner()": {
        "details": "Returns the address of the current owner."
      },
      "renounceOwnership()": {
        "details": "Leaves the contract without owner. It will not be possible to call `onlyOwner` functions anymore. Can only be called by the current owner. NOTE: Renouncing ownership will leave the contract without an owner, thereby removing any functionality that is only available to the owner."
      },
      "symbol()": {
        "details": "Returns the symbol of the token, usually a shorter version of the name."
      },
      "totalSupply()": {
        "details": "See {IERC20-totalSupply}."
      },
      "transfer(address,uint256)": {
        "details": "See {IERC20-transfer}. Requirements: - `recipient` cannot be the zero address. - the caller must have a balance of at least `amount`."
      },
      "transferFrom(address,address,uint256)": {
        "details": "See {IERC20-transferFrom}. Emits an {Approval} event indicating the updated allowance. This is not required by the EIP. See the note at the beginning of {ERC20}. Requirements: - `sender` and `recipient` cannot be the zero address. - `sender` must have a balance of at least `amount`. - the caller must have allowance for ``sender``'s tokens of at least `amount`."
      },
      "transferOwnership(address)": {
        "details": "Transfers ownership of the contract to a new account (`newOwner`). Can only be called by the current owner."
      }
    },
    "version": 1
  },
  "evm": {
    "assembly": "    /* \"LiquidityToken.sol\":449:14996  contract LiquidityToken is ERC20, Ownable {... */\n  mstore(0x40, 0x0180)\n    /* \"LiquidityToken.sol\":849:853  1000 */\n  0x03e8\n    /* \"LiquidityToken.sol\":799:853  uint public ratioFeesToRewardHodlersPerThousand = 1000 */\n  0x0c\n  sstore\n    /* \"LiquidityToken.sol\":2315:3659  constructor(string memory _name, string memory _symbol, uint _fractionInitialUnlockPerThousand, uint _durationCliff, ... */\n  callvalue\n  dup1\n  iszero\n  tag_1\n  jumpi\n  0x00\n  dup1\n  revert\ntag_1:\n  pop\n  mload(0x40)\n  sub(codesize, bytecodeSize)\n  dup1\n  bytecodeSize\n  dup4\n  codecopy\n  dup2\n  dup2\n  add\n  0x40\n  mstore\n  0x0140\n  dup2\n  lt\n  iszero\n  tag_2\n  jumpi\n  0x00\n  dup1\n  revert\ntag_2:\n  dup2\n  add\n  swap1\n  dup1\n  dup1\n  mload\n  mload(0x40)\n  swap4\n  swap3\n  swap2\n  swap1\n  dup5\n  0x0100000000\n  dup3\n  gt\n  iszero\n  tag_3\n  jumpi\n  0x00\n  dup1\n  revert\ntag_3:\n  dup4\n  dup3\n  add\n  swap2\n  pop\n  0x20\n  dup3\n  add\n  dup6\n  dup2\n  gt\n  iszero\n  tag_4\n  jumpi\n  0x00\n  dup1\n  revert\ntag_4:\n  dup3\n  mload\n  dup7\n  0x01\n  dup3\n  mul\n  dup4\n  add\n  gt\n  0x0100000000\n  dup3\n  gt\n  or\n  iszero\n  tag_5\n  jumpi\n  0x00\n  dup1\n  revert\ntag_5:\n  dup1\n  dup4\n  mstore\n  0x20\n  dup4\n  add\n  swap3\n  pop\n  pop\n  pop\n  swap1\n  dup1\n  mload\n  swap1\n  0x20\n  add\n  swap1\n  dup1\n  dup4\n  dup4\n  0x00\ntag_6:\n  dup4\n  dup2\n  lt\n  iszero\n  tag_8\n  jumpi\n  dup1\n  dup3\n  add\n  mload\n  dup2\n  dup5\n  add\n  mstore\n  0x20\n  dup2\n  add\n  swap1\n  pop\n  jump(tag_6)\ntag_8:\n  pop\n  pop\n  pop\n  pop\n  swap1\n  pop\n  swap1\n  dup2\n  add\n  swap1\n  0x1f\n  and\n  dup1\n  iszero\n  tag_9\n  jumpi\n  dup1\n  dup3\n  sub\n  dup1\n  mload\n  0x01\n  dup4\n  0x20\n  sub\n  0x0100\n  exp\n  sub\n  not\n  and\n  dup2\n  mstore\n  0x20\n  add\n  swap2\n  pop\ntag_9:\n  pop\n  0x40\n  mstore\n  0x20\n  add\n  dup1\n  mload\n  mload(0x40)\n  swap4\n  swap3\n  swap2\n  swap1\n  dup5\n  0x0100000000\n  dup3\n  gt\n  iszero\n  tag_10\n  jumpi\n  0x00\n  dup1\n  revert\ntag_10:\n  dup4\n  dup3\n  add\n  swap2\n  pop\n  0x20\n  dup3\n  add\n  dup6\n  dup2\n  gt\n  iszero\n  tag_11\n  jumpi\n  0x00\n  dup1\n  revert\ntag_11:\n  dup3\n  mload\n  dup7\n  0x01\n  dup3\n  mul\n  dup4\n  add\n  gt\n  0x0100000000\n  dup3\n  gt\n  or\n  iszero\n  tag_12\n  jumpi\n  0x00\n  dup1\n  revert\ntag_12:\n  dup1\n  dup4\n  mstore\n  0x20\n  dup4\n  add\n  swap3\n  pop\n  pop\n  pop\n  swap1\n  dup1\n  mload\n  swap1\n  0x20\n  add\n  swap1\n  dup1\n  dup4\n  dup4\n  0x00\ntag_13:\n  dup4\n  dup2\n  lt\n  iszero\n  tag_15\n  jumpi\n  dup1\n  dup3\n  add\n  mload\n  dup2\n  dup5\n  add\n  mstore\n  0x20\n  dup2\n  add\n  swap1\n  pop\n  jump(tag_13)\ntag_15:\n  pop\n  pop\n  pop\n  pop\n  swap1\n  pop\n  swap1\n  dup2\n  add\n  swap1\n  0x1f\n  and\n  dup1\n  iszero\n  tag_16\n  jumpi\n  dup1\n  dup3\n  sub\n  dup1\n  mload\n  0x01\n  dup4\n  0x20\n  sub\n  0x0100\n  exp\n  sub\n  not\n  and\n  dup2\n  mstore\n  0x20\n  add\n  swap2\n  pop\ntag_16:\n  pop\n  0x40\n  mstore\n  0x20\n  add\n  dup1\n  mload\n  swap1\n  0x20\n  add\n  swap1\n  swap3\n  swap2\n  swap1\n  dup1\n  mload\n  swap1\n  0x20\n  add\n  swap1\n  swap3\n  swap2\n  swap1\n  dup1\n  mload\n  swap1\n  0x20\n  add\n  swap1\n  swap3\n  swap2\n  swap1\n  dup1\n  mload\n  swap1\n  0x20\n  add\n  swap1\n  swap3\n  swap2\n  swap1\n  dup1\n  mload\n  swap1\n  0x20\n  add\n  swap1\n  swap3\n  swap2\n  swap1\n  dup1\n  mload\n  swap1\n  0x20\n  add\n  swap1\n  swap3\n  swap2\n  swap1\n  dup1\n  mload\n  swap1\n  0x20\n  add\n  swap1\n  swap3\n  swap2\n  swap1\n  dup1\n  mload\n  swap1\n  0x20\n  add\n  swap1\n  swap3\n  swap2\n  swap1\n  pop\n  pop\n  pop\n    /* \"LiquidityToken.sol\":2634:2639  _name */\n  dup10\n    /* \"LiquidityToken.sol\":2641:2648  _symbol */\n  dup10\n    /* \"https://github.com/OpenZeppelin/openzeppelin-contracts/blob/v3.4.2-solc-0.7/contracts/token/ERC20/ERC20.sol\":2025:2030   */\n  dup2\n    /* \"https://github.com/OpenZeppelin/openzeppelin-contracts/blob/v3.4.2-solc-0.7/contracts/token/ERC20/ERC20.sol\":2017:2022   */\n  0x03\n    /* \"https://github.com/OpenZeppelin/openzeppelin-contracts/blob/v3.4.2-solc-0.7/contracts/token/ERC20/ERC20.sol\":2017:2030   */\n  swap1\n  dup1\n  mload\n  swap1\n  0x20\n  add\n  swap1\n  tag_21\n  swap3\n  swap2\n  swap1\n  tag_22\n  jump\t// in\ntag_21:\n  pop\n    /* \"https://github.com/OpenZeppelin/openzeppelin-contracts/blob/v3.4.2-solc-0.7/contracts/token/ERC20/ERC20.sol\":2050:2057   */\n  dup1\n    /* \"https://github.com/OpenZeppelin/openzeppelin-contracts/blob/v3.4.2-solc-0.7/contracts/token/ERC20/ERC20.sol\":2040:2047   */\n  0x04\n    /* \"https://github.com/OpenZeppelin/openzeppelin-contracts/blob/v3.4.2-solc-0.7/contracts/token/ERC20/ERC20.sol\":2040:2057   */\n  swap1\n  dup1\n  mload\n  swap1\n  0x20\n  add\n  swap1\n  tag_23\n  swap3\n  swap2\n  swap1\n  tag_22\n  jump\t// in\ntag_23:\n  pop\n    /* \"https://github.com/OpenZeppelin/openzeppelin-contracts/blob/v3.4.2-solc-0.7/contracts/token/ERC20/ERC20.sol\":2079:2081   */\n  0x12\n    /* \"https://github.com/OpenZeppelin/openzeppelin-contracts/blob/v3.4.2-solc-0.7/contracts/token/ERC20/ERC20.sol\":2067:2076   */\n  0x05\n  0x00\n    /* \"https://github.com/OpenZeppelin/openzeppelin-contracts/blob/v3.4.2-solc-0.7/contracts/token/ERC20/ERC20.sol\":2067:2081   */\n  0x0100\n  exp\n  dup2\n  sload\n  dup2\n  0xff\n  mul\n  not\n  and\n  swap1\n  dup4\n  0xff\n  and\n  mul\n  or\n  swap1\n  sstore\n  pop\n    /* \"https://github.com/OpenZeppelin/openzeppelin-contracts/blob/v3.4.2-solc-0.7/contracts/token/ERC20/ERC20.sol\":1950:2088   */\n  pop\n  pop\n    /* \"https://github.com/OpenZeppelin/openzeppelin-contracts/blob/v3.4.2-solc-0.7/contracts/access/Ownable.sol\":867:884   */\n  0x00\n    /* \"https://github.com/OpenZeppelin/openzeppelin-contracts/blob/v3.4.2-solc-0.7/contracts/access/Ownable.sol\":887:899   */\n  tag_25\n    /* \"https://github.com/OpenZeppelin/openzeppelin-contracts/blob/v3.4.2-solc-0.7/contracts/access/Ownable.sol\":887:897   */\n  shl(0x20, tag_26)\n    /* \"https://github.com/OpenZeppelin/openzeppelin-contracts/blob/v3.4.2-solc-0.7/contracts/access/Ownable.sol\":887:899   */\n  0x20\n  shr\n  jump\t// in\ntag_25:\n    /* \"https://github.com/OpenZeppelin/openzeppelin-contracts/blob/v3.4.2-solc-0.7/contracts/access/Ownable.sol\":867:899   */\n  swap1\n  pop\n    /* \"https://github.com/OpenZeppelin/openzeppelin-contracts/blob/v3.4.2-solc-0.7/contracts/access/Ownable.sol\":918:927   */\n  dup1\n    /* \"https://github.com/OpenZeppelin/openzeppelin-contracts/blob/v3.4.2-solc-0.7/contracts/access/Ownable.sol\":909:915   */\n  0x05\n  0x01\n    /* \"https://github.com/OpenZeppelin/openzeppelin-contracts/blob/v3.4.2-solc-0.7/contracts/access/Ownable.sol\":909:927   */\n  0x0100\n  exp\n  dup2\n  sload\n  dup2\n  0xffffffffffffffffffffffffffffffffffffffff\n  mul\n  not\n  and\n  swap1\n  dup4\n  0xffffffffffffffffffffffffffffffffffffffff\n  and\n  mul\n  or\n  swap1\n  sstore\n  pop\n    /* \"https://github.com/OpenZeppelin/openzeppelin-contracts/blob/v3.4.2-solc-0.7/contracts/access/Ownable.sol\":975:984   */\n  dup1\n    /* \"https://github.com/OpenZeppelin/openzeppelin-contracts/blob/v3.4.2-solc-0.7/contracts/access/Ownable.sol\":942:985   */\n  0xffffffffffffffffffffffffffffffffffffffff\n  and\n    /* \"https://github.com/OpenZeppelin/openzeppelin-contracts/blob/v3.4.2-solc-0.7/contracts/access/Ownable.sol\":971:972   */\n  0x00\n    /* \"https://github.com/OpenZeppelin/openzeppelin-contracts/blob/v3.4.2-solc-0.7/contracts/access/Ownable.sol\":942:985   */\n  0xffffffffffffffffffffffffffffffffffffffff\n  and\n  0x8be0079c531659141344cd1fd0a4f28419497f9722a3daafe3b4186f6b6457e0\n  mload(0x40)\n  mload(0x40)\n  dup1\n  swap2\n  sub\n  swap1\n  log3\n    /* \"https://github.com/OpenZeppelin/openzeppelin-contracts/blob/v3.4.2-solc-0.7/contracts/access/Ownable.sol\":842:992   */\n  pop\n    /* \"LiquidityToken.sol\":2691:2692  0 */\n  0x00\n    /* \"LiquidityToken.sol\":2665:2687  _durationLinearVesting */\n  dup7\n    /* \"LiquidityToken.sol\":2665:2692  _durationLinearVesting == 0 */\n  eq\n    /* \"LiquidityToken.sol\":2661:2957  if (_durationLinearVesting == 0)... */\n  iszero\n  tag_28\n  jumpi\n    /* \"LiquidityToken.sol\":614:618  1000 */\n  0x03e8\n    /* \"LiquidityToken.sol\":2715:2748  _fractionInitialUnlockPerThousand */\n  dup9\n    /* \"LiquidityToken.sol\":2715:2764  _fractionInitialUnlockPerThousand == multiplier1K */\n  eq\n    /* \"LiquidityToken.sol\":2700:2827  require(... */\n  tag_29\n  jumpi\n  mload(0x40)\n  0x08c379a000000000000000000000000000000000000000000000000000000000\n  dup2\n  mstore\n  0x04\n  add\n  dup1\n  dup1\n  0x20\n  add\n  dup3\n  dup2\n  sub\n  dup3\n  mstore\n  0x34\n  dup2\n  mstore\n  0x20\n  add\n  dup1\n  data_7e81b32fd927359169ccb1edb0414674e72762a5e9e15a268cac5f3f749362cb\n  0x34\n  swap2\n  codecopy\n  0x40\n  add\n  swap2\n  pop\n  pop\n  mload(0x40)\n  dup1\n  swap2\n  sub\n  swap1\n  revert\ntag_29:\n    /* \"LiquidityToken.sol\":2661:2957  if (_durationLinearVesting == 0)... */\n  jump(tag_30)\ntag_28:\n    /* \"LiquidityToken.sol\":614:618  1000 */\n  0x03e8\n    /* \"LiquidityToken.sol\":2860:2893  _fractionInitialUnlockPerThousand */\n  dup9\n    /* \"LiquidityToken.sol\":2860:2908  _fractionInitialUnlockPerThousand < multiplier1K */\n  lt\n    /* \"LiquidityToken.sol\":2845:2957  require(... */\n  tag_31\n  jumpi\n  mload(0x40)\n  0x08c379a000000000000000000000000000000000000000000000000000000000\n  dup2\n  mstore\n  0x04\n  add\n  dup1\n  dup1\n  0x20\n  add\n  dup3\n  dup2\n  sub\n  dup3\n  mstore\n  0x26\n  dup2\n  mstore\n  0x20\n  add\n  dup1\n  data_7356afc65ac6923f056e171fb9d08bfe0fb95d5cb1f933201fa19a5844645158\n  0x26\n  swap2\n  codecopy\n  0x40\n  add\n  swap2\n  pop\n  pop\n  mload(0x40)\n  dup1\n  swap2\n  sub\n  swap1\n  revert\ntag_31:\n    /* \"LiquidityToken.sol\":2661:2957  if (_durationLinearVesting == 0)... */\ntag_30:\n    /* \"LiquidityToken.sol\":614:618  1000 */\n  0x03e8\n    /* \"LiquidityToken.sol\":2983:3015  _maxWithdrawFeesPerThousandForLT */\n  dup6\n    /* \"LiquidityToken.sol\":2983:3030  _maxWithdrawFeesPerThousandForLT < multiplier1K */\n  lt\n    /* \"LiquidityToken.sol\":2968:3087  require(... */\n  tag_32\n  jumpi\n  mload(0x40)\n  0x08c379a000000000000000000000000000000000000000000000000000000000\n  dup2\n  mstore\n  0x04\n  add\n  dup1\n  dup1\n  0x20\n  add\n  dup3\n  dup2\n  sub\n  dup3\n  mstore\n  0x2e\n  dup2\n  mstore\n  0x20\n  add\n  dup1\n  data_cca22e2ee1b442009fb59574a1023c1bac949e370b49ec9f67b31b9c2628f401\n  0x2e\n  swap2\n  codecopy\n  0x40\n  add\n  swap2\n  pop\n  pop\n  mload(0x40)\n  dup1\n  swap2\n  sub\n  swap1\n  revert\ntag_32:\n    /* \"LiquidityToken.sol\":614:618  1000 */\n  0x03e8\n    /* \"LiquidityToken.sol\":3109:3138  _maxClaimFeesPerThousandForPT */\n  dup5\n    /* \"LiquidityToken.sol\":3109:3153  _maxClaimFeesPerThousandForPT < multiplier1K */\n  lt\n    /* \"LiquidityToken.sol\":3094:3205  require(... */\n  tag_33\n  jumpi\n  mload(0x40)\n  0x08c379a000000000000000000000000000000000000000000000000000000000\n  dup2\n  mstore\n  0x04\n  add\n  dup1\n  dup1\n  0x20\n  add\n  dup3\n  dup2\n  sub\n  dup3\n  mstore\n  0x29\n  dup2\n  mstore\n  0x20\n  add\n  dup1\n  data_6fed3b276f0e592ceeab63ae6aba848f584543b6a54de015b93869f771efc447\n  0x29\n  swap2\n  codecopy\n  0x40\n  add\n  swap2\n  pop\n  pop\n  mload(0x40)\n  dup1\n  swap2\n  sub\n  swap1\n  revert\ntag_33:\n    /* \"LiquidityToken.sol\":3228:3242  _durationCliff */\n  dup7\n    /* \"LiquidityToken.sol\":3212:3242  durationCliff = _durationCliff */\n  0xa0\n  dup2\n  dup2\n  mstore\n  pop\n  pop\n    /* \"LiquidityToken.sol\":3272:3294  _durationLinearVesting */\n  dup6\n    /* \"LiquidityToken.sol\":3248:3294  durationLinearVesting = _durationLinearVesting */\n  0xc0\n  dup2\n  dup2\n  mstore\n  pop\n  pop\n    /* \"LiquidityToken.sol\":3335:3368  _fractionInitialUnlockPerThousand */\n  dup8\n    /* \"LiquidityToken.sol\":3300:3368  fractionInitialUnlockPerThousand = _fractionInitialUnlockPerThousand */\n  0x80\n  dup2\n  dup2\n  mstore\n  pop\n  pop\n    /* \"LiquidityToken.sol\":3408:3440  _maxWithdrawFeesPerThousandForLT */\n  dup5\n    /* \"LiquidityToken.sol\":3374:3440  maxWithdrawFeesPerThousandForLT = _maxWithdrawFeesPerThousandForLT */\n  0x0100\n  dup2\n  dup2\n  mstore\n  pop\n  pop\n    /* \"LiquidityToken.sol\":3477:3506  _maxClaimFeesPerThousandForPT */\n  dup4\n    /* \"LiquidityToken.sol\":3446:3506  maxClaimFeesPerThousandForPT = _maxClaimFeesPerThousandForPT */\n  0x0120\n  dup2\n  dup2\n  mstore\n  pop\n  pop\n    /* \"LiquidityToken.sol\":3528:3542  _maxStakingAPR */\n  dup3\n    /* \"LiquidityToken.sol\":3512:3542  maxStakingAPR = _maxStakingAPR */\n  0x0140\n  dup2\n  dup2\n  mstore\n  pop\n  pop\n    /* \"LiquidityToken.sol\":3572:3594  _maxStakingTokenAmount */\n  dup2\n    /* \"LiquidityToken.sol\":3548:3594  maxStakingTokenAmount = _maxStakingTokenAmount */\n  0x0160\n  dup2\n  dup2\n  mstore\n  pop\n  pop\n    /* \"LiquidityToken.sol\":3628:3654  _maxInitialTokenAllocation */\n  dup1\n    /* \"LiquidityToken.sol\":3600:3654  maxInitialTokenAllocation = _maxInitialTokenAllocation */\n  0xe0\n  dup2\n  dup2\n  mstore\n  pop\n  pop\n    /* \"LiquidityToken.sol\":2315:3659  constructor(string memory _name, string memory _symbol, uint _fractionInitialUnlockPerThousand, uint _durationCliff, ... */\n  pop\n  pop\n  pop\n  pop\n  pop\n  pop\n  pop\n  pop\n  pop\n  pop\n    /* \"LiquidityToken.sol\":449:14996  contract LiquidityToken is ERC20, Ownable {... */\n  jump(tag_34)\n    /* \"https://github.com/OpenZeppelin/openzeppelin-contracts/blob/v3.4.2-solc-0.7/contracts/utils/Context.sol\":598:702   */\ntag_26:\n    /* \"https://github.com/OpenZeppelin/openzeppelin-contracts/blob/v3.4.2-solc-0.7/contracts/utils/Context.sol\":651:666   */\n  0x00\n    /* \"https://github.com/OpenZeppelin/openzeppelin-contracts/blob/v3.4.2-solc-0.7/contracts/utils/Context.sol\":685:695   */\n  caller\n    /* \"https://github.com/OpenZeppelin/openzeppelin-contracts/blob/v3.4.2-solc-0.7/contracts/utils/Context.sol\":678:695   */\n  swap1\n  pop\n    /* \"https://github.com/OpenZeppelin/openzeppelin-contracts/blob/v3.4.2-solc-0.7/contracts/utils/Context.sol\":598:702   */\n  swap1\n  jump\t// out\n    /* \"LiquidityToken.sol\":449:14996  contract LiquidityToken is ERC20, Ownable {... */\ntag_22:\n  dup3\n  dup1\n  sload\n  0x01\n  dup2\n  0x01\n  and\n  iszero\n  0x0100\n  mul\n  sub\n  and\n  0x02\n  swap1\n  div\n  swap1\n  0x00\n  mstore\n  keccak256(0x00, 0x20)\n  swap1\n  0x1f\n  add\n  0x20\n  swap1\n  div\n  dup2\n  add\n  swap3\n  dup3\n  tag_37\n  jumpi\n  0x00\n  dup6\n  sstore\n  jump(tag_36)\ntag_37:\n  dup3\n  0x1f\n  lt\n  tag_38\n  jumpi\n  dup1\n  mload\n  not(0xff)\n  and\n  dup4\n  dup1\n  add\n  or\n  dup6\n  sstore\n  jump(tag_36)\ntag_38:\n  dup3\n  dup1\n  add\n  0x01\n  add\n  dup6\n  sstore\n  dup3\n  iszero\n  tag_36\n  jumpi\n  swap2\n  dup3\n  add\ntag_39:\n  dup3\n  dup2\n  gt\n  iszero\n  tag_40\n  jumpi\n  dup3\n  mload\n  dup3\n  sstore\n  swap2\n  0x20\n  add\n  swap2\n  swap1\n  0x01\n  add\n  swap1\n  jump(tag_39)\ntag_40:\ntag_36:\n  pop\n  swap1\n  pop\n  tag_41\n  swap2\n  swap1\n  tag_42\n  jump\t// in\ntag_41:\n  pop\n  swap1\n  jump\t// out\ntag_42:\ntag_43:\n  dup1\n  dup3\n  gt\n  iszero\n  tag_44\n  jumpi\n  0x00\n  dup2\n  0x00\n  swap1\n  sstore\n  pop\n  0x01\n  add\n  jump(tag_43)\ntag_44:\n  pop\n  swap1\n  jump\t// out\ntag_34:\n  mload(0x80)\n  mload(0xa0)\n  mload(0xc0)\n  mload(0xe0)\n  mload(0x0100)\n  mload(0x0120)\n  mload(0x0140)\n  mload(0x0160)\n  codecopy(0x00, dataOffset(sub_0), dataSize(sub_0))\n  assignImmutable(\"0x1599d1177539405eb843037ad658ddfb7eec58cf8cd2e6d0aa2a65e4fd67d7f9\")\n  assignImmutable(\"0x5535a79acdae37c951fc0073cedf45a2f013afa77feb7c7f34ba275584224ebf\")\n  assignImmutable(\"0x3d550a598553b485ade63df00865310ea36cbff0dc487035a9b4be52b149fadb\")\n  assignImmutable(\"0x1b4842a19c661b7382881ce30aa723dedf4fd830b4353e3140588333c90c8c04\")\n  assignImmutable(\"0xdf1d7ff660157bc85a48df0fb4b87e57c45ebc874d9780503ddf301d1cb1f93b\")\n  assignImmutable(\"0xa719c2344dd06f15f7bcc0801b283ff643eff37bf5b08b13b56b908c19d10371\")\n  assignImmutable(\"0x56439164e7a29c9275561528ce4239bd6e9b8004e138b979e363e757abc90f0a\")\n  assignImmutable(\"0xab84dbc5b0ca334e1118eb2ddabcfcb98dc8468d6c5849e7dd459cf23dceebe3\")\n  return(0x00, dataSize(sub_0))\nstop\ndata_6fed3b276f0e592ceeab63ae6aba848f584543b6a54de015b93869f771efc447 4d6178696d756d20636c61696d20666565206d757374206265206c6f776572207468616e2031303025\ndata_7356afc65ac6923f056e171fb9d08bfe0fb95d5cb1f933201fa19a5844645158 496e697469616c20756e6c6f636b206d757374206265206c6f776572207468616e2031303025\ndata_7e81b32fd927359169ccb1edb0414674e72762a5e9e15a268cac5f3f749362cb 4966206e6f2076657374696e672c20616c6c20746f6b656e73206d7573742062652072656c6561736564206174206c61756e6368\ndata_cca22e2ee1b442009fb59574a1023c1bac949e370b49ec9f67b31b9c2628f401 4d6178696d756d207769746864726177616c20666565206d757374206265206c6f776572207468616e2031303025\n\nsub_0: assembly {\n        /* \"LiquidityToken.sol\":449:14996  contract LiquidityToken is ERC20, Ownable {... */\n      mstore(0x40, 0x80)\n      callvalue\n      dup1\n      iszero\n      tag_1\n      jumpi\n      0x00\n      dup1\n      revert\n    tag_1:\n      pop\n      jumpi(tag_2, lt(calldatasize, 0x04))\n      shr(0xe0, calldataload(0x00))\n      dup1\n      0x82af7d39\n      gt\n      tag_64\n      jumpi\n      dup1\n      0xa74536e0\n      gt\n      tag_65\n      jumpi\n      dup1\n      0xdd62ed3e\n      gt\n      tag_66\n      jumpi\n      dup1\n      0xefb5c2f3\n      gt\n      tag_67\n      jumpi\n      dup1\n      0xefb5c2f3\n      eq\n      tag_60\n      jumpi\n      dup1\n      0xf2fde38b\n      eq\n      tag_61\n      jumpi\n      dup1\n      0xf331a867\n      eq\n      tag_62\n      jumpi\n      dup1\n      0xfb3da545\n      eq\n      tag_63\n      jumpi\n      jump(tag_2)\n    tag_67:\n      dup1\n      0xdd62ed3e\n      eq\n      tag_56\n      jumpi\n      dup1\n      0xdf910817\n      eq\n      tag_57\n      jumpi\n      dup1\n      0xe0d0c567\n      eq\n      tag_58\n      jumpi\n      dup1\n      0xe54dd98a\n      eq\n      tag_59\n      jumpi\n      jump(tag_2)\n    tag_66:\n      dup1\n      0xc96877a2\n      gt\n      tag_68\n      jumpi\n      dup1\n      0xc96877a2\n      eq\n      tag_52\n      jumpi\n      dup1\n      0xd49d18d6\n      eq\n      tag_53\n      jumpi\n      dup1\n      0xda3a5936\n      eq\n      tag_54\n      jumpi\n      dup1\n      0xdccdc995\n      eq\n      tag_55\n      jumpi\n      jump(tag_2)\n    tag_68:\n      dup1\n      0xa74536e0\n      eq\n      tag_48\n      jumpi\n      dup1\n      0xa9059cbb\n      eq\n      tag_49\n      jumpi\n      dup1\n      0xabfdce2c\n      eq\n      tag_50\n      jumpi\n      dup1\n      0xbf777f82\n      eq\n      tag_51\n      jumpi\n      jump(tag_2)\n    tag_65:\n      dup1\n      0x93ef357a\n      gt\n      tag_69\n      jumpi\n      dup1\n      0x9c3bcbb1\n      gt\n      tag_70\n      jumpi\n      dup1\n      0x9c3bcbb1\n      eq\n      tag_44\n      jumpi\n      dup1\n      0x9f65ffb0\n      eq\n      tag_45\n      jumpi\n      dup1\n      0xa1b0c412\n      eq\n      tag_46\n      jumpi\n      dup1\n      0xa457c2d7\n      eq\n      tag_47\n      jumpi\n      jump(tag_2)\n    tag_70:\n      dup1\n      0x93ef357a\n      eq\n      tag_40\n      jumpi\n      dup1\n      0x95230a80\n      eq\n      tag_41\n      jumpi\n      dup1\n      0x95d89b41\n      eq\n      tag_42\n      jumpi\n      dup1\n      0x9863d644\n      eq\n      tag_43\n      jumpi\n      jump(tag_2)\n    tag_69:\n      dup1\n      0x8a1e4393\n      gt\n      tag_71\n      jumpi\n      dup1\n      0x8a1e4393\n      eq\n      tag_36\n      jumpi\n      dup1\n      0x8aa03a3c\n      eq\n      tag_37\n      jumpi\n      dup1\n      0x8da5cb5b\n      eq\n      tag_38\n      jumpi\n      dup1\n      0x908a6bf0\n      eq\n      tag_39\n      jumpi\n      jump(tag_2)\n    tag_71:\n      dup1\n      0x82af7d39\n      eq\n      tag_33\n      jumpi\n      dup1\n      0x82fb82f5\n      eq\n      tag_34\n      jumpi\n      dup1\n      0x86982e61\n      eq\n      tag_35\n      jumpi\n      jump(tag_2)\n    tag_64:\n      dup1\n      0x5798b1ff\n      gt\n      tag_72\n      jumpi\n      dup1\n      0x72b990b5\n      gt\n      tag_73\n      jumpi\n      dup1\n      0x78e104da\n      gt\n      tag_74\n      jumpi\n      dup1\n      0x78e104da\n      eq\n      tag_29\n      jumpi\n      dup1\n      0x7ccf0226\n      eq\n      tag_30\n      jumpi\n      dup1\n      0x7e267f39\n      eq\n      tag_31\n      jumpi\n      dup1\n      0x8005a7de\n      eq\n      tag_32\n      jumpi\n      jump(tag_2)\n    tag_74:\n      dup1\n      0x72b990b5\n      eq\n      tag_25\n      jumpi\n      dup1\n      0x740c3495\n      eq\n      tag_26\n      jumpi\n      dup1\n      0x74ddcd1d\n      eq\n      tag_27\n      jumpi\n      dup1\n      0x7561ea9a\n      eq\n      tag_28\n      jumpi\n      jump(tag_2)\n    tag_73:\n      dup1\n      0x6c1f89ed\n      gt\n      tag_75\n      jumpi\n      dup1\n      0x6c1f89ed\n      eq\n      tag_21\n      jumpi\n      dup1\n      0x6d69847d\n      eq\n      tag_22\n      jumpi\n      dup1\n      0x70a08231\n      eq\n      tag_23\n      jumpi\n      dup1\n      0x715018a6\n      eq\n      tag_24\n      jumpi\n      jump(tag_2)\n    tag_75:\n      dup1\n      0x5798b1ff\n      eq\n      tag_18\n      jumpi\n      dup1\n      0x63cf3cff\n      eq\n      tag_19\n      jumpi\n      dup1\n      0x6a4bd5a6\n      eq\n      tag_20\n      jumpi\n      jump(tag_2)\n    tag_72:\n      dup1\n      0x2945ac68\n      gt\n      tag_76\n      jumpi\n      dup1\n      0x39509351\n      gt\n      tag_77\n      jumpi\n      dup1\n      0x39509351\n      eq\n      tag_14\n      jumpi\n      dup1\n      0x3e332f16\n      eq\n      tag_15\n      jumpi\n      dup1\n      0x3f2b437d\n      eq\n      tag_16\n      jumpi\n      dup1\n      0x483f3ac7\n      eq\n      tag_17\n      jumpi\n      jump(tag_2)\n    tag_77:\n      dup1\n      0x2945ac68\n      eq\n      tag_10\n      jumpi\n      dup1\n      0x30400a86\n      eq\n      tag_11\n      jumpi\n      dup1\n      0x305e2daf\n      eq\n      tag_12\n      jumpi\n      dup1\n      0x313ce567\n      eq\n      tag_13\n      jumpi\n      jump(tag_2)\n    tag_76:\n      dup1\n      0x1387520a\n      gt\n      tag_78\n      jumpi\n      dup1\n      0x1387520a\n      eq\n      tag_6\n      jumpi\n      dup1\n      0x18160ddd\n      eq\n      tag_7\n      jumpi\n      dup1\n      0x1f93abd4\n      eq\n      tag_8\n      jumpi\n      dup1\n      0x23b872dd\n      eq\n      tag_9\n      jumpi\n      jump(tag_2)\n    tag_78:\n      dup1\n      0x03ff8e88\n      eq\n      tag_3\n      jumpi\n      dup1\n      0x06fdde03\n      eq\n      tag_4\n      jumpi\n      dup1\n      0x095ea7b3\n      eq\n      tag_5\n      jumpi\n    tag_2:\n      0x00\n      dup1\n      revert\n        /* \"LiquidityToken.sol\":726:760  uint public campaignStakingRewards */\n    tag_3:\n      tag_79\n      tag_80\n      jump\t// in\n    tag_79:\n      mload(0x40)\n      dup1\n      dup3\n      dup2\n      mstore\n      0x20\n      add\n      swap2\n      pop\n      pop\n      mload(0x40)\n      dup1\n      swap2\n      sub\n      swap1\n      return\n        /* \"https://github.com/OpenZeppelin/openzeppelin-contracts/blob/v3.4.2-solc-0.7/contracts/token/ERC20/ERC20.sol\":2153:2242   */\n    tag_4:\n      tag_81\n      tag_82\n      jump\t// in\n    tag_81:\n      mload(0x40)\n      dup1\n      dup1\n      0x20\n      add\n      dup3\n      dup2\n      sub\n      dup3\n      mstore\n      dup4\n      dup2\n      dup2\n      mload\n      dup2\n      mstore\n      0x20\n      add\n      swap2\n      pop\n      dup1\n      mload\n      swap1\n      0x20\n      add\n      swap1\n      dup1\n      dup4\n      dup4\n      0x00\n    tag_83:\n      dup4\n      dup2\n      lt\n      iszero\n      tag_85\n      jumpi\n      dup1\n      dup3\n      add\n      mload\n      dup2\n      dup5\n      add\n      mstore\n      0x20\n      dup2\n      add\n      swap1\n      pop\n      jump(tag_83)\n    tag_85:\n      pop\n      pop\n      pop\n      pop\n      swap1\n      pop\n      swap1\n      dup2\n      add\n      swap1\n      0x1f\n      and\n      dup1\n      iszero\n      tag_86\n      jumpi\n      dup1\n      dup3\n      sub\n      dup1\n      mload\n      0x01\n      dup4\n      0x20\n      sub\n      0x0100\n      exp\n      sub\n      not\n      and\n      dup2\n      mstore\n      0x20\n      add\n      swap2\n      pop\n    tag_86:\n      pop\n      swap3\n      pop\n      pop\n      pop\n      mload(0x40)\n      dup1\n      swap2\n      sub\n      swap1\n      return\n        /* \"https://github.com/OpenZeppelin/openzeppelin-contracts/blob/v3.4.2-solc-0.7/contracts/token/ERC20/ERC20.sol\":4229:4395   */\n    tag_5:\n      tag_87\n      0x04\n      dup1\n      calldatasize\n      sub\n      0x40\n      dup2\n      lt\n      iszero\n      tag_88\n      jumpi\n      0x00\n      dup1\n      revert\n    tag_88:\n      dup2\n      add\n      swap1\n      dup1\n      dup1\n      calldataload\n      0xffffffffffffffffffffffffffffffffffffffff\n      and\n      swap1\n      0x20\n      add\n      swap1\n      swap3\n      swap2\n      swap1\n      dup1\n      calldataload\n      swap1\n      0x20\n      add\n      swap1\n      swap3\n      swap2\n      swap1\n      pop\n      pop\n      pop\n      tag_89\n      jump\t// in\n    tag_87:\n      mload(0x40)\n      dup1\n      dup3\n      iszero\n      iszero\n      dup2\n      mstore\n      0x20\n      add\n      swap2\n      pop\n      pop\n      mload(0x40)\n      dup1\n      swap2\n      sub\n      swap1\n      return\n        /* \"LiquidityToken.sol\":1435:1470  uint public immutable maxStakingAPR */\n    tag_6:\n      tag_90\n      tag_91\n      jump\t// in\n    tag_90:\n      mload(0x40)\n      dup1\n      dup3\n      dup2\n      mstore\n      0x20\n      add\n      swap2\n      pop\n      pop\n      mload(0x40)\n      dup1\n      swap2\n      sub\n      swap1\n      return\n        /* \"https://github.com/OpenZeppelin/openzeppelin-contracts/blob/v3.4.2-solc-0.7/contracts/token/ERC20/ERC20.sol\":3220:3326   */\n    tag_7:\n      tag_92\n      tag_93\n      jump\t// in\n    tag_92:\n      mload(0x40)\n      dup1\n      dup3\n      dup2\n      mstore\n      0x20\n      add\n      swap2\n      pop\n      pop\n      mload(0x40)\n      dup1\n      swap2\n      sub\n      swap1\n      return\n        /* \"LiquidityToken.sol\":3789:3958  function ensureUserFunctionsAreNotDisabled() public view {... */\n    tag_8:\n      tag_94\n      tag_95\n      jump\t// in\n    tag_94:\n      stop\n        /* \"https://github.com/OpenZeppelin/openzeppelin-contracts/blob/v3.4.2-solc-0.7/contracts/token/ERC20/ERC20.sol\":4862:5179   */\n    tag_9:\n      tag_96\n      0x04\n      dup1\n      calldatasize\n      sub\n      0x60\n      dup2\n      lt\n      iszero\n      tag_97\n      jumpi\n      0x00\n      dup1\n      revert\n    tag_97:\n      dup2\n      add\n      swap1\n      dup1\n      dup1\n      calldataload\n      0xffffffffffffffffffffffffffffffffffffffff\n      and\n      swap1\n      0x20\n      add\n      swap1\n      swap3\n      swap2\n      swap1\n      dup1\n      calldataload\n      0xffffffffffffffffffffffffffffffffffffffff\n      and\n      swap1\n      0x20\n      add\n      swap1\n      swap3\n      swap2\n      swap1\n      dup1\n      calldataload\n      swap1\n      0x20\n      add\n      swap1\n      swap3\n      swap2\n      swap1\n      pop\n      pop\n      pop\n      tag_98\n      jump\t// in\n    tag_96:\n      mload(0x40)\n      dup1\n      dup3\n      iszero\n      iszero\n      dup2\n      mstore\n      0x20\n      add\n      swap2\n      pop\n      pop\n      mload(0x40)\n      dup1\n      swap2\n      sub\n      swap1\n      return\n        /* \"LiquidityToken.sol\":1129:1183  uint public immutable fractionInitialUnlockPerThousand */\n    tag_10:\n      tag_99\n      tag_100\n      jump\t// in\n    tag_99:\n      mload(0x40)\n      dup1\n      dup3\n      dup2\n      mstore\n      0x20\n      add\n      swap2\n      pop\n      pop\n      mload(0x40)\n      dup1\n      swap2\n      sub\n      swap1\n      return\n        /* \"LiquidityToken.sol\":1709:1762  mapping (address => LiquiToken) public userLiquiToken */\n    tag_11:\n      tag_101\n      0x04\n      dup1\n      calldatasize\n      sub\n      0x20\n      dup2\n      lt\n      iszero\n      tag_102\n      jumpi\n      0x00\n      dup1\n      revert\n    tag_102:\n      dup2\n      add\n      swap1\n      dup1\n      dup1\n      calldataload\n      0xffffffffffffffffffffffffffffffffffffffff\n      and\n      swap1\n      0x20\n      add\n      swap1\n      swap3\n      swap2\n      swap1\n      pop\n      pop\n      pop\n      tag_103\n      jump\t// in\n    tag_101:\n      mload(0x40)\n      dup1\n      dup5\n      dup2\n      mstore\n      0x20\n      add\n      dup4\n      dup2\n      mstore\n      0x20\n      add\n      dup3\n      dup2\n      mstore\n      0x20\n      add\n      swap4\n      pop\n      pop\n      pop\n      pop\n      mload(0x40)\n      dup1\n      swap2\n      sub\n      swap1\n      return\n        /* \"LiquidityToken.sol\":14798:14993  function getUserDateOfPartiallyChargedToken(address _user) public view... */\n    tag_12:\n      tag_104\n      0x04\n      dup1\n      calldatasize\n      sub\n      0x20\n      dup2\n      lt\n      iszero\n      tag_105\n      jumpi\n      0x00\n      dup1\n      revert\n    tag_105:\n      dup2\n      add\n      swap1\n      dup1\n      dup1\n      calldataload\n      0xffffffffffffffffffffffffffffffffffffffff\n      and\n      swap1\n      0x20\n      add\n      swap1\n      swap3\n      swap2\n      swap1\n      pop\n      pop\n      pop\n      tag_106\n      jump\t// in\n    tag_104:\n      mload(0x40)\n      dup1\n      dup3\n      dup2\n      mstore\n      0x20\n      add\n      swap2\n      pop\n      pop\n      mload(0x40)\n      dup1\n      swap2\n      sub\n      swap1\n      return\n        /* \"https://github.com/OpenZeppelin/openzeppelin-contracts/blob/v3.4.2-solc-0.7/contracts/token/ERC20/ERC20.sol\":3071:3160   */\n    tag_13:\n      tag_107\n      tag_108\n      jump\t// in\n    tag_107:\n      mload(0x40)\n      dup1\n      dup3\n      0xff\n      and\n      dup2\n      mstore\n      0x20\n      add\n      swap2\n      pop\n      pop\n      mload(0x40)\n      dup1\n      swap2\n      sub\n      swap1\n      return\n        /* \"https://github.com/OpenZeppelin/openzeppelin-contracts/blob/v3.4.2-solc-0.7/contracts/token/ERC20/ERC20.sol\":5574:5789   */\n    tag_14:\n      tag_109\n      0x04\n      dup1\n      calldatasize\n      sub\n      0x40\n      dup2\n      lt\n      iszero\n      tag_110\n      jumpi\n      0x00\n      dup1\n      revert\n    tag_110:\n      dup2\n      add\n      swap1\n      dup1\n      dup1\n      calldataload\n      0xffffffffffffffffffffffffffffffffffffffff\n      and\n      swap1\n      0x20\n      add\n      swap1\n      swap3\n      swap2\n      swap1\n      dup1\n      calldataload\n      swap1\n      0x20\n      add\n      swap1\n      swap3\n      swap2\n      swap1\n      pop\n      pop\n      pop\n      tag_111\n      jump\t// in\n    tag_109:\n      mload(0x40)\n      dup1\n      dup3\n      iszero\n      iszero\n      dup2\n      mstore\n      0x20\n      add\n      swap2\n      pop\n      pop\n      mload(0x40)\n      dup1\n      swap2\n      sub\n      swap1\n      return\n        /* \"LiquidityToken.sol\":523:573  InterfaceProjectToken public interfaceProjectToken */\n    tag_15:\n      tag_112\n      tag_113\n      jump\t// in\n    tag_112:\n      mload(0x40)\n      dup1\n      dup3\n      0xffffffffffffffffffffffffffffffffffffffff\n      and\n      dup2\n      mstore\n      0x20\n      add\n      swap2\n      pop\n      pop\n      mload(0x40)\n      dup1\n      swap2\n      sub\n      swap1\n      return\n        /* \"LiquidityToken.sol\":1187:1222  uint public immutable durationCliff */\n    tag_16:\n      tag_114\n      tag_115\n      jump\t// in\n    tag_114:\n      mload(0x40)\n      dup1\n      dup3\n      dup2\n      mstore\n      0x20\n      add\n      swap2\n      pop\n      pop\n      mload(0x40)\n      dup1\n      swap2\n      sub\n      swap1\n      return\n        /* \"LiquidityToken.sol\":6577:7623  function withdrawLT(uint _value) public {... */\n    tag_17:\n      tag_116\n      0x04\n      dup1\n      calldatasize\n      sub\n      0x20\n      dup2\n      lt\n      iszero\n      tag_117\n      jumpi\n      0x00\n      dup1\n      revert\n    tag_117:\n      dup2\n      add\n      swap1\n      dup1\n      dup1\n      calldataload\n      swap1\n      0x20\n      add\n      swap1\n      swap3\n      swap2\n      swap1\n      pop\n      pop\n      pop\n      tag_118\n      jump\t// in\n    tag_116:\n      stop\n        /* \"LiquidityToken.sol\":4331:4434  function lockInterfaceProjectToken() public onlyOwner() {... */\n    tag_18:\n      tag_119\n      tag_120\n      jump\t// in\n    tag_119:\n      stop\n        /* \"LiquidityToken.sol\":1003:1039  bool public areUserFunctionsDisabled */\n    tag_19:\n      tag_121\n      tag_122\n      jump\t// in\n    tag_121:\n      mload(0x40)\n      dup1\n      dup3\n      iszero\n      iszero\n      dup2\n      mstore\n      0x20\n      add\n      swap2\n      pop\n      pop\n      mload(0x40)\n      dup1\n      swap2\n      sub\n      swap1\n      return\n        /* \"LiquidityToken.sol\":922:953  uint public totalTokenAllocated */\n    tag_20:\n      tag_123\n      tag_124\n      jump\t// in\n    tag_123:\n      mload(0x40)\n      dup1\n      dup3\n      dup2\n      mstore\n      0x20\n      add\n      swap2\n      pop\n      pop\n      mload(0x40)\n      dup1\n      swap2\n      sub\n      swap1\n      return\n        /* \"LiquidityToken.sol\":685:722  uint public stakingDateLastCheckpoint */\n    tag_21:\n      tag_125\n      tag_126\n      jump\t// in\n    tag_125:\n      mload(0x40)\n      dup1\n      dup3\n      dup2\n      mstore\n      0x20\n      add\n      swap2\n      pop\n      pop\n      mload(0x40)\n      dup1\n      swap2\n      sub\n      swap1\n      return\n        /* \"LiquidityToken.sol\":13957:14084  function burnByInterfaceProjectToken(uint _value) public onlyInterfaceProjectToken() {... */\n    tag_22:\n      tag_127\n      0x04\n      dup1\n      calldatasize\n      sub\n      0x20\n      dup2\n      lt\n      iszero\n      tag_128\n      jumpi\n      0x00\n      dup1\n      revert\n    tag_128:\n      dup2\n      add\n      swap1\n      dup1\n      dup1\n      calldataload\n      swap1\n      0x20\n      add\n      swap1\n      swap3\n      swap2\n      swap1\n      pop\n      pop\n      pop\n      tag_129\n      jump\t// in\n    tag_127:\n      stop\n        /* \"https://github.com/OpenZeppelin/openzeppelin-contracts/blob/v3.4.2-solc-0.7/contracts/token/ERC20/ERC20.sol\":3384:3509   */\n    tag_23:\n      tag_130\n      0x04\n      dup1\n      calldatasize\n      sub\n      0x20\n      dup2\n      lt\n      iszero\n      tag_131\n      jumpi\n      0x00\n      dup1\n      revert\n    tag_131:\n      dup2\n      add\n      swap1\n      dup1\n      dup1\n      calldataload\n      0xffffffffffffffffffffffffffffffffffffffff\n      and\n      swap1\n      0x20\n      add\n      swap1\n      swap3\n      swap2\n      swap1\n      pop\n      pop\n      pop\n      tag_132\n      jump\t// in\n    tag_130:\n      mload(0x40)\n      dup1\n      dup3\n      dup2\n      mstore\n      0x20\n      add\n      swap2\n      pop\n      pop\n      mload(0x40)\n      dup1\n      swap2\n      sub\n      swap1\n      return\n        /* \"https://github.com/OpenZeppelin/openzeppelin-contracts/blob/v3.4.2-solc-0.7/contracts/access/Ownable.sol\":1700:1845   */\n    tag_24:\n      tag_133\n      tag_134\n      jump\t// in\n    tag_133:\n      stop\n        /* \"LiquidityToken.sol\":11989:12203  function updateRatioFeesToRewardHodlers(uint _valuePerThousand) public onlyOwner() {... */\n    tag_25:\n      tag_135\n      0x04\n      dup1\n      calldatasize\n      sub\n      0x20\n      dup2\n      lt\n      iszero\n      tag_136\n      jumpi\n      0x00\n      dup1\n      revert\n    tag_136:\n      dup2\n      add\n      swap1\n      dup1\n      dup1\n      calldataload\n      swap1\n      0x20\n      add\n      swap1\n      swap3\n      swap2\n      swap1\n      pop\n      pop\n      pop\n      tag_137\n      jump\t// in\n    tag_135:\n      stop\n        /* \"LiquidityToken.sol\":12767:13300  function rechargeUserTokens(address _user, uint _valueFullyChargedToIncrease, uint _valuePartiallyChargedToDecrease, ... */\n    tag_26:\n      tag_138\n      0x04\n      dup1\n      calldatasize\n      sub\n      0x80\n      dup2\n      lt\n      iszero\n      tag_139\n      jumpi\n      0x00\n      dup1\n      revert\n    tag_139:\n      dup2\n      add\n      swap1\n      dup1\n      dup1\n      calldataload\n      0xffffffffffffffffffffffffffffffffffffffff\n      and\n      swap1\n      0x20\n      add\n      swap1\n      swap3\n      swap2\n      swap1\n      dup1\n      calldataload\n      swap1\n      0x20\n      add\n      swap1\n      swap3\n      swap2\n      swap1\n      dup1\n      calldataload\n      swap1\n      0x20\n      add\n      swap1\n      swap3\n      swap2\n      swap1\n      dup1\n      calldataload\n      swap1\n      0x20\n      add\n      swap1\n      swap3\n      swap2\n      swap1\n      pop\n      pop\n      pop\n      tag_140\n      jump\t// in\n    tag_138:\n      stop\n        /* \"LiquidityToken.sol\":799:853  uint public ratioFeesToRewardHodlersPerThousand = 1000 */\n    tag_27:\n      tag_141\n      tag_142\n      jump\t// in\n    tag_141:\n      mload(0x40)\n      dup1\n      dup3\n      dup2\n      mstore\n      0x20\n      add\n      swap2\n      pop\n      pop\n      mload(0x40)\n      dup1\n      swap2\n      sub\n      swap1\n      return\n        /* \"LiquidityToken.sol\":14398:14586  function getUserFullyChargedBalanceLiquiToken(address _user) public view... */\n    tag_28:\n      tag_143\n      0x04\n      dup1\n      calldatasize\n      sub\n      0x20\n      dup2\n      lt\n      iszero\n      tag_144\n      jumpi\n      0x00\n      dup1\n      revert\n    tag_144:\n      dup2\n      add\n      swap1\n      dup1\n      dup1\n      calldataload\n      0xffffffffffffffffffffffffffffffffffffffff\n      and\n      swap1\n      0x20\n      add\n      swap1\n      swap3\n      swap2\n      swap1\n      pop\n      pop\n      pop\n      tag_145\n      jump\t// in\n    tag_143:\n      mload(0x40)\n      dup1\n      dup3\n      dup2\n      mstore\n      0x20\n      add\n      swap2\n      pop\n      pop\n      mload(0x40)\n      dup1\n      swap2\n      sub\n      swap1\n      return\n        /* \"LiquidityToken.sol\":1381:1431  uint public immutable maxClaimFeesPerThousandForPT */\n    tag_29:\n      tag_146\n      tag_147\n      jump\t// in\n    tag_146:\n      mload(0x40)\n      dup1\n      dup3\n      dup2\n      mstore\n      0x20\n      add\n      swap2\n      pop\n      pop\n      mload(0x40)\n      dup1\n      swap2\n      sub\n      swap1\n      return\n        /* \"LiquidityToken.sol\":622:650  uint public stakingStartDate */\n    tag_30:\n      tag_148\n      tag_149\n      jump\t// in\n    tag_148:\n      mload(0x40)\n      dup1\n      dup3\n      dup2\n      mstore\n      0x20\n      add\n      swap2\n      pop\n      pop\n      mload(0x40)\n      dup1\n      swap2\n      sub\n      swap1\n      return\n        /* \"LiquidityToken.sol\":578:618  uint public constant multiplier1K = 1000 */\n    tag_31:\n      tag_150\n      tag_151\n      jump\t// in\n    tag_150:\n      mload(0x40)\n      dup1\n      dup3\n      dup2\n      mstore\n      0x20\n      add\n      swap2\n      pop\n      pop\n      mload(0x40)\n      dup1\n      swap2\n      sub\n      swap1\n      return\n        /* \"LiquidityToken.sol\":654:681  uint public stakingDuration */\n    tag_32:\n      tag_152\n      tag_153\n      jump\t// in\n    tag_152:\n      mload(0x40)\n      dup1\n      dup3\n      dup2\n      mstore\n      0x20\n      add\n      swap2\n      pop\n      pop\n      mload(0x40)\n      dup1\n      swap2\n      sub\n      swap1\n      return\n        /* \"LiquidityToken.sol\":13304:13825  function dischargeUserTokens(address _user, uint _valueProjectToken) public onlyInterfaceProjectToken() {... */\n    tag_33:\n      tag_154\n      0x04\n      dup1\n      calldatasize\n      sub\n      0x40\n      dup2\n      lt\n      iszero\n      tag_155\n      jumpi\n      0x00\n      dup1\n      revert\n    tag_155:\n      dup2\n      add\n      swap1\n      dup1\n      dup1\n      calldataload\n      0xffffffffffffffffffffffffffffffffffffffff\n      and\n      swap1\n      0x20\n      add\n      swap1\n      swap3\n      swap2\n      swap1\n      dup1\n      calldataload\n      swap1\n      0x20\n      add\n      swap1\n      swap3\n      swap2\n      swap1\n      pop\n      pop\n      pop\n      tag_156\n      jump\t// in\n    tag_154:\n      stop\n        /* \"LiquidityToken.sol\":1474:1517  uint public immutable maxStakingTokenAmount */\n    tag_34:\n      tag_157\n      tag_158\n      jump\t// in\n    tag_157:\n      mload(0x40)\n      dup1\n      dup3\n      dup2\n      mstore\n      0x20\n      add\n      swap2\n      pop\n      pop\n      mload(0x40)\n      dup1\n      swap2\n      sub\n      swap1\n      return\n        /* \"LiquidityToken.sol\":1273:1320  uint public immutable maxInitialTokenAllocation */\n    tag_35:\n      tag_159\n      tag_160\n      jump\t// in\n    tag_159:\n      mload(0x40)\n      dup1\n      dup3\n      dup2\n      mstore\n      0x20\n      add\n      swap2\n      pop\n      pop\n      mload(0x40)\n      dup1\n      swap2\n      sub\n      swap1\n      return\n        /* \"LiquidityToken.sol\":1043:1084  bool public isInterfaceProjectTokenLocked */\n    tag_36:\n      tag_161\n      tag_162\n      jump\t// in\n    tag_161:\n      mload(0x40)\n      dup1\n      dup3\n      iszero\n      iszero\n      dup2\n      mstore\n      0x20\n      add\n      swap2\n      pop\n      pop\n      mload(0x40)\n      dup1\n      swap2\n      sub\n      swap1\n      return\n        /* \"LiquidityToken.sol\":1324:1377  uint public immutable maxWithdrawFeesPerThousandForLT */\n    tag_37:\n      tag_163\n      tag_164\n      jump\t// in\n    tag_163:\n      mload(0x40)\n      dup1\n      dup3\n      dup2\n      mstore\n      0x20\n      add\n      swap2\n      pop\n      pop\n      mload(0x40)\n      dup1\n      swap2\n      sub\n      swap1\n      return\n        /* \"https://github.com/OpenZeppelin/openzeppelin-contracts/blob/v3.4.2-solc-0.7/contracts/access/Ownable.sol\":1068:1153   */\n    tag_38:\n      tag_165\n      tag_166\n      jump\t// in\n    tag_165:\n      mload(0x40)\n      dup1\n      dup3\n      0xffffffffffffffffffffffffffffffffffffffff\n      and\n      dup2\n      mstore\n      0x20\n      add\n      swap2\n      pop\n      pop\n      mload(0x40)\n      dup1\n      swap2\n      sub\n      swap1\n      return\n        /* \"LiquidityToken.sol\":8241:8932  function getUpdatedRewardPerShare1e18(uint _blockTime) public view returns(uint _updatedRewardPerShare1e18) {  ... */\n    tag_39:\n      tag_167\n      0x04\n      dup1\n      calldatasize\n      sub\n      0x20\n      dup2\n      lt\n      iszero\n      tag_168\n      jumpi\n      0x00\n      dup1\n      revert\n    tag_168:\n      dup2\n      add\n      swap1\n      dup1\n      dup1\n      calldataload\n      swap1\n      0x20\n      add\n      swap1\n      swap3\n      swap2\n      swap1\n      pop\n      pop\n      pop\n      tag_169\n      jump\t// in\n    tag_167:\n      mload(0x40)\n      dup1\n      dup3\n      dup2\n      mstore\n      0x20\n      add\n      swap2\n      pop\n      pop\n      mload(0x40)\n      dup1\n      swap2\n      sub\n      swap1\n      return\n        /* \"LiquidityToken.sol\":764:795  uint public totalStakingRewards */\n    tag_40:\n      tag_170\n      tag_171\n      jump\t// in\n    tag_170:\n      mload(0x40)\n      dup1\n      dup3\n      dup2\n      mstore\n      0x20\n      add\n      swap2\n      pop\n      pop\n      mload(0x40)\n      dup1\n      swap2\n      sub\n      swap1\n      return\n        /* \"LiquidityToken.sol\":1522:1580  mapping (address => uint) public claimedRewardPerShare1e18 */\n    tag_41:\n      tag_172\n      0x04\n      dup1\n      calldatasize\n      sub\n      0x20\n      dup2\n      lt\n      iszero\n      tag_173\n      jumpi\n      0x00\n      dup1\n      revert\n    tag_173:\n      dup2\n      add\n      swap1\n      dup1\n      dup1\n      calldataload\n      0xffffffffffffffffffffffffffffffffffffffff\n      and\n      swap1\n      0x20\n      add\n      swap1\n      swap3\n      swap2\n      swap1\n      pop\n      pop\n      pop\n      tag_174\n      jump\t// in\n    tag_172:\n      mload(0x40)\n      dup1\n      dup3\n      dup2\n      mstore\n      0x20\n      add\n      swap2\n      pop\n      pop\n      mload(0x40)\n      dup1\n      swap2\n      sub\n      swap1\n      return\n        /* \"https://github.com/OpenZeppelin/openzeppelin-contracts/blob/v3.4.2-solc-0.7/contracts/token/ERC20/ERC20.sol\":2355:2448   */\n    tag_42:\n      tag_175\n      tag_176\n      jump\t// in\n    tag_175:\n      mload(0x40)\n      dup1\n      dup1\n      0x20\n      add\n      dup3\n      dup2\n      sub\n      dup3\n      mstore\n      dup4\n      dup2\n      dup2\n      mload\n      dup2\n      mstore\n      0x20\n      add\n      swap2\n      pop\n      dup1\n      mload\n      swap1\n      0x20\n      add\n      swap1\n      dup1\n      dup4\n      dup4\n      0x00\n    tag_177:\n      dup4\n      dup2\n      lt\n      iszero\n      tag_179\n      jumpi\n      dup1\n      dup3\n      add\n      mload\n      dup2\n      dup5\n      add\n      mstore\n      0x20\n      dup2\n      add\n      swap1\n      pop\n      jump(tag_177)\n    tag_179:\n      pop\n      pop\n      pop\n      pop\n      swap1\n      pop\n      swap1\n      dup2\n      add\n      swap1\n      0x1f\n      and\n      dup1\n      iszero\n      tag_180\n      jumpi\n      dup1\n      dup3\n      sub\n      dup1\n      mload\n      0x01\n      dup4\n      0x20\n      sub\n      0x0100\n      exp\n      sub\n      not\n      and\n      dup2\n      mstore\n      0x20\n      add\n      swap2\n      pop\n    tag_180:\n      pop\n      swap3\n      pop\n      pop\n      pop\n      mload(0x40)\n      dup1\n      swap2\n      sub\n      swap1\n      return\n        /* \"LiquidityToken.sol\":1088:1124  bool public areAllocationsTerminated */\n    tag_43:\n      tag_181\n      tag_182\n      jump\t// in\n    tag_181:\n      mload(0x40)\n      dup1\n      dup3\n      iszero\n      iszero\n      dup2\n      mstore\n      0x20\n      add\n      swap2\n      pop\n      pop\n      mload(0x40)\n      dup1\n      swap2\n      sub\n      swap1\n      return\n        /* \"LiquidityToken.sol\":6077:6170  function terminateAllocations() public onlyOwner() {... */\n    tag_44:\n      tag_183\n      tag_184\n      jump\t// in\n    tag_183:\n      stop\n        /* \"LiquidityToken.sol\":14590:14794  function getUserPartiallyChargedBalanceLiquiToken(address _user) public view... */\n    tag_45:\n      tag_185\n      0x04\n      dup1\n      calldatasize\n      sub\n      0x20\n      dup2\n      lt\n      iszero\n      tag_186\n      jumpi\n      0x00\n      dup1\n      revert\n    tag_186:\n      dup2\n      add\n      swap1\n      dup1\n      dup1\n      calldataload\n      0xffffffffffffffffffffffffffffffffffffffff\n      and\n      swap1\n      0x20\n      add\n      swap1\n      swap3\n      swap2\n      swap1\n      pop\n      pop\n      pop\n      tag_187\n      jump\t// in\n    tag_185:\n      mload(0x40)\n      dup1\n      dup3\n      dup2\n      mstore\n      0x20\n      add\n      swap2\n      pop\n      pop\n      mload(0x40)\n      dup1\n      swap2\n      sub\n      swap1\n      return\n        /* \"LiquidityToken.sol\":10406:11754  function setStakingRewards(uint _stakingStartDate, uint _stakingDuration, uint _campaignStakingRewards) ... */\n    tag_46:\n      tag_188\n      0x04\n      dup1\n      calldatasize\n      sub\n      0x60\n      dup2\n      lt\n      iszero\n      tag_189\n      jumpi\n      0x00\n      dup1\n      revert\n    tag_189:\n      dup2\n      add\n      swap1\n      dup1\n      dup1\n      calldataload\n      swap1\n      0x20\n      add\n      swap1\n      swap3\n      swap2\n      swap1\n      dup1\n      calldataload\n      swap1\n      0x20\n      add\n      swap1\n      swap3\n      swap2\n      swap1\n      dup1\n      calldataload\n      swap1\n      0x20\n      add\n      swap1\n      swap3\n      swap2\n      swap1\n      pop\n      pop\n      pop\n      tag_190\n      jump\t// in\n    tag_188:\n      stop\n        /* \"https://github.com/OpenZeppelin/openzeppelin-contracts/blob/v3.4.2-solc-0.7/contracts/token/ERC20/ERC20.sol\":6276:6542   */\n    tag_47:\n      tag_191\n      0x04\n      dup1\n      calldatasize\n      sub\n      0x40\n      dup2\n      lt\n      iszero\n      tag_192\n      jumpi\n      0x00\n      dup1\n      revert\n    tag_192:\n      dup2\n      add\n      swap1\n      dup1\n      dup1\n      calldataload\n      0xffffffffffffffffffffffffffffffffffffffff\n      and\n      swap1\n      0x20\n      add\n      swap1\n      swap3\n      swap2\n      swap1\n      dup1\n      calldataload\n      swap1\n      0x20\n      add\n      swap1\n      swap3\n      swap2\n      swap1\n      pop\n      pop\n      pop\n      tag_193\n      jump\t// in\n    tag_191:\n      mload(0x40)\n      dup1\n      dup3\n      iszero\n      iszero\n      dup2\n      mstore\n      0x20\n      add\n      swap2\n      pop\n      pop\n      mload(0x40)\n      dup1\n      swap2\n      sub\n      swap1\n      return\n        /* \"LiquidityToken.sol\":3663:3785  function enableOrDisableUserFunctions() public onlyOwner() {... */\n    tag_48:\n      tag_194\n      tag_195\n      jump\t// in\n    tag_194:\n      stop\n        /* \"https://github.com/OpenZeppelin/openzeppelin-contracts/blob/v3.4.2-solc-0.7/contracts/token/ERC20/ERC20.sol\":3712:3884   */\n    tag_49:\n      tag_196\n      0x04\n      dup1\n      calldatasize\n      sub\n      0x40\n      dup2\n      lt\n      iszero\n      tag_197\n      jumpi\n      0x00\n      dup1\n      revert\n    tag_197:\n      dup2\n      add\n      swap1\n      dup1\n      dup1\n      calldataload\n      0xffffffffffffffffffffffffffffffffffffffff\n      and\n      swap1\n      0x20\n      add\n      swap1\n      swap3\n      swap2\n      swap1\n      dup1\n      calldataload\n      swap1\n      0x20\n      add\n      swap1\n      swap3\n      swap2\n      swap1\n      pop\n      pop\n      pop\n      tag_198\n      jump\t// in\n    tag_196:\n      mload(0x40)\n      dup1\n      dup3\n      iszero\n      iszero\n      dup2\n      mstore\n      0x20\n      add\n      swap2\n      pop\n      pop\n      mload(0x40)\n      dup1\n      swap2\n      sub\n      swap1\n      return\n        /* \"LiquidityToken.sol\":957:997  uint public withdrawFeesPerThousandForLT */\n    tag_50:\n      tag_199\n      tag_200\n      jump\t// in\n    tag_199:\n      mload(0x40)\n      dup1\n      dup3\n      dup2\n      mstore\n      0x20\n      add\n      swap2\n      pop\n      pop\n      mload(0x40)\n      dup1\n      swap2\n      sub\n      swap1\n      return\n        /* \"LiquidityToken.sol\":11760:11985  function updateWithdrawalFeesForLT(uint _valuePerThousand) public onlyOwner() {... */\n    tag_51:\n      tag_201\n      0x04\n      dup1\n      calldatasize\n      sub\n      0x20\n      dup2\n      lt\n      iszero\n      tag_202\n      jumpi\n      0x00\n      dup1\n      revert\n    tag_202:\n      dup2\n      add\n      swap1\n      dup1\n      dup1\n      calldataload\n      swap1\n      0x20\n      add\n      swap1\n      swap3\n      swap2\n      swap1\n      pop\n      pop\n      pop\n      tag_203\n      jump\t// in\n    tag_201:\n      stop\n        /* \"LiquidityToken.sol\":898:918  uint public stakedLT */\n    tag_52:\n      tag_204\n      tag_205\n      jump\t// in\n    tag_204:\n      mload(0x40)\n      dup1\n      dup3\n      dup2\n      mstore\n      0x20\n      add\n      swap2\n      pop\n      pop\n      mload(0x40)\n      dup1\n      swap2\n      sub\n      swap1\n      return\n        /* \"LiquidityToken.sol\":9794:10402  function depositLT(uint _value) public {... */\n    tag_53:\n      tag_206\n      0x04\n      dup1\n      calldatasize\n      sub\n      0x20\n      dup2\n      lt\n      iszero\n      tag_207\n      jumpi\n      0x00\n      dup1\n      revert\n    tag_207:\n      dup2\n      add\n      swap1\n      dup1\n      dup1\n      calldataload\n      swap1\n      0x20\n      add\n      swap1\n      swap3\n      swap2\n      swap1\n      pop\n      pop\n      pop\n      tag_208\n      jump\t// in\n    tag_206:\n      stop\n        /* \"LiquidityToken.sol\":13829:13953  function mintByInterfaceProjectToken(uint _value) public onlyInterfaceProjectToken() {... */\n    tag_54:\n      tag_209\n      0x04\n      dup1\n      calldatasize\n      sub\n      0x20\n      dup2\n      lt\n      iszero\n      tag_210\n      jumpi\n      0x00\n      dup1\n      revert\n    tag_210:\n      dup2\n      add\n      swap1\n      dup1\n      dup1\n      calldataload\n      swap1\n      0x20\n      add\n      swap1\n      swap3\n      swap2\n      swap1\n      pop\n      pop\n      pop\n      tag_211\n      jump\t// in\n    tag_209:\n      stop\n        /* \"LiquidityToken.sol\":3962:4327  function setInterfaceProjectToken(InterfaceProjectToken _interfaceProjectToken)... */\n    tag_55:\n      tag_212\n      0x04\n      dup1\n      calldatasize\n      sub\n      0x20\n      dup2\n      lt\n      iszero\n      tag_213\n      jumpi\n      0x00\n      dup1\n      revert\n    tag_213:\n      dup2\n      add\n      swap1\n      dup1\n      dup1\n      calldataload\n      0xffffffffffffffffffffffffffffffffffffffff\n      and\n      swap1\n      0x20\n      add\n      swap1\n      swap3\n      swap2\n      swap1\n      pop\n      pop\n      pop\n      tag_214\n      jump\t// in\n    tag_212:\n      stop\n        /* \"https://github.com/OpenZeppelin/openzeppelin-contracts/blob/v3.4.2-solc-0.7/contracts/token/ERC20/ERC20.sol\":3942:4091   */\n    tag_56:\n      tag_215\n      0x04\n      dup1\n      calldatasize\n      sub\n      0x40\n      dup2\n      lt\n      iszero\n      tag_216\n      jumpi\n      0x00\n      dup1\n      revert\n    tag_216:\n      dup2\n      add\n      swap1\n      dup1\n      dup1\n      calldataload\n      0xffffffffffffffffffffffffffffffffffffffff\n      and\n      swap1\n      0x20\n      add\n      swap1\n      swap3\n      swap2\n      swap1\n      dup1\n      calldataload\n      0xffffffffffffffffffffffffffffffffffffffff\n      and\n      swap1\n      0x20\n      add\n      swap1\n      swap3\n      swap2\n      swap1\n      pop\n      pop\n      pop\n      tag_217\n      jump\t// in\n    tag_215:\n      mload(0x40)\n      dup1\n      dup3\n      dup2\n      mstore\n      0x20\n      add\n      swap2\n      pop\n      pop\n      mload(0x40)\n      dup1\n      swap2\n      sub\n      swap1\n      return\n        /* \"LiquidityToken.sol\":4526:6073  function allocateLTByOwner(address[] memory _users, uint[] memory _values, bool _areAllocationsToBeStaked)... */\n    tag_57:\n      tag_218\n      0x04\n      dup1\n      calldatasize\n      sub\n      0x60\n      dup2\n      lt\n      iszero\n      tag_219\n      jumpi\n      0x00\n      dup1\n      revert\n    tag_219:\n      dup2\n      add\n      swap1\n      dup1\n      dup1\n      calldataload\n      swap1\n      0x20\n      add\n      swap1\n      0x0100000000\n      dup2\n      gt\n      iszero\n      tag_220\n      jumpi\n      0x00\n      dup1\n      revert\n    tag_220:\n      dup3\n      add\n      dup4\n      0x20\n      dup3\n      add\n      gt\n      iszero\n      tag_221\n      jumpi\n      0x00\n      dup1\n      revert\n    tag_221:\n      dup1\n      calldataload\n      swap1\n      0x20\n      add\n      swap2\n      dup5\n      0x20\n      dup4\n      mul\n      dup5\n      add\n      gt\n      0x0100000000\n      dup4\n      gt\n      or\n      iszero\n      tag_222\n      jumpi\n      0x00\n      dup1\n      revert\n    tag_222:\n      swap2\n      swap1\n      dup1\n      dup1\n      0x20\n      mul\n      0x20\n      add\n      mload(0x40)\n      swap1\n      dup2\n      add\n      0x40\n      mstore\n      dup1\n      swap4\n      swap3\n      swap2\n      swap1\n      dup2\n      dup2\n      mstore\n      0x20\n      add\n      dup4\n      dup4\n      0x20\n      mul\n      dup1\n      dup3\n      dup5\n      calldatacopy\n      0x00\n      dup2\n      dup5\n      add\n      mstore\n      not(0x1f)\n      0x1f\n      dup3\n      add\n      and\n      swap1\n      pop\n      dup1\n      dup4\n      add\n      swap3\n      pop\n      pop\n      pop\n      pop\n      pop\n      pop\n      pop\n      swap2\n      swap3\n      swap2\n      swap3\n      swap1\n      dup1\n      calldataload\n      swap1\n      0x20\n      add\n      swap1\n      0x0100000000\n      dup2\n      gt\n      iszero\n      tag_223\n      jumpi\n      0x00\n      dup1\n      revert\n    tag_223:\n      dup3\n      add\n      dup4\n      0x20\n      dup3\n      add\n      gt\n      iszero\n      tag_224\n      jumpi\n      0x00\n      dup1\n      revert\n    tag_224:\n      dup1\n      calldataload\n      swap1\n      0x20\n      add\n      swap2\n      dup5\n      0x20\n      dup4\n      mul\n      dup5\n      add\n      gt\n      0x0100000000\n      dup4\n      gt\n      or\n      iszero\n      tag_225\n      jumpi\n      0x00\n      dup1\n      revert\n    tag_225:\n      swap2\n      swap1\n      dup1\n      dup1\n      0x20\n      mul\n      0x20\n      add\n      mload(0x40)\n      swap1\n      dup2\n      add\n      0x40\n      mstore\n      dup1\n      swap4\n      swap3\n      swap2\n      swap1\n      dup2\n      dup2\n      mstore\n      0x20\n      add\n      dup4\n      dup4\n      0x20\n      mul\n      dup1\n      dup3\n      dup5\n      calldatacopy\n      0x00\n      dup2\n      dup5\n      add\n      mstore\n      not(0x1f)\n      0x1f\n      dup3\n      add\n      and\n      swap1\n      pop\n      dup1\n      dup4\n      add\n      swap3\n      pop\n      pop\n      pop\n      pop\n      pop\n      pop\n      pop\n      swap2\n      swap3\n      swap2\n      swap3\n      swap1\n      dup1\n      calldataload\n      iszero\n      iszero\n      swap1\n      0x20\n      add\n      swap1\n      swap3\n      swap2\n      swap1\n      pop\n      pop\n      pop\n      tag_226\n      jump\t// in\n    tag_218:\n      stop\n        /* \"LiquidityToken.sol\":857:894  uint public currentRewardPerShare1e18 */\n    tag_58:\n      tag_227\n      tag_228\n      jump\t// in\n    tag_227:\n      mload(0x40)\n      dup1\n      dup3\n      dup2\n      mstore\n      0x20\n      add\n      swap2\n      pop\n      pop\n      mload(0x40)\n      dup1\n      swap2\n      sub\n      swap1\n      return\n        /* \"LiquidityToken.sol\":1226:1269  uint public immutable durationLinearVesting */\n    tag_59:\n      tag_229\n      tag_230\n      jump\t// in\n    tag_229:\n      mload(0x40)\n      dup1\n      dup3\n      dup2\n      mstore\n      0x20\n      add\n      swap2\n      pop\n      pop\n      mload(0x40)\n      dup1\n      swap2\n      sub\n      swap1\n      return\n        /* \"LiquidityToken.sol\":12573:12763  function updateStakingAndGetHodlRewardsByInterfacePT(address _user) public onlyInterfaceProjectToken() returns (uint) {... */\n    tag_60:\n      tag_231\n      0x04\n      dup1\n      calldatasize\n      sub\n      0x20\n      dup2\n      lt\n      iszero\n      tag_232\n      jumpi\n      0x00\n      dup1\n      revert\n    tag_232:\n      dup2\n      add\n      swap1\n      dup1\n      dup1\n      calldataload\n      0xffffffffffffffffffffffffffffffffffffffff\n      and\n      swap1\n      0x20\n      add\n      swap1\n      swap3\n      swap2\n      swap1\n      pop\n      pop\n      pop\n      tag_233\n      jump\t// in\n    tag_231:\n      mload(0x40)\n      dup1\n      dup3\n      dup2\n      mstore\n      0x20\n      add\n      swap2\n      pop\n      pop\n      mload(0x40)\n      dup1\n      swap2\n      sub\n      swap1\n      return\n        /* \"https://github.com/OpenZeppelin/openzeppelin-contracts/blob/v3.4.2-solc-0.7/contracts/access/Ownable.sol\":1994:2234   */\n    tag_61:\n      tag_234\n      0x04\n      dup1\n      calldatasize\n      sub\n      0x20\n      dup2\n      lt\n      iszero\n      tag_235\n      jumpi\n      0x00\n      dup1\n      revert\n    tag_235:\n      dup2\n      add\n      swap1\n      dup1\n      dup1\n      calldataload\n      0xffffffffffffffffffffffffffffffffffffffff\n      and\n      swap1\n      0x20\n      add\n      swap1\n      swap3\n      swap2\n      swap1\n      pop\n      pop\n      pop\n      tag_236\n      jump\t// in\n    tag_234:\n      stop\n        /* \"LiquidityToken.sol\":14088:14232  function updateRewardsAfterFeesPaymentByInterface(uint _fees) public onlyInterfaceProjectToken() {... */\n    tag_62:\n      tag_237\n      0x04\n      dup1\n      calldatasize\n      sub\n      0x20\n      dup2\n      lt\n      iszero\n      tag_238\n      jumpi\n      0x00\n      dup1\n      revert\n    tag_238:\n      dup2\n      add\n      swap1\n      dup1\n      dup1\n      calldataload\n      swap1\n      0x20\n      add\n      swap1\n      swap3\n      swap2\n      swap1\n      pop\n      pop\n      pop\n      tag_239\n      jump\t// in\n    tag_237:\n      stop\n        /* \"LiquidityToken.sol\":8936:9491  function getHodlRewards(address _user, uint _currentRewardPerShare1e18) public view returns(uint _hodlRewards) {... */\n    tag_63:\n      tag_240\n      0x04\n      dup1\n      calldatasize\n      sub\n      0x40\n      dup2\n      lt\n      iszero\n      tag_241\n      jumpi\n      0x00\n      dup1\n      revert\n    tag_241:\n      dup2\n      add\n      swap1\n      dup1\n      dup1\n      calldataload\n      0xffffffffffffffffffffffffffffffffffffffff\n      and\n      swap1\n      0x20\n      add\n      swap1\n      swap3\n      swap2\n      swap1\n      dup1\n      calldataload\n      swap1\n      0x20\n      add\n      swap1\n      swap3\n      swap2\n      swap1\n      pop\n      pop\n      pop\n      tag_242\n      jump\t// in\n    tag_240:\n      mload(0x40)\n      dup1\n      dup3\n      dup2\n      mstore\n      0x20\n      add\n      swap2\n      pop\n      pop\n      mload(0x40)\n      dup1\n      swap2\n      sub\n      swap1\n      return\n        /* \"LiquidityToken.sol\":726:760  uint public campaignStakingRewards */\n    tag_80:\n      sload(0x0a)\n      dup2\n      jump\t// out\n        /* \"https://github.com/OpenZeppelin/openzeppelin-contracts/blob/v3.4.2-solc-0.7/contracts/token/ERC20/ERC20.sol\":2153:2242   */\n    tag_82:\n        /* \"https://github.com/OpenZeppelin/openzeppelin-contracts/blob/v3.4.2-solc-0.7/contracts/token/ERC20/ERC20.sol\":2198:2211   */\n      0x60\n        /* \"https://github.com/OpenZeppelin/openzeppelin-contracts/blob/v3.4.2-solc-0.7/contracts/token/ERC20/ERC20.sol\":2230:2235   */\n      0x03\n        /* \"https://github.com/OpenZeppelin/openzeppelin-contracts/blob/v3.4.2-solc-0.7/contracts/token/ERC20/ERC20.sol\":2223:2235   */\n      dup1\n      sload\n      0x01\n      dup2\n      0x01\n      and\n      iszero\n      0x0100\n      mul\n      sub\n      and\n      0x02\n      swap1\n      div\n      dup1\n      0x1f\n      add\n      0x20\n      dup1\n      swap2\n      div\n      mul\n      0x20\n      add\n      mload(0x40)\n      swap1\n      dup2\n      add\n      0x40\n      mstore\n      dup1\n      swap3\n      swap2\n      swap1\n      dup2\n      dup2\n      mstore\n      0x20\n      add\n      dup3\n      dup1\n      sload\n      0x01\n      dup2\n      0x01\n      and\n      iszero\n      0x0100\n      mul\n      sub\n      and\n      0x02\n      swap1\n      div\n      dup1\n      iszero\n      tag_244\n      jumpi\n      dup1\n      0x1f\n      lt\n      tag_245\n      jumpi\n      0x0100\n      dup1\n      dup4\n      sload\n      div\n      mul\n      dup4\n      mstore\n      swap2\n      0x20\n      add\n      swap2\n      jump(tag_244)\n    tag_245:\n      dup3\n      add\n      swap2\n      swap1\n      0x00\n      mstore\n      keccak256(0x00, 0x20)\n      swap1\n    tag_246:\n      dup2\n      sload\n      dup2\n      mstore\n      swap1\n      0x01\n      add\n      swap1\n      0x20\n      add\n      dup1\n      dup4\n      gt\n      tag_246\n      jumpi\n      dup3\n      swap1\n      sub\n      0x1f\n      and\n      dup3\n      add\n      swap2\n    tag_244:\n      pop\n      pop\n      pop\n      pop\n      pop\n      swap1\n      pop\n        /* \"https://github.com/OpenZeppelin/openzeppelin-contracts/blob/v3.4.2-solc-0.7/contracts/token/ERC20/ERC20.sol\":2153:2242   */\n      swap1\n      jump\t// out\n        /* \"https://github.com/OpenZeppelin/openzeppelin-contracts/blob/v3.4.2-solc-0.7/contracts/token/ERC20/ERC20.sol\":4229:4395   */\n    tag_89:\n        /* \"https://github.com/OpenZeppelin/openzeppelin-contracts/blob/v3.4.2-solc-0.7/contracts/token/ERC20/ERC20.sol\":4312:4316   */\n      0x00\n        /* \"https://github.com/OpenZeppelin/openzeppelin-contracts/blob/v3.4.2-solc-0.7/contracts/token/ERC20/ERC20.sol\":4328:4367   */\n      tag_248\n        /* \"https://github.com/OpenZeppelin/openzeppelin-contracts/blob/v3.4.2-solc-0.7/contracts/token/ERC20/ERC20.sol\":4337:4349   */\n      tag_249\n        /* \"https://github.com/OpenZeppelin/openzeppelin-contracts/blob/v3.4.2-solc-0.7/contracts/token/ERC20/ERC20.sol\":4337:4347   */\n      tag_250\n        /* \"https://github.com/OpenZeppelin/openzeppelin-contracts/blob/v3.4.2-solc-0.7/contracts/token/ERC20/ERC20.sol\":4337:4349   */\n      jump\t// in\n    tag_249:\n        /* \"https://github.com/OpenZeppelin/openzeppelin-contracts/blob/v3.4.2-solc-0.7/contracts/token/ERC20/ERC20.sol\":4351:4358   */\n      dup5\n        /* \"https://github.com/OpenZeppelin/openzeppelin-contracts/blob/v3.4.2-solc-0.7/contracts/token/ERC20/ERC20.sol\":4360:4366   */\n      dup5\n        /* \"https://github.com/OpenZeppelin/openzeppelin-contracts/blob/v3.4.2-solc-0.7/contracts/token/ERC20/ERC20.sol\":4328:4336   */\n      tag_251\n        /* \"https://github.com/OpenZeppelin/openzeppelin-contracts/blob/v3.4.2-solc-0.7/contracts/token/ERC20/ERC20.sol\":4328:4367   */\n      jump\t// in\n    tag_248:\n        /* \"https://github.com/OpenZeppelin/openzeppelin-contracts/blob/v3.4.2-solc-0.7/contracts/token/ERC20/ERC20.sol\":4384:4388   */\n      0x01\n        /* \"https://github.com/OpenZeppelin/openzeppelin-contracts/blob/v3.4.2-solc-0.7/contracts/token/ERC20/ERC20.sol\":4377:4388   */\n      swap1\n      pop\n        /* \"https://github.com/OpenZeppelin/openzeppelin-contracts/blob/v3.4.2-solc-0.7/contracts/token/ERC20/ERC20.sol\":4229:4395   */\n      swap3\n      swap2\n      pop\n      pop\n      jump\t// out\n        /* \"LiquidityToken.sol\":1435:1470  uint public immutable maxStakingAPR */\n    tag_91:\n      immutable(\"0x5535a79acdae37c951fc0073cedf45a2f013afa77feb7c7f34ba275584224ebf\")\n      dup2\n      jump\t// out\n        /* \"https://github.com/OpenZeppelin/openzeppelin-contracts/blob/v3.4.2-solc-0.7/contracts/token/ERC20/ERC20.sol\":3220:3326   */\n    tag_93:\n        /* \"https://github.com/OpenZeppelin/openzeppelin-contracts/blob/v3.4.2-solc-0.7/contracts/token/ERC20/ERC20.sol\":3281:3288   */\n      0x00\n        /* \"https://github.com/OpenZeppelin/openzeppelin-contracts/blob/v3.4.2-solc-0.7/contracts/token/ERC20/ERC20.sol\":3307:3319   */\n      sload(0x02)\n        /* \"https://github.com/OpenZeppelin/openzeppelin-contracts/blob/v3.4.2-solc-0.7/contracts/token/ERC20/ERC20.sol\":3300:3319   */\n      swap1\n      pop\n        /* \"https://github.com/OpenZeppelin/openzeppelin-contracts/blob/v3.4.2-solc-0.7/contracts/token/ERC20/ERC20.sol\":3220:3326   */\n      swap1\n      jump\t// out\n        /* \"LiquidityToken.sol\":3789:3958  function ensureUserFunctionsAreNotDisabled() public view {... */\n    tag_95:\n        /* \"LiquidityToken.sol\":3895:3900  false */\n      0x00\n        /* \"LiquidityToken.sol\":3867:3900  areUserFunctionsDisabled == false */\n      iszero\n      iszero\n        /* \"LiquidityToken.sol\":3867:3891  areUserFunctionsDisabled */\n      0x11\n      0x00\n      swap1\n      sload\n      swap1\n      0x0100\n      exp\n      swap1\n      div\n      0xff\n      and\n        /* \"LiquidityToken.sol\":3867:3900  areUserFunctionsDisabled == false */\n      iszero\n      iszero\n      eq\n        /* \"LiquidityToken.sol\":3852:3953  require(... */\n      tag_254\n      jumpi\n      mload(0x40)\n      0x08c379a000000000000000000000000000000000000000000000000000000000\n      dup2\n      mstore\n      0x04\n      add\n      dup1\n      dup1\n      0x20\n      add\n      dup3\n      dup2\n      sub\n      dup3\n      mstore\n      0x23\n      dup2\n      mstore\n      0x20\n      add\n      dup1\n      data_8e91a5b1272f4e4f61e64b47d7c1a5143a07d7fd64ea1b240af506d9edc55eeb\n      0x23\n      swap2\n      codecopy\n      0x40\n      add\n      swap2\n      pop\n      pop\n      mload(0x40)\n      dup1\n      swap2\n      sub\n      swap1\n      revert\n    tag_254:\n        /* \"LiquidityToken.sol\":3789:3958  function ensureUserFunctionsAreNotDisabled() public view {... */\n      jump\t// out\n        /* \"https://github.com/OpenZeppelin/openzeppelin-contracts/blob/v3.4.2-solc-0.7/contracts/token/ERC20/ERC20.sol\":4862:5179   */\n    tag_98:\n        /* \"https://github.com/OpenZeppelin/openzeppelin-contracts/blob/v3.4.2-solc-0.7/contracts/token/ERC20/ERC20.sol\":4968:4972   */\n      0x00\n        /* \"https://github.com/OpenZeppelin/openzeppelin-contracts/blob/v3.4.2-solc-0.7/contracts/token/ERC20/ERC20.sol\":4984:5020   */\n      tag_256\n        /* \"https://github.com/OpenZeppelin/openzeppelin-contracts/blob/v3.4.2-solc-0.7/contracts/token/ERC20/ERC20.sol\":4994:5000   */\n      dup5\n        /* \"https://github.com/OpenZeppelin/openzeppelin-contracts/blob/v3.4.2-solc-0.7/contracts/token/ERC20/ERC20.sol\":5002:5011   */\n      dup5\n        /* \"https://github.com/OpenZeppelin/openzeppelin-contracts/blob/v3.4.2-solc-0.7/contracts/token/ERC20/ERC20.sol\":5013:5019   */\n      dup5\n        /* \"https://github.com/OpenZeppelin/openzeppelin-contracts/blob/v3.4.2-solc-0.7/contracts/token/ERC20/ERC20.sol\":4984:4993   */\n      tag_257\n        /* \"https://github.com/OpenZeppelin/openzeppelin-contracts/blob/v3.4.2-solc-0.7/contracts/token/ERC20/ERC20.sol\":4984:5020   */\n      jump\t// in\n    tag_256:\n        /* \"https://github.com/OpenZeppelin/openzeppelin-contracts/blob/v3.4.2-solc-0.7/contracts/token/ERC20/ERC20.sol\":5030:5151   */\n      tag_258\n        /* \"https://github.com/OpenZeppelin/openzeppelin-contracts/blob/v3.4.2-solc-0.7/contracts/token/ERC20/ERC20.sol\":5039:5045   */\n      dup5\n        /* \"https://github.com/OpenZeppelin/openzeppelin-contracts/blob/v3.4.2-solc-0.7/contracts/token/ERC20/ERC20.sol\":5047:5059   */\n      tag_259\n        /* \"https://github.com/OpenZeppelin/openzeppelin-contracts/blob/v3.4.2-solc-0.7/contracts/token/ERC20/ERC20.sol\":5047:5057   */\n      tag_250\n        /* \"https://github.com/OpenZeppelin/openzeppelin-contracts/blob/v3.4.2-solc-0.7/contracts/token/ERC20/ERC20.sol\":5047:5059   */\n      jump\t// in\n    tag_259:\n        /* \"https://github.com/OpenZeppelin/openzeppelin-contracts/blob/v3.4.2-solc-0.7/contracts/token/ERC20/ERC20.sol\":5061:5150   */\n      tag_260\n        /* \"https://github.com/OpenZeppelin/openzeppelin-contracts/blob/v3.4.2-solc-0.7/contracts/token/ERC20/ERC20.sol\":5099:5105   */\n      dup6\n        /* \"https://github.com/OpenZeppelin/openzeppelin-contracts/blob/v3.4.2-solc-0.7/contracts/token/ERC20/ERC20.sol\":5061:5150   */\n      mload(0x40)\n      dup1\n      0x60\n      add\n      0x40\n      mstore\n      dup1\n      0x28\n      dup2\n      mstore\n      0x20\n      add\n      data_974d1b4421da69cc60b481194f0dad36a5bb4e23da810da7a7fb30cdba178330\n      0x28\n      swap2\n      codecopy\n        /* \"https://github.com/OpenZeppelin/openzeppelin-contracts/blob/v3.4.2-solc-0.7/contracts/token/ERC20/ERC20.sol\":5061:5072   */\n      0x01\n        /* \"https://github.com/OpenZeppelin/openzeppelin-contracts/blob/v3.4.2-solc-0.7/contracts/token/ERC20/ERC20.sol\":5061:5080   */\n      0x00\n        /* \"https://github.com/OpenZeppelin/openzeppelin-contracts/blob/v3.4.2-solc-0.7/contracts/token/ERC20/ERC20.sol\":5073:5079   */\n      dup12\n        /* \"https://github.com/OpenZeppelin/openzeppelin-contracts/blob/v3.4.2-solc-0.7/contracts/token/ERC20/ERC20.sol\":5061:5080   */\n      0xffffffffffffffffffffffffffffffffffffffff\n      and\n      0xffffffffffffffffffffffffffffffffffffffff\n      and\n      dup2\n      mstore\n      0x20\n      add\n      swap1\n      dup2\n      mstore\n      0x20\n      add\n      0x00\n      keccak256\n        /* \"https://github.com/OpenZeppelin/openzeppelin-contracts/blob/v3.4.2-solc-0.7/contracts/token/ERC20/ERC20.sol\":5061:5094   */\n      0x00\n        /* \"https://github.com/OpenZeppelin/openzeppelin-contracts/blob/v3.4.2-solc-0.7/contracts/token/ERC20/ERC20.sol\":5081:5093   */\n      tag_261\n        /* \"https://github.com/OpenZeppelin/openzeppelin-contracts/blob/v3.4.2-solc-0.7/contracts/token/ERC20/ERC20.sol\":5081:5091   */\n      tag_250\n        /* \"https://github.com/OpenZeppelin/openzeppelin-contracts/blob/v3.4.2-solc-0.7/contracts/token/ERC20/ERC20.sol\":5081:5093   */\n      jump\t// in\n    tag_261:\n        /* \"https://github.com/OpenZeppelin/openzeppelin-contracts/blob/v3.4.2-solc-0.7/contracts/token/ERC20/ERC20.sol\":5061:5094   */\n      0xffffffffffffffffffffffffffffffffffffffff\n      and\n      0xffffffffffffffffffffffffffffffffffffffff\n      and\n      dup2\n      mstore\n      0x20\n      add\n      swap1\n      dup2\n      mstore\n      0x20\n      add\n      0x00\n      keccak256\n      sload\n        /* \"https://github.com/OpenZeppelin/openzeppelin-contracts/blob/v3.4.2-solc-0.7/contracts/token/ERC20/ERC20.sol\":5061:5098   */\n      tag_262\n      swap1\n        /* \"https://github.com/OpenZeppelin/openzeppelin-contracts/blob/v3.4.2-solc-0.7/contracts/token/ERC20/ERC20.sol\":5061:5150   */\n      swap3\n      swap2\n      swap1\n      0xffffffff\n      and\n      jump\t// in\n    tag_260:\n        /* \"https://github.com/OpenZeppelin/openzeppelin-contracts/blob/v3.4.2-solc-0.7/contracts/token/ERC20/ERC20.sol\":5030:5038   */\n      tag_251\n        /* \"https://github.com/OpenZeppelin/openzeppelin-contracts/blob/v3.4.2-solc-0.7/contracts/token/ERC20/ERC20.sol\":5030:5151   */\n      jump\t// in\n    tag_258:\n        /* \"https://github.com/OpenZeppelin/openzeppelin-contracts/blob/v3.4.2-solc-0.7/contracts/token/ERC20/ERC20.sol\":5168:5172   */\n      0x01\n        /* \"https://github.com/OpenZeppelin/openzeppelin-contracts/blob/v3.4.2-solc-0.7/contracts/token/ERC20/ERC20.sol\":5161:5172   */\n      swap1\n      pop\n        /* \"https://github.com/OpenZeppelin/openzeppelin-contracts/blob/v3.4.2-solc-0.7/contracts/token/ERC20/ERC20.sol\":4862:5179   */\n      swap4\n      swap3\n      pop\n      pop\n      pop\n      jump\t// out\n        /* \"LiquidityToken.sol\":1129:1183  uint public immutable fractionInitialUnlockPerThousand */\n    tag_100:\n      immutable(\"0xab84dbc5b0ca334e1118eb2ddabcfcb98dc8468d6c5849e7dd459cf23dceebe3\")\n      dup2\n      jump\t// out\n        /* \"LiquidityToken.sol\":1709:1762  mapping (address => LiquiToken) public userLiquiToken */\n    tag_103:\n      mstore(0x20, 0x13)\n      dup1\n      0x00\n      mstore\n      keccak256(0x00, 0x40)\n      0x00\n      swap2\n      pop\n      swap1\n      pop\n      dup1\n      0x00\n      add\n      sload\n      swap1\n      dup1\n      0x01\n      add\n      sload\n      swap1\n      dup1\n      0x02\n      add\n      sload\n      swap1\n      pop\n      dup4\n      jump\t// out\n        /* \"LiquidityToken.sol\":14798:14993  function getUserDateOfPartiallyChargedToken(address _user) public view... */\n    tag_106:\n        /* \"LiquidityToken.sol\":14881:14909  uint _dateOfPartiallyCharged */\n      0x00\n        /* \"LiquidityToken.sol\":14944:14958  userLiquiToken */\n      0x13\n        /* \"LiquidityToken.sol\":14944:14965  userLiquiToken[_user] */\n      0x00\n        /* \"LiquidityToken.sol\":14959:14964  _user */\n      dup4\n        /* \"LiquidityToken.sol\":14944:14965  userLiquiToken[_user] */\n      0xffffffffffffffffffffffffffffffffffffffff\n      and\n      0xffffffffffffffffffffffffffffffffffffffff\n      and\n      dup2\n      mstore\n      0x20\n      add\n      swap1\n      dup2\n      mstore\n      0x20\n      add\n      0x00\n      keccak256\n        /* \"LiquidityToken.sol\":14944:14988  userLiquiToken[_user].dateOfPartiallyCharged */\n      0x02\n      add\n      sload\n        /* \"LiquidityToken.sol\":14918:14988  _dateOfPartiallyCharged = userLiquiToken[_user].dateOfPartiallyCharged */\n      swap1\n      pop\n        /* \"LiquidityToken.sol\":14798:14993  function getUserDateOfPartiallyChargedToken(address _user) public view... */\n      swap2\n      swap1\n      pop\n      jump\t// out\n        /* \"https://github.com/OpenZeppelin/openzeppelin-contracts/blob/v3.4.2-solc-0.7/contracts/token/ERC20/ERC20.sol\":3071:3160   */\n    tag_108:\n        /* \"https://github.com/OpenZeppelin/openzeppelin-contracts/blob/v3.4.2-solc-0.7/contracts/token/ERC20/ERC20.sol\":3120:3125   */\n      0x00\n        /* \"https://github.com/OpenZeppelin/openzeppelin-contracts/blob/v3.4.2-solc-0.7/contracts/token/ERC20/ERC20.sol\":3144:3153   */\n      0x05\n      0x00\n      swap1\n      sload\n      swap1\n      0x0100\n      exp\n      swap1\n      div\n      0xff\n      and\n        /* \"https://github.com/OpenZeppelin/openzeppelin-contracts/blob/v3.4.2-solc-0.7/contracts/token/ERC20/ERC20.sol\":3137:3153   */\n      swap1\n      pop\n        /* \"https://github.com/OpenZeppelin/openzeppelin-contracts/blob/v3.4.2-solc-0.7/contracts/token/ERC20/ERC20.sol\":3071:3160   */\n      swap1\n      jump\t// out\n        /* \"https://github.com/OpenZeppelin/openzeppelin-contracts/blob/v3.4.2-solc-0.7/contracts/token/ERC20/ERC20.sol\":5574:5789   */\n    tag_111:\n        /* \"https://github.com/OpenZeppelin/openzeppelin-contracts/blob/v3.4.2-solc-0.7/contracts/token/ERC20/ERC20.sol\":5662:5666   */\n      0x00\n        /* \"https://github.com/OpenZeppelin/openzeppelin-contracts/blob/v3.4.2-solc-0.7/contracts/token/ERC20/ERC20.sol\":5678:5761   */\n      tag_266\n        /* \"https://github.com/OpenZeppelin/openzeppelin-contracts/blob/v3.4.2-solc-0.7/contracts/token/ERC20/ERC20.sol\":5687:5699   */\n      tag_267\n        /* \"https://github.com/OpenZeppelin/openzeppelin-contracts/blob/v3.4.2-solc-0.7/contracts/token/ERC20/ERC20.sol\":5687:5697   */\n      tag_250\n        /* \"https://github.com/OpenZeppelin/openzeppelin-contracts/blob/v3.4.2-solc-0.7/contracts/token/ERC20/ERC20.sol\":5687:5699   */\n      jump\t// in\n    tag_267:\n        /* \"https://github.com/OpenZeppelin/openzeppelin-contracts/blob/v3.4.2-solc-0.7/contracts/token/ERC20/ERC20.sol\":5701:5708   */\n      dup5\n        /* \"https://github.com/OpenZeppelin/openzeppelin-contracts/blob/v3.4.2-solc-0.7/contracts/token/ERC20/ERC20.sol\":5710:5760   */\n      tag_268\n        /* \"https://github.com/OpenZeppelin/openzeppelin-contracts/blob/v3.4.2-solc-0.7/contracts/token/ERC20/ERC20.sol\":5749:5759   */\n      dup6\n        /* \"https://github.com/OpenZeppelin/openzeppelin-contracts/blob/v3.4.2-solc-0.7/contracts/token/ERC20/ERC20.sol\":5710:5721   */\n      0x01\n        /* \"https://github.com/OpenZeppelin/openzeppelin-contracts/blob/v3.4.2-solc-0.7/contracts/token/ERC20/ERC20.sol\":5710:5735   */\n      0x00\n        /* \"https://github.com/OpenZeppelin/openzeppelin-contracts/blob/v3.4.2-solc-0.7/contracts/token/ERC20/ERC20.sol\":5722:5734   */\n      tag_269\n        /* \"https://github.com/OpenZeppelin/openzeppelin-contracts/blob/v3.4.2-solc-0.7/contracts/token/ERC20/ERC20.sol\":5722:5732   */\n      tag_250\n        /* \"https://github.com/OpenZeppelin/openzeppelin-contracts/blob/v3.4.2-solc-0.7/contracts/token/ERC20/ERC20.sol\":5722:5734   */\n      jump\t// in\n    tag_269:\n        /* \"https://github.com/OpenZeppelin/openzeppelin-contracts/blob/v3.4.2-solc-0.7/contracts/token/ERC20/ERC20.sol\":5710:5735   */\n      0xffffffffffffffffffffffffffffffffffffffff\n      and\n      0xffffffffffffffffffffffffffffffffffffffff\n      and\n      dup2\n      mstore\n      0x20\n      add\n      swap1\n      dup2\n      mstore\n      0x20\n      add\n      0x00\n      keccak256\n        /* \"https://github.com/OpenZeppelin/openzeppelin-contracts/blob/v3.4.2-solc-0.7/contracts/token/ERC20/ERC20.sol\":5710:5744   */\n      0x00\n        /* \"https://github.com/OpenZeppelin/openzeppelin-contracts/blob/v3.4.2-solc-0.7/contracts/token/ERC20/ERC20.sol\":5736:5743   */\n      dup10\n        /* \"https://github.com/OpenZeppelin/openzeppelin-contracts/blob/v3.4.2-solc-0.7/contracts/token/ERC20/ERC20.sol\":5710:5744   */\n      0xffffffffffffffffffffffffffffffffffffffff\n      and\n      0xffffffffffffffffffffffffffffffffffffffff\n      and\n      dup2\n      mstore\n      0x20\n      add\n      swap1\n      dup2\n      mstore\n      0x20\n      add\n      0x00\n      keccak256\n      sload\n        /* \"https://github.com/OpenZeppelin/openzeppelin-contracts/blob/v3.4.2-solc-0.7/contracts/token/ERC20/ERC20.sol\":5710:5748   */\n      tag_270\n      swap1\n        /* \"https://github.com/OpenZeppelin/openzeppelin-contracts/blob/v3.4.2-solc-0.7/contracts/token/ERC20/ERC20.sol\":5710:5760   */\n      swap2\n      swap1\n      0xffffffff\n      and\n      jump\t// in\n    tag_268:\n        /* \"https://github.com/OpenZeppelin/openzeppelin-contracts/blob/v3.4.2-solc-0.7/contracts/token/ERC20/ERC20.sol\":5678:5686   */\n      tag_251\n        /* \"https://github.com/OpenZeppelin/openzeppelin-contracts/blob/v3.4.2-solc-0.7/contracts/token/ERC20/ERC20.sol\":5678:5761   */\n      jump\t// in\n    tag_266:\n        /* \"https://github.com/OpenZeppelin/openzeppelin-contracts/blob/v3.4.2-solc-0.7/contracts/token/ERC20/ERC20.sol\":5778:5782   */\n      0x01\n        /* \"https://github.com/OpenZeppelin/openzeppelin-contracts/blob/v3.4.2-solc-0.7/contracts/token/ERC20/ERC20.sol\":5771:5782   */\n      swap1\n      pop\n        /* \"https://github.com/OpenZeppelin/openzeppelin-contracts/blob/v3.4.2-solc-0.7/contracts/token/ERC20/ERC20.sol\":5574:5789   */\n      swap3\n      swap2\n      pop\n      pop\n      jump\t// out\n        /* \"LiquidityToken.sol\":523:573  InterfaceProjectToken public interfaceProjectToken */\n    tag_113:\n      0x06\n      0x00\n      swap1\n      sload\n      swap1\n      0x0100\n      exp\n      swap1\n      div\n      0xffffffffffffffffffffffffffffffffffffffff\n      and\n      dup2\n      jump\t// out\n        /* \"LiquidityToken.sol\":1187:1222  uint public immutable durationCliff */\n    tag_115:\n      immutable(\"0x56439164e7a29c9275561528ce4239bd6e9b8004e138b979e363e757abc90f0a\")\n      dup2\n      jump\t// out\n        /* \"LiquidityToken.sol\":6577:7623  function withdrawLT(uint _value) public {... */\n    tag_118:\n        /* \"LiquidityToken.sol\":6628:6663  ensureUserFunctionsAreNotDisabled() */\n      tag_272\n        /* \"LiquidityToken.sol\":6628:6661  ensureUserFunctionsAreNotDisabled */\n      tag_95\n        /* \"LiquidityToken.sol\":6628:6663  ensureUserFunctionsAreNotDisabled() */\n      jump\t// in\n    tag_272:\n        /* \"LiquidityToken.sol\":6699:6713  userLiquiToken */\n      0x13\n        /* \"LiquidityToken.sol\":6699:6725  userLiquiToken[msg.sender] */\n      0x00\n        /* \"LiquidityToken.sol\":6714:6724  msg.sender */\n      caller\n        /* \"LiquidityToken.sol\":6699:6725  userLiquiToken[msg.sender] */\n      0xffffffffffffffffffffffffffffffffffffffff\n      and\n      0xffffffffffffffffffffffffffffffffffffffff\n      and\n      dup2\n      mstore\n      0x20\n      add\n      swap1\n      dup2\n      mstore\n      0x20\n      add\n      0x00\n      keccak256\n        /* \"LiquidityToken.sol\":6699:6745  userLiquiToken[msg.sender].fullyChargedBalance */\n      0x00\n      add\n      sload\n        /* \"LiquidityToken.sol\":6689:6695  _value */\n      dup2\n        /* \"LiquidityToken.sol\":6689:6745  _value <= userLiquiToken[msg.sender].fullyChargedBalance */\n      gt\n      iszero\n        /* \"LiquidityToken.sol\":6674:6788  require(... */\n      tag_273\n      jumpi\n      mload(0x40)\n      0x08c379a000000000000000000000000000000000000000000000000000000000\n      dup2\n      mstore\n      0x04\n      add\n      dup1\n      dup1\n      0x20\n      add\n      dup3\n      dup2\n      sub\n      dup3\n      mstore\n      0x20\n      dup2\n      mstore\n      0x20\n      add\n      dup1\n      0x416d6f756e74206578636565647320617661696c61626c652062616c616e6365\n      dup2\n      mstore\n      pop\n      0x20\n      add\n      swap2\n      pop\n      pop\n      mload(0x40)\n      dup1\n      swap2\n      sub\n      swap1\n      revert\n    tag_273:\n        /* \"LiquidityToken.sol\":6795:6812  uint _hodlRewards */\n      0x00\n        /* \"LiquidityToken.sol\":6815:6857  updateStakingAndGetHodlRewards(msg.sender) */\n      tag_274\n        /* \"LiquidityToken.sol\":6846:6856  msg.sender */\n      caller\n        /* \"LiquidityToken.sol\":6815:6845  updateStakingAndGetHodlRewards */\n      tag_275\n        /* \"LiquidityToken.sol\":6815:6857  updateStakingAndGetHodlRewards(msg.sender) */\n      jump\t// in\n    tag_274:\n        /* \"LiquidityToken.sol\":6795:6857  uint _hodlRewards = updateStakingAndGetHodlRewards(msg.sender) */\n      swap1\n      pop\n        /* \"LiquidityToken.sol\":6863:6873  uint _fees */\n      0x00\n        /* \"LiquidityToken.sol\":6929:6987  userLiquiToken[msg.sender].fullyChargedBalance.sub(_value) */\n      tag_276\n        /* \"LiquidityToken.sol\":6980:6986  _value */\n      dup4\n        /* \"LiquidityToken.sol\":6929:6943  userLiquiToken */\n      0x13\n        /* \"LiquidityToken.sol\":6929:6955  userLiquiToken[msg.sender] */\n      0x00\n        /* \"LiquidityToken.sol\":6944:6954  msg.sender */\n      caller\n        /* \"LiquidityToken.sol\":6929:6955  userLiquiToken[msg.sender] */\n      0xffffffffffffffffffffffffffffffffffffffff\n      and\n      0xffffffffffffffffffffffffffffffffffffffff\n      and\n      dup2\n      mstore\n      0x20\n      add\n      swap1\n      dup2\n      mstore\n      0x20\n      add\n      0x00\n      keccak256\n        /* \"LiquidityToken.sol\":6929:6975  userLiquiToken[msg.sender].fullyChargedBalance */\n      0x00\n      add\n      sload\n        /* \"LiquidityToken.sol\":6929:6979  userLiquiToken[msg.sender].fullyChargedBalance.sub */\n      tag_277\n      swap1\n        /* \"LiquidityToken.sol\":6929:6987  userLiquiToken[msg.sender].fullyChargedBalance.sub(_value) */\n      swap2\n      swap1\n      0xffffffff\n      and\n      jump\t// in\n    tag_276:\n        /* \"LiquidityToken.sol\":6880:6894  userLiquiToken */\n      0x13\n        /* \"LiquidityToken.sol\":6880:6906  userLiquiToken[msg.sender] */\n      0x00\n        /* \"LiquidityToken.sol\":6895:6905  msg.sender */\n      caller\n        /* \"LiquidityToken.sol\":6880:6906  userLiquiToken[msg.sender] */\n      0xffffffffffffffffffffffffffffffffffffffff\n      and\n      0xffffffffffffffffffffffffffffffffffffffff\n      and\n      dup2\n      mstore\n      0x20\n      add\n      swap1\n      dup2\n      mstore\n      0x20\n      add\n      0x00\n      keccak256\n        /* \"LiquidityToken.sol\":6880:6926  userLiquiToken[msg.sender].fullyChargedBalance */\n      0x00\n      add\n        /* \"LiquidityToken.sol\":6880:6987  userLiquiToken[msg.sender].fullyChargedBalance = userLiquiToken[msg.sender].fullyChargedBalance.sub(_value) */\n      dup2\n      swap1\n      sstore\n      pop\n        /* \"LiquidityToken.sol\":7004:7024  stakedLT.sub(_value) */\n      tag_278\n        /* \"LiquidityToken.sol\":7017:7023  _value */\n      dup4\n        /* \"LiquidityToken.sol\":7004:7012  stakedLT */\n      sload(0x0e)\n        /* \"LiquidityToken.sol\":7004:7016  stakedLT.sub */\n      tag_277\n      swap1\n        /* \"LiquidityToken.sol\":7004:7024  stakedLT.sub(_value) */\n      swap2\n      swap1\n      0xffffffff\n      and\n      jump\t// in\n    tag_278:\n        /* \"LiquidityToken.sol\":6993:7001  stakedLT */\n      0x0e\n        /* \"LiquidityToken.sol\":6993:7024  stakedLT = stakedLT.sub(_value) */\n      dup2\n      swap1\n      sstore\n      pop\n        /* \"LiquidityToken.sol\":7050:7051  0 */\n      0x00\n        /* \"LiquidityToken.sol\":7039:7047  stakedLT */\n      sload(0x0e)\n        /* \"LiquidityToken.sol\":7039:7051  stakedLT > 0 */\n      gt\n        /* \"LiquidityToken.sol\":7035:7119  if (stakedLT > 0) _fees = _value.mul(withdrawFeesPerThousandForLT).div(multiplier1K) */\n      iszero\n      tag_279\n      jumpi\n        /* \"LiquidityToken.sol\":7061:7119  _value.mul(withdrawFeesPerThousandForLT).div(multiplier1K) */\n      tag_280\n        /* \"LiquidityToken.sol\":614:618  1000 */\n      0x03e8\n        /* \"LiquidityToken.sol\":7061:7101  _value.mul(withdrawFeesPerThousandForLT) */\n      tag_281\n        /* \"LiquidityToken.sol\":7072:7100  withdrawFeesPerThousandForLT */\n      sload(0x10)\n        /* \"LiquidityToken.sol\":7061:7067  _value */\n      dup7\n        /* \"LiquidityToken.sol\":7061:7071  _value.mul */\n      tag_282\n      swap1\n        /* \"LiquidityToken.sol\":7061:7101  _value.mul(withdrawFeesPerThousandForLT) */\n      swap2\n      swap1\n      0xffffffff\n      and\n      jump\t// in\n    tag_281:\n        /* \"LiquidityToken.sol\":7061:7105  _value.mul(withdrawFeesPerThousandForLT).div */\n      tag_283\n      swap1\n        /* \"LiquidityToken.sol\":7061:7119  _value.mul(withdrawFeesPerThousandForLT).div(multiplier1K) */\n      swap2\n      swap1\n      0xffffffff\n      and\n      jump\t// in\n    tag_280:\n        /* \"LiquidityToken.sol\":7053:7119  _fees = _value.mul(withdrawFeesPerThousandForLT).div(multiplier1K) */\n      swap1\n      pop\n        /* \"LiquidityToken.sol\":7035:7119  if (stakedLT > 0) _fees = _value.mul(withdrawFeesPerThousandForLT).div(multiplier1K) */\n    tag_279:\n        /* \"LiquidityToken.sol\":7126:7142  uint _valueToGet */\n      0x00\n        /* \"LiquidityToken.sol\":7145:7180  _value.add(_hodlRewards).sub(_fees) */\n      tag_284\n        /* \"LiquidityToken.sol\":7174:7179  _fees */\n      dup3\n        /* \"LiquidityToken.sol\":7145:7169  _value.add(_hodlRewards) */\n      tag_285\n        /* \"LiquidityToken.sol\":7156:7168  _hodlRewards */\n      dup6\n        /* \"LiquidityToken.sol\":7145:7151  _value */\n      dup8\n        /* \"LiquidityToken.sol\":7145:7155  _value.add */\n      tag_270\n      swap1\n        /* \"LiquidityToken.sol\":7145:7169  _value.add(_hodlRewards) */\n      swap2\n      swap1\n      0xffffffff\n      and\n      jump\t// in\n    tag_285:\n        /* \"LiquidityToken.sol\":7145:7173  _value.add(_hodlRewards).sub */\n      tag_277\n      swap1\n        /* \"LiquidityToken.sol\":7145:7180  _value.add(_hodlRewards).sub(_fees) */\n      swap2\n      swap1\n      0xffffffff\n      and\n      jump\t// in\n    tag_284:\n        /* \"LiquidityToken.sol\":7126:7180  uint _valueToGet = _value.add(_hodlRewards).sub(_fees) */\n      swap1\n      pop\n        /* \"LiquidityToken.sol\":7186:7235  _transfer(address(this), msg.sender, _valueToGet) */\n      tag_286\n        /* \"LiquidityToken.sol\":7204:7208  this */\n      address\n        /* \"LiquidityToken.sol\":7211:7221  msg.sender */\n      caller\n        /* \"LiquidityToken.sol\":7223:7234  _valueToGet */\n      dup4\n        /* \"LiquidityToken.sol\":7186:7195  _transfer */\n      tag_257\n        /* \"LiquidityToken.sol\":7186:7235  _transfer(address(this), msg.sender, _valueToGet) */\n      jump\t// in\n    tag_286:\n        /* \"LiquidityToken.sol\":7246:7271  uint _feesToRewardHodlers */\n      0x00\n        /* \"LiquidityToken.sol\":7274:7338  _fees.mul(ratioFeesToRewardHodlersPerThousand).div(multiplier1K) */\n      tag_287\n        /* \"LiquidityToken.sol\":614:618  1000 */\n      0x03e8\n        /* \"LiquidityToken.sol\":7274:7320  _fees.mul(ratioFeesToRewardHodlersPerThousand) */\n      tag_288\n        /* \"LiquidityToken.sol\":7284:7319  ratioFeesToRewardHodlersPerThousand */\n      sload(0x0c)\n        /* \"LiquidityToken.sol\":7274:7279  _fees */\n      dup7\n        /* \"LiquidityToken.sol\":7274:7283  _fees.mul */\n      tag_282\n      swap1\n        /* \"LiquidityToken.sol\":7274:7320  _fees.mul(ratioFeesToRewardHodlersPerThousand) */\n      swap2\n      swap1\n      0xffffffff\n      and\n      jump\t// in\n    tag_288:\n        /* \"LiquidityToken.sol\":7274:7324  _fees.mul(ratioFeesToRewardHodlersPerThousand).div */\n      tag_283\n      swap1\n        /* \"LiquidityToken.sol\":7274:7338  _fees.mul(ratioFeesToRewardHodlersPerThousand).div(multiplier1K) */\n      swap2\n      swap1\n      0xffffffff\n      and\n      jump\t// in\n    tag_287:\n        /* \"LiquidityToken.sol\":7246:7338  uint _feesToRewardHodlers = _fees.mul(ratioFeesToRewardHodlersPerThousand).div(multiplier1K) */\n      swap1\n      pop\n        /* \"LiquidityToken.sol\":7350:7435  _transfer(... */\n      tag_289\n        /* \"LiquidityToken.sol\":7375:7379  this */\n      address\n        /* \"LiquidityToken.sol\":7382:7386  this */\n      address\n        /* \"LiquidityToken.sol\":7382:7392  this.owner */\n      0xffffffffffffffffffffffffffffffffffffffff\n      and\n      0x8da5cb5b\n        /* \"LiquidityToken.sol\":7382:7394  this.owner() */\n      mload(0x40)\n      dup2\n      0xffffffff\n      and\n      0xe0\n      shl\n      dup2\n      mstore\n      0x04\n      add\n      0x20\n      mload(0x40)\n      dup1\n      dup4\n      sub\n      dup2\n      dup7\n      dup1\n      extcodesize\n      iszero\n      dup1\n      iszero\n      tag_290\n      jumpi\n      0x00\n      dup1\n      revert\n    tag_290:\n      pop\n      gas\n      staticcall\n      iszero\n      dup1\n      iszero\n      tag_292\n      jumpi\n      returndatasize\n      0x00\n      dup1\n      returndatacopy\n      revert(0x00, returndatasize)\n    tag_292:\n      pop\n      pop\n      pop\n      pop\n      mload(0x40)\n      returndatasize\n      0x20\n      dup2\n      lt\n      iszero\n      tag_293\n      jumpi\n      0x00\n      dup1\n      revert\n    tag_293:\n      dup2\n      add\n      swap1\n      dup1\n      dup1\n      mload\n      swap1\n      0x20\n      add\n      swap1\n      swap3\n      swap2\n      swap1\n      pop\n      pop\n      pop\n        /* \"LiquidityToken.sol\":7396:7427  _fees.sub(_feesToRewardHodlers) */\n      tag_294\n        /* \"LiquidityToken.sol\":7406:7426  _feesToRewardHodlers */\n      dup5\n        /* \"LiquidityToken.sol\":7396:7401  _fees */\n      dup8\n        /* \"LiquidityToken.sol\":7396:7405  _fees.sub */\n      tag_277\n      swap1\n        /* \"LiquidityToken.sol\":7396:7427  _fees.sub(_feesToRewardHodlers) */\n      swap2\n      swap1\n      0xffffffff\n      and\n      jump\t// in\n    tag_294:\n        /* \"LiquidityToken.sol\":7350:7359  _transfer */\n      tag_257\n        /* \"LiquidityToken.sol\":7350:7435  _transfer(... */\n      jump\t// in\n    tag_289:\n        /* \"LiquidityToken.sol\":7470:7471  0 */\n      0x00\n        /* \"LiquidityToken.sol\":7447:7467  _feesToRewardHodlers */\n      dup2\n        /* \"LiquidityToken.sol\":7447:7471  _feesToRewardHodlers > 0 */\n      gt\n        /* \"LiquidityToken.sol\":7443:7524  if (_feesToRewardHodlers > 0) updateRewardsAfterFeesPayment(_feesToRewardHodlers) */\n      iszero\n      tag_295\n      jumpi\n        /* \"LiquidityToken.sol\":7473:7524  updateRewardsAfterFeesPayment(_feesToRewardHodlers) */\n      tag_296\n        /* \"LiquidityToken.sol\":7503:7523  _feesToRewardHodlers */\n      dup2\n        /* \"LiquidityToken.sol\":7473:7502  updateRewardsAfterFeesPayment */\n      tag_297\n        /* \"LiquidityToken.sol\":7473:7524  updateRewardsAfterFeesPayment(_feesToRewardHodlers) */\n      jump\t// in\n    tag_296:\n        /* \"LiquidityToken.sol\":7443:7524  if (_feesToRewardHodlers > 0) updateRewardsAfterFeesPayment(_feesToRewardHodlers) */\n    tag_295:\n        /* \"LiquidityToken.sol\":7540:7618  LTReceived(msg.sender, _valueToGet, _fees, _feesToRewardHodlers, _hodlRewards) */\n      0x33ef926b7771df44fd5bf5a690410374540aa634051af1e3a6dd2f67c94a18f1\n        /* \"LiquidityToken.sol\":7551:7561  msg.sender */\n      caller\n        /* \"LiquidityToken.sol\":7563:7574  _valueToGet */\n      dup4\n        /* \"LiquidityToken.sol\":7576:7581  _fees */\n      dup6\n        /* \"LiquidityToken.sol\":7583:7603  _feesToRewardHodlers */\n      dup5\n        /* \"LiquidityToken.sol\":7605:7617  _hodlRewards */\n      dup9\n        /* \"LiquidityToken.sol\":7540:7618  LTReceived(msg.sender, _valueToGet, _fees, _feesToRewardHodlers, _hodlRewards) */\n      mload(0x40)\n      dup1\n      dup7\n      0xffffffffffffffffffffffffffffffffffffffff\n      and\n      dup2\n      mstore\n      0x20\n      add\n      dup6\n      dup2\n      mstore\n      0x20\n      add\n      dup5\n      dup2\n      mstore\n      0x20\n      add\n      dup4\n      dup2\n      mstore\n      0x20\n      add\n      dup3\n      dup2\n      mstore\n      0x20\n      add\n      swap6\n      pop\n      pop\n      pop\n      pop\n      pop\n      pop\n      mload(0x40)\n      dup1\n      swap2\n      sub\n      swap1\n      log1\n        /* \"LiquidityToken.sol\":6577:7623  function withdrawLT(uint _value) public {... */\n      pop\n      pop\n      pop\n      pop\n      pop\n      jump\t// out\n        /* \"LiquidityToken.sol\":4331:4434  function lockInterfaceProjectToken() public onlyOwner() {... */\n    tag_120:\n        /* \"https://github.com/OpenZeppelin/openzeppelin-contracts/blob/v3.4.2-solc-0.7/contracts/access/Ownable.sol\":1291:1303   */\n      tag_299\n        /* \"https://github.com/OpenZeppelin/openzeppelin-contracts/blob/v3.4.2-solc-0.7/contracts/access/Ownable.sol\":1291:1301   */\n      tag_250\n        /* \"https://github.com/OpenZeppelin/openzeppelin-contracts/blob/v3.4.2-solc-0.7/contracts/access/Ownable.sol\":1291:1303   */\n      jump\t// in\n    tag_299:\n        /* \"https://github.com/OpenZeppelin/openzeppelin-contracts/blob/v3.4.2-solc-0.7/contracts/access/Ownable.sol\":1280:1303   */\n      0xffffffffffffffffffffffffffffffffffffffff\n      and\n        /* \"https://github.com/OpenZeppelin/openzeppelin-contracts/blob/v3.4.2-solc-0.7/contracts/access/Ownable.sol\":1280:1287   */\n      tag_300\n        /* \"https://github.com/OpenZeppelin/openzeppelin-contracts/blob/v3.4.2-solc-0.7/contracts/access/Ownable.sol\":1280:1285   */\n      tag_166\n        /* \"https://github.com/OpenZeppelin/openzeppelin-contracts/blob/v3.4.2-solc-0.7/contracts/access/Ownable.sol\":1280:1287   */\n      jump\t// in\n    tag_300:\n        /* \"https://github.com/OpenZeppelin/openzeppelin-contracts/blob/v3.4.2-solc-0.7/contracts/access/Ownable.sol\":1280:1303   */\n      0xffffffffffffffffffffffffffffffffffffffff\n      and\n      eq\n        /* \"https://github.com/OpenZeppelin/openzeppelin-contracts/blob/v3.4.2-solc-0.7/contracts/access/Ownable.sol\":1272:1340   */\n      tag_301\n      jumpi\n      mload(0x40)\n      0x08c379a000000000000000000000000000000000000000000000000000000000\n      dup2\n      mstore\n      0x04\n      add\n      dup1\n      dup1\n      0x20\n      add\n      dup3\n      dup2\n      sub\n      dup3\n      mstore\n      0x20\n      dup2\n      mstore\n      0x20\n      add\n      dup1\n      0x4f776e61626c653a2063616c6c6572206973206e6f7420746865206f776e6572\n      dup2\n      mstore\n      pop\n      0x20\n      add\n      swap2\n      pop\n      pop\n      mload(0x40)\n      dup1\n      swap2\n      sub\n      swap1\n      revert\n    tag_301:\n        /* \"LiquidityToken.sol\":4425:4429  true */\n      0x01\n        /* \"LiquidityToken.sol\":4393:4422  isInterfaceProjectTokenLocked */\n      0x11\n      0x01\n        /* \"LiquidityToken.sol\":4393:4429  isInterfaceProjectTokenLocked = true */\n      0x0100\n      exp\n      dup2\n      sload\n      dup2\n      0xff\n      mul\n      not\n      and\n      swap1\n      dup4\n      iszero\n      iszero\n      mul\n      or\n      swap1\n      sstore\n      pop\n        /* \"LiquidityToken.sol\":4331:4434  function lockInterfaceProjectToken() public onlyOwner() {... */\n      jump\t// out\n        /* \"LiquidityToken.sol\":1003:1039  bool public areUserFunctionsDisabled */\n    tag_122:\n      0x11\n      0x00\n      swap1\n      sload\n      swap1\n      0x0100\n      exp\n      swap1\n      div\n      0xff\n      and\n      dup2\n      jump\t// out\n        /* \"LiquidityToken.sol\":922:953  uint public totalTokenAllocated */\n    tag_124:\n      sload(0x0f)\n      dup2\n      jump\t// out\n        /* \"LiquidityToken.sol\":685:722  uint public stakingDateLastCheckpoint */\n    tag_126:\n      sload(0x09)\n      dup2\n      jump\t// out\n        /* \"LiquidityToken.sol\":13957:14084  function burnByInterfaceProjectToken(uint _value) public onlyInterfaceProjectToken() {... */\n    tag_129:\n        /* \"LiquidityToken.sol\":12331:12364  ensureOnlyInterfaceProjectToken() */\n      tag_304\n        /* \"LiquidityToken.sol\":12331:12362  ensureOnlyInterfaceProjectToken */\n      tag_305\n        /* \"LiquidityToken.sol\":12331:12364  ensureOnlyInterfaceProjectToken() */\n      jump\t// in\n    tag_304:\n        /* \"LiquidityToken.sol\":14048:14076  _burn(address(this), _value) */\n      tag_307\n        /* \"LiquidityToken.sol\":14062:14066  this */\n      address\n        /* \"LiquidityToken.sol\":14069:14075  _value */\n      dup3\n        /* \"LiquidityToken.sol\":14048:14053  _burn */\n      tag_308\n        /* \"LiquidityToken.sol\":14048:14076  _burn(address(this), _value) */\n      jump\t// in\n    tag_307:\n        /* \"LiquidityToken.sol\":13957:14084  function burnByInterfaceProjectToken(uint _value) public onlyInterfaceProjectToken() {... */\n      pop\n      jump\t// out\n        /* \"https://github.com/OpenZeppelin/openzeppelin-contracts/blob/v3.4.2-solc-0.7/contracts/token/ERC20/ERC20.sol\":3384:3509   */\n    tag_132:\n        /* \"https://github.com/OpenZeppelin/openzeppelin-contracts/blob/v3.4.2-solc-0.7/contracts/token/ERC20/ERC20.sol\":3458:3465   */\n      0x00\n        /* \"https://github.com/OpenZeppelin/openzeppelin-contracts/blob/v3.4.2-solc-0.7/contracts/token/ERC20/ERC20.sol\":3484:3493   */\n      dup1\n        /* \"https://github.com/OpenZeppelin/openzeppelin-contracts/blob/v3.4.2-solc-0.7/contracts/token/ERC20/ERC20.sol\":3484:3502   */\n      0x00\n        /* \"https://github.com/OpenZeppelin/openzeppelin-contracts/blob/v3.4.2-solc-0.7/contracts/token/ERC20/ERC20.sol\":3494:3501   */\n      dup4\n        /* \"https://github.com/OpenZeppelin/openzeppelin-contracts/blob/v3.4.2-solc-0.7/contracts/token/ERC20/ERC20.sol\":3484:3502   */\n      0xffffffffffffffffffffffffffffffffffffffff\n      and\n      0xffffffffffffffffffffffffffffffffffffffff\n      and\n      dup2\n      mstore\n      0x20\n      add\n      swap1\n      dup2\n      mstore\n      0x20\n      add\n      0x00\n      keccak256\n      sload\n        /* \"https://github.com/OpenZeppelin/openzeppelin-contracts/blob/v3.4.2-solc-0.7/contracts/token/ERC20/ERC20.sol\":3477:3502   */\n      swap1\n      pop\n        /* \"https://github.com/OpenZeppelin/openzeppelin-contracts/blob/v3.4.2-solc-0.7/contracts/token/ERC20/ERC20.sol\":3384:3509   */\n      swap2\n      swap1\n      pop\n      jump\t// out\n        /* \"https://github.com/OpenZeppelin/openzeppelin-contracts/blob/v3.4.2-solc-0.7/contracts/access/Ownable.sol\":1700:1845   */\n    tag_134:\n        /* \"https://github.com/OpenZeppelin/openzeppelin-contracts/blob/v3.4.2-solc-0.7/contracts/access/Ownable.sol\":1291:1303   */\n      tag_311\n        /* \"https://github.com/OpenZeppelin/openzeppelin-contracts/blob/v3.4.2-solc-0.7/contracts/access/Ownable.sol\":1291:1301   */\n      tag_250\n        /* \"https://github.com/OpenZeppelin/openzeppelin-contracts/blob/v3.4.2-solc-0.7/contracts/access/Ownable.sol\":1291:1303   */\n      jump\t// in\n    tag_311:\n        /* \"https://github.com/OpenZeppelin/openzeppelin-contracts/blob/v3.4.2-solc-0.7/contracts/access/Ownable.sol\":1280:1303   */\n      0xffffffffffffffffffffffffffffffffffffffff\n      and\n        /* \"https://github.com/OpenZeppelin/openzeppelin-contracts/blob/v3.4.2-solc-0.7/contracts/access/Ownable.sol\":1280:1287   */\n      tag_312\n        /* \"https://github.com/OpenZeppelin/openzeppelin-contracts/blob/v3.4.2-solc-0.7/contracts/access/Ownable.sol\":1280:1285   */\n      tag_166\n        /* \"https://github.com/OpenZeppelin/openzeppelin-contracts/blob/v3.4.2-solc-0.7/contracts/access/Ownable.sol\":1280:1287   */\n      jump\t// in\n    tag_312:\n        /* \"https://github.com/OpenZeppelin/openzeppelin-contracts/blob/v3.4.2-solc-0.7/contracts/access/Ownable.sol\":1280:1303   */\n      0xffffffffffffffffffffffffffffffffffffffff\n      and\n      eq\n        /* \"https://github.com/OpenZeppelin/openzeppelin-contracts/blob/v3.4.2-solc-0.7/contracts/access/Ownable.sol\":1272:1340   */\n      tag_313\n      jumpi\n      mload(0x40)\n      0x08c379a000000000000000000000000000000000000000000000000000000000\n      dup2\n      mstore\n      0x04\n      add\n      dup1\n      dup1\n      0x20\n      add\n      dup3\n      dup2\n      sub\n      dup3\n      mstore\n      0x20\n      dup2\n      mstore\n      0x20\n      add\n      dup1\n      0x4f776e61626c653a2063616c6c6572206973206e6f7420746865206f776e6572\n      dup2\n      mstore\n      pop\n      0x20\n      add\n      swap2\n      pop\n      pop\n      mload(0x40)\n      dup1\n      swap2\n      sub\n      swap1\n      revert\n    tag_313:\n        /* \"https://github.com/OpenZeppelin/openzeppelin-contracts/blob/v3.4.2-solc-0.7/contracts/access/Ownable.sol\":1806:1807   */\n      0x00\n        /* \"https://github.com/OpenZeppelin/openzeppelin-contracts/blob/v3.4.2-solc-0.7/contracts/access/Ownable.sol\":1769:1809   */\n      0xffffffffffffffffffffffffffffffffffffffff\n      and\n        /* \"https://github.com/OpenZeppelin/openzeppelin-contracts/blob/v3.4.2-solc-0.7/contracts/access/Ownable.sol\":1790:1796   */\n      0x05\n      0x01\n      swap1\n      sload\n      swap1\n      0x0100\n      exp\n      swap1\n      div\n      0xffffffffffffffffffffffffffffffffffffffff\n      and\n        /* \"https://github.com/OpenZeppelin/openzeppelin-contracts/blob/v3.4.2-solc-0.7/contracts/access/Ownable.sol\":1769:1809   */\n      0xffffffffffffffffffffffffffffffffffffffff\n      and\n      0x8be0079c531659141344cd1fd0a4f28419497f9722a3daafe3b4186f6b6457e0\n      mload(0x40)\n      mload(0x40)\n      dup1\n      swap2\n      sub\n      swap1\n      log3\n        /* \"https://github.com/OpenZeppelin/openzeppelin-contracts/blob/v3.4.2-solc-0.7/contracts/access/Ownable.sol\":1836:1837   */\n      0x00\n        /* \"https://github.com/OpenZeppelin/openzeppelin-contracts/blob/v3.4.2-solc-0.7/contracts/access/Ownable.sol\":1819:1825   */\n      0x05\n      0x01\n        /* \"https://github.com/OpenZeppelin/openzeppelin-contracts/blob/v3.4.2-solc-0.7/contracts/access/Ownable.sol\":1819:1838   */\n      0x0100\n      exp\n      dup2\n      sload\n      dup2\n      0xffffffffffffffffffffffffffffffffffffffff\n      mul\n      not\n      and\n      swap1\n      dup4\n      0xffffffffffffffffffffffffffffffffffffffff\n      and\n      mul\n      or\n      swap1\n      sstore\n      pop\n        /* \"https://github.com/OpenZeppelin/openzeppelin-contracts/blob/v3.4.2-solc-0.7/contracts/access/Ownable.sol\":1700:1845   */\n      jump\t// out\n        /* \"LiquidityToken.sol\":11989:12203  function updateRatioFeesToRewardHodlers(uint _valuePerThousand) public onlyOwner() {... */\n    tag_137:\n        /* \"https://github.com/OpenZeppelin/openzeppelin-contracts/blob/v3.4.2-solc-0.7/contracts/access/Ownable.sol\":1291:1303   */\n      tag_316\n        /* \"https://github.com/OpenZeppelin/openzeppelin-contracts/blob/v3.4.2-solc-0.7/contracts/access/Ownable.sol\":1291:1301   */\n      tag_250\n        /* \"https://github.com/OpenZeppelin/openzeppelin-contracts/blob/v3.4.2-solc-0.7/contracts/access/Ownable.sol\":1291:1303   */\n      jump\t// in\n    tag_316:\n        /* \"https://github.com/OpenZeppelin/openzeppelin-contracts/blob/v3.4.2-solc-0.7/contracts/access/Ownable.sol\":1280:1303   */\n      0xffffffffffffffffffffffffffffffffffffffff\n      and\n        /* \"https://github.com/OpenZeppelin/openzeppelin-contracts/blob/v3.4.2-solc-0.7/contracts/access/Ownable.sol\":1280:1287   */\n      tag_317\n        /* \"https://github.com/OpenZeppelin/openzeppelin-contracts/blob/v3.4.2-solc-0.7/contracts/access/Ownable.sol\":1280:1285   */\n      tag_166\n        /* \"https://github.com/OpenZeppelin/openzeppelin-contracts/blob/v3.4.2-solc-0.7/contracts/access/Ownable.sol\":1280:1287   */\n      jump\t// in\n    tag_317:\n        /* \"https://github.com/OpenZeppelin/openzeppelin-contracts/blob/v3.4.2-solc-0.7/contracts/access/Ownable.sol\":1280:1303   */\n      0xffffffffffffffffffffffffffffffffffffffff\n      and\n      eq\n        /* \"https://github.com/OpenZeppelin/openzeppelin-contracts/blob/v3.4.2-solc-0.7/contracts/access/Ownable.sol\":1272:1340   */\n      tag_318\n      jumpi\n      mload(0x40)\n      0x08c379a000000000000000000000000000000000000000000000000000000000\n      dup2\n      mstore\n      0x04\n      add\n      dup1\n      dup1\n      0x20\n      add\n      dup3\n      dup2\n      sub\n      dup3\n      mstore\n      0x20\n      dup2\n      mstore\n      0x20\n      add\n      dup1\n      0x4f776e61626c653a2063616c6c6572206973206e6f7420746865206f776e6572\n      dup2\n      mstore\n      pop\n      0x20\n      add\n      swap2\n      pop\n      pop\n      mload(0x40)\n      dup1\n      swap2\n      sub\n      swap1\n      revert\n    tag_318:\n        /* \"LiquidityToken.sol\":614:618  1000 */\n      0x03e8\n        /* \"LiquidityToken.sol\":12086:12103  _valuePerThousand */\n      dup2\n        /* \"LiquidityToken.sol\":12086:12119  _valuePerThousand <= multiplier1K */\n      gt\n      iszero\n        /* \"LiquidityToken.sol\":12078:12137  require(_valuePerThousand <= multiplier1K, \"Invalid value\") */\n      tag_320\n      jumpi\n      mload(0x40)\n      0x08c379a000000000000000000000000000000000000000000000000000000000\n      dup2\n      mstore\n      0x04\n      add\n      dup1\n      dup1\n      0x20\n      add\n      dup3\n      dup2\n      sub\n      dup3\n      mstore\n      0x0d\n      dup2\n      mstore\n      0x20\n      add\n      dup1\n      0x496e76616c69642076616c756500000000000000000000000000000000000000\n      dup2\n      mstore\n      pop\n      0x20\n      add\n      swap2\n      pop\n      pop\n      mload(0x40)\n      dup1\n      swap2\n      sub\n      swap1\n      revert\n    tag_320:\n        /* \"LiquidityToken.sol\":12181:12198  _valuePerThousand */\n      dup1\n        /* \"LiquidityToken.sol\":12143:12178  ratioFeesToRewardHodlersPerThousand */\n      0x0c\n        /* \"LiquidityToken.sol\":12143:12198  ratioFeesToRewardHodlersPerThousand = _valuePerThousand */\n      dup2\n      swap1\n      sstore\n      pop\n        /* \"LiquidityToken.sol\":11989:12203  function updateRatioFeesToRewardHodlers(uint _valuePerThousand) public onlyOwner() {... */\n      pop\n      jump\t// out\n        /* \"LiquidityToken.sol\":12767:13300  function rechargeUserTokens(address _user, uint _valueFullyChargedToIncrease, uint _valuePartiallyChargedToDecrease, ... */\n    tag_140:\n        /* \"LiquidityToken.sol\":12331:12364  ensureOnlyInterfaceProjectToken() */\n      tag_322\n        /* \"LiquidityToken.sol\":12331:12362  ensureOnlyInterfaceProjectToken */\n      tag_305\n        /* \"LiquidityToken.sol\":12331:12364  ensureOnlyInterfaceProjectToken() */\n      jump\t// in\n    tag_322:\n        /* \"LiquidityToken.sol\":13017:13092  userLiquiToken[_user].fullyChargedBalance.add(_valueFullyChargedToIncrease) */\n      tag_324\n        /* \"LiquidityToken.sol\":13063:13091  _valueFullyChargedToIncrease */\n      dup4\n        /* \"LiquidityToken.sol\":13017:13031  userLiquiToken */\n      0x13\n        /* \"LiquidityToken.sol\":13017:13038  userLiquiToken[_user] */\n      0x00\n        /* \"LiquidityToken.sol\":13032:13037  _user */\n      dup8\n        /* \"LiquidityToken.sol\":13017:13038  userLiquiToken[_user] */\n      0xffffffffffffffffffffffffffffffffffffffff\n      and\n      0xffffffffffffffffffffffffffffffffffffffff\n      and\n      dup2\n      mstore\n      0x20\n      add\n      swap1\n      dup2\n      mstore\n      0x20\n      add\n      0x00\n      keccak256\n        /* \"LiquidityToken.sol\":13017:13058  userLiquiToken[_user].fullyChargedBalance */\n      0x00\n      add\n      sload\n        /* \"LiquidityToken.sol\":13017:13062  userLiquiToken[_user].fullyChargedBalance.add */\n      tag_270\n      swap1\n        /* \"LiquidityToken.sol\":13017:13092  userLiquiToken[_user].fullyChargedBalance.add(_valueFullyChargedToIncrease) */\n      swap2\n      swap1\n      0xffffffff\n      and\n      jump\t// in\n    tag_324:\n        /* \"LiquidityToken.sol\":12967:12981  userLiquiToken */\n      0x13\n        /* \"LiquidityToken.sol\":12967:12988  userLiquiToken[_user] */\n      0x00\n        /* \"LiquidityToken.sol\":12982:12987  _user */\n      dup7\n        /* \"LiquidityToken.sol\":12967:12988  userLiquiToken[_user] */\n      0xffffffffffffffffffffffffffffffffffffffff\n      and\n      0xffffffffffffffffffffffffffffffffffffffff\n      and\n      dup2\n      mstore\n      0x20\n      add\n      swap1\n      dup2\n      mstore\n      0x20\n      add\n      0x00\n      keccak256\n        /* \"LiquidityToken.sol\":12967:13008  userLiquiToken[_user].fullyChargedBalance */\n      0x00\n      add\n        /* \"LiquidityToken.sol\":12967:13092  userLiquiToken[_user].fullyChargedBalance =... */\n      dup2\n      swap1\n      sstore\n      pop\n        /* \"LiquidityToken.sol\":13152:13235  userLiquiToken[_user].partiallyChargedBalance.sub(_valuePartiallyChargedToDecrease) */\n      tag_325\n        /* \"LiquidityToken.sol\":13202:13234  _valuePartiallyChargedToDecrease */\n      dup3\n        /* \"LiquidityToken.sol\":13152:13166  userLiquiToken */\n      0x13\n        /* \"LiquidityToken.sol\":13152:13173  userLiquiToken[_user] */\n      0x00\n        /* \"LiquidityToken.sol\":13167:13172  _user */\n      dup8\n        /* \"LiquidityToken.sol\":13152:13173  userLiquiToken[_user] */\n      0xffffffffffffffffffffffffffffffffffffffff\n      and\n      0xffffffffffffffffffffffffffffffffffffffff\n      and\n      dup2\n      mstore\n      0x20\n      add\n      swap1\n      dup2\n      mstore\n      0x20\n      add\n      0x00\n      keccak256\n        /* \"LiquidityToken.sol\":13152:13197  userLiquiToken[_user].partiallyChargedBalance */\n      0x01\n      add\n      sload\n        /* \"LiquidityToken.sol\":13152:13201  userLiquiToken[_user].partiallyChargedBalance.sub */\n      tag_277\n      swap1\n        /* \"LiquidityToken.sol\":13152:13235  userLiquiToken[_user].partiallyChargedBalance.sub(_valuePartiallyChargedToDecrease) */\n      swap2\n      swap1\n      0xffffffff\n      and\n      jump\t// in\n    tag_325:\n        /* \"LiquidityToken.sol\":13098:13112  userLiquiToken */\n      0x13\n        /* \"LiquidityToken.sol\":13098:13119  userLiquiToken[_user] */\n      0x00\n        /* \"LiquidityToken.sol\":13113:13118  _user */\n      dup7\n        /* \"LiquidityToken.sol\":13098:13119  userLiquiToken[_user] */\n      0xffffffffffffffffffffffffffffffffffffffff\n      and\n      0xffffffffffffffffffffffffffffffffffffffff\n      and\n      dup2\n      mstore\n      0x20\n      add\n      swap1\n      dup2\n      mstore\n      0x20\n      add\n      0x00\n      keccak256\n        /* \"LiquidityToken.sol\":13098:13143  userLiquiToken[_user].partiallyChargedBalance */\n      0x01\n      add\n        /* \"LiquidityToken.sol\":13098:13235  userLiquiToken[_user].partiallyChargedBalance =... */\n      dup2\n      swap1\n      sstore\n      pop\n        /* \"LiquidityToken.sol\":13252:13295  stakedLT.add(_valueProjectTokenWithRewards) */\n      tag_326\n        /* \"LiquidityToken.sol\":13265:13294  _valueProjectTokenWithRewards */\n      dup2\n        /* \"LiquidityToken.sol\":13252:13260  stakedLT */\n      sload(0x0e)\n        /* \"LiquidityToken.sol\":13252:13264  stakedLT.add */\n      tag_270\n      swap1\n        /* \"LiquidityToken.sol\":13252:13295  stakedLT.add(_valueProjectTokenWithRewards) */\n      swap2\n      swap1\n      0xffffffff\n      and\n      jump\t// in\n    tag_326:\n        /* \"LiquidityToken.sol\":13241:13249  stakedLT */\n      0x0e\n        /* \"LiquidityToken.sol\":13241:13295  stakedLT = stakedLT.add(_valueProjectTokenWithRewards) */\n      dup2\n      swap1\n      sstore\n      pop\n        /* \"LiquidityToken.sol\":12767:13300  function rechargeUserTokens(address _user, uint _valueFullyChargedToIncrease, uint _valuePartiallyChargedToDecrease, ... */\n      pop\n      pop\n      pop\n      pop\n      jump\t// out\n        /* \"LiquidityToken.sol\":799:853  uint public ratioFeesToRewardHodlersPerThousand = 1000 */\n    tag_142:\n      sload(0x0c)\n      dup2\n      jump\t// out\n        /* \"LiquidityToken.sol\":14398:14586  function getUserFullyChargedBalanceLiquiToken(address _user) public view... */\n    tag_145:\n        /* \"LiquidityToken.sol\":14483:14508  uint _fullyChargedBalance */\n      0x00\n        /* \"LiquidityToken.sol\":14540:14554  userLiquiToken */\n      0x13\n        /* \"LiquidityToken.sol\":14540:14561  userLiquiToken[_user] */\n      0x00\n        /* \"LiquidityToken.sol\":14555:14560  _user */\n      dup4\n        /* \"LiquidityToken.sol\":14540:14561  userLiquiToken[_user] */\n      0xffffffffffffffffffffffffffffffffffffffff\n      and\n      0xffffffffffffffffffffffffffffffffffffffff\n      and\n      dup2\n      mstore\n      0x20\n      add\n      swap1\n      dup2\n      mstore\n      0x20\n      add\n      0x00\n      keccak256\n        /* \"LiquidityToken.sol\":14540:14581  userLiquiToken[_user].fullyChargedBalance */\n      0x00\n      add\n      sload\n        /* \"LiquidityToken.sol\":14517:14581  _fullyChargedBalance = userLiquiToken[_user].fullyChargedBalance */\n      swap1\n      pop\n        /* \"LiquidityToken.sol\":14398:14586  function getUserFullyChargedBalanceLiquiToken(address _user) public view... */\n      swap2\n      swap1\n      pop\n      jump\t// out\n        /* \"LiquidityToken.sol\":1381:1431  uint public immutable maxClaimFeesPerThousandForPT */\n    tag_147:\n      immutable(\"0x3d550a598553b485ade63df00865310ea36cbff0dc487035a9b4be52b149fadb\")\n      dup2\n      jump\t// out\n        /* \"LiquidityToken.sol\":622:650  uint public stakingStartDate */\n    tag_149:\n      sload(0x07)\n      dup2\n      jump\t// out\n        /* \"LiquidityToken.sol\":578:618  uint public constant multiplier1K = 1000 */\n    tag_151:\n        /* \"LiquidityToken.sol\":614:618  1000 */\n      0x03e8\n        /* \"LiquidityToken.sol\":578:618  uint public constant multiplier1K = 1000 */\n      dup2\n      jump\t// out\n        /* \"LiquidityToken.sol\":654:681  uint public stakingDuration */\n    tag_153:\n      sload(0x08)\n      dup2\n      jump\t// out\n        /* \"LiquidityToken.sol\":13304:13825  function dischargeUserTokens(address _user, uint _valueProjectToken) public onlyInterfaceProjectToken() {... */\n    tag_156:\n        /* \"LiquidityToken.sol\":12331:12364  ensureOnlyInterfaceProjectToken() */\n      tag_329\n        /* \"LiquidityToken.sol\":12331:12362  ensureOnlyInterfaceProjectToken */\n      tag_305\n        /* \"LiquidityToken.sol\":12331:12364  ensureOnlyInterfaceProjectToken() */\n      jump\t// in\n    tag_329:\n        /* \"LiquidityToken.sol\":13430:13462  stakedLT.sub(_valueProjectToken) */\n      tag_331\n        /* \"LiquidityToken.sol\":13443:13461  _valueProjectToken */\n      dup2\n        /* \"LiquidityToken.sol\":13430:13438  stakedLT */\n      sload(0x0e)\n        /* \"LiquidityToken.sol\":13430:13442  stakedLT.sub */\n      tag_277\n      swap1\n        /* \"LiquidityToken.sol\":13430:13462  stakedLT.sub(_valueProjectToken) */\n      swap2\n      swap1\n      0xffffffff\n      and\n      jump\t// in\n    tag_331:\n        /* \"LiquidityToken.sol\":13419:13427  stakedLT */\n      0x0e\n        /* \"LiquidityToken.sol\":13419:13462  stakedLT = stakedLT.sub(_valueProjectToken) */\n      dup2\n      swap1\n      sstore\n      pop\n        /* \"LiquidityToken.sol\":13515:13530  block.timestamp */\n      timestamp\n        /* \"LiquidityToken.sol\":13468:13482  userLiquiToken */\n      0x13\n        /* \"LiquidityToken.sol\":13468:13489  userLiquiToken[_user] */\n      0x00\n        /* \"LiquidityToken.sol\":13483:13488  _user */\n      dup5\n        /* \"LiquidityToken.sol\":13468:13489  userLiquiToken[_user] */\n      0xffffffffffffffffffffffffffffffffffffffff\n      and\n      0xffffffffffffffffffffffffffffffffffffffff\n      and\n      dup2\n      mstore\n      0x20\n      add\n      swap1\n      dup2\n      mstore\n      0x20\n      add\n      0x00\n      keccak256\n        /* \"LiquidityToken.sol\":13468:13512  userLiquiToken[_user].dateOfPartiallyCharged */\n      0x02\n      add\n        /* \"LiquidityToken.sol\":13468:13530  userLiquiToken[_user].dateOfPartiallyCharged = block.timestamp */\n      dup2\n      swap1\n      sstore\n      pop\n        /* \"LiquidityToken.sol\":13589:13590  0 */\n      0x00\n        /* \"LiquidityToken.sol\":13545:13559  userLiquiToken */\n      0x13\n        /* \"LiquidityToken.sol\":13545:13566  userLiquiToken[_user] */\n      0x00\n        /* \"LiquidityToken.sol\":13560:13565  _user */\n      dup5\n        /* \"LiquidityToken.sol\":13545:13566  userLiquiToken[_user] */\n      0xffffffffffffffffffffffffffffffffffffffff\n      and\n      0xffffffffffffffffffffffffffffffffffffffff\n      and\n      dup2\n      mstore\n      0x20\n      add\n      swap1\n      dup2\n      mstore\n      0x20\n      add\n      0x00\n      keccak256\n        /* \"LiquidityToken.sol\":13545:13586  userLiquiToken[_user].fullyChargedBalance */\n      0x00\n      add\n      sload\n        /* \"LiquidityToken.sol\":13545:13590  userLiquiToken[_user].fullyChargedBalance > 0 */\n      gt\n        /* \"LiquidityToken.sol\":13541:13808  if (userLiquiToken[_user].fullyChargedBalance > 0) {... */\n      iszero\n      tag_332\n      jumpi\n        /* \"LiquidityToken.sol\":13656:13748  userLiquiToken[_user].partiallyChargedBalance.add(userLiquiToken[_user].fullyChargedBalance) */\n      tag_333\n        /* \"LiquidityToken.sol\":13706:13720  userLiquiToken */\n      0x13\n        /* \"LiquidityToken.sol\":13706:13727  userLiquiToken[_user] */\n      0x00\n        /* \"LiquidityToken.sol\":13721:13726  _user */\n      dup5\n        /* \"LiquidityToken.sol\":13706:13727  userLiquiToken[_user] */\n      0xffffffffffffffffffffffffffffffffffffffff\n      and\n      0xffffffffffffffffffffffffffffffffffffffff\n      and\n      dup2\n      mstore\n      0x20\n      add\n      swap1\n      dup2\n      mstore\n      0x20\n      add\n      0x00\n      keccak256\n        /* \"LiquidityToken.sol\":13706:13747  userLiquiToken[_user].fullyChargedBalance */\n      0x00\n      add\n      sload\n        /* \"LiquidityToken.sol\":13656:13670  userLiquiToken */\n      0x13\n        /* \"LiquidityToken.sol\":13656:13677  userLiquiToken[_user] */\n      0x00\n        /* \"LiquidityToken.sol\":13671:13676  _user */\n      dup6\n        /* \"LiquidityToken.sol\":13656:13677  userLiquiToken[_user] */\n      0xffffffffffffffffffffffffffffffffffffffff\n      and\n      0xffffffffffffffffffffffffffffffffffffffff\n      and\n      dup2\n      mstore\n      0x20\n      add\n      swap1\n      dup2\n      mstore\n      0x20\n      add\n      0x00\n      keccak256\n        /* \"LiquidityToken.sol\":13656:13701  userLiquiToken[_user].partiallyChargedBalance */\n      0x01\n      add\n      sload\n        /* \"LiquidityToken.sol\":13656:13705  userLiquiToken[_user].partiallyChargedBalance.add */\n      tag_270\n      swap1\n        /* \"LiquidityToken.sol\":13656:13748  userLiquiToken[_user].partiallyChargedBalance.add(userLiquiToken[_user].fullyChargedBalance) */\n      swap2\n      swap1\n      0xffffffff\n      and\n      jump\t// in\n    tag_333:\n        /* \"LiquidityToken.sol\":13600:13614  userLiquiToken */\n      0x13\n        /* \"LiquidityToken.sol\":13600:13621  userLiquiToken[_user] */\n      0x00\n        /* \"LiquidityToken.sol\":13615:13620  _user */\n      dup5\n        /* \"LiquidityToken.sol\":13600:13621  userLiquiToken[_user] */\n      0xffffffffffffffffffffffffffffffffffffffff\n      and\n      0xffffffffffffffffffffffffffffffffffffffff\n      and\n      dup2\n      mstore\n      0x20\n      add\n      swap1\n      dup2\n      mstore\n      0x20\n      add\n      0x00\n      keccak256\n        /* \"LiquidityToken.sol\":13600:13645  userLiquiToken[_user].partiallyChargedBalance */\n      0x01\n      add\n        /* \"LiquidityToken.sol\":13600:13748  userLiquiToken[_user].partiallyChargedBalance =... */\n      dup2\n      swap1\n      sstore\n      pop\n        /* \"LiquidityToken.sol\":13800:13801  0 */\n      0x00\n        /* \"LiquidityToken.sol\":13756:13770  userLiquiToken */\n      0x13\n        /* \"LiquidityToken.sol\":13756:13777  userLiquiToken[_user] */\n      0x00\n        /* \"LiquidityToken.sol\":13771:13776  _user */\n      dup5\n        /* \"LiquidityToken.sol\":13756:13777  userLiquiToken[_user] */\n      0xffffffffffffffffffffffffffffffffffffffff\n      and\n      0xffffffffffffffffffffffffffffffffffffffff\n      and\n      dup2\n      mstore\n      0x20\n      add\n      swap1\n      dup2\n      mstore\n      0x20\n      add\n      0x00\n      keccak256\n        /* \"LiquidityToken.sol\":13756:13797  userLiquiToken[_user].fullyChargedBalance */\n      0x00\n      add\n        /* \"LiquidityToken.sol\":13756:13801  userLiquiToken[_user].fullyChargedBalance = 0 */\n      dup2\n      swap1\n      sstore\n      pop\n        /* \"LiquidityToken.sol\":13541:13808  if (userLiquiToken[_user].fullyChargedBalance > 0) {... */\n    tag_332:\n        /* \"LiquidityToken.sol\":13304:13825  function dischargeUserTokens(address _user, uint _valueProjectToken) public onlyInterfaceProjectToken() {... */\n      pop\n      pop\n      jump\t// out\n        /* \"LiquidityToken.sol\":1474:1517  uint public immutable maxStakingTokenAmount */\n    tag_158:\n      immutable(\"0x1599d1177539405eb843037ad658ddfb7eec58cf8cd2e6d0aa2a65e4fd67d7f9\")\n      dup2\n      jump\t// out\n        /* \"LiquidityToken.sol\":1273:1320  uint public immutable maxInitialTokenAllocation */\n    tag_160:\n      immutable(\"0xdf1d7ff660157bc85a48df0fb4b87e57c45ebc874d9780503ddf301d1cb1f93b\")\n      dup2\n      jump\t// out\n        /* \"LiquidityToken.sol\":1043:1084  bool public isInterfaceProjectTokenLocked */\n    tag_162:\n      0x11\n      0x01\n      swap1\n      sload\n      swap1\n      0x0100\n      exp\n      swap1\n      div\n      0xff\n      and\n      dup2\n      jump\t// out\n        /* \"LiquidityToken.sol\":1324:1377  uint public immutable maxWithdrawFeesPerThousandForLT */\n    tag_164:\n      immutable(\"0x1b4842a19c661b7382881ce30aa723dedf4fd830b4353e3140588333c90c8c04\")\n      dup2\n      jump\t// out\n        /* \"https://github.com/OpenZeppelin/openzeppelin-contracts/blob/v3.4.2-solc-0.7/contracts/access/Ownable.sol\":1068:1153   */\n    tag_166:\n        /* \"https://github.com/OpenZeppelin/openzeppelin-contracts/blob/v3.4.2-solc-0.7/contracts/access/Ownable.sol\":1114:1121   */\n      0x00\n        /* \"https://github.com/OpenZeppelin/openzeppelin-contracts/blob/v3.4.2-solc-0.7/contracts/access/Ownable.sol\":1140:1146   */\n      0x05\n      0x01\n      swap1\n      sload\n      swap1\n      0x0100\n      exp\n      swap1\n      div\n      0xffffffffffffffffffffffffffffffffffffffff\n      and\n        /* \"https://github.com/OpenZeppelin/openzeppelin-contracts/blob/v3.4.2-solc-0.7/contracts/access/Ownable.sol\":1133:1146   */\n      swap1\n      pop\n        /* \"https://github.com/OpenZeppelin/openzeppelin-contracts/blob/v3.4.2-solc-0.7/contracts/access/Ownable.sol\":1068:1153   */\n      swap1\n      jump\t// out\n        /* \"LiquidityToken.sol\":8241:8932  function getUpdatedRewardPerShare1e18(uint _blockTime) public view returns(uint _updatedRewardPerShare1e18) {  ... */\n    tag_169:\n        /* \"LiquidityToken.sol\":8316:8347  uint _updatedRewardPerShare1e18 */\n      0x00\n        /* \"LiquidityToken.sol\":8360:8380  uint _stakingEndDate */\n      dup1\n        /* \"LiquidityToken.sol\":8383:8420  stakingStartDate.add(stakingDuration) */\n      tag_336\n        /* \"LiquidityToken.sol\":8404:8419  stakingDuration */\n      sload(0x08)\n        /* \"LiquidityToken.sol\":8383:8399  stakingStartDate */\n      sload(0x07)\n        /* \"LiquidityToken.sol\":8383:8403  stakingStartDate.add */\n      tag_270\n      swap1\n        /* \"LiquidityToken.sol\":8383:8420  stakingStartDate.add(stakingDuration) */\n      swap2\n      swap1\n      0xffffffff\n      and\n      jump\t// in\n    tag_336:\n        /* \"LiquidityToken.sol\":8360:8420  uint _stakingEndDate = stakingStartDate.add(stakingDuration) */\n      swap1\n      pop\n        /* \"LiquidityToken.sol\":8455:8480  currentRewardPerShare1e18 */\n      sload(0x0d)\n        /* \"LiquidityToken.sol\":8426:8480  _updatedRewardPerShare1e18 = currentRewardPerShare1e18 */\n      swap2\n      pop\n        /* \"LiquidityToken.sol\":8513:8538  stakingDateLastCheckpoint */\n      sload(0x09)\n        /* \"LiquidityToken.sol\":8500:8510  _blockTime */\n      dup4\n        /* \"LiquidityToken.sol\":8500:8538  _blockTime > stakingDateLastCheckpoint */\n      gt\n        /* \"LiquidityToken.sol\":8500:8592  _blockTime > stakingDateLastCheckpoint ... */\n      dup1\n      iszero\n      tag_337\n      jumpi\n      pop\n        /* \"LiquidityToken.sol\":8577:8592  _stakingEndDate */\n      dup1\n        /* \"LiquidityToken.sol\":8549:8574  stakingDateLastCheckpoint */\n      sload(0x09)\n        /* \"LiquidityToken.sol\":8549:8592  stakingDateLastCheckpoint < _stakingEndDate */\n      lt\n        /* \"LiquidityToken.sol\":8500:8592  _blockTime > stakingDateLastCheckpoint ... */\n    tag_337:\n        /* \"LiquidityToken.sol\":8500:8615  _blockTime > stakingDateLastCheckpoint ... */\n      dup1\n      iszero\n      tag_338\n      jumpi\n      pop\n        /* \"LiquidityToken.sol\":8614:8615  0 */\n      0x00\n        /* \"LiquidityToken.sol\":8603:8611  stakedLT */\n      sload(0x0e)\n        /* \"LiquidityToken.sol\":8603:8615  stakedLT > 0 */\n      gt\n        /* \"LiquidityToken.sol\":8500:8615  _blockTime > stakingDateLastCheckpoint ... */\n    tag_338:\n        /* \"LiquidityToken.sol\":8489:8927  if (... */\n      iszero\n      tag_339\n      jumpi\n        /* \"LiquidityToken.sol\":8651:8666  _stakingEndDate */\n      dup1\n        /* \"LiquidityToken.sol\":8638:8648  _blockTime */\n      dup4\n        /* \"LiquidityToken.sol\":8638:8666  _blockTime > _stakingEndDate */\n      gt\n        /* \"LiquidityToken.sol\":8634:8696  if (_blockTime > _stakingEndDate) _blockTime = _stakingEndDate */\n      iszero\n      tag_340\n      jumpi\n        /* \"LiquidityToken.sol\":8681:8696  _stakingEndDate */\n      dup1\n        /* \"LiquidityToken.sol\":8668:8696  _blockTime = _stakingEndDate */\n      swap3\n      pop\n        /* \"LiquidityToken.sol\":8634:8696  if (_blockTime > _stakingEndDate) _blockTime = _stakingEndDate */\n    tag_340:\n        /* \"LiquidityToken.sol\":8735:8916  _updatedRewardPerShare1e18.add(... */\n      tag_341\n        /* \"LiquidityToken.sol\":8777:8904  (_blockTime.sub(stakingDateLastCheckpoint)).mul(campaignStakingRewards).mul(1e18)... */\n      tag_342\n        /* \"LiquidityToken.sol\":8874:8903  stakingDuration.mul(stakedLT) */\n      tag_343\n        /* \"LiquidityToken.sol\":8894:8902  stakedLT */\n      sload(0x0e)\n        /* \"LiquidityToken.sol\":8874:8889  stakingDuration */\n      sload(0x08)\n        /* \"LiquidityToken.sol\":8874:8893  stakingDuration.mul */\n      tag_282\n      swap1\n        /* \"LiquidityToken.sol\":8874:8903  stakingDuration.mul(stakedLT) */\n      swap2\n      swap1\n      0xffffffff\n      and\n      jump\t// in\n    tag_343:\n        /* \"LiquidityToken.sol\":8777:8858  (_blockTime.sub(stakingDateLastCheckpoint)).mul(campaignStakingRewards).mul(1e18) */\n      tag_344\n        /* \"LiquidityToken.sol\":8853:8857  1e18 */\n      0x0de0b6b3a7640000\n        /* \"LiquidityToken.sol\":8777:8848  (_blockTime.sub(stakingDateLastCheckpoint)).mul(campaignStakingRewards) */\n      tag_345\n        /* \"LiquidityToken.sol\":8825:8847  campaignStakingRewards */\n      sload(0x0a)\n        /* \"LiquidityToken.sol\":8778:8819  _blockTime.sub(stakingDateLastCheckpoint) */\n      tag_346\n        /* \"LiquidityToken.sol\":8793:8818  stakingDateLastCheckpoint */\n      sload(0x09)\n        /* \"LiquidityToken.sol\":8778:8788  _blockTime */\n      dup12\n        /* \"LiquidityToken.sol\":8778:8792  _blockTime.sub */\n      tag_277\n      swap1\n        /* \"LiquidityToken.sol\":8778:8819  _blockTime.sub(stakingDateLastCheckpoint) */\n      swap2\n      swap1\n      0xffffffff\n      and\n      jump\t// in\n    tag_346:\n        /* \"LiquidityToken.sol\":8777:8824  (_blockTime.sub(stakingDateLastCheckpoint)).mul */\n      tag_282\n      swap1\n        /* \"LiquidityToken.sol\":8777:8848  (_blockTime.sub(stakingDateLastCheckpoint)).mul(campaignStakingRewards) */\n      swap2\n      swap1\n      0xffffffff\n      and\n      jump\t// in\n    tag_345:\n        /* \"LiquidityToken.sol\":8777:8852  (_blockTime.sub(stakingDateLastCheckpoint)).mul(campaignStakingRewards).mul */\n      tag_282\n      swap1\n        /* \"LiquidityToken.sol\":8777:8858  (_blockTime.sub(stakingDateLastCheckpoint)).mul(campaignStakingRewards).mul(1e18) */\n      swap2\n      swap1\n      0xffffffff\n      and\n      jump\t// in\n    tag_344:\n        /* \"LiquidityToken.sol\":8777:8873  (_blockTime.sub(stakingDateLastCheckpoint)).mul(campaignStakingRewards).mul(1e18)... */\n      tag_283\n      swap1\n        /* \"LiquidityToken.sol\":8777:8904  (_blockTime.sub(stakingDateLastCheckpoint)).mul(campaignStakingRewards).mul(1e18)... */\n      swap2\n      swap1\n      0xffffffff\n      and\n      jump\t// in\n    tag_342:\n        /* \"LiquidityToken.sol\":8735:8761  _updatedRewardPerShare1e18 */\n      dup4\n        /* \"LiquidityToken.sol\":8735:8765  _updatedRewardPerShare1e18.add */\n      tag_270\n      swap1\n        /* \"LiquidityToken.sol\":8735:8916  _updatedRewardPerShare1e18.add(... */\n      swap2\n      swap1\n      0xffffffff\n      and\n      jump\t// in\n    tag_341:\n        /* \"LiquidityToken.sol\":8706:8916  _updatedRewardPerShare1e18 = _updatedRewardPerShare1e18.add(... */\n      swap2\n      pop\n        /* \"LiquidityToken.sol\":8489:8927  if (... */\n    tag_339:\n        /* \"LiquidityToken.sol\":8241:8932  function getUpdatedRewardPerShare1e18(uint _blockTime) public view returns(uint _updatedRewardPerShare1e18) {  ... */\n      pop\n      swap2\n      swap1\n      pop\n      jump\t// out\n        /* \"LiquidityToken.sol\":764:795  uint public totalStakingRewards */\n    tag_171:\n      sload(0x0b)\n      dup2\n      jump\t// out\n        /* \"LiquidityToken.sol\":1522:1580  mapping (address => uint) public claimedRewardPerShare1e18 */\n    tag_174:\n      mstore(0x20, 0x12)\n      dup1\n      0x00\n      mstore\n      keccak256(0x00, 0x40)\n      0x00\n      swap2\n      pop\n      swap1\n      pop\n      sload\n      dup2\n      jump\t// out\n        /* \"https://github.com/OpenZeppelin/openzeppelin-contracts/blob/v3.4.2-solc-0.7/contracts/token/ERC20/ERC20.sol\":2355:2448   */\n    tag_176:\n        /* \"https://github.com/OpenZeppelin/openzeppelin-contracts/blob/v3.4.2-solc-0.7/contracts/token/ERC20/ERC20.sol\":2402:2415   */\n      0x60\n        /* \"https://github.com/OpenZeppelin/openzeppelin-contracts/blob/v3.4.2-solc-0.7/contracts/token/ERC20/ERC20.sol\":2434:2441   */\n      0x04\n        /* \"https://github.com/OpenZeppelin/openzeppelin-contracts/blob/v3.4.2-solc-0.7/contracts/token/ERC20/ERC20.sol\":2427:2441   */\n      dup1\n      sload\n      0x01\n      dup2\n      0x01\n      and\n      iszero\n      0x0100\n      mul\n      sub\n      and\n      0x02\n      swap1\n      div\n      dup1\n      0x1f\n      add\n      0x20\n      dup1\n      swap2\n      div\n      mul\n      0x20\n      add\n      mload(0x40)\n      swap1\n      dup2\n      add\n      0x40\n      mstore\n      dup1\n      swap3\n      swap2\n      swap1\n      dup2\n      dup2\n      mstore\n      0x20\n      add\n      dup3\n      dup1\n      sload\n      0x01\n      dup2\n      0x01\n      and\n      iszero\n      0x0100\n      mul\n      sub\n      and\n      0x02\n      swap1\n      div\n      dup1\n      iszero\n      tag_348\n      jumpi\n      dup1\n      0x1f\n      lt\n      tag_349\n      jumpi\n      0x0100\n      dup1\n      dup4\n      sload\n      div\n      mul\n      dup4\n      mstore\n      swap2\n      0x20\n      add\n      swap2\n      jump(tag_348)\n    tag_349:\n      dup3\n      add\n      swap2\n      swap1\n      0x00\n      mstore\n      keccak256(0x00, 0x20)\n      swap1\n    tag_350:\n      dup2\n      sload\n      dup2\n      mstore\n      swap1\n      0x01\n      add\n      swap1\n      0x20\n      add\n      dup1\n      dup4\n      gt\n      tag_350\n      jumpi\n      dup3\n      swap1\n      sub\n      0x1f\n      and\n      dup3\n      add\n      swap2\n    tag_348:\n      pop\n      pop\n      pop\n      pop\n      pop\n      swap1\n      pop\n        /* \"https://github.com/OpenZeppelin/openzeppelin-contracts/blob/v3.4.2-solc-0.7/contracts/token/ERC20/ERC20.sol\":2355:2448   */\n      swap1\n      jump\t// out\n        /* \"LiquidityToken.sol\":1088:1124  bool public areAllocationsTerminated */\n    tag_182:\n      0x11\n      0x02\n      swap1\n      sload\n      swap1\n      0x0100\n      exp\n      swap1\n      div\n      0xff\n      and\n      dup2\n      jump\t// out\n        /* \"LiquidityToken.sol\":6077:6170  function terminateAllocations() public onlyOwner() {... */\n    tag_184:\n        /* \"https://github.com/OpenZeppelin/openzeppelin-contracts/blob/v3.4.2-solc-0.7/contracts/access/Ownable.sol\":1291:1303   */\n      tag_352\n        /* \"https://github.com/OpenZeppelin/openzeppelin-contracts/blob/v3.4.2-solc-0.7/contracts/access/Ownable.sol\":1291:1301   */\n      tag_250\n        /* \"https://github.com/OpenZeppelin/openzeppelin-contracts/blob/v3.4.2-solc-0.7/contracts/access/Ownable.sol\":1291:1303   */\n      jump\t// in\n    tag_352:\n        /* \"https://github.com/OpenZeppelin/openzeppelin-contracts/blob/v3.4.2-solc-0.7/contracts/access/Ownable.sol\":1280:1303   */\n      0xffffffffffffffffffffffffffffffffffffffff\n      and\n        /* \"https://github.com/OpenZeppelin/openzeppelin-contracts/blob/v3.4.2-solc-0.7/contracts/access/Ownable.sol\":1280:1287   */\n      tag_353\n        /* \"https://github.com/OpenZeppelin/openzeppelin-contracts/blob/v3.4.2-solc-0.7/contracts/access/Ownable.sol\":1280:1285   */\n      tag_166\n        /* \"https://github.com/OpenZeppelin/openzeppelin-contracts/blob/v3.4.2-solc-0.7/contracts/access/Ownable.sol\":1280:1287   */\n      jump\t// in\n    tag_353:\n        /* \"https://github.com/OpenZeppelin/openzeppelin-contracts/blob/v3.4.2-solc-0.7/contracts/access/Ownable.sol\":1280:1303   */\n      0xffffffffffffffffffffffffffffffffffffffff\n      and\n      eq\n        /* \"https://github.com/OpenZeppelin/openzeppelin-contracts/blob/v3.4.2-solc-0.7/contracts/access/Ownable.sol\":1272:1340   */\n      tag_354\n      jumpi\n      mload(0x40)\n      0x08c379a000000000000000000000000000000000000000000000000000000000\n      dup2\n      mstore\n      0x04\n      add\n      dup1\n      dup1\n      0x20\n      add\n      dup3\n      dup2\n      sub\n      dup3\n      mstore\n      0x20\n      dup2\n      mstore\n      0x20\n      add\n      dup1\n      0x4f776e61626c653a2063616c6c6572206973206e6f7420746865206f776e6572\n      dup2\n      mstore\n      pop\n      0x20\n      add\n      swap2\n      pop\n      pop\n      mload(0x40)\n      dup1\n      swap2\n      sub\n      swap1\n      revert\n    tag_354:\n        /* \"LiquidityToken.sol\":6161:6165  true */\n      0x01\n        /* \"LiquidityToken.sol\":6134:6158  areAllocationsTerminated */\n      0x11\n      0x02\n        /* \"LiquidityToken.sol\":6134:6165  areAllocationsTerminated = true */\n      0x0100\n      exp\n      dup2\n      sload\n      dup2\n      0xff\n      mul\n      not\n      and\n      swap1\n      dup4\n      iszero\n      iszero\n      mul\n      or\n      swap1\n      sstore\n      pop\n        /* \"LiquidityToken.sol\":6077:6170  function terminateAllocations() public onlyOwner() {... */\n      jump\t// out\n        /* \"LiquidityToken.sol\":14590:14794  function getUserPartiallyChargedBalanceLiquiToken(address _user) public view... */\n    tag_187:\n        /* \"LiquidityToken.sol\":14679:14708  uint _partiallyChargedBalance */\n      0x00\n        /* \"LiquidityToken.sol\":14744:14758  userLiquiToken */\n      0x13\n        /* \"LiquidityToken.sol\":14744:14765  userLiquiToken[_user] */\n      0x00\n        /* \"LiquidityToken.sol\":14759:14764  _user */\n      dup4\n        /* \"LiquidityToken.sol\":14744:14765  userLiquiToken[_user] */\n      0xffffffffffffffffffffffffffffffffffffffff\n      and\n      0xffffffffffffffffffffffffffffffffffffffff\n      and\n      dup2\n      mstore\n      0x20\n      add\n      swap1\n      dup2\n      mstore\n      0x20\n      add\n      0x00\n      keccak256\n        /* \"LiquidityToken.sol\":14744:14789  userLiquiToken[_user].partiallyChargedBalance */\n      0x01\n      add\n      sload\n        /* \"LiquidityToken.sol\":14717:14789  _partiallyChargedBalance = userLiquiToken[_user].partiallyChargedBalance */\n      swap1\n      pop\n        /* \"LiquidityToken.sol\":14590:14794  function getUserPartiallyChargedBalanceLiquiToken(address _user) public view... */\n      swap2\n      swap1\n      pop\n      jump\t// out\n        /* \"LiquidityToken.sol\":10406:11754  function setStakingRewards(uint _stakingStartDate, uint _stakingDuration, uint _campaignStakingRewards) ... */\n    tag_190:\n        /* \"https://github.com/OpenZeppelin/openzeppelin-contracts/blob/v3.4.2-solc-0.7/contracts/access/Ownable.sol\":1291:1303   */\n      tag_358\n        /* \"https://github.com/OpenZeppelin/openzeppelin-contracts/blob/v3.4.2-solc-0.7/contracts/access/Ownable.sol\":1291:1301   */\n      tag_250\n        /* \"https://github.com/OpenZeppelin/openzeppelin-contracts/blob/v3.4.2-solc-0.7/contracts/access/Ownable.sol\":1291:1303   */\n      jump\t// in\n    tag_358:\n        /* \"https://github.com/OpenZeppelin/openzeppelin-contracts/blob/v3.4.2-solc-0.7/contracts/access/Ownable.sol\":1280:1303   */\n      0xffffffffffffffffffffffffffffffffffffffff\n      and\n        /* \"https://github.com/OpenZeppelin/openzeppelin-contracts/blob/v3.4.2-solc-0.7/contracts/access/Ownable.sol\":1280:1287   */\n      tag_359\n        /* \"https://github.com/OpenZeppelin/openzeppelin-contracts/blob/v3.4.2-solc-0.7/contracts/access/Ownable.sol\":1280:1285   */\n      tag_166\n        /* \"https://github.com/OpenZeppelin/openzeppelin-contracts/blob/v3.4.2-solc-0.7/contracts/access/Ownable.sol\":1280:1287   */\n      jump\t// in\n    tag_359:\n        /* \"https://github.com/OpenZeppelin/openzeppelin-contracts/blob/v3.4.2-solc-0.7/contracts/access/Ownable.sol\":1280:1303   */\n      0xffffffffffffffffffffffffffffffffffffffff\n      and\n      eq\n        /* \"https://github.com/OpenZeppelin/openzeppelin-contracts/blob/v3.4.2-solc-0.7/contracts/access/Ownable.sol\":1272:1340   */\n      tag_360\n      jumpi\n      mload(0x40)\n      0x08c379a000000000000000000000000000000000000000000000000000000000\n      dup2\n      mstore\n      0x04\n      add\n      dup1\n      dup1\n      0x20\n      add\n      dup3\n      dup2\n      sub\n      dup3\n      mstore\n      0x20\n      dup2\n      mstore\n      0x20\n      add\n      dup1\n      0x4f776e61626c653a2063616c6c6572206973206e6f7420746865206f776e6572\n      dup2\n      mstore\n      pop\n      0x20\n      add\n      swap2\n      pop\n      pop\n      mload(0x40)\n      dup1\n      swap2\n      sub\n      swap1\n      revert\n    tag_360:\n        /* \"LiquidityToken.sol\":10541:10556  uint _blockTime */\n      0x00\n        /* \"LiquidityToken.sol\":10559:10574  block.timestamp */\n      timestamp\n        /* \"LiquidityToken.sol\":10541:10574  uint _blockTime = block.timestamp */\n      swap1\n      pop\n        /* \"LiquidityToken.sol\":10616:10626  _blockTime */\n      dup1\n        /* \"LiquidityToken.sol\":10596:10613  _stakingStartDate */\n      dup5\n        /* \"LiquidityToken.sol\":10596:10626  _stakingStartDate > _blockTime */\n      gt\n        /* \"LiquidityToken.sol\":10596:10650  _stakingStartDate > _blockTime && _stakingDuration > 0 */\n      dup1\n      iszero\n      tag_362\n      jumpi\n      pop\n        /* \"LiquidityToken.sol\":10649:10650  0 */\n      0x00\n        /* \"LiquidityToken.sol\":10630:10646  _stakingDuration */\n      dup4\n        /* \"LiquidityToken.sol\":10630:10650  _stakingDuration > 0 */\n      gt\n        /* \"LiquidityToken.sol\":10596:10650  _stakingStartDate > _blockTime && _stakingDuration > 0 */\n    tag_362:\n        /* \"LiquidityToken.sol\":10581:10752  require(... */\n      tag_363\n      jumpi\n      mload(0x40)\n      0x08c379a000000000000000000000000000000000000000000000000000000000\n      dup2\n      mstore\n      0x04\n      add\n      dup1\n      dup1\n      0x20\n      add\n      dup3\n      dup2\n      sub\n      dup3\n      mstore\n      0x54\n      dup2\n      mstore\n      0x20\n      add\n      dup1\n      data_cc1ac84f1f31a634a17a4ddce30b05f5fb9fdd55515de86fb1d919f165b3a5aa\n      0x54\n      swap2\n      codecopy\n      0x60\n      add\n      swap2\n      pop\n      pop\n      mload(0x40)\n      dup1\n      swap2\n      sub\n      swap1\n      revert\n    tag_363:\n        /* \"LiquidityToken.sol\":10786:10787  0 */\n      0x00\n        /* \"LiquidityToken.sol\":10767:10783  stakingStartDate */\n      sload(0x07)\n        /* \"LiquidityToken.sol\":10767:10787  stakingStartDate > 0 */\n      gt\n        /* \"LiquidityToken.sol\":10763:10916  if (stakingStartDate > 0)... */\n      iszero\n      tag_364\n      jumpi\n        /* \"LiquidityToken.sol\":10825:10862  stakingStartDate.add(stakingDuration) */\n      tag_365\n        /* \"LiquidityToken.sol\":10846:10861  stakingDuration */\n      sload(0x08)\n        /* \"LiquidityToken.sol\":10825:10841  stakingStartDate */\n      sload(0x07)\n        /* \"LiquidityToken.sol\":10825:10845  stakingStartDate.add */\n      tag_270\n      swap1\n        /* \"LiquidityToken.sol\":10825:10862  stakingStartDate.add(stakingDuration) */\n      swap2\n      swap1\n      0xffffffff\n      and\n      jump\t// in\n    tag_365:\n        /* \"LiquidityToken.sol\":10812:10822  _blockTime */\n      dup2\n        /* \"LiquidityToken.sol\":10812:10862  _blockTime > stakingStartDate.add(stakingDuration) */\n      gt\n        /* \"LiquidityToken.sol\":10795:10916  require(... */\n      tag_366\n      jumpi\n      mload(0x40)\n      0x08c379a000000000000000000000000000000000000000000000000000000000\n      dup2\n      mstore\n      0x04\n      add\n      dup1\n      dup1\n      0x20\n      add\n      dup3\n      dup2\n      sub\n      dup3\n      mstore\n      0x28\n      dup2\n      mstore\n      0x20\n      add\n      dup1\n      data_a795cebbe87cbaa718b98376a54958a9f2ac9be73ba32fe7cff080028a31f20e\n      0x28\n      swap2\n      codecopy\n      0x40\n      add\n      swap2\n      pop\n      pop\n      mload(0x40)\n      dup1\n      swap2\n      sub\n      swap1\n      revert\n    tag_366:\n        /* \"LiquidityToken.sol\":10763:10916  if (stakingStartDate > 0)... */\n    tag_364:\n        /* \"LiquidityToken.sol\":10966:10987  maxStakingTokenAmount */\n      immutable(\"0x1599d1177539405eb843037ad658ddfb7eec58cf8cd2e6d0aa2a65e4fd67d7f9\")\n        /* \"LiquidityToken.sol\":10939:10962  _campaignStakingRewards */\n      dup3\n        /* \"LiquidityToken.sol\":10939:10987  _campaignStakingRewards <= maxStakingTokenAmount */\n      gt\n      iszero\n        /* \"LiquidityToken.sol\":10924:11038  require(... */\n      tag_367\n      jumpi\n      mload(0x40)\n      0x08c379a000000000000000000000000000000000000000000000000000000000\n      dup2\n      mstore\n      0x04\n      add\n      dup1\n      dup1\n      0x20\n      add\n      dup3\n      dup2\n      sub\n      dup3\n      mstore\n      0x21\n      dup2\n      mstore\n      0x20\n      add\n      dup1\n      data_91f8f41b83b29f8c4a639991eacdcd9c25ac1408b42ec8d46fde92bf8ffd9bf0\n      0x21\n      swap2\n      codecopy\n      0x40\n      add\n      swap2\n      pop\n      pop\n      mload(0x40)\n      dup1\n      swap2\n      sub\n      swap1\n      revert\n    tag_367:\n        /* \"LiquidityToken.sol\":11064:11065  0 */\n      0x00\n        /* \"LiquidityToken.sol\":11053:11061  stakedLT */\n      sload(0x0e)\n        /* \"LiquidityToken.sol\":11053:11065  stakedLT > 0 */\n      gt\n        /* \"LiquidityToken.sol\":11049:11236  if (stakedLT > 0)... */\n      iszero\n      tag_368\n      jumpi\n        /* \"LiquidityToken.sol\":11177:11190  maxStakingAPR */\n      immutable(\"0x5535a79acdae37c951fc0073cedf45a2f013afa77feb7c7f34ba275584224ebf\")\n        /* \"LiquidityToken.sol\":11090:11173  _campaignStakingRewards.mul(100).mul(86400*365).div(_stakingDuration).div(stakedLT) */\n      tag_369\n        /* \"LiquidityToken.sol\":11164:11172  stakedLT */\n      sload(0x0e)\n        /* \"LiquidityToken.sol\":11090:11159  _campaignStakingRewards.mul(100).mul(86400*365).div(_stakingDuration) */\n      tag_370\n        /* \"LiquidityToken.sol\":11142:11158  _stakingDuration */\n      dup7\n        /* \"LiquidityToken.sol\":11090:11137  _campaignStakingRewards.mul(100).mul(86400*365) */\n      tag_371\n        /* \"LiquidityToken.sol\":11127:11136  86400*365 */\n      0x01e13380\n        /* \"LiquidityToken.sol\":11090:11122  _campaignStakingRewards.mul(100) */\n      tag_372\n        /* \"LiquidityToken.sol\":11118:11121  100 */\n      0x64\n        /* \"LiquidityToken.sol\":11090:11113  _campaignStakingRewards */\n      dup11\n        /* \"LiquidityToken.sol\":11090:11117  _campaignStakingRewards.mul */\n      tag_282\n      swap1\n        /* \"LiquidityToken.sol\":11090:11122  _campaignStakingRewards.mul(100) */\n      swap2\n      swap1\n      0xffffffff\n      and\n      jump\t// in\n    tag_372:\n        /* \"LiquidityToken.sol\":11090:11126  _campaignStakingRewards.mul(100).mul */\n      tag_282\n      swap1\n        /* \"LiquidityToken.sol\":11090:11137  _campaignStakingRewards.mul(100).mul(86400*365) */\n      swap2\n      swap1\n      0xffffffff\n      and\n      jump\t// in\n    tag_371:\n        /* \"LiquidityToken.sol\":11090:11141  _campaignStakingRewards.mul(100).mul(86400*365).div */\n      tag_283\n      swap1\n        /* \"LiquidityToken.sol\":11090:11159  _campaignStakingRewards.mul(100).mul(86400*365).div(_stakingDuration) */\n      swap2\n      swap1\n      0xffffffff\n      and\n      jump\t// in\n    tag_370:\n        /* \"LiquidityToken.sol\":11090:11163  _campaignStakingRewards.mul(100).mul(86400*365).div(_stakingDuration).div */\n      tag_283\n      swap1\n        /* \"LiquidityToken.sol\":11090:11173  _campaignStakingRewards.mul(100).mul(86400*365).div(_stakingDuration).div(stakedLT) */\n      swap2\n      swap1\n      0xffffffff\n      and\n      jump\t// in\n    tag_369:\n        /* \"LiquidityToken.sol\":11090:11190  _campaignStakingRewards.mul(100).mul(86400*365).div(_stakingDuration).div(stakedLT) <= maxStakingAPR */\n      gt\n      iszero\n        /* \"LiquidityToken.sol\":11073:11236  require(... */\n      tag_373\n      jumpi\n      mload(0x40)\n      0x08c379a000000000000000000000000000000000000000000000000000000000\n      dup2\n      mstore\n      0x04\n      add\n      dup1\n      dup1\n      0x20\n      add\n      dup3\n      dup2\n      sub\n      dup3\n      mstore\n      0x18\n      dup2\n      mstore\n      0x20\n      add\n      dup1\n      0x4d617820616c6c6f776564204150522065786365656465640000000000000000\n      dup2\n      mstore\n      pop\n      0x20\n      add\n      swap2\n      pop\n      pop\n      mload(0x40)\n      dup1\n      swap2\n      sub\n      swap1\n      revert\n    tag_373:\n        /* \"LiquidityToken.sol\":11049:11236  if (stakedLT > 0)... */\n    tag_368:\n        /* \"LiquidityToken.sol\":11247:11282  updateStakingParameters(_blockTime) */\n      tag_374\n        /* \"LiquidityToken.sol\":11271:11281  _blockTime */\n      dup2\n        /* \"LiquidityToken.sol\":11247:11270  updateStakingParameters */\n      tag_375\n        /* \"LiquidityToken.sol\":11247:11282  updateStakingParameters(_blockTime) */\n      jump\t// in\n    tag_374:\n        /* \"LiquidityToken.sol\":11384:11401  _stakingStartDate */\n      dup4\n        /* \"LiquidityToken.sol\":11365:11381  stakingStartDate */\n      0x07\n        /* \"LiquidityToken.sol\":11365:11401  stakingStartDate = _stakingStartDate */\n      dup2\n      swap1\n      sstore\n      pop\n        /* \"LiquidityToken.sol\":11435:11452  _stakingStartDate */\n      dup4\n        /* \"LiquidityToken.sol\":11407:11432  stakingDateLastCheckpoint */\n      0x09\n        /* \"LiquidityToken.sol\":11407:11452  stakingDateLastCheckpoint = _stakingStartDate */\n      dup2\n      swap1\n      sstore\n      pop\n        /* \"LiquidityToken.sol\":11476:11492  _stakingDuration */\n      dup3\n        /* \"LiquidityToken.sol\":11458:11473  stakingDuration */\n      0x08\n        /* \"LiquidityToken.sol\":11458:11492  stakingDuration = _stakingDuration */\n      dup2\n      swap1\n      sstore\n      pop\n        /* \"LiquidityToken.sol\":11523:11546  _campaignStakingRewards */\n      dup2\n        /* \"LiquidityToken.sol\":11498:11520  campaignStakingRewards */\n      0x0a\n        /* \"LiquidityToken.sol\":11498:11546  campaignStakingRewards = _campaignStakingRewards */\n      dup2\n      swap1\n      sstore\n      pop\n        /* \"LiquidityToken.sol\":11574:11622  totalStakingRewards.add(_campaignStakingRewards) */\n      tag_376\n        /* \"LiquidityToken.sol\":11598:11621  _campaignStakingRewards */\n      dup3\n        /* \"LiquidityToken.sol\":11574:11593  totalStakingRewards */\n      sload(0x0b)\n        /* \"LiquidityToken.sol\":11574:11597  totalStakingRewards.add */\n      tag_270\n      swap1\n        /* \"LiquidityToken.sol\":11574:11622  totalStakingRewards.add(_campaignStakingRewards) */\n      swap2\n      swap1\n      0xffffffff\n      and\n      jump\t// in\n    tag_376:\n        /* \"LiquidityToken.sol\":11552:11571  totalStakingRewards */\n      0x0b\n        /* \"LiquidityToken.sol\":11552:11622  totalStakingRewards = totalStakingRewards.add(_campaignStakingRewards) */\n      dup2\n      swap1\n      sstore\n      pop\n        /* \"LiquidityToken.sol\":11650:11698  totalTokenAllocated.add(_campaignStakingRewards) */\n      tag_377\n        /* \"LiquidityToken.sol\":11674:11697  _campaignStakingRewards */\n      dup3\n        /* \"LiquidityToken.sol\":11650:11669  totalTokenAllocated */\n      sload(0x0f)\n        /* \"LiquidityToken.sol\":11650:11673  totalTokenAllocated.add */\n      tag_270\n      swap1\n        /* \"LiquidityToken.sol\":11650:11698  totalTokenAllocated.add(_campaignStakingRewards) */\n      swap2\n      swap1\n      0xffffffff\n      and\n      jump\t// in\n    tag_377:\n        /* \"LiquidityToken.sol\":11628:11647  totalTokenAllocated */\n      0x0f\n        /* \"LiquidityToken.sol\":11628:11698  totalTokenAllocated = totalTokenAllocated.add(_campaignStakingRewards) */\n      dup2\n      swap1\n      sstore\n      pop\n        /* \"LiquidityToken.sol\":11704:11749  _mint(address(this), _campaignStakingRewards) */\n      tag_378\n        /* \"LiquidityToken.sol\":11718:11722  this */\n      address\n        /* \"LiquidityToken.sol\":11725:11748  _campaignStakingRewards */\n      dup4\n        /* \"LiquidityToken.sol\":11704:11709  _mint */\n      tag_379\n        /* \"LiquidityToken.sol\":11704:11749  _mint(address(this), _campaignStakingRewards) */\n      jump\t// in\n    tag_378:\n        /* \"https://github.com/OpenZeppelin/openzeppelin-contracts/blob/v3.4.2-solc-0.7/contracts/access/Ownable.sol\":1350:1351   */\n      pop\n        /* \"LiquidityToken.sol\":10406:11754  function setStakingRewards(uint _stakingStartDate, uint _stakingDuration, uint _campaignStakingRewards) ... */\n      pop\n      pop\n      pop\n      jump\t// out\n        /* \"https://github.com/OpenZeppelin/openzeppelin-contracts/blob/v3.4.2-solc-0.7/contracts/token/ERC20/ERC20.sol\":6276:6542   */\n    tag_193:\n        /* \"https://github.com/OpenZeppelin/openzeppelin-contracts/blob/v3.4.2-solc-0.7/contracts/token/ERC20/ERC20.sol\":6369:6373   */\n      0x00\n        /* \"https://github.com/OpenZeppelin/openzeppelin-contracts/blob/v3.4.2-solc-0.7/contracts/token/ERC20/ERC20.sol\":6385:6514   */\n      tag_381\n        /* \"https://github.com/OpenZeppelin/openzeppelin-contracts/blob/v3.4.2-solc-0.7/contracts/token/ERC20/ERC20.sol\":6394:6406   */\n      tag_382\n        /* \"https://github.com/OpenZeppelin/openzeppelin-contracts/blob/v3.4.2-solc-0.7/contracts/token/ERC20/ERC20.sol\":6394:6404   */\n      tag_250\n        /* \"https://github.com/OpenZeppelin/openzeppelin-contracts/blob/v3.4.2-solc-0.7/contracts/token/ERC20/ERC20.sol\":6394:6406   */\n      jump\t// in\n    tag_382:\n        /* \"https://github.com/OpenZeppelin/openzeppelin-contracts/blob/v3.4.2-solc-0.7/contracts/token/ERC20/ERC20.sol\":6408:6415   */\n      dup5\n        /* \"https://github.com/OpenZeppelin/openzeppelin-contracts/blob/v3.4.2-solc-0.7/contracts/token/ERC20/ERC20.sol\":6417:6513   */\n      tag_383\n        /* \"https://github.com/OpenZeppelin/openzeppelin-contracts/blob/v3.4.2-solc-0.7/contracts/token/ERC20/ERC20.sol\":6456:6471   */\n      dup6\n        /* \"https://github.com/OpenZeppelin/openzeppelin-contracts/blob/v3.4.2-solc-0.7/contracts/token/ERC20/ERC20.sol\":6417:6513   */\n      mload(0x40)\n      dup1\n      0x60\n      add\n      0x40\n      mstore\n      dup1\n      0x25\n      dup2\n      mstore\n      0x20\n      add\n      data_f8b476f7d28209d77d4a4ac1fe36b9f8259aa1bb6bddfa6e89de7e51615cf8a8\n      0x25\n      swap2\n      codecopy\n        /* \"https://github.com/OpenZeppelin/openzeppelin-contracts/blob/v3.4.2-solc-0.7/contracts/token/ERC20/ERC20.sol\":6417:6428   */\n      0x01\n        /* \"https://github.com/OpenZeppelin/openzeppelin-contracts/blob/v3.4.2-solc-0.7/contracts/token/ERC20/ERC20.sol\":6417:6442   */\n      0x00\n        /* \"https://github.com/OpenZeppelin/openzeppelin-contracts/blob/v3.4.2-solc-0.7/contracts/token/ERC20/ERC20.sol\":6429:6441   */\n      tag_384\n        /* \"https://github.com/OpenZeppelin/openzeppelin-contracts/blob/v3.4.2-solc-0.7/contracts/token/ERC20/ERC20.sol\":6429:6439   */\n      tag_250\n        /* \"https://github.com/OpenZeppelin/openzeppelin-contracts/blob/v3.4.2-solc-0.7/contracts/token/ERC20/ERC20.sol\":6429:6441   */\n      jump\t// in\n    tag_384:\n        /* \"https://github.com/OpenZeppelin/openzeppelin-contracts/blob/v3.4.2-solc-0.7/contracts/token/ERC20/ERC20.sol\":6417:6442   */\n      0xffffffffffffffffffffffffffffffffffffffff\n      and\n      0xffffffffffffffffffffffffffffffffffffffff\n      and\n      dup2\n      mstore\n      0x20\n      add\n      swap1\n      dup2\n      mstore\n      0x20\n      add\n      0x00\n      keccak256\n        /* \"https://github.com/OpenZeppelin/openzeppelin-contracts/blob/v3.4.2-solc-0.7/contracts/token/ERC20/ERC20.sol\":6417:6451   */\n      0x00\n        /* \"https://github.com/OpenZeppelin/openzeppelin-contracts/blob/v3.4.2-solc-0.7/contracts/token/ERC20/ERC20.sol\":6443:6450   */\n      dup11\n        /* \"https://github.com/OpenZeppelin/openzeppelin-contracts/blob/v3.4.2-solc-0.7/contracts/token/ERC20/ERC20.sol\":6417:6451   */\n      0xffffffffffffffffffffffffffffffffffffffff\n      and\n      0xffffffffffffffffffffffffffffffffffffffff\n      and\n      dup2\n      mstore\n      0x20\n      add\n      swap1\n      dup2\n      mstore\n      0x20\n      add\n      0x00\n      keccak256\n      sload\n        /* \"https://github.com/OpenZeppelin/openzeppelin-contracts/blob/v3.4.2-solc-0.7/contracts/token/ERC20/ERC20.sol\":6417:6455   */\n      tag_262\n      swap1\n        /* \"https://github.com/OpenZeppelin/openzeppelin-contracts/blob/v3.4.2-solc-0.7/contracts/token/ERC20/ERC20.sol\":6417:6513   */\n      swap3\n      swap2\n      swap1\n      0xffffffff\n      and\n      jump\t// in\n    tag_383:\n        /* \"https://github.com/OpenZeppelin/openzeppelin-contracts/blob/v3.4.2-solc-0.7/contracts/token/ERC20/ERC20.sol\":6385:6393   */\n      tag_251\n        /* \"https://github.com/OpenZeppelin/openzeppelin-contracts/blob/v3.4.2-solc-0.7/contracts/token/ERC20/ERC20.sol\":6385:6514   */\n      jump\t// in\n    tag_381:\n        /* \"https://github.com/OpenZeppelin/openzeppelin-contracts/blob/v3.4.2-solc-0.7/contracts/token/ERC20/ERC20.sol\":6531:6535   */\n      0x01\n        /* \"https://github.com/OpenZeppelin/openzeppelin-contracts/blob/v3.4.2-solc-0.7/contracts/token/ERC20/ERC20.sol\":6524:6535   */\n      swap1\n      pop\n        /* \"https://github.com/OpenZeppelin/openzeppelin-contracts/blob/v3.4.2-solc-0.7/contracts/token/ERC20/ERC20.sol\":6276:6542   */\n      swap3\n      swap2\n      pop\n      pop\n      jump\t// out\n        /* \"LiquidityToken.sol\":3663:3785  function enableOrDisableUserFunctions() public onlyOwner() {... */\n    tag_195:\n        /* \"https://github.com/OpenZeppelin/openzeppelin-contracts/blob/v3.4.2-solc-0.7/contracts/access/Ownable.sol\":1291:1303   */\n      tag_386\n        /* \"https://github.com/OpenZeppelin/openzeppelin-contracts/blob/v3.4.2-solc-0.7/contracts/access/Ownable.sol\":1291:1301   */\n      tag_250\n        /* \"https://github.com/OpenZeppelin/openzeppelin-contracts/blob/v3.4.2-solc-0.7/contracts/access/Ownable.sol\":1291:1303   */\n      jump\t// in\n    tag_386:\n        /* \"https://github.com/OpenZeppelin/openzeppelin-contracts/blob/v3.4.2-solc-0.7/contracts/access/Ownable.sol\":1280:1303   */\n      0xffffffffffffffffffffffffffffffffffffffff\n      and\n        /* \"https://github.com/OpenZeppelin/openzeppelin-contracts/blob/v3.4.2-solc-0.7/contracts/access/Ownable.sol\":1280:1287   */\n      tag_387\n        /* \"https://github.com/OpenZeppelin/openzeppelin-contracts/blob/v3.4.2-solc-0.7/contracts/access/Ownable.sol\":1280:1285   */\n      tag_166\n        /* \"https://github.com/OpenZeppelin/openzeppelin-contracts/blob/v3.4.2-solc-0.7/contracts/access/Ownable.sol\":1280:1287   */\n      jump\t// in\n    tag_387:\n        /* \"https://github.com/OpenZeppelin/openzeppelin-contracts/blob/v3.4.2-solc-0.7/contracts/access/Ownable.sol\":1280:1303   */\n      0xffffffffffffffffffffffffffffffffffffffff\n      and\n      eq\n        /* \"https://github.com/OpenZeppelin/openzeppelin-contracts/blob/v3.4.2-solc-0.7/contracts/access/Ownable.sol\":1272:1340   */\n      tag_388\n      jumpi\n      mload(0x40)\n      0x08c379a000000000000000000000000000000000000000000000000000000000\n      dup2\n      mstore\n      0x04\n      add\n      dup1\n      dup1\n      0x20\n      add\n      dup3\n      dup2\n      sub\n      dup3\n      mstore\n      0x20\n      dup2\n      mstore\n      0x20\n      add\n      dup1\n      0x4f776e61626c653a2063616c6c6572206973206e6f7420746865206f776e6572\n      dup2\n      mstore\n      pop\n      0x20\n      add\n      swap2\n      pop\n      pop\n      mload(0x40)\n      dup1\n      swap2\n      sub\n      swap1\n      revert\n    tag_388:\n        /* \"LiquidityToken.sol\":3756:3780  areUserFunctionsDisabled */\n      0x11\n      0x00\n      swap1\n      sload\n      swap1\n      0x0100\n      exp\n      swap1\n      div\n      0xff\n      and\n        /* \"LiquidityToken.sol\":3755:3780  !areUserFunctionsDisabled */\n      iszero\n        /* \"LiquidityToken.sol\":3728:3752  areUserFunctionsDisabled */\n      0x11\n      0x00\n        /* \"LiquidityToken.sol\":3728:3780  areUserFunctionsDisabled = !areUserFunctionsDisabled */\n      0x0100\n      exp\n      dup2\n      sload\n      dup2\n      0xff\n      mul\n      not\n      and\n      swap1\n      dup4\n      iszero\n      iszero\n      mul\n      or\n      swap1\n      sstore\n      pop\n        /* \"LiquidityToken.sol\":3663:3785  function enableOrDisableUserFunctions() public onlyOwner() {... */\n      jump\t// out\n        /* \"https://github.com/OpenZeppelin/openzeppelin-contracts/blob/v3.4.2-solc-0.7/contracts/token/ERC20/ERC20.sol\":3712:3884   */\n    tag_198:\n        /* \"https://github.com/OpenZeppelin/openzeppelin-contracts/blob/v3.4.2-solc-0.7/contracts/token/ERC20/ERC20.sol\":3798:3802   */\n      0x00\n        /* \"https://github.com/OpenZeppelin/openzeppelin-contracts/blob/v3.4.2-solc-0.7/contracts/token/ERC20/ERC20.sol\":3814:3856   */\n      tag_391\n        /* \"https://github.com/OpenZeppelin/openzeppelin-contracts/blob/v3.4.2-solc-0.7/contracts/token/ERC20/ERC20.sol\":3824:3836   */\n      tag_392\n        /* \"https://github.com/OpenZeppelin/openzeppelin-contracts/blob/v3.4.2-solc-0.7/contracts/token/ERC20/ERC20.sol\":3824:3834   */\n      tag_250\n        /* \"https://github.com/OpenZeppelin/openzeppelin-contracts/blob/v3.4.2-solc-0.7/contracts/token/ERC20/ERC20.sol\":3824:3836   */\n      jump\t// in\n    tag_392:\n        /* \"https://github.com/OpenZeppelin/openzeppelin-contracts/blob/v3.4.2-solc-0.7/contracts/token/ERC20/ERC20.sol\":3838:3847   */\n      dup5\n        /* \"https://github.com/OpenZeppelin/openzeppelin-contracts/blob/v3.4.2-solc-0.7/contracts/token/ERC20/ERC20.sol\":3849:3855   */\n      dup5\n        /* \"https://github.com/OpenZeppelin/openzeppelin-contracts/blob/v3.4.2-solc-0.7/contracts/token/ERC20/ERC20.sol\":3814:3823   */\n      tag_257\n        /* \"https://github.com/OpenZeppelin/openzeppelin-contracts/blob/v3.4.2-solc-0.7/contracts/token/ERC20/ERC20.sol\":3814:3856   */\n      jump\t// in\n    tag_391:\n        /* \"https://github.com/OpenZeppelin/openzeppelin-contracts/blob/v3.4.2-solc-0.7/contracts/token/ERC20/ERC20.sol\":3873:3877   */\n      0x01\n        /* \"https://github.com/OpenZeppelin/openzeppelin-contracts/blob/v3.4.2-solc-0.7/contracts/token/ERC20/ERC20.sol\":3866:3877   */\n      swap1\n      pop\n        /* \"https://github.com/OpenZeppelin/openzeppelin-contracts/blob/v3.4.2-solc-0.7/contracts/token/ERC20/ERC20.sol\":3712:3884   */\n      swap3\n      swap2\n      pop\n      pop\n      jump\t// out\n        /* \"LiquidityToken.sol\":957:997  uint public withdrawFeesPerThousandForLT */\n    tag_200:\n      sload(0x10)\n      dup2\n      jump\t// out\n        /* \"LiquidityToken.sol\":11760:11985  function updateWithdrawalFeesForLT(uint _valuePerThousand) public onlyOwner() {... */\n    tag_203:\n        /* \"https://github.com/OpenZeppelin/openzeppelin-contracts/blob/v3.4.2-solc-0.7/contracts/access/Ownable.sol\":1291:1303   */\n      tag_394\n        /* \"https://github.com/OpenZeppelin/openzeppelin-contracts/blob/v3.4.2-solc-0.7/contracts/access/Ownable.sol\":1291:1301   */\n      tag_250\n        /* \"https://github.com/OpenZeppelin/openzeppelin-contracts/blob/v3.4.2-solc-0.7/contracts/access/Ownable.sol\":1291:1303   */\n      jump\t// in\n    tag_394:\n        /* \"https://github.com/OpenZeppelin/openzeppelin-contracts/blob/v3.4.2-solc-0.7/contracts/access/Ownable.sol\":1280:1303   */\n      0xffffffffffffffffffffffffffffffffffffffff\n      and\n        /* \"https://github.com/OpenZeppelin/openzeppelin-contracts/blob/v3.4.2-solc-0.7/contracts/access/Ownable.sol\":1280:1287   */\n      tag_395\n        /* \"https://github.com/OpenZeppelin/openzeppelin-contracts/blob/v3.4.2-solc-0.7/contracts/access/Ownable.sol\":1280:1285   */\n      tag_166\n        /* \"https://github.com/OpenZeppelin/openzeppelin-contracts/blob/v3.4.2-solc-0.7/contracts/access/Ownable.sol\":1280:1287   */\n      jump\t// in\n    tag_395:\n        /* \"https://github.com/OpenZeppelin/openzeppelin-contracts/blob/v3.4.2-solc-0.7/contracts/access/Ownable.sol\":1280:1303   */\n      0xffffffffffffffffffffffffffffffffffffffff\n      and\n      eq\n        /* \"https://github.com/OpenZeppelin/openzeppelin-contracts/blob/v3.4.2-solc-0.7/contracts/access/Ownable.sol\":1272:1340   */\n      tag_396\n      jumpi\n      mload(0x40)\n      0x08c379a000000000000000000000000000000000000000000000000000000000\n      dup2\n      mstore\n      0x04\n      add\n      dup1\n      dup1\n      0x20\n      add\n      dup3\n      dup2\n      sub\n      dup3\n      mstore\n      0x20\n      dup2\n      mstore\n      0x20\n      add\n      dup1\n      0x4f776e61626c653a2063616c6c6572206973206e6f7420746865206f776e6572\n      dup2\n      mstore\n      pop\n      0x20\n      add\n      swap2\n      pop\n      pop\n      mload(0x40)\n      dup1\n      swap2\n      sub\n      swap1\n      revert\n    tag_396:\n        /* \"LiquidityToken.sol\":11873:11904  maxWithdrawFeesPerThousandForLT */\n      immutable(\"0x1b4842a19c661b7382881ce30aa723dedf4fd830b4353e3140588333c90c8c04\")\n        /* \"LiquidityToken.sol\":11852:11869  _valuePerThousand */\n      dup2\n        /* \"LiquidityToken.sol\":11852:11904  _valuePerThousand <= maxWithdrawFeesPerThousandForLT */\n      gt\n      iszero\n        /* \"LiquidityToken.sol\":11844:11922  require(_valuePerThousand <= maxWithdrawFeesPerThousandForLT, \"Invalid value\") */\n      tag_398\n      jumpi\n      mload(0x40)\n      0x08c379a000000000000000000000000000000000000000000000000000000000\n      dup2\n      mstore\n      0x04\n      add\n      dup1\n      dup1\n      0x20\n      add\n      dup3\n      dup2\n      sub\n      dup3\n      mstore\n      0x0d\n      dup2\n      mstore\n      0x20\n      add\n      dup1\n      0x496e76616c69642076616c756500000000000000000000000000000000000000\n      dup2\n      mstore\n      pop\n      0x20\n      add\n      swap2\n      pop\n      pop\n      mload(0x40)\n      dup1\n      swap2\n      sub\n      swap1\n      revert\n    tag_398:\n        /* \"LiquidityToken.sol\":11959:11976  _valuePerThousand */\n      dup1\n        /* \"LiquidityToken.sol\":11928:11956  withdrawFeesPerThousandForLT */\n      0x10\n        /* \"LiquidityToken.sol\":11928:11976  withdrawFeesPerThousandForLT = _valuePerThousand */\n      dup2\n      swap1\n      sstore\n      pop\n        /* \"LiquidityToken.sol\":11760:11985  function updateWithdrawalFeesForLT(uint _valuePerThousand) public onlyOwner() {... */\n      pop\n      jump\t// out\n        /* \"LiquidityToken.sol\":898:918  uint public stakedLT */\n    tag_205:\n      sload(0x0e)\n      dup2\n      jump\t// out\n        /* \"LiquidityToken.sol\":9794:10402  function depositLT(uint _value) public {... */\n    tag_208:\n        /* \"LiquidityToken.sol\":9843:9878  ensureUserFunctionsAreNotDisabled() */\n      tag_400\n        /* \"LiquidityToken.sol\":9843:9876  ensureUserFunctionsAreNotDisabled */\n      tag_95\n        /* \"LiquidityToken.sol\":9843:9878  ensureUserFunctionsAreNotDisabled() */\n      jump\t// in\n    tag_400:\n        /* \"LiquidityToken.sol\":9910:9931  balanceOf(msg.sender) */\n      tag_401\n        /* \"LiquidityToken.sol\":9920:9930  msg.sender */\n      caller\n        /* \"LiquidityToken.sol\":9910:9919  balanceOf */\n      tag_132\n        /* \"LiquidityToken.sol\":9910:9931  balanceOf(msg.sender) */\n      jump\t// in\n    tag_401:\n        /* \"LiquidityToken.sol\":9900:9906  _value */\n      dup2\n        /* \"LiquidityToken.sol\":9900:9931  _value <= balanceOf(msg.sender) */\n      gt\n      iszero\n        /* \"LiquidityToken.sol\":9885:9980  require(... */\n      tag_402\n      jumpi\n      mload(0x40)\n      0x08c379a000000000000000000000000000000000000000000000000000000000\n      dup2\n      mstore\n      0x04\n      add\n      dup1\n      dup1\n      0x20\n      add\n      dup3\n      dup2\n      sub\n      dup3\n      mstore\n      0x1f\n      dup2\n      mstore\n      0x20\n      add\n      dup1\n      0x56616c7565206578636565647320617661696c61626c652062616c616e636500\n      dup2\n      mstore\n      pop\n      0x20\n      add\n      swap2\n      pop\n      pop\n      mload(0x40)\n      dup1\n      swap2\n      sub\n      swap1\n      revert\n    tag_402:\n        /* \"LiquidityToken.sol\":9991:10008  uint _hodlRewards */\n      0x00\n        /* \"LiquidityToken.sol\":10011:10053  updateStakingAndGetHodlRewards(msg.sender) */\n      tag_403\n        /* \"LiquidityToken.sol\":10042:10052  msg.sender */\n      caller\n        /* \"LiquidityToken.sol\":10011:10041  updateStakingAndGetHodlRewards */\n      tag_275\n        /* \"LiquidityToken.sol\":10011:10053  updateStakingAndGetHodlRewards(msg.sender) */\n      jump\t// in\n    tag_403:\n        /* \"LiquidityToken.sol\":9991:10053  uint _hodlRewards = updateStakingAndGetHodlRewards(msg.sender) */\n      swap1\n      pop\n        /* \"LiquidityToken.sol\":10059:10081  uint _valueWithRewards */\n      0x00\n        /* \"LiquidityToken.sol\":10084:10108  _value.add(_hodlRewards) */\n      tag_404\n        /* \"LiquidityToken.sol\":10095:10107  _hodlRewards */\n      dup3\n        /* \"LiquidityToken.sol\":10084:10090  _value */\n      dup5\n        /* \"LiquidityToken.sol\":10084:10094  _value.add */\n      tag_270\n      swap1\n        /* \"LiquidityToken.sol\":10084:10108  _value.add(_hodlRewards) */\n      swap2\n      swap1\n      0xffffffff\n      and\n      jump\t// in\n    tag_404:\n        /* \"LiquidityToken.sol\":10059:10108  uint _valueWithRewards = _value.add(_hodlRewards) */\n      swap1\n      pop\n        /* \"LiquidityToken.sol\":10164:10233  userLiquiToken[msg.sender].fullyChargedBalance.add(_valueWithRewards) */\n      tag_405\n        /* \"LiquidityToken.sol\":10215:10232  _valueWithRewards */\n      dup2\n        /* \"LiquidityToken.sol\":10164:10178  userLiquiToken */\n      0x13\n        /* \"LiquidityToken.sol\":10164:10190  userLiquiToken[msg.sender] */\n      0x00\n        /* \"LiquidityToken.sol\":10179:10189  msg.sender */\n      caller\n        /* \"LiquidityToken.sol\":10164:10190  userLiquiToken[msg.sender] */\n      0xffffffffffffffffffffffffffffffffffffffff\n      and\n      0xffffffffffffffffffffffffffffffffffffffff\n      and\n      dup2\n      mstore\n      0x20\n      add\n      swap1\n      dup2\n      mstore\n      0x20\n      add\n      0x00\n      keccak256\n        /* \"LiquidityToken.sol\":10164:10210  userLiquiToken[msg.sender].fullyChargedBalance */\n      0x00\n      add\n      sload\n        /* \"LiquidityToken.sol\":10164:10214  userLiquiToken[msg.sender].fullyChargedBalance.add */\n      tag_270\n      swap1\n        /* \"LiquidityToken.sol\":10164:10233  userLiquiToken[msg.sender].fullyChargedBalance.add(_valueWithRewards) */\n      swap2\n      swap1\n      0xffffffff\n      and\n      jump\t// in\n    tag_405:\n        /* \"LiquidityToken.sol\":10115:10129  userLiquiToken */\n      0x13\n        /* \"LiquidityToken.sol\":10115:10141  userLiquiToken[msg.sender] */\n      0x00\n        /* \"LiquidityToken.sol\":10130:10140  msg.sender */\n      caller\n        /* \"LiquidityToken.sol\":10115:10141  userLiquiToken[msg.sender] */\n      0xffffffffffffffffffffffffffffffffffffffff\n      and\n      0xffffffffffffffffffffffffffffffffffffffff\n      and\n      dup2\n      mstore\n      0x20\n      add\n      swap1\n      dup2\n      mstore\n      0x20\n      add\n      0x00\n      keccak256\n        /* \"LiquidityToken.sol\":10115:10161  userLiquiToken[msg.sender].fullyChargedBalance */\n      0x00\n      add\n        /* \"LiquidityToken.sol\":10115:10233  userLiquiToken[msg.sender].fullyChargedBalance = userLiquiToken[msg.sender].fullyChargedBalance.add(_valueWithRewards) */\n      dup2\n      swap1\n      sstore\n      pop\n        /* \"LiquidityToken.sol\":10250:10281  stakedLT.add(_valueWithRewards) */\n      tag_406\n        /* \"LiquidityToken.sol\":10263:10280  _valueWithRewards */\n      dup2\n        /* \"LiquidityToken.sol\":10250:10258  stakedLT */\n      sload(0x0e)\n        /* \"LiquidityToken.sol\":10250:10262  stakedLT.add */\n      tag_270\n      swap1\n        /* \"LiquidityToken.sol\":10250:10281  stakedLT.add(_valueWithRewards) */\n      swap2\n      swap1\n      0xffffffff\n      and\n      jump\t// in\n    tag_406:\n        /* \"LiquidityToken.sol\":10239:10247  stakedLT */\n      0x0e\n        /* \"LiquidityToken.sol\":10239:10281  stakedLT = stakedLT.add(_valueWithRewards) */\n      dup2\n      swap1\n      sstore\n      pop\n        /* \"LiquidityToken.sol\":10292:10336  _transfer(msg.sender, address(this), _value) */\n      tag_407\n        /* \"LiquidityToken.sol\":10302:10312  msg.sender */\n      caller\n        /* \"LiquidityToken.sol\":10322:10326  this */\n      address\n        /* \"LiquidityToken.sol\":10329:10335  _value */\n      dup6\n        /* \"LiquidityToken.sol\":10292:10301  _transfer */\n      tag_257\n        /* \"LiquidityToken.sol\":10292:10336  _transfer(msg.sender, address(this), _value) */\n      jump\t// in\n    tag_407:\n        /* \"LiquidityToken.sol\":10352:10397  LTDeposited(msg.sender, _value, _hodlRewards) */\n      0x6f5036100ec84840f4ca7c243e6ca7c042949756211bdfb358406a77dc41a42e\n        /* \"LiquidityToken.sol\":10364:10374  msg.sender */\n      caller\n        /* \"LiquidityToken.sol\":10376:10382  _value */\n      dup5\n        /* \"LiquidityToken.sol\":10384:10396  _hodlRewards */\n      dup5\n        /* \"LiquidityToken.sol\":10352:10397  LTDeposited(msg.sender, _value, _hodlRewards) */\n      mload(0x40)\n      dup1\n      dup5\n      0xffffffffffffffffffffffffffffffffffffffff\n      and\n      dup2\n      mstore\n      0x20\n      add\n      dup4\n      dup2\n      mstore\n      0x20\n      add\n      dup3\n      dup2\n      mstore\n      0x20\n      add\n      swap4\n      pop\n      pop\n      pop\n      pop\n      mload(0x40)\n      dup1\n      swap2\n      sub\n      swap1\n      log1\n        /* \"LiquidityToken.sol\":9794:10402  function depositLT(uint _value) public {... */\n      pop\n      pop\n      pop\n      jump\t// out\n        /* \"LiquidityToken.sol\":13829:13953  function mintByInterfaceProjectToken(uint _value) public onlyInterfaceProjectToken() {... */\n    tag_211:\n        /* \"LiquidityToken.sol\":12331:12364  ensureOnlyInterfaceProjectToken() */\n      tag_409\n        /* \"LiquidityToken.sol\":12331:12362  ensureOnlyInterfaceProjectToken */\n      tag_305\n        /* \"LiquidityToken.sol\":12331:12364  ensureOnlyInterfaceProjectToken() */\n      jump\t// in\n    tag_409:\n        /* \"LiquidityToken.sol\":13920:13948  _mint(address(this), _value) */\n      tag_411\n        /* \"LiquidityToken.sol\":13934:13938  this */\n      address\n        /* \"LiquidityToken.sol\":13941:13947  _value */\n      dup3\n        /* \"LiquidityToken.sol\":13920:13925  _mint */\n      tag_379\n        /* \"LiquidityToken.sol\":13920:13948  _mint(address(this), _value) */\n      jump\t// in\n    tag_411:\n        /* \"LiquidityToken.sol\":13829:13953  function mintByInterfaceProjectToken(uint _value) public onlyInterfaceProjectToken() {... */\n      pop\n      jump\t// out\n        /* \"LiquidityToken.sol\":3962:4327  function setInterfaceProjectToken(InterfaceProjectToken _interfaceProjectToken)... */\n    tag_214:\n        /* \"https://github.com/OpenZeppelin/openzeppelin-contracts/blob/v3.4.2-solc-0.7/contracts/access/Ownable.sol\":1291:1303   */\n      tag_413\n        /* \"https://github.com/OpenZeppelin/openzeppelin-contracts/blob/v3.4.2-solc-0.7/contracts/access/Ownable.sol\":1291:1301   */\n      tag_250\n        /* \"https://github.com/OpenZeppelin/openzeppelin-contracts/blob/v3.4.2-solc-0.7/contracts/access/Ownable.sol\":1291:1303   */\n      jump\t// in\n    tag_413:\n        /* \"https://github.com/OpenZeppelin/openzeppelin-contracts/blob/v3.4.2-solc-0.7/contracts/access/Ownable.sol\":1280:1303   */\n      0xffffffffffffffffffffffffffffffffffffffff\n      and\n        /* \"https://github.com/OpenZeppelin/openzeppelin-contracts/blob/v3.4.2-solc-0.7/contracts/access/Ownable.sol\":1280:1287   */\n      tag_414\n        /* \"https://github.com/OpenZeppelin/openzeppelin-contracts/blob/v3.4.2-solc-0.7/contracts/access/Ownable.sol\":1280:1285   */\n      tag_166\n        /* \"https://github.com/OpenZeppelin/openzeppelin-contracts/blob/v3.4.2-solc-0.7/contracts/access/Ownable.sol\":1280:1287   */\n      jump\t// in\n    tag_414:\n        /* \"https://github.com/OpenZeppelin/openzeppelin-contracts/blob/v3.4.2-solc-0.7/contracts/access/Ownable.sol\":1280:1303   */\n      0xffffffffffffffffffffffffffffffffffffffff\n      and\n      eq\n        /* \"https://github.com/OpenZeppelin/openzeppelin-contracts/blob/v3.4.2-solc-0.7/contracts/access/Ownable.sol\":1272:1340   */\n      tag_415\n      jumpi\n      mload(0x40)\n      0x08c379a000000000000000000000000000000000000000000000000000000000\n      dup2\n      mstore\n      0x04\n      add\n      dup1\n      dup1\n      0x20\n      add\n      dup3\n      dup2\n      sub\n      dup3\n      mstore\n      0x20\n      dup2\n      mstore\n      0x20\n      add\n      dup1\n      0x4f776e61626c653a2063616c6c6572206973206e6f7420746865206f776e6572\n      dup2\n      mstore\n      pop\n      0x20\n      add\n      swap2\n      pop\n      pop\n      mload(0x40)\n      dup1\n      swap2\n      sub\n      swap1\n      revert\n    tag_415:\n        /* \"LiquidityToken.sol\":4130:4133  0x0 */\n      0x00\n        /* \"LiquidityToken.sol\":4087:4134  address(_interfaceProjectToken) != address(0x0) */\n      0xffffffffffffffffffffffffffffffffffffffff\n      and\n        /* \"LiquidityToken.sol\":4095:4117  _interfaceProjectToken */\n      dup2\n        /* \"LiquidityToken.sol\":4087:4134  address(_interfaceProjectToken) != address(0x0) */\n      0xffffffffffffffffffffffffffffffffffffffff\n      and\n      eq\n      iszero\n        /* \"LiquidityToken.sol\":4072:4164  require(... */\n      tag_417\n      jumpi\n      mload(0x40)\n      0x08c379a000000000000000000000000000000000000000000000000000000000\n      dup2\n      mstore\n      0x04\n      add\n      dup1\n      dup1\n      0x20\n      add\n      dup3\n      dup2\n      sub\n      dup3\n      mstore\n      0x13\n      dup2\n      mstore\n      0x20\n      add\n      dup1\n      0x53657420612076616c6964206164647265737300000000000000000000000000\n      dup2\n      mstore\n      pop\n      0x20\n      add\n      swap2\n      pop\n      pop\n      mload(0x40)\n      dup1\n      swap2\n      sub\n      swap1\n      revert\n    tag_417:\n        /* \"LiquidityToken.sol\":4222:4227  false */\n      0x00\n        /* \"LiquidityToken.sol\":4189:4227  isInterfaceProjectTokenLocked == false */\n      iszero\n      iszero\n        /* \"LiquidityToken.sol\":4189:4218  isInterfaceProjectTokenLocked */\n      0x11\n      0x01\n      swap1\n      sload\n      swap1\n      0x0100\n      exp\n      swap1\n      div\n      0xff\n      and\n        /* \"LiquidityToken.sol\":4189:4227  isInterfaceProjectTokenLocked == false */\n      iszero\n      iszero\n      eq\n        /* \"LiquidityToken.sol\":4174:4269  require(... */\n      tag_418\n      jumpi\n      mload(0x40)\n      0x08c379a000000000000000000000000000000000000000000000000000000000\n      dup2\n      mstore\n      0x04\n      add\n      dup1\n      dup1\n      0x20\n      add\n      dup3\n      dup2\n      sub\n      dup3\n      mstore\n      0x1f\n      dup2\n      mstore\n      0x20\n      add\n      dup1\n      0x696e7465726661636550726f6a656374546f6b656e206973206c6f636b656400\n      dup2\n      mstore\n      pop\n      0x20\n      add\n      swap2\n      pop\n      pop\n      mload(0x40)\n      dup1\n      swap2\n      sub\n      swap1\n      revert\n    tag_418:\n        /* \"LiquidityToken.sol\":4300:4322  _interfaceProjectToken */\n      dup1\n        /* \"LiquidityToken.sol\":4276:4297  interfaceProjectToken */\n      0x06\n      0x00\n        /* \"LiquidityToken.sol\":4276:4322  interfaceProjectToken = _interfaceProjectToken */\n      0x0100\n      exp\n      dup2\n      sload\n      dup2\n      0xffffffffffffffffffffffffffffffffffffffff\n      mul\n      not\n      and\n      swap1\n      dup4\n      0xffffffffffffffffffffffffffffffffffffffff\n      and\n      mul\n      or\n      swap1\n      sstore\n      pop\n        /* \"LiquidityToken.sol\":3962:4327  function setInterfaceProjectToken(InterfaceProjectToken _interfaceProjectToken)... */\n      pop\n      jump\t// out\n        /* \"https://github.com/OpenZeppelin/openzeppelin-contracts/blob/v3.4.2-solc-0.7/contracts/token/ERC20/ERC20.sol\":3942:4091   */\n    tag_217:\n        /* \"https://github.com/OpenZeppelin/openzeppelin-contracts/blob/v3.4.2-solc-0.7/contracts/token/ERC20/ERC20.sol\":4031:4038   */\n      0x00\n        /* \"https://github.com/OpenZeppelin/openzeppelin-contracts/blob/v3.4.2-solc-0.7/contracts/token/ERC20/ERC20.sol\":4057:4068   */\n      0x01\n        /* \"https://github.com/OpenZeppelin/openzeppelin-contracts/blob/v3.4.2-solc-0.7/contracts/token/ERC20/ERC20.sol\":4057:4075   */\n      0x00\n        /* \"https://github.com/OpenZeppelin/openzeppelin-contracts/blob/v3.4.2-solc-0.7/contracts/token/ERC20/ERC20.sol\":4069:4074   */\n      dup5\n        /* \"https://github.com/OpenZeppelin/openzeppelin-contracts/blob/v3.4.2-solc-0.7/contracts/token/ERC20/ERC20.sol\":4057:4075   */\n      0xffffffffffffffffffffffffffffffffffffffff\n      and\n      0xffffffffffffffffffffffffffffffffffffffff\n      and\n      dup2\n      mstore\n      0x20\n      add\n      swap1\n      dup2\n      mstore\n      0x20\n      add\n      0x00\n      keccak256\n        /* \"https://github.com/OpenZeppelin/openzeppelin-contracts/blob/v3.4.2-solc-0.7/contracts/token/ERC20/ERC20.sol\":4057:4084   */\n      0x00\n        /* \"https://github.com/OpenZeppelin/openzeppelin-contracts/blob/v3.4.2-solc-0.7/contracts/token/ERC20/ERC20.sol\":4076:4083   */\n      dup4\n        /* \"https://github.com/OpenZeppelin/openzeppelin-contracts/blob/v3.4.2-solc-0.7/contracts/token/ERC20/ERC20.sol\":4057:4084   */\n      0xffffffffffffffffffffffffffffffffffffffff\n      and\n      0xffffffffffffffffffffffffffffffffffffffff\n      and\n      dup2\n      mstore\n      0x20\n      add\n      swap1\n      dup2\n      mstore\n      0x20\n      add\n      0x00\n      keccak256\n      sload\n        /* \"https://github.com/OpenZeppelin/openzeppelin-contracts/blob/v3.4.2-solc-0.7/contracts/token/ERC20/ERC20.sol\":4050:4084   */\n      swap1\n      pop\n        /* \"https://github.com/OpenZeppelin/openzeppelin-contracts/blob/v3.4.2-solc-0.7/contracts/token/ERC20/ERC20.sol\":3942:4091   */\n      swap3\n      swap2\n      pop\n      pop\n      jump\t// out\n        /* \"LiquidityToken.sol\":4526:6073  function allocateLTByOwner(address[] memory _users, uint[] memory _values, bool _areAllocationsToBeStaked)... */\n    tag_226:\n        /* \"https://github.com/OpenZeppelin/openzeppelin-contracts/blob/v3.4.2-solc-0.7/contracts/access/Ownable.sol\":1291:1303   */\n      tag_421\n        /* \"https://github.com/OpenZeppelin/openzeppelin-contracts/blob/v3.4.2-solc-0.7/contracts/access/Ownable.sol\":1291:1301   */\n      tag_250\n        /* \"https://github.com/OpenZeppelin/openzeppelin-contracts/blob/v3.4.2-solc-0.7/contracts/access/Ownable.sol\":1291:1303   */\n      jump\t// in\n    tag_421:\n        /* \"https://github.com/OpenZeppelin/openzeppelin-contracts/blob/v3.4.2-solc-0.7/contracts/access/Ownable.sol\":1280:1303   */\n      0xffffffffffffffffffffffffffffffffffffffff\n      and\n        /* \"https://github.com/OpenZeppelin/openzeppelin-contracts/blob/v3.4.2-solc-0.7/contracts/access/Ownable.sol\":1280:1287   */\n      tag_422\n        /* \"https://github.com/OpenZeppelin/openzeppelin-contracts/blob/v3.4.2-solc-0.7/contracts/access/Ownable.sol\":1280:1285   */\n      tag_166\n        /* \"https://github.com/OpenZeppelin/openzeppelin-contracts/blob/v3.4.2-solc-0.7/contracts/access/Ownable.sol\":1280:1287   */\n      jump\t// in\n    tag_422:\n        /* \"https://github.com/OpenZeppelin/openzeppelin-contracts/blob/v3.4.2-solc-0.7/contracts/access/Ownable.sol\":1280:1303   */\n      0xffffffffffffffffffffffffffffffffffffffff\n      and\n      eq\n        /* \"https://github.com/OpenZeppelin/openzeppelin-contracts/blob/v3.4.2-solc-0.7/contracts/access/Ownable.sol\":1272:1340   */\n      tag_423\n      jumpi\n      mload(0x40)\n      0x08c379a000000000000000000000000000000000000000000000000000000000\n      dup2\n      mstore\n      0x04\n      add\n      dup1\n      dup1\n      0x20\n      add\n      dup3\n      dup2\n      sub\n      dup3\n      mstore\n      0x20\n      dup2\n      mstore\n      0x20\n      add\n      dup1\n      0x4f776e61626c653a2063616c6c6572206973206e6f7420746865206f776e6572\n      dup2\n      mstore\n      pop\n      0x20\n      add\n      swap2\n      pop\n      pop\n      mload(0x40)\n      dup1\n      swap2\n      sub\n      swap1\n      revert\n    tag_423:\n        /* \"LiquidityToken.sol\":4710:4715  false */\n      0x00\n        /* \"LiquidityToken.sol\":4682:4715  areAllocationsTerminated == false */\n      iszero\n      iszero\n        /* \"LiquidityToken.sol\":4682:4706  areAllocationsTerminated */\n      0x11\n      0x02\n      swap1\n      sload\n      swap1\n      0x0100\n      exp\n      swap1\n      div\n      0xff\n      and\n        /* \"LiquidityToken.sol\":4682:4715  areAllocationsTerminated == false */\n      iszero\n      iszero\n      eq\n        /* \"LiquidityToken.sol\":4667:4752  require(... */\n      tag_425\n      jumpi\n      mload(0x40)\n      0x08c379a000000000000000000000000000000000000000000000000000000000\n      dup2\n      mstore\n      0x04\n      add\n      dup1\n      dup1\n      0x20\n      add\n      dup3\n      dup2\n      sub\n      dup3\n      mstore\n      0x1a\n      dup2\n      mstore\n      0x20\n      add\n      dup1\n      0x616c6c6f636174696f6e7320617265207465726d696e61746564000000000000\n      dup2\n      mstore\n      pop\n      0x20\n      add\n      swap2\n      pop\n      pop\n      mload(0x40)\n      dup1\n      swap2\n      sub\n      swap1\n      revert\n    tag_425:\n        /* \"LiquidityToken.sol\":4759:4787  checkProjectNotYetLaunched() */\n      tag_426\n        /* \"LiquidityToken.sol\":4759:4785  checkProjectNotYetLaunched */\n      tag_427\n        /* \"LiquidityToken.sol\":4759:4787  checkProjectNotYetLaunched() */\n      jump\t// in\n    tag_426:\n        /* \"LiquidityToken.sol\":4794:4820  uint _allocatedTokenSupply */\n      0x00\n        /* \"LiquidityToken.sol\":4826:4847  uint _usersListLength */\n      dup1\n        /* \"LiquidityToken.sol\":4850:4856  _users */\n      dup5\n        /* \"LiquidityToken.sol\":4850:4863  _users.length */\n      mload\n        /* \"LiquidityToken.sol\":4826:4863  uint _usersListLength = _users.length */\n      swap1\n      pop\n        /* \"LiquidityToken.sol\":4869:4882  address _user */\n      0x00\n        /* \"LiquidityToken.sol\":4888:4899  uint _value */\n      dup1\n        /* \"LiquidityToken.sol\":4905:4922  uint _hodlRewards */\n      0x00\n        /* \"LiquidityToken.sol\":4928:4946  uint _totalRewards */\n      dup1\n        /* \"LiquidityToken.sol\":4990:4997  _values */\n      dup8\n        /* \"LiquidityToken.sol\":4990:5004  _values.length */\n      mload\n        /* \"LiquidityToken.sol\":4970:4986  _usersListLength */\n      dup6\n        /* \"LiquidityToken.sol\":4970:5004  _usersListLength == _values.length */\n      eq\n        /* \"LiquidityToken.sol\":4955:5053  require(... */\n      tag_428\n      jumpi\n      mload(0x40)\n      0x08c379a000000000000000000000000000000000000000000000000000000000\n      dup2\n      mstore\n      0x04\n      add\n      dup1\n      dup1\n      0x20\n      add\n      dup3\n      dup2\n      sub\n      dup3\n      mstore\n      0x26\n      dup2\n      mstore\n      0x20\n      add\n      dup1\n      data_f2240f5a918e8df78ef0222ad9355ea418dab0d59997deefa8646c9cb441c6d5\n      0x26\n      swap2\n      codecopy\n      0x40\n      add\n      swap2\n      pop\n      pop\n      mload(0x40)\n      dup1\n      swap2\n      sub\n      swap1\n      revert\n    tag_428:\n        /* \"LiquidityToken.sol\":5065:5073  uint _id */\n      0x00\n        /* \"LiquidityToken.sol\":5060:5679  for (uint _id = 0 ; _id < _usersListLength ; _id++) {... */\n    tag_429:\n        /* \"LiquidityToken.sol\":5086:5102  _usersListLength */\n      dup6\n        /* \"LiquidityToken.sol\":5080:5083  _id */\n      dup2\n        /* \"LiquidityToken.sol\":5080:5102  _id < _usersListLength */\n      lt\n        /* \"LiquidityToken.sol\":5060:5679  for (uint _id = 0 ; _id < _usersListLength ; _id++) {... */\n      iszero\n      tag_430\n      jumpi\n        /* \"LiquidityToken.sol\":5128:5134  _users */\n      dup10\n        /* \"LiquidityToken.sol\":5135:5138  _id */\n      dup2\n        /* \"LiquidityToken.sol\":5128:5139  _users[_id] */\n      dup2\n      mload\n      dup2\n      lt\n      tag_432\n      jumpi\n      invalid\n    tag_432:\n      0x20\n      mul\n      0x20\n      add\n      add\n      mload\n        /* \"LiquidityToken.sol\":5120:5139  _user = _users[_id] */\n      swap5\n      pop\n        /* \"LiquidityToken.sol\":5156:5163  _values */\n      dup9\n        /* \"LiquidityToken.sol\":5164:5167  _id */\n      dup2\n        /* \"LiquidityToken.sol\":5156:5168  _values[_id] */\n      dup2\n      mload\n      dup2\n      lt\n      tag_433\n      jumpi\n      invalid\n    tag_433:\n      0x20\n      mul\n      0x20\n      add\n      add\n      mload\n        /* \"LiquidityToken.sol\":5147:5168  _value = _values[_id] */\n      swap4\n      pop\n        /* \"LiquidityToken.sol\":5181:5206  _areAllocationsToBeStaked */\n      dup8\n        /* \"LiquidityToken.sol\":5177:5513  if (_areAllocationsToBeStaked) {... */\n      iszero\n      tag_434\n      jumpi\n        /* \"LiquidityToken.sol\":5233:5270  updateStakingAndGetHodlRewards(_user) */\n      tag_435\n        /* \"LiquidityToken.sol\":5264:5269  _user */\n      dup6\n        /* \"LiquidityToken.sol\":5233:5263  updateStakingAndGetHodlRewards */\n      tag_275\n        /* \"LiquidityToken.sol\":5233:5270  updateStakingAndGetHodlRewards(_user) */\n      jump\t// in\n    tag_435:\n        /* \"LiquidityToken.sol\":5218:5270  _hodlRewards = updateStakingAndGetHodlRewards(_user) */\n      swap3\n      pop\n        /* \"LiquidityToken.sol\":5335:5406  userLiquiToken[_user].fullyChargedBalance.add(_value).add(_hodlRewards) */\n      tag_436\n        /* \"LiquidityToken.sol\":5393:5405  _hodlRewards */\n      dup4\n        /* \"LiquidityToken.sol\":5335:5388  userLiquiToken[_user].fullyChargedBalance.add(_value) */\n      tag_437\n        /* \"LiquidityToken.sol\":5381:5387  _value */\n      dup7\n        /* \"LiquidityToken.sol\":5335:5349  userLiquiToken */\n      0x13\n        /* \"LiquidityToken.sol\":5335:5356  userLiquiToken[_user] */\n      0x00\n        /* \"LiquidityToken.sol\":5350:5355  _user */\n      dup11\n        /* \"LiquidityToken.sol\":5335:5356  userLiquiToken[_user] */\n      0xffffffffffffffffffffffffffffffffffffffff\n      and\n      0xffffffffffffffffffffffffffffffffffffffff\n      and\n      dup2\n      mstore\n      0x20\n      add\n      swap1\n      dup2\n      mstore\n      0x20\n      add\n      0x00\n      keccak256\n        /* \"LiquidityToken.sol\":5335:5376  userLiquiToken[_user].fullyChargedBalance */\n      0x00\n      add\n      sload\n        /* \"LiquidityToken.sol\":5335:5380  userLiquiToken[_user].fullyChargedBalance.add */\n      tag_270\n      swap1\n        /* \"LiquidityToken.sol\":5335:5388  userLiquiToken[_user].fullyChargedBalance.add(_value) */\n      swap2\n      swap1\n      0xffffffff\n      and\n      jump\t// in\n    tag_437:\n        /* \"LiquidityToken.sol\":5335:5392  userLiquiToken[_user].fullyChargedBalance.add(_value).add */\n      tag_270\n      swap1\n        /* \"LiquidityToken.sol\":5335:5406  userLiquiToken[_user].fullyChargedBalance.add(_value).add(_hodlRewards) */\n      swap2\n      swap1\n      0xffffffff\n      and\n      jump\t// in\n    tag_436:\n        /* \"LiquidityToken.sol\":5280:5294  userLiquiToken */\n      0x13\n        /* \"LiquidityToken.sol\":5280:5301  userLiquiToken[_user] */\n      0x00\n        /* \"LiquidityToken.sol\":5295:5300  _user */\n      dup8\n        /* \"LiquidityToken.sol\":5280:5301  userLiquiToken[_user] */\n      0xffffffffffffffffffffffffffffffffffffffff\n      and\n      0xffffffffffffffffffffffffffffffffffffffff\n      and\n      dup2\n      mstore\n      0x20\n      add\n      swap1\n      dup2\n      mstore\n      0x20\n      add\n      0x00\n      keccak256\n        /* \"LiquidityToken.sol\":5280:5321  userLiquiToken[_user].fullyChargedBalance */\n      0x00\n      add\n        /* \"LiquidityToken.sol\":5280:5406  userLiquiToken[_user].fullyChargedBalance = ... */\n      dup2\n      swap1\n      sstore\n      pop\n        /* \"LiquidityToken.sol\":5432:5463  _totalRewards.add(_hodlRewards) */\n      tag_438\n        /* \"LiquidityToken.sol\":5450:5462  _hodlRewards */\n      dup4\n        /* \"LiquidityToken.sol\":5432:5445  _totalRewards */\n      dup4\n        /* \"LiquidityToken.sol\":5432:5449  _totalRewards.add */\n      tag_270\n      swap1\n        /* \"LiquidityToken.sol\":5432:5463  _totalRewards.add(_hodlRewards) */\n      swap2\n      swap1\n      0xffffffff\n      and\n      jump\t// in\n    tag_438:\n        /* \"LiquidityToken.sol\":5416:5463  _totalRewards = _totalRewards.add(_hodlRewards) */\n      swap2\n      pop\n        /* \"LiquidityToken.sol\":5177:5513  if (_areAllocationsToBeStaked) {... */\n      jump(tag_439)\n    tag_434:\n        /* \"LiquidityToken.sol\":5493:5513  _mint(_user, _value) */\n      tag_440\n        /* \"LiquidityToken.sol\":5499:5504  _user */\n      dup6\n        /* \"LiquidityToken.sol\":5506:5512  _value */\n      dup6\n        /* \"LiquidityToken.sol\":5493:5498  _mint */\n      tag_379\n        /* \"LiquidityToken.sol\":5493:5513  _mint(_user, _value) */\n      jump\t// in\n    tag_440:\n        /* \"LiquidityToken.sol\":5177:5513  if (_areAllocationsToBeStaked) {... */\n    tag_439:\n        /* \"LiquidityToken.sol\":5552:5585  _allocatedTokenSupply.add(_value) */\n      tag_441\n        /* \"LiquidityToken.sol\":5578:5584  _value */\n      dup5\n        /* \"LiquidityToken.sol\":5552:5573  _allocatedTokenSupply */\n      dup9\n        /* \"LiquidityToken.sol\":5552:5577  _allocatedTokenSupply.add */\n      tag_270\n      swap1\n        /* \"LiquidityToken.sol\":5552:5585  _allocatedTokenSupply.add(_value) */\n      swap2\n      swap1\n      0xffffffff\n      and\n      jump\t// in\n    tag_441:\n        /* \"LiquidityToken.sol\":5528:5585  _allocatedTokenSupply = _allocatedTokenSupply.add(_value) */\n      swap7\n      pop\n        /* \"LiquidityToken.sol\":5598:5672  LTAllocatedByOwner(_user, _value, _hodlRewards, _areAllocationsToBeStaked) */\n      0xa984939d0059bc688e1c5458f72ad05b51fc8a6ba959556f5e2ee91c1ab8c7d2\n        /* \"LiquidityToken.sol\":5617:5622  _user */\n      dup6\n        /* \"LiquidityToken.sol\":5624:5630  _value */\n      dup6\n        /* \"LiquidityToken.sol\":5632:5644  _hodlRewards */\n      dup6\n        /* \"LiquidityToken.sol\":5646:5671  _areAllocationsToBeStaked */\n      dup12\n        /* \"LiquidityToken.sol\":5598:5672  LTAllocatedByOwner(_user, _value, _hodlRewards, _areAllocationsToBeStaked) */\n      mload(0x40)\n      dup1\n      dup6\n      0xffffffffffffffffffffffffffffffffffffffff\n      and\n      dup2\n      mstore\n      0x20\n      add\n      dup5\n      dup2\n      mstore\n      0x20\n      add\n      dup4\n      dup2\n      mstore\n      0x20\n      add\n      dup3\n      iszero\n      iszero\n      dup2\n      mstore\n      0x20\n      add\n      swap5\n      pop\n      pop\n      pop\n      pop\n      pop\n      mload(0x40)\n      dup1\n      swap2\n      sub\n      swap1\n      log1\n        /* \"LiquidityToken.sol\":5105:5110  _id++ */\n      dup1\n      dup1\n      0x01\n      add\n      swap2\n      pop\n      pop\n        /* \"LiquidityToken.sol\":5060:5679  for (uint _id = 0 ; _id < _usersListLength ; _id++) {... */\n      jump(tag_429)\n    tag_430:\n      pop\n        /* \"LiquidityToken.sol\":5707:5753  totalTokenAllocated.add(_allocatedTokenSupply) */\n      tag_442\n        /* \"LiquidityToken.sol\":5731:5752  _allocatedTokenSupply */\n      dup7\n        /* \"LiquidityToken.sol\":5707:5726  totalTokenAllocated */\n      sload(0x0f)\n        /* \"LiquidityToken.sol\":5707:5730  totalTokenAllocated.add */\n      tag_270\n      swap1\n        /* \"LiquidityToken.sol\":5707:5753  totalTokenAllocated.add(_allocatedTokenSupply) */\n      swap2\n      swap1\n      0xffffffff\n      and\n      jump\t// in\n    tag_442:\n        /* \"LiquidityToken.sol\":5685:5704  totalTokenAllocated */\n      0x0f\n        /* \"LiquidityToken.sol\":5685:5753  totalTokenAllocated = totalTokenAllocated.add(_allocatedTokenSupply) */\n      dup2\n      swap1\n      sstore\n      pop\n        /* \"LiquidityToken.sol\":5823:5848  maxInitialTokenAllocation */\n      immutable(\"0xdf1d7ff660157bc85a48df0fb4b87e57c45ebc874d9780503ddf301d1cb1f93b\")\n        /* \"LiquidityToken.sol\":5775:5819  totalTokenAllocated.sub(totalStakingRewards) */\n      tag_443\n        /* \"LiquidityToken.sol\":5799:5818  totalStakingRewards */\n      sload(0x0b)\n        /* \"LiquidityToken.sol\":5775:5794  totalTokenAllocated */\n      sload(0x0f)\n        /* \"LiquidityToken.sol\":5775:5798  totalTokenAllocated.sub */\n      tag_277\n      swap1\n        /* \"LiquidityToken.sol\":5775:5819  totalTokenAllocated.sub(totalStakingRewards) */\n      swap2\n      swap1\n      0xffffffff\n      and\n      jump\t// in\n    tag_443:\n        /* \"LiquidityToken.sol\":5775:5848  totalTokenAllocated.sub(totalStakingRewards) <= maxInitialTokenAllocation */\n      gt\n      iszero\n        /* \"LiquidityToken.sol\":5760:5900  require(... */\n      tag_444\n      jumpi\n      mload(0x40)\n      0x08c379a000000000000000000000000000000000000000000000000000000000\n      dup2\n      mstore\n      0x04\n      add\n      dup1\n      dup1\n      0x20\n      add\n      dup3\n      dup2\n      sub\n      dup3\n      mstore\n      0x29\n      dup2\n      mstore\n      0x20\n      add\n      dup1\n      data_45ef06a394c98c8868792d544928cc991879a78fc8cb2f23d6e67cae100d6cc1\n      0x29\n      swap2\n      codecopy\n      0x40\n      add\n      swap2\n      pop\n      pop\n      mload(0x40)\n      dup1\n      swap2\n      sub\n      swap1\n      revert\n    tag_444:\n        /* \"LiquidityToken.sol\":5911:5936  _areAllocationsToBeStaked */\n      dup7\n        /* \"LiquidityToken.sol\":5907:6069  if (_areAllocationsToBeStaked) {... */\n      iszero\n      tag_445\n      jumpi\n        /* \"LiquidityToken.sol\":5946:5989  _mint(address(this), _allocatedTokenSupply) */\n      tag_446\n        /* \"LiquidityToken.sol\":5960:5964  this */\n      address\n        /* \"LiquidityToken.sol\":5967:5988  _allocatedTokenSupply */\n      dup8\n        /* \"LiquidityToken.sol\":5946:5951  _mint */\n      tag_379\n        /* \"LiquidityToken.sol\":5946:5989  _mint(address(this), _allocatedTokenSupply) */\n      jump\t// in\n    tag_446:\n        /* \"LiquidityToken.sol\":6008:6062  stakedLT.add(_allocatedTokenSupply).add(_totalRewards) */\n      tag_447\n        /* \"LiquidityToken.sol\":6048:6061  _totalRewards */\n      dup2\n        /* \"LiquidityToken.sol\":6008:6043  stakedLT.add(_allocatedTokenSupply) */\n      tag_448\n        /* \"LiquidityToken.sol\":6021:6042  _allocatedTokenSupply */\n      dup9\n        /* \"LiquidityToken.sol\":6008:6016  stakedLT */\n      sload(0x0e)\n        /* \"LiquidityToken.sol\":6008:6020  stakedLT.add */\n      tag_270\n      swap1\n        /* \"LiquidityToken.sol\":6008:6043  stakedLT.add(_allocatedTokenSupply) */\n      swap2\n      swap1\n      0xffffffff\n      and\n      jump\t// in\n    tag_448:\n        /* \"LiquidityToken.sol\":6008:6047  stakedLT.add(_allocatedTokenSupply).add */\n      tag_270\n      swap1\n        /* \"LiquidityToken.sol\":6008:6062  stakedLT.add(_allocatedTokenSupply).add(_totalRewards) */\n      swap2\n      swap1\n      0xffffffff\n      and\n      jump\t// in\n    tag_447:\n        /* \"LiquidityToken.sol\":5997:6005  stakedLT */\n      0x0e\n        /* \"LiquidityToken.sol\":5997:6062  stakedLT = stakedLT.add(_allocatedTokenSupply).add(_totalRewards) */\n      dup2\n      swap1\n      sstore\n      pop\n        /* \"LiquidityToken.sol\":5907:6069  if (_areAllocationsToBeStaked) {... */\n    tag_445:\n        /* \"https://github.com/OpenZeppelin/openzeppelin-contracts/blob/v3.4.2-solc-0.7/contracts/access/Ownable.sol\":1350:1351   */\n      pop\n      pop\n      pop\n      pop\n      pop\n      pop\n        /* \"LiquidityToken.sol\":4526:6073  function allocateLTByOwner(address[] memory _users, uint[] memory _values, bool _areAllocationsToBeStaked)... */\n      pop\n      pop\n      pop\n      jump\t// out\n        /* \"LiquidityToken.sol\":857:894  uint public currentRewardPerShare1e18 */\n    tag_228:\n      sload(0x0d)\n      dup2\n      jump\t// out\n        /* \"LiquidityToken.sol\":1226:1269  uint public immutable durationLinearVesting */\n    tag_230:\n      immutable(\"0xa719c2344dd06f15f7bcc0801b283ff643eff37bf5b08b13b56b908c19d10371\")\n      dup2\n      jump\t// out\n        /* \"LiquidityToken.sol\":12573:12763  function updateStakingAndGetHodlRewardsByInterfacePT(address _user) public onlyInterfaceProjectToken() returns (uint) {... */\n    tag_233:\n        /* \"LiquidityToken.sol\":12685:12689  uint */\n      0x00\n        /* \"LiquidityToken.sol\":12331:12364  ensureOnlyInterfaceProjectToken() */\n      tag_450\n        /* \"LiquidityToken.sol\":12331:12362  ensureOnlyInterfaceProjectToken */\n      tag_305\n        /* \"LiquidityToken.sol\":12331:12364  ensureOnlyInterfaceProjectToken() */\n      jump\t// in\n    tag_450:\n        /* \"LiquidityToken.sol\":12711:12748  updateStakingAndGetHodlRewards(_user) */\n      tag_452\n        /* \"LiquidityToken.sol\":12742:12747  _user */\n      dup3\n        /* \"LiquidityToken.sol\":12711:12741  updateStakingAndGetHodlRewards */\n      tag_275\n        /* \"LiquidityToken.sol\":12711:12748  updateStakingAndGetHodlRewards(_user) */\n      jump\t// in\n    tag_452:\n        /* \"LiquidityToken.sol\":12697:12756  return(... */\n      swap1\n      pop\n        /* \"LiquidityToken.sol\":12573:12763  function updateStakingAndGetHodlRewardsByInterfacePT(address _user) public onlyInterfaceProjectToken() returns (uint) {... */\n      swap2\n      swap1\n      pop\n      jump\t// out\n        /* \"https://github.com/OpenZeppelin/openzeppelin-contracts/blob/v3.4.2-solc-0.7/contracts/access/Ownable.sol\":1994:2234   */\n    tag_236:\n        /* \"https://github.com/OpenZeppelin/openzeppelin-contracts/blob/v3.4.2-solc-0.7/contracts/access/Ownable.sol\":1291:1303   */\n      tag_454\n        /* \"https://github.com/OpenZeppelin/openzeppelin-contracts/blob/v3.4.2-solc-0.7/contracts/access/Ownable.sol\":1291:1301   */\n      tag_250\n        /* \"https://github.com/OpenZeppelin/openzeppelin-contracts/blob/v3.4.2-solc-0.7/contracts/access/Ownable.sol\":1291:1303   */\n      jump\t// in\n    tag_454:\n        /* \"https://github.com/OpenZeppelin/openzeppelin-contracts/blob/v3.4.2-solc-0.7/contracts/access/Ownable.sol\":1280:1303   */\n      0xffffffffffffffffffffffffffffffffffffffff\n      and\n        /* \"https://github.com/OpenZeppelin/openzeppelin-contracts/blob/v3.4.2-solc-0.7/contracts/access/Ownable.sol\":1280:1287   */\n      tag_455\n        /* \"https://github.com/OpenZeppelin/openzeppelin-contracts/blob/v3.4.2-solc-0.7/contracts/access/Ownable.sol\":1280:1285   */\n      tag_166\n        /* \"https://github.com/OpenZeppelin/openzeppelin-contracts/blob/v3.4.2-solc-0.7/contracts/access/Ownable.sol\":1280:1287   */\n      jump\t// in\n    tag_455:\n        /* \"https://github.com/OpenZeppelin/openzeppelin-contracts/blob/v3.4.2-solc-0.7/contracts/access/Ownable.sol\":1280:1303   */\n      0xffffffffffffffffffffffffffffffffffffffff\n      and\n      eq\n        /* \"https://github.com/OpenZeppelin/openzeppelin-contracts/blob/v3.4.2-solc-0.7/contracts/access/Ownable.sol\":1272:1340   */\n      tag_456\n      jumpi\n      mload(0x40)\n      0x08c379a000000000000000000000000000000000000000000000000000000000\n      dup2\n      mstore\n      0x04\n      add\n      dup1\n      dup1\n      0x20\n      add\n      dup3\n      dup2\n      sub\n      dup3\n      mstore\n      0x20\n      dup2\n      mstore\n      0x20\n      add\n      dup1\n      0x4f776e61626c653a2063616c6c6572206973206e6f7420746865206f776e6572\n      dup2\n      mstore\n      pop\n      0x20\n      add\n      swap2\n      pop\n      pop\n      mload(0x40)\n      dup1\n      swap2\n      sub\n      swap1\n      revert\n    tag_456:\n        /* \"https://github.com/OpenZeppelin/openzeppelin-contracts/blob/v3.4.2-solc-0.7/contracts/access/Ownable.sol\":2102:2103   */\n      0x00\n        /* \"https://github.com/OpenZeppelin/openzeppelin-contracts/blob/v3.4.2-solc-0.7/contracts/access/Ownable.sol\":2082:2104   */\n      0xffffffffffffffffffffffffffffffffffffffff\n      and\n        /* \"https://github.com/OpenZeppelin/openzeppelin-contracts/blob/v3.4.2-solc-0.7/contracts/access/Ownable.sol\":2082:2090   */\n      dup2\n        /* \"https://github.com/OpenZeppelin/openzeppelin-contracts/blob/v3.4.2-solc-0.7/contracts/access/Ownable.sol\":2082:2104   */\n      0xffffffffffffffffffffffffffffffffffffffff\n      and\n      eq\n      iszero\n        /* \"https://github.com/OpenZeppelin/openzeppelin-contracts/blob/v3.4.2-solc-0.7/contracts/access/Ownable.sol\":2074:2147   */\n      tag_458\n      jumpi\n      mload(0x40)\n      0x08c379a000000000000000000000000000000000000000000000000000000000\n      dup2\n      mstore\n      0x04\n      add\n      dup1\n      dup1\n      0x20\n      add\n      dup3\n      dup2\n      sub\n      dup3\n      mstore\n      0x26\n      dup2\n      mstore\n      0x20\n      add\n      dup1\n      data_245f15ff17f551913a7a18385165551503906a406f905ac1c2437281a7cd0cfe\n      0x26\n      swap2\n      codecopy\n      0x40\n      add\n      swap2\n      pop\n      pop\n      mload(0x40)\n      dup1\n      swap2\n      sub\n      swap1\n      revert\n    tag_458:\n        /* \"https://github.com/OpenZeppelin/openzeppelin-contracts/blob/v3.4.2-solc-0.7/contracts/access/Ownable.sol\":2191:2199   */\n      dup1\n        /* \"https://github.com/OpenZeppelin/openzeppelin-contracts/blob/v3.4.2-solc-0.7/contracts/access/Ownable.sol\":2162:2200   */\n      0xffffffffffffffffffffffffffffffffffffffff\n      and\n        /* \"https://github.com/OpenZeppelin/openzeppelin-contracts/blob/v3.4.2-solc-0.7/contracts/access/Ownable.sol\":2183:2189   */\n      0x05\n      0x01\n      swap1\n      sload\n      swap1\n      0x0100\n      exp\n      swap1\n      div\n      0xffffffffffffffffffffffffffffffffffffffff\n      and\n        /* \"https://github.com/OpenZeppelin/openzeppelin-contracts/blob/v3.4.2-solc-0.7/contracts/access/Ownable.sol\":2162:2200   */\n      0xffffffffffffffffffffffffffffffffffffffff\n      and\n      0x8be0079c531659141344cd1fd0a4f28419497f9722a3daafe3b4186f6b6457e0\n      mload(0x40)\n      mload(0x40)\n      dup1\n      swap2\n      sub\n      swap1\n      log3\n        /* \"https://github.com/OpenZeppelin/openzeppelin-contracts/blob/v3.4.2-solc-0.7/contracts/access/Ownable.sol\":2219:2227   */\n      dup1\n        /* \"https://github.com/OpenZeppelin/openzeppelin-contracts/blob/v3.4.2-solc-0.7/contracts/access/Ownable.sol\":2210:2216   */\n      0x05\n      0x01\n        /* \"https://github.com/OpenZeppelin/openzeppelin-contracts/blob/v3.4.2-solc-0.7/contracts/access/Ownable.sol\":2210:2227   */\n      0x0100\n      exp\n      dup2\n      sload\n      dup2\n      0xffffffffffffffffffffffffffffffffffffffff\n      mul\n      not\n      and\n      swap1\n      dup4\n      0xffffffffffffffffffffffffffffffffffffffff\n      and\n      mul\n      or\n      swap1\n      sstore\n      pop\n        /* \"https://github.com/OpenZeppelin/openzeppelin-contracts/blob/v3.4.2-solc-0.7/contracts/access/Ownable.sol\":1994:2234   */\n      pop\n      jump\t// out\n        /* \"LiquidityToken.sol\":14088:14232  function updateRewardsAfterFeesPaymentByInterface(uint _fees) public onlyInterfaceProjectToken() {... */\n    tag_239:\n        /* \"LiquidityToken.sol\":12331:12364  ensureOnlyInterfaceProjectToken() */\n      tag_460\n        /* \"LiquidityToken.sol\":12331:12362  ensureOnlyInterfaceProjectToken */\n      tag_305\n        /* \"LiquidityToken.sol\":12331:12364  ensureOnlyInterfaceProjectToken() */\n      jump\t// in\n    tag_460:\n        /* \"LiquidityToken.sol\":14191:14227  updateRewardsAfterFeesPayment(_fees) */\n      tag_462\n        /* \"LiquidityToken.sol\":14221:14226  _fees */\n      dup2\n        /* \"LiquidityToken.sol\":14191:14220  updateRewardsAfterFeesPayment */\n      tag_297\n        /* \"LiquidityToken.sol\":14191:14227  updateRewardsAfterFeesPayment(_fees) */\n      jump\t// in\n    tag_462:\n        /* \"LiquidityToken.sol\":14088:14232  function updateRewardsAfterFeesPaymentByInterface(uint _fees) public onlyInterfaceProjectToken() {... */\n      pop\n      jump\t// out\n        /* \"LiquidityToken.sol\":8936:9491  function getHodlRewards(address _user, uint _currentRewardPerShare1e18) public view returns(uint _hodlRewards) {... */\n    tag_242:\n        /* \"LiquidityToken.sol\":9028:9045  uint _hodlRewards */\n      0x00\n        /* \"LiquidityToken.sol\":9054:9075  uint _totalTokenOwned */\n      dup1\n        /* \"LiquidityToken.sol\":9078:9170  userLiquiToken[_user].fullyChargedBalance.add(userLiquiToken[_user].partiallyChargedBalance) */\n      tag_464\n        /* \"LiquidityToken.sol\":9124:9138  userLiquiToken */\n      0x13\n        /* \"LiquidityToken.sol\":9124:9145  userLiquiToken[_user] */\n      0x00\n        /* \"LiquidityToken.sol\":9139:9144  _user */\n      dup7\n        /* \"LiquidityToken.sol\":9124:9145  userLiquiToken[_user] */\n      0xffffffffffffffffffffffffffffffffffffffff\n      and\n      0xffffffffffffffffffffffffffffffffffffffff\n      and\n      dup2\n      mstore\n      0x20\n      add\n      swap1\n      dup2\n      mstore\n      0x20\n      add\n      0x00\n      keccak256\n        /* \"LiquidityToken.sol\":9124:9169  userLiquiToken[_user].partiallyChargedBalance */\n      0x01\n      add\n      sload\n        /* \"LiquidityToken.sol\":9078:9092  userLiquiToken */\n      0x13\n        /* \"LiquidityToken.sol\":9078:9099  userLiquiToken[_user] */\n      0x00\n        /* \"LiquidityToken.sol\":9093:9098  _user */\n      dup8\n        /* \"LiquidityToken.sol\":9078:9099  userLiquiToken[_user] */\n      0xffffffffffffffffffffffffffffffffffffffff\n      and\n      0xffffffffffffffffffffffffffffffffffffffff\n      and\n      dup2\n      mstore\n      0x20\n      add\n      swap1\n      dup2\n      mstore\n      0x20\n      add\n      0x00\n      keccak256\n        /* \"LiquidityToken.sol\":9078:9119  userLiquiToken[_user].fullyChargedBalance */\n      0x00\n      add\n      sload\n        /* \"LiquidityToken.sol\":9078:9123  userLiquiToken[_user].fullyChargedBalance.add */\n      tag_270\n      swap1\n        /* \"LiquidityToken.sol\":9078:9170  userLiquiToken[_user].fullyChargedBalance.add(userLiquiToken[_user].partiallyChargedBalance) */\n      swap2\n      swap1\n      0xffffffff\n      and\n      jump\t// in\n    tag_464:\n        /* \"LiquidityToken.sol\":9054:9170  uint _totalTokenOwned = userLiquiToken[_user].fullyChargedBalance.add(userLiquiToken[_user].partiallyChargedBalance) */\n      swap1\n      pop\n        /* \"LiquidityToken.sol\":9222:9225  0x0 */\n      0x00\n        /* \"LiquidityToken.sol\":9180:9226  address(interfaceProjectToken) != address(0x0) */\n      0xffffffffffffffffffffffffffffffffffffffff\n      and\n        /* \"LiquidityToken.sol\":9188:9209  interfaceProjectToken */\n      0x06\n      0x00\n      swap1\n      sload\n      swap1\n      0x0100\n      exp\n      swap1\n      div\n      0xffffffffffffffffffffffffffffffffffffffff\n      and\n        /* \"LiquidityToken.sol\":9180:9226  address(interfaceProjectToken) != address(0x0) */\n      0xffffffffffffffffffffffffffffffffffffffff\n      and\n      eq\n        /* \"LiquidityToken.sol\":9176:9336  if (address(interfaceProjectToken) != address(0x0)) ... */\n      tag_465\n      jumpi\n        /* \"LiquidityToken.sol\":9254:9336  _totalTokenOwned.sub(interfaceProjectToken.valueProjectTokenToFullRecharge(_user)) */\n      tag_466\n        /* \"LiquidityToken.sol\":9275:9296  interfaceProjectToken */\n      0x06\n      0x00\n      swap1\n      sload\n      swap1\n      0x0100\n      exp\n      swap1\n      div\n      0xffffffffffffffffffffffffffffffffffffffff\n      and\n        /* \"LiquidityToken.sol\":9275:9328  interfaceProjectToken.valueProjectTokenToFullRecharge */\n      0xffffffffffffffffffffffffffffffffffffffff\n      and\n      0xba01ecef\n        /* \"LiquidityToken.sol\":9329:9334  _user */\n      dup7\n        /* \"LiquidityToken.sol\":9275:9335  interfaceProjectToken.valueProjectTokenToFullRecharge(_user) */\n      mload(0x40)\n      dup3\n      0xffffffff\n      and\n      0xe0\n      shl\n      dup2\n      mstore\n      0x04\n      add\n      dup1\n      dup3\n      0xffffffffffffffffffffffffffffffffffffffff\n      and\n      dup2\n      mstore\n      0x20\n      add\n      swap2\n      pop\n      pop\n      0x20\n      mload(0x40)\n      dup1\n      dup4\n      sub\n      dup2\n      dup7\n      dup1\n      extcodesize\n      iszero\n      dup1\n      iszero\n      tag_467\n      jumpi\n      0x00\n      dup1\n      revert\n    tag_467:\n      pop\n      gas\n      staticcall\n      iszero\n      dup1\n      iszero\n      tag_469\n      jumpi\n      returndatasize\n      0x00\n      dup1\n      returndatacopy\n      revert(0x00, returndatasize)\n    tag_469:\n      pop\n      pop\n      pop\n      pop\n      mload(0x40)\n      returndatasize\n      0x20\n      dup2\n      lt\n      iszero\n      tag_470\n      jumpi\n      0x00\n      dup1\n      revert\n    tag_470:\n      dup2\n      add\n      swap1\n      dup1\n      dup1\n      mload\n      swap1\n      0x20\n      add\n      swap1\n      swap3\n      swap2\n      swap1\n      pop\n      pop\n      pop\n        /* \"LiquidityToken.sol\":9254:9270  _totalTokenOwned */\n      dup3\n        /* \"LiquidityToken.sol\":9254:9274  _totalTokenOwned.sub */\n      tag_277\n      swap1\n        /* \"LiquidityToken.sol\":9254:9336  _totalTokenOwned.sub(interfaceProjectToken.valueProjectTokenToFullRecharge(_user)) */\n      swap2\n      swap1\n      0xffffffff\n      and\n      jump\t// in\n    tag_466:\n        /* \"LiquidityToken.sol\":9235:9336  _totalTokenOwned = _totalTokenOwned.sub(interfaceProjectToken.valueProjectTokenToFullRecharge(_user)) */\n      swap1\n      pop\n        /* \"LiquidityToken.sol\":9176:9336  if (address(interfaceProjectToken) != address(0x0)) ... */\n    tag_465:\n        /* \"LiquidityToken.sol\":9362:9486  _totalTokenOwned... */\n      tag_471\n        /* \"LiquidityToken.sol\":9481:9485  1e18 */\n      0x0de0b6b3a7640000\n        /* \"LiquidityToken.sol\":9362:9469  _totalTokenOwned... */\n      tag_472\n        /* \"LiquidityToken.sol\":9397:9461  _currentRewardPerShare1e18.sub(claimedRewardPerShare1e18[_user]) */\n      tag_473\n        /* \"LiquidityToken.sol\":9428:9453  claimedRewardPerShare1e18 */\n      0x12\n        /* \"LiquidityToken.sol\":9428:9460  claimedRewardPerShare1e18[_user] */\n      0x00\n        /* \"LiquidityToken.sol\":9454:9459  _user */\n      dup10\n        /* \"LiquidityToken.sol\":9428:9460  claimedRewardPerShare1e18[_user] */\n      0xffffffffffffffffffffffffffffffffffffffff\n      and\n      0xffffffffffffffffffffffffffffffffffffffff\n      and\n      dup2\n      mstore\n      0x20\n      add\n      swap1\n      dup2\n      mstore\n      0x20\n      add\n      0x00\n      keccak256\n      sload\n        /* \"LiquidityToken.sol\":9397:9423  _currentRewardPerShare1e18 */\n      dup8\n        /* \"LiquidityToken.sol\":9397:9427  _currentRewardPerShare1e18.sub */\n      tag_277\n      swap1\n        /* \"LiquidityToken.sol\":9397:9461  _currentRewardPerShare1e18.sub(claimedRewardPerShare1e18[_user]) */\n      swap2\n      swap1\n      0xffffffff\n      and\n      jump\t// in\n    tag_473:\n        /* \"LiquidityToken.sol\":9362:9378  _totalTokenOwned */\n      dup5\n        /* \"LiquidityToken.sol\":9362:9389  _totalTokenOwned... */\n      tag_282\n      swap1\n        /* \"LiquidityToken.sol\":9362:9469  _totalTokenOwned... */\n      swap2\n      swap1\n      0xffffffff\n      and\n      jump\t// in\n    tag_472:\n        /* \"LiquidityToken.sol\":9362:9480  _totalTokenOwned... */\n      tag_283\n      swap1\n        /* \"LiquidityToken.sol\":9362:9486  _totalTokenOwned... */\n      swap2\n      swap1\n      0xffffffff\n      and\n      jump\t// in\n    tag_471:\n        /* \"LiquidityToken.sol\":9347:9486  _hodlRewards = _totalTokenOwned... */\n      swap2\n      pop\n        /* \"LiquidityToken.sol\":8936:9491  function getHodlRewards(address _user, uint _currentRewardPerShare1e18) public view returns(uint _hodlRewards) {... */\n      pop\n      swap3\n      swap2\n      pop\n      pop\n      jump\t// out\n        /* \"https://github.com/OpenZeppelin/openzeppelin-contracts/blob/v3.4.2-solc-0.7/contracts/utils/Context.sol\":598:702   */\n    tag_250:\n        /* \"https://github.com/OpenZeppelin/openzeppelin-contracts/blob/v3.4.2-solc-0.7/contracts/utils/Context.sol\":651:666   */\n      0x00\n        /* \"https://github.com/OpenZeppelin/openzeppelin-contracts/blob/v3.4.2-solc-0.7/contracts/utils/Context.sol\":685:695   */\n      caller\n        /* \"https://github.com/OpenZeppelin/openzeppelin-contracts/blob/v3.4.2-solc-0.7/contracts/utils/Context.sol\":678:695   */\n      swap1\n      pop\n        /* \"https://github.com/OpenZeppelin/openzeppelin-contracts/blob/v3.4.2-solc-0.7/contracts/utils/Context.sol\":598:702   */\n      swap1\n      jump\t// out\n        /* \"https://github.com/OpenZeppelin/openzeppelin-contracts/blob/v3.4.2-solc-0.7/contracts/token/ERC20/ERC20.sol\":9340:9680   */\n    tag_251:\n        /* \"https://github.com/OpenZeppelin/openzeppelin-contracts/blob/v3.4.2-solc-0.7/contracts/token/ERC20/ERC20.sol\":9458:9459   */\n      0x00\n        /* \"https://github.com/OpenZeppelin/openzeppelin-contracts/blob/v3.4.2-solc-0.7/contracts/token/ERC20/ERC20.sol\":9441:9460   */\n      0xffffffffffffffffffffffffffffffffffffffff\n      and\n        /* \"https://github.com/OpenZeppelin/openzeppelin-contracts/blob/v3.4.2-solc-0.7/contracts/token/ERC20/ERC20.sol\":9441:9446   */\n      dup4\n        /* \"https://github.com/OpenZeppelin/openzeppelin-contracts/blob/v3.4.2-solc-0.7/contracts/token/ERC20/ERC20.sol\":9441:9460   */\n      0xffffffffffffffffffffffffffffffffffffffff\n      and\n      eq\n      iszero\n        /* \"https://github.com/OpenZeppelin/openzeppelin-contracts/blob/v3.4.2-solc-0.7/contracts/token/ERC20/ERC20.sol\":9433:9501   */\n      tag_476\n      jumpi\n      mload(0x40)\n      0x08c379a000000000000000000000000000000000000000000000000000000000\n      dup2\n      mstore\n      0x04\n      add\n      dup1\n      dup1\n      0x20\n      add\n      dup3\n      dup2\n      sub\n      dup3\n      mstore\n      0x24\n      dup2\n      mstore\n      0x20\n      add\n      dup1\n      data_c953f4879035ed60e766b34720f656aab5c697b141d924c283124ecedb91c208\n      0x24\n      swap2\n      codecopy\n      0x40\n      add\n      swap2\n      pop\n      pop\n      mload(0x40)\n      dup1\n      swap2\n      sub\n      swap1\n      revert\n    tag_476:\n        /* \"https://github.com/OpenZeppelin/openzeppelin-contracts/blob/v3.4.2-solc-0.7/contracts/token/ERC20/ERC20.sol\":9538:9539   */\n      0x00\n        /* \"https://github.com/OpenZeppelin/openzeppelin-contracts/blob/v3.4.2-solc-0.7/contracts/token/ERC20/ERC20.sol\":9519:9540   */\n      0xffffffffffffffffffffffffffffffffffffffff\n      and\n        /* \"https://github.com/OpenZeppelin/openzeppelin-contracts/blob/v3.4.2-solc-0.7/contracts/token/ERC20/ERC20.sol\":9519:9526   */\n      dup3\n        /* \"https://github.com/OpenZeppelin/openzeppelin-contracts/blob/v3.4.2-solc-0.7/contracts/token/ERC20/ERC20.sol\":9519:9540   */\n      0xffffffffffffffffffffffffffffffffffffffff\n      and\n      eq\n      iszero\n        /* \"https://github.com/OpenZeppelin/openzeppelin-contracts/blob/v3.4.2-solc-0.7/contracts/token/ERC20/ERC20.sol\":9511:9579   */\n      tag_477\n      jumpi\n      mload(0x40)\n      0x08c379a000000000000000000000000000000000000000000000000000000000\n      dup2\n      mstore\n      0x04\n      add\n      dup1\n      dup1\n      0x20\n      add\n      dup3\n      dup2\n      sub\n      dup3\n      mstore\n      0x22\n      dup2\n      mstore\n      0x20\n      add\n      dup1\n      data_24883cc5fe64ace9d0df1893501ecb93c77180f0ff69cca79affb3c316dc8029\n      0x22\n      swap2\n      codecopy\n      0x40\n      add\n      swap2\n      pop\n      pop\n      mload(0x40)\n      dup1\n      swap2\n      sub\n      swap1\n      revert\n    tag_477:\n        /* \"https://github.com/OpenZeppelin/openzeppelin-contracts/blob/v3.4.2-solc-0.7/contracts/token/ERC20/ERC20.sol\":9620:9626   */\n      dup1\n        /* \"https://github.com/OpenZeppelin/openzeppelin-contracts/blob/v3.4.2-solc-0.7/contracts/token/ERC20/ERC20.sol\":9590:9601   */\n      0x01\n        /* \"https://github.com/OpenZeppelin/openzeppelin-contracts/blob/v3.4.2-solc-0.7/contracts/token/ERC20/ERC20.sol\":9590:9608   */\n      0x00\n        /* \"https://github.com/OpenZeppelin/openzeppelin-contracts/blob/v3.4.2-solc-0.7/contracts/token/ERC20/ERC20.sol\":9602:9607   */\n      dup6\n        /* \"https://github.com/OpenZeppelin/openzeppelin-contracts/blob/v3.4.2-solc-0.7/contracts/token/ERC20/ERC20.sol\":9590:9608   */\n      0xffffffffffffffffffffffffffffffffffffffff\n      and\n      0xffffffffffffffffffffffffffffffffffffffff\n      and\n      dup2\n      mstore\n      0x20\n      add\n      swap1\n      dup2\n      mstore\n      0x20\n      add\n      0x00\n      keccak256\n        /* \"https://github.com/OpenZeppelin/openzeppelin-contracts/blob/v3.4.2-solc-0.7/contracts/token/ERC20/ERC20.sol\":9590:9617   */\n      0x00\n        /* \"https://github.com/OpenZeppelin/openzeppelin-contracts/blob/v3.4.2-solc-0.7/contracts/token/ERC20/ERC20.sol\":9609:9616   */\n      dup5\n        /* \"https://github.com/OpenZeppelin/openzeppelin-contracts/blob/v3.4.2-solc-0.7/contracts/token/ERC20/ERC20.sol\":9590:9617   */\n      0xffffffffffffffffffffffffffffffffffffffff\n      and\n      0xffffffffffffffffffffffffffffffffffffffff\n      and\n      dup2\n      mstore\n      0x20\n      add\n      swap1\n      dup2\n      mstore\n      0x20\n      add\n      0x00\n      keccak256\n        /* \"https://github.com/OpenZeppelin/openzeppelin-contracts/blob/v3.4.2-solc-0.7/contracts/token/ERC20/ERC20.sol\":9590:9626   */\n      dup2\n      swap1\n      sstore\n      pop\n        /* \"https://github.com/OpenZeppelin/openzeppelin-contracts/blob/v3.4.2-solc-0.7/contracts/token/ERC20/ERC20.sol\":9657:9664   */\n      dup2\n        /* \"https://github.com/OpenZeppelin/openzeppelin-contracts/blob/v3.4.2-solc-0.7/contracts/token/ERC20/ERC20.sol\":9641:9673   */\n      0xffffffffffffffffffffffffffffffffffffffff\n      and\n        /* \"https://github.com/OpenZeppelin/openzeppelin-contracts/blob/v3.4.2-solc-0.7/contracts/token/ERC20/ERC20.sol\":9650:9655   */\n      dup4\n        /* \"https://github.com/OpenZeppelin/openzeppelin-contracts/blob/v3.4.2-solc-0.7/contracts/token/ERC20/ERC20.sol\":9641:9673   */\n      0xffffffffffffffffffffffffffffffffffffffff\n      and\n      0x8c5be1e5ebec7d5bd14f71427d1e84f3dd0314c0f7b2291e5b200ac8c7c3b925\n        /* \"https://github.com/OpenZeppelin/openzeppelin-contracts/blob/v3.4.2-solc-0.7/contracts/token/ERC20/ERC20.sol\":9666:9672   */\n      dup4\n        /* \"https://github.com/OpenZeppelin/openzeppelin-contracts/blob/v3.4.2-solc-0.7/contracts/token/ERC20/ERC20.sol\":9641:9673   */\n      mload(0x40)\n      dup1\n      dup3\n      dup2\n      mstore\n      0x20\n      add\n      swap2\n      pop\n      pop\n      mload(0x40)\n      dup1\n      swap2\n      sub\n      swap1\n      log3\n        /* \"https://github.com/OpenZeppelin/openzeppelin-contracts/blob/v3.4.2-solc-0.7/contracts/token/ERC20/ERC20.sol\":9340:9680   */\n      pop\n      pop\n      pop\n      jump\t// out\n        /* \"https://github.com/OpenZeppelin/openzeppelin-contracts/blob/v3.4.2-solc-0.7/contracts/token/ERC20/ERC20.sol\":7016:7546   */\n    tag_257:\n        /* \"https://github.com/OpenZeppelin/openzeppelin-contracts/blob/v3.4.2-solc-0.7/contracts/token/ERC20/ERC20.sol\":7139:7140   */\n      0x00\n        /* \"https://github.com/OpenZeppelin/openzeppelin-contracts/blob/v3.4.2-solc-0.7/contracts/token/ERC20/ERC20.sol\":7121:7141   */\n      0xffffffffffffffffffffffffffffffffffffffff\n      and\n        /* \"https://github.com/OpenZeppelin/openzeppelin-contracts/blob/v3.4.2-solc-0.7/contracts/token/ERC20/ERC20.sol\":7121:7127   */\n      dup4\n        /* \"https://github.com/OpenZeppelin/openzeppelin-contracts/blob/v3.4.2-solc-0.7/contracts/token/ERC20/ERC20.sol\":7121:7141   */\n      0xffffffffffffffffffffffffffffffffffffffff\n      and\n      eq\n      iszero\n        /* \"https://github.com/OpenZeppelin/openzeppelin-contracts/blob/v3.4.2-solc-0.7/contracts/token/ERC20/ERC20.sol\":7113:7183   */\n      tag_479\n      jumpi\n      mload(0x40)\n      0x08c379a000000000000000000000000000000000000000000000000000000000\n      dup2\n      mstore\n      0x04\n      add\n      dup1\n      dup1\n      0x20\n      add\n      dup3\n      dup2\n      sub\n      dup3\n      mstore\n      0x25\n      dup2\n      mstore\n      0x20\n      add\n      dup1\n      data_baecc556b46f4ed0f2b4cb599d60785ac8563dd2dc0a5bf12edea1c39e5e1fea\n      0x25\n      swap2\n      codecopy\n      0x40\n      add\n      swap2\n      pop\n      pop\n      mload(0x40)\n      dup1\n      swap2\n      sub\n      swap1\n      revert\n    tag_479:\n        /* \"https://github.com/OpenZeppelin/openzeppelin-contracts/blob/v3.4.2-solc-0.7/contracts/token/ERC20/ERC20.sol\":7222:7223   */\n      0x00\n        /* \"https://github.com/OpenZeppelin/openzeppelin-contracts/blob/v3.4.2-solc-0.7/contracts/token/ERC20/ERC20.sol\":7201:7224   */\n      0xffffffffffffffffffffffffffffffffffffffff\n      and\n        /* \"https://github.com/OpenZeppelin/openzeppelin-contracts/blob/v3.4.2-solc-0.7/contracts/token/ERC20/ERC20.sol\":7201:7210   */\n      dup3\n        /* \"https://github.com/OpenZeppelin/openzeppelin-contracts/blob/v3.4.2-solc-0.7/contracts/token/ERC20/ERC20.sol\":7201:7224   */\n      0xffffffffffffffffffffffffffffffffffffffff\n      and\n      eq\n      iszero\n        /* \"https://github.com/OpenZeppelin/openzeppelin-contracts/blob/v3.4.2-solc-0.7/contracts/token/ERC20/ERC20.sol\":7193:7264   */\n      tag_480\n      jumpi\n      mload(0x40)\n      0x08c379a000000000000000000000000000000000000000000000000000000000\n      dup2\n      mstore\n      0x04\n      add\n      dup1\n      dup1\n      0x20\n      add\n      dup3\n      dup2\n      sub\n      dup3\n      mstore\n      0x23\n      dup2\n      mstore\n      0x20\n      add\n      dup1\n      data_0557e210f7a69a685100a7e4e3d0a7024c546085cee28910fd17d0b081d9516f\n      0x23\n      swap2\n      codecopy\n      0x40\n      add\n      swap2\n      pop\n      pop\n      mload(0x40)\n      dup1\n      swap2\n      sub\n      swap1\n      revert\n    tag_480:\n        /* \"https://github.com/OpenZeppelin/openzeppelin-contracts/blob/v3.4.2-solc-0.7/contracts/token/ERC20/ERC20.sol\":7275:7322   */\n      tag_481\n        /* \"https://github.com/OpenZeppelin/openzeppelin-contracts/blob/v3.4.2-solc-0.7/contracts/token/ERC20/ERC20.sol\":7296:7302   */\n      dup4\n        /* \"https://github.com/OpenZeppelin/openzeppelin-contracts/blob/v3.4.2-solc-0.7/contracts/token/ERC20/ERC20.sol\":7304:7313   */\n      dup4\n        /* \"https://github.com/OpenZeppelin/openzeppelin-contracts/blob/v3.4.2-solc-0.7/contracts/token/ERC20/ERC20.sol\":7315:7321   */\n      dup4\n        /* \"https://github.com/OpenZeppelin/openzeppelin-contracts/blob/v3.4.2-solc-0.7/contracts/token/ERC20/ERC20.sol\":7275:7295   */\n      tag_482\n        /* \"https://github.com/OpenZeppelin/openzeppelin-contracts/blob/v3.4.2-solc-0.7/contracts/token/ERC20/ERC20.sol\":7275:7322   */\n      jump\t// in\n    tag_481:\n        /* \"https://github.com/OpenZeppelin/openzeppelin-contracts/blob/v3.4.2-solc-0.7/contracts/token/ERC20/ERC20.sol\":7353:7424   */\n      tag_483\n        /* \"https://github.com/OpenZeppelin/openzeppelin-contracts/blob/v3.4.2-solc-0.7/contracts/token/ERC20/ERC20.sol\":7375:7381   */\n      dup2\n        /* \"https://github.com/OpenZeppelin/openzeppelin-contracts/blob/v3.4.2-solc-0.7/contracts/token/ERC20/ERC20.sol\":7353:7424   */\n      mload(0x40)\n      dup1\n      0x60\n      add\n      0x40\n      mstore\n      dup1\n      0x26\n      dup2\n      mstore\n      0x20\n      add\n      data_4107e8a8b9e94bf8ff83080ddec1c0bffe897ebc2241b89d44f66b3d274088b6\n      0x26\n      swap2\n      codecopy\n        /* \"https://github.com/OpenZeppelin/openzeppelin-contracts/blob/v3.4.2-solc-0.7/contracts/token/ERC20/ERC20.sol\":7353:7362   */\n      0x00\n        /* \"https://github.com/OpenZeppelin/openzeppelin-contracts/blob/v3.4.2-solc-0.7/contracts/token/ERC20/ERC20.sol\":7353:7370   */\n      dup1\n        /* \"https://github.com/OpenZeppelin/openzeppelin-contracts/blob/v3.4.2-solc-0.7/contracts/token/ERC20/ERC20.sol\":7363:7369   */\n      dup8\n        /* \"https://github.com/OpenZeppelin/openzeppelin-contracts/blob/v3.4.2-solc-0.7/contracts/token/ERC20/ERC20.sol\":7353:7370   */\n      0xffffffffffffffffffffffffffffffffffffffff\n      and\n      0xffffffffffffffffffffffffffffffffffffffff\n      and\n      dup2\n      mstore\n      0x20\n      add\n      swap1\n      dup2\n      mstore\n      0x20\n      add\n      0x00\n      keccak256\n      sload\n        /* \"https://github.com/OpenZeppelin/openzeppelin-contracts/blob/v3.4.2-solc-0.7/contracts/token/ERC20/ERC20.sol\":7353:7374   */\n      tag_262\n      swap1\n        /* \"https://github.com/OpenZeppelin/openzeppelin-contracts/blob/v3.4.2-solc-0.7/contracts/token/ERC20/ERC20.sol\":7353:7424   */\n      swap3\n      swap2\n      swap1\n      0xffffffff\n      and\n      jump\t// in\n    tag_483:\n        /* \"https://github.com/OpenZeppelin/openzeppelin-contracts/blob/v3.4.2-solc-0.7/contracts/token/ERC20/ERC20.sol\":7333:7342   */\n      0x00\n        /* \"https://github.com/OpenZeppelin/openzeppelin-contracts/blob/v3.4.2-solc-0.7/contracts/token/ERC20/ERC20.sol\":7333:7350   */\n      dup1\n        /* \"https://github.com/OpenZeppelin/openzeppelin-contracts/blob/v3.4.2-solc-0.7/contracts/token/ERC20/ERC20.sol\":7343:7349   */\n      dup6\n        /* \"https://github.com/OpenZeppelin/openzeppelin-contracts/blob/v3.4.2-solc-0.7/contracts/token/ERC20/ERC20.sol\":7333:7350   */\n      0xffffffffffffffffffffffffffffffffffffffff\n      and\n      0xffffffffffffffffffffffffffffffffffffffff\n      and\n      dup2\n      mstore\n      0x20\n      add\n      swap1\n      dup2\n      mstore\n      0x20\n      add\n      0x00\n      keccak256\n        /* \"https://github.com/OpenZeppelin/openzeppelin-contracts/blob/v3.4.2-solc-0.7/contracts/token/ERC20/ERC20.sol\":7333:7424   */\n      dup2\n      swap1\n      sstore\n      pop\n        /* \"https://github.com/OpenZeppelin/openzeppelin-contracts/blob/v3.4.2-solc-0.7/contracts/token/ERC20/ERC20.sol\":7457:7489   */\n      tag_484\n        /* \"https://github.com/OpenZeppelin/openzeppelin-contracts/blob/v3.4.2-solc-0.7/contracts/token/ERC20/ERC20.sol\":7482:7488   */\n      dup2\n        /* \"https://github.com/OpenZeppelin/openzeppelin-contracts/blob/v3.4.2-solc-0.7/contracts/token/ERC20/ERC20.sol\":7457:7466   */\n      0x00\n        /* \"https://github.com/OpenZeppelin/openzeppelin-contracts/blob/v3.4.2-solc-0.7/contracts/token/ERC20/ERC20.sol\":7457:7477   */\n      dup1\n        /* \"https://github.com/OpenZeppelin/openzeppelin-contracts/blob/v3.4.2-solc-0.7/contracts/token/ERC20/ERC20.sol\":7467:7476   */\n      dup6\n        /* \"https://github.com/OpenZeppelin/openzeppelin-contracts/blob/v3.4.2-solc-0.7/contracts/token/ERC20/ERC20.sol\":7457:7477   */\n      0xffffffffffffffffffffffffffffffffffffffff\n      and\n      0xffffffffffffffffffffffffffffffffffffffff\n      and\n      dup2\n      mstore\n      0x20\n      add\n      swap1\n      dup2\n      mstore\n      0x20\n      add\n      0x00\n      keccak256\n      sload\n        /* \"https://github.com/OpenZeppelin/openzeppelin-contracts/blob/v3.4.2-solc-0.7/contracts/token/ERC20/ERC20.sol\":7457:7481   */\n      tag_270\n      swap1\n        /* \"https://github.com/OpenZeppelin/openzeppelin-contracts/blob/v3.4.2-solc-0.7/contracts/token/ERC20/ERC20.sol\":7457:7489   */\n      swap2\n      swap1\n      0xffffffff\n      and\n      jump\t// in\n    tag_484:\n        /* \"https://github.com/OpenZeppelin/openzeppelin-contracts/blob/v3.4.2-solc-0.7/contracts/token/ERC20/ERC20.sol\":7434:7443   */\n      0x00\n        /* \"https://github.com/OpenZeppelin/openzeppelin-contracts/blob/v3.4.2-solc-0.7/contracts/token/ERC20/ERC20.sol\":7434:7454   */\n      dup1\n        /* \"https://github.com/OpenZeppelin/openzeppelin-contracts/blob/v3.4.2-solc-0.7/contracts/token/ERC20/ERC20.sol\":7444:7453   */\n      dup5\n        /* \"https://github.com/OpenZeppelin/openzeppelin-contracts/blob/v3.4.2-solc-0.7/contracts/token/ERC20/ERC20.sol\":7434:7454   */\n      0xffffffffffffffffffffffffffffffffffffffff\n      and\n      0xffffffffffffffffffffffffffffffffffffffff\n      and\n      dup2\n      mstore\n      0x20\n      add\n      swap1\n      dup2\n      mstore\n      0x20\n      add\n      0x00\n      keccak256\n        /* \"https://github.com/OpenZeppelin/openzeppelin-contracts/blob/v3.4.2-solc-0.7/contracts/token/ERC20/ERC20.sol\":7434:7489   */\n      dup2\n      swap1\n      sstore\n      pop\n        /* \"https://github.com/OpenZeppelin/openzeppelin-contracts/blob/v3.4.2-solc-0.7/contracts/token/ERC20/ERC20.sol\":7521:7530   */\n      dup2\n        /* \"https://github.com/OpenZeppelin/openzeppelin-contracts/blob/v3.4.2-solc-0.7/contracts/token/ERC20/ERC20.sol\":7504:7539   */\n      0xffffffffffffffffffffffffffffffffffffffff\n      and\n        /* \"https://github.com/OpenZeppelin/openzeppelin-contracts/blob/v3.4.2-solc-0.7/contracts/token/ERC20/ERC20.sol\":7513:7519   */\n      dup4\n        /* \"https://github.com/OpenZeppelin/openzeppelin-contracts/blob/v3.4.2-solc-0.7/contracts/token/ERC20/ERC20.sol\":7504:7539   */\n      0xffffffffffffffffffffffffffffffffffffffff\n      and\n      0xddf252ad1be2c89b69c2b068fc378daa952ba7f163c4a11628f55a4df523b3ef\n        /* \"https://github.com/OpenZeppelin/openzeppelin-contracts/blob/v3.4.2-solc-0.7/contracts/token/ERC20/ERC20.sol\":7532:7538   */\n      dup4\n        /* \"https://github.com/OpenZeppelin/openzeppelin-contracts/blob/v3.4.2-solc-0.7/contracts/token/ERC20/ERC20.sol\":7504:7539   */\n      mload(0x40)\n      dup1\n      dup3\n      dup2\n      mstore\n      0x20\n      add\n      swap2\n      pop\n      pop\n      mload(0x40)\n      dup1\n      swap2\n      sub\n      swap1\n      log3\n        /* \"https://github.com/OpenZeppelin/openzeppelin-contracts/blob/v3.4.2-solc-0.7/contracts/token/ERC20/ERC20.sol\":7016:7546   */\n      pop\n      pop\n      pop\n      jump\t// out\n        /* \"https://github.com/OpenZeppelin/openzeppelin-contracts/blob/v3.4.2-solc-0.7/contracts/math/SafeMath.sol\":5424:5587   */\n    tag_262:\n        /* \"https://github.com/OpenZeppelin/openzeppelin-contracts/blob/v3.4.2-solc-0.7/contracts/math/SafeMath.sol\":5510:5517   */\n      0x00\n        /* \"https://github.com/OpenZeppelin/openzeppelin-contracts/blob/v3.4.2-solc-0.7/contracts/math/SafeMath.sol\":5542:5543   */\n      dup4\n        /* \"https://github.com/OpenZeppelin/openzeppelin-contracts/blob/v3.4.2-solc-0.7/contracts/math/SafeMath.sol\":5537:5538   */\n      dup4\n        /* \"https://github.com/OpenZeppelin/openzeppelin-contracts/blob/v3.4.2-solc-0.7/contracts/math/SafeMath.sol\":5537:5543   */\n      gt\n      iszero\n        /* \"https://github.com/OpenZeppelin/openzeppelin-contracts/blob/v3.4.2-solc-0.7/contracts/math/SafeMath.sol\":5545:5557   */\n      dup3\n        /* \"https://github.com/OpenZeppelin/openzeppelin-contracts/blob/v3.4.2-solc-0.7/contracts/math/SafeMath.sol\":5529:5558   */\n      swap1\n      tag_486\n      jumpi\n      mload(0x40)\n      0x08c379a000000000000000000000000000000000000000000000000000000000\n      dup2\n      mstore\n      0x04\n      add\n      dup1\n      dup1\n      0x20\n      add\n      dup3\n      dup2\n      sub\n      dup3\n      mstore\n      dup4\n      dup2\n      dup2\n      mload\n      dup2\n      mstore\n      0x20\n      add\n      swap2\n      pop\n      dup1\n      mload\n      swap1\n      0x20\n      add\n      swap1\n      dup1\n      dup4\n      dup4\n      0x00\n    tag_487:\n      dup4\n      dup2\n      lt\n      iszero\n      tag_489\n      jumpi\n      dup1\n      dup3\n      add\n      mload\n      dup2\n      dup5\n      add\n      mstore\n      0x20\n      dup2\n      add\n      swap1\n      pop\n      jump(tag_487)\n    tag_489:\n      pop\n      pop\n      pop\n      pop\n      swap1\n      pop\n      swap1\n      dup2\n      add\n      swap1\n      0x1f\n      and\n      dup1\n      iszero\n      tag_490\n      jumpi\n      dup1\n      dup3\n      sub\n      dup1\n      mload\n      0x01\n      dup4\n      0x20\n      sub\n      0x0100\n      exp\n      sub\n      not\n      and\n      dup2\n      mstore\n      0x20\n      add\n      swap2\n      pop\n    tag_490:\n      pop\n      swap3\n      pop\n      pop\n      pop\n      mload(0x40)\n      dup1\n      swap2\n      sub\n      swap1\n      revert\n    tag_486:\n      pop\n        /* \"https://github.com/OpenZeppelin/openzeppelin-contracts/blob/v3.4.2-solc-0.7/contracts/math/SafeMath.sol\":5579:5580   */\n      dup3\n        /* \"https://github.com/OpenZeppelin/openzeppelin-contracts/blob/v3.4.2-solc-0.7/contracts/math/SafeMath.sol\":5575:5576   */\n      dup5\n        /* \"https://github.com/OpenZeppelin/openzeppelin-contracts/blob/v3.4.2-solc-0.7/contracts/math/SafeMath.sol\":5575:5580   */\n      sub\n        /* \"https://github.com/OpenZeppelin/openzeppelin-contracts/blob/v3.4.2-solc-0.7/contracts/math/SafeMath.sol\":5568:5580   */\n      swap1\n      pop\n        /* \"https://github.com/OpenZeppelin/openzeppelin-contracts/blob/v3.4.2-solc-0.7/contracts/math/SafeMath.sol\":5424:5587   */\n      swap4\n      swap3\n      pop\n      pop\n      pop\n      jump\t// out\n        /* \"https://github.com/OpenZeppelin/openzeppelin-contracts/blob/v3.4.2-solc-0.7/contracts/math/SafeMath.sol\":2682:2857   */\n    tag_270:\n        /* \"https://github.com/OpenZeppelin/openzeppelin-contracts/blob/v3.4.2-solc-0.7/contracts/math/SafeMath.sol\":2740:2747   */\n      0x00\n        /* \"https://github.com/OpenZeppelin/openzeppelin-contracts/blob/v3.4.2-solc-0.7/contracts/math/SafeMath.sol\":2759:2768   */\n      dup1\n        /* \"https://github.com/OpenZeppelin/openzeppelin-contracts/blob/v3.4.2-solc-0.7/contracts/math/SafeMath.sol\":2775:2776   */\n      dup3\n        /* \"https://github.com/OpenZeppelin/openzeppelin-contracts/blob/v3.4.2-solc-0.7/contracts/math/SafeMath.sol\":2771:2772   */\n      dup5\n        /* \"https://github.com/OpenZeppelin/openzeppelin-contracts/blob/v3.4.2-solc-0.7/contracts/math/SafeMath.sol\":2771:2776   */\n      add\n        /* \"https://github.com/OpenZeppelin/openzeppelin-contracts/blob/v3.4.2-solc-0.7/contracts/math/SafeMath.sol\":2759:2776   */\n      swap1\n      pop\n        /* \"https://github.com/OpenZeppelin/openzeppelin-contracts/blob/v3.4.2-solc-0.7/contracts/math/SafeMath.sol\":2799:2800   */\n      dup4\n        /* \"https://github.com/OpenZeppelin/openzeppelin-contracts/blob/v3.4.2-solc-0.7/contracts/math/SafeMath.sol\":2794:2795   */\n      dup2\n        /* \"https://github.com/OpenZeppelin/openzeppelin-contracts/blob/v3.4.2-solc-0.7/contracts/math/SafeMath.sol\":2794:2800   */\n      lt\n      iszero\n        /* \"https://github.com/OpenZeppelin/openzeppelin-contracts/blob/v3.4.2-solc-0.7/contracts/math/SafeMath.sol\":2786:2832   */\n      tag_492\n      jumpi\n      mload(0x40)\n      0x08c379a000000000000000000000000000000000000000000000000000000000\n      dup2\n      mstore\n      0x04\n      add\n      dup1\n      dup1\n      0x20\n      add\n      dup3\n      dup2\n      sub\n      dup3\n      mstore\n      0x1b\n      dup2\n      mstore\n      0x20\n      add\n      dup1\n      0x536166654d6174683a206164646974696f6e206f766572666c6f770000000000\n      dup2\n      mstore\n      pop\n      0x20\n      add\n      swap2\n      pop\n      pop\n      mload(0x40)\n      dup1\n      swap2\n      sub\n      swap1\n      revert\n    tag_492:\n        /* \"https://github.com/OpenZeppelin/openzeppelin-contracts/blob/v3.4.2-solc-0.7/contracts/math/SafeMath.sol\":2849:2850   */\n      dup1\n        /* \"https://github.com/OpenZeppelin/openzeppelin-contracts/blob/v3.4.2-solc-0.7/contracts/math/SafeMath.sol\":2842:2850   */\n      swap2\n      pop\n      pop\n        /* \"https://github.com/OpenZeppelin/openzeppelin-contracts/blob/v3.4.2-solc-0.7/contracts/math/SafeMath.sol\":2682:2857   */\n      swap3\n      swap2\n      pop\n      pop\n      jump\t// out\n        /* \"LiquidityToken.sol\":7627:7906  function updateStakingAndGetHodlRewards(address _user) private returns (uint _hodlRewards) {... */\n    tag_275:\n        /* \"LiquidityToken.sol\":7699:7716  uint _hodlRewards */\n      0x00\n        /* \"LiquidityToken.sol\":7724:7764  updateStakingParameters(block.timestamp) */\n      tag_494\n        /* \"LiquidityToken.sol\":7748:7763  block.timestamp */\n      timestamp\n        /* \"LiquidityToken.sol\":7724:7747  updateStakingParameters */\n      tag_375\n        /* \"LiquidityToken.sol\":7724:7764  updateStakingParameters(block.timestamp) */\n      jump\t// in\n    tag_494:\n        /* \"LiquidityToken.sol\":7786:7834  getHodlRewards(_user, currentRewardPerShare1e18) */\n      tag_495\n        /* \"LiquidityToken.sol\":7801:7806  _user */\n      dup3\n        /* \"LiquidityToken.sol\":7808:7833  currentRewardPerShare1e18 */\n      sload(0x0d)\n        /* \"LiquidityToken.sol\":7786:7800  getHodlRewards */\n      tag_242\n        /* \"LiquidityToken.sol\":7786:7834  getHodlRewards(_user, currentRewardPerShare1e18) */\n      jump\t// in\n    tag_495:\n        /* \"LiquidityToken.sol\":7771:7834  _hodlRewards = getHodlRewards(_user, currentRewardPerShare1e18) */\n      swap1\n      pop\n        /* \"LiquidityToken.sol\":7875:7900  currentRewardPerShare1e18 */\n      sload(0x0d)\n        /* \"LiquidityToken.sol\":7840:7865  claimedRewardPerShare1e18 */\n      0x12\n        /* \"LiquidityToken.sol\":7840:7872  claimedRewardPerShare1e18[_user] */\n      0x00\n        /* \"LiquidityToken.sol\":7866:7871  _user */\n      dup5\n        /* \"LiquidityToken.sol\":7840:7872  claimedRewardPerShare1e18[_user] */\n      0xffffffffffffffffffffffffffffffffffffffff\n      and\n      0xffffffffffffffffffffffffffffffffffffffff\n      and\n      dup2\n      mstore\n      0x20\n      add\n      swap1\n      dup2\n      mstore\n      0x20\n      add\n      0x00\n      keccak256\n        /* \"LiquidityToken.sol\":7840:7900  claimedRewardPerShare1e18[_user] = currentRewardPerShare1e18 */\n      dup2\n      swap1\n      sstore\n      pop\n        /* \"LiquidityToken.sol\":7627:7906  function updateStakingAndGetHodlRewards(address _user) private returns (uint _hodlRewards) {... */\n      swap2\n      swap1\n      pop\n      jump\t// out\n        /* \"https://github.com/OpenZeppelin/openzeppelin-contracts/blob/v3.4.2-solc-0.7/contracts/math/SafeMath.sol\":3128:3283   */\n    tag_277:\n        /* \"https://github.com/OpenZeppelin/openzeppelin-contracts/blob/v3.4.2-solc-0.7/contracts/math/SafeMath.sol\":3186:3193   */\n      0x00\n        /* \"https://github.com/OpenZeppelin/openzeppelin-contracts/blob/v3.4.2-solc-0.7/contracts/math/SafeMath.sol\":3218:3219   */\n      dup3\n        /* \"https://github.com/OpenZeppelin/openzeppelin-contracts/blob/v3.4.2-solc-0.7/contracts/math/SafeMath.sol\":3213:3214   */\n      dup3\n        /* \"https://github.com/OpenZeppelin/openzeppelin-contracts/blob/v3.4.2-solc-0.7/contracts/math/SafeMath.sol\":3213:3219   */\n      gt\n      iszero\n        /* \"https://github.com/OpenZeppelin/openzeppelin-contracts/blob/v3.4.2-solc-0.7/contracts/math/SafeMath.sol\":3205:3254   */\n      tag_497\n      jumpi\n      mload(0x40)\n      0x08c379a000000000000000000000000000000000000000000000000000000000\n      dup2\n      mstore\n      0x04\n      add\n      dup1\n      dup1\n      0x20\n      add\n      dup3\n      dup2\n      sub\n      dup3\n      mstore\n      0x1e\n      dup2\n      mstore\n      0x20\n      add\n      dup1\n      0x536166654d6174683a207375627472616374696f6e206f766572666c6f770000\n      dup2\n      mstore\n      pop\n      0x20\n      add\n      swap2\n      pop\n      pop\n      mload(0x40)\n      dup1\n      swap2\n      sub\n      swap1\n      revert\n    tag_497:\n        /* \"https://github.com/OpenZeppelin/openzeppelin-contracts/blob/v3.4.2-solc-0.7/contracts/math/SafeMath.sol\":3275:3276   */\n      dup2\n        /* \"https://github.com/OpenZeppelin/openzeppelin-contracts/blob/v3.4.2-solc-0.7/contracts/math/SafeMath.sol\":3271:3272   */\n      dup4\n        /* \"https://github.com/OpenZeppelin/openzeppelin-contracts/blob/v3.4.2-solc-0.7/contracts/math/SafeMath.sol\":3271:3276   */\n      sub\n        /* \"https://github.com/OpenZeppelin/openzeppelin-contracts/blob/v3.4.2-solc-0.7/contracts/math/SafeMath.sol\":3264:3276   */\n      swap1\n      pop\n        /* \"https://github.com/OpenZeppelin/openzeppelin-contracts/blob/v3.4.2-solc-0.7/contracts/math/SafeMath.sol\":3128:3283   */\n      swap3\n      swap2\n      pop\n      pop\n      jump\t// out\n        /* \"https://github.com/OpenZeppelin/openzeppelin-contracts/blob/v3.4.2-solc-0.7/contracts/math/SafeMath.sol\":3530:3745   */\n    tag_282:\n        /* \"https://github.com/OpenZeppelin/openzeppelin-contracts/blob/v3.4.2-solc-0.7/contracts/math/SafeMath.sol\":3588:3595   */\n      0x00\n        /* \"https://github.com/OpenZeppelin/openzeppelin-contracts/blob/v3.4.2-solc-0.7/contracts/math/SafeMath.sol\":3616:3617   */\n      dup1\n        /* \"https://github.com/OpenZeppelin/openzeppelin-contracts/blob/v3.4.2-solc-0.7/contracts/math/SafeMath.sol\":3611:3612   */\n      dup4\n        /* \"https://github.com/OpenZeppelin/openzeppelin-contracts/blob/v3.4.2-solc-0.7/contracts/math/SafeMath.sol\":3611:3617   */\n      eq\n        /* \"https://github.com/OpenZeppelin/openzeppelin-contracts/blob/v3.4.2-solc-0.7/contracts/math/SafeMath.sol\":3607:3627   */\n      iszero\n      tag_499\n      jumpi\n        /* \"https://github.com/OpenZeppelin/openzeppelin-contracts/blob/v3.4.2-solc-0.7/contracts/math/SafeMath.sol\":3626:3627   */\n      0x00\n        /* \"https://github.com/OpenZeppelin/openzeppelin-contracts/blob/v3.4.2-solc-0.7/contracts/math/SafeMath.sol\":3619:3627   */\n      swap1\n      pop\n      jump(tag_498)\n        /* \"https://github.com/OpenZeppelin/openzeppelin-contracts/blob/v3.4.2-solc-0.7/contracts/math/SafeMath.sol\":3607:3627   */\n    tag_499:\n        /* \"https://github.com/OpenZeppelin/openzeppelin-contracts/blob/v3.4.2-solc-0.7/contracts/math/SafeMath.sol\":3637:3646   */\n      0x00\n        /* \"https://github.com/OpenZeppelin/openzeppelin-contracts/blob/v3.4.2-solc-0.7/contracts/math/SafeMath.sol\":3653:3654   */\n      dup3\n        /* \"https://github.com/OpenZeppelin/openzeppelin-contracts/blob/v3.4.2-solc-0.7/contracts/math/SafeMath.sol\":3649:3650   */\n      dup5\n        /* \"https://github.com/OpenZeppelin/openzeppelin-contracts/blob/v3.4.2-solc-0.7/contracts/math/SafeMath.sol\":3649:3654   */\n      mul\n        /* \"https://github.com/OpenZeppelin/openzeppelin-contracts/blob/v3.4.2-solc-0.7/contracts/math/SafeMath.sol\":3637:3654   */\n      swap1\n      pop\n        /* \"https://github.com/OpenZeppelin/openzeppelin-contracts/blob/v3.4.2-solc-0.7/contracts/math/SafeMath.sol\":3681:3682   */\n      dup3\n        /* \"https://github.com/OpenZeppelin/openzeppelin-contracts/blob/v3.4.2-solc-0.7/contracts/math/SafeMath.sol\":3676:3677   */\n      dup5\n        /* \"https://github.com/OpenZeppelin/openzeppelin-contracts/blob/v3.4.2-solc-0.7/contracts/math/SafeMath.sol\":3672:3673   */\n      dup3\n        /* \"https://github.com/OpenZeppelin/openzeppelin-contracts/blob/v3.4.2-solc-0.7/contracts/math/SafeMath.sol\":3672:3677   */\n      dup2\n      tag_500\n      jumpi\n      invalid\n    tag_500:\n      div\n        /* \"https://github.com/OpenZeppelin/openzeppelin-contracts/blob/v3.4.2-solc-0.7/contracts/math/SafeMath.sol\":3672:3682   */\n      eq\n        /* \"https://github.com/OpenZeppelin/openzeppelin-contracts/blob/v3.4.2-solc-0.7/contracts/math/SafeMath.sol\":3664:3720   */\n      tag_501\n      jumpi\n      mload(0x40)\n      0x08c379a000000000000000000000000000000000000000000000000000000000\n      dup2\n      mstore\n      0x04\n      add\n      dup1\n      dup1\n      0x20\n      add\n      dup3\n      dup2\n      sub\n      dup3\n      mstore\n      0x21\n      dup2\n      mstore\n      0x20\n      add\n      dup1\n      data_9113bb53c2876a3805b2c9242029423fc540a728243ce887ab24c82cf119fba3\n      0x21\n      swap2\n      codecopy\n      0x40\n      add\n      swap2\n      pop\n      pop\n      mload(0x40)\n      dup1\n      swap2\n      sub\n      swap1\n      revert\n    tag_501:\n        /* \"https://github.com/OpenZeppelin/openzeppelin-contracts/blob/v3.4.2-solc-0.7/contracts/math/SafeMath.sol\":3737:3738   */\n      dup1\n        /* \"https://github.com/OpenZeppelin/openzeppelin-contracts/blob/v3.4.2-solc-0.7/contracts/math/SafeMath.sol\":3730:3738   */\n      swap2\n      pop\n      pop\n        /* \"https://github.com/OpenZeppelin/openzeppelin-contracts/blob/v3.4.2-solc-0.7/contracts/math/SafeMath.sol\":3530:3745   */\n    tag_498:\n      swap3\n      swap2\n      pop\n      pop\n      jump\t// out\n        /* \"https://github.com/OpenZeppelin/openzeppelin-contracts/blob/v3.4.2-solc-0.7/contracts/math/SafeMath.sol\":4209:4359   */\n    tag_283:\n        /* \"https://github.com/OpenZeppelin/openzeppelin-contracts/blob/v3.4.2-solc-0.7/contracts/math/SafeMath.sol\":4267:4274   */\n      0x00\n        /* \"https://github.com/OpenZeppelin/openzeppelin-contracts/blob/v3.4.2-solc-0.7/contracts/math/SafeMath.sol\":4298:4299   */\n      dup1\n        /* \"https://github.com/OpenZeppelin/openzeppelin-contracts/blob/v3.4.2-solc-0.7/contracts/math/SafeMath.sol\":4294:4295   */\n      dup3\n        /* \"https://github.com/OpenZeppelin/openzeppelin-contracts/blob/v3.4.2-solc-0.7/contracts/math/SafeMath.sol\":4294:4299   */\n      gt\n        /* \"https://github.com/OpenZeppelin/openzeppelin-contracts/blob/v3.4.2-solc-0.7/contracts/math/SafeMath.sol\":4286:4330   */\n      tag_503\n      jumpi\n      mload(0x40)\n      0x08c379a000000000000000000000000000000000000000000000000000000000\n      dup2\n      mstore\n      0x04\n      add\n      dup1\n      dup1\n      0x20\n      add\n      dup3\n      dup2\n      sub\n      dup3\n      mstore\n      0x1a\n      dup2\n      mstore\n      0x20\n      add\n      dup1\n      0x536166654d6174683a206469766973696f6e206279207a65726f000000000000\n      dup2\n      mstore\n      pop\n      0x20\n      add\n      swap2\n      pop\n      pop\n      mload(0x40)\n      dup1\n      swap2\n      sub\n      swap1\n      revert\n    tag_503:\n        /* \"https://github.com/OpenZeppelin/openzeppelin-contracts/blob/v3.4.2-solc-0.7/contracts/math/SafeMath.sol\":4351:4352   */\n      dup2\n        /* \"https://github.com/OpenZeppelin/openzeppelin-contracts/blob/v3.4.2-solc-0.7/contracts/math/SafeMath.sol\":4347:4348   */\n      dup4\n        /* \"https://github.com/OpenZeppelin/openzeppelin-contracts/blob/v3.4.2-solc-0.7/contracts/math/SafeMath.sol\":4347:4352   */\n      dup2\n      tag_504\n      jumpi\n      invalid\n    tag_504:\n      div\n        /* \"https://github.com/OpenZeppelin/openzeppelin-contracts/blob/v3.4.2-solc-0.7/contracts/math/SafeMath.sol\":4340:4352   */\n      swap1\n      pop\n        /* \"https://github.com/OpenZeppelin/openzeppelin-contracts/blob/v3.4.2-solc-0.7/contracts/math/SafeMath.sol\":4209:4359   */\n      swap3\n      swap2\n      pop\n      pop\n      jump\t// out\n        /* \"LiquidityToken.sol\":9495:9790  function updateRewardsAfterFeesPayment(uint _fees) private {... */\n    tag_297:\n        /* \"LiquidityToken.sol\":9588:9661  currentRewardPerShare1e18.add(... */\n      tag_506\n        /* \"LiquidityToken.sol\":9625:9654  _fees.mul(1e18).div(stakedLT) */\n      tag_507\n        /* \"LiquidityToken.sol\":9645:9653  stakedLT */\n      sload(0x0e)\n        /* \"LiquidityToken.sol\":9625:9640  _fees.mul(1e18) */\n      tag_508\n        /* \"LiquidityToken.sol\":9635:9639  1e18 */\n      0x0de0b6b3a7640000\n        /* \"LiquidityToken.sol\":9625:9630  _fees */\n      dup6\n        /* \"LiquidityToken.sol\":9625:9634  _fees.mul */\n      tag_282\n      swap1\n        /* \"LiquidityToken.sol\":9625:9640  _fees.mul(1e18) */\n      swap2\n      swap1\n      0xffffffff\n      and\n      jump\t// in\n    tag_508:\n        /* \"LiquidityToken.sol\":9625:9644  _fees.mul(1e18).div */\n      tag_283\n      swap1\n        /* \"LiquidityToken.sol\":9625:9654  _fees.mul(1e18).div(stakedLT) */\n      swap2\n      swap1\n      0xffffffff\n      and\n      jump\t// in\n    tag_507:\n        /* \"LiquidityToken.sol\":9588:9613  currentRewardPerShare1e18 */\n      sload(0x0d)\n        /* \"LiquidityToken.sol\":9588:9617  currentRewardPerShare1e18.add */\n      tag_270\n      swap1\n        /* \"LiquidityToken.sol\":9588:9661  currentRewardPerShare1e18.add(... */\n      swap2\n      swap1\n      0xffffffff\n      and\n      jump\t// in\n    tag_506:\n        /* \"LiquidityToken.sol\":9560:9585  currentRewardPerShare1e18 */\n      0x0d\n        /* \"LiquidityToken.sol\":9560:9661  currentRewardPerShare1e18 = currentRewardPerShare1e18.add(... */\n      dup2\n      swap1\n      sstore\n      pop\n        /* \"LiquidityToken.sol\":9495:9790  function updateRewardsAfterFeesPayment(uint _fees) private {... */\n      pop\n      jump\t// out\n        /* \"LiquidityToken.sol\":12380:12569  function ensureOnlyInterfaceProjectToken() private view {... */\n    tag_305:\n        /* \"LiquidityToken.sol\":12479:12500  interfaceProjectToken */\n      0x06\n      0x00\n      swap1\n      sload\n      swap1\n      0x0100\n      exp\n      swap1\n      div\n      0xffffffffffffffffffffffffffffffffffffffff\n      and\n        /* \"LiquidityToken.sol\":12457:12501  msg.sender == address(interfaceProjectToken) */\n      0xffffffffffffffffffffffffffffffffffffffff\n      and\n        /* \"LiquidityToken.sol\":12457:12467  msg.sender */\n      caller\n        /* \"LiquidityToken.sol\":12457:12501  msg.sender == address(interfaceProjectToken) */\n      0xffffffffffffffffffffffffffffffffffffffff\n      and\n      eq\n        /* \"LiquidityToken.sol\":12442:12564  require(... */\n      tag_510\n      jumpi\n      mload(0x40)\n      0x08c379a000000000000000000000000000000000000000000000000000000000\n      dup2\n      mstore\n      0x04\n      add\n      dup1\n      dup1\n      0x20\n      add\n      dup3\n      dup2\n      sub\n      dup3\n      mstore\n      0x2d\n      dup2\n      mstore\n      0x20\n      add\n      dup1\n      data_ab658a5d3838a0f64f2fac3f406bcac6858d06953f2c8db12e2c0c3d681620fb\n      0x2d\n      swap2\n      codecopy\n      0x40\n      add\n      swap2\n      pop\n      pop\n      mload(0x40)\n      dup1\n      swap2\n      sub\n      swap1\n      revert\n    tag_510:\n        /* \"LiquidityToken.sol\":12380:12569  function ensureOnlyInterfaceProjectToken() private view {... */\n      jump\t// out\n        /* \"https://github.com/OpenZeppelin/openzeppelin-contracts/blob/v3.4.2-solc-0.7/contracts/token/ERC20/ERC20.sol\":8507:8917   */\n    tag_308:\n        /* \"https://github.com/OpenZeppelin/openzeppelin-contracts/blob/v3.4.2-solc-0.7/contracts/token/ERC20/ERC20.sol\":8609:8610   */\n      0x00\n        /* \"https://github.com/OpenZeppelin/openzeppelin-contracts/blob/v3.4.2-solc-0.7/contracts/token/ERC20/ERC20.sol\":8590:8611   */\n      0xffffffffffffffffffffffffffffffffffffffff\n      and\n        /* \"https://github.com/OpenZeppelin/openzeppelin-contracts/blob/v3.4.2-solc-0.7/contracts/token/ERC20/ERC20.sol\":8590:8597   */\n      dup3\n        /* \"https://github.com/OpenZeppelin/openzeppelin-contracts/blob/v3.4.2-solc-0.7/contracts/token/ERC20/ERC20.sol\":8590:8611   */\n      0xffffffffffffffffffffffffffffffffffffffff\n      and\n      eq\n      iszero\n        /* \"https://github.com/OpenZeppelin/openzeppelin-contracts/blob/v3.4.2-solc-0.7/contracts/token/ERC20/ERC20.sol\":8582:8649   */\n      tag_512\n      jumpi\n      mload(0x40)\n      0x08c379a000000000000000000000000000000000000000000000000000000000\n      dup2\n      mstore\n      0x04\n      add\n      dup1\n      dup1\n      0x20\n      add\n      dup3\n      dup2\n      sub\n      dup3\n      mstore\n      0x21\n      dup2\n      mstore\n      0x20\n      add\n      dup1\n      data_b16788493b576042bb52c50ed56189e0b250db113c7bfb1c3897d25cf9632d7f\n      0x21\n      swap2\n      codecopy\n      0x40\n      add\n      swap2\n      pop\n      pop\n      mload(0x40)\n      dup1\n      swap2\n      sub\n      swap1\n      revert\n    tag_512:\n        /* \"https://github.com/OpenZeppelin/openzeppelin-contracts/blob/v3.4.2-solc-0.7/contracts/token/ERC20/ERC20.sol\":8660:8709   */\n      tag_513\n        /* \"https://github.com/OpenZeppelin/openzeppelin-contracts/blob/v3.4.2-solc-0.7/contracts/token/ERC20/ERC20.sol\":8681:8688   */\n      dup3\n        /* \"https://github.com/OpenZeppelin/openzeppelin-contracts/blob/v3.4.2-solc-0.7/contracts/token/ERC20/ERC20.sol\":8698:8699   */\n      0x00\n        /* \"https://github.com/OpenZeppelin/openzeppelin-contracts/blob/v3.4.2-solc-0.7/contracts/token/ERC20/ERC20.sol\":8702:8708   */\n      dup4\n        /* \"https://github.com/OpenZeppelin/openzeppelin-contracts/blob/v3.4.2-solc-0.7/contracts/token/ERC20/ERC20.sol\":8660:8680   */\n      tag_482\n        /* \"https://github.com/OpenZeppelin/openzeppelin-contracts/blob/v3.4.2-solc-0.7/contracts/token/ERC20/ERC20.sol\":8660:8709   */\n      jump\t// in\n    tag_513:\n        /* \"https://github.com/OpenZeppelin/openzeppelin-contracts/blob/v3.4.2-solc-0.7/contracts/token/ERC20/ERC20.sol\":8741:8809   */\n      tag_514\n        /* \"https://github.com/OpenZeppelin/openzeppelin-contracts/blob/v3.4.2-solc-0.7/contracts/token/ERC20/ERC20.sol\":8764:8770   */\n      dup2\n        /* \"https://github.com/OpenZeppelin/openzeppelin-contracts/blob/v3.4.2-solc-0.7/contracts/token/ERC20/ERC20.sol\":8741:8809   */\n      mload(0x40)\n      dup1\n      0x60\n      add\n      0x40\n      mstore\n      dup1\n      0x22\n      dup2\n      mstore\n      0x20\n      add\n      data_149b126e7125232b4200af45303d04fba8b74653b1a295a6a561a528c33fefdd\n      0x22\n      swap2\n      codecopy\n        /* \"https://github.com/OpenZeppelin/openzeppelin-contracts/blob/v3.4.2-solc-0.7/contracts/token/ERC20/ERC20.sol\":8741:8750   */\n      0x00\n        /* \"https://github.com/OpenZeppelin/openzeppelin-contracts/blob/v3.4.2-solc-0.7/contracts/token/ERC20/ERC20.sol\":8741:8759   */\n      dup1\n        /* \"https://github.com/OpenZeppelin/openzeppelin-contracts/blob/v3.4.2-solc-0.7/contracts/token/ERC20/ERC20.sol\":8751:8758   */\n      dup7\n        /* \"https://github.com/OpenZeppelin/openzeppelin-contracts/blob/v3.4.2-solc-0.7/contracts/token/ERC20/ERC20.sol\":8741:8759   */\n      0xffffffffffffffffffffffffffffffffffffffff\n      and\n      0xffffffffffffffffffffffffffffffffffffffff\n      and\n      dup2\n      mstore\n      0x20\n      add\n      swap1\n      dup2\n      mstore\n      0x20\n      add\n      0x00\n      keccak256\n      sload\n        /* \"https://github.com/OpenZeppelin/openzeppelin-contracts/blob/v3.4.2-solc-0.7/contracts/token/ERC20/ERC20.sol\":8741:8763   */\n      tag_262\n      swap1\n        /* \"https://github.com/OpenZeppelin/openzeppelin-contracts/blob/v3.4.2-solc-0.7/contracts/token/ERC20/ERC20.sol\":8741:8809   */\n      swap3\n      swap2\n      swap1\n      0xffffffff\n      and\n      jump\t// in\n    tag_514:\n        /* \"https://github.com/OpenZeppelin/openzeppelin-contracts/blob/v3.4.2-solc-0.7/contracts/token/ERC20/ERC20.sol\":8720:8729   */\n      0x00\n        /* \"https://github.com/OpenZeppelin/openzeppelin-contracts/blob/v3.4.2-solc-0.7/contracts/token/ERC20/ERC20.sol\":8720:8738   */\n      dup1\n        /* \"https://github.com/OpenZeppelin/openzeppelin-contracts/blob/v3.4.2-solc-0.7/contracts/token/ERC20/ERC20.sol\":8730:8737   */\n      dup5\n        /* \"https://github.com/OpenZeppelin/openzeppelin-contracts/blob/v3.4.2-solc-0.7/contracts/token/ERC20/ERC20.sol\":8720:8738   */\n      0xffffffffffffffffffffffffffffffffffffffff\n      and\n      0xffffffffffffffffffffffffffffffffffffffff\n      and\n      dup2\n      mstore\n      0x20\n      add\n      swap1\n      dup2\n      mstore\n      0x20\n      add\n      0x00\n      keccak256\n        /* \"https://github.com/OpenZeppelin/openzeppelin-contracts/blob/v3.4.2-solc-0.7/contracts/token/ERC20/ERC20.sol\":8720:8809   */\n      dup2\n      swap1\n      sstore\n      pop\n        /* \"https://github.com/OpenZeppelin/openzeppelin-contracts/blob/v3.4.2-solc-0.7/contracts/token/ERC20/ERC20.sol\":8834:8858   */\n      tag_515\n        /* \"https://github.com/OpenZeppelin/openzeppelin-contracts/blob/v3.4.2-solc-0.7/contracts/token/ERC20/ERC20.sol\":8851:8857   */\n      dup2\n        /* \"https://github.com/OpenZeppelin/openzeppelin-contracts/blob/v3.4.2-solc-0.7/contracts/token/ERC20/ERC20.sol\":8834:8846   */\n      sload(0x02)\n        /* \"https://github.com/OpenZeppelin/openzeppelin-contracts/blob/v3.4.2-solc-0.7/contracts/token/ERC20/ERC20.sol\":8834:8850   */\n      tag_277\n      swap1\n        /* \"https://github.com/OpenZeppelin/openzeppelin-contracts/blob/v3.4.2-solc-0.7/contracts/token/ERC20/ERC20.sol\":8834:8858   */\n      swap2\n      swap1\n      0xffffffff\n      and\n      jump\t// in\n    tag_515:\n        /* \"https://github.com/OpenZeppelin/openzeppelin-contracts/blob/v3.4.2-solc-0.7/contracts/token/ERC20/ERC20.sol\":8819:8831   */\n      0x02\n        /* \"https://github.com/OpenZeppelin/openzeppelin-contracts/blob/v3.4.2-solc-0.7/contracts/token/ERC20/ERC20.sol\":8819:8858   */\n      dup2\n      swap1\n      sstore\n      pop\n        /* \"https://github.com/OpenZeppelin/openzeppelin-contracts/blob/v3.4.2-solc-0.7/contracts/token/ERC20/ERC20.sol\":8899:8900   */\n      0x00\n        /* \"https://github.com/OpenZeppelin/openzeppelin-contracts/blob/v3.4.2-solc-0.7/contracts/token/ERC20/ERC20.sol\":8873:8910   */\n      0xffffffffffffffffffffffffffffffffffffffff\n      and\n        /* \"https://github.com/OpenZeppelin/openzeppelin-contracts/blob/v3.4.2-solc-0.7/contracts/token/ERC20/ERC20.sol\":8882:8889   */\n      dup3\n        /* \"https://github.com/OpenZeppelin/openzeppelin-contracts/blob/v3.4.2-solc-0.7/contracts/token/ERC20/ERC20.sol\":8873:8910   */\n      0xffffffffffffffffffffffffffffffffffffffff\n      and\n      0xddf252ad1be2c89b69c2b068fc378daa952ba7f163c4a11628f55a4df523b3ef\n        /* \"https://github.com/OpenZeppelin/openzeppelin-contracts/blob/v3.4.2-solc-0.7/contracts/token/ERC20/ERC20.sol\":8903:8909   */\n      dup4\n        /* \"https://github.com/OpenZeppelin/openzeppelin-contracts/blob/v3.4.2-solc-0.7/contracts/token/ERC20/ERC20.sol\":8873:8910   */\n      mload(0x40)\n      dup1\n      dup3\n      dup2\n      mstore\n      0x20\n      add\n      swap2\n      pop\n      pop\n      mload(0x40)\n      dup1\n      swap2\n      sub\n      swap1\n      log3\n        /* \"https://github.com/OpenZeppelin/openzeppelin-contracts/blob/v3.4.2-solc-0.7/contracts/token/ERC20/ERC20.sol\":8507:8917   */\n      pop\n      pop\n      jump\t// out\n        /* \"LiquidityToken.sol\":7912:8235  function updateStakingParameters(uint _blockTime) private {... */\n    tag_375:\n        /* \"LiquidityToken.sol\":7976:8007  uint _updatedRewardPerShare1e18 */\n      0x00\n        /* \"LiquidityToken.sol\":8010:8050  getUpdatedRewardPerShare1e18(_blockTime) */\n      tag_517\n        /* \"LiquidityToken.sol\":8039:8049  _blockTime */\n      dup3\n        /* \"LiquidityToken.sol\":8010:8038  getUpdatedRewardPerShare1e18 */\n      tag_169\n        /* \"LiquidityToken.sol\":8010:8050  getUpdatedRewardPerShare1e18(_blockTime) */\n      jump\t// in\n    tag_517:\n        /* \"LiquidityToken.sol\":7976:8050  uint _updatedRewardPerShare1e18 = getUpdatedRewardPerShare1e18(_blockTime) */\n      swap1\n      pop\n        /* \"LiquidityToken.sol\":8089:8114  currentRewardPerShare1e18 */\n      sload(0x0d)\n        /* \"LiquidityToken.sol\":8060:8086  _updatedRewardPerShare1e18 */\n      dup2\n        /* \"LiquidityToken.sol\":8060:8114  _updatedRewardPerShare1e18 > currentRewardPerShare1e18 */\n      gt\n        /* \"LiquidityToken.sol\":8056:8231  if (_updatedRewardPerShare1e18 > currentRewardPerShare1e18) {... */\n      iszero\n      tag_518\n      jumpi\n        /* \"LiquidityToken.sol\":8152:8178  _updatedRewardPerShare1e18 */\n      dup1\n        /* \"LiquidityToken.sol\":8124:8149  currentRewardPerShare1e18 */\n      0x0d\n        /* \"LiquidityToken.sol\":8124:8178  currentRewardPerShare1e18 = _updatedRewardPerShare1e18 */\n      dup2\n      swap1\n      sstore\n      pop\n        /* \"LiquidityToken.sol\":8214:8224  _blockTime */\n      dup2\n        /* \"LiquidityToken.sol\":8186:8211  stakingDateLastCheckpoint */\n      0x09\n        /* \"LiquidityToken.sol\":8186:8224  stakingDateLastCheckpoint = _blockTime */\n      dup2\n      swap1\n      sstore\n      pop\n        /* \"LiquidityToken.sol\":8056:8231  if (_updatedRewardPerShare1e18 > currentRewardPerShare1e18) {... */\n    tag_518:\n        /* \"LiquidityToken.sol\":7912:8235  function updateStakingParameters(uint _blockTime) private {... */\n      pop\n      pop\n      jump\t// out\n        /* \"https://github.com/OpenZeppelin/openzeppelin-contracts/blob/v3.4.2-solc-0.7/contracts/token/ERC20/ERC20.sol\":7817:8187   */\n    tag_379:\n        /* \"https://github.com/OpenZeppelin/openzeppelin-contracts/blob/v3.4.2-solc-0.7/contracts/token/ERC20/ERC20.sol\":7919:7920   */\n      0x00\n        /* \"https://github.com/OpenZeppelin/openzeppelin-contracts/blob/v3.4.2-solc-0.7/contracts/token/ERC20/ERC20.sol\":7900:7921   */\n      0xffffffffffffffffffffffffffffffffffffffff\n      and\n        /* \"https://github.com/OpenZeppelin/openzeppelin-contracts/blob/v3.4.2-solc-0.7/contracts/token/ERC20/ERC20.sol\":7900:7907   */\n      dup3\n        /* \"https://github.com/OpenZeppelin/openzeppelin-contracts/blob/v3.4.2-solc-0.7/contracts/token/ERC20/ERC20.sol\":7900:7921   */\n      0xffffffffffffffffffffffffffffffffffffffff\n      and\n      eq\n      iszero\n        /* \"https://github.com/OpenZeppelin/openzeppelin-contracts/blob/v3.4.2-solc-0.7/contracts/token/ERC20/ERC20.sol\":7892:7957   */\n      tag_520\n      jumpi\n      mload(0x40)\n      0x08c379a000000000000000000000000000000000000000000000000000000000\n      dup2\n      mstore\n      0x04\n      add\n      dup1\n      dup1\n      0x20\n      add\n      dup3\n      dup2\n      sub\n      dup3\n      mstore\n      0x1f\n      dup2\n      mstore\n      0x20\n      add\n      dup1\n      0x45524332303a206d696e7420746f20746865207a65726f206164647265737300\n      dup2\n      mstore\n      pop\n      0x20\n      add\n      swap2\n      pop\n      pop\n      mload(0x40)\n      dup1\n      swap2\n      sub\n      swap1\n      revert\n    tag_520:\n        /* \"https://github.com/OpenZeppelin/openzeppelin-contracts/blob/v3.4.2-solc-0.7/contracts/token/ERC20/ERC20.sol\":7968:8017   */\n      tag_521\n        /* \"https://github.com/OpenZeppelin/openzeppelin-contracts/blob/v3.4.2-solc-0.7/contracts/token/ERC20/ERC20.sol\":7997:7998   */\n      0x00\n        /* \"https://github.com/OpenZeppelin/openzeppelin-contracts/blob/v3.4.2-solc-0.7/contracts/token/ERC20/ERC20.sol\":8001:8008   */\n      dup4\n        /* \"https://github.com/OpenZeppelin/openzeppelin-contracts/blob/v3.4.2-solc-0.7/contracts/token/ERC20/ERC20.sol\":8010:8016   */\n      dup4\n        /* \"https://github.com/OpenZeppelin/openzeppelin-contracts/blob/v3.4.2-solc-0.7/contracts/token/ERC20/ERC20.sol\":7968:7988   */\n      tag_482\n        /* \"https://github.com/OpenZeppelin/openzeppelin-contracts/blob/v3.4.2-solc-0.7/contracts/token/ERC20/ERC20.sol\":7968:8017   */\n      jump\t// in\n    tag_521:\n        /* \"https://github.com/OpenZeppelin/openzeppelin-contracts/blob/v3.4.2-solc-0.7/contracts/token/ERC20/ERC20.sol\":8043:8067   */\n      tag_522\n        /* \"https://github.com/OpenZeppelin/openzeppelin-contracts/blob/v3.4.2-solc-0.7/contracts/token/ERC20/ERC20.sol\":8060:8066   */\n      dup2\n        /* \"https://github.com/OpenZeppelin/openzeppelin-contracts/blob/v3.4.2-solc-0.7/contracts/token/ERC20/ERC20.sol\":8043:8055   */\n      sload(0x02)\n        /* \"https://github.com/OpenZeppelin/openzeppelin-contracts/blob/v3.4.2-solc-0.7/contracts/token/ERC20/ERC20.sol\":8043:8059   */\n      tag_270\n      swap1\n        /* \"https://github.com/OpenZeppelin/openzeppelin-contracts/blob/v3.4.2-solc-0.7/contracts/token/ERC20/ERC20.sol\":8043:8067   */\n      swap2\n      swap1\n      0xffffffff\n      and\n      jump\t// in\n    tag_522:\n        /* \"https://github.com/OpenZeppelin/openzeppelin-contracts/blob/v3.4.2-solc-0.7/contracts/token/ERC20/ERC20.sol\":8028:8040   */\n      0x02\n        /* \"https://github.com/OpenZeppelin/openzeppelin-contracts/blob/v3.4.2-solc-0.7/contracts/token/ERC20/ERC20.sol\":8028:8067   */\n      dup2\n      swap1\n      sstore\n      pop\n        /* \"https://github.com/OpenZeppelin/openzeppelin-contracts/blob/v3.4.2-solc-0.7/contracts/token/ERC20/ERC20.sol\":8098:8128   */\n      tag_523\n        /* \"https://github.com/OpenZeppelin/openzeppelin-contracts/blob/v3.4.2-solc-0.7/contracts/token/ERC20/ERC20.sol\":8121:8127   */\n      dup2\n        /* \"https://github.com/OpenZeppelin/openzeppelin-contracts/blob/v3.4.2-solc-0.7/contracts/token/ERC20/ERC20.sol\":8098:8107   */\n      0x00\n        /* \"https://github.com/OpenZeppelin/openzeppelin-contracts/blob/v3.4.2-solc-0.7/contracts/token/ERC20/ERC20.sol\":8098:8116   */\n      dup1\n        /* \"https://github.com/OpenZeppelin/openzeppelin-contracts/blob/v3.4.2-solc-0.7/contracts/token/ERC20/ERC20.sol\":8108:8115   */\n      dup6\n        /* \"https://github.com/OpenZeppelin/openzeppelin-contracts/blob/v3.4.2-solc-0.7/contracts/token/ERC20/ERC20.sol\":8098:8116   */\n      0xffffffffffffffffffffffffffffffffffffffff\n      and\n      0xffffffffffffffffffffffffffffffffffffffff\n      and\n      dup2\n      mstore\n      0x20\n      add\n      swap1\n      dup2\n      mstore\n      0x20\n      add\n      0x00\n      keccak256\n      sload\n        /* \"https://github.com/OpenZeppelin/openzeppelin-contracts/blob/v3.4.2-solc-0.7/contracts/token/ERC20/ERC20.sol\":8098:8120   */\n      tag_270\n      swap1\n        /* \"https://github.com/OpenZeppelin/openzeppelin-contracts/blob/v3.4.2-solc-0.7/contracts/token/ERC20/ERC20.sol\":8098:8128   */\n      swap2\n      swap1\n      0xffffffff\n      and\n      jump\t// in\n    tag_523:\n        /* \"https://github.com/OpenZeppelin/openzeppelin-contracts/blob/v3.4.2-solc-0.7/contracts/token/ERC20/ERC20.sol\":8077:8086   */\n      0x00\n        /* \"https://github.com/OpenZeppelin/openzeppelin-contracts/blob/v3.4.2-solc-0.7/contracts/token/ERC20/ERC20.sol\":8077:8095   */\n      dup1\n        /* \"https://github.com/OpenZeppelin/openzeppelin-contracts/blob/v3.4.2-solc-0.7/contracts/token/ERC20/ERC20.sol\":8087:8094   */\n      dup5\n        /* \"https://github.com/OpenZeppelin/openzeppelin-contracts/blob/v3.4.2-solc-0.7/contracts/token/ERC20/ERC20.sol\":8077:8095   */\n      0xffffffffffffffffffffffffffffffffffffffff\n      and\n      0xffffffffffffffffffffffffffffffffffffffff\n      and\n      dup2\n      mstore\n      0x20\n      add\n      swap1\n      dup2\n      mstore\n      0x20\n      add\n      0x00\n      keccak256\n        /* \"https://github.com/OpenZeppelin/openzeppelin-contracts/blob/v3.4.2-solc-0.7/contracts/token/ERC20/ERC20.sol\":8077:8128   */\n      dup2\n      swap1\n      sstore\n      pop\n        /* \"https://github.com/OpenZeppelin/openzeppelin-contracts/blob/v3.4.2-solc-0.7/contracts/token/ERC20/ERC20.sol\":8164:8171   */\n      dup2\n        /* \"https://github.com/OpenZeppelin/openzeppelin-contracts/blob/v3.4.2-solc-0.7/contracts/token/ERC20/ERC20.sol\":8143:8180   */\n      0xffffffffffffffffffffffffffffffffffffffff\n      and\n        /* \"https://github.com/OpenZeppelin/openzeppelin-contracts/blob/v3.4.2-solc-0.7/contracts/token/ERC20/ERC20.sol\":8160:8161   */\n      0x00\n        /* \"https://github.com/OpenZeppelin/openzeppelin-contracts/blob/v3.4.2-solc-0.7/contracts/token/ERC20/ERC20.sol\":8143:8180   */\n      0xffffffffffffffffffffffffffffffffffffffff\n      and\n      0xddf252ad1be2c89b69c2b068fc378daa952ba7f163c4a11628f55a4df523b3ef\n        /* \"https://github.com/OpenZeppelin/openzeppelin-contracts/blob/v3.4.2-solc-0.7/contracts/token/ERC20/ERC20.sol\":8173:8179   */\n      dup4\n        /* \"https://github.com/OpenZeppelin/openzeppelin-contracts/blob/v3.4.2-solc-0.7/contracts/token/ERC20/ERC20.sol\":8143:8180   */\n      mload(0x40)\n      dup1\n      dup3\n      dup2\n      mstore\n      0x20\n      add\n      swap2\n      pop\n      pop\n      mload(0x40)\n      dup1\n      swap2\n      sub\n      swap1\n      log3\n        /* \"https://github.com/OpenZeppelin/openzeppelin-contracts/blob/v3.4.2-solc-0.7/contracts/token/ERC20/ERC20.sol\":7817:8187   */\n      pop\n      pop\n      jump\t// out\n        /* \"LiquidityToken.sol\":6174:6491  function checkProjectNotYetLaunched() private view {... */\n    tag_427:\n        /* \"LiquidityToken.sol\":6277:6280  0x0 */\n      0x00\n        /* \"LiquidityToken.sol\":6235:6281  address(interfaceProjectToken) != address(0x0) */\n      0xffffffffffffffffffffffffffffffffffffffff\n      and\n        /* \"LiquidityToken.sol\":6243:6264  interfaceProjectToken */\n      0x06\n      0x00\n      swap1\n      sload\n      swap1\n      0x0100\n      exp\n      swap1\n      div\n      0xffffffffffffffffffffffffffffffffffffffff\n      and\n        /* \"LiquidityToken.sol\":6235:6281  address(interfaceProjectToken) != address(0x0) */\n      0xffffffffffffffffffffffffffffffffffffffff\n      and\n      eq\n        /* \"LiquidityToken.sol\":6231:6487  if (address(interfaceProjectToken) != address(0x0)) {... */\n      tag_525\n      jumpi\n        /* \"LiquidityToken.sol\":6292:6308  uint _dateLaunch */\n      0x00\n        /* \"LiquidityToken.sol\":6311:6332  interfaceProjectToken */\n      0x06\n      0x00\n      swap1\n      sload\n      swap1\n      0x0100\n      exp\n      swap1\n      div\n      0xffffffffffffffffffffffffffffffffffffffff\n      and\n        /* \"LiquidityToken.sol\":6311:6343  interfaceProjectToken.dateLaunch */\n      0xffffffffffffffffffffffffffffffffffffffff\n      and\n      0xfd726827\n        /* \"LiquidityToken.sol\":6311:6345  interfaceProjectToken.dateLaunch() */\n      mload(0x40)\n      dup2\n      0xffffffff\n      and\n      0xe0\n      shl\n      dup2\n      mstore\n      0x04\n      add\n      0x20\n      mload(0x40)\n      dup1\n      dup4\n      sub\n      dup2\n      dup7\n      dup1\n      extcodesize\n      iszero\n      dup1\n      iszero\n      tag_526\n      jumpi\n      0x00\n      dup1\n      revert\n    tag_526:\n      pop\n      gas\n      staticcall\n      iszero\n      dup1\n      iszero\n      tag_528\n      jumpi\n      returndatasize\n      0x00\n      dup1\n      returndatacopy\n      revert(0x00, returndatasize)\n    tag_528:\n      pop\n      pop\n      pop\n      pop\n      mload(0x40)\n      returndatasize\n      0x20\n      dup2\n      lt\n      iszero\n      tag_529\n      jumpi\n      0x00\n      dup1\n      revert\n    tag_529:\n      dup2\n      add\n      swap1\n      dup1\n      dup1\n      mload\n      swap1\n      0x20\n      add\n      swap1\n      swap3\n      swap2\n      swap1\n      pop\n      pop\n      pop\n        /* \"LiquidityToken.sol\":6292:6345  uint _dateLaunch = interfaceProjectToken.dateLaunch() */\n      swap1\n      pop\n        /* \"LiquidityToken.sol\":6372:6373  0 */\n      0x00\n        /* \"LiquidityToken.sol\":6358:6369  _dateLaunch */\n      dup2\n        /* \"LiquidityToken.sol\":6358:6373  _dateLaunch > 0 */\n      gt\n        /* \"LiquidityToken.sol\":6354:6481  if (_dateLaunch > 0) {... */\n      iszero\n      tag_530\n      jumpi\n        /* \"LiquidityToken.sol\":6422:6433  _dateLaunch */\n      dup1\n        /* \"LiquidityToken.sol\":6404:6419  block.timestamp */\n      timestamp\n        /* \"LiquidityToken.sol\":6404:6433  block.timestamp < _dateLaunch */\n      lt\n        /* \"LiquidityToken.sol\":6385:6472  require(... */\n      tag_531\n      jumpi\n      mload(0x40)\n      0x08c379a000000000000000000000000000000000000000000000000000000000\n      dup2\n      mstore\n      0x04\n      add\n      dup1\n      dup1\n      0x20\n      add\n      dup3\n      dup2\n      sub\n      dup3\n      mstore\n      0x18\n      dup2\n      mstore\n      0x20\n      add\n      dup1\n      0x50726f6a65637420616c7265616479206c61756e636865640000000000000000\n      dup2\n      mstore\n      pop\n      0x20\n      add\n      swap2\n      pop\n      pop\n      mload(0x40)\n      dup1\n      swap2\n      sub\n      swap1\n      revert\n    tag_531:\n        /* \"LiquidityToken.sol\":6354:6481  if (_dateLaunch > 0) {... */\n    tag_530:\n        /* \"LiquidityToken.sol\":6231:6487  if (address(interfaceProjectToken) != address(0x0)) {... */\n      pop\n    tag_525:\n        /* \"LiquidityToken.sol\":6174:6491  function checkProjectNotYetLaunched() private view {... */\n      jump\t// out\n        /* \"https://github.com/OpenZeppelin/openzeppelin-contracts/blob/v3.4.2-solc-0.7/contracts/token/ERC20/ERC20.sol\":10686:10778   */\n    tag_482:\n      pop\n      pop\n      pop\n      jump\t// out\n    stop\n    data_0557e210f7a69a685100a7e4e3d0a7024c546085cee28910fd17d0b081d9516f 45524332303a207472616e7366657220746f20746865207a65726f2061646472657373\n    data_149b126e7125232b4200af45303d04fba8b74653b1a295a6a561a528c33fefdd 45524332303a206275726e20616d6f756e7420657863656564732062616c616e6365\n    data_245f15ff17f551913a7a18385165551503906a406f905ac1c2437281a7cd0cfe 4f776e61626c653a206e6577206f776e657220697320746865207a65726f2061646472657373\n    data_24883cc5fe64ace9d0df1893501ecb93c77180f0ff69cca79affb3c316dc8029 45524332303a20617070726f766520746f20746865207a65726f2061646472657373\n    data_4107e8a8b9e94bf8ff83080ddec1c0bffe897ebc2241b89d44f66b3d274088b6 45524332303a207472616e7366657220616d6f756e7420657863656564732062616c616e6365\n    data_45ef06a394c98c8868792d544928cc991879a78fc8cb2f23d6e67cae100d6cc1 4d6178696d756d20696e697469616c20746f6b656e20616c6c6f636174696f6e206578636565646564\n    data_8e91a5b1272f4e4f61e64b47d7c1a5143a07d7fd64ea1b240af506d9edc55eeb 5472616e73616374696f6e73206172652063757272656e746c792064697361626c6564\n    data_9113bb53c2876a3805b2c9242029423fc540a728243ce887ab24c82cf119fba3 536166654d6174683a206d756c7469706c69636174696f6e206f766572666c6f77\n    data_91f8f41b83b29f8c4a639991eacdcd9c25ac1408b42ec8d46fde92bf8ffd9bf0 4d617820616c6c6f77656420746f6b656e20616d6f756e74206578636565646564\n    data_974d1b4421da69cc60b481194f0dad36a5bb4e23da810da7a7fb30cdba178330 45524332303a207472616e7366657220616d6f756e74206578636565647320616c6c6f77616e6365\n    data_a795cebbe87cbaa718b98376a54958a9f2ac9be73ba32fe7cff080028a31f20e 43757272656e74207374616b696e672063616d706169676e206973206e6f74206f76657220796574\n    data_ab658a5d3838a0f64f2fac3f406bcac6858d06953f2c8db12e2c0c3d681620fb 4f6e6c792076616c69646174656420496e7465726661636550726f6a656374546f6b656e20436f6e7472616374\n    data_b16788493b576042bb52c50ed56189e0b250db113c7bfb1c3897d25cf9632d7f 45524332303a206275726e2066726f6d20746865207a65726f2061646472657373\n    data_baecc556b46f4ed0f2b4cb599d60785ac8563dd2dc0a5bf12edea1c39e5e1fea 45524332303a207472616e736665722066726f6d20746865207a65726f2061646472657373\n    data_c953f4879035ed60e766b34720f656aab5c697b141d924c283124ecedb91c208 45524332303a20617070726f76652066726f6d20746865207a65726f2061646472657373\n    data_cc1ac84f1f31a634a17a4ddce30b05f5fb9fdd55515de86fb1d919f165b3a5aa 5374617274696e672064617465206d7573742062652061667465722063757272656e74206461746520616e64207374616b696e67206475726174696f6e206d7573742062652067726561746572207468616e2030\n    data_f2240f5a918e8df78ef0222ad9355ea418dab0d59997deefa8646c9cb441c6d5 50726f766964652073616d6520616d6f756e74206f662076616c756573206173207573657273\n    data_f8b476f7d28209d77d4a4ac1fe36b9f8259aa1bb6bddfa6e89de7e51615cf8a8 45524332303a2064656372656173656420616c6c6f77616e63652062656c6f77207a65726f\n\n    auxdata: 0xa26469706673582212209c0b81de8b1aef2dbd8bf52d7b2641c83e8795e2151b4e54ea2f8657fa5fae8464736f6c63430007060033\n}\n",
    "bytecode": {
      "linkReferences": {},
      "object": "6101806040526103e8600c553480156200001857600080fd5b50604051620050043803806200500483398181016040526101408110156200003f57600080fd5b81019080805160405193929190846401000000008211156200006057600080fd5b838201915060208201858111156200007757600080fd5b82518660018202830111640100000000821117156200009557600080fd5b8083526020830192505050908051906020019080838360005b83811015620000cb578082015181840152602081019050620000ae565b50505050905090810190601f168015620000f95780820380516001836020036101000a031916815260200191505b50604052602001805160405193929190846401000000008211156200011d57600080fd5b838201915060208201858111156200013457600080fd5b82518660018202830111640100000000821117156200015257600080fd5b8083526020830192505050908051906020019080838360005b83811015620001885780820151818401526020810190506200016b565b50505050905090810190601f168015620001b65780820380516001836020036101000a031916815260200191505b506040526020018051906020019092919080519060200190929190805190602001909291908051906020019092919080519060200190929190805190602001909291908051906020019092919080519060200190929190505050898981600390805190602001906200022a929190620004f0565b50806004908051906020019062000243929190620004f0565b506012600560006101000a81548160ff021916908360ff1602179055505050600062000274620004e860201b60201c565b905080600560016101000a81548173ffffffffffffffffffffffffffffffffffffffff021916908373ffffffffffffffffffffffffffffffffffffffff1602179055508073ffffffffffffffffffffffffffffffffffffffff16600073ffffffffffffffffffffffffffffffffffffffff167f8be0079c531659141344cd1fd0a4f28419497f9722a3daafe3b4186f6b6457e060405160405180910390a35060008614156200037f576103e8881462000379576040517f08c379a000000000000000000000000000000000000000000000000000000000815260040180806020018281038252603481526020018062004fa26034913960400191505060405180910390fd5b620003dc565b6103e88810620003db576040517f08c379a000000000000000000000000000000000000000000000000000000000815260040180806020018281038252602681526020018062004f7c6026913960400191505060405180910390fd5b5b6103e8851062000438576040517f08c379a000000000000000000000000000000000000000000000000000000000815260040180806020018281038252602e81526020018062004fd6602e913960400191505060405180910390fd5b6103e8841062000494576040517f08c379a000000000000000000000000000000000000000000000000000000000815260040180806020018281038252602981526020018062004f536029913960400191505060405180910390fd5b8660a081815250508560c0818152505087608081815250508461010081815250508361012081815250508261014081815250508161016081815250508060e0818152505050505050505050505050620005a6565b600033905090565b828054600181600116156101000203166002900490600052602060002090601f01602090048101928262000528576000855562000574565b82601f106200054357805160ff191683800117855562000574565b8280016001018555821562000574579182015b828111156200057357825182559160200191906001019062000556565b5b50905062000583919062000587565b5090565b5b80821115620005a257600081600090555060010162000588565b5090565b60805160a05160c05160e0516101005161012051610140516101605161493b62000618600039806120c252806125c05250806112af5280612644525080611ead52508061211d5280612a105250806120e652806132a35250806133815250806115ae525080611424525061493b6000f3fe608060405234801561001057600080fd5b50600436106103af5760003560e01c806382af7d39116101f4578063a74536e01161011a578063dd62ed3e116100ad578063efb5c2f31161007c578063efb5c2f3146110bb578063f2fde38b14611113578063f331a86714611157578063fb3da54514611185576103af565b8063dd62ed3e14610eaf578063df91081714610f27578063e0d0c5671461107f578063e54dd98a1461109d576103af565b8063c96877a2116100e9578063c96877a214610df1578063d49d18d614610e0f578063da3a593614610e3d578063dccdc99514610e6b576103af565b8063a74536e014610d37578063a9059cbb14610d41578063abfdce2c14610da5578063bf777f8214610dc3576103af565b806393ef357a116101925780639c3bcbb1116101615780639c3bcbb114610c2f5780639f65ffb014610c39578063a1b0c41214610c91578063a457c2d714610cd3576103af565b806393ef357a14610b1657806395230a8014610b3457806395d89b4114610b8c5780639863d64414610c0f576103af565b80638a1e4393116101ce5780638a1e439314610a625780638aa03a3c14610a825780638da5cb5b14610aa0578063908a6bf014610ad4576103af565b806382af7d39146109d857806382fb82f514610a2657806386982e6114610a44576103af565b80635798b1ff116102d957806372b990b51161027757806378e104da1161024657806378e104da146109605780637ccf02261461097e5780637e267f391461099c5780638005a7de146109ba576103af565b806372b990b51461085a578063740c34951461088857806374ddcd1d146108ea5780637561ea9a14610908576103af565b80636c1f89ed116102b35780636c1f89ed146107ac5780636d69847d146107ca57806370a08231146107f8578063715018a614610850576103af565b80635798b1ff1461076457806363cf3cff1461076e5780636a4bd5a61461078e576103af565b80632945ac6811610351578063395093511161032057806339509351146106805780633e332f16146106e45780633f2b437d14610718578063483f3ac714610736576103af565b80632945ac681461058357806330400a86146105a1578063305e2daf14610607578063313ce5671461065f576103af565b80631387520a1161038d5780631387520a146104b957806318160ddd146104d75780631f93abd4146104f557806323b872dd146104ff576103af565b806303ff8e88146103b457806306fdde03146103d2578063095ea7b314610455575b600080fd5b6103bc6111e7565b6040518082815260200191505060405180910390f35b6103da6111ed565b6040518080602001828103825283818151815260200191508051906020019080838360005b8381101561041a5780820151818401526020810190506103ff565b50505050905090810190601f1680156104475780820380516001836020036101000a031916815260200191505b509250505060405180910390f35b6104a16004803603604081101561046b57600080fd5b81019080803573ffffffffffffffffffffffffffffffffffffffff1690602001909291908035906020019092919050505061128f565b60405180821515815260200191505060405180910390f35b6104c16112ad565b6040518082815260200191505060405180910390f35b6104df6112d1565b6040518082815260200191505060405180910390f35b6104fd6112db565b005b61056b6004803603606081101561051557600080fd5b81019080803573ffffffffffffffffffffffffffffffffffffffff169060200190929190803573ffffffffffffffffffffffffffffffffffffffff16906020019092919080359060200190929190505050611349565b60405180821515815260200191505060405180910390f35b61058b611422565b6040518082815260200191505060405180910390f35b6105e3600480360360208110156105b757600080fd5b81019080803573ffffffffffffffffffffffffffffffffffffffff169060200190929190505050611446565b60405180848152602001838152602001828152602001935050505060405180910390f35b6106496004803603602081101561061d57600080fd5b81019080803573ffffffffffffffffffffffffffffffffffffffff169060200190929190505050611470565b6040518082815260200191505060405180910390f35b6106676114bc565b604051808260ff16815260200191505060405180910390f35b6106cc6004803603604081101561069657600080fd5b81019080803573ffffffffffffffffffffffffffffffffffffffff169060200190929190803590602001909291905050506114d3565b60405180821515815260200191505060405180910390f35b6106ec611586565b604051808273ffffffffffffffffffffffffffffffffffffffff16815260200191505060405180910390f35b6107206115ac565b6040518082815260200191505060405180910390f35b6107626004803603602081101561074c57600080fd5b81019080803590602001909291905050506115d0565b005b61076c611911565b005b6107766119dd565b60405180821515815260200191505060405180910390f35b6107966119f0565b6040518082815260200191505060405180910390f35b6107b46119f6565b6040518082815260200191505060405180910390f35b6107f6600480360360208110156107e057600080fd5b81019080803590602001909291905050506119fc565b005b61083a6004803603602081101561080e57600080fd5b81019080803573ffffffffffffffffffffffffffffffffffffffff169060200190929190505050611a11565b6040518082815260200191505060405180910390f35b610858611a59565b005b6108866004803603602081101561087057600080fd5b8101908080359060200190929190505050611bc9565b005b6108e86004803603608081101561089e57600080fd5b81019080803573ffffffffffffffffffffffffffffffffffffffff169060200190929190803590602001909291908035906020019092919080359060200190929190505050611cfa565b005b6108f2611e59565b6040518082815260200191505060405180910390f35b61094a6004803603602081101561091e57600080fd5b81019080803573ffffffffffffffffffffffffffffffffffffffff169060200190929190505050611e5f565b6040518082815260200191505060405180910390f35b610968611eab565b6040518082815260200191505060405180910390f35b610986611ecf565b6040518082815260200191505060405180910390f35b6109a4611ed5565b6040518082815260200191505060405180910390f35b6109c2611edb565b6040518082815260200191505060405180910390f35b610a24600480360360408110156109ee57600080fd5b81019080803573ffffffffffffffffffffffffffffffffffffffff16906020019092919080359060200190929190505050611ee1565b005b610a2e6120c0565b6040518082815260200191505060405180910390f35b610a4c6120e4565b6040518082815260200191505060405180910390f35b610a6a612108565b60405180821515815260200191505060405180910390f35b610a8a61211b565b6040518082815260200191505060405180910390f35b610aa861213f565b604051808273ffffffffffffffffffffffffffffffffffffffff16815260200191505060405180910390f35b610b0060048036036020811015610aea57600080fd5b8101908080359060200190929190505050612169565b6040518082815260200191505060405180910390f35b610b1e612241565b6040518082815260200191505060405180910390f35b610b7660048036036020811015610b4a57600080fd5b81019080803573ffffffffffffffffffffffffffffffffffffffff169060200190929190505050612247565b6040518082815260200191505060405180910390f35b610b9461225f565b6040518080602001828103825283818151815260200191508051906020019080838360005b83811015610bd4578082015181840152602081019050610bb9565b50505050905090810190601f168015610c015780820380516001836020036101000a031916815260200191505b509250505060405180910390f35b610c17612301565b60405180821515815260200191505060405180910390f35b610c37612314565b005b610c7b60048036036020811015610c4f57600080fd5b81019080803573ffffffffffffffffffffffffffffffffffffffff1690602001909291905050506123e0565b6040518082815260200191505060405180910390f35b610cd160048036036060811015610ca757600080fd5b8101908080359060200190929190803590602001909291908035906020019092919050505061242c565b005b610d1f60048036036040811015610ce957600080fd5b81019080803573ffffffffffffffffffffffffffffffffffffffff16906020019092919080359060200190929190505050612793565b60405180821515815260200191505060405180910390f35b610d3f612860565b005b610d8d60048036036040811015610d5757600080fd5b81019080803573ffffffffffffffffffffffffffffffffffffffff1690602001909291908035906020019092919050505061293b565b60405180821515815260200191505060405180910390f35b610dad612959565b6040518082815260200191505060405180910390f35b610def60048036036020811015610dd957600080fd5b810190808035906020019092919050505061295f565b005b610df9612aae565b6040518082815260200191505060405180910390f35b610e3b60048036036020811015610e2557600080fd5b8101908080359060200190929190505050612ab4565b005b610e6960048036036020811015610e5357600080fd5b8101908080359060200190929190505050612c81565b005b610ead60048036036020811015610e8157600080fd5b81019080803573ffffffffffffffffffffffffffffffffffffffff169060200190929190505050612c96565b005b610f1160048036036040811015610ec557600080fd5b81019080803573ffffffffffffffffffffffffffffffffffffffff169060200190929190803573ffffffffffffffffffffffffffffffffffffffff169060200190929190505050612eb5565b6040518082815260200191505060405180910390f35b61107d60048036036060811015610f3d57600080fd5b8101908080359060200190640100000000811115610f5a57600080fd5b820183602082011115610f6c57600080fd5b80359060200191846020830284011164010000000083111715610f8e57600080fd5b919080806020026020016040519081016040528093929190818152602001838360200280828437600081840152601f19601f82011690508083019250505050505050919291929080359060200190640100000000811115610fee57600080fd5b82018360208201111561100057600080fd5b8035906020019184602083028401116401000000008311171561102257600080fd5b919080806020026020016040519081016040528093929190818152602001838360200280828437600081840152601f19601f820116905080830192505050505050509192919290803515159060200190929190505050612f3c565b005b611087613379565b6040518082815260200191505060405180910390f35b6110a561337f565b6040518082815260200191505060405180910390f35b6110fd600480360360208110156110d157600080fd5b81019080803573ffffffffffffffffffffffffffffffffffffffff1690602001909291905050506133a3565b6040518082815260200191505060405180910390f35b6111556004803603602081101561112957600080fd5b81019080803573ffffffffffffffffffffffffffffffffffffffff1690602001909291905050506133bd565b005b6111836004803603602081101561116d57600080fd5b81019080803590602001909291905050506135b2565b005b6111d16004803603604081101561119b57600080fd5b81019080803573ffffffffffffffffffffffffffffffffffffffff169060200190929190803590602001909291905050506135c6565b6040518082815260200191505060405180910390f35b600a5481565b606060038054600181600116156101000203166002900480601f0160208091040260200160405190810160405280929190818152602001828054600181600116156101000203166002900480156112855780601f1061125a57610100808354040283529160200191611285565b820191906000526020600020905b81548152906001019060200180831161126857829003601f168201915b5050505050905090565b60006112a361129c613818565b8484613820565b6001905092915050565b7f000000000000000000000000000000000000000000000000000000000000000081565b6000600254905090565b60001515601160009054906101000a900460ff16151514611347576040517f08c379a000000000000000000000000000000000000000000000000000000000815260040180806020018281038252602381526020018061471b6023913960400191505060405180910390fd5b565b6000611356848484613a17565b61141784611362613818565b6114128560405180606001604052806028815260200161478060289139600160008b73ffffffffffffffffffffffffffffffffffffffff1673ffffffffffffffffffffffffffffffffffffffff16815260200190815260200160002060006113c8613818565b73ffffffffffffffffffffffffffffffffffffffff1673ffffffffffffffffffffffffffffffffffffffff16815260200190815260200160002054613cd89092919063ffffffff16565b613820565b600190509392505050565b7f000000000000000000000000000000000000000000000000000000000000000081565b60136020528060005260406000206000915090508060000154908060010154908060020154905083565b6000601360008373ffffffffffffffffffffffffffffffffffffffff1673ffffffffffffffffffffffffffffffffffffffff168152602001908152602001600020600201549050919050565b6000600560009054906101000a900460ff16905090565b600061157c6114e0613818565b8461157785600160006114f1613818565b73ffffffffffffffffffffffffffffffffffffffff1673ffffffffffffffffffffffffffffffffffffffff16815260200190815260200160002060008973ffffffffffffffffffffffffffffffffffffffff1673ffffffffffffffffffffffffffffffffffffffff16815260200190815260200160002054613d9290919063ffffffff16565b613820565b6001905092915050565b600660009054906101000a900473ffffffffffffffffffffffffffffffffffffffff1681565b7f000000000000000000000000000000000000000000000000000000000000000081565b6115d86112db565b601360003373ffffffffffffffffffffffffffffffffffffffff1673ffffffffffffffffffffffffffffffffffffffff16815260200190815260200160002060000154811115611690576040517f08c379a00000000000000000000000000000000000000000000000000000000081526004018080602001828103825260208152602001807f416d6f756e74206578636565647320617661696c61626c652062616c616e636581525060200191505060405180910390fd5b600061169b33613e1a565b905060006116f483601360003373ffffffffffffffffffffffffffffffffffffffff1673ffffffffffffffffffffffffffffffffffffffff16815260200190815260200160002060000154613e7e90919063ffffffff16565b601360003373ffffffffffffffffffffffffffffffffffffffff1673ffffffffffffffffffffffffffffffffffffffff1681526020019081526020016000206000018190555061174f83600e54613e7e90919063ffffffff16565b600e819055506000600e54111561178c576117896103e861177b60105486613f0190919063ffffffff16565b613f8790919063ffffffff16565b90505b60006117b3826117a58587613d9290919063ffffffff16565b613e7e90919063ffffffff16565b90506117c0303383613a17565b60006117eb6103e86117dd600c5486613f0190919063ffffffff16565b613f8790919063ffffffff16565b905061188a303073ffffffffffffffffffffffffffffffffffffffff16638da5cb5b6040518163ffffffff1660e01b815260040160206040518083038186803b15801561183757600080fd5b505afa15801561184b573d6000803e3d6000fd5b505050506040513d602081101561186157600080fd5b81019080805190602001909291905050506118858487613e7e90919063ffffffff16565b613a17565b600081111561189d5761189c81614010565b5b7f33ef926b7771df44fd5bf5a690410374540aa634051af1e3a6dd2f67c94a18f13383858488604051808673ffffffffffffffffffffffffffffffffffffffff1681526020018581526020018481526020018381526020018281526020019550505050505060405180910390a15050505050565b611919613818565b73ffffffffffffffffffffffffffffffffffffffff1661193761213f565b73ffffffffffffffffffffffffffffffffffffffff16146119c0576040517f08c379a00000000000000000000000000000000000000000000000000000000081526004018080602001828103825260208152602001807f4f776e61626c653a2063616c6c6572206973206e6f7420746865206f776e657281525060200191505060405180910390fd5b6001601160016101000a81548160ff021916908315150217905550565b601160009054906101000a900460ff1681565b600f5481565b60095481565b611a0461405c565b611a0e3082614104565b50565b60008060008373ffffffffffffffffffffffffffffffffffffffff1673ffffffffffffffffffffffffffffffffffffffff168152602001908152602001600020549050919050565b611a61613818565b73ffffffffffffffffffffffffffffffffffffffff16611a7f61213f565b73ffffffffffffffffffffffffffffffffffffffff1614611b08576040517f08c379a00000000000000000000000000000000000000000000000000000000081526004018080602001828103825260208152602001807f4f776e61626c653a2063616c6c6572206973206e6f7420746865206f776e657281525060200191505060405180910390fd5b600073ffffffffffffffffffffffffffffffffffffffff16600560019054906101000a900473ffffffffffffffffffffffffffffffffffffffff1673ffffffffffffffffffffffffffffffffffffffff167f8be0079c531659141344cd1fd0a4f28419497f9722a3daafe3b4186f6b6457e060405160405180910390a36000600560016101000a81548173ffffffffffffffffffffffffffffffffffffffff021916908373ffffffffffffffffffffffffffffffffffffffff160217905550565b611bd1613818565b73ffffffffffffffffffffffffffffffffffffffff16611bef61213f565b73ffffffffffffffffffffffffffffffffffffffff1614611c78576040517f08c379a00000000000000000000000000000000000000000000000000000000081526004018080602001828103825260208152602001807f4f776e61626c653a2063616c6c6572206973206e6f7420746865206f776e657281525060200191505060405180910390fd5b6103e8811115611cf0576040517f08c379a000000000000000000000000000000000000000000000000000000000815260040180806020018281038252600d8152602001807f496e76616c69642076616c75650000000000000000000000000000000000000081525060200191505060405180910390fd5b80600c8190555050565b611d0261405c565b611d5783601360008773ffffffffffffffffffffffffffffffffffffffff1673ffffffffffffffffffffffffffffffffffffffff16815260200190815260200160002060000154613d9290919063ffffffff16565b601360008673ffffffffffffffffffffffffffffffffffffffff1673ffffffffffffffffffffffffffffffffffffffff16815260200190815260200160002060000181905550611df282601360008773ffffffffffffffffffffffffffffffffffffffff1673ffffffffffffffffffffffffffffffffffffffff16815260200190815260200160002060010154613e7e90919063ffffffff16565b601360008673ffffffffffffffffffffffffffffffffffffffff1673ffffffffffffffffffffffffffffffffffffffff16815260200190815260200160002060010181905550611e4d81600e54613d9290919063ffffffff16565b600e8190555050505050565b600c5481565b6000601360008373ffffffffffffffffffffffffffffffffffffffff1673ffffffffffffffffffffffffffffffffffffffff168152602001908152602001600020600001549050919050565b7f000000000000000000000000000000000000000000000000000000000000000081565b60075481565b6103e881565b60085481565b611ee961405c565b611efe81600e54613e7e90919063ffffffff16565b600e8190555042601360008473ffffffffffffffffffffffffffffffffffffffff1673ffffffffffffffffffffffffffffffffffffffff168152602001908152602001600020600201819055506000601360008473ffffffffffffffffffffffffffffffffffffffff1673ffffffffffffffffffffffffffffffffffffffff1681526020019081526020016000206000015411156120bc5761202d601360008473ffffffffffffffffffffffffffffffffffffffff1673ffffffffffffffffffffffffffffffffffffffff16815260200190815260200160002060000154601360008573ffffffffffffffffffffffffffffffffffffffff1673ffffffffffffffffffffffffffffffffffffffff16815260200190815260200160002060010154613d9290919063ffffffff16565b601360008473ffffffffffffffffffffffffffffffffffffffff1673ffffffffffffffffffffffffffffffffffffffff168152602001908152602001600020600101819055506000601360008473ffffffffffffffffffffffffffffffffffffffff1673ffffffffffffffffffffffffffffffffffffffff168152602001908152602001600020600001819055505b5050565b7f000000000000000000000000000000000000000000000000000000000000000081565b7f000000000000000000000000000000000000000000000000000000000000000081565b601160019054906101000a900460ff1681565b7f000000000000000000000000000000000000000000000000000000000000000081565b6000600560019054906101000a900473ffffffffffffffffffffffffffffffffffffffff16905090565b600080612183600854600754613d9290919063ffffffff16565b9050600d5491506009548311801561219c575080600954105b80156121aa57506000600e54115b1561223b57808311156121bb578092505b6122386122296121d8600e54600854613f0190919063ffffffff16565b61221b670de0b6b3a764000061220d600a546121ff6009548b613e7e90919063ffffffff16565b613f0190919063ffffffff16565b613f0190919063ffffffff16565b613f8790919063ffffffff16565b83613d9290919063ffffffff16565b91505b50919050565b600b5481565b60126020528060005260406000206000915090505481565b606060048054600181600116156101000203166002900480601f0160208091040260200160405190810160405280929190818152602001828054600181600116156101000203166002900480156122f75780601f106122cc576101008083540402835291602001916122f7565b820191906000526020600020905b8154815290600101906020018083116122da57829003601f168201915b5050505050905090565b601160029054906101000a900460ff1681565b61231c613818565b73ffffffffffffffffffffffffffffffffffffffff1661233a61213f565b73ffffffffffffffffffffffffffffffffffffffff16146123c3576040517f08c379a00000000000000000000000000000000000000000000000000000000081526004018080602001828103825260208152602001807f4f776e61626c653a2063616c6c6572206973206e6f7420746865206f776e657281525060200191505060405180910390fd5b6001601160026101000a81548160ff021916908315150217905550565b6000601360008373ffffffffffffffffffffffffffffffffffffffff1673ffffffffffffffffffffffffffffffffffffffff168152602001908152602001600020600101549050919050565b612434613818565b73ffffffffffffffffffffffffffffffffffffffff1661245261213f565b73ffffffffffffffffffffffffffffffffffffffff16146124db576040517f08c379a00000000000000000000000000000000000000000000000000000000081526004018080602001828103825260208152602001807f4f776e61626c653a2063616c6c6572206973206e6f7420746865206f776e657281525060200191505060405180910390fd5b600042905080841180156124ef5750600083115b612544576040517f08c379a00000000000000000000000000000000000000000000000000000000081526004018080602001828103825260548152602001806148676054913960600191505060405180910390fd5b600060075411156125be57612566600854600754613d9290919063ffffffff16565b81116125bd576040517f08c379a00000000000000000000000000000000000000000000000000000000081526004018080602001828103825260288152602001806147a86028913960400191505060405180910390fd5b5b7f0000000000000000000000000000000000000000000000000000000000000000821115612637576040517f08c379a000000000000000000000000000000000000000000000000000000000815260040180806020018281038252602181526020018061475f6021913960400191505060405180910390fd5b6000600e541115612728577f00000000000000000000000000000000000000000000000000000000000000006126b3600e546126a5866126976301e1338061268960648a613f0190919063ffffffff16565b613f0190919063ffffffff16565b613f8790919063ffffffff16565b613f8790919063ffffffff16565b1115612727576040517f08c379a00000000000000000000000000000000000000000000000000000000081526004018080602001828103825260188152602001807f4d617820616c6c6f77656420415052206578636565646564000000000000000081525060200191505060405180910390fd5b5b612731816142c8565b83600781905550836009819055508260088190555081600a8190555061276282600b54613d9290919063ffffffff16565b600b8190555061277d82600f54613d9290919063ffffffff16565b600f8190555061278d30836142f2565b50505050565b60006128566127a0613818565b84612851856040518060600160405280602581526020016148e160259139600160006127ca613818565b73ffffffffffffffffffffffffffffffffffffffff1673ffffffffffffffffffffffffffffffffffffffff16815260200190815260200160002060008a73ffffffffffffffffffffffffffffffffffffffff1673ffffffffffffffffffffffffffffffffffffffff16815260200190815260200160002054613cd89092919063ffffffff16565b613820565b6001905092915050565b612868613818565b73ffffffffffffffffffffffffffffffffffffffff1661288661213f565b73ffffffffffffffffffffffffffffffffffffffff161461290f576040517f08c379a00000000000000000000000000000000000000000000000000000000081526004018080602001828103825260208152602001807f4f776e61626c653a2063616c6c6572206973206e6f7420746865206f776e657281525060200191505060405180910390fd5b601160009054906101000a900460ff1615601160006101000a81548160ff021916908315150217905550565b600061294f612948613818565b8484613a17565b6001905092915050565b60105481565b612967613818565b73ffffffffffffffffffffffffffffffffffffffff1661298561213f565b73ffffffffffffffffffffffffffffffffffffffff1614612a0e576040517f08c379a00000000000000000000000000000000000000000000000000000000081526004018080602001828103825260208152602001807f4f776e61626c653a2063616c6c6572206973206e6f7420746865206f776e657281525060200191505060405180910390fd5b7f0000000000000000000000000000000000000000000000000000000000000000811115612aa4576040517f08c379a000000000000000000000000000000000000000000000000000000000815260040180806020018281038252600d8152602001807f496e76616c69642076616c75650000000000000000000000000000000000000081525060200191505060405180910390fd5b8060108190555050565b600e5481565b612abc6112db565b612ac533611a11565b811115612b3a576040517f08c379a000000000000000000000000000000000000000000000000000000000815260040180806020018281038252601f8152602001807f56616c7565206578636565647320617661696c61626c652062616c616e63650081525060200191505060405180910390fd5b6000612b4533613e1a565b90506000612b5c8284613d9290919063ffffffff16565b9050612bb381601360003373ffffffffffffffffffffffffffffffffffffffff1673ffffffffffffffffffffffffffffffffffffffff16815260200190815260200160002060000154613d9290919063ffffffff16565b601360003373ffffffffffffffffffffffffffffffffffffffff1673ffffffffffffffffffffffffffffffffffffffff16815260200190815260200160002060000181905550612c0e81600e54613d9290919063ffffffff16565b600e81905550612c1f333085613a17565b7f6f5036100ec84840f4ca7c243e6ca7c042949756211bdfb358406a77dc41a42e338484604051808473ffffffffffffffffffffffffffffffffffffffff168152602001838152602001828152602001935050505060405180910390a1505050565b612c8961405c565b612c9330826142f2565b50565b612c9e613818565b73ffffffffffffffffffffffffffffffffffffffff16612cbc61213f565b73ffffffffffffffffffffffffffffffffffffffff1614612d45576040517f08c379a00000000000000000000000000000000000000000000000000000000081526004018080602001828103825260208152602001807f4f776e61626c653a2063616c6c6572206973206e6f7420746865206f776e657281525060200191505060405180910390fd5b600073ffffffffffffffffffffffffffffffffffffffff168173ffffffffffffffffffffffffffffffffffffffff161415612de8576040517f08c379a00000000000000000000000000000000000000000000000000000000081526004018080602001828103825260138152602001807f53657420612076616c696420616464726573730000000000000000000000000081525060200191505060405180910390fd5b60001515601160019054906101000a900460ff16151514612e71576040517f08c379a000000000000000000000000000000000000000000000000000000000815260040180806020018281038252601f8152602001807f696e7465726661636550726f6a656374546f6b656e206973206c6f636b65640081525060200191505060405180910390fd5b80600660006101000a81548173ffffffffffffffffffffffffffffffffffffffff021916908373ffffffffffffffffffffffffffffffffffffffff16021790555050565b6000600160008473ffffffffffffffffffffffffffffffffffffffff1673ffffffffffffffffffffffffffffffffffffffff16815260200190815260200160002060008373ffffffffffffffffffffffffffffffffffffffff1673ffffffffffffffffffffffffffffffffffffffff16815260200190815260200160002054905092915050565b612f44613818565b73ffffffffffffffffffffffffffffffffffffffff16612f6261213f565b73ffffffffffffffffffffffffffffffffffffffff1614612feb576040517f08c379a00000000000000000000000000000000000000000000000000000000081526004018080602001828103825260208152602001807f4f776e61626c653a2063616c6c6572206973206e6f7420746865206f776e657281525060200191505060405180910390fd5b60001515601160029054906101000a900460ff16151514613074576040517f08c379a000000000000000000000000000000000000000000000000000000000815260040180806020018281038252601a8152602001807f616c6c6f636174696f6e7320617265207465726d696e6174656400000000000081525060200191505060405180910390fd5b61307c6144b9565b60008084519050600080600080875185146130e2576040517f08c379a00000000000000000000000000000000000000000000000000000000081526004018080602001828103825260268152602001806148bb6026913960400191505060405180910390fd5b60005b85811015613285578981815181106130f957fe5b6020026020010151945088818151811061310f57fe5b6020026020010151935087156131f15761312885613e1a565b92506131918361318386601360008a73ffffffffffffffffffffffffffffffffffffffff1673ffffffffffffffffffffffffffffffffffffffff16815260200190815260200160002060000154613d9290919063ffffffff16565b613d9290919063ffffffff16565b601360008773ffffffffffffffffffffffffffffffffffffffff1673ffffffffffffffffffffffffffffffffffffffff168152602001908152602001600020600001819055506131ea8383613d9290919063ffffffff16565b91506131fc565b6131fb85856142f2565b5b61320f8488613d9290919063ffffffff16565b96507fa984939d0059bc688e1c5458f72ad05b51fc8a6ba959556f5e2ee91c1ab8c7d28585858b604051808573ffffffffffffffffffffffffffffffffffffffff168152602001848152602001838152602001821515815260200194505050505060405180910390a180806001019150506130e5565b5061329b86600f54613d9290919063ffffffff16565b600f819055507f00000000000000000000000000000000000000000000000000000000000000006132d9600b54600f54613e7e90919063ffffffff16565b1115613330576040517f08c379a00000000000000000000000000000000000000000000000000000000081526004018080602001828103825260298152602001806146f26029913960400191505060405180910390fd5b861561336e5761334030876142f2565b6133678161335988600e54613d9290919063ffffffff16565b613d9290919063ffffffff16565b600e819055505b505050505050505050565b600d5481565b7f000000000000000000000000000000000000000000000000000000000000000081565b60006133ad61405c565b6133b682613e1a565b9050919050565b6133c5613818565b73ffffffffffffffffffffffffffffffffffffffff166133e361213f565b73ffffffffffffffffffffffffffffffffffffffff161461346c576040517f08c379a00000000000000000000000000000000000000000000000000000000081526004018080602001828103825260208152602001807f4f776e61626c653a2063616c6c6572206973206e6f7420746865206f776e657281525060200191505060405180910390fd5b600073ffffffffffffffffffffffffffffffffffffffff168173ffffffffffffffffffffffffffffffffffffffff1614156134f2576040517f08c379a00000000000000000000000000000000000000000000000000000000081526004018080602001828103825260268152602001806146846026913960400191505060405180910390fd5b8073ffffffffffffffffffffffffffffffffffffffff16600560019054906101000a900473ffffffffffffffffffffffffffffffffffffffff1673ffffffffffffffffffffffffffffffffffffffff167f8be0079c531659141344cd1fd0a4f28419497f9722a3daafe3b4186f6b6457e060405160405180910390a380600560016101000a81548173ffffffffffffffffffffffffffffffffffffffff021916908373ffffffffffffffffffffffffffffffffffffffff16021790555050565b6135ba61405c565b6135c381614010565b50565b600080613660601360008673ffffffffffffffffffffffffffffffffffffffff1673ffffffffffffffffffffffffffffffffffffffff16815260200190815260200160002060010154601360008773ffffffffffffffffffffffffffffffffffffffff1673ffffffffffffffffffffffffffffffffffffffff16815260200190815260200160002060000154613d9290919063ffffffff16565b9050600073ffffffffffffffffffffffffffffffffffffffff16600660009054906101000a900473ffffffffffffffffffffffffffffffffffffffff1673ffffffffffffffffffffffffffffffffffffffff16146137915761378e600660009054906101000a900473ffffffffffffffffffffffffffffffffffffffff1673ffffffffffffffffffffffffffffffffffffffff1663ba01ecef866040518263ffffffff1660e01b8152600401808273ffffffffffffffffffffffffffffffffffffffff16815260200191505060206040518083038186803b15801561374457600080fd5b505afa158015613758573d6000803e3d6000fd5b505050506040513d602081101561376e57600080fd5b810190808051906020019092919050505082613e7e90919063ffffffff16565b90505b61380f670de0b6b3a76400006138016137f2601260008973ffffffffffffffffffffffffffffffffffffffff1673ffffffffffffffffffffffffffffffffffffffff1681526020019081526020016000205487613e7e90919063ffffffff16565b84613f0190919063ffffffff16565b613f8790919063ffffffff16565b91505092915050565b600033905090565b600073ffffffffffffffffffffffffffffffffffffffff168373ffffffffffffffffffffffffffffffffffffffff1614156138a6576040517f08c379a00000000000000000000000000000000000000000000000000000000081526004018080602001828103825260248152602001806148436024913960400191505060405180910390fd5b600073ffffffffffffffffffffffffffffffffffffffff168273ffffffffffffffffffffffffffffffffffffffff16141561392c576040517f08c379a00000000000000000000000000000000000000000000000000000000081526004018080602001828103825260228152602001806146aa6022913960400191505060405180910390fd5b80600160008573ffffffffffffffffffffffffffffffffffffffff1673ffffffffffffffffffffffffffffffffffffffff16815260200190815260200160002060008473ffffffffffffffffffffffffffffffffffffffff1673ffffffffffffffffffffffffffffffffffffffff168152602001908152602001600020819055508173ffffffffffffffffffffffffffffffffffffffff168373ffffffffffffffffffffffffffffffffffffffff167f8c5be1e5ebec7d5bd14f71427d1e84f3dd0314c0f7b2291e5b200ac8c7c3b925836040518082815260200191505060405180910390a3505050565b600073ffffffffffffffffffffffffffffffffffffffff168373ffffffffffffffffffffffffffffffffffffffff161415613a9d576040517f08c379a000000000000000000000000000000000000000000000000000000000815260040180806020018281038252602581526020018061481e6025913960400191505060405180910390fd5b600073ffffffffffffffffffffffffffffffffffffffff168273ffffffffffffffffffffffffffffffffffffffff161415613b23576040517f08c379a000000000000000000000000000000000000000000000000000000000815260040180806020018281038252602381526020018061463f6023913960400191505060405180910390fd5b613b2e838383614639565b613b99816040518060600160405280602681526020016146cc602691396000808773ffffffffffffffffffffffffffffffffffffffff1673ffffffffffffffffffffffffffffffffffffffff16815260200190815260200160002054613cd89092919063ffffffff16565b6000808573ffffffffffffffffffffffffffffffffffffffff1673ffffffffffffffffffffffffffffffffffffffff16815260200190815260200160002081905550613c2c816000808573ffffffffffffffffffffffffffffffffffffffff1673ffffffffffffffffffffffffffffffffffffffff16815260200190815260200160002054613d9290919063ffffffff16565b6000808473ffffffffffffffffffffffffffffffffffffffff1673ffffffffffffffffffffffffffffffffffffffff168152602001908152602001600020819055508173ffffffffffffffffffffffffffffffffffffffff168373ffffffffffffffffffffffffffffffffffffffff167fddf252ad1be2c89b69c2b068fc378daa952ba7f163c4a11628f55a4df523b3ef836040518082815260200191505060405180910390a3505050565b6000838311158290613d85576040517f08c379a00000000000000000000000000000000000000000000000000000000081526004018080602001828103825283818151815260200191508051906020019080838360005b83811015613d4a578082015181840152602081019050613d2f565b50505050905090810190601f168015613d775780820380516001836020036101000a031916815260200191505b509250505060405180910390fd5b5082840390509392505050565b600080828401905083811015613e10576040517f08c379a000000000000000000000000000000000000000000000000000000000815260040180806020018281038252601b8152602001807f536166654d6174683a206164646974696f6e206f766572666c6f77000000000081525060200191505060405180910390fd5b8091505092915050565b6000613e25426142c8565b613e3182600d546135c6565b9050600d54601260008473ffffffffffffffffffffffffffffffffffffffff1673ffffffffffffffffffffffffffffffffffffffff16815260200190815260200160002081905550919050565b600082821115613ef6576040517f08c379a000000000000000000000000000000000000000000000000000000000815260040180806020018281038252601e8152602001807f536166654d6174683a207375627472616374696f6e206f766572666c6f77000081525060200191505060405180910390fd5b818303905092915050565b600080831415613f145760009050613f81565b6000828402905082848281613f2557fe5b0414613f7c576040517f08c379a000000000000000000000000000000000000000000000000000000000815260040180806020018281038252602181526020018061473e6021913960400191505060405180910390fd5b809150505b92915050565b6000808211613ffe576040517f08c379a000000000000000000000000000000000000000000000000000000000815260040180806020018281038252601a8152602001807f536166654d6174683a206469766973696f6e206279207a65726f00000000000081525060200191505060405180910390fd5b81838161400757fe5b04905092915050565b614053614042600e54614034670de0b6b3a764000085613f0190919063ffffffff16565b613f8790919063ffffffff16565b600d54613d9290919063ffffffff16565b600d8190555050565b600660009054906101000a900473ffffffffffffffffffffffffffffffffffffffff1673ffffffffffffffffffffffffffffffffffffffff163373ffffffffffffffffffffffffffffffffffffffff1614614102576040517f08c379a000000000000000000000000000000000000000000000000000000000815260040180806020018281038252602d8152602001806147d0602d913960400191505060405180910390fd5b565b600073ffffffffffffffffffffffffffffffffffffffff168273ffffffffffffffffffffffffffffffffffffffff16141561418a576040517f08c379a00000000000000000000000000000000000000000000000000000000081526004018080602001828103825260218152602001806147fd6021913960400191505060405180910390fd5b61419682600083614639565b61420181604051806060016040528060228152602001614662602291396000808673ffffffffffffffffffffffffffffffffffffffff1673ffffffffffffffffffffffffffffffffffffffff16815260200190815260200160002054613cd89092919063ffffffff16565b6000808473ffffffffffffffffffffffffffffffffffffffff1673ffffffffffffffffffffffffffffffffffffffff1681526020019081526020016000208190555061425881600254613e7e90919063ffffffff16565b600281905550600073ffffffffffffffffffffffffffffffffffffffff168273ffffffffffffffffffffffffffffffffffffffff167fddf252ad1be2c89b69c2b068fc378daa952ba7f163c4a11628f55a4df523b3ef836040518082815260200191505060405180910390a35050565b60006142d382612169565b9050600d548111156142ee5780600d81905550816009819055505b5050565b600073ffffffffffffffffffffffffffffffffffffffff168273ffffffffffffffffffffffffffffffffffffffff161415614395576040517f08c379a000000000000000000000000000000000000000000000000000000000815260040180806020018281038252601f8152602001807f45524332303a206d696e7420746f20746865207a65726f20616464726573730081525060200191505060405180910390fd5b6143a160008383614639565b6143b681600254613d9290919063ffffffff16565b60028190555061440d816000808573ffffffffffffffffffffffffffffffffffffffff1673ffffffffffffffffffffffffffffffffffffffff16815260200190815260200160002054613d9290919063ffffffff16565b6000808473ffffffffffffffffffffffffffffffffffffffff1673ffffffffffffffffffffffffffffffffffffffff168152602001908152602001600020819055508173ffffffffffffffffffffffffffffffffffffffff16600073ffffffffffffffffffffffffffffffffffffffff167fddf252ad1be2c89b69c2b068fc378daa952ba7f163c4a11628f55a4df523b3ef836040518082815260200191505060405180910390a35050565b600073ffffffffffffffffffffffffffffffffffffffff16600660009054906101000a900473ffffffffffffffffffffffffffffffffffffffff1673ffffffffffffffffffffffffffffffffffffffff1614614637576000600660009054906101000a900473ffffffffffffffffffffffffffffffffffffffff1673ffffffffffffffffffffffffffffffffffffffff1663fd7268276040518163ffffffff1660e01b815260040160206040518083038186803b15801561457957600080fd5b505afa15801561458d573d6000803e3d6000fd5b505050506040513d60208110156145a357600080fd5b81019080805190602001909291905050509050600081111561463557804210614634576040517f08c379a00000000000000000000000000000000000000000000000000000000081526004018080602001828103825260188152602001807f50726f6a65637420616c7265616479206c61756e63686564000000000000000081525060200191505060405180910390fd5b5b505b565b50505056fe45524332303a207472616e7366657220746f20746865207a65726f206164647265737345524332303a206275726e20616d6f756e7420657863656564732062616c616e63654f776e61626c653a206e6577206f776e657220697320746865207a65726f206164647265737345524332303a20617070726f766520746f20746865207a65726f206164647265737345524332303a207472616e7366657220616d6f756e7420657863656564732062616c616e63654d6178696d756d20696e697469616c20746f6b656e20616c6c6f636174696f6e2065786365656465645472616e73616374696f6e73206172652063757272656e746c792064697361626c6564536166654d6174683a206d756c7469706c69636174696f6e206f766572666c6f774d617820616c6c6f77656420746f6b656e20616d6f756e7420657863656564656445524332303a207472616e7366657220616d6f756e74206578636565647320616c6c6f77616e636543757272656e74207374616b696e672063616d706169676e206973206e6f74206f766572207965744f6e6c792076616c69646174656420496e7465726661636550726f6a656374546f6b656e20436f6e747261637445524332303a206275726e2066726f6d20746865207a65726f206164647265737345524332303a207472616e736665722066726f6d20746865207a65726f206164647265737345524332303a20617070726f76652066726f6d20746865207a65726f20616464726573735374617274696e672064617465206d7573742062652061667465722063757272656e74206461746520616e64207374616b696e67206475726174696f6e206d7573742062652067726561746572207468616e203050726f766964652073616d6520616d6f756e74206f662076616c75657320617320757365727345524332303a2064656372656173656420616c6c6f77616e63652062656c6f77207a65726fa26469706673582212209c0b81de8b1aef2dbd8bf52d7b2641c83e8795e2151b4e54ea2f8657fa5fae8464736f6c634300070600334d6178696d756d20636c61696d20666565206d757374206265206c6f776572207468616e2031303025496e697469616c20756e6c6f636b206d757374206265206c6f776572207468616e20313030254966206e6f2076657374696e672c20616c6c20746f6b656e73206d7573742062652072656c6561736564206174206c61756e63684d6178696d756d207769746864726177616c20666565206d757374206265206c6f776572207468616e2031303025",
      "opcodes": "PUSH2 0x180 PUSH1 0x40 MSTORE PUSH2 0x3E8 PUSH1 0xC SSTORE CALLVALUE DUP1 ISZERO PUSH3 0x18 JUMPI PUSH1 0x0 DUP1 REVERT JUMPDEST POP PUSH1 0x40 MLOAD PUSH3 0x5004 CODESIZE SUB DUP1 PUSH3 0x5004 DUP4 CODECOPY DUP2 DUP2 ADD PUSH1 0x40 MSTORE PUSH2 0x140 DUP2 LT ISZERO PUSH3 0x3F JUMPI PUSH1 0x0 DUP1 REVERT JUMPDEST DUP2 ADD SWAP1 DUP1 DUP1 MLOAD PUSH1 0x40 MLOAD SWAP4 SWAP3 SWAP2 SWAP1 DUP5 PUSH5 0x100000000 DUP3 GT ISZERO PUSH3 0x60 JUMPI PUSH1 0x0 DUP1 REVERT JUMPDEST DUP4 DUP3 ADD SWAP2 POP PUSH1 0x20 DUP3 ADD DUP6 DUP2 GT ISZERO PUSH3 0x77 JUMPI PUSH1 0x0 DUP1 REVERT JUMPDEST DUP3 MLOAD DUP7 PUSH1 0x1 DUP3 MUL DUP4 ADD GT PUSH5 0x100000000 DUP3 GT OR ISZERO PUSH3 0x95 JUMPI PUSH1 0x0 DUP1 REVERT JUMPDEST DUP1 DUP4 MSTORE PUSH1 0x20 DUP4 ADD SWAP3 POP POP POP SWAP1 DUP1 MLOAD SWAP1 PUSH1 0x20 ADD SWAP1 DUP1 DUP4 DUP4 PUSH1 0x0 JUMPDEST DUP4 DUP2 LT ISZERO PUSH3 0xCB JUMPI DUP1 DUP3 ADD MLOAD DUP2 DUP5 ADD MSTORE PUSH1 0x20 DUP2 ADD SWAP1 POP PUSH3 0xAE JUMP JUMPDEST POP POP POP POP SWAP1 POP SWAP1 DUP2 ADD SWAP1 PUSH1 0x1F AND DUP1 ISZERO PUSH3 0xF9 JUMPI DUP1 DUP3 SUB DUP1 MLOAD PUSH1 0x1 DUP4 PUSH1 0x20 SUB PUSH2 0x100 EXP SUB NOT AND DUP2 MSTORE PUSH1 0x20 ADD SWAP2 POP JUMPDEST POP PUSH1 0x40 MSTORE PUSH1 0x20 ADD DUP1 MLOAD PUSH1 0x40 MLOAD SWAP4 SWAP3 SWAP2 SWAP1 DUP5 PUSH5 0x100000000 DUP3 GT ISZERO PUSH3 0x11D JUMPI PUSH1 0x0 DUP1 REVERT JUMPDEST DUP4 DUP3 ADD SWAP2 POP PUSH1 0x20 DUP3 ADD DUP6 DUP2 GT ISZERO PUSH3 0x134 JUMPI PUSH1 0x0 DUP1 REVERT JUMPDEST DUP3 MLOAD DUP7 PUSH1 0x1 DUP3 MUL DUP4 ADD GT PUSH5 0x100000000 DUP3 GT OR ISZERO PUSH3 0x152 JUMPI PUSH1 0x0 DUP1 REVERT JUMPDEST DUP1 DUP4 MSTORE PUSH1 0x20 DUP4 ADD SWAP3 POP POP POP SWAP1 DUP1 MLOAD SWAP1 PUSH1 0x20 ADD SWAP1 DUP1 DUP4 DUP4 PUSH1 0x0 JUMPDEST DUP4 DUP2 LT ISZERO PUSH3 0x188 JUMPI DUP1 DUP3 ADD MLOAD DUP2 DUP5 ADD MSTORE PUSH1 0x20 DUP2 ADD SWAP1 POP PUSH3 0x16B JUMP JUMPDEST POP POP POP POP SWAP1 POP SWAP1 DUP2 ADD SWAP1 PUSH1 0x1F AND DUP1 ISZERO PUSH3 0x1B6 JUMPI DUP1 DUP3 SUB DUP1 MLOAD PUSH1 0x1 DUP4 PUSH1 0x20 SUB PUSH2 0x100 EXP SUB NOT AND DUP2 MSTORE PUSH1 0x20 ADD SWAP2 POP JUMPDEST POP PUSH1 0x40 MSTORE PUSH1 0x20 ADD DUP1 MLOAD SWAP1 PUSH1 0x20 ADD SWAP1 SWAP3 SWAP2 SWAP1 DUP1 MLOAD SWAP1 PUSH1 0x20 ADD SWAP1 SWAP3 SWAP2 SWAP1 DUP1 MLOAD SWAP1 PUSH1 0x20 ADD SWAP1 SWAP3 SWAP2 SWAP1 DUP1 MLOAD SWAP1 PUSH1 0x20 ADD SWAP1 SWAP3 SWAP2 SWAP1 DUP1 MLOAD SWAP1 PUSH1 0x20 ADD SWAP1 SWAP3 SWAP2 SWAP1 DUP1 MLOAD SWAP1 PUSH1 0x20 ADD SWAP1 SWAP3 SWAP2 SWAP1 DUP1 MLOAD SWAP1 PUSH1 0x20 ADD SWAP1 SWAP3 SWAP2 SWAP1 DUP1 MLOAD SWAP1 PUSH1 0x20 ADD SWAP1 SWAP3 SWAP2 SWAP1 POP POP POP DUP10 DUP10 DUP2 PUSH1 0x3 SWAP1 DUP1 MLOAD SWAP1 PUSH1 0x20 ADD SWAP1 PUSH3 0x22A SWAP3 SWAP2 SWAP1 PUSH3 0x4F0 JUMP JUMPDEST POP DUP1 PUSH1 0x4 SWAP1 DUP1 MLOAD SWAP1 PUSH1 0x20 ADD SWAP1 PUSH3 0x243 SWAP3 SWAP2 SWAP1 PUSH3 0x4F0 JUMP JUMPDEST POP PUSH1 0x12 PUSH1 0x5 PUSH1 0x0 PUSH2 0x100 EXP DUP2 SLOAD DUP2 PUSH1 0xFF MUL NOT AND SWAP1 DUP4 PUSH1 0xFF AND MUL OR SWAP1 SSTORE POP POP POP PUSH1 0x0 PUSH3 0x274 PUSH3 0x4E8 PUSH1 0x20 SHL PUSH1 0x20 SHR JUMP JUMPDEST SWAP1 POP DUP1 PUSH1 0x5 PUSH1 0x1 PUSH2 0x100 EXP DUP2 SLOAD DUP2 PUSH20 0xFFFFFFFFFFFFFFFFFFFFFFFFFFFFFFFFFFFFFFFF MUL NOT AND SWAP1 DUP4 PUSH20 0xFFFFFFFFFFFFFFFFFFFFFFFFFFFFFFFFFFFFFFFF AND MUL OR SWAP1 SSTORE POP DUP1 PUSH20 0xFFFFFFFFFFFFFFFFFFFFFFFFFFFFFFFFFFFFFFFF AND PUSH1 0x0 PUSH20 0xFFFFFFFFFFFFFFFFFFFFFFFFFFFFFFFFFFFFFFFF AND PUSH32 0x8BE0079C531659141344CD1FD0A4F28419497F9722A3DAAFE3B4186F6B6457E0 PUSH1 0x40 MLOAD PUSH1 0x40 MLOAD DUP1 SWAP2 SUB SWAP1 LOG3 POP PUSH1 0x0 DUP7 EQ ISZERO PUSH3 0x37F JUMPI PUSH2 0x3E8 DUP9 EQ PUSH3 0x379 JUMPI PUSH1 0x40 MLOAD PUSH32 0x8C379A000000000000000000000000000000000000000000000000000000000 DUP2 MSTORE PUSH1 0x4 ADD DUP1 DUP1 PUSH1 0x20 ADD DUP3 DUP2 SUB DUP3 MSTORE PUSH1 0x34 DUP2 MSTORE PUSH1 0x20 ADD DUP1 PUSH3 0x4FA2 PUSH1 0x34 SWAP2 CODECOPY PUSH1 0x40 ADD SWAP2 POP POP PUSH1 0x40 MLOAD DUP1 SWAP2 SUB SWAP1 REVERT JUMPDEST PUSH3 0x3DC JUMP JUMPDEST PUSH2 0x3E8 DUP9 LT PUSH3 0x3DB JUMPI PUSH1 0x40 MLOAD PUSH32 0x8C379A000000000000000000000000000000000000000000000000000000000 DUP2 MSTORE PUSH1 0x4 ADD DUP1 DUP1 PUSH1 0x20 ADD DUP3 DUP2 SUB DUP3 MSTORE PUSH1 0x26 DUP2 MSTORE PUSH1 0x20 ADD DUP1 PUSH3 0x4F7C PUSH1 0x26 SWAP2 CODECOPY PUSH1 0x40 ADD SWAP2 POP POP PUSH1 0x40 MLOAD DUP1 SWAP2 SUB SWAP1 REVERT JUMPDEST JUMPDEST PUSH2 0x3E8 DUP6 LT PUSH3 0x438 JUMPI PUSH1 0x40 MLOAD PUSH32 0x8C379A000000000000000000000000000000000000000000000000000000000 DUP2 MSTORE PUSH1 0x4 ADD DUP1 DUP1 PUSH1 0x20 ADD DUP3 DUP2 SUB DUP3 MSTORE PUSH1 0x2E DUP2 MSTORE PUSH1 0x20 ADD DUP1 PUSH3 0x4FD6 PUSH1 0x2E SWAP2 CODECOPY PUSH1 0x40 ADD SWAP2 POP POP PUSH1 0x40 MLOAD DUP1 SWAP2 SUB SWAP1 REVERT JUMPDEST PUSH2 0x3E8 DUP5 LT PUSH3 0x494 JUMPI PUSH1 0x40 MLOAD PUSH32 0x8C379A000000000000000000000000000000000000000000000000000000000 DUP2 MSTORE PUSH1 0x4 ADD DUP1 DUP1 PUSH1 0x20 ADD DUP3 DUP2 SUB DUP3 MSTORE PUSH1 0x29 DUP2 MSTORE PUSH1 0x20 ADD DUP1 PUSH3 0x4F53 PUSH1 0x29 SWAP2 CODECOPY PUSH1 0x40 ADD SWAP2 POP POP PUSH1 0x40 MLOAD DUP1 SWAP2 SUB SWAP1 REVERT JUMPDEST DUP7 PUSH1 0xA0 DUP2 DUP2 MSTORE POP POP DUP6 PUSH1 0xC0 DUP2 DUP2 MSTORE POP POP DUP8 PUSH1 0x80 DUP2 DUP2 MSTORE POP POP DUP5 PUSH2 0x100 DUP2 DUP2 MSTORE POP POP DUP4 PUSH2 0x120 DUP2 DUP2 MSTORE POP POP DUP3 PUSH2 0x140 DUP2 DUP2 MSTORE POP POP DUP2 PUSH2 0x160 DUP2 DUP2 MSTORE POP POP DUP1 PUSH1 0xE0 DUP2 DUP2 MSTORE POP POP POP POP POP POP POP POP POP POP POP POP PUSH3 0x5A6 JUMP JUMPDEST PUSH1 0x0 CALLER SWAP1 POP SWAP1 JUMP JUMPDEST DUP3 DUP1 SLOAD PUSH1 0x1 DUP2 PUSH1 0x1 AND ISZERO PUSH2 0x100 MUL SUB AND PUSH1 0x2 SWAP1 DIV SWAP1 PUSH1 0x0 MSTORE PUSH1 0x20 PUSH1 0x0 KECCAK256 SWAP1 PUSH1 0x1F ADD PUSH1 0x20 SWAP1 DIV DUP2 ADD SWAP3 DUP3 PUSH3 0x528 JUMPI PUSH1 0x0 DUP6 SSTORE PUSH3 0x574 JUMP JUMPDEST DUP3 PUSH1 0x1F LT PUSH3 0x543 JUMPI DUP1 MLOAD PUSH1 0xFF NOT AND DUP4 DUP1 ADD OR DUP6 SSTORE PUSH3 0x574 JUMP JUMPDEST DUP3 DUP1 ADD PUSH1 0x1 ADD DUP6 SSTORE DUP3 ISZERO PUSH3 0x574 JUMPI SWAP2 DUP3 ADD JUMPDEST DUP3 DUP2 GT ISZERO PUSH3 0x573 JUMPI DUP3 MLOAD DUP3 SSTORE SWAP2 PUSH1 0x20 ADD SWAP2 SWAP1 PUSH1 0x1 ADD SWAP1 PUSH3 0x556 JUMP JUMPDEST JUMPDEST POP SWAP1 POP PUSH3 0x583 SWAP2 SWAP1 PUSH3 0x587 JUMP JUMPDEST POP SWAP1 JUMP JUMPDEST JUMPDEST DUP1 DUP3 GT ISZERO PUSH3 0x5A2 JUMPI PUSH1 0x0 DUP2 PUSH1 0x0 SWAP1 SSTORE POP PUSH1 0x1 ADD PUSH3 0x588 JUMP JUMPDEST POP SWAP1 JUMP JUMPDEST PUSH1 0x80 MLOAD PUSH1 0xA0 MLOAD PUSH1 0xC0 MLOAD PUSH1 0xE0 MLOAD PUSH2 0x100 MLOAD PUSH2 0x120 MLOAD PUSH2 0x140 MLOAD PUSH2 0x160 MLOAD PUSH2 0x493B PUSH3 0x618 PUSH1 0x0 CODECOPY DUP1 PUSH2 0x20C2 MSTORE DUP1 PUSH2 0x25C0 MSTORE POP DUP1 PUSH2 0x12AF MSTORE DUP1 PUSH2 0x2644 MSTORE POP DUP1 PUSH2 0x1EAD MSTORE POP DUP1 PUSH2 0x211D MSTORE DUP1 PUSH2 0x2A10 MSTORE POP DUP1 PUSH2 0x20E6 MSTORE DUP1 PUSH2 0x32A3 MSTORE POP DUP1 PUSH2 0x3381 MSTORE POP DUP1 PUSH2 0x15AE MSTORE POP DUP1 PUSH2 0x1424 MSTORE POP PUSH2 0x493B PUSH1 0x0 RETURN INVALID PUSH1 0x80 PUSH1 0x40 MSTORE CALLVALUE DUP1 ISZERO PUSH2 0x10 JUMPI PUSH1 0x0 DUP1 REVERT JUMPDEST POP PUSH1 0x4 CALLDATASIZE LT PUSH2 0x3AF JUMPI PUSH1 0x0 CALLDATALOAD PUSH1 0xE0 SHR DUP1 PUSH4 0x82AF7D39 GT PUSH2 0x1F4 JUMPI DUP1 PUSH4 0xA74536E0 GT PUSH2 0x11A JUMPI DUP1 PUSH4 0xDD62ED3E GT PUSH2 0xAD JUMPI DUP1 PUSH4 0xEFB5C2F3 GT PUSH2 0x7C JUMPI DUP1 PUSH4 0xEFB5C2F3 EQ PUSH2 0x10BB JUMPI DUP1 PUSH4 0xF2FDE38B EQ PUSH2 0x1113 JUMPI DUP1 PUSH4 0xF331A867 EQ PUSH2 0x1157 JUMPI DUP1 PUSH4 0xFB3DA545 EQ PUSH2 0x1185 JUMPI PUSH2 0x3AF JUMP JUMPDEST DUP1 PUSH4 0xDD62ED3E EQ PUSH2 0xEAF JUMPI DUP1 PUSH4 0xDF910817 EQ PUSH2 0xF27 JUMPI DUP1 PUSH4 0xE0D0C567 EQ PUSH2 0x107F JUMPI DUP1 PUSH4 0xE54DD98A EQ PUSH2 0x109D JUMPI PUSH2 0x3AF JUMP JUMPDEST DUP1 PUSH4 0xC96877A2 GT PUSH2 0xE9 JUMPI DUP1 PUSH4 0xC96877A2 EQ PUSH2 0xDF1 JUMPI DUP1 PUSH4 0xD49D18D6 EQ PUSH2 0xE0F JUMPI DUP1 PUSH4 0xDA3A5936 EQ PUSH2 0xE3D JUMPI DUP1 PUSH4 0xDCCDC995 EQ PUSH2 0xE6B JUMPI PUSH2 0x3AF JUMP JUMPDEST DUP1 PUSH4 0xA74536E0 EQ PUSH2 0xD37 JUMPI DUP1 PUSH4 0xA9059CBB EQ PUSH2 0xD41 JUMPI DUP1 PUSH4 0xABFDCE2C EQ PUSH2 0xDA5 JUMPI DUP1 PUSH4 0xBF777F82 EQ PUSH2 0xDC3 JUMPI PUSH2 0x3AF JUMP JUMPDEST DUP1 PUSH4 0x93EF357A GT PUSH2 0x192 JUMPI DUP1 PUSH4 0x9C3BCBB1 GT PUSH2 0x161 JUMPI DUP1 PUSH4 0x9C3BCBB1 EQ PUSH2 0xC2F JUMPI DUP1 PUSH4 0x9F65FFB0 EQ PUSH2 0xC39 JUMPI DUP1 PUSH4 0xA1B0C412 EQ PUSH2 0xC91 JUMPI DUP1 PUSH4 0xA457C2D7 EQ PUSH2 0xCD3 JUMPI PUSH2 0x3AF JUMP JUMPDEST DUP1 PUSH4 0x93EF357A EQ PUSH2 0xB16 JUMPI DUP1 PUSH4 0x95230A80 EQ PUSH2 0xB34 JUMPI DUP1 PUSH4 0x95D89B41 EQ PUSH2 0xB8C JUMPI DUP1 PUSH4 0x9863D644 EQ PUSH2 0xC0F JUMPI PUSH2 0x3AF JUMP JUMPDEST DUP1 PUSH4 0x8A1E4393 GT PUSH2 0x1CE JUMPI DUP1 PUSH4 0x8A1E4393 EQ PUSH2 0xA62 JUMPI DUP1 PUSH4 0x8AA03A3C EQ PUSH2 0xA82 JUMPI DUP1 PUSH4 0x8DA5CB5B EQ PUSH2 0xAA0 JUMPI DUP1 PUSH4 0x908A6BF0 EQ PUSH2 0xAD4 JUMPI PUSH2 0x3AF JUMP JUMPDEST DUP1 PUSH4 0x82AF7D39 EQ PUSH2 0x9D8 JUMPI DUP1 PUSH4 0x82FB82F5 EQ PUSH2 0xA26 JUMPI DUP1 PUSH4 0x86982E61 EQ PUSH2 0xA44 JUMPI PUSH2 0x3AF JUMP JUMPDEST DUP1 PUSH4 0x5798B1FF GT PUSH2 0x2D9 JUMPI DUP1 PUSH4 0x72B990B5 GT PUSH2 0x277 JUMPI DUP1 PUSH4 0x78E104DA GT PUSH2 0x246 JUMPI DUP1 PUSH4 0x78E104DA EQ PUSH2 0x960 JUMPI DUP1 PUSH4 0x7CCF0226 EQ PUSH2 0x97E JUMPI DUP1 PUSH4 0x7E267F39 EQ PUSH2 0x99C JUMPI DUP1 PUSH4 0x8005A7DE EQ PUSH2 0x9BA JUMPI PUSH2 0x3AF JUMP JUMPDEST DUP1 PUSH4 0x72B990B5 EQ PUSH2 0x85A JUMPI DUP1 PUSH4 0x740C3495 EQ PUSH2 0x888 JUMPI DUP1 PUSH4 0x74DDCD1D EQ PUSH2 0x8EA JUMPI DUP1 PUSH4 0x7561EA9A EQ PUSH2 0x908 JUMPI PUSH2 0x3AF JUMP JUMPDEST DUP1 PUSH4 0x6C1F89ED GT PUSH2 0x2B3 JUMPI DUP1 PUSH4 0x6C1F89ED EQ PUSH2 0x7AC JUMPI DUP1 PUSH4 0x6D69847D EQ PUSH2 0x7CA JUMPI DUP1 PUSH4 0x70A08231 EQ PUSH2 0x7F8 JUMPI DUP1 PUSH4 0x715018A6 EQ PUSH2 0x850 JUMPI PUSH2 0x3AF JUMP JUMPDEST DUP1 PUSH4 0x5798B1FF EQ PUSH2 0x764 JUMPI DUP1 PUSH4 0x63CF3CFF EQ PUSH2 0x76E JUMPI DUP1 PUSH4 0x6A4BD5A6 EQ PUSH2 0x78E JUMPI PUSH2 0x3AF JUMP JUMPDEST DUP1 PUSH4 0x2945AC68 GT PUSH2 0x351 JUMPI DUP1 PUSH4 0x39509351 GT PUSH2 0x320 JUMPI DUP1 PUSH4 0x39509351 EQ PUSH2 0x680 JUMPI DUP1 PUSH4 0x3E332F16 EQ PUSH2 0x6E4 JUMPI DUP1 PUSH4 0x3F2B437D EQ PUSH2 0x718 JUMPI DUP1 PUSH4 0x483F3AC7 EQ PUSH2 0x736 JUMPI PUSH2 0x3AF JUMP JUMPDEST DUP1 PUSH4 0x2945AC68 EQ PUSH2 0x583 JUMPI DUP1 PUSH4 0x30400A86 EQ PUSH2 0x5A1 JUMPI DUP1 PUSH4 0x305E2DAF EQ PUSH2 0x607 JUMPI DUP1 PUSH4 0x313CE567 EQ PUSH2 0x65F JUMPI PUSH2 0x3AF JUMP JUMPDEST DUP1 PUSH4 0x1387520A GT PUSH2 0x38D JUMPI DUP1 PUSH4 0x1387520A EQ PUSH2 0x4B9 JUMPI DUP1 PUSH4 0x18160DDD EQ PUSH2 0x4D7 JUMPI DUP1 PUSH4 0x1F93ABD4 EQ PUSH2 0x4F5 JUMPI DUP1 PUSH4 0x23B872DD EQ PUSH2 0x4FF JUMPI PUSH2 0x3AF JUMP JUMPDEST DUP1 PUSH4 0x3FF8E88 EQ PUSH2 0x3B4 JUMPI DUP1 PUSH4 0x6FDDE03 EQ PUSH2 0x3D2 JUMPI DUP1 PUSH4 0x95EA7B3 EQ PUSH2 0x455 JUMPI JUMPDEST PUSH1 0x0 DUP1 REVERT JUMPDEST PUSH2 0x3BC PUSH2 0x11E7 JUMP JUMPDEST PUSH1 0x40 MLOAD DUP1 DUP3 DUP2 MSTORE PUSH1 0x20 ADD SWAP2 POP POP PUSH1 0x40 MLOAD DUP1 SWAP2 SUB SWAP1 RETURN JUMPDEST PUSH2 0x3DA PUSH2 0x11ED JUMP JUMPDEST PUSH1 0x40 MLOAD DUP1 DUP1 PUSH1 0x20 ADD DUP3 DUP2 SUB DUP3 MSTORE DUP4 DUP2 DUP2 MLOAD DUP2 MSTORE PUSH1 0x20 ADD SWAP2 POP DUP1 MLOAD SWAP1 PUSH1 0x20 ADD SWAP1 DUP1 DUP4 DUP4 PUSH1 0x0 JUMPDEST DUP4 DUP2 LT ISZERO PUSH2 0x41A JUMPI DUP1 DUP3 ADD MLOAD DUP2 DUP5 ADD MSTORE PUSH1 0x20 DUP2 ADD SWAP1 POP PUSH2 0x3FF JUMP JUMPDEST POP POP POP POP SWAP1 POP SWAP1 DUP2 ADD SWAP1 PUSH1 0x1F AND DUP1 ISZERO PUSH2 0x447 JUMPI DUP1 DUP3 SUB DUP1 MLOAD PUSH1 0x1 DUP4 PUSH1 0x20 SUB PUSH2 0x100 EXP SUB NOT AND DUP2 MSTORE PUSH1 0x20 ADD SWAP2 POP JUMPDEST POP SWAP3 POP POP POP PUSH1 0x40 MLOAD DUP1 SWAP2 SUB SWAP1 RETURN JUMPDEST PUSH2 0x4A1 PUSH1 0x4 DUP1 CALLDATASIZE SUB PUSH1 0x40 DUP2 LT ISZERO PUSH2 0x46B JUMPI PUSH1 0x0 DUP1 REVERT JUMPDEST DUP2 ADD SWAP1 DUP1 DUP1 CALLDATALOAD PUSH20 0xFFFFFFFFFFFFFFFFFFFFFFFFFFFFFFFFFFFFFFFF AND SWAP1 PUSH1 0x20 ADD SWAP1 SWAP3 SWAP2 SWAP1 DUP1 CALLDATALOAD SWAP1 PUSH1 0x20 ADD SWAP1 SWAP3 SWAP2 SWAP1 POP POP POP PUSH2 0x128F JUMP JUMPDEST PUSH1 0x40 MLOAD DUP1 DUP3 ISZERO ISZERO DUP2 MSTORE PUSH1 0x20 ADD SWAP2 POP POP PUSH1 0x40 MLOAD DUP1 SWAP2 SUB SWAP1 RETURN JUMPDEST PUSH2 0x4C1 PUSH2 0x12AD JUMP JUMPDEST PUSH1 0x40 MLOAD DUP1 DUP3 DUP2 MSTORE PUSH1 0x20 ADD SWAP2 POP POP PUSH1 0x40 MLOAD DUP1 SWAP2 SUB SWAP1 RETURN JUMPDEST PUSH2 0x4DF PUSH2 0x12D1 JUMP JUMPDEST PUSH1 0x40 MLOAD DUP1 DUP3 DUP2 MSTORE PUSH1 0x20 ADD SWAP2 POP POP PUSH1 0x40 MLOAD DUP1 SWAP2 SUB SWAP1 RETURN JUMPDEST PUSH2 0x4FD PUSH2 0x12DB JUMP JUMPDEST STOP JUMPDEST PUSH2 0x56B PUSH1 0x4 DUP1 CALLDATASIZE SUB PUSH1 0x60 DUP2 LT ISZERO PUSH2 0x515 JUMPI PUSH1 0x0 DUP1 REVERT JUMPDEST DUP2 ADD SWAP1 DUP1 DUP1 CALLDATALOAD PUSH20 0xFFFFFFFFFFFFFFFFFFFFFFFFFFFFFFFFFFFFFFFF AND SWAP1 PUSH1 0x20 ADD SWAP1 SWAP3 SWAP2 SWAP1 DUP1 CALLDATALOAD PUSH20 0xFFFFFFFFFFFFFFFFFFFFFFFFFFFFFFFFFFFFFFFF AND SWAP1 PUSH1 0x20 ADD SWAP1 SWAP3 SWAP2 SWAP1 DUP1 CALLDATALOAD SWAP1 PUSH1 0x20 ADD SWAP1 SWAP3 SWAP2 SWAP1 POP POP POP PUSH2 0x1349 JUMP JUMPDEST PUSH1 0x40 MLOAD DUP1 DUP3 ISZERO ISZERO DUP2 MSTORE PUSH1 0x20 ADD SWAP2 POP POP PUSH1 0x40 MLOAD DUP1 SWAP2 SUB SWAP1 RETURN JUMPDEST PUSH2 0x58B PUSH2 0x1422 JUMP JUMPDEST PUSH1 0x40 MLOAD DUP1 DUP3 DUP2 MSTORE PUSH1 0x20 ADD SWAP2 POP POP PUSH1 0x40 MLOAD DUP1 SWAP2 SUB SWAP1 RETURN JUMPDEST PUSH2 0x5E3 PUSH1 0x4 DUP1 CALLDATASIZE SUB PUSH1 0x20 DUP2 LT ISZERO PUSH2 0x5B7 JUMPI PUSH1 0x0 DUP1 REVERT JUMPDEST DUP2 ADD SWAP1 DUP1 DUP1 CALLDATALOAD PUSH20 0xFFFFFFFFFFFFFFFFFFFFFFFFFFFFFFFFFFFFFFFF AND SWAP1 PUSH1 0x20 ADD SWAP1 SWAP3 SWAP2 SWAP1 POP POP POP PUSH2 0x1446 JUMP JUMPDEST PUSH1 0x40 MLOAD DUP1 DUP5 DUP2 MSTORE PUSH1 0x20 ADD DUP4 DUP2 MSTORE PUSH1 0x20 ADD DUP3 DUP2 MSTORE PUSH1 0x20 ADD SWAP4 POP POP POP POP PUSH1 0x40 MLOAD DUP1 SWAP2 SUB SWAP1 RETURN JUMPDEST PUSH2 0x649 PUSH1 0x4 DUP1 CALLDATASIZE SUB PUSH1 0x20 DUP2 LT ISZERO PUSH2 0x61D JUMPI PUSH1 0x0 DUP1 REVERT JUMPDEST DUP2 ADD SWAP1 DUP1 DUP1 CALLDATALOAD PUSH20 0xFFFFFFFFFFFFFFFFFFFFFFFFFFFFFFFFFFFFFFFF AND SWAP1 PUSH1 0x20 ADD SWAP1 SWAP3 SWAP2 SWAP1 POP POP POP PUSH2 0x1470 JUMP JUMPDEST PUSH1 0x40 MLOAD DUP1 DUP3 DUP2 MSTORE PUSH1 0x20 ADD SWAP2 POP POP PUSH1 0x40 MLOAD DUP1 SWAP2 SUB SWAP1 RETURN JUMPDEST PUSH2 0x667 PUSH2 0x14BC JUMP JUMPDEST PUSH1 0x40 MLOAD DUP1 DUP3 PUSH1 0xFF AND DUP2 MSTORE PUSH1 0x20 ADD SWAP2 POP POP PUSH1 0x40 MLOAD DUP1 SWAP2 SUB SWAP1 RETURN JUMPDEST PUSH2 0x6CC PUSH1 0x4 DUP1 CALLDATASIZE SUB PUSH1 0x40 DUP2 LT ISZERO PUSH2 0x696 JUMPI PUSH1 0x0 DUP1 REVERT JUMPDEST DUP2 ADD SWAP1 DUP1 DUP1 CALLDATALOAD PUSH20 0xFFFFFFFFFFFFFFFFFFFFFFFFFFFFFFFFFFFFFFFF AND SWAP1 PUSH1 0x20 ADD SWAP1 SWAP3 SWAP2 SWAP1 DUP1 CALLDATALOAD SWAP1 PUSH1 0x20 ADD SWAP1 SWAP3 SWAP2 SWAP1 POP POP POP PUSH2 0x14D3 JUMP JUMPDEST PUSH1 0x40 MLOAD DUP1 DUP3 ISZERO ISZERO DUP2 MSTORE PUSH1 0x20 ADD SWAP2 POP POP PUSH1 0x40 MLOAD DUP1 SWAP2 SUB SWAP1 RETURN JUMPDEST PUSH2 0x6EC PUSH2 0x1586 JUMP JUMPDEST PUSH1 0x40 MLOAD DUP1 DUP3 PUSH20 0xFFFFFFFFFFFFFFFFFFFFFFFFFFFFFFFFFFFFFFFF AND DUP2 MSTORE PUSH1 0x20 ADD SWAP2 POP POP PUSH1 0x40 MLOAD DUP1 SWAP2 SUB SWAP1 RETURN JUMPDEST PUSH2 0x720 PUSH2 0x15AC JUMP JUMPDEST PUSH1 0x40 MLOAD DUP1 DUP3 DUP2 MSTORE PUSH1 0x20 ADD SWAP2 POP POP PUSH1 0x40 MLOAD DUP1 SWAP2 SUB SWAP1 RETURN JUMPDEST PUSH2 0x762 PUSH1 0x4 DUP1 CALLDATASIZE SUB PUSH1 0x20 DUP2 LT ISZERO PUSH2 0x74C JUMPI PUSH1 0x0 DUP1 REVERT JUMPDEST DUP2 ADD SWAP1 DUP1 DUP1 CALLDATALOAD SWAP1 PUSH1 0x20 ADD SWAP1 SWAP3 SWAP2 SWAP1 POP POP POP PUSH2 0x15D0 JUMP JUMPDEST STOP JUMPDEST PUSH2 0x76C PUSH2 0x1911 JUMP JUMPDEST STOP JUMPDEST PUSH2 0x776 PUSH2 0x19DD JUMP JUMPDEST PUSH1 0x40 MLOAD DUP1 DUP3 ISZERO ISZERO DUP2 MSTORE PUSH1 0x20 ADD SWAP2 POP POP PUSH1 0x40 MLOAD DUP1 SWAP2 SUB SWAP1 RETURN JUMPDEST PUSH2 0x796 PUSH2 0x19F0 JUMP JUMPDEST PUSH1 0x40 MLOAD DUP1 DUP3 DUP2 MSTORE PUSH1 0x20 ADD SWAP2 POP POP PUSH1 0x40 MLOAD DUP1 SWAP2 SUB SWAP1 RETURN JUMPDEST PUSH2 0x7B4 PUSH2 0x19F6 JUMP JUMPDEST PUSH1 0x40 MLOAD DUP1 DUP3 DUP2 MSTORE PUSH1 0x20 ADD SWAP2 POP POP PUSH1 0x40 MLOAD DUP1 SWAP2 SUB SWAP1 RETURN JUMPDEST PUSH2 0x7F6 PUSH1 0x4 DUP1 CALLDATASIZE SUB PUSH1 0x20 DUP2 LT ISZERO PUSH2 0x7E0 JUMPI PUSH1 0x0 DUP1 REVERT JUMPDEST DUP2 ADD SWAP1 DUP1 DUP1 CALLDATALOAD SWAP1 PUSH1 0x20 ADD SWAP1 SWAP3 SWAP2 SWAP1 POP POP POP PUSH2 0x19FC JUMP JUMPDEST STOP JUMPDEST PUSH2 0x83A PUSH1 0x4 DUP1 CALLDATASIZE SUB PUSH1 0x20 DUP2 LT ISZERO PUSH2 0x80E JUMPI PUSH1 0x0 DUP1 REVERT JUMPDEST DUP2 ADD SWAP1 DUP1 DUP1 CALLDATALOAD PUSH20 0xFFFFFFFFFFFFFFFFFFFFFFFFFFFFFFFFFFFFFFFF AND SWAP1 PUSH1 0x20 ADD SWAP1 SWAP3 SWAP2 SWAP1 POP POP POP PUSH2 0x1A11 JUMP JUMPDEST PUSH1 0x40 MLOAD DUP1 DUP3 DUP2 MSTORE PUSH1 0x20 ADD SWAP2 POP POP PUSH1 0x40 MLOAD DUP1 SWAP2 SUB SWAP1 RETURN JUMPDEST PUSH2 0x858 PUSH2 0x1A59 JUMP JUMPDEST STOP JUMPDEST PUSH2 0x886 PUSH1 0x4 DUP1 CALLDATASIZE SUB PUSH1 0x20 DUP2 LT ISZERO PUSH2 0x870 JUMPI PUSH1 0x0 DUP1 REVERT JUMPDEST DUP2 ADD SWAP1 DUP1 DUP1 CALLDATALOAD SWAP1 PUSH1 0x20 ADD SWAP1 SWAP3 SWAP2 SWAP1 POP POP POP PUSH2 0x1BC9 JUMP JUMPDEST STOP JUMPDEST PUSH2 0x8E8 PUSH1 0x4 DUP1 CALLDATASIZE SUB PUSH1 0x80 DUP2 LT ISZERO PUSH2 0x89E JUMPI PUSH1 0x0 DUP1 REVERT JUMPDEST DUP2 ADD SWAP1 DUP1 DUP1 CALLDATALOAD PUSH20 0xFFFFFFFFFFFFFFFFFFFFFFFFFFFFFFFFFFFFFFFF AND SWAP1 PUSH1 0x20 ADD SWAP1 SWAP3 SWAP2 SWAP1 DUP1 CALLDATALOAD SWAP1 PUSH1 0x20 ADD SWAP1 SWAP3 SWAP2 SWAP1 DUP1 CALLDATALOAD SWAP1 PUSH1 0x20 ADD SWAP1 SWAP3 SWAP2 SWAP1 DUP1 CALLDATALOAD SWAP1 PUSH1 0x20 ADD SWAP1 SWAP3 SWAP2 SWAP1 POP POP POP PUSH2 0x1CFA JUMP JUMPDEST STOP JUMPDEST PUSH2 0x8F2 PUSH2 0x1E59 JUMP JUMPDEST PUSH1 0x40 MLOAD DUP1 DUP3 DUP2 MSTORE PUSH1 0x20 ADD SWAP2 POP POP PUSH1 0x40 MLOAD DUP1 SWAP2 SUB SWAP1 RETURN JUMPDEST PUSH2 0x94A PUSH1 0x4 DUP1 CALLDATASIZE SUB PUSH1 0x20 DUP2 LT ISZERO PUSH2 0x91E JUMPI PUSH1 0x0 DUP1 REVERT JUMPDEST DUP2 ADD SWAP1 DUP1 DUP1 CALLDATALOAD PUSH20 0xFFFFFFFFFFFFFFFFFFFFFFFFFFFFFFFFFFFFFFFF AND SWAP1 PUSH1 0x20 ADD SWAP1 SWAP3 SWAP2 SWAP1 POP POP POP PUSH2 0x1E5F JUMP JUMPDEST PUSH1 0x40 MLOAD DUP1 DUP3 DUP2 MSTORE PUSH1 0x20 ADD SWAP2 POP POP PUSH1 0x40 MLOAD DUP1 SWAP2 SUB SWAP1 RETURN JUMPDEST PUSH2 0x968 PUSH2 0x1EAB JUMP JUMPDEST PUSH1 0x40 MLOAD DUP1 DUP3 DUP2 MSTORE PUSH1 0x20 ADD SWAP2 POP POP PUSH1 0x40 MLOAD DUP1 SWAP2 SUB SWAP1 RETURN JUMPDEST PUSH2 0x986 PUSH2 0x1ECF JUMP JUMPDEST PUSH1 0x40 MLOAD DUP1 DUP3 DUP2 MSTORE PUSH1 0x20 ADD SWAP2 POP POP PUSH1 0x40 MLOAD DUP1 SWAP2 SUB SWAP1 RETURN JUMPDEST PUSH2 0x9A4 PUSH2 0x1ED5 JUMP JUMPDEST PUSH1 0x40 MLOAD DUP1 DUP3 DUP2 MSTORE PUSH1 0x20 ADD SWAP2 POP POP PUSH1 0x40 MLOAD DUP1 SWAP2 SUB SWAP1 RETURN JUMPDEST PUSH2 0x9C2 PUSH2 0x1EDB JUMP JUMPDEST PUSH1 0x40 MLOAD DUP1 DUP3 DUP2 MSTORE PUSH1 0x20 ADD SWAP2 POP POP PUSH1 0x40 MLOAD DUP1 SWAP2 SUB SWAP1 RETURN JUMPDEST PUSH2 0xA24 PUSH1 0x4 DUP1 CALLDATASIZE SUB PUSH1 0x40 DUP2 LT ISZERO PUSH2 0x9EE JUMPI PUSH1 0x0 DUP1 REVERT JUMPDEST DUP2 ADD SWAP1 DUP1 DUP1 CALLDATALOAD PUSH20 0xFFFFFFFFFFFFFFFFFFFFFFFFFFFFFFFFFFFFFFFF AND SWAP1 PUSH1 0x20 ADD SWAP1 SWAP3 SWAP2 SWAP1 DUP1 CALLDATALOAD SWAP1 PUSH1 0x20 ADD SWAP1 SWAP3 SWAP2 SWAP1 POP POP POP PUSH2 0x1EE1 JUMP JUMPDEST STOP JUMPDEST PUSH2 0xA2E PUSH2 0x20C0 JUMP JUMPDEST PUSH1 0x40 MLOAD DUP1 DUP3 DUP2 MSTORE PUSH1 0x20 ADD SWAP2 POP POP PUSH1 0x40 MLOAD DUP1 SWAP2 SUB SWAP1 RETURN JUMPDEST PUSH2 0xA4C PUSH2 0x20E4 JUMP JUMPDEST PUSH1 0x40 MLOAD DUP1 DUP3 DUP2 MSTORE PUSH1 0x20 ADD SWAP2 POP POP PUSH1 0x40 MLOAD DUP1 SWAP2 SUB SWAP1 RETURN JUMPDEST PUSH2 0xA6A PUSH2 0x2108 JUMP JUMPDEST PUSH1 0x40 MLOAD DUP1 DUP3 ISZERO ISZERO DUP2 MSTORE PUSH1 0x20 ADD SWAP2 POP POP PUSH1 0x40 MLOAD DUP1 SWAP2 SUB SWAP1 RETURN JUMPDEST PUSH2 0xA8A PUSH2 0x211B JUMP JUMPDEST PUSH1 0x40 MLOAD DUP1 DUP3 DUP2 MSTORE PUSH1 0x20 ADD SWAP2 POP POP PUSH1 0x40 MLOAD DUP1 SWAP2 SUB SWAP1 RETURN JUMPDEST PUSH2 0xAA8 PUSH2 0x213F JUMP JUMPDEST PUSH1 0x40 MLOAD DUP1 DUP3 PUSH20 0xFFFFFFFFFFFFFFFFFFFFFFFFFFFFFFFFFFFFFFFF AND DUP2 MSTORE PUSH1 0x20 ADD SWAP2 POP POP PUSH1 0x40 MLOAD DUP1 SWAP2 SUB SWAP1 RETURN JUMPDEST PUSH2 0xB00 PUSH1 0x4 DUP1 CALLDATASIZE SUB PUSH1 0x20 DUP2 LT ISZERO PUSH2 0xAEA JUMPI PUSH1 0x0 DUP1 REVERT JUMPDEST DUP2 ADD SWAP1 DUP1 DUP1 CALLDATALOAD SWAP1 PUSH1 0x20 ADD SWAP1 SWAP3 SWAP2 SWAP1 POP POP POP PUSH2 0x2169 JUMP JUMPDEST PUSH1 0x40 MLOAD DUP1 DUP3 DUP2 MSTORE PUSH1 0x20 ADD SWAP2 POP POP PUSH1 0x40 MLOAD DUP1 SWAP2 SUB SWAP1 RETURN JUMPDEST PUSH2 0xB1E PUSH2 0x2241 JUMP JUMPDEST PUSH1 0x40 MLOAD DUP1 DUP3 DUP2 MSTORE PUSH1 0x20 ADD SWAP2 POP POP PUSH1 0x40 MLOAD DUP1 SWAP2 SUB SWAP1 RETURN JUMPDEST PUSH2 0xB76 PUSH1 0x4 DUP1 CALLDATASIZE SUB PUSH1 0x20 DUP2 LT ISZERO PUSH2 0xB4A JUMPI PUSH1 0x0 DUP1 REVERT JUMPDEST DUP2 ADD SWAP1 DUP1 DUP1 CALLDATALOAD PUSH20 0xFFFFFFFFFFFFFFFFFFFFFFFFFFFFFFFFFFFFFFFF AND SWAP1 PUSH1 0x20 ADD SWAP1 SWAP3 SWAP2 SWAP1 POP POP POP PUSH2 0x2247 JUMP JUMPDEST PUSH1 0x40 MLOAD DUP1 DUP3 DUP2 MSTORE PUSH1 0x20 ADD SWAP2 POP POP PUSH1 0x40 MLOAD DUP1 SWAP2 SUB SWAP1 RETURN JUMPDEST PUSH2 0xB94 PUSH2 0x225F JUMP JUMPDEST PUSH1 0x40 MLOAD DUP1 DUP1 PUSH1 0x20 ADD DUP3 DUP2 SUB DUP3 MSTORE DUP4 DUP2 DUP2 MLOAD DUP2 MSTORE PUSH1 0x20 ADD SWAP2 POP DUP1 MLOAD SWAP1 PUSH1 0x20 ADD SWAP1 DUP1 DUP4 DUP4 PUSH1 0x0 JUMPDEST DUP4 DUP2 LT ISZERO PUSH2 0xBD4 JUMPI DUP1 DUP3 ADD MLOAD DUP2 DUP5 ADD MSTORE PUSH1 0x20 DUP2 ADD SWAP1 POP PUSH2 0xBB9 JUMP JUMPDEST POP POP POP POP SWAP1 POP SWAP1 DUP2 ADD SWAP1 PUSH1 0x1F AND DUP1 ISZERO PUSH2 0xC01 JUMPI DUP1 DUP3 SUB DUP1 MLOAD PUSH1 0x1 DUP4 PUSH1 0x20 SUB PUSH2 0x100 EXP SUB NOT AND DUP2 MSTORE PUSH1 0x20 ADD SWAP2 POP JUMPDEST POP SWAP3 POP POP POP PUSH1 0x40 MLOAD DUP1 SWAP2 SUB SWAP1 RETURN JUMPDEST PUSH2 0xC17 PUSH2 0x2301 JUMP JUMPDEST PUSH1 0x40 MLOAD DUP1 DUP3 ISZERO ISZERO DUP2 MSTORE PUSH1 0x20 ADD SWAP2 POP POP PUSH1 0x40 MLOAD DUP1 SWAP2 SUB SWAP1 RETURN JUMPDEST PUSH2 0xC37 PUSH2 0x2314 JUMP JUMPDEST STOP JUMPDEST PUSH2 0xC7B PUSH1 0x4 DUP1 CALLDATASIZE SUB PUSH1 0x20 DUP2 LT ISZERO PUSH2 0xC4F JUMPI PUSH1 0x0 DUP1 REVERT JUMPDEST DUP2 ADD SWAP1 DUP1 DUP1 CALLDATALOAD PUSH20 0xFFFFFFFFFFFFFFFFFFFFFFFFFFFFFFFFFFFFFFFF AND SWAP1 PUSH1 0x20 ADD SWAP1 SWAP3 SWAP2 SWAP1 POP POP POP PUSH2 0x23E0 JUMP JUMPDEST PUSH1 0x40 MLOAD DUP1 DUP3 DUP2 MSTORE PUSH1 0x20 ADD SWAP2 POP POP PUSH1 0x40 MLOAD DUP1 SWAP2 SUB SWAP1 RETURN JUMPDEST PUSH2 0xCD1 PUSH1 0x4 DUP1 CALLDATASIZE SUB PUSH1 0x60 DUP2 LT ISZERO PUSH2 0xCA7 JUMPI PUSH1 0x0 DUP1 REVERT JUMPDEST DUP2 ADD SWAP1 DUP1 DUP1 CALLDATALOAD SWAP1 PUSH1 0x20 ADD SWAP1 SWAP3 SWAP2 SWAP1 DUP1 CALLDATALOAD SWAP1 PUSH1 0x20 ADD SWAP1 SWAP3 SWAP2 SWAP1 DUP1 CALLDATALOAD SWAP1 PUSH1 0x20 ADD SWAP1 SWAP3 SWAP2 SWAP1 POP POP POP PUSH2 0x242C JUMP JUMPDEST STOP JUMPDEST PUSH2 0xD1F PUSH1 0x4 DUP1 CALLDATASIZE SUB PUSH1 0x40 DUP2 LT ISZERO PUSH2 0xCE9 JUMPI PUSH1 0x0 DUP1 REVERT JUMPDEST DUP2 ADD SWAP1 DUP1 DUP1 CALLDATALOAD PUSH20 0xFFFFFFFFFFFFFFFFFFFFFFFFFFFFFFFFFFFFFFFF AND SWAP1 PUSH1 0x20 ADD SWAP1 SWAP3 SWAP2 SWAP1 DUP1 CALLDATALOAD SWAP1 PUSH1 0x20 ADD SWAP1 SWAP3 SWAP2 SWAP1 POP POP POP PUSH2 0x2793 JUMP JUMPDEST PUSH1 0x40 MLOAD DUP1 DUP3 ISZERO ISZERO DUP2 MSTORE PUSH1 0x20 ADD SWAP2 POP POP PUSH1 0x40 MLOAD DUP1 SWAP2 SUB SWAP1 RETURN JUMPDEST PUSH2 0xD3F PUSH2 0x2860 JUMP JUMPDEST STOP JUMPDEST PUSH2 0xD8D PUSH1 0x4 DUP1 CALLDATASIZE SUB PUSH1 0x40 DUP2 LT ISZERO PUSH2 0xD57 JUMPI PUSH1 0x0 DUP1 REVERT JUMPDEST DUP2 ADD SWAP1 DUP1 DUP1 CALLDATALOAD PUSH20 0xFFFFFFFFFFFFFFFFFFFFFFFFFFFFFFFFFFFFFFFF AND SWAP1 PUSH1 0x20 ADD SWAP1 SWAP3 SWAP2 SWAP1 DUP1 CALLDATALOAD SWAP1 PUSH1 0x20 ADD SWAP1 SWAP3 SWAP2 SWAP1 POP POP POP PUSH2 0x293B JUMP JUMPDEST PUSH1 0x40 MLOAD DUP1 DUP3 ISZERO ISZERO DUP2 MSTORE PUSH1 0x20 ADD SWAP2 POP POP PUSH1 0x40 MLOAD DUP1 SWAP2 SUB SWAP1 RETURN JUMPDEST PUSH2 0xDAD PUSH2 0x2959 JUMP JUMPDEST PUSH1 0x40 MLOAD DUP1 DUP3 DUP2 MSTORE PUSH1 0x20 ADD SWAP2 POP POP PUSH1 0x40 MLOAD DUP1 SWAP2 SUB SWAP1 RETURN JUMPDEST PUSH2 0xDEF PUSH1 0x4 DUP1 CALLDATASIZE SUB PUSH1 0x20 DUP2 LT ISZERO PUSH2 0xDD9 JUMPI PUSH1 0x0 DUP1 REVERT JUMPDEST DUP2 ADD SWAP1 DUP1 DUP1 CALLDATALOAD SWAP1 PUSH1 0x20 ADD SWAP1 SWAP3 SWAP2 SWAP1 POP POP POP PUSH2 0x295F JUMP JUMPDEST STOP JUMPDEST PUSH2 0xDF9 PUSH2 0x2AAE JUMP JUMPDEST PUSH1 0x40 MLOAD DUP1 DUP3 DUP2 MSTORE PUSH1 0x20 ADD SWAP2 POP POP PUSH1 0x40 MLOAD DUP1 SWAP2 SUB SWAP1 RETURN JUMPDEST PUSH2 0xE3B PUSH1 0x4 DUP1 CALLDATASIZE SUB PUSH1 0x20 DUP2 LT ISZERO PUSH2 0xE25 JUMPI PUSH1 0x0 DUP1 REVERT JUMPDEST DUP2 ADD SWAP1 DUP1 DUP1 CALLDATALOAD SWAP1 PUSH1 0x20 ADD SWAP1 SWAP3 SWAP2 SWAP1 POP POP POP PUSH2 0x2AB4 JUMP JUMPDEST STOP JUMPDEST PUSH2 0xE69 PUSH1 0x4 DUP1 CALLDATASIZE SUB PUSH1 0x20 DUP2 LT ISZERO PUSH2 0xE53 JUMPI PUSH1 0x0 DUP1 REVERT JUMPDEST DUP2 ADD SWAP1 DUP1 DUP1 CALLDATALOAD SWAP1 PUSH1 0x20 ADD SWAP1 SWAP3 SWAP2 SWAP1 POP POP POP PUSH2 0x2C81 JUMP JUMPDEST STOP JUMPDEST PUSH2 0xEAD PUSH1 0x4 DUP1 CALLDATASIZE SUB PUSH1 0x20 DUP2 LT ISZERO PUSH2 0xE81 JUMPI PUSH1 0x0 DUP1 REVERT JUMPDEST DUP2 ADD SWAP1 DUP1 DUP1 CALLDATALOAD PUSH20 0xFFFFFFFFFFFFFFFFFFFFFFFFFFFFFFFFFFFFFFFF AND SWAP1 PUSH1 0x20 ADD SWAP1 SWAP3 SWAP2 SWAP1 POP POP POP PUSH2 0x2C96 JUMP JUMPDEST STOP JUMPDEST PUSH2 0xF11 PUSH1 0x4 DUP1 CALLDATASIZE SUB PUSH1 0x40 DUP2 LT ISZERO PUSH2 0xEC5 JUMPI PUSH1 0x0 DUP1 REVERT JUMPDEST DUP2 ADD SWAP1 DUP1 DUP1 CALLDATALOAD PUSH20 0xFFFFFFFFFFFFFFFFFFFFFFFFFFFFFFFFFFFFFFFF AND SWAP1 PUSH1 0x20 ADD SWAP1 SWAP3 SWAP2 SWAP1 DUP1 CALLDATALOAD PUSH20 0xFFFFFFFFFFFFFFFFFFFFFFFFFFFFFFFFFFFFFFFF AND SWAP1 PUSH1 0x20 ADD SWAP1 SWAP3 SWAP2 SWAP1 POP POP POP PUSH2 0x2EB5 JUMP JUMPDEST PUSH1 0x40 MLOAD DUP1 DUP3 DUP2 MSTORE PUSH1 0x20 ADD SWAP2 POP POP PUSH1 0x40 MLOAD DUP1 SWAP2 SUB SWAP1 RETURN JUMPDEST PUSH2 0x107D PUSH1 0x4 DUP1 CALLDATASIZE SUB PUSH1 0x60 DUP2 LT ISZERO PUSH2 0xF3D JUMPI PUSH1 0x0 DUP1 REVERT JUMPDEST DUP2 ADD SWAP1 DUP1 DUP1 CALLDATALOAD SWAP1 PUSH1 0x20 ADD SWAP1 PUSH5 0x100000000 DUP2 GT ISZERO PUSH2 0xF5A JUMPI PUSH1 0x0 DUP1 REVERT JUMPDEST DUP3 ADD DUP4 PUSH1 0x20 DUP3 ADD GT ISZERO PUSH2 0xF6C JUMPI PUSH1 0x0 DUP1 REVERT JUMPDEST DUP1 CALLDATALOAD SWAP1 PUSH1 0x20 ADD SWAP2 DUP5 PUSH1 0x20 DUP4 MUL DUP5 ADD GT PUSH5 0x100000000 DUP4 GT OR ISZERO PUSH2 0xF8E JUMPI PUSH1 0x0 DUP1 REVERT JUMPDEST SWAP2 SWAP1 DUP1 DUP1 PUSH1 0x20 MUL PUSH1 0x20 ADD PUSH1 0x40 MLOAD SWAP1 DUP2 ADD PUSH1 0x40 MSTORE DUP1 SWAP4 SWAP3 SWAP2 SWAP1 DUP2 DUP2 MSTORE PUSH1 0x20 ADD DUP4 DUP4 PUSH1 0x20 MUL DUP1 DUP3 DUP5 CALLDATACOPY PUSH1 0x0 DUP2 DUP5 ADD MSTORE PUSH1 0x1F NOT PUSH1 0x1F DUP3 ADD AND SWAP1 POP DUP1 DUP4 ADD SWAP3 POP POP POP POP POP POP POP SWAP2 SWAP3 SWAP2 SWAP3 SWAP1 DUP1 CALLDATALOAD SWAP1 PUSH1 0x20 ADD SWAP1 PUSH5 0x100000000 DUP2 GT ISZERO PUSH2 0xFEE JUMPI PUSH1 0x0 DUP1 REVERT JUMPDEST DUP3 ADD DUP4 PUSH1 0x20 DUP3 ADD GT ISZERO PUSH2 0x1000 JUMPI PUSH1 0x0 DUP1 REVERT JUMPDEST DUP1 CALLDATALOAD SWAP1 PUSH1 0x20 ADD SWAP2 DUP5 PUSH1 0x20 DUP4 MUL DUP5 ADD GT PUSH5 0x100000000 DUP4 GT OR ISZERO PUSH2 0x1022 JUMPI PUSH1 0x0 DUP1 REVERT JUMPDEST SWAP2 SWAP1 DUP1 DUP1 PUSH1 0x20 MUL PUSH1 0x20 ADD PUSH1 0x40 MLOAD SWAP1 DUP2 ADD PUSH1 0x40 MSTORE DUP1 SWAP4 SWAP3 SWAP2 SWAP1 DUP2 DUP2 MSTORE PUSH1 0x20 ADD DUP4 DUP4 PUSH1 0x20 MUL DUP1 DUP3 DUP5 CALLDATACOPY PUSH1 0x0 DUP2 DUP5 ADD MSTORE PUSH1 0x1F NOT PUSH1 0x1F DUP3 ADD AND SWAP1 POP DUP1 DUP4 ADD SWAP3 POP POP POP POP POP POP POP SWAP2 SWAP3 SWAP2 SWAP3 SWAP1 DUP1 CALLDATALOAD ISZERO ISZERO SWAP1 PUSH1 0x20 ADD SWAP1 SWAP3 SWAP2 SWAP1 POP POP POP PUSH2 0x2F3C JUMP JUMPDEST STOP JUMPDEST PUSH2 0x1087 PUSH2 0x3379 JUMP JUMPDEST PUSH1 0x40 MLOAD DUP1 DUP3 DUP2 MSTORE PUSH1 0x20 ADD SWAP2 POP POP PUSH1 0x40 MLOAD DUP1 SWAP2 SUB SWAP1 RETURN JUMPDEST PUSH2 0x10A5 PUSH2 0x337F JUMP JUMPDEST PUSH1 0x40 MLOAD DUP1 DUP3 DUP2 MSTORE PUSH1 0x20 ADD SWAP2 POP POP PUSH1 0x40 MLOAD DUP1 SWAP2 SUB SWAP1 RETURN JUMPDEST PUSH2 0x10FD PUSH1 0x4 DUP1 CALLDATASIZE SUB PUSH1 0x20 DUP2 LT ISZERO PUSH2 0x10D1 JUMPI PUSH1 0x0 DUP1 REVERT JUMPDEST DUP2 ADD SWAP1 DUP1 DUP1 CALLDATALOAD PUSH20 0xFFFFFFFFFFFFFFFFFFFFFFFFFFFFFFFFFFFFFFFF AND SWAP1 PUSH1 0x20 ADD SWAP1 SWAP3 SWAP2 SWAP1 POP POP POP PUSH2 0x33A3 JUMP JUMPDEST PUSH1 0x40 MLOAD DUP1 DUP3 DUP2 MSTORE PUSH1 0x20 ADD SWAP2 POP POP PUSH1 0x40 MLOAD DUP1 SWAP2 SUB SWAP1 RETURN JUMPDEST PUSH2 0x1155 PUSH1 0x4 DUP1 CALLDATASIZE SUB PUSH1 0x20 DUP2 LT ISZERO PUSH2 0x1129 JUMPI PUSH1 0x0 DUP1 REVERT JUMPDEST DUP2 ADD SWAP1 DUP1 DUP1 CALLDATALOAD PUSH20 0xFFFFFFFFFFFFFFFFFFFFFFFFFFFFFFFFFFFFFFFF AND SWAP1 PUSH1 0x20 ADD SWAP1 SWAP3 SWAP2 SWAP1 POP POP POP PUSH2 0x33BD JUMP JUMPDEST STOP JUMPDEST PUSH2 0x1183 PUSH1 0x4 DUP1 CALLDATASIZE SUB PUSH1 0x20 DUP2 LT ISZERO PUSH2 0x116D JUMPI PUSH1 0x0 DUP1 REVERT JUMPDEST DUP2 ADD SWAP1 DUP1 DUP1 CALLDATALOAD SWAP1 PUSH1 0x20 ADD SWAP1 SWAP3 SWAP2 SWAP1 POP POP POP PUSH2 0x35B2 JUMP JUMPDEST STOP JUMPDEST PUSH2 0x11D1 PUSH1 0x4 DUP1 CALLDATASIZE SUB PUSH1 0x40 DUP2 LT ISZERO PUSH2 0x119B JUMPI PUSH1 0x0 DUP1 REVERT JUMPDEST DUP2 ADD SWAP1 DUP1 DUP1 CALLDATALOAD PUSH20 0xFFFFFFFFFFFFFFFFFFFFFFFFFFFFFFFFFFFFFFFF AND SWAP1 PUSH1 0x20 ADD SWAP1 SWAP3 SWAP2 SWAP1 DUP1 CALLDATALOAD SWAP1 PUSH1 0x20 ADD SWAP1 SWAP3 SWAP2 SWAP1 POP POP POP PUSH2 0x35C6 JUMP JUMPDEST PUSH1 0x40 MLOAD DUP1 DUP3 DUP2 MSTORE PUSH1 0x20 ADD SWAP2 POP POP PUSH1 0x40 MLOAD DUP1 SWAP2 SUB SWAP1 RETURN JUMPDEST PUSH1 0xA SLOAD DUP2 JUMP JUMPDEST PUSH1 0x60 PUSH1 0x3 DUP1 SLOAD PUSH1 0x1 DUP2 PUSH1 0x1 AND ISZERO PUSH2 0x100 MUL SUB AND PUSH1 0x2 SWAP1 DIV DUP1 PUSH1 0x1F ADD PUSH1 0x20 DUP1 SWAP2 DIV MUL PUSH1 0x20 ADD PUSH1 0x40 MLOAD SWAP1 DUP2 ADD PUSH1 0x40 MSTORE DUP1 SWAP3 SWAP2 SWAP1 DUP2 DUP2 MSTORE PUSH1 0x20 ADD DUP3 DUP1 SLOAD PUSH1 0x1 DUP2 PUSH1 0x1 AND ISZERO PUSH2 0x100 MUL SUB AND PUSH1 0x2 SWAP1 DIV DUP1 ISZERO PUSH2 0x1285 JUMPI DUP1 PUSH1 0x1F LT PUSH2 0x125A JUMPI PUSH2 0x100 DUP1 DUP4 SLOAD DIV MUL DUP4 MSTORE SWAP2 PUSH1 0x20 ADD SWAP2 PUSH2 0x1285 JUMP JUMPDEST DUP3 ADD SWAP2 SWAP1 PUSH1 0x0 MSTORE PUSH1 0x20 PUSH1 0x0 KECCAK256 SWAP1 JUMPDEST DUP2 SLOAD DUP2 MSTORE SWAP1 PUSH1 0x1 ADD SWAP1 PUSH1 0x20 ADD DUP1 DUP4 GT PUSH2 0x1268 JUMPI DUP3 SWAP1 SUB PUSH1 0x1F AND DUP3 ADD SWAP2 JUMPDEST POP POP POP POP POP SWAP1 POP SWAP1 JUMP JUMPDEST PUSH1 0x0 PUSH2 0x12A3 PUSH2 0x129C PUSH2 0x3818 JUMP JUMPDEST DUP5 DUP5 PUSH2 0x3820 JUMP JUMPDEST PUSH1 0x1 SWAP1 POP SWAP3 SWAP2 POP POP JUMP JUMPDEST PUSH32 0x0 DUP2 JUMP JUMPDEST PUSH1 0x0 PUSH1 0x2 SLOAD SWAP1 POP SWAP1 JUMP JUMPDEST PUSH1 0x0 ISZERO ISZERO PUSH1 0x11 PUSH1 0x0 SWAP1 SLOAD SWAP1 PUSH2 0x100 EXP SWAP1 DIV PUSH1 0xFF AND ISZERO ISZERO EQ PUSH2 0x1347 JUMPI PUSH1 0x40 MLOAD PUSH32 0x8C379A000000000000000000000000000000000000000000000000000000000 DUP2 MSTORE PUSH1 0x4 ADD DUP1 DUP1 PUSH1 0x20 ADD DUP3 DUP2 SUB DUP3 MSTORE PUSH1 0x23 DUP2 MSTORE PUSH1 0x20 ADD DUP1 PUSH2 0x471B PUSH1 0x23 SWAP2 CODECOPY PUSH1 0x40 ADD SWAP2 POP POP PUSH1 0x40 MLOAD DUP1 SWAP2 SUB SWAP1 REVERT JUMPDEST JUMP JUMPDEST PUSH1 0x0 PUSH2 0x1356 DUP5 DUP5 DUP5 PUSH2 0x3A17 JUMP JUMPDEST PUSH2 0x1417 DUP5 PUSH2 0x1362 PUSH2 0x3818 JUMP JUMPDEST PUSH2 0x1412 DUP6 PUSH1 0x40 MLOAD DUP1 PUSH1 0x60 ADD PUSH1 0x40 MSTORE DUP1 PUSH1 0x28 DUP2 MSTORE PUSH1 0x20 ADD PUSH2 0x4780 PUSH1 0x28 SWAP2 CODECOPY PUSH1 0x1 PUSH1 0x0 DUP12 PUSH20 0xFFFFFFFFFFFFFFFFFFFFFFFFFFFFFFFFFFFFFFFF AND PUSH20 0xFFFFFFFFFFFFFFFFFFFFFFFFFFFFFFFFFFFFFFFF AND DUP2 MSTORE PUSH1 0x20 ADD SWAP1 DUP2 MSTORE PUSH1 0x20 ADD PUSH1 0x0 KECCAK256 PUSH1 0x0 PUSH2 0x13C8 PUSH2 0x3818 JUMP JUMPDEST PUSH20 0xFFFFFFFFFFFFFFFFFFFFFFFFFFFFFFFFFFFFFFFF AND PUSH20 0xFFFFFFFFFFFFFFFFFFFFFFFFFFFFFFFFFFFFFFFF AND DUP2 MSTORE PUSH1 0x20 ADD SWAP1 DUP2 MSTORE PUSH1 0x20 ADD PUSH1 0x0 KECCAK256 SLOAD PUSH2 0x3CD8 SWAP1 SWAP3 SWAP2 SWAP1 PUSH4 0xFFFFFFFF AND JUMP JUMPDEST PUSH2 0x3820 JUMP JUMPDEST PUSH1 0x1 SWAP1 POP SWAP4 SWAP3 POP POP POP JUMP JUMPDEST PUSH32 0x0 DUP2 JUMP JUMPDEST PUSH1 0x13 PUSH1 0x20 MSTORE DUP1 PUSH1 0x0 MSTORE PUSH1 0x40 PUSH1 0x0 KECCAK256 PUSH1 0x0 SWAP2 POP SWAP1 POP DUP1 PUSH1 0x0 ADD SLOAD SWAP1 DUP1 PUSH1 0x1 ADD SLOAD SWAP1 DUP1 PUSH1 0x2 ADD SLOAD SWAP1 POP DUP4 JUMP JUMPDEST PUSH1 0x0 PUSH1 0x13 PUSH1 0x0 DUP4 PUSH20 0xFFFFFFFFFFFFFFFFFFFFFFFFFFFFFFFFFFFFFFFF AND PUSH20 0xFFFFFFFFFFFFFFFFFFFFFFFFFFFFFFFFFFFFFFFF AND DUP2 MSTORE PUSH1 0x20 ADD SWAP1 DUP2 MSTORE PUSH1 0x20 ADD PUSH1 0x0 KECCAK256 PUSH1 0x2 ADD SLOAD SWAP1 POP SWAP2 SWAP1 POP JUMP JUMPDEST PUSH1 0x0 PUSH1 0x5 PUSH1 0x0 SWAP1 SLOAD SWAP1 PUSH2 0x100 EXP SWAP1 DIV PUSH1 0xFF AND SWAP1 POP SWAP1 JUMP JUMPDEST PUSH1 0x0 PUSH2 0x157C PUSH2 0x14E0 PUSH2 0x3818 JUMP JUMPDEST DUP5 PUSH2 0x1577 DUP6 PUSH1 0x1 PUSH1 0x0 PUSH2 0x14F1 PUSH2 0x3818 JUMP JUMPDEST PUSH20 0xFFFFFFFFFFFFFFFFFFFFFFFFFFFFFFFFFFFFFFFF AND PUSH20 0xFFFFFFFFFFFFFFFFFFFFFFFFFFFFFFFFFFFFFFFF AND DUP2 MSTORE PUSH1 0x20 ADD SWAP1 DUP2 MSTORE PUSH1 0x20 ADD PUSH1 0x0 KECCAK256 PUSH1 0x0 DUP10 PUSH20 0xFFFFFFFFFFFFFFFFFFFFFFFFFFFFFFFFFFFFFFFF AND PUSH20 0xFFFFFFFFFFFFFFFFFFFFFFFFFFFFFFFFFFFFFFFF AND DUP2 MSTORE PUSH1 0x20 ADD SWAP1 DUP2 MSTORE PUSH1 0x20 ADD PUSH1 0x0 KECCAK256 SLOAD PUSH2 0x3D92 SWAP1 SWAP2 SWAP1 PUSH4 0xFFFFFFFF AND JUMP JUMPDEST PUSH2 0x3820 JUMP JUMPDEST PUSH1 0x1 SWAP1 POP SWAP3 SWAP2 POP POP JUMP JUMPDEST PUSH1 0x6 PUSH1 0x0 SWAP1 SLOAD SWAP1 PUSH2 0x100 EXP SWAP1 DIV PUSH20 0xFFFFFFFFFFFFFFFFFFFFFFFFFFFFFFFFFFFFFFFF AND DUP2 JUMP JUMPDEST PUSH32 0x0 DUP2 JUMP JUMPDEST PUSH2 0x15D8 PUSH2 0x12DB JUMP JUMPDEST PUSH1 0x13 PUSH1 0x0 CALLER PUSH20 0xFFFFFFFFFFFFFFFFFFFFFFFFFFFFFFFFFFFFFFFF AND PUSH20 0xFFFFFFFFFFFFFFFFFFFFFFFFFFFFFFFFFFFFFFFF AND DUP2 MSTORE PUSH1 0x20 ADD SWAP1 DUP2 MSTORE PUSH1 0x20 ADD PUSH1 0x0 KECCAK256 PUSH1 0x0 ADD SLOAD DUP2 GT ISZERO PUSH2 0x1690 JUMPI PUSH1 0x40 MLOAD PUSH32 0x8C379A000000000000000000000000000000000000000000000000000000000 DUP2 MSTORE PUSH1 0x4 ADD DUP1 DUP1 PUSH1 0x20 ADD DUP3 DUP2 SUB DUP3 MSTORE PUSH1 0x20 DUP2 MSTORE PUSH1 0x20 ADD DUP1 PUSH32 0x416D6F756E74206578636565647320617661696C61626C652062616C616E6365 DUP2 MSTORE POP PUSH1 0x20 ADD SWAP2 POP POP PUSH1 0x40 MLOAD DUP1 SWAP2 SUB SWAP1 REVERT JUMPDEST PUSH1 0x0 PUSH2 0x169B CALLER PUSH2 0x3E1A JUMP JUMPDEST SWAP1 POP PUSH1 0x0 PUSH2 0x16F4 DUP4 PUSH1 0x13 PUSH1 0x0 CALLER PUSH20 0xFFFFFFFFFFFFFFFFFFFFFFFFFFFFFFFFFFFFFFFF AND PUSH20 0xFFFFFFFFFFFFFFFFFFFFFFFFFFFFFFFFFFFFFFFF AND DUP2 MSTORE PUSH1 0x20 ADD SWAP1 DUP2 MSTORE PUSH1 0x20 ADD PUSH1 0x0 KECCAK256 PUSH1 0x0 ADD SLOAD PUSH2 0x3E7E SWAP1 SWAP2 SWAP1 PUSH4 0xFFFFFFFF AND JUMP JUMPDEST PUSH1 0x13 PUSH1 0x0 CALLER PUSH20 0xFFFFFFFFFFFFFFFFFFFFFFFFFFFFFFFFFFFFFFFF AND PUSH20 0xFFFFFFFFFFFFFFFFFFFFFFFFFFFFFFFFFFFFFFFF AND DUP2 MSTORE PUSH1 0x20 ADD SWAP1 DUP2 MSTORE PUSH1 0x20 ADD PUSH1 0x0 KECCAK256 PUSH1 0x0 ADD DUP2 SWAP1 SSTORE POP PUSH2 0x174F DUP4 PUSH1 0xE SLOAD PUSH2 0x3E7E SWAP1 SWAP2 SWAP1 PUSH4 0xFFFFFFFF AND JUMP JUMPDEST PUSH1 0xE DUP2 SWAP1 SSTORE POP PUSH1 0x0 PUSH1 0xE SLOAD GT ISZERO PUSH2 0x178C JUMPI PUSH2 0x1789 PUSH2 0x3E8 PUSH2 0x177B PUSH1 0x10 SLOAD DUP7 PUSH2 0x3F01 SWAP1 SWAP2 SWAP1 PUSH4 0xFFFFFFFF AND JUMP JUMPDEST PUSH2 0x3F87 SWAP1 SWAP2 SWAP1 PUSH4 0xFFFFFFFF AND JUMP JUMPDEST SWAP1 POP JUMPDEST PUSH1 0x0 PUSH2 0x17B3 DUP3 PUSH2 0x17A5 DUP6 DUP8 PUSH2 0x3D92 SWAP1 SWAP2 SWAP1 PUSH4 0xFFFFFFFF AND JUMP JUMPDEST PUSH2 0x3E7E SWAP1 SWAP2 SWAP1 PUSH4 0xFFFFFFFF AND JUMP JUMPDEST SWAP1 POP PUSH2 0x17C0 ADDRESS CALLER DUP4 PUSH2 0x3A17 JUMP JUMPDEST PUSH1 0x0 PUSH2 0x17EB PUSH2 0x3E8 PUSH2 0x17DD PUSH1 0xC SLOAD DUP7 PUSH2 0x3F01 SWAP1 SWAP2 SWAP1 PUSH4 0xFFFFFFFF AND JUMP JUMPDEST PUSH2 0x3F87 SWAP1 SWAP2 SWAP1 PUSH4 0xFFFFFFFF AND JUMP JUMPDEST SWAP1 POP PUSH2 0x188A ADDRESS ADDRESS PUSH20 0xFFFFFFFFFFFFFFFFFFFFFFFFFFFFFFFFFFFFFFFF AND PUSH4 0x8DA5CB5B PUSH1 0x40 MLOAD DUP2 PUSH4 0xFFFFFFFF AND PUSH1 0xE0 SHL DUP2 MSTORE PUSH1 0x4 ADD PUSH1 0x20 PUSH1 0x40 MLOAD DUP1 DUP4 SUB DUP2 DUP7 DUP1 EXTCODESIZE ISZERO DUP1 ISZERO PUSH2 0x1837 JUMPI PUSH1 0x0 DUP1 REVERT JUMPDEST POP GAS STATICCALL ISZERO DUP1 ISZERO PUSH2 0x184B JUMPI RETURNDATASIZE PUSH1 0x0 DUP1 RETURNDATACOPY RETURNDATASIZE PUSH1 0x0 REVERT JUMPDEST POP POP POP POP PUSH1 0x40 MLOAD RETURNDATASIZE PUSH1 0x20 DUP2 LT ISZERO PUSH2 0x1861 JUMPI PUSH1 0x0 DUP1 REVERT JUMPDEST DUP2 ADD SWAP1 DUP1 DUP1 MLOAD SWAP1 PUSH1 0x20 ADD SWAP1 SWAP3 SWAP2 SWAP1 POP POP POP PUSH2 0x1885 DUP5 DUP8 PUSH2 0x3E7E SWAP1 SWAP2 SWAP1 PUSH4 0xFFFFFFFF AND JUMP JUMPDEST PUSH2 0x3A17 JUMP JUMPDEST PUSH1 0x0 DUP2 GT ISZERO PUSH2 0x189D JUMPI PUSH2 0x189C DUP2 PUSH2 0x4010 JUMP JUMPDEST JUMPDEST PUSH32 0x33EF926B7771DF44FD5BF5A690410374540AA634051AF1E3A6DD2F67C94A18F1 CALLER DUP4 DUP6 DUP5 DUP9 PUSH1 0x40 MLOAD DUP1 DUP7 PUSH20 0xFFFFFFFFFFFFFFFFFFFFFFFFFFFFFFFFFFFFFFFF AND DUP2 MSTORE PUSH1 0x20 ADD DUP6 DUP2 MSTORE PUSH1 0x20 ADD DUP5 DUP2 MSTORE PUSH1 0x20 ADD DUP4 DUP2 MSTORE PUSH1 0x20 ADD DUP3 DUP2 MSTORE PUSH1 0x20 ADD SWAP6 POP POP POP POP POP POP PUSH1 0x40 MLOAD DUP1 SWAP2 SUB SWAP1 LOG1 POP POP POP POP POP JUMP JUMPDEST PUSH2 0x1919 PUSH2 0x3818 JUMP JUMPDEST PUSH20 0xFFFFFFFFFFFFFFFFFFFFFFFFFFFFFFFFFFFFFFFF AND PUSH2 0x1937 PUSH2 0x213F JUMP JUMPDEST PUSH20 0xFFFFFFFFFFFFFFFFFFFFFFFFFFFFFFFFFFFFFFFF AND EQ PUSH2 0x19C0 JUMPI PUSH1 0x40 MLOAD PUSH32 0x8C379A000000000000000000000000000000000000000000000000000000000 DUP2 MSTORE PUSH1 0x4 ADD DUP1 DUP1 PUSH1 0x20 ADD DUP3 DUP2 SUB DUP3 MSTORE PUSH1 0x20 DUP2 MSTORE PUSH1 0x20 ADD DUP1 PUSH32 0x4F776E61626C653A2063616C6C6572206973206E6F7420746865206F776E6572 DUP2 MSTORE POP PUSH1 0x20 ADD SWAP2 POP POP PUSH1 0x40 MLOAD DUP1 SWAP2 SUB SWAP1 REVERT JUMPDEST PUSH1 0x1 PUSH1 0x11 PUSH1 0x1 PUSH2 0x100 EXP DUP2 SLOAD DUP2 PUSH1 0xFF MUL NOT AND SWAP1 DUP4 ISZERO ISZERO MUL OR SWAP1 SSTORE POP JUMP JUMPDEST PUSH1 0x11 PUSH1 0x0 SWAP1 SLOAD SWAP1 PUSH2 0x100 EXP SWAP1 DIV PUSH1 0xFF AND DUP2 JUMP JUMPDEST PUSH1 0xF SLOAD DUP2 JUMP JUMPDEST PUSH1 0x9 SLOAD DUP2 JUMP JUMPDEST PUSH2 0x1A04 PUSH2 0x405C JUMP JUMPDEST PUSH2 0x1A0E ADDRESS DUP3 PUSH2 0x4104 JUMP JUMPDEST POP JUMP JUMPDEST PUSH1 0x0 DUP1 PUSH1 0x0 DUP4 PUSH20 0xFFFFFFFFFFFFFFFFFFFFFFFFFFFFFFFFFFFFFFFF AND PUSH20 0xFFFFFFFFFFFFFFFFFFFFFFFFFFFFFFFFFFFFFFFF AND DUP2 MSTORE PUSH1 0x20 ADD SWAP1 DUP2 MSTORE PUSH1 0x20 ADD PUSH1 0x0 KECCAK256 SLOAD SWAP1 POP SWAP2 SWAP1 POP JUMP JUMPDEST PUSH2 0x1A61 PUSH2 0x3818 JUMP JUMPDEST PUSH20 0xFFFFFFFFFFFFFFFFFFFFFFFFFFFFFFFFFFFFFFFF AND PUSH2 0x1A7F PUSH2 0x213F JUMP JUMPDEST PUSH20 0xFFFFFFFFFFFFFFFFFFFFFFFFFFFFFFFFFFFFFFFF AND EQ PUSH2 0x1B08 JUMPI PUSH1 0x40 MLOAD PUSH32 0x8C379A000000000000000000000000000000000000000000000000000000000 DUP2 MSTORE PUSH1 0x4 ADD DUP1 DUP1 PUSH1 0x20 ADD DUP3 DUP2 SUB DUP3 MSTORE PUSH1 0x20 DUP2 MSTORE PUSH1 0x20 ADD DUP1 PUSH32 0x4F776E61626C653A2063616C6C6572206973206E6F7420746865206F776E6572 DUP2 MSTORE POP PUSH1 0x20 ADD SWAP2 POP POP PUSH1 0x40 MLOAD DUP1 SWAP2 SUB SWAP1 REVERT JUMPDEST PUSH1 0x0 PUSH20 0xFFFFFFFFFFFFFFFFFFFFFFFFFFFFFFFFFFFFFFFF AND PUSH1 0x5 PUSH1 0x1 SWAP1 SLOAD SWAP1 PUSH2 0x100 EXP SWAP1 DIV PUSH20 0xFFFFFFFFFFFFFFFFFFFFFFFFFFFFFFFFFFFFFFFF AND PUSH20 0xFFFFFFFFFFFFFFFFFFFFFFFFFFFFFFFFFFFFFFFF AND PUSH32 0x8BE0079C531659141344CD1FD0A4F28419497F9722A3DAAFE3B4186F6B6457E0 PUSH1 0x40 MLOAD PUSH1 0x40 MLOAD DUP1 SWAP2 SUB SWAP1 LOG3 PUSH1 0x0 PUSH1 0x5 PUSH1 0x1 PUSH2 0x100 EXP DUP2 SLOAD DUP2 PUSH20 0xFFFFFFFFFFFFFFFFFFFFFFFFFFFFFFFFFFFFFFFF MUL NOT AND SWAP1 DUP4 PUSH20 0xFFFFFFFFFFFFFFFFFFFFFFFFFFFFFFFFFFFFFFFF AND MUL OR SWAP1 SSTORE POP JUMP JUMPDEST PUSH2 0x1BD1 PUSH2 0x3818 JUMP JUMPDEST PUSH20 0xFFFFFFFFFFFFFFFFFFFFFFFFFFFFFFFFFFFFFFFF AND PUSH2 0x1BEF PUSH2 0x213F JUMP JUMPDEST PUSH20 0xFFFFFFFFFFFFFFFFFFFFFFFFFFFFFFFFFFFFFFFF AND EQ PUSH2 0x1C78 JUMPI PUSH1 0x40 MLOAD PUSH32 0x8C379A000000000000000000000000000000000000000000000000000000000 DUP2 MSTORE PUSH1 0x4 ADD DUP1 DUP1 PUSH1 0x20 ADD DUP3 DUP2 SUB DUP3 MSTORE PUSH1 0x20 DUP2 MSTORE PUSH1 0x20 ADD DUP1 PUSH32 0x4F776E61626C653A2063616C6C6572206973206E6F7420746865206F776E6572 DUP2 MSTORE POP PUSH1 0x20 ADD SWAP2 POP POP PUSH1 0x40 MLOAD DUP1 SWAP2 SUB SWAP1 REVERT JUMPDEST PUSH2 0x3E8 DUP2 GT ISZERO PUSH2 0x1CF0 JUMPI PUSH1 0x40 MLOAD PUSH32 0x8C379A000000000000000000000000000000000000000000000000000000000 DUP2 MSTORE PUSH1 0x4 ADD DUP1 DUP1 PUSH1 0x20 ADD DUP3 DUP2 SUB DUP3 MSTORE PUSH1 0xD DUP2 MSTORE PUSH1 0x20 ADD DUP1 PUSH32 0x496E76616C69642076616C756500000000000000000000000000000000000000 DUP2 MSTORE POP PUSH1 0x20 ADD SWAP2 POP POP PUSH1 0x40 MLOAD DUP1 SWAP2 SUB SWAP1 REVERT JUMPDEST DUP1 PUSH1 0xC DUP2 SWAP1 SSTORE POP POP JUMP JUMPDEST PUSH2 0x1D02 PUSH2 0x405C JUMP JUMPDEST PUSH2 0x1D57 DUP4 PUSH1 0x13 PUSH1 0x0 DUP8 PUSH20 0xFFFFFFFFFFFFFFFFFFFFFFFFFFFFFFFFFFFFFFFF AND PUSH20 0xFFFFFFFFFFFFFFFFFFFFFFFFFFFFFFFFFFFFFFFF AND DUP2 MSTORE PUSH1 0x20 ADD SWAP1 DUP2 MSTORE PUSH1 0x20 ADD PUSH1 0x0 KECCAK256 PUSH1 0x0 ADD SLOAD PUSH2 0x3D92 SWAP1 SWAP2 SWAP1 PUSH4 0xFFFFFFFF AND JUMP JUMPDEST PUSH1 0x13 PUSH1 0x0 DUP7 PUSH20 0xFFFFFFFFFFFFFFFFFFFFFFFFFFFFFFFFFFFFFFFF AND PUSH20 0xFFFFFFFFFFFFFFFFFFFFFFFFFFFFFFFFFFFFFFFF AND DUP2 MSTORE PUSH1 0x20 ADD SWAP1 DUP2 MSTORE PUSH1 0x20 ADD PUSH1 0x0 KECCAK256 PUSH1 0x0 ADD DUP2 SWAP1 SSTORE POP PUSH2 0x1DF2 DUP3 PUSH1 0x13 PUSH1 0x0 DUP8 PUSH20 0xFFFFFFFFFFFFFFFFFFFFFFFFFFFFFFFFFFFFFFFF AND PUSH20 0xFFFFFFFFFFFFFFFFFFFFFFFFFFFFFFFFFFFFFFFF AND DUP2 MSTORE PUSH1 0x20 ADD SWAP1 DUP2 MSTORE PUSH1 0x20 ADD PUSH1 0x0 KECCAK256 PUSH1 0x1 ADD SLOAD PUSH2 0x3E7E SWAP1 SWAP2 SWAP1 PUSH4 0xFFFFFFFF AND JUMP JUMPDEST PUSH1 0x13 PUSH1 0x0 DUP7 PUSH20 0xFFFFFFFFFFFFFFFFFFFFFFFFFFFFFFFFFFFFFFFF AND PUSH20 0xFFFFFFFFFFFFFFFFFFFFFFFFFFFFFFFFFFFFFFFF AND DUP2 MSTORE PUSH1 0x20 ADD SWAP1 DUP2 MSTORE PUSH1 0x20 ADD PUSH1 0x0 KECCAK256 PUSH1 0x1 ADD DUP2 SWAP1 SSTORE POP PUSH2 0x1E4D DUP2 PUSH1 0xE SLOAD PUSH2 0x3D92 SWAP1 SWAP2 SWAP1 PUSH4 0xFFFFFFFF AND JUMP JUMPDEST PUSH1 0xE DUP2 SWAP1 SSTORE POP POP POP POP POP JUMP JUMPDEST PUSH1 0xC SLOAD DUP2 JUMP JUMPDEST PUSH1 0x0 PUSH1 0x13 PUSH1 0x0 DUP4 PUSH20 0xFFFFFFFFFFFFFFFFFFFFFFFFFFFFFFFFFFFFFFFF AND PUSH20 0xFFFFFFFFFFFFFFFFFFFFFFFFFFFFFFFFFFFFFFFF AND DUP2 MSTORE PUSH1 0x20 ADD SWAP1 DUP2 MSTORE PUSH1 0x20 ADD PUSH1 0x0 KECCAK256 PUSH1 0x0 ADD SLOAD SWAP1 POP SWAP2 SWAP1 POP JUMP JUMPDEST PUSH32 0x0 DUP2 JUMP JUMPDEST PUSH1 0x7 SLOAD DUP2 JUMP JUMPDEST PUSH2 0x3E8 DUP2 JUMP JUMPDEST PUSH1 0x8 SLOAD DUP2 JUMP JUMPDEST PUSH2 0x1EE9 PUSH2 0x405C JUMP JUMPDEST PUSH2 0x1EFE DUP2 PUSH1 0xE SLOAD PUSH2 0x3E7E SWAP1 SWAP2 SWAP1 PUSH4 0xFFFFFFFF AND JUMP JUMPDEST PUSH1 0xE DUP2 SWAP1 SSTORE POP TIMESTAMP PUSH1 0x13 PUSH1 0x0 DUP5 PUSH20 0xFFFFFFFFFFFFFFFFFFFFFFFFFFFFFFFFFFFFFFFF AND PUSH20 0xFFFFFFFFFFFFFFFFFFFFFFFFFFFFFFFFFFFFFFFF AND DUP2 MSTORE PUSH1 0x20 ADD SWAP1 DUP2 MSTORE PUSH1 0x20 ADD PUSH1 0x0 KECCAK256 PUSH1 0x2 ADD DUP2 SWAP1 SSTORE POP PUSH1 0x0 PUSH1 0x13 PUSH1 0x0 DUP5 PUSH20 0xFFFFFFFFFFFFFFFFFFFFFFFFFFFFFFFFFFFFFFFF AND PUSH20 0xFFFFFFFFFFFFFFFFFFFFFFFFFFFFFFFFFFFFFFFF AND DUP2 MSTORE PUSH1 0x20 ADD SWAP1 DUP2 MSTORE PUSH1 0x20 ADD PUSH1 0x0 KECCAK256 PUSH1 0x0 ADD SLOAD GT ISZERO PUSH2 0x20BC JUMPI PUSH2 0x202D PUSH1 0x13 PUSH1 0x0 DUP5 PUSH20 0xFFFFFFFFFFFFFFFFFFFFFFFFFFFFFFFFFFFFFFFF AND PUSH20 0xFFFFFFFFFFFFFFFFFFFFFFFFFFFFFFFFFFFFFFFF AND DUP2 MSTORE PUSH1 0x20 ADD SWAP1 DUP2 MSTORE PUSH1 0x20 ADD PUSH1 0x0 KECCAK256 PUSH1 0x0 ADD SLOAD PUSH1 0x13 PUSH1 0x0 DUP6 PUSH20 0xFFFFFFFFFFFFFFFFFFFFFFFFFFFFFFFFFFFFFFFF AND PUSH20 0xFFFFFFFFFFFFFFFFFFFFFFFFFFFFFFFFFFFFFFFF AND DUP2 MSTORE PUSH1 0x20 ADD SWAP1 DUP2 MSTORE PUSH1 0x20 ADD PUSH1 0x0 KECCAK256 PUSH1 0x1 ADD SLOAD PUSH2 0x3D92 SWAP1 SWAP2 SWAP1 PUSH4 0xFFFFFFFF AND JUMP JUMPDEST PUSH1 0x13 PUSH1 0x0 DUP5 PUSH20 0xFFFFFFFFFFFFFFFFFFFFFFFFFFFFFFFFFFFFFFFF AND PUSH20 0xFFFFFFFFFFFFFFFFFFFFFFFFFFFFFFFFFFFFFFFF AND DUP2 MSTORE PUSH1 0x20 ADD SWAP1 DUP2 MSTORE PUSH1 0x20 ADD PUSH1 0x0 KECCAK256 PUSH1 0x1 ADD DUP2 SWAP1 SSTORE POP PUSH1 0x0 PUSH1 0x13 PUSH1 0x0 DUP5 PUSH20 0xFFFFFFFFFFFFFFFFFFFFFFFFFFFFFFFFFFFFFFFF AND PUSH20 0xFFFFFFFFFFFFFFFFFFFFFFFFFFFFFFFFFFFFFFFF AND DUP2 MSTORE PUSH1 0x20 ADD SWAP1 DUP2 MSTORE PUSH1 0x20 ADD PUSH1 0x0 KECCAK256 PUSH1 0x0 ADD DUP2 SWAP1 SSTORE POP JUMPDEST POP POP JUMP JUMPDEST PUSH32 0x0 DUP2 JUMP JUMPDEST PUSH32 0x0 DUP2 JUMP JUMPDEST PUSH1 0x11 PUSH1 0x1 SWAP1 SLOAD SWAP1 PUSH2 0x100 EXP SWAP1 DIV PUSH1 0xFF AND DUP2 JUMP JUMPDEST PUSH32 0x0 DUP2 JUMP JUMPDEST PUSH1 0x0 PUSH1 0x5 PUSH1 0x1 SWAP1 SLOAD SWAP1 PUSH2 0x100 EXP SWAP1 DIV PUSH20 0xFFFFFFFFFFFFFFFFFFFFFFFFFFFFFFFFFFFFFFFF AND SWAP1 POP SWAP1 JUMP JUMPDEST PUSH1 0x0 DUP1 PUSH2 0x2183 PUSH1 0x8 SLOAD PUSH1 0x7 SLOAD PUSH2 0x3D92 SWAP1 SWAP2 SWAP1 PUSH4 0xFFFFFFFF AND JUMP JUMPDEST SWAP1 POP PUSH1 0xD SLOAD SWAP2 POP PUSH1 0x9 SLOAD DUP4 GT DUP1 ISZERO PUSH2 0x219C JUMPI POP DUP1 PUSH1 0x9 SLOAD LT JUMPDEST DUP1 ISZERO PUSH2 0x21AA JUMPI POP PUSH1 0x0 PUSH1 0xE SLOAD GT JUMPDEST ISZERO PUSH2 0x223B JUMPI DUP1 DUP4 GT ISZERO PUSH2 0x21BB JUMPI DUP1 SWAP3 POP JUMPDEST PUSH2 0x2238 PUSH2 0x2229 PUSH2 0x21D8 PUSH1 0xE SLOAD PUSH1 0x8 SLOAD PUSH2 0x3F01 SWAP1 SWAP2 SWAP1 PUSH4 0xFFFFFFFF AND JUMP JUMPDEST PUSH2 0x221B PUSH8 0xDE0B6B3A7640000 PUSH2 0x220D PUSH1 0xA SLOAD PUSH2 0x21FF PUSH1 0x9 SLOAD DUP12 PUSH2 0x3E7E SWAP1 SWAP2 SWAP1 PUSH4 0xFFFFFFFF AND JUMP JUMPDEST PUSH2 0x3F01 SWAP1 SWAP2 SWAP1 PUSH4 0xFFFFFFFF AND JUMP JUMPDEST PUSH2 0x3F01 SWAP1 SWAP2 SWAP1 PUSH4 0xFFFFFFFF AND JUMP JUMPDEST PUSH2 0x3F87 SWAP1 SWAP2 SWAP1 PUSH4 0xFFFFFFFF AND JUMP JUMPDEST DUP4 PUSH2 0x3D92 SWAP1 SWAP2 SWAP1 PUSH4 0xFFFFFFFF AND JUMP JUMPDEST SWAP2 POP JUMPDEST POP SWAP2 SWAP1 POP JUMP JUMPDEST PUSH1 0xB SLOAD DUP2 JUMP JUMPDEST PUSH1 0x12 PUSH1 0x20 MSTORE DUP1 PUSH1 0x0 MSTORE PUSH1 0x40 PUSH1 0x0 KECCAK256 PUSH1 0x0 SWAP2 POP SWAP1 POP SLOAD DUP2 JUMP JUMPDEST PUSH1 0x60 PUSH1 0x4 DUP1 SLOAD PUSH1 0x1 DUP2 PUSH1 0x1 AND ISZERO PUSH2 0x100 MUL SUB AND PUSH1 0x2 SWAP1 DIV DUP1 PUSH1 0x1F ADD PUSH1 0x20 DUP1 SWAP2 DIV MUL PUSH1 0x20 ADD PUSH1 0x40 MLOAD SWAP1 DUP2 ADD PUSH1 0x40 MSTORE DUP1 SWAP3 SWAP2 SWAP1 DUP2 DUP2 MSTORE PUSH1 0x20 ADD DUP3 DUP1 SLOAD PUSH1 0x1 DUP2 PUSH1 0x1 AND ISZERO PUSH2 0x100 MUL SUB AND PUSH1 0x2 SWAP1 DIV DUP1 ISZERO PUSH2 0x22F7 JUMPI DUP1 PUSH1 0x1F LT PUSH2 0x22CC JUMPI PUSH2 0x100 DUP1 DUP4 SLOAD DIV MUL DUP4 MSTORE SWAP2 PUSH1 0x20 ADD SWAP2 PUSH2 0x22F7 JUMP JUMPDEST DUP3 ADD SWAP2 SWAP1 PUSH1 0x0 MSTORE PUSH1 0x20 PUSH1 0x0 KECCAK256 SWAP1 JUMPDEST DUP2 SLOAD DUP2 MSTORE SWAP1 PUSH1 0x1 ADD SWAP1 PUSH1 0x20 ADD DUP1 DUP4 GT PUSH2 0x22DA JUMPI DUP3 SWAP1 SUB PUSH1 0x1F AND DUP3 ADD SWAP2 JUMPDEST POP POP POP POP POP SWAP1 POP SWAP1 JUMP JUMPDEST PUSH1 0x11 PUSH1 0x2 SWAP1 SLOAD SWAP1 PUSH2 0x100 EXP SWAP1 DIV PUSH1 0xFF AND DUP2 JUMP JUMPDEST PUSH2 0x231C PUSH2 0x3818 JUMP JUMPDEST PUSH20 0xFFFFFFFFFFFFFFFFFFFFFFFFFFFFFFFFFFFFFFFF AND PUSH2 0x233A PUSH2 0x213F JUMP JUMPDEST PUSH20 0xFFFFFFFFFFFFFFFFFFFFFFFFFFFFFFFFFFFFFFFF AND EQ PUSH2 0x23C3 JUMPI PUSH1 0x40 MLOAD PUSH32 0x8C379A000000000000000000000000000000000000000000000000000000000 DUP2 MSTORE PUSH1 0x4 ADD DUP1 DUP1 PUSH1 0x20 ADD DUP3 DUP2 SUB DUP3 MSTORE PUSH1 0x20 DUP2 MSTORE PUSH1 0x20 ADD DUP1 PUSH32 0x4F776E61626C653A2063616C6C6572206973206E6F7420746865206F776E6572 DUP2 MSTORE POP PUSH1 0x20 ADD SWAP2 POP POP PUSH1 0x40 MLOAD DUP1 SWAP2 SUB SWAP1 REVERT JUMPDEST PUSH1 0x1 PUSH1 0x11 PUSH1 0x2 PUSH2 0x100 EXP DUP2 SLOAD DUP2 PUSH1 0xFF MUL NOT AND SWAP1 DUP4 ISZERO ISZERO MUL OR SWAP1 SSTORE POP JUMP JUMPDEST PUSH1 0x0 PUSH1 0x13 PUSH1 0x0 DUP4 PUSH20 0xFFFFFFFFFFFFFFFFFFFFFFFFFFFFFFFFFFFFFFFF AND PUSH20 0xFFFFFFFFFFFFFFFFFFFFFFFFFFFFFFFFFFFFFFFF AND DUP2 MSTORE PUSH1 0x20 ADD SWAP1 DUP2 MSTORE PUSH1 0x20 ADD PUSH1 0x0 KECCAK256 PUSH1 0x1 ADD SLOAD SWAP1 POP SWAP2 SWAP1 POP JUMP JUMPDEST PUSH2 0x2434 PUSH2 0x3818 JUMP JUMPDEST PUSH20 0xFFFFFFFFFFFFFFFFFFFFFFFFFFFFFFFFFFFFFFFF AND PUSH2 0x2452 PUSH2 0x213F JUMP JUMPDEST PUSH20 0xFFFFFFFFFFFFFFFFFFFFFFFFFFFFFFFFFFFFFFFF AND EQ PUSH2 0x24DB JUMPI PUSH1 0x40 MLOAD PUSH32 0x8C379A000000000000000000000000000000000000000000000000000000000 DUP2 MSTORE PUSH1 0x4 ADD DUP1 DUP1 PUSH1 0x20 ADD DUP3 DUP2 SUB DUP3 MSTORE PUSH1 0x20 DUP2 MSTORE PUSH1 0x20 ADD DUP1 PUSH32 0x4F776E61626C653A2063616C6C6572206973206E6F7420746865206F776E6572 DUP2 MSTORE POP PUSH1 0x20 ADD SWAP2 POP POP PUSH1 0x40 MLOAD DUP1 SWAP2 SUB SWAP1 REVERT JUMPDEST PUSH1 0x0 TIMESTAMP SWAP1 POP DUP1 DUP5 GT DUP1 ISZERO PUSH2 0x24EF JUMPI POP PUSH1 0x0 DUP4 GT JUMPDEST PUSH2 0x2544 JUMPI PUSH1 0x40 MLOAD PUSH32 0x8C379A000000000000000000000000000000000000000000000000000000000 DUP2 MSTORE PUSH1 0x4 ADD DUP1 DUP1 PUSH1 0x20 ADD DUP3 DUP2 SUB DUP3 MSTORE PUSH1 0x54 DUP2 MSTORE PUSH1 0x20 ADD DUP1 PUSH2 0x4867 PUSH1 0x54 SWAP2 CODECOPY PUSH1 0x60 ADD SWAP2 POP POP PUSH1 0x40 MLOAD DUP1 SWAP2 SUB SWAP1 REVERT JUMPDEST PUSH1 0x0 PUSH1 0x7 SLOAD GT ISZERO PUSH2 0x25BE JUMPI PUSH2 0x2566 PUSH1 0x8 SLOAD PUSH1 0x7 SLOAD PUSH2 0x3D92 SWAP1 SWAP2 SWAP1 PUSH4 0xFFFFFFFF AND JUMP JUMPDEST DUP2 GT PUSH2 0x25BD JUMPI PUSH1 0x40 MLOAD PUSH32 0x8C379A000000000000000000000000000000000000000000000000000000000 DUP2 MSTORE PUSH1 0x4 ADD DUP1 DUP1 PUSH1 0x20 ADD DUP3 DUP2 SUB DUP3 MSTORE PUSH1 0x28 DUP2 MSTORE PUSH1 0x20 ADD DUP1 PUSH2 0x47A8 PUSH1 0x28 SWAP2 CODECOPY PUSH1 0x40 ADD SWAP2 POP POP PUSH1 0x40 MLOAD DUP1 SWAP2 SUB SWAP1 REVERT JUMPDEST JUMPDEST PUSH32 0x0 DUP3 GT ISZERO PUSH2 0x2637 JUMPI PUSH1 0x40 MLOAD PUSH32 0x8C379A000000000000000000000000000000000000000000000000000000000 DUP2 MSTORE PUSH1 0x4 ADD DUP1 DUP1 PUSH1 0x20 ADD DUP3 DUP2 SUB DUP3 MSTORE PUSH1 0x21 DUP2 MSTORE PUSH1 0x20 ADD DUP1 PUSH2 0x475F PUSH1 0x21 SWAP2 CODECOPY PUSH1 0x40 ADD SWAP2 POP POP PUSH1 0x40 MLOAD DUP1 SWAP2 SUB SWAP1 REVERT JUMPDEST PUSH1 0x0 PUSH1 0xE SLOAD GT ISZERO PUSH2 0x2728 JUMPI PUSH32 0x0 PUSH2 0x26B3 PUSH1 0xE SLOAD PUSH2 0x26A5 DUP7 PUSH2 0x2697 PUSH4 0x1E13380 PUSH2 0x2689 PUSH1 0x64 DUP11 PUSH2 0x3F01 SWAP1 SWAP2 SWAP1 PUSH4 0xFFFFFFFF AND JUMP JUMPDEST PUSH2 0x3F01 SWAP1 SWAP2 SWAP1 PUSH4 0xFFFFFFFF AND JUMP JUMPDEST PUSH2 0x3F87 SWAP1 SWAP2 SWAP1 PUSH4 0xFFFFFFFF AND JUMP JUMPDEST PUSH2 0x3F87 SWAP1 SWAP2 SWAP1 PUSH4 0xFFFFFFFF AND JUMP JUMPDEST GT ISZERO PUSH2 0x2727 JUMPI PUSH1 0x40 MLOAD PUSH32 0x8C379A000000000000000000000000000000000000000000000000000000000 DUP2 MSTORE PUSH1 0x4 ADD DUP1 DUP1 PUSH1 0x20 ADD DUP3 DUP2 SUB DUP3 MSTORE PUSH1 0x18 DUP2 MSTORE PUSH1 0x20 ADD DUP1 PUSH32 0x4D617820616C6C6F776564204150522065786365656465640000000000000000 DUP2 MSTORE POP PUSH1 0x20 ADD SWAP2 POP POP PUSH1 0x40 MLOAD DUP1 SWAP2 SUB SWAP1 REVERT JUMPDEST JUMPDEST PUSH2 0x2731 DUP2 PUSH2 0x42C8 JUMP JUMPDEST DUP4 PUSH1 0x7 DUP2 SWAP1 SSTORE POP DUP4 PUSH1 0x9 DUP2 SWAP1 SSTORE POP DUP3 PUSH1 0x8 DUP2 SWAP1 SSTORE POP DUP2 PUSH1 0xA DUP2 SWAP1 SSTORE POP PUSH2 0x2762 DUP3 PUSH1 0xB SLOAD PUSH2 0x3D92 SWAP1 SWAP2 SWAP1 PUSH4 0xFFFFFFFF AND JUMP JUMPDEST PUSH1 0xB DUP2 SWAP1 SSTORE POP PUSH2 0x277D DUP3 PUSH1 0xF SLOAD PUSH2 0x3D92 SWAP1 SWAP2 SWAP1 PUSH4 0xFFFFFFFF AND JUMP JUMPDEST PUSH1 0xF DUP2 SWAP1 SSTORE POP PUSH2 0x278D ADDRESS DUP4 PUSH2 0x42F2 JUMP JUMPDEST POP POP POP POP JUMP JUMPDEST PUSH1 0x0 PUSH2 0x2856 PUSH2 0x27A0 PUSH2 0x3818 JUMP JUMPDEST DUP5 PUSH2 0x2851 DUP6 PUSH1 0x40 MLOAD DUP1 PUSH1 0x60 ADD PUSH1 0x40 MSTORE DUP1 PUSH1 0x25 DUP2 MSTORE PUSH1 0x20 ADD PUSH2 0x48E1 PUSH1 0x25 SWAP2 CODECOPY PUSH1 0x1 PUSH1 0x0 PUSH2 0x27CA PUSH2 0x3818 JUMP JUMPDEST PUSH20 0xFFFFFFFFFFFFFFFFFFFFFFFFFFFFFFFFFFFFFFFF AND PUSH20 0xFFFFFFFFFFFFFFFFFFFFFFFFFFFFFFFFFFFFFFFF AND DUP2 MSTORE PUSH1 0x20 ADD SWAP1 DUP2 MSTORE PUSH1 0x20 ADD PUSH1 0x0 KECCAK256 PUSH1 0x0 DUP11 PUSH20 0xFFFFFFFFFFFFFFFFFFFFFFFFFFFFFFFFFFFFFFFF AND PUSH20 0xFFFFFFFFFFFFFFFFFFFFFFFFFFFFFFFFFFFFFFFF AND DUP2 MSTORE PUSH1 0x20 ADD SWAP1 DUP2 MSTORE PUSH1 0x20 ADD PUSH1 0x0 KECCAK256 SLOAD PUSH2 0x3CD8 SWAP1 SWAP3 SWAP2 SWAP1 PUSH4 0xFFFFFFFF AND JUMP JUMPDEST PUSH2 0x3820 JUMP JUMPDEST PUSH1 0x1 SWAP1 POP SWAP3 SWAP2 POP POP JUMP JUMPDEST PUSH2 0x2868 PUSH2 0x3818 JUMP JUMPDEST PUSH20 0xFFFFFFFFFFFFFFFFFFFFFFFFFFFFFFFFFFFFFFFF AND PUSH2 0x2886 PUSH2 0x213F JUMP JUMPDEST PUSH20 0xFFFFFFFFFFFFFFFFFFFFFFFFFFFFFFFFFFFFFFFF AND EQ PUSH2 0x290F JUMPI PUSH1 0x40 MLOAD PUSH32 0x8C379A000000000000000000000000000000000000000000000000000000000 DUP2 MSTORE PUSH1 0x4 ADD DUP1 DUP1 PUSH1 0x20 ADD DUP3 DUP2 SUB DUP3 MSTORE PUSH1 0x20 DUP2 MSTORE PUSH1 0x20 ADD DUP1 PUSH32 0x4F776E61626C653A2063616C6C6572206973206E6F7420746865206F776E6572 DUP2 MSTORE POP PUSH1 0x20 ADD SWAP2 POP POP PUSH1 0x40 MLOAD DUP1 SWAP2 SUB SWAP1 REVERT JUMPDEST PUSH1 0x11 PUSH1 0x0 SWAP1 SLOAD SWAP1 PUSH2 0x100 EXP SWAP1 DIV PUSH1 0xFF AND ISZERO PUSH1 0x11 PUSH1 0x0 PUSH2 0x100 EXP DUP2 SLOAD DUP2 PUSH1 0xFF MUL NOT AND SWAP1 DUP4 ISZERO ISZERO MUL OR SWAP1 SSTORE POP JUMP JUMPDEST PUSH1 0x0 PUSH2 0x294F PUSH2 0x2948 PUSH2 0x3818 JUMP JUMPDEST DUP5 DUP5 PUSH2 0x3A17 JUMP JUMPDEST PUSH1 0x1 SWAP1 POP SWAP3 SWAP2 POP POP JUMP JUMPDEST PUSH1 0x10 SLOAD DUP2 JUMP JUMPDEST PUSH2 0x2967 PUSH2 0x3818 JUMP JUMPDEST PUSH20 0xFFFFFFFFFFFFFFFFFFFFFFFFFFFFFFFFFFFFFFFF AND PUSH2 0x2985 PUSH2 0x213F JUMP JUMPDEST PUSH20 0xFFFFFFFFFFFFFFFFFFFFFFFFFFFFFFFFFFFFFFFF AND EQ PUSH2 0x2A0E JUMPI PUSH1 0x40 MLOAD PUSH32 0x8C379A000000000000000000000000000000000000000000000000000000000 DUP2 MSTORE PUSH1 0x4 ADD DUP1 DUP1 PUSH1 0x20 ADD DUP3 DUP2 SUB DUP3 MSTORE PUSH1 0x20 DUP2 MSTORE PUSH1 0x20 ADD DUP1 PUSH32 0x4F776E61626C653A2063616C6C6572206973206E6F7420746865206F776E6572 DUP2 MSTORE POP PUSH1 0x20 ADD SWAP2 POP POP PUSH1 0x40 MLOAD DUP1 SWAP2 SUB SWAP1 REVERT JUMPDEST PUSH32 0x0 DUP2 GT ISZERO PUSH2 0x2AA4 JUMPI PUSH1 0x40 MLOAD PUSH32 0x8C379A000000000000000000000000000000000000000000000000000000000 DUP2 MSTORE PUSH1 0x4 ADD DUP1 DUP1 PUSH1 0x20 ADD DUP3 DUP2 SUB DUP3 MSTORE PUSH1 0xD DUP2 MSTORE PUSH1 0x20 ADD DUP1 PUSH32 0x496E76616C69642076616C756500000000000000000000000000000000000000 DUP2 MSTORE POP PUSH1 0x20 ADD SWAP2 POP POP PUSH1 0x40 MLOAD DUP1 SWAP2 SUB SWAP1 REVERT JUMPDEST DUP1 PUSH1 0x10 DUP2 SWAP1 SSTORE POP POP JUMP JUMPDEST PUSH1 0xE SLOAD DUP2 JUMP JUMPDEST PUSH2 0x2ABC PUSH2 0x12DB JUMP JUMPDEST PUSH2 0x2AC5 CALLER PUSH2 0x1A11 JUMP JUMPDEST DUP2 GT ISZERO PUSH2 0x2B3A JUMPI PUSH1 0x40 MLOAD PUSH32 0x8C379A000000000000000000000000000000000000000000000000000000000 DUP2 MSTORE PUSH1 0x4 ADD DUP1 DUP1 PUSH1 0x20 ADD DUP3 DUP2 SUB DUP3 MSTORE PUSH1 0x1F DUP2 MSTORE PUSH1 0x20 ADD DUP1 PUSH32 0x56616C7565206578636565647320617661696C61626C652062616C616E636500 DUP2 MSTORE POP PUSH1 0x20 ADD SWAP2 POP POP PUSH1 0x40 MLOAD DUP1 SWAP2 SUB SWAP1 REVERT JUMPDEST PUSH1 0x0 PUSH2 0x2B45 CALLER PUSH2 0x3E1A JUMP JUMPDEST SWAP1 POP PUSH1 0x0 PUSH2 0x2B5C DUP3 DUP5 PUSH2 0x3D92 SWAP1 SWAP2 SWAP1 PUSH4 0xFFFFFFFF AND JUMP JUMPDEST SWAP1 POP PUSH2 0x2BB3 DUP2 PUSH1 0x13 PUSH1 0x0 CALLER PUSH20 0xFFFFFFFFFFFFFFFFFFFFFFFFFFFFFFFFFFFFFFFF AND PUSH20 0xFFFFFFFFFFFFFFFFFFFFFFFFFFFFFFFFFFFFFFFF AND DUP2 MSTORE PUSH1 0x20 ADD SWAP1 DUP2 MSTORE PUSH1 0x20 ADD PUSH1 0x0 KECCAK256 PUSH1 0x0 ADD SLOAD PUSH2 0x3D92 SWAP1 SWAP2 SWAP1 PUSH4 0xFFFFFFFF AND JUMP JUMPDEST PUSH1 0x13 PUSH1 0x0 CALLER PUSH20 0xFFFFFFFFFFFFFFFFFFFFFFFFFFFFFFFFFFFFFFFF AND PUSH20 0xFFFFFFFFFFFFFFFFFFFFFFFFFFFFFFFFFFFFFFFF AND DUP2 MSTORE PUSH1 0x20 ADD SWAP1 DUP2 MSTORE PUSH1 0x20 ADD PUSH1 0x0 KECCAK256 PUSH1 0x0 ADD DUP2 SWAP1 SSTORE POP PUSH2 0x2C0E DUP2 PUSH1 0xE SLOAD PUSH2 0x3D92 SWAP1 SWAP2 SWAP1 PUSH4 0xFFFFFFFF AND JUMP JUMPDEST PUSH1 0xE DUP2 SWAP1 SSTORE POP PUSH2 0x2C1F CALLER ADDRESS DUP6 PUSH2 0x3A17 JUMP JUMPDEST PUSH32 0x6F5036100EC84840F4CA7C243E6CA7C042949756211BDFB358406A77DC41A42E CALLER DUP5 DUP5 PUSH1 0x40 MLOAD DUP1 DUP5 PUSH20 0xFFFFFFFFFFFFFFFFFFFFFFFFFFFFFFFFFFFFFFFF AND DUP2 MSTORE PUSH1 0x20 ADD DUP4 DUP2 MSTORE PUSH1 0x20 ADD DUP3 DUP2 MSTORE PUSH1 0x20 ADD SWAP4 POP POP POP POP PUSH1 0x40 MLOAD DUP1 SWAP2 SUB SWAP1 LOG1 POP POP POP JUMP JUMPDEST PUSH2 0x2C89 PUSH2 0x405C JUMP JUMPDEST PUSH2 0x2C93 ADDRESS DUP3 PUSH2 0x42F2 JUMP JUMPDEST POP JUMP JUMPDEST PUSH2 0x2C9E PUSH2 0x3818 JUMP JUMPDEST PUSH20 0xFFFFFFFFFFFFFFFFFFFFFFFFFFFFFFFFFFFFFFFF AND PUSH2 0x2CBC PUSH2 0x213F JUMP JUMPDEST PUSH20 0xFFFFFFFFFFFFFFFFFFFFFFFFFFFFFFFFFFFFFFFF AND EQ PUSH2 0x2D45 JUMPI PUSH1 0x40 MLOAD PUSH32 0x8C379A000000000000000000000000000000000000000000000000000000000 DUP2 MSTORE PUSH1 0x4 ADD DUP1 DUP1 PUSH1 0x20 ADD DUP3 DUP2 SUB DUP3 MSTORE PUSH1 0x20 DUP2 MSTORE PUSH1 0x20 ADD DUP1 PUSH32 0x4F776E61626C653A2063616C6C6572206973206E6F7420746865206F776E6572 DUP2 MSTORE POP PUSH1 0x20 ADD SWAP2 POP POP PUSH1 0x40 MLOAD DUP1 SWAP2 SUB SWAP1 REVERT JUMPDEST PUSH1 0x0 PUSH20 0xFFFFFFFFFFFFFFFFFFFFFFFFFFFFFFFFFFFFFFFF AND DUP2 PUSH20 0xFFFFFFFFFFFFFFFFFFFFFFFFFFFFFFFFFFFFFFFF AND EQ ISZERO PUSH2 0x2DE8 JUMPI PUSH1 0x40 MLOAD PUSH32 0x8C379A000000000000000000000000000000000000000000000000000000000 DUP2 MSTORE PUSH1 0x4 ADD DUP1 DUP1 PUSH1 0x20 ADD DUP3 DUP2 SUB DUP3 MSTORE PUSH1 0x13 DUP2 MSTORE PUSH1 0x20 ADD DUP1 PUSH32 0x53657420612076616C6964206164647265737300000000000000000000000000 DUP2 MSTORE POP PUSH1 0x20 ADD SWAP2 POP POP PUSH1 0x40 MLOAD DUP1 SWAP2 SUB SWAP1 REVERT JUMPDEST PUSH1 0x0 ISZERO ISZERO PUSH1 0x11 PUSH1 0x1 SWAP1 SLOAD SWAP1 PUSH2 0x100 EXP SWAP1 DIV PUSH1 0xFF AND ISZERO ISZERO EQ PUSH2 0x2E71 JUMPI PUSH1 0x40 MLOAD PUSH32 0x8C379A000000000000000000000000000000000000000000000000000000000 DUP2 MSTORE PUSH1 0x4 ADD DUP1 DUP1 PUSH1 0x20 ADD DUP3 DUP2 SUB DUP3 MSTORE PUSH1 0x1F DUP2 MSTORE PUSH1 0x20 ADD DUP1 PUSH32 0x696E7465726661636550726F6A656374546F6B656E206973206C6F636B656400 DUP2 MSTORE POP PUSH1 0x20 ADD SWAP2 POP POP PUSH1 0x40 MLOAD DUP1 SWAP2 SUB SWAP1 REVERT JUMPDEST DUP1 PUSH1 0x6 PUSH1 0x0 PUSH2 0x100 EXP DUP2 SLOAD DUP2 PUSH20 0xFFFFFFFFFFFFFFFFFFFFFFFFFFFFFFFFFFFFFFFF MUL NOT AND SWAP1 DUP4 PUSH20 0xFFFFFFFFFFFFFFFFFFFFFFFFFFFFFFFFFFFFFFFF AND MUL OR SWAP1 SSTORE POP POP JUMP JUMPDEST PUSH1 0x0 PUSH1 0x1 PUSH1 0x0 DUP5 PUSH20 0xFFFFFFFFFFFFFFFFFFFFFFFFFFFFFFFFFFFFFFFF AND PUSH20 0xFFFFFFFFFFFFFFFFFFFFFFFFFFFFFFFFFFFFFFFF AND DUP2 MSTORE PUSH1 0x20 ADD SWAP1 DUP2 MSTORE PUSH1 0x20 ADD PUSH1 0x0 KECCAK256 PUSH1 0x0 DUP4 PUSH20 0xFFFFFFFFFFFFFFFFFFFFFFFFFFFFFFFFFFFFFFFF AND PUSH20 0xFFFFFFFFFFFFFFFFFFFFFFFFFFFFFFFFFFFFFFFF AND DUP2 MSTORE PUSH1 0x20 ADD SWAP1 DUP2 MSTORE PUSH1 0x20 ADD PUSH1 0x0 KECCAK256 SLOAD SWAP1 POP SWAP3 SWAP2 POP POP JUMP JUMPDEST PUSH2 0x2F44 PUSH2 0x3818 JUMP JUMPDEST PUSH20 0xFFFFFFFFFFFFFFFFFFFFFFFFFFFFFFFFFFFFFFFF AND PUSH2 0x2F62 PUSH2 0x213F JUMP JUMPDEST PUSH20 0xFFFFFFFFFFFFFFFFFFFFFFFFFFFFFFFFFFFFFFFF AND EQ PUSH2 0x2FEB JUMPI PUSH1 0x40 MLOAD PUSH32 0x8C379A000000000000000000000000000000000000000000000000000000000 DUP2 MSTORE PUSH1 0x4 ADD DUP1 DUP1 PUSH1 0x20 ADD DUP3 DUP2 SUB DUP3 MSTORE PUSH1 0x20 DUP2 MSTORE PUSH1 0x20 ADD DUP1 PUSH32 0x4F776E61626C653A2063616C6C6572206973206E6F7420746865206F776E6572 DUP2 MSTORE POP PUSH1 0x20 ADD SWAP2 POP POP PUSH1 0x40 MLOAD DUP1 SWAP2 SUB SWAP1 REVERT JUMPDEST PUSH1 0x0 ISZERO ISZERO PUSH1 0x11 PUSH1 0x2 SWAP1 SLOAD SWAP1 PUSH2 0x100 EXP SWAP1 DIV PUSH1 0xFF AND ISZERO ISZERO EQ PUSH2 0x3074 JUMPI PUSH1 0x40 MLOAD PUSH32 0x8C379A000000000000000000000000000000000000000000000000000000000 DUP2 MSTORE PUSH1 0x4 ADD DUP1 DUP1 PUSH1 0x20 ADD DUP3 DUP2 SUB DUP3 MSTORE PUSH1 0x1A DUP2 MSTORE PUSH1 0x20 ADD DUP1 PUSH32 0x616C6C6F636174696F6E7320617265207465726D696E61746564000000000000 DUP2 MSTORE POP PUSH1 0x20 ADD SWAP2 POP POP PUSH1 0x40 MLOAD DUP1 SWAP2 SUB SWAP1 REVERT JUMPDEST PUSH2 0x307C PUSH2 0x44B9 JUMP JUMPDEST PUSH1 0x0 DUP1 DUP5 MLOAD SWAP1 POP PUSH1 0x0 DUP1 PUSH1 0x0 DUP1 DUP8 MLOAD DUP6 EQ PUSH2 0x30E2 JUMPI PUSH1 0x40 MLOAD PUSH32 0x8C379A000000000000000000000000000000000000000000000000000000000 DUP2 MSTORE PUSH1 0x4 ADD DUP1 DUP1 PUSH1 0x20 ADD DUP3 DUP2 SUB DUP3 MSTORE PUSH1 0x26 DUP2 MSTORE PUSH1 0x20 ADD DUP1 PUSH2 0x48BB PUSH1 0x26 SWAP2 CODECOPY PUSH1 0x40 ADD SWAP2 POP POP PUSH1 0x40 MLOAD DUP1 SWAP2 SUB SWAP1 REVERT JUMPDEST PUSH1 0x0 JUMPDEST DUP6 DUP2 LT ISZERO PUSH2 0x3285 JUMPI DUP10 DUP2 DUP2 MLOAD DUP2 LT PUSH2 0x30F9 JUMPI INVALID JUMPDEST PUSH1 0x20 MUL PUSH1 0x20 ADD ADD MLOAD SWAP5 POP DUP9 DUP2 DUP2 MLOAD DUP2 LT PUSH2 0x310F JUMPI INVALID JUMPDEST PUSH1 0x20 MUL PUSH1 0x20 ADD ADD MLOAD SWAP4 POP DUP8 ISZERO PUSH2 0x31F1 JUMPI PUSH2 0x3128 DUP6 PUSH2 0x3E1A JUMP JUMPDEST SWAP3 POP PUSH2 0x3191 DUP4 PUSH2 0x3183 DUP7 PUSH1 0x13 PUSH1 0x0 DUP11 PUSH20 0xFFFFFFFFFFFFFFFFFFFFFFFFFFFFFFFFFFFFFFFF AND PUSH20 0xFFFFFFFFFFFFFFFFFFFFFFFFFFFFFFFFFFFFFFFF AND DUP2 MSTORE PUSH1 0x20 ADD SWAP1 DUP2 MSTORE PUSH1 0x20 ADD PUSH1 0x0 KECCAK256 PUSH1 0x0 ADD SLOAD PUSH2 0x3D92 SWAP1 SWAP2 SWAP1 PUSH4 0xFFFFFFFF AND JUMP JUMPDEST PUSH2 0x3D92 SWAP1 SWAP2 SWAP1 PUSH4 0xFFFFFFFF AND JUMP JUMPDEST PUSH1 0x13 PUSH1 0x0 DUP8 PUSH20 0xFFFFFFFFFFFFFFFFFFFFFFFFFFFFFFFFFFFFFFFF AND PUSH20 0xFFFFFFFFFFFFFFFFFFFFFFFFFFFFFFFFFFFFFFFF AND DUP2 MSTORE PUSH1 0x20 ADD SWAP1 DUP2 MSTORE PUSH1 0x20 ADD PUSH1 0x0 KECCAK256 PUSH1 0x0 ADD DUP2 SWAP1 SSTORE POP PUSH2 0x31EA DUP4 DUP4 PUSH2 0x3D92 SWAP1 SWAP2 SWAP1 PUSH4 0xFFFFFFFF AND JUMP JUMPDEST SWAP2 POP PUSH2 0x31FC JUMP JUMPDEST PUSH2 0x31FB DUP6 DUP6 PUSH2 0x42F2 JUMP JUMPDEST JUMPDEST PUSH2 0x320F DUP5 DUP9 PUSH2 0x3D92 SWAP1 SWAP2 SWAP1 PUSH4 0xFFFFFFFF AND JUMP JUMPDEST SWAP7 POP PUSH32 0xA984939D0059BC688E1C5458F72AD05B51FC8A6BA959556F5E2EE91C1AB8C7D2 DUP6 DUP6 DUP6 DUP12 PUSH1 0x40 MLOAD DUP1 DUP6 PUSH20 0xFFFFFFFFFFFFFFFFFFFFFFFFFFFFFFFFFFFFFFFF AND DUP2 MSTORE PUSH1 0x20 ADD DUP5 DUP2 MSTORE PUSH1 0x20 ADD DUP4 DUP2 MSTORE PUSH1 0x20 ADD DUP3 ISZERO ISZERO DUP2 MSTORE PUSH1 0x20 ADD SWAP5 POP POP POP POP POP PUSH1 0x40 MLOAD DUP1 SWAP2 SUB SWAP1 LOG1 DUP1 DUP1 PUSH1 0x1 ADD SWAP2 POP POP PUSH2 0x30E5 JUMP JUMPDEST POP PUSH2 0x329B DUP7 PUSH1 0xF SLOAD PUSH2 0x3D92 SWAP1 SWAP2 SWAP1 PUSH4 0xFFFFFFFF AND JUMP JUMPDEST PUSH1 0xF DUP2 SWAP1 SSTORE POP PUSH32 0x0 PUSH2 0x32D9 PUSH1 0xB SLOAD PUSH1 0xF SLOAD PUSH2 0x3E7E SWAP1 SWAP2 SWAP1 PUSH4 0xFFFFFFFF AND JUMP JUMPDEST GT ISZERO PUSH2 0x3330 JUMPI PUSH1 0x40 MLOAD PUSH32 0x8C379A000000000000000000000000000000000000000000000000000000000 DUP2 MSTORE PUSH1 0x4 ADD DUP1 DUP1 PUSH1 0x20 ADD DUP3 DUP2 SUB DUP3 MSTORE PUSH1 0x29 DUP2 MSTORE PUSH1 0x20 ADD DUP1 PUSH2 0x46F2 PUSH1 0x29 SWAP2 CODECOPY PUSH1 0x40 ADD SWAP2 POP POP PUSH1 0x40 MLOAD DUP1 SWAP2 SUB SWAP1 REVERT JUMPDEST DUP7 ISZERO PUSH2 0x336E JUMPI PUSH2 0x3340 ADDRESS DUP8 PUSH2 0x42F2 JUMP JUMPDEST PUSH2 0x3367 DUP2 PUSH2 0x3359 DUP9 PUSH1 0xE SLOAD PUSH2 0x3D92 SWAP1 SWAP2 SWAP1 PUSH4 0xFFFFFFFF AND JUMP JUMPDEST PUSH2 0x3D92 SWAP1 SWAP2 SWAP1 PUSH4 0xFFFFFFFF AND JUMP JUMPDEST PUSH1 0xE DUP2 SWAP1 SSTORE POP JUMPDEST POP POP POP POP POP POP POP POP POP JUMP JUMPDEST PUSH1 0xD SLOAD DUP2 JUMP JUMPDEST PUSH32 0x0 DUP2 JUMP JUMPDEST PUSH1 0x0 PUSH2 0x33AD PUSH2 0x405C JUMP JUMPDEST PUSH2 0x33B6 DUP3 PUSH2 0x3E1A JUMP JUMPDEST SWAP1 POP SWAP2 SWAP1 POP JUMP JUMPDEST PUSH2 0x33C5 PUSH2 0x3818 JUMP JUMPDEST PUSH20 0xFFFFFFFFFFFFFFFFFFFFFFFFFFFFFFFFFFFFFFFF AND PUSH2 0x33E3 PUSH2 0x213F JUMP JUMPDEST PUSH20 0xFFFFFFFFFFFFFFFFFFFFFFFFFFFFFFFFFFFFFFFF AND EQ PUSH2 0x346C JUMPI PUSH1 0x40 MLOAD PUSH32 0x8C379A000000000000000000000000000000000000000000000000000000000 DUP2 MSTORE PUSH1 0x4 ADD DUP1 DUP1 PUSH1 0x20 ADD DUP3 DUP2 SUB DUP3 MSTORE PUSH1 0x20 DUP2 MSTORE PUSH1 0x20 ADD DUP1 PUSH32 0x4F776E61626C653A2063616C6C6572206973206E6F7420746865206F776E6572 DUP2 MSTORE POP PUSH1 0x20 ADD SWAP2 POP POP PUSH1 0x40 MLOAD DUP1 SWAP2 SUB SWAP1 REVERT JUMPDEST PUSH1 0x0 PUSH20 0xFFFFFFFFFFFFFFFFFFFFFFFFFFFFFFFFFFFFFFFF AND DUP2 PUSH20 0xFFFFFFFFFFFFFFFFFFFFFFFFFFFFFFFFFFFFFFFF AND EQ ISZERO PUSH2 0x34F2 JUMPI PUSH1 0x40 MLOAD PUSH32 0x8C379A000000000000000000000000000000000000000000000000000000000 DUP2 MSTORE PUSH1 0x4 ADD DUP1 DUP1 PUSH1 0x20 ADD DUP3 DUP2 SUB DUP3 MSTORE PUSH1 0x26 DUP2 MSTORE PUSH1 0x20 ADD DUP1 PUSH2 0x4684 PUSH1 0x26 SWAP2 CODECOPY PUSH1 0x40 ADD SWAP2 POP POP PUSH1 0x40 MLOAD DUP1 SWAP2 SUB SWAP1 REVERT JUMPDEST DUP1 PUSH20 0xFFFFFFFFFFFFFFFFFFFFFFFFFFFFFFFFFFFFFFFF AND PUSH1 0x5 PUSH1 0x1 SWAP1 SLOAD SWAP1 PUSH2 0x100 EXP SWAP1 DIV PUSH20 0xFFFFFFFFFFFFFFFFFFFFFFFFFFFFFFFFFFFFFFFF AND PUSH20 0xFFFFFFFFFFFFFFFFFFFFFFFFFFFFFFFFFFFFFFFF AND PUSH32 0x8BE0079C531659141344CD1FD0A4F28419497F9722A3DAAFE3B4186F6B6457E0 PUSH1 0x40 MLOAD PUSH1 0x40 MLOAD DUP1 SWAP2 SUB SWAP1 LOG3 DUP1 PUSH1 0x5 PUSH1 0x1 PUSH2 0x100 EXP DUP2 SLOAD DUP2 PUSH20 0xFFFFFFFFFFFFFFFFFFFFFFFFFFFFFFFFFFFFFFFF MUL NOT AND SWAP1 DUP4 PUSH20 0xFFFFFFFFFFFFFFFFFFFFFFFFFFFFFFFFFFFFFFFF AND MUL OR SWAP1 SSTORE POP POP JUMP JUMPDEST PUSH2 0x35BA PUSH2 0x405C JUMP JUMPDEST PUSH2 0x35C3 DUP2 PUSH2 0x4010 JUMP JUMPDEST POP JUMP JUMPDEST PUSH1 0x0 DUP1 PUSH2 0x3660 PUSH1 0x13 PUSH1 0x0 DUP7 PUSH20 0xFFFFFFFFFFFFFFFFFFFFFFFFFFFFFFFFFFFFFFFF AND PUSH20 0xFFFFFFFFFFFFFFFFFFFFFFFFFFFFFFFFFFFFFFFF AND DUP2 MSTORE PUSH1 0x20 ADD SWAP1 DUP2 MSTORE PUSH1 0x20 ADD PUSH1 0x0 KECCAK256 PUSH1 0x1 ADD SLOAD PUSH1 0x13 PUSH1 0x0 DUP8 PUSH20 0xFFFFFFFFFFFFFFFFFFFFFFFFFFFFFFFFFFFFFFFF AND PUSH20 0xFFFFFFFFFFFFFFFFFFFFFFFFFFFFFFFFFFFFFFFF AND DUP2 MSTORE PUSH1 0x20 ADD SWAP1 DUP2 MSTORE PUSH1 0x20 ADD PUSH1 0x0 KECCAK256 PUSH1 0x0 ADD SLOAD PUSH2 0x3D92 SWAP1 SWAP2 SWAP1 PUSH4 0xFFFFFFFF AND JUMP JUMPDEST SWAP1 POP PUSH1 0x0 PUSH20 0xFFFFFFFFFFFFFFFFFFFFFFFFFFFFFFFFFFFFFFFF AND PUSH1 0x6 PUSH1 0x0 SWAP1 SLOAD SWAP1 PUSH2 0x100 EXP SWAP1 DIV PUSH20 0xFFFFFFFFFFFFFFFFFFFFFFFFFFFFFFFFFFFFFFFF AND PUSH20 0xFFFFFFFFFFFFFFFFFFFFFFFFFFFFFFFFFFFFFFFF AND EQ PUSH2 0x3791 JUMPI PUSH2 0x378E PUSH1 0x6 PUSH1 0x0 SWAP1 SLOAD SWAP1 PUSH2 0x100 EXP SWAP1 DIV PUSH20 0xFFFFFFFFFFFFFFFFFFFFFFFFFFFFFFFFFFFFFFFF AND PUSH20 0xFFFFFFFFFFFFFFFFFFFFFFFFFFFFFFFFFFFFFFFF AND PUSH4 0xBA01ECEF DUP7 PUSH1 0x40 MLOAD DUP3 PUSH4 0xFFFFFFFF AND PUSH1 0xE0 SHL DUP2 MSTORE PUSH1 0x4 ADD DUP1 DUP3 PUSH20 0xFFFFFFFFFFFFFFFFFFFFFFFFFFFFFFFFFFFFFFFF AND DUP2 MSTORE PUSH1 0x20 ADD SWAP2 POP POP PUSH1 0x20 PUSH1 0x40 MLOAD DUP1 DUP4 SUB DUP2 DUP7 DUP1 EXTCODESIZE ISZERO DUP1 ISZERO PUSH2 0x3744 JUMPI PUSH1 0x0 DUP1 REVERT JUMPDEST POP GAS STATICCALL ISZERO DUP1 ISZERO PUSH2 0x3758 JUMPI RETURNDATASIZE PUSH1 0x0 DUP1 RETURNDATACOPY RETURNDATASIZE PUSH1 0x0 REVERT JUMPDEST POP POP POP POP PUSH1 0x40 MLOAD RETURNDATASIZE PUSH1 0x20 DUP2 LT ISZERO PUSH2 0x376E JUMPI PUSH1 0x0 DUP1 REVERT JUMPDEST DUP2 ADD SWAP1 DUP1 DUP1 MLOAD SWAP1 PUSH1 0x20 ADD SWAP1 SWAP3 SWAP2 SWAP1 POP POP POP DUP3 PUSH2 0x3E7E SWAP1 SWAP2 SWAP1 PUSH4 0xFFFFFFFF AND JUMP JUMPDEST SWAP1 POP JUMPDEST PUSH2 0x380F PUSH8 0xDE0B6B3A7640000 PUSH2 0x3801 PUSH2 0x37F2 PUSH1 0x12 PUSH1 0x0 DUP10 PUSH20 0xFFFFFFFFFFFFFFFFFFFFFFFFFFFFFFFFFFFFFFFF AND PUSH20 0xFFFFFFFFFFFFFFFFFFFFFFFFFFFFFFFFFFFFFFFF AND DUP2 MSTORE PUSH1 0x20 ADD SWAP1 DUP2 MSTORE PUSH1 0x20 ADD PUSH1 0x0 KECCAK256 SLOAD DUP8 PUSH2 0x3E7E SWAP1 SWAP2 SWAP1 PUSH4 0xFFFFFFFF AND JUMP JUMPDEST DUP5 PUSH2 0x3F01 SWAP1 SWAP2 SWAP1 PUSH4 0xFFFFFFFF AND JUMP JUMPDEST PUSH2 0x3F87 SWAP1 SWAP2 SWAP1 PUSH4 0xFFFFFFFF AND JUMP JUMPDEST SWAP2 POP POP SWAP3 SWAP2 POP POP JUMP JUMPDEST PUSH1 0x0 CALLER SWAP1 POP SWAP1 JUMP JUMPDEST PUSH1 0x0 PUSH20 0xFFFFFFFFFFFFFFFFFFFFFFFFFFFFFFFFFFFFFFFF AND DUP4 PUSH20 0xFFFFFFFFFFFFFFFFFFFFFFFFFFFFFFFFFFFFFFFF AND EQ ISZERO PUSH2 0x38A6 JUMPI PUSH1 0x40 MLOAD PUSH32 0x8C379A000000000000000000000000000000000000000000000000000000000 DUP2 MSTORE PUSH1 0x4 ADD DUP1 DUP1 PUSH1 0x20 ADD DUP3 DUP2 SUB DUP3 MSTORE PUSH1 0x24 DUP2 MSTORE PUSH1 0x20 ADD DUP1 PUSH2 0x4843 PUSH1 0x24 SWAP2 CODECOPY PUSH1 0x40 ADD SWAP2 POP POP PUSH1 0x40 MLOAD DUP1 SWAP2 SUB SWAP1 REVERT JUMPDEST PUSH1 0x0 PUSH20 0xFFFFFFFFFFFFFFFFFFFFFFFFFFFFFFFFFFFFFFFF AND DUP3 PUSH20 0xFFFFFFFFFFFFFFFFFFFFFFFFFFFFFFFFFFFFFFFF AND EQ ISZERO PUSH2 0x392C JUMPI PUSH1 0x40 MLOAD PUSH32 0x8C379A000000000000000000000000000000000000000000000000000000000 DUP2 MSTORE PUSH1 0x4 ADD DUP1 DUP1 PUSH1 0x20 ADD DUP3 DUP2 SUB DUP3 MSTORE PUSH1 0x22 DUP2 MSTORE PUSH1 0x20 ADD DUP1 PUSH2 0x46AA PUSH1 0x22 SWAP2 CODECOPY PUSH1 0x40 ADD SWAP2 POP POP PUSH1 0x40 MLOAD DUP1 SWAP2 SUB SWAP1 REVERT JUMPDEST DUP1 PUSH1 0x1 PUSH1 0x0 DUP6 PUSH20 0xFFFFFFFFFFFFFFFFFFFFFFFFFFFFFFFFFFFFFFFF AND PUSH20 0xFFFFFFFFFFFFFFFFFFFFFFFFFFFFFFFFFFFFFFFF AND DUP2 MSTORE PUSH1 0x20 ADD SWAP1 DUP2 MSTORE PUSH1 0x20 ADD PUSH1 0x0 KECCAK256 PUSH1 0x0 DUP5 PUSH20 0xFFFFFFFFFFFFFFFFFFFFFFFFFFFFFFFFFFFFFFFF AND PUSH20 0xFFFFFFFFFFFFFFFFFFFFFFFFFFFFFFFFFFFFFFFF AND DUP2 MSTORE PUSH1 0x20 ADD SWAP1 DUP2 MSTORE PUSH1 0x20 ADD PUSH1 0x0 KECCAK256 DUP2 SWAP1 SSTORE POP DUP2 PUSH20 0xFFFFFFFFFFFFFFFFFFFFFFFFFFFFFFFFFFFFFFFF AND DUP4 PUSH20 0xFFFFFFFFFFFFFFFFFFFFFFFFFFFFFFFFFFFFFFFF AND PUSH32 0x8C5BE1E5EBEC7D5BD14F71427D1E84F3DD0314C0F7B2291E5B200AC8C7C3B925 DUP4 PUSH1 0x40 MLOAD DUP1 DUP3 DUP2 MSTORE PUSH1 0x20 ADD SWAP2 POP POP PUSH1 0x40 MLOAD DUP1 SWAP2 SUB SWAP1 LOG3 POP POP POP JUMP JUMPDEST PUSH1 0x0 PUSH20 0xFFFFFFFFFFFFFFFFFFFFFFFFFFFFFFFFFFFFFFFF AND DUP4 PUSH20 0xFFFFFFFFFFFFFFFFFFFFFFFFFFFFFFFFFFFFFFFF AND EQ ISZERO PUSH2 0x3A9D JUMPI PUSH1 0x40 MLOAD PUSH32 0x8C379A000000000000000000000000000000000000000000000000000000000 DUP2 MSTORE PUSH1 0x4 ADD DUP1 DUP1 PUSH1 0x20 ADD DUP3 DUP2 SUB DUP3 MSTORE PUSH1 0x25 DUP2 MSTORE PUSH1 0x20 ADD DUP1 PUSH2 0x481E PUSH1 0x25 SWAP2 CODECOPY PUSH1 0x40 ADD SWAP2 POP POP PUSH1 0x40 MLOAD DUP1 SWAP2 SUB SWAP1 REVERT JUMPDEST PUSH1 0x0 PUSH20 0xFFFFFFFFFFFFFFFFFFFFFFFFFFFFFFFFFFFFFFFF AND DUP3 PUSH20 0xFFFFFFFFFFFFFFFFFFFFFFFFFFFFFFFFFFFFFFFF AND EQ ISZERO PUSH2 0x3B23 JUMPI PUSH1 0x40 MLOAD PUSH32 0x8C379A000000000000000000000000000000000000000000000000000000000 DUP2 MSTORE PUSH1 0x4 ADD DUP1 DUP1 PUSH1 0x20 ADD DUP3 DUP2 SUB DUP3 MSTORE PUSH1 0x23 DUP2 MSTORE PUSH1 0x20 ADD DUP1 PUSH2 0x463F PUSH1 0x23 SWAP2 CODECOPY PUSH1 0x40 ADD SWAP2 POP POP PUSH1 0x40 MLOAD DUP1 SWAP2 SUB SWAP1 REVERT JUMPDEST PUSH2 0x3B2E DUP4 DUP4 DUP4 PUSH2 0x4639 JUMP JUMPDEST PUSH2 0x3B99 DUP2 PUSH1 0x40 MLOAD DUP1 PUSH1 0x60 ADD PUSH1 0x40 MSTORE DUP1 PUSH1 0x26 DUP2 MSTORE PUSH1 0x20 ADD PUSH2 0x46CC PUSH1 0x26 SWAP2 CODECOPY PUSH1 0x0 DUP1 DUP8 PUSH20 0xFFFFFFFFFFFFFFFFFFFFFFFFFFFFFFFFFFFFFFFF AND PUSH20 0xFFFFFFFFFFFFFFFFFFFFFFFFFFFFFFFFFFFFFFFF AND DUP2 MSTORE PUSH1 0x20 ADD SWAP1 DUP2 MSTORE PUSH1 0x20 ADD PUSH1 0x0 KECCAK256 SLOAD PUSH2 0x3CD8 SWAP1 SWAP3 SWAP2 SWAP1 PUSH4 0xFFFFFFFF AND JUMP JUMPDEST PUSH1 0x0 DUP1 DUP6 PUSH20 0xFFFFFFFFFFFFFFFFFFFFFFFFFFFFFFFFFFFFFFFF AND PUSH20 0xFFFFFFFFFFFFFFFFFFFFFFFFFFFFFFFFFFFFFFFF AND DUP2 MSTORE PUSH1 0x20 ADD SWAP1 DUP2 MSTORE PUSH1 0x20 ADD PUSH1 0x0 KECCAK256 DUP2 SWAP1 SSTORE POP PUSH2 0x3C2C DUP2 PUSH1 0x0 DUP1 DUP6 PUSH20 0xFFFFFFFFFFFFFFFFFFFFFFFFFFFFFFFFFFFFFFFF AND PUSH20 0xFFFFFFFFFFFFFFFFFFFFFFFFFFFFFFFFFFFFFFFF AND DUP2 MSTORE PUSH1 0x20 ADD SWAP1 DUP2 MSTORE PUSH1 0x20 ADD PUSH1 0x0 KECCAK256 SLOAD PUSH2 0x3D92 SWAP1 SWAP2 SWAP1 PUSH4 0xFFFFFFFF AND JUMP JUMPDEST PUSH1 0x0 DUP1 DUP5 PUSH20 0xFFFFFFFFFFFFFFFFFFFFFFFFFFFFFFFFFFFFFFFF AND PUSH20 0xFFFFFFFFFFFFFFFFFFFFFFFFFFFFFFFFFFFFFFFF AND DUP2 MSTORE PUSH1 0x20 ADD SWAP1 DUP2 MSTORE PUSH1 0x20 ADD PUSH1 0x0 KECCAK256 DUP2 SWAP1 SSTORE POP DUP2 PUSH20 0xFFFFFFFFFFFFFFFFFFFFFFFFFFFFFFFFFFFFFFFF AND DUP4 PUSH20 0xFFFFFFFFFFFFFFFFFFFFFFFFFFFFFFFFFFFFFFFF AND PUSH32 0xDDF252AD1BE2C89B69C2B068FC378DAA952BA7F163C4A11628F55A4DF523B3EF DUP4 PUSH1 0x40 MLOAD DUP1 DUP3 DUP2 MSTORE PUSH1 0x20 ADD SWAP2 POP POP PUSH1 0x40 MLOAD DUP1 SWAP2 SUB SWAP1 LOG3 POP POP POP JUMP JUMPDEST PUSH1 0x0 DUP4 DUP4 GT ISZERO DUP3 SWAP1 PUSH2 0x3D85 JUMPI PUSH1 0x40 MLOAD PUSH32 0x8C379A000000000000000000000000000000000000000000000000000000000 DUP2 MSTORE PUSH1 0x4 ADD DUP1 DUP1 PUSH1 0x20 ADD DUP3 DUP2 SUB DUP3 MSTORE DUP4 DUP2 DUP2 MLOAD DUP2 MSTORE PUSH1 0x20 ADD SWAP2 POP DUP1 MLOAD SWAP1 PUSH1 0x20 ADD SWAP1 DUP1 DUP4 DUP4 PUSH1 0x0 JUMPDEST DUP4 DUP2 LT ISZERO PUSH2 0x3D4A JUMPI DUP1 DUP3 ADD MLOAD DUP2 DUP5 ADD MSTORE PUSH1 0x20 DUP2 ADD SWAP1 POP PUSH2 0x3D2F JUMP JUMPDEST POP POP POP POP SWAP1 POP SWAP1 DUP2 ADD SWAP1 PUSH1 0x1F AND DUP1 ISZERO PUSH2 0x3D77 JUMPI DUP1 DUP3 SUB DUP1 MLOAD PUSH1 0x1 DUP4 PUSH1 0x20 SUB PUSH2 0x100 EXP SUB NOT AND DUP2 MSTORE PUSH1 0x20 ADD SWAP2 POP JUMPDEST POP SWAP3 POP POP POP PUSH1 0x40 MLOAD DUP1 SWAP2 SUB SWAP1 REVERT JUMPDEST POP DUP3 DUP5 SUB SWAP1 POP SWAP4 SWAP3 POP POP POP JUMP JUMPDEST PUSH1 0x0 DUP1 DUP3 DUP5 ADD SWAP1 POP DUP4 DUP2 LT ISZERO PUSH2 0x3E10 JUMPI PUSH1 0x40 MLOAD PUSH32 0x8C379A000000000000000000000000000000000000000000000000000000000 DUP2 MSTORE PUSH1 0x4 ADD DUP1 DUP1 PUSH1 0x20 ADD DUP3 DUP2 SUB DUP3 MSTORE PUSH1 0x1B DUP2 MSTORE PUSH1 0x20 ADD DUP1 PUSH32 0x536166654D6174683A206164646974696F6E206F766572666C6F770000000000 DUP2 MSTORE POP PUSH1 0x20 ADD SWAP2 POP POP PUSH1 0x40 MLOAD DUP1 SWAP2 SUB SWAP1 REVERT JUMPDEST DUP1 SWAP2 POP POP SWAP3 SWAP2 POP POP JUMP JUMPDEST PUSH1 0x0 PUSH2 0x3E25 TIMESTAMP PUSH2 0x42C8 JUMP JUMPDEST PUSH2 0x3E31 DUP3 PUSH1 0xD SLOAD PUSH2 0x35C6 JUMP JUMPDEST SWAP1 POP PUSH1 0xD SLOAD PUSH1 0x12 PUSH1 0x0 DUP5 PUSH20 0xFFFFFFFFFFFFFFFFFFFFFFFFFFFFFFFFFFFFFFFF AND PUSH20 0xFFFFFFFFFFFFFFFFFFFFFFFFFFFFFFFFFFFFFFFF AND DUP2 MSTORE PUSH1 0x20 ADD SWAP1 DUP2 MSTORE PUSH1 0x20 ADD PUSH1 0x0 KECCAK256 DUP2 SWAP1 SSTORE POP SWAP2 SWAP1 POP JUMP JUMPDEST PUSH1 0x0 DUP3 DUP3 GT ISZERO PUSH2 0x3EF6 JUMPI PUSH1 0x40 MLOAD PUSH32 0x8C379A000000000000000000000000000000000000000000000000000000000 DUP2 MSTORE PUSH1 0x4 ADD DUP1 DUP1 PUSH1 0x20 ADD DUP3 DUP2 SUB DUP3 MSTORE PUSH1 0x1E DUP2 MSTORE PUSH1 0x20 ADD DUP1 PUSH32 0x536166654D6174683A207375627472616374696F6E206F766572666C6F770000 DUP2 MSTORE POP PUSH1 0x20 ADD SWAP2 POP POP PUSH1 0x40 MLOAD DUP1 SWAP2 SUB SWAP1 REVERT JUMPDEST DUP2 DUP4 SUB SWAP1 POP SWAP3 SWAP2 POP POP JUMP JUMPDEST PUSH1 0x0 DUP1 DUP4 EQ ISZERO PUSH2 0x3F14 JUMPI PUSH1 0x0 SWAP1 POP PUSH2 0x3F81 JUMP JUMPDEST PUSH1 0x0 DUP3 DUP5 MUL SWAP1 POP DUP3 DUP5 DUP3 DUP2 PUSH2 0x3F25 JUMPI INVALID JUMPDEST DIV EQ PUSH2 0x3F7C JUMPI PUSH1 0x40 MLOAD PUSH32 0x8C379A000000000000000000000000000000000000000000000000000000000 DUP2 MSTORE PUSH1 0x4 ADD DUP1 DUP1 PUSH1 0x20 ADD DUP3 DUP2 SUB DUP3 MSTORE PUSH1 0x21 DUP2 MSTORE PUSH1 0x20 ADD DUP1 PUSH2 0x473E PUSH1 0x21 SWAP2 CODECOPY PUSH1 0x40 ADD SWAP2 POP POP PUSH1 0x40 MLOAD DUP1 SWAP2 SUB SWAP1 REVERT JUMPDEST DUP1 SWAP2 POP POP JUMPDEST SWAP3 SWAP2 POP POP JUMP JUMPDEST PUSH1 0x0 DUP1 DUP3 GT PUSH2 0x3FFE JUMPI PUSH1 0x40 MLOAD PUSH32 0x8C379A000000000000000000000000000000000000000000000000000000000 DUP2 MSTORE PUSH1 0x4 ADD DUP1 DUP1 PUSH1 0x20 ADD DUP3 DUP2 SUB DUP3 MSTORE PUSH1 0x1A DUP2 MSTORE PUSH1 0x20 ADD DUP1 PUSH32 0x536166654D6174683A206469766973696F6E206279207A65726F000000000000 DUP2 MSTORE POP PUSH1 0x20 ADD SWAP2 POP POP PUSH1 0x40 MLOAD DUP1 SWAP2 SUB SWAP1 REVERT JUMPDEST DUP2 DUP4 DUP2 PUSH2 0x4007 JUMPI INVALID JUMPDEST DIV SWAP1 POP SWAP3 SWAP2 POP POP JUMP JUMPDEST PUSH2 0x4053 PUSH2 0x4042 PUSH1 0xE SLOAD PUSH2 0x4034 PUSH8 0xDE0B6B3A7640000 DUP6 PUSH2 0x3F01 SWAP1 SWAP2 SWAP1 PUSH4 0xFFFFFFFF AND JUMP JUMPDEST PUSH2 0x3F87 SWAP1 SWAP2 SWAP1 PUSH4 0xFFFFFFFF AND JUMP JUMPDEST PUSH1 0xD SLOAD PUSH2 0x3D92 SWAP1 SWAP2 SWAP1 PUSH4 0xFFFFFFFF AND JUMP JUMPDEST PUSH1 0xD DUP2 SWAP1 SSTORE POP POP JUMP JUMPDEST PUSH1 0x6 PUSH1 0x0 SWAP1 SLOAD SWAP1 PUSH2 0x100 EXP SWAP1 DIV PUSH20 0xFFFFFFFFFFFFFFFFFFFFFFFFFFFFFFFFFFFFFFFF AND PUSH20 0xFFFFFFFFFFFFFFFFFFFFFFFFFFFFFFFFFFFFFFFF AND CALLER PUSH20 0xFFFFFFFFFFFFFFFFFFFFFFFFFFFFFFFFFFFFFFFF AND EQ PUSH2 0x4102 JUMPI PUSH1 0x40 MLOAD PUSH32 0x8C379A000000000000000000000000000000000000000000000000000000000 DUP2 MSTORE PUSH1 0x4 ADD DUP1 DUP1 PUSH1 0x20 ADD DUP3 DUP2 SUB DUP3 MSTORE PUSH1 0x2D DUP2 MSTORE PUSH1 0x20 ADD DUP1 PUSH2 0x47D0 PUSH1 0x2D SWAP2 CODECOPY PUSH1 0x40 ADD SWAP2 POP POP PUSH1 0x40 MLOAD DUP1 SWAP2 SUB SWAP1 REVERT JUMPDEST JUMP JUMPDEST PUSH1 0x0 PUSH20 0xFFFFFFFFFFFFFFFFFFFFFFFFFFFFFFFFFFFFFFFF AND DUP3 PUSH20 0xFFFFFFFFFFFFFFFFFFFFFFFFFFFFFFFFFFFFFFFF AND EQ ISZERO PUSH2 0x418A JUMPI PUSH1 0x40 MLOAD PUSH32 0x8C379A000000000000000000000000000000000000000000000000000000000 DUP2 MSTORE PUSH1 0x4 ADD DUP1 DUP1 PUSH1 0x20 ADD DUP3 DUP2 SUB DUP3 MSTORE PUSH1 0x21 DUP2 MSTORE PUSH1 0x20 ADD DUP1 PUSH2 0x47FD PUSH1 0x21 SWAP2 CODECOPY PUSH1 0x40 ADD SWAP2 POP POP PUSH1 0x40 MLOAD DUP1 SWAP2 SUB SWAP1 REVERT JUMPDEST PUSH2 0x4196 DUP3 PUSH1 0x0 DUP4 PUSH2 0x4639 JUMP JUMPDEST PUSH2 0x4201 DUP2 PUSH1 0x40 MLOAD DUP1 PUSH1 0x60 ADD PUSH1 0x40 MSTORE DUP1 PUSH1 0x22 DUP2 MSTORE PUSH1 0x20 ADD PUSH2 0x4662 PUSH1 0x22 SWAP2 CODECOPY PUSH1 0x0 DUP1 DUP7 PUSH20 0xFFFFFFFFFFFFFFFFFFFFFFFFFFFFFFFFFFFFFFFF AND PUSH20 0xFFFFFFFFFFFFFFFFFFFFFFFFFFFFFFFFFFFFFFFF AND DUP2 MSTORE PUSH1 0x20 ADD SWAP1 DUP2 MSTORE PUSH1 0x20 ADD PUSH1 0x0 KECCAK256 SLOAD PUSH2 0x3CD8 SWAP1 SWAP3 SWAP2 SWAP1 PUSH4 0xFFFFFFFF AND JUMP JUMPDEST PUSH1 0x0 DUP1 DUP5 PUSH20 0xFFFFFFFFFFFFFFFFFFFFFFFFFFFFFFFFFFFFFFFF AND PUSH20 0xFFFFFFFFFFFFFFFFFFFFFFFFFFFFFFFFFFFFFFFF AND DUP2 MSTORE PUSH1 0x20 ADD SWAP1 DUP2 MSTORE PUSH1 0x20 ADD PUSH1 0x0 KECCAK256 DUP2 SWAP1 SSTORE POP PUSH2 0x4258 DUP2 PUSH1 0x2 SLOAD PUSH2 0x3E7E SWAP1 SWAP2 SWAP1 PUSH4 0xFFFFFFFF AND JUMP JUMPDEST PUSH1 0x2 DUP2 SWAP1 SSTORE POP PUSH1 0x0 PUSH20 0xFFFFFFFFFFFFFFFFFFFFFFFFFFFFFFFFFFFFFFFF AND DUP3 PUSH20 0xFFFFFFFFFFFFFFFFFFFFFFFFFFFFFFFFFFFFFFFF AND PUSH32 0xDDF252AD1BE2C89B69C2B068FC378DAA952BA7F163C4A11628F55A4DF523B3EF DUP4 PUSH1 0x40 MLOAD DUP1 DUP3 DUP2 MSTORE PUSH1 0x20 ADD SWAP2 POP POP PUSH1 0x40 MLOAD DUP1 SWAP2 SUB SWAP1 LOG3 POP POP JUMP JUMPDEST PUSH1 0x0 PUSH2 0x42D3 DUP3 PUSH2 0x2169 JUMP JUMPDEST SWAP1 POP PUSH1 0xD SLOAD DUP2 GT ISZERO PUSH2 0x42EE JUMPI DUP1 PUSH1 0xD DUP2 SWAP1 SSTORE POP DUP2 PUSH1 0x9 DUP2 SWAP1 SSTORE POP JUMPDEST POP POP JUMP JUMPDEST PUSH1 0x0 PUSH20 0xFFFFFFFFFFFFFFFFFFFFFFFFFFFFFFFFFFFFFFFF AND DUP3 PUSH20 0xFFFFFFFFFFFFFFFFFFFFFFFFFFFFFFFFFFFFFFFF AND EQ ISZERO PUSH2 0x4395 JUMPI PUSH1 0x40 MLOAD PUSH32 0x8C379A000000000000000000000000000000000000000000000000000000000 DUP2 MSTORE PUSH1 0x4 ADD DUP1 DUP1 PUSH1 0x20 ADD DUP3 DUP2 SUB DUP3 MSTORE PUSH1 0x1F DUP2 MSTORE PUSH1 0x20 ADD DUP1 PUSH32 0x45524332303A206D696E7420746F20746865207A65726F206164647265737300 DUP2 MSTORE POP PUSH1 0x20 ADD SWAP2 POP POP PUSH1 0x40 MLOAD DUP1 SWAP2 SUB SWAP1 REVERT JUMPDEST PUSH2 0x43A1 PUSH1 0x0 DUP4 DUP4 PUSH2 0x4639 JUMP JUMPDEST PUSH2 0x43B6 DUP2 PUSH1 0x2 SLOAD PUSH2 0x3D92 SWAP1 SWAP2 SWAP1 PUSH4 0xFFFFFFFF AND JUMP JUMPDEST PUSH1 0x2 DUP2 SWAP1 SSTORE POP PUSH2 0x440D DUP2 PUSH1 0x0 DUP1 DUP6 PUSH20 0xFFFFFFFFFFFFFFFFFFFFFFFFFFFFFFFFFFFFFFFF AND PUSH20 0xFFFFFFFFFFFFFFFFFFFFFFFFFFFFFFFFFFFFFFFF AND DUP2 MSTORE PUSH1 0x20 ADD SWAP1 DUP2 MSTORE PUSH1 0x20 ADD PUSH1 0x0 KECCAK256 SLOAD PUSH2 0x3D92 SWAP1 SWAP2 SWAP1 PUSH4 0xFFFFFFFF AND JUMP JUMPDEST PUSH1 0x0 DUP1 DUP5 PUSH20 0xFFFFFFFFFFFFFFFFFFFFFFFFFFFFFFFFFFFFFFFF AND PUSH20 0xFFFFFFFFFFFFFFFFFFFFFFFFFFFFFFFFFFFFFFFF AND DUP2 MSTORE PUSH1 0x20 ADD SWAP1 DUP2 MSTORE PUSH1 0x20 ADD PUSH1 0x0 KECCAK256 DUP2 SWAP1 SSTORE POP DUP2 PUSH20 0xFFFFFFFFFFFFFFFFFFFFFFFFFFFFFFFFFFFFFFFF AND PUSH1 0x0 PUSH20 0xFFFFFFFFFFFFFFFFFFFFFFFFFFFFFFFFFFFFFFFF AND PUSH32 0xDDF252AD1BE2C89B69C2B068FC378DAA952BA7F163C4A11628F55A4DF523B3EF DUP4 PUSH1 0x40 MLOAD DUP1 DUP3 DUP2 MSTORE PUSH1 0x20 ADD SWAP2 POP POP PUSH1 0x40 MLOAD DUP1 SWAP2 SUB SWAP1 LOG3 POP POP JUMP JUMPDEST PUSH1 0x0 PUSH20 0xFFFFFFFFFFFFFFFFFFFFFFFFFFFFFFFFFFFFFFFF AND PUSH1 0x6 PUSH1 0x0 SWAP1 SLOAD SWAP1 PUSH2 0x100 EXP SWAP1 DIV PUSH20 0xFFFFFFFFFFFFFFFFFFFFFFFFFFFFFFFFFFFFFFFF AND PUSH20 0xFFFFFFFFFFFFFFFFFFFFFFFFFFFFFFFFFFFFFFFF AND EQ PUSH2 0x4637 JUMPI PUSH1 0x0 PUSH1 0x6 PUSH1 0x0 SWAP1 SLOAD SWAP1 PUSH2 0x100 EXP SWAP1 DIV PUSH20 0xFFFFFFFFFFFFFFFFFFFFFFFFFFFFFFFFFFFFFFFF AND PUSH20 0xFFFFFFFFFFFFFFFFFFFFFFFFFFFFFFFFFFFFFFFF AND PUSH4 0xFD726827 PUSH1 0x40 MLOAD DUP2 PUSH4 0xFFFFFFFF AND PUSH1 0xE0 SHL DUP2 MSTORE PUSH1 0x4 ADD PUSH1 0x20 PUSH1 0x40 MLOAD DUP1 DUP4 SUB DUP2 DUP7 DUP1 EXTCODESIZE ISZERO DUP1 ISZERO PUSH2 0x4579 JUMPI PUSH1 0x0 DUP1 REVERT JUMPDEST POP GAS STATICCALL ISZERO DUP1 ISZERO PUSH2 0x458D JUMPI RETURNDATASIZE PUSH1 0x0 DUP1 RETURNDATACOPY RETURNDATASIZE PUSH1 0x0 REVERT JUMPDEST POP POP POP POP PUSH1 0x40 MLOAD RETURNDATASIZE PUSH1 0x20 DUP2 LT ISZERO PUSH2 0x45A3 JUMPI PUSH1 0x0 DUP1 REVERT JUMPDEST DUP2 ADD SWAP1 DUP1 DUP1 MLOAD SWAP1 PUSH1 0x20 ADD SWAP1 SWAP3 SWAP2 SWAP1 POP POP POP SWAP1 POP PUSH1 0x0 DUP2 GT ISZERO PUSH2 0x4635 JUMPI DUP1 TIMESTAMP LT PUSH2 0x4634 JUMPI PUSH1 0x40 MLOAD PUSH32 0x8C379A000000000000000000000000000000000000000000000000000000000 DUP2 MSTORE PUSH1 0x4 ADD DUP1 DUP1 PUSH1 0x20 ADD DUP3 DUP2 SUB DUP3 MSTORE PUSH1 0x18 DUP2 MSTORE PUSH1 0x20 ADD DUP1 PUSH32 0x50726F6A65637420616C7265616479206C61756E636865640000000000000000 DUP2 MSTORE POP PUSH1 0x20 ADD SWAP2 POP POP PUSH1 0x40 MLOAD DUP1 SWAP2 SUB SWAP1 REVERT JUMPDEST JUMPDEST POP JUMPDEST JUMP JUMPDEST POP POP POP JUMP INVALID GASLIMIT MSTORE NUMBER ORIGIN ADDRESS GASPRICE KECCAK256 PUSH21 0x72616E7366657220746F20746865207A65726F2061 PUSH5 0x6472657373 GASLIMIT MSTORE NUMBER ORIGIN ADDRESS GASPRICE KECCAK256 PUSH3 0x75726E KECCAK256 PUSH2 0x6D6F PUSH22 0x6E7420657863656564732062616C616E63654F776E61 PUSH3 0x6C653A KECCAK256 PUSH15 0x6577206F776E657220697320746865 KECCAK256 PUSH27 0x65726F206164647265737345524332303A20617070726F76652074 PUSH16 0x20746865207A65726F20616464726573 PUSH20 0x45524332303A207472616E7366657220616D6F75 PUSH15 0x7420657863656564732062616C616E PUSH4 0x654D6178 PUSH10 0x6D756D20696E69746961 PUSH13 0x20746F6B656E20616C6C6F6361 PUSH21 0x696F6E2065786365656465645472616E7361637469 PUSH16 0x6E73206172652063757272656E746C79 KECCAK256 PUSH5 0x697361626C PUSH6 0x64536166654D PUSH2 0x7468 GASPRICE KECCAK256 PUSH14 0x756C7469706C69636174696F6E20 PUSH16 0x766572666C6F774D617820616C6C6F77 PUSH6 0x6420746F6B65 PUSH15 0x20616D6F756E742065786365656465 PUSH5 0x4552433230 GASPRICE KECCAK256 PUSH21 0x72616E7366657220616D6F756E7420657863656564 PUSH20 0x20616C6C6F77616E636543757272656E74207374 PUSH2 0x6B69 PUSH15 0x672063616D706169676E206973206E PUSH16 0x74206F766572207965744F6E6C792076 PUSH2 0x6C69 PUSH5 0x6174656420 0x49 PUSH15 0x7465726661636550726F6A65637454 PUSH16 0x6B656E20436F6E747261637445524332 ADDRESS GASPRICE KECCAK256 PUSH3 0x75726E KECCAK256 PUSH7 0x726F6D20746865 KECCAK256 PUSH27 0x65726F206164647265737345524332303A207472616E7366657220 PUSH7 0x726F6D20746865 KECCAK256 PUSH27 0x65726F206164647265737345524332303A20617070726F76652066 PUSH19 0x6F6D20746865207A65726F2061646472657373 MSTORE8 PUSH21 0x617274696E672064617465206D7573742062652061 PUSH7 0x74657220637572 PUSH19 0x656E74206461746520616E64207374616B696E PUSH8 0x206475726174696F PUSH15 0x206D75737420626520677265617465 PUSH19 0x207468616E203050726F766964652073616D65 KECCAK256 PUSH2 0x6D6F PUSH22 0x6E74206F662076616C75657320617320757365727345 MSTORE NUMBER ORIGIN ADDRESS GASPRICE KECCAK256 PUSH5 0x6563726561 PUSH20 0x656420616C6C6F77616E63652062656C6F77207A PUSH6 0x726FA2646970 PUSH7 0x73582212209C0B DUP2 0xDE DUP12 BYTE 0xEF 0x2D 0xBD DUP12 CREATE2 0x2D PUSH28 0x2641C83E8795E2151B4E54EA2F8657FA5FAE8464736F6C6343000706 STOP CALLER 0x4D PUSH2 0x7869 PUSH14 0x756D20636C61696D20666565206D PUSH22 0x7374206265206C6F776572207468616E203130302549 PUSH15 0x697469616C20756E6C6F636B206D75 PUSH20 0x74206265206C6F776572207468616E2031303025 0x49 PUSH7 0x206E6F20766573 PUSH21 0x696E672C20616C6C20746F6B656E73206D75737420 PUSH3 0x652072 PUSH6 0x6C6561736564 KECCAK256 PUSH2 0x7420 PUSH13 0x61756E63684D6178696D756D20 PUSH24 0x69746864726177616C20666565206D757374206265206C6F PUSH24 0x6572207468616E2031303025000000000000000000000000 "
    },
    "gasEstimates": {
      "creation": {
        "codeDepositCost": "3749400",
        "executionCost": "infinite",
        "totalCost": "infinite"
      },
      "external": {
        "allocateLTByOwner(address[],uint256[],bool)": "infinite",
        "allowance(address,address)": "1388",
        "approve(address,uint256)": "infinite",
        "areAllocationsTerminated()": "1231",
        "areUserFunctionsDisabled()": "1138",
        "balanceOf(address)": "1308",
        "burnByInterfaceProjectToken(uint256)": "infinite",
        "campaignStakingRewards()": "1075",
        "claimedRewardPerShare1e18(address)": "1259",
        "currentRewardPerShare1e18()": "1116",
        "decimals()": "1190",
        "decreaseAllowance(address,uint256)": "infinite",
        "depositLT(uint256)": "infinite",
        "dischargeUserTokens(address,uint256)": "infinite",
        "durationCliff()": "infinite",
        "durationLinearVesting()": "infinite",
        "enableOrDisableUserFunctions()": "22908",
        "ensureUserFunctionsAreNotDisabled()": "infinite",
        "fractionInitialUnlockPerThousand()": "infinite",
        "getHodlRewards(address,uint256)": "infinite",
        "getUpdatedRewardPerShare1e18(uint256)": "infinite",
        "getUserDateOfPartiallyChargedToken(address)": "1315",
        "getUserFullyChargedBalanceLiquiToken(address)": "1336",
        "getUserPartiallyChargedBalanceLiquiToken(address)": "1291",
        "increaseAllowance(address,uint256)": "infinite",
        "interfaceProjectToken()": "1137",
        "isInterfaceProjectTokenLocked()": "1165",
        "lockInterfaceProjectToken()": "22120",
        "maxClaimFeesPerThousandForPT()": "infinite",
        "maxInitialTokenAllocation()": "infinite",
        "maxStakingAPR()": "infinite",
        "maxStakingTokenAmount()": "infinite",
        "maxWithdrawFeesPerThousandForLT()": "infinite",
        "mintByInterfaceProjectToken(uint256)": "infinite",
        "multiplier1K()": "316",
        "name()": "infinite",
        "owner()": "1217",
        "ratioFeesToRewardHodlersPerThousand()": "1117",
        "rechargeUserTokens(address,uint256,uint256,uint256)": "infinite",
        "renounceOwnership()": "24616",
        "setInterfaceProjectToken(address)": "23183",
        "setStakingRewards(uint256,uint256,uint256)": "infinite",
        "stakedLT()": "1072",
        "stakingDateLastCheckpoint()": "1073",
        "stakingDuration()": "1138",
        "stakingStartDate()": "1094",
        "symbol()": "infinite",
        "terminateAllocations()": "22118",
        "totalStakingRewards()": "1073",
        "totalSupply()": "1104",
        "totalTokenAllocated()": "1118",
        "transfer(address,uint256)": "infinite",
        "transferFrom(address,address,uint256)": "infinite",
        "transferOwnership(address)": "infinite",
        "updateRatioFeesToRewardHodlers(uint256)": "21326",
        "updateRewardsAfterFeesPaymentByInterface(uint256)": "infinite",
        "updateStakingAndGetHodlRewardsByInterfacePT(address)": "infinite",
        "updateWithdrawalFeesForLT(uint256)": "infinite",
        "userLiquiToken(address)": "2938",
        "withdrawFeesPerThousandForLT()": "1117",
        "withdrawLT(uint256)": "infinite"
      },
      "internal": {
        "checkProjectNotYetLaunched()": "infinite",
        "ensureOnlyInterfaceProjectToken()": "infinite",
        "updateRewardsAfterFeesPayment(uint256)": "infinite",
        "updateStakingAndGetHodlRewards(address)": "infinite",
        "updateStakingParameters(uint256)": "infinite"
      }
    },
    "methodIdentifiers": {
      "allocateLTByOwner(address[],uint256[],bool)": "df910817",
      "allowance(address,address)": "dd62ed3e",
      "approve(address,uint256)": "095ea7b3",
      "areAllocationsTerminated()": "9863d644",
      "areUserFunctionsDisabled()": "63cf3cff",
      "balanceOf(address)": "70a08231",
      "burnByInterfaceProjectToken(uint256)": "6d69847d",
      "campaignStakingRewards()": "03ff8e88",
      "claimedRewardPerShare1e18(address)": "95230a80",
      "currentRewardPerShare1e18()": "e0d0c567",
      "decimals()": "313ce567",
      "decreaseAllowance(address,uint256)": "a457c2d7",
      "depositLT(uint256)": "d49d18d6",
      "dischargeUserTokens(address,uint256)": "82af7d39",
      "durationCliff()": "3f2b437d",
      "durationLinearVesting()": "e54dd98a",
      "enableOrDisableUserFunctions()": "a74536e0",
      "ensureUserFunctionsAreNotDisabled()": "1f93abd4",
      "fractionInitialUnlockPerThousand()": "2945ac68",
      "getHodlRewards(address,uint256)": "fb3da545",
      "getUpdatedRewardPerShare1e18(uint256)": "908a6bf0",
      "getUserDateOfPartiallyChargedToken(address)": "305e2daf",
      "getUserFullyChargedBalanceLiquiToken(address)": "7561ea9a",
      "getUserPartiallyChargedBalanceLiquiToken(address)": "9f65ffb0",
      "increaseAllowance(address,uint256)": "39509351",
      "interfaceProjectToken()": "3e332f16",
      "isInterfaceProjectTokenLocked()": "8a1e4393",
      "lockInterfaceProjectToken()": "5798b1ff",
      "maxClaimFeesPerThousandForPT()": "78e104da",
      "maxInitialTokenAllocation()": "86982e61",
      "maxStakingAPR()": "1387520a",
      "maxStakingTokenAmount()": "82fb82f5",
      "maxWithdrawFeesPerThousandForLT()": "8aa03a3c",
      "mintByInterfaceProjectToken(uint256)": "da3a5936",
      "multiplier1K()": "7e267f39",
      "name()": "06fdde03",
      "owner()": "8da5cb5b",
      "ratioFeesToRewardHodlersPerThousand()": "74ddcd1d",
      "rechargeUserTokens(address,uint256,uint256,uint256)": "740c3495",
      "renounceOwnership()": "715018a6",
      "setInterfaceProjectToken(address)": "dccdc995",
      "setStakingRewards(uint256,uint256,uint256)": "a1b0c412",
      "stakedLT()": "c96877a2",
      "stakingDateLastCheckpoint()": "6c1f89ed",
      "stakingDuration()": "8005a7de",
      "stakingStartDate()": "7ccf0226",
      "symbol()": "95d89b41",
      "terminateAllocations()": "9c3bcbb1",
      "totalStakingRewards()": "93ef357a",
      "totalSupply()": "18160ddd",
      "totalTokenAllocated()": "6a4bd5a6",
      "transfer(address,uint256)": "a9059cbb",
      "transferFrom(address,address,uint256)": "23b872dd",
      "transferOwnership(address)": "f2fde38b",
      "updateRatioFeesToRewardHodlers(uint256)": "72b990b5",
      "updateRewardsAfterFeesPaymentByInterface(uint256)": "f331a867",
      "updateStakingAndGetHodlRewardsByInterfacePT(address)": "efb5c2f3",
      "updateWithdrawalFeesForLT(uint256)": "bf777f82",
      "userLiquiToken(address)": "30400a86",
      "withdrawFeesPerThousandForLT()": "abfdce2c",
      "withdrawLT(uint256)": "483f3ac7"
    }
  },
  "storageLayout": {
    "storage": [
      {
        "astId": 2994,
        "contract": "LiquidityToken.sol:LiquidityToken",
        "label": "_balances",
        "offset": 0,
        "slot": "0",
        "type": "t_mapping(t_address,t_uint256)"
      },
      {
        "astId": 3000,
        "contract": "LiquidityToken.sol:LiquidityToken",
        "label": "_allowances",
        "offset": 0,
        "slot": "1",
        "type": "t_mapping(t_address,t_mapping(t_address,t_uint256))"
      },
      {
        "astId": 3002,
        "contract": "LiquidityToken.sol:LiquidityToken",
        "label": "_totalSupply",
        "offset": 0,
        "slot": "2",
        "type": "t_uint256"
      },
      {
        "astId": 3004,
        "contract": "LiquidityToken.sol:LiquidityToken",
        "label": "_name",
        "offset": 0,
        "slot": "3",
        "type": "t_string_storage"
      },
      {
        "astId": 3006,
        "contract": "LiquidityToken.sol:LiquidityToken",
        "label": "_symbol",
        "offset": 0,
        "slot": "4",
        "type": "t_string_storage"
      },
      {
        "astId": 3008,
        "contract": "LiquidityToken.sol:LiquidityToken",
        "label": "_decimals",
        "offset": 0,
        "slot": "5",
        "type": "t_uint8"
      },
      {
        "astId": 2485,
        "contract": "LiquidityToken.sol:LiquidityToken",
        "label": "_owner",
        "offset": 1,
        "slot": "5",
        "type": "t_address"
      },
      {
        "astId": 1218,
        "contract": "LiquidityToken.sol:LiquidityToken",
        "label": "interfaceProjectToken",
        "offset": 0,
        "slot": "6",
        "type": "t_contract(InterfaceProjectToken)1203"
      },
      {
        "astId": 1223,
        "contract": "LiquidityToken.sol:LiquidityToken",
        "label": "stakingStartDate",
        "offset": 0,
        "slot": "7",
        "type": "t_uint256"
      },
      {
        "astId": 1225,
        "contract": "LiquidityToken.sol:LiquidityToken",
        "label": "stakingDuration",
        "offset": 0,
        "slot": "8",
        "type": "t_uint256"
      },
      {
        "astId": 1227,
        "contract": "LiquidityToken.sol:LiquidityToken",
        "label": "stakingDateLastCheckpoint",
        "offset": 0,
        "slot": "9",
        "type": "t_uint256"
      },
      {
        "astId": 1229,
        "contract": "LiquidityToken.sol:LiquidityToken",
        "label": "campaignStakingRewards",
        "offset": 0,
        "slot": "10",
        "type": "t_uint256"
      },
      {
        "astId": 1231,
        "contract": "LiquidityToken.sol:LiquidityToken",
        "label": "totalStakingRewards",
        "offset": 0,
        "slot": "11",
        "type": "t_uint256"
      },
      {
        "astId": 1234,
        "contract": "LiquidityToken.sol:LiquidityToken",
        "label": "ratioFeesToRewardHodlersPerThousand",
        "offset": 0,
        "slot": "12",
        "type": "t_uint256"
      },
      {
        "astId": 1236,
        "contract": "LiquidityToken.sol:LiquidityToken",
        "label": "currentRewardPerShare1e18",
        "offset": 0,
        "slot": "13",
        "type": "t_uint256"
      },
      {
        "astId": 1238,
        "contract": "LiquidityToken.sol:LiquidityToken",
        "label": "stakedLT",
        "offset": 0,
        "slot": "14",
        "type": "t_uint256"
      },
      {
        "astId": 1240,
        "contract": "LiquidityToken.sol:LiquidityToken",
        "label": "totalTokenAllocated",
        "offset": 0,
        "slot": "15",
        "type": "t_uint256"
      },
      {
        "astId": 1242,
        "contract": "LiquidityToken.sol:LiquidityToken",
        "label": "withdrawFeesPerThousandForLT",
        "offset": 0,
        "slot": "16",
        "type": "t_uint256"
      },
      {
        "astId": 1244,
        "contract": "LiquidityToken.sol:LiquidityToken",
        "label": "areUserFunctionsDisabled",
        "offset": 0,
        "slot": "17",
        "type": "t_bool"
      },
      {
        "astId": 1246,
        "contract": "LiquidityToken.sol:LiquidityToken",
        "label": "isInterfaceProjectTokenLocked",
        "offset": 1,
        "slot": "17",
        "type": "t_bool"
      },
      {
        "astId": 1248,
        "contract": "LiquidityToken.sol:LiquidityToken",
        "label": "areAllocationsTerminated",
        "offset": 2,
        "slot": "17",
        "type": "t_bool"
      },
      {
        "astId": 1268,
        "contract": "LiquidityToken.sol:LiquidityToken",
        "label": "claimedRewardPerShare1e18",
        "offset": 0,
        "slot": "18",
        "type": "t_mapping(t_address,t_uint256)"
      },
      {
        "astId": 1279,
        "contract": "LiquidityToken.sol:LiquidityToken",
        "label": "userLiquiToken",
        "offset": 0,
        "slot": "19",
        "type": "t_mapping(t_address,t_struct(LiquiToken)1275_storage)"
      }
    ],
    "types": {
      "t_address": {
        "encoding": "inplace",
        "label": "address",
        "numberOfBytes": "20"
      },
      "t_bool": {
        "encoding": "inplace",
        "label": "bool",
        "numberOfBytes": "1"
      },
      "t_contract(InterfaceProjectToken)1203": {
        "encoding": "inplace",
        "label": "contract InterfaceProjectToken",
        "numberOfBytes": "20"
      },
      "t_mapping(t_address,t_mapping(t_address,t_uint256))": {
        "encoding": "mapping",
        "key": "t_address",
        "label": "mapping(address => mapping(address => uint256))",
        "numberOfBytes": "32",
        "value": "t_mapping(t_address,t_uint256)"
      },
      "t_mapping(t_address,t_struct(LiquiToken)1275_storage)": {
        "encoding": "mapping",
        "key": "t_address",
        "label": "mapping(address => struct LiquidityToken.LiquiToken)",
        "numberOfBytes": "32",
        "value": "t_struct(LiquiToken)1275_storage"
      },
      "t_mapping(t_address,t_uint256)": {
        "encoding": "mapping",
        "key": "t_address",
        "label": "mapping(address => uint256)",
        "numberOfBytes": "32",
        "value": "t_uint256"
      },
      "t_string_storage": {
        "encoding": "bytes",
        "label": "string",
        "numberOfBytes": "32"
      },
      "t_struct(LiquiToken)1275_storage": {
        "encoding": "inplace",
        "label": "struct LiquidityToken.LiquiToken",
        "members": [
          {
            "astId": 1270,
            "contract": "LiquidityToken.sol:LiquidityToken",
            "label": "fullyChargedBalance",
            "offset": 0,
            "slot": "0",
            "type": "t_uint256"
          },
          {
            "astId": 1272,
            "contract": "LiquidityToken.sol:LiquidityToken",
            "label": "partiallyChargedBalance",
            "offset": 0,
            "slot": "1",
            "type": "t_uint256"
          },
          {
            "astId": 1274,
            "contract": "LiquidityToken.sol:LiquidityToken",
            "label": "dateOfPartiallyCharged",
            "offset": 0,
            "slot": "2",
            "type": "t_uint256"
          }
        ],
        "numberOfBytes": "96"
      },
      "t_uint256": {
        "encoding": "inplace",
        "label": "uint256",
        "numberOfBytes": "32"
      },
      "t_uint8": {
        "encoding": "inplace",
        "label": "uint8",
        "numberOfBytes": "1"
      }
    }
  },
  "userdoc": {
    "events": {
      "LTAllocatedByOwner(address,uint256,uint256,bool)": {
        "notice": "Events ///////////////////////////////////////////////////////////////////"
      }
    },
    "kind": "user",
    "methods": {},
    "version": 1
  }
}